{
  "address": "0x3704CC42ca82581232b88bD3ea82098D55eBa3F8",
  "abi": [
    {
      "anonymous": false,
      "inputs": [
        {
          "indexed": false,
          "internalType": "address",
          "name": "oldAdmin",
          "type": "address"
        },
        {
          "indexed": false,
          "internalType": "address",
          "name": "newAdmin",
          "type": "address"
        }
      ],
      "name": "AdminChanged",
      "type": "event"
    },
    {
      "anonymous": false,
      "inputs": [
        {
          "indexed": true,
          "internalType": "address",
          "name": "_owner",
          "type": "address"
        },
        {
          "indexed": true,
          "internalType": "address",
          "name": "_approved",
          "type": "address"
        },
        {
          "indexed": true,
          "internalType": "uint256",
          "name": "_tokenId",
          "type": "uint256"
        }
      ],
      "name": "Approval",
      "type": "event"
    },
    {
      "anonymous": false,
      "inputs": [
        {
          "indexed": true,
          "internalType": "address",
          "name": "owner",
          "type": "address"
        },
        {
          "indexed": true,
          "internalType": "address",
          "name": "operator",
          "type": "address"
        },
        {
          "indexed": false,
          "internalType": "bool",
          "name": "approved",
          "type": "bool"
        }
      ],
      "name": "ApprovalForAll",
      "type": "event"
    },
    {
      "anonymous": false,
      "inputs": [
        {
          "indexed": true,
          "internalType": "uint256",
          "name": "fromId",
          "type": "uint256"
        },
        {
          "indexed": false,
          "internalType": "uint256",
          "name": "toId",
          "type": "uint256"
        }
      ],
      "name": "AssetUpdate",
      "type": "event"
    },
    {
      "anonymous": false,
      "inputs": [
        {
          "indexed": false,
          "internalType": "address",
          "name": "bouncer",
          "type": "address"
        },
        {
          "indexed": false,
          "internalType": "bool",
          "name": "enabled",
          "type": "bool"
        }
      ],
      "name": "Bouncer",
      "type": "event"
    },
    {
      "anonymous": false,
      "inputs": [
        {
          "indexed": false,
          "internalType": "address",
          "name": "oldBouncerAdmin",
          "type": "address"
        },
        {
          "indexed": false,
          "internalType": "address",
          "name": "newBouncerAdmin",
          "type": "address"
        }
      ],
      "name": "BouncerAdminChanged",
      "type": "event"
    },
    {
      "anonymous": false,
      "inputs": [
        {
          "indexed": true,
          "internalType": "address",
          "name": "original",
          "type": "address"
        },
        {
          "indexed": true,
          "internalType": "address",
          "name": "from",
          "type": "address"
        },
        {
          "indexed": true,
          "internalType": "address",
          "name": "to",
          "type": "address"
        }
      ],
      "name": "CreatorshipTransfer",
      "type": "event"
    },
    {
      "anonymous": false,
      "inputs": [
        {
          "indexed": true,
          "internalType": "uint256",
          "name": "fromId",
          "type": "uint256"
        },
        {
          "indexed": false,
          "internalType": "uint256",
          "name": "toId",
          "type": "uint256"
        }
      ],
      "name": "Extraction",
      "type": "event"
    },
    {
      "anonymous": false,
      "inputs": [
        {
          "indexed": false,
          "internalType": "address",
          "name": "metaTransactionProcessor",
          "type": "address"
        },
        {
          "indexed": false,
          "internalType": "bool",
          "name": "enabled",
          "type": "bool"
        }
      ],
      "name": "MetaTransactionProcessor",
      "type": "event"
    },
    {
      "anonymous": false,
      "inputs": [
        {
          "indexed": false,
          "internalType": "address",
          "name": "superOperator",
          "type": "address"
        },
        {
          "indexed": false,
          "internalType": "bool",
          "name": "enabled",
          "type": "bool"
        }
      ],
      "name": "SuperOperator",
      "type": "event"
    },
    {
      "anonymous": false,
      "inputs": [
        {
          "indexed": true,
          "internalType": "address",
          "name": "_from",
          "type": "address"
        },
        {
          "indexed": true,
          "internalType": "address",
          "name": "_to",
          "type": "address"
        },
        {
          "indexed": true,
          "internalType": "uint256",
          "name": "_tokenId",
          "type": "uint256"
        }
      ],
      "name": "Transfer",
      "type": "event"
    },
    {
      "anonymous": false,
      "inputs": [
        {
          "indexed": true,
          "internalType": "address",
          "name": "operator",
          "type": "address"
        },
        {
          "indexed": true,
          "internalType": "address",
          "name": "from",
          "type": "address"
        },
        {
          "indexed": true,
          "internalType": "address",
          "name": "to",
          "type": "address"
        },
        {
          "indexed": false,
          "internalType": "uint256[]",
          "name": "ids",
          "type": "uint256[]"
        },
        {
          "indexed": false,
          "internalType": "uint256[]",
          "name": "values",
          "type": "uint256[]"
        }
      ],
      "name": "TransferBatch",
      "type": "event"
    },
    {
      "anonymous": false,
      "inputs": [
        {
          "indexed": true,
          "internalType": "address",
          "name": "operator",
          "type": "address"
        },
        {
          "indexed": true,
          "internalType": "address",
          "name": "from",
          "type": "address"
        },
        {
          "indexed": true,
          "internalType": "address",
          "name": "to",
          "type": "address"
        },
        {
          "indexed": false,
          "internalType": "uint256",
          "name": "id",
          "type": "uint256"
        },
        {
          "indexed": false,
          "internalType": "uint256",
          "name": "value",
          "type": "uint256"
        }
      ],
      "name": "TransferSingle",
      "type": "event"
    },
    {
      "anonymous": false,
      "inputs": [
        {
          "indexed": false,
          "internalType": "string",
          "name": "value",
          "type": "string"
        },
        {
          "indexed": true,
          "internalType": "uint256",
          "name": "id",
          "type": "uint256"
        }
      ],
      "name": "URI",
      "type": "event"
    },
    {
      "inputs": [
        {
          "internalType": "address",
          "name": "operator",
          "type": "address"
        },
        {
          "internalType": "uint256",
          "name": "id",
          "type": "uint256"
        }
      ],
      "name": "approve",
      "outputs": [],
      "stateMutability": "nonpayable",
      "type": "function"
    },
    {
      "inputs": [
        {
          "internalType": "address",
          "name": "owner",
          "type": "address"
        },
        {
          "internalType": "uint256",
          "name": "id",
          "type": "uint256"
        }
      ],
      "name": "balanceOf",
      "outputs": [
        {
          "internalType": "uint256",
          "name": "",
          "type": "uint256"
        }
      ],
      "stateMutability": "view",
      "type": "function"
    },
    {
      "inputs": [
        {
          "internalType": "address",
          "name": "owner",
          "type": "address"
        }
      ],
      "name": "balanceOf",
      "outputs": [
        {
          "internalType": "uint256",
          "name": "balance",
          "type": "uint256"
        }
      ],
      "stateMutability": "view",
      "type": "function"
    },
    {
      "inputs": [
        {
          "internalType": "address[]",
          "name": "owners",
          "type": "address[]"
        },
        {
          "internalType": "uint256[]",
          "name": "ids",
          "type": "uint256[]"
        }
      ],
      "name": "balanceOfBatch",
      "outputs": [
        {
          "internalType": "uint256[]",
          "name": "",
          "type": "uint256[]"
        }
      ],
      "stateMutability": "view",
      "type": "function"
    },
    {
      "inputs": [
        {
          "internalType": "address",
          "name": "from",
          "type": "address"
        },
        {
          "internalType": "uint256",
          "name": "id",
          "type": "uint256"
        },
        {
          "internalType": "uint256",
          "name": "amount",
          "type": "uint256"
        }
      ],
      "name": "burnFrom",
      "outputs": [],
      "stateMutability": "nonpayable",
      "type": "function"
    },
    {
      "inputs": [
        {
          "internalType": "address",
          "name": "newAdmin",
          "type": "address"
        }
      ],
      "name": "changeAdmin",
      "outputs": [],
      "stateMutability": "nonpayable",
      "type": "function"
    },
    {
      "inputs": [
        {
          "internalType": "address",
          "name": "newBouncerAdmin",
          "type": "address"
        }
      ],
      "name": "changeBouncerAdmin",
      "outputs": [],
      "stateMutability": "nonpayable",
      "type": "function"
    },
    {
      "inputs": [
        {
          "internalType": "uint256",
          "name": "id",
          "type": "uint256"
        }
      ],
      "name": "collectionIndexOf",
      "outputs": [
        {
          "internalType": "uint256",
          "name": "",
          "type": "uint256"
        }
      ],
      "stateMutability": "view",
      "type": "function"
    },
    {
      "inputs": [
        {
          "internalType": "uint256",
          "name": "id",
          "type": "uint256"
        }
      ],
      "name": "collectionOf",
      "outputs": [
        {
          "internalType": "uint256",
          "name": "",
          "type": "uint256"
        }
      ],
      "stateMutability": "view",
      "type": "function"
    },
    {
      "inputs": [
        {
          "internalType": "uint256",
          "name": "id",
          "type": "uint256"
        }
      ],
      "name": "creatorOf",
      "outputs": [
        {
          "internalType": "address",
          "name": "",
          "type": "address"
        }
      ],
      "stateMutability": "view",
      "type": "function"
    },
    {
      "inputs": [
        {
          "internalType": "address",
          "name": "sender",
          "type": "address"
        },
        {
          "internalType": "uint256",
          "name": "id",
          "type": "uint256"
        },
        {
          "internalType": "address",
          "name": "to",
          "type": "address"
        }
      ],
      "name": "extractERC721From",
      "outputs": [
        {
          "internalType": "uint256",
          "name": "newId",
          "type": "uint256"
        }
      ],
      "stateMutability": "nonpayable",
      "type": "function"
    },
    {
      "inputs": [],
      "name": "getAdmin",
      "outputs": [
        {
          "internalType": "address",
          "name": "",
          "type": "address"
        }
      ],
      "stateMutability": "view",
      "type": "function"
    },
    {
      "inputs": [
        {
          "internalType": "uint256",
          "name": "id",
          "type": "uint256"
        }
      ],
      "name": "getApproved",
      "outputs": [
        {
          "internalType": "address",
          "name": "operator",
          "type": "address"
        }
      ],
      "stateMutability": "view",
      "type": "function"
    },
    {
      "inputs": [],
      "name": "getBouncerAdmin",
      "outputs": [
        {
          "internalType": "address",
          "name": "",
          "type": "address"
        }
      ],
      "stateMutability": "view",
      "type": "function"
    },
    {
      "inputs": [],
      "name": "getTrustedForwarder",
      "outputs": [
        {
          "internalType": "address",
          "name": "trustedForwarder",
          "type": "address"
        }
      ],
      "stateMutability": "view",
      "type": "function"
    },
    {
      "inputs": [
        {
          "internalType": "address",
          "name": "trustedForwarder",
          "type": "address"
        },
        {
          "internalType": "address",
          "name": "admin",
          "type": "address"
        },
        {
          "internalType": "address",
          "name": "bouncerAdmin",
          "type": "address"
        },
        {
          "internalType": "address",
          "name": "predicate",
          "type": "address"
        },
        {
          "internalType": "uint8",
          "name": "chainIndex",
          "type": "uint8"
        }
      ],
      "name": "initV2",
      "outputs": [],
      "stateMutability": "nonpayable",
      "type": "function"
    },
    {
      "inputs": [
        {
          "internalType": "address",
          "name": "owner",
          "type": "address"
        },
        {
          "internalType": "address",
          "name": "operator",
          "type": "address"
        }
      ],
      "name": "isApprovedForAll",
      "outputs": [
        {
          "internalType": "bool",
          "name": "isOperator",
          "type": "bool"
        }
      ],
      "stateMutability": "view",
      "type": "function"
    },
    {
      "inputs": [
        {
          "internalType": "address",
          "name": "who",
          "type": "address"
        }
      ],
      "name": "isBouncer",
      "outputs": [
        {
          "internalType": "bool",
          "name": "",
          "type": "bool"
        }
      ],
      "stateMutability": "view",
      "type": "function"
    },
    {
      "inputs": [
        {
          "internalType": "uint256",
          "name": "id",
          "type": "uint256"
        }
      ],
      "name": "isCollection",
      "outputs": [
        {
          "internalType": "bool",
          "name": "",
          "type": "bool"
        }
      ],
      "stateMutability": "view",
      "type": "function"
    },
    {
      "inputs": [
        {
          "internalType": "address",
          "name": "creator",
          "type": "address"
        },
        {
          "internalType": "uint40",
          "name": "packId",
          "type": "uint40"
        },
        {
          "internalType": "uint16",
          "name": "numFTs",
          "type": "uint16"
        }
      ],
      "name": "isPackIdUsed",
      "outputs": [
        {
          "internalType": "bool",
          "name": "",
          "type": "bool"
        }
      ],
      "stateMutability": "view",
      "type": "function"
    },
    {
      "inputs": [
        {
          "internalType": "address",
          "name": "who",
          "type": "address"
        }
      ],
      "name": "isSuperOperator",
      "outputs": [
        {
          "internalType": "bool",
          "name": "",
          "type": "bool"
        }
      ],
      "stateMutability": "view",
      "type": "function"
    },
    {
      "inputs": [
        {
          "internalType": "address",
          "name": "forwarder",
          "type": "address"
        }
      ],
      "name": "isTrustedForwarder",
      "outputs": [
        {
          "internalType": "bool",
          "name": "",
          "type": "bool"
        }
      ],
      "stateMutability": "view",
      "type": "function"
    },
    {
      "inputs": [
        {
          "internalType": "address",
          "name": "creator",
          "type": "address"
        },
        {
          "internalType": "uint40",
          "name": "packId",
          "type": "uint40"
        },
        {
          "internalType": "bytes32",
          "name": "hash",
          "type": "bytes32"
        },
        {
          "internalType": "uint256",
          "name": "supply",
          "type": "uint256"
        },
        {
          "internalType": "uint8",
          "name": "rarity",
          "type": "uint8"
        },
        {
          "internalType": "address",
          "name": "owner",
          "type": "address"
        },
        {
          "internalType": "bytes",
          "name": "data",
          "type": "bytes"
        }
      ],
      "name": "mint",
      "outputs": [
        {
          "internalType": "uint256",
          "name": "id",
          "type": "uint256"
        }
      ],
      "stateMutability": "nonpayable",
      "type": "function"
    },
    {
      "inputs": [
        {
          "internalType": "address",
          "name": "to",
          "type": "address"
        },
        {
          "internalType": "uint256[]",
          "name": "ids",
          "type": "uint256[]"
        },
        {
          "internalType": "uint256[]",
          "name": "amounts",
          "type": "uint256[]"
        },
        {
          "internalType": "bytes",
          "name": "data",
          "type": "bytes"
        }
      ],
      "name": "mintBatch",
      "outputs": [],
      "stateMutability": "nonpayable",
      "type": "function"
    },
    {
      "inputs": [
        {
          "internalType": "address",
          "name": "creator",
          "type": "address"
        },
        {
          "internalType": "uint40",
          "name": "packId",
          "type": "uint40"
        },
        {
          "internalType": "bytes32",
          "name": "hash",
          "type": "bytes32"
        },
        {
          "internalType": "uint256[]",
          "name": "supplies",
          "type": "uint256[]"
        },
        {
          "internalType": "bytes",
          "name": "rarityPack",
          "type": "bytes"
        },
        {
          "internalType": "address",
          "name": "owner",
          "type": "address"
        },
        {
          "internalType": "bytes",
          "name": "data",
          "type": "bytes"
        }
      ],
      "name": "mintMultiple",
      "outputs": [
        {
          "internalType": "uint256[]",
          "name": "ids",
          "type": "uint256[]"
        }
      ],
      "stateMutability": "nonpayable",
      "type": "function"
    },
    {
      "inputs": [],
      "name": "name",
      "outputs": [
        {
          "internalType": "string",
          "name": "_name",
          "type": "string"
        }
      ],
      "stateMutability": "pure",
      "type": "function"
    },
    {
      "inputs": [
        {
          "internalType": "uint256",
          "name": "id",
          "type": "uint256"
        }
      ],
      "name": "ownerOf",
      "outputs": [
        {
          "internalType": "address",
          "name": "owner",
          "type": "address"
        }
      ],
      "stateMutability": "view",
      "type": "function"
    },
    {
      "inputs": [
        {
          "internalType": "address",
          "name": "from",
          "type": "address"
        },
        {
          "internalType": "address",
          "name": "to",
          "type": "address"
        },
        {
          "internalType": "uint256[]",
          "name": "ids",
          "type": "uint256[]"
        },
        {
          "internalType": "uint256[]",
          "name": "values",
          "type": "uint256[]"
        },
        {
          "internalType": "bytes",
          "name": "data",
          "type": "bytes"
        }
      ],
      "name": "safeBatchTransferFrom",
      "outputs": [],
      "stateMutability": "nonpayable",
      "type": "function"
    },
    {
      "inputs": [
        {
          "internalType": "address",
          "name": "from",
          "type": "address"
        },
        {
          "internalType": "address",
          "name": "to",
          "type": "address"
        },
        {
          "internalType": "uint256",
          "name": "id",
          "type": "uint256"
        }
      ],
      "name": "safeTransferFrom",
      "outputs": [],
      "stateMutability": "nonpayable",
      "type": "function"
    },
    {
      "inputs": [
        {
          "internalType": "address",
          "name": "from",
          "type": "address"
        },
        {
          "internalType": "address",
          "name": "to",
          "type": "address"
        },
        {
          "internalType": "uint256",
          "name": "id",
          "type": "uint256"
        },
        {
          "internalType": "bytes",
          "name": "data",
          "type": "bytes"
        }
      ],
      "name": "safeTransferFrom",
      "outputs": [],
      "stateMutability": "nonpayable",
      "type": "function"
    },
    {
      "inputs": [
        {
          "internalType": "address",
          "name": "from",
          "type": "address"
        },
        {
          "internalType": "address",
          "name": "to",
          "type": "address"
        },
        {
          "internalType": "uint256",
          "name": "id",
          "type": "uint256"
        },
        {
          "internalType": "uint256",
          "name": "value",
          "type": "uint256"
        },
        {
          "internalType": "bytes",
          "name": "data",
          "type": "bytes"
        }
      ],
      "name": "safeTransferFrom",
      "outputs": [],
      "stateMutability": "nonpayable",
      "type": "function"
    },
    {
      "inputs": [
        {
          "internalType": "address",
          "name": "operator",
          "type": "address"
        },
        {
          "internalType": "bool",
          "name": "approved",
          "type": "bool"
        }
      ],
      "name": "setApprovalForAll",
      "outputs": [],
      "stateMutability": "nonpayable",
      "type": "function"
    },
    {
      "inputs": [
        {
          "internalType": "address",
          "name": "sender",
          "type": "address"
        },
        {
          "internalType": "address",
          "name": "operator",
          "type": "address"
        },
        {
          "internalType": "bool",
          "name": "approved",
          "type": "bool"
        }
      ],
      "name": "setApprovalForAllFor",
      "outputs": [],
      "stateMutability": "nonpayable",
      "type": "function"
    },
    {
      "inputs": [
        {
          "internalType": "address",
          "name": "bouncer",
          "type": "address"
        },
        {
          "internalType": "bool",
          "name": "enabled",
          "type": "bool"
        }
      ],
      "name": "setBouncer",
      "outputs": [],
      "stateMutability": "nonpayable",
      "type": "function"
    },
    {
      "inputs": [
        {
          "internalType": "address",
          "name": "superOperator",
          "type": "address"
        },
        {
          "internalType": "bool",
          "name": "enabled",
          "type": "bool"
        }
      ],
      "name": "setSuperOperator",
      "outputs": [],
      "stateMutability": "nonpayable",
      "type": "function"
    },
    {
      "inputs": [
        {
          "internalType": "bytes4",
          "name": "id",
          "type": "bytes4"
        }
      ],
      "name": "supportsInterface",
      "outputs": [
        {
          "internalType": "bool",
          "name": "",
          "type": "bool"
        }
      ],
      "stateMutability": "pure",
      "type": "function"
    },
    {
      "inputs": [],
      "name": "symbol",
      "outputs": [
        {
          "internalType": "string",
          "name": "_symbol",
          "type": "string"
        }
      ],
      "stateMutability": "pure",
      "type": "function"
    },
    {
      "inputs": [
        {
          "internalType": "uint256",
          "name": "id",
          "type": "uint256"
        }
      ],
      "name": "tokenURI",
      "outputs": [
        {
          "internalType": "string",
          "name": "",
          "type": "string"
        }
      ],
      "stateMutability": "view",
      "type": "function"
    },
    {
      "inputs": [
        {
          "internalType": "address",
          "name": "sender",
          "type": "address"
        },
        {
          "internalType": "address",
          "name": "original",
          "type": "address"
        },
        {
          "internalType": "address",
          "name": "to",
          "type": "address"
        }
      ],
      "name": "transferCreatorship",
      "outputs": [],
      "stateMutability": "nonpayable",
      "type": "function"
    },
    {
      "inputs": [
        {
          "internalType": "address",
          "name": "from",
          "type": "address"
        },
        {
          "internalType": "address",
          "name": "to",
          "type": "address"
        },
        {
          "internalType": "uint256",
          "name": "id",
          "type": "uint256"
        }
      ],
      "name": "transferFrom",
      "outputs": [],
      "stateMutability": "nonpayable",
      "type": "function"
    },
    {
      "inputs": [
        {
          "internalType": "address",
          "name": "from",
          "type": "address"
        },
        {
          "internalType": "uint256",
          "name": "id",
          "type": "uint256"
        },
        {
          "internalType": "uint40",
          "name": "packId",
          "type": "uint40"
        },
        {
          "internalType": "bytes32",
          "name": "hash",
          "type": "bytes32"
        },
        {
          "internalType": "uint8",
          "name": "newRarity",
          "type": "uint8"
        },
        {
          "internalType": "address",
          "name": "to",
          "type": "address"
        },
        {
          "internalType": "bytes",
          "name": "data",
          "type": "bytes"
        }
      ],
      "name": "updateERC721",
      "outputs": [
        {
          "internalType": "uint256",
          "name": "",
          "type": "uint256"
        }
      ],
      "stateMutability": "nonpayable",
      "type": "function"
    },
    {
      "inputs": [
        {
          "internalType": "uint256",
          "name": "id",
          "type": "uint256"
        }
      ],
      "name": "wasEverMinted",
      "outputs": [
        {
          "internalType": "bool",
          "name": "",
          "type": "bool"
        }
      ],
      "stateMutability": "view",
      "type": "function"
    }
  ],
  "transactionHash": "0xf3060018d54169559e11feeb2ee523f68f81a1c51be2e360ba09b0de019be876",
  "args": [],
  "solcInputHash": "974ac05667251d18fc73fcd09e43c3fa",
  "bytecode": "0x608060405234801561001057600080fd5b50615fc880620000216000396000f3fe608060405234801561001057600080fd5b50600436106102dd5760003560e01c80638f28397011610186578063c50a4eb9116100e3578063e985e9c511610097578063f0bc00d811610071578063f0bc00d814610674578063f242432a14610687578063ff23be531461069a576102dd565b8063e985e9c51461063b578063eb8928e11461064e578063eeb5a5d114610661576102dd565b8063c87b56dd116100c8578063c87b56dd14610604578063ce1b815f14610617578063d402756e14610628576102dd565b8063c50a4eb9146105de578063c7778baa146105f1576102dd565b8063ac9fe4211161013a578063b88d4fde1161011f578063b88d4fde146105a5578063b9b75ebc146105b8578063bd9ff41b146105cb576102dd565b8063ac9fe4211461057f578063b666923c14610592576102dd565b806395d89b411161016b57806395d89b41146105225780639bc88b9c1461055b578063a22cb4651461056c576102dd565b80638f283970146104fc5780639470f3cb1461050f576102dd565b80632eb2c2d61161023f578063572b6c05116101f3578063654b748a116101cd578063654b748a146104ac5780636e9960c3146104d857806370a08231146104e9576102dd565b8063572b6c0514610464578063589a1743146104865780636352211e14610499576102dd565b80634c4d07e7116102245780634c4d07e7146104055780634e1273f414610431578063516f329614610451576102dd565b80632eb2c2d6146103df57806342842e0e146103f2576102dd565b8063095ea7b3116102965780631f7fdffa1161027b5780631f7fdffa146103a657806323b872dd146103b95780632e712b46146103cc576102dd565b8063095ea7b314610380578063124d91e514610393576102dd565b8063049476df116102c7578063049476df1461032b57806306fdde0314610340578063081812fc14610355576102dd565b8062fdd58e146102e257806301ffc9a714610308575b600080fd5b6102f56102f036600461558d565b6106ad565b6040519081526020015b60405180910390f35b61031b610316366004615911565b61073e565b60405190151581526020016102ff565b61033e610339366004615172565b610845565b005b61034861092a565b6040516102ff9190615be5565b610368610363366004615949565b610962565b6040516001600160a01b0390911681526020016102ff565b61033e61038e36600461558d565b6109cf565b61033e6103a13660046155e8565b610af5565b61033e6103b43660046154bd565b610b6d565b61033e6103c7366004615354565b610e09565b6102f56103da366004615949565b610eff565b61033e6103ed366004615264565b610f18565b61033e610400366004615354565b611220565b61031b610413366004615172565b6001600160a01b03166000908152600c602052604090205460ff1690565b61044461043f36600461580e565b61123b565b6040516102ff9190615bad565b61033e61045f366004615200565b611397565b61031b610472366004615172565b6002546001600160a01b0390811691161490565b610368610494366004615949565b61145c565b6103686104a7366004615949565b6114ff565b61031b6104ba366004615172565b6001600160a01b031660009081526001602052604090205460ff1690565b6000546001600160a01b0316610368565b6102f56104f7366004615172565b611551565b61033e61050a366004615172565b6115c5565b61031b61051d3660046157c2565b611695565b60408051808201909152600581527f41535345540000000000000000000000000000000000000000000000000000006020820152610348565b600e546001600160a01b0316610368565b61033e61057a366004615564565b61171e565b61033e61058d366004615564565b611734565b61033e6105a03660046151be565b611818565b61033e6105b336600461538f565b611aef565b61033e6105c6366004615564565b611bd6565b61031b6105d9366004615949565b611c9c565b6102f56105ec366004615774565b611cb7565b6102f56105ff366004615949565b611e02565b610348610612366004615949565b611eb8565b6002546001600160a01b0316610368565b61031b610636366004615949565b611f59565b61031b61064936600461518c565b611fcf565b6102f561065c36600461561a565b6120cd565b61033e61066f36600461531b565b612290565b61044461068236600461569d565b612319565b61033e610695366004615447565b61253e565b6102f56106a83660046155b6565b61265f565b60006001605f1b8216156106f4576000828152600460205260409020546001600160a01b038416906001600160a01b031614156106ec57506001610738565b506000610738565b600080610700846126f1565b6001600160a01b03871660009081526005602090815260408083208584529091529020549193509150610733908261271c565b925050505b92915050565b60007f01ffc9a7000000000000000000000000000000000000000000000000000000006001600160e01b0319831614806107a157507fd9b67a26000000000000000000000000000000000000000000000000000000006001600160e01b03198316145b806107d557507f80ac58cd000000000000000000000000000000000000000000000000000000006001600160e01b03198316145b8061080957507f5b5e139f000000000000000000000000000000000000000000000000000000006001600160e01b03198316145b8061083d57507f0e89341c000000000000000000000000000000000000000000000000000000006001600160e01b03198316145b90505b919050565b600e546001600160a01b0316610859612761565b6001600160a01b0316146108b45760405162461bcd60e51b815260206004820152600e60248201527f21424f554e4345525f41444d494e00000000000000000000000000000000000060448201526064015b60405180910390fd5b600e54604080516001600160a01b03928316815291831660208301527f1bab6ababbec5519512e9ee16964953ec0f72839126138285cac1f1136bd642e910160405180910390a1600e805473ffffffffffffffffffffffffffffffffffffffff19166001600160a01b0392909216919091179055565b60408051808201909152601081527f53616e64626f782773204153534554730000000000000000000000000000000060208201525b90565b6000818152600460205260408120546001600160a01b03166109b35760405162461bcd60e51b815260206004820152600a60248201526913919517c851561254d560b21b60448201526064016108ab565b506000908152600760205260409020546001600160a01b031690565b600081815260046020526040812054906109e7612761565b90506001600160a01b038216610a2c5760405162461bcd60e51b815260206004820152600a60248201526913919517c851561254d560b21b60448201526064016108ab565b806001600160a01b0316826001600160a01b03161480610a515750610a518282611fcf565b610a8b5760405162461bcd60e51b815260206004820152600b60248201526a085055551213d49256915160aa1b60448201526064016108ab565b600083815260076020526040808220805473ffffffffffffffffffffffffffffffffffffffff19166001600160a01b0388811691821790925591518693918616917f8c5be1e5ebec7d5bd14f71427d1e84f3dd0314c0f7b2291e5b200ac8c7c3b92591a450505050565b610afd612761565b6001600160a01b0316836001600160a01b03161480610b235750610b2383610649612761565b610b5d5760405162461bcd60e51b815260206004820152600b60248201526a085055551213d49256915160aa1b60448201526064016108ab565b610b688383836127ab565b505050565b6010546001600160a01b0316610b81612761565b6001600160a01b031614610bd75760405162461bcd60e51b815260206004820152600a60248201527f215052454449434154450000000000000000000000000000000000000000000060448201526064016108ab565b6000610be582840184615877565b905060005b86811015610dfe5760006bffffffff80000000000007ff19898984818110610c2257634e487b7160e01b600052603260045260246000fd5b90506020020135169050828281518110610c4c57634e487b7160e01b600052603260045260246000fd5b60209081029190910181015160008381526008835260408082209290925581518083018352600481527f307830300000000000000000000000000000000000000000000000000000000081850190815285835260099094529190209051610cb39290615003565b506000806001605f1b8b8b86818110610cdc57634e487b7160e01b600052603260045260246000fd5b90506020020135161115610cee575060015b604080516001808252818301909252600091602080830190803683370190505090508a8a85818110610d3057634e487b7160e01b600052603260045260246000fd5b9050602002013581600081518110610d5857634e487b7160e01b600052603260045260246000fd5b6020908102919091010152604080516001808252818301909252600091816020016020820280368337019050509050898986818110610da757634e487b7160e01b600052603260045260246000fd5b9050602002013581600081518110610dcf57634e487b7160e01b600052603260045260246000fd5b602002602001018181525050610de7818e84866128d6565b505050508080610df690615f08565b915050610bea565b505050505050505050565b6000818152600460205260409020546001600160a01b038416906001600160a01b031614610e675760405162461bcd60e51b815260206004820152600b60248201526a4f574e4552213d46524f4d60a81b60448201526064016108ab565b6000610e76848484600161293d565b9050610ead81610e8d57610e88612761565b610e8f565b845b85858560016040518060200160405280600081525060016000612d46565b610ef95760405162461bcd60e51b815260206004820152601660248201527f313135355f5452414e534645525f52454a45435445440000000000000000000060448201526064016108ab565b50505050565b6000610f0a82611e02565b5050603f1c63ffffffff1690565b848314610f675760405162461bcd60e51b815260206004820152601260248201527f4d49534d4154434845445f4152525f4c454e000000000000000000000000000060448201526064016108ab565b6001600160a01b038716610fa55760405162461bcd60e51b81526020600482015260056024820152640544f3d3d360dc1b60448201526064016108ab565b6001600160a01b038816610fe55760405162461bcd60e51b8152602060048201526007602482015266046524f4d3d3d360cc1b60448201526064016108ab565b6000610fef612761565b6002549091506000906001600160a01b0316331490506000826001600160a01b03168b6001600160a01b0316148061102c575061102c8b84611fcf565b905061109f8b8b8b8b8080602002602001604051908101604052809392919081815260200183836020028082843760009201919091525050604080516020808f0282810182019093528e82529093508e92508d918291850190849080828437600092019190915250889250612e4d915050565b896001600160a01b03168b6001600160a01b0316836110be57846110c0565b8c5b6001600160a01b03167f4a39dc06d4c0dbc64b70af90fd698a233a518aa5d07e595d983b8c0526c8f7fb8c8c8c8c6040516110fe9493929190615b86565b60405180910390a46111c7826111145783611116565b8b5b8c8c8c8c80806020026020016040519081016040528093929190818152602001838360200280828437600081840152601f19601f820116905080830192505050505050508b8b8080602002602001604051908101604052809392919081815260200183836020028082843760009201919091525050604080516020601f8f018190048102820181019092528d815292508d91508c908190840183828082843760009201919091525061365b92505050565b6112135760405162461bcd60e51b815260206004820152601660248201527f313135355f5452414e534645525f52454a45435445440000000000000000000060448201526064016108ab565b5050505050505050505050565b610b6883838360405180602001604052806000815250611aef565b606083821461128c5760405162461bcd60e51b815260206004820152601360248201527f4152475f4c454e4754485f4d49534d415443480000000000000000000000000060448201526064016108ab565b60008267ffffffffffffffff8111156112b557634e487b7160e01b600052604160045260246000fd5b6040519080825280602002602001820160405280156112de578160200160208202803683370190505b50905060005b8381101561138d5761135087878381811061130f57634e487b7160e01b600052603260045260246000fd5b90506020020160208101906113249190615172565b86868481811061134457634e487b7160e01b600052603260045260246000fd5b905060200201356106ad565b82828151811061137057634e487b7160e01b600052603260045260246000fd5b60209081029190910101528061138581615f08565b9150506112e4565b5095945050505050565b6113a1600061374f565b6113ab600161374f565b6113b5600261374f565b6000805473ffffffffffffffffffffffffffffffffffffffff199081166001600160a01b0387811691909117909255600e80548216868416179055601080548216858416179055600280549091169187169190911790556010805460ff90921674010000000000000000000000000000000000000000027fffffffffffffffffffffff00ffffffffffffffffffffffffffffffffffffffff90921691909117905550505050565b600061146782611f59565b6114b35760405162461bcd60e51b815260206004820152600d60248201527f544f4b454e5f214d494e5445440000000000000000000000000000000000000060448201526064016108ab565b60006114c160606002615d14565b6114cb9084615cab565b6001600160a01b038082166000908152600b60205260409020549192501680156114f85791506108409050565b5092915050565b6000818152600460205260409020546001600160a01b0381166108405760405162461bcd60e51b815260206004820152600a60248201526913919517c851561254d560b21b60448201526064016108ab565b60006001600160a01b0382166115a95760405162461bcd60e51b815260206004820152600860248201527f4f574e45523d3d3000000000000000000000000000000000000000000000000060448201526064016108ab565b506001600160a01b031660009081526003602052604090205490565b6000546001600160a01b0316331461161f5760405162461bcd60e51b815260206004820152601360248201527f41444d494e5f4143434553535f44454e4945440000000000000000000000000060448201526064016108ab565b600054604080516001600160a01b03928316815291831660208301527f7e644d79422f17c01e4894b5f4f588d331ebfa28653d42ae832dc59e38c9798f910160405180910390a16000805473ffffffffffffffffffffffffffffffffffffffff19166001600160a01b0392909216919091179055565b6000806116a4600b6002615d14565b6116b29061ffff8516615de6565b6116be60176002615d14565b6116cf9064ffffffffff8716615de6565b6116db60606002615d14565b6116ee906001600160a01b038916615de6565b6116f89190615c4f565b6117029190615c4f565b60009081526008602052604090205415159150505b9392505050565b611730611729612761565b83836137ba565b5050565b6000546001600160a01b031633146117b45760405162461bcd60e51b815260206004820152602c60248201527f6f6e6c792061646d696e20697320616c6c6f77656420746f206164642073757060448201527f6572206f70657261746f7273000000000000000000000000000000000000000060648201526084016108ab565b6001600160a01b038216600081815260016020908152604091829020805460ff19168515159081179091558251938452908301527f44f92d27abdf4cfb6a7d712c3af68f3be086d4ca747ab802c36f67d6790060d891015b60405180910390a15050565b6000611822612761565b9050806001600160a01b0316846001600160a01b0316148061185c57506001600160a01b03811660009081526001602052604090205460ff165b6118965760405162461bcd60e51b815260206004820152600b60248201526a085055551213d49256915160aa1b60448201526064016108ab565b6001600160a01b0384166118ec5760405162461bcd60e51b815260206004820152600960248201527f53454e4445523d3d30000000000000000000000000000000000000000000000060448201526064016108ab565b6001600160a01b03821661192a5760405162461bcd60e51b81526020600482015260056024820152640544f3d3d360dc1b60448201526064016108ab565b6001600160a01b038084166000908152600b6020526040902054168061194d5750825b826001600160a01b0316816001600160a01b031614156119af5760405162461bcd60e51b815260206004820152600b60248201527f43555252454e543d3d544f00000000000000000000000000000000000000000060448201526064016108ab565b846001600160a01b0316816001600160a01b031614611a105760405162461bcd60e51b815260206004820152600f60248201527f43555252454e54213d53454e444552000000000000000000000000000000000060448201526064016108ab565b836001600160a01b0316836001600160a01b03161415611a62576001600160a01b0384166000908152600b60205260409020805473ffffffffffffffffffffffffffffffffffffffff19169055611a9e565b6001600160a01b038481166000908152600b60205260409020805473ffffffffffffffffffffffffffffffffffffffff19169185169190911790555b826001600160a01b0316816001600160a01b0316856001600160a01b03167f1a7f4b0ff7e2dc5eb0864ecd842062dd36fa2daafefc7a017476807ccd73600d60405160405180910390a45050505050565b6000828152600460205260409020546001600160a01b038516906001600160a01b031614611b4d5760405162461bcd60e51b815260206004820152600b60248201526a4f574e4552213d46524f4d60a81b60448201526064016108ab565b6000611b5c858585600161293d565b9050611b8381611b7357611b6e612761565b611b75565b855b868686600187600180612d46565b611bcf5760405162461bcd60e51b815260206004820152601a60248201527f3732312f313135355f5452414e534645525f52454a454354454400000000000060448201526064016108ab565b5050505050565b600e546001600160a01b0316611bea612761565b6001600160a01b031614611c405760405162461bcd60e51b815260206004820152600e60248201527f21424f554e4345525f41444d494e00000000000000000000000000000000000060448201526064016108ab565b6001600160a01b0382166000818152600c6020908152604091829020805460ff19168515159081179091558251938452908301527f5ecd928ac22825e06273a3e8db8118dd7fe11bd2637ecfe4bfa25154948bd85f910161180c565b60006bffffffff800000000000000019821661171781611f59565b600080611cc2612761565b905087611cfb5760405162461bcd60e51b81526020600482015260076024820152660484153483d3d360cc1b60448201526064016108ab565b6001600160a01b0381166000908152600c602052604090205460ff16611d4e5760405162461bcd60e51b815260206004820152600860248201526710a127aaa721a2a960c11b60448201526064016108ab565b6001600160a01b038516611d8c5760405162461bcd60e51b81526020600482015260056024820152640544f3d3d360dc1b60448201526064016108ab565b611dae8a888b8a600114611da1576001611da4565b60005b60ff16600061399e565b9150611df58888888489878a8a8080601f01602080910402602001604051908101604052809392919081815260200183838082843760009201829052509250613af9915050565b5098975050505050505050565b6000818152600460205260408120546001600160a01b0316611e535760405162461bcd60e51b815260206004820152600a60248201526913919517c851561254d560b21b60448201526064016108ab565b6bffffffff8000000000000000198216611e6c81611f59565b61083d5760405162461bcd60e51b815260206004820152601360248201527f554e4d494e5445445f434f4c4c454354494f4e0000000000000000000000000060448201526064016108ab565b6000818152600460205260409020546060906001600160a01b0316151580611ee45750611ee482611f59565b611f305760405162461bcd60e51b815260206004820152601860248201527f4e46545f2145584953545f7c7c5f46545f214d494e544544000000000000000060448201526064016108ab565b6bffffffff80000000000007ff19821660009081526008602052604090205461083d9083613e04565b60006001605f1b821615611f7e57506000818152600460205260409020541515610840565b611f8a600b6002615d14565b611f9990627ff8008416615cab565b6107ff8316108015611fc857506bffffffff80000000000007ff19821660009081526008602052604090205415155b9050610840565b60006001600160a01b0383166120275760405162461bcd60e51b815260206004820152600860248201527f4f574e45523d3d3000000000000000000000000000000000000000000000000060448201526064016108ab565b6001600160a01b03821661207d5760405162461bcd60e51b815260206004820152600b60248201527f4f50455241544f523d3d3000000000000000000000000000000000000000000060448201526064016108ab565b6001600160a01b0380841660009081526006602090815260408083209386168352929052205460ff16806117175750506001600160a01b031660009081526001602052604090205460ff16919050565b6000806120d8612761565b9050866121115760405162461bcd60e51b81526020600482015260076024820152660484153483d3d360cc1b60448201526064016108ab565b6001600160a01b0381166000908152600c602052604090205460ff166121645760405162461bcd60e51b815260206004820152600860248201526710a127aaa721a2a960c11b60448201526064016108ab565b6001600160a01b0385166121a25760405162461bcd60e51b81526020600482015260056024820152640544f3d3d360dc1b60448201526064016108ab565b6001600160a01b038a166121e25760405162461bcd60e51b8152602060048201526007602482015266046524f4d3d3d360cc1b60448201526064016108ab565b6121ed818b8b613e44565b60006121fe8b60018b60008061399e565b905061224688600189858a868b8b8080601f01602080910402602001604051908101604052809392919081815260200183838082843760009201829052509250613af9915050565b897f848e40d125c35dfb2c55bc4bf9aebe36a2a1c53c8e8ab1a53d5a4bc855d649818260405161227891815260200190565b60405180910390a29150505b98975050505050505050565b600061229a612761565b9050806001600160a01b0316846001600160a01b031614806122d457506001600160a01b03811660009081526001602052604090205460ff165b61230e5760405162461bcd60e51b815260206004820152600b60248201526a085055551213d49256915160aa1b60448201526064016108ab565b610ef98484846137ba565b60606000612325612761565b90508961235e5760405162461bcd60e51b81526020600482015260076024820152660484153483d3d360cc1b60448201526064016108ab565b6001600160a01b0381166000908152600c602052604090205460ff166123b15760405162461bcd60e51b815260206004820152600860248201526710a127aaa721a2a960c11b60448201526064016108ab565b6001600160a01b0385166123ef5760405162461bcd60e51b81526020600482015260056024820152640544f3d3d360dc1b60448201526064016108ab565b60006124728d8b8b8080602002602001604051908101604052809392919081815260200183836020028082843760009201919091525050604080516020601f8f018190048102820181019092528d815292508d91508c9081908401838280828437600081840152601f19601f820116905080830192505050505050508f8f613f77565b80925081945050506124bb8a8a808060200260200160405190810160405280939291908181526020018383602002808284376000920191909152508a92508791508590506128d6565b61252e8287858d8d8080602002602001604051908101604052809392919081815260200183836020028082843760009201919091525050604080516020601f8e018190048102820181019092528c815292508c91508b908190840183828082843760009201919091525061411192505050565b50509a9950505050505050505050565b6001605f1b8416156125a8576000848152600460205260409020546001600160a01b038716906001600160a01b0316146125a85760405162461bcd60e51b815260206004820152600b60248201526a4f574e4552213d46524f4d60a81b60448201526064016108ab565b60006125b68787878761293d565b905061260a816125c657336125c8565b875b8888888888888080601f01602080910402602001604051908101604052809392919081815260200183838082843760009201829052509250829150612d469050565b6126565760405162461bcd60e51b815260206004820152601660248201527f313135355f5452414e534645525f52454a45435445440000000000000000000060448201526064016108ab565b50505050505050565b60008061266a612761565b600254909150336001600160a01b039182161490868116908316148061269557506126958683611fcf565b6126cf5760405162461bcd60e51b815260206004820152600b60248201526a085055551213d49256915160aa1b60448201526064016108ab565b6126e7816126dd57826126df565b865b8787876141c4565b9695505050505050565b6000806101006020840204915061270b6020610100615cab565b6127159084615f23565b9050915091565b60008061272f6001640100000000615e51565b9050600061273e846001615c4f565b612749906020615de6565b61275590610100615e51565b9490941c169392505050565b6002546000906001600160a01b03163314156127a457507fffffffffffffffffffffffffffffffffffffffffffffffffffffffffffffffec36013560601c61095f565b503361095f565b60006127b5612761565b90506001605f1b83161561283d57816001146128135760405162461bcd60e51b815260206004820152600960248201527f414d4f554e54213d31000000000000000000000000000000000000000000000060448201526064016108ab565b600254612838906001600160a01b0316331461282f5781612831565b845b8585613e44565b610ef9565b6000821180156128645750600161285660206002615d14565b6128609190615e51565b8211155b6128b05760405162461bcd60e51b815260206004820152600e60248201527f494e56414c49445f414d4f554e5400000000000000000000000000000000000060448201526064016108ab565b600254610ef9906001600160a01b031633146128cc57816128ce565b845b858585614383565b60005b8161ffff1685516128ea9190615e51565b8161ffff1610156129135761290181868686614444565b61290c600882615c29565b90506128d9565b61ffff821615611bcf57611bcf8261ffff1686516129319190615e51565b8361ffff1686866145a9565b60006001600160a01b03841661297d5760405162461bcd60e51b81526020600482015260056024820152640544f3d3d360dc1b60448201526064016108ab565b6001600160a01b0385166129bd5760405162461bcd60e51b8152602060048201526007602482015266046524f4d3d3d360cc1b60448201526064016108ab565b60006129c7612761565b6002549091506001600160a01b0316331491506000816001600160a01b0316876001600160a01b03161480612a015750612a018783611fcf565b90506001605f1b851615612bc7578080612a3457506000858152600760205260409020546001600160a01b038381169116145b612a805760405162461bcd60e51b815260206004820152600e60248201527f4f50455241544f525f214155544800000000000000000000000000000000000060448201526064016108ab565b8315612bc25783600114612ad65760405162461bcd60e51b815260206004820152600660248201527f4e4654213d31000000000000000000000000000000000000000000000000000060448201526064016108ab565b6001600160a01b0387166000908152600360205260408120805491612afa83615e94565b90915550506001600160a01b0386166000908152600360205260408120805491612b2383615f08565b909155505060008581526004602090815260408083206001600160a01b03808b169091556007909252909120541615612b80576000858152600760205260409020805473ffffffffffffffffffffffffffffffffffffffff191690555b84866001600160a01b0316886001600160a01b03167fddf252ad1be2c89b69c2b068fc378daa952ba7f163c4a11628f55a4df523b3ef60405160405180910390a45b612cd0565b80612c145760405162461bcd60e51b815260206004820152600e60248201527f4f50455241544f525f214155544800000000000000000000000000000000000060448201526064016108ab565b8315612cd057600080612c26876126f1565b6001600160a01b038b1660009081526005602090815260408083208584529091529020549193509150612c5c9082886001614691565b6001600160a01b03808b166000908152600560208181526040808420888552825280842095909555928c168252825282812085825290915290812054612ca59183908990614691565b6001600160a01b03891660009081526005602090815260408083209583529490529290922091909155505b856001600160a01b0316876001600160a01b031684612cef5783612cf1565b885b6001600160a01b03167fc3d58168c5ae7397731d063d5bbf3d657854427343f4c083240f7aacaa2d0f628888604051612d34929190918252602082015260400190565b60405180910390a45050949350505050565b60006001600160a01b0387163b612d5f57506001612284565b8215612d9457612d6e8761481f565b612d94578115612d8c57612d8589898989886148fb565b9050612284565b506001612284565b6040517ff23a6e6100000000000000000000000000000000000000000000000000000000808252906001600160a01b0389169063f23a6e6190612de3908d908d908c908c908c90600401615b43565b602060405180830381600087803b158015612dfd57600080fd5b505af1158015612e11573d6000803e3d6000fd5b505050506040513d601f19601f82011682018060405250810190612e35919061592d565b6001600160e01b031916149998505050505050505050565b825160008080808080805b878110156135685760006001605f1b8c8381518110612e8757634e487b7160e01b600052603260045260246000fd5b60200260200101511611156131f2578880612ef85750612ea5612761565b6001600160a01b0316600760008d8481518110612ed257634e487b7160e01b600052603260045260246000fd5b6020908102919091018101518252810191909152604001600020546001600160a01b0316145b612f445760405162461bcd60e51b815260206004820152600e60248201527f4f50455241544f525f214155544800000000000000000000000000000000000060448201526064016108ab565b60008a8281518110612f6657634e487b7160e01b600052603260045260246000fd5b602002602001015111156131ed57898181518110612f9457634e487b7160e01b600052603260045260246000fd5b6020026020010151600114612feb5760405162461bcd60e51b815260206004820152600660248201527f4e4654213d31000000000000000000000000000000000000000000000000000060448201526064016108ab565b8c6001600160a01b03166130328c838151811061301857634e487b7160e01b600052603260045260246000fd5b602002602001015160009081526004602052604090205490565b6001600160a01b0316146130765760405162461bcd60e51b815260206004820152600b60248201526a4f574e4552213d46524f4d60a81b60448201526064016108ab565b8161308081615f08565b9250508b6001600160a01b0316600460008d84815181106130b157634e487b7160e01b600052603260045260246000fd5b602002602001015181526020019081526020016000208190555060006001600160a01b0316600760008d84815181106130fa57634e487b7160e01b600052603260045260246000fd5b6020908102919091018101518252810191909152604001600020546001600160a01b031614613184576000600760008d848151811061314957634e487b7160e01b600052603260045260246000fd5b6020026020010151815260200190815260200160002060006101000a8154816001600160a01b0302191690836001600160a01b031602179055505b8a81815181106131a457634e487b7160e01b600052603260045260246000fd5b60200260200101518c6001600160a01b03168e6001600160a01b03167fddf252ad1be2c89b69c2b068fc378daa952ba7f163c4a11628f55a4df523b3ef60405160405180910390a45b613556565b8861323f5760405162461bcd60e51b815260206004820152600e60248201527f4f50455241544f525f214155544800000000000000000000000000000000000060448201526064016108ab565b8b6001600160a01b03168d6001600160a01b031614156132b2576131ed8d8c838151811061327d57634e487b7160e01b600052603260045260246000fd5b60200260200101518c84815181106132a557634e487b7160e01b600052603260045260246000fd5b60200260200101516149b1565b60008a82815181106132d457634e487b7160e01b600052603260045260246000fd5b60200260200101511115613556576133128b828151811061330557634e487b7160e01b600052603260045260246000fd5b60200260200101516126f1565b9097509550826133e0576001600160a01b038d1660009081526005602090815260408083208a84529091529020548a5188945061337b919088908d908590811061336c57634e487b7160e01b600052603260045260246000fd5b60200260200101516001614691565b6001600160a01b038d1660009081526005602090815260408083208b84529091529020548b519196506133d99188908d90859081106133ca57634e487b7160e01b600052603260045260246000fd5b60200260200101516000614691565b9350613556565b8287146134d35784600560008f6001600160a01b03166001600160a01b0316815260200190815260200160002060008581526020019081526020016000208190555083600560008e6001600160a01b03166001600160a01b03168152602001908152602001600020600085815260200190815260200160002081905550600560008e6001600160a01b03166001600160a01b031681526020019081526020016000206000888152602001908152602001600020549450600560008d6001600160a01b03166001600160a01b0316815260200190815260200160002060008881526020019081526020016000205493508692505b613512868b83815181106134f757634e487b7160e01b600052603260045260246000fd5b6020026020010151600188614691909392919063ffffffff16565b9450613553868b838151811061353857634e487b7160e01b600052603260045260246000fd5b6020026020010151600087614691909392919063ffffffff16565b93505b8061356081615f08565b915050612e58565b5060008111801561358b57508a6001600160a01b03168c6001600160a01b031614155b156135eb576001600160a01b038c16600090815260036020526040812080548392906135b8908490615e51565b90915550506001600160a01b038b16600090815260036020526040812080548392906135e5908490615c4f565b90915550505b851580159061360c57508a6001600160a01b03168c6001600160a01b031614155b1561364d576001600160a01b03808d1660009081526005602081815260408084208b85528252808420899055938f1683529081528282208983529052208390555b505050505050505050505050565b60006001600160a01b0385163b613674575060016126e7565b6040517fbc197c810000000000000000000000000000000000000000000000000000000081526000906001600160a01b0387169063bc197c81906136c4908b908b908a908a908a90600401615abf565b602060405180830381600087803b1580156136de57600080fd5b505af11580156136f2573d6000803e3d6000fd5b505050506040513d601f19601f82011682018060405250810190613716919061592d565b6001600160e01b0319167fbc197c8100000000000000000000000000000000000000000000000000000000149150509695505050505050565b600181600f54901c16600114156137a85760405162461bcd60e51b815260206004820152601360248201527f414c52454144595f494e495449414c495345440000000000000000000000000060448201526064016108ab565b806001901b600f5417600f8190555050565b6001600160a01b0383166138105760405162461bcd60e51b815260206004820152600960248201527f53454e4445523d3d30000000000000000000000000000000000000000000000060448201526064016108ab565b816001600160a01b0316836001600160a01b031614156138725760405162461bcd60e51b815260206004820152601060248201527f53454e4445523d3d4f50455241544f520000000000000000000000000000000060448201526064016108ab565b6001600160a01b0382166138c85760405162461bcd60e51b815260206004820152600b60248201527f4f50455241544f523d3d3000000000000000000000000000000000000000000060448201526064016108ab565b6001600160a01b03821660009081526001602052604090205460ff16156139315760405162461bcd60e51b815260206004820152601b60248201527f415050525f4558495354494e475f53555045524f50455241544f52000000000060448201526064016108ab565b6001600160a01b03838116600081815260066020908152604080832094871680845294825291829020805460ff191686151590811790915591519182527f17307eab39ab6107e8899845ad3d59bd9653f200f220920489ca2b5937696c31910160405180910390a3505050565b600080851180156139c6575060016139b860206002615d14565b6139c29190615e51565b8511155b613a125760405162461bcd60e51b815260206004820152601460248201527f535550504c595f4f55545f4f465f424f554e445300000000000000000000000060448201526064016108ab565b61ffff8216613a23600b6002615d14565b613a319061ffff8616615de6565b613a3d60176002615d14565b613a4e9064ffffffffff8816615de6565b613a5a603f6002615d14565b601054613a82919074010000000000000000000000000000000000000000900460ff16615de6565b88600114613a91576000613aa8565b613a9d605f6002615d14565b613aa8906001615de6565b613ab460606002615d14565b613ac7906001600160a01b038d16615de6565b613ad19190615c4f565b613adb9190615c4f565b613ae59190615c4f565b613aef9190615c4f565b6126e79190615c4f565b6bffffffff80000000000007ff19831681613c6f5760008181526008602052604090205415613b6a5760405162461bcd60e51b815260206004820152600860248201527f49445f54414b454e00000000000000000000000000000000000000000000000060448201526064016108ab565b6000818152600860205260409020899055600460ff881610613bce5760405162461bcd60e51b815260206004820152600960248201527f5241524954593e3d34000000000000000000000000000000000000000000000060448201526064016108ab565b604080516001808252818301909252600091602082018180368337019050509050613bfa886040615e05565b60f81b81600081518110613c1e57634e487b7160e01b600052603260045260246000fd5b60200101907effffffffffffffffffffffffffffffffffffffffffffffffffffffffffffff1916908160001a90535060008281526009602090815260409091208251613c6c92840190615003565b50505b8760011415613ced576001600160a01b0385166000908152600360205260408120805491613c9c83615f08565b90915550506000848152600460205260408082206001600160a01b0388169081905590518692907fddf252ad1be2c89b69c2b068fc378daa952ba7f163c4a11628f55a4df523b3ef908290a4613d5a565b600080613cf9866126f1565b6001600160a01b03891660009081526005602090815260408083208584529091529020549193509150613d2f90828c6002614691565b6001600160a01b03881660009081526005602090815260408083209583529490529290922091909155505b60408051858152602081018a90526001600160a01b0380881692600092918a16917fc3d58168c5ae7397731d063d5bbf3d657854427343f4c083240f7aacaa2d0f62910160405180910390a4613db886600087878c88600080612d46565b610dfe5760405162461bcd60e51b815260206004820152601160248201527f5452414e534645525f52454a454354454400000000000000000000000000000060448201526064016108ab565b6060613e0f83614a40565b613e1c6107ff8416614beb565b604051602001613e2d929190615a14565b604051602081830303815290604052905092915050565b6000818152600460205260409020546001600160a01b0316826001600160a01b031614613ea15760405162461bcd60e51b815260206004820152600b60248201526a4f574e4552213d46524f4d60a81b60448201526064016108ab565b60008181526004602090815260408083207401000000000000000000000000000000000000000090556001600160a01b038516835260039091528120805491613ee983615e94565b909155505060405181906000906001600160a01b038516907fddf252ad1be2c89b69c2b068fc378daa952ba7f163c4a11628f55a4df523b3ef908390a460408051828152600160208201526000916001600160a01b0385811692908716917fc3d58168c5ae7397731d063d5bbf3d657854427343f4c083240f7aacaa2d0f62910160405180910390a4505050565b6060600080865111613fcb5760405162461bcd60e51b815260206004820152600b60248201527f535550504c4945533c3d3000000000000000000000000000000000000000000060448201526064016108ab565b613fd7600b6002615d14565b865111156140275760405162461bcd60e51b815260206004820152600d60248201527f42415443485f544f4f5f4249470000000000000000000000000000000000000060448201526064016108ab565b614032878786614d39565b809250819350505060006bffffffff80000000000007ff198360008151811061406b57634e487b7160e01b600052603260045260246000fd5b6020026020010151169050600860008281526020019081526020016000205460001c6000146140dc5760405162461bcd60e51b815260206004820152600860248201527f49445f54414b454e00000000000000000000000000000000000000000000000060448201526064016108ab565b600081815260086020908152604080832087905560098252909120875161410592890190615003565b50509550959350505050565b836001600160a01b031660006001600160a01b0316866001600160a01b03167f4a39dc06d4c0dbc64b70af90fd698a233a518aa5d07e595d983b8c0526c8f7fb8686604051614161929190615bc0565b60405180910390a46141788560008686868661365b565b611bcf5760405162461bcd60e51b815260206004820152601160248201527f5452414e534645525f52454a454354454400000000000000000000000000000060448201526064016108ab565b60006001600160a01b0382166142045760405162461bcd60e51b81526020600482015260056024820152640544f3d3d360dc1b60448201526064016108ab565b6001605f1b8316156142585760405162461bcd60e51b815260206004820152600560248201527f213131353500000000000000000000000000000000000000000000000000000060448201526064016108ab565b6000838152600a602052604090205463ffffffff16614279603f6002615d05565b6142899063ffffffff8316615de6565b6142976001605f1b86615c4f565b6142a19190615c4f565b91506142ae816001615c67565b6000858152600a6020526040902080547fffffffffffffffffffffffffffffffffffffffffffffffffffffffff000000001663ffffffff929092169190911790556142fc8686866001614383565b614340600860006bffffffff80000000000007ff19871681526020019081526020016000205460016000898787604051806020016040528060008152506001613af9565b837faa923cda6d3360ee3cd49c083ac1fe5e062a5739b82a32d597a65168c0c6926c8360405161437291815260200190565b60405180910390a250949350505050565b60008061438f846126f1565b6001600160a01b038716600090815260056020908152604080832085845290915290205491935091506143cf908263ffffffff8087169060019061469116565b6001600160a01b038681166000818152600560209081526040808320888452825280832095909555845189815263ffffffff891691810191909152909391928a16917fc3d58168c5ae7397731d063d5bbf3d657854427343f4c083240f7aacaa2d0f62910160405180910390a4505050505050565b6000818561ffff168151811061446a57634e487b7160e01b600052603260045260246000fd5b60200260200101519050600080614480836126f1565b6001600160a01b03871660009081526005602090815260408083208584529091528120549294509092505b6008811080156144c8575087516144c68261ffff8c16615c4f565b105b156145775760006144dd8261ffff8c16615c4f565b9050600189828151811061450157634e487b7160e01b600052603260045260246000fd5b6020026020010151111561455e5761455761451c8386615c4f565b8a838151811061453c57634e487b7160e01b600052603260045260246000fd5b6020026020010151600086614691909392919063ffffffff16565b9250614564565b50614577565b508061456f81615f08565b9150506144ab565b506001600160a01b03909516600090815260056020908152604080832094835293905291909120939093555050505050565b60005b8363ffffffff168161ffff161015614657576000826145cb8784615c29565b61ffff16815181106145ed57634e487b7160e01b600052603260045260246000fd5b6020908102919091018101516000818152600490925260408083206001600160a01b038816908190559051919350839290917fddf252ad1be2c89b69c2b068fc378daa952ba7f163c4a11628f55a4df523b3ef908290a4508061464f81615ee6565b9150506145ac565b506001600160a01b0382166000908152600360205260408120805463ffffffff86169290614686908490615c4f565b909155505050505050565b600080808360028111156146b557634e487b7160e01b600052602160045260246000fd5b14156146e2576146c5868661271c565b90506146db86866146d68785615c4f565b614f33565b9150614816565b600183600281111561470457634e487b7160e01b600052602160045260246000fd5b141561479b57614714868661271c565b90508381101561478c5760405162461bcd60e51b815260206004820152602260248201527f63616e277420737562737472616374206d6f7265207468616e2074686572652060448201527f697300000000000000000000000000000000000000000000000000000000000060648201526084016108ab565b6146db86866146d68785615e51565b60028360028111156147bd57634e487b7160e01b600052602160045260246000fd5b14156147ce576146db868686614f33565b60405162461bcd60e51b815260206004820152601160248201527f496e76616c6964206f7065726174696f6e00000000000000000000000000000060448201526064016108ab565b50949350505050565b604080517f4e2312e0000000000000000000000000000000000000000000000000000000006024808301919091528251808303909101815260449091018252602080820180517bffffffffffffffffffffffffffffffffffffffffffffffffffffffff167f01ffc9a7000000000000000000000000000000000000000000000000000000001781528251935160008082529485948594909392908183858b612710fa955080519450505050609e5a116148e857634e487b7160e01b600052600160045260246000fd5b8280156148f25750815b95945050505050565b6040517f150b7a02000000000000000000000000000000000000000000000000000000008082526000916001600160a01b0386169063150b7a029061494a908a908a9089908990600401615b11565b602060405180830381600087803b15801561496457600080fd5b505af1158015614978573d6000803e3d6000fd5b505050506040513d601f19601f8201168201806040525081019061499c919061592d565b6001600160e01b031916149695505050505050565b6000806149bd846126f1565b6001600160a01b0387166000908152600560209081526040808320858452909152902054919350915083906149f2908361271c565b1015611bcf5760405162461bcd60e51b815260206004820152600f60248201527f42414c414e43455f544f4f5f4c4f57000000000000000000000000000000000060448201526064016108ab565b60408051603480825260608281019093528391600090826020820181803683370190505090507f6162636465666768696a6b6c6d6e6f707172737475767778797a3233343536376002614a94600886615f23565b901b60ff1660208110614ab757634e487b7160e01b600052603260045260246000fd5b1a60f81b81614ac584615e94565b93508381518110614ae657634e487b7160e01b600052603260045260246000fd5b60200101907effffffffffffffffffffffffffffffffffffffffffffffffffffffffffffff1916908160001a905350614b20600884615cab565b92505b8115614be3577f6162636465666768696a6b6c6d6e6f707172737475767778797a323334353637614b55602085615f23565b60208110614b7357634e487b7160e01b600052603260045260246000fd5b1a60f81b81614b8184615e94565b93508381518110614ba257634e487b7160e01b600052603260045260246000fd5b60200101907effffffffffffffffffffffffffffffffffffffffffffffffffffffffffffff1916908160001a905350614bdc602084615cab565b9250614b23565b949350505050565b606081614c2c575060408051808201909152600181527f30000000000000000000000000000000000000000000000000000000000000006020820152610840565b8160005b8115614c565780614c4081615f08565b9150614c4f9050600a83615cab565b9150614c30565b60008167ffffffffffffffff811115614c7f57634e487b7160e01b600052604160045260246000fd5b6040519080825280601f01601f191660200182016040528015614ca9576020820181803683370190505b509050815b851561481657614cbf600a87615f23565b614cca906030615c86565b60f81b82614cd783615e94565b92508281518110614cf857634e487b7160e01b600052603260045260246000fd5b60200101907effffffffffffffffffffffffffffffffffffffffffffffffffffffffffffff1916908160001a905350614d32600a87615cab565b9550614cae565b81516060906000908161ffff821667ffffffffffffffff811115614d6d57634e487b7160e01b600052604160045260246000fd5b604051908082528060200260200182016040528015614d96578160200160208202803683370190505b5090506000805b8361ffff168161ffff161015614e895761ffff8216614dfc57878161ffff1681518110614dda57634e487b7160e01b600052603260045260246000fd5b602002602001015160011415614df757614df48185615e2e565b91505b614e77565b878161ffff1681518110614e2057634e487b7160e01b600052603260045260246000fd5b6020026020010151600114614e775760405162461bcd60e51b815260206004820152601160248201527f4e4654535f4d5553545f42455f4c41535400000000000000000000000000000060448201526064016108ab565b80614e8181615ee6565b915050614d9d565b506000614e968285615e2e565b905060005b8461ffff168161ffff161015614f2457614ee38a8a8361ffff1681518110614ed357634e487b7160e01b600052603260045260246000fd5b60200260200101518a858561399e565b848261ffff1681518110614f0757634e487b7160e01b600052603260045260246000fd5b602090810291909101015280614f1c81615ee6565b915050614e9b565b50919890975095505050505050565b6000614f4160206002615d05565b8210614fb55760405162461bcd60e51b815260206004820152602360248201527f416d6f756e7420746f20777269746520696e2062696e20697320746f6f206c6160448201527f726765000000000000000000000000000000000000000000000000000000000060648201526084016108ab565b6000614fc76001640100000000615e51565b90506000614fd6856001615c4f565b614fe1906020615de6565b614fed90610100615e51565b91821b199590951692901b919091179392505050565b82805461500f90615eab565b90600052602060002090601f0160209004810192826150315760008555615077565b82601f1061504a57805160ff1916838001178555615077565b82800160010185558215615077579182015b8281111561507757825182559160200191906001019061505c565b50615083929150615087565b5090565b5b808211156150835760008155600101615088565b80356001600160a01b038116811461084057600080fd5b60008083601f8401126150c4578182fd5b50813567ffffffffffffffff8111156150db578182fd5b60208301915083602080830285010111156150f557600080fd5b9250929050565b8035801515811461084057600080fd5b60008083601f84011261511d578182fd5b50813567ffffffffffffffff811115615134578182fd5b6020830191508360208285010111156150f557600080fd5b803564ffffffffff8116811461084057600080fd5b803560ff8116811461084057600080fd5b600060208284031215615183578081fd5b6117178261509c565b6000806040838503121561519e578081fd5b6151a78361509c565b91506151b56020840161509c565b90509250929050565b6000806000606084860312156151d2578081fd5b6151db8461509c565b92506151e96020850161509c565b91506151f76040850161509c565b90509250925092565b600080600080600060a08688031215615217578081fd5b6152208661509c565b945061522e6020870161509c565b935061523c6040870161509c565b925061524a6060870161509c565b915061525860808701615161565b90509295509295909350565b60008060008060008060008060a0898b03121561527f578283fd5b6152888961509c565b975061529660208a0161509c565b9650604089013567ffffffffffffffff808211156152b2578485fd5b6152be8c838d016150b3565b909850965060608b01359150808211156152d6578485fd5b6152e28c838d016150b3565b909650945060808b01359150808211156152fa578384fd5b506153078b828c0161510c565b999c989b5096995094979396929594505050565b60008060006060848603121561532f578283fd5b6153388461509c565b92506153466020850161509c565b91506151f7604085016150fc565b600080600060608486031215615368578283fd5b6153718461509c565b925061537f6020850161509c565b9150604084013590509250925092565b600080600080608085870312156153a4578182fd5b6153ad8561509c565b935060206153bc81870161509c565b935060408601359250606086013567ffffffffffffffff808211156153df578384fd5b818801915088601f8301126153f2578384fd5b81358181111561540457615404615f63565b61541684601f19601f84011601615bf8565b9150808252898482850101111561542b578485fd5b8084840185840137810190920192909252939692955090935050565b60008060008060008060a0878903121561545f578384fd5b6154688761509c565b95506154766020880161509c565b94506040870135935060608701359250608087013567ffffffffffffffff81111561549f578283fd5b6154ab89828a0161510c565b979a9699509497509295939492505050565b60008060008060008060006080888a0312156154d7578081fd5b6154e08861509c565b9650602088013567ffffffffffffffff808211156154fc578283fd5b6155088b838c016150b3565b909850965060408a0135915080821115615520578283fd5b61552c8b838c016150b3565b909650945060608a0135915080821115615544578283fd5b506155518a828b0161510c565b989b979a50959850939692959293505050565b60008060408385031215615576578182fd5b61557f8361509c565b91506151b5602084016150fc565b6000806040838503121561559f578182fd5b6155a88361509c565b946020939093013593505050565b6000806000606084860312156155ca578081fd5b6155d38461509c565b9250602084013591506151f76040850161509c565b6000806000606084860312156155fc578081fd5b6156058461509c565b95602085013595506040909401359392505050565b60008060008060008060008060e0898b031215615635578182fd5b61563e8961509c565b97506020890135965061565360408a0161514c565b95506060890135945061566860808a01615161565b935061567660a08a0161509c565b925060c089013567ffffffffffffffff811115615691578283fd5b6153078b828c0161510c565b60008060008060008060008060008060e08b8d0312156156bb578384fd5b6156c48b61509c565b99506156d260208c0161514c565b985060408b0135975060608b013567ffffffffffffffff808211156156f5578586fd5b6157018e838f016150b3565b909950975060808d0135915080821115615719578586fd5b6157258e838f0161510c565b909750955085915061573960a08e0161509c565b945060c08d013591508082111561574e578384fd5b5061575b8d828e0161510c565b915080935050809150509295989b9194979a5092959850565b60008060008060008060008060e0898b03121561578f578182fd5b6157988961509c565b97506157a660208a0161514c565b9650604089013595506060890135945061566860808a01615161565b6000806000606084860312156157d6578081fd5b6157df8461509c565b92506157ed6020850161514c565b9150604084013561ffff81168114615803578182fd5b809150509250925092565b60008060008060408587031215615823578182fd5b843567ffffffffffffffff8082111561583a578384fd5b615846888389016150b3565b9096509450602087013591508082111561585e578384fd5b5061586b878288016150b3565b95989497509550505050565b60006020808385031215615889578182fd5b823567ffffffffffffffff808211156158a0578384fd5b818501915085601f8301126158b3578384fd5b8135818111156158c5576158c5615f63565b83810291506158d5848301615bf8565b8181528481019084860184860187018a10156158ef578788fd5b8795505b83861015611df55780358352600195909501949186019186016158f3565b600060208284031215615922578081fd5b813561171781615f79565b60006020828403121561593e578081fd5b815161171781615f79565b60006020828403121561595a578081fd5b5035919050565b60008284527f07ffffffffffffffffffffffffffffffffffffffffffffffffffffffffffffff831115615992578081fd5b6020830280836020870137939093016020019283525090919050565b6000815180845260208085019450808401835b838110156159dd578151875295820195908201906001016159c1565b509495945050505050565b60008151808452615a00816020860160208601615e68565b601f01601f19169290920160200192915050565b60007f697066733a2f2f6261667962656900000000000000000000000000000000000082528351615a4c81600e850160208801615e68565b7f2f00000000000000000000000000000000000000000000000000000000000000600e918401918201528351615a8981600f840160208801615e68565b7f2e6a736f6e000000000000000000000000000000000000000000000000000000600f9290910191820152601401949350505050565b60006001600160a01b03808816835280871660208401525060a06040830152615aeb60a08301866159ae565b8281036060840152615afd81866159ae565b9050828103608084015261228481856159e8565b60006001600160a01b038087168352808616602084015250836040830152608060608301526126e760808301846159e8565b60006001600160a01b03808816835280871660208401525084604083015283606083015260a06080830152615b7b60a08301846159e8565b979650505050505050565b600060408252615b9a604083018688615961565b8281036020840152615b7b818587615961565b60006020825261171760208301846159ae565b600060408252615bd360408301856159ae565b82810360208401526148f281856159ae565b60006020825261171760208301846159e8565b604051601f8201601f1916810167ffffffffffffffff81118282101715615c2157615c21615f63565b604052919050565b600061ffff808316818516808303821115615c4657615c46615f37565b01949350505050565b60008219821115615c6257615c62615f37565b500190565b600063ffffffff808316818516808303821115615c4657615c46615f37565b600060ff821660ff84168060ff03821115615ca357615ca3615f37565b019392505050565b600082615cba57615cba615f4d565b500490565b80825b6001808611615cd15750615cfc565b818704821115615ce357615ce3615f37565b80861615615cf057918102915b9490941c938002615cc2565b94509492505050565b60006117176000198484615d22565b600061171760001960ff8516845b600082615d3157506001611717565b81615d3e57506000611717565b8160018114615d545760028114615d5e57615d8b565b6001915050611717565b60ff841115615d6f57615d6f615f37565b6001841b915084821115615d8557615d85615f37565b50611717565b5060208310610133831016604e8410600b8410161715615dbe575081810a83811115615db957615db9615f37565b611717565b615dcb8484846001615cbf565b808604821115615ddd57615ddd615f37565b02949350505050565b6000816000190483118215151615615e0057615e00615f37565b500290565b600060ff821660ff84168160ff0481118215151615615e2657615e26615f37565b029392505050565b600061ffff83811690831681811015615e4957615e49615f37565b039392505050565b600082821015615e6357615e63615f37565b500390565b60005b83811015615e83578181015183820152602001615e6b565b83811115610ef95750506000910152565b600081615ea357615ea3615f37565b506000190190565b600281046001821680615ebf57607f821691505b60208210811415615ee057634e487b7160e01b600052602260045260246000fd5b50919050565b600061ffff80831681811415615efe57615efe615f37565b6001019392505050565b6000600019821415615f1c57615f1c615f37565b5060010190565b600082615f3257615f32615f4d565b500690565b634e487b7160e01b600052601160045260246000fd5b634e487b7160e01b600052601260045260246000fd5b634e487b7160e01b600052604160045260246000fd5b6001600160e01b031981168114615f8f57600080fd5b5056fea26469706673582212208e609fa84701f88ca6858e472378b8b3fae3e93fb041192d018af1d312b8a35664736f6c63430008020033",
  "devdoc": {
    "kind": "dev",
    "methods": {
      "approve(address,uint256)": {
        "params": {
          "id": "the id of the NFT to approve.",
          "operator": "the address to approve as NFT controller."
        }
      },
      "balanceOf(address)": {
        "params": {
          "owner": "address for whom to query the balance."
        },
        "returns": {
          "balance": "the number of NFTs owned by `owner`, possibly zero."
        }
      },
      "balanceOf(address,uint256)": {
        "params": {
          "id": "the token type of which to get the balance of.",
          "owner": "The address of the token holder."
        },
        "returns": {
          "_0": "the balance of `owner` for the token type `id`."
        }
      },
      "balanceOfBatch(address[],uint256[])": {
        "params": {
          "ids": "ids of each token type to query.",
          "owners": "the addresses of the token holders queried."
        },
        "returns": {
          "_0": "the balance of each `owners` for each token type `ids`."
        }
      },
      "burnFrom(address,uint256,uint256)": {
        "params": {
          "amount": "amount of token to burn.",
          "from": "address whose token is to be burnt.",
          "id": "token type which will be burnt."
        }
      },
      "changeAdmin(address)": {
        "details": "Change the administrator to be `newAdmin`.",
        "params": {
          "newAdmin": "The address of the new administrator."
        }
      },
      "changeBouncerAdmin(address)": {
        "params": {
          "newBouncerAdmin": "address of the new minting administrator."
        }
      },
      "collectionIndexOf(uint256)": {
        "params": {
          "id": "the token to get the index of."
        },
        "returns": {
          "_0": "the index/order at which the token `id` was minted in a collection."
        }
      },
      "collectionOf(uint256)": {
        "params": {
          "id": "the token to get the collection of."
        },
        "returns": {
          "_0": "the collection the NFT is part of."
        }
      },
      "creatorOf(uint256)": {
        "params": {
          "id": "the id of the token to get the creator of."
        },
        "returns": {
          "_0": "the creator of the token type `id`."
        }
      },
      "extractERC721From(address,uint256,address)": {
        "params": {
          "id": "the token type to extract from.",
          "sender": "address which own the token to be extracted.",
          "to": "address which will receive the token."
        },
        "returns": {
          "newId": "the id of the newly minted NFT."
        }
      },
      "getAdmin()": {
        "details": "Get the current administrator of this contract.",
        "returns": {
          "_0": "The current administrator of this contract."
        }
      },
      "getApproved(uint256)": {
        "params": {
          "id": "the NFT to find the approved address for."
        },
        "returns": {
          "operator": "the approved address for this NFT, or the zero address if there is none."
        }
      },
      "getBouncerAdmin()": {
        "returns": {
          "_0": "the current minting administrator in charge of minting rights."
        }
      },
      "isApprovedForAll(address,address)": {
        "params": {
          "operator": "address of authorized operator.",
          "owner": "the owner of the tokens."
        },
        "returns": {
          "isOperator": "true if the operator is approved, false if not."
        }
      },
      "isBouncer(address)": {
        "params": {
          "who": "The address to query."
        },
        "returns": {
          "_0": "whether the address has minting rights."
        }
      },
      "isCollection(uint256)": {
        "params": {
          "id": "collectionId to check."
        },
        "returns": {
          "_0": "whether the id is a collection."
        }
      },
      "isPackIdUsed(address,uint40,uint16)": {
        "params": {
          "creator": "for which creator",
          "numFTs": "number of Fungible Token in that pack (can reuse packId if different)",
          "packId": "the packId to check"
        },
        "returns": {
          "_0": "whether the pack has already been used"
        }
      },
      "isSuperOperator(address)": {
        "params": {
          "who": "The address to query."
        },
        "returns": {
          "_0": "whether the address has superOperator rights."
        }
      },
      "mint(address,uint40,bytes32,uint256,uint8,address,bytes)": {
        "params": {
          "creator": "address of the creator of the token.",
          "data": "extra data to accompany the minting call.",
          "hash": "hash of an IPFS cidv1 folder that contains the metadata of the token type in the file 0.json.",
          "owner": "address that will receive the tokens.",
          "packId": "unique packId for that token.",
          "rarity": "rarity power of the token.",
          "supply": "number of tokens minted for that token type."
        },
        "returns": {
          "id": "the id of the newly minted token type."
        }
      },
      "mintBatch(address,uint256[],uint256[],bytes)": {
        "params": {
          "amounts": "supply for each token type",
          "data": "extra data to accompany the minting call",
          "ids": "ids to mint",
          "to": "address to mint to"
        }
      },
      "mintMultiple(address,uint40,bytes32,uint256[],bytes,address,bytes)": {
        "params": {
          "creator": "address of the creator of the tokens.",
          "data": "extra data to accompany the minting call.",
          "hash": "hash of an IPFS cidv1 folder that contains the metadata of each token type in the files: 0.json, 1.json, 2.json, etc...",
          "owner": "address that will receive the tokens.",
          "packId": "unique packId for the tokens.",
          "rarityPack": "rarity power of each token types packed into 2 bits each.",
          "supplies": "number of tokens minted for each token type."
        },
        "returns": {
          "ids": "the ids of each newly minted token types."
        }
      },
      "name()": {
        "returns": {
          "_name": "the name of the tokens."
        }
      },
      "ownerOf(uint256)": {
        "params": {
          "id": "the identifier for an NFT."
        },
        "returns": {
          "owner": "the address of the owner of the NFT."
        }
      },
      "safeBatchTransferFrom(address,address,uint256[],uint256[],bytes)": {
        "details": "call data should be optimized to order ids so packedBalance can be used efficiently.",
        "params": {
          "data": "aditional data accompanying the transfer.",
          "from": "address from which tokens are transfered.",
          "ids": "ids of each token type transfered.",
          "to": "address to which the token will be transfered.",
          "values": "amount of each token type transfered."
        }
      },
      "safeTransferFrom(address,address,uint256)": {
        "params": {
          "from": "the current owner of the NFT.",
          "id": "the NFT to transfer.",
          "to": "the new owner."
        }
      },
      "safeTransferFrom(address,address,uint256,bytes)": {
        "params": {
          "data": "additional data with no specified format, sent in call to `to`.",
          "from": "the current owner of the NFT.",
          "id": "the NFT to transfer.",
          "to": "the new owner."
        }
      },
      "safeTransferFrom(address,address,uint256,uint256,bytes)": {
        "params": {
          "data": "aditional data accompanying the transfer.",
          "from": "address from which tokens are transfered.",
          "id": "the token type transfered.",
          "to": "address to which the token will be transfered.",
          "value": "amount of token transfered."
        }
      },
      "setApprovalForAll(address,bool)": {
        "params": {
          "approved": "whether to approve or revoke",
          "operator": "address which will be granted rights to transfer all tokens of the caller."
        }
      },
      "setApprovalForAllFor(address,address,bool)": {
        "details": "used for Meta Transaction (from metaTransactionContract).",
        "params": {
          "approved": "whether to approve or revoke.",
          "operator": "address which will be granted rights to transfer all token owned by `sender`.",
          "sender": "address which grant approval."
        }
      },
      "setBouncer(address,bool)": {
        "params": {
          "bouncer": "address that will be given/removed minting bouncer rights.",
          "enabled": "set whether the address is enabled or disabled as a minting bouncer."
        }
      },
      "setSuperOperator(address,bool)": {
        "params": {
          "enabled": "set whether the superOperator is enabled or disabled.",
          "superOperator": "address that will be given/removed superOperator right."
        }
      },
      "supportsInterface(bytes4)": {
        "params": {
          "id": "the interface identifier, as specified in ERC-165."
        },
        "returns": {
          "_0": "`true` if the contract implements `id`."
        }
      },
      "symbol()": {
        "returns": {
          "_symbol": "the symbol of the tokens."
        }
      },
      "tokenURI(uint256)": {
        "params": {
          "id": "token to get the uri of."
        },
        "returns": {
          "_0": "URI string"
        }
      },
      "transferCreatorship(address,address,address)": {
        "params": {
          "original": "address of the original creator whose creation are saved in the ids themselves.",
          "sender": "address of current registered creator.",
          "to": "address which will be given creatorship for all tokens originally minted by `original`."
        }
      },
      "transferFrom(address,address,uint256)": {
        "params": {
          "from": "the current owner of the NFT.",
          "id": "the NFT to transfer.",
          "to": "the new owner."
        }
      },
      "updateERC721(address,uint256,uint40,bytes32,uint8,address,bytes)": {
        "params": {
          "data": "bytes to be transmitted as part of the minted token.",
          "from": "address which own the NFT to be upgraded.",
          "hash": "hash of an IPFS cidv1 folder that contains the metadata of the new token type in the file 0.json.",
          "id": "the NFT that will be burnt to be upgraded.",
          "newRarity": "rarity power of the new NFT.",
          "packId": "unqiue packId for the token.",
          "to": "address which will receive the NFT."
        },
        "returns": {
          "_0": "the id of the newly minted NFT."
        }
      }
    },
    "version": 1
  },
  "userdoc": {
    "kind": "user",
    "methods": {
      "approve(address,uint256)": {
        "notice": "Change or reaffirm the approved address for an NFT."
      },
      "balanceOf(address)": {
        "notice": "Count all NFTs assigned to `owner`."
      },
      "balanceOf(address,uint256)": {
        "notice": "Get the balance of `owner` for the token type `id`."
      },
      "balanceOfBatch(address[],uint256[])": {
        "notice": "Get the balance of `owners` for each token type `ids`."
      },
      "burnFrom(address,uint256,uint256)": {
        "notice": "Burns `amount` tokens of type `id` from `from`."
      },
      "changeBouncerAdmin(address)": {
        "notice": "Change the minting administrator to be `newBouncerAdmin`."
      },
      "collectionIndexOf(uint256)": {
        "notice": "Gives the index at which an NFT was minted in a collection : first of a collection get the zero index."
      },
      "collectionOf(uint256)": {
        "notice": "Gives the collection a specific token belongs to."
      },
      "creatorOf(uint256)": {
        "notice": "Get the creator of the token type `id`."
      },
      "extractERC721From(address,uint256,address)": {
        "notice": "Extracts an EIP-721 NFT from an EIP-1155 token."
      },
      "getApproved(uint256)": {
        "notice": "Get the approved address for a single NFT."
      },
      "getBouncerAdmin()": {
        "notice": "Returns the current administrator in charge of minting rights."
      },
      "isApprovedForAll(address,address)": {
        "notice": "Queries the approval status of `operator` for owner `owner`."
      },
      "isBouncer(address)": {
        "notice": "check whether address `who` is given minting bouncer rights."
      },
      "isCollection(uint256)": {
        "notice": "Return wether the id is a collection"
      },
      "isPackIdUsed(address,uint40,uint16)": {
        "notice": "check whether a packId/numFT tupple has been used"
      },
      "isSuperOperator(address)": {
        "notice": "check whether address `who` is given superOperator rights."
      },
      "mint(address,uint40,bytes32,uint256,uint8,address,bytes)": {
        "notice": "Mint a token type for `creator` on slot `packId`."
      },
      "mintBatch(address,uint256[],uint256[],bytes)": {
        "notice": "called by predicate to mint tokens transferred from L2"
      },
      "mintMultiple(address,uint40,bytes32,uint256[],bytes,address,bytes)": {
        "notice": "Mint multiple token types for `creator` on slot `packId`."
      },
      "name()": {
        "notice": "A descriptive name for the collection of tokens in this contract."
      },
      "ownerOf(uint256)": {
        "notice": "Find the owner of an NFT."
      },
      "safeBatchTransferFrom(address,address,uint256[],uint256[],bytes)": {
        "notice": "Transfers `values` tokens of type `ids` from  `from` to `to` (with safety call)."
      },
      "safeTransferFrom(address,address,uint256)": {
        "notice": "Transfers the ownership of an NFT from one address to another address."
      },
      "safeTransferFrom(address,address,uint256,bytes)": {
        "notice": "Transfers the ownership of an NFT from one address to another address."
      },
      "safeTransferFrom(address,address,uint256,uint256,bytes)": {
        "notice": "Transfers `value` tokens of type `id` from  `from` to `to`  (with safety call)."
      },
      "setApprovalForAll(address,bool)": {
        "notice": "Enable or disable approval for `operator` to manage all of the caller's tokens."
      },
      "setApprovalForAllFor(address,address,bool)": {
        "notice": "Enable or disable approval for `operator` to manage all `sender`'s tokens."
      },
      "setBouncer(address,bool)": {
        "notice": "Enable or disable the ability of `bouncer` to mint tokens (minting bouncer rights)."
      },
      "setSuperOperator(address,bool)": {
        "notice": "Enable or disable the ability of `superOperator` to transfer tokens of all (superOperator rights)."
      },
      "supportsInterface(bytes4)": {
        "notice": "Query if a contract implements interface `id`."
      },
      "symbol()": {
        "notice": "An abbreviated name for the collection of tokens in this contract."
      },
      "tokenURI(uint256)": {
        "notice": "A distinct Uniform Resource Identifier (URI) for a given asset. This supports both erc721 & erc1155 tokens."
      },
      "transferCreatorship(address,address,address)": {
        "notice": "Transfers creatorship of `original` from `sender` to `to`."
      },
      "transferFrom(address,address,uint256)": {
        "notice": "Transfers ownership of an NFT."
      },
      "updateERC721(address,uint256,uint40,bytes32,uint8,address,bytes)": {
        "notice": "Upgrades an NFT with new metadata and rarity."
      }
    },
    "version": 1
  },
  "storageLayout": {
    "storage": [
      {
        "astId": 15965,
        "contract": "src/solc_0.8/asset/AssetV2.sol:AssetV2",
        "label": "_admin",
        "offset": 0,
        "slot": "0",
        "type": "t_address"
      },
      {
        "astId": 16081,
        "contract": "src/solc_0.8/asset/AssetV2.sol:AssetV2",
        "label": "_superOperators",
        "offset": 0,
        "slot": "1",
        "type": "t_mapping(t_address,t_bool)"
      },
      {
        "astId": 14142,
        "contract": "src/solc_0.8/asset/AssetV2.sol:AssetV2",
        "label": "_trustedForwarder",
        "offset": 0,
        "slot": "2",
        "type": "t_address"
      },
      {
        "astId": 5716,
        "contract": "src/solc_0.8/asset/AssetV2.sol:AssetV2",
        "label": "_numNFTPerAddress",
        "offset": 0,
        "slot": "3",
        "type": "t_mapping(t_address,t_uint256)"
      },
      {
        "astId": 5720,
        "contract": "src/solc_0.8/asset/AssetV2.sol:AssetV2",
        "label": "_owners",
        "offset": 0,
        "slot": "4",
        "type": "t_mapping(t_uint256,t_uint256)"
      },
      {
        "astId": 5726,
        "contract": "src/solc_0.8/asset/AssetV2.sol:AssetV2",
        "label": "_packedTokenBalance",
        "offset": 0,
        "slot": "5",
        "type": "t_mapping(t_address,t_mapping(t_uint256,t_uint256))"
      },
      {
        "astId": 5732,
        "contract": "src/solc_0.8/asset/AssetV2.sol:AssetV2",
        "label": "_operatorsForAll",
        "offset": 0,
        "slot": "6",
        "type": "t_mapping(t_address,t_mapping(t_address,t_bool))"
      },
      {
        "astId": 5736,
        "contract": "src/solc_0.8/asset/AssetV2.sol:AssetV2",
        "label": "_erc721operators",
        "offset": 0,
        "slot": "7",
        "type": "t_mapping(t_uint256,t_address)"
      },
      {
        "astId": 5740,
        "contract": "src/solc_0.8/asset/AssetV2.sol:AssetV2",
        "label": "_metadataHash",
        "offset": 0,
        "slot": "8",
        "type": "t_mapping(t_uint256,t_bytes32)"
      },
      {
        "astId": 5744,
        "contract": "src/solc_0.8/asset/AssetV2.sol:AssetV2",
        "label": "_rarityPacks",
        "offset": 0,
        "slot": "9",
        "type": "t_mapping(t_uint256,t_bytes_storage)"
      },
      {
        "astId": 5748,
        "contract": "src/solc_0.8/asset/AssetV2.sol:AssetV2",
        "label": "_nextCollectionIndex",
        "offset": 0,
        "slot": "10",
        "type": "t_mapping(t_uint256,t_uint32)"
      },
      {
        "astId": 5752,
        "contract": "src/solc_0.8/asset/AssetV2.sol:AssetV2",
        "label": "_creatorship",
        "offset": 0,
        "slot": "11",
        "type": "t_mapping(t_address,t_address)"
      },
      {
        "astId": 5756,
        "contract": "src/solc_0.8/asset/AssetV2.sol:AssetV2",
        "label": "_bouncers",
        "offset": 0,
        "slot": "12",
        "type": "t_mapping(t_address,t_bool)"
      },
      {
        "astId": 5760,
        "contract": "src/solc_0.8/asset/AssetV2.sol:AssetV2",
        "label": "_metaTransactionContracts",
        "offset": 0,
        "slot": "13",
        "type": "t_mapping(t_address,t_bool)"
      },
      {
        "astId": 5762,
        "contract": "src/solc_0.8/asset/AssetV2.sol:AssetV2",
        "label": "_bouncerAdmin",
        "offset": 0,
        "slot": "14",
        "type": "t_address"
      },
      {
        "astId": 5764,
        "contract": "src/solc_0.8/asset/AssetV2.sol:AssetV2",
        "label": "_init",
        "offset": 20,
        "slot": "14",
        "type": "t_bool"
      },
      {
        "astId": 5772,
        "contract": "src/solc_0.8/asset/AssetV2.sol:AssetV2",
        "label": "_initBits",
        "offset": 0,
        "slot": "15",
        "type": "t_uint256"
      },
      {
        "astId": 5774,
        "contract": "src/solc_0.8/asset/AssetV2.sol:AssetV2",
        "label": "_predicate",
        "offset": 0,
        "slot": "16",
        "type": "t_address"
      },
      {
        "astId": 5776,
        "contract": "src/solc_0.8/asset/AssetV2.sol:AssetV2",
        "label": "_chainIndex",
        "offset": 20,
        "slot": "16",
        "type": "t_uint8"
      }
    ],
    "types": {
      "t_address": {
        "encoding": "inplace",
        "label": "address",
        "numberOfBytes": "20"
      },
      "t_bool": {
        "encoding": "inplace",
        "label": "bool",
        "numberOfBytes": "1"
      },
      "t_bytes32": {
        "encoding": "inplace",
        "label": "bytes32",
        "numberOfBytes": "32"
      },
      "t_bytes_storage": {
        "encoding": "bytes",
        "label": "bytes",
        "numberOfBytes": "32"
      },
      "t_mapping(t_address,t_address)": {
        "encoding": "mapping",
        "key": "t_address",
        "label": "mapping(address => address)",
        "numberOfBytes": "32",
        "value": "t_address"
      },
      "t_mapping(t_address,t_bool)": {
        "encoding": "mapping",
        "key": "t_address",
        "label": "mapping(address => bool)",
        "numberOfBytes": "32",
        "value": "t_bool"
      },
      "t_mapping(t_address,t_mapping(t_address,t_bool))": {
        "encoding": "mapping",
        "key": "t_address",
        "label": "mapping(address => mapping(address => bool))",
        "numberOfBytes": "32",
        "value": "t_mapping(t_address,t_bool)"
      },
      "t_mapping(t_address,t_mapping(t_uint256,t_uint256))": {
        "encoding": "mapping",
        "key": "t_address",
        "label": "mapping(address => mapping(uint256 => uint256))",
        "numberOfBytes": "32",
        "value": "t_mapping(t_uint256,t_uint256)"
      },
      "t_mapping(t_address,t_uint256)": {
        "encoding": "mapping",
        "key": "t_address",
        "label": "mapping(address => uint256)",
        "numberOfBytes": "32",
        "value": "t_uint256"
      },
      "t_mapping(t_uint256,t_address)": {
        "encoding": "mapping",
        "key": "t_uint256",
        "label": "mapping(uint256 => address)",
        "numberOfBytes": "32",
        "value": "t_address"
      },
      "t_mapping(t_uint256,t_bytes32)": {
        "encoding": "mapping",
        "key": "t_uint256",
        "label": "mapping(uint256 => bytes32)",
        "numberOfBytes": "32",
        "value": "t_bytes32"
      },
      "t_mapping(t_uint256,t_bytes_storage)": {
        "encoding": "mapping",
        "key": "t_uint256",
        "label": "mapping(uint256 => bytes)",
        "numberOfBytes": "32",
        "value": "t_bytes_storage"
      },
      "t_mapping(t_uint256,t_uint256)": {
        "encoding": "mapping",
        "key": "t_uint256",
        "label": "mapping(uint256 => uint256)",
        "numberOfBytes": "32",
        "value": "t_uint256"
      },
      "t_mapping(t_uint256,t_uint32)": {
        "encoding": "mapping",
        "key": "t_uint256",
        "label": "mapping(uint256 => uint32)",
        "numberOfBytes": "32",
        "value": "t_uint32"
      },
      "t_uint256": {
        "encoding": "inplace",
        "label": "uint256",
        "numberOfBytes": "32"
      },
      "t_uint32": {
        "encoding": "inplace",
        "label": "uint32",
        "numberOfBytes": "4"
      },
      "t_uint8": {
        "encoding": "inplace",
        "label": "uint8",
        "numberOfBytes": "1"
      }
    }
  }
}