{
  "address": "0xB6816Bb8809d22C43E1E16c36972814882D73143",
  "abi": [
    {
      "inputs": [],
      "stateMutability": "nonpayable",
      "type": "constructor"
    },
    {
      "anonymous": false,
      "inputs": [
        {
          "indexed": true,
          "internalType": "address",
          "name": "user",
          "type": "address"
        },
        {
          "indexed": false,
          "internalType": "uint256",
          "name": "id",
          "type": "uint256"
        },
        {
          "indexed": true,
          "internalType": "bytes",
          "name": "data",
          "type": "bytes"
        }
      ],
      "name": "Deposit",
      "type": "event"
    },
    {
      "anonymous": false,
      "inputs": [
        {
          "indexed": true,
          "internalType": "address",
          "name": "previousOwner",
          "type": "address"
        },
        {
          "indexed": true,
          "internalType": "address",
          "name": "newOwner",
          "type": "address"
        }
      ],
      "name": "OwnershipTransferred",
      "type": "event"
    },
    {
      "anonymous": false,
      "inputs": [
        {
          "indexed": false,
          "internalType": "address",
          "name": "account",
          "type": "address"
        }
      ],
      "name": "Paused",
      "type": "event"
    },
    {
      "anonymous": false,
      "inputs": [
        {
          "indexed": true,
          "internalType": "uint256",
          "name": "limit",
          "type": "uint256"
        }
      ],
      "name": "SetTransferLimit",
      "type": "event"
    },
    {
      "anonymous": false,
      "inputs": [
        {
          "indexed": false,
          "internalType": "address",
          "name": "account",
          "type": "address"
        }
      ],
      "name": "Unpaused",
      "type": "event"
    },
    {
      "anonymous": false,
      "inputs": [
        {
          "indexed": true,
          "internalType": "address",
          "name": "user",
          "type": "address"
        },
        {
          "indexed": false,
          "internalType": "uint256",
          "name": "id",
          "type": "uint256"
        },
        {
          "indexed": true,
          "internalType": "bytes",
          "name": "data",
          "type": "bytes"
        }
      ],
      "name": "Withdraw",
      "type": "event"
    },
    {
      "inputs": [],
      "name": "SEND_MESSAGE_EVENT_SIG",
      "outputs": [
        {
          "internalType": "bytes32",
          "name": "",
          "type": "bytes32"
        }
      ],
      "stateMutability": "view",
      "type": "function"
    },
    {
      "inputs": [
        {
          "internalType": "address",
          "name": "to",
          "type": "address"
        },
        {
          "internalType": "uint256[]",
          "name": "ids",
          "type": "uint256[]"
        }
      ],
      "name": "batchDepositToChild",
      "outputs": [],
      "stateMutability": "nonpayable",
      "type": "function"
    },
    {
      "inputs": [],
      "name": "checkpointManager",
      "outputs": [
        {
          "internalType": "contract ICheckpointManager",
          "name": "",
          "type": "address"
        }
      ],
      "stateMutability": "view",
      "type": "function"
    },
    {
      "inputs": [],
      "name": "fxChildTunnel",
      "outputs": [
        {
          "internalType": "address",
          "name": "",
          "type": "address"
        }
      ],
      "stateMutability": "view",
      "type": "function"
    },
    {
      "inputs": [],
      "name": "fxRoot",
      "outputs": [
        {
          "internalType": "contract IFxStateSender",
          "name": "",
          "type": "address"
        }
      ],
      "stateMutability": "view",
      "type": "function"
    },
    {
      "inputs": [],
      "name": "getTrustedForwarder",
      "outputs": [
        {
          "internalType": "address",
          "name": "trustedForwarder",
          "type": "address"
        }
      ],
      "stateMutability": "view",
      "type": "function"
    },
    {
      "inputs": [
        {
          "internalType": "address",
          "name": "_checkpointManager",
          "type": "address"
        },
        {
          "internalType": "address",
          "name": "_fxRoot",
          "type": "address"
        },
        {
          "internalType": "contract IAssetERC721",
          "name": "_rootToken",
          "type": "address"
        },
        {
          "internalType": "address",
          "name": "trustedForwarder",
          "type": "address"
        },
        {
          "internalType": "uint256",
          "name": "_maxTransferLimit",
          "type": "uint256"
        }
      ],
      "name": "initialize",
      "outputs": [],
      "stateMutability": "nonpayable",
      "type": "function"
    },
    {
      "inputs": [
        {
          "internalType": "address",
          "name": "forwarder",
          "type": "address"
        }
      ],
      "name": "isTrustedForwarder",
      "outputs": [
        {
          "internalType": "bool",
          "name": "",
          "type": "bool"
        }
      ],
      "stateMutability": "view",
      "type": "function"
    },
    {
      "inputs": [],
      "name": "maxTransferLimit",
      "outputs": [
        {
          "internalType": "uint256",
          "name": "",
          "type": "uint256"
        }
      ],
      "stateMutability": "view",
      "type": "function"
    },
    {
      "inputs": [
        {
          "internalType": "address",
          "name": "",
          "type": "address"
        },
        {
          "internalType": "address",
          "name": "",
          "type": "address"
        },
        {
          "internalType": "uint256[]",
          "name": "",
          "type": "uint256[]"
        },
        {
          "internalType": "bytes",
          "name": "",
          "type": "bytes"
        }
      ],
      "name": "onERC721BatchReceived",
      "outputs": [
        {
          "internalType": "bytes4",
          "name": "",
          "type": "bytes4"
        }
      ],
      "stateMutability": "view",
      "type": "function"
    },
    {
      "inputs": [
        {
          "internalType": "address",
          "name": "",
          "type": "address"
        },
        {
          "internalType": "address",
          "name": "",
          "type": "address"
        },
        {
          "internalType": "uint256",
          "name": "",
          "type": "uint256"
        },
        {
          "internalType": "bytes",
          "name": "",
          "type": "bytes"
        }
      ],
      "name": "onERC721Received",
      "outputs": [
        {
          "internalType": "bytes4",
          "name": "",
          "type": "bytes4"
        }
      ],
      "stateMutability": "view",
      "type": "function"
    },
    {
      "inputs": [],
      "name": "owner",
      "outputs": [
        {
          "internalType": "address",
          "name": "",
          "type": "address"
        }
      ],
      "stateMutability": "view",
      "type": "function"
    },
    {
      "inputs": [],
      "name": "pause",
      "outputs": [],
      "stateMutability": "nonpayable",
      "type": "function"
    },
    {
      "inputs": [],
      "name": "paused",
      "outputs": [
        {
          "internalType": "bool",
          "name": "",
          "type": "bool"
        }
      ],
      "stateMutability": "view",
      "type": "function"
    },
    {
      "inputs": [
        {
          "internalType": "bytes32",
          "name": "",
          "type": "bytes32"
        }
      ],
      "name": "processedExits",
      "outputs": [
        {
          "internalType": "bool",
          "name": "",
          "type": "bool"
        }
      ],
      "stateMutability": "view",
      "type": "function"
    },
    {
      "inputs": [
        {
          "internalType": "bytes",
          "name": "inputData",
          "type": "bytes"
        }
      ],
      "name": "receiveMessage",
      "outputs": [],
      "stateMutability": "nonpayable",
      "type": "function"
    },
    {
      "inputs": [],
      "name": "renounceOwnership",
      "outputs": [],
      "stateMutability": "nonpayable",
      "type": "function"
    },
    {
      "inputs": [],
      "name": "rootToken",
      "outputs": [
        {
          "internalType": "contract IAssetERC721",
          "name": "",
          "type": "address"
        }
      ],
      "stateMutability": "view",
      "type": "function"
    },
    {
      "inputs": [
        {
          "internalType": "address",
          "name": "_fxChildTunnel",
          "type": "address"
        }
      ],
      "name": "setFxChildTunnel",
      "outputs": [],
      "stateMutability": "nonpayable",
      "type": "function"
    },
    {
      "inputs": [
        {
          "internalType": "uint256",
          "name": "_maxTransferLimit",
          "type": "uint256"
        }
      ],
      "name": "setTransferLimit",
      "outputs": [],
      "stateMutability": "nonpayable",
      "type": "function"
    },
    {
      "inputs": [
        {
          "internalType": "address",
          "name": "trustedForwarder",
          "type": "address"
        }
      ],
      "name": "setTrustedForwarder",
      "outputs": [],
      "stateMutability": "nonpayable",
      "type": "function"
    },
    {
      "inputs": [
        {
          "internalType": "bytes4",
          "name": "interfaceId",
          "type": "bytes4"
        }
      ],
      "name": "supportsInterface",
      "outputs": [
        {
          "internalType": "bool",
          "name": "",
          "type": "bool"
        }
      ],
      "stateMutability": "pure",
      "type": "function"
    },
    {
      "inputs": [
        {
          "internalType": "address",
          "name": "newOwner",
          "type": "address"
        }
      ],
      "name": "transferOwnership",
      "outputs": [],
      "stateMutability": "nonpayable",
      "type": "function"
    },
    {
      "inputs": [],
      "name": "unpause",
      "outputs": [],
      "stateMutability": "nonpayable",
      "type": "function"
    }
  ],
  "transactionHash": "0x9690cb4f679c7dae8f59a8cd47ab0316b5ee372df5fa2c4b356d3aca32864826",
  "args": [],
  "numDeployments": 1,
  "solcInputHash": "7b79638638f565cd9778fcf2a828ac07",
  "bytecode": "0x608060405260cf805460ff191690553480156200001b57600080fd5b50600180546001600160a01b0319908116909155600080549091169055603654600160a81b900460ff166200005e57603654600160a01b900460ff161562000068565b6200006862000124565b620000d05760405162461bcd60e51b815260206004820152602e60248201527f496e697469616c697a61626c653a20636f6e747261637420697320616c72656160448201526d191e481a5b9a5d1a585b1a5e995960921b606482015260840160405180910390fd5b603654600160a81b900460ff1615801562000108576036805460ff60a01b1960ff60a81b19909116600160a81b1716600160a01b1790555b80156200011d576036805460ff60a81b191690555b5062000148565b60006200013c306200014260201b620010bd1760201c565b15905090565b3b151590565b613b7880620001586000396000f3fe608060405234801561001057600080fd5b50600436106101985760003560e01c80638456cb59116100e3578063ce1b815f1161008c578063f2fde38b11610066578063f2fde38b14610393578063f7013ef6146103a6578063f953cec7146103b957610198565b8063ce1b815f1461035c578063da7422281461036d578063de9b771f1461038057610198565b8063aea4e49e116100bd578063aea4e49e1461032d578063bd85e93b14610340578063c0857ba01461034957610198565b80638456cb59146103015780638da5cb5b14610309578063972c49281461031a57610198565b80634b808c4611610145578063607f2d421161011f578063607f2d42146102c3578063715018a6146102e65780637a17feff146102ee57610198565b80634b808c4614610286578063572b6c05146102995780635c975abb146102bb57610198565b806315fccb8a1161017657806315fccb8a1461023e5780631f2d0065146102535780633f4ba83a1461027e57610198565b806301ffc9a71461019d5780630e387de6146101c5578063150b7a02146101fa575b600080fd5b6101b06101ab366004613547565b6103cc565b60405190151581526020015b60405180910390f35b6101ec7f8c5261668696ce22758910d05bab8f186d6eb247ceac2af2e82c7dc17669b03681565b6040519081526020016101bc565b61020d6102083660046133ad565b610467565b6040517fffffffff0000000000000000000000000000000000000000000000000000000090911681526020016101bc565b61025161024c36600461341e565b610517565b005b60cd54610266906001600160a01b031681565b6040516001600160a01b0390911681526020016101bc565b61025161086c565b61020d61029436600461328b565b6108ef565b6101b06102a73660046131a1565b6036546001600160a01b0390811691161490565b6101b061099b565b6101b06102d13660046134e3565b60036020526000908152604090205460ff1681565b6102516109a5565b6102516102fc3660046134e3565b610a28565b610251610ad4565b6069546001600160a01b0316610266565b600254610266906001600160a01b031681565b61025161033b3660046131a1565b610b55565b6101ec60ce5481565b600154610266906001600160a01b031681565b6036546001600160a01b0316610266565b61025161037b3660046131a1565b610c03565b600054610266906001600160a01b031681565b6102516103a13660046131a1565b610cab565b6102516103b436600461334a565b610dac565b6102516103c7366004613587565b6110a3565b60007f5e8bf644000000000000000000000000000000000000000000000000000000007fffffffff000000000000000000000000000000000000000000000000000000008316148061045f57507f01ffc9a7000000000000000000000000000000000000000000000000000000007fffffffff000000000000000000000000000000000000000000000000000000008316145b90505b919050565b60cf5460009060ff1615156001146104ec5760405162461bcd60e51b815260206004820152602d60248201527f417373657445524337323154756e6e656c3a2063616e2774206469726563746c60448201527f792073656e64204173736574730000000000000000000000000000000000000060648201526084015b60405180910390fd5b507f150b7a020000000000000000000000000000000000000000000000000000000095945050505050565b61051f61099b565b1561056c5760405162461bcd60e51b815260206004820152601060248201527f5061757361626c653a207061757365640000000000000000000000000000000060448201526064016104e3565b6000815167ffffffffffffffff81111561059657634e487b7160e01b600052604160045260246000fd5b6040519080825280602002602001820160405280156105c957816020015b60608152602001906001900390816105b45790505b5060cf805460ff19166001179055905060005b825181101561082f57600083828151811061060757634e487b7160e01b600052603260045260246000fd5b602090810291909101015160cd546040517fc87b56dd000000000000000000000000000000000000000000000000000000008152600481018390529192506000916001600160a01b039091169063c87b56dd9060240160006040518083038186803b15801561067557600080fd5b505afa158015610689573d6000803e3d6000fd5b505050506040513d6000823e601f3d908101601f191682016040526106b19190810190613641565b9050808484815181106106d457634e487b7160e01b600052603260045260246000fd5b60200260200101819052506000816040516020016106f2919061381f565b60408051601f1981840301815291905260cd549091506001600160a01b031663b88d4fde61071e6110c3565b3089888151811061073f57634e487b7160e01b600052603260045260246000fd5b6020026020010151856040518563ffffffff1660e01b815260040161076794939291906136e9565b600060405180830381600087803b15801561078157600080fd5b505af1158015610795573d6000803e3d6000fd5b50505050806040516107a791906136a0565b6040518091039020876001600160a01b03167f87de3cfd3de44d9b830a98f5554f3ff79f1fafd7b3579d113ce92d82d3def2a18887815181106107fa57634e487b7160e01b600052603260045260246000fd5b602002602001015160405161081191815260200190565b60405180910390a3505050808061082790613a9a565b9150506105dc565b5060cf805460ff191690556040516108679061085390859085908590602001613725565b6040516020818303038152906040526110d2565b505050565b6108746110c3565b6001600160a01b031661088f6069546001600160a01b031690565b6001600160a01b0316146108e55760405162461bcd60e51b815260206004820181905260248201527f4f776e61626c653a2063616c6c6572206973206e6f7420746865206f776e657260448201526064016104e3565b6108ed611156565b565b60cf5460009060ff16151560011461096f5760405162461bcd60e51b815260206004820152602d60248201527f417373657445524337323154756e6e656c3a2063616e2774206469726563746c60448201527f792073656e64204173736574730000000000000000000000000000000000000060648201526084016104e3565b507f4b808c46000000000000000000000000000000000000000000000000000000009695505050505050565b609b5460ff165b90565b6109ad6110c3565b6001600160a01b03166109c86069546001600160a01b031690565b6001600160a01b031614610a1e5760405162461bcd60e51b815260206004820181905260248201527f4f776e61626c653a2063616c6c6572206973206e6f7420746865206f776e657260448201526064016104e3565b6108ed60006111fa565b610a306110c3565b6001600160a01b0316610a4b6069546001600160a01b031690565b6001600160a01b031614610aa15760405162461bcd60e51b815260206004820181905260248201527f4f776e61626c653a2063616c6c6572206973206e6f7420746865206f776e657260448201526064016104e3565b60ce81905560405181907f3fc6a03e501b3ca46f5b6c08064272abf4e2b0d2bbdeeaeba4e4a4f22c9e616d90600090a250565b610adc6110c3565b6001600160a01b0316610af76069546001600160a01b031690565b6001600160a01b031614610b4d5760405162461bcd60e51b815260206004820181905260248201527f4f776e61626c653a2063616c6c6572206973206e6f7420746865206f776e657260448201526064016104e3565b6108ed611259565b6002546001600160a01b031615610bd45760405162461bcd60e51b815260206004820152602a60248201527f467842617365526f6f7454756e6e656c3a204348494c445f54554e4e454c5f4160448201527f4c52454144595f5345540000000000000000000000000000000000000000000060648201526084016104e3565b6002805473ffffffffffffffffffffffffffffffffffffffff19166001600160a01b0392909216919091179055565b610c0b6110c3565b6001600160a01b0316610c266069546001600160a01b031690565b6001600160a01b031614610c7c5760405162461bcd60e51b815260206004820181905260248201527f4f776e61626c653a2063616c6c6572206973206e6f7420746865206f776e657260448201526064016104e3565b6036805473ffffffffffffffffffffffffffffffffffffffff19166001600160a01b0392909216919091179055565b610cb36110c3565b6001600160a01b0316610cce6069546001600160a01b031690565b6001600160a01b031614610d245760405162461bcd60e51b815260206004820181905260248201527f4f776e61626c653a2063616c6c6572206973206e6f7420746865206f776e657260448201526064016104e3565b6001600160a01b038116610da05760405162461bcd60e51b815260206004820152602660248201527f4f776e61626c653a206e6577206f776e657220697320746865207a65726f206160448201527f646472657373000000000000000000000000000000000000000000000000000060648201526084016104e3565b610da9816111fa565b50565b603654600160a81b900460ff16610de15760365474010000000000000000000000000000000000000000900460ff1615610de5565b303b155b610e575760405162461bcd60e51b815260206004820152602e60248201527f496e697469616c697a61626c653a20636f6e747261637420697320616c72656160448201527f647920696e697469616c697a656400000000000000000000000000000000000060648201526084016104e3565b603654600160a81b900460ff16158015610ed557603680547fffffffffffffffffffffff00ffffffffffffffffffffffffffffffffffffffff7fffffffffffffffffffff00ffffffffffffffffffffffffffffffffffffffffff909116600160a81b1716740100000000000000000000000000000000000000001790555b6001600160a01b038416610f515760405162461bcd60e51b815260206004820152602b60248201527f417373657445524337323154756e6e656c3a205f726f6f74546f6b656e20636160448201527f6e2774206265207a65726f00000000000000000000000000000000000000000060648201526084016104e3565b60008211610fc75760405162461bcd60e51b815260206004820152602c60248201527f417373657445524337323154756e6e656c3a205f6d61785472616e736665724c60448201527f696d697420696e76616c6964000000000000000000000000000000000000000060648201526084016104e3565b60cd805473ffffffffffffffffffffffffffffffffffffffff19166001600160a01b03861617905560ce829055610ffc6112e4565b611004611361565b6036805473ffffffffffffffffffffffffffffffffffffffff19166001600160a01b03851617905561106c8686600180546001600160a01b0393841673ffffffffffffffffffffffffffffffffffffffff199182161790915560008054929093169116179055565b801561109b57603680547fffffffffffffffffffff00ffffffffffffffffffffffffffffffffffffffffff1690555b505050505050565b60006110ae826113de565b90506110b98161170f565b5050565b3b151590565b60006110cd6119f6565b905090565b6000546002546040517fb47204770000000000000000000000000000000000000000000000000000000081526001600160a01b039283169263b4720477926111219291169085906004016137cc565b600060405180830381600087803b15801561113b57600080fd5b505af115801561114f573d6000803e3d6000fd5b5050505050565b61115e61099b565b6111aa5760405162461bcd60e51b815260206004820152601460248201527f5061757361626c653a206e6f742070617573656400000000000000000000000060448201526064016104e3565b609b805460ff191690557f5db9ee0a495bf2e6ff9c91a7834c1ba4fdd244a5e8aa4e537bd38aeae4b073aa6111dd6110c3565b6040516001600160a01b03909116815260200160405180910390a1565b606980546001600160a01b0383811673ffffffffffffffffffffffffffffffffffffffff19831681179093556040519116919082907f8be0079c531659141344cd1fd0a4f28419497f9722a3daafe3b4186f6b6457e090600090a35050565b61126161099b565b156112ae5760405162461bcd60e51b815260206004820152601060248201527f5061757361626c653a207061757365640000000000000000000000000000000060448201526064016104e3565b609b805460ff191660011790557f62e78cea01bee320cd4e420270b5ea74000d11b0c9f74754ebdbfc544b05a2586111dd6110c3565b603654600160a81b900460ff166113515760405162461bcd60e51b815260206004820152602b60248201527f496e697469616c697a61626c653a20636f6e7472616374206973206e6f74206960448201526a6e697469616c697a696e6760a81b60648201526084016104e3565b611359611a40565b6108ed611aad565b603654600160a81b900460ff166113ce5760405162461bcd60e51b815260206004820152602b60248201527f496e697469616c697a61626c653a20636f6e7472616374206973206e6f74206960448201526a6e697469616c697a696e6760a81b60648201526084016104e3565b6113d6611a40565b6108ed611b2a565b606060006113eb83611ba3565b905060006113f882611c02565b9050600061140583611c39565b905060008161141384611c70565b61141c86611e96565b60405160200161142e939291906136bc565b60408051601f1981840301815291815281516020928301206000818152600390935291205490915060ff16156114cb5760405162461bcd60e51b8152602060048201526024808201527f4678526f6f7454756e6e656c3a20455849545f414c52454144595f50524f434560448201527f535345440000000000000000000000000000000000000000000000000000000060648201526084016104e3565b6000818152600360205260408120805460ff191660011790556114ed85611ec0565b905060006114fa82612026565b9050611505816120d2565b6002546001600160a01b039081169116146115885760405162461bcd60e51b815260206004820152602560248201527f4678526f6f7454756e6e656c3a20494e56414c49445f46585f4348494c445f5460448201527f554e4e454c00000000000000000000000000000000000000000000000000000060648201526084016104e3565b600061159387612109565b90506115b36115a3846020015190565b876115ad8a612133565b8461215d565b6116255760405162461bcd60e51b815260206004820152602360248201527f4678526f6f7454756e6e656c3a20494e56414c49445f524543454950545f505260448201527f4f4f46000000000000000000000000000000000000000000000000000000000060648201526084016104e3565b6116538561163289612484565b61163b8a6124ae565b846116458c6124d8565b61164e8d612502565b61252c565b50600061165f8361267a565b90507f8c5261668696ce22758910d05bab8f186d6eb247ceac2af2e82c7dc17669b0366116956116908360006126c4565b61270a565b146116e25760405162461bcd60e51b815260206004820152601f60248201527f4678526f6f7454756e6e656c3a20494e56414c49445f5349474e41545552450060448201526064016104e3565b60006116ed84612785565b80602001905181019061170091906135fb565b9b9a5050505050505050505050565b60008060008380602001905181019061172891906131bd565b92509250925060005b825181101561114f57600082828151811061175c57634e487b7160e01b600052603260045260246000fd5b6020026020010151604051602001611774919061381f565b60408051601f1981840301815291905260cd5485519192506001600160a01b031690634f558e79908690859081106117bc57634e487b7160e01b600052603260045260246000fd5b60200260200101516040518263ffffffff1660e01b81526004016117e291815260200190565b60206040518083038186803b1580156117fa57600080fd5b505afa15801561180e573d6000803e3d6000fd5b505050506040513d601f19601f8201168201806040525081019061183291906134c3565b6118cd5760cd5484516001600160a01b03909116906394d008ef90879087908690811061186f57634e487b7160e01b600052603260045260246000fd5b6020026020010151846040518463ffffffff1660e01b8152600401611896939291906137ee565b600060405180830381600087803b1580156118b057600080fd5b505af11580156118c4573d6000803e3d6000fd5b50505050611963565b60cd5484516001600160a01b039091169063b88d4fde903090889088908790811061190857634e487b7160e01b600052603260045260246000fd5b6020026020010151856040518563ffffffff1660e01b815260040161193094939291906136e9565b600060405180830381600087803b15801561194a57600080fd5b505af115801561195e573d6000803e3d6000fd5b505050505b8060405161197191906136a0565b6040518091039020856001600160a01b03167f233d4033f24c20bfd0dde8773bff5e9af01bd21ef37ccfd81c77cc5b20747d5b8685815181106119c457634e487b7160e01b600052603260045260246000fd5b60200260200101516040516119db91815260200190565b60405180910390a350806119ee81613a9a565b915050611731565b6036546000906001600160a01b0316331415611a3957507fffffffffffffffffffffffffffffffffffffffffffffffffffffffffffffffec36013560601c6109a2565b50336109a2565b603654600160a81b900460ff166108ed5760405162461bcd60e51b815260206004820152602b60248201527f496e697469616c697a61626c653a20636f6e7472616374206973206e6f74206960448201526a6e697469616c697a696e6760a81b60648201526084016104e3565b603654600160a81b900460ff16611b1a5760405162461bcd60e51b815260206004820152602b60248201527f496e697469616c697a61626c653a20636f6e7472616374206973206e6f74206960448201526a6e697469616c697a696e6760a81b60648201526084016104e3565b6108ed611b256110c3565b6111fa565b603654600160a81b900460ff16611b975760405162461bcd60e51b815260206004820152602b60248201527f496e697469616c697a61626c653a20636f6e7472616374206973206e6f74206960448201526a6e697469616c697a696e6760a81b60648201526084016104e3565b609b805460ff19169055565b6040805160208101909152606081526000611bed611be88460408051808201825260008082526020918201528151808301909252825182529182019181019190915290565b6127af565b60408051602081019091529081529392505050565b606061045f8260000151600881518110611c2c57634e487b7160e01b600052603260045260246000fd5b60200260200101516128e1565b600061045f8260000151600281518110611c6357634e487b7160e01b600052603260045260246000fd5b602002602001015161270a565b6040805160208101909152600081528151606091901561045f57600080611c9860008661298c565b60f81c90506001811480611caf57508060ff166003145b15611d8b57600185516002611cc49190613a11565b611cce9190613a30565b67ffffffffffffffff811115611cf457634e487b7160e01b600052604160045260246000fd5b6040519080825280601f01601f191660200182016040528015611d1e576020820181803683370190505b5092506000611d2e60018761298c565b90508084600081518110611d5257634e487b7160e01b600052603260045260246000fd5b60200101907effffffffffffffffffffffffffffffffffffffffffffffffffffffffffffff1916908160001a9053506001925050611dfd565b600285516002611d9b9190613a11565b611da59190613a30565b67ffffffffffffffff811115611dcb57634e487b7160e01b600052604160045260246000fd5b6040519080825280601f01601f191660200182016040528015611df5576020820181803683370190505b509250600091505b60ff82165b8351811015611e8d57611e2c611e1b60ff851683613a30565b611e269060026138af565b8761298c565b848281518110611e4c57634e487b7160e01b600052603260045260246000fd5b60200101907effffffffffffffffffffffffffffffffffffffffffffffffffffffffffffff1916908160001a90535080611e8581613a9a565b915050611e02565b50505092915050565b600061045f8260000151600981518110611c6357634e487b7160e01b600052603260045260246000fd5b611ee460405180606001604052806060815260200160608152602001600081525090565b611f0c8260000151600681518110611c2c57634e487b7160e01b600052603260045260246000fd5b602082810182905260408051808201825260008082529083015280518082019091528251815291810190820152611f4281612a29565b15611f5757611f50816127af565b8252612012565b60208201518051600090611f6d90600190613a30565b67ffffffffffffffff811115611f9357634e487b7160e01b600052604160045260246000fd5b6040519080825280601f01601f191660200182016040528015611fbd576020820181803683370190505b509050600080836021019150826020019050611fdb82828551612a63565b60408051808201825260008082526020918201528151808301909252845182528085019082015261200b90611be8565b8652505050505b61201b83611e96565b604083015250919050565b604080516080810182526000918101828152606080830193909352815260208101919091526000612082836000015160038151811061207557634e487b7160e01b600052603260045260246000fd5b60200260200101516127af565b8360400151815181106120a557634e487b7160e01b600052603260045260246000fd5b6020026020010151905060405180604001604052808281526020016120c9836127af565b90529392505050565b600061045f82602001516000815181106120fc57634e487b7160e01b600052603260045260246000fd5b6020026020010151612ae6565b600061045f8260000151600581518110611c6357634e487b7160e01b600052603260045260246000fd5b606061045f8260000151600781518110611c2c57634e487b7160e01b600052603260045260246000fd5b6000806121918460408051808201825260008082526020918201528151808301909252825182529182019181019190915290565b9050600061219e826127af565b9050606080856000806121b08b611c70565b90508051600014156121cc57600097505050505050505061247c565b60005b86518110156124735781518311156121f25760009850505050505050505061247c565b61222287828151811061221557634e487b7160e01b600052603260045260246000fd5b6020026020010151612b00565b9550858051906020012084146122435760009850505050505050505061247c565b61226687828151811061207557634e487b7160e01b600052603260045260246000fd5b94508451601114156123655781518314156122d6578c805190602001206122a786601081518110611c2c57634e487b7160e01b600052603260045260246000fd5b8051906020012014156122c55760019850505050505050505061247c565b60009850505050505050505061247c565b60008284815181106122f857634e487b7160e01b600052603260045260246000fd5b016020015160f81c9050601081111561231d576000995050505050505050505061247c565b612350868260ff168151811061234357634e487b7160e01b600052603260045260246000fd5b6020026020010151612b8f565b945061235d6001856138af565b935050612461565b8451600214156122c557600061239f61239887600081518110611c2c57634e487b7160e01b600052603260045260246000fd5b8486612bbd565b83519091506123ae82866138af565b1415612411578d805190602001206123e087600181518110611c2c57634e487b7160e01b600052603260045260246000fd5b8051906020012014156123ff576001995050505050505050505061247c565b6000995050505050505050505061247c565b80612428576000995050505050505050505061247c565b61243281856138af565b93506124588660018151811061234357634e487b7160e01b600052603260045260246000fd5b94506124619050565b8061246b81613a9a565b9150506121cf565b50505050505050505b949350505050565b600061045f8260000151600381518110611c6357634e487b7160e01b600052603260045260246000fd5b600061045f8260000151600481518110611c6357634e487b7160e01b600052603260045260246000fd5b600061045f8260000151600081518110611c6357634e487b7160e01b600052603260045260246000fd5b606061045f8260000151600181518110611c2c57634e487b7160e01b600052603260045260246000fd5b6001546040517f41539d4a000000000000000000000000000000000000000000000000000000008152600481018490526000918291829182916001600160a01b03909116906341539d4a9060240160a06040518083038186803b15801561259257600080fd5b505afa1580156125a6573d6000803e3d6000fd5b505050506040513d601f19601f820116820180604052508101906125ca91906134fb565b5093505092509250612621828b6125e19190613a30565b6040805160208082018f90528183018e9052606082018d905260808083018d90528351808403909101815260a09092019092528051910120908588612d22565b61266d5760405162461bcd60e51b815260206004820152601c60248201527f4678526f6f7454756e6e656c3a20494e56414c49445f4845414445520000000060448201526064016104e3565b9998505050505050505050565b60408051602081019091526060815260405180602001604052806126bc846020015160018151811061207557634e487b7160e01b600052603260045260246000fd5b905292915050565b604080518082019091526000808252602082015282518051839081106126fa57634e487b7160e01b600052603260045260246000fd5b6020026020010151905092915050565b80516000901580159061271f57508151602110155b61272857600080fd5b60006127378360200151612e98565b9050600081846000015161274b9190613a30565b905060008083866020015161276091906138af565b905080519150602083101561277c57826020036101000a820491505b50949350505050565b606061045f8260200151600281518110611c2c57634e487b7160e01b600052603260045260246000fd5b60606127ba82612a29565b6127c357600080fd5b60006127ce83612f1d565b905060008167ffffffffffffffff8111156127f957634e487b7160e01b600052604160045260246000fd5b60405190808252806020026020018201604052801561283e57816020015b60408051808201909152600080825260208201528152602001906001900390816128175790505b50905060006128508560200151612e98565b856020015161285f91906138af565b90506000805b848110156128d65761287683612fa0565b91506040518060400160405280838152602001848152508482815181106128ad57634e487b7160e01b600052603260045260246000fd5b60209081029190910101526128c282846138af565b9250806128ce81613a9a565b915050612865565b509195945050505050565b80516060906128ef57600080fd5b60006128fe8360200151612e98565b905060008184600001516129129190613a30565b905060008167ffffffffffffffff81111561293d57634e487b7160e01b600052604160045260246000fd5b6040519080825280601f01601f191660200182016040528015612967576020820181803683370190505b509050600081602001905061277c84876020015161298591906138af565b8285613062565b6000612999600284613ab5565b156129e1576010826129ac6002866138c7565b815181106129ca57634e487b7160e01b600052603260045260246000fd5b01602001516129dc919060f81c613ac9565b612a1f565b6010826129ef6002866138c7565b81518110612a0d57634e487b7160e01b600052603260045260246000fd5b0160200151612a1f919060f81c6138db565b60f81b9392505050565b8051600090612a3a57506000610462565b6020820151805160001a9060c0821015612a5957600092505050610462565b5060019392505050565b80612a6d57610867565b60208110612aa55782518252612a846020846138af565b9250612a916020836138af565b9150612a9e602082613a30565b9050612a6d565b80612aaf57610867565b60006001612abe836020613a30565b612aca90610100613943565b612ad49190613a30565b84518451821691191617835250505050565b8051600090601514612af757600080fd5b61045f8261270a565b60606000826000015167ffffffffffffffff811115612b2f57634e487b7160e01b600052604160045260246000fd5b6040519080825280601f01601f191660200182016040528015612b59576020820181803683370190505b509050805160001415612b6d579050610462565b6000816020019050612b888460200151828660000151613062565b5092915050565b8051600090602114612ba057600080fd5b60008083602001516001612bb491906138af565b51949350505050565b60008080612bca86611c70565b90506000815167ffffffffffffffff811115612bf657634e487b7160e01b600052604160045260246000fd5b6040519080825280601f01601f191660200182016040528015612c20576020820181803683370190505b509050845b8251612c3190876138af565b811015612cf0576000878281518110612c5a57634e487b7160e01b600052603260045260246000fd5b01602001517fff000000000000000000000000000000000000000000000000000000000000001690508083612c8f8985613a30565b81518110612cad57634e487b7160e01b600052603260045260246000fd5b60200101907effffffffffffffffffffffffffffffffffffffffffffffffffffffffffffff1916908160001a905350508080612ce890613a9a565b915050612c25565b50808051906020012082805190602001201415612d105781519250612d15565b600092505b50909150505b9392505050565b600060208251612d329190613ab5565b15612d7f5760405162461bcd60e51b815260206004820152601460248201527f496e76616c69642070726f6f66206c656e67746800000000000000000000000060448201526064016104e3565b600060208351612d8f91906138c7565b9050612d9c816002613943565b8510612dea5760405162461bcd60e51b815260206004820152601560248201527f4c65616620696e64657820697320746f6f20626967000000000000000000000060448201526064016104e3565b60008660205b85518111612e8a57858101519250612e09600289613ab5565b612e3e576040805160208101849052908101849052606001604051602081830303815290604052805190602001209150612e6b565b60408051602081018590529081018390526060016040516020818303038152906040528051906020012091505b612e766002896138c7565b9750612e836020826138af565b9050612df0565b509094149695505050505050565b8051600090811a6080811015612eb2576000915050610462565b60b8811080612ecd575060c08110801590612ecd575060f881105b15612edc576001915050610462565b60c0811015612f1157612ef1600160b8613a47565b612efe9060ff1682613a30565b612f099060016138af565b915050610462565b612ef1600160f8613a47565b8051600090612f2e57506000610462565b600080612f3e8460200151612e98565b8460200151612f4d91906138af565b9050600084600001518560200151612f6591906138af565b90505b80821015612f9757612f7982612fa0565b612f8390836138af565b915082612f8f81613a9a565b935050612f68565b50909392505050565b80516000908190811a6080811015612fbb5760019150612b88565b60b8811015612fe157612fcf608082613a30565b612fda9060016138af565b9150612b88565b60c081101561300e5760b78103600185019450806020036101000a85510460018201810193505050612b88565b60f881101561302257612fcf60c082613a30565b60019390930151602084900360f7016101000a90049092017fffffffffffffffffffffffffffffffffffffffffffffffffffffffffffffff0a0192915050565b8061306c57610867565b60208110612aa557825182526130836020846138af565b92506130906020836138af565b915061309d602082613a30565b905061306c565b60006130b76130b284613887565b613832565b90508281528383830111156130cb57600080fd5b612d1b836020830184613a6a565b600082601f8301126130e9578081fd5b815160206130f96130b283613863565b82815281810190858301855b8581101561312e5761311c898684518b0101613182565b84529284019290840190600101613105565b5090979650505050505050565b60008083601f84011261314c578182fd5b50813567ffffffffffffffff811115613163578182fd5b60208301915083602082850101111561317b57600080fd5b9250929050565b600082601f830112613192578081fd5b612d1b838351602085016130a4565b6000602082840312156131b2578081fd5b8135612d1b81613b2d565b6000806000606084860312156131d1578182fd5b83516131dc81613b2d565b8093505060208085015167ffffffffffffffff808211156131fb578485fd5b818701915087601f83011261320e578485fd5b815161321c6130b282613863565b81815284810190848601868402860187018c1015613238578889fd5b8895505b8386101561325a57805183526001959095019491860191860161323c565b5060408a01519097509450505080831115613273578384fd5b5050613281868287016130d9565b9150509250925092565b600080600080600080608087890312156132a3578384fd5b86356132ae81613b2d565b955060208701356132be81613b2d565b9450604087013567ffffffffffffffff808211156132da578586fd5b818901915089601f8301126132ed578586fd5b8135818111156132fb578687fd5b8a6020808302850101111561330e578687fd5b60208301965080955050606089013591508082111561332b578384fd5b5061333889828a0161313b565b979a9699509497509295939492505050565b600080600080600060a08688031215613361578283fd5b853561336c81613b2d565b9450602086013561337c81613b2d565b9350604086013561338c81613b2d565b9250606086013561339c81613b2d565b949793965091946080013592915050565b6000806000806000608086880312156133c4578283fd5b85356133cf81613b2d565b945060208601356133df81613b2d565b935060408601359250606086013567ffffffffffffffff811115613401578182fd5b61340d8882890161313b565b969995985093965092949392505050565b60008060408385031215613430578182fd5b823561343b81613b2d565b915060208381013567ffffffffffffffff811115613457578283fd5b8401601f81018613613467578283fd5b80356134756130b282613863565b81815283810190838501858402850186018a1015613491578687fd5b8694505b838510156134b3578035835260019490940193918501918501613495565b5080955050505050509250929050565b6000602082840312156134d4578081fd5b81518015158114612d1b578182fd5b6000602082840312156134f4578081fd5b5035919050565b600080600080600060a08688031215613512578283fd5b85519450602086015193506040860151925060608601519150608086015161353981613b2d565b809150509295509295909350565b600060208284031215613558578081fd5b81357fffffffff0000000000000000000000000000000000000000000000000000000081168114612d1b578182fd5b600060208284031215613598578081fd5b813567ffffffffffffffff8111156135ae578182fd5b8201601f810184136135be578182fd5b80356135cc6130b282613887565b8181528560208385010111156135e0578384fd5b81602084016020830137908101602001929092525092915050565b60006020828403121561360c578081fd5b815167ffffffffffffffff811115613622578182fd5b8201601f81018413613632578182fd5b61247c848251602084016130a4565b600060208284031215613652578081fd5b815167ffffffffffffffff811115613668578182fd5b61247c84828501613182565b6000815180845261368c816020860160208601613a6a565b601f01601f19169290920160200192915050565b600082516136b2818460208701613a6a565b9190910192915050565b600084825283516136d4816020850160208801613a6a565b60209201918201929092526040019392505050565b60006001600160a01b0380871683528086166020840152508360408301526080606083015261371b6080830184613674565b9695505050505050565b6000606082016001600160a01b038616835260206060818501528186518084526080860191508288019350845b8181101561376e57845183529383019391830191600101613752565b505084810360408601528551808252828201935082810282018301838801865b838110156137bc57601f198584030187526137aa838351613674565b9686019692509085019060010161378e565b50909a9950505050505050505050565b60006001600160a01b03841682526040602083015261247c6040830184613674565b60006001600160a01b0385168252836020830152606060408301526138166060830184613674565b95945050505050565b600060208252612d1b6020830184613674565b604051601f8201601f1916810167ffffffffffffffff8111828210171561385b5761385b613b17565b604052919050565b600067ffffffffffffffff82111561387d5761387d613b17565b5060209081020190565b600067ffffffffffffffff8211156138a1576138a1613b17565b50601f01601f191660200190565b600082198211156138c2576138c2613aeb565b500190565b6000826138d6576138d6613b01565b500490565b600060ff8316806138ee576138ee613b01565b8060ff84160491505092915050565b80825b600180861161390f575061393a565b81870482111561392157613921613aeb565b8086161561392e57918102915b9490941c938002613900565b94509492505050565b6000612d1b600019848460008261395c57506001612d1b565b8161396957506000612d1b565b816001811461397f5760028114613989576139b6565b6001915050612d1b565b60ff84111561399a5761399a613aeb565b6001841b9150848211156139b0576139b0613aeb565b50612d1b565b5060208310610133831016604e8410600b84101617156139e9575081810a838111156139e4576139e4613aeb565b612d1b565b6139f684848460016138fd565b808604821115613a0857613a08613aeb565b02949350505050565b6000816000190483118215151615613a2b57613a2b613aeb565b500290565b600082821015613a4257613a42613aeb565b500390565b600060ff821660ff841680821015613a6157613a61613aeb565b90039392505050565b60005b83811015613a85578181015183820152602001613a6d565b83811115613a94576000848401525b50505050565b6000600019821415613aae57613aae613aeb565b5060010190565b600082613ac457613ac4613b01565b500690565b600060ff831680613adc57613adc613b01565b8060ff84160691505092915050565b634e487b7160e01b600052601160045260246000fd5b634e487b7160e01b600052601260045260246000fd5b634e487b7160e01b600052604160045260246000fd5b6001600160a01b0381168114610da957600080fdfea2646970667358221220df870e1972344d1f92c2a17f3b40f68df6f4e4d12222230d1a5fd4ab3f6a08ec64736f6c63430008020033",
  "devdoc": {
    "kind": "dev",
    "methods": {
      "owner()": {
        "details": "Returns the address of the current owner."
      },
      "pause()": {
        "details": "Pauses all token transfers across bridge"
      },
      "paused()": {
        "details": "Returns true if the contract is paused, and false otherwise."
      },
      "receiveMessage(bytes)": {
        "details": "This function verifies if the transaction actually happened on child chain",
        "params": {
          "inputData": "RLP encoded data of the reference tx containing following list of fields  0 - headerNumber - Checkpoint header block number containing the reference tx  1 - blockProof - Proof that the block header (in the child chain) is a leaf in the submitted merkle root  2 - blockNumber - Block number containing the reference tx on child chain  3 - blockTime - Reference tx block time  4 - txRoot - Transactions root of block  5 - receiptRoot - Receipts root of block  6 - receipt - Receipt of the reference transaction  7 - receiptProof - Merkle proof of the reference receipt  8 - branchMask - 32 bits denoting the path of receipt in merkle tree  9 - receiptLogIndex - Log Index to read from the receipt"
        }
      },
      "renounceOwnership()": {
        "details": "Leaves the contract without owner. It will not be possible to call `onlyOwner` functions anymore. Can only be called by the current owner. NOTE: Renouncing ownership will leave the contract without an owner, thereby removing any functionality that is only available to the owner."
      },
      "setTrustedForwarder(address)": {
        "details": "Change the address of the trusted forwarder for meta-TX",
        "params": {
          "trustedForwarder": "The new trustedForwarder"
        }
      },
      "supportsInterface(bytes4)": {
        "details": "Returns true if this contract implements the interface defined by `interfaceId`. See the corresponding https://eips.ethereum.org/EIPS/eip-165#how-interfaces-are-identified[EIP section] to learn more about how these ids are created. This function call must use less than 30 000 gas."
      },
      "transferOwnership(address)": {
        "details": "Transfers ownership of the contract to a new account (`newOwner`). Can only be called by the current owner."
      },
      "unpause()": {
        "details": "Unpauses all token transfers across bridge"
      }
    },
    "title": "ASSETERC721 bridge on L1",
    "version": 1
  },
  "userdoc": {
    "kind": "user",
    "methods": {
      "receiveMessage(bytes)": {
        "notice": "receive message from  L2 to L1, validated by proof"
      }
    },
    "version": 1
  },
  "storageLayout": {
    "storage": [
      {
        "astId": 2092,
        "contract": "src/solc_0.8/polygon/root/asset/AssetERC721Tunnel.sol:AssetERC721Tunnel",
        "label": "fxRoot",
        "offset": 0,
        "slot": "0",
        "type": "t_contract(IFxStateSender)2042"
      },
      {
        "astId": 2095,
        "contract": "src/solc_0.8/polygon/root/asset/AssetERC721Tunnel.sol:AssetERC721Tunnel",
        "label": "checkpointManager",
        "offset": 0,
        "slot": "1",
        "type": "t_contract(ICheckpointManager)2060"
      },
      {
        "astId": 2097,
        "contract": "src/solc_0.8/polygon/root/asset/AssetERC721Tunnel.sol:AssetERC721Tunnel",
        "label": "fxChildTunnel",
        "offset": 0,
        "slot": "2",
        "type": "t_address"
      },
      {
        "astId": 2101,
        "contract": "src/solc_0.8/polygon/root/asset/AssetERC721Tunnel.sol:AssetERC721Tunnel",
        "label": "processedExits",
        "offset": 0,
        "slot": "3",
        "type": "t_mapping(t_bytes32,t_bool)"
      },
      {
        "astId": 36639,
        "contract": "src/solc_0.8/polygon/root/asset/AssetERC721Tunnel.sol:AssetERC721Tunnel",
        "label": "__gap",
        "offset": 0,
        "slot": "4",
        "type": "t_array(t_uint256)50_storage"
      },
      {
        "astId": 31913,
        "contract": "src/solc_0.8/polygon/root/asset/AssetERC721Tunnel.sol:AssetERC721Tunnel",
        "label": "_trustedForwarder",
        "offset": 0,
        "slot": "54",
        "type": "t_address"
      },
      {
        "astId": 10063,
        "contract": "src/solc_0.8/polygon/root/asset/AssetERC721Tunnel.sol:AssetERC721Tunnel",
        "label": "_initialized",
        "offset": 20,
        "slot": "54",
        "type": "t_bool"
      },
      {
        "astId": 10066,
        "contract": "src/solc_0.8/polygon/root/asset/AssetERC721Tunnel.sol:AssetERC721Tunnel",
        "label": "_initializing",
        "offset": 21,
        "slot": "54",
        "type": "t_bool"
      },
      {
        "astId": 12064,
        "contract": "src/solc_0.8/polygon/root/asset/AssetERC721Tunnel.sol:AssetERC721Tunnel",
        "label": "__gap",
        "offset": 0,
        "slot": "55",
        "type": "t_array(t_uint256)50_storage"
      },
      {
        "astId": 9840,
        "contract": "src/solc_0.8/polygon/root/asset/AssetERC721Tunnel.sol:AssetERC721Tunnel",
        "label": "_owner",
        "offset": 0,
        "slot": "105",
        "type": "t_address"
      },
      {
        "astId": 9954,
        "contract": "src/solc_0.8/polygon/root/asset/AssetERC721Tunnel.sol:AssetERC721Tunnel",
        "label": "__gap",
        "offset": 0,
        "slot": "106",
        "type": "t_array(t_uint256)49_storage"
      },
      {
        "astId": 10151,
        "contract": "src/solc_0.8/polygon/root/asset/AssetERC721Tunnel.sol:AssetERC721Tunnel",
        "label": "_paused",
        "offset": 0,
        "slot": "155",
        "type": "t_bool"
      },
      {
        "astId": 10242,
        "contract": "src/solc_0.8/polygon/root/asset/AssetERC721Tunnel.sol:AssetERC721Tunnel",
        "label": "__gap",
        "offset": 0,
        "slot": "156",
        "type": "t_array(t_uint256)49_storage"
      },
      {
        "astId": 50519,
        "contract": "src/solc_0.8/polygon/root/asset/AssetERC721Tunnel.sol:AssetERC721Tunnel",
        "label": "rootToken",
        "offset": 0,
        "slot": "205",
        "type": "t_contract(IAssetERC721)37074"
      },
      {
        "astId": 50521,
        "contract": "src/solc_0.8/polygon/root/asset/AssetERC721Tunnel.sol:AssetERC721Tunnel",
        "label": "maxTransferLimit",
        "offset": 0,
        "slot": "206",
        "type": "t_uint256"
      },
      {
        "astId": 50524,
        "contract": "src/solc_0.8/polygon/root/asset/AssetERC721Tunnel.sol:AssetERC721Tunnel",
        "label": "fetchingAssets",
        "offset": 0,
        "slot": "207",
        "type": "t_bool"
      }
    ],
    "types": {
      "t_address": {
        "encoding": "inplace",
        "label": "address",
        "numberOfBytes": "20"
      },
      "t_array(t_uint256)49_storage": {
        "base": "t_uint256",
        "encoding": "inplace",
        "label": "uint256[49]",
        "numberOfBytes": "1568"
      },
      "t_array(t_uint256)50_storage": {
        "base": "t_uint256",
        "encoding": "inplace",
        "label": "uint256[50]",
        "numberOfBytes": "1600"
      },
      "t_bool": {
        "encoding": "inplace",
        "label": "bool",
        "numberOfBytes": "1"
      },
      "t_bytes32": {
        "encoding": "inplace",
        "label": "bytes32",
        "numberOfBytes": "32"
      },
      "t_contract(IAssetERC721)37074": {
        "encoding": "inplace",
        "label": "contract IAssetERC721",
        "numberOfBytes": "20"
      },
      "t_contract(ICheckpointManager)2060": {
        "encoding": "inplace",
        "label": "contract ICheckpointManager",
        "numberOfBytes": "20"
      },
      "t_contract(IFxStateSender)2042": {
        "encoding": "inplace",
        "label": "contract IFxStateSender",
        "numberOfBytes": "20"
      },
      "t_mapping(t_bytes32,t_bool)": {
        "encoding": "mapping",
        "key": "t_bytes32",
        "label": "mapping(bytes32 => bool)",
        "numberOfBytes": "32",
        "value": "t_bool"
      },
      "t_uint256": {
        "encoding": "inplace",
        "label": "uint256",
        "numberOfBytes": "32"
      }
    }
  }
}