{
  "address": "0x9EeF38d5fC9507677cD9cfB55dc6Ab5F8C08465B",
  "abi": [
    {
      "inputs": [
        {
          "internalType": "address",
          "name": "adminWallet",
          "type": "address"
        },
        {
          "internalType": "address",
          "name": "initialSigningWallet",
          "type": "address"
        }
      ],
      "stateMutability": "nonpayable",
      "type": "constructor"
    },
    {
      "anonymous": false,
      "inputs": [
        {
          "indexed": false,
          "internalType": "address",
          "name": "oldAdmin",
          "type": "address"
        },
        {
          "indexed": false,
          "internalType": "address",
          "name": "newAdmin",
          "type": "address"
        }
      ],
      "name": "AdminChanged",
      "type": "event"
    },
    {
      "anonymous": false,
      "inputs": [
        {
          "indexed": true,
          "internalType": "address",
          "name": "signingWallet",
          "type": "address"
        }
      ],
      "name": "SigningWallet",
      "type": "event"
    },
    {
      "inputs": [],
      "name": "_signingAuthWallet",
      "outputs": [
        {
          "internalType": "address",
          "name": "",
          "type": "address"
        }
      ],
      "stateMutability": "view",
      "type": "function"
    },
    {
      "inputs": [
        {
          "internalType": "address",
          "name": "newAdmin",
          "type": "address"
        }
      ],
      "name": "changeAdmin",
      "outputs": [],
      "stateMutability": "nonpayable",
      "type": "function"
    },
    {
      "inputs": [],
      "name": "getAdmin",
      "outputs": [
        {
          "internalType": "address",
          "name": "",
          "type": "address"
        }
      ],
      "stateMutability": "view",
      "type": "function"
    },
    {
      "inputs": [
        {
          "internalType": "bytes",
          "name": "signature",
          "type": "bytes"
        },
        {
          "internalType": "bytes32",
          "name": "hashedData",
          "type": "bytes32"
        }
      ],
      "name": "isAuthValid",
      "outputs": [
        {
          "internalType": "bool",
          "name": "",
          "type": "bool"
        }
      ],
      "stateMutability": "view",
      "type": "function"
    },
    {
      "inputs": [
        {
          "internalType": "address",
          "name": "newSigningWallet",
          "type": "address"
        }
      ],
      "name": "updateSigningAuthWallet",
      "outputs": [],
      "stateMutability": "nonpayable",
      "type": "function"
    }
  ],
  "transactionHash": "0x8f34e2d966ae3839ae520663dbdd89af72115f98d7b1392d4b1bcffbbe5978fb",
  "args": [
    "0x39D01ecc951C2c1f20ba0549e62212659c4d1e06",
    "0x0c72f82B46f034025622731c271bdf06B848Ed77"
  ],
  "solcInputHash": "9e96e809f39b32a014af3d14a594bb1a",
  "bytecode": "0x608060405234801561001057600080fd5b5060405161085d38038061085d83398101604081905261002f9161011a565b600080546001600160a01b0319166001600160a01b0384161790556100538161005a565b505061014c565b6001600160a01b0381166100b45760405162461bcd60e51b815260206004820152601660248201527f494e56414c49445f5349474e494e475f57414c4c455400000000000000000000604482015260640160405180910390fd5b600180546001600160a01b0319166001600160a01b0383169081179091556040517f48772ae5df5446cb5feef762e8204b7987ae4d5dd4a7082bc868da62cdafbdd890600090a250565b80516001600160a01b038116811461011557600080fd5b919050565b6000806040838503121561012c578182fd5b610135836100fe565b9150610143602084016100fe565b90509250929050565b6107028061015b6000396000f3fe608060405234801561001057600080fd5b50600436106100675760003560e01c80638f283970116100505780638f283970146100b9578063947a2d19146100ce578063cb0612eb146100e157610067565b8063012847ed1461006c5780636e9960c314610094575b600080fd5b61007f61007a3660046105eb565b6100f4565b60405190151581526020015b60405180910390f35b6000546001600160a01b03165b6040516001600160a01b03909116815260200161008b565b6100cc6100c73660046105bd565b610165565b005b6001546100a1906001600160a01b031681565b6100cc6100ef3660046105bd565b610245565b6040517f19457468657265756d205369676e6564204d6573736167653a0a3332000000006020820152603c8101829052600090819061014c90605c0160405160208183030381529060405280519060200120856102ab565b6001546001600160a01b03908116911614949350505050565b6000546001600160a01b031633146101c45760405162461bcd60e51b815260206004820152601360248201527f41444d494e5f4143434553535f44454e4945440000000000000000000000000060448201526064015b60405180910390fd5b600054604080516001600160a01b03928316815291831660208301527f7e644d79422f17c01e4894b5f4f588d331ebfa28653d42ae832dc59e38c9798f910160405180910390a1600080547fffffffffffffffffffffffff0000000000000000000000000000000000000000166001600160a01b0392909216919091179055565b6000546001600160a01b0316331461029f5760405162461bcd60e51b815260206004820152600a60248201527f41444d494e5f4f4e4c590000000000000000000000000000000000000000000060448201526064016101bb565b6102a881610326565b50565b600081516041146102fe5760405162461bcd60e51b815260206004820152601f60248201527f45434453413a20696e76616c6964207369676e6174757265206c656e6774680060448201526064016101bb565b60208201516040830151606084015160001a61031c868285856103de565b9695505050505050565b6001600160a01b03811661037c5760405162461bcd60e51b815260206004820152601660248201527f494e56414c49445f5349474e494e475f57414c4c45540000000000000000000060448201526064016101bb565b600180547fffffffffffffffffffffffff0000000000000000000000000000000000000000166001600160a01b0383169081179091556040517f48772ae5df5446cb5feef762e8204b7987ae4d5dd4a7082bc868da62cdafbdd890600090a250565b60007f7fffffffffffffffffffffffffffffff5d576e7357a4501ddfe92f46681b20a08211156104765760405162461bcd60e51b815260206004820152602260248201527f45434453413a20696e76616c6964207369676e6174757265202773272076616c60448201527f756500000000000000000000000000000000000000000000000000000000000060648201526084016101bb565b8360ff16601b148061048b57508360ff16601c145b6104fd5760405162461bcd60e51b815260206004820152602260248201527f45434453413a20696e76616c6964207369676e6174757265202776272076616c60448201527f756500000000000000000000000000000000000000000000000000000000000060648201526084016101bb565b6040805160008082526020820180845288905260ff871692820192909252606081018590526080810184905260019060a0016020604051602081039080840390855afa158015610551573d6000803e3d6000fd5b5050604051601f1901519150506001600160a01b0381166105b45760405162461bcd60e51b815260206004820152601860248201527f45434453413a20696e76616c6964207369676e6174757265000000000000000060448201526064016101bb565b95945050505050565b6000602082840312156105ce578081fd5b81356001600160a01b03811681146105e4578182fd5b9392505050565b600080604083850312156105fd578081fd5b823567ffffffffffffffff80821115610614578283fd5b818501915085601f830112610627578283fd5b8135818111156106395761063961069d565b604051601f8201601f19908116603f011681019083821181831017156106615761066161069d565b81604052828152886020848701011115610679578586fd5b82602086016020830137918201602090810195909552509694909201359450505050565b7f4e487b7100000000000000000000000000000000000000000000000000000000600052604160045260246000fdfea26469706673582212200a1e68ed31936d9943b25c95f9fdf3dda27b4ac9f82bb846e8e45687562fedfe64736f6c63430008020033",
  "devdoc": {
    "kind": "dev",
    "methods": {
      "changeAdmin(address)": {
        "details": "Change the administrator to be `newAdmin`.",
        "params": {
          "newAdmin": "The address of the new administrator."
        }
      },
      "getAdmin()": {
        "details": "Get the current administrator of this contract.",
        "returns": {
          "_0": "The current administrator of this contract."
        }
      }
    },
    "version": 1
  },
  "userdoc": {
    "kind": "user",
    "methods": {},
    "version": 1
  },
  "storageLayout": {
    "storage": [
      {
        "astId": 17694,
        "contract": "src/solc_0.8/estate/AuthValidator.sol:AuthValidator",
        "label": "_admin",
        "offset": 0,
        "slot": "0",
        "type": "t_address"
      },
      {
        "astId": 20226,
        "contract": "src/solc_0.8/estate/AuthValidator.sol:AuthValidator",
        "label": "_signingAuthWallet",
        "offset": 0,
        "slot": "1",
        "type": "t_address"
      }
    ],
    "types": {
      "t_address": {
        "encoding": "inplace",
        "label": "address",
        "numberOfBytes": "20"
      }
    }
  }
}