{
  "address": "0x79305b373A0C212feBDc36Efbcba0FdEe78dAc67",
  "abi": [
    {
      "inputs": [],
      "stateMutability": "nonpayable",
      "type": "constructor"
    },
    {
      "inputs": [
        {
          "components": [
            {
              "internalType": "address",
              "name": "from",
              "type": "address"
            },
            {
              "internalType": "address",
              "name": "to",
              "type": "address"
            },
            {
              "internalType": "uint256",
              "name": "value",
              "type": "uint256"
            },
            {
              "internalType": "uint256",
              "name": "gas",
              "type": "uint256"
            },
            {
              "internalType": "bytes",
              "name": "data",
              "type": "bytes"
            }
          ],
          "internalType": "struct FakePredicateForwarder.Request",
          "name": "req",
          "type": "tuple"
        }
      ],
      "name": "forward",
      "outputs": [
        {
          "internalType": "bool",
          "name": "",
          "type": "bool"
        },
        {
          "internalType": "bytes",
          "name": "",
          "type": "bytes"
        }
      ],
      "stateMutability": "nonpayable",
      "type": "function"
    }
  ],
  "transactionHash": "0x6d2de562475d3212cb0ff6bf92923c700a3b7768539de3ef9169da9a4585f502",
  "args": [],
  "solcInputHash": "e63993e0be97f3a53a1de2d8f51a10f7",
  "bytecode": "0x608060405234801561001057600080fd5b506102fd806100206000396000f3fe608060405234801561001057600080fd5b506004361061002b5760003560e01c806316e7ad3614610030575b600080fd5b61004361003e366004610161565b61005a565b6040516100519291906101f1565b60405180910390f35b6000606081806100706040860160208701610126565b73ffffffffffffffffffffffffffffffffffffffff166060860135604087013561009d608089018961022d565b6100aa60208b018b610126565b6040516020016100bc93929190610199565b60408051601f19818403018152908290526100d6916101d5565b600060405180830381858888f193505050503d8060008114610114576040519150601f19603f3d011682016040523d82523d6000602084013e610119565b606091505b5090945092505050915091565b600060208284031215610137578081fd5b813573ffffffffffffffffffffffffffffffffffffffff8116811461015a578182fd5b9392505050565b600060208284031215610172578081fd5b813567ffffffffffffffff811115610188578182fd5b820160a0818503121561015a578182fd5b6000838583375060609190911b7fffffffffffffffffffffffffffffffffffffffff000000000000000000000000169101908152601401919050565b600082516101e7818460208701610297565b9190910192915050565b60008315158252604060208301528251806040840152610218816060850160208701610297565b601f01601f1916919091016060019392505050565b60008083357fffffffffffffffffffffffffffffffffffffffffffffffffffffffffffffffe1843603018112610261578283fd5b83018035915067ffffffffffffffff82111561027b578283fd5b60200191503681900382131561029057600080fd5b9250929050565b60005b838110156102b257818101518382015260200161029a565b838111156102c1576000848401525b5050505056fea264697066735822122048f93ec253d0f443bfdc42be6dd646483949f608bb66633efc14705ce8cf9bd064736f6c63430008020033",
  "devdoc": {
    "details": "This is NOT a secure forwarder contract implementation! DO NOT USE in production.",
    "kind": "dev",
    "methods": {},
    "version": 1
  },
  "userdoc": {
    "kind": "user",
    "methods": {},
    "version": 1
  },
  "storageLayout": {
    "storage": [],
    "types": null
  }
}