{
  "address": "0x9e748d1D4c971699eA39946286Da3362A44A4E7c",
  "abi": [
    {
      "inputs": [
        {
          "internalType": "contract IERC20",
          "name": "ierc20",
          "type": "address"
        },
        {
          "internalType": "uint256",
          "name": "period",
          "type": "uint256"
        },
        {
          "internalType": "uint256",
          "name": "amountLimit",
          "type": "uint256"
        }
      ],
      "stateMutability": "nonpayable",
      "type": "constructor"
    },
    {
      "anonymous": false,
      "inputs": [
        {
          "indexed": false,
          "internalType": "uint256",
          "name": "amountLimit",
          "type": "uint256"
        }
      ],
      "name": "FaucetLimit",
      "type": "event"
    },
    {
      "anonymous": false,
      "inputs": [
        {
          "indexed": false,
          "internalType": "uint256",
          "name": "period",
          "type": "uint256"
        }
      ],
      "name": "FaucetPeriod",
      "type": "event"
    },
    {
      "anonymous": false,
      "inputs": [
        {
          "indexed": false,
          "internalType": "address",
          "name": "receiver",
          "type": "address"
        },
        {
          "indexed": false,
          "internalType": "uint256",
          "name": "_amountSent",
          "type": "uint256"
        }
      ],
      "name": "FaucetRetrieved",
      "type": "event"
    },
    {
      "anonymous": false,
      "inputs": [
        {
          "indexed": false,
          "internalType": "address",
          "name": "_receiver",
          "type": "address"
        },
        {
          "indexed": false,
          "internalType": "uint256",
          "name": "_amountSent",
          "type": "uint256"
        }
      ],
      "name": "FaucetSent",
      "type": "event"
    },
    {
      "anonymous": false,
      "inputs": [
        {
          "indexed": true,
          "internalType": "address",
          "name": "previousOwner",
          "type": "address"
        },
        {
          "indexed": true,
          "internalType": "address",
          "name": "newOwner",
          "type": "address"
        }
      ],
      "name": "OwnershipTransferred",
      "type": "event"
    },
    {
      "inputs": [
        {
          "internalType": "address",
          "name": "",
          "type": "address"
        }
      ],
      "name": "_lastTimestamps",
      "outputs": [
        {
          "internalType": "uint256",
          "name": "",
          "type": "uint256"
        }
      ],
      "stateMutability": "view",
      "type": "function"
    },
    {
      "inputs": [],
      "name": "balance",
      "outputs": [
        {
          "internalType": "uint256",
          "name": "",
          "type": "uint256"
        }
      ],
      "stateMutability": "view",
      "type": "function"
    },
    {
      "inputs": [],
      "name": "getLimit",
      "outputs": [
        {
          "internalType": "uint256",
          "name": "",
          "type": "uint256"
        }
      ],
      "stateMutability": "view",
      "type": "function"
    },
    {
      "inputs": [],
      "name": "getPeriod",
      "outputs": [
        {
          "internalType": "uint256",
          "name": "",
          "type": "uint256"
        }
      ],
      "stateMutability": "view",
      "type": "function"
    },
    {
      "inputs": [],
      "name": "owner",
      "outputs": [
        {
          "internalType": "address",
          "name": "",
          "type": "address"
        }
      ],
      "stateMutability": "view",
      "type": "function"
    },
    {
      "inputs": [],
      "name": "renounceOwnership",
      "outputs": [],
      "stateMutability": "nonpayable",
      "type": "function"
    },
    {
      "inputs": [
        {
          "internalType": "address",
          "name": "receiver",
          "type": "address"
        }
      ],
      "name": "retrieve",
      "outputs": [],
      "stateMutability": "nonpayable",
      "type": "function"
    },
    {
      "inputs": [
        {
          "internalType": "uint256",
          "name": "amount",
          "type": "uint256"
        }
      ],
      "name": "send",
      "outputs": [],
      "stateMutability": "nonpayable",
      "type": "function"
    },
    {
      "inputs": [
        {
          "internalType": "uint256",
          "name": "amountLimit",
          "type": "uint256"
        }
      ],
      "name": "setLimit",
      "outputs": [],
      "stateMutability": "nonpayable",
      "type": "function"
    },
    {
      "inputs": [
        {
          "internalType": "uint256",
          "name": "period",
          "type": "uint256"
        }
      ],
      "name": "setPeriod",
      "outputs": [],
      "stateMutability": "nonpayable",
      "type": "function"
    },
    {
      "inputs": [
        {
          "internalType": "address",
          "name": "newOwner",
          "type": "address"
        }
      ],
      "name": "transferOwnership",
      "outputs": [],
      "stateMutability": "nonpayable",
      "type": "function"
    }
  ],
  "transactionHash": "0xf9d2c7ebfd59603bcf28f1b3deab7bf903d7a8d782523f02033adb6ea3ca2e4f",
  "args": [
    "0x32F3e11d8d9B9dc50e19D41c0ED868283824767B",
    30,
    "10000000000000000000"
  ],
  "solcInputHash": "0505d301d083cfaa512ecb9b03150aa2",
  "bytecode": "0x60a060405234801561001057600080fd5b50604051610e75380380610e7583398101604081905261002f9161008e565b600080546001600160a01b031916339081178255604051909182917f8be0079c531659141344cd1fd0a4f28419497f9722a3daafe3b4186f6b6457e0908290a35060609290921b6001600160601b0319166080526001556002556100cf565b6000806000606084860312156100a2578283fd5b83516001600160a01b03811681146100b8578384fd5b602085015160409095015190969495509392505050565b60805160601c610d7a6100fb6000396000818161024a0152818161065801526107440152610d7a6000f3fe608060405234801561001057600080fd5b50600436106100c95760003560e01c80638da5cb5b11610081578063b69ef8a81161005b578063b69ef8a81461015e578063bfb0602114610166578063f2fde38b14610186576100c9565b80638da5cb5b14610128578063a52c101e14610143578063b295a00e14610156576100c9565b80631ed24195116100b25780631ed24195146100f657806327ea6f2b1461010d578063715018a614610120576100c9565b80630a79309b146100ce5780630f3a9f65146100e3575b600080fd5b6100e16100dc366004610a6d565b610199565b005b6100e16100f1366004610abb565b610310565b6001545b6040519081526020015b60405180910390f35b6100e161011b366004610abb565b6103a6565b6100e1610435565b6000546040516001600160a01b039091168152602001610104565b6100e1610151366004610abb565b6104f1565b6002546100fa565b6100fa610713565b6100fa610174366004610a6d565b60036020526000908152604090205481565b6100e1610194366004610a6d565b6107cb565b6000546001600160a01b031633146101f85760405162461bcd60e51b815260206004820181905260248201527f4f776e61626c653a2063616c6c6572206973206e6f7420746865206f776e657260448201526064015b60405180910390fd5b6000610202610713565b6040517f23b872dd0000000000000000000000000000000000000000000000000000000081523060048201526001600160a01b038481166024830152604482018390529192507f0000000000000000000000000000000000000000000000000000000000000000909116906323b872dd90606401602060405180830381600087803b15801561029057600080fd5b505af11580156102a4573d6000803e3d6000fd5b505050506040513d601f19601f820116820180604052508101906102c89190610a9b565b50604080516001600160a01b0384168152602081018390527fc4ed2bedeebfbd51a6ad812549ceb34a4df2fc0e3142551b47d081e66505b04791015b60405180910390a15050565b6000546001600160a01b0316331461036a5760405162461bcd60e51b815260206004820181905260248201527f4f776e61626c653a2063616c6c6572206973206e6f7420746865206f776e657260448201526064016101ef565b60018190556040518181527fd84898ac673d493d8af0e9ca52c71eb44708f6100f406ad6bba2ea64a24b094d906020015b60405180910390a150565b6000546001600160a01b031633146104005760405162461bcd60e51b815260206004820181905260248201527f4f776e61626c653a2063616c6c6572206973206e6f7420746865206f776e657260448201526064016101ef565b60028190556040518181527f7a5a4514ff313744e682809aceaab00e7e7e2e1335c651ffe57fe1e5a8903e1c9060200161039b565b6000546001600160a01b0316331461048f5760405162461bcd60e51b815260206004820181905260248201527f4f776e61626c653a2063616c6c6572206973206e6f7420746865206f776e657260448201526064016101ef565b600080546040516001600160a01b03909116907f8be0079c531659141344cd1fd0a4f28419497f9722a3daafe3b4186f6b6457e0908390a3600080547fffffffffffffffffffffffff0000000000000000000000000000000000000000169055565b600254811115610502600254610914565b6040516020016105129190610aeb565b6040516020818303038152906040529061053f5760405162461bcd60e51b81526004016101ef9190610c07565b50600061054a610713565b90506000811161055982610914565b6040516020016105699190610b9c565b604051602081830303815290604052906105965760405162461bcd60e51b81526004016101ef9190610c07565b506001543360009081526003602052604090205442916105b591610c58565b106105c1600154610914565b6040516020016105d19190610b30565b604051602081830303815290604052906105fe5760405162461bcd60e51b81526004016101ef9190610c07565b503360009081526003602052604090204290558181101561061d578091505b6040517f23b872dd000000000000000000000000000000000000000000000000000000008152306004820152336024820152604481018390527f00000000000000000000000000000000000000000000000000000000000000006001600160a01b0316906323b872dd90606401602060405180830381600087803b1580156106a457600080fd5b505af11580156106b8573d6000803e3d6000fd5b505050506040513d601f19601f820116820180604052508101906106dc9190610a9b565b5060408051338152602081018490527fb31f1c76b3f9b1acd71e94a548e8f07f80d0842728e8044aa0485b497c2716329101610304565b6040517f70a082310000000000000000000000000000000000000000000000000000000081523060048201526000907f00000000000000000000000000000000000000000000000000000000000000006001600160a01b0316906370a082319060240160206040518083038186803b15801561078e57600080fd5b505afa1580156107a2573d6000803e3d6000fd5b505050506040513d601f19601f820116820180604052508101906107c69190610ad3565b905090565b6000546001600160a01b031633146108255760405162461bcd60e51b815260206004820181905260248201527f4f776e61626c653a2063616c6c6572206973206e6f7420746865206f776e657260448201526064016101ef565b6001600160a01b0381166108a15760405162461bcd60e51b815260206004820152602660248201527f4f776e61626c653a206e6577206f776e657220697320746865207a65726f206160448201527f646472657373000000000000000000000000000000000000000000000000000060648201526084016101ef565b600080546040516001600160a01b03808516939216917f8be0079c531659141344cd1fd0a4f28419497f9722a3daafe3b4186f6b6457e091a3600080547fffffffffffffffffffffffff0000000000000000000000000000000000000000166001600160a01b0392909216919091179055565b606081610955575060408051808201909152600181527f30000000000000000000000000000000000000000000000000000000000000006020820152610a68565b8160005b811561097f578061096981610ccb565b91506109789050600a83610c70565b9150610959565b60008167ffffffffffffffff8111156109a857634e487b7160e01b600052604160045260246000fd5b6040519080825280601f01601f1916602001820160405280156109d2576020820181803683370190505b5090505b8415610a63576109e7600183610c84565b91506109f4600a86610d04565b6109ff906030610c58565b60f81b818381518110610a2257634e487b7160e01b600052603260045260246000fd5b60200101907effffffffffffffffffffffffffffffffffffffffffffffffffffffffffffff1916908160001a905350610a5c600a86610c70565b94506109d6565b925050505b919050565b600060208284031215610a7e578081fd5b81356001600160a01b0381168114610a94578182fd5b9392505050565b600060208284031215610aac578081fd5b81518015158114610a94578182fd5b600060208284031215610acc578081fd5b5035919050565b600060208284031215610ae4578081fd5b5051919050565b60007f44656d616e64206d757374206e6f74206578636565642000000000000000000082528251610b23816017850160208701610c9b565b9190910160170192915050565b60007f416674657220656163682063616c6c20796f75206d757374207761697420000082528251610b6881601e850160208701610c9b565b7f207365636f6e64732e0000000000000000000000000000000000000000000000601e939091019283015250602701919050565b60007f496e73756666696369656e742062616c616e6365206f6e20466175636574206182527f63636f756e743a2000000000000000000000000000000000000000000000000060208301528251610bfa816028850160208701610c9b565b9190910160280192915050565b6000602082528251806020840152610c26816040850160208701610c9b565b601f017fffffffffffffffffffffffffffffffffffffffffffffffffffffffffffffffe0169190910160400192915050565b60008219821115610c6b57610c6b610d18565b500190565b600082610c7f57610c7f610d2e565b500490565b600082821015610c9657610c96610d18565b500390565b60005b83811015610cb6578181015183820152602001610c9e565b83811115610cc5576000848401525b50505050565b60007fffffffffffffffffffffffffffffffffffffffffffffffffffffffffffffffff821415610cfd57610cfd610d18565b5060010190565b600082610d1357610d13610d2e565b500690565b634e487b7160e01b600052601160045260246000fd5b634e487b7160e01b600052601260045260246000fdfea2646970667358221220255e94e3c5b81eb5f0cf7c05162d6801869da12924f251669b563442152d50ff64736f6c63430008020033",
  "devdoc": {
    "kind": "dev",
    "methods": {
      "owner()": {
        "details": "Returns the address of the current owner."
      },
      "renounceOwnership()": {
        "details": "Leaves the contract without owner. It will not be possible to call `onlyOwner` functions anymore. Can only be called by the current owner. NOTE: Renouncing ownership will leave the contract without an owner, thereby removing any functionality that is only available to the owner."
      },
      "retrieve(address)": {
        "params": {
          "receiver": "The address that will receive all IERC20 tokens."
        }
      },
      "send(uint256)": {
        "params": {
          "amount": "The value of the IERC20 token that the receiver will received."
        }
      },
      "setPeriod(uint256)": {
        "params": {
          "period": "time delta between 2 calls to send() for an address."
        }
      },
      "transferOwnership(address)": {
        "details": "Transfers ownership of the contract to a new account (`newOwner`). Can only be called by the current owner."
      }
    },
    "version": 1
  },
  "userdoc": {
    "kind": "user",
    "methods": {
      "balance()": {
        "notice": "return the current IERC20 token balance for the contract."
      },
      "getLimit()": {
        "notice": "return the maximum IERC20 token amount for an address."
      },
      "getPeriod()": {
        "notice": "returns the minimum time delta between 2 calls to Send for an address."
      },
      "retrieve(address)": {
        "notice": "retrieve all IERC20 token from contract to an address."
      },
      "send(uint256)": {
        "notice": "send amount of IERC20 to a receiver."
      },
      "setLimit(uint256)": {
        "notice": "return the maximum IERC20 token amount for an address."
      },
      "setPeriod(uint256)": {
        "notice": "set the minimum time delta between 2 calls to send() for an address."
      }
    },
    "version": 1
  },
  "storageLayout": {
    "storage": [
      {
        "astId": 7,
        "contract": "src/solc_0.8/faucet/Faucet.sol:Faucet",
        "label": "_owner",
        "offset": 0,
        "slot": "0",
        "type": "t_address"
      },
      {
        "astId": 25710,
        "contract": "src/solc_0.8/faucet/Faucet.sol:Faucet",
        "label": "_period",
        "offset": 0,
        "slot": "1",
        "type": "t_uint256"
      },
      {
        "astId": 25712,
        "contract": "src/solc_0.8/faucet/Faucet.sol:Faucet",
        "label": "_amountLimit",
        "offset": 0,
        "slot": "2",
        "type": "t_uint256"
      },
      {
        "astId": 25716,
        "contract": "src/solc_0.8/faucet/Faucet.sol:Faucet",
        "label": "_lastTimestamps",
        "offset": 0,
        "slot": "3",
        "type": "t_mapping(t_address,t_uint256)"
      }
    ],
    "types": {
      "t_address": {
        "encoding": "inplace",
        "label": "address",
        "numberOfBytes": "20"
      },
      "t_mapping(t_address,t_uint256)": {
        "encoding": "mapping",
        "key": "t_address",
        "label": "mapping(address => uint256)",
        "numberOfBytes": "32",
        "value": "t_uint256"
      },
      "t_uint256": {
        "encoding": "inplace",
        "label": "uint256",
        "numberOfBytes": "32"
      }
    }
  }
}