{
  "address": "0x9B1DBB930fd1E60dc1C6A2beec025106a7AFd65E",
  "abi": [
    {
      "inputs": [
        {
          "internalType": "address",
          "name": "admin",
          "type": "address"
        },
        {
          "internalType": "address",
          "name": "trustedForwarder",
          "type": "address"
        }
      ],
      "stateMutability": "nonpayable",
      "type": "constructor"
    },
    {
      "anonymous": false,
      "inputs": [
        {
          "indexed": false,
          "internalType": "address",
          "name": "oldAdmin",
          "type": "address"
        },
        {
          "indexed": false,
          "internalType": "address",
          "name": "newAdmin",
          "type": "address"
        }
      ],
      "name": "AdminChanged",
      "type": "event"
    },
    {
      "anonymous": false,
      "inputs": [
        {
          "indexed": true,
          "internalType": "address",
          "name": "previousOwner",
          "type": "address"
        },
        {
          "indexed": true,
          "internalType": "address",
          "name": "newOwner",
          "type": "address"
        }
      ],
      "name": "OwnershipTransferred",
      "type": "event"
    },
    {
      "anonymous": false,
      "inputs": [
        {
          "indexed": false,
          "internalType": "address",
          "name": "superOperator",
          "type": "address"
        },
        {
          "indexed": false,
          "internalType": "bool",
          "name": "enabled",
          "type": "bool"
        }
      ],
      "name": "SuperOperator",
      "type": "event"
    },
    {
      "anonymous": false,
      "inputs": [
        {
          "indexed": true,
          "internalType": "address",
          "name": "newTrustedForwarderAddress",
          "type": "address"
        }
      ],
      "name": "TrustedForwarderChanged",
      "type": "event"
    },
    {
      "inputs": [
        {
          "internalType": "contract Gem[]",
          "name": "gems",
          "type": "address[]"
        },
        {
          "internalType": "contract Catalyst[]",
          "name": "catalysts",
          "type": "address[]"
        }
      ],
      "name": "addGemsAndCatalysts",
      "outputs": [],
      "stateMutability": "nonpayable",
      "type": "function"
    },
    {
      "inputs": [
        {
          "internalType": "address",
          "name": "from",
          "type": "address"
        },
        {
          "internalType": "uint16[]",
          "name": "catalystIds",
          "type": "uint16[]"
        },
        {
          "internalType": "uint256[]",
          "name": "amounts",
          "type": "uint256[]"
        }
      ],
      "name": "batchBurnCatalysts",
      "outputs": [],
      "stateMutability": "nonpayable",
      "type": "function"
    },
    {
      "inputs": [
        {
          "internalType": "address",
          "name": "from",
          "type": "address"
        },
        {
          "internalType": "uint16[]",
          "name": "gemIds",
          "type": "uint16[]"
        },
        {
          "internalType": "uint256[]",
          "name": "amounts",
          "type": "uint256[]"
        }
      ],
      "name": "batchBurnGems",
      "outputs": [],
      "stateMutability": "nonpayable",
      "type": "function"
    },
    {
      "inputs": [
        {
          "internalType": "address",
          "name": "from",
          "type": "address"
        },
        {
          "internalType": "uint16",
          "name": "catalystId",
          "type": "uint16"
        },
        {
          "internalType": "uint256",
          "name": "amount",
          "type": "uint256"
        }
      ],
      "name": "burnCatalyst",
      "outputs": [],
      "stateMutability": "nonpayable",
      "type": "function"
    },
    {
      "inputs": [
        {
          "internalType": "address",
          "name": "from",
          "type": "address"
        },
        {
          "internalType": "uint16[]",
          "name": "catalystIds",
          "type": "uint16[]"
        },
        {
          "internalType": "uint256",
          "name": "amount",
          "type": "uint256"
        }
      ],
      "name": "burnDifferentCatalysts",
      "outputs": [],
      "stateMutability": "nonpayable",
      "type": "function"
    },
    {
      "inputs": [
        {
          "internalType": "address",
          "name": "from",
          "type": "address"
        },
        {
          "internalType": "uint16[]",
          "name": "gemIds",
          "type": "uint16[]"
        },
        {
          "internalType": "uint256",
          "name": "amount",
          "type": "uint256"
        }
      ],
      "name": "burnDifferentGems",
      "outputs": [],
      "stateMutability": "nonpayable",
      "type": "function"
    },
    {
      "inputs": [
        {
          "internalType": "address",
          "name": "from",
          "type": "address"
        },
        {
          "internalType": "uint16",
          "name": "gemId",
          "type": "uint16"
        },
        {
          "internalType": "uint256",
          "name": "amount",
          "type": "uint256"
        }
      ],
      "name": "burnGem",
      "outputs": [],
      "stateMutability": "nonpayable",
      "type": "function"
    },
    {
      "inputs": [
        {
          "internalType": "address",
          "name": "newAdmin",
          "type": "address"
        }
      ],
      "name": "changeAdmin",
      "outputs": [],
      "stateMutability": "nonpayable",
      "type": "function"
    },
    {
      "inputs": [
        {
          "internalType": "uint16",
          "name": "catalystId",
          "type": "uint16"
        }
      ],
      "name": "doesCatalystExist",
      "outputs": [
        {
          "internalType": "bool",
          "name": "",
          "type": "bool"
        }
      ],
      "stateMutability": "view",
      "type": "function"
    },
    {
      "inputs": [
        {
          "internalType": "uint16",
          "name": "gemId",
          "type": "uint16"
        }
      ],
      "name": "doesGemExist",
      "outputs": [
        {
          "internalType": "bool",
          "name": "",
          "type": "bool"
        }
      ],
      "stateMutability": "view",
      "type": "function"
    },
    {
      "inputs": [],
      "name": "getAdmin",
      "outputs": [
        {
          "internalType": "address",
          "name": "",
          "type": "address"
        }
      ],
      "stateMutability": "view",
      "type": "function"
    },
    {
      "inputs": [
        {
          "internalType": "uint16",
          "name": "catalystId",
          "type": "uint16"
        },
        {
          "internalType": "uint256",
          "name": "assetId",
          "type": "uint256"
        },
        {
          "components": [
            {
              "internalType": "uint16[]",
              "name": "gemIds",
              "type": "uint16[]"
            },
            {
              "internalType": "bytes32",
              "name": "blockHash",
              "type": "bytes32"
            }
          ],
          "internalType": "struct IAssetAttributesRegistry.GemEvent[]",
          "name": "events",
          "type": "tuple[]"
        }
      ],
      "name": "getAttributes",
      "outputs": [
        {
          "internalType": "uint32[]",
          "name": "values",
          "type": "uint32[]"
        }
      ],
      "stateMutability": "view",
      "type": "function"
    },
    {
      "inputs": [
        {
          "internalType": "uint16",
          "name": "catalystId",
          "type": "uint16"
        }
      ],
      "name": "getMaxGems",
      "outputs": [
        {
          "internalType": "uint8",
          "name": "",
          "type": "uint8"
        }
      ],
      "stateMutability": "view",
      "type": "function"
    },
    {
      "inputs": [],
      "name": "getNumberOfCatalystContracts",
      "outputs": [
        {
          "internalType": "uint256",
          "name": "number",
          "type": "uint256"
        }
      ],
      "stateMutability": "view",
      "type": "function"
    },
    {
      "inputs": [],
      "name": "getNumberOfGemContracts",
      "outputs": [
        {
          "internalType": "uint256",
          "name": "number",
          "type": "uint256"
        }
      ],
      "stateMutability": "view",
      "type": "function"
    },
    {
      "inputs": [],
      "name": "getTrustedForwarder",
      "outputs": [
        {
          "internalType": "address",
          "name": "trustedForwarder",
          "type": "address"
        }
      ],
      "stateMutability": "view",
      "type": "function"
    },
    {
      "inputs": [
        {
          "internalType": "address",
          "name": "who",
          "type": "address"
        }
      ],
      "name": "isSuperOperator",
      "outputs": [
        {
          "internalType": "bool",
          "name": "",
          "type": "bool"
        }
      ],
      "stateMutability": "view",
      "type": "function"
    },
    {
      "inputs": [
        {
          "internalType": "address",
          "name": "forwarder",
          "type": "address"
        }
      ],
      "name": "isTrustedForwarder",
      "outputs": [
        {
          "internalType": "bool",
          "name": "",
          "type": "bool"
        }
      ],
      "stateMutability": "view",
      "type": "function"
    },
    {
      "inputs": [],
      "name": "owner",
      "outputs": [
        {
          "internalType": "address",
          "name": "",
          "type": "address"
        }
      ],
      "stateMutability": "view",
      "type": "function"
    },
    {
      "inputs": [],
      "name": "renounceOwnership",
      "outputs": [],
      "stateMutability": "nonpayable",
      "type": "function"
    },
    {
      "inputs": [],
      "name": "revokeGemsandCatalystsMaxAllowance",
      "outputs": [],
      "stateMutability": "nonpayable",
      "type": "function"
    },
    {
      "inputs": [],
      "name": "setGemsandCatalystsMaxAllowance",
      "outputs": [],
      "stateMutability": "nonpayable",
      "type": "function"
    },
    {
      "inputs": [
        {
          "internalType": "address",
          "name": "superOperator",
          "type": "address"
        },
        {
          "internalType": "bool",
          "name": "enabled",
          "type": "bool"
        }
      ],
      "name": "setSuperOperator",
      "outputs": [],
      "stateMutability": "nonpayable",
      "type": "function"
    },
    {
      "inputs": [
        {
          "internalType": "address",
          "name": "trustedForwarder",
          "type": "address"
        }
      ],
      "name": "setTrustedForwarder",
      "outputs": [],
      "stateMutability": "nonpayable",
      "type": "function"
    },
    {
      "inputs": [
        {
          "internalType": "address",
          "name": "newOwner",
          "type": "address"
        }
      ],
      "name": "transferOwnership",
      "outputs": [],
      "stateMutability": "nonpayable",
      "type": "function"
    }
  ],
  "transactionHash": "0xc0a19cc66e6d3aa27af197eadb13f01c1ab919f2f0e86b1434c6f0a6d2dda222",
  "args": [
    "0xA796AE911621E00809E0E7C8f0AD6BF118E5139e",
    "0x96E8789B195713B279c163847A7a0A107CDf6FCf"
  ],
  "solcInputHash": "0505d301d083cfaa512ecb9b03150aa2",
  "bytecode": "0x60806040523480156200001157600080fd5b5060405162001e4638038062001e4683398101604081905262000034916200014f565b600062000040620000d8565b600380546001600160a01b0319166001600160a01b038316908117909155604051919250906000907f8be0079c531659141344cd1fd0a4f28419497f9722a3daafe3b4186f6b6457e0908290a350600080546001600160a01b0319166001600160a01b038416179055620000d081600280546001600160a01b0319166001600160a01b0392909216919091179055565b505062000186565b6000620000ef620000f560201b620012f21760201c565b90505b90565b6000620001023362000120565b1562000118575060131936013560601c620000f2565b5033620000f2565b6002546001600160a01b038281169116145b919050565b80516001600160a01b03811681146200013257600080fd5b6000806040838503121562000162578182fd5b6200016d8362000137565b91506200017d6020840162000137565b90509250929050565b611cb080620001966000396000f3fe608060405234801561001057600080fd5b50600436106101a35760003560e01c8063715018a6116100ee578063a9aff9c111610097578063c056975811610071578063c056975814610373578063ce1b815f14610386578063da74222814610397578063f2fde38b146103aa576101a3565b8063a9aff9c114610345578063ac9fe42114610358578063aeb845d11461036b576101a3565b80638c4d91ed116100c85780638c4d91ed146103195780638da5cb5b146103215780638f28397014610332576101a3565b8063715018a6146102cc57806378bc8a19146102d45780637e8ee42f146102f9576101a3565b8063572b6c0511610150578063654b748a1161012a578063654b748a1461026d5780636d916839146102995780636e9960c3146102ac576101a3565b8063572b6c0514610226578063590d0dce14610248578063645c5f9e1461025b576101a3565b8063362e7e8c11610181578063362e7e8c146101ed57806352eea03014610200578063550d629c14610213576101a3565b8063080b6b9f146101a8578063141376f9146101b25780632a6a6451146101da575b600080fd5b6101b06103bd565b005b6101c56101c0366004611984565b6103ca565b60405190151581526020015b60405180910390f35b6101b06101e83660046117f9565b6103e9565b6101b06101fb3660046116e7565b6104db565b6101b061020e3660046116e7565b6105d8565b6101b0610221366004611839565b6106cd565b6101c56102343660046116cb565b6002546001600160a01b0390811691161490565b6101b06102563660046117f9565b610af1565b6005545b6040519081526020016101d1565b6101c561027b3660046116cb565b6001600160a01b031660009081526001602052604090205460ff1690565b6101b06102a7366004611767565b610b5d565b6102b4610bb9565b6040516001600160a01b0390911681526020016101d1565b6101b0610bc9565b6102e76102e2366004611984565b610c99565b60405160ff90911681526020016101d1565b61030c6103073660046119bc565b610d75565b6040516101d19190611a2b565b60045461025f565b6003546001600160a01b03166102b4565b6101b06103403660046116cb565b610e81565b6101b0610353366004611767565b610f51565b6101b06103663660046117c1565b610fad565b6101b06110ae565b6101c5610381366004611984565b6110b8565b6002546001600160a01b03166102b4565b6101b06103a53660046116cb565b6110c4565b6101b06103b83660046116cb565b611194565b6103c860001961133c565b565b6000806103d683611543565b6001600160a01b0316141590505b919050565b6103f2836115b6565b60006103fd83611632565b90506001600160a01b03811661045a5760405162461bcd60e51b815260206004820152601760248201527f434154414c5953545f444f45535f4e4f545f455849535400000000000000000060448201526064015b60405180910390fd5b6040517f1dd319cb0000000000000000000000000000000000000000000000000000000081526001600160a01b03858116600483015260248201849052821690631dd319cb90604401600060405180830381600087803b1580156104bd57600080fd5b505af11580156104d1573d6000803e3d6000fd5b5050505050505050565b60005b838110156105d05784848281811061050657634e487b7160e01b600052603260045260246000fd5b905060200201602081019061051b9190611984565b61ffff1615801590610554575082828281811061054857634e487b7160e01b600052603260045260246000fd5b90506020020135600014155b156105be576105be8686868481811061057d57634e487b7160e01b600052603260045260246000fd5b90506020020160208101906105929190611984565b8585858181106105b257634e487b7160e01b600052603260045260246000fd5b90506020020135610af1565b806105c881611c00565b9150506104de565b505050505050565b60005b838110156105d05784848281811061060357634e487b7160e01b600052603260045260246000fd5b90506020020160208101906106189190611984565b61ffff1615801590610651575082828281811061064557634e487b7160e01b600052603260045260246000fd5b90506020020135600014155b156106bb576106bb8686868481811061067a57634e487b7160e01b600052603260045260246000fd5b905060200201602081019061068f9190611984565b8585858181106106af57634e487b7160e01b600052603260045260246000fd5b905060200201356103e9565b806106c581611c00565b9150506105db565b6000546001600160a01b03166106e161165f565b6001600160a01b0316146107375760405162461bcd60e51b815260206004820152600e60248201527f4e4f545f415554484f52495a45440000000000000000000000000000000000006044820152606401610451565b600554600454610100918391869161074e91611bc5565b6107589190611bc5565b6107629190611bc5565b106107d55760405162461bcd60e51b815260206004820152603a60248201527f47656d73436174616c7973747352656769737472793a20546f6f206d616e792060448201527f67656d20616e6420636174616c79737420636f6e7472616374730000000000006064820152608401610451565b60005b8381101561095f57600085858381811061080257634e487b7160e01b600052603260045260246000fd5b905060200201602081019061081791906116cb565b90506000816001600160a01b031663caafdcff6040518163ffffffff1660e01b815260040160206040518083038186803b15801561085457600080fd5b505afa158015610868573d6000803e3d6000fd5b505050506040513d601f19601f8201168201806040525081019061088c91906119a0565b60045490915061089d906001611bc5565b8161ffff16146108ef5760405162461bcd60e51b815260206004820152601360248201527f47454d5f49445f4e4f545f494e5f4f52444552000000000000000000000000006044820152606401610451565b50600480546001810182556000919091527f8a35acfbc15ff81a39ae7d344fd709f28e8600b4aa8c65c6b64bfe7fe36bd19b01805473ffffffffffffffffffffffffffffffffffffffff19166001600160a01b03929092169190911790558061095781611c00565b9150506107d8565b5060005b81811015610aea57600083838381811061098d57634e487b7160e01b600052603260045260246000fd5b90506020020160208101906109a291906116cb565b90506000816001600160a01b031663c7165bbb6040518163ffffffff1660e01b815260040160206040518083038186803b1580156109df57600080fd5b505afa1580156109f3573d6000803e3d6000fd5b505050506040513d601f19601f82011682018060405250810190610a1791906119a0565b600554909150610a28906001611bc5565b8161ffff1614610a7a5760405162461bcd60e51b815260206004820152601860248201527f434154414c5953545f49445f4e4f545f494e5f4f5244455200000000000000006044820152606401610451565b50600580546001810182556000919091527f036b6384b5eca791c62761152d0c79bb0604c104a5fb6f4eb0703f3154bb3db001805473ffffffffffffffffffffffffffffffffffffffff19166001600160a01b039290921691909117905580610ae281611c00565b915050610963565b5050505050565b610afa836115b6565b6000610b0583611543565b90506001600160a01b03811661045a5760405162461bcd60e51b815260206004820152601260248201527f47454d5f444f45535f4e4f545f455849535400000000000000000000000000006044820152606401610451565b60005b82811015610aea57610ba785858584818110610b8c57634e487b7160e01b600052603260045260246000fd5b9050602002016020810190610ba19190611984565b84610af1565b80610bb181611c00565b915050610b60565b6000546001600160a01b03165b90565b610bd161165f565b6001600160a01b0316610bec6003546001600160a01b031690565b6001600160a01b031614610c425760405162461bcd60e51b815260206004820181905260248201527f4f776e61626c653a2063616c6c6572206973206e6f7420746865206f776e65726044820152606401610451565b6003546040516000916001600160a01b0316907f8be0079c531659141344cd1fd0a4f28419497f9722a3daafe3b4186f6b6457e0908390a36003805473ffffffffffffffffffffffffffffffffffffffff19169055565b600080610ca583611632565b90506001600160a01b038116610cfd5760405162461bcd60e51b815260206004820152601760248201527f434154414c5953545f444f45535f4e4f545f45584953540000000000000000006044820152606401610451565b806001600160a01b03166309cba36b6040518163ffffffff1660e01b815260040160206040518083038186803b158015610d3657600080fd5b505afa158015610d4a573d6000803e3d6000fd5b505050506040513d601f19601f82011682018060405250810190610d6e9190611a0a565b9392505050565b60606000610d8286611632565b90506001600160a01b038116610dda5760405162461bcd60e51b815260206004820152601760248201527f434154414c5953545f444f45535f4e4f545f45584953540000000000000000006044820152606401610451565b6040517f74903c860000000000000000000000000000000000000000000000000000000081526001600160a01b038216906374903c8690610e2390889088908890600401611a75565b60006040518083038186803b158015610e3b57600080fd5b505afa158015610e4f573d6000803e3d6000fd5b505050506040513d6000823e601f3d908101601f19168201604052610e7791908101906118a2565b9695505050505050565b6000546001600160a01b03163314610edb5760405162461bcd60e51b815260206004820152601360248201527f41444d494e5f4143434553535f44454e494544000000000000000000000000006044820152606401610451565b600054604080516001600160a01b03928316815291831660208301527f7e644d79422f17c01e4894b5f4f588d331ebfa28653d42ae832dc59e38c9798f910160405180910390a16000805473ffffffffffffffffffffffffffffffffffffffff19166001600160a01b0392909216919091179055565b60005b82811015610aea57610f9b85858584818110610f8057634e487b7160e01b600052603260045260246000fd5b9050602002016020810190610f959190611984565b846103e9565b80610fa581611c00565b915050610f54565b6000546001600160a01b0316331461102d5760405162461bcd60e51b815260206004820152602c60248201527f6f6e6c792061646d696e20697320616c6c6f77656420746f206164642073757060448201527f6572206f70657261746f727300000000000000000000000000000000000000006064820152608401610451565b6001600160a01b03821660008181526001602090815260409182902080547fffffffffffffffffffffffffffffffffffffffffffffffffffffffffffffff00168515159081179091558251938452908301527f44f92d27abdf4cfb6a7d712c3af68f3be086d4ca747ab802c36f67d6790060d8910160405180910390a15050565b6103c8600061133c565b6000806103d683611632565b6110cc61165f565b6001600160a01b03166110e76003546001600160a01b031690565b6001600160a01b03161461113d5760405162461bcd60e51b815260206004820181905260248201527f4f776e61626c653a2063616c6c6572206973206e6f7420746865206f776e65726044820152606401610451565b6002805473ffffffffffffffffffffffffffffffffffffffff19166001600160a01b0383169081179091556040517f871264f4293af7d2865ae7eae628b228f4991c57cb45b39c99f0b774ebe2901890600090a250565b61119c61165f565b6001600160a01b03166111b76003546001600160a01b031690565b6001600160a01b03161461120d5760405162461bcd60e51b815260206004820181905260248201527f4f776e61626c653a2063616c6c6572206973206e6f7420746865206f776e65726044820152606401610451565b6001600160a01b0381166112895760405162461bcd60e51b815260206004820152602660248201527f4f776e61626c653a206e6577206f776e657220697320746865207a65726f206160448201527f64647265737300000000000000000000000000000000000000000000000000006064820152608401610451565b6003546040516001600160a01b038084169216907f8be0079c531659141344cd1fd0a4f28419497f9722a3daafe3b4186f6b6457e090600090a36003805473ffffffffffffffffffffffffffffffffffffffff19166001600160a01b0392909216919091179055565b6002546000906001600160a01b031633141561133557507fffffffffffffffffffffffffffffffffffffffffffffffffffffffffffffffec36013560601c610bc6565b5033610bc6565b60005b60045481101561143d576004818154811061136a57634e487b7160e01b600052603260045260246000fd5b6000918252602090912001546001600160a01b0316632b99174661138c61165f565b6040517fffffffff0000000000000000000000000000000000000000000000000000000060e084901b1681526001600160a01b03909116600482015230602482015260448101859052606401602060405180830381600087803b1580156113f257600080fd5b505af1158015611406573d6000803e3d6000fd5b505050506040513d601f19601f8201168201806040525081019061142a9190611968565b508061143581611c00565b91505061133f565b5060005b60055481101561153f576005818154811061146c57634e487b7160e01b600052603260045260246000fd5b6000918252602090912001546001600160a01b0316632b99174661148e61165f565b6040517fffffffff0000000000000000000000000000000000000000000000000000000060e084901b1681526001600160a01b03909116600482015230602482015260448101859052606401602060405180830381600087803b1580156114f457600080fd5b505af1158015611508573d6000803e3d6000fd5b505050506040513d601f19601f8201168201806040525081019061152c9190611968565b508061153781611c00565b915050611441565b5050565b6000808261ffff1611801561155e575060045461ffff831611155b156115ae576004611570600184611bdd565b61ffff168154811061159257634e487b7160e01b600052603260045260246000fd5b6000918252602090912001546001600160a01b031690506103e4565b5060006103e4565b806001600160a01b03166115c861165f565b6001600160a01b031614806115e357506115e361027b61165f565b61162f5760405162461bcd60e51b815260206004820152601260248201527f415554485f4143434553535f44454e49454400000000000000000000000000006044820152606401610451565b50565b6000808261ffff1611801561164d575060055461ffff831611155b156115ae576005611570600184611bdd565b60006116696112f2565b905090565b60008083601f84011261167f578081fd5b50813567ffffffffffffffff811115611696578182fd5b60208301915083602080830285010111156116b057600080fd5b9250929050565b805163ffffffff811681146103e457600080fd5b6000602082840312156116dc578081fd5b8135610d6e81611c47565b6000806000806000606086880312156116fe578081fd5b853561170981611c47565b9450602086013567ffffffffffffffff80821115611725578283fd5b61173189838a0161166e565b90965094506040880135915080821115611749578283fd5b506117568882890161166e565b969995985093965092949392505050565b6000806000806060858703121561177c578384fd5b843561178781611c47565b9350602085013567ffffffffffffffff8111156117a2578384fd5b6117ae8782880161166e565b9598909750949560400135949350505050565b600080604083850312156117d3578182fd5b82356117de81611c47565b915060208301356117ee81611c5c565b809150509250929050565b60008060006060848603121561180d578283fd5b833561181881611c47565b9250602084013561182881611c6a565b929592945050506040919091013590565b6000806000806040858703121561184e578384fd5b843567ffffffffffffffff80821115611865578586fd5b6118718883890161166e565b90965094506020870135915080821115611889578384fd5b506118968782880161166e565b95989497509550505050565b600060208083850312156118b4578182fd5b825167ffffffffffffffff808211156118cb578384fd5b818501915085601f8301126118de578384fd5b8151818111156118f0576118f0611c31565b838102604051601f19603f8301168101818110858211171561191457611914611c31565b604052828152858101935084860182860187018a1015611932578788fd5b8795505b8386101561195b57611947816116b7565b855260019590950194938601938601611936565b5098975050505050505050565b600060208284031215611979578081fd5b8151610d6e81611c5c565b600060208284031215611995578081fd5b8135610d6e81611c6a565b6000602082840312156119b1578081fd5b8151610d6e81611c6a565b600080600080606085870312156119d1578182fd5b84356119dc81611c6a565b935060208501359250604085013567ffffffffffffffff8111156119fe578283fd5b6118968782880161166e565b600060208284031215611a1b578081fd5b815160ff81168114610d6e578182fd5b6020808252825182820181905260009190848201906040850190845b81811015611a6957835163ffffffff1683529284019291840191600101611a47565b50909695505050505050565b83815260406020808301829052828201849052600091906060908185018682028601830188865b89811015611bb5577fffffffffffffffffffffffffffffffffffffffffffffffffffffffffffffffa089840301845281357fffffffffffffffffffffffffffffffffffffffffffffffffffffffffffffffc18c3603018112611afc578889fd5b8b018388018135368390037fffffffffffffffffffffffffffffffffffffffffffffffffffffffffffffffe1018112611b33578a8bfd5b8201803567ffffffffffffffff811115611b4b578b8cfd5b8881023603841315611b5b578b8cfd5b8a8752918290528701908a908987015b81831015611b96578335611b7e81611c6a565b61ffff16815292890192600192909201918901611b6b565b9389013596890196909652505093850193925090840190600101611a9c565b50909a9950505050505050505050565b60008219821115611bd857611bd8611c1b565b500190565b600061ffff83811690831681811015611bf857611bf8611c1b565b039392505050565b6000600019821415611c1457611c14611c1b565b5060010190565b634e487b7160e01b600052601160045260246000fd5b634e487b7160e01b600052604160045260246000fd5b6001600160a01b038116811461162f57600080fd5b801515811461162f57600080fd5b61ffff8116811461162f57600080fdfea26469706673582212209a60c60868e9e4aa49f9f58e394ff72566f45b7760dd1c20767f388b4ad7c29464736f6c63430008020033",
  "devdoc": {
    "kind": "dev",
    "methods": {
      "addGemsAndCatalysts(address[],address[])": {
        "params": {
          "catalysts": "array of catalysts to be added",
          "gems": "array of gems to be added"
        }
      },
      "batchBurnCatalysts(address,uint16[],uint256[])": {
        "params": {
          "amounts": "list of amounts of units to burn",
          "catalystIds": "list of catalysts to burn catalyst units from each",
          "from": "address of the beneficiary to burn on behalf of"
        }
      },
      "batchBurnGems(address,uint16[],uint256[])": {
        "params": {
          "amounts": "list of amounts of units to burn",
          "from": "address of the beneficiary to burn on behalf of",
          "gemIds": "list of gems to burn gem units from each"
        }
      },
      "burnCatalyst(address,uint16,uint256)": {
        "params": {
          "amount": "The number of catalyst tokens to burn.",
          "catalystId": "The id of the catalyst to burn.",
          "from": "The signing address for the tx."
        }
      },
      "burnDifferentCatalysts(address,uint16[],uint256)": {
        "params": {
          "amount": "amount to burn",
          "catalystIds": "list of catalysts to burn one catalyst from each",
          "from": "address of the beneficiary to burn on behalf of"
        }
      },
      "burnDifferentGems(address,uint16[],uint256)": {
        "params": {
          "amount": "amount units to burn",
          "from": "address of the beneficiary to burn on behalf of",
          "gemIds": "list of gems to burn one gem from each"
        }
      },
      "burnGem(address,uint16,uint256)": {
        "params": {
          "amount": "The number of gem tokens to burn.",
          "from": "The signing address for the tx.",
          "gemId": "The id of the gem to burn."
        }
      },
      "changeAdmin(address)": {
        "details": "Change the administrator to be `newAdmin`.",
        "params": {
          "newAdmin": "The address of the new administrator."
        }
      },
      "doesCatalystExist(uint16)": {
        "params": {
          "catalystId": "The catalyst being queried."
        },
        "returns": {
          "_0": "Whether the catalyst exists."
        }
      },
      "doesGemExist(uint16)": {
        "params": {
          "gemId": "The gem being queried."
        },
        "returns": {
          "_0": "Whether the gem exists."
        }
      },
      "getAdmin()": {
        "details": "Get the current administrator of this contract.",
        "returns": {
          "_0": "The current administrator of this contract."
        }
      },
      "getAttributes(uint16,uint256,(uint16[],bytes32)[])": {
        "params": {
          "assetId": "The asset tokenId.",
          "catalystId": "The catalyst identifier.",
          "events": "An array of GemEvents. Be aware that only gemEvents from the last CatalystApplied event onwards should be used to populate a query. If gemEvents from multiple CatalystApplied events are included the output values will be incorrect."
        },
        "returns": {
          "values": "An array of values for each gem present in the asset."
        }
      },
      "getMaxGems(uint16)": {
        "params": {
          "catalystId": "catalyst identifier"
        }
      },
      "isSuperOperator(address)": {
        "params": {
          "who": "The address to query."
        },
        "returns": {
          "_0": "whether the address has superOperator rights."
        }
      },
      "owner()": {
        "details": "Returns the address of the current owner."
      },
      "renounceOwnership()": {
        "details": "Leaves the contract without owner. It will not be possible to call `onlyOwner` functions anymore. Can only be called by the current owner. NOTE: Renouncing ownership will leave the contract without an owner, thereby removing any functionality that is only available to the owner."
      },
      "setSuperOperator(address,bool)": {
        "params": {
          "enabled": "set whether the superOperator is enabled or disabled.",
          "superOperator": "address that will be given/removed superOperator right."
        }
      },
      "setTrustedForwarder(address)": {
        "details": "Change the address of the trusted forwarder for meta-TX",
        "params": {
          "trustedForwarder": "The new trustedForwarder"
        }
      },
      "transferOwnership(address)": {
        "details": "Transfers ownership of the contract to a new account (`newOwner`). Can only be called by the current owner."
      }
    },
    "version": 1
  },
  "userdoc": {
    "kind": "user",
    "methods": {
      "addGemsAndCatalysts(address[],address[])": {
        "notice": "Adds both arrays of gems and catalysts to registry"
      },
      "batchBurnCatalysts(address,uint16[],uint256[])": {
        "notice": "Burns few catalyst units from each catalyst id on behalf of a beneficiary"
      },
      "batchBurnGems(address,uint16[],uint256[])": {
        "notice": "Burns few gem units from each gem id on behalf of a beneficiary"
      },
      "burnCatalyst(address,uint16,uint256)": {
        "notice": "Burn a catalyst."
      },
      "burnDifferentCatalysts(address,uint16[],uint256)": {
        "notice": "Burns one catalyst unit from each catalyst id on behalf of a beneficiary"
      },
      "burnDifferentGems(address,uint16[],uint256)": {
        "notice": "Burns one gem unit from each gem id on behalf of a beneficiary"
      },
      "burnGem(address,uint16,uint256)": {
        "notice": "Burn a gem."
      },
      "doesCatalystExist(uint16)": {
        "notice": "Query whether a giving catalyst exists."
      },
      "doesGemExist(uint16)": {
        "notice": "Query whether a given gem exists."
      },
      "getAttributes(uint16,uint256,(uint16[],bytes32)[])": {
        "notice": "Returns the values for each gem included in a given asset."
      },
      "getMaxGems(uint16)": {
        "notice": "Returns the maximum number of gems for a given catalyst"
      },
      "isSuperOperator(address)": {
        "notice": "check whether address `who` is given superOperator rights."
      },
      "setSuperOperator(address,bool)": {
        "notice": "Enable or disable the ability of `superOperator` to transfer tokens of all (superOperator rights)."
      }
    },
    "notice": "Contract managing the Gems and Catalysts Each Gems and Catalyst must be registered here. Each new Gem get assigned a new id (starting at 1) Each new Catalyst get assigned a new id (starting at 1)",
    "version": 1
  },
  "storageLayout": {
    "storage": [
      {
        "astId": 23256,
        "contract": "src/solc_0.8/catalyst/GemsCatalystsRegistry.sol:GemsCatalystsRegistry",
        "label": "_admin",
        "offset": 0,
        "slot": "0",
        "type": "t_address"
      },
      {
        "astId": 23488,
        "contract": "src/solc_0.8/catalyst/GemsCatalystsRegistry.sol:GemsCatalystsRegistry",
        "label": "_superOperators",
        "offset": 0,
        "slot": "1",
        "type": "t_mapping(t_address,t_bool)"
      },
      {
        "astId": 21371,
        "contract": "src/solc_0.8/catalyst/GemsCatalystsRegistry.sol:GemsCatalystsRegistry",
        "label": "_trustedForwarder",
        "offset": 0,
        "slot": "2",
        "type": "t_address"
      },
      {
        "astId": 7,
        "contract": "src/solc_0.8/catalyst/GemsCatalystsRegistry.sol:GemsCatalystsRegistry",
        "label": "_owner",
        "offset": 0,
        "slot": "3",
        "type": "t_address"
      },
      {
        "astId": 18024,
        "contract": "src/solc_0.8/catalyst/GemsCatalystsRegistry.sol:GemsCatalystsRegistry",
        "label": "_gems",
        "offset": 0,
        "slot": "4",
        "type": "t_array(t_contract(Gem)17992)dyn_storage"
      },
      {
        "astId": 18028,
        "contract": "src/solc_0.8/catalyst/GemsCatalystsRegistry.sol:GemsCatalystsRegistry",
        "label": "_catalysts",
        "offset": 0,
        "slot": "5",
        "type": "t_array(t_contract(Catalyst)17467)dyn_storage"
      }
    ],
    "types": {
      "t_address": {
        "encoding": "inplace",
        "label": "address",
        "numberOfBytes": "20"
      },
      "t_array(t_contract(Catalyst)17467)dyn_storage": {
        "base": "t_contract(Catalyst)17467",
        "encoding": "dynamic_array",
        "label": "contract Catalyst[]",
        "numberOfBytes": "32"
      },
      "t_array(t_contract(Gem)17992)dyn_storage": {
        "base": "t_contract(Gem)17992",
        "encoding": "dynamic_array",
        "label": "contract Gem[]",
        "numberOfBytes": "32"
      },
      "t_bool": {
        "encoding": "inplace",
        "label": "bool",
        "numberOfBytes": "1"
      },
      "t_contract(Catalyst)17467": {
        "encoding": "inplace",
        "label": "contract Catalyst",
        "numberOfBytes": "20"
      },
      "t_contract(Gem)17992": {
        "encoding": "inplace",
        "label": "contract Gem",
        "numberOfBytes": "20"
      },
      "t_mapping(t_address,t_bool)": {
        "encoding": "mapping",
        "key": "t_address",
        "label": "mapping(address => bool)",
        "numberOfBytes": "32",
        "value": "t_bool"
      }
    }
  }
}