{
  "address": "0x6Ac8012599da70E402Ff979BD01bc813BE529be8",
  "abi": [
    {
      "inputs": [
        {
          "internalType": "address",
          "name": "landAddress",
          "type": "address"
        },
        {
          "internalType": "address",
          "name": "sandContractAddress",
          "type": "address"
        },
        {
          "internalType": "address",
          "name": "initialMetaTx",
          "type": "address"
        },
        {
          "internalType": "address",
          "name": "admin",
          "type": "address"
        },
        {
          "internalType": "address payable",
          "name": "initialWalletAddress",
          "type": "address"
        },
        {
          "internalType": "bytes32",
          "name": "merkleRoot",
          "type": "bytes32"
        },
        {
          "internalType": "uint256",
          "name": "expiryTime",
          "type": "uint256"
        },
        {
          "internalType": "address",
          "name": "initialSigningWallet",
          "type": "address"
        },
        {
          "internalType": "uint256",
          "name": "initialMaxCommissionRate",
          "type": "uint256"
        },
        {
          "internalType": "address",
          "name": "estate",
          "type": "address"
        },
        {
          "internalType": "address",
          "name": "asset",
          "type": "address"
        },
        {
          "internalType": "address",
          "name": "feeDistributor",
          "type": "address"
        },
        {
          "internalType": "address",
          "name": "authValidator",
          "type": "address"
        }
      ],
      "stateMutability": "nonpayable",
      "type": "constructor"
    },
    {
      "anonymous": false,
      "inputs": [
        {
          "indexed": false,
          "internalType": "address",
          "name": "oldAdmin",
          "type": "address"
        },
        {
          "indexed": false,
          "internalType": "address",
          "name": "newAdmin",
          "type": "address"
        }
      ],
      "name": "AdminChanged",
      "type": "event"
    },
    {
      "anonymous": false,
      "inputs": [
        {
          "indexed": true,
          "internalType": "address",
          "name": "buyer",
          "type": "address"
        },
        {
          "indexed": true,
          "internalType": "address",
          "name": "to",
          "type": "address"
        },
        {
          "indexed": true,
          "internalType": "uint256",
          "name": "topCornerId",
          "type": "uint256"
        },
        {
          "indexed": false,
          "internalType": "uint256",
          "name": "size",
          "type": "uint256"
        },
        {
          "indexed": false,
          "internalType": "uint256",
          "name": "price",
          "type": "uint256"
        },
        {
          "indexed": false,
          "internalType": "address",
          "name": "token",
          "type": "address"
        },
        {
          "indexed": false,
          "internalType": "uint256",
          "name": "amountPaid",
          "type": "uint256"
        }
      ],
      "name": "LandQuadPurchased",
      "type": "event"
    },
    {
      "anonymous": false,
      "inputs": [
        {
          "indexed": false,
          "internalType": "address",
          "name": "metaTransactionProcessor",
          "type": "address"
        },
        {
          "indexed": false,
          "internalType": "bool",
          "name": "enabled",
          "type": "bool"
        }
      ],
      "name": "MetaTransactionProcessor",
      "type": "event"
    },
    {
      "anonymous": false,
      "inputs": [
        {
          "indexed": true,
          "internalType": "address",
          "name": "referrer",
          "type": "address"
        },
        {
          "indexed": true,
          "internalType": "address",
          "name": "referee",
          "type": "address"
        },
        {
          "indexed": true,
          "internalType": "address",
          "name": "token",
          "type": "address"
        },
        {
          "indexed": false,
          "internalType": "uint256",
          "name": "amount",
          "type": "uint256"
        },
        {
          "indexed": false,
          "internalType": "uint256",
          "name": "commission",
          "type": "uint256"
        },
        {
          "indexed": false,
          "internalType": "uint256",
          "name": "commissionRate",
          "type": "uint256"
        }
      ],
      "name": "ReferralUsed",
      "type": "event"
    },
    {
      "inputs": [
        {
          "internalType": "address",
          "name": "buyer",
          "type": "address"
        },
        {
          "internalType": "address",
          "name": "to",
          "type": "address"
        },
        {
          "internalType": "address",
          "name": "reserved",
          "type": "address"
        },
        {
          "internalType": "uint256[]",
          "name": "info",
          "type": "uint256[]"
        },
        {
          "internalType": "bytes32",
          "name": "salt",
          "type": "bytes32"
        },
        {
          "internalType": "uint256[]",
          "name": "assetIds",
          "type": "uint256[]"
        },
        {
          "internalType": "bytes32[]",
          "name": "proof",
          "type": "bytes32[]"
        },
        {
          "internalType": "bytes",
          "name": "referral",
          "type": "bytes"
        },
        {
          "internalType": "bytes",
          "name": "signature",
          "type": "bytes"
        }
      ],
      "name": "buyLandWithSand",
      "outputs": [],
      "stateMutability": "nonpayable",
      "type": "function"
    },
    {
      "inputs": [
        {
          "internalType": "address",
          "name": "newAdmin",
          "type": "address"
        }
      ],
      "name": "changeAdmin",
      "outputs": [],
      "stateMutability": "nonpayable",
      "type": "function"
    },
    {
      "inputs": [
        {
          "internalType": "bytes",
          "name": "referral",
          "type": "bytes"
        }
      ],
      "name": "decodeReferral",
      "outputs": [
        {
          "internalType": "bytes",
          "name": "",
          "type": "bytes"
        },
        {
          "internalType": "address",
          "name": "",
          "type": "address"
        },
        {
          "internalType": "address",
          "name": "",
          "type": "address"
        },
        {
          "internalType": "uint256",
          "name": "",
          "type": "uint256"
        },
        {
          "internalType": "uint256",
          "name": "",
          "type": "uint256"
        }
      ],
      "stateMutability": "pure",
      "type": "function"
    },
    {
      "inputs": [],
      "name": "getAdmin",
      "outputs": [
        {
          "internalType": "address",
          "name": "",
          "type": "address"
        }
      ],
      "stateMutability": "view",
      "type": "function"
    },
    {
      "inputs": [],
      "name": "getExpiryTime",
      "outputs": [
        {
          "internalType": "uint256",
          "name": "",
          "type": "uint256"
        }
      ],
      "stateMutability": "view",
      "type": "function"
    },
    {
      "inputs": [],
      "name": "getMaxCommisionRate",
      "outputs": [
        {
          "internalType": "uint256",
          "name": "",
          "type": "uint256"
        }
      ],
      "stateMutability": "view",
      "type": "function"
    },
    {
      "inputs": [],
      "name": "getMerkleRoot",
      "outputs": [
        {
          "internalType": "bytes32",
          "name": "",
          "type": "bytes32"
        }
      ],
      "stateMutability": "view",
      "type": "function"
    },
    {
      "inputs": [],
      "name": "getSigningWallet",
      "outputs": [
        {
          "internalType": "address",
          "name": "",
          "type": "address"
        }
      ],
      "stateMutability": "view",
      "type": "function"
    },
    {
      "inputs": [
        {
          "internalType": "address",
          "name": "who",
          "type": "address"
        }
      ],
      "name": "isMetaTransactionProcessor",
      "outputs": [
        {
          "internalType": "bool",
          "name": "",
          "type": "bool"
        }
      ],
      "stateMutability": "view",
      "type": "function"
    },
    {
      "inputs": [
        {
          "internalType": "bytes",
          "name": "signature",
          "type": "bytes"
        },
        {
          "internalType": "address",
          "name": "referrer",
          "type": "address"
        },
        {
          "internalType": "address",
          "name": "referee",
          "type": "address"
        },
        {
          "internalType": "uint256",
          "name": "expiryTime",
          "type": "uint256"
        },
        {
          "internalType": "uint256",
          "name": "commissionRate",
          "type": "uint256"
        }
      ],
      "name": "isReferralValid",
      "outputs": [
        {
          "internalType": "bool",
          "name": "",
          "type": "bool"
        }
      ],
      "stateMutability": "view",
      "type": "function"
    },
    {
      "inputs": [
        {
          "internalType": "address",
          "name": "",
          "type": "address"
        },
        {
          "internalType": "address",
          "name": "",
          "type": "address"
        },
        {
          "internalType": "uint256[]",
          "name": "",
          "type": "uint256[]"
        },
        {
          "internalType": "uint256[]",
          "name": "",
          "type": "uint256[]"
        },
        {
          "internalType": "bytes",
          "name": "",
          "type": "bytes"
        }
      ],
      "name": "onERC1155BatchReceived",
      "outputs": [
        {
          "internalType": "bytes4",
          "name": "",
          "type": "bytes4"
        }
      ],
      "stateMutability": "pure",
      "type": "function"
    },
    {
      "inputs": [
        {
          "internalType": "address",
          "name": "",
          "type": "address"
        },
        {
          "internalType": "address",
          "name": "",
          "type": "address"
        },
        {
          "internalType": "uint256",
          "name": "",
          "type": "uint256"
        },
        {
          "internalType": "uint256",
          "name": "",
          "type": "uint256"
        },
        {
          "internalType": "bytes",
          "name": "",
          "type": "bytes"
        }
      ],
      "name": "onERC1155Received",
      "outputs": [
        {
          "internalType": "bytes4",
          "name": "",
          "type": "bytes4"
        }
      ],
      "stateMutability": "pure",
      "type": "function"
    },
    {
      "inputs": [
        {
          "internalType": "address",
          "name": "metaTransactionProcessor",
          "type": "address"
        },
        {
          "internalType": "bool",
          "name": "enabled",
          "type": "bool"
        }
      ],
      "name": "setMetaTransactionProcessor",
      "outputs": [],
      "stateMutability": "nonpayable",
      "type": "function"
    },
    {
      "inputs": [
        {
          "internalType": "address payable",
          "name": "newWallet",
          "type": "address"
        }
      ],
      "name": "setReceivingWallet",
      "outputs": [],
      "stateMutability": "nonpayable",
      "type": "function"
    },
    {
      "inputs": [
        {
          "internalType": "uint256",
          "name": "newMaxCommissionRate",
          "type": "uint256"
        }
      ],
      "name": "updateMaxCommissionRate",
      "outputs": [],
      "stateMutability": "nonpayable",
      "type": "function"
    },
    {
      "inputs": [
        {
          "internalType": "address",
          "name": "newSigningWallet",
          "type": "address"
        }
      ],
      "name": "updateSigningWallet",
      "outputs": [],
      "stateMutability": "nonpayable",
      "type": "function"
    },
    {
      "inputs": [
        {
          "internalType": "address",
          "name": "to",
          "type": "address"
        },
        {
          "internalType": "uint256[]",
          "name": "assetIds",
          "type": "uint256[]"
        },
        {
          "internalType": "uint256[]",
          "name": "values",
          "type": "uint256[]"
        }
      ],
      "name": "withdrawAssets",
      "outputs": [],
      "stateMutability": "nonpayable",
      "type": "function"
    }
  ],
  "transactionHash": "0x988acba64a373da6197ec82a65f09f02de90510dc6cceee8164d7554ac0ba98e",
  "args": [
    "0xa4C4A09cA320AfBaE81659982dE88CC63466bB51",
    "0x32F3e11d8d9B9dc50e19D41c0ED868283824767B",
    "0x32F3e11d8d9B9dc50e19D41c0ED868283824767B",
    "0x39D01ecc951C2c1f20ba0549e62212659c4d1e06",
    "0xF22455c7F2a81E197AecD951F588a9B650f5b282",
    "0x54aa8c13dc38f3ba14620929217bbf30dc5db5b5be85eefdb8e0b1f6a8e6cd0e",
    1676638800,
    "0xB7060D3FeCAC3AE1F0A0AA416E3e8E472257950e",
    2000,
    "0x0000000000000000000000000000000000000000",
    "0xf050cDB34C8f39d24eD12678Dc5Ab32BE8672AfE",
    "0x0977f5050c8158b277F93216f851e83a467ED9c9",
    "0xD3999edf36481d8f6636BB41fbdC936eA4BF5658"
  ],
  "numDeployments": 1,
  "linkedData": [
    {
      "x": 75,
      "y": 0,
      "size": 1,
      "price": "1011000000000000000000",
      "reserved": "",
      "salt": "0x8f99b5be950a4861d5ccc50c3d81712c51ceef42741001af8494d836484f7b7e",
      "assetIds": []
    },
    {
      "x": 75,
      "y": 1,
      "size": 1,
      "price": "1011000000000000000000",
      "reserved": "",
      "salt": "0x6fcc80059a41735b9d036de90016eeea8e2f0ac7b600185a43756ce7b2127698",
      "assetIds": []
    },
    {
      "x": 76,
      "y": 0,
      "size": 1,
      "price": "1011000000000000000000",
      "reserved": "",
      "salt": "0x04f94756e2fa1a6c7588c3432819a1d01c8e7f5f0a75bfd27ed26623d402078f",
      "assetIds": []
    },
    {
      "x": 76,
      "y": 1,
      "size": 1,
      "price": "1011000000000000000000",
      "reserved": "",
      "salt": "0xf7ed7f5657eb9eb673137af4cb69ee2d8d416538dd001c18ed5f655282d905a8",
      "assetIds": []
    },
    {
      "x": 77,
      "y": 0,
      "size": 1,
      "price": "1011000000000000000000",
      "reserved": "",
      "salt": "0xd68fdab05750686d9d9cd1a53200ef5fe409fa413bb9daa59597cb4c515373f5",
      "assetIds": []
    },
    {
      "x": 77,
      "y": 1,
      "size": 1,
      "price": "1011000000000000000000",
      "reserved": "",
      "salt": "0x5e06027508045c4732bb557f3b434beb66f51a7a5d223356de7a0f3aefb61162",
      "assetIds": []
    },
    {
      "x": 78,
      "y": 6,
      "size": 1,
      "price": "1011000000000000000000",
      "reserved": "",
      "salt": "0xea5b2364b13eaf4557749f1e48661eb420795d491eb8403f0b131b771bcd0b0b",
      "assetIds": []
    },
    {
      "x": 78,
      "y": 7,
      "size": 1,
      "price": "1011000000000000000000",
      "reserved": "",
      "salt": "0x95d0e1e689ca96abd572c4f0e5ba8284fb7f93d058a2299380b7e91bb1542e7d",
      "assetIds": []
    },
    {
      "x": 78,
      "y": 8,
      "size": 1,
      "price": "1011000000000000000000",
      "reserved": "",
      "salt": "0x1d3f6331471bed1861bd3de6c7abf43603ea57bef6cd97322d9a98ba3a9a4253",
      "assetIds": []
    },
    {
      "x": 78,
      "y": 9,
      "size": 1,
      "price": "1011000000000000000000",
      "reserved": "",
      "salt": "0x9a881bdff84b007ecf97a13f02663898513cd8d4cd2b4c5d97dc51bf7ff8841d",
      "assetIds": []
    },
    {
      "x": 78,
      "y": 10,
      "size": 1,
      "price": "1011000000000000000000",
      "reserved": "",
      "salt": "0x53b40d1e4f7bf476d5d4480a71dd546ea9316ecccaf4b67e9d4cfa7de8074e5b",
      "assetIds": []
    },
    {
      "x": 78,
      "y": 11,
      "size": 1,
      "price": "4683000000000000000000",
      "reserved": "",
      "salt": "0x911b59a01b2100aff5afd52a8228e4b2a54f2a699886e8e29902f5574f153015",
      "assetIds": [
        "41506478881403507969696680653240014914910929820314476107906210059990541021185"
      ]
    },
    {
      "x": 79,
      "y": 6,
      "size": 1,
      "price": "1011000000000000000000",
      "reserved": "",
      "salt": "0x4bcbc34cd6685311f05d95fed83046b2dacb17916ae357576eee2d917a1ec575",
      "assetIds": []
    },
    {
      "x": 79,
      "y": 7,
      "size": 1,
      "price": "1011000000000000000000",
      "reserved": "",
      "salt": "0x3d834a070d5c1786782909a033f62493bc31fd07edf58d86a147765b9e803b2c",
      "assetIds": []
    },
    {
      "x": 79,
      "y": 8,
      "size": 1,
      "price": "1011000000000000000000",
      "reserved": "",
      "salt": "0x0dce4ff276444267024aefe297ef84eff4a0559e744340d0965d8fedfdc8e16a",
      "assetIds": []
    },
    {
      "x": 79,
      "y": 9,
      "size": 1,
      "price": "1011000000000000000000",
      "reserved": "",
      "salt": "0x5ce73bdc4ee3d6de7608b063c03deb2f5a6f7c2f249afc61e964c442571d8e57",
      "assetIds": []
    },
    {
      "x": 79,
      "y": 10,
      "size": 1,
      "price": "1011000000000000000000",
      "reserved": "",
      "salt": "0x533bf9c5d929f3df834f771fff2ce55fde197b819cfdd1ef55d571958b773a6c",
      "assetIds": []
    },
    {
      "x": 79,
      "y": 11,
      "size": 1,
      "price": "4683000000000000000000",
      "reserved": "",
      "salt": "0x9d4e8041f0604e43be2ec254e1891150dcc1eb8cc63336e120bbc384647c0f11",
      "assetIds": [
        "41506478881403507969696680653240014914910929820314476107906210059990541021185"
      ]
    },
    {
      "x": 79,
      "y": 18,
      "size": 1,
      "price": "4683000000000000000000",
      "reserved": "",
      "salt": "0x97ac3621435a987739323fe1486fb79dfcc5b515d275e0cc192d501dfd657d4a",
      "assetIds": [
        "41506478881403507969696680653240014914910929820314476107906210059990541021185"
      ]
    },
    {
      "x": 79,
      "y": 19,
      "size": 1,
      "price": "1011000000000000000000",
      "reserved": "",
      "salt": "0xbe37b7e911fb453318e021936223d9cf259312f10d7b2b90726f7758da840373",
      "assetIds": []
    },
    {
      "x": 79,
      "y": 20,
      "size": 1,
      "price": "1011000000000000000000",
      "reserved": "",
      "salt": "0xae06e9747091bff3bcccc32cc715d7422f342c6bb1da4a49265d6a5fdfb7af69",
      "assetIds": []
    },
    {
      "x": 80,
      "y": 6,
      "size": 1,
      "price": "1011000000000000000000",
      "reserved": "",
      "salt": "0xdca0b1e59f8b0323bc451b88e4ebfd33e911ddf289b67772c00ae05a764cf322",
      "assetIds": []
    },
    {
      "x": 80,
      "y": 7,
      "size": 1,
      "price": "1011000000000000000000",
      "reserved": "",
      "salt": "0x66fb31fce52ccddbd9a2df6a5ef89dd54d03b03100711c01dddcf40b6255e5bb",
      "assetIds": []
    },
    {
      "x": 80,
      "y": 8,
      "size": 1,
      "price": "1011000000000000000000",
      "reserved": "",
      "salt": "0x9785b1d881296389beb9ed7df3f59e013c858df25e289d61dc39192ab274327c",
      "assetIds": []
    },
    {
      "x": 80,
      "y": 9,
      "size": 1,
      "price": "1011000000000000000000",
      "reserved": "",
      "salt": "0x62d83552d9d192ed005ddfa9226ca47b2cd8b435a733e9cab0d907c33a9e749b",
      "assetIds": []
    },
    {
      "x": 80,
      "y": 10,
      "size": 1,
      "price": "1011000000000000000000",
      "reserved": "",
      "salt": "0x338465e4ff4cd6231a005074906703e73e65073ac1712ebe3c1c0f44fac517db",
      "assetIds": []
    },
    {
      "x": 80,
      "y": 11,
      "size": 1,
      "price": "4683000000000000000000",
      "reserved": "",
      "salt": "0xc9d3fb320515be6fbc34839f2b7f8ba0afa63a52984ba7e9991ce4a0397ab1fd",
      "assetIds": [
        "41506478881403507969696680653240014914910929820314476107906210059990541021186"
      ]
    },
    {
      "x": 80,
      "y": 18,
      "size": 1,
      "price": "4683000000000000000000",
      "reserved": "",
      "salt": "0x7628fead555f14b2c4060229776cfd471efa884dd01a8498c3532452b6b4e9e3",
      "assetIds": [
        "41506478881403507969696680653240014914910929820314476107906210059990541021185"
      ]
    },
    {
      "x": 80,
      "y": 19,
      "size": 1,
      "price": "1011000000000000000000",
      "reserved": "",
      "salt": "0x8fdb0d9547e6f509cfe826cb5a851d6d1516d7f2118a71c335852dc69cf9ca80",
      "assetIds": []
    },
    {
      "x": 80,
      "y": 20,
      "size": 1,
      "price": "1011000000000000000000",
      "reserved": "",
      "salt": "0x0f523c50cf3ece05700272416cc281c03a2622a6c08a981f829fa5f6840c97f0",
      "assetIds": []
    },
    {
      "x": 81,
      "y": 6,
      "size": 1,
      "price": "1011000000000000000000",
      "reserved": "",
      "salt": "0x88709c085f6eb2f95f45167079966b0f84da68a3250fa7b211e6ad541c45b656",
      "assetIds": []
    },
    {
      "x": 81,
      "y": 7,
      "size": 1,
      "price": "1011000000000000000000",
      "reserved": "",
      "salt": "0x6e0c18b9d835e168c535abde7fedf90d5ead3172f800ce3433aa04a8495be637",
      "assetIds": []
    },
    {
      "x": 81,
      "y": 8,
      "size": 1,
      "price": "1011000000000000000000",
      "reserved": "",
      "salt": "0x6c82464ae12380b63a57be3ecbf458c6a17ac72ccac595397a14c0994a8d3660",
      "assetIds": []
    },
    {
      "x": 81,
      "y": 9,
      "size": 1,
      "price": "1011000000000000000000",
      "reserved": "",
      "salt": "0xfa630f221854425bae6d962005b9e0914f1390e9ef1f93415dd90a8fce24a92e",
      "assetIds": []
    },
    {
      "x": 81,
      "y": 10,
      "size": 1,
      "price": "1011000000000000000000",
      "reserved": "",
      "salt": "0xfa94d1680e4d1390cbbd22609335cc95cf9779cc07895ea7d95904f054d6daa5",
      "assetIds": []
    },
    {
      "x": 81,
      "y": 11,
      "size": 1,
      "price": "4683000000000000000000",
      "reserved": "",
      "salt": "0xf2f09fdd261dde5c2baecb9c5f095417266bb91ee95d09038f3f47c88aa62cf2",
      "assetIds": [
        "41506478881403507969696680653240014914910929820314476107906210059990541021186"
      ]
    },
    {
      "x": 81,
      "y": 18,
      "size": 1,
      "price": "4683000000000000000000",
      "reserved": "",
      "salt": "0x660812ff0d72701b6726ecf17bad448ceb4f16a8786dca4b4a79abbc9f14d6fb",
      "assetIds": [
        "41506478881403507969696680653240014914910929820314476107906210059990541021186"
      ]
    },
    {
      "x": 81,
      "y": 19,
      "size": 1,
      "price": "1011000000000000000000",
      "reserved": "",
      "salt": "0x7373f5b0f727da1f8744e09d755d08d8f8f765a9c0690084caedfbcccaa73bbe",
      "assetIds": []
    },
    {
      "x": 81,
      "y": 20,
      "size": 1,
      "price": "1011000000000000000000",
      "reserved": "",
      "salt": "0xb3429e104ad2fdadb94f2cde50b74b3ec111ee9b9564c762a38b40703de76d53",
      "assetIds": []
    },
    {
      "x": 81,
      "y": 21,
      "size": 1,
      "price": "1011000000000000000000",
      "reserved": "",
      "salt": "0x3c89d35fd23168a445b40fcb507bd990dd7af14cce3c6b8a61ac8f4751df5ab8",
      "assetIds": []
    },
    {
      "x": 82,
      "y": 6,
      "size": 1,
      "price": "1011000000000000000000",
      "reserved": "",
      "salt": "0x5d44ac5c27c9506d4326856afc23365be83de913a0877da6fd7ccb35ba6fa2cc",
      "assetIds": []
    },
    {
      "x": 82,
      "y": 7,
      "size": 1,
      "price": "1011000000000000000000",
      "reserved": "",
      "salt": "0x870f07ed3e56c3ae1bc968d859f1163aa602ec119a798a8e1f2fccba361f5fcf",
      "assetIds": []
    },
    {
      "x": 82,
      "y": 8,
      "size": 1,
      "price": "1011000000000000000000",
      "reserved": "",
      "salt": "0xbad1a185e2196953e4bb8fbdde708e1c20e002168c8e9cee515adf02b677ddbf",
      "assetIds": []
    },
    {
      "x": 82,
      "y": 9,
      "size": 1,
      "price": "1011000000000000000000",
      "reserved": "",
      "salt": "0x95a6396d9188d971cec2927c2f6f3de32609f63ebfa43794e6c3a7363ab9aca6",
      "assetIds": []
    },
    {
      "x": 82,
      "y": 10,
      "size": 1,
      "price": "1011000000000000000000",
      "reserved": "",
      "salt": "0xf8c18a07ac5dd6a0d28f91a690f8dc19aa3526a81383a4f0ec7ff1286da95fa0",
      "assetIds": []
    },
    {
      "x": 82,
      "y": 11,
      "size": 1,
      "price": "4683000000000000000000",
      "reserved": "",
      "salt": "0xe13ae0aa854ce8e78c075bf838317ef7ac00b80f55db0874a10e98937880fd6b",
      "assetIds": [
        "41506478881403507969696680653240014914910929820314476107906210059990541021186"
      ]
    },
    {
      "x": 82,
      "y": 18,
      "size": 1,
      "price": "4683000000000000000000",
      "reserved": "",
      "salt": "0xbbcc234c99a342ac20a38de83148297bbaeb1ae9fbdfd5bf0c22370c7ebcbabb",
      "assetIds": [
        "41506478881403507969696680653240014914910929820314476107906210059990541021186"
      ]
    },
    {
      "x": 82,
      "y": 19,
      "size": 1,
      "price": "1011000000000000000000",
      "reserved": "",
      "salt": "0x4c0216e769d276bdaf9c5fd970949453e0288fbb36fd43a20c1c2ee161331ece",
      "assetIds": []
    },
    {
      "x": 82,
      "y": 20,
      "size": 1,
      "price": "1011000000000000000000",
      "reserved": "",
      "salt": "0xf0ea8385a469454673d25bcd53f25066abf6198ce9604d2916b45c2e1c973e51",
      "assetIds": []
    },
    {
      "x": 82,
      "y": 21,
      "size": 1,
      "price": "1011000000000000000000",
      "reserved": "",
      "salt": "0x9274b6e35114c2dea4cec3ad4ced9159b696c6ba6f4905d6665626bb9e2deb23",
      "assetIds": []
    },
    {
      "x": 83,
      "y": 6,
      "size": 1,
      "price": "1011000000000000000000",
      "reserved": "",
      "salt": "0x25642db7655c772de23681b8077f1ae035b02227778f5c8c139dc4acc5163ebb",
      "assetIds": []
    },
    {
      "x": 83,
      "y": 7,
      "size": 1,
      "price": "1011000000000000000000",
      "reserved": "",
      "salt": "0x09c0b81ac06ef9511ef8ab6ae03197adae7dc9a10359e5f3060792404e4b8c15",
      "assetIds": []
    },
    {
      "x": 83,
      "y": 8,
      "size": 1,
      "price": "1011000000000000000000",
      "reserved": "",
      "salt": "0xa0ea41a97e6ffbaff6023518ba9f24391f3ebab9741febb3ff37402dcd7c43cf",
      "assetIds": []
    },
    {
      "x": 83,
      "y": 9,
      "size": 1,
      "price": "1011000000000000000000",
      "reserved": "",
      "salt": "0x45017f3d9833b99c8bf1e103dd3d480d438668af5a723187fb2b0a2cfc41c566",
      "assetIds": []
    },
    {
      "x": 83,
      "y": 10,
      "size": 1,
      "price": "1011000000000000000000",
      "reserved": "",
      "salt": "0x67f987707e8f6f800ffbc9fa6b1e4a7901a82d785078865e71c7bc0c56e1d016",
      "assetIds": []
    },
    {
      "x": 83,
      "y": 11,
      "size": 1,
      "price": "4683000000000000000000",
      "reserved": "",
      "salt": "0x3cd54355f47d1161bf1b0e9447bfd066cec1986014e0ac1de654ec1ce3aa7b71",
      "assetIds": [
        "41506478881403507969696680653240014914910929820314476107906210059990541021185"
      ]
    },
    {
      "x": 83,
      "y": 18,
      "size": 1,
      "price": "4683000000000000000000",
      "reserved": "",
      "salt": "0x085d577ff40ea34d4c05d84e6b5721bc1b6eb76ebae9a87fa3bfece268eca612",
      "assetIds": [
        "41506478881403507969696680653240014914910929820314476107906210059990541021185"
      ]
    },
    {
      "x": 83,
      "y": 19,
      "size": 1,
      "price": "1011000000000000000000",
      "reserved": "",
      "salt": "0x209064753c62e53e59d7de1cd88135da76d9196d3c04639a72fcd7a284fb03c2",
      "assetIds": []
    },
    {
      "x": 83,
      "y": 20,
      "size": 1,
      "price": "1011000000000000000000",
      "reserved": "",
      "salt": "0x87c84dcd1960cf02016f2df7b58c107c961a2f42ff072f26d1dde876b9c56a66",
      "assetIds": []
    },
    {
      "x": 83,
      "y": 21,
      "size": 1,
      "price": "1011000000000000000000",
      "reserved": "",
      "salt": "0x9bab39da34727a0ba1a4f51a205b70e77f4da913dfd40a36e16b78a67c7f26d3",
      "assetIds": []
    },
    {
      "x": 84,
      "y": 0,
      "size": 1,
      "price": "1011000000000000000000",
      "reserved": "",
      "salt": "0x972b18340926ad39f7fe86accbabe0be2d3f20cc479e7a9289c0763100c0707a",
      "assetIds": []
    },
    {
      "x": 84,
      "y": 1,
      "size": 1,
      "price": "1011000000000000000000",
      "reserved": "",
      "salt": "0x1cfa47d0a45085a526e2cf5e9ca5ca17dbe901562b6a8b8afb6e12a283081557",
      "assetIds": []
    },
    {
      "x": 84,
      "y": 2,
      "size": 1,
      "price": "1011000000000000000000",
      "reserved": "",
      "salt": "0x4c2ded6d580dab6300a8f5162e4c015a28c715af53896666824e2633e65c573f",
      "assetIds": []
    },
    {
      "x": 84,
      "y": 3,
      "size": 1,
      "price": "1011000000000000000000",
      "reserved": "",
      "salt": "0x288cb256ab723c683c3751cb30d12122409a2eb293ac27afa64843abad169298",
      "assetIds": []
    },
    {
      "x": 84,
      "y": 4,
      "size": 1,
      "price": "1011000000000000000000",
      "reserved": "",
      "salt": "0x7f88529fd0f65960c9269d81006dd2d5a878de7a4511d93d88abb38524f1c99f",
      "assetIds": []
    },
    {
      "x": 84,
      "y": 5,
      "size": 1,
      "price": "1011000000000000000000",
      "reserved": "",
      "salt": "0x6d76e9cf564bdf66eb57dc1b68e923a085bb280b942b5826d508390855d766c1",
      "assetIds": []
    },
    {
      "x": 84,
      "y": 9,
      "size": 1,
      "price": "1011000000000000000000",
      "reserved": "",
      "salt": "0x1a03e4e4049d8facaf269a322460702e7aef3d1be3ed6ee4ed39d4b02341eff7",
      "assetIds": []
    },
    {
      "x": 84,
      "y": 10,
      "size": 1,
      "price": "1011000000000000000000",
      "reserved": "",
      "salt": "0xde6a5872d5fa14f3c94830cb8820cbdf2da3e51534c3b94e667501f466088d23",
      "assetIds": []
    },
    {
      "x": 84,
      "y": 11,
      "size": 1,
      "price": "1011000000000000000000",
      "reserved": "",
      "salt": "0x80edaf1fe15ade2c4f18e7b0e529529845dbf60c00723f4840cea35f75bcf4a1",
      "assetIds": []
    },
    {
      "x": 84,
      "y": 12,
      "size": 1,
      "price": "4683000000000000000000",
      "reserved": "",
      "salt": "0xbd806a57ebd4d1d87f8352381a1c169b075e6acab6a76400679ee6f2e1c8a09f",
      "assetIds": [
        "41506478881403507969696680653240014914910929820314476107906210059990541021186"
      ]
    },
    {
      "x": 84,
      "y": 13,
      "size": 1,
      "price": "4683000000000000000000",
      "reserved": "",
      "salt": "0x38618aa8820e0dfab1715171110c681958caf28c15728d05e17a6a660eace352",
      "assetIds": [
        "41506478881403507969696680653240014914910929820314476107906210059990541021185"
      ]
    },
    {
      "x": 84,
      "y": 14,
      "size": 1,
      "price": "4683000000000000000000",
      "reserved": "",
      "salt": "0x73df7588ddac776560c1900efe0f6deb088c9287035eea2bd4ac281a29b18533",
      "assetIds": [
        "41506478881403507969696680653240014914910929820314476107906210059990541021186"
      ]
    },
    {
      "x": 84,
      "y": 18,
      "size": 1,
      "price": "1011000000000000000000",
      "reserved": "",
      "salt": "0x74ab4cfa9760c1d843c729ee28e6dfac224f84c1cae400511e0faba66a5114d2",
      "assetIds": []
    },
    {
      "x": 84,
      "y": 19,
      "size": 1,
      "price": "1011000000000000000000",
      "reserved": "",
      "salt": "0x622ae7f6616b77ace97b6e59d58b7384ebc4f261e2112c802ad3fc1bd0da5dd3",
      "assetIds": []
    },
    {
      "x": 84,
      "y": 20,
      "size": 1,
      "price": "1011000000000000000000",
      "reserved": "",
      "salt": "0xa313d0add1e149f07a3925d42a37137118c99afa022809f2a9b72cce9137d55d",
      "assetIds": []
    },
    {
      "x": 84,
      "y": 21,
      "size": 1,
      "price": "1011000000000000000000",
      "reserved": "",
      "salt": "0x1db27be4c96237fd0b2105f51724b40534e6a1642a3cb4399684ccb0e02c6b06",
      "assetIds": []
    },
    {
      "x": 85,
      "y": 0,
      "size": 1,
      "price": "1011000000000000000000",
      "reserved": "",
      "salt": "0xf741dabcc2082c3942e4b0736c28001bcce0fe3495a5bde2db51647462fc815d",
      "assetIds": []
    },
    {
      "x": 85,
      "y": 1,
      "size": 1,
      "price": "1011000000000000000000",
      "reserved": "",
      "salt": "0x278e66302e2cb7ba47394dfc3fd5037ac961abcf93763524fd28181f1601c0ab",
      "assetIds": []
    },
    {
      "x": 85,
      "y": 2,
      "size": 1,
      "price": "1011000000000000000000",
      "reserved": "",
      "salt": "0x589b4ffd489393056a0f3529d61c80c97e28dedaa47533cc3b8aef1c3a4a1b89",
      "assetIds": []
    },
    {
      "x": 85,
      "y": 3,
      "size": 1,
      "price": "1011000000000000000000",
      "reserved": "",
      "salt": "0x56b7d1211d35fe8e7b287b70791b46c4375848cd7961f693953117d380ba48ef",
      "assetIds": []
    },
    {
      "x": 85,
      "y": 4,
      "size": 1,
      "price": "1011000000000000000000",
      "reserved": "",
      "salt": "0x186ca744c57abcba09af245250a363c4771ae09ec74b009a763f56856083645c",
      "assetIds": []
    },
    {
      "x": 85,
      "y": 5,
      "size": 1,
      "price": "1011000000000000000000",
      "reserved": "",
      "salt": "0xb3eaf3b0705eb8636d7a077bee56909bb84f4c1d59d86b676b28338066c47ec8",
      "assetIds": []
    },
    {
      "x": 85,
      "y": 9,
      "size": 1,
      "price": "1011000000000000000000",
      "reserved": "",
      "salt": "0xb7d02f1d686de19eb21cb55eb6c3f05c9e963566d8cbca5124c9594804a9aa41",
      "assetIds": []
    },
    {
      "x": 85,
      "y": 10,
      "size": 1,
      "price": "1011000000000000000000",
      "reserved": "",
      "salt": "0x36a9906b0f6db055cd618a2a5abd84c2a72ea124a2b96bf1d1cc412f870d9e73",
      "assetIds": []
    },
    {
      "x": 85,
      "y": 11,
      "size": 1,
      "price": "1011000000000000000000",
      "reserved": "",
      "salt": "0x68517feeef789f0c1d208f46de25c14f1c11f666378745b3e28e06a6d23b79c6",
      "assetIds": []
    },
    {
      "x": 85,
      "y": 12,
      "size": 1,
      "price": "1011000000000000000000",
      "reserved": "",
      "salt": "0x110608bdac35031be4957912c16581f25901d54508ad64ce22f6c6282b1a20e7",
      "assetIds": []
    },
    {
      "x": 85,
      "y": 13,
      "size": 1,
      "price": "1011000000000000000000",
      "reserved": "",
      "salt": "0x78500f05364b0f5795c138ed0d7466c438960874f1625ba266c472c3f03bd27e",
      "assetIds": []
    },
    {
      "x": 85,
      "y": 14,
      "size": 1,
      "price": "1011000000000000000000",
      "reserved": "",
      "salt": "0x122a4b3d2d662f2599050c146e6451afbe1f48bc0396025b41e07c6918b7d1d8",
      "assetIds": []
    },
    {
      "x": 85,
      "y": 18,
      "size": 1,
      "price": "1011000000000000000000",
      "reserved": "",
      "salt": "0x122d5b17cce5e5feb9731243cc05534f604a580a6a7b2ad4819b93e6400929d9",
      "assetIds": []
    },
    {
      "x": 85,
      "y": 19,
      "size": 1,
      "price": "1011000000000000000000",
      "reserved": "",
      "salt": "0xf56ee58fce1cc708c349e48f9f6c8c33b96325e211ec76add6d9cae1ee636055",
      "assetIds": []
    },
    {
      "x": 85,
      "y": 20,
      "size": 1,
      "price": "1011000000000000000000",
      "reserved": "",
      "salt": "0x1bf18f1db675d53dee39fb6e35f168cdbfa24b3d8d5ed44cf22cdc02fc1d63c5",
      "assetIds": []
    },
    {
      "x": 85,
      "y": 21,
      "size": 1,
      "price": "1011000000000000000000",
      "reserved": "",
      "salt": "0x66f18a377e9c2aa5d25f6beb3b09feb20bcdeb37ba7d268ed7131a67c430d998",
      "assetIds": []
    },
    {
      "x": 86,
      "y": 0,
      "size": 1,
      "price": "1011000000000000000000",
      "reserved": "",
      "salt": "0x0c7aacaa0802f1100cff4da616cc81f6a53ef8ac89ef9792b27881963c0ddd17",
      "assetIds": []
    },
    {
      "x": 86,
      "y": 1,
      "size": 1,
      "price": "1011000000000000000000",
      "reserved": "",
      "salt": "0xe5997460c2e3cb6e8237cb38465a23224790f1410d52e5291c53b9f276cad71c",
      "assetIds": []
    },
    {
      "x": 86,
      "y": 2,
      "size": 1,
      "price": "1011000000000000000000",
      "reserved": "",
      "salt": "0x598a5581f1c5bdbae22e12c24414b1fe8d85d133124605b5f6c46411f4c654d1",
      "assetIds": []
    },
    {
      "x": 86,
      "y": 3,
      "size": 1,
      "price": "1011000000000000000000",
      "reserved": "",
      "salt": "0xc397196069e9b7a07f17d3f571a135f5d58d57ef6d4bc7e4710d9ea9fd07531a",
      "assetIds": []
    },
    {
      "x": 86,
      "y": 4,
      "size": 1,
      "price": "1011000000000000000000",
      "reserved": "",
      "salt": "0x3d1b9a0cded4360464511407b3af0ba0c078b9bfd9a8190729ba84ca5cd4c476",
      "assetIds": []
    },
    {
      "x": 86,
      "y": 5,
      "size": 1,
      "price": "1011000000000000000000",
      "reserved": "",
      "salt": "0xdf98920c0a7dcb8a0e0e5c33b3ac5249dee8e8326ebdf511e65ee52bf3f4584a",
      "assetIds": []
    },
    {
      "x": 86,
      "y": 9,
      "size": 1,
      "price": "1011000000000000000000",
      "reserved": "",
      "salt": "0x06536aaa58968eabbd3f162322d4cc59d773d7843c75088b346bd5401301da11",
      "assetIds": []
    },
    {
      "x": 86,
      "y": 10,
      "size": 1,
      "price": "1011000000000000000000",
      "reserved": "",
      "salt": "0x0db7f5c81feacc96b8e5d4d68d9c89e55f520009c3f9fbc0f7194ca4eeb15987",
      "assetIds": []
    },
    {
      "x": 86,
      "y": 11,
      "size": 1,
      "price": "1011000000000000000000",
      "reserved": "",
      "salt": "0xca3cf703b6133760e4d7646753bd42bcb057ffdc253ffe99317e9981845c974c",
      "assetIds": []
    },
    {
      "x": 86,
      "y": 12,
      "size": 1,
      "price": "1011000000000000000000",
      "reserved": "",
      "salt": "0xc7371e02627e7bd1ba60d7e64c997d6427a90a80797bd898686611f8268126b4",
      "assetIds": []
    },
    {
      "x": 86,
      "y": 13,
      "size": 1,
      "price": "1011000000000000000000",
      "reserved": "",
      "salt": "0xc02455cc812bdf50ed60286d02398b8439fd9676a9eacb1b985a2306b9ee50b4",
      "assetIds": []
    },
    {
      "x": 86,
      "y": 14,
      "size": 1,
      "price": "1011000000000000000000",
      "reserved": "",
      "salt": "0xbc6ceaf9d1fdbc9cb0f1fa20a3966774053d9c15decd8c9aa6e58ee4653d0a11",
      "assetIds": []
    },
    {
      "x": 86,
      "y": 18,
      "size": 1,
      "price": "4683000000000000000000",
      "reserved": "",
      "salt": "0xeb9cd9b2166189349c5c243c15b9e7b4ee058946725acf60b9d40ff8b33b87ab",
      "assetIds": [
        "41506478881403507969696680653240014914910929820314476107906210059990541021186"
      ]
    },
    {
      "x": 86,
      "y": 19,
      "size": 1,
      "price": "4683000000000000000000",
      "reserved": "",
      "salt": "0x783b068b7c142acb0275f0556980c04a6424bb6605f247cfebb64c6c5a9e1ce4",
      "assetIds": [
        "41506478881403507969696680653240014914910929820314476107906210059990541021185"
      ]
    },
    {
      "x": 86,
      "y": 20,
      "size": 1,
      "price": "4683000000000000000000",
      "reserved": "",
      "salt": "0x936b165044376a31278ab8b4d234332ef7c83431cfb55b830bf9873be95f3605",
      "assetIds": [
        "41506478881403507969696680653240014914910929820314476107906210059990541021186"
      ]
    },
    {
      "x": 86,
      "y": 21,
      "size": 1,
      "price": "1011000000000000000000",
      "reserved": "",
      "salt": "0x5c7770ebee587f0d5488d5d5435f95c244a13b3613a765595239354b4a9731dd",
      "assetIds": []
    },
    {
      "x": 87,
      "y": 3,
      "size": 1,
      "price": "1011000000000000000000",
      "reserved": "",
      "salt": "0xb4b50f0a51af730594e6a5326a8a68bdcab85c4c2ff837e934d467306ac2c5cf",
      "assetIds": []
    },
    {
      "x": 87,
      "y": 4,
      "size": 1,
      "price": "1011000000000000000000",
      "reserved": "",
      "salt": "0xdce35550e3cd9054fbe378eec62ba2e1da69d2f79457ad1f2c924c33b796957e",
      "assetIds": []
    },
    {
      "x": 87,
      "y": 5,
      "size": 1,
      "price": "1011000000000000000000",
      "reserved": "",
      "salt": "0xbfaa3a80634d2645ab849b461df08ce1764be667a3a65cfd21ad6d6519c58da3",
      "assetIds": []
    },
    {
      "x": 87,
      "y": 6,
      "size": 1,
      "price": "1011000000000000000000",
      "reserved": "",
      "salt": "0x0da806244d19901ca9deddf97a9efc79874eab8394bc579df66dad868725f8f8",
      "assetIds": []
    },
    {
      "x": 87,
      "y": 7,
      "size": 1,
      "price": "1011000000000000000000",
      "reserved": "",
      "salt": "0xf39e98f1b6d3908167c61b453a7c8aa037d990b1686ecc3c8642751303a034bd",
      "assetIds": []
    },
    {
      "x": 87,
      "y": 8,
      "size": 1,
      "price": "1011000000000000000000",
      "reserved": "",
      "salt": "0x4f533e373bd447f43dcf4e26e14504cf04cb4ead10999aafa286d355f0aba7aa",
      "assetIds": []
    },
    {
      "x": 87,
      "y": 12,
      "size": 1,
      "price": "1011000000000000000000",
      "reserved": "",
      "salt": "0xddeb4ed5842217368325813cc17d2ae5c7117764606f9db168625795288afb92",
      "assetIds": []
    },
    {
      "x": 87,
      "y": 13,
      "size": 1,
      "price": "1011000000000000000000",
      "reserved": "",
      "salt": "0xb60dae3bf1378a096e312c3fe71cc6da45db4d32ebdbd537ac13a5c54fbf6217",
      "assetIds": []
    },
    {
      "x": 87,
      "y": 14,
      "size": 1,
      "price": "1011000000000000000000",
      "reserved": "",
      "salt": "0x5d96e25ab53f57f90327eb40dd4db7236942ffb939cc2f44d0cbb83550a93e70",
      "assetIds": []
    },
    {
      "x": 87,
      "y": 15,
      "size": 1,
      "price": "1011000000000000000000",
      "reserved": "",
      "salt": "0x5d800fb77e1c6d338c78c23bdab23cb68276994e53a79fd78f98c32860c1290a",
      "assetIds": []
    },
    {
      "x": 87,
      "y": 16,
      "size": 1,
      "price": "1011000000000000000000",
      "reserved": "",
      "salt": "0xd8fa52349cfe84012b9c2c250de0580f3d1d9af00002ae56298bf9025b7a957f",
      "assetIds": []
    },
    {
      "x": 87,
      "y": 17,
      "size": 1,
      "price": "4683000000000000000000",
      "reserved": "",
      "salt": "0x524bca98c9f4a0248b73f1c0ffb8b804395e9ad46e076dba0372931ad106d0d3",
      "assetIds": [
        "41506478881403507969696680653240014914910929820314476107906210059990541021185"
      ]
    },
    {
      "x": 87,
      "y": 21,
      "size": 1,
      "price": "4683000000000000000000",
      "reserved": "",
      "salt": "0xef4a40afa87388452f3ef018ba01337f6f7bd45e126c43abd29a783cc59ddef9",
      "assetIds": [
        "41506478881403507969696680653240014914910929820314476107906210059990541021186"
      ]
    },
    {
      "x": 88,
      "y": 3,
      "size": 1,
      "price": "1011000000000000000000",
      "reserved": "",
      "salt": "0x9ed72282b70f066aed26886ded3504ab435a584a93f21c41e345975426de85b8",
      "assetIds": []
    },
    {
      "x": 88,
      "y": 4,
      "size": 1,
      "price": "1011000000000000000000",
      "reserved": "",
      "salt": "0x0bc8090512b815c53dce1768c92c67729a7397c5a413db794746b1d84cb8f214",
      "assetIds": []
    },
    {
      "x": 88,
      "y": 5,
      "size": 1,
      "price": "1011000000000000000000",
      "reserved": "",
      "salt": "0x8cc64b6465f6dd6c0b6b09980ee251845ab5db888e757e3f9e300414eee89917",
      "assetIds": []
    },
    {
      "x": 88,
      "y": 6,
      "size": 1,
      "price": "1011000000000000000000",
      "reserved": "",
      "salt": "0x4ac918d6e56a11cdaab65116dccfbd578f5b4034f0e3757df61fdfd8fef59848",
      "assetIds": []
    },
    {
      "x": 88,
      "y": 7,
      "size": 1,
      "price": "1011000000000000000000",
      "reserved": "",
      "salt": "0xfd0f64090e2e5f346c184a57b1ba80d84eaf415759ad38886d0327c49c8c256b",
      "assetIds": []
    },
    {
      "x": 88,
      "y": 8,
      "size": 1,
      "price": "1011000000000000000000",
      "reserved": "",
      "salt": "0xe3aa4e2751fa0ef08d19bc5fba951651b465cc6e6e280d5ccb30995419e6ecef",
      "assetIds": []
    },
    {
      "x": 88,
      "y": 12,
      "size": 1,
      "price": "1011000000000000000000",
      "reserved": "",
      "salt": "0x8a7069f1e224fe30db01a45777c661b2f40be393cac37a777ca5d34827e8d8c3",
      "assetIds": []
    },
    {
      "x": 88,
      "y": 13,
      "size": 1,
      "price": "1011000000000000000000",
      "reserved": "",
      "salt": "0x468dd509297a728f804bb54207b791ad006af223044387fc5a8d0a171b1825cd",
      "assetIds": []
    },
    {
      "x": 88,
      "y": 14,
      "size": 1,
      "price": "1011000000000000000000",
      "reserved": "",
      "salt": "0xeae915dfc8a68ed3d5266b6ee87ec96774ef033a57d8444b1d9169ed747f3f31",
      "assetIds": []
    },
    {
      "x": 88,
      "y": 15,
      "size": 1,
      "price": "1011000000000000000000",
      "reserved": "",
      "salt": "0xc16a4d2738acfc95379055e0c3f0e6e470c2a65072e4c606188c057c1763fe3d",
      "assetIds": []
    },
    {
      "x": 88,
      "y": 16,
      "size": 1,
      "price": "1011000000000000000000",
      "reserved": "",
      "salt": "0xdfd1015a2a6e2a2acb64930698670145ace99b8805860dfbf77bef45ce8f73d7",
      "assetIds": []
    },
    {
      "x": 88,
      "y": 17,
      "size": 1,
      "price": "4683000000000000000000",
      "reserved": "",
      "salt": "0x28b2f399be92d2496214763b799f543eb8b237cc86beab5009bc7af84c8071a9",
      "assetIds": [
        "41506478881403507969696680653240014914910929820314476107906210059990541021185"
      ]
    },
    {
      "x": 88,
      "y": 21,
      "size": 1,
      "price": "4683000000000000000000",
      "reserved": "",
      "salt": "0xb011033e4f29a5703340d57d4812cbbc4c180f28eace24e6295f433b51e2c18f",
      "assetIds": [
        "41506478881403507969696680653240014914910929820314476107906210059990541021186"
      ]
    },
    {
      "x": 89,
      "y": 3,
      "size": 1,
      "price": "4683000000000000000000",
      "reserved": "",
      "salt": "0x3ff78614a0ca2ba0426bb66fc59a2efdd65eaa71f07cfb82826500d34a7f6a6e",
      "assetIds": [
        "41506478881403507969696680653240014914910929820314476107906210059990541021185"
      ]
    },
    {
      "x": 89,
      "y": 4,
      "size": 1,
      "price": "4683000000000000000000",
      "reserved": "",
      "salt": "0xa93457f24384b713526e84ceccb6c69218717d9e22b5b2bccd7d47b77f1f0780",
      "assetIds": [
        "41506478881403507969696680653240014914910929820314476107906210059990541021186"
      ]
    },
    {
      "x": 89,
      "y": 5,
      "size": 1,
      "price": "4683000000000000000000",
      "reserved": "",
      "salt": "0x422fc92a13d0204bc688494419307272775ab0a470b84b784f2e6a49f200e416",
      "assetIds": [
        "41506478881403507969696680653240014914910929820314476107906210059990541021186"
      ]
    },
    {
      "x": 89,
      "y": 6,
      "size": 1,
      "price": "1011000000000000000000",
      "reserved": "",
      "salt": "0xee6c6677bfa92d38b7109880ea7cebd3f92987d2a88638485d14b2c5de444cb4",
      "assetIds": []
    },
    {
      "x": 89,
      "y": 7,
      "size": 1,
      "price": "1011000000000000000000",
      "reserved": "",
      "salt": "0xc0c54c06f6ec1d1c22ad79043db12bbdfd2f93c623a920eff985d84581732264",
      "assetIds": []
    },
    {
      "x": 89,
      "y": 8,
      "size": 1,
      "price": "1011000000000000000000",
      "reserved": "",
      "salt": "0xdc1e33b160bd48404edc02ba7062c7d8edf6113c9b1ef3c4df24e04cf6bb83c1",
      "assetIds": []
    },
    {
      "x": 89,
      "y": 12,
      "size": 1,
      "price": "4683000000000000000000",
      "reserved": "",
      "salt": "0xde09cb5d5d0fd8a6d5edf5c6eebc87d3c6ceadd0cb14e84f70a8baa678bd6c1b",
      "assetIds": [
        "41506478881403507969696680653240014914910929820314476107906210059990541021186"
      ]
    },
    {
      "x": 89,
      "y": 13,
      "size": 1,
      "price": "4683000000000000000000",
      "reserved": "",
      "salt": "0xe7cb3ee159ef7b26b7bfe0ae7171212c5baba2e484b7ff515c75bc9585e7169b",
      "assetIds": [
        "41506478881403507969696680653240014914910929820314476107906210059990541021186"
      ]
    },
    {
      "x": 89,
      "y": 14,
      "size": 1,
      "price": "4683000000000000000000",
      "reserved": "",
      "salt": "0xc9bcbd705298a8488fda819430b7f0011bd04fca3e6f2a6d4a05561c207b51a6",
      "assetIds": [
        "41506478881403507969696680653240014914910929820314476107906210059990541021186"
      ]
    },
    {
      "x": 89,
      "y": 15,
      "size": 1,
      "price": "4683000000000000000000",
      "reserved": "",
      "salt": "0x49f32a32ac7fc39535d337b8217aed83c4f93c9c4b10e9a7cc691dfbc50221fd",
      "assetIds": [
        "41506478881403507969696680653240014914910929820314476107906210059990541021185"
      ]
    },
    {
      "x": 89,
      "y": 16,
      "size": 1,
      "price": "4683000000000000000000",
      "reserved": "",
      "salt": "0x3038a8e8cab9369e76205849e24aa5499fb5776566a2eeec0653257ab3588559",
      "assetIds": [
        "41506478881403507969696680653240014914910929820314476107906210059990541021186"
      ]
    },
    {
      "x": 89,
      "y": 17,
      "size": 1,
      "price": "4683000000000000000000",
      "reserved": "",
      "salt": "0x4c0e533d3905b898d0f85ad17f6c67056aa59132422df479faac18d056679b4c",
      "assetIds": [
        "41506478881403507969696680653240014914910929820314476107906210059990541021186"
      ]
    },
    {
      "x": 89,
      "y": 21,
      "size": 1,
      "price": "4683000000000000000000",
      "reserved": "",
      "salt": "0x95bfac85df44f788feba9214eb040e6cf9b3dc5c96918c1f149e788b56424723",
      "assetIds": [
        "41506478881403507969696680653240014914910929820314476107906210059990541021185"
      ]
    },
    {
      "x": 90,
      "y": 6,
      "size": 1,
      "price": "4683000000000000000000",
      "reserved": "",
      "salt": "0xb83112f202e609179826337c23d38d47fca874f44fbc003c728df139bc33e018",
      "assetIds": [
        "41506478881403507969696680653240014914910929820314476107906210059990541021185"
      ]
    },
    {
      "x": 90,
      "y": 7,
      "size": 1,
      "price": "1011000000000000000000",
      "reserved": "",
      "salt": "0x1bd36251ff0d1120693ce9b89d9b3ec330f5e059f1422a8514cc5f0bb522457d",
      "assetIds": []
    },
    {
      "x": 90,
      "y": 8,
      "size": 1,
      "price": "1011000000000000000000",
      "reserved": "",
      "salt": "0x7b3f312b334634a9fc190417a289214eefb1f6780a926d597d993c5bdd14e7bb",
      "assetIds": []
    },
    {
      "x": 90,
      "y": 9,
      "size": 1,
      "price": "1011000000000000000000",
      "reserved": "",
      "salt": "0x6996bdade9187217882285dca3ef4a9587af56c88515fc96d61fd3d68ebe3e15",
      "assetIds": []
    },
    {
      "x": 90,
      "y": 10,
      "size": 1,
      "price": "1011000000000000000000",
      "reserved": "",
      "salt": "0x8ea244287b5a4bf399914602b9f9b60c943a5be98ad4f7ce67483d490e11ccd8",
      "assetIds": []
    },
    {
      "x": 90,
      "y": 11,
      "size": 1,
      "price": "4683000000000000000000",
      "reserved": "",
      "salt": "0xcef7a5c9b70205d8c42dad3592bdd4d336049e4c181e7b65a0e66e17e4d9f2dd",
      "assetIds": [
        "41506478881403507969696680653240014914910929820314476107906210059990541021185"
      ]
    },
    {
      "x": 90,
      "y": 18,
      "size": 1,
      "price": "4683000000000000000000",
      "reserved": "",
      "salt": "0x9fa4edef91e9a730360c72360d76dab9d9f3c5182bee18edbb5d8d28e597e7b5",
      "assetIds": [
        "41506478881403507969696680653240014914910929820314476107906210059990541021185"
      ]
    },
    {
      "x": 90,
      "y": 19,
      "size": 1,
      "price": "4683000000000000000000",
      "reserved": "",
      "salt": "0xedeb5b134a9dd085b3fcde4098712c54aeb0048e8b282753a194c388675aed31",
      "assetIds": [
        "41506478881403507969696680653240014914910929820314476107906210059990541021185"
      ]
    },
    {
      "x": 90,
      "y": 20,
      "size": 1,
      "price": "4683000000000000000000",
      "reserved": "",
      "salt": "0x5ae341f8778167894113258b9be746fcc84dccfbc1dd827268f8ceb5f8cea848",
      "assetIds": [
        "41506478881403507969696680653240014914910929820314476107906210059990541021186"
      ]
    },
    {
      "x": 90,
      "y": 21,
      "size": 1,
      "price": "1011000000000000000000",
      "reserved": "",
      "salt": "0x37e29d223b4402981510090e9a7ad2fc739991846c291e4ae1222b666ba5688b",
      "assetIds": []
    },
    {
      "x": 91,
      "y": 6,
      "size": 1,
      "price": "4683000000000000000000",
      "reserved": "",
      "salt": "0x679664eabb5214174df18faddb5091e08229a73e6be63e301d20d5dbf03374a1",
      "assetIds": [
        "41506478881403507969696680653240014914910929820314476107906210059990541021185"
      ]
    },
    {
      "x": 91,
      "y": 7,
      "size": 1,
      "price": "1011000000000000000000",
      "reserved": "",
      "salt": "0xef36538f4e28f982af58869a1e52e21b6f3eff1bdc1ce3c31ee4d24ef2ca5e1c",
      "assetIds": []
    },
    {
      "x": 91,
      "y": 8,
      "size": 1,
      "price": "1011000000000000000000",
      "reserved": "",
      "salt": "0x79605565710e724851e095ee59198cdb4e9631e72f0228d8746aa10ca360ee4c",
      "assetIds": []
    },
    {
      "x": 91,
      "y": 9,
      "size": 1,
      "price": "1011000000000000000000",
      "reserved": "",
      "salt": "0x2e67a244560e9b69101fae2a6a74b4634b465eb024c622233fe331c5a324b65a",
      "assetIds": []
    },
    {
      "x": 91,
      "y": 10,
      "size": 1,
      "price": "1011000000000000000000",
      "reserved": "",
      "salt": "0x18a3961ed1057d239f50a76a8e5dd803c7258f2318ec9c695591452dc2fae9ab",
      "assetIds": []
    },
    {
      "x": 91,
      "y": 11,
      "size": 1,
      "price": "4683000000000000000000",
      "reserved": "",
      "salt": "0x3785851c6d0b266fac88e1f0adc39a5e6103e10e21b0a6269413878e8851a3b9",
      "assetIds": [
        "41506478881403507969696680653240014914910929820314476107906210059990541021186"
      ]
    },
    {
      "x": 91,
      "y": 18,
      "size": 1,
      "price": "1011000000000000000000",
      "reserved": "",
      "salt": "0x0ef0516304b91ec05f7f93b10e76d57c01ed6aab4483580d060f5b1201d80dbe",
      "assetIds": []
    },
    {
      "x": 91,
      "y": 19,
      "size": 1,
      "price": "1011000000000000000000",
      "reserved": "",
      "salt": "0x6ef8b4520d0e792fed8acb7a1bd0628cfae2ee1fdd13c061d49149b7c4e43ff7",
      "assetIds": []
    },
    {
      "x": 91,
      "y": 20,
      "size": 1,
      "price": "1011000000000000000000",
      "reserved": "",
      "salt": "0x6d82068940fe83a27463881a70eb72bdfe887721a895054e59d0e007ff0a5a92",
      "assetIds": []
    },
    {
      "x": 91,
      "y": 21,
      "size": 1,
      "price": "1011000000000000000000",
      "reserved": "",
      "salt": "0xe491ed26f83075e8fdffd5b5778755928d4e5ee310d0975cbebc7d4e592f1ada",
      "assetIds": []
    },
    {
      "x": 92,
      "y": 6,
      "size": 1,
      "price": "4683000000000000000000",
      "reserved": "",
      "salt": "0x295bf4d6ada9674b38bdddf7c757c07aee62e66e5a5137f535ff2b9f149fb7e4",
      "assetIds": [
        "41506478881403507969696680653240014914910929820314476107906210059990541021185"
      ]
    },
    {
      "x": 92,
      "y": 7,
      "size": 1,
      "price": "1011000000000000000000",
      "reserved": "",
      "salt": "0x09ab128ab3102212c7efbccd71bf3558706e744c0c5a024590fb231a2fcd6ad1",
      "assetIds": []
    },
    {
      "x": 92,
      "y": 8,
      "size": 1,
      "price": "1011000000000000000000",
      "reserved": "",
      "salt": "0x86f280ca28079c6ed77154161f941b21f27eb9a9f6f9084b4c791df35cf0c6a7",
      "assetIds": []
    },
    {
      "x": 92,
      "y": 9,
      "size": 1,
      "price": "1011000000000000000000",
      "reserved": "",
      "salt": "0x70301106886b272259b367d50d56067e8868cab3e612f8bc82436c100a71ba39",
      "assetIds": []
    },
    {
      "x": 92,
      "y": 10,
      "size": 1,
      "price": "1011000000000000000000",
      "reserved": "",
      "salt": "0x8d2914175894a25124918f7eaebd5d8164932980f24fb63b5b0dea1bda5cd75a",
      "assetIds": []
    },
    {
      "x": 92,
      "y": 11,
      "size": 1,
      "price": "4683000000000000000000",
      "reserved": "",
      "salt": "0x2b6004380bb28f9df6e5f49bd0f67579f870b36ca3966664a9f51a691ee42982",
      "assetIds": [
        "41506478881403507969696680653240014914910929820314476107906210059990541021186"
      ]
    },
    {
      "x": 92,
      "y": 18,
      "size": 1,
      "price": "1011000000000000000000",
      "reserved": "",
      "salt": "0xf5a141f4a5632d423237e33ba81bdb717a884e63e70fe6bff8c0f6365c9a9939",
      "assetIds": []
    },
    {
      "x": 92,
      "y": 19,
      "size": 1,
      "price": "1011000000000000000000",
      "reserved": "",
      "salt": "0x770f212e055b7e1c775ad690ecde0fe74096a087d600567ea35b026a03f8cb5d",
      "assetIds": []
    },
    {
      "x": 92,
      "y": 20,
      "size": 1,
      "price": "1011000000000000000000",
      "reserved": "",
      "salt": "0xe404dd66d1270ece6bc5f40ca7b9ed828056e50e2c31901fde95942372b87c98",
      "assetIds": []
    },
    {
      "x": 92,
      "y": 21,
      "size": 1,
      "price": "1011000000000000000000",
      "reserved": "",
      "salt": "0xb416e64e63d9d3122af2549f2623731c78d4f26e6c16a9de07cf6fad27532358",
      "assetIds": []
    },
    {
      "x": 93,
      "y": 6,
      "size": 1,
      "price": "4683000000000000000000",
      "reserved": "",
      "salt": "0x21dca61ee8c804c15f6175130b517e655cd7b643bca3ef8ceba6063dc28b7e65",
      "assetIds": [
        "41506478881403507969696680653240014914910929820314476107906210059990541021186"
      ]
    },
    {
      "x": 93,
      "y": 7,
      "size": 1,
      "price": "1011000000000000000000",
      "reserved": "",
      "salt": "0xb0a40077af8cbb677768b0d4102b3eb9bad11d28cecd23fb885cad80e26ab3e1",
      "assetIds": []
    },
    {
      "x": 93,
      "y": 8,
      "size": 1,
      "price": "1011000000000000000000",
      "reserved": "",
      "salt": "0x6b7db8e49d6e14326dd38b8c0325d4b5eee8d2c9623aae01cda9a5a1f1ee34b9",
      "assetIds": []
    },
    {
      "x": 93,
      "y": 9,
      "size": 1,
      "price": "1011000000000000000000",
      "reserved": "",
      "salt": "0x0c1f5a69b2dd1f09ffc5ec20008bb1a2fa95d4ed1c90e844d63836223fba30ed",
      "assetIds": []
    },
    {
      "x": 93,
      "y": 10,
      "size": 1,
      "price": "1011000000000000000000",
      "reserved": "",
      "salt": "0xa7d3032f9fc88cc5c7752c11919c9dec9a211fdee17aa96b48f5e848b7d6d686",
      "assetIds": []
    },
    {
      "x": 93,
      "y": 11,
      "size": 1,
      "price": "4683000000000000000000",
      "reserved": "",
      "salt": "0x573822235d4fb8f110813b61d75f5bd5ff490d604466f4b5c1a355e2358866b0",
      "assetIds": [
        "41506478881403507969696680653240014914910929820314476107906210059990541021186"
      ]
    },
    {
      "x": 93,
      "y": 18,
      "size": 1,
      "price": "1011000000000000000000",
      "reserved": "",
      "salt": "0x0d7f835b84f5f3adfeacac91c094c8e31f92a6c92a44505f2fe62f655e7c0bfc",
      "assetIds": []
    },
    {
      "x": 93,
      "y": 19,
      "size": 1,
      "price": "1011000000000000000000",
      "reserved": "",
      "salt": "0x67f06d98146510c66d1afaafdeedb377149c5ef020e71c6115398aa7aaf68516",
      "assetIds": []
    },
    {
      "x": 93,
      "y": 20,
      "size": 1,
      "price": "1011000000000000000000",
      "reserved": "",
      "salt": "0x691300e9abe4286f84835704e5177acdd7537da0c39aad3e122324790f7f9271",
      "assetIds": []
    },
    {
      "x": 93,
      "y": 21,
      "size": 1,
      "price": "1011000000000000000000",
      "reserved": "",
      "salt": "0xc13a7c723a1e3d7216df852a84f24ccd313bd73501070a82c360daf12ccb28c9",
      "assetIds": []
    },
    {
      "x": 94,
      "y": 6,
      "size": 1,
      "price": "4683000000000000000000",
      "reserved": "",
      "salt": "0xd7734fd08bebf3df3f9a0e99e8bccc474bdb4c0472c2fadbf22b951d1553df4d",
      "assetIds": [
        "41506478881403507969696680653240014914910929820314476107906210059990541021186"
      ]
    },
    {
      "x": 94,
      "y": 7,
      "size": 1,
      "price": "1011000000000000000000",
      "reserved": "",
      "salt": "0x1ac7f4442c9231bc259e5b981e39d9ab84c1057ade0f35dd70d8b2660138e116",
      "assetIds": []
    },
    {
      "x": 94,
      "y": 8,
      "size": 1,
      "price": "1011000000000000000000",
      "reserved": "",
      "salt": "0xe7a9a7fc0cb209f9299f8332acadf8c8a5ff40251b230d68c7ea122de2157901",
      "assetIds": []
    },
    {
      "x": 94,
      "y": 9,
      "size": 1,
      "price": "1011000000000000000000",
      "reserved": "",
      "salt": "0x8eb23ba82925dafb36186ae5de8976ff789ea0d5d58004051c60f270af6616e9",
      "assetIds": []
    },
    {
      "x": 94,
      "y": 10,
      "size": 1,
      "price": "1011000000000000000000",
      "reserved": "",
      "salt": "0x0f3152599c0f12253c3bb938a93aab8f1c9523d570dc0f2f998f178ae5840d3f",
      "assetIds": []
    },
    {
      "x": 94,
      "y": 11,
      "size": 1,
      "price": "4683000000000000000000",
      "reserved": "",
      "salt": "0x87d98fa64c42bdccc4f8280bd57d421d26ae9151188157e8a36792dca2320dcc",
      "assetIds": [
        "41506478881403507969696680653240014914910929820314476107906210059990541021186"
      ]
    },
    {
      "x": 94,
      "y": 18,
      "size": 1,
      "price": "1011000000000000000000",
      "reserved": "",
      "salt": "0xcdc320537269417046cdaeb04a3f9c3bbcd4fa1e9de1764ceb8622a397d2a6e3",
      "assetIds": []
    },
    {
      "x": 94,
      "y": 19,
      "size": 1,
      "price": "1011000000000000000000",
      "reserved": "",
      "salt": "0x310a814454f557eff9d7bf4d070f62f2f9b6cb74e0580f6c449ff2f816c839f1",
      "assetIds": []
    },
    {
      "x": 94,
      "y": 20,
      "size": 1,
      "price": "1011000000000000000000",
      "reserved": "",
      "salt": "0x718857a3a3af463c9057ce2a03d812459ec1c6bf529c022ac6666846a9c174d2",
      "assetIds": []
    },
    {
      "x": 94,
      "y": 21,
      "size": 1,
      "price": "1011000000000000000000",
      "reserved": "",
      "salt": "0xb833291311bee0d062ac1403883fdf75510f33ecb07d534bec7b638a7383398e",
      "assetIds": []
    },
    {
      "x": 95,
      "y": 6,
      "size": 1,
      "price": "4683000000000000000000",
      "reserved": "",
      "salt": "0xcf6490f08bd9eafa78d553b4c1acf0ffb702fc963ffd28afc9b70b7243f4c96c",
      "assetIds": [
        "41506478881403507969696680653240014914910929820314476107906210059990541021186"
      ]
    },
    {
      "x": 95,
      "y": 7,
      "size": 1,
      "price": "1011000000000000000000",
      "reserved": "",
      "salt": "0xf587994b0914c1e9818dee6304b877609b3ba91eaa81d63cadc09d5a9350fddd",
      "assetIds": []
    },
    {
      "x": 95,
      "y": 8,
      "size": 1,
      "price": "1011000000000000000000",
      "reserved": "",
      "salt": "0xb0645275b9cd1c9484d33fc02d8f126be0206caa968f4abb4d34f20fbe9be698",
      "assetIds": []
    },
    {
      "x": 95,
      "y": 9,
      "size": 1,
      "price": "1011000000000000000000",
      "reserved": "",
      "salt": "0x2ca803c22e55515a76ca9b4ba886e8efa51402a0a130670fe29cfed2f51a72fe",
      "assetIds": []
    },
    {
      "x": 95,
      "y": 10,
      "size": 1,
      "price": "1011000000000000000000",
      "reserved": "",
      "salt": "0x2eda003a7da1d1998ab2c073ed5a30c4004e6844e8df6af9cc8e62bc80694b3a",
      "assetIds": []
    },
    {
      "x": 95,
      "y": 11,
      "size": 1,
      "price": "4683000000000000000000",
      "reserved": "",
      "salt": "0x6878f14d9c4cf1f48eb8049278ba395d34191211f81ceb319d8e850a9e16fe2a",
      "assetIds": [
        "41506478881403507969696680653240014914910929820314476107906210059990541021186"
      ]
    },
    {
      "x": 95,
      "y": 18,
      "size": 1,
      "price": "4683000000000000000000",
      "reserved": "",
      "salt": "0xe7d4977e1c3764689d8cd07e926ee4a8cc68ac4c6c9c2cf330c265e50dbdf21f",
      "assetIds": [
        "41506478881403507969696680653240014914910929820314476107906210059990541021186"
      ]
    },
    {
      "x": 95,
      "y": 19,
      "size": 1,
      "price": "4683000000000000000000",
      "reserved": "",
      "salt": "0x2613c09690c463d46cdffc648ccd9dedb65c95c4746338abbf21f00b741b0e96",
      "assetIds": [
        "41506478881403507969696680653240014914910929820314476107906210059990541021185"
      ]
    },
    {
      "x": 95,
      "y": 20,
      "size": 1,
      "price": "4683000000000000000000",
      "reserved": "",
      "salt": "0xd99cb14bc5977982eb06dda533f137490aae09b5129b619d0ecde71b596a782f",
      "assetIds": [
        "41506478881403507969696680653240014914910929820314476107906210059990541021185"
      ]
    },
    {
      "x": 95,
      "y": 21,
      "size": 1,
      "price": "1011000000000000000000",
      "reserved": "",
      "salt": "0x0bc88a8a6fcc4b06c5178cff8f88ba344a0b3bb5cd8114207100b5480d71f0a8",
      "assetIds": []
    },
    {
      "x": 96,
      "y": 0,
      "size": 1,
      "price": "4683000000000000000000",
      "reserved": "",
      "salt": "0xa6edd186d0ca737a45878baf5c8ba5612af9be4cf8da4628764b924bfaf73c65",
      "assetIds": [
        "41506478881403507969696680653240014914910929820314476107906210059990541021185"
      ]
    },
    {
      "x": 96,
      "y": 1,
      "size": 1,
      "price": "4683000000000000000000",
      "reserved": "",
      "salt": "0x31d3d9e76b7fdd1aac4cbbb14f3f2b5873cc1840827dd161b48f185e4dfd5580",
      "assetIds": [
        "41506478881403507969696680653240014914910929820314476107906210059990541021186"
      ]
    },
    {
      "x": 96,
      "y": 2,
      "size": 1,
      "price": "4683000000000000000000",
      "reserved": "",
      "salt": "0xcc8a5b07f8b8ae28cbce6df23674414d9485668f8c29e32b4d8b7ce312954ac2",
      "assetIds": [
        "41506478881403507969696680653240014914910929820314476107906210059990541021186"
      ]
    },
    {
      "x": 96,
      "y": 3,
      "size": 1,
      "price": "4683000000000000000000",
      "reserved": "",
      "salt": "0x9e1cf8660c91e1253e8eb24a8970aee875acc40b72ee3122a50fc455ef3d9b72",
      "assetIds": [
        "41506478881403507969696680653240014914910929820314476107906210059990541021186"
      ]
    },
    {
      "x": 96,
      "y": 4,
      "size": 1,
      "price": "4683000000000000000000",
      "reserved": "",
      "salt": "0x109b28bdf5cb0829458330198fe34e097566d052194e1e32e81e2d284e279061",
      "assetIds": [
        "41506478881403507969696680653240014914910929820314476107906210059990541021186"
      ]
    },
    {
      "x": 96,
      "y": 5,
      "size": 1,
      "price": "4683000000000000000000",
      "reserved": "",
      "salt": "0x843451194df47d388f5df12fcbdb197ed9e32b4b9d0f7045eb9b9cbdc92bfeb0",
      "assetIds": [
        "41506478881403507969696680653240014914910929820314476107906210059990541021185"
      ]
    },
    {
      "x": 96,
      "y": 12,
      "size": 1,
      "price": "4683000000000000000000",
      "reserved": "",
      "salt": "0x25d956b3ad2aaf847e33fb780c036bfaa1bc81921fb9199296223c6468607d3d",
      "assetIds": [
        "41506478881403507969696680653240014914910929820314476107906210059990541021186"
      ]
    },
    {
      "x": 96,
      "y": 13,
      "size": 1,
      "price": "4683000000000000000000",
      "reserved": "",
      "salt": "0x9fd968676f8d1eea05478b4953dea1c1e2086362b364e4c1b5bbc37ed7078a38",
      "assetIds": [
        "41506478881403507969696680653240014914910929820314476107906210059990541021185"
      ]
    },
    {
      "x": 96,
      "y": 14,
      "size": 1,
      "price": "4683000000000000000000",
      "reserved": "",
      "salt": "0x9aefb20802e37db4f48b366eac4a6899eb7bb93bba1b896eb9e2ba9a544f8dee",
      "assetIds": [
        "41506478881403507969696680653240014914910929820314476107906210059990541021185"
      ]
    },
    {
      "x": 96,
      "y": 21,
      "size": 1,
      "price": "4683000000000000000000",
      "reserved": "",
      "salt": "0x52783d86bab1fcc0ae4a3b1a44f9d5f3c5cef147533c55488a9bb763e2bf8a66",
      "assetIds": [
        "41506478881403507969696680653240014914910929820314476107906210059990541021186"
      ]
    },
    {
      "x": 97,
      "y": 0,
      "size": 1,
      "price": "1011000000000000000000",
      "reserved": "",
      "salt": "0x605f733aecaf751afc89f97d7af931cb5fdaddab250e3bcc9fd4300f2b3505ff",
      "assetIds": []
    },
    {
      "x": 97,
      "y": 1,
      "size": 1,
      "price": "1011000000000000000000",
      "reserved": "",
      "salt": "0x2d0efe7d5abfe843a3d4890b5059f821203588dd4d9f856d34c32af2bb124068",
      "assetIds": []
    },
    {
      "x": 97,
      "y": 2,
      "size": 1,
      "price": "1011000000000000000000",
      "reserved": "",
      "salt": "0x67f4227c09ffadb09f68573e38c49826ce598dd619266550444f10dfc3e2e535",
      "assetIds": []
    },
    {
      "x": 97,
      "y": 3,
      "size": 1,
      "price": "1011000000000000000000",
      "reserved": "",
      "salt": "0x348d98e4c436fe00dc6771587bb13a1b85e725f654e6e5e266d089c8949e4b2a",
      "assetIds": []
    },
    {
      "x": 97,
      "y": 4,
      "size": 1,
      "price": "1011000000000000000000",
      "reserved": "",
      "salt": "0x996bb5aee3c9e1ada7dd1b093caa9064049d7ec087f03bb8a369ce4fcecf8f31",
      "assetIds": []
    },
    {
      "x": 97,
      "y": 5,
      "size": 1,
      "price": "1011000000000000000000",
      "reserved": "",
      "salt": "0x3a45fbbb4f4066272281a3d7105755627b26a7b15183825bc3ad485d00d3efe2",
      "assetIds": []
    },
    {
      "x": 97,
      "y": 12,
      "size": 1,
      "price": "1011000000000000000000",
      "reserved": "",
      "salt": "0x2132561aec9a453556d861ba3674f96ca824abd0fcc4e9546420fe4aaa1a89da",
      "assetIds": []
    },
    {
      "x": 97,
      "y": 13,
      "size": 1,
      "price": "1011000000000000000000",
      "reserved": "",
      "salt": "0x1a0975c3fdbbd7d5c75c261ebb907fe9f0e02dc94405063fa79bf73c9462957b",
      "assetIds": []
    },
    {
      "x": 97,
      "y": 14,
      "size": 1,
      "price": "1011000000000000000000",
      "reserved": "",
      "salt": "0x6a679f3ae3adc62b215c8fc65a92ac0fac5466edef925c8cb624c2e139528be8",
      "assetIds": []
    },
    {
      "x": 97,
      "y": 21,
      "size": 1,
      "price": "4683000000000000000000",
      "reserved": "",
      "salt": "0x38063c454240358773ca098ce221dafd11b6d9339c76eb83fd1042c9be87c69e",
      "assetIds": [
        "41506478881403507969696680653240014914910929820314476107906210059990541021185"
      ]
    },
    {
      "x": 98,
      "y": 0,
      "size": 1,
      "price": "1011000000000000000000",
      "reserved": "",
      "salt": "0x7be8e903058980cf98330149539e9861ec340269909b1b109c8b461cb7b7bb62",
      "assetIds": []
    },
    {
      "x": 98,
      "y": 1,
      "size": 1,
      "price": "1011000000000000000000",
      "reserved": "",
      "salt": "0x27124cbc524a1dfed711a62c282eb10f2b8b9ee6cbaffeef7cb48ef71b4bb7eb",
      "assetIds": []
    },
    {
      "x": 98,
      "y": 2,
      "size": 1,
      "price": "1011000000000000000000",
      "reserved": "",
      "salt": "0x4ab9a944fe37267aa7417c99ede4dc3ec1cd60288d453b5c2a0f20ac3fdfcb75",
      "assetIds": []
    },
    {
      "x": 98,
      "y": 3,
      "size": 1,
      "price": "1011000000000000000000",
      "reserved": "",
      "salt": "0x3f8bcbf4e533148e3fbdeb77860b3d31f61763f7f4160118aa990c5c3b237f4a",
      "assetIds": []
    },
    {
      "x": 98,
      "y": 4,
      "size": 1,
      "price": "1011000000000000000000",
      "reserved": "",
      "salt": "0x346d5fdd182165c7eaa6046a9bdcdb5540ff9932a97eb94589b4409d443fe023",
      "assetIds": []
    },
    {
      "x": 98,
      "y": 5,
      "size": 1,
      "price": "1011000000000000000000",
      "reserved": "",
      "salt": "0x3d3494f37eeb740a59d6aafc14cbed40d8ac142463ca84b3944829c3f6bb412f",
      "assetIds": []
    },
    {
      "x": 98,
      "y": 12,
      "size": 1,
      "price": "1011000000000000000000",
      "reserved": "",
      "salt": "0xc430ef84cfe2442941d6e01c82fe200ad26e4ecc65ba8ede81ca6e57d26988fe",
      "assetIds": []
    },
    {
      "x": 98,
      "y": 13,
      "size": 1,
      "price": "1011000000000000000000",
      "reserved": "",
      "salt": "0x044f382466595acecd5693e4968d1c27283fb54211c47501e4acc433ac539e98",
      "assetIds": []
    },
    {
      "x": 98,
      "y": 14,
      "size": 1,
      "price": "1011000000000000000000",
      "reserved": "",
      "salt": "0xbae7914ddcb8189c17b930c4e87f7a08236de743c187dc69b2e35ecd6fd33890",
      "assetIds": []
    },
    {
      "x": 98,
      "y": 21,
      "size": 1,
      "price": "4683000000000000000000",
      "reserved": "",
      "salt": "0x3c86fc452f7b1c6bfaa460068b0db77acdf258bff27e000eada66058a62a5736",
      "assetIds": [
        "41506478881403507969696680653240014914910929820314476107906210059990541021186"
      ]
    },
    {
      "x": 99,
      "y": 0,
      "size": 1,
      "price": "1011000000000000000000",
      "reserved": "",
      "salt": "0x1721f224d9e690af3a35d0464003c44df9ff009e1422eb571134bf6bcc40e3c6",
      "assetIds": []
    },
    {
      "x": 99,
      "y": 1,
      "size": 1,
      "price": "1011000000000000000000",
      "reserved": "",
      "salt": "0xb07a6f7c4771469440bebe1a3d6284b4aa2fd72d571b94fe8624d32d8746ca3a",
      "assetIds": []
    },
    {
      "x": 99,
      "y": 2,
      "size": 1,
      "price": "1011000000000000000000",
      "reserved": "",
      "salt": "0x4f2565a99aa377c295ce0876a2701d50262bf8536e7be98968e81553aa4cbb03",
      "assetIds": []
    },
    {
      "x": 99,
      "y": 12,
      "size": 1,
      "price": "1011000000000000000000",
      "reserved": "",
      "salt": "0xa3a20a1d67a5a040eb70ff6d7fdd0eced9ca4a7f08297f1e000b0324531b4c77",
      "assetIds": []
    },
    {
      "x": 99,
      "y": 13,
      "size": 1,
      "price": "1011000000000000000000",
      "reserved": "",
      "salt": "0x99e040481a56398bd7effe90399baf557f93d94f5aea8d859a91973e93d42f50",
      "assetIds": []
    },
    {
      "x": 99,
      "y": 14,
      "size": 1,
      "price": "1011000000000000000000",
      "reserved": "",
      "salt": "0x0d6600f6442bb0f879cfbd75353f58125bbe3dc3fdf847817f83f838c8ebf4cf",
      "assetIds": []
    },
    {
      "x": 99,
      "y": 15,
      "size": 1,
      "price": "1011000000000000000000",
      "reserved": "",
      "salt": "0xa3769d65142dd2bf33683e4fda5c3605599fb66baea4b055b4eb1767135cf95f",
      "assetIds": []
    },
    {
      "x": 99,
      "y": 16,
      "size": 1,
      "price": "1011000000000000000000",
      "reserved": "",
      "salt": "0x8640be5338f942609d60b396ce81ba907bfe32005cb25a853185b3e778d0ef54",
      "assetIds": []
    },
    {
      "x": 99,
      "y": 17,
      "size": 1,
      "price": "1011000000000000000000",
      "reserved": "",
      "salt": "0x120b68a51303ee1693dc24d446220339b3d644a87c46592e8ca2161d2b6826c6",
      "assetIds": []
    },
    {
      "x": 99,
      "y": 21,
      "size": 1,
      "price": "1011000000000000000000",
      "reserved": "",
      "salt": "0x9a85d1328753056b977462d2abc36a71f5e94b810585a8494bfd3a0b99375b0f",
      "assetIds": []
    },
    {
      "x": 100,
      "y": 0,
      "size": 1,
      "price": "1011000000000000000000",
      "reserved": "",
      "salt": "0x7517b9031b47df20f79c97421357e2950555399ec51099c6d4b3f8eafd857316",
      "assetIds": []
    },
    {
      "x": 100,
      "y": 1,
      "size": 1,
      "price": "1011000000000000000000",
      "reserved": "",
      "salt": "0xc43676f53e5ddb6113500e7b9b00ad146b0b260b049bd5823273ae1408ab1ba4",
      "assetIds": []
    },
    {
      "x": 100,
      "y": 2,
      "size": 1,
      "price": "1011000000000000000000",
      "reserved": "",
      "salt": "0x173c7c67e14fffd758a7ce0760cc90ef4504788a1a4eabdd149250ffa0eb32a6",
      "assetIds": []
    },
    {
      "x": 100,
      "y": 12,
      "size": 1,
      "price": "1011000000000000000000",
      "reserved": "",
      "salt": "0x91ac1ef50e0b865e304f28e8448e2d08d331fdba96f17ed7d8469643156dcada",
      "assetIds": []
    },
    {
      "x": 100,
      "y": 13,
      "size": 1,
      "price": "1011000000000000000000",
      "reserved": "",
      "salt": "0xf97c70783fcd44d45ab358705b166cf990f420c71f6ee7cc62b90dd5405d9b32",
      "assetIds": []
    },
    {
      "x": 100,
      "y": 14,
      "size": 1,
      "price": "1011000000000000000000",
      "reserved": "",
      "salt": "0xe1726d10fba94a7996cfa5bd2ab726f63c601b01ee9dd5186b3b443d837071cd",
      "assetIds": []
    },
    {
      "x": 100,
      "y": 15,
      "size": 1,
      "price": "1011000000000000000000",
      "reserved": "",
      "salt": "0x021d9a7f5f6644db7a6aeb5a83b3b983a4849c528711e54ed3e5b568b467ff04",
      "assetIds": []
    },
    {
      "x": 100,
      "y": 16,
      "size": 1,
      "price": "1011000000000000000000",
      "reserved": "",
      "salt": "0x9d9dda927bca139541f81c1b1a10d6f3f8627f8ddb50c1622d949235e0b6457e",
      "assetIds": []
    },
    {
      "x": 100,
      "y": 17,
      "size": 1,
      "price": "1011000000000000000000",
      "reserved": "",
      "salt": "0x8290da881e2f545929d3a33b254e88ef6ab5b4343d994df652ac0b6888da0030",
      "assetIds": []
    },
    {
      "x": 100,
      "y": 21,
      "size": 1,
      "price": "1011000000000000000000",
      "reserved": "",
      "salt": "0x01fc56560dbc5d02ef5d206423f98c7195b2dd798c008390bce8f72df9b0c698",
      "assetIds": []
    },
    {
      "x": 101,
      "y": 0,
      "size": 1,
      "price": "1011000000000000000000",
      "reserved": "",
      "salt": "0x0f85e2d595423d2243bd85097b51ede6cad1c9566b7c9c63513ae3c34746e28f",
      "assetIds": []
    },
    {
      "x": 101,
      "y": 1,
      "size": 1,
      "price": "1011000000000000000000",
      "reserved": "",
      "salt": "0xb1cebf8be950467e92f847636823e51cd92f5c3ec510da3e84a363bedee2ebae",
      "assetIds": []
    },
    {
      "x": 101,
      "y": 2,
      "size": 1,
      "price": "1011000000000000000000",
      "reserved": "",
      "salt": "0xb71453778e8a39d9204712c13649109cd11937ba2c51a18c0f68829c832fb28a",
      "assetIds": []
    },
    {
      "x": 101,
      "y": 12,
      "size": 1,
      "price": "4683000000000000000000",
      "reserved": "",
      "salt": "0xf4dc07127aeb7dc2df2351cb5d9e9978a3b90d32413aa0b295a839fe59d47c84",
      "assetIds": [
        "41506478881403507969696680653240014914910929820314476107906210059990541021186"
      ]
    },
    {
      "x": 101,
      "y": 13,
      "size": 1,
      "price": "4683000000000000000000",
      "reserved": "",
      "salt": "0x69b20a92351b2dd733538bf4e8ef34a0e17f014c8871037d827f2902553ad256",
      "assetIds": [
        "41506478881403507969696680653240014914910929820314476107906210059990541021186"
      ]
    },
    {
      "x": 101,
      "y": 14,
      "size": 1,
      "price": "4683000000000000000000",
      "reserved": "",
      "salt": "0x0527f82067d01a5dcc36662f1ba7f6f0e0565a4e43736116d5593a685349d748",
      "assetIds": [
        "41506478881403507969696680653240014914910929820314476107906210059990541021186"
      ]
    },
    {
      "x": 101,
      "y": 15,
      "size": 1,
      "price": "4683000000000000000000",
      "reserved": "",
      "salt": "0xe131e7503b59a3e8d3a13d5da99fa137e1897900acc4e7b69c6cbe143e5845bc",
      "assetIds": [
        "41506478881403507969696680653240014914910929820314476107906210059990541021185"
      ]
    },
    {
      "x": 101,
      "y": 16,
      "size": 1,
      "price": "4683000000000000000000",
      "reserved": "",
      "salt": "0x6edc0478f67c83615b4b25009580dfec2cfaa9c30cd1a1dcb7bf6b1f36c53c32",
      "assetIds": [
        "41506478881403507969696680653240014914910929820314476107906210059990541021185"
      ]
    },
    {
      "x": 101,
      "y": 17,
      "size": 1,
      "price": "4683000000000000000000",
      "reserved": "",
      "salt": "0xc1ac4094594443f6aafeb2857d148f9b06ddbaed3ced9ca06b36443ece126c73",
      "assetIds": [
        "41506478881403507969696680653240014914910929820314476107906210059990541021186"
      ]
    },
    {
      "x": 101,
      "y": 21,
      "size": 1,
      "price": "1011000000000000000000",
      "reserved": "",
      "salt": "0x1254c8bdada2bc13400a3a02bcf3393328674a46e8b0a07875ffafdeccecb47b",
      "assetIds": []
    },
    {
      "x": 102,
      "y": 0,
      "size": 1,
      "price": "1011000000000000000000",
      "reserved": "",
      "salt": "0xf3fbf9563f58c52a11b4c3520227fd3f904f66106485b477401d6e4d5b04a9e1",
      "assetIds": []
    },
    {
      "x": 102,
      "y": 1,
      "size": 1,
      "price": "1011000000000000000000",
      "reserved": "",
      "salt": "0x2afb9ffe89aca035fc98fd02a447d630ce00fa365ac2655716e21ed6b14bfeca",
      "assetIds": []
    },
    {
      "x": 102,
      "y": 2,
      "size": 1,
      "price": "1011000000000000000000",
      "reserved": "",
      "salt": "0xbfc0f5af2bbc05625a7c4f47372043618c6d355e8914f620175273cf2cd03295",
      "assetIds": []
    },
    {
      "x": 102,
      "y": 3,
      "size": 1,
      "price": "1011000000000000000000",
      "reserved": "",
      "salt": "0x49c75b9d6a89297c683694b205ac0b43a75e9f3a81d77433786c2224cded4482",
      "assetIds": []
    },
    {
      "x": 102,
      "y": 4,
      "size": 1,
      "price": "1011000000000000000000",
      "reserved": "",
      "salt": "0xe16f6c8a021f5e0b1788a977371266a8e693691f6279d6e69e34c075c0a7388b",
      "assetIds": []
    },
    {
      "x": 102,
      "y": 5,
      "size": 1,
      "price": "4683000000000000000000",
      "reserved": "",
      "salt": "0xe569642bdc7111be2bbdc02ff8509e0250bfb369bc1d31bd08bface567ec408b",
      "assetIds": [
        "41506478881403507969696680653240014914910929820314476107906210059990541021185"
      ]
    },
    {
      "x": 102,
      "y": 9,
      "size": 1,
      "price": "4683000000000000000000",
      "reserved": "",
      "salt": "0x45e85ed737d6f431e8eb0d62ddd09fb97ecb86b300df1aa0887df108257615ce",
      "assetIds": [
        "41506478881403507969696680653240014914910929820314476107906210059990541021185"
      ]
    },
    {
      "x": 102,
      "y": 10,
      "size": 1,
      "price": "1011000000000000000000",
      "reserved": "",
      "salt": "0xf7b2cce70b807c42b40e8e1e62909acbe4c6fb86bbf8a55014bd26004c5b0551",
      "assetIds": []
    },
    {
      "x": 102,
      "y": 11,
      "size": 1,
      "price": "4683000000000000000000",
      "reserved": "",
      "salt": "0x1ab1b8d8d7ebb8872dc0ac57b09b3ad7776692df2f80cda461f8e98e5fdb0093",
      "assetIds": [
        "41506478881403507969696680653240014914910929820314476107906210059990541021186"
      ]
    },
    {
      "x": 102,
      "y": 18,
      "size": 1,
      "price": "4683000000000000000000",
      "reserved": "",
      "salt": "0xe600c9b31bf2020ffdf1bf788e78444b928a744db21b9cecfb637bb660f726a4",
      "assetIds": [
        "41506478881403507969696680653240014914910929820314476107906210059990541021186"
      ]
    },
    {
      "x": 102,
      "y": 19,
      "size": 1,
      "price": "1011000000000000000000",
      "reserved": "",
      "salt": "0x1a560eab7ffe5f14f6274f14627120c84605b6104c23fedde8a69b4b445443be",
      "assetIds": []
    },
    {
      "x": 102,
      "y": 20,
      "size": 1,
      "price": "1011000000000000000000",
      "reserved": "",
      "salt": "0x23eaf28568cbea661a947d218f8b6e63e078c9042720f6d40d51fe09af3aaeb0",
      "assetIds": []
    },
    {
      "x": 102,
      "y": 21,
      "size": 1,
      "price": "1011000000000000000000",
      "reserved": "",
      "salt": "0x84e20e4d8886aa83177a3cefc85a13714629d061c7bf4eac189d05dd1d51bf40",
      "assetIds": []
    },
    {
      "x": 103,
      "y": 0,
      "size": 1,
      "price": "1011000000000000000000",
      "reserved": "",
      "salt": "0x4c62803115825cb69f1fb47b4407e1b8b7bcd964e7de93b91d51c9d26f81b476",
      "assetIds": []
    },
    {
      "x": 103,
      "y": 1,
      "size": 1,
      "price": "1011000000000000000000",
      "reserved": "",
      "salt": "0x8364c91b79dc7e0ca15d205aaaa9b0e4e84a1fbca508d2e4202aec32c7a5605b",
      "assetIds": []
    },
    {
      "x": 103,
      "y": 2,
      "size": 1,
      "price": "1011000000000000000000",
      "reserved": "",
      "salt": "0x938174990a23ee6676928900c48735e0947dbeff80bbd4be7cec3752a9a48516",
      "assetIds": []
    },
    {
      "x": 103,
      "y": 3,
      "size": 1,
      "price": "1011000000000000000000",
      "reserved": "",
      "salt": "0x8264b33299a321a432b3ca155c801f5a2e8db07dc51fd004f003cb30da528ee0",
      "assetIds": []
    },
    {
      "x": 103,
      "y": 4,
      "size": 1,
      "price": "1011000000000000000000",
      "reserved": "",
      "salt": "0x747cf55278712835148ff83dfe1bc7f80f0f4202294ccb143220b059dabbe94e",
      "assetIds": []
    },
    {
      "x": 103,
      "y": 5,
      "size": 1,
      "price": "4683000000000000000000",
      "reserved": "",
      "salt": "0x043bf643b49f1b6475d0597e7d45cbd06431a1be99fb6c80aaf06ecbe8dbef8b",
      "assetIds": [
        "41506478881403507969696680653240014914910929820314476107906210059990541021185"
      ]
    },
    {
      "x": 103,
      "y": 9,
      "size": 1,
      "price": "4683000000000000000000",
      "reserved": "",
      "salt": "0x2a8d9c6d0e8a48157ac50c8d4f9ca191e375b16e25b36e0ec44f1bb743876a10",
      "assetIds": [
        "41506478881403507969696680653240014914910929820314476107906210059990541021185"
      ]
    },
    {
      "x": 103,
      "y": 10,
      "size": 1,
      "price": "1011000000000000000000",
      "reserved": "",
      "salt": "0x996d80294d9600076d851a52465c6c60dd28934740d28a436a3fd3eb0743ec53",
      "assetIds": []
    },
    {
      "x": 103,
      "y": 11,
      "size": 1,
      "price": "4683000000000000000000",
      "reserved": "",
      "salt": "0x507f7e5ddc4baa164f1ae209236d10e022c93a9841216b5010e384f9c7c38af7",
      "assetIds": [
        "41506478881403507969696680653240014914910929820314476107906210059990541021185"
      ]
    },
    {
      "x": 103,
      "y": 18,
      "size": 1,
      "price": "4683000000000000000000",
      "reserved": "",
      "salt": "0x04fb710f95afc2b381265d36ed22eb6ec38ed1d85ff08c00c4159ed7b14a43c3",
      "assetIds": [
        "41506478881403507969696680653240014914910929820314476107906210059990541021185"
      ]
    },
    {
      "x": 103,
      "y": 19,
      "size": 1,
      "price": "1011000000000000000000",
      "reserved": "",
      "salt": "0xef2c8599a7face4f8bbdbbb409a313eec327ce07e9f19a9067891e0a45a5cb95",
      "assetIds": []
    },
    {
      "x": 103,
      "y": 20,
      "size": 1,
      "price": "1011000000000000000000",
      "reserved": "",
      "salt": "0xdcfd9bccb31147c1f268872af1ceba4e09266f3891351212f99633809d58371a",
      "assetIds": []
    },
    {
      "x": 103,
      "y": 21,
      "size": 1,
      "price": "1011000000000000000000",
      "reserved": "",
      "salt": "0x38440ff920abdb034ac99bc6d6fde720fe889e8f7b1f8f179bf9ecf794694b6a",
      "assetIds": []
    },
    {
      "x": 104,
      "y": 0,
      "size": 1,
      "price": "1011000000000000000000",
      "reserved": "",
      "salt": "0x125bb87b5d67ec9966b84f1613411ece502ad2a7dcffa259b9851fa7a24bbacc",
      "assetIds": []
    },
    {
      "x": 104,
      "y": 1,
      "size": 1,
      "price": "1011000000000000000000",
      "reserved": "",
      "salt": "0x84e8ec13ba9bdb13953f129fe241247db705c4693a52d361a64ddd015402a4c2",
      "assetIds": []
    },
    {
      "x": 104,
      "y": 2,
      "size": 1,
      "price": "1011000000000000000000",
      "reserved": "",
      "salt": "0x154f6edab164791a8310947e34778e8e945991ced1f12244adc8a2cd366bcebb",
      "assetIds": []
    },
    {
      "x": 104,
      "y": 3,
      "size": 1,
      "price": "1011000000000000000000",
      "reserved": "",
      "salt": "0x7da18322c90712f10b43bd434888148b7efc17112186ed091877199badabd82b",
      "assetIds": []
    },
    {
      "x": 104,
      "y": 4,
      "size": 1,
      "price": "1011000000000000000000",
      "reserved": "",
      "salt": "0xda96343cec2bb7b6b9178f9d84a58bf5e4aac44def09d4ae79a598763063c0f5",
      "assetIds": []
    },
    {
      "x": 104,
      "y": 5,
      "size": 1,
      "price": "4683000000000000000000",
      "reserved": "",
      "salt": "0x018ba520390d499faa643156ba1f12ec75af76da97f28452b160eae92d85ab2b",
      "assetIds": [
        "41506478881403507969696680653240014914910929820314476107906210059990541021186"
      ]
    },
    {
      "x": 104,
      "y": 9,
      "size": 1,
      "price": "4683000000000000000000",
      "reserved": "",
      "salt": "0xb564f3257afb40aa2c1afc3af1e91338bf749ce30c8a2a4a45ac4b0cabc728a5",
      "assetIds": [
        "41506478881403507969696680653240014914910929820314476107906210059990541021185"
      ]
    },
    {
      "x": 104,
      "y": 10,
      "size": 1,
      "price": "1011000000000000000000",
      "reserved": "",
      "salt": "0x6634347a951429651e5a9b101ca64db8adf58756afb07ee963df3dc19ede4c68",
      "assetIds": []
    },
    {
      "x": 104,
      "y": 11,
      "size": 1,
      "price": "4683000000000000000000",
      "reserved": "",
      "salt": "0xbb1d0d6a38dd68c8734cfbd80bc916a8594311c3d9a7fec20efe22814971424d",
      "assetIds": [
        "41506478881403507969696680653240014914910929820314476107906210059990541021186"
      ]
    },
    {
      "x": 104,
      "y": 18,
      "size": 1,
      "price": "4683000000000000000000",
      "reserved": "",
      "salt": "0xd231b565705ee3a0f6293018f7f880a3861aef4c66ffb1e6238fbdb013760491",
      "assetIds": [
        "41506478881403507969696680653240014914910929820314476107906210059990541021186"
      ]
    },
    {
      "x": 104,
      "y": 19,
      "size": 1,
      "price": "1011000000000000000000",
      "reserved": "",
      "salt": "0xe816ba71860bb8dd7b0c95d8447c20811630344df13cb7ccca9f039d7c9886fa",
      "assetIds": []
    },
    {
      "x": 104,
      "y": 20,
      "size": 1,
      "price": "1011000000000000000000",
      "reserved": "",
      "salt": "0x6c3547b802c56597c78830a05945b91d19dc7b1f533fc91d63674a8639627aae",
      "assetIds": []
    },
    {
      "x": 104,
      "y": 21,
      "size": 1,
      "price": "1011000000000000000000",
      "reserved": "",
      "salt": "0x361f6c030c5a32693aecdfe84aeb658830ee7edf77de26c64308c0772ba35576",
      "assetIds": []
    },
    {
      "x": 105,
      "y": 0,
      "size": 1,
      "price": "1011000000000000000000",
      "reserved": "",
      "salt": "0xf00d3452f5e51b0dae677f9a5b9b86f1895d7a1bb71b659ea72a5c538b5a256b",
      "assetIds": []
    },
    {
      "x": 105,
      "y": 1,
      "size": 1,
      "price": "1011000000000000000000",
      "reserved": "",
      "salt": "0xf9b5600bfcbd5a11c90dba40e7bbd67839d39d412861d7c2d08307e68e2215ba",
      "assetIds": []
    },
    {
      "x": 105,
      "y": 2,
      "size": 1,
      "price": "1011000000000000000000",
      "reserved": "",
      "salt": "0xecccaa3d8352da792b0f5f29201169c07cbc305663a14f5dfc742e7337ea0670",
      "assetIds": []
    },
    {
      "x": 105,
      "y": 3,
      "size": 1,
      "price": "1011000000000000000000",
      "reserved": "",
      "salt": "0x2451d4a8cf9cd4c5b26d907f281e1c12c39d6ad3b5571903994bfd269e274d3c",
      "assetIds": []
    },
    {
      "x": 105,
      "y": 4,
      "size": 1,
      "price": "1011000000000000000000",
      "reserved": "",
      "salt": "0x0bce70e4b406b153493fffdbcbbdf902e9f1fed59b8b37f3c43858681419cf41",
      "assetIds": []
    },
    {
      "x": 105,
      "y": 5,
      "size": 1,
      "price": "1011000000000000000000",
      "reserved": "",
      "salt": "0xf1b6f1fb311df9ccac8746ae6b55d406fc22c4afc9038a59d35ae144bcc76564",
      "assetIds": []
    },
    {
      "x": 105,
      "y": 6,
      "size": 1,
      "price": "4683000000000000000000",
      "reserved": "",
      "salt": "0xb8f639e25d93c84b1312976416637cb3a2487870a3c022b1b62e862f5478ef20",
      "assetIds": [
        "41506478881403507969696680653240014914910929820314476107906210059990541021186"
      ]
    },
    {
      "x": 105,
      "y": 7,
      "size": 1,
      "price": "4683000000000000000000",
      "reserved": "",
      "salt": "0x73ebcd576b9c0ca1f9d8f767abfc2ce66791d87e368cb0e8a58dbf6af1960a9a",
      "assetIds": [
        "41506478881403507969696680653240014914910929820314476107906210059990541021185"
      ]
    },
    {
      "x": 105,
      "y": 8,
      "size": 1,
      "price": "4683000000000000000000",
      "reserved": "",
      "salt": "0x79e7e8e5c668a3d81eb6032954343f3f51e9529f54480a61d611badef8666099",
      "assetIds": [
        "41506478881403507969696680653240014914910929820314476107906210059990541021185"
      ]
    },
    {
      "x": 105,
      "y": 18,
      "size": 1,
      "price": "4683000000000000000000",
      "reserved": "",
      "salt": "0xc88b0ef537ca3b5e08cdf28fee9fdedb917485f8fe23fb4769cd3f276ace779a",
      "assetIds": [
        "41506478881403507969696680653240014914910929820314476107906210059990541021186"
      ]
    },
    {
      "x": 105,
      "y": 19,
      "size": 1,
      "price": "1011000000000000000000",
      "reserved": "",
      "salt": "0x5c2e82d6a72df7ed3239bf9a32ae07d42955b2b75b694ceacac5597414d4ec03",
      "assetIds": []
    },
    {
      "x": 105,
      "y": 20,
      "size": 1,
      "price": "1011000000000000000000",
      "reserved": "",
      "salt": "0xd504078720f69a610131aeb117f80a062c2294534819cc062feed849f59186d0",
      "assetIds": []
    },
    {
      "x": 105,
      "y": 21,
      "size": 1,
      "price": "1011000000000000000000",
      "reserved": "",
      "salt": "0xd534792832403110abde8316146ad32732b2933cce4d7d7862bdbb7be5abacb7",
      "assetIds": []
    },
    {
      "x": 106,
      "y": 0,
      "size": 1,
      "price": "1011000000000000000000",
      "reserved": "",
      "salt": "0x448f81934c9f06b485447881f7615c7414a429240b1d28565e8df6934f392a82",
      "assetIds": []
    },
    {
      "x": 106,
      "y": 1,
      "size": 1,
      "price": "1011000000000000000000",
      "reserved": "",
      "salt": "0x9186b0d052495326d77d22332d4ab75cd74d4b4766d471741f9d0ef8cdfc899a",
      "assetIds": []
    },
    {
      "x": 106,
      "y": 2,
      "size": 1,
      "price": "1011000000000000000000",
      "reserved": "",
      "salt": "0x264d2dc33008ab0607bc02cafa2070ebf74c43807fd3dbd2cf05e4438c964318",
      "assetIds": []
    },
    {
      "x": 106,
      "y": 3,
      "size": 1,
      "price": "1011000000000000000000",
      "reserved": "",
      "salt": "0x8fc39e7a6a1c3d4608f30db97ec413cff9994ea863b28eef417d2ba4f47a9d1b",
      "assetIds": []
    },
    {
      "x": 106,
      "y": 4,
      "size": 1,
      "price": "1011000000000000000000",
      "reserved": "",
      "salt": "0x6cf62287d3d706498c7ddde71f5f3cf331ce7af093a5f7d618f9a02f1e2ba22b",
      "assetIds": []
    },
    {
      "x": 106,
      "y": 5,
      "size": 1,
      "price": "1011000000000000000000",
      "reserved": "",
      "salt": "0x9f7c1e477095ae33bb03f2d920fcd66edc1f2fc0a52d39b242381b8e09b4f229",
      "assetIds": []
    },
    {
      "x": 106,
      "y": 6,
      "size": 1,
      "price": "1011000000000000000000",
      "reserved": "",
      "salt": "0x10eb039f2441acfc4da423ac8ffb33fb4cd2abef13d09b6acbac9b2dcabce5e1",
      "assetIds": []
    },
    {
      "x": 106,
      "y": 7,
      "size": 1,
      "price": "1011000000000000000000",
      "reserved": "",
      "salt": "0xd8928602e655033d9a96c5145575b6959a0065872f6b8197eac0078803bab3ec",
      "assetIds": []
    },
    {
      "x": 106,
      "y": 8,
      "size": 1,
      "price": "4683000000000000000000",
      "reserved": "",
      "salt": "0x05dcfa65ba80fc357cdf8d1002cbc106095cc24e08684066459faf6d13585cff",
      "assetIds": [
        "41506478881403507969696680653240014914910929820314476107906210059990541021185"
      ]
    },
    {
      "x": 106,
      "y": 18,
      "size": 1,
      "price": "4683000000000000000000",
      "reserved": "",
      "salt": "0xd3c64446cf30d27be3d5156df8f7b3053b14f792ce680ff2fcd963d856ae494e",
      "assetIds": [
        "41506478881403507969696680653240014914910929820314476107906210059990541021185"
      ]
    },
    {
      "x": 106,
      "y": 19,
      "size": 1,
      "price": "1011000000000000000000",
      "reserved": "",
      "salt": "0xbb360c07e30a26d51c2891913c91ea227d6d8fd8f88dce954118433d62f7d93c",
      "assetIds": []
    },
    {
      "x": 106,
      "y": 20,
      "size": 1,
      "price": "1011000000000000000000",
      "reserved": "",
      "salt": "0xcf7d55d23613f28807449f676eb8e70990187d1d8ca2bf3d8974d25582bcdb6a",
      "assetIds": []
    },
    {
      "x": 106,
      "y": 21,
      "size": 1,
      "price": "1011000000000000000000",
      "reserved": "",
      "salt": "0xba7f905dd1ba2ae2343bc39b090114ec98974fadf35779027f6897da0f0012af",
      "assetIds": []
    },
    {
      "x": 107,
      "y": 0,
      "size": 1,
      "price": "4683000000000000000000",
      "reserved": "",
      "salt": "0xae8a8b3fa908111c3f5dae66e72753a37e3830ae6a722fc754568c6d4adefe94",
      "assetIds": [
        "41506478881403507969696680653240014914910929820314476107906210059990541021186"
      ]
    },
    {
      "x": 107,
      "y": 1,
      "size": 1,
      "price": "4683000000000000000000",
      "reserved": "",
      "salt": "0xc3233cdf31a7cc7f2349cbba4b2026287a72d80ac5590e0d5ddefa53cef0e0e4",
      "assetIds": [
        "41506478881403507969696680653240014914910929820314476107906210059990541021185"
      ]
    },
    {
      "x": 107,
      "y": 2,
      "size": 1,
      "price": "4683000000000000000000",
      "reserved": "",
      "salt": "0xd4a473309c6b4e3fada23be268736878ad3bb3d18323290288f188e297a980fa",
      "assetIds": [
        "41506478881403507969696680653240014914910929820314476107906210059990541021185"
      ]
    },
    {
      "x": 107,
      "y": 3,
      "size": 1,
      "price": "4683000000000000000000",
      "reserved": "",
      "salt": "0xce784dd93e9a75e4dcab6c3945e7c464fa70ad6c2596accfe8dc75b7053fd552",
      "assetIds": [
        "41506478881403507969696680653240014914910929820314476107906210059990541021185"
      ]
    },
    {
      "x": 107,
      "y": 4,
      "size": 1,
      "price": "4683000000000000000000",
      "reserved": "",
      "salt": "0x63b5908533f84626259d6a5a48ea84dc654bca77c65963aa06ac6cc92bc66c2a",
      "assetIds": [
        "41506478881403507969696680653240014914910929820314476107906210059990541021185"
      ]
    },
    {
      "x": 107,
      "y": 5,
      "size": 1,
      "price": "4683000000000000000000",
      "reserved": "",
      "salt": "0xd18d395857c444b8479db535fae9d65603c03406440539974b195b40c10bede4",
      "assetIds": [
        "41506478881403507969696680653240014914910929820314476107906210059990541021185"
      ]
    },
    {
      "x": 107,
      "y": 6,
      "size": 1,
      "price": "1011000000000000000000",
      "reserved": "",
      "salt": "0x60738f892bac146f3b6d3c72b7182c6c307566d924ea4ca8f79dac0bf0300e61",
      "assetIds": []
    },
    {
      "x": 107,
      "y": 7,
      "size": 1,
      "price": "1011000000000000000000",
      "reserved": "",
      "salt": "0x776a28ce8976fdb1bf318e8ae807185a94c920584d8c859a29d2befcb008cc0b",
      "assetIds": []
    },
    {
      "x": 107,
      "y": 8,
      "size": 1,
      "price": "4683000000000000000000",
      "reserved": "",
      "salt": "0x2399c7c13f7d62d2fad2802e771727966c278dfb5651d76cf60e4fca9e4d5a35",
      "assetIds": [
        "41506478881403507969696680653240014914910929820314476107906210059990541021186"
      ]
    },
    {
      "x": 107,
      "y": 18,
      "size": 1,
      "price": "4683000000000000000000",
      "reserved": "",
      "salt": "0x87db0d6bf5430bc5dcb052e67fe142351c34fb7708ee9bb806fa7c04fa5830e4",
      "assetIds": [
        "41506478881403507969696680653240014914910929820314476107906210059990541021185"
      ]
    },
    {
      "x": 107,
      "y": 19,
      "size": 1,
      "price": "1011000000000000000000",
      "reserved": "",
      "salt": "0xeaadfa0e86fb317079fa43c33c8997649549c79ec8335d098da304db2d075fdf",
      "assetIds": []
    },
    {
      "x": 107,
      "y": 20,
      "size": 1,
      "price": "1011000000000000000000",
      "reserved": "",
      "salt": "0xb267ed501d2a70d07ac9e8edda5e23b9dda792ccd96fc7b2ddf485bcf1745073",
      "assetIds": []
    },
    {
      "x": 107,
      "y": 21,
      "size": 1,
      "price": "1011000000000000000000",
      "reserved": "",
      "salt": "0x21f05212d402ad9d2f1a48d387a44e4aea2dd45f42738b287891c5fec93087cd",
      "assetIds": []
    },
    {
      "x": 108,
      "y": 6,
      "size": 1,
      "price": "4683000000000000000000",
      "reserved": "",
      "salt": "0xdb95723cc9eba1ffc967ab96c3fc90a193e6a8ba19b7ed44fe1b0535563af163",
      "assetIds": [
        "41506478881403507969696680653240014914910929820314476107906210059990541021185"
      ]
    },
    {
      "x": 108,
      "y": 7,
      "size": 1,
      "price": "1011000000000000000000",
      "reserved": "",
      "salt": "0xbb44094179c15f1755749739d12425b8910caf5af8bcc5f395d3b26b11ab2fed",
      "assetIds": []
    },
    {
      "x": 108,
      "y": 8,
      "size": 1,
      "price": "4683000000000000000000",
      "reserved": "",
      "salt": "0xd99fe86c1d7e68722ce9911257afc5c16b76d511131627f74f7cbb86b00ba700",
      "assetIds": [
        "41506478881403507969696680653240014914910929820314476107906210059990541021186"
      ]
    },
    {
      "x": 108,
      "y": 12,
      "size": 1,
      "price": "4683000000000000000000",
      "reserved": "",
      "salt": "0xa60ee17ba8c7904d42e4e17ed0bc98a390c746c1b79802f1696b711986010b2e",
      "assetIds": [
        "41506478881403507969696680653240014914910929820314476107906210059990541021186"
      ]
    },
    {
      "x": 108,
      "y": 13,
      "size": 1,
      "price": "4683000000000000000000",
      "reserved": "",
      "salt": "0x15d483180725f81f943e2ed61a18fe0fa8eabd0071c54fdf3c9ba256a372c8a7",
      "assetIds": [
        "41506478881403507969696680653240014914910929820314476107906210059990541021186"
      ]
    },
    {
      "x": 108,
      "y": 14,
      "size": 1,
      "price": "4683000000000000000000",
      "reserved": "",
      "salt": "0x8a5e5338f8ab28c06bf3b55933f877d296e83998c14d331906545c8652d1b38a",
      "assetIds": [
        "41506478881403507969696680653240014914910929820314476107906210059990541021185"
      ]
    },
    {
      "x": 108,
      "y": 15,
      "size": 1,
      "price": "4683000000000000000000",
      "reserved": "",
      "salt": "0xc901d051ea3eb07c90c87919be7c3f20ca8ffaf00f94efee8c93979671fc30e2",
      "assetIds": [
        "41506478881403507969696680653240014914910929820314476107906210059990541021186"
      ]
    },
    {
      "x": 108,
      "y": 16,
      "size": 1,
      "price": "4683000000000000000000",
      "reserved": "",
      "salt": "0x2379a7377fdb229925a7fc3a1d6991021961675f46ace302b734cfafe70cc0ac",
      "assetIds": [
        "41506478881403507969696680653240014914910929820314476107906210059990541021186"
      ]
    },
    {
      "x": 108,
      "y": 17,
      "size": 1,
      "price": "4683000000000000000000",
      "reserved": "",
      "salt": "0x9dbfc6d233efabd050dc05e678722fe4a37a27bddcf1f4c76a2e51884f2d3c8a",
      "assetIds": [
        "41506478881403507969696680653240014914910929820314476107906210059990541021185"
      ]
    },
    {
      "x": 108,
      "y": 21,
      "size": 1,
      "price": "1011000000000000000000",
      "reserved": "",
      "salt": "0xae022b782105f98a0641a2b32f34482d5a9aae464e079b7590e982d763d1c91c",
      "assetIds": []
    },
    {
      "x": 109,
      "y": 6,
      "size": 1,
      "price": "4683000000000000000000",
      "reserved": "",
      "salt": "0x075dde2878b9eddb057fd1b0ac52e2d235cdc1d00aff9a53a11402b388a9f058",
      "assetIds": [
        "41506478881403507969696680653240014914910929820314476107906210059990541021186"
      ]
    },
    {
      "x": 109,
      "y": 7,
      "size": 1,
      "price": "1011000000000000000000",
      "reserved": "",
      "salt": "0xb516ac9a7971c02ad042f5e6f83f2ea253f76c01b9060a3f2e8ce954049ace83",
      "assetIds": []
    },
    {
      "x": 109,
      "y": 8,
      "size": 1,
      "price": "4683000000000000000000",
      "reserved": "",
      "salt": "0xd15f50b05684b3e0789733bc179f0c901096fc42be4d84a360964246e8506dd3",
      "assetIds": [
        "41506478881403507969696680653240014914910929820314476107906210059990541021185"
      ]
    },
    {
      "x": 109,
      "y": 12,
      "size": 1,
      "price": "1011000000000000000000",
      "reserved": "",
      "salt": "0x9e939451fbb93149630d341e89c562c00cfadba1e31f3aec181631440ad36ff1",
      "assetIds": []
    },
    {
      "x": 109,
      "y": 13,
      "size": 1,
      "price": "1011000000000000000000",
      "reserved": "",
      "salt": "0x796fe2985b34f6c3097bb8fdb93bc881e33a0c6020b272e78e6411f331b32733",
      "assetIds": []
    },
    {
      "x": 109,
      "y": 14,
      "size": 1,
      "price": "1011000000000000000000",
      "reserved": "",
      "salt": "0x150a8571b505b0dce71ff8aa7f9cd57496a8ab7c89b8d4174feccfd67d569477",
      "assetIds": []
    },
    {
      "x": 109,
      "y": 15,
      "size": 1,
      "price": "1011000000000000000000",
      "reserved": "",
      "salt": "0xdd6e24aaf01b97855616c7fde0d1fca13db63bbffa589b64a03699da2e5a8f1a",
      "assetIds": []
    },
    {
      "x": 109,
      "y": 16,
      "size": 1,
      "price": "1011000000000000000000",
      "reserved": "",
      "salt": "0x1d3edb4a0d93e67c215139b4ce19eccb158f0d91e2a067f434a3497fd3f2b4d5",
      "assetIds": []
    },
    {
      "x": 109,
      "y": 17,
      "size": 1,
      "price": "1011000000000000000000",
      "reserved": "",
      "salt": "0x7aa5470b05903f9a28360600fcc0d0c5848edd326d9ac56acced1d4e0750922a",
      "assetIds": []
    },
    {
      "x": 109,
      "y": 21,
      "size": 1,
      "price": "1011000000000000000000",
      "reserved": "",
      "salt": "0xa62d736feaa3f09a3d99fafed777f476e001a9fcfd7285166341d380d28c8aa0",
      "assetIds": []
    },
    {
      "x": 110,
      "y": 6,
      "size": 1,
      "price": "4683000000000000000000",
      "reserved": "",
      "salt": "0x1b6e94374d00a7720e18db5efaf8f299a0f854229672f1d2638bcd19a040b44e",
      "assetIds": [
        "41506478881403507969696680653240014914910929820314476107906210059990541021185"
      ]
    },
    {
      "x": 110,
      "y": 7,
      "size": 1,
      "price": "1011000000000000000000",
      "reserved": "",
      "salt": "0x56411782c3e0322ab7026f89d6f1881000d71f4aac86424a6b099a5a9ba5e1a2",
      "assetIds": []
    },
    {
      "x": 110,
      "y": 8,
      "size": 1,
      "price": "4683000000000000000000",
      "reserved": "",
      "salt": "0x6280d9e4e8ed4b73cbe0908a0730a4874a1b5017bc31e767f4b9130508133628",
      "assetIds": [
        "41506478881403507969696680653240014914910929820314476107906210059990541021186"
      ]
    },
    {
      "x": 110,
      "y": 12,
      "size": 1,
      "price": "1011000000000000000000",
      "reserved": "",
      "salt": "0x36ea2691d81ef707bfd4c1511ff0ac677e832592d870c67f5a5e5903c43f6d3d",
      "assetIds": []
    },
    {
      "x": 110,
      "y": 13,
      "size": 1,
      "price": "1011000000000000000000",
      "reserved": "",
      "salt": "0x7c10adf2537ad77ff20800574f2cfbe837f66e80f03828cffc447e1cbf899141",
      "assetIds": []
    },
    {
      "x": 110,
      "y": 14,
      "size": 1,
      "price": "1011000000000000000000",
      "reserved": "",
      "salt": "0x94e8fa4b00b0410ed0a080215ddfbdbf8127eb3452fcb9d7e3cd5e67515d918b",
      "assetIds": []
    },
    {
      "x": 110,
      "y": 15,
      "size": 1,
      "price": "1011000000000000000000",
      "reserved": "",
      "salt": "0x09335443e79a04993a99ec89a46f99fe6ddfcd6b05c69d1b7cebd394c537ca7d",
      "assetIds": []
    },
    {
      "x": 110,
      "y": 16,
      "size": 1,
      "price": "1011000000000000000000",
      "reserved": "",
      "salt": "0x27b285352e04018215917c8a73d1a582c92ca1cef6040dacf1bb2acf9d10022a",
      "assetIds": []
    },
    {
      "x": 110,
      "y": 17,
      "size": 1,
      "price": "1011000000000000000000",
      "reserved": "",
      "salt": "0x4f3e2d0255e82e24ae5158a7d70ff349e072fcac89683acdb45c04fe0e920fc6",
      "assetIds": []
    },
    {
      "x": 110,
      "y": 21,
      "size": 1,
      "price": "1011000000000000000000",
      "reserved": "",
      "salt": "0x2656b5113476e87652d836db11f552f97a5a994ac9b87a3e10b9bb22f4a5597e",
      "assetIds": []
    },
    {
      "x": 111,
      "y": 6,
      "size": 1,
      "price": "4683000000000000000000",
      "reserved": "",
      "salt": "0xceb93ca601942331d841e7fc015771aaf7b3982b53f58f644d78df43deb22e92",
      "assetIds": [
        "41506478881403507969696680653240014914910929820314476107906210059990541021185"
      ]
    },
    {
      "x": 111,
      "y": 7,
      "size": 1,
      "price": "1011000000000000000000",
      "reserved": "",
      "salt": "0x729ec4ca730b1d04cda5c85d1ba210608b457978c4dcfe074ff835df69b4fbdf",
      "assetIds": []
    },
    {
      "x": 111,
      "y": 8,
      "size": 1,
      "price": "1011000000000000000000",
      "reserved": "",
      "salt": "0x7926697c24e1ec06b85d6bfc8fa0fdba3e4e6b15d3340ce55ccdc7001a0e6014",
      "assetIds": []
    },
    {
      "x": 111,
      "y": 9,
      "size": 1,
      "price": "4683000000000000000000",
      "reserved": "",
      "salt": "0xe023849bfda8f5deea2e5f1db960d6c757de7581190aeca252f1cfa400652499",
      "assetIds": [
        "41506478881403507969696680653240014914910929820314476107906210059990541021186"
      ]
    },
    {
      "x": 111,
      "y": 10,
      "size": 1,
      "price": "4683000000000000000000",
      "reserved": "",
      "salt": "0x45e76cf4347c3d03ce836e28f43a2ba1db28a70d4577c06371e57dbf04548ed9",
      "assetIds": [
        "41506478881403507969696680653240014914910929820314476107906210059990541021186"
      ]
    },
    {
      "x": 111,
      "y": 11,
      "size": 1,
      "price": "4683000000000000000000",
      "reserved": "",
      "salt": "0x97a79b89ca2fdaac6204530db55d10f9408e2204bd8f53d31e22bc20f77aaa50",
      "assetIds": [
        "41506478881403507969696680653240014914910929820314476107906210059990541021186"
      ]
    },
    {
      "x": 111,
      "y": 15,
      "size": 1,
      "price": "1011000000000000000000",
      "reserved": "",
      "salt": "0x2d357e572d9c785bab33c7dad2ba01319c5640f83f7f0cc0afac43dd63ff6033",
      "assetIds": []
    },
    {
      "x": 111,
      "y": 16,
      "size": 1,
      "price": "1011000000000000000000",
      "reserved": "",
      "salt": "0x9e0954e2f5ed36937f826fc9f05e8e5686b0cba5ef463d06e5791c9f41a402d3",
      "assetIds": []
    },
    {
      "x": 111,
      "y": 17,
      "size": 1,
      "price": "1011000000000000000000",
      "reserved": "",
      "salt": "0xac42e7037771b4edff58a45e9da3d7068cb6b4ab7fe85d01ea3a9474f353be49",
      "assetIds": []
    },
    {
      "x": 111,
      "y": 21,
      "size": 1,
      "price": "4683000000000000000000",
      "reserved": "",
      "salt": "0xd1e618fdbae045ea3b28c5cbe8c37b9d54d759964585a63d1d1835772d529094",
      "assetIds": [
        "41506478881403507969696680653240014914910929820314476107906210059990541021185"
      ]
    },
    {
      "x": 112,
      "y": 6,
      "size": 1,
      "price": "4683000000000000000000",
      "reserved": "",
      "salt": "0x1b6c8965ae8625a4919bf4ce703dc23b56a6eb5eabd0e4b811dba05a3f56bc7b",
      "assetIds": [
        "41506478881403507969696680653240014914910929820314476107906210059990541021186"
      ]
    },
    {
      "x": 112,
      "y": 7,
      "size": 1,
      "price": "1011000000000000000000",
      "reserved": "",
      "salt": "0xddd76e9ef75ddb3d7a13cdf4859a0c0fb886a7c5def9269eb8c3f82728be7f06",
      "assetIds": []
    },
    {
      "x": 112,
      "y": 8,
      "size": 1,
      "price": "1011000000000000000000",
      "reserved": "",
      "salt": "0x0ab1baf7962374b121900dfff67e7f8cf76e90c71604ac6ac66d3fea3eab8856",
      "assetIds": []
    },
    {
      "x": 112,
      "y": 9,
      "size": 1,
      "price": "1011000000000000000000",
      "reserved": "",
      "salt": "0x93dd56436d98624e5c0cee610298a642f3aac937ebad14ac6d2aafe080b97372",
      "assetIds": []
    },
    {
      "x": 112,
      "y": 10,
      "size": 1,
      "price": "1011000000000000000000",
      "reserved": "",
      "salt": "0x1f0e5a9c20c53e8be53a15c028ab495d9776af28c462f49ade261eb111fa3ba3",
      "assetIds": []
    },
    {
      "x": 112,
      "y": 11,
      "size": 1,
      "price": "1011000000000000000000",
      "reserved": "",
      "salt": "0x3ea94a2fc4fa1877c1865a8d24ac8a7f7b5bc8c92ce81638f9629de5204c1c57",
      "assetIds": []
    },
    {
      "x": 112,
      "y": 15,
      "size": 1,
      "price": "1011000000000000000000",
      "reserved": "",
      "salt": "0xd95f2f4de3cd422675d2fdcba06cd29af7f249970217d7bf80b6af54afbeb2d5",
      "assetIds": []
    },
    {
      "x": 112,
      "y": 16,
      "size": 1,
      "price": "1011000000000000000000",
      "reserved": "",
      "salt": "0xf5d158866ed3a1d07cfbe0ea0563bc3a76a29fe6983c7d77f9a1f5a41858a778",
      "assetIds": []
    },
    {
      "x": 112,
      "y": 17,
      "size": 1,
      "price": "1011000000000000000000",
      "reserved": "",
      "salt": "0xfba32319ef1b84143effd29bbe35837bd39545e43af86b1e96125befd2187b69",
      "assetIds": []
    },
    {
      "x": 112,
      "y": 21,
      "size": 1,
      "price": "4683000000000000000000",
      "reserved": "",
      "salt": "0xb34fc37397706ca1f9661f1ddcb40b3dc2ffafc3f6eb0b2e0ada912c015af1ea",
      "assetIds": [
        "41506478881403507969696680653240014914910929820314476107906210059990541021186"
      ]
    },
    {
      "x": 113,
      "y": 6,
      "size": 1,
      "price": "4683000000000000000000",
      "reserved": "",
      "salt": "0xa48891ea9ccb0d1c40e7dfd743eae6138770cfd1fb692ca0c190b08f390f48f5",
      "assetIds": [
        "41506478881403507969696680653240014914910929820314476107906210059990541021185"
      ]
    },
    {
      "x": 113,
      "y": 7,
      "size": 1,
      "price": "4683000000000000000000",
      "reserved": "",
      "salt": "0x719b5e68b5188161afc8e9238e0fdb7621a53b3f7d5c2f7e9e04161d701e5bd1",
      "assetIds": [
        "41506478881403507969696680653240014914910929820314476107906210059990541021185"
      ]
    },
    {
      "x": 113,
      "y": 8,
      "size": 1,
      "price": "4683000000000000000000",
      "reserved": "",
      "salt": "0x7fa3a695a6c56a6c43395b3513873c5a98c747a8572c7665f5df981647b700ec",
      "assetIds": [
        "41506478881403507969696680653240014914910929820314476107906210059990541021185"
      ]
    },
    {
      "x": 113,
      "y": 9,
      "size": 1,
      "price": "4683000000000000000000",
      "reserved": "",
      "salt": "0xd260c5d08066ffb6720062f43b0e3102e8338648f5fbf5e611ff2fc76c4215c8",
      "assetIds": [
        "41506478881403507969696680653240014914910929820314476107906210059990541021185"
      ]
    },
    {
      "x": 113,
      "y": 10,
      "size": 1,
      "price": "4683000000000000000000",
      "reserved": "",
      "salt": "0x2e6cea00646fafeca76572f2e81c8048d61282be341969b5c55ba53337d67e2d",
      "assetIds": [
        "41506478881403507969696680653240014914910929820314476107906210059990541021185"
      ]
    },
    {
      "x": 113,
      "y": 11,
      "size": 1,
      "price": "4683000000000000000000",
      "reserved": "",
      "salt": "0xf48bf62cbaf4dc4d93ab9df9486d92634d815e198a4b18b90f853ba2a2641f33",
      "assetIds": [
        "41506478881403507969696680653240014914910929820314476107906210059990541021186"
      ]
    },
    {
      "x": 113,
      "y": 15,
      "size": 1,
      "price": "1011000000000000000000",
      "reserved": "",
      "salt": "0x0e6dea8fb4f40cee7fe10c4d04b142c12dd71d031c2faba3438ddfa5261469eb",
      "assetIds": []
    },
    {
      "x": 113,
      "y": 16,
      "size": 1,
      "price": "1011000000000000000000",
      "reserved": "",
      "salt": "0x3f4f4a95cb994cb6776295b2d111352eaf5d79a72c9a471fd50d933c29048735",
      "assetIds": []
    },
    {
      "x": 113,
      "y": 17,
      "size": 1,
      "price": "1011000000000000000000",
      "reserved": "",
      "salt": "0x013b7f98e1c48080c227d5742e450a22831148d2c2ff0376e1fc8292c009a981",
      "assetIds": []
    },
    {
      "x": 113,
      "y": 21,
      "size": 1,
      "price": "4683000000000000000000",
      "reserved": "",
      "salt": "0xdfaddf881c29c792e88c4411d0c42a1fcd07a5e081d0f9c50483ee9fc394866a",
      "assetIds": [
        "41506478881403507969696680653240014914910929820314476107906210059990541021186"
      ]
    },
    {
      "x": 114,
      "y": 0,
      "size": 1,
      "price": "4683000000000000000000",
      "reserved": "",
      "salt": "0x40bfa6c5f33012b8073817c27943cf32eb5966b1fc40d4acf80c2e9c5a0836dc",
      "assetIds": [
        "41506478881403507969696680653240014914910929820314476107906210059990541021185"
      ]
    },
    {
      "x": 114,
      "y": 1,
      "size": 1,
      "price": "4683000000000000000000",
      "reserved": "",
      "salt": "0xd9c2a1b427c6100d8a47fefb7a639ea18158c09dbb3151b640856351b12bf272",
      "assetIds": [
        "41506478881403507969696680653240014914910929820314476107906210059990541021185"
      ]
    },
    {
      "x": 114,
      "y": 2,
      "size": 1,
      "price": "4683000000000000000000",
      "reserved": "",
      "salt": "0x74b21575b85bfef73322ca2b3f474303a3b03b80193de599025e493f1d842d5f",
      "assetIds": [
        "41506478881403507969696680653240014914910929820314476107906210059990541021185"
      ]
    },
    {
      "x": 114,
      "y": 18,
      "size": 1,
      "price": "4683000000000000000000",
      "reserved": "",
      "salt": "0x801f8932200e24ff9d105b2779b9986669032b568ed960a8e8b60a3195fa382e",
      "assetIds": [
        "41506478881403507969696680653240014914910929820314476107906210059990541021185"
      ]
    },
    {
      "x": 114,
      "y": 19,
      "size": 1,
      "price": "4683000000000000000000",
      "reserved": "",
      "salt": "0x8e27f8c0e70fbfbd7e959d0e197a9758bc211881f48ca5a01d6e76cac0cd6aee",
      "assetIds": [
        "41506478881403507969696680653240014914910929820314476107906210059990541021186"
      ]
    },
    {
      "x": 114,
      "y": 20,
      "size": 1,
      "price": "4683000000000000000000",
      "reserved": "",
      "salt": "0xb37bf73a02f470fe00038fc4e3da5b863b2741427b1cca8b5a79c1453997f3bb",
      "assetIds": [
        "41506478881403507969696680653240014914910929820314476107906210059990541021186"
      ]
    },
    {
      "x": 114,
      "y": 21,
      "size": 1,
      "price": "1011000000000000000000",
      "reserved": "",
      "salt": "0x35ab8cc13c72023c0d5498831e516544d98561144f4c3c4ff2ebcd291dd83cfd",
      "assetIds": []
    },
    {
      "x": 115,
      "y": 0,
      "size": 1,
      "price": "1011000000000000000000",
      "reserved": "",
      "salt": "0x70e3f3cfcffde01b998fdc702bad80026de304db296f0d19b2842ab2e1077edc",
      "assetIds": []
    },
    {
      "x": 115,
      "y": 1,
      "size": 1,
      "price": "1011000000000000000000",
      "reserved": "",
      "salt": "0x9c3c5d99104957f56de29011a4709717d38b5c9b0c2ba0535be40a781b532a24",
      "assetIds": []
    },
    {
      "x": 115,
      "y": 2,
      "size": 1,
      "price": "1011000000000000000000",
      "reserved": "",
      "salt": "0x482256e01fafae757c4252fe7e1b9a05bfb8871ab88b522bf5d602c05cd81176",
      "assetIds": []
    },
    {
      "x": 115,
      "y": 18,
      "size": 1,
      "price": "1011000000000000000000",
      "reserved": "",
      "salt": "0xfb9530f5d3ba412090496dc06d37c6b0649680c514540f52ff81023bec98fe63",
      "assetIds": []
    },
    {
      "x": 115,
      "y": 19,
      "size": 1,
      "price": "1011000000000000000000",
      "reserved": "",
      "salt": "0x7e7c156c8106c682e8cc1192f8d41ac8ef337a5697e84a41ee26b07e55440325",
      "assetIds": []
    },
    {
      "x": 115,
      "y": 20,
      "size": 1,
      "price": "1011000000000000000000",
      "reserved": "",
      "salt": "0xa0ae4996376fa5a4b38cec414952537e417498e8582dfd5c8fcaf943316a1918",
      "assetIds": []
    },
    {
      "x": 115,
      "y": 21,
      "size": 1,
      "price": "1011000000000000000000",
      "reserved": "",
      "salt": "0xf0b37bd8f43074a2f492aba6c1053a44f09031c8945b9adb3629ed6adafa5121",
      "assetIds": []
    },
    {
      "x": 116,
      "y": 0,
      "size": 1,
      "price": "1011000000000000000000",
      "reserved": "",
      "salt": "0xfd210fe51c638677d3a50d711e59d0b281b38362dc3d0e4e92054bd293f4d670",
      "assetIds": []
    },
    {
      "x": 116,
      "y": 1,
      "size": 1,
      "price": "1011000000000000000000",
      "reserved": "",
      "salt": "0xff1ef6b73e8112b6bb22cdd98b2d4869566007c9567d1a1d11389c9130bfaebd",
      "assetIds": []
    },
    {
      "x": 116,
      "y": 2,
      "size": 1,
      "price": "1011000000000000000000",
      "reserved": "",
      "salt": "0x5c1b54b3544073ccfce5775ad7ca4ffa31a71a8207502675f2ae02e5e7bd740f",
      "assetIds": []
    },
    {
      "x": 116,
      "y": 18,
      "size": 1,
      "price": "4683000000000000000000",
      "reserved": "",
      "salt": "0xacda401e862b23407ac41b54eff0c20397f165e0a5e08a6ada459afd40b4321f",
      "assetIds": [
        "41506478881403507969696680653240014914910929820314476107906210059990541021185"
      ]
    },
    {
      "x": 116,
      "y": 19,
      "size": 1,
      "price": "4683000000000000000000",
      "reserved": "",
      "salt": "0x8d49d6ccbaf7b5be02cd656360df5fca288bdee01dcca4b124bdf4b789f7e862",
      "assetIds": [
        "41506478881403507969696680653240014914910929820314476107906210059990541021185"
      ]
    },
    {
      "x": 116,
      "y": 20,
      "size": 1,
      "price": "4683000000000000000000",
      "reserved": "",
      "salt": "0x192cd142559158dd7fcd33e49cab8aebc476bd25b067c5c2aebd2dc76792327c",
      "assetIds": [
        "41506478881403507969696680653240014914910929820314476107906210059990541021186"
      ]
    },
    {
      "x": 116,
      "y": 21,
      "size": 1,
      "price": "1011000000000000000000",
      "reserved": "",
      "salt": "0xfe5ddcd45ad68b8a05b5a70650c75f105af02dd60e684d99d5665b21b29f0174",
      "assetIds": []
    },
    {
      "x": 117,
      "y": 0,
      "size": 1,
      "price": "1011000000000000000000",
      "reserved": "",
      "salt": "0xda168e548fc8dab88230be45e36cf8304f365e0289b0362d1fb529b526bd1ba3",
      "assetIds": []
    },
    {
      "x": 117,
      "y": 1,
      "size": 1,
      "price": "1011000000000000000000",
      "reserved": "",
      "salt": "0xd509361fabe94f245d831262343f785fda95a3d9c71b8545378407aad654c54f",
      "assetIds": []
    },
    {
      "x": 117,
      "y": 2,
      "size": 1,
      "price": "1011000000000000000000",
      "reserved": "",
      "salt": "0xf57b562a6224c53f0365c84fa16af4fd7e60a4eeab5e7920243b473bc5424a67",
      "assetIds": []
    },
    {
      "x": 117,
      "y": 3,
      "size": 1,
      "price": "1011000000000000000000",
      "reserved": "",
      "salt": "0x492a02b989ac4e8ceda9da044a03f9810630b4601b6dc84f8f216cff45680e96",
      "assetIds": []
    },
    {
      "x": 117,
      "y": 4,
      "size": 1,
      "price": "1011000000000000000000",
      "reserved": "",
      "salt": "0x79e4588df9cf3ffc061964f11b82264c75b9936c5c55f2be5d9bef45d127caf3",
      "assetIds": []
    },
    {
      "x": 117,
      "y": 5,
      "size": 1,
      "price": "1011000000000000000000",
      "reserved": "",
      "salt": "0x785834261dba3dda496d711b23e3378ab8c3e54ba7bd51e2bdc9a8537724fde2",
      "assetIds": []
    },
    {
      "x": 117,
      "y": 21,
      "size": 1,
      "price": "1011000000000000000000",
      "reserved": "",
      "salt": "0x7abd61a9394d49d70524a92a02fe6cf8d7885690ad4df621a98abc765d2ac5ec",
      "assetIds": []
    },
    {
      "x": 118,
      "y": 0,
      "size": 1,
      "price": "1011000000000000000000",
      "reserved": "",
      "salt": "0x9866364ca72af59f4a3a1df5c3df8cac985783df6b3a9e669dcc3a4dd3de4e7d",
      "assetIds": []
    },
    {
      "x": 118,
      "y": 1,
      "size": 1,
      "price": "1011000000000000000000",
      "reserved": "",
      "salt": "0xbe748e0f69bc641b167d183d9910b3f5d8c0674a848f48639c5d015dff213fbc",
      "assetIds": []
    },
    {
      "x": 118,
      "y": 2,
      "size": 1,
      "price": "1011000000000000000000",
      "reserved": "",
      "salt": "0xe809380be79313b42ed171928ff4d022e70163c611dd2ab054841ee05bc676c6",
      "assetIds": []
    },
    {
      "x": 118,
      "y": 3,
      "size": 1,
      "price": "1011000000000000000000",
      "reserved": "",
      "salt": "0x93b4a13ed42096d64d35d7d5e32912e8c256053f97f76aa0c50e8559596b0035",
      "assetIds": []
    },
    {
      "x": 118,
      "y": 4,
      "size": 1,
      "price": "1011000000000000000000",
      "reserved": "",
      "salt": "0xd4f0c4c15fd234c7665122e29c0b84a67e95c46fa69fa85a9ed6b0433a7943fb",
      "assetIds": []
    },
    {
      "x": 118,
      "y": 5,
      "size": 1,
      "price": "1011000000000000000000",
      "reserved": "",
      "salt": "0x200a2dfe7006af2ff577aafd7e73710793d02a167087964c902fcf34e489bf15",
      "assetIds": []
    },
    {
      "x": 118,
      "y": 21,
      "size": 1,
      "price": "1011000000000000000000",
      "reserved": "",
      "salt": "0xd784b38a3cd0fa6fdc4dd361006f1adb4df9f4a9e95366551db13ae7428c88b9",
      "assetIds": []
    },
    {
      "x": 119,
      "y": 0,
      "size": 1,
      "price": "4683000000000000000000",
      "reserved": "",
      "salt": "0xdd2bf2e9f93e148f8200a86afafaacc751ad0be72f78927d6eb17b7106839fa7",
      "assetIds": [
        "41506478881403507969696680653240014914910929820314476107906210059990541021185"
      ]
    },
    {
      "x": 119,
      "y": 1,
      "size": 1,
      "price": "4683000000000000000000",
      "reserved": "",
      "salt": "0x12341fd77a1d69c83a8fcf0dd9031b808e9cd20a332dcdc194ccabfb81767201",
      "assetIds": [
        "41506478881403507969696680653240014914910929820314476107906210059990541021186"
      ]
    },
    {
      "x": 119,
      "y": 2,
      "size": 1,
      "price": "4683000000000000000000",
      "reserved": "",
      "salt": "0x8f2ae2b4e6b351ee6cd6fa353b9c3d2b6e1d2268dab1540e153b578feb6c3311",
      "assetIds": [
        "41506478881403507969696680653240014914910929820314476107906210059990541021186"
      ]
    },
    {
      "x": 119,
      "y": 3,
      "size": 1,
      "price": "4683000000000000000000",
      "reserved": "",
      "salt": "0x5fabdaf7a832349b16a5fd7e5afd1e2d0787fe2fdddc1188a62821098ae291d4",
      "assetIds": [
        "41506478881403507969696680653240014914910929820314476107906210059990541021186"
      ]
    },
    {
      "x": 119,
      "y": 4,
      "size": 1,
      "price": "4683000000000000000000",
      "reserved": "",
      "salt": "0xc25318ad7cffa2cdd058669a54fde494149877498349bc6485e599ed96a214f3",
      "assetIds": [
        "41506478881403507969696680653240014914910929820314476107906210059990541021185"
      ]
    },
    {
      "x": 119,
      "y": 5,
      "size": 1,
      "price": "4683000000000000000000",
      "reserved": "",
      "salt": "0x1fbb6641af741663307a4ce850a1fdbb222d96fbc59fc88f60c50d127952f578",
      "assetIds": [
        "41506478881403507969696680653240014914910929820314476107906210059990541021186"
      ]
    },
    {
      "x": 119,
      "y": 21,
      "size": 1,
      "price": "1011000000000000000000",
      "reserved": "",
      "salt": "0x7a4d4f47605c8f994e2f5dcdd974724a0cb3c5372797a569b1dbfc5de22e2b75",
      "assetIds": []
    },
    {
      "x": 120,
      "y": 9,
      "size": 1,
      "price": "4683000000000000000000",
      "reserved": "",
      "salt": "0x399a809b618822fc4dff4488fc8da60c4ec15f4520a3743aec651d4d859d0786",
      "assetIds": [
        "41506478881403507969696680653240014914910929820314476107906210059990541021185"
      ]
    },
    {
      "x": 120,
      "y": 10,
      "size": 1,
      "price": "4683000000000000000000",
      "reserved": "",
      "salt": "0x9f1a6f89c733b503b6ccf1ef904e1dfa9689503d295af6e2c60ee7c27d5e019b",
      "assetIds": [
        "41506478881403507969696680653240014914910929820314476107906210059990541021185"
      ]
    },
    {
      "x": 120,
      "y": 11,
      "size": 1,
      "price": "4683000000000000000000",
      "reserved": "",
      "salt": "0x25802e227706faf8541215247e9580626181c99d2e4d43d2a13450fcb04c5c4b",
      "assetIds": [
        "41506478881403507969696680653240014914910929820314476107906210059990541021186"
      ]
    },
    {
      "x": 120,
      "y": 18,
      "size": 1,
      "price": "4683000000000000000000",
      "reserved": "",
      "salt": "0xb15fa0dcd59358fa7c5f22241a84497c6e3541f11f996b2ad2dfb0068968e28d",
      "assetIds": [
        "41506478881403507969696680653240014914910929820314476107906210059990541021186"
      ]
    },
    {
      "x": 120,
      "y": 19,
      "size": 1,
      "price": "1011000000000000000000",
      "reserved": "",
      "salt": "0xdf2d2673478942d9b000eb755b51d29ff40481ce2057d281fe71dba91620be8f",
      "assetIds": []
    },
    {
      "x": 120,
      "y": 20,
      "size": 1,
      "price": "1011000000000000000000",
      "reserved": "",
      "salt": "0x179342dbbb19e13e098173ab62584202675705ef6429655ac0698f15cbe001da",
      "assetIds": []
    },
    {
      "x": 120,
      "y": 21,
      "size": 1,
      "price": "1011000000000000000000",
      "reserved": "",
      "salt": "0x5ec542604658ec89e66f77d8c62886cb85ff9ce102265b2dad3eb79982806229",
      "assetIds": []
    },
    {
      "x": 121,
      "y": 9,
      "size": 1,
      "price": "1011000000000000000000",
      "reserved": "",
      "salt": "0xd104b881a52b0d52bc6bf15c875b52f8ede3ea1e869a5a1f5084c4e38f12af4a",
      "assetIds": []
    },
    {
      "x": 121,
      "y": 10,
      "size": 1,
      "price": "1011000000000000000000",
      "reserved": "",
      "salt": "0xe4247edff6c817e08049a487dfdb398a0f5df33fa5388adb2ca67369f4c40eda",
      "assetIds": []
    },
    {
      "x": 121,
      "y": 11,
      "size": 1,
      "price": "4683000000000000000000",
      "reserved": "",
      "salt": "0xb66f80a3cf3c49289cfd88ea627160184b7e3a3ea99c3b2cb186f4b901091a76",
      "assetIds": [
        "41506478881403507969696680653240014914910929820314476107906210059990541021186"
      ]
    },
    {
      "x": 121,
      "y": 18,
      "size": 1,
      "price": "4683000000000000000000",
      "reserved": "",
      "salt": "0x2a7b0787bb980484fae44c397f108a18f7ddc8759618df95c4a2f46f375f265d",
      "assetIds": [
        "41506478881403507969696680653240014914910929820314476107906210059990541021186"
      ]
    },
    {
      "x": 121,
      "y": 19,
      "size": 1,
      "price": "1011000000000000000000",
      "reserved": "",
      "salt": "0xe6787f71539d06d1ce92753804d3d1a8f224d6fba0f32d43360844c8da61f5c3",
      "assetIds": []
    },
    {
      "x": 121,
      "y": 20,
      "size": 1,
      "price": "1011000000000000000000",
      "reserved": "",
      "salt": "0x7a477e31761973875c9bc96b397ec6fef8c4c0dc726011d6192ea6b0ff9322bb",
      "assetIds": []
    },
    {
      "x": 121,
      "y": 21,
      "size": 1,
      "price": "1011000000000000000000",
      "reserved": "",
      "salt": "0x17a087b335185e626c4edb63345bf230a5145f5a036730da37b7ebb7a3b36599",
      "assetIds": []
    },
    {
      "x": 122,
      "y": 9,
      "size": 1,
      "price": "1011000000000000000000",
      "reserved": "",
      "salt": "0x9358babd3b7faa10f6df4bbe09b14c673a33ba7780db6435ed0e5d45fd9c720d",
      "assetIds": []
    },
    {
      "x": 122,
      "y": 10,
      "size": 1,
      "price": "1011000000000000000000",
      "reserved": "",
      "salt": "0xdd42bdf7afcc137915b5a55b793500b3df9a92df6c4aa7cd7d7a8f35d8812487",
      "assetIds": []
    },
    {
      "x": 122,
      "y": 11,
      "size": 1,
      "price": "4683000000000000000000",
      "reserved": "",
      "salt": "0xccb915b6e0c5f606651478378272c7febf6ee99aa7698bacd66e823d605872ef",
      "assetIds": [
        "41506478881403507969696680653240014914910929820314476107906210059990541021185"
      ]
    },
    {
      "x": 122,
      "y": 18,
      "size": 1,
      "price": "4683000000000000000000",
      "reserved": "",
      "salt": "0x5e93778fb57bbd79cad1d5e0206e5b794ea29a1c4372d9ecddbe55f741a910f7",
      "assetIds": [
        "41506478881403507969696680653240014914910929820314476107906210059990541021186"
      ]
    },
    {
      "x": 122,
      "y": 19,
      "size": 1,
      "price": "1011000000000000000000",
      "reserved": "",
      "salt": "0xaec86bcad1d22b2617fc81743ec1ebff6552d9653d8c14481f2e8d6d3956171b",
      "assetIds": []
    },
    {
      "x": 122,
      "y": 20,
      "size": 1,
      "price": "1011000000000000000000",
      "reserved": "",
      "salt": "0x177af9ed25c137fe857132b96caeaed2df6ecce8ac1a8d7d3f0f60d03eb2e0e7",
      "assetIds": []
    },
    {
      "x": 122,
      "y": 21,
      "size": 1,
      "price": "1011000000000000000000",
      "reserved": "",
      "salt": "0x8dc23fdf70e312cfa9f8905c190f9a2f95524cb9cd61dd685157fb42e0620bd4",
      "assetIds": []
    },
    {
      "x": 123,
      "y": 6,
      "size": 1,
      "price": "4683000000000000000000",
      "reserved": "",
      "salt": "0x56b7d25a9955065844aaa3634404e9ea072cb96f56640e10c7752ea28299248e",
      "assetIds": [
        "41506478881403507969696680653240014914910929820314476107906210059990541021186"
      ]
    },
    {
      "x": 123,
      "y": 7,
      "size": 1,
      "price": "1011000000000000000000",
      "reserved": "",
      "salt": "0x3a656832a70416e1d0e0d9586187dfc6caf60bba41f813cb585ada44c0bfaea5",
      "assetIds": []
    },
    {
      "x": 123,
      "y": 8,
      "size": 1,
      "price": "1011000000000000000000",
      "reserved": "",
      "salt": "0xf0527e4d35dbf9a59521cd30f9294a726eee85e61e51cc55db6714c8d2193015",
      "assetIds": []
    },
    {
      "x": 123,
      "y": 9,
      "size": 1,
      "price": "1011000000000000000000",
      "reserved": "",
      "salt": "0x4d29f855a597e31aa96f8d9163f3ef65044b756b9887fc34f7f34147db36f812",
      "assetIds": []
    },
    {
      "x": 123,
      "y": 10,
      "size": 1,
      "price": "1011000000000000000000",
      "reserved": "",
      "salt": "0x6cdffb2fbf154241becd3210b0ca60536a442f928da1abf7c933003d85c670d9",
      "assetIds": []
    },
    {
      "x": 123,
      "y": 11,
      "size": 1,
      "price": "4683000000000000000000",
      "reserved": "",
      "salt": "0x54fa22bf47b93fbd0e26765c10dd8575c706545ec8c3918b85354b38802a91a9",
      "assetIds": [
        "41506478881403507969696680653240014914910929820314476107906210059990541021186"
      ]
    },
    {
      "x": 123,
      "y": 18,
      "size": 1,
      "price": "4683000000000000000000",
      "reserved": "",
      "salt": "0x1eac12e15a7b04da85e6175bf056a658fade4f3926ad5acb2808ea786e681c0b",
      "assetIds": [
        "41506478881403507969696680653240014914910929820314476107906210059990541021186"
      ]
    },
    {
      "x": 123,
      "y": 19,
      "size": 1,
      "price": "1011000000000000000000",
      "reserved": "",
      "salt": "0xaa42ddb72174e8f4e9c6afe4f6752a2ce8b468b29be5351ef6d025023bf271ab",
      "assetIds": []
    },
    {
      "x": 123,
      "y": 20,
      "size": 1,
      "price": "1011000000000000000000",
      "reserved": "",
      "salt": "0x0c15e2429e09c4a7478de09f4a655f3ce75235a9a5f5134457304bd5d3924655",
      "assetIds": []
    },
    {
      "x": 123,
      "y": 21,
      "size": 1,
      "price": "1011000000000000000000",
      "reserved": "",
      "salt": "0x616b7bed464adbcbb1a3c6d5c927d0eff93779e15579dbb1f7c0bd644faab863",
      "assetIds": []
    },
    {
      "x": 124,
      "y": 6,
      "size": 1,
      "price": "4683000000000000000000",
      "reserved": "",
      "salt": "0xd67159dacbaf85682d07435b00410718f028fb86beca52b86a7ca8c7c6be28c8",
      "assetIds": [
        "41506478881403507969696680653240014914910929820314476107906210059990541021185"
      ]
    },
    {
      "x": 124,
      "y": 7,
      "size": 1,
      "price": "1011000000000000000000",
      "reserved": "",
      "salt": "0xde5b7272a5c023acebb3bdc021b26788d865e4339d148b89f6b43475946fa53e",
      "assetIds": []
    },
    {
      "x": 124,
      "y": 8,
      "size": 1,
      "price": "1011000000000000000000",
      "reserved": "",
      "salt": "0xa191b98df40d779687567b63418321a97ebbdb94fcc48abd0a8bf8f4fdbf9fda",
      "assetIds": []
    },
    {
      "x": 124,
      "y": 9,
      "size": 1,
      "price": "1011000000000000000000",
      "reserved": "",
      "salt": "0x4bfe8c1121630241c702eee37166fcb3e6b47478e18e392800fe2044e9d06af0",
      "assetIds": []
    },
    {
      "x": 124,
      "y": 10,
      "size": 1,
      "price": "1011000000000000000000",
      "reserved": "",
      "salt": "0xd405a1db3819890bfead1ca06e90f17895a040ef8cd5cac20e9f675724ccc642",
      "assetIds": []
    },
    {
      "x": 124,
      "y": 11,
      "size": 1,
      "price": "4683000000000000000000",
      "reserved": "",
      "salt": "0x3baaf6637d56ba7ed8a5e863e403d87bfc110270b34ecf83d67871d14a5bbe8a",
      "assetIds": [
        "41506478881403507969696680653240014914910929820314476107906210059990541021185"
      ]
    },
    {
      "x": 124,
      "y": 18,
      "size": 1,
      "price": "4683000000000000000000",
      "reserved": "",
      "salt": "0xb330686e6bbcff0869fe5202c351143006fe29496d3e7e0c93275c2bb5883d24",
      "assetIds": [
        "41506478881403507969696680653240014914910929820314476107906210059990541021186"
      ]
    },
    {
      "x": 124,
      "y": 19,
      "size": 1,
      "price": "1011000000000000000000",
      "reserved": "",
      "salt": "0xa4200f4f4586be616070a56f253eee67cf23f438eedc7e802c5691b32b4dc11d",
      "assetIds": []
    },
    {
      "x": 124,
      "y": 20,
      "size": 1,
      "price": "1011000000000000000000",
      "reserved": "",
      "salt": "0xbf8cf5d1332ca8e77db5149118853450e8a59c18fb99968b94c86740b7e96569",
      "assetIds": []
    },
    {
      "x": 124,
      "y": 21,
      "size": 1,
      "price": "1011000000000000000000",
      "reserved": "",
      "salt": "0x666fb0765a0b75abb8bc14662a5fadb52af2d9c9ba8fdffb06374d203de3d2cc",
      "assetIds": []
    },
    {
      "x": 125,
      "y": 6,
      "size": 1,
      "price": "4683000000000000000000",
      "reserved": "",
      "salt": "0x7be851daaa742322fac046cdaa22ac08983bc216a0623f224f4f31ab924d15df",
      "assetIds": [
        "41506478881403507969696680653240014914910929820314476107906210059990541021185"
      ]
    },
    {
      "x": 125,
      "y": 7,
      "size": 1,
      "price": "4683000000000000000000",
      "reserved": "",
      "salt": "0xee4251827a679a8f2af549d82b9106ba3b7c46146dcc57b46f6aae4b359d7dfe",
      "assetIds": [
        "41506478881403507969696680653240014914910929820314476107906210059990541021185"
      ]
    },
    {
      "x": 125,
      "y": 8,
      "size": 1,
      "price": "4683000000000000000000",
      "reserved": "",
      "salt": "0xca27be9786a9b84f0261de7174ba9b0fe8a11b7a89464eb6927b82804f284c14",
      "assetIds": [
        "41506478881403507969696680653240014914910929820314476107906210059990541021186"
      ]
    },
    {
      "x": 125,
      "y": 9,
      "size": 1,
      "price": "1011000000000000000000",
      "reserved": "",
      "salt": "0xb6c21d9c4de9279a70ed17c8fe2862e50019527414c2387a0b8dae63b7007d7a",
      "assetIds": []
    },
    {
      "x": 125,
      "y": 10,
      "size": 1,
      "price": "1011000000000000000000",
      "reserved": "",
      "salt": "0x8ad6c266ad27f8a7186476e5fc586e5c4358d1422e1d52f823f74666177be99c",
      "assetIds": []
    },
    {
      "x": 125,
      "y": 11,
      "size": 1,
      "price": "4683000000000000000000",
      "reserved": "",
      "salt": "0xcbd9c6b0e7c1cc601c272a03a0490fed440da8477872437d20b9db6f1ba66331",
      "assetIds": [
        "41506478881403507969696680653240014914910929820314476107906210059990541021185"
      ]
    },
    {
      "x": 125,
      "y": 18,
      "size": 1,
      "price": "4683000000000000000000",
      "reserved": "",
      "salt": "0x2210a2697205c9adee85281319f5db521bb71c5b50570ee2882b62e85d8a7db5",
      "assetIds": [
        "41506478881403507969696680653240014914910929820314476107906210059990541021186"
      ]
    },
    {
      "x": 125,
      "y": 19,
      "size": 1,
      "price": "1011000000000000000000",
      "reserved": "",
      "salt": "0x1ec81b8c74cd08d5bad899f8a7ec607e314120e827119e83fe923953217a8bf9",
      "assetIds": []
    },
    {
      "x": 125,
      "y": 20,
      "size": 1,
      "price": "1011000000000000000000",
      "reserved": "",
      "salt": "0x7e195139e2f2b50e077a690b3a3083ec10103ed4b659091c1d2a7d5c63e84c3f",
      "assetIds": []
    },
    {
      "x": 125,
      "y": 21,
      "size": 1,
      "price": "1011000000000000000000",
      "reserved": "",
      "salt": "0x6de25a1c1142813846e3d6276cf4ed1b40bedd577c2fd212be31820bf978df74",
      "assetIds": []
    },
    {
      "x": 126,
      "y": 0,
      "size": 1,
      "price": "4683000000000000000000",
      "reserved": "",
      "salt": "0x3d4b36c0c2b0809d10c9eee4210c5eee4fdd36bb2aa1f03b47e5bf2be77866d9",
      "assetIds": [
        "41506478881403507969696680653240014914910929820314476107906210059990541021185"
      ]
    },
    {
      "x": 126,
      "y": 1,
      "size": 1,
      "price": "4683000000000000000000",
      "reserved": "",
      "salt": "0x7c1f5f5b57d33a25c3a4c419cf302ba3db5aa86f421b413c3c417d599200c137",
      "assetIds": [
        "41506478881403507969696680653240014914910929820314476107906210059990541021185"
      ]
    },
    {
      "x": 126,
      "y": 2,
      "size": 1,
      "price": "4683000000000000000000",
      "reserved": "",
      "salt": "0x15f9a40792d8d61af7d51ff1ea2555921409cf0b56b5a3c75e471a9a69ae0f8c",
      "assetIds": [
        "41506478881403507969696680653240014914910929820314476107906210059990541021186"
      ]
    },
    {
      "x": 126,
      "y": 9,
      "size": 1,
      "price": "4683000000000000000000",
      "reserved": "",
      "salt": "0x77c0304e3456eb50f3f5bbcd2efd6b433c167cc80e5f38f516ec0f37fa40d709",
      "assetIds": [
        "41506478881403507969696680653240014914910929820314476107906210059990541021185"
      ]
    },
    {
      "x": 126,
      "y": 10,
      "size": 1,
      "price": "1011000000000000000000",
      "reserved": "",
      "salt": "0xed281f2a1a67f08858e42fcd6a5fbe5297dee94afae93bd49068b7ea3db28e45",
      "assetIds": []
    },
    {
      "x": 126,
      "y": 11,
      "size": 1,
      "price": "1011000000000000000000",
      "reserved": "",
      "salt": "0x1a205a5ecee82d8311c19042543514a9f8e962a1b151c1bc368ba8b4ba569688",
      "assetIds": []
    },
    {
      "x": 126,
      "y": 12,
      "size": 1,
      "price": "1011000000000000000000",
      "reserved": "",
      "salt": "0x5fc712505782553b8fa435ec02d2b7d31cf4c482883418350d1bd6848ab8d266",
      "assetIds": []
    },
    {
      "x": 126,
      "y": 13,
      "size": 1,
      "price": "4683000000000000000000",
      "reserved": "",
      "salt": "0x05ec25ea277731bf160ef973133aec087f78f0bf812d46fe132e5f0c7efb6471",
      "assetIds": [
        "41506478881403507969696680653240014914910929820314476107906210059990541021185"
      ]
    },
    {
      "x": 126,
      "y": 14,
      "size": 1,
      "price": "4683000000000000000000",
      "reserved": "",
      "salt": "0x12682acd906c433058072cb7e0be12683cc9af1e7c2efae7ba08a672ef32ae49",
      "assetIds": [
        "41506478881403507969696680653240014914910929820314476107906210059990541021185"
      ]
    },
    {
      "x": 126,
      "y": 18,
      "size": 1,
      "price": "1011000000000000000000",
      "reserved": "",
      "salt": "0x9512e0ada3deb69a1394ed39c36bd1afefb7b0216dae62f11816c7a66882a0d9",
      "assetIds": []
    },
    {
      "x": 126,
      "y": 19,
      "size": 1,
      "price": "1011000000000000000000",
      "reserved": "",
      "salt": "0xdd34ca27ce1b79d2b44836b0a5100892d0df5e2bfdc861bd3249703845c4a504",
      "assetIds": []
    },
    {
      "x": 126,
      "y": 20,
      "size": 1,
      "price": "1011000000000000000000",
      "reserved": "",
      "salt": "0x12ef84b964532cb686efd232088abac48520e09d99c22d5ef12fdf354e0ecb62",
      "assetIds": []
    },
    {
      "x": 126,
      "y": 21,
      "size": 1,
      "price": "1011000000000000000000",
      "reserved": "",
      "salt": "0x75f3759c8f073d4144808dee46cce02c7bf1d84b931f816e71763561f22a778d",
      "assetIds": []
    },
    {
      "x": 127,
      "y": 0,
      "size": 1,
      "price": "1011000000000000000000",
      "reserved": "",
      "salt": "0x9d6468c1c3617a8a4b957a4e411d2e14bfc929b2dbfaacce45c70ac7a72dec04",
      "assetIds": []
    },
    {
      "x": 127,
      "y": 1,
      "size": 1,
      "price": "1011000000000000000000",
      "reserved": "",
      "salt": "0x859cd5f9deae52817b393a7f61bcb97c25bd04d0cf08908e6cc2823015a27145",
      "assetIds": []
    },
    {
      "x": 127,
      "y": 2,
      "size": 1,
      "price": "1011000000000000000000",
      "reserved": "",
      "salt": "0x66b64b9e6e289097a6d1229b336c1fa52dcf29f2d7ce50d95fa95b83a630499d",
      "assetIds": []
    },
    {
      "x": 127,
      "y": 9,
      "size": 1,
      "price": "4683000000000000000000",
      "reserved": "",
      "salt": "0x35274cfd861b4fa99adaa0cb7b12c0b2ec9c692de223f7f30a600b507f8a9eee",
      "assetIds": [
        "41506478881403507969696680653240014914910929820314476107906210059990541021185"
      ]
    },
    {
      "x": 127,
      "y": 10,
      "size": 1,
      "price": "1011000000000000000000",
      "reserved": "",
      "salt": "0x728612a5e11a1dd1edab326f087f662ef3ff1b984837d7be10dd8a276da5cf04",
      "assetIds": []
    },
    {
      "x": 127,
      "y": 11,
      "size": 1,
      "price": "1011000000000000000000",
      "reserved": "",
      "salt": "0xf9d7fdad8c2ebfeb9a344d874f277fb04fa0de097d7221056c627d4e5e5c42f8",
      "assetIds": []
    },
    {
      "x": 127,
      "y": 12,
      "size": 1,
      "price": "1011000000000000000000",
      "reserved": "",
      "salt": "0xb2030803307082057934d0008e99abd7bce71c227de90b678631a7b00986f254",
      "assetIds": []
    },
    {
      "x": 127,
      "y": 13,
      "size": 1,
      "price": "1011000000000000000000",
      "reserved": "",
      "salt": "0x61771b269bfa1c2966a475bcf7c345e63969fbe6d79f6b4f1122e505b71a31b9",
      "assetIds": []
    },
    {
      "x": 127,
      "y": 14,
      "size": 1,
      "price": "1011000000000000000000",
      "reserved": "",
      "salt": "0x7d3468a8713472516d31cc078a6b379f5ef21271c0d565cedf4dc4a94a6457a7",
      "assetIds": []
    },
    {
      "x": 127,
      "y": 18,
      "size": 1,
      "price": "1011000000000000000000",
      "reserved": "",
      "salt": "0x3a1c0f530257b3330cfd39a0f198cfab5da56542e75952a372f24ac6d41ada79",
      "assetIds": []
    },
    {
      "x": 127,
      "y": 19,
      "size": 1,
      "price": "1011000000000000000000",
      "reserved": "",
      "salt": "0xe81597390b69fc71a286cf535cb3c3b8605fcbef4288accaf330df3c38fe5aae",
      "assetIds": []
    },
    {
      "x": 127,
      "y": 20,
      "size": 1,
      "price": "1011000000000000000000",
      "reserved": "",
      "salt": "0xe7d04cf690b47bb36f00573569b71306e7877ca70aa699be936e4b1bfec21876",
      "assetIds": []
    },
    {
      "x": 127,
      "y": 21,
      "size": 1,
      "price": "1011000000000000000000",
      "reserved": "",
      "salt": "0x7a20c5f88ccd2e4b7f1e84254d286561e41a2fe1e7645d0b27e3bc3143318974",
      "assetIds": []
    },
    {
      "x": 128,
      "y": 0,
      "size": 1,
      "price": "1011000000000000000000",
      "reserved": "",
      "salt": "0x46d327845cfe54cfbc9c39b24b48cbc2ac4bb4792231e4735c45184fbdf2de3e",
      "assetIds": []
    },
    {
      "x": 128,
      "y": 1,
      "size": 1,
      "price": "1011000000000000000000",
      "reserved": "",
      "salt": "0x7c41fea89e35b90ca244a5b1049787368bf4b3c180b0d5e0b3685c44ade41f24",
      "assetIds": []
    },
    {
      "x": 128,
      "y": 2,
      "size": 1,
      "price": "1011000000000000000000",
      "reserved": "",
      "salt": "0x613ad232cb8a6f76387235b2c61204647971e6ce931450ef332aa93b94d89e20",
      "assetIds": []
    },
    {
      "x": 128,
      "y": 9,
      "size": 1,
      "price": "4683000000000000000000",
      "reserved": "",
      "salt": "0x74d46ce56b5e4364063dfa150944ae1a51625a8b2ec2c415daf1ae1a98fee9e3",
      "assetIds": [
        "41506478881403507969696680653240014914910929820314476107906210059990541021185"
      ]
    },
    {
      "x": 128,
      "y": 10,
      "size": 1,
      "price": "1011000000000000000000",
      "reserved": "",
      "salt": "0xb91d4cbe67f2f0ae6f18c9ecf1a9fb0f39c4c2301a185f44a845f20fa0ca76b0",
      "assetIds": []
    },
    {
      "x": 128,
      "y": 11,
      "size": 1,
      "price": "1011000000000000000000",
      "reserved": "",
      "salt": "0x96cd73b5d97dedaa01f5ccd237c495fb1abbb47a91608df1d510dc970e5dec36",
      "assetIds": []
    },
    {
      "x": 128,
      "y": 12,
      "size": 1,
      "price": "1011000000000000000000",
      "reserved": "",
      "salt": "0x11df5148bb97257e23797ed7ee45c58bf6c686f00648addbe34de8dab77405f1",
      "assetIds": []
    },
    {
      "x": 128,
      "y": 13,
      "size": 1,
      "price": "1011000000000000000000",
      "reserved": "",
      "salt": "0xaaa8602166127d271a54a3265ef950f6ebcc32cfe259d347a63289057d812b9e",
      "assetIds": []
    },
    {
      "x": 128,
      "y": 14,
      "size": 1,
      "price": "1011000000000000000000",
      "reserved": "",
      "salt": "0x46544a67dac37f28db5cd617dcf94d4102ad8f2fbbc046558c67ebb830111d8f",
      "assetIds": []
    },
    {
      "x": 128,
      "y": 18,
      "size": 1,
      "price": "1011000000000000000000",
      "reserved": "",
      "salt": "0xc30e2ef3c4a3ed734df3985d8fa861446c55a6e07664a18ba0e9bfbeb79ff92b",
      "assetIds": []
    },
    {
      "x": 128,
      "y": 19,
      "size": 1,
      "price": "1011000000000000000000",
      "reserved": "",
      "salt": "0x646d018e2ddc5f063ce539322d5d8ba893badc76135956f041acdce8b897fd0e",
      "assetIds": []
    },
    {
      "x": 128,
      "y": 20,
      "size": 1,
      "price": "1011000000000000000000",
      "reserved": "",
      "salt": "0x2baa7b2385508d16f06f2edf8c22a2bc8b9ea67059753fb5133cee7e216b65f7",
      "assetIds": []
    },
    {
      "x": 128,
      "y": 21,
      "size": 1,
      "price": "1011000000000000000000",
      "reserved": "",
      "salt": "0x2ccc3cbb2181466e2b2d3c3ffd99682965bc01d59e067b7fe3d3c2bf904933ad",
      "assetIds": []
    },
    {
      "x": 129,
      "y": 0,
      "size": 1,
      "price": "1011000000000000000000",
      "reserved": "",
      "salt": "0xf2a291e4999ddc18e33605568ab72342c1c410912bf2ba6139c53e45f9abdcc9",
      "assetIds": []
    },
    {
      "x": 129,
      "y": 1,
      "size": 1,
      "price": "1011000000000000000000",
      "reserved": "",
      "salt": "0xc5770aacc7e9d4e819a8a43881d5bfccb71e46657bce4686ac0b4b8772aa0667",
      "assetIds": []
    },
    {
      "x": 129,
      "y": 2,
      "size": 1,
      "price": "1011000000000000000000",
      "reserved": "",
      "salt": "0x1635c4aa587506e0f600da7b305e526347a51a94fa86eea30d2329bc5015dc1e",
      "assetIds": []
    },
    {
      "x": 129,
      "y": 3,
      "size": 1,
      "price": "1011000000000000000000",
      "reserved": "",
      "salt": "0x1616ac40e3ee259d35c3d8ff2a6c790d3325b697c99060196e93bd1bb239771e",
      "assetIds": []
    },
    {
      "x": 129,
      "y": 4,
      "size": 1,
      "price": "1011000000000000000000",
      "reserved": "",
      "salt": "0x5e628a57c900a4f9ae5b4ace3e5ed10f4a1cbfe4e79d7ce2093fc1c8e81487c0",
      "assetIds": []
    },
    {
      "x": 129,
      "y": 5,
      "size": 1,
      "price": "1011000000000000000000",
      "reserved": "",
      "salt": "0x972b5ae1c727b93a0b92c2c3fbc36503e74bc8dec27eeacf03762814e1612f1a",
      "assetIds": []
    },
    {
      "x": 129,
      "y": 6,
      "size": 1,
      "price": "4683000000000000000000",
      "reserved": "",
      "salt": "0x472f630160ded5098ab1ff8ef4a51a842e812e4ca6a620977c565f412f679b46",
      "assetIds": [
        "41506478881403507969696680653240014914910929820314476107906210059990541021185"
      ]
    },
    {
      "x": 129,
      "y": 7,
      "size": 1,
      "price": "4683000000000000000000",
      "reserved": "",
      "salt": "0x41e6598ef5dde45dd56bb840001536854b7b4cc04d9fe44d492ecd1523792174",
      "assetIds": [
        "41506478881403507969696680653240014914910929820314476107906210059990541021186"
      ]
    },
    {
      "x": 129,
      "y": 8,
      "size": 1,
      "price": "4683000000000000000000",
      "reserved": "",
      "salt": "0x14e3725ff47dcfb36df065db20617d5a95bf73fc1ea97d42ce434ecec38af31a",
      "assetIds": [
        "41506478881403507969696680653240014914910929820314476107906210059990541021185"
      ]
    },
    {
      "x": 129,
      "y": 9,
      "size": 1,
      "price": "1011000000000000000000",
      "reserved": "",
      "salt": "0x38a16dbb4a65a93bf96b0e6b85fc2aa445effe255d977503bf89f5af1704b761",
      "assetIds": []
    },
    {
      "x": 129,
      "y": 10,
      "size": 1,
      "price": "1011000000000000000000",
      "reserved": "",
      "salt": "0x56319d10d66d176beb5b8de6d4bc84512c617fbac8938b48e024a2d35f05b0f2",
      "assetIds": []
    },
    {
      "x": 129,
      "y": 11,
      "size": 1,
      "price": "1011000000000000000000",
      "reserved": "",
      "salt": "0x8298e534263f54edf72f73cd7be348f719ddf738c8b7a60278b31a3943ef8172",
      "assetIds": []
    },
    {
      "x": 129,
      "y": 12,
      "size": 1,
      "price": "1011000000000000000000",
      "reserved": "",
      "salt": "0x42013f47612b15f6be2781a1c9e2de50e381fea3b37431164f47c6c535dd52bb",
      "assetIds": []
    },
    {
      "x": 129,
      "y": 13,
      "size": 1,
      "price": "1011000000000000000000",
      "reserved": "",
      "salt": "0xff78f87716c78ae36f6d8186bb14616c4f6dc5779c29da704103ae04fbfd29d4",
      "assetIds": []
    },
    {
      "x": 129,
      "y": 14,
      "size": 1,
      "price": "1011000000000000000000",
      "reserved": "",
      "salt": "0xf8dfa037b8fcdd666b5e3296d4064501f59ec3202faee6e651492497f50c46e7",
      "assetIds": []
    },
    {
      "x": 129,
      "y": 15,
      "size": 1,
      "price": "1011000000000000000000",
      "reserved": "",
      "salt": "0xec55e7f43a93a01d1999066e52afa1a349417af5ee1081cf3b13df452a25e4a3",
      "assetIds": []
    },
    {
      "x": 129,
      "y": 16,
      "size": 1,
      "price": "1011000000000000000000",
      "reserved": "",
      "salt": "0x0928744b70adc25b82b758c961cfefa0de1e72f6abfc3b6a5cd182cdbdc065e3",
      "assetIds": []
    },
    {
      "x": 129,
      "y": 17,
      "size": 1,
      "price": "1011000000000000000000",
      "reserved": "",
      "salt": "0x5ea42400734e8293a9d923360afb439f17994af3b9657d168d72711be06b3361",
      "assetIds": []
    },
    {
      "x": 129,
      "y": 18,
      "size": 1,
      "price": "1011000000000000000000",
      "reserved": "",
      "salt": "0x649a374fbc2aa8e7e5ff59ed2f9aa967da25ce452bbb2bc2634fa69b24a9c687",
      "assetIds": []
    },
    {
      "x": 129,
      "y": 19,
      "size": 1,
      "price": "1011000000000000000000",
      "reserved": "",
      "salt": "0x61803ead8b4145e31219d1b19fa6eb35e833da99603677d4910124cbdf9049e7",
      "assetIds": []
    },
    {
      "x": 129,
      "y": 20,
      "size": 1,
      "price": "1011000000000000000000",
      "reserved": "",
      "salt": "0x5e4c3fb25948071a4402352a94a30c72b44ece8fcf2755fa6f17b8a4d5e281c4",
      "assetIds": []
    },
    {
      "x": 129,
      "y": 21,
      "size": 1,
      "price": "1011000000000000000000",
      "reserved": "",
      "salt": "0x4e962b852067cd69f804cde5c7b1db9557a365ca2eff05a65bb78e3f54751008",
      "assetIds": []
    },
    {
      "x": 84,
      "y": 6,
      "size": 3,
      "price": "8648000000000000000000",
      "reserved": "0x7a9fe22691c811ea339d9b73150e6911a5343dca",
      "salt": "0xf7c712c8404b23ff2a328b900492a00a3982f3766a0494f565e0f990003801d5",
      "assetIds": []
    },
    {
      "x": 84,
      "y": 15,
      "size": 3,
      "price": "8648000000000000000000",
      "reserved": "0x7a9fe22691c811ea339d9b73150e6911a5343dca",
      "salt": "0x6f2279c35748825858f485a4eea08dedf789f22111d209d5b0d95d1d6e8e247a",
      "assetIds": []
    },
    {
      "x": 87,
      "y": 0,
      "size": 3,
      "price": "8648000000000000000000",
      "reserved": "0x7a9fe22691c811ea339d9b73150e6911a5343dca",
      "salt": "0xe67c9a85430fca2c197bfb01e219ae7916f36ab436c263fcaa07f5fc4309957a",
      "assetIds": []
    },
    {
      "x": 87,
      "y": 9,
      "size": 3,
      "price": "8648000000000000000000",
      "reserved": "0x7a9fe22691c811ea339d9b73150e6911a5343dca",
      "salt": "0x540290a46d3f7558a95dcfb57269ca57f36b7f2545f2182252f500b460fa40f5",
      "assetIds": []
    },
    {
      "x": 87,
      "y": 18,
      "size": 3,
      "price": "8648000000000000000000",
      "reserved": "0x7a9fe22691c811ea339d9b73150e6911a5343dca",
      "salt": "0x92e355e96d4baed5f538ceb67c986730f13c09f89631c3f67b6852200a25c04b",
      "assetIds": []
    },
    {
      "x": 96,
      "y": 15,
      "size": 3,
      "price": "8648000000000000000000",
      "reserved": "0x7a9fe22691c811ea339d9b73150e6911a5343dca",
      "salt": "0xe236341bed01e6a9c9709c4b7123592988228acb4b441baeba43b85f6dcf9c29",
      "assetIds": []
    },
    {
      "x": 96,
      "y": 18,
      "size": 3,
      "price": "8648000000000000000000",
      "reserved": "0x7a9fe22691c811ea339d9b73150e6911a5343dca",
      "salt": "0x05b0b890cfa4d0b554d2c9ea65cd0c75adf49c25aced67206fc2694c01561a73",
      "assetIds": []
    },
    {
      "x": 99,
      "y": 3,
      "size": 3,
      "price": "8648000000000000000000",
      "reserved": "0x7a9fe22691c811ea339d9b73150e6911a5343dca",
      "salt": "0xf113194e54a6b1efb895250bdc1eaf0e0eb1d4373d70bb11cf57e3d9f27a87fa",
      "assetIds": []
    },
    {
      "x": 99,
      "y": 18,
      "size": 3,
      "price": "8648000000000000000000",
      "reserved": "0x7a9fe22691c811ea339d9b73150e6911a5343dca",
      "salt": "0x4857e09007921246dec7fa2d08b520f7a83d84a9b56414a9b5c58f93e5d82a20",
      "assetIds": []
    },
    {
      "x": 102,
      "y": 6,
      "size": 3,
      "price": "8648000000000000000000",
      "reserved": "0x7a9fe22691c811ea339d9b73150e6911a5343dca",
      "salt": "0x480526462f89e1796bfe066f1d6c4cfeff94c1b7f538dcef2ea3be8b5bdf9e87",
      "assetIds": []
    },
    {
      "x": 105,
      "y": 9,
      "size": 3,
      "price": "8648000000000000000000",
      "reserved": "0x7a9fe22691c811ea339d9b73150e6911a5343dca",
      "salt": "0x8a7718e2f5daf096e333801766c6818ce756dcf884aae341080bd942b5a721f8",
      "assetIds": []
    },
    {
      "x": 108,
      "y": 9,
      "size": 3,
      "price": "8648000000000000000000",
      "reserved": "0x7a9fe22691c811ea339d9b73150e6911a5343dca",
      "salt": "0x491afd81a11624a5833be619784cd2ff3402e88177d5b9a5f1917f8087dacafa",
      "assetIds": []
    },
    {
      "x": 108,
      "y": 18,
      "size": 3,
      "price": "8648000000000000000000",
      "reserved": "0x7a9fe22691c811ea339d9b73150e6911a5343dca",
      "salt": "0x2f06aebba2083b8b9e2b24f0cce7b444b2b7fbb367337c4c497621293264e19e",
      "assetIds": []
    },
    {
      "x": 111,
      "y": 12,
      "size": 3,
      "price": "8648000000000000000000",
      "reserved": "0x7a9fe22691c811ea339d9b73150e6911a5343dca",
      "salt": "0x41498fa899ba8f42f3f56fbd02d77f199d663b8575cc7b0a68b97b65d1b6dbb8",
      "assetIds": []
    },
    {
      "x": 111,
      "y": 18,
      "size": 3,
      "price": "8648000000000000000000",
      "reserved": "0x7a9fe22691c811ea339d9b73150e6911a5343dca",
      "salt": "0x791fb7fa362ef5956529f955749ea20a69ed94684e46a578654d5898414202b4",
      "assetIds": []
    },
    {
      "x": 114,
      "y": 3,
      "size": 3,
      "price": "8648000000000000000000",
      "reserved": "0x7a9fe22691c811ea339d9b73150e6911a5343dca",
      "salt": "0x5875a79de63e2dc17aad9db7e8ab95144832ca51d681aa0d56ea074aac960f11",
      "assetIds": []
    },
    {
      "x": 117,
      "y": 18,
      "size": 3,
      "price": "8648000000000000000000",
      "reserved": "0x7a9fe22691c811ea339d9b73150e6911a5343dca",
      "salt": "0x217fa85c6adbf307d0abf24c70b067475ac21a51d9f39e3a80cfa6befd119b79",
      "assetIds": []
    },
    {
      "x": 120,
      "y": 6,
      "size": 3,
      "price": "8648000000000000000000",
      "reserved": "0x7a9fe22691c811ea339d9b73150e6911a5343dca",
      "salt": "0xc261d26be1204dcfefca5e1252bfcbc3c6d4ac1e49bd4e6b0dd42a80e9d0048e",
      "assetIds": []
    },
    {
      "x": 126,
      "y": 3,
      "size": 3,
      "price": "8648000000000000000000",
      "reserved": "0x7a9fe22691c811ea339d9b73150e6911a5343dca",
      "salt": "0xac7326fbbc326be662eeb6f37b52063d3bfbed4957f47070f1a59d40cca7230c",
      "assetIds": []
    },
    {
      "x": 126,
      "y": 6,
      "size": 3,
      "price": "8648000000000000000000",
      "reserved": "0x7a9fe22691c811ea339d9b73150e6911a5343dca",
      "salt": "0x6615b6333ebce0ceed89283e28c8252fc1a80776a956fb4c05f78bee080969f1",
      "assetIds": []
    },
    {
      "x": 126,
      "y": 15,
      "size": 3,
      "price": "8648000000000000000000",
      "reserved": "0x7a9fe22691c811ea339d9b73150e6911a5343dca",
      "salt": "0x020331ddf3468f9ee8f4d7a47130b8e7df7a507f45d6b6ea657107598bd8d7c0",
      "assetIds": []
    },
    {
      "x": 78,
      "y": 0,
      "size": 6,
      "price": "32772000000000000000000",
      "reserved": "0x7a9fe22691c811ea339d9b73150e6911a5343dca",
      "salt": "0xe90539e7eb6a8af52dc0f643d079e3b1d29cec8536c982542bae42a4f96be407",
      "assetIds": []
    },
    {
      "x": 78,
      "y": 12,
      "size": 6,
      "price": "32772000000000000000000",
      "reserved": "0x7a9fe22691c811ea339d9b73150e6911a5343dca",
      "salt": "0x51dea1a13baa21b3d1e5f32a327b493956bdcfef1a30f87d55fca64f1bc5a922",
      "assetIds": []
    },
    {
      "x": 90,
      "y": 0,
      "size": 6,
      "price": "32772000000000000000000",
      "reserved": "0x7a9fe22691c811ea339d9b73150e6911a5343dca",
      "salt": "0x6661a7bbbb866427ab4be15947045941af496e377d275c8c8266ea12e50d4ca2",
      "assetIds": []
    },
    {
      "x": 90,
      "y": 12,
      "size": 6,
      "price": "32772000000000000000000",
      "reserved": "0x7a9fe22691c811ea339d9b73150e6911a5343dca",
      "salt": "0x8911f01b6f7a3205eb926a53caed3898ca3c12fd3b074e2b7cd3cefd617ffb8c",
      "assetIds": []
    },
    {
      "x": 96,
      "y": 6,
      "size": 6,
      "price": "32772000000000000000000",
      "reserved": "0x7a9fe22691c811ea339d9b73150e6911a5343dca",
      "salt": "0x6ab594eaaa5cb571a2358943c4a32826231154905b53dbca51c762552435d34e",
      "assetIds": []
    },
    {
      "x": 102,
      "y": 12,
      "size": 6,
      "price": "32772000000000000000000",
      "reserved": "0x7a9fe22691c811ea339d9b73150e6911a5343dca",
      "salt": "0xf74b0272bb0f3fd394e43fa6209620bb9257a932d003402ba2eeec50982059f6",
      "assetIds": []
    },
    {
      "x": 108,
      "y": 0,
      "size": 6,
      "price": "32772000000000000000000",
      "reserved": "0x7a9fe22691c811ea339d9b73150e6911a5343dca",
      "salt": "0x5bac7c033876f6792ba68555796387909bce70de13ae20fc89c155aac05ea9c1",
      "assetIds": []
    },
    {
      "x": 114,
      "y": 6,
      "size": 6,
      "price": "32772000000000000000000",
      "reserved": "0x7a9fe22691c811ea339d9b73150e6911a5343dca",
      "salt": "0x58e734c89f22ec73d275cbed796adc75ef40d38a2d7a0020d7e5f6f6eb408443",
      "assetIds": []
    },
    {
      "x": 114,
      "y": 12,
      "size": 6,
      "price": "32772000000000000000000",
      "reserved": "0x7a9fe22691c811ea339d9b73150e6911a5343dca",
      "salt": "0x015e8b2154cd32a8c20abddc0aa0b355e4b8f52b454d3ce355e6b71f3f1032c3",
      "assetIds": []
    },
    {
      "x": 120,
      "y": 0,
      "size": 6,
      "price": "32772000000000000000000",
      "reserved": "0x7a9fe22691c811ea339d9b73150e6911a5343dca",
      "salt": "0x4c607c475a2aa185c7b88a1e2d90b0b85882989dd61a8c61c6fcbf79e20f5711",
      "assetIds": []
    },
    {
      "x": 120,
      "y": 12,
      "size": 6,
      "price": "32772000000000000000000",
      "reserved": "0x7a9fe22691c811ea339d9b73150e6911a5343dca",
      "salt": "0x161754176144456fc218fd8043b43f6c5d6f8677938916123b188965c5ccf48f",
      "assetIds": []
    }
  ],
  "solcInputHash": "e17a5bb930c92aaeeb80a52119ce77b7",
  "bytecode": "0x610160604052620d2f0060055534801561001857600080fd5b506040516200284d3803806200284d83398181016040526101a081101561003e57600080fd5b50805160208201516040830151606080850151608086015160a08088015160c0808a015160e08b01516101008c01516101208d01516101408e01516101608f0151610180909f0151600280546001600160a01b0319166001600160a01b03871617905560038490558e8c1b6001600160601b03199081169099529a8d901b9097169094529a9b999a98999698959793969195909490939091906100e28b600161015d565b600680546001600160a01b039a8b166001600160a01b031991821617909155610140989098526101209690965260008054998916998816999099179098556001600160601b0319606092831b811660e05290821b811660805296901b909516610100525060078054919093169116179055506101c192505050565b6001600160a01b038216600081815260016020908152604091829020805460ff191685151590811790915582519384529083015280517fb21eb88b4e33b3f1281830a7178d74d8aa73220416215726b68ae23d539515cb9281900390910190a15050565b60805160601c60a05160601c60c05160601c60e05160601c6101005160601c61012051610140516126066200024760003980610b3d528061206c525080610b1952806112ec5250806120da525080611841528061199e5250806117f75280611b9d528061210e525080611872528061196f525080610eb25280611c8952506126066000f3fe608060405234801561001057600080fd5b506004361061011b5760003560e01c80638f283970116100b2578063c10a420811610081578063dc5074af11610066578063dc5074af1461085f578063e56f8a9e14610885578063f23a6e61146108a25761011b565b8063c10a420814610780578063caed3500146108575761011b565b80638f28397014610500578063984d625214610526578063b522ecff146105f8578063bc197c811461061e5761011b565b806365194ce7116100ee57806365194ce7146103485780636e9960c3146104a657806377f1c3ac146104ca5780638a04af6a146104d25761011b565b80631187fd3c1461012057806325cb5bc014610300578063495906571461031a57806358bc294414610322575b600080fd5b6102fe600480360361012081101561013757600080fd5b6001600160a01b038235811692602081013582169260408201359092169181019060808101606082013564010000000081111561017357600080fd5b82018360208201111561018557600080fd5b803590602001918460208302840111640100000000831117156101a757600080fd5b919390928235926040810190602001356401000000008111156101c957600080fd5b8201836020820111156101db57600080fd5b803590602001918460208302840111640100000000831117156101fd57600080fd5b91939092909160208101903564010000000081111561021b57600080fd5b82018360208201111561022d57600080fd5b8035906020019184602083028401116401000000008311171561024f57600080fd5b91939092909160208101903564010000000081111561026d57600080fd5b82018360208201111561027f57600080fd5b803590602001918460018302840111640100000000831117156102a157600080fd5b9193909290916020810190356401000000008111156102bf57600080fd5b8201836020820111156102d157600080fd5b803590602001918460018302840111640100000000831117156102f357600080fd5b509092509050610937565b005b610308610b17565b60408051918252519081900360200190f35b610308610b3b565b6102fe6004803603602081101561033857600080fd5b50356001600160a01b0316610b5f565b6103ee6004803603602081101561035e57600080fd5b81019060208101813564010000000081111561037957600080fd5b82018360208201111561038b57600080fd5b803590602001918460018302840111640100000000831117156103ad57600080fd5b91908080601f016020809104026020016040519081016040528093929190818152602001838380828437600092019190915250929550610c0a945050505050565b6040518080602001866001600160a01b03166001600160a01b03168152602001856001600160a01b03166001600160a01b03168152602001848152602001838152602001828103825287818151815260200191508051906020019080838360005b8381101561046757818101518382015260200161044f565b50505050905090810190601f1680156104945780820380516001836020036101000a031916815260200191505b50965050505050505060405180910390f35b6104ae610d0f565b604080516001600160a01b039092168252519081900360200190f35b610308610d1e565b6102fe600480360360408110156104e857600080fd5b506001600160a01b0381351690602001351515610d24565b6102fe6004803603602081101561051657600080fd5b50356001600160a01b0316610d7b565b6102fe6004803603606081101561053c57600080fd5b6001600160a01b03823516919081019060408101602082013564010000000081111561056757600080fd5b82018360208201111561057957600080fd5b8035906020019184602083028401116401000000008311171561059b57600080fd5b9193909290916020810190356401000000008111156105b957600080fd5b8201836020820111156105cb57600080fd5b803590602001918460208302840111640100000000831117156105ed57600080fd5b509092509050610e51565b6102fe6004803603602081101561060e57600080fd5b50356001600160a01b0316610fdc565b61074b600480360360a081101561063457600080fd5b6001600160a01b03823581169260208101359091169181019060608101604082013564010000000081111561066857600080fd5b82018360208201111561067a57600080fd5b8035906020019184602083028401116401000000008311171561069c57600080fd5b9193909290916020810190356401000000008111156106ba57600080fd5b8201836020820111156106cc57600080fd5b803590602001918460208302840111640100000000831117156106ee57600080fd5b91939092909160208101903564010000000081111561070c57600080fd5b82018360208201111561071e57600080fd5b8035906020019184600183028401116401000000008311171561074057600080fd5b5090925090506110c5565b604080517fffffffff000000000000000000000000000000000000000000000000000000009092168252519081900360200190f35b610843600480360360a081101561079657600080fd5b8101906020810181356401000000008111156107b157600080fd5b8201836020820111156107c357600080fd5b803590602001918460018302840111640100000000831117156107e557600080fd5b91908080601f016020809104026020016040519081016040528093929190818152602001838380828437600092019190915250929550506001600160a01b0383358116945060208401351692604081013592506060013590506110f2565b604080519115158252519081900360200190f35b6104ae61122e565b6108436004803603602081101561087557600080fd5b50356001600160a01b031661123d565b6102fe6004803603602081101561089b57600080fd5b503561125b565b61074b600480360360a08110156108b857600080fd5b6001600160a01b03823581169260208101359091169160408201359160608101359181019060a0810160808201356401000000008111156108f857600080fd5b82018360208201111561090a57600080fd5b8035906020019184600183028401116401000000008311171561092c57600080fd5b5090925090506112bf565b6109418e8d6112ea565b610a388d8d8d8d80806020026020016040519081016040528093929190818152602001838360200280828437600081840152601f19601f820116905080830192505050505050508c8c8c80806020026020016040519081016040528093929190818152602001838360200280828437600081840152601f19601f820116905080830192505050505050508b8b8080602002602001604051908101604052809392919081815260200183836020028082843760009201919091525050604080516020601f8d018190048102820181019092528b815292508b91508a908190840183828082843760009201919091525061144d92505050565b610a8c8e8c8c6003818110610a4957fe5b9050602002013586868080601f0160208091040260200160405190810160405280939291908181526020018383808284376000920191909152506117d092505050565b610aca8e8e8d8d8080602002602001604051908101604052809392919081815260200183836020028082843760009201919091525061182192505050565b610b078d898980806020026020016040519081016040528093929190818152602001838360200280828437600092019190915250611c1292505050565b5050505050505050505050505050565b7f000000000000000000000000000000000000000000000000000000000000000090565b7f000000000000000000000000000000000000000000000000000000000000000090565b6000546001600160a01b03163314610bbe576040805162461bcd60e51b815260206004820152601060248201527f53656e646572206e6f742061646d696e00000000000000000000000000000000604482015290519081900360640190fd5b600554600280546001600160a01b03908116600090815260046020526040902042909301909255805473ffffffffffffffffffffffffffffffffffffffff191692909116919091179055565b606060008060008060606000806000808a80602001905160a0811015610c2f57600080fd5b8101908080516040519392919084640100000000821115610c4f57600080fd5b908301906020820185811115610c6457600080fd5b8251640100000000811182820188101715610c7e57600080fd5b82525081516020918201929091019080838360005b83811015610cab578181015183820152602001610c93565b50505050905090810190601f168015610cd85780820380516001836020036101000a031916815260200191505b5060409081526020820151908201516060830151608090930151959f50909d509b5099509197505050505050505091939590929450565b6000546001600160a01b031690565b60035490565b6000546001600160a01b03163314610d6d5760405162461bcd60e51b815260040180806020018281038252602e8152602001806125a3602e913960400191505060405180910390fd5b610d778282611dd6565b5050565b6000546001600160a01b03163314610dda576040805162461bcd60e51b815260206004820152601b60248201527f6f6e6c792061646d696e2063616e206368616e67652061646d696e0000000000604482015290519081900360640190fd5b600054604080516001600160a01b039283168152918316602083015280517f7e644d79422f17c01e4894b5f4f588d331ebfa28653d42ae832dc59e38c9798f9281900390910190a16000805473ffffffffffffffffffffffffffffffffffffffff19166001600160a01b0392909216919091179055565b6000546001600160a01b03163314610eb0576040805162461bcd60e51b815260206004820152600e60248201527f4e4f545f415554484f52495a4544000000000000000000000000000000000000604482015290519081900360640190fd5b7f00000000000000000000000000000000000000000000000000000000000000006001600160a01b0316632eb2c2d63087878787876040518763ffffffff1660e01b815260040180876001600160a01b03166001600160a01b03168152602001866001600160a01b03166001600160a01b031681526020018060200180602001806020018481038452888882818152602001925060200280828437600083820152601f01601f19169091018581038452868152602090810191508790870280828437600081840152601f19601f8201169050808301925050508481038252600081526020016020019950505050505050505050600060405180830381600087803b158015610fbd57600080fd5b505af1158015610fd1573d6000803e3d6000fd5b505050505050505050565b6001600160a01b038116611037576040805162461bcd60e51b815260206004820152600c60248201527f5a45524f5f414444524553530000000000000000000000000000000000000000604482015290519081900360640190fd5b6000546001600160a01b03163314611096576040805162461bcd60e51b815260206004820152600e60248201527f4e4f545f415554484f52495a4544000000000000000000000000000000000000604482015290519081900360640190fd5b6006805473ffffffffffffffffffffffffffffffffffffffff19166001600160a01b0392909216919091179055565b7fbc197c810000000000000000000000000000000000000000000000000000000098975050505050505050565b60006003548211806111155750836001600160a01b0316856001600160a01b0316145b8061111f57508242115b1561112c57506000611225565b60408051606087811b7fffffffffffffffffffffffffffffffffffffffff0000000000000000000000009081166020808501919091529188901b166034830152604882018690526068808301869052835180840390910181526088830184528051908201207f19457468657265756d205369676e6564204d6573736167653a0a33320000000060a884015260c48084018290528451808503909101815260e490930190935281519101206000906111e39089611e58565b6001600160a01b038116600090815260046020526040902054909150421161121057600192505050611225565b6002546001600160a01b039081169116149150505b95945050505050565b6002546001600160a01b031690565b6001600160a01b031660009081526001602052604090205460ff1690565b6000546001600160a01b031633146112ba576040805162461bcd60e51b815260206004820152601060248201527f53656e646572206e6f742061646d696e00000000000000000000000000000000604482015290519081900360640190fd5b600355565b7ff23a6e61000000000000000000000000000000000000000000000000000000009695505050505050565b7f0000000000000000000000000000000000000000000000000000000000000000421061135e576040805162461bcd60e51b815260206004820152600c60248201527f53414c455f49535f4f5645520000000000000000000000000000000000000000604482015290519081900360640190fd5b6001600160a01b03821633148061138457503360009081526001602052604090205460ff165b6113d5576040805162461bcd60e51b815260206004820152600e60248201527f4e4f545f415554484f52495a4544000000000000000000000000000000000000604482015290519081900360640190fd5b6001600160a01b03811615806113fc5750816001600160a01b0316816001600160a01b0316145b610d77576040805162461bcd60e51b815260206004820152600d60248201527f52455345525645445f4c414e4400000000000000000000000000000000000000604482015290519081900360640190fd5b600087878760008151811061145e57fe5b60200260200101518860018151811061147357fe5b60200260200101518960028151811061148857fe5b60200260200101518a60038151811061149d57fe5b60200260200101518a8a60405160200180828051906020019060200280838360005b838110156114d75781810151838201526020016114bf565b50505050905001915050604051602081830303815290604052805190602001208a60405160200180828051906020019060200280838360005b83811015611528578181015183820152602001611510565b5050505090500191505060405160208183030381529060405280519060200120604051602001808a6001600160a01b03166001600160a01b031660601b8152601401896001600160a01b03166001600160a01b031660601b81526014018881526020018781526020018681526020018581526020018481526020018381526020018281526020019950505050505050505050604051602081830303815290604052805190602001209050600760009054906101000a90046001600160a01b03166001600160a01b031663012847ed83836040518363ffffffff1660e01b81526004018080602001838152602001828103825284818151815260200191508051906020019080838360005b8381101561164a578181015183820152602001611632565b50505050905090810190601f1680156116775780820380516001836020036101000a031916815260200191505b50935050505060206040518083038186803b15801561169557600080fd5b505afa1580156116a9573d6000803e3d6000fd5b505050506040513d60208110156116bf57600080fd5b5051611712576040805162461bcd60e51b815260206004820152600c60248201527f494e56414c49445f415554480000000000000000000000000000000000000000604482015290519081900360640190fd5b60006117738760008151811061172457fe5b60200260200101518860018151811061173957fe5b60200260200101518960028151811061174e57fe5b60200260200101518a60038151811061176357fe5b60200260200101518c8b8b611f25565b905061177f8482611fca565b610fd1576040805162461bcd60e51b815260206004820152600c60248201527f494e56414c49445f4c414e440000000000000000000000000000000000000000604482015290519081900360640190fd5b60006117dc8484612095565b60065490915061181b908590839085906001600160a01b03167f00000000000000000000000000000000000000000000000000000000000000006121ee565b50505050565b8060028151811061182e57fe5b60200260200101516001148061186b57507f00000000000000000000000000000000000000000000000000000000000000006001600160a01b0316155b1561196d577f00000000000000000000000000000000000000000000000000000000000000006001600160a01b0316636e1e3bbf83836002815181106118ad57fe5b6020026020010151846000815181106118c257fe5b6020026020010151856001815181106118d757fe5b60200260200101516040518563ffffffff1660e01b815260040180856001600160a01b03166001600160a01b031681526020018481526020018381526020018281526020018060200182810382526000815260200160200195505050505050600060405180830381600087803b15801561195057600080fd5b505af1158015611964573d6000803e3d6000fd5b50505050611b0d565b7f00000000000000000000000000000000000000000000000000000000000000006001600160a01b0316636e1e3bbf7f0000000000000000000000000000000000000000000000000000000000000000836002815181106119ca57fe5b6020026020010151846000815181106119df57fe5b6020026020010151856001815181106119f457fe5b60200260200101518760405160200180826001600160a01b03166001600160a01b031681526020019150506040516020818303038152906040526040518663ffffffff1660e01b815260040180866001600160a01b03166001600160a01b0316815260200185815260200184815260200183815260200180602001828103825283818151815260200191508051906020019080838360005b83811015611aa4578181015183820152602001611a8c565b50505050905090810190601f168015611ad15780820380516001836020036101000a031916815260200191505b509650505050505050600060405180830381600087803b158015611af457600080fd5b505af1158015611b08573d6000803e3d6000fd5b505050505b61019881600181518110611b1d57fe5b60200260200101510281600081518110611b3357fe5b602002602001015101826001600160a01b0316846001600160a01b03167fe4dfa6ac11314892f3029b34a25b1a887da3b1cab2bbf8506d87128ba6e3ac0284600281518110611b7e57fe5b602002602001015185600381518110611b9357fe5b60200260200101517f000000000000000000000000000000000000000000000000000000000000000087600381518110611bc957fe5b602002602001015160405180858152602001848152602001836001600160a01b03166001600160a01b0316815260200182815260200194505050505060405180910390a4505050565b6060815167ffffffffffffffff81118015611c2c57600080fd5b50604051908082528060200260200182016040528015611c56578160200160208202803683370190505b50905060005b8251811015611c86576001828281518110611c7357fe5b6020908102919091010152600101611c5c565b507f00000000000000000000000000000000000000000000000000000000000000006001600160a01b0316632eb2c2d6308585856040518563ffffffff1660e01b815260040180856001600160a01b03166001600160a01b03168152602001846001600160a01b03166001600160a01b03168152602001806020018060200180602001848103845286818151815260200191508051906020019060200280838360005b83811015611d41578181015183820152602001611d29565b50505050905001848103835285818151815260200191508051906020019060200280838360005b83811015611d80578181015183820152602001611d68565b50505050905001848103825260008152602001602001975050505050505050600060405180830381600087803b158015611db957600080fd5b505af1158015611dcd573d6000803e3d6000fd5b50505050505050565b6001600160a01b03821660008181526001602090815260409182902080547fffffffffffffffffffffffffffffffffffffffffffffffffffffffffffffff001685151590811790915582519384529083015280517fb21eb88b4e33b3f1281830a7178d74d8aa73220416215726b68ae23d539515cb9281900390910190a15050565b60008151604114611e6857600080fd5b60208201516040830151606084015160001a601b811015611e8757601b015b8060ff16601b1480611e9c57508060ff16601c145b611ea557600080fd5b6040805160008152602080820180845289905260ff8416828401526060820186905260808201859052915160019260a0808401939192601f1981019281900390910190855afa158015611efc573d6000803e3d6000fd5b5050604051601f1901519450506001600160a01b038416611f1c57600080fd5b50505092915050565b60008787878787878760405160200180888152602001878152602001868152602001858152602001846001600160a01b03166001600160a01b031660601b8152601401838152602001828051906020019060200280838360005b83811015611f97578181015183820152602001611f7f565b50505050905001975050505050505050604051602081830303815290604052805190602001209050979650505050505050565b600081815b8451811015612069576000858281518110611fe657fe5b602002602001015190508083101561202e5782816040516020018083815260200182815260200192505050604051602081830303815290604052805190602001209250612060565b808360405160200180838152602001828152602001925050506040516020818303038152906040528051906020012092505b50600101611fcf565b507f00000000000000000000000000000000000000000000000000000000000000001490505b92915050565b6000806120ba60646120ae85600563ffffffff61247016565b9063ffffffff6124e016565b604080516323b872dd60e01b81526001600160a01b0387811660048301527f0000000000000000000000000000000000000000000000000000000000000000811660248301526044820184905291519293507f0000000000000000000000000000000000000000000000000000000000000000909116916323b872dd916064808201926020929091908290030181600087803b15801561215957600080fd5b505af115801561216d573d6000803e3d6000fd5b505050506040513d602081101561218357600080fd5b50516121d6576040805162461bcd60e51b815260206004820152601360248201527f4645455f5452414e534645525f4641494c454400000000000000000000000000604482015290519081900360640190fd5b6121e6838263ffffffff61254516565b949350505050565b8251819085901561239857606060008060008061220a8a610c0a565b939850919650945092509050600061222586868686866110f2565b156122b35761223f6122378d84612470565b6127106124e0565b9050886001600160a01b0316846001600160a01b0316866001600160a01b03167fac7a699eb95c3c6d390ec4626de17ef9a67b35891efdb197beba7c7fdd45fac48f858760405180848152602001838152602001828152602001935050505060405180910390a46122b08782612545565b96505b801561239157604080516323b872dd60e01b81526001600160a01b038f811660048301528781166024830152604482018490529151918a16916323b872dd916064808201926020929091908290030181600087803b15801561231457600080fd5b505af1158015612328573d6000803e3d6000fd5b505050506040513d602081101561233e57600080fd5b5051612391576040805162461bcd60e51b815260206004820152601960248201527f636f6d6d6973696f6e207472616e73666572206661696c656400000000000000604482015290519081900360640190fd5b5050505050505b604080516323b872dd60e01b81526001600160a01b0389811660048301528681166024830152604482018490529151918416916323b872dd916064808201926020929091908290030181600087803b1580156123f357600080fd5b505af1158015612407573d6000803e3d6000fd5b505050506040513d602081101561241d57600080fd5b5051611dcd576040805162461bcd60e51b815260206004820152601760248201527f7061796d656e74207472616e73666572206661696c6564000000000000000000604482015290519081900360640190fd5b60008261247f5750600061208f565b508181028183828161248d57fe5b041461208f576040805162461bcd60e51b815260206004820152600860248201527f6f766572666c6f77000000000000000000000000000000000000000000000000604482015290519081900360640190fd5b600081612534576040805162461bcd60e51b815260206004820152600960248201527f64697662797a65726f0000000000000000000000000000000000000000000000604482015290519081900360640190fd5b81838161253d57fe5b049392505050565b60008282111561259c576040805162461bcd60e51b815260206004820152600860248201527f756e6465666c6f77000000000000000000000000000000000000000000000000604482015290519081900360640190fd5b5090039056fe6f6e6c792061646d696e2063616e207365747570206d6574615472616e73616374696f6e50726f636573736f7273a2646970667358221220fc9205bafc138c1de206481f144dc3e7818922fbe1a20d2a71392e5e2e413c1a64736f6c63430006050033",
  "devdoc": {
    "methods": {
      "buyLandWithSand(address,address,address,uint256[],bytes32,uint256[],bytes32[],bytes,bytes)": {
        "params": {
          "buyer": "address that perform the payment",
          "info": "[X_INDEX=0] x coordinate of the Land [Y_INDEX=1] y coordinate of the Land [SIZE_INDEX=2] size of the pack of Land to purchase [PRICE_INDEX=3] price in SAND to purchase that Land",
          "proof": "merkleProof for that particular Land",
          "reserved": "the reserved address (if any)",
          "to": "address that will own the purchased Land"
        }
      },
      "changeAdmin(address)": {
        "details": "change the administrator to be `newAdmin`.",
        "params": {
          "newAdmin": "address of the new administrator."
        }
      },
      "getAdmin()": {
        "details": "gives the current administrator of this contract.",
        "returns": {
          "_0": "the current administrator of this contract."
        }
      },
      "getSigningWallet()": {
        "details": "signing wallet authorized for referral",
        "returns": {
          "_0": "the address of the signing wallet"
        }
      },
      "isMetaTransactionProcessor(address)": {
        "details": "check whether address `who` is given meta-transaction execution rights.",
        "params": {
          "who": "The address to query."
        },
        "returns": {
          "_0": "whether the address has meta-transaction execution rights."
        }
      },
      "isReferralValid(bytes,address,address,uint256,uint256)": {
        "params": {
          "commissionRate": "The commissionRate of the referral",
          "expiryTime": "The expiry time of the referral",
          "referee": "The address of the referee",
          "referrer": "The address of the referrer",
          "signature": "The signature to check (signed referral)"
        },
        "returns": {
          "_0": "True if the referral is valid"
        }
      },
      "setMetaTransactionProcessor(address,bool)": {
        "details": "Enable or disable the ability of `metaTransactionProcessor` to perform meta-tx (metaTransactionProcessor rights).",
        "params": {
          "enabled": "set whether the metaTransactionProcessor is enabled or disabled.",
          "metaTransactionProcessor": "address that will be given/removed metaTransactionProcessor rights."
        }
      },
      "setReceivingWallet(address)": {
        "params": {
          "newWallet": "address of the new receiving wallet"
        }
      },
      "updateMaxCommissionRate(uint256)": {
        "details": "Update the maximum commission rate",
        "params": {
          "newMaxCommissionRate": "The new maximum commission rate"
        }
      },
      "updateSigningWallet(address)": {
        "details": "Update the signing wallet",
        "params": {
          "newSigningWallet": "The new address of the signing wallet"
        }
      },
      "withdrawAssets(address,uint256[],uint256[])": {
        "params": {
          "assetIds": "the assetIds to be transferred",
          "to": "intended recipient of the asset tokens",
          "values": "the quantities of the assetIds to be transferred"
        }
      }
    },
    "title": "Estate Sale contract with referral"
  },
  "userdoc": {
    "methods": {
      "buyLandWithSand(address,address,address,uint256[],bytes32,uint256[],bytes32[],bytes,bytes)": {
        "notice": "buy Land with SAND using the merkle proof associated with it"
      },
      "getExpiryTime()": {
        "notice": "Gets the expiry time for the current sale"
      },
      "getMaxCommisionRate()": {
        "notice": "the max commision rate"
      },
      "getMerkleRoot()": {
        "notice": "Gets the Merkle root associated with the current sale"
      },
      "isReferralValid(bytes,address,address,uint256,uint256)": {
        "notice": "Check if a referral is valid"
      },
      "setReceivingWallet(address)": {
        "notice": "set the wallet receiving the proceeds"
      },
      "withdrawAssets(address,uint256[],uint256[])": {
        "notice": "enable Admin to withdraw remaining assets from EstateSaleWithFee contract"
      }
    },
    "notice": "This contract manages the sale of our lands as Estates"
  },
  "storageLayout": {
    "storage": [
      {
        "astId": 13650,
        "contract": "src/solc_0.6/EstateSale/EstateSaleWithAuth.sol:EstateSaleWithAuth",
        "label": "_admin",
        "offset": 0,
        "slot": "0",
        "type": "t_address"
      },
      {
        "astId": 13712,
        "contract": "src/solc_0.6/EstateSale/EstateSaleWithAuth.sol:EstateSaleWithAuth",
        "label": "_metaTransactionContracts",
        "offset": 0,
        "slot": "1",
        "type": "t_mapping(t_address,t_bool)"
      },
      {
        "astId": 11828,
        "contract": "src/solc_0.6/EstateSale/EstateSaleWithAuth.sol:EstateSaleWithAuth",
        "label": "_signingWallet",
        "offset": 0,
        "slot": "2",
        "type": "t_address"
      },
      {
        "astId": 11830,
        "contract": "src/solc_0.6/EstateSale/EstateSaleWithAuth.sol:EstateSaleWithAuth",
        "label": "_maxCommissionRate",
        "offset": 0,
        "slot": "3",
        "type": "t_uint256"
      },
      {
        "astId": 11834,
        "contract": "src/solc_0.6/EstateSale/EstateSaleWithAuth.sol:EstateSaleWithAuth",
        "label": "_previousSigningWallets",
        "offset": 0,
        "slot": "4",
        "type": "t_mapping(t_address,t_uint256)"
      },
      {
        "astId": 11843,
        "contract": "src/solc_0.6/EstateSale/EstateSaleWithAuth.sol:EstateSaleWithAuth",
        "label": "_previousSigningDelay",
        "offset": 0,
        "slot": "5",
        "type": "t_uint256"
      },
      {
        "astId": 7453,
        "contract": "src/solc_0.6/EstateSale/EstateSaleWithAuth.sol:EstateSaleWithAuth",
        "label": "_wallet",
        "offset": 0,
        "slot": "6",
        "type": "t_address_payable"
      },
      {
        "astId": 7455,
        "contract": "src/solc_0.6/EstateSale/EstateSaleWithAuth.sol:EstateSaleWithAuth",
        "label": "_authValidator",
        "offset": 0,
        "slot": "7",
        "type": "t_contract(AuthValidator)6784"
      }
    ],
    "types": {
      "t_address": {
        "encoding": "inplace",
        "label": "address",
        "numberOfBytes": "20"
      },
      "t_address_payable": {
        "encoding": "inplace",
        "label": "address payable",
        "numberOfBytes": "20"
      },
      "t_bool": {
        "encoding": "inplace",
        "label": "bool",
        "numberOfBytes": "1"
      },
      "t_contract(AuthValidator)6784": {
        "encoding": "inplace",
        "label": "contract AuthValidator",
        "numberOfBytes": "20"
      },
      "t_mapping(t_address,t_bool)": {
        "encoding": "mapping",
        "key": "t_address",
        "label": "mapping(address => bool)",
        "numberOfBytes": "32",
        "value": "t_bool"
      },
      "t_mapping(t_address,t_uint256)": {
        "encoding": "mapping",
        "key": "t_address",
        "label": "mapping(address => uint256)",
        "numberOfBytes": "32",
        "value": "t_uint256"
      },
      "t_uint256": {
        "encoding": "inplace",
        "label": "uint256",
        "numberOfBytes": "32"
      }
    }
  }
}