{
  "address": "0xfbd4910BD5029C4dC8102A3a46b171d3F87613c9",
  "abi": [
    {
      "constant": true,
      "inputs": [
        {
          "name": "id",
          "type": "bytes4"
        }
      ],
      "name": "supportsInterface",
      "outputs": [
        {
          "name": "",
          "type": "bool"
        }
      ],
      "payable": false,
      "stateMutability": "pure",
      "type": "function"
    },
    {
      "constant": true,
      "inputs": [],
      "name": "name",
      "outputs": [
        {
          "name": "",
          "type": "string"
        }
      ],
      "payable": false,
      "stateMutability": "pure",
      "type": "function"
    },
    {
      "constant": true,
      "inputs": [
        {
          "name": "id",
          "type": "uint256"
        }
      ],
      "name": "getApproved",
      "outputs": [
        {
          "name": "",
          "type": "address"
        }
      ],
      "payable": false,
      "stateMutability": "view",
      "type": "function"
    },
    {
      "constant": false,
      "inputs": [
        {
          "name": "operator",
          "type": "address"
        },
        {
          "name": "id",
          "type": "uint256"
        }
      ],
      "name": "approve",
      "outputs": [],
      "payable": false,
      "stateMutability": "nonpayable",
      "type": "function"
    },
    {
      "constant": true,
      "inputs": [],
      "name": "height",
      "outputs": [
        {
          "name": "",
          "type": "uint256"
        }
      ],
      "payable": false,
      "stateMutability": "pure",
      "type": "function"
    },
    {
      "constant": false,
      "inputs": [
        {
          "name": "from",
          "type": "address"
        },
        {
          "name": "to",
          "type": "address"
        },
        {
          "name": "ids",
          "type": "uint256[]"
        },
        {
          "name": "data",
          "type": "bytes"
        }
      ],
      "name": "batchTransferFrom",
      "outputs": [],
      "payable": false,
      "stateMutability": "nonpayable",
      "type": "function"
    },
    {
      "constant": false,
      "inputs": [
        {
          "name": "from",
          "type": "address"
        },
        {
          "name": "to",
          "type": "address"
        },
        {
          "name": "id",
          "type": "uint256"
        }
      ],
      "name": "transferFrom",
      "outputs": [],
      "payable": false,
      "stateMutability": "nonpayable",
      "type": "function"
    },
    {
      "constant": false,
      "inputs": [
        {
          "name": "from",
          "type": "address"
        },
        {
          "name": "to",
          "type": "address"
        },
        {
          "name": "ids",
          "type": "uint256[]"
        },
        {
          "name": "data",
          "type": "bytes"
        }
      ],
      "name": "safeBatchTransferFrom",
      "outputs": [],
      "payable": false,
      "stateMutability": "nonpayable",
      "type": "function"
    },
    {
      "constant": false,
      "inputs": [
        {
          "name": "sender",
          "type": "address"
        },
        {
          "name": "operator",
          "type": "address"
        },
        {
          "name": "id",
          "type": "uint256"
        }
      ],
      "name": "approveFor",
      "outputs": [],
      "payable": false,
      "stateMutability": "nonpayable",
      "type": "function"
    },
    {
      "constant": false,
      "inputs": [
        {
          "name": "from",
          "type": "address"
        },
        {
          "name": "to",
          "type": "address"
        },
        {
          "name": "size",
          "type": "uint256"
        },
        {
          "name": "x",
          "type": "uint256"
        },
        {
          "name": "y",
          "type": "uint256"
        },
        {
          "name": "data",
          "type": "bytes"
        }
      ],
      "name": "transferQuad",
      "outputs": [],
      "payable": false,
      "stateMutability": "nonpayable",
      "type": "function"
    },
    {
      "constant": false,
      "inputs": [
        {
          "name": "from",
          "type": "address"
        },
        {
          "name": "to",
          "type": "address"
        },
        {
          "name": "id",
          "type": "uint256"
        }
      ],
      "name": "safeTransferFrom",
      "outputs": [],
      "payable": false,
      "stateMutability": "nonpayable",
      "type": "function"
    },
    {
      "constant": false,
      "inputs": [
        {
          "name": "id",
          "type": "uint256"
        }
      ],
      "name": "burn",
      "outputs": [],
      "payable": false,
      "stateMutability": "nonpayable",
      "type": "function"
    },
    {
      "constant": false,
      "inputs": [
        {
          "name": "metaTransactionContract",
          "type": "address"
        },
        {
          "name": "admin",
          "type": "address"
        }
      ],
      "name": "initialize",
      "outputs": [],
      "payable": false,
      "stateMutability": "nonpayable",
      "type": "function"
    },
    {
      "constant": false,
      "inputs": [
        {
          "name": "to",
          "type": "address"
        },
        {
          "name": "size",
          "type": "uint256"
        },
        {
          "name": "x",
          "type": "uint256"
        },
        {
          "name": "y",
          "type": "uint256"
        },
        {
          "name": "data",
          "type": "bytes"
        }
      ],
      "name": "mintAndTransferQuad",
      "outputs": [],
      "payable": false,
      "stateMutability": "nonpayable",
      "type": "function"
    },
    {
      "constant": true,
      "inputs": [
        {
          "name": "size",
          "type": "uint256"
        },
        {
          "name": "x",
          "type": "uint256"
        },
        {
          "name": "y",
          "type": "uint256"
        }
      ],
      "name": "exists",
      "outputs": [
        {
          "name": "",
          "type": "bool"
        }
      ],
      "payable": false,
      "stateMutability": "view",
      "type": "function"
    },
    {
      "constant": true,
      "inputs": [
        {
          "name": "id",
          "type": "uint256"
        }
      ],
      "name": "ownerOf",
      "outputs": [
        {
          "name": "owner",
          "type": "address"
        }
      ],
      "payable": false,
      "stateMutability": "view",
      "type": "function"
    },
    {
      "constant": true,
      "inputs": [
        {
          "name": "who",
          "type": "address"
        }
      ],
      "name": "isSuperOperator",
      "outputs": [
        {
          "name": "",
          "type": "bool"
        }
      ],
      "payable": false,
      "stateMutability": "view",
      "type": "function"
    },
    {
      "constant": false,
      "inputs": [
        {
          "name": "to",
          "type": "address"
        },
        {
          "name": "size",
          "type": "uint256"
        },
        {
          "name": "x",
          "type": "uint256"
        },
        {
          "name": "y",
          "type": "uint256"
        },
        {
          "name": "data",
          "type": "bytes"
        }
      ],
      "name": "mintQuad",
      "outputs": [],
      "payable": false,
      "stateMutability": "nonpayable",
      "type": "function"
    },
    {
      "constant": true,
      "inputs": [],
      "name": "getAdmin",
      "outputs": [
        {
          "name": "",
          "type": "address"
        }
      ],
      "payable": false,
      "stateMutability": "view",
      "type": "function"
    },
    {
      "constant": true,
      "inputs": [
        {
          "name": "owner",
          "type": "address"
        }
      ],
      "name": "balanceOf",
      "outputs": [
        {
          "name": "",
          "type": "uint256"
        }
      ],
      "payable": false,
      "stateMutability": "view",
      "type": "function"
    },
    {
      "constant": false,
      "inputs": [
        {
          "name": "from",
          "type": "address"
        },
        {
          "name": "id",
          "type": "uint256"
        }
      ],
      "name": "burnFrom",
      "outputs": [],
      "payable": false,
      "stateMutability": "nonpayable",
      "type": "function"
    },
    {
      "constant": true,
      "inputs": [
        {
          "name": "id",
          "type": "uint256"
        }
      ],
      "name": "getY",
      "outputs": [
        {
          "name": "",
          "type": "uint256"
        }
      ],
      "payable": false,
      "stateMutability": "pure",
      "type": "function"
    },
    {
      "constant": true,
      "inputs": [
        {
          "name": "",
          "type": "address"
        }
      ],
      "name": "_numNFTPerAddress",
      "outputs": [
        {
          "name": "",
          "type": "uint256"
        }
      ],
      "payable": false,
      "stateMutability": "view",
      "type": "function"
    },
    {
      "constant": false,
      "inputs": [
        {
          "name": "metaTransactionProcessor",
          "type": "address"
        },
        {
          "name": "enabled",
          "type": "bool"
        }
      ],
      "name": "setMetaTransactionProcessor",
      "outputs": [],
      "payable": false,
      "stateMutability": "nonpayable",
      "type": "function"
    },
    {
      "constant": true,
      "inputs": [
        {
          "name": "id",
          "type": "uint256"
        }
      ],
      "name": "getX",
      "outputs": [
        {
          "name": "",
          "type": "uint256"
        }
      ],
      "payable": false,
      "stateMutability": "pure",
      "type": "function"
    },
    {
      "constant": false,
      "inputs": [
        {
          "name": "newAdmin",
          "type": "address"
        }
      ],
      "name": "changeAdmin",
      "outputs": [],
      "payable": false,
      "stateMutability": "nonpayable",
      "type": "function"
    },
    {
      "constant": true,
      "inputs": [],
      "name": "symbol",
      "outputs": [
        {
          "name": "",
          "type": "string"
        }
      ],
      "payable": false,
      "stateMutability": "pure",
      "type": "function"
    },
    {
      "constant": true,
      "inputs": [
        {
          "name": "",
          "type": "uint256"
        }
      ],
      "name": "_owners",
      "outputs": [
        {
          "name": "",
          "type": "uint256"
        }
      ],
      "payable": false,
      "stateMutability": "view",
      "type": "function"
    },
    {
      "constant": false,
      "inputs": [
        {
          "name": "registry",
          "type": "address"
        }
      ],
      "name": "setOperatorRegistry",
      "outputs": [],
      "payable": false,
      "stateMutability": "nonpayable",
      "type": "function"
    },
    {
      "constant": true,
      "inputs": [
        {
          "name": "",
          "type": "address"
        },
        {
          "name": "",
          "type": "address"
        }
      ],
      "name": "_operatorsForAll",
      "outputs": [
        {
          "name": "",
          "type": "bool"
        }
      ],
      "payable": false,
      "stateMutability": "view",
      "type": "function"
    },
    {
      "constant": true,
      "inputs": [],
      "name": "width",
      "outputs": [
        {
          "name": "",
          "type": "uint256"
        }
      ],
      "payable": false,
      "stateMutability": "pure",
      "type": "function"
    },
    {
      "constant": false,
      "inputs": [
        {
          "name": "operator",
          "type": "address"
        },
        {
          "name": "approved",
          "type": "bool"
        }
      ],
      "name": "setApprovalForAll",
      "outputs": [],
      "payable": false,
      "stateMutability": "nonpayable",
      "type": "function"
    },
    {
      "constant": true,
      "inputs": [
        {
          "name": "who",
          "type": "address"
        }
      ],
      "name": "isMinter",
      "outputs": [
        {
          "name": "",
          "type": "bool"
        }
      ],
      "payable": false,
      "stateMutability": "view",
      "type": "function"
    },
    {
      "constant": false,
      "inputs": [
        {
          "name": "subscriptionOrRegistrantToCopy",
          "type": "address"
        },
        {
          "name": "subscribe",
          "type": "bool"
        }
      ],
      "name": "register",
      "outputs": [],
      "payable": false,
      "stateMutability": "nonpayable",
      "type": "function"
    },
    {
      "constant": false,
      "inputs": [
        {
          "name": "superOperator",
          "type": "address"
        },
        {
          "name": "enabled",
          "type": "bool"
        }
      ],
      "name": "setSuperOperator",
      "outputs": [],
      "payable": false,
      "stateMutability": "nonpayable",
      "type": "function"
    },
    {
      "constant": true,
      "inputs": [],
      "name": "operatorFilterRegistry",
      "outputs": [
        {
          "name": "",
          "type": "address"
        }
      ],
      "payable": false,
      "stateMutability": "view",
      "type": "function"
    },
    {
      "constant": false,
      "inputs": [
        {
          "name": "from",
          "type": "address"
        },
        {
          "name": "to",
          "type": "address"
        },
        {
          "name": "id",
          "type": "uint256"
        },
        {
          "name": "data",
          "type": "bytes"
        }
      ],
      "name": "safeTransferFrom",
      "outputs": [],
      "payable": false,
      "stateMutability": "nonpayable",
      "type": "function"
    },
    {
      "constant": true,
      "inputs": [
        {
          "name": "",
          "type": "uint256"
        }
      ],
      "name": "_operators",
      "outputs": [
        {
          "name": "",
          "type": "address"
        }
      ],
      "payable": false,
      "stateMutability": "view",
      "type": "function"
    },
    {
      "constant": true,
      "inputs": [
        {
          "name": "id",
          "type": "uint256"
        }
      ],
      "name": "tokenURI",
      "outputs": [
        {
          "name": "",
          "type": "string"
        }
      ],
      "payable": false,
      "stateMutability": "view",
      "type": "function"
    },
    {
      "constant": false,
      "inputs": [
        {
          "name": "minter",
          "type": "address"
        },
        {
          "name": "enabled",
          "type": "bool"
        }
      ],
      "name": "setMinter",
      "outputs": [],
      "payable": false,
      "stateMutability": "nonpayable",
      "type": "function"
    },
    {
      "constant": true,
      "inputs": [
        {
          "name": "who",
          "type": "address"
        }
      ],
      "name": "isMetaTransactionProcessor",
      "outputs": [
        {
          "name": "",
          "type": "bool"
        }
      ],
      "payable": false,
      "stateMutability": "view",
      "type": "function"
    },
    {
      "constant": true,
      "inputs": [
        {
          "name": "owner",
          "type": "address"
        },
        {
          "name": "operator",
          "type": "address"
        }
      ],
      "name": "isApprovedForAll",
      "outputs": [
        {
          "name": "isOperator",
          "type": "bool"
        }
      ],
      "payable": false,
      "stateMutability": "view",
      "type": "function"
    },
    {
      "constant": false,
      "inputs": [
        {
          "name": "from",
          "type": "address"
        },
        {
          "name": "to",
          "type": "address"
        },
        {
          "name": "sizes",
          "type": "uint256[]"
        },
        {
          "name": "xs",
          "type": "uint256[]"
        },
        {
          "name": "ys",
          "type": "uint256[]"
        },
        {
          "name": "data",
          "type": "bytes"
        }
      ],
      "name": "batchTransferQuad",
      "outputs": [],
      "payable": false,
      "stateMutability": "nonpayable",
      "type": "function"
    },
    {
      "constant": false,
      "inputs": [
        {
          "name": "sender",
          "type": "address"
        },
        {
          "name": "operator",
          "type": "address"
        },
        {
          "name": "approved",
          "type": "bool"
        }
      ],
      "name": "setApprovalForAllFor",
      "outputs": [],
      "payable": false,
      "stateMutability": "nonpayable",
      "type": "function"
    },
    {
      "anonymous": false,
      "inputs": [
        {
          "indexed": false,
          "name": "superOperator",
          "type": "address"
        },
        {
          "indexed": false,
          "name": "enabled",
          "type": "bool"
        }
      ],
      "name": "Minter",
      "type": "event"
    },
    {
      "anonymous": false,
      "inputs": [
        {
          "indexed": false,
          "name": "metaTransactionProcessor",
          "type": "address"
        },
        {
          "indexed": false,
          "name": "enabled",
          "type": "bool"
        }
      ],
      "name": "MetaTransactionProcessor",
      "type": "event"
    },
    {
      "anonymous": false,
      "inputs": [
        {
          "indexed": false,
          "name": "superOperator",
          "type": "address"
        },
        {
          "indexed": false,
          "name": "enabled",
          "type": "bool"
        }
      ],
      "name": "SuperOperator",
      "type": "event"
    },
    {
      "anonymous": false,
      "inputs": [
        {
          "indexed": false,
          "name": "oldAdmin",
          "type": "address"
        },
        {
          "indexed": false,
          "name": "newAdmin",
          "type": "address"
        }
      ],
      "name": "AdminChanged",
      "type": "event"
    },
    {
      "anonymous": false,
      "inputs": [
        {
          "indexed": true,
          "name": "_from",
          "type": "address"
        },
        {
          "indexed": true,
          "name": "_to",
          "type": "address"
        },
        {
          "indexed": true,
          "name": "_tokenId",
          "type": "uint256"
        }
      ],
      "name": "Transfer",
      "type": "event"
    },
    {
      "anonymous": false,
      "inputs": [
        {
          "indexed": true,
          "name": "_owner",
          "type": "address"
        },
        {
          "indexed": true,
          "name": "_approved",
          "type": "address"
        },
        {
          "indexed": true,
          "name": "_tokenId",
          "type": "uint256"
        }
      ],
      "name": "Approval",
      "type": "event"
    },
    {
      "anonymous": false,
      "inputs": [
        {
          "indexed": true,
          "name": "_owner",
          "type": "address"
        },
        {
          "indexed": true,
          "name": "_operator",
          "type": "address"
        },
        {
          "indexed": false,
          "name": "_approved",
          "type": "bool"
        }
      ],
      "name": "ApprovalForAll",
      "type": "event"
    }
  ],
  "transactionHash": "0x19fd975bb68a67dda07f50f2aff649c3b2e1ea4455c0a07f7c3a0400fbdd0f3a",
  "args": [],
  "numDeployments": 3,
  "solcInputHash": "32361202914f709784311a0a428b0b09",
  "bytecode": "0x608060405234801561001057600080fd5b50615b0180620000216000396000f3fe608060405234801561001057600080fd5b50600436106102f45760003560e01c80638782676411610191578063ab01b469116100e3578063c87b56dd11610097578063e985e9c511610071578063e985e9c514610c92578063eaa5e06714610cc0578063eeb5a5d114610e3f576102f4565b8063c87b56dd14610c21578063cf456ae714610c3e578063dc5074af14610c6c576102f4565b8063b0ccc31e116100c8578063b0ccc31e14610b36578063b88d4fde14610b3e578063b9b710e914610c04576102f4565b8063ab01b46914610ada578063ac9fe42114610b08576102f4565b8063992924a6116101455780639ededf771161011f5780639ededf7714610418578063a22cb46514610a86578063aa271e1a14610ab4576102f4565b8063992924a614610a155780639d28fb8614610a325780639d786bbc14610a58576102f4565b80638e5cb5f6116101765780638e5cb5f6146109ca5780638f283970146109e757806395d89b4114610a0d576102f4565b806387826764146109765780638a04af6a1461099c576102f4565b806342966c681161024a578063654b748a116101fe57806370a08231116101d857806370a082311461090757806379cc67901461092d578063845a469714610959576102f4565b8063654b748a146108485780636e1e3bbf1461086e5780636e9960c3146108ff576102f4565b80634e6a0f441161022f5780634e6a0f441461077157806355064d85146108025780636352211e1461082b576102f4565b806342966c6814610726578063485cc95514610743576102f4565b806315ddc535116102ac5780632b991746116102865780632b9917461461061e57806338bb305a1461065457806342842e0e146106f0576102f4565b806315ddc5351461043257806323b872dd1461050d57806328cfbd4614610543576102f4565b8063081812fc116102dd578063081812fc146103b1578063095ea7b3146103ea5780630ef2674314610418576102f4565b806301ffc9a7146102f957806306fdde0314610334575b600080fd5b6103206004803603602081101561030f57600080fd5b50356001600160e01b031916610e77565b604080519115158252519081900360200190f35b61033c610f16565b6040805160208082528351818301528351919283929083019185019080838360005b8381101561037657818101518382015260200161035e565b50505050905090810190601f1680156103a35780820380516001836020036101000a031916815260200191505b509250505060405180910390f35b6103ce600480360360208110156103c757600080fd5b5035610f4d565b604080516001600160a01b039092168252519081900360200190f35b6104166004803603604081101561040057600080fd5b506001600160a01b038135169060200135610fec565b005b6104206111d7565b60408051918252519081900360200190f35b6104166004803603608081101561044857600080fd5b6001600160a01b03823581169260208101359091169181019060608101604082013564010000000081111561047c57600080fd5b82018360208201111561048e57600080fd5b803590602001918460208302840111640100000000831117156104b057600080fd5b9193909290916020810190356401000000008111156104ce57600080fd5b8201836020820111156104e057600080fd5b8035906020019184600183028401116401000000008311171561050257600080fd5b5090925090506111dd565b6104166004803603606081101561052357600080fd5b506001600160a01b03813581169160208101359091169060400135611257565b6104166004803603608081101561055957600080fd5b6001600160a01b03823581169260208101359091169181019060608101604082013564010000000081111561058d57600080fd5b82018360208201111561059f57600080fd5b803590602001918460208302840111640100000000831117156105c157600080fd5b9193909290916020810190356401000000008111156105df57600080fd5b8201836020820111156105f157600080fd5b8035906020019184600183028401116401000000008311171561061357600080fd5b509092509050611494565b6104166004803603606081101561063457600080fd5b506001600160a01b03813581169160208101359091169060400135611509565b610416600480360360c081101561066a57600080fd5b6001600160a01b0382358116926020810135909116916040820135916060810135916080820135919081019060c0810160a08201356401000000008111156106b157600080fd5b8201836020820111156106c357600080fd5b803590602001918460018302840111640100000000831117156106e557600080fd5b50909250905061176e565b6104166004803603606081101561070657600080fd5b506001600160a01b0381358116916020810135909116906040013561199a565b6104166004803603602081101561073c57600080fd5b5035611ac7565b6104166004803603604081101561075957600080fd5b506001600160a01b0381358116916020013516611add565b610416600480360360a081101561078757600080fd5b6001600160a01b038235169160208101359160408201359160608101359181019060a0810160808201356401000000008111156107c357600080fd5b8201836020820111156107d557600080fd5b803590602001918460018302840111640100000000831117156107f757600080fd5b509092509050611b63565b6103206004803603606081101561081857600080fd5b5080359060208101359060400135611cfc565b6103ce6004803603602081101561084157600080fd5b5035611df8565b6103206004803603602081101561085e57600080fd5b50356001600160a01b0316611e60565b610416600480360360a081101561088457600080fd5b6001600160a01b038235169160208101359160408201359160608101359181019060a0810160808201356401000000008111156108c057600080fd5b8201836020820111156108d257600080fd5b803590602001918460018302840111640100000000831117156108f457600080fd5b509092509050611e7e565b6103ce61215e565b6104206004803603602081101561091d57600080fd5b50356001600160a01b031661216d565b6104166004803603604081101561094357600080fd5b506001600160a01b0381351690602001356121e6565b6104206004803603602081101561096f57600080fd5b5035612345565b6104206004803603602081101561098c57600080fd5b50356001600160a01b0316612350565b610416600480360360408110156109b257600080fd5b506001600160a01b0381351690602001351515612362565b610420600480360360208110156109e057600080fd5b503561241c565b610416600480360360208110156109fd57600080fd5b50356001600160a01b0316612427565b61033c61254d565b61042060048036036020811015610a2b57600080fd5b5035612584565b61041660048036036020811015610a4857600080fd5b50356001600160a01b0316612596565b61032060048036036040811015610a6e57600080fd5b506001600160a01b0381358116916020013516612624565b61041660048036036040811015610a9c57600080fd5b506001600160a01b0381351690602001351515612644565b61032060048036036020811015610aca57600080fd5b50356001600160a01b0316612737565b61041660048036036040811015610af057600080fd5b506001600160a01b0381351690602001351515612755565b61041660048036036040811015610b1e57600080fd5b506001600160a01b0381351690602001351515612803565b6103ce612969565b61041660048036036080811015610b5457600080fd5b6001600160a01b03823581169260208101359091169160408201359190810190608081016060820135640100000000811115610b8f57600080fd5b820183602082011115610ba157600080fd5b80359060200191846001830284011164010000000083111715610bc357600080fd5b91908080601f016020809104026020016040519081016040528093929190818152602001838380828437600092019190915250929550612978945050505050565b6103ce60048036036020811015610c1a57600080fd5b5035612a87565b61033c60048036036020811015610c3757600080fd5b5035612aa2565b61041660048036036040811015610c5457600080fd5b506001600160a01b0381351690602001351515612c0b565b61032060048036036020811015610c8257600080fd5b50356001600160a01b0316612d71565b61032060048036036040811015610ca857600080fd5b506001600160a01b0381358116916020013516612d8f565b610416600480360360c0811015610cd657600080fd5b6001600160a01b038235811692602081013590911691810190606081016040820135640100000000811115610d0a57600080fd5b820183602082011115610d1c57600080fd5b80359060200191846020830284011164010000000083111715610d3e57600080fd5b919390929091602081019035640100000000811115610d5c57600080fd5b820183602082011115610d6e57600080fd5b80359060200191846020830284011164010000000083111715610d9057600080fd5b919390929091602081019035640100000000811115610dae57600080fd5b820183602082011115610dc057600080fd5b80359060200191846020830284011164010000000083111715610de257600080fd5b919390929091602081019035640100000000811115610e0057600080fd5b820183602082011115610e1257600080fd5b80359060200191846001830284011164010000000083111715610e3457600080fd5b509092509050612de6565b61041660048036036060811015610e5557600080fd5b506001600160a01b0381358116916020810135909116906040013515156131d4565b60007f01ffc9a7000000000000000000000000000000000000000000000000000000006001600160e01b031983161480610eda57507f80ac58cd000000000000000000000000000000000000000000000000000000006001600160e01b03198316145b80610f0e57507f5b5e139f000000000000000000000000000000000000000000000000000000006001600160e01b03198316145b90505b919050565b60408051808201909152600f81527f53616e64626f782773204c414e44730000000000000000000000000000000000602082015290565b6000806000610f5b84613398565b90925090506001600160a01b038216610fbb576040805162461bcd60e51b815260206004820152601460248201527f746f6b656e20646f6573206e6f74206578697374000000000000000000000000604482015290519081900360640190fd5b8015610fe1575050506000818152600660205260409020546001600160a01b0316610f11565b600092505050610f11565b603a548290611003906001600160a01b0316613494565b156110cf57603a5460408051633185c44d60e21b81523060048201526001600160a01b0384811660248301529151919092169163c6171134916044808301926020929190829003018186803b15801561105b57600080fd5b505afa15801561106f573d6000803e3d6000fd5b505050506040513d602081101561108557600080fd5b50516110cf576040805162461bcd60e51b815260206004820152601460248201527313dc195c985d1bdc88139bdd08105b1b1bddd95960621b604482015290519081900360640190fd5b60006110da836134d0565b90506001600160a01b038116611137576040805162461bcd60e51b815260206004820152601c60248201527f4c616e6456333a20746f6b656e20646f6573206e6f7420657869737400000000604482015290519081900360640190fd5b6001600160a01b03811633148061117157506001600160a01b038116600090815260056020908152604080832033845290915290205460ff165b8061118b57503360009081526001602052604090205460ff165b6111c65760405162461bcd60e51b81526004018080602001828103825260218152602001806159066021913960400191505060405180910390fd5b6111d1818585613568565b50505050565b61019890565b61124f868686868080602002602001604051908101604052809392919081815260200183836020028082843760009201919091525050604080516020601f8a01819004810282018101909252888152925088915087908190840183828082843760009201829052509250613647915050565b505050505050565b603a54839061126e906001600160a01b0316613494565b156113fb576001600160a01b038116331415611336576000611291858585613a8a565b905061129e858585613cc3565b6112b0846001600160a01b0316613494565b80156112c857506112c8846317a2fd9160e21b613d33565b15611330576112f5816112db57336112dd565b855b86868660405180602001604052806000815250613de6565b6113305760405162461bcd60e51b81526004018080602001828103825260268152602001806158e06026913960400191505060405180910390fd5b506111d1565b603a5460408051633185c44d60e21b815230600482015233602482015290516001600160a01b039092169163c617113491604480820192602092909190829003018186803b15801561138757600080fd5b505afa15801561139b573d6000803e3d6000fd5b505050506040513d60208110156113b157600080fd5b50516113fb576040805162461bcd60e51b815260206004820152601460248201527313dc195c985d1bdc88139bdd08105b1b1bddd95960621b604482015290519081900360640190fd5b6000611408858585613a8a565b9050611415858585613cc3565b611427846001600160a01b0316613494565b801561143f575061143f846317a2fd9160e21b613d33565b1561148d57611452816112db57336112dd565b61148d5760405162461bcd60e51b81526004018080602001828103825260268152602001806158e06026913960400191505060405180910390fd5b5050505050565b61124f868686868080602002602001604051908101604052809392919081815260200183836020028082843760009201919091525050604080516020601f8a01819004810282018101909252888152925088915087908190840183828082843760009201919091525060019250613647915050565b603a548290611520906001600160a01b0316613494565b156115ec57603a5460408051633185c44d60e21b81523060048201526001600160a01b0384811660248301529151919092169163c6171134916044808301926020929190829003018186803b15801561157857600080fd5b505afa15801561158c573d6000803e3d6000fd5b505050506040513d60208110156115a257600080fd5b50516115ec576040805162461bcd60e51b815260206004820152601460248201527313dc195c985d1bdc88139bdd08105b1b1bddd95960621b604482015290519081900360640190fd5b60006115f7836134d0565b90506001600160a01b038516611654576040805162461bcd60e51b815260206004820152601e60248201527f4c616e6456333a2073656e646572206973207a65726f20616464726573730000604482015290519081900360640190fd5b336001600160a01b038616148061167a57503360009081526002602052604090205460ff165b806116a857506001600160a01b038516600090815260056020908152604080832033845290915290205460ff165b806116c257503360009081526001602052604090205460ff165b6116fd5760405162461bcd60e51b81526004018080602001828103825260218152602001806159066021913960400191505060405180910390fd5b846001600160a01b0316816001600160a01b031614611763576040805162461bcd60e51b815260206004820152601760248201527f4c616e6456333a206f776e657220213d2073656e646572000000000000000000604482015290519081900360640190fd5b61148d818585613568565b6001600160a01b0387166117c9576040805162461bcd60e51b815260206004820152601460248201527f66726f6d206973207a65726f2061646472657373000000000000000000000000604482015290519081900360640190fd5b6001600160a01b038616611824576040805162461bcd60e51b815260206004820152601a60248201527f63616e27742073656e6420746f207a65726f2061646472657373000000000000604482015290519081900360640190fd5b6000336001600160a01b0389161480159061184e57503360009081526002602052604090205460ff165b9050336001600160a01b03891614801590611867575080155b156118fe576001600160a01b038816600090815260056020908152604080832033845290915290205460ff16806118ad57503360009081526001602052604090205460ff165b6118fe576040805162461bcd60e51b815260206004820152601e60248201527f6e6f7420617574686f72697a656420746f207472616e73666572517561640000604482015290519081900360640190fd5b61190b8888888888613f31565b6001600160a01b0380891660009081526003602052604080822080548a800290819003909155928a1682529020805490910190556119908161194d573361194f565b885b898989898989898080601f0160208091040260200160405190810160405280939291908181526020018383808284376000920191909152506140a692505050565b5050505050505050565b603a5483906119b1906001600160a01b0316613494565b15611aac576001600160a01b0381163314156119e7576119e284848460405180602001604052806000815250614190565b6111d1565b603a5460408051633185c44d60e21b815230600482015233602482015290516001600160a01b039092169163c617113491604480820192602092909190829003018186803b158015611a3857600080fd5b505afa158015611a4c573d6000803e3d6000fd5b505050506040513d6020811015611a6257600080fd5b5051611aac576040805162461bcd60e51b815260206004820152601460248201527313dc195c985d1bdc88139bdd08105b1b1bddd95960621b604482015290519081900360640190fd5b6111d184848460405180602001604052806000815250614190565b611ada33611ad4836134d0565b8361422b565b50565b60075460ff1615611b1f5760405162461bcd60e51b815260040180806020018281038252602d815260200180615889602d913960400191505060405180910390fd5b6000805473ffffffffffffffffffffffffffffffffffffffff19166001600160a01b038316179055611b52826001614306565b50506007805460ff19166001179055565b6001600160a01b038616611bbe576040805162461bcd60e51b815260206004820152601260248201527f746f206973207a65726f20616464726573730000000000000000000000000000604482015290519081900360640190fd5b611bc733612737565b611c18576040805162461bcd60e51b815260206004820152601660248201527f4f6e6c792061206d696e7465722063616e206d696e7400000000000000000000604482015290519081900360640190fd5b611c23858585611cfc565b151560011415611cb957611c3a3387878787613f31565b33600081815260036020908152604080832080548a8002908190039091556001600160a01b038b1684529281902080549093019092558151601f8501829004820281018201909252838252611cb4929182918a918a918a918a918a908a90819084018382808284376000920191909152506140a692505050565b61124f565b61124f8686868686868080601f01602080910402602001604051908101604052809392919081815260200183838082843760009201919091525061436a92505050565b6000838381611d0757fe5b06158015611d1c5750838281611d1957fe5b06155b611d6d576040805162461bcd60e51b815260206004820152601360248201527f496e76616c696420636f6f7264696e6174657300000000000000000000000000604482015290519081900360640190fd5b83610198038311158015611d85575083610198038211155b611dd6576040805162461bcd60e51b815260206004820152600d60248201527f4f7574206f6620626f756e647300000000000000000000000000000000000000604482015290519081900360640190fd5b6000611de38585856145e8565b6001600160a01b0316141590505b9392505050565b6000611e03826134d0565b90506001600160a01b038116610f11576040805162461bcd60e51b815260206004820152601460248201527f746f6b656e20646f6573206e6f74206578697374000000000000000000000000604482015290519081900360640190fd5b6001600160a01b031660009081526001602052604090205460ff1690565b6001600160a01b038616611ed9576040805162461bcd60e51b815260206004820152601260248201527f746f206973207a65726f20616464726573730000000000000000000000000000604482015290519081900360640190fd5b611ee233612737565b611f33576040805162461bcd60e51b815260206004820152601660248201527f4f6e6c792061206d696e7465722063616e206d696e7400000000000000000000604482015290519081900360640190fd5b848481611f3c57fe5b06158015611f515750848381611f4e57fe5b06155b611fa2576040805162461bcd60e51b815260206004820152601360248201527f496e76616c696420636f6f7264696e6174657300000000000000000000000000604482015290519081900360640190fd5b84610198038411158015611fba575084610198038311155b61200b576040805162461bcd60e51b815260206004820152600d60248201527f4f7574206f6620626f756e647300000000000000000000000000000000000000604482015290519081900360640190fd5b600061201686614679565b505090506000612027828787614776565b90506120368787876018614780565b60005b8788028110156120e7576000612051828a8a8a6148b7565b600081815260046020526040902054909150156120a6576040805162461bcd60e51b815260206004820152600e60248201526d105b1c9958591e481b5a5b9d195960921b604482015290519081900360640190fd5b60405181906001600160a01b038c16906000907fddf252ad1be2c89b69c2b068fc378daa952ba7f163c4a11628f55a4df523b3ef908290a450600101612039565b5060008181526004602090815260408083206001600160a01b038c169081905583526003825280832080548b80020190558051601f870183900483028101830190915285815261199092339290918c918c918c918c91908c908c90819084018382808284376000920191909152506140a692505050565b6000546001600160a01b031690565b60006001600160a01b0382166121ca576040805162461bcd60e51b815260206004820152601560248201527f6f776e6572206973207a65726f20616464726573730000000000000000000000604482015290519081900360640190fd5b506001600160a01b031660009081526003602052604090205490565b6001600160a01b038216612241576040805162461bcd60e51b815260206004820152601660248201527f496e76616c69642073656e646572206164647265737300000000000000000000604482015290519081900360640190fd5b60008061224d83613398565b9092509050336001600160a01b038516148061227857503360009081526002602052604090205460ff165b806122a157508080156122a157506000838152600660205260409020546001600160a01b031633145b806122cf57506001600160a01b038416600090815260056020908152604080832033845290915290205460ff165b806122e957503360009081526001602052604090205460ff165b61233a576040805162461bcd60e51b815260206004820152601660248201527f6e6f7420617574686f72697a656420746f206275726e00000000000000000000604482015290519081900360640190fd5b6111d184838561422b565b6000610f0e8261490d565b60036020526000908152604090205481565b6000546001600160a01b031633146123c1576040805162461bcd60e51b815260206004820152601260248201527f6f6e6c792061646d696e20616c6c6f7765640000000000000000000000000000604482015290519081900360640190fd5b6123d3826001600160a01b0316613494565b61240e5760405162461bcd60e51b81526004018080602001828103825260308152602001806159a06030913960400191505060405180910390fd5b6124188282614306565b5050565b6000610f0e82614938565b6000546001600160a01b0316338114612487576040805162461bcd60e51b815260206004820152601b60248201527f6f6e6c792061646d696e2063616e206368616e67652061646d696e0000000000604482015290519081900360640190fd5b806001600160a01b0316826001600160a01b031614156124d85760405162461bcd60e51b8152600401808060200182810382526025815260200180615a536025913960400191505060405180910390fd5b604080516001600160a01b0380841682528416602082015281517f7e644d79422f17c01e4894b5f4f588d331ebfa28653d42ae832dc59e38c9798f929181900390910190a1506000805473ffffffffffffffffffffffffffffffffffffffff19166001600160a01b0392909216919091179055565b60408051808201909152600481527f4c414e4400000000000000000000000000000000000000000000000000000000602082015290565b60046020526000908152604090205481565b6000546001600160a01b031633146125f5576040805162461bcd60e51b815260206004820152601260248201527f6f6e6c792061646d696e20616c6c6f7765640000000000000000000000000000604482015290519081900360640190fd5b603a805473ffffffffffffffffffffffffffffffffffffffff19166001600160a01b0392909216919091179055565b600560209081526000928352604080842090915290825290205460ff1681565b603a54829061265b906001600160a01b0316613494565b1561272757603a5460408051633185c44d60e21b81523060048201526001600160a01b0384811660248301529151919092169163c6171134916044808301926020929190829003018186803b1580156126b357600080fd5b505afa1580156126c7573d6000803e3d6000fd5b505050506040513d60208110156126dd57600080fd5b5051612727576040805162461bcd60e51b815260206004820152601460248201527313dc195c985d1bdc88139bdd08105b1b1bddd95960621b604482015290519081900360640190fd5b612732338484614963565b505050565b6001600160a01b031660009081526039602052604090205460ff1690565b6000546001600160a01b031633146127b4576040805162461bcd60e51b815260206004820152601260248201527f6f6e6c792061646d696e20616c6c6f7765640000000000000000000000000000604482015290519081900360640190fd5b6001600160a01b0382166127f95760405162461bcd60e51b815260040180806020018281038252602a815260200180615a78602a913960400191505060405180910390fd5b6124188282614a29565b6000546001600160a01b03163314612862576040805162461bcd60e51b815260206004820152601260248201527f6f6e6c792061646d696e20616c6c6f7765640000000000000000000000000000604482015290519081900360640190fd5b6001600160a01b0382166128a75760405162461bcd60e51b815260040180806020018281038252602a8152602001806158b6602a913960400191505060405180910390fd5b6001600160a01b03821660009081526001602052604090205460ff16151581151514156129055760405162461bcd60e51b81526004018080602001828103825260338152602001806159276033913960400191505060405180910390fd5b6001600160a01b038216600081815260016020908152604091829020805460ff191685151590811790915582519384529083015280517f44f92d27abdf4cfb6a7d712c3af68f3be086d4ca747ab802c36f67d6790060d89281900390910190a15050565b603a546001600160a01b031681565b603a54849061298f906001600160a01b0316613494565b15612a7b576001600160a01b0381163314156129b6576129b185858585614190565b61148d565b603a5460408051633185c44d60e21b815230600482015233602482015290516001600160a01b039092169163c617113491604480820192602092909190829003018186803b158015612a0757600080fd5b505afa158015612a1b573d6000803e3d6000fd5b505050506040513d6020811015612a3157600080fd5b5051612a7b576040805162461bcd60e51b815260206004820152601460248201527313dc195c985d1bdc88139bdd08105b1b1bddd95960621b604482015290519081900360640190fd5b61148d85858585614190565b6006602052600090815260409020546001600160a01b031681565b60606000612aaf836134d0565b6001600160a01b03161415612b0b576040805162461bcd60e51b815260206004820152601960248201527f4c616e6456333a20496420646f6573206e6f7420657869737400000000000000604482015290519081900360640190fd5b612b1482614c5e565b60405160200180807f68747470733a2f2f6170692e73616e64626f782e67616d652f6c616e64732f00815250601f0182805190602001908083835b60208310612b8c57805182527fffffffffffffffffffffffffffffffffffffffffffffffffffffffffffffffe09092019160209182019101612b4f565b5181516020939093036101000a60001901801990911692169190911790527f2f6d657461646174612e6a736f6e000000000000000000000000000000000000920191825250604080518083037fffffffffffffffffffffffffffffffffffffffffffffffffffffffffffffffee018152600e9092019052949350505050565b6000546001600160a01b03163314612c6a576040805162461bcd60e51b815260206004820152601260248201527f6f6e6c792061646d696e20616c6c6f7765640000000000000000000000000000604482015290519081900360640190fd5b6001600160a01b038216612caf5760405162461bcd60e51b815260040180806020018281038252602281526020018061597e6022913960400191505060405180910390fd5b6001600160a01b03821660009081526039602052604090205460ff1615158115151415612d0d5760405162461bcd60e51b81526004018080602001828103825260338152602001806159276033913960400191505060405180910390fd5b6001600160a01b038216600081815260396020908152604091829020805460ff191685151590811790915582519384529083015280517fff452b3b9159b024a9098f0058c63eccd90d36b3584608202800d662f962bb609281900390910190a15050565b6001600160a01b031660009081526002602052604090205460ff1690565b6001600160a01b03808316600090815260056020908152604080832093851683529290529081205460ff1680612ddd57506001600160a01b03821660009081526001602052604090205460ff165b90505b92915050565b6001600160a01b038a16612e41576040805162461bcd60e51b815260206004820152601460248201527f66726f6d206973207a65726f2061646472657373000000000000000000000000604482015290519081900360640190fd5b6001600160a01b038916612e9c576040805162461bcd60e51b815260206004820152601a60248201527f63616e27742073656e6420746f207a65726f2061646472657373000000000000604482015290519081900360640190fd5b8685148015612eaa57508483145b612efb576040805162461bcd60e51b815260206004820152600c60248201527f696e76616c696420646174610000000000000000000000000000000000000000604482015290519081900360640190fd5b6000336001600160a01b038c1614801590612f2557503360009081526002602052604090205460ff165b9050336001600160a01b038c1614801590612f3e575080155b15612fbf576001600160a01b038b16600090815260056020908152604080832033845290915290205460ff1680612f8457503360009081526001602052604090205460ff165b612fbf5760405162461bcd60e51b8152600401808060200182810382526024815260200180615a2f6024913960400191505060405180910390fd5b6000805b898110156130225760008b8b83818110612fd957fe5b9050602002013590506130138e8e838d8d87818110612ff457fe5b905060200201358c8c8881811061300757fe5b90506020020135613f31565b80029190910190600101612fc3565b506001600160a01b03808d1660009081526003602052604080822080548590039055918d1680825291902080548301905561305c90613494565b801561307457506130748b6317a2fd9160e21b613d33565b156131c6576060816040519080825280602002602001820160405280156130a5578160200160208202803883390190505b5090506000805b8b8110156131385760008d8d838181106130c257fe5b90506020020135905060008090505b81820281101561312e5761310b81838f8f878181106130ec57fe5b905060200201358e8e888181106130ff57fe5b905060200201356148b7565b85858151811061311757fe5b6020908102919091010152600193840193016130d1565b50506001016130ac565b50613188846131475733613149565b8e5b8f8f858a8a8080601f016020809104026020016040519081016040528093929190818152602001838380828437600092019190915250614d5392505050565b6131c35760405162461bcd60e51b815260040180806020018281038252602481526020018061595a6024913960400191505060405180910390fd5b50505b505050505050505050505050565b603a5482906131eb906001600160a01b0316613494565b156132b757603a5460408051633185c44d60e21b81523060048201526001600160a01b0384811660248301529151919092169163c6171134916044808301926020929190829003018186803b15801561324357600080fd5b505afa158015613257573d6000803e3d6000fd5b505050506040513d602081101561326d57600080fd5b50516132b7576040805162461bcd60e51b815260206004820152601460248201527313dc195c985d1bdc88139bdd08105b1b1bddd95960621b604482015290519081900360640190fd5b6001600160a01b038416613312576040805162461bcd60e51b815260206004820152601e60248201527f4c616e6456333a20496e76616c69642073656e64657220616464726573730000604482015290519081900360640190fd5b336001600160a01b038516148061333857503360009081526002602052604090205460ff165b8061335257503360009081526001602052604090205460ff165b61338d5760405162461bcd60e51b81526004018080602001828103825260298152602001806159d06029913960400191505060405180910390fd5b6111d1848484614963565b6000807fff00000000000000000000000000000000000000000000000000000000000000831615613410576040805162461bcd60e51b815260206004820152601060248201527f496e76616c696420746f6b656e20696400000000000000000000000000000000604482015290519081900360640190fd5b600061341b84614938565b905060006134288561490d565b6000868152600460205260409020549091508015613470579350837f80000000000000000000000000000000000000000000000000000000000000008104600114935061348c565b613485600380858102046003858102046145e8565b9450600093505b505050915091565b60007fc5d2460186f7233c927e7db2dcc703c0e500b653ca82273b7bfad8045d85a470823f80158015906134c85750818114155b949350505050565b6000806000806134df85614edc565b9250925092508282816134ee57fe5b06158015613503575082818161350057fe5b06155b613554576040805162461bcd60e51b815260206004820152601060248201527f496e76616c696420746f6b656e20696400000000000000000000000000000000604482015290519081900360640190fd5b61355f8383836145e8565b95945050505050565b6001600160a01b0382166135955760008181526004602052604090206001600160a01b0384169055613601565b60008181526004602090815260408083206001600160a01b038781167f8000000000000000000000000000000000000000000000000000000000000000019091556006909252909120805473ffffffffffffffffffffffffffffffffffffffff19169184169190911790555b80826001600160a01b0316846001600160a01b03167f8c5be1e5ebec7d5bd14f71427d1e84f3dd0314c0f7b2291e5b200ac8c7c3b92560405160405180910390a4505050565b6000336001600160a01b0387161480159061367157503360009081526002602052604090205460ff165b90506000336001600160a01b03881614806136895750815b806136b757506001600160a01b038716600090815260056020908152604080832033845290915290205460ff165b806136d157503360009081526001602052604090205460ff165b90506001600160a01b03871661372e576040805162461bcd60e51b815260206004820152601460248201527f66726f6d206973207a65726f2061646472657373000000000000000000000000604482015290519081900360640190fd5b6001600160a01b038616613789576040805162461bcd60e51b815260206004820152601a60248201527f63616e27742073656e6420746f207a65726f2061646472657373000000000000604482015290519081900360640190fd5b845160005b8181101561390c5760008782815181106137a457fe5b602002602001015190506000806137ba83613398565b915091508b6001600160a01b0316826001600160a01b031614613824576040805162461bcd60e51b815260206004820152601e60248201527f6e6f74206f776e657220696e2062617463685472616e7366657246726f6d0000604482015290519081900360640190fd5b858061384e575080801561384e57506000838152600660205260409020546001600160a01b031633145b61389f576040805162461bcd60e51b815260206004820152600e60248201527f6e6f7420617574686f72697a6564000000000000000000000000000000000000604482015290519081900360640190fd5b8a6001600160a01b03166004600085815260200190815260200160002081905550828b6001600160a01b03168d6001600160a01b03167fddf252ad1be2c89b69c2b068fc378daa952ba7f163c4a11628f55a4df523b3ef60405160405180910390a450505060010161378e565b50866001600160a01b0316886001600160a01b031614613954576001600160a01b03808916600090815260036020526040808220805485900390559189168152208054820190555b613966876001600160a01b0316613494565b156119905761397c876317a2fd9160e21b613d33565b156139da5761399a8361398f5733613991565b885b89898989614d53565b6139d55760405162461bcd60e51b815260040180806020018281038252602481526020018061595a6024913960400191505060405180910390fd5b611990565b83156119905760005b81811015613a7f57613a26846139f957336139fb565b895b8a8a8a8581518110613a0957fe5b602002602001015160405180602001604052806000815250613de6565b613a77576040805162461bcd60e51b815260206004820152601e60248201527f657263373231207472616e736665722072656a656374656420627920746f0000604482015290519081900360640190fd5b6001016139e3565b505050505050505050565b6000806000613a9884613398565b90925090506001600160a01b038216613af8576040805162461bcd60e51b815260206004820152601460248201527f746f6b656e20646f6573206e6f74206578697374000000000000000000000000604482015290519081900360640190fd5b856001600160a01b0316826001600160a01b031614613b5e576040805162461bcd60e51b815260206004820152601b60248201527f6e6f74206f776e657220696e205f636865636b5472616e736665720000000000604482015290519081900360640190fd5b6001600160a01b038516613bb9576040805162461bcd60e51b815260206004820152601a60248201527f63616e27742073656e6420746f207a65726f2061646472657373000000000000604482015290519081900360640190fd5b336001600160a01b03871614801590613be157503360009081526002602052604090205460ff165b9250336001600160a01b03871614801590613bfa575082155b15613cba576001600160a01b038616600090815260056020908152604080832033845290915290205460ff1680613c4f5750808015613c4f57506000848152600660205260409020546001600160a01b031633145b80613c6957503360009081526001602052604090205460ff165b613cba576040805162461bcd60e51b815260206004820152601860248201527f6e6f7420617070726f76656420746f207472616e736665720000000000000000604482015290519081900360640190fd5b50509392505050565b6001600160a01b03808416600081815260036020908152604080832080546000190190559386168083528483208054600101905585835260049091528382208190559251849392917fddf252ad1be2c89b69c2b068fc378daa952ba7f163c4a11628f55a4df523b3ef91a4505050565b604080516001600160e01b031983166024808301919091528251808303909101815260449091018252602081810180517bffffffffffffffffffffffffffffffffffffffffffffffffffffffff167f01ffc9a7000000000000000000000000000000000000000000000000000000001781528251935160008082529485948594909392908183858c612710fa955080519450505050609e5a11613dd257fe5b828015613ddc5750815b9695505050505050565b600080846001600160a01b031663150b7a02888887876040518563ffffffff1660e01b815260040180856001600160a01b03166001600160a01b03168152602001846001600160a01b03166001600160a01b0316815260200183815260200180602001828103825283818151815260200191508051906020019080838360005b83811015613e7e578181015183820152602001613e66565b50505050905090810190601f168015613eab5780820380516001836020036101000a031916815260200191505b5095505050505050602060405180830381600087803b158015613ecd57600080fd5b505af1158015613ee1573d6000803e3d6000fd5b505050506040513d6020811015613ef757600080fd5b50516001600160e01b0319167f150b7a02000000000000000000000000000000000000000000000000000000001491505095945050505050565b8260011415614038576000613f4860008484614776565b90506000613f55826134d0565b90506001600160a01b038116613fb2576040805162461bcd60e51b815260206004820152601460248201527f746f6b656e20646f6573206e6f74206578697374000000000000000000000000604482015290519081900360640190fd5b866001600160a01b0316816001600160a01b031614614018576040805162461bcd60e51b815260206004820152601a60248201527f6e6f74206f776e657220696e205f7472616e7366657251756164000000000000604482015290519081900360640190fd5b5060009081526004602052604090206001600160a01b0385169055614045565b6140458585858585614fed565b60005b83840281101561124f5761405e818585856148b7565b856001600160a01b0316876001600160a01b03167fddf252ad1be2c89b69c2b068fc378daa952ba7f163c4a11628f55a4df523b3ef60405160405180910390a4600101614048565b6140b8856001600160a01b0316613494565b80156140d057506140d0856317a2fd9160e21b613d33565b15614187576060848502604051908082528060200260200182016040528015614103578160200160208202803883390190505b50905060005b85860281101561413e5761411f818787876148b7565b82828151811061412b57fe5b6020908102919091010152600101614109565b5061414c8888888486614d53565b6119905760405162461bcd60e51b815260040180806020018281038252602481526020018061595a6024913960400191505060405180910390fd5b50505050505050565b600061419d858585613a8a565b90506141aa858585613cc3565b6141bc846001600160a01b0316613494565b1561148d576141da816141cf57336141d1565b855b86868686613de6565b61148d576040805162461bcd60e51b815260206004820152601f60248201527f4552433732313a207472616e736665722072656a656374656420627920746f00604482015290519081900360640190fd5b816001600160a01b0316836001600160a01b031614614291576040805162461bcd60e51b815260206004820152600960248201527f6e6f74206f776e65720000000000000000000000000000000000000000000000604482015290519081900360640190fd5b60008181526004602090815260408083207401000000000000000000000000000000000000000090556001600160a01b0386168084526003909252808320805460001901905551839291907fddf252ad1be2c89b69c2b068fc378daa952ba7f163c4a11628f55a4df523b3ef908390a4505050565b6001600160a01b038216600081815260026020908152604091829020805460ff191685151590811790915582519384529083015280517fb21eb88b4e33b3f1281830a7178d74d8aa73220416215726b68ae23d539515cb9281900390910190a15050565b600061437585614679565b505090506000614386828686614776565b604080518181526108208101825291925060609190816020015b6143a8615867565b8152602001906001900390816143a05790505090506000806003891115614400576143fa60405180606001604052808a81526020018981526020018b81525084838560028e816143f457fe5b04615127565b90925090505b60005b898a0281101561458957600061441b828c8c8c6148b7565b9050600061445586604051806060016040528061443786614938565b81526020016144458661490d565b81526020016001815250876152ac565b9050801561449a5760405182906001600160a01b038f169033907fddf252ad1be2c89b69c2b068fc378daa952ba7f163c4a11628f55a4df523b3ef90600090a461457f565b6000828152600460205260409020543314156144f4576040516001949094019382906001600160a01b038f169033907fddf252ad1be2c89b69c2b068fc378daa952ba7f163c4a11628f55a4df523b3ef90600090a461457f565b60008281526004602052604090205415614546576040805162461bcd60e51b815260206004820152600e60248201526d105b1c9958591e481b5a5b9d195960921b604482015290519081900360640190fd5b60405182906001600160a01b038f16906000907fddf252ad1be2c89b69c2b068fc378daa952ba7f163c4a11628f55a4df523b3ef908290a45b5050600101614403565b5061459a8383838d8d8d8d8d615354565b60009384526004602090815260408086206001600160a01b03909c169b8c90559a85526003905289842080549980029990990190985550503381529590952080549490940390935550505050565b60008060006145f686614679565b5091509150600060046000614622858a8b8b8161460f57fe5b04028b8c8b8161461b57fe5b0402614776565b815260208101919091526040016000205490506001600160a01b0381161561464e579250611df1915050565b601887101561466c576146628287876145e8565b9350505050611df1565b5060009695505050505050565b6000806000836001141561469457600092506003915061476f565b83600314156146ad57600160f81b92506006915061476f565b83600614156146cc5750600160f91b9150600c9050600160f81b61476f565b83600c14156146eb5750600360f81b915060189050600160f91b61476f565b836018141561472257507f04000000000000000000000000000000000000000000000000000000000000009150600360f81b61476f565b6040805162461bcd60e51b815260206004820152600c60248201527f496e76616c69642073697a650000000000000000000000000000000000000000604482015290519081900360640190fd5b9193909250565b6101980291010190565b600061478b82614679565b5050905081851161480d57600460006147b483858689816147a857fe5b04028687898161461b57fe5b815260200190815260200160002054600014614808576040805162461bcd60e51b815260206004820152600e60248201526d105b1c9958591e481b5a5b9d195960921b604482015290519081900360640190fd5b61489d565b838501838601855b8281101561489957855b828110156148915760046000614836878585614776565b81526020019081526020016000205460001461488a576040805162461bcd60e51b815260206004820152600e60248201526d105b1c9958591e481b5a5b9d195960921b604482015290519081900360640190fd5b850161481f565b508401614815565b5050505b6002820491506003821061148d5761148d85858585614780565b6000808486816148c357fe5b049050600281066148ef576148e760008688816148dc57fe5b068601838601614776565b9150506134c8565b6148e760008688816148fd57fe5b0660010187870103838601614776565b6101987effffffffffffffffffffffffffffffffffffffffffffffffffffffffffffff919091160490565b6101987effffffffffffffffffffffffffffffffffffffffffffffffffffffffffffff919091160690565b6001600160a01b03821660009081526001602052604090205460ff16156149bb5760405162461bcd60e51b81526004018080602001828103825260368152602001806159f96036913960400191505060405180910390fd5b6001600160a01b03838116600081815260056020908152604080832094871680845294825291829020805460ff1916861515908117909155825190815291517f17307eab39ab6107e8899845ad3d59bd9653f200f220920489ca2b5937696c319281900390910190a3505050565b603a54614a3e906001600160a01b0316613494565b1561241857603a54604080517fc3c5a54700000000000000000000000000000000000000000000000000000000815230600482015290516001600160a01b039092169163c3c5a547916024808201926020929091908290030181600087803b158015614aa957600080fd5b505af1158015614abd573d6000803e3d6000fd5b505050506040513d6020811015614ad357600080fd5b5051612418578015614b6957603a54604080517f7d3e3dbe0000000000000000000000000000000000000000000000000000000081523060048201526001600160a01b03858116602483015291519190921691637d3e3dbe91604480830192600092919082900301818387803b158015614b4c57600080fd5b505af1158015614b60573d6000803e3d6000fd5b50505050612418565b6001600160a01b03821615614be557603a54604080517fa0af29030000000000000000000000000000000000000000000000000000000081523060048201526001600160a01b0385811660248301529151919092169163a0af290391604480830192600092919082900301818387803b158015614b4c57600080fd5b603a54604080517f4420e48600000000000000000000000000000000000000000000000000000000815230600482015290516001600160a01b0390921691634420e4869160248082019260009290919082900301818387803b158015614c4a57600080fd5b505af115801561124f573d6000803e3d6000fd5b606081614c9f575060408051808201909152600181527f30000000000000000000000000000000000000000000000000000000000000006020820152610f11565b8160005b8115614cb757600101600a82049150614ca3565b6060816040519080825280601f01601f191660200182016040528015614ce4576020820181803883390190505b50905060001982015b8515614d4a57600a860660300160f81b82828060019003935081518110614d1057fe5b60200101907effffffffffffffffffffffffffffffffffffffffffffffffffffffffffffff1916908160001a905350600a86049550614ced565b50949350505050565b600080846001600160a01b0316634b808c46888887876040518563ffffffff1660e01b815260040180856001600160a01b03166001600160a01b03168152602001846001600160a01b03166001600160a01b031681526020018060200180602001838103835285818151815260200191508051906020019060200280838360005b83811015614dec578181015183820152602001614dd4565b50505050905001838103825284818151815260200191508051906020019080838360005b83811015614e28578181015183820152602001614e10565b50505050905090810190601f168015614e555780820380516001836020036101000a031916815260200191505b509650505050505050602060405180830381600087803b158015614e7857600080fd5b505af1158015614e8c573d6000803e3d6000fd5b505050506040513d6020811015614ea257600080fd5b50516001600160e01b0319167f4b808c46000000000000000000000000000000000000000000000000000000001491505095945050505050565b6000806000614eea84614938565b9150614ef58461490d565b90507fff00000000000000000000000000000000000000000000000000000000000000841680614f285760019350614fe5565b600160f81b811415614f3d5760039350614fe5565b600160f91b811415614f525760069350614fe5565b600360f81b811415614f6757600c9350614fe5565b7f0400000000000000000000000000000000000000000000000000000000000000811415614f985760189350614fe5565b6040805162461bcd60e51b815260206004820152601060248201527f496e76616c696420746f6b656e20696400000000000000000000000000000000604482015290519081900360640190fd5b509193909250565b828281614ff657fe5b0615801561500b575082818161500857fe5b06155b61505c576040805162461bcd60e51b815260206004820152601360248201527f496e76616c696420636f6f7264696e6174657300000000000000000000000000604482015290519081900360640190fd5b82610198038211158015615074575082610198038111155b6150c5576040805162461bcd60e51b815260206004820152600d60248201527f4f7574206f6620626f756e647300000000000000000000000000000000000000604482015290519081900360640190fd5b82600314806150d45750826006145b806150df575082600c145b806150ea5750826018145b1561472257615121858560405180606001604052808681526020018581526020018781525060016002888161511b57fe5b046155a8565b5061148d565b600080600061513584614679565b50506040890151895160208b015192935080820192909101905b8281101561527b5760208b01515b8281101561527357600061518c8c60405180606001604052808681526020018581526020018c8152508c6152ac565b90508061526b5760006151a0878585614776565b6000818152600460205260409020549091506001600160a01b03811633141561521b5760405180606001604052808681526020018581526020018c8152508e8d815181106151ea57fe5b6020908102919091018101919091526000838152600490915260408120558a80029c909c019b6001909b019a615268565b6001600160a01b03811615615268576040805162461bcd60e51b815260206004820152600e60248201526d105b1c9958591e481b5a5b9d195960921b604482015290519081900360640190fd5b50505b50870161515d565b50860161514f565b506002860495506003861061529c576152978a8a8a8a8a615127565b985096505b5094989597509495505050505050565b6000805b82811015615349576152c0615867565b8582815181106152cc57fe5b60200260200101519050846040015181604001511180156152ef57508051855110155b801561530357506040810151815186519101115b801561531757508060200151856020015110155b8015615330575080604001518160200151018560200151105b1561534057600192505050611df1565b506001016152b0565b506000949350505050565b615366856001600160a01b0316613494565b801561537e575061537e856317a2fd9160e21b613d33565b1561555b576060866040519080825280602002602001820160405280156153af578160200160208202803883390190505b5090506000606088878802036040519080825280602002602001820160405280156153e4578160200160208202803883390190505b5090506000805b8889028110156154c0576000615403828b8b8b6148b7565b905061543b8e604051806060016040528061541d85614938565b815260200161542b8561490d565b815260200160018152508f6152ac565b15615463578086868151811061544d57fe5b60209081029190910101526001909401936154b7565b600081815260046020526040902054331415615498576000818152600460205260408120558551819087908790811061544d57fe5b808484815181106154a557fe5b60209081029190910101526001909201915b506001016153eb565b506154cf3360008b8589614d53565b61550a5760405162461bcd60e51b815260040180806020018281038252602481526020018061595a6024913960400191505060405180910390fd5b61551733338b8789614d53565b6155525760405162461bcd60e51b815260040180806020018281038252602481526020018061595a6024913960400191505060405180910390fd5b50505050611990565b60005b848502811015613a7f576000615576828787876148b7565b60008181526004602052604090205490915033141561559f576000818152600460205260408120555b5060010161555e565b60008060006155ba8660400151614679565b925050915060006155d48388600001518960200151614776565b87519091506001905b60408901518951018110156157245760208901515b89604001518a602001510181101561571c5760008060038a1015615635576156258e61562060008787614776565b6157ca565b801561562e5750845b90506156fd565b6156618e8e60405180606001604052808881526020018781526020018e815250600060028f8161511b57fe5b90506000615670888686614776565b6000818152600460205260409020549350905082156156fb57816156eb578e6001600160a01b031683146156eb576040805162461bcd60e51b815260206004820152601760248201527f6e6f74206f776e6572206f66206368696c642051756164000000000000000000604482015290519081900360640190fd5b6000818152600460205260408120555b505b808061570857508115155b80156157115750845b9450505087016155f2565b5086016155dd565b5086156157bd578061579657896001600160a01b031661575189604001518a600001518b602001516145e8565b6001600160a01b0316146157965760405162461bcd60e51b815260040180806020018281038252602b815260200180615aa2602b913960400191505060405180910390fd5b5060009081526004602052604090206001600160a01b0388169055506001915061355f9050565b9998505050505050505050565b600081815260046020526040812054801561585d57836001600160a01b0316816001600160a01b031614615845576040805162461bcd60e51b815260206004820152600960248201527f6e6f74206f776e65720000000000000000000000000000000000000000000000604482015290519081900360640190fd5b50506000818152600460205260408120556001612de0565b5060009392505050565b6040518060600160405280600081526020016000815260200160008152509056fe45524337323142617365546f6b656e3a20436f6e747261637420616c726561647920696e697469616c697a6564616464726573732030206973206e6f7420616c6c6f776564206173207375706572206f70657261746f724c616e6456333a20657263373231207472616e736665722072656a656374656420627920746f4c616e6456333a206e6f7420617574686f72697a656420746f20617070726f7665746865207374617475732073686f756c6420626520646966666572656e74207468616e207468652063757272656e74206f6e65657263373231206261746368207472616e736665722072656a656374656420627920746f616464726573732030206973206e6f7420616c6c6f776564206173206d696e7465726f6e6c7920636f6e7472616374732063616e206265206d657461207472616e73616374696f6e2070726f636573736f724c616e6456333a206e6f7420617574686f72697a656420746f20617070726f766520666f7220616c6c7375706572206f70657261746f722063616e2774206861766520746865697220617070726f76616c466f72416c6c206368616e6765646e6f7420617574686f72697a656420746f207472616e736665724d756c7469517561647369742063616e206265206f6e6c79206368616e67656420746f2061206e65772061646d696e4c616e6456333a20737562736372697074696f6e2063616e2774206265207a65726f20616464726573736e6f74206f776e6572206f6620616c6c20737562207175616473206e6f7220706172656e74207175616473a265627a7a72305820f22aa149a8489bfcf869f599b0ea14f9ccea6a34b4af054429b89b3de23002a364736f6c63430005090032",
  "devdoc": {
    "methods": {
      "approve(address,uint256)": {
        "params": {
          "id": "The id of the token",
          "operator": "The address receiving the approval"
        }
      },
      "approveFor(address,address,uint256)": {
        "params": {
          "id": "The id of the token",
          "operator": "The address receiving the approval",
          "sender": "The address giving the approval"
        }
      },
      "balanceOf(address)": {
        "params": {
          "owner": "The address to look for"
        },
        "return": "The number of Land token owned by the address"
      },
      "batchTransferFrom(address,address,uint256[],bytes)": {
        "params": {
          "data": "additional data",
          "from": "The sender of the token",
          "ids": "The ids of the tokens",
          "to": "The recipient of the token"
        }
      },
      "batchTransferQuad(address,address,uint256[],uint256[],uint256[],bytes)": {
        "params": {
          "data": "additional data",
          "from": "current owner of the quad",
          "sizes": "list of sizes for each quad",
          "to": "destination",
          "xs": "list of top left x coordinates for each quad",
          "ys": "list of top left y coordinates for each quad"
        }
      },
      "burn(uint256)": {
        "params": {
          "id": "token which will be burnt."
        }
      },
      "burnFrom(address,uint256)": {
        "params": {
          "from": "address whose token is to be burnt.",
          "id": "token which will be burnt."
        }
      },
      "changeAdmin(address)": {
        "params": {
          "newAdmin": "address of the new administrator."
        }
      },
      "exists(uint256,uint256,uint256)": {
        "params": {
          "size": "size of the",
          "x": "x coordinate of the quad",
          "y": "y coordinate of the quad"
        },
        "return": "bool for if Land has been minted or not"
      },
      "getAdmin()": {
        "return": "the current administrator of this contract."
      },
      "getApproved(uint256)": {
        "params": {
          "id": "The id of the token"
        },
        "return": "The address of the operator"
      },
      "getX(uint256)": {
        "params": {
          "id": "tokenId"
        },
        "return": "the x coordinates"
      },
      "getY(uint256)": {
        "params": {
          "id": "tokenId"
        },
        "return": "the y coordinates"
      },
      "height()": {
        "return": "height"
      },
      "isApprovedForAll(address,address)": {
        "params": {
          "operator": "The address of the operator",
          "owner": "The address of the owner"
        },
        "return": "The status of the approval"
      },
      "isMetaTransactionProcessor(address)": {
        "params": {
          "who": "The address to query."
        },
        "return": "whether the address has meta-transaction execution rights."
      },
      "isMinter(address)": {
        "params": {
          "who": "The address to query."
        },
        "return": "whether the address has minter rights."
      },
      "isSuperOperator(address)": {
        "params": {
          "who": "The address to query."
        },
        "return": "whether the address has superOperator rights."
      },
      "mintAndTransferQuad(address,uint256,uint256,uint256,bytes)": {
        "params": {
          "data": "extra data to pass to the transfer",
          "size": "The size of the new quad",
          "to": "The recipient of the new quad",
          "x": "The top left x coordinate of the new quad",
          "y": "The top left y coordinate of the new quad"
        }
      },
      "mintQuad(address,uint256,uint256,uint256,bytes)": {
        "params": {
          "data": "extra data to pass to the transfer",
          "size": "The size of the new quad",
          "to": "The recipient of the new quad",
          "x": "The top left x coordinate of the new quad",
          "y": "The top left y coordinate of the new quad"
        }
      },
      "name()": {
        "return": "The name of the token contract"
      },
      "ownerOf(uint256)": {
        "params": {
          "id": "The id of the Land"
        },
        "return": "The address of the owner"
      },
      "register(address,bool)": {
        "details": "used to register contract and subscribe to the subscriptionOrRegistrantToCopy's black list.",
        "params": {
          "subscribe": "bool to signify subscription \"true\"\" or to copy the list \"false\".",
          "subscriptionOrRegistrantToCopy": "registration address of the list to subscribe."
        }
      },
      "safeBatchTransferFrom(address,address,uint256[],bytes)": {
        "params": {
          "data": "additional data",
          "from": "The sender of the token",
          "ids": "The ids of the tokens",
          "to": "The recipient of the token"
        }
      },
      "safeTransferFrom(address,address,uint256)": {
        "params": {
          "from": "The send of the token",
          "id": "The id of the token",
          "to": "The recipient of the token"
        }
      },
      "safeTransferFrom(address,address,uint256,bytes)": {
        "params": {
          "data": "Additional data",
          "from": "The sender of the token",
          "id": "The id of the token",
          "to": "The recipient of the token"
        }
      },
      "setApprovalForAll(address,bool)": {
        "params": {
          "approved": "The determination of the approval",
          "operator": "The address receiving the approval"
        }
      },
      "setApprovalForAllFor(address,address,bool)": {
        "params": {
          "approved": "The determination of the approval",
          "operator": "The address receiving the approval",
          "sender": "The address giving the approval"
        }
      },
      "setMetaTransactionProcessor(address,bool)": {
        "params": {
          "enabled": "set whether the metaTransactionProcessor is enabled or disabled.",
          "metaTransactionProcessor": "address that will be given/removed metaTransactionProcessor rights."
        }
      },
      "setMinter(address,bool)": {
        "params": {
          "enabled": "set whether the minter is enabled or disabled.",
          "minter": "address that will be given/removed minter right."
        }
      },
      "setOperatorRegistry(address)": {
        "params": {
          "registry": "the address of the registry"
        }
      },
      "setSuperOperator(address,bool)": {
        "params": {
          "enabled": "set whether the superOperator is enabled or disabled.",
          "superOperator": "address that will be given/removed superOperator right."
        }
      },
      "supportsInterface(bytes4)": {
        "params": {
          "id": "The id of the interface"
        },
        "return": "True if the interface is supported"
      },
      "symbol()": {
        "return": "The symbol of the token contract"
      },
      "tokenURI(uint256)": {
        "params": {
          "id": "The id of the token"
        },
        "return": "The URI of the token"
      },
      "transferFrom(address,address,uint256)": {
        "params": {
          "from": "The sender of the token",
          "id": "The id of the token",
          "to": "The recipient of the token"
        }
      },
      "transferQuad(address,address,uint256,uint256,uint256,bytes)": {
        "params": {
          "data": "additional data",
          "from": "current owner of the quad",
          "size": "size of the quad",
          "to": "destination",
          "x": "The top left x coordinate of the quad",
          "y": "The top left y coordinate of the quad"
        }
      },
      "width()": {
        "return": "width"
      }
    }
  },
  "userdoc": {
    "methods": {
      "approve(address,uint256)": {
        "notice": "Approve an operator to spend tokens on the sender behalf"
      },
      "approveFor(address,address,uint256)": {
        "notice": "Approve an operator to spend tokens on the sender behalf"
      },
      "balanceOf(address)": {
        "notice": "Return the number of Land owned by an address"
      },
      "batchTransferFrom(address,address,uint256[],bytes)": {
        "notice": "Transfer many tokens between 2 addresses"
      },
      "batchTransferQuad(address,address,uint256[],uint256[],uint256[],bytes)": {
        "notice": "transfer multiple quad (aligned to a quad tree with size 3, 6, 12 or 24 only)"
      },
      "burn(uint256)": {
        "notice": "Burns token `id`."
      },
      "burnFrom(address,uint256)": {
        "notice": "Burn token`id` from `from`."
      },
      "changeAdmin(address)": {
        "notice": "change the administrator to be `newAdmin`."
      },
      "exists(uint256,uint256,uint256)": {
        "notice": "checks if Land has been minted or not"
      },
      "getAdmin()": {
        "notice": "gives the current administrator of this contract."
      },
      "getApproved(uint256)": {
        "notice": "Get the approved operator for a specific token"
      },
      "getX(uint256)": {
        "notice": "x coordinate of Land token"
      },
      "getY(uint256)": {
        "notice": "y coordinate of Land token"
      },
      "height()": {
        "notice": "total height of the map"
      },
      "isApprovedForAll(address,address)": {
        "notice": "Check if the sender approved the operator"
      },
      "isMetaTransactionProcessor(address)": {
        "notice": "check whether address `who` is given meta-transaction execution rights."
      },
      "isMinter(address)": {
        "notice": "check whether address `who` is given minter rights."
      },
      "isSuperOperator(address)": {
        "notice": "check whether address `who` is given superOperator rights."
      },
      "mintAndTransferQuad(address,uint256,uint256,uint256,bytes)": {
        "notice": "Checks if a parent quad has child quads already minted. Then mints the rest child quads and transfers the parent quad. Should only be called by the tunnel."
      },
      "mintQuad(address,uint256,uint256,uint256,bytes)": {
        "notice": "Mint a new quad (aligned to a quad tree with size 1, 3, 6, 12 or 24 only)"
      },
      "name()": {
        "notice": "Return the name of the token contract"
      },
      "ownerOf(uint256)": {
        "notice": "Return the owner of a Land"
      },
      "register(address,bool)": {
        "notice": "This function is used to register Land on the Operator filterer Registry of Opensea.can only be called by admin."
      },
      "safeBatchTransferFrom(address,address,uint256[],bytes)": {
        "notice": "Transfer many tokens between 2 addresses ensuring the receiving contract has a receiver method"
      },
      "safeTransferFrom(address,address,uint256)": {
        "notice": "Transfer a token between 2 addresses letting the receiver knows of the transfer"
      },
      "safeTransferFrom(address,address,uint256,bytes)": {
        "notice": "Transfer a token between 2 addresses letting the receiver knows of the transfer"
      },
      "setApprovalForAll(address,bool)": {
        "notice": "Set the approval for an operator to manage all the tokens of the sender"
      },
      "setApprovalForAllFor(address,address,bool)": {
        "notice": "Set the approval for an operator to manage all the tokens of the sender"
      },
      "setMetaTransactionProcessor(address,bool)": {
        "notice": "Enable or disable the ability of `metaTransactionProcessor` to perform meta-tx (metaTransactionProcessor rights)."
      },
      "setMinter(address,bool)": {
        "notice": "Enable or disable the ability of `minter` to mint tokens"
      },
      "setOperatorRegistry(address)": {
        "notice": "sets filter registry address deployed in test"
      },
      "setSuperOperator(address,bool)": {
        "notice": "Enable or disable the ability of `superOperator` to transfer tokens of all (superOperator rights)."
      },
      "supportsInterface(bytes4)": {
        "notice": "Check if the contract supports an interface 0x01ffc9a7 is ERC-165 0x80ac58cd is ERC-721 0x5b5e139f is ERC-721 metadata"
      },
      "symbol()": {
        "notice": "Return the symbol of the token contract"
      },
      "tokenURI(uint256)": {
        "notice": "Return the URI of a specific token"
      },
      "transferFrom(address,address,uint256)": {
        "notice": "Transfer a token between 2 addresses"
      },
      "transferQuad(address,address,uint256,uint256,uint256,bytes)": {
        "notice": "transfer one quad (aligned to a quad tree with size 3, 6, 12 or 24 only)"
      },
      "width()": {
        "notice": "total width of the map"
      }
    }
  }
}