{
  "address": "0xbEFca386E7872176c587BDD2C5656910CC21C28d",
  "abi": [
    {
      "inputs": [
        {
          "internalType": "address",
          "name": "landAddress",
          "type": "address"
        },
        {
          "internalType": "address",
          "name": "sandContractAddress",
          "type": "address"
        },
        {
          "internalType": "address",
          "name": "initialMetaTx",
          "type": "address"
        },
        {
          "internalType": "address",
          "name": "admin",
          "type": "address"
        },
        {
          "internalType": "address payable",
          "name": "initialWalletAddress",
          "type": "address"
        },
        {
          "internalType": "bytes32",
          "name": "merkleRoot",
          "type": "bytes32"
        },
        {
          "internalType": "uint256",
          "name": "expiryTime",
          "type": "uint256"
        },
        {
          "internalType": "address",
          "name": "initialSigningWallet",
          "type": "address"
        },
        {
          "internalType": "uint256",
          "name": "initialMaxCommissionRate",
          "type": "uint256"
        },
        {
          "internalType": "address",
          "name": "estate",
          "type": "address"
        },
        {
          "internalType": "address",
          "name": "asset",
          "type": "address"
        },
        {
          "internalType": "address",
          "name": "feeDistributor",
          "type": "address"
        },
        {
          "internalType": "address",
          "name": "authValidator",
          "type": "address"
        }
      ],
      "stateMutability": "nonpayable",
      "type": "constructor"
    },
    {
      "anonymous": false,
      "inputs": [
        {
          "indexed": false,
          "internalType": "address",
          "name": "oldAdmin",
          "type": "address"
        },
        {
          "indexed": false,
          "internalType": "address",
          "name": "newAdmin",
          "type": "address"
        }
      ],
      "name": "AdminChanged",
      "type": "event"
    },
    {
      "anonymous": false,
      "inputs": [
        {
          "indexed": true,
          "internalType": "address",
          "name": "buyer",
          "type": "address"
        },
        {
          "indexed": true,
          "internalType": "address",
          "name": "to",
          "type": "address"
        },
        {
          "indexed": true,
          "internalType": "uint256",
          "name": "topCornerId",
          "type": "uint256"
        },
        {
          "indexed": false,
          "internalType": "uint256",
          "name": "size",
          "type": "uint256"
        },
        {
          "indexed": false,
          "internalType": "uint256",
          "name": "price",
          "type": "uint256"
        },
        {
          "indexed": false,
          "internalType": "address",
          "name": "token",
          "type": "address"
        },
        {
          "indexed": false,
          "internalType": "uint256",
          "name": "amountPaid",
          "type": "uint256"
        }
      ],
      "name": "LandQuadPurchased",
      "type": "event"
    },
    {
      "anonymous": false,
      "inputs": [
        {
          "indexed": false,
          "internalType": "address",
          "name": "metaTransactionProcessor",
          "type": "address"
        },
        {
          "indexed": false,
          "internalType": "bool",
          "name": "enabled",
          "type": "bool"
        }
      ],
      "name": "MetaTransactionProcessor",
      "type": "event"
    },
    {
      "anonymous": false,
      "inputs": [
        {
          "indexed": true,
          "internalType": "address",
          "name": "referrer",
          "type": "address"
        },
        {
          "indexed": true,
          "internalType": "address",
          "name": "referee",
          "type": "address"
        },
        {
          "indexed": true,
          "internalType": "address",
          "name": "token",
          "type": "address"
        },
        {
          "indexed": false,
          "internalType": "uint256",
          "name": "amount",
          "type": "uint256"
        },
        {
          "indexed": false,
          "internalType": "uint256",
          "name": "commission",
          "type": "uint256"
        },
        {
          "indexed": false,
          "internalType": "uint256",
          "name": "commissionRate",
          "type": "uint256"
        }
      ],
      "name": "ReferralUsed",
      "type": "event"
    },
    {
      "inputs": [
        {
          "internalType": "address",
          "name": "buyer",
          "type": "address"
        },
        {
          "internalType": "address",
          "name": "to",
          "type": "address"
        },
        {
          "internalType": "address",
          "name": "reserved",
          "type": "address"
        },
        {
          "internalType": "uint256[]",
          "name": "info",
          "type": "uint256[]"
        },
        {
          "internalType": "bytes32",
          "name": "salt",
          "type": "bytes32"
        },
        {
          "internalType": "uint256[]",
          "name": "assetIds",
          "type": "uint256[]"
        },
        {
          "internalType": "bytes32[]",
          "name": "proof",
          "type": "bytes32[]"
        },
        {
          "internalType": "bytes",
          "name": "referral",
          "type": "bytes"
        },
        {
          "internalType": "bytes",
          "name": "signature",
          "type": "bytes"
        }
      ],
      "name": "buyLandWithSand",
      "outputs": [],
      "stateMutability": "nonpayable",
      "type": "function"
    },
    {
      "inputs": [
        {
          "internalType": "address",
          "name": "newAdmin",
          "type": "address"
        }
      ],
      "name": "changeAdmin",
      "outputs": [],
      "stateMutability": "nonpayable",
      "type": "function"
    },
    {
      "inputs": [
        {
          "internalType": "bytes",
          "name": "referral",
          "type": "bytes"
        }
      ],
      "name": "decodeReferral",
      "outputs": [
        {
          "internalType": "bytes",
          "name": "",
          "type": "bytes"
        },
        {
          "internalType": "address",
          "name": "",
          "type": "address"
        },
        {
          "internalType": "address",
          "name": "",
          "type": "address"
        },
        {
          "internalType": "uint256",
          "name": "",
          "type": "uint256"
        },
        {
          "internalType": "uint256",
          "name": "",
          "type": "uint256"
        }
      ],
      "stateMutability": "pure",
      "type": "function"
    },
    {
      "inputs": [],
      "name": "getAdmin",
      "outputs": [
        {
          "internalType": "address",
          "name": "",
          "type": "address"
        }
      ],
      "stateMutability": "view",
      "type": "function"
    },
    {
      "inputs": [],
      "name": "getExpiryTime",
      "outputs": [
        {
          "internalType": "uint256",
          "name": "",
          "type": "uint256"
        }
      ],
      "stateMutability": "view",
      "type": "function"
    },
    {
      "inputs": [],
      "name": "getMaxCommisionRate",
      "outputs": [
        {
          "internalType": "uint256",
          "name": "",
          "type": "uint256"
        }
      ],
      "stateMutability": "view",
      "type": "function"
    },
    {
      "inputs": [],
      "name": "getMerkleRoot",
      "outputs": [
        {
          "internalType": "bytes32",
          "name": "",
          "type": "bytes32"
        }
      ],
      "stateMutability": "view",
      "type": "function"
    },
    {
      "inputs": [],
      "name": "getSigningWallet",
      "outputs": [
        {
          "internalType": "address",
          "name": "",
          "type": "address"
        }
      ],
      "stateMutability": "view",
      "type": "function"
    },
    {
      "inputs": [
        {
          "internalType": "address",
          "name": "who",
          "type": "address"
        }
      ],
      "name": "isMetaTransactionProcessor",
      "outputs": [
        {
          "internalType": "bool",
          "name": "",
          "type": "bool"
        }
      ],
      "stateMutability": "view",
      "type": "function"
    },
    {
      "inputs": [
        {
          "internalType": "bytes",
          "name": "signature",
          "type": "bytes"
        },
        {
          "internalType": "address",
          "name": "referrer",
          "type": "address"
        },
        {
          "internalType": "address",
          "name": "referee",
          "type": "address"
        },
        {
          "internalType": "uint256",
          "name": "expiryTime",
          "type": "uint256"
        },
        {
          "internalType": "uint256",
          "name": "commissionRate",
          "type": "uint256"
        }
      ],
      "name": "isReferralValid",
      "outputs": [
        {
          "internalType": "bool",
          "name": "",
          "type": "bool"
        }
      ],
      "stateMutability": "view",
      "type": "function"
    },
    {
      "inputs": [
        {
          "internalType": "address",
          "name": "",
          "type": "address"
        },
        {
          "internalType": "address",
          "name": "",
          "type": "address"
        },
        {
          "internalType": "uint256[]",
          "name": "",
          "type": "uint256[]"
        },
        {
          "internalType": "uint256[]",
          "name": "",
          "type": "uint256[]"
        },
        {
          "internalType": "bytes",
          "name": "",
          "type": "bytes"
        }
      ],
      "name": "onERC1155BatchReceived",
      "outputs": [
        {
          "internalType": "bytes4",
          "name": "",
          "type": "bytes4"
        }
      ],
      "stateMutability": "pure",
      "type": "function"
    },
    {
      "inputs": [
        {
          "internalType": "address",
          "name": "",
          "type": "address"
        },
        {
          "internalType": "address",
          "name": "",
          "type": "address"
        },
        {
          "internalType": "uint256",
          "name": "",
          "type": "uint256"
        },
        {
          "internalType": "uint256",
          "name": "",
          "type": "uint256"
        },
        {
          "internalType": "bytes",
          "name": "",
          "type": "bytes"
        }
      ],
      "name": "onERC1155Received",
      "outputs": [
        {
          "internalType": "bytes4",
          "name": "",
          "type": "bytes4"
        }
      ],
      "stateMutability": "pure",
      "type": "function"
    },
    {
      "inputs": [
        {
          "internalType": "address",
          "name": "metaTransactionProcessor",
          "type": "address"
        },
        {
          "internalType": "bool",
          "name": "enabled",
          "type": "bool"
        }
      ],
      "name": "setMetaTransactionProcessor",
      "outputs": [],
      "stateMutability": "nonpayable",
      "type": "function"
    },
    {
      "inputs": [
        {
          "internalType": "address payable",
          "name": "newWallet",
          "type": "address"
        }
      ],
      "name": "setReceivingWallet",
      "outputs": [],
      "stateMutability": "nonpayable",
      "type": "function"
    },
    {
      "inputs": [
        {
          "internalType": "uint256",
          "name": "newMaxCommissionRate",
          "type": "uint256"
        }
      ],
      "name": "updateMaxCommissionRate",
      "outputs": [],
      "stateMutability": "nonpayable",
      "type": "function"
    },
    {
      "inputs": [
        {
          "internalType": "address",
          "name": "newSigningWallet",
          "type": "address"
        }
      ],
      "name": "updateSigningWallet",
      "outputs": [],
      "stateMutability": "nonpayable",
      "type": "function"
    },
    {
      "inputs": [
        {
          "internalType": "address",
          "name": "to",
          "type": "address"
        },
        {
          "internalType": "uint256[]",
          "name": "assetIds",
          "type": "uint256[]"
        },
        {
          "internalType": "uint256[]",
          "name": "values",
          "type": "uint256[]"
        }
      ],
      "name": "withdrawAssets",
      "outputs": [],
      "stateMutability": "nonpayable",
      "type": "function"
    }
  ],
  "transactionHash": "0xeba8322e61c4a2c96bd9cb4238fe7289390ddb5730fb710f606af3617d331a41",
  "args": [
    "0xa4C4A09cA320AfBaE81659982dE88CC63466bB51",
    "0x32F3e11d8d9B9dc50e19D41c0ED868283824767B",
    "0x32F3e11d8d9B9dc50e19D41c0ED868283824767B",
    "0x39D01ecc951C2c1f20ba0549e62212659c4d1e06",
    "0xF22455c7F2a81E197AecD951F588a9B650f5b282",
    "0x454b72660dfd0917ffe9974efec37ed931fc66f0110267169810ff46b73e8cb1",
    1664542800,
    "0xB7060D3FeCAC3AE1F0A0AA416E3e8E472257950e",
    2000,
    "0x0000000000000000000000000000000000000000",
    "0xf050cDB34C8f39d24eD12678Dc5Ab32BE8672AfE",
    "0x0977f5050c8158b277F93216f851e83a467ED9c9",
    "0xD3999edf36481d8f6636BB41fbdC936eA4BF5658"
  ],
  "numDeployments": 1,
  "linkedData": [
    {
      "x": 288,
      "y": 282,
      "size": 1,
      "price": "1011000000000000000000",
      "reserved": "",
      "salt": "0xf384d1d79956ce36486e8f51f39b8107b5abfff2716bf87026cfc8f873a68019",
      "assetIds": []
    },
    {
      "x": 288,
      "y": 283,
      "size": 1,
      "price": "1011000000000000000000",
      "reserved": "0x7a9fe22691c811ea339d9b73150e6911a5343dca",
      "salt": "0x9385b15649ab757aee0b21a82b5ac78fc32f093d66a016967e292a121affa577",
      "assetIds": []
    },
    {
      "x": 288,
      "y": 284,
      "size": 1,
      "price": "1011000000000000000000",
      "reserved": "",
      "salt": "0xa3e2e96f373e152d3b061fbafa000f8ff007111daeeff4d11b1ba6d6334227e4",
      "assetIds": []
    },
    {
      "x": 288,
      "y": 285,
      "size": 1,
      "price": "1011000000000000000000",
      "reserved": "",
      "salt": "0x6c7430ad3af75d3edc580af56d38f71777dee13982285464a81f4781792925e5",
      "assetIds": []
    },
    {
      "x": 288,
      "y": 286,
      "size": 1,
      "price": "1011000000000000000000",
      "reserved": "",
      "salt": "0x5047e286d5d646bb4460a32f3db817ab8bf19b4df8a9b4327193defc18caf942",
      "assetIds": []
    },
    {
      "x": 288,
      "y": 287,
      "size": 1,
      "price": "1011000000000000000000",
      "reserved": "",
      "salt": "0xa0e8241313248b5186a300bc335eea8245c91d5aef68d672629c62a7d298acb7",
      "assetIds": []
    },
    {
      "x": 288,
      "y": 288,
      "size": 1,
      "price": "1011000000000000000000",
      "reserved": "",
      "salt": "0xb8db5c29731550ca169a1f5f98dab1dafa596aeb6a5e33926ec6e3f1c47354db",
      "assetIds": []
    },
    {
      "x": 288,
      "y": 289,
      "size": 1,
      "price": "1011000000000000000000",
      "reserved": "",
      "salt": "0x2370207093697fc4d37c040f5a66f26ecdde1d2d3ac2a3b4ce6de87d76f72bbb",
      "assetIds": []
    },
    {
      "x": 288,
      "y": 290,
      "size": 1,
      "price": "1011000000000000000000",
      "reserved": "",
      "salt": "0x21119fed599e63ca61dbad0ecf621ec153f106d6d84ab2ff4e8b9266d066ebd2",
      "assetIds": []
    },
    {
      "x": 288,
      "y": 291,
      "size": 1,
      "price": "1011000000000000000000",
      "reserved": "",
      "salt": "0xc5977f6ba80233d615f61ecf12f3cf9e9b040ee4a6687aff1f4e8ac05e16cbd3",
      "assetIds": []
    },
    {
      "x": 288,
      "y": 292,
      "size": 1,
      "price": "1011000000000000000000",
      "reserved": "",
      "salt": "0xb5ce81c9320168e0095ddc16c326f443154ab76f803a66acd8236ce689353bd7",
      "assetIds": []
    },
    {
      "x": 288,
      "y": 293,
      "size": 1,
      "price": "1011000000000000000000",
      "reserved": "",
      "salt": "0xe2f8094e1441e45b2e608307dc712bcdd1a9a37ede2654295c670b8ea9197cea",
      "assetIds": []
    },
    {
      "x": 288,
      "y": 294,
      "size": 1,
      "price": "1011000000000000000000",
      "reserved": "",
      "salt": "0x02779f32011db2ab033423b3757d45353dd3bb874df2809e0b7013da4767184e",
      "assetIds": []
    },
    {
      "x": 288,
      "y": 295,
      "size": 1,
      "price": "1011000000000000000000",
      "reserved": "",
      "salt": "0x618783359074855558964aad491b2c135d721466a1c4077eb5d5fe49ba2f828b",
      "assetIds": []
    },
    {
      "x": 288,
      "y": 296,
      "size": 1,
      "price": "1011000000000000000000",
      "reserved": "",
      "salt": "0x9a364ec25897c598255d31e0b43d7f1bd3b0004932117a616e978204cd7d2c5b",
      "assetIds": []
    },
    {
      "x": 288,
      "y": 297,
      "size": 1,
      "price": "1011000000000000000000",
      "reserved": "",
      "salt": "0x636a26616485aacb0b8b2573321263ee8046c582cc2a50da517a588f6271c88a",
      "assetIds": []
    },
    {
      "x": 288,
      "y": 298,
      "size": 1,
      "price": "1011000000000000000000",
      "reserved": "",
      "salt": "0x06036bac2814d78a463d6bbd7ba13325a41f00c09f800286fc18a0b0bde7c263",
      "assetIds": []
    },
    {
      "x": 288,
      "y": 299,
      "size": 1,
      "price": "1011000000000000000000",
      "reserved": "",
      "salt": "0x2439d5e7bebc81a95112fb45514c60482dfa845adb050f4221de97424282865f",
      "assetIds": []
    },
    {
      "x": 289,
      "y": 282,
      "size": 1,
      "price": "1011000000000000000000",
      "reserved": "",
      "salt": "0xec3f941e2bf6f9127f3e86ce0c43000a09d8e083b9908154b380134cf8857add",
      "assetIds": []
    },
    {
      "x": 289,
      "y": 283,
      "size": 1,
      "price": "1011000000000000000000",
      "reserved": "",
      "salt": "0x5cca3559cc62c3ecf9424df72ca8e25e30f609820d90357d4f3a59dfc8744b32",
      "assetIds": []
    },
    {
      "x": 289,
      "y": 284,
      "size": 1,
      "price": "1011000000000000000000",
      "reserved": "",
      "salt": "0x8f2c5d16613a28a2f14aac98454c8ffe1a89abe94d2abe4476d1b45fc9ddaaf6",
      "assetIds": []
    },
    {
      "x": 289,
      "y": 285,
      "size": 1,
      "price": "1011000000000000000000",
      "reserved": "0x7a9fe22691c811ea339d9b73150e6911a5343dca",
      "salt": "0x1cd126d03ca998a9d6a102ff6b776996d4eb328527518bd4421225e061cb3aa9",
      "assetIds": []
    },
    {
      "x": 289,
      "y": 286,
      "size": 1,
      "price": "1011000000000000000000",
      "reserved": "",
      "salt": "0x9e78c96765a7881efda6836df8e5e27572dc9c3faab91990b5c55e24662bcdc0",
      "assetIds": []
    },
    {
      "x": 289,
      "y": 287,
      "size": 1,
      "price": "1011000000000000000000",
      "reserved": "",
      "salt": "0x0ce4e0ef360a7d848493a0d6a1b7caa64705583a08355dacd67f21d602602b23",
      "assetIds": []
    },
    {
      "x": 289,
      "y": 288,
      "size": 1,
      "price": "1011000000000000000000",
      "reserved": "",
      "salt": "0x7c41b8076a7ff2a2d41e06ac4fddb81f1de4451f8946dad34221151b36c15f25",
      "assetIds": []
    },
    {
      "x": 289,
      "y": 289,
      "size": 1,
      "price": "1011000000000000000000",
      "reserved": "0x7a9fe22691c811ea339d9b73150e6911a5343dca",
      "salt": "0xcfb493f13e9c43a39a747fea7eca4f7c75f94b5a175d9d9c7dbafa729e15cac2",
      "assetIds": []
    },
    {
      "x": 289,
      "y": 290,
      "size": 1,
      "price": "1011000000000000000000",
      "reserved": "",
      "salt": "0xcf87c04cf050ab3fd7202bed165daf9c13b7c90a0437f6fcc21a54a782fc8ed1",
      "assetIds": []
    },
    {
      "x": 289,
      "y": 291,
      "size": 1,
      "price": "1011000000000000000000",
      "reserved": "",
      "salt": "0xad0c01f4e094d1057dc35b3a9ca9f2ffbfcb1c36bc6f2915b06ba02d6a758630",
      "assetIds": []
    },
    {
      "x": 289,
      "y": 292,
      "size": 1,
      "price": "1011000000000000000000",
      "reserved": "0x7a9fe22691c811ea339d9b73150e6911a5343dca",
      "salt": "0xe6be69a86887dda10189541877676b09e3860c85f99eaab583cabd9569cf386b",
      "assetIds": []
    },
    {
      "x": 289,
      "y": 293,
      "size": 1,
      "price": "1011000000000000000000",
      "reserved": "",
      "salt": "0x42261155acbce300c8eddd86fa6765c3100c3371c2298eceb09a8332e958bbeb",
      "assetIds": []
    },
    {
      "x": 289,
      "y": 294,
      "size": 1,
      "price": "1011000000000000000000",
      "reserved": "",
      "salt": "0x60f4db14a834d87f3f13f782e83dd6c271d65f7bbd0f5bf9343c93b56628db71",
      "assetIds": []
    },
    {
      "x": 289,
      "y": 295,
      "size": 1,
      "price": "1011000000000000000000",
      "reserved": "",
      "salt": "0x21bf5b585c134faedcc27ceff1161aad60ec75966415c682efc2e22f4f6435ae",
      "assetIds": []
    },
    {
      "x": 289,
      "y": 296,
      "size": 1,
      "price": "1011000000000000000000",
      "reserved": "0x7a9fe22691c811ea339d9b73150e6911a5343dca",
      "salt": "0xf7c1c9c7da885ddbc9d0c7fee773f26ca40515d2cb4e2dda9a46d343749361f7",
      "assetIds": []
    },
    {
      "x": 289,
      "y": 297,
      "size": 1,
      "price": "1011000000000000000000",
      "reserved": "",
      "salt": "0x45339eba40e3debe2dc37f1d1806867d0bfd81491fd1b1f171ec9d4ca7ee148d",
      "assetIds": []
    },
    {
      "x": 289,
      "y": 298,
      "size": 1,
      "price": "1011000000000000000000",
      "reserved": "",
      "salt": "0x1f920fb30e093be6693d4bfd65491ad2a0d63fed4a603cc86f912f18c2d35d50",
      "assetIds": []
    },
    {
      "x": 289,
      "y": 299,
      "size": 1,
      "price": "1011000000000000000000",
      "reserved": "",
      "salt": "0x05d4db7e02f347513e0f4801c17e5c220e03be4af2b5c7a7596577ad896dac83",
      "assetIds": []
    },
    {
      "x": 290,
      "y": 282,
      "size": 1,
      "price": "1011000000000000000000",
      "reserved": "0x7a9fe22691c811ea339d9b73150e6911a5343dca",
      "salt": "0x434195a8195e0ad412928fa2ee607f7c74376e81ebece1a1b62e683030d95bff",
      "assetIds": []
    },
    {
      "x": 290,
      "y": 283,
      "size": 1,
      "price": "1011000000000000000000",
      "reserved": "",
      "salt": "0x37fe619a30bbc24a03904a451b02c29cef58f8b110b7e7b6fc2fe5e750f04459",
      "assetIds": []
    },
    {
      "x": 290,
      "y": 284,
      "size": 1,
      "price": "1011000000000000000000",
      "reserved": "0x7a9fe22691c811ea339d9b73150e6911a5343dca",
      "salt": "0xaa2e61503614f88b3b55c7f45015572b35de91f228e734356686fd62240d5e5c",
      "assetIds": []
    },
    {
      "x": 290,
      "y": 285,
      "size": 1,
      "price": "1011000000000000000000",
      "reserved": "",
      "salt": "0x9d77392fd76556f633c9728b4df2363e9efbde83b79b8bc129d6cee37d1d74ae",
      "assetIds": []
    },
    {
      "x": 290,
      "y": 286,
      "size": 1,
      "price": "1011000000000000000000",
      "reserved": "",
      "salt": "0x77d7d7e680f3a05cea82002c56be52c4964383d128c97fd179eccf0cd606febd",
      "assetIds": []
    },
    {
      "x": 290,
      "y": 287,
      "size": 1,
      "price": "1011000000000000000000",
      "reserved": "",
      "salt": "0x18dba407d7f79bc3a89c5c51699d5f927e006f4b19a18d1da3f5da7e19f276cd",
      "assetIds": []
    },
    {
      "x": 290,
      "y": 288,
      "size": 1,
      "price": "1011000000000000000000",
      "reserved": "",
      "salt": "0x73344fae4d69c76aeeec1e7f5eb6f470b8d745fa0c953c6c5574e7f07edb099f",
      "assetIds": []
    },
    {
      "x": 290,
      "y": 289,
      "size": 1,
      "price": "1011000000000000000000",
      "reserved": "",
      "salt": "0xb74d6e0e685260ff10366b821e631521483e5a075fb6374adab3b91ff8ac2501",
      "assetIds": []
    },
    {
      "x": 290,
      "y": 290,
      "size": 1,
      "price": "1011000000000000000000",
      "reserved": "",
      "salt": "0x2959a075447919f59c8361eb7cb96f0fc6c2d1970e9070bc5ef2b6c6b622d3aa",
      "assetIds": []
    },
    {
      "x": 290,
      "y": 291,
      "size": 1,
      "price": "1011000000000000000000",
      "reserved": "0x7a9fe22691c811ea339d9b73150e6911a5343dca",
      "salt": "0x7d0b4b4eacb5b8bdd70d630f6605bcd03ae64a03645113679ae6a2b7827a4b33",
      "assetIds": []
    },
    {
      "x": 290,
      "y": 292,
      "size": 1,
      "price": "1011000000000000000000",
      "reserved": "",
      "salt": "0xa06d0c2cfc1dc9f96616f282c23793e97c2e52ba88687b9cf06e1024bc0ae057",
      "assetIds": []
    },
    {
      "x": 290,
      "y": 293,
      "size": 1,
      "price": "1011000000000000000000",
      "reserved": "",
      "salt": "0xf76874e3ce1e6c5d725c1815a50d8f27dea2b886e630b9ce8600eeacfd6c0c1a",
      "assetIds": []
    },
    {
      "x": 290,
      "y": 294,
      "size": 1,
      "price": "1011000000000000000000",
      "reserved": "",
      "salt": "0x79cf19b562765030c4028fb6e4c29963486fab5edb801a46e0c7cbe72154e556",
      "assetIds": []
    },
    {
      "x": 290,
      "y": 295,
      "size": 1,
      "price": "1011000000000000000000",
      "reserved": "",
      "salt": "0x15fb0f5036e9dd18a1570f86a57ca38b77d2947f0b8816ad343ec544b47348ea",
      "assetIds": []
    },
    {
      "x": 290,
      "y": 296,
      "size": 1,
      "price": "1011000000000000000000",
      "reserved": "",
      "salt": "0x11a898f43d25d9db337625da699af919880122a14a58372b5ef1ae38cfed5677",
      "assetIds": []
    },
    {
      "x": 290,
      "y": 297,
      "size": 1,
      "price": "1011000000000000000000",
      "reserved": "0x7a9fe22691c811ea339d9b73150e6911a5343dca",
      "salt": "0x8d1eb6220743126f57616542061b552dad858e41d2831ebc1be3b2f8f343616a",
      "assetIds": []
    },
    {
      "x": 290,
      "y": 298,
      "size": 1,
      "price": "1011000000000000000000",
      "reserved": "",
      "salt": "0xad6e05ffa82b75f06f92aadf2bf483590f62061ebff0514d8e797ec22c90016d",
      "assetIds": []
    },
    {
      "x": 290,
      "y": 299,
      "size": 1,
      "price": "1011000000000000000000",
      "reserved": "",
      "salt": "0x7a7900e86966a98b7e55d52d5407f1f3947f52807e2240d7b0004741867a964a",
      "assetIds": []
    },
    {
      "x": 291,
      "y": 282,
      "size": 1,
      "price": "1011000000000000000000",
      "reserved": "",
      "salt": "0x1e76fbe5f485e995cdf1ec2869d467a352585ff471dffe03ff1e04cf84db2d66",
      "assetIds": []
    },
    {
      "x": 291,
      "y": 283,
      "size": 1,
      "price": "1011000000000000000000",
      "reserved": "",
      "salt": "0x06d3efe6c6e7b7898889f5025dc80b20bee9759c07b84f4b1da5b6debbdfcd4c",
      "assetIds": []
    },
    {
      "x": 291,
      "y": 284,
      "size": 1,
      "price": "1011000000000000000000",
      "reserved": "",
      "salt": "0x913d5eaafb5ced1007d16c24b021b6d0820692c7012bedd283b953d4b3c0d03c",
      "assetIds": []
    },
    {
      "x": 291,
      "y": 285,
      "size": 1,
      "price": "1011000000000000000000",
      "reserved": "",
      "salt": "0x62461492c7745587da35bc6c5ed4deacda4b4cc2b10d45b0c8ab1783d0dffc69",
      "assetIds": []
    },
    {
      "x": 291,
      "y": 286,
      "size": 1,
      "price": "1011000000000000000000",
      "reserved": "",
      "salt": "0x7e9019df145846156a401b8e277a1179139b60801d51847e6705ffc475158409",
      "assetIds": []
    },
    {
      "x": 291,
      "y": 287,
      "size": 1,
      "price": "1011000000000000000000",
      "reserved": "",
      "salt": "0x3cc770fbcdfb796f3df8c91abc655f8df8d21416a8caaeddc8f834f0246449e8",
      "assetIds": []
    },
    {
      "x": 291,
      "y": 288,
      "size": 1,
      "price": "1011000000000000000000",
      "reserved": "",
      "salt": "0x3a9abbba639a746f94a06da3d63a40ec1177ab7512a8b912a1687cfc51fa8cfb",
      "assetIds": []
    },
    {
      "x": 291,
      "y": 289,
      "size": 1,
      "price": "1011000000000000000000",
      "reserved": "",
      "salt": "0x6b1a8dea3aa9c0d70480133f025fbeb1b883f4508d1a471467ce4518aa79054a",
      "assetIds": []
    },
    {
      "x": 291,
      "y": 290,
      "size": 1,
      "price": "1011000000000000000000",
      "reserved": "",
      "salt": "0xb882f6e19695e3dacb22c4f0b99d064bd48179c6821cc81a9b87aaad045c616c",
      "assetIds": []
    },
    {
      "x": 291,
      "y": 291,
      "size": 1,
      "price": "1011000000000000000000",
      "reserved": "",
      "salt": "0xca92262488957baacdd523fc58be8f7cdb594b23b6a22a174ce50e20e11c33fa",
      "assetIds": []
    },
    {
      "x": 291,
      "y": 292,
      "size": 1,
      "price": "1011000000000000000000",
      "reserved": "",
      "salt": "0x604f8254255eab4e5b9e8c33056b4ddd322fafb0899e4dc09037eb1bcf9b0d83",
      "assetIds": []
    },
    {
      "x": 291,
      "y": 293,
      "size": 1,
      "price": "1011000000000000000000",
      "reserved": "",
      "salt": "0x06e4aa95ec703ab73b127a2d34a1af1fd6a89ee4526346c066805d732075a20f",
      "assetIds": []
    },
    {
      "x": 291,
      "y": 294,
      "size": 1,
      "price": "1011000000000000000000",
      "reserved": "",
      "salt": "0xc83250149535945352871bb6afdc1db2f1cef590733f0dfb14e7a6a0532a0aad",
      "assetIds": []
    },
    {
      "x": 291,
      "y": 295,
      "size": 1,
      "price": "1011000000000000000000",
      "reserved": "",
      "salt": "0xaad2a954f242a2110291b0dddd8bf3479fd74f1be45d6adaa0df9472c9995a9a",
      "assetIds": []
    },
    {
      "x": 291,
      "y": 296,
      "size": 1,
      "price": "1011000000000000000000",
      "reserved": "",
      "salt": "0x89a4a7633f4b0528ca8ea1e2cf35c9910c9efc4e4b600fe5ed94228ed9e5bdd4",
      "assetIds": []
    },
    {
      "x": 291,
      "y": 297,
      "size": 1,
      "price": "1011000000000000000000",
      "reserved": "",
      "salt": "0xa2e2800d8ea4a89b61ee782e4a6bb0b318ee9667764db6e3c7ce8da5729e8148",
      "assetIds": []
    },
    {
      "x": 291,
      "y": 298,
      "size": 1,
      "price": "1011000000000000000000",
      "reserved": "",
      "salt": "0xa19004a67fb2891f6544739cfdaa48e8a7022687888efb519974f64f75dfc745",
      "assetIds": []
    },
    {
      "x": 291,
      "y": 299,
      "size": 1,
      "price": "1011000000000000000000",
      "reserved": "",
      "salt": "0x96d5d01e956046c5dc42c1fa5974b0ca73abd03e4422574d071207be1a092a61",
      "assetIds": []
    },
    {
      "x": 292,
      "y": 282,
      "size": 1,
      "price": "1011000000000000000000",
      "reserved": "",
      "salt": "0x31ee64fc5d32f833462167971fa7811002aaa10dbc154aed69b288d1c0bffb2d",
      "assetIds": []
    },
    {
      "x": 292,
      "y": 283,
      "size": 1,
      "price": "1011000000000000000000",
      "reserved": "0x7a9fe22691c811ea339d9b73150e6911a5343dca",
      "salt": "0xf88337046b1a818e09670f90a8b03381940fe8019af6c3fb3aad337392f171b9",
      "assetIds": []
    },
    {
      "x": 292,
      "y": 284,
      "size": 1,
      "price": "1011000000000000000000",
      "reserved": "",
      "salt": "0xc94caef407f9cbede336c8fdc0c338ef420bda1ba0840d5a112aa671ee626aac",
      "assetIds": []
    },
    {
      "x": 292,
      "y": 285,
      "size": 1,
      "price": "1011000000000000000000",
      "reserved": "0x7a9fe22691c811ea339d9b73150e6911a5343dca",
      "salt": "0x16498ee93bfa1d3ede36c3746399c590763316c74862d7124d0de650b881199f",
      "assetIds": []
    },
    {
      "x": 292,
      "y": 286,
      "size": 1,
      "price": "1011000000000000000000",
      "reserved": "",
      "salt": "0x27511a116debafe3f4738fdce09ecf0a539f8b319edf12ca209e9d2c3f98a7eb",
      "assetIds": []
    },
    {
      "x": 292,
      "y": 287,
      "size": 1,
      "price": "1011000000000000000000",
      "reserved": "",
      "salt": "0x92ef092b0f4d78a824ffa1f23286185be4b489b9bf08a2c2a40d102a51bc30ef",
      "assetIds": []
    },
    {
      "x": 292,
      "y": 288,
      "size": 1,
      "price": "1011000000000000000000",
      "reserved": "0x7a9fe22691c811ea339d9b73150e6911a5343dca",
      "salt": "0x4e69721676c661937ad84aeb3a82c0f027344f5439b8e0b70dba37db9604727f",
      "assetIds": []
    },
    {
      "x": 292,
      "y": 289,
      "size": 1,
      "price": "1011000000000000000000",
      "reserved": "",
      "salt": "0x6e8aafd5d61846e627245bcb775f2ea7028083ed1bd2e1ed7543d9f9f98ebb10",
      "assetIds": []
    },
    {
      "x": 292,
      "y": 290,
      "size": 1,
      "price": "1011000000000000000000",
      "reserved": "",
      "salt": "0xdcb8e50fe99c8dadeff2ebd230d97ced1b004dc03ad4c26c352a645ceefd8725",
      "assetIds": []
    },
    {
      "x": 292,
      "y": 291,
      "size": 1,
      "price": "1011000000000000000000",
      "reserved": "",
      "salt": "0x1cfd12dd19b03b5405bcd234f250114d05165ca466d3a1a40f1f92568a680e88",
      "assetIds": []
    },
    {
      "x": 292,
      "y": 292,
      "size": 1,
      "price": "1011000000000000000000",
      "reserved": "",
      "salt": "0x37f91e7ef4f62c79d466b2708cbc4c2232fad9b7192e7525a443256a99917c55",
      "assetIds": []
    },
    {
      "x": 292,
      "y": 293,
      "size": 1,
      "price": "1011000000000000000000",
      "reserved": "",
      "salt": "0x1106e898bd4daaeb1ad8220f6061c5f59b2879c97f4f10ce00eca244ab4fb5a5",
      "assetIds": []
    },
    {
      "x": 292,
      "y": 294,
      "size": 1,
      "price": "1011000000000000000000",
      "reserved": "0x7a9fe22691c811ea339d9b73150e6911a5343dca",
      "salt": "0x19bb7d3e8fb7b3c8cfb67da20ced40c749985793fa8ad16f62554117f6b172a7",
      "assetIds": []
    },
    {
      "x": 292,
      "y": 295,
      "size": 1,
      "price": "1011000000000000000000",
      "reserved": "",
      "salt": "0x4e6fcac718e9d892cc3c2de5ccaf45cd98fecaec8d355a9acc8784339a3b4195",
      "assetIds": []
    },
    {
      "x": 292,
      "y": 296,
      "size": 1,
      "price": "1011000000000000000000",
      "reserved": "",
      "salt": "0x6359b08298ca9fc75bed893d311e9bbb896182d8dbf0509a9f003f15001382ee",
      "assetIds": []
    },
    {
      "x": 292,
      "y": 297,
      "size": 1,
      "price": "1011000000000000000000",
      "reserved": "",
      "salt": "0x39cb5c59317dbe7edc5ad2ee9ee11f6ce0b64eed2061fa1eb8561c473deed31a",
      "assetIds": []
    },
    {
      "x": 292,
      "y": 298,
      "size": 1,
      "price": "1011000000000000000000",
      "reserved": "",
      "salt": "0xac2e9cdb1de631bf783d9f062cd53da56daf15a9a950943d6d0ddede852c5564",
      "assetIds": []
    },
    {
      "x": 292,
      "y": 299,
      "size": 1,
      "price": "1011000000000000000000",
      "reserved": "0x7a9fe22691c811ea339d9b73150e6911a5343dca",
      "salt": "0x2b728380dedc4d17f1196ff717fdc5e5b4a6bdaedc64a89ec4c22dfc246e62a6",
      "assetIds": []
    },
    {
      "x": 293,
      "y": 282,
      "size": 1,
      "price": "1011000000000000000000",
      "reserved": "",
      "salt": "0x3d54d41aa283243215d9da6b90f621da509d49b839455f4fbf3d56ab0c431527",
      "assetIds": []
    },
    {
      "x": 293,
      "y": 283,
      "size": 1,
      "price": "1011000000000000000000",
      "reserved": "",
      "salt": "0xf02be0c4667700b73ba9b2c559380ee2a1bd489cff56d6ee5c473e6ca8b4c372",
      "assetIds": []
    },
    {
      "x": 293,
      "y": 284,
      "size": 1,
      "price": "1011000000000000000000",
      "reserved": "",
      "salt": "0x00c616cc6db88da5f85f46d82e0159b1e9c7c614ebeb6f5ced358a2c0ecc22e7",
      "assetIds": []
    },
    {
      "x": 293,
      "y": 285,
      "size": 1,
      "price": "1011000000000000000000",
      "reserved": "",
      "salt": "0xc1bbcf28250896a39353dc4ceb23e59c37295335b45ee137481797aae810453b",
      "assetIds": []
    },
    {
      "x": 293,
      "y": 286,
      "size": 1,
      "price": "1011000000000000000000",
      "reserved": "",
      "salt": "0xadea7b2e2f1a8782666f8c834a982744b2b5ae6565469f285a0812a96e4848e6",
      "assetIds": []
    },
    {
      "x": 293,
      "y": 287,
      "size": 1,
      "price": "1011000000000000000000",
      "reserved": "",
      "salt": "0x3e5bde001b81ca5ea0b961942811ed891d7cbd58f0f33c8fd6949370c783e9ea",
      "assetIds": []
    },
    {
      "x": 293,
      "y": 288,
      "size": 1,
      "price": "1011000000000000000000",
      "reserved": "",
      "salt": "0x55032e9908dc80fb336dc44028d96c38a9454e6025c860d4a64a8779956625d9",
      "assetIds": []
    },
    {
      "x": 293,
      "y": 289,
      "size": 1,
      "price": "1011000000000000000000",
      "reserved": "",
      "salt": "0xaef2d99eb191d4287e9872521460e9f57baf874445ef11400616a833bd452e15",
      "assetIds": []
    },
    {
      "x": 293,
      "y": 290,
      "size": 1,
      "price": "1011000000000000000000",
      "reserved": "",
      "salt": "0xeae2698c04e6ba4eca9683f15104c89db5d68db96daf816e0b5397675732dd38",
      "assetIds": []
    },
    {
      "x": 293,
      "y": 291,
      "size": 1,
      "price": "1011000000000000000000",
      "reserved": "",
      "salt": "0x765b4fcb05c0514908fe537800cbe53bea2da5b98669e2c96fca06657432ac32",
      "assetIds": []
    },
    {
      "x": 293,
      "y": 292,
      "size": 1,
      "price": "1011000000000000000000",
      "reserved": "",
      "salt": "0x8858d2f46ef86258c2366def198cbf645d91b8ea9f9b85256b378b7aa345b8ff",
      "assetIds": []
    },
    {
      "x": 293,
      "y": 293,
      "size": 1,
      "price": "1011000000000000000000",
      "reserved": "",
      "salt": "0xe8435defed6814786e097e6a9eb636f569dca826bf085e46175b700cda3b4f3b",
      "assetIds": []
    },
    {
      "x": 293,
      "y": 294,
      "size": 1,
      "price": "1011000000000000000000",
      "reserved": "",
      "salt": "0x17f5c01a7de2c0d5ccc5ffae9d34e0a82c126d1057c6bb193bbc589db1360812",
      "assetIds": []
    },
    {
      "x": 293,
      "y": 295,
      "size": 1,
      "price": "1011000000000000000000",
      "reserved": "",
      "salt": "0xf26792193cf743cb9e2b5e82a6cd0ce4e2e5878214d506945399c22c4103b254",
      "assetIds": []
    },
    {
      "x": 293,
      "y": 296,
      "size": 1,
      "price": "1011000000000000000000",
      "reserved": "",
      "salt": "0x11d58f0d27f7af80e5975cee075e8107b89ea71781b43283a8833a65bd69841f",
      "assetIds": []
    },
    {
      "x": 293,
      "y": 297,
      "size": 1,
      "price": "1011000000000000000000",
      "reserved": "0x7a9fe22691c811ea339d9b73150e6911a5343dca",
      "salt": "0x8ec3d5bd12b303666bdca9e7b354b4879565e74da59eacfce2bae924e584af91",
      "assetIds": []
    },
    {
      "x": 293,
      "y": 298,
      "size": 1,
      "price": "1011000000000000000000",
      "reserved": "",
      "salt": "0xd349dc3cbf790ecc43728287478385237c76499cbb6b883a76e05f6312a91d3d",
      "assetIds": []
    },
    {
      "x": 293,
      "y": 299,
      "size": 1,
      "price": "1011000000000000000000",
      "reserved": "",
      "salt": "0xac07235c0c112c5444e9fc9590d1c7feeab54943055c5aa42644b41e75b4cbd1",
      "assetIds": []
    },
    {
      "x": 294,
      "y": 282,
      "size": 1,
      "price": "1011000000000000000000",
      "reserved": "",
      "salt": "0x9786768c2e7a0bc0ecf72236e252cc1e0d90433353dd6f3fa5b1efe651672f07",
      "assetIds": []
    },
    {
      "x": 294,
      "y": 283,
      "size": 1,
      "price": "1011000000000000000000",
      "reserved": "",
      "salt": "0x9f9854ced583c562d7f777e2752cf1a0ce4b9fe14628f796199163e14b534ba2",
      "assetIds": []
    },
    {
      "x": 294,
      "y": 284,
      "size": 1,
      "price": "1011000000000000000000",
      "reserved": "",
      "salt": "0x393245679a4a7e380a01b940d7e06a260473c776c4a78456ca42fd032fc0afd3",
      "assetIds": []
    },
    {
      "x": 294,
      "y": 285,
      "size": 1,
      "price": "1011000000000000000000",
      "reserved": "",
      "salt": "0xd2c120dff8e3879212dcc2861631f07b8b73282b5adc7f96bf0fdc4f37ff93d4",
      "assetIds": []
    },
    {
      "x": 294,
      "y": 286,
      "size": 1,
      "price": "1011000000000000000000",
      "reserved": "",
      "salt": "0x11566cf6145236d1f9a5eac437d68e683424e6b857d1de919161325e311b02dd",
      "assetIds": []
    },
    {
      "x": 294,
      "y": 287,
      "size": 1,
      "price": "1011000000000000000000",
      "reserved": "",
      "salt": "0x0aedb21e4724d0e133e0023d99a1a6fe2dde075ac9955df90b5c48f54bd9a675",
      "assetIds": []
    },
    {
      "x": 294,
      "y": 288,
      "size": 1,
      "price": "1011000000000000000000",
      "reserved": "",
      "salt": "0x5481bcd02c79458db6eb929b49a54382203f3c4c4a2620527e0d5576d8d54ac6",
      "assetIds": []
    },
    {
      "x": 294,
      "y": 289,
      "size": 1,
      "price": "1011000000000000000000",
      "reserved": "",
      "salt": "0xb205a103bd541dc1a30d0d896f64d7ad89d68da8f646aabb507b20b3256e8e5a",
      "assetIds": []
    },
    {
      "x": 294,
      "y": 290,
      "size": 1,
      "price": "1011000000000000000000",
      "reserved": "0x7a9fe22691c811ea339d9b73150e6911a5343dca",
      "salt": "0xa32bc2791db800f0a0f718bed5df54f5b6211fb124adb37a18894d8e3827d59f",
      "assetIds": []
    },
    {
      "x": 294,
      "y": 291,
      "size": 1,
      "price": "1011000000000000000000",
      "reserved": "",
      "salt": "0xa3685a1b9d13af12cccbd11a7d46f429ed6ea4df2e546ee1a668b839b5e808ce",
      "assetIds": []
    },
    {
      "x": 294,
      "y": 292,
      "size": 1,
      "price": "1011000000000000000000",
      "reserved": "",
      "salt": "0x8ea9b77b07e1b85545da3f08766170e97b9ea58916248859942289c9a286022c",
      "assetIds": []
    },
    {
      "x": 294,
      "y": 293,
      "size": 1,
      "price": "1011000000000000000000",
      "reserved": "",
      "salt": "0x6b6f38a90f9282d622353888bdd7be498a30901f31b28d9941d4af9c3cb86df8",
      "assetIds": []
    },
    {
      "x": 294,
      "y": 294,
      "size": 1,
      "price": "1011000000000000000000",
      "reserved": "",
      "salt": "0x9bd9a29abf25e8182693001beb8b8c9d5fbd2af190f5a7d87a890d3e9b363cd4",
      "assetIds": []
    },
    {
      "x": 294,
      "y": 295,
      "size": 1,
      "price": "1011000000000000000000",
      "reserved": "",
      "salt": "0xaba4b1d2f1cc73f54cc6ce10d84d9ec23dd4e1f8635581ce1c75264283290021",
      "assetIds": []
    },
    {
      "x": 294,
      "y": 296,
      "size": 1,
      "price": "1011000000000000000000",
      "reserved": "",
      "salt": "0x49c8f08e72a65a2fa419809c724271f487d8231905c7b58a70a5eeb6579f954c",
      "assetIds": []
    },
    {
      "x": 294,
      "y": 297,
      "size": 1,
      "price": "1011000000000000000000",
      "reserved": "",
      "salt": "0x3caaca5284fc11362edc270a5928a33bd488667652ba5b39cb465509a35cb7b1",
      "assetIds": []
    },
    {
      "x": 294,
      "y": 298,
      "size": 1,
      "price": "1011000000000000000000",
      "reserved": "",
      "salt": "0xe91c86657547f4e5a8eddd288310c874a57d869e43cf866aae54c15949f4e4c7",
      "assetIds": []
    },
    {
      "x": 294,
      "y": 299,
      "size": 1,
      "price": "1011000000000000000000",
      "reserved": "",
      "salt": "0x6d6efbfa235ca0036caebc0d1bebac1105ea6e1bf42c7566f8ddbb06d6a6f6ba",
      "assetIds": []
    },
    {
      "x": 295,
      "y": 282,
      "size": 1,
      "price": "1011000000000000000000",
      "reserved": "",
      "salt": "0xc7f5d47a50208d1a7901dbfc7ceecad9594d5c76be0357b9cbce07e6ed8ac72f",
      "assetIds": []
    },
    {
      "x": 295,
      "y": 283,
      "size": 1,
      "price": "1011000000000000000000",
      "reserved": "0x7a9fe22691c811ea339d9b73150e6911a5343dca",
      "salt": "0xc03e803db5d6b1f1f0be0d1525f55b4a8e1b61a5801ab448a16c80fa3b76ced4",
      "assetIds": []
    },
    {
      "x": 295,
      "y": 284,
      "size": 1,
      "price": "1011000000000000000000",
      "reserved": "",
      "salt": "0x74a98d00276e97f65196dd75a6207cd67d7176347d32526ac5626d5d58b7bf4c",
      "assetIds": []
    },
    {
      "x": 295,
      "y": 285,
      "size": 1,
      "price": "1011000000000000000000",
      "reserved": "",
      "salt": "0x995aaf8b484891e62753ca28ba7d918f8c7ae4ec779f6aa1a1fb34a3aed2e1b9",
      "assetIds": []
    },
    {
      "x": 295,
      "y": 286,
      "size": 1,
      "price": "1011000000000000000000",
      "reserved": "0x7a9fe22691c811ea339d9b73150e6911a5343dca",
      "salt": "0x460b5968582518e305daf943d6e4ff289e80ff2856cd22d9b970014c86d69ce2",
      "assetIds": []
    },
    {
      "x": 295,
      "y": 287,
      "size": 1,
      "price": "1011000000000000000000",
      "reserved": "",
      "salt": "0x393e57ee4c1e37a4d31d219f89a17b0b6bdbdf678d7ef583dec97986755a9e23",
      "assetIds": []
    },
    {
      "x": 295,
      "y": 288,
      "size": 1,
      "price": "1011000000000000000000",
      "reserved": "",
      "salt": "0xea2fef5b52108b55c06efc81ffbfb9a0745dccf93cc933ac64c5c35409702299",
      "assetIds": []
    },
    {
      "x": 295,
      "y": 289,
      "size": 1,
      "price": "1011000000000000000000",
      "reserved": "",
      "salt": "0x04b090309ae68b79972c142166867b0ee38eca527ff3445af20e75e57aaf2a55",
      "assetIds": []
    },
    {
      "x": 295,
      "y": 290,
      "size": 1,
      "price": "1011000000000000000000",
      "reserved": "",
      "salt": "0xc8899caaa0e92b59450e881fadd4a80c792c7d9a9ff421a4d38a1924e846e53b",
      "assetIds": []
    },
    {
      "x": 295,
      "y": 291,
      "size": 1,
      "price": "1011000000000000000000",
      "reserved": "",
      "salt": "0x82a5afeaf598b4d0cc06906674384e57d14939f5e9a4c946cd9cea0a7b4d559a",
      "assetIds": []
    },
    {
      "x": 295,
      "y": 292,
      "size": 1,
      "price": "1011000000000000000000",
      "reserved": "",
      "salt": "0xe3417cfefd712318745007b4415030786ed133bedb3a8a3b4a676c651b15ed91",
      "assetIds": []
    },
    {
      "x": 295,
      "y": 293,
      "size": 1,
      "price": "1011000000000000000000",
      "reserved": "0x7a9fe22691c811ea339d9b73150e6911a5343dca",
      "salt": "0x30751b76c99447521fa8d6eacfccb504e12f7c2bce48086e4e54c40f7de6cd05",
      "assetIds": []
    },
    {
      "x": 295,
      "y": 294,
      "size": 1,
      "price": "1011000000000000000000",
      "reserved": "",
      "salt": "0x9777f624b1529bc44dc134dc3e17d06ae9f0d297da691acbb8eec9190309dec1",
      "assetIds": []
    },
    {
      "x": 295,
      "y": 295,
      "size": 1,
      "price": "1011000000000000000000",
      "reserved": "",
      "salt": "0xcadb411a142b3164e7a2754416b38b6a2ab9bc4871ba081ac7ef7ef3f63a3819",
      "assetIds": []
    },
    {
      "x": 295,
      "y": 296,
      "size": 1,
      "price": "1011000000000000000000",
      "reserved": "",
      "salt": "0xa03056702f2baf4ff26f549415f3380077b6de7566b0d8af064bf2de409d2ee8",
      "assetIds": []
    },
    {
      "x": 295,
      "y": 297,
      "size": 1,
      "price": "1011000000000000000000",
      "reserved": "",
      "salt": "0xb3f58d48da6857eed736b320ca665ce46a97dfd469450543fdda2029af910641",
      "assetIds": []
    },
    {
      "x": 295,
      "y": 298,
      "size": 1,
      "price": "1011000000000000000000",
      "reserved": "",
      "salt": "0x8d79cae461405cb6cefbd0bfaf1391537957393153d86c83e3fad166b3783cca",
      "assetIds": []
    },
    {
      "x": 295,
      "y": 299,
      "size": 1,
      "price": "1011000000000000000000",
      "reserved": "0x7a9fe22691c811ea339d9b73150e6911a5343dca",
      "salt": "0xbdd48c0d0e3b1506b8be004f79f80399feca7ba1fb074bb58d8de22bba692721",
      "assetIds": []
    },
    {
      "x": 296,
      "y": 282,
      "size": 1,
      "price": "1011000000000000000000",
      "reserved": "",
      "salt": "0xd4efc3e3f1bdfabf94471b70f33fd4249ec417bb1f57651a89d4163a7397c3d9",
      "assetIds": []
    },
    {
      "x": 296,
      "y": 283,
      "size": 1,
      "price": "1011000000000000000000",
      "reserved": "",
      "salt": "0x9d40fbb9e9b6bb5a50117f3ad8249780bb16e0239bf438976636d4ea1a056641",
      "assetIds": []
    },
    {
      "x": 296,
      "y": 284,
      "size": 1,
      "price": "1011000000000000000000",
      "reserved": "0x7a9fe22691c811ea339d9b73150e6911a5343dca",
      "salt": "0x85e051f37945abdbb55e4b8cd3ad69b059ef6d8b8b710ab0f75f60501cb49754",
      "assetIds": []
    },
    {
      "x": 296,
      "y": 285,
      "size": 1,
      "price": "1011000000000000000000",
      "reserved": "",
      "salt": "0xb32434f80e516ce8bb9026fda5337e5f91a18064f57a0a04187cd6430e8dd47f",
      "assetIds": []
    },
    {
      "x": 296,
      "y": 286,
      "size": 1,
      "price": "1011000000000000000000",
      "reserved": "",
      "salt": "0xc4c5d655afcfeaac6596174d8c99f01f9bfefa16735bbfb0bdf28afa69c42b6b",
      "assetIds": []
    },
    {
      "x": 296,
      "y": 287,
      "size": 1,
      "price": "1011000000000000000000",
      "reserved": "",
      "salt": "0x7632a1340c88fcb3439be31e731e8415d0fbb556ea0b5ebfef509ef09513d2c2",
      "assetIds": []
    },
    {
      "x": 296,
      "y": 288,
      "size": 1,
      "price": "1011000000000000000000",
      "reserved": "",
      "salt": "0x2d3b3a6f32eec6bd428ba792f6f8bbcb18a34321d5b3ed93ace5d886744fceb7",
      "assetIds": []
    },
    {
      "x": 296,
      "y": 289,
      "size": 1,
      "price": "1011000000000000000000",
      "reserved": "0x7a9fe22691c811ea339d9b73150e6911a5343dca",
      "salt": "0x65850e0c945c104676507746113fff6409077fddca965bbc529d3d43e6f40323",
      "assetIds": []
    },
    {
      "x": 296,
      "y": 290,
      "size": 1,
      "price": "1011000000000000000000",
      "reserved": "",
      "salt": "0x7d53c633c716e50cd7a00af312b68ec19c99200d3af3ede2070feb86b4c21326",
      "assetIds": []
    },
    {
      "x": 296,
      "y": 291,
      "size": 1,
      "price": "1011000000000000000000",
      "reserved": "",
      "salt": "0xe9c3ca8b755db1a2ef403ba8ef141c1ca02fa1e9ce612e148554d8e9311af1bf",
      "assetIds": []
    },
    {
      "x": 296,
      "y": 292,
      "size": 1,
      "price": "1011000000000000000000",
      "reserved": "",
      "salt": "0x7dfe68457cc1906ff3047834d5889e37913e139c265934b40417f0320e62e7ad",
      "assetIds": []
    },
    {
      "x": 296,
      "y": 293,
      "size": 1,
      "price": "1011000000000000000000",
      "reserved": "",
      "salt": "0x4520348d6cf911d469dd0f1010f48ff950e61458a8b23cd0f50afd7d7c7c0b2e",
      "assetIds": []
    },
    {
      "x": 296,
      "y": 294,
      "size": 1,
      "price": "1011000000000000000000",
      "reserved": "",
      "salt": "0xbc2fd19c91e6aa6db50663616bec8300e18540628096828554045c3f6666eea1",
      "assetIds": []
    },
    {
      "x": 296,
      "y": 295,
      "size": 1,
      "price": "1011000000000000000000",
      "reserved": "",
      "salt": "0x2f766d1685ff49febfd685244d8dd8380308fdeeb6c3d2332b242ec791aee7bd",
      "assetIds": []
    },
    {
      "x": 296,
      "y": 296,
      "size": 1,
      "price": "1011000000000000000000",
      "reserved": "",
      "salt": "0xb393e41f093f085b18ecddf5a2efd0ba2a6744ecc7b562669ad0c4697bb1aa8a",
      "assetIds": []
    },
    {
      "x": 296,
      "y": 297,
      "size": 1,
      "price": "4683000000000000000000",
      "reserved": "",
      "salt": "0x6044df8653a6995c63331290f700dc10cd1ca8f4c0873159b3fd8cb4cdec6ecc",
      "assetIds": [
        "41506478881403507969696680653240014914910929820314476107906210059990541021188"
      ]
    },
    {
      "x": 296,
      "y": 298,
      "size": 1,
      "price": "4683000000000000000000",
      "reserved": "",
      "salt": "0x14fa78713e47e50d3e197e647b5b80bf10e4a8cb984054844aabec0ae7ad678e",
      "assetIds": [
        "41506478881403507969696680653240014914910929820314476107906210059990541021189"
      ]
    },
    {
      "x": 296,
      "y": 299,
      "size": 1,
      "price": "4683000000000000000000",
      "reserved": "",
      "salt": "0xc9d5c0fe0e5eff1f22530849e651db674f2aa80074711e7ec93c20c2b34f7a9b",
      "assetIds": [
        "41506478881403507969696680653240014914910929820314476107906210059990541021189"
      ]
    },
    {
      "x": 297,
      "y": 280,
      "size": 1,
      "price": "1011000000000000000000",
      "reserved": "",
      "salt": "0x86201ed54dfc3a04cb64de057091f4cd6d8337a98e0b7ee5853fbca434e80e4b",
      "assetIds": []
    },
    {
      "x": 297,
      "y": 281,
      "size": 1,
      "price": "1011000000000000000000",
      "reserved": "",
      "salt": "0x8beeb691433761eaeece78083fa18aa7d89ec6ba8538396fc06a17dd2ba22d3d",
      "assetIds": []
    },
    {
      "x": 297,
      "y": 282,
      "size": 1,
      "price": "1011000000000000000000",
      "reserved": "0x7a9fe22691c811ea339d9b73150e6911a5343dca",
      "salt": "0x4be61a93f3d60553c2348ac56baaebc231250223cf4875597c453e678b02743a",
      "assetIds": []
    },
    {
      "x": 297,
      "y": 283,
      "size": 1,
      "price": "1011000000000000000000",
      "reserved": "",
      "salt": "0xf177577d86b25212abee139e892fb88d35221a25cba82fc36d1d81478379b0dd",
      "assetIds": []
    },
    {
      "x": 297,
      "y": 284,
      "size": 1,
      "price": "1011000000000000000000",
      "reserved": "",
      "salt": "0x8f6179bc9ea96b551850c6dbe93cfc1008220164271240fb4d06d7b1bad36af6",
      "assetIds": []
    },
    {
      "x": 297,
      "y": 285,
      "size": 1,
      "price": "1011000000000000000000",
      "reserved": "",
      "salt": "0xd7138d180654967438ef61b42664864de8f79c7609139d7df7ebb10c394889a4",
      "assetIds": []
    },
    {
      "x": 297,
      "y": 286,
      "size": 1,
      "price": "1011000000000000000000",
      "reserved": "0x7a9fe22691c811ea339d9b73150e6911a5343dca",
      "salt": "0x4dffa388b12616be1acce5f04854b590ea05e33aca91a4da68cf06cdbc70e1b4",
      "assetIds": []
    },
    {
      "x": 297,
      "y": 287,
      "size": 1,
      "price": "1011000000000000000000",
      "reserved": "",
      "salt": "0x9f0b14c314899c4809ce63c62e62ba516ca1d594b0b8bec4a6c55d44fa713621",
      "assetIds": []
    },
    {
      "x": 297,
      "y": 288,
      "size": 1,
      "price": "1011000000000000000000",
      "reserved": "",
      "salt": "0x396ecfe8762c03765743370068b8b65c5ad3442dde3a850857bfc7db95ecaaeb",
      "assetIds": []
    },
    {
      "x": 297,
      "y": 289,
      "size": 1,
      "price": "1011000000000000000000",
      "reserved": "",
      "salt": "0x7b2b00889f3eef0fe57950450769316b1cd5ca046845645794fae3852847cfd5",
      "assetIds": []
    },
    {
      "x": 297,
      "y": 290,
      "size": 1,
      "price": "1011000000000000000000",
      "reserved": "0x7a9fe22691c811ea339d9b73150e6911a5343dca",
      "salt": "0x46f254e03eab2457cfc6487181b76c0608dbc4bee511dcf370be08afe5cac78d",
      "assetIds": []
    },
    {
      "x": 297,
      "y": 291,
      "size": 1,
      "price": "1011000000000000000000",
      "reserved": "",
      "salt": "0x04d161698e7ed5b39376ca54aa3dcc3ea401a47db98611cb0b159782d8864411",
      "assetIds": []
    },
    {
      "x": 297,
      "y": 292,
      "size": 1,
      "price": "1011000000000000000000",
      "reserved": "",
      "salt": "0x1ff64b469d77bf05776d392a3e62b40460014c951f3d9f50727eaf07cca15f66",
      "assetIds": []
    },
    {
      "x": 297,
      "y": 293,
      "size": 1,
      "price": "1011000000000000000000",
      "reserved": "",
      "salt": "0x949c18324e3cf5184920a5963ef417f3fcf7d13ea7f11e35b3d3cfc06385b316",
      "assetIds": []
    },
    {
      "x": 297,
      "y": 294,
      "size": 1,
      "price": "1011000000000000000000",
      "reserved": "",
      "salt": "0xfcde05e9a181b5ba0659534c27f2072752b696ed15277970e4c85cf943ef6248",
      "assetIds": []
    },
    {
      "x": 297,
      "y": 295,
      "size": 1,
      "price": "1011000000000000000000",
      "reserved": "",
      "salt": "0xd15c934a8622b41a160c3cfce7420280a2dfeb8352054745d26db8ffa9cbe193",
      "assetIds": []
    },
    {
      "x": 297,
      "y": 296,
      "size": 1,
      "price": "4683000000000000000000",
      "reserved": "",
      "salt": "0x329448d7d248f97447549d403c1ff3af401f4c364973243a4602a43c50db1cdf",
      "assetIds": [
        "41506478881403507969696680653240014914910929820314476107906210059990541021188"
      ]
    },
    {
      "x": 298,
      "y": 280,
      "size": 1,
      "price": "1011000000000000000000",
      "reserved": "0x7a9fe22691c811ea339d9b73150e6911a5343dca",
      "salt": "0xe2f5aa3f19ba53de5271dd7d64b628cb852d74319842720eaf735cc839cd79a9",
      "assetIds": []
    },
    {
      "x": 298,
      "y": 281,
      "size": 1,
      "price": "1011000000000000000000",
      "reserved": "",
      "salt": "0xa6f15f5fa1bd51e7ea0860845e960fbf05eda03040798d912fb1e2155259c87e",
      "assetIds": []
    },
    {
      "x": 298,
      "y": 282,
      "size": 1,
      "price": "1011000000000000000000",
      "reserved": "",
      "salt": "0x1b6715accd34fb190b0d40aa501cea06eacdcfb6ab66722d70cfc49c9eeb2aab",
      "assetIds": []
    },
    {
      "x": 298,
      "y": 283,
      "size": 1,
      "price": "1011000000000000000000",
      "reserved": "",
      "salt": "0xf8b10943e7233c1c096698b88c0fa77895c8814f4806b77f97f8546c3f36230c",
      "assetIds": []
    },
    {
      "x": 298,
      "y": 284,
      "size": 1,
      "price": "1011000000000000000000",
      "reserved": "",
      "salt": "0xf69ff6f9da4eb9728b54b3776c225fd5f7ebf6a768c07f6731e8043b26b6e916",
      "assetIds": []
    },
    {
      "x": 298,
      "y": 285,
      "size": 1,
      "price": "1011000000000000000000",
      "reserved": "",
      "salt": "0x8d9e0be43359d98c858dd751cf30bc48667d2d62ed3ccb24d6c236d15f1f27b2",
      "assetIds": []
    },
    {
      "x": 298,
      "y": 286,
      "size": 1,
      "price": "1011000000000000000000",
      "reserved": "",
      "salt": "0x2f8b6bc5aa3d04e8ff6b7b176f0204dc9c65c3d3823f907bb9168ba4df0af73e",
      "assetIds": []
    },
    {
      "x": 298,
      "y": 287,
      "size": 1,
      "price": "1011000000000000000000",
      "reserved": "",
      "salt": "0x4ce94d2dd0611f988d93f97f3e6bc18561def6dacac81b78cc95467b2c56f6d6",
      "assetIds": []
    },
    {
      "x": 298,
      "y": 288,
      "size": 1,
      "price": "1011000000000000000000",
      "reserved": "",
      "salt": "0x2fe57e005d3ba5c80e3405894e25ac8849314a67613bc56d77709fdd79d0e77a",
      "assetIds": []
    },
    {
      "x": 298,
      "y": 289,
      "size": 1,
      "price": "1011000000000000000000",
      "reserved": "",
      "salt": "0xfa9100585746d352ecb0aa622dcec7c2823683bc5249ab78810f6d3ab218db3e",
      "assetIds": []
    },
    {
      "x": 298,
      "y": 290,
      "size": 1,
      "price": "1011000000000000000000",
      "reserved": "",
      "salt": "0x3de424973e2dca9d3080e1e05442b0e3557aa88ead9fa5c303ce950fba5b265d",
      "assetIds": []
    },
    {
      "x": 298,
      "y": 291,
      "size": 1,
      "price": "1011000000000000000000",
      "reserved": "",
      "salt": "0xfc81b22cf6ee65584a956e5b8ea56a1350db778ef20dc977183e49f98987d3dc",
      "assetIds": []
    },
    {
      "x": 298,
      "y": 292,
      "size": 1,
      "price": "1011000000000000000000",
      "reserved": "",
      "salt": "0x6bc8ca4dd02fd007ebbc21b62d69cdf3c591aaf48b3c1e29265ef9b3c97daa5b",
      "assetIds": []
    },
    {
      "x": 298,
      "y": 293,
      "size": 1,
      "price": "1011000000000000000000",
      "reserved": "0x7a9fe22691c811ea339d9b73150e6911a5343dca",
      "salt": "0xfc93503e2a9980c3560402fa89bef4c1cb6c5d6a85a4c9bf7e84d95f0cc4de1f",
      "assetIds": []
    },
    {
      "x": 298,
      "y": 294,
      "size": 1,
      "price": "1011000000000000000000",
      "reserved": "",
      "salt": "0x88b7fe6db8ce10cbd9d267ef3098555efb57beeb5c6da14f2fa1e4f2b052537e",
      "assetIds": []
    },
    {
      "x": 298,
      "y": 295,
      "size": 1,
      "price": "1011000000000000000000",
      "reserved": "0x7a9fe22691c811ea339d9b73150e6911a5343dca",
      "salt": "0xaab661080db476c031d164380f9f6873f592521fd8c342821b9060a6b9dd6df3",
      "assetIds": []
    },
    {
      "x": 298,
      "y": 296,
      "size": 1,
      "price": "4683000000000000000000",
      "reserved": "",
      "salt": "0xee2eb7a7a81dd062abbec42a2107ca6117b718c553f7d470683f10b8be816555",
      "assetIds": [
        "41506478881403507969696680653240014914910929820314476107906210059990541021189"
      ]
    },
    {
      "x": 299,
      "y": 279,
      "size": 1,
      "price": "1011000000000000000000",
      "reserved": "",
      "salt": "0xeb13a11175458cd3521617c83611affd9d75a0d5fa92b14c8bf3a2f1e36a28d4",
      "assetIds": []
    },
    {
      "x": 299,
      "y": 280,
      "size": 1,
      "price": "1011000000000000000000",
      "reserved": "",
      "salt": "0xa96d441c2802f80ec2e5dc568c2aea2612fe27ef93685234f80a00ea8b66cf1a",
      "assetIds": []
    },
    {
      "x": 299,
      "y": 281,
      "size": 1,
      "price": "1011000000000000000000",
      "reserved": "",
      "salt": "0x0e1421d8eec3b843edbf772e47725d305bb3f5b74c7f000737359c440e21f737",
      "assetIds": []
    },
    {
      "x": 299,
      "y": 282,
      "size": 1,
      "price": "1011000000000000000000",
      "reserved": "0x7a9fe22691c811ea339d9b73150e6911a5343dca",
      "salt": "0x2ba69213c86a8ffe90bd6ef6f318852d421260b8861e815104d321d80d0b7f92",
      "assetIds": []
    },
    {
      "x": 299,
      "y": 283,
      "size": 1,
      "price": "1011000000000000000000",
      "reserved": "0x7a9fe22691c811ea339d9b73150e6911a5343dca",
      "salt": "0xc66fe5f8d0a22814bce850b6e9686023784f0a42873f11eddbe8e7c0b553d6d1",
      "assetIds": []
    },
    {
      "x": 299,
      "y": 284,
      "size": 1,
      "price": "1011000000000000000000",
      "reserved": "",
      "salt": "0xb85436149ce4fa482e6fdc7c5d848025573a0554dae2955af9cc456c68d24007",
      "assetIds": []
    },
    {
      "x": 299,
      "y": 285,
      "size": 1,
      "price": "1011000000000000000000",
      "reserved": "",
      "salt": "0x369844d13ac57b4d720b55c094ecf71941170b00e9d875cd45af36e053f9db6f",
      "assetIds": []
    },
    {
      "x": 299,
      "y": 286,
      "size": 1,
      "price": "1011000000000000000000",
      "reserved": "",
      "salt": "0xc59225347beb1e26c92aa0bb43a427f13d243477e566dacce9acdbb7fc58ad8f",
      "assetIds": []
    },
    {
      "x": 299,
      "y": 287,
      "size": 1,
      "price": "4683000000000000000000",
      "reserved": "",
      "salt": "0x6fdcb717b5f33486caba585c40e3261c5771663ef02d0bdd6b0256fd855b5bff",
      "assetIds": [
        "41506478881403507969696680653240014914910929820314476107906210059990541021187"
      ]
    },
    {
      "x": 299,
      "y": 288,
      "size": 1,
      "price": "4683000000000000000000",
      "reserved": "",
      "salt": "0xa008954725bf585483fad2f33aaf01b6ba51a16db0ea7a4d1f6d1fbabeec729c",
      "assetIds": [
        "41506478881403507969696680653240014914910929820314476107906210059990541021188"
      ]
    },
    {
      "x": 299,
      "y": 289,
      "size": 1,
      "price": "4683000000000000000000",
      "reserved": "",
      "salt": "0x2b49a6d4c907148635c6e38ad40045af8c74eeed55756f5c556576138ba9d7df",
      "assetIds": [
        "41506478881403507969696680653240014914910929820314476107906210059990541021186"
      ]
    },
    {
      "x": 299,
      "y": 290,
      "size": 1,
      "price": "4683000000000000000000",
      "reserved": "",
      "salt": "0xb6b3c9030220749293d7be2c32e1523134b9695f7ebf1b5a15a217c491497b92",
      "assetIds": [
        "41506478881403507969696680653240014914910929820314476107906210059990541021188"
      ]
    },
    {
      "x": 299,
      "y": 291,
      "size": 1,
      "price": "4683000000000000000000",
      "reserved": "",
      "salt": "0x02d93306be118e089264baf71cf7a5359b850775d1c755edb87929bff7586a9c",
      "assetIds": [
        "41506478881403507969696680653240014914910929820314476107906210059990541021188"
      ]
    },
    {
      "x": 299,
      "y": 292,
      "size": 1,
      "price": "4683000000000000000000",
      "reserved": "",
      "salt": "0x3e0747218b3e870e040f11e4a6afce6951978bc62088e5f615b06779d0ecd457",
      "assetIds": [
        "41506478881403507969696680653240014914910929820314476107906210059990541021188"
      ]
    },
    {
      "x": 299,
      "y": 293,
      "size": 1,
      "price": "4683000000000000000000",
      "reserved": "",
      "salt": "0x726f6c191510b7665b15fdc9fadf0e995e2452e8b173147f43e45a93986ce2da",
      "assetIds": [
        "41506478881403507969696680653240014914910929820314476107906210059990541021189"
      ]
    },
    {
      "x": 299,
      "y": 294,
      "size": 1,
      "price": "4683000000000000000000",
      "reserved": "",
      "salt": "0xb1d203ec62fcedac22395553c6aa32a26073e0bc7baa0fa72f43ddb0ac6c8b6b",
      "assetIds": [
        "41506478881403507969696680653240014914910929820314476107906210059990541021187"
      ]
    },
    {
      "x": 299,
      "y": 295,
      "size": 1,
      "price": "4683000000000000000000",
      "reserved": "",
      "salt": "0xaf86ea91ad20720b99ebd232022abf56a707605fcf0e3f863367be6c6151b796",
      "assetIds": [
        "41506478881403507969696680653240014914910929820314476107906210059990541021188"
      ]
    },
    {
      "x": 299,
      "y": 296,
      "size": 1,
      "price": "4683000000000000000000",
      "reserved": "",
      "salt": "0xffc97a10f0e1bb264bbf12e54ed860d080e1b33c808f4d0bdda1b4ad8adb0042",
      "assetIds": [
        "41506478881403507969696680653240014914910929820314476107906210059990541021187"
      ]
    },
    {
      "x": 300,
      "y": 279,
      "size": 1,
      "price": "1011000000000000000000",
      "reserved": "",
      "salt": "0x398b59265fdd0b095bd8887aa2b9e8549c3c4715f9cb9be59b0fd9774f34feb5",
      "assetIds": []
    },
    {
      "x": 300,
      "y": 280,
      "size": 1,
      "price": "1011000000000000000000",
      "reserved": "",
      "salt": "0x4944ed7c7cae1945fadfd95bfe30e3579a7dc1fc99dfd63277dfe101000aa2f3",
      "assetIds": []
    },
    {
      "x": 300,
      "y": 281,
      "size": 1,
      "price": "1011000000000000000000",
      "reserved": "",
      "salt": "0x8a0444aab27e2b37e8060bf143bf53d968c71fa6bc85879d5375ca4a3cf31c21",
      "assetIds": []
    },
    {
      "x": 300,
      "y": 282,
      "size": 1,
      "price": "1011000000000000000000",
      "reserved": "",
      "salt": "0x9a8128073857b9576574e0ad32f16be04169a6bcc63853685297f2cadd45d20f",
      "assetIds": []
    },
    {
      "x": 300,
      "y": 283,
      "size": 1,
      "price": "1011000000000000000000",
      "reserved": "",
      "salt": "0x4d7723a461613218403ee00f26fe2c10dd6344ccaf50f3d4c66ce2ad0b26969a",
      "assetIds": []
    },
    {
      "x": 300,
      "y": 284,
      "size": 1,
      "price": "1011000000000000000000",
      "reserved": "",
      "salt": "0xfe96ccd7a166e381031d384cd66e45abbd82a9edd415ca0a1e0870ddc06a9679",
      "assetIds": []
    },
    {
      "x": 300,
      "y": 285,
      "size": 1,
      "price": "1011000000000000000000",
      "reserved": "",
      "salt": "0xb93467a11819b522cfdfe66156b972bf8be2537bcae36754dfb2395bfc7bbd1d",
      "assetIds": []
    },
    {
      "x": 300,
      "y": 286,
      "size": 1,
      "price": "1011000000000000000000",
      "reserved": "0x7a9fe22691c811ea339d9b73150e6911a5343dca",
      "salt": "0x6ddd46430e2d9f824b18d2009a4aed4adf5f2a39c335410b89739b2843b8304c",
      "assetIds": []
    },
    {
      "x": 300,
      "y": 287,
      "size": 1,
      "price": "4683000000000000000000",
      "reserved": "",
      "salt": "0x0fe3b8918bdb28c1f12d6fa92182a6001af6dd57c501ed716dda4a02cfb1da59",
      "assetIds": [
        "41506478881403507969696680653240014914910929820314476107906210059990541021189"
      ]
    },
    {
      "x": 300,
      "y": 300,
      "size": 1,
      "price": "4683000000000000000000",
      "reserved": "",
      "salt": "0x87e588f1aa0da73545054d14ec1e42a138108252deaaeb2ae3141a5fff511bfb",
      "assetIds": [
        "41506478881403507969696680653240014914910929820314476107906210059990541021186"
      ]
    },
    {
      "x": 300,
      "y": 301,
      "size": 1,
      "price": "1011000000000000000000",
      "reserved": "",
      "salt": "0x59dbf8926ad39862c888d4c7657f19bf35a218d0d4ab40a08e2dd84b62c170a5",
      "assetIds": []
    },
    {
      "x": 300,
      "y": 302,
      "size": 1,
      "price": "1011000000000000000000",
      "reserved": "",
      "salt": "0x1b0f2ac977fc4e219f8296aa75c03e30e8ff276ab45f5e550deec7bc90a3bde4",
      "assetIds": []
    },
    {
      "x": 300,
      "y": 303,
      "size": 1,
      "price": "1011000000000000000000",
      "reserved": "",
      "salt": "0xc499611046d883ccacf1f38f1020d95490a8ebf26c3b6fa970faafc860f7cd51",
      "assetIds": []
    },
    {
      "x": 300,
      "y": 304,
      "size": 1,
      "price": "1011000000000000000000",
      "reserved": "",
      "salt": "0xfcaec109ea88bc900670e3013d708c00496877e973489d44a3d3d70e92e81fe3",
      "assetIds": []
    },
    {
      "x": 300,
      "y": 305,
      "size": 1,
      "price": "1011000000000000000000",
      "reserved": "",
      "salt": "0x12d980afdd71a1d3fee32937b1dd072dd0b0f726034a6d4094e8e9c2c904b463",
      "assetIds": []
    },
    {
      "x": 300,
      "y": 306,
      "size": 1,
      "price": "1011000000000000000000",
      "reserved": "",
      "salt": "0x2137fe0b3c8c66ba03e89ba4483162396a23897337b87fc788135343eced3569",
      "assetIds": []
    },
    {
      "x": 300,
      "y": 307,
      "size": 1,
      "price": "1011000000000000000000",
      "reserved": "",
      "salt": "0xd047012ce3a891fdb97ebd99a744491cf2c476da80ceec7c295fae97d83828a6",
      "assetIds": []
    },
    {
      "x": 300,
      "y": 308,
      "size": 1,
      "price": "1011000000000000000000",
      "reserved": "",
      "salt": "0x98d937557dd210696a99d9a55b336c7a12cf10fe4232e0ade57ef3fce281a14a",
      "assetIds": []
    },
    {
      "x": 300,
      "y": 309,
      "size": 1,
      "price": "1011000000000000000000",
      "reserved": "",
      "salt": "0x33e8f0b992b9b4fb687f2f90c2c4fba943b195491564d04da59190ced3d9c37f",
      "assetIds": []
    },
    {
      "x": 300,
      "y": 310,
      "size": 1,
      "price": "1011000000000000000000",
      "reserved": "",
      "salt": "0x9c2e4d0a98e00f9d0a244ec39a0d8ca0d1d9a22ba0b898f27acceab8cdea1acd",
      "assetIds": []
    },
    {
      "x": 300,
      "y": 311,
      "size": 1,
      "price": "1011000000000000000000",
      "reserved": "",
      "salt": "0x16764d81f61ec86145df8e5fd1bee84dbcc41cf53217ddbb6fe5600ef95a5e9b",
      "assetIds": []
    },
    {
      "x": 301,
      "y": 279,
      "size": 1,
      "price": "1011000000000000000000",
      "reserved": "",
      "salt": "0x819ce551ea62a59a03991d94fe55eee52fdd76d5efbef5d48d33ff8c7e8f9a1d",
      "assetIds": []
    },
    {
      "x": 301,
      "y": 280,
      "size": 1,
      "price": "1011000000000000000000",
      "reserved": "0x7a9fe22691c811ea339d9b73150e6911a5343dca",
      "salt": "0x7ed702152a1be859bdc04664325a2ad6d2839c7b6a010f5fbe579b8319f16ac3",
      "assetIds": []
    },
    {
      "x": 301,
      "y": 281,
      "size": 1,
      "price": "1011000000000000000000",
      "reserved": "",
      "salt": "0xdbf003ad99c216fb0a34bcebf208edbbcc23cc1a738ca67725708620d2e98aee",
      "assetIds": []
    },
    {
      "x": 301,
      "y": 282,
      "size": 1,
      "price": "1011000000000000000000",
      "reserved": "",
      "salt": "0x29020757ae932e646494bc9a868d61d8162f3b7069c4f37f8ced2cef5f003cf7",
      "assetIds": []
    },
    {
      "x": 301,
      "y": 283,
      "size": 1,
      "price": "1011000000000000000000",
      "reserved": "0x7a9fe22691c811ea339d9b73150e6911a5343dca",
      "salt": "0x921ab531293434a5acddb42c9a821b788e75c4a577a3a8024529151a41f5a8be",
      "assetIds": []
    },
    {
      "x": 301,
      "y": 284,
      "size": 1,
      "price": "1011000000000000000000",
      "reserved": "",
      "salt": "0x8e55136c300363a2726b7608d36038ce586ff6a2269df074f72e036f6209b25d",
      "assetIds": []
    },
    {
      "x": 301,
      "y": 285,
      "size": 1,
      "price": "1011000000000000000000",
      "reserved": "",
      "salt": "0x3e66f5db1398d882bd05db1a017f89c08b827b9f2b306951440e07cd93ee207b",
      "assetIds": []
    },
    {
      "x": 301,
      "y": 286,
      "size": 1,
      "price": "4683000000000000000000",
      "reserved": "",
      "salt": "0x2842284fedf140b317bded411b43a8c8c7bb6274acd5764a9596ccf786f18fb6",
      "assetIds": [
        "41506478881403507969696680653240014914910929820314476107906210059990541021187"
      ]
    },
    {
      "x": 301,
      "y": 287,
      "size": 1,
      "price": "4683000000000000000000",
      "reserved": "",
      "salt": "0x92584a72bea8c829250762d7a8acea8da292717b741ae1e01be77cb37ade355b",
      "assetIds": [
        "41506478881403507969696680653240014914910929820314476107906210059990541021187"
      ]
    },
    {
      "x": 301,
      "y": 300,
      "size": 1,
      "price": "4683000000000000000000",
      "reserved": "",
      "salt": "0xdd6a3920e762b6ca9c5ea952d3a17a55c2cec449e82393cbf1007b96ee07bea4",
      "assetIds": [
        "41506478881403507969696680653240014914910929820314476107906210059990541021189"
      ]
    },
    {
      "x": 301,
      "y": 301,
      "size": 1,
      "price": "1011000000000000000000",
      "reserved": "0x7a9fe22691c811ea339d9b73150e6911a5343dca",
      "salt": "0x3083eaea4937ecd453325ed91b2dde93e6284b065d7f239b3f37d2332ecfc6b6",
      "assetIds": []
    },
    {
      "x": 301,
      "y": 302,
      "size": 1,
      "price": "1011000000000000000000",
      "reserved": "",
      "salt": "0x5799eed21b48c2a7ddeb43b377a96ee8cd649427de7d92ddeef21c8f0f39332b",
      "assetIds": []
    },
    {
      "x": 301,
      "y": 303,
      "size": 1,
      "price": "1011000000000000000000",
      "reserved": "",
      "salt": "0x37365ba09b19e8d2cdce2d81fe8682f2dc844c73a399d33b5a94ba636576a47c",
      "assetIds": []
    },
    {
      "x": 301,
      "y": 304,
      "size": 1,
      "price": "1011000000000000000000",
      "reserved": "",
      "salt": "0x0836c52f92898cbc2f39f5176e638ee1a876f687da0b8de7480b9e53ad778090",
      "assetIds": []
    },
    {
      "x": 301,
      "y": 305,
      "size": 1,
      "price": "1011000000000000000000",
      "reserved": "0x7a9fe22691c811ea339d9b73150e6911a5343dca",
      "salt": "0xe77f194337736f2f62580d04fd77c90238f238c9b7ca3bf468fcfe30cfc9f085",
      "assetIds": []
    },
    {
      "x": 301,
      "y": 306,
      "size": 1,
      "price": "1011000000000000000000",
      "reserved": "",
      "salt": "0xb4f617e2e804e05fa167cf1c70f6be5e68a77ecc7164cecf343dc61ee3d3e8c5",
      "assetIds": []
    },
    {
      "x": 301,
      "y": 307,
      "size": 1,
      "price": "1011000000000000000000",
      "reserved": "",
      "salt": "0x9ecc92b7cc584b9699aef9d9674b4f6929bda5b936037f8982ad1cbee93052d5",
      "assetIds": []
    },
    {
      "x": 301,
      "y": 308,
      "size": 1,
      "price": "1011000000000000000000",
      "reserved": "",
      "salt": "0xa89305e57d3b9d1642539d503b082bd7f3e42bfe0a54eae49e0740887561a635",
      "assetIds": []
    },
    {
      "x": 301,
      "y": 309,
      "size": 1,
      "price": "1011000000000000000000",
      "reserved": "0x7a9fe22691c811ea339d9b73150e6911a5343dca",
      "salt": "0xbc8101723f6b6b0a27aa4524055aebbd30d883a7a983928e26c0662018a4a0ab",
      "assetIds": []
    },
    {
      "x": 301,
      "y": 310,
      "size": 1,
      "price": "1011000000000000000000",
      "reserved": "",
      "salt": "0xc227ee6bc32ed7628c96d6a90549e8d10e69edd2ca5f40eac2ba1c5e58b2758f",
      "assetIds": []
    },
    {
      "x": 301,
      "y": 311,
      "size": 1,
      "price": "1011000000000000000000",
      "reserved": "",
      "salt": "0x1a7d227675cee76724c16bdb226e1b8cb1afdb12af97fff9c0ce8afca9518607",
      "assetIds": []
    },
    {
      "x": 302,
      "y": 279,
      "size": 1,
      "price": "1011000000000000000000",
      "reserved": "",
      "salt": "0x67a82177d5c80e381bc99be25e8cd4d939dfe8a417c2c96215d68e22735ecfbf",
      "assetIds": []
    },
    {
      "x": 302,
      "y": 280,
      "size": 1,
      "price": "1011000000000000000000",
      "reserved": "",
      "salt": "0xf6ae4064e01169d38034f7c260db0f64812a74b2332fb0415ef9799ff1976a46",
      "assetIds": []
    },
    {
      "x": 302,
      "y": 281,
      "size": 1,
      "price": "1011000000000000000000",
      "reserved": "",
      "salt": "0xfa7f8d640577585f9ccbf249b1d0aa4dc1d6bacab089b31f520f011a4c0a7c81",
      "assetIds": []
    },
    {
      "x": 302,
      "y": 282,
      "size": 1,
      "price": "1011000000000000000000",
      "reserved": "",
      "salt": "0x6a3196d72bbb7723bedadcc058beb14d2c5dc03b1f29a8dbaf0eb38e804959c0",
      "assetIds": []
    },
    {
      "x": 302,
      "y": 283,
      "size": 1,
      "price": "1011000000000000000000",
      "reserved": "",
      "salt": "0xa16dcddec0e3c5c44186f40e4c048e3880e4cd15030573a240722c8dca71e26a",
      "assetIds": []
    },
    {
      "x": 302,
      "y": 284,
      "size": 1,
      "price": "1011000000000000000000",
      "reserved": "",
      "salt": "0xffe1730358785fbb4336e253723c3d4912d0848a1d8881fccf10e274a75a20cf",
      "assetIds": []
    },
    {
      "x": 302,
      "y": 285,
      "size": 1,
      "price": "4683000000000000000000",
      "reserved": "",
      "salt": "0x082e63f0d4532be7d27b25e3e49f47327e5be91bb1baafd7664cc5d807754435",
      "assetIds": [
        "41506478881403507969696680653240014914910929820314476107906210059990541021187"
      ]
    },
    {
      "x": 302,
      "y": 286,
      "size": 1,
      "price": "4683000000000000000000",
      "reserved": "",
      "salt": "0x323e0914b8204ee79df42331d1826fa263d796ebee5899c446a62b720940a22b",
      "assetIds": [
        "41506478881403507969696680653240014914910929820314476107906210059990541021186"
      ]
    },
    {
      "x": 302,
      "y": 287,
      "size": 1,
      "price": "4683000000000000000000",
      "reserved": "",
      "salt": "0x218c878f66e4741b7a517f61e7c22369831f8774f8555eb98c0a19e3b0818035",
      "assetIds": [
        "41506478881403507969696680653240014914910929820314476107906210059990541021189"
      ]
    },
    {
      "x": 302,
      "y": 300,
      "size": 1,
      "price": "4683000000000000000000",
      "reserved": "",
      "salt": "0xd5f8452a0db1068b93404a360f7020d31f94896a95131dc942954c55d73e3cc9",
      "assetIds": [
        "41506478881403507969696680653240014914910929820314476107906210059990541021188"
      ]
    },
    {
      "x": 302,
      "y": 301,
      "size": 1,
      "price": "1011000000000000000000",
      "reserved": "",
      "salt": "0x89cb1f1a413a18160829b6c151d95a40078483972c4c36e4290d9a40df7bffab",
      "assetIds": []
    },
    {
      "x": 302,
      "y": 302,
      "size": 1,
      "price": "1011000000000000000000",
      "reserved": "0x7a9fe22691c811ea339d9b73150e6911a5343dca",
      "salt": "0x2a86b04043db0351ec95b1ea495b8eb8abc18726246f715f8ff127b8f1d52ac7",
      "assetIds": []
    },
    {
      "x": 302,
      "y": 303,
      "size": 1,
      "price": "1011000000000000000000",
      "reserved": "",
      "salt": "0xce082cff18fd34c5076fd7149a973f029176866f0c321e3e5004b2bccc4a42a8",
      "assetIds": []
    },
    {
      "x": 302,
      "y": 304,
      "size": 1,
      "price": "1011000000000000000000",
      "reserved": "",
      "salt": "0x6b4158528983ca0bd0b9aed567ebb48c4dc95c113709e833ac623ee86fad5b0d",
      "assetIds": []
    },
    {
      "x": 302,
      "y": 305,
      "size": 1,
      "price": "1011000000000000000000",
      "reserved": "",
      "salt": "0x1201bcb3190ac6d6ca1bfcbe5a830ba0b910f76a5243da888bd76825ef65e57f",
      "assetIds": []
    },
    {
      "x": 302,
      "y": 306,
      "size": 1,
      "price": "1011000000000000000000",
      "reserved": "",
      "salt": "0x909670f78639132336906f79b2470fb8570c761fcdbd9a9a33dcba7bc6659274",
      "assetIds": []
    },
    {
      "x": 302,
      "y": 307,
      "size": 1,
      "price": "1011000000000000000000",
      "reserved": "",
      "salt": "0x0e54f9a3ef4d761cf5a47976f6cddc39e7d6d93afac5760ff03e822d0480ec3b",
      "assetIds": []
    },
    {
      "x": 302,
      "y": 308,
      "size": 1,
      "price": "1011000000000000000000",
      "reserved": "",
      "salt": "0x98598298b6d5a69a0c6da30490e6712cbc285fb7ebe252f2bb22e6663f325aa4",
      "assetIds": []
    },
    {
      "x": 302,
      "y": 309,
      "size": 1,
      "price": "1011000000000000000000",
      "reserved": "",
      "salt": "0x4aca895e33f37716627e019334230d9aadf21971901308580c72b4452aacd0c7",
      "assetIds": []
    },
    {
      "x": 302,
      "y": 310,
      "size": 1,
      "price": "1011000000000000000000",
      "reserved": "",
      "salt": "0xb2aef1476e4231d5a294c4054eee83ee6ca4c2209c9a3671bbcdebdf94b79847",
      "assetIds": []
    },
    {
      "x": 302,
      "y": 311,
      "size": 1,
      "price": "1011000000000000000000",
      "reserved": "",
      "salt": "0xed1d4f14b73234172e28498940203efcff0f95311c54a36fdea5d5b2bf3ad5be",
      "assetIds": []
    },
    {
      "x": 303,
      "y": 279,
      "size": 1,
      "price": "1011000000000000000000",
      "reserved": "",
      "salt": "0xdeaf583139bead3cb826a83f15e5788515e524f06cbc2d4b33307d7ce854e81e",
      "assetIds": []
    },
    {
      "x": 303,
      "y": 280,
      "size": 1,
      "price": "1011000000000000000000",
      "reserved": "0x7a9fe22691c811ea339d9b73150e6911a5343dca",
      "salt": "0x5accf1dc93ce859522f705abad57d335005d2f218be69476631c36a19fc6b146",
      "assetIds": []
    },
    {
      "x": 303,
      "y": 281,
      "size": 1,
      "price": "1011000000000000000000",
      "reserved": "",
      "salt": "0x236b86034c925097fc22bb95b5f831dc1154cb6de9798cc44692a8c07190a66c",
      "assetIds": []
    },
    {
      "x": 303,
      "y": 282,
      "size": 1,
      "price": "1011000000000000000000",
      "reserved": "",
      "salt": "0xc3d6f244b6730a448b838c474a2f3ba67e59601177949ce38b3ebda0e60af14e",
      "assetIds": []
    },
    {
      "x": 303,
      "y": 283,
      "size": 1,
      "price": "1011000000000000000000",
      "reserved": "",
      "salt": "0x22babcacbe5959759b2b071e7ca175eaf2d377fcfe43ede2fb6cbc278cf3a52c",
      "assetIds": []
    },
    {
      "x": 303,
      "y": 284,
      "size": 1,
      "price": "4683000000000000000000",
      "reserved": "",
      "salt": "0x809684c5364acd50fd267be2882e5aedd034daa3c111a1a1a77ef3ab4312c12f",
      "assetIds": [
        "41506478881403507969696680653240014914910929820314476107906210059990541021188"
      ]
    },
    {
      "x": 303,
      "y": 300,
      "size": 1,
      "price": "4683000000000000000000",
      "reserved": "",
      "salt": "0x02b06285f02cf19963193df057b5e8b4c4dd0f4e6f5386f2593d68949cd6f257",
      "assetIds": [
        "41506478881403507969696680653240014914910929820314476107906210059990541021187"
      ]
    },
    {
      "x": 303,
      "y": 301,
      "size": 1,
      "price": "1011000000000000000000",
      "reserved": "0x7a9fe22691c811ea339d9b73150e6911a5343dca",
      "salt": "0xd19f70936bd8aa1de948871d9c407404a56e21b9dd31f3e1e7b2db80bcc9062d",
      "assetIds": []
    },
    {
      "x": 303,
      "y": 302,
      "size": 1,
      "price": "1011000000000000000000",
      "reserved": "",
      "salt": "0x2a15b0235759fafd3d23a9e71df8cf77a408cf34e5461f052bd805cc5461b609",
      "assetIds": []
    },
    {
      "x": 303,
      "y": 303,
      "size": 1,
      "price": "1011000000000000000000",
      "reserved": "",
      "salt": "0xe8ba350138a86a8db88f2ded7c119e4964a842f1081323e18c6835527ab59541",
      "assetIds": []
    },
    {
      "x": 303,
      "y": 304,
      "size": 1,
      "price": "1011000000000000000000",
      "reserved": "0x7a9fe22691c811ea339d9b73150e6911a5343dca",
      "salt": "0x6893dc01731156f9d07f1990d8a385065e8fc23f68d68a304a9cb390a8445f60",
      "assetIds": []
    },
    {
      "x": 303,
      "y": 305,
      "size": 1,
      "price": "1011000000000000000000",
      "reserved": "",
      "salt": "0x96b2cf39b739886f680005aee5a6531401513ca6139a02b16b3581bfdd25866f",
      "assetIds": []
    },
    {
      "x": 303,
      "y": 306,
      "size": 1,
      "price": "1011000000000000000000",
      "reserved": "",
      "salt": "0x0a59345f1866204008b5d73e7fcba8108ab2ea3c5cd9fcb0bb536ae039d890ac",
      "assetIds": []
    },
    {
      "x": 303,
      "y": 307,
      "size": 1,
      "price": "1011000000000000000000",
      "reserved": "0x7a9fe22691c811ea339d9b73150e6911a5343dca",
      "salt": "0x89856ccec3d17001930f324051f46edd18cd6db379578ab8126518c3f8d2acfd",
      "assetIds": []
    },
    {
      "x": 303,
      "y": 308,
      "size": 1,
      "price": "1011000000000000000000",
      "reserved": "",
      "salt": "0xe0ab2ef3764cbd3b0ebc13ed45f5ced895c4c647a26b0cd8781a922546800527",
      "assetIds": []
    },
    {
      "x": 303,
      "y": 309,
      "size": 1,
      "price": "1011000000000000000000",
      "reserved": "",
      "salt": "0xffc43c9ab7e32720c58c1df6ff2a0e90b13f25cfb31e811c25e5dc9d8a61ceb5",
      "assetIds": []
    },
    {
      "x": 303,
      "y": 310,
      "size": 1,
      "price": "1011000000000000000000",
      "reserved": "",
      "salt": "0x177b2b5f089b1fd7dc11dc98c2592c077c5248657b53c71ca62089e063e925d7",
      "assetIds": []
    },
    {
      "x": 303,
      "y": 311,
      "size": 1,
      "price": "1011000000000000000000",
      "reserved": "0x7a9fe22691c811ea339d9b73150e6911a5343dca",
      "salt": "0x73c194e031218c0caac971663544d3c471fd8de9abb1dea1bd007507f648585d",
      "assetIds": []
    },
    {
      "x": 304,
      "y": 279,
      "size": 1,
      "price": "1011000000000000000000",
      "reserved": "0x7a9fe22691c811ea339d9b73150e6911a5343dca",
      "salt": "0x5d12545ecd55a51ee5764fc820268f5c2aa28270eab1d7ccd2ea2265d1bcd1a7",
      "assetIds": []
    },
    {
      "x": 304,
      "y": 280,
      "size": 1,
      "price": "1011000000000000000000",
      "reserved": "",
      "salt": "0x391bee3b327e45b9e0a4a4c322cfb29c42bdf1ed4d694ce5254a3ffba4200088",
      "assetIds": []
    },
    {
      "x": 304,
      "y": 281,
      "size": 1,
      "price": "1011000000000000000000",
      "reserved": "",
      "salt": "0x9bd8653a02b7fbeb34b82582f8d44384d9c66de8b7272047997f3f7a8b95103b",
      "assetIds": []
    },
    {
      "x": 304,
      "y": 282,
      "size": 1,
      "price": "1011000000000000000000",
      "reserved": "",
      "salt": "0x8ac610a418e113f01c71678e8a3dcca698e794b33b4a33744e2752290f3daee9",
      "assetIds": []
    },
    {
      "x": 304,
      "y": 283,
      "size": 1,
      "price": "1011000000000000000000",
      "reserved": "0x7a9fe22691c811ea339d9b73150e6911a5343dca",
      "salt": "0xc4c946389c9b3bb408a264cec8b748300928c73e5c0d95403764a1f5cca2f3a5",
      "assetIds": []
    },
    {
      "x": 304,
      "y": 284,
      "size": 1,
      "price": "4683000000000000000000",
      "reserved": "",
      "salt": "0x0fcb1b3dccca39783df45db193a0b84d3d956255bc7b32dbdf2073a7a242aed8",
      "assetIds": [
        "41506478881403507969696680653240014914910929820314476107906210059990541021187"
      ]
    },
    {
      "x": 304,
      "y": 300,
      "size": 1,
      "price": "4683000000000000000000",
      "reserved": "",
      "salt": "0x29614543c9824ba8c2c8c212df049709d76579368be12562a65b916f000a7306",
      "assetIds": [
        "41506478881403507969696680653240014914910929820314476107906210059990541021189"
      ]
    },
    {
      "x": 304,
      "y": 301,
      "size": 1,
      "price": "1011000000000000000000",
      "reserved": "0x7a9fe22691c811ea339d9b73150e6911a5343dca",
      "salt": "0x80a8f5cad1dd2b7e2b7ef10d7f0e3a82b76f7798320ef817a47bc05ab01173c5",
      "assetIds": []
    },
    {
      "x": 304,
      "y": 302,
      "size": 1,
      "price": "1011000000000000000000",
      "reserved": "",
      "salt": "0xc23008369221e332f92879fdf644acba42dafc57fa41430dc14cca0acfb7065c",
      "assetIds": []
    },
    {
      "x": 304,
      "y": 303,
      "size": 1,
      "price": "1011000000000000000000",
      "reserved": "",
      "salt": "0xd35eb1531ed1e6228f60c02867f2d1a249bd54d1d6f9976ff7ecaa9de57be03f",
      "assetIds": []
    },
    {
      "x": 304,
      "y": 304,
      "size": 1,
      "price": "1011000000000000000000",
      "reserved": "",
      "salt": "0x5c6118066a04f9c65ffb587a4a219b919483c42b74207cae1d8d5da7b00fb153",
      "assetIds": []
    },
    {
      "x": 304,
      "y": 305,
      "size": 1,
      "price": "1011000000000000000000",
      "reserved": "",
      "salt": "0x7a95293a701cb3ee9c175e0e3ff641c2c8940d5386143e78f2852f3e89a32332",
      "assetIds": []
    },
    {
      "x": 304,
      "y": 306,
      "size": 1,
      "price": "1011000000000000000000",
      "reserved": "0x7a9fe22691c811ea339d9b73150e6911a5343dca",
      "salt": "0x683a2ede5a820c9392f46fa8f022564cae308b3fd8824201fa224d986d3c1d5e",
      "assetIds": []
    },
    {
      "x": 304,
      "y": 307,
      "size": 1,
      "price": "1011000000000000000000",
      "reserved": "",
      "salt": "0xb73f80f2a7d91aac316fae261bde2b55a2117b8de566aa4f22ab5b5d067c3855",
      "assetIds": []
    },
    {
      "x": 304,
      "y": 308,
      "size": 1,
      "price": "1011000000000000000000",
      "reserved": "",
      "salt": "0x1fa321a5c4846538120588c1cde3dbbc5a15510570f16e15b0f2b4940851bce2",
      "assetIds": []
    },
    {
      "x": 304,
      "y": 309,
      "size": 1,
      "price": "1011000000000000000000",
      "reserved": "",
      "salt": "0x9125a8704fc3ddbb467d96c38bc0e3d0bf79897742fce8c454d6b8c8b34e2298",
      "assetIds": []
    },
    {
      "x": 304,
      "y": 310,
      "size": 1,
      "price": "1011000000000000000000",
      "reserved": "",
      "salt": "0xae02ec4f0c26bb734a98c0047bc205837b3470163948bc4dae62ad525b6b26fb",
      "assetIds": []
    },
    {
      "x": 304,
      "y": 311,
      "size": 1,
      "price": "1011000000000000000000",
      "reserved": "",
      "salt": "0x127547f37869732715ecdccb651b94c11b8d750045c95436af27d4986fb57653",
      "assetIds": []
    },
    {
      "x": 305,
      "y": 279,
      "size": 1,
      "price": "1011000000000000000000",
      "reserved": "",
      "salt": "0x9e8c1564267cbd5308361b7e383477933a60b0a4940b3a39b623b9be8a2dc93e",
      "assetIds": []
    },
    {
      "x": 305,
      "y": 280,
      "size": 1,
      "price": "1011000000000000000000",
      "reserved": "",
      "salt": "0x534370b475f1dfbd2baf12845272b71b9d87a111e78ba076a8c1d4d260c8bac9",
      "assetIds": []
    },
    {
      "x": 305,
      "y": 281,
      "size": 1,
      "price": "4683000000000000000000",
      "reserved": "",
      "salt": "0xaea949736f9146f8e657e69d1c328ab0679d59b4d298b470811aebe7703fb7d9",
      "assetIds": [
        "41506478881403507969696680653240014914910929820314476107906210059990541021188"
      ]
    },
    {
      "x": 305,
      "y": 282,
      "size": 1,
      "price": "4683000000000000000000",
      "reserved": "",
      "salt": "0x2cbb58ef50d696ee875b5611746447893533b7664bd4c8e97f564ada6252b6d1",
      "assetIds": [
        "41506478881403507969696680653240014914910929820314476107906210059990541021189"
      ]
    },
    {
      "x": 305,
      "y": 283,
      "size": 1,
      "price": "4683000000000000000000",
      "reserved": "",
      "salt": "0xed14ef23cf684484737514b4b1e8445b9535f16058881a5004724bfa0c3e2d89",
      "assetIds": [
        "41506478881403507969696680653240014914910929820314476107906210059990541021186"
      ]
    },
    {
      "x": 305,
      "y": 284,
      "size": 1,
      "price": "4683000000000000000000",
      "reserved": "",
      "salt": "0xa654433e60a1a55ffad536b7bd697883e1eb9dbffc687caa1d805d6484446715",
      "assetIds": [
        "41506478881403507969696680653240014914910929820314476107906210059990541021189"
      ]
    },
    {
      "x": 305,
      "y": 300,
      "size": 1,
      "price": "4683000000000000000000",
      "reserved": "",
      "salt": "0x9b76563801cf2ec85e6e8623c26677a586259739d4b62011806a301f1b784bdd",
      "assetIds": [
        "41506478881403507969696680653240014914910929820314476107906210059990541021188"
      ]
    },
    {
      "x": 305,
      "y": 301,
      "size": 1,
      "price": "1011000000000000000000",
      "reserved": "",
      "salt": "0xebe416ddd1d53a8300158c3ade85721b5401d4e290117a3623078cf1a876089a",
      "assetIds": []
    },
    {
      "x": 305,
      "y": 302,
      "size": 1,
      "price": "1011000000000000000000",
      "reserved": "0x7a9fe22691c811ea339d9b73150e6911a5343dca",
      "salt": "0x24c1fc1968f04509fa33ea1eb2d86bdc89b6267d312ba4492306989b0d24c460",
      "assetIds": []
    },
    {
      "x": 305,
      "y": 303,
      "size": 1,
      "price": "1011000000000000000000",
      "reserved": "",
      "salt": "0xa8f93cb300d6d9a38d0a8eb963216f915ed0ede4f21215957929b11d38053314",
      "assetIds": []
    },
    {
      "x": 305,
      "y": 304,
      "size": 1,
      "price": "1011000000000000000000",
      "reserved": "",
      "salt": "0x1b5774523b0dda701b329264d83f947a362411aaaf229802bca014d958ad1b73",
      "assetIds": []
    },
    {
      "x": 305,
      "y": 305,
      "size": 1,
      "price": "1011000000000000000000",
      "reserved": "",
      "salt": "0x7be2808bdd989b59cd28339f5622dc113185763b607fd4b150ce471ad30a681a",
      "assetIds": []
    },
    {
      "x": 305,
      "y": 306,
      "size": 1,
      "price": "1011000000000000000000",
      "reserved": "",
      "salt": "0xea59fbb1214bdc9e43150847fbaa1c74fa21ca7299253ab2cd32c5ba2d4cc168",
      "assetIds": []
    },
    {
      "x": 305,
      "y": 307,
      "size": 1,
      "price": "1011000000000000000000",
      "reserved": "",
      "salt": "0xe9f6b512d2f000e070b385a6bf23fa10123b4ee368507d18b1622eb9a429da75",
      "assetIds": []
    },
    {
      "x": 305,
      "y": 308,
      "size": 1,
      "price": "1011000000000000000000",
      "reserved": "0x7a9fe22691c811ea339d9b73150e6911a5343dca",
      "salt": "0x9970a5eb1857c3bb114784fa0cbbc702186239a32af0393497409fc95b11cc1a",
      "assetIds": []
    },
    {
      "x": 305,
      "y": 309,
      "size": 1,
      "price": "1011000000000000000000",
      "reserved": "",
      "salt": "0xe668f1f1a689aac5fb27c595a48b921e33f97e8607a735f3fd089afe128e13cb",
      "assetIds": []
    },
    {
      "x": 305,
      "y": 310,
      "size": 1,
      "price": "1011000000000000000000",
      "reserved": "",
      "salt": "0x89b7fd4b5949d5b25076e3a9824483e54c9240044b4c21b47fe21965caae77a5",
      "assetIds": []
    },
    {
      "x": 305,
      "y": 311,
      "size": 1,
      "price": "1011000000000000000000",
      "reserved": "",
      "salt": "0x6829bc9ee1675c6c610f207d834ba89f50e900e6c1dad5bd97f6938432486a84",
      "assetIds": []
    },
    {
      "x": 306,
      "y": 279,
      "size": 1,
      "price": "1011000000000000000000",
      "reserved": "0x7a9fe22691c811ea339d9b73150e6911a5343dca",
      "salt": "0x9c88ed7186f7ed94abf15762cd1ccfbbc1986936d3acc261effcc03eafe0f89c",
      "assetIds": []
    },
    {
      "x": 306,
      "y": 280,
      "size": 1,
      "price": "1011000000000000000000",
      "reserved": "",
      "salt": "0xfa2544b8e0a4bad35339e5e37c8581cd3a73dfce92b4db790006a46744803f40",
      "assetIds": []
    },
    {
      "x": 306,
      "y": 281,
      "size": 1,
      "price": "4683000000000000000000",
      "reserved": "",
      "salt": "0xd018a57d74ef53df23ca9fd72f9307985122274e2e8c7625df77530b6bf32fce",
      "assetIds": [
        "41506478881403507969696680653240014914910929820314476107906210059990541021188"
      ]
    },
    {
      "x": 306,
      "y": 300,
      "size": 1,
      "price": "4683000000000000000000",
      "reserved": "",
      "salt": "0xc74448d6a447b9f6b23bc4e26e23e8dcfc3e562b98f8f5315a208fcfe1ab5911",
      "assetIds": [
        "41506478881403507969696680653240014914910929820314476107906210059990541021186"
      ]
    },
    {
      "x": 306,
      "y": 301,
      "size": 1,
      "price": "1011000000000000000000",
      "reserved": "0x7a9fe22691c811ea339d9b73150e6911a5343dca",
      "salt": "0x84419959fbb55dc034ed4ffaea154e3a160cb028f35245908820ef1d52326a07",
      "assetIds": []
    },
    {
      "x": 306,
      "y": 302,
      "size": 1,
      "price": "1011000000000000000000",
      "reserved": "",
      "salt": "0x31ba7183806576e93dd9479c7d6a72c6222ac378af16e30dea3a14842dd30a61",
      "assetIds": []
    },
    {
      "x": 306,
      "y": 303,
      "size": 1,
      "price": "1011000000000000000000",
      "reserved": "",
      "salt": "0xfd4185a6c273f79803db884b9cd6400be3e1e53ec1799105d1a7a1e4f650f54c",
      "assetIds": []
    },
    {
      "x": 306,
      "y": 304,
      "size": 1,
      "price": "1011000000000000000000",
      "reserved": "",
      "salt": "0xd067aedbf45bb2d04275f2082400aa57f754a79e287b326dd68bec4d8554baf7",
      "assetIds": []
    },
    {
      "x": 306,
      "y": 305,
      "size": 1,
      "price": "1011000000000000000000",
      "reserved": "",
      "salt": "0x37e6e85036136e238b449740c587326e9edf4c94a20ef215497ee04bbd5bc0b0",
      "assetIds": []
    },
    {
      "x": 306,
      "y": 306,
      "size": 1,
      "price": "1011000000000000000000",
      "reserved": "",
      "salt": "0x8e34193162d0f1cc4e3e448c7b9eb9eca0205820cdf8c440ef18af6b29bcb983",
      "assetIds": []
    },
    {
      "x": 306,
      "y": 307,
      "size": 1,
      "price": "1011000000000000000000",
      "reserved": "",
      "salt": "0x9a67d3a9d9c64b609a9283c79241f4bf57bcd60466e59d053f53bbabdc51795e",
      "assetIds": []
    },
    {
      "x": 306,
      "y": 308,
      "size": 1,
      "price": "1011000000000000000000",
      "reserved": "",
      "salt": "0xf1c6c67b775678c0fb13a66c06bf1afb5387f3afb226b4c490c4808576f7b1ab",
      "assetIds": []
    },
    {
      "x": 306,
      "y": 309,
      "size": 1,
      "price": "1011000000000000000000",
      "reserved": "0x7a9fe22691c811ea339d9b73150e6911a5343dca",
      "salt": "0xec0296a86a265d5c4451358e0e22d1259cd5ca8d6aa820f8b7255c5d9ea098e4",
      "assetIds": []
    },
    {
      "x": 306,
      "y": 310,
      "size": 1,
      "price": "1011000000000000000000",
      "reserved": "",
      "salt": "0xfcb5361f2e19d2acb5a76cd98e6dd014a0eb1e450305a85e33e1de827ce46c79",
      "assetIds": []
    },
    {
      "x": 306,
      "y": 311,
      "size": 1,
      "price": "1011000000000000000000",
      "reserved": "",
      "salt": "0x1088afa269d9e5d7359c9156182e3cb1bcbf114953eed5005d98b749739cafd7",
      "assetIds": []
    },
    {
      "x": 307,
      "y": 279,
      "size": 1,
      "price": "1011000000000000000000",
      "reserved": "",
      "salt": "0xd9fa32c5453b633960f4b33b31bfce6df3e0a2ebc86587fef07f026e47501255",
      "assetIds": []
    },
    {
      "x": 307,
      "y": 280,
      "size": 1,
      "price": "1011000000000000000000",
      "reserved": "0x7a9fe22691c811ea339d9b73150e6911a5343dca",
      "salt": "0xea96e18f9714f378846eda7b2807fb1616588be36dc9cea0fb919e3fd0b628cf",
      "assetIds": []
    },
    {
      "x": 307,
      "y": 281,
      "size": 1,
      "price": "4683000000000000000000",
      "reserved": "",
      "salt": "0x2b0880941a46893a1ae5bf4331cd3b81604ec5ba255f5d5fb9c1f459ae55d374",
      "assetIds": [
        "41506478881403507969696680653240014914910929820314476107906210059990541021186"
      ]
    },
    {
      "x": 307,
      "y": 300,
      "size": 1,
      "price": "4683000000000000000000",
      "reserved": "",
      "salt": "0x299915858c6c83e8f95832fba0b588369e80e75f075f598d51830aa7319b4303",
      "assetIds": [
        "41506478881403507969696680653240014914910929820314476107906210059990541021186"
      ]
    },
    {
      "x": 307,
      "y": 301,
      "size": 1,
      "price": "1011000000000000000000",
      "reserved": "0x7a9fe22691c811ea339d9b73150e6911a5343dca",
      "salt": "0xe4a718b134822e37916b66a5e410f2cac138181f7d3f5f73e930719b4bdbc2d5",
      "assetIds": []
    },
    {
      "x": 307,
      "y": 302,
      "size": 1,
      "price": "1011000000000000000000",
      "reserved": "",
      "salt": "0x388478d169df4e5f1a4d6524ed6fd48817bcc90e8b0ea511a545a06f4d63dc36",
      "assetIds": []
    },
    {
      "x": 307,
      "y": 303,
      "size": 1,
      "price": "1011000000000000000000",
      "reserved": "",
      "salt": "0x3b3e1a76b08fce21747ef2e2e5e7af47b3361bb5d4a79c79e76e39708d76b9be",
      "assetIds": []
    },
    {
      "x": 307,
      "y": 304,
      "size": 1,
      "price": "1011000000000000000000",
      "reserved": "0x7a9fe22691c811ea339d9b73150e6911a5343dca",
      "salt": "0x5659649d2a848dc34b11205860a7c0794aca7f351f864f926b6e07fc22076786",
      "assetIds": []
    },
    {
      "x": 307,
      "y": 305,
      "size": 1,
      "price": "1011000000000000000000",
      "reserved": "",
      "salt": "0xe7792b66da8ed22fb8233818c41974bd990b537d9c4115c3bb63999a105e1332",
      "assetIds": []
    },
    {
      "x": 307,
      "y": 306,
      "size": 1,
      "price": "1011000000000000000000",
      "reserved": "",
      "salt": "0xd1ed02884a3ee5c33df2fced3a9c5961d07fc24dace4f0e68ca378f8ee81fcb4",
      "assetIds": []
    },
    {
      "x": 307,
      "y": 307,
      "size": 1,
      "price": "1011000000000000000000",
      "reserved": "",
      "salt": "0x43fc4fbf228a79e9b0d6227f998a90e9763e0627c5271b772febca1f2ad0fb43",
      "assetIds": []
    },
    {
      "x": 307,
      "y": 308,
      "size": 1,
      "price": "1011000000000000000000",
      "reserved": "",
      "salt": "0x450e7477e2f61a11f9f6e79bedde9a3121d5317b22a8a0be1baf24c4c5900c1c",
      "assetIds": []
    },
    {
      "x": 307,
      "y": 309,
      "size": 1,
      "price": "1011000000000000000000",
      "reserved": "",
      "salt": "0x46101cd4e88b1d0203a81a532d889d3101bfbc416212373cc7f19a4abef7bd87",
      "assetIds": []
    },
    {
      "x": 307,
      "y": 310,
      "size": 1,
      "price": "1011000000000000000000",
      "reserved": "",
      "salt": "0x3d09bd9f48cad4a7ff46d7fdfe4fb98584e7f0938c21b45e75172b4396fcce85",
      "assetIds": []
    },
    {
      "x": 307,
      "y": 311,
      "size": 1,
      "price": "1011000000000000000000",
      "reserved": "",
      "salt": "0x7696445351d82de6c4c7ba7ffeb2cbe4b88c9167ac83e1c0078bbdef4b9dccc4",
      "assetIds": []
    },
    {
      "x": 308,
      "y": 279,
      "size": 1,
      "price": "1011000000000000000000",
      "reserved": "",
      "salt": "0x2608523167a2570ece2555c37866eb9a2edd224c53a3dc089f9376cf68817c46",
      "assetIds": []
    },
    {
      "x": 308,
      "y": 280,
      "size": 1,
      "price": "1011000000000000000000",
      "reserved": "0x7a9fe22691c811ea339d9b73150e6911a5343dca",
      "salt": "0x572a5dd460549a0b23b72b3d5fe528f4ec9ab8ba88d856331245f41084bb77f6",
      "assetIds": []
    },
    {
      "x": 308,
      "y": 281,
      "size": 1,
      "price": "4683000000000000000000",
      "reserved": "",
      "salt": "0x383f13184a4e2c20ecb58e33118651c76fca98c8cc46b0600c4b735bf5e7fc37",
      "assetIds": [
        "41506478881403507969696680653240014914910929820314476107906210059990541021186"
      ]
    },
    {
      "x": 308,
      "y": 300,
      "size": 1,
      "price": "4683000000000000000000",
      "reserved": "",
      "salt": "0x082843d19cb836ad67d3c92f873db9af48c393ec59941c5587464b23849fabb2",
      "assetIds": [
        "41506478881403507969696680653240014914910929820314476107906210059990541021188"
      ]
    },
    {
      "x": 308,
      "y": 301,
      "size": 1,
      "price": "1011000000000000000000",
      "reserved": "0x7a9fe22691c811ea339d9b73150e6911a5343dca",
      "salt": "0xcebe7012684e2566c3d2325d0f58ecdc1e86204321b91a6a5c4f0b63dd29a99e",
      "assetIds": []
    },
    {
      "x": 308,
      "y": 302,
      "size": 1,
      "price": "1011000000000000000000",
      "reserved": "",
      "salt": "0x510687165683b8334c67b4c61ea09962e563922097a3ffd5dca5f3ac92d25c73",
      "assetIds": []
    },
    {
      "x": 308,
      "y": 303,
      "size": 1,
      "price": "1011000000000000000000",
      "reserved": "",
      "salt": "0xd1f7776752a576ae1b3f47d9bef144fbe2deef44fd4fe7ee28ae2315bc79135a",
      "assetIds": []
    },
    {
      "x": 308,
      "y": 304,
      "size": 1,
      "price": "1011000000000000000000",
      "reserved": "",
      "salt": "0xd08be3e2f2eb145683f20046bdab4999b220846dfc4bbf54685869727d4aba89",
      "assetIds": []
    },
    {
      "x": 308,
      "y": 305,
      "size": 1,
      "price": "1011000000000000000000",
      "reserved": "",
      "salt": "0x9b63f7200520e8d48563deb7d6ba284eaafe0bbe51f562b7478f5d3a4252751c",
      "assetIds": []
    },
    {
      "x": 308,
      "y": 306,
      "size": 1,
      "price": "1011000000000000000000",
      "reserved": "0x7a9fe22691c811ea339d9b73150e6911a5343dca",
      "salt": "0xa03e88fc277a3b09e9a7b5ec3bac21f8bf25013f14418087bdfe6f673be7bf28",
      "assetIds": []
    },
    {
      "x": 308,
      "y": 307,
      "size": 1,
      "price": "1011000000000000000000",
      "reserved": "",
      "salt": "0xf012730597b58c6d1daf784b75f9c315b30dd554e9db612428daeee5c6126d1a",
      "assetIds": []
    },
    {
      "x": 308,
      "y": 308,
      "size": 1,
      "price": "1011000000000000000000",
      "reserved": "",
      "salt": "0xe3b00ef987492ec3bf4410836a2f0c6b92cda1d528c9d67b2e8399edac20a2e5",
      "assetIds": []
    },
    {
      "x": 308,
      "y": 309,
      "size": 1,
      "price": "1011000000000000000000",
      "reserved": "",
      "salt": "0xb7782b031650c4f3729b7370995d7ea0c3675582fcd6eabefad00804be11f07f",
      "assetIds": []
    },
    {
      "x": 308,
      "y": 310,
      "size": 1,
      "price": "1011000000000000000000",
      "reserved": "",
      "salt": "0x6d0ac79321d036123d1a66e5c6606836a0aa85c3638594abae0ae2341ea62628",
      "assetIds": []
    },
    {
      "x": 308,
      "y": 311,
      "size": 1,
      "price": "1011000000000000000000",
      "reserved": "",
      "salt": "0xec3d42006cb651d839e266c218e5851033d6a8b3a9fa7c4903c3e75c2541be10",
      "assetIds": []
    },
    {
      "x": 309,
      "y": 276,
      "size": 1,
      "price": "1011000000000000000000",
      "reserved": "0x7a9fe22691c811ea339d9b73150e6911a5343dca",
      "salt": "0x13b3b73e171d30e5758153e33820f02fc46f0c46f8d271116e6576d470585220",
      "assetIds": []
    },
    {
      "x": 309,
      "y": 277,
      "size": 1,
      "price": "1011000000000000000000",
      "reserved": "0x7a9fe22691c811ea339d9b73150e6911a5343dca",
      "salt": "0x524990bcbb08c2fa4907868d49d70d315335376525072bbdfefe653f7d5b0c32",
      "assetIds": []
    },
    {
      "x": 309,
      "y": 278,
      "size": 1,
      "price": "4683000000000000000000",
      "reserved": "",
      "salt": "0xcc81dea78a384708b1608b103537de2d5a40608f11ab4be59784c76a2206d18a",
      "assetIds": [
        "41506478881403507969696680653240014914910929820314476107906210059990541021186"
      ]
    },
    {
      "x": 309,
      "y": 279,
      "size": 1,
      "price": "4683000000000000000000",
      "reserved": "",
      "salt": "0x2add2592f34e42f5bd932446bdb0acec63317aea3524763e0c9ff31d2e2be22e",
      "assetIds": [
        "41506478881403507969696680653240014914910929820314476107906210059990541021189"
      ]
    },
    {
      "x": 309,
      "y": 280,
      "size": 1,
      "price": "4683000000000000000000",
      "reserved": "",
      "salt": "0x011b3854963376ba0a71e559aabcfbc69f314560f68838dcfb6fbff8275647c7",
      "assetIds": [
        "41506478881403507969696680653240014914910929820314476107906210059990541021187"
      ]
    },
    {
      "x": 309,
      "y": 281,
      "size": 1,
      "price": "4683000000000000000000",
      "reserved": "",
      "salt": "0x9cb4048fe843d188bc73c3855b0c247bb49f8b327304a37994428d23ac09969d",
      "assetIds": [
        "41506478881403507969696680653240014914910929820314476107906210059990541021188"
      ]
    },
    {
      "x": 309,
      "y": 300,
      "size": 1,
      "price": "4683000000000000000000",
      "reserved": "",
      "salt": "0xf64ae0649bc09ecc940763e8ff9123b244494a99f3faefedf801200f17e24aff",
      "assetIds": [
        "41506478881403507969696680653240014914910929820314476107906210059990541021189"
      ]
    },
    {
      "x": 309,
      "y": 301,
      "size": 1,
      "price": "4683000000000000000000",
      "reserved": "",
      "salt": "0x80e847398505b885d65952355756a5330453ab6a4e30e2f093a1ac98224c870d",
      "assetIds": [
        "41506478881403507969696680653240014914910929820314476107906210059990541021186"
      ]
    },
    {
      "x": 309,
      "y": 302,
      "size": 1,
      "price": "1011000000000000000000",
      "reserved": "0x7a9fe22691c811ea339d9b73150e6911a5343dca",
      "salt": "0xeeca29b32d78660f5867a4f9068fe90114132483d22fda92668e6936b236e9af",
      "assetIds": []
    },
    {
      "x": 309,
      "y": 303,
      "size": 1,
      "price": "1011000000000000000000",
      "reserved": "",
      "salt": "0xeb29a42257af70f3316b6b0def9c83d195d760e742ac6b9d6a40fe79ddb47418",
      "assetIds": []
    },
    {
      "x": 309,
      "y": 304,
      "size": 1,
      "price": "1011000000000000000000",
      "reserved": "",
      "salt": "0xf09b01c32795d2d667de920f49cad0daf8831d20560735aff4a22f55f61460cd",
      "assetIds": []
    },
    {
      "x": 309,
      "y": 305,
      "size": 1,
      "price": "1011000000000000000000",
      "reserved": "",
      "salt": "0x9bd3b0842ec6cefd1f8db89dd52742d501c4e89bd244f4641a3a0542e951c644",
      "assetIds": []
    },
    {
      "x": 309,
      "y": 306,
      "size": 1,
      "price": "1011000000000000000000",
      "reserved": "",
      "salt": "0xf512a97f65e689197d3cf82c124ae300f9bfa299b2aed1e709ce841360d7a575",
      "assetIds": []
    },
    {
      "x": 309,
      "y": 307,
      "size": 1,
      "price": "1011000000000000000000",
      "reserved": "",
      "salt": "0x2767a8079a1a0523cd4cd2e9b468d290771a764106fb8b3fec09d75bf84d9bd6",
      "assetIds": []
    },
    {
      "x": 309,
      "y": 308,
      "size": 1,
      "price": "1011000000000000000000",
      "reserved": "0x7a9fe22691c811ea339d9b73150e6911a5343dca",
      "salt": "0x874701e95b67cdb0031c4992a82ab8a95469421767778b20040cb00986f2ab18",
      "assetIds": []
    },
    {
      "x": 310,
      "y": 276,
      "size": 1,
      "price": "4683000000000000000000",
      "reserved": "",
      "salt": "0x21db3fed80ce72bebf5c53000cac645f23774e6fc03c2b67e10d3a552131fbf1",
      "assetIds": [
        "41506478881403507969696680653240014914910929820314476107906210059990541021186"
      ]
    },
    {
      "x": 310,
      "y": 277,
      "size": 1,
      "price": "4683000000000000000000",
      "reserved": "",
      "salt": "0xc2b2189ce831e739398cf116154c3d0134d340dbb52995078c6ea10ffca9f079",
      "assetIds": [
        "41506478881403507969696680653240014914910929820314476107906210059990541021189"
      ]
    },
    {
      "x": 310,
      "y": 278,
      "size": 1,
      "price": "4683000000000000000000",
      "reserved": "",
      "salt": "0x25822ad978735ea4e3e0d206831457b4fa0b61e366fd4015bd095ecc70a444ef",
      "assetIds": [
        "41506478881403507969696680653240014914910929820314476107906210059990541021186"
      ]
    },
    {
      "x": 310,
      "y": 279,
      "size": 1,
      "price": "4683000000000000000000",
      "reserved": "",
      "salt": "0x11f819c917b7d8e42d01c165296172af0bde198082699d6179eda19c94e4664f",
      "assetIds": [
        "41506478881403507969696680653240014914910929820314476107906210059990541021189"
      ]
    },
    {
      "x": 310,
      "y": 280,
      "size": 1,
      "price": "4683000000000000000000",
      "reserved": "",
      "salt": "0x430b1369f2274529fd54d24b6dc7a7061041946230d43dbc4cbfef169faa7845",
      "assetIds": [
        "41506478881403507969696680653240014914910929820314476107906210059990541021187"
      ]
    },
    {
      "x": 310,
      "y": 281,
      "size": 1,
      "price": "4683000000000000000000",
      "reserved": "",
      "salt": "0x5a23bb0e13c73d94c08218b4bc20733ce51da89c1f7c0f685427df5a76fd6990",
      "assetIds": [
        "41506478881403507969696680653240014914910929820314476107906210059990541021187"
      ]
    },
    {
      "x": 310,
      "y": 300,
      "size": 1,
      "price": "4683000000000000000000",
      "reserved": "",
      "salt": "0x14ab746a1736334af8b09f8f4b17e1f09fc9e7a2b5e11522f1c67661703992bd",
      "assetIds": [
        "41506478881403507969696680653240014914910929820314476107906210059990541021188"
      ]
    },
    {
      "x": 310,
      "y": 301,
      "size": 1,
      "price": "4683000000000000000000",
      "reserved": "",
      "salt": "0xb8f09b154c55eafc78309b51ad4d5b8b98ac5ec7a7b4fd4ecffff495f63ca214",
      "assetIds": [
        "41506478881403507969696680653240014914910929820314476107906210059990541021187"
      ]
    },
    {
      "x": 310,
      "y": 302,
      "size": 1,
      "price": "4683000000000000000000",
      "reserved": "",
      "salt": "0x3edf82bb63119170f4506ed7c35a05aed3a8b18f5240aa7f51cd7382b2a3f99d",
      "assetIds": [
        "41506478881403507969696680653240014914910929820314476107906210059990541021186"
      ]
    },
    {
      "x": 310,
      "y": 303,
      "size": 1,
      "price": "4683000000000000000000",
      "reserved": "",
      "salt": "0x03d7868c5e530ce0dfe851b9144f082755311c3ad1709977a9a64ecc1a052e24",
      "assetIds": [
        "41506478881403507969696680653240014914910929820314476107906210059990541021188"
      ]
    },
    {
      "x": 310,
      "y": 304,
      "size": 1,
      "price": "4683000000000000000000",
      "reserved": "",
      "salt": "0x5678e9faa92f78f182127bd03bbc5f3b55569beb31dcf3fe07d6365a64293adc",
      "assetIds": [
        "41506478881403507969696680653240014914910929820314476107906210059990541021188"
      ]
    },
    {
      "x": 310,
      "y": 305,
      "size": 1,
      "price": "4683000000000000000000",
      "reserved": "",
      "salt": "0xe5eaa58452b0be3cabc9156beba819ab0c403efd850384a9976a962aedd059dd",
      "assetIds": [
        "41506478881403507969696680653240014914910929820314476107906210059990541021188"
      ]
    },
    {
      "x": 310,
      "y": 306,
      "size": 1,
      "price": "4683000000000000000000",
      "reserved": "",
      "salt": "0xb7355790a8c17ba985c303158d1182332a3add6307312f982006bffeba66fa18",
      "assetIds": [
        "41506478881403507969696680653240014914910929820314476107906210059990541021187"
      ]
    },
    {
      "x": 310,
      "y": 307,
      "size": 1,
      "price": "4683000000000000000000",
      "reserved": "",
      "salt": "0x5855aa2e0200da23a4e1b3c1b11f322db16730d305d16e49fc8bf2913f25e3bb",
      "assetIds": [
        "41506478881403507969696680653240014914910929820314476107906210059990541021189"
      ]
    },
    {
      "x": 310,
      "y": 308,
      "size": 1,
      "price": "4683000000000000000000",
      "reserved": "",
      "salt": "0x06e51900709f5ce8149e2cf56524bbe96458dd6a418bab64130d6b2a8ac4b856",
      "assetIds": [
        "41506478881403507969696680653240014914910929820314476107906210059990541021187"
      ]
    },
    {
      "x": 311,
      "y": 276,
      "size": 1,
      "price": "4683000000000000000000",
      "reserved": "",
      "salt": "0xa9d5b275e6e189ce6d2e9ef6f3373e7966a0b832cdf85f8cc425c28ac8c25dd2",
      "assetIds": [
        "41506478881403507969696680653240014914910929820314476107906210059990541021186"
      ]
    },
    {
      "x": 311,
      "y": 277,
      "size": 1,
      "price": "4683000000000000000000",
      "reserved": "",
      "salt": "0x9d1ea8085101d6644809b67c963164451d617fee2f7c4900c79bd9756beccbbf",
      "assetIds": [
        "41506478881403507969696680653240014914910929820314476107906210059990541021187"
      ]
    },
    {
      "x": 311,
      "y": 278,
      "size": 1,
      "price": "4683000000000000000000",
      "reserved": "",
      "salt": "0xefe8b6353bf1c18fb50dbd604b5eac35aacf66219e10b74b87f87a0c0bc9171c",
      "assetIds": [
        "41506478881403507969696680653240014914910929820314476107906210059990541021186"
      ]
    },
    {
      "x": 311,
      "y": 279,
      "size": 1,
      "price": "4683000000000000000000",
      "reserved": "",
      "salt": "0x745407f4649c441591f019df65669a7f7b66b313704342f3b207e66e794b2436",
      "assetIds": [
        "41506478881403507969696680653240014914910929820314476107906210059990541021186"
      ]
    },
    {
      "x": 311,
      "y": 280,
      "size": 1,
      "price": "4683000000000000000000",
      "reserved": "",
      "salt": "0xcaaaf77072e9af73919a89f13f3fe74eedfed4d5a81584ec75ff7756cf69fef1",
      "assetIds": [
        "41506478881403507969696680653240014914910929820314476107906210059990541021189"
      ]
    },
    {
      "x": 311,
      "y": 281,
      "size": 1,
      "price": "4683000000000000000000",
      "reserved": "",
      "salt": "0x490ff9e310204109497f0fdd0c54d473cf1e6df8d6e69f7c58e44f1e0e286aa3",
      "assetIds": [
        "41506478881403507969696680653240014914910929820314476107906210059990541021186"
      ]
    },
    {
      "x": 311,
      "y": 300,
      "size": 1,
      "price": "4683000000000000000000",
      "reserved": "",
      "salt": "0x7dc75823c6bb50d3e4415346475123ede815f8a8969145f012814fda7538ec8a",
      "assetIds": [
        "41506478881403507969696680653240014914910929820314476107906210059990541021187"
      ]
    },
    {
      "x": 311,
      "y": 301,
      "size": 1,
      "price": "4683000000000000000000",
      "reserved": "",
      "salt": "0xb103192633d09cf86481ef6e1527551da3133ec121eec9daebc78d286091ff9d",
      "assetIds": [
        "41506478881403507969696680653240014914910929820314476107906210059990541021186"
      ]
    },
    {
      "x": 311,
      "y": 302,
      "size": 1,
      "price": "4683000000000000000000",
      "reserved": "",
      "salt": "0x3c7e1095403286ac0549b5f3598422643f6d6814e435adbd11f9644d07083b86",
      "assetIds": [
        "41506478881403507969696680653240014914910929820314476107906210059990541021189"
      ]
    },
    {
      "x": 311,
      "y": 303,
      "size": 1,
      "price": "4683000000000000000000",
      "reserved": "",
      "salt": "0x332b369c541ddf98b1eb197dabb1f58bad9f2664ef4b7ad91a1945d55dd3bb9b",
      "assetIds": [
        "41506478881403507969696680653240014914910929820314476107906210059990541021187"
      ]
    },
    {
      "x": 311,
      "y": 304,
      "size": 1,
      "price": "4683000000000000000000",
      "reserved": "",
      "salt": "0xa32ea1774125a623eb69ffcc7e87c492274f7caa6265359bb1c6b1f4decd02c5",
      "assetIds": [
        "41506478881403507969696680653240014914910929820314476107906210059990541021186"
      ]
    },
    {
      "x": 311,
      "y": 305,
      "size": 1,
      "price": "4683000000000000000000",
      "reserved": "",
      "salt": "0x4293244b4442e515c304a77ff4aef75fe1e0e2a80e3f488323cd53161cf32dee",
      "assetIds": [
        "41506478881403507969696680653240014914910929820314476107906210059990541021187"
      ]
    },
    {
      "x": 311,
      "y": 306,
      "size": 1,
      "price": "4683000000000000000000",
      "reserved": "",
      "salt": "0x2116c7326537af0659dfe5ed16bce8e1b9f0ac2953930c009f4fc70422cf4b16",
      "assetIds": [
        "41506478881403507969696680653240014914910929820314476107906210059990541021187"
      ]
    },
    {
      "x": 311,
      "y": 307,
      "size": 1,
      "price": "4683000000000000000000",
      "reserved": "",
      "salt": "0x4b09f5f27552439fe2fed9961dabe3187b142efa3eb0d775af552425b4de9ff1",
      "assetIds": [
        "41506478881403507969696680653240014914910929820314476107906210059990541021188"
      ]
    },
    {
      "x": 311,
      "y": 308,
      "size": 1,
      "price": "4683000000000000000000",
      "reserved": "",
      "salt": "0x266005c78c9890b535bf4c9fa3f53916022b6a34fcf2c0767f556273cf14ba85",
      "assetIds": [
        "41506478881403507969696680653240014914910929820314476107906210059990541021186"
      ]
    },
    {
      "x": 312,
      "y": 282,
      "size": 1,
      "price": "4683000000000000000000",
      "reserved": "",
      "salt": "0x1dde872ed8b5754fb796dcd1d5f2b51b2e8383a32404e19f452df1bbde5d233a",
      "assetIds": [
        "41506478881403507969696680653240014914910929820314476107906210059990541021189"
      ]
    },
    {
      "x": 312,
      "y": 283,
      "size": 1,
      "price": "4683000000000000000000",
      "reserved": "",
      "salt": "0xde393a4ca36d009dc9590d2d1c7aba22ce18ab986114cb9d8cd6542a4f020f78",
      "assetIds": [
        "41506478881403507969696680653240014914910929820314476107906210059990541021186"
      ]
    },
    {
      "x": 312,
      "y": 284,
      "size": 1,
      "price": "4683000000000000000000",
      "reserved": "",
      "salt": "0x3af04df352ae3aa40dfcb98e8092e01e3ee69b69984e091dc56f2ee03d2a2d3f",
      "assetIds": [
        "41506478881403507969696680653240014914910929820314476107906210059990541021189"
      ]
    },
    {
      "x": 312,
      "y": 285,
      "size": 1,
      "price": "4683000000000000000000",
      "reserved": "",
      "salt": "0xb074ab0bea3f7e21d9e3f07974840ba89993051f0bbbf5f335f0ebbedc78dddc",
      "assetIds": [
        "41506478881403507969696680653240014914910929820314476107906210059990541021189"
      ]
    },
    {
      "x": 312,
      "y": 286,
      "size": 1,
      "price": "4683000000000000000000",
      "reserved": "",
      "salt": "0x60637775f1674a058339bd4ea1f1d2614acc7389c91711cb965da0bb86a351a8",
      "assetIds": [
        "41506478881403507969696680653240014914910929820314476107906210059990541021187"
      ]
    },
    {
      "x": 312,
      "y": 287,
      "size": 1,
      "price": "4683000000000000000000",
      "reserved": "",
      "salt": "0x525abe6e52c789522d43a5af11410cadae12dae9c75eddd4c33de5abda40730a",
      "assetIds": [
        "41506478881403507969696680653240014914910929820314476107906210059990541021186"
      ]
    },
    {
      "x": 312,
      "y": 288,
      "size": 1,
      "price": "4683000000000000000000",
      "reserved": "",
      "salt": "0xfbfe9f750beb1988d47a944706dc2ed3d6c8b4df66b63835495973b9523d997f",
      "assetIds": [
        "41506478881403507969696680653240014914910929820314476107906210059990541021189"
      ]
    },
    {
      "x": 312,
      "y": 289,
      "size": 1,
      "price": "4683000000000000000000",
      "reserved": "",
      "salt": "0x356bab4f01a221fb0bba13aae7f90250d1bd2972ce2ebe35341a75a4e3913ab3",
      "assetIds": [
        "41506478881403507969696680653240014914910929820314476107906210059990541021187"
      ]
    },
    {
      "x": 312,
      "y": 290,
      "size": 1,
      "price": "4683000000000000000000",
      "reserved": "",
      "salt": "0xbe51f53766b0eddb9e67a24d8f42d68c45c99df8d93df67b09ee00d34515ae98",
      "assetIds": [
        "41506478881403507969696680653240014914910929820314476107906210059990541021189"
      ]
    },
    {
      "x": 312,
      "y": 291,
      "size": 1,
      "price": "4683000000000000000000",
      "reserved": "",
      "salt": "0x44669c2a7bd8c23b56f93739aec3fda04cfb4f2408ea1dce46eb8a3e374485d5",
      "assetIds": [
        "41506478881403507969696680653240014914910929820314476107906210059990541021187"
      ]
    },
    {
      "x": 312,
      "y": 292,
      "size": 1,
      "price": "4683000000000000000000",
      "reserved": "",
      "salt": "0x22f852801d165d992f8e1f055ea721c1227a1500575c2393b2e9fcad059f1247",
      "assetIds": [
        "41506478881403507969696680653240014914910929820314476107906210059990541021187"
      ]
    },
    {
      "x": 312,
      "y": 293,
      "size": 1,
      "price": "4683000000000000000000",
      "reserved": "",
      "salt": "0x6599944081ffcee08195af1a1ecf704f64c06aa5bc0680d5698f55cee3d0f5b7",
      "assetIds": [
        "41506478881403507969696680653240014914910929820314476107906210059990541021188"
      ]
    },
    {
      "x": 313,
      "y": 282,
      "size": 1,
      "price": "4683000000000000000000",
      "reserved": "",
      "salt": "0x9c726f2c4bc56b1d8657bbee2c8bb6a6f44205c207f79b46a8497af6dd2f2b06",
      "assetIds": [
        "41506478881403507969696680653240014914910929820314476107906210059990541021186"
      ]
    },
    {
      "x": 313,
      "y": 283,
      "size": 1,
      "price": "4683000000000000000000",
      "reserved": "",
      "salt": "0x1ab55b482ae5b7048124ee737ed9defed9c1e14cbd700614dc58bb9e759fce25",
      "assetIds": [
        "41506478881403507969696680653240014914910929820314476107906210059990541021186"
      ]
    },
    {
      "x": 313,
      "y": 284,
      "size": 1,
      "price": "1011000000000000000000",
      "reserved": "0x7a9fe22691c811ea339d9b73150e6911a5343dca",
      "salt": "0x98304447647aa68cf6c226b33e5c37aa0acab3eb704671d5a921c665252fb642",
      "assetIds": []
    },
    {
      "x": 313,
      "y": 285,
      "size": 1,
      "price": "1011000000000000000000",
      "reserved": "",
      "salt": "0x5c3d5eaafde2e2f812d701d592a0818b686c00e719b24d25c9f10f9f9eaf86f1",
      "assetIds": []
    },
    {
      "x": 313,
      "y": 286,
      "size": 1,
      "price": "1011000000000000000000",
      "reserved": "",
      "salt": "0x1c3211c3c56934701dc00993a9f386c404e229965ac424559a2eba084ce090ab",
      "assetIds": []
    },
    {
      "x": 313,
      "y": 287,
      "size": 1,
      "price": "1011000000000000000000",
      "reserved": "",
      "salt": "0x65c2a2dd542098e8f9ffacc95c13bd39611006da9f3df256c6cd006d7d945403",
      "assetIds": []
    },
    {
      "x": 313,
      "y": 288,
      "size": 1,
      "price": "1011000000000000000000",
      "reserved": "0x7a9fe22691c811ea339d9b73150e6911a5343dca",
      "salt": "0xb619b2e079d144fb30ea56a87263c1748e4d8be2163635cfb5e4cb0485f2fa41",
      "assetIds": []
    },
    {
      "x": 313,
      "y": 289,
      "size": 1,
      "price": "1011000000000000000000",
      "reserved": "",
      "salt": "0x58d06a9371876053fee2717f1808e739a380d024a34794ced44f2706521ee4f9",
      "assetIds": []
    },
    {
      "x": 313,
      "y": 290,
      "size": 1,
      "price": "1011000000000000000000",
      "reserved": "",
      "salt": "0xb4f11713138961ba33a542e298341e7df51272d4fa93fd4f813c46a23d8e7740",
      "assetIds": []
    },
    {
      "x": 313,
      "y": 291,
      "size": 1,
      "price": "1011000000000000000000",
      "reserved": "",
      "salt": "0xfee6df917e2150c0f1af2650701b9274f3a4ad75cedf21f40be1b9cddf6dd584",
      "assetIds": []
    },
    {
      "x": 313,
      "y": 292,
      "size": 1,
      "price": "1011000000000000000000",
      "reserved": "",
      "salt": "0x0dd8397efeb26585514ee9725cc385f1f668869c5a3b467d1fa0ed123ba8ab24",
      "assetIds": []
    },
    {
      "x": 313,
      "y": 293,
      "size": 1,
      "price": "1011000000000000000000",
      "reserved": "0x7a9fe22691c811ea339d9b73150e6911a5343dca",
      "salt": "0x44f1ca1b83c2975ea0b433753f8ad6d392d7b9cf53c7afe7cafeedf118fbf7a7",
      "assetIds": []
    },
    {
      "x": 314,
      "y": 282,
      "size": 1,
      "price": "4683000000000000000000",
      "reserved": "",
      "salt": "0xdbe1c0d8f136d94684e04ee0d63ff91ad332d1a6bf44ab62e4e2b6f50031d3de",
      "assetIds": [
        "41506478881403507969696680653240014914910929820314476107906210059990541021187"
      ]
    },
    {
      "x": 314,
      "y": 283,
      "size": 1,
      "price": "1011000000000000000000",
      "reserved": "0x7a9fe22691c811ea339d9b73150e6911a5343dca",
      "salt": "0xdf62d3605c40b34127213ff644ba51b012c74fa74d83e78c0166f9893cad5de0",
      "assetIds": []
    },
    {
      "x": 314,
      "y": 284,
      "size": 1,
      "price": "1011000000000000000000",
      "reserved": "",
      "salt": "0xdf938dce11cf800442effecdc9fc7956ececf47989548896479559657bc472ef",
      "assetIds": []
    },
    {
      "x": 314,
      "y": 285,
      "size": 1,
      "price": "1011000000000000000000",
      "reserved": "",
      "salt": "0x690852c5026be08896aac7a213c7d3e3b4931fc84bead5e33cd870fda6e4be07",
      "assetIds": []
    },
    {
      "x": 314,
      "y": 286,
      "size": 1,
      "price": "1011000000000000000000",
      "reserved": "",
      "salt": "0xb89bfdd6b180d5ede2fb0d7b7defc14f493f3db2ec062bed837272a5d0fb3de9",
      "assetIds": []
    },
    {
      "x": 314,
      "y": 287,
      "size": 1,
      "price": "1011000000000000000000",
      "reserved": "",
      "salt": "0x08f7ec8e2c8dbe288fecafe3f10737594908421de3a20d4e287020ce94c4d3e1",
      "assetIds": []
    },
    {
      "x": 314,
      "y": 288,
      "size": 1,
      "price": "1011000000000000000000",
      "reserved": "",
      "salt": "0x7668df7b5c48697dc4e5cfccf50597937c5b1cb63d17d5d8e4248d6030a70e7f",
      "assetIds": []
    },
    {
      "x": 314,
      "y": 289,
      "size": 1,
      "price": "1011000000000000000000",
      "reserved": "",
      "salt": "0x90b4430f6d2327958d85f9d51b89b4d97e02dc49e3439be025d648320e36ccd9",
      "assetIds": []
    },
    {
      "x": 314,
      "y": 290,
      "size": 1,
      "price": "1011000000000000000000",
      "reserved": "",
      "salt": "0xe6acdd1828a17112c2a13ba22be95b5167a0e4de35141c7f45101e246ad5326a",
      "assetIds": []
    },
    {
      "x": 314,
      "y": 291,
      "size": 1,
      "price": "1011000000000000000000",
      "reserved": "",
      "salt": "0x38052935da1b41caaaeb1294e4717b5b4d050a5ea5b9efe8239da32a6a14714d",
      "assetIds": []
    },
    {
      "x": 314,
      "y": 292,
      "size": 1,
      "price": "1011000000000000000000",
      "reserved": "",
      "salt": "0x028fac410f091990bffd3b999fdcea9d1cb74e20868086d7106c1a8d73ae1fbc",
      "assetIds": []
    },
    {
      "x": 314,
      "y": 293,
      "size": 1,
      "price": "1011000000000000000000",
      "reserved": "",
      "salt": "0xb81cd754d2a849a8b3c2c7a3b8739d7494f67f2452b1fa73a013ca3a14a4cb46",
      "assetIds": []
    },
    {
      "x": 315,
      "y": 282,
      "size": 1,
      "price": "4683000000000000000000",
      "reserved": "",
      "salt": "0x5c3d7a4cc47516c93ac7d3059a9d0a613b06a16c7e858aa11dbd5908ebf24a64",
      "assetIds": [
        "41506478881403507969696680653240014914910929820314476107906210059990541021187"
      ]
    },
    {
      "x": 315,
      "y": 283,
      "size": 1,
      "price": "1011000000000000000000",
      "reserved": "",
      "salt": "0xe4642d05a65d08ae5a06ec9917e6bf143308e1886bbd273a2ef0dd07bc0549a8",
      "assetIds": []
    },
    {
      "x": 315,
      "y": 284,
      "size": 1,
      "price": "1011000000000000000000",
      "reserved": "",
      "salt": "0xe13c7dc784c168added63030519ee02b6c65f298592156bc9eaa80559d621849",
      "assetIds": []
    },
    {
      "x": 315,
      "y": 285,
      "size": 1,
      "price": "1011000000000000000000",
      "reserved": "",
      "salt": "0x27dcddf18ffa5c9b77e2965fb997d109e5538861ca3433b13127d14e35c53f8f",
      "assetIds": []
    },
    {
      "x": 315,
      "y": 286,
      "size": 1,
      "price": "1011000000000000000000",
      "reserved": "0x7a9fe22691c811ea339d9b73150e6911a5343dca",
      "salt": "0x49d6d341401b4c39ef2b886efe50b352acd4d7563e9d09131071211fa277c8ba",
      "assetIds": []
    },
    {
      "x": 315,
      "y": 287,
      "size": 1,
      "price": "1011000000000000000000",
      "reserved": "",
      "salt": "0xa6c0ae5823e1888b800a08a16b195e080478a61ec82bdc6032e38957b63ddeb4",
      "assetIds": []
    },
    {
      "x": 315,
      "y": 288,
      "size": 1,
      "price": "1011000000000000000000",
      "reserved": "",
      "salt": "0x95a41ea22da5456aa76f0596e45b08023108aa45242692abe6aa681decb9bd23",
      "assetIds": []
    },
    {
      "x": 315,
      "y": 289,
      "size": 1,
      "price": "1011000000000000000000",
      "reserved": "0x7a9fe22691c811ea339d9b73150e6911a5343dca",
      "salt": "0x829bfed0b949ed474a2d88ffe083471a8e6f5a89f72871bd1ae3dbd48c0617f0",
      "assetIds": []
    },
    {
      "x": 315,
      "y": 290,
      "size": 1,
      "price": "1011000000000000000000",
      "reserved": "",
      "salt": "0xcc87be7d55203f1a9333bed6cdd2e4b9742115d84516db75dee3d635a0f66be0",
      "assetIds": []
    },
    {
      "x": 315,
      "y": 291,
      "size": 1,
      "price": "1011000000000000000000",
      "reserved": "",
      "salt": "0x0200feea16abeb195502739b496792e7fa3bbb84b1dc620d8a744ce6ef94779d",
      "assetIds": []
    },
    {
      "x": 315,
      "y": 292,
      "size": 1,
      "price": "1011000000000000000000",
      "reserved": "",
      "salt": "0x32ec19f81f8d2c294693883473daaa99eeed0f3c6590d281104d5cf7a96b3bbf",
      "assetIds": []
    },
    {
      "x": 315,
      "y": 293,
      "size": 1,
      "price": "1011000000000000000000",
      "reserved": "",
      "salt": "0x73b7aa12b222ce57be16de93df4e30df4f152382de29e794c0495fd09f64f28a",
      "assetIds": []
    },
    {
      "x": 316,
      "y": 282,
      "size": 1,
      "price": "4683000000000000000000",
      "reserved": "",
      "salt": "0xd1a3d2effcf36f42d02e76bd770ef404af43f0821e3e3362999ec5e350583e5a",
      "assetIds": [
        "41506478881403507969696680653240014914910929820314476107906210059990541021188"
      ]
    },
    {
      "x": 316,
      "y": 283,
      "size": 1,
      "price": "1011000000000000000000",
      "reserved": "0x7a9fe22691c811ea339d9b73150e6911a5343dca",
      "salt": "0x9d9e95988806cdc1d5bc0908485d32086f9182997f16aeb1a2964b5f94ee4056",
      "assetIds": []
    },
    {
      "x": 316,
      "y": 284,
      "size": 1,
      "price": "1011000000000000000000",
      "reserved": "",
      "salt": "0x1351d6993ed989505e1924efab33173c0c4b0e9ea4133b8251824f4d85d96c3e",
      "assetIds": []
    },
    {
      "x": 316,
      "y": 285,
      "size": 1,
      "price": "1011000000000000000000",
      "reserved": "",
      "salt": "0x37ce3d765796aab4c73894c500768ad82ebf3ea02f0ce393b97374fe0ea3788e",
      "assetIds": []
    },
    {
      "x": 316,
      "y": 286,
      "size": 1,
      "price": "1011000000000000000000",
      "reserved": "",
      "salt": "0xa10630aaf26637ed2be522fcd3174ec59f59a163c0024da2b961862d62d80cec",
      "assetIds": []
    },
    {
      "x": 316,
      "y": 287,
      "size": 1,
      "price": "1011000000000000000000",
      "reserved": "",
      "salt": "0xde5b7d3e5e1f689385a9da189610b5be78e4f5bb15594222a47c9536a60c9737",
      "assetIds": []
    },
    {
      "x": 316,
      "y": 288,
      "size": 1,
      "price": "1011000000000000000000",
      "reserved": "",
      "salt": "0x5a964f7adb9bc81c3a0051d39034a531f739408bd6ae6dcde153a06776618b1c",
      "assetIds": []
    },
    {
      "x": 316,
      "y": 289,
      "size": 1,
      "price": "1011000000000000000000",
      "reserved": "",
      "salt": "0x9a0d512de9d07eb3c7c4e8019aa0fb89485a9844d992f4a6dd6be88b94effffd",
      "assetIds": []
    },
    {
      "x": 316,
      "y": 290,
      "size": 1,
      "price": "1011000000000000000000",
      "reserved": "",
      "salt": "0xfb50e8abb657879e1c80945b8c1be489e5ddaa61793626726700b6e34cc7c319",
      "assetIds": []
    },
    {
      "x": 316,
      "y": 291,
      "size": 1,
      "price": "1011000000000000000000",
      "reserved": "",
      "salt": "0x97b660feb4f7ad0ac88079b8862a6fa4b87e36c1b847b38a0a6de02376b82b34",
      "assetIds": []
    },
    {
      "x": 316,
      "y": 292,
      "size": 1,
      "price": "1011000000000000000000",
      "reserved": "",
      "salt": "0x6493fae522641b58bd432b3854204be589f1425acc9992e8a322e7a2066dfd9a",
      "assetIds": []
    },
    {
      "x": 316,
      "y": 293,
      "size": 1,
      "price": "1011000000000000000000",
      "reserved": "",
      "salt": "0x2b135c540cfb4a3a1e7a2927d457998a1abeb216f279359cf75b35626939de68",
      "assetIds": []
    },
    {
      "x": 317,
      "y": 282,
      "size": 1,
      "price": "4683000000000000000000",
      "reserved": "",
      "salt": "0xc33685a5b92ec6f50e3490b3bd07e670421992d67d1178d3b4f7f1f61932e2e5",
      "assetIds": [
        "41506478881403507969696680653240014914910929820314476107906210059990541021188"
      ]
    },
    {
      "x": 317,
      "y": 283,
      "size": 1,
      "price": "1011000000000000000000",
      "reserved": "",
      "salt": "0x30afd80fe77022135d6b1fd476f46b140766b4d904d2bf24daa26c73768cd0fe",
      "assetIds": []
    },
    {
      "x": 317,
      "y": 284,
      "size": 1,
      "price": "1011000000000000000000",
      "reserved": "",
      "salt": "0xfed061419dc116e5f96bb1008150cbe97a1c957dacf0e9fc12508eae2a41c0d4",
      "assetIds": []
    },
    {
      "x": 317,
      "y": 285,
      "size": 1,
      "price": "1011000000000000000000",
      "reserved": "",
      "salt": "0x0d1d5a6bde73bd1094491fe51474394da802a70440d2dd33527843776c936e04",
      "assetIds": []
    },
    {
      "x": 317,
      "y": 286,
      "size": 1,
      "price": "1011000000000000000000",
      "reserved": "",
      "salt": "0x66ac61dbd01cdf5597e1dbd567f71eedbec94f72c4ae51468be41f91c3797fbf",
      "assetIds": []
    },
    {
      "x": 317,
      "y": 287,
      "size": 1,
      "price": "1011000000000000000000",
      "reserved": "",
      "salt": "0xe3966afb95b20f1f1eeda64f778d50bc2685579c70477159080010b95ec59c5c",
      "assetIds": []
    },
    {
      "x": 317,
      "y": 288,
      "size": 1,
      "price": "1011000000000000000000",
      "reserved": "0x7a9fe22691c811ea339d9b73150e6911a5343dca",
      "salt": "0x79ccaabff4a37e1ccb8c3741e5f217217c9f281d7bef5db753c20b21ddd3bc2c",
      "assetIds": []
    },
    {
      "x": 317,
      "y": 289,
      "size": 1,
      "price": "1011000000000000000000",
      "reserved": "",
      "salt": "0xba16dcd24be4aecadfa5c7906052e3e7de92b1d4514def31a6e1e0fb0b6a042d",
      "assetIds": []
    },
    {
      "x": 317,
      "y": 290,
      "size": 1,
      "price": "1011000000000000000000",
      "reserved": "",
      "salt": "0x7fe544dee4c7f30d9fd6736551d77215102d35d5baf3b4d2f9b690199e43012f",
      "assetIds": []
    },
    {
      "x": 317,
      "y": 291,
      "size": 1,
      "price": "1011000000000000000000",
      "reserved": "0x7a9fe22691c811ea339d9b73150e6911a5343dca",
      "salt": "0xfdaa9c3019e7231d1cfd55a3388ff773490acc0c79b777e097268a9a43884038",
      "assetIds": []
    },
    {
      "x": 317,
      "y": 292,
      "size": 1,
      "price": "1011000000000000000000",
      "reserved": "",
      "salt": "0x31fce5ebcec43c4ba2d0937a20588a2f15346cca0f78050380519e404c203314",
      "assetIds": []
    },
    {
      "x": 317,
      "y": 293,
      "size": 1,
      "price": "1011000000000000000000",
      "reserved": "",
      "salt": "0x8b7deed3cc7eebc00c6ce7034fef5472e972a410a83183ceff7a329286933932",
      "assetIds": []
    },
    {
      "x": 318,
      "y": 282,
      "size": 1,
      "price": "1011000000000000000000",
      "reserved": "",
      "salt": "0xab9a16e1ab8538f1796dcca67b134c919b204436de03a682026bc6a267cd28ca",
      "assetIds": []
    },
    {
      "x": 318,
      "y": 283,
      "size": 1,
      "price": "1011000000000000000000",
      "reserved": "",
      "salt": "0x0341a1fa1e31580bbd6f13d74ee084a4625f6e5c1e899403ea856d8c67679174",
      "assetIds": []
    },
    {
      "x": 318,
      "y": 284,
      "size": 1,
      "price": "1011000000000000000000",
      "reserved": "",
      "salt": "0x9dfc5e129e3b09a126af8a1f5ad321a0bc7ff7df3a25f8b66af2ebd33ee15264",
      "assetIds": []
    },
    {
      "x": 318,
      "y": 285,
      "size": 1,
      "price": "1011000000000000000000",
      "reserved": "",
      "salt": "0xafb040f369a822e1dc154dcd5d2cdd0dc9073a2c422420ede3231b3f45a4235a",
      "assetIds": []
    },
    {
      "x": 318,
      "y": 286,
      "size": 1,
      "price": "1011000000000000000000",
      "reserved": "0x7a9fe22691c811ea339d9b73150e6911a5343dca",
      "salt": "0x9fac6ba2e6a4cf8e1ccfd498250686f3dcc0a5fc72b2bfbaa51cc473f9c582ae",
      "assetIds": []
    },
    {
      "x": 318,
      "y": 287,
      "size": 1,
      "price": "1011000000000000000000",
      "reserved": "",
      "salt": "0x883d9e90c9548264e38474ab8d3047e72e8342e14e8775b3d6884ac6e66a3e93",
      "assetIds": []
    },
    {
      "x": 318,
      "y": 288,
      "size": 1,
      "price": "1011000000000000000000",
      "reserved": "",
      "salt": "0xa1567ae65997243edeac5728ad28ffc34a1313fafdbeb98a485d83df1afcb98e",
      "assetIds": []
    },
    {
      "x": 318,
      "y": 289,
      "size": 1,
      "price": "1011000000000000000000",
      "reserved": "",
      "salt": "0x645b511fdb2c6c39787d669f88710a7fa77d67a2f787c92b989dbddfac7e8062",
      "assetIds": []
    },
    {
      "x": 318,
      "y": 290,
      "size": 1,
      "price": "1011000000000000000000",
      "reserved": "",
      "salt": "0x96ae8087aead35e7f638ffadb25eb917389ed53771f2ee2c27bf6f1e5735cc8a",
      "assetIds": []
    },
    {
      "x": 318,
      "y": 291,
      "size": 1,
      "price": "1011000000000000000000",
      "reserved": "",
      "salt": "0xc0b9d541ddb14cbf84d31843bf0f937beba431e5f329aeb11652b16c69c61b7d",
      "assetIds": []
    },
    {
      "x": 318,
      "y": 292,
      "size": 1,
      "price": "1011000000000000000000",
      "reserved": "",
      "salt": "0xde37eab4194a11ee5db73aca70f3cb030a198d6f45944af61641cb07d9d989f8",
      "assetIds": []
    },
    {
      "x": 318,
      "y": 293,
      "size": 1,
      "price": "1011000000000000000000",
      "reserved": "",
      "salt": "0x7b2ccc73f1bed3aa8c6dccdc19b6b407631b8724fe527d5b1ed934b105061a1a",
      "assetIds": []
    },
    {
      "x": 319,
      "y": 282,
      "size": 1,
      "price": "1011000000000000000000",
      "reserved": "",
      "salt": "0xf5542189c2993578408ee43effcd487fb333cb5148dc9ac1425cf331a28282ce",
      "assetIds": []
    },
    {
      "x": 319,
      "y": 283,
      "size": 1,
      "price": "1011000000000000000000",
      "reserved": "",
      "salt": "0xeb23bdf44ad53f3854b882e8f7cacaeb41efa14e830039d942086cb08168591b",
      "assetIds": []
    },
    {
      "x": 319,
      "y": 284,
      "size": 1,
      "price": "1011000000000000000000",
      "reserved": "",
      "salt": "0x43600985c658d100377575d7e4b451e0e3d28c88ab2939991c0da0c4ed62df1d",
      "assetIds": []
    },
    {
      "x": 319,
      "y": 285,
      "size": 1,
      "price": "1011000000000000000000",
      "reserved": "",
      "salt": "0xd262c90b4a5337d28f61e22689c5a147eff014611022e788ab8bbc2a3430ab3d",
      "assetIds": []
    },
    {
      "x": 319,
      "y": 286,
      "size": 1,
      "price": "1011000000000000000000",
      "reserved": "",
      "salt": "0x968c29720c2e6438021dd68e5d95203cf98ca3ee47024938eb255055b479a589",
      "assetIds": []
    },
    {
      "x": 319,
      "y": 287,
      "size": 1,
      "price": "1011000000000000000000",
      "reserved": "",
      "salt": "0x5790da110ffd7997f69083d955e744990316f92d9537a277e17347529634d27b",
      "assetIds": []
    },
    {
      "x": 319,
      "y": 288,
      "size": 1,
      "price": "1011000000000000000000",
      "reserved": "",
      "salt": "0xea06702ea817f59364050d20940e3c3a7d2b50077a1cd4838ae0d31712136d55",
      "assetIds": []
    },
    {
      "x": 319,
      "y": 289,
      "size": 1,
      "price": "1011000000000000000000",
      "reserved": "",
      "salt": "0xd74e805be2152db36c42aa2351def584088cecaff1467893f97911054b4a46ff",
      "assetIds": []
    },
    {
      "x": 319,
      "y": 290,
      "size": 1,
      "price": "1011000000000000000000",
      "reserved": "",
      "salt": "0xaf3553bb4bcebd03932faea9829efbf7170d32e54fa2d54f2556a690575e08ea",
      "assetIds": []
    },
    {
      "x": 319,
      "y": 291,
      "size": 1,
      "price": "1011000000000000000000",
      "reserved": "",
      "salt": "0xc832baa92a135bf71b94f2ea6d4e22478b6e3ff6f2f0338bf70fed11d03ee5bb",
      "assetIds": []
    },
    {
      "x": 319,
      "y": 292,
      "size": 1,
      "price": "1011000000000000000000",
      "reserved": "",
      "salt": "0x31846d3f35b8818ff65f9d34497937cd9f8e9a17853da0576d90994e749cbc33",
      "assetIds": []
    },
    {
      "x": 319,
      "y": 293,
      "size": 1,
      "price": "1011000000000000000000",
      "reserved": "",
      "salt": "0x6d2d8e22e171566e6a5c08ea04ad01466568ecf05f9a174df785bb063f97bf53",
      "assetIds": []
    },
    {
      "x": 320,
      "y": 282,
      "size": 1,
      "price": "1011000000000000000000",
      "reserved": "",
      "salt": "0xf167184367d0585048cfd6a2e85d3a00221e71b4daa5c79cdc82818c27bfcfc0",
      "assetIds": []
    },
    {
      "x": 320,
      "y": 283,
      "size": 1,
      "price": "1011000000000000000000",
      "reserved": "0x7a9fe22691c811ea339d9b73150e6911a5343dca",
      "salt": "0x89d7969d71168b53fd2069d20791c61e75aafbc6c68c1e3775e0f5dc72cdf104",
      "assetIds": []
    },
    {
      "x": 320,
      "y": 284,
      "size": 1,
      "price": "1011000000000000000000",
      "reserved": "",
      "salt": "0xdcf715683ead8a97825d713c864fb21e5f98b14086bb68637eb97a4dbead23a8",
      "assetIds": []
    },
    {
      "x": 320,
      "y": 285,
      "size": 1,
      "price": "1011000000000000000000",
      "reserved": "0x7a9fe22691c811ea339d9b73150e6911a5343dca",
      "salt": "0x088d552015fcc610a4851abfc51cdd32d29d41c2de41b70462601b5bb3436c2c",
      "assetIds": []
    },
    {
      "x": 320,
      "y": 286,
      "size": 1,
      "price": "1011000000000000000000",
      "reserved": "",
      "salt": "0xad20507da32e1d8edf9bc788d7ed7c97bc7226aa9a21aa44a6af57673de89ffd",
      "assetIds": []
    },
    {
      "x": 320,
      "y": 287,
      "size": 1,
      "price": "1011000000000000000000",
      "reserved": "",
      "salt": "0x8c623feb8bc9bbdd8467a0706e7c65c62dd30ed3f0765ce7b1a2d2d211a6d9d6",
      "assetIds": []
    },
    {
      "x": 320,
      "y": 288,
      "size": 1,
      "price": "1011000000000000000000",
      "reserved": "",
      "salt": "0x12e7686fb5a2cdbef58379eb5bc95d1a6b036894312bb494eb5471790484d682",
      "assetIds": []
    },
    {
      "x": 320,
      "y": 289,
      "size": 1,
      "price": "1011000000000000000000",
      "reserved": "",
      "salt": "0xaee6c65a6535e1d5ca3ab5990792cc2d1932860961fd2538b8f647c3f4a1481f",
      "assetIds": []
    },
    {
      "x": 320,
      "y": 290,
      "size": 1,
      "price": "1011000000000000000000",
      "reserved": "",
      "salt": "0x73e6a8a64b47589a8c180f073ac750258d6ba43c73ef513ff2d1fbf478c7b768",
      "assetIds": []
    },
    {
      "x": 320,
      "y": 291,
      "size": 1,
      "price": "1011000000000000000000",
      "reserved": "",
      "salt": "0x778dea819730574a2f01e1cea55d908347c6c4a43d8cc1bbe751a7fee7948369",
      "assetIds": []
    },
    {
      "x": 320,
      "y": 292,
      "size": 1,
      "price": "1011000000000000000000",
      "reserved": "",
      "salt": "0x1fdbe875efc15f3493226ab04baffef98e170f73a5d5578553b4cbe23a00714c",
      "assetIds": []
    },
    {
      "x": 320,
      "y": 293,
      "size": 1,
      "price": "1011000000000000000000",
      "reserved": "",
      "salt": "0xcd8b4c6474c2d8b3c7494472fadee69fab18340e7e1de5eebd84f4e4e23c7ea4",
      "assetIds": []
    },
    {
      "x": 321,
      "y": 282,
      "size": 1,
      "price": "1011000000000000000000",
      "reserved": "",
      "salt": "0xbde8efffcfdcb70156e2b6d31481d582637b6c2dae9d26b3d9f975995ad30429",
      "assetIds": []
    },
    {
      "x": 321,
      "y": 283,
      "size": 1,
      "price": "1011000000000000000000",
      "reserved": "",
      "salt": "0x8b7fb400dca3cde80fe79cafb3f3deb57b463df242471421fc726ef7dcca1e1b",
      "assetIds": []
    },
    {
      "x": 321,
      "y": 284,
      "size": 1,
      "price": "1011000000000000000000",
      "reserved": "",
      "salt": "0x131a5fa730e27ed7a0e3254c4802c413e3b379dca2aeebb6a5ff1b17da790293",
      "assetIds": []
    },
    {
      "x": 321,
      "y": 285,
      "size": 1,
      "price": "1011000000000000000000",
      "reserved": "",
      "salt": "0x56d79d4d8233bedba9a83be93388f9cb9bc46afbf1069906c8e562181d3f1f9f",
      "assetIds": []
    },
    {
      "x": 321,
      "y": 286,
      "size": 1,
      "price": "1011000000000000000000",
      "reserved": "",
      "salt": "0x5e2f4a39eeab8470468bb4e220f3dce469fb22999db99a1ff0c7c45f8619e8f7",
      "assetIds": []
    },
    {
      "x": 321,
      "y": 287,
      "size": 1,
      "price": "1011000000000000000000",
      "reserved": "",
      "salt": "0x7c797c994609a2e6150c810085795ddb4851268eb53fce006340117d2ec253ee",
      "assetIds": []
    },
    {
      "x": 321,
      "y": 291,
      "size": 1,
      "price": "1011000000000000000000",
      "reserved": "",
      "salt": "0x91ad6d2eb9f76f4b7ceebb843c14a433e53da0e018c46d72318ff3e5bf56c63b",
      "assetIds": []
    },
    {
      "x": 321,
      "y": 292,
      "size": 1,
      "price": "1011000000000000000000",
      "reserved": "0x7a9fe22691c811ea339d9b73150e6911a5343dca",
      "salt": "0xdb94d497529328648e6a7e8746fd93d9c0c2b182f3c6ec155723dae36f72bc39",
      "assetIds": []
    },
    {
      "x": 321,
      "y": 293,
      "size": 1,
      "price": "1011000000000000000000",
      "reserved": "",
      "salt": "0x38d987865f95b09dedb35c0ff106717579f244ebc370e722b1b29017b837fbac",
      "assetIds": []
    },
    {
      "x": 322,
      "y": 282,
      "size": 1,
      "price": "1011000000000000000000",
      "reserved": "",
      "salt": "0x4de6f403a2fd2da3f7c871219c00a3fe6a94777d52d8dd2d8d8c26c86fd1c5dc",
      "assetIds": []
    },
    {
      "x": 322,
      "y": 283,
      "size": 1,
      "price": "1011000000000000000000",
      "reserved": "",
      "salt": "0xd46f24f45ab70a41a049a36cd8a5672331198987766d2124120cd45027bb5813",
      "assetIds": []
    },
    {
      "x": 322,
      "y": 284,
      "size": 1,
      "price": "1011000000000000000000",
      "reserved": "0x7a9fe22691c811ea339d9b73150e6911a5343dca",
      "salt": "0xddb40a8301289b031d83d036532e66e49625f44c19457a80ef9f837c8aa0ab85",
      "assetIds": []
    },
    {
      "x": 322,
      "y": 285,
      "size": 1,
      "price": "1011000000000000000000",
      "reserved": "",
      "salt": "0x47ad74904cb4931e450e4fb0152900abd2ea60bda7a42226cd845878633c234a",
      "assetIds": []
    },
    {
      "x": 322,
      "y": 286,
      "size": 1,
      "price": "1011000000000000000000",
      "reserved": "",
      "salt": "0x41804421cfb650a2caa2ac1a3414a1f8f0bcb964e8465360b7fa4c0f6a7904cb",
      "assetIds": []
    },
    {
      "x": 322,
      "y": 287,
      "size": 1,
      "price": "1011000000000000000000",
      "reserved": "",
      "salt": "0xc13de7c6468e3a087fd4ea456185d55a403382afd7ae849ae3b23aba5168ce78",
      "assetIds": []
    },
    {
      "x": 322,
      "y": 291,
      "size": 1,
      "price": "1011000000000000000000",
      "reserved": "",
      "salt": "0x08be3271f20c14002ab134eb68709ebb707fb1c4bd3c226392f23c721e72f103",
      "assetIds": []
    },
    {
      "x": 322,
      "y": 292,
      "size": 1,
      "price": "1011000000000000000000",
      "reserved": "",
      "salt": "0x8225847a3d429e6e4c622abd6b796dceb733c99204f32787565912b6beaa016d",
      "assetIds": []
    },
    {
      "x": 322,
      "y": 293,
      "size": 1,
      "price": "1011000000000000000000",
      "reserved": "",
      "salt": "0xacf4b073fef659a05727509504b78c266a4a5113e9032fb807ae75ac57b35a5e",
      "assetIds": []
    },
    {
      "x": 323,
      "y": 282,
      "size": 1,
      "price": "1011000000000000000000",
      "reserved": "",
      "salt": "0xbe7193e954b4151a58745fdb8af49a8d4e4da613be7cf59e2c3fa9bb70f4f1b2",
      "assetIds": []
    },
    {
      "x": 323,
      "y": 283,
      "size": 1,
      "price": "1011000000000000000000",
      "reserved": "",
      "salt": "0x72597fa1490cdf7a7f7dd566f9ad7478b39decb8d16c5107607dfda34e67f7ac",
      "assetIds": []
    },
    {
      "x": 323,
      "y": 284,
      "size": 1,
      "price": "1011000000000000000000",
      "reserved": "",
      "salt": "0x37703b2d571188abb77fd392feccda33b7e950d741017f6598c971eb0a169454",
      "assetIds": []
    },
    {
      "x": 323,
      "y": 285,
      "size": 1,
      "price": "1011000000000000000000",
      "reserved": "",
      "salt": "0xc626395e17bf28f1e4d1fe0c6b7b5444330b229c82dc3fe62905e6f5bd1cd973",
      "assetIds": []
    },
    {
      "x": 323,
      "y": 286,
      "size": 1,
      "price": "1011000000000000000000",
      "reserved": "",
      "salt": "0xf0d97b0e79a0fead9fb4baa37b9647837197de258a91d37bc6b9bb868a79086c",
      "assetIds": []
    },
    {
      "x": 323,
      "y": 287,
      "size": 1,
      "price": "1011000000000000000000",
      "reserved": "",
      "salt": "0x79697262bfcb2bd59169f3dfcb49f4fa15ec9c8369ff24229f2e852b683cb23f",
      "assetIds": []
    },
    {
      "x": 323,
      "y": 291,
      "size": 1,
      "price": "1011000000000000000000",
      "reserved": "",
      "salt": "0x2558e19d462a276c615af8fca853e52b8252829a289179dae6f0f7c929fa6408",
      "assetIds": []
    },
    {
      "x": 323,
      "y": 292,
      "size": 1,
      "price": "1011000000000000000000",
      "reserved": "",
      "salt": "0x3d449b29d887637599614a833ec563a042308d2ab75a4c67019159b62a440207",
      "assetIds": []
    },
    {
      "x": 323,
      "y": 293,
      "size": 1,
      "price": "1011000000000000000000",
      "reserved": "",
      "salt": "0xd39fd6b8c2a8afcd6da90517d678b75f30b92a957e9547452ae337d4a9040513",
      "assetIds": []
    },
    {
      "x": 324,
      "y": 298,
      "size": 1,
      "price": "1011000000000000000000",
      "reserved": "0x7a9fe22691c811ea339d9b73150e6911a5343dca",
      "salt": "0x22086692097d8d2f5bea28f29da8026300183f0ff1a26d35f7855fe2da461865",
      "assetIds": []
    },
    {
      "x": 324,
      "y": 299,
      "size": 1,
      "price": "1011000000000000000000",
      "reserved": "0x7a9fe22691c811ea339d9b73150e6911a5343dca",
      "salt": "0xf4cc7222069f075077cc62f3f335410439c912446afd4b8a63f90cd3af5a0498",
      "assetIds": []
    },
    {
      "x": 324,
      "y": 300,
      "size": 1,
      "price": "4683000000000000000000",
      "reserved": "",
      "salt": "0x4618bb02729fb5717963dce24511f2f9279391041600742ada1b7b1d913290c2",
      "assetIds": [
        "41506478881403507969696680653240014914910929820314476107906210059990541021188"
      ]
    },
    {
      "x": 324,
      "y": 301,
      "size": 1,
      "price": "4683000000000000000000",
      "reserved": "",
      "salt": "0xd3762f0839b1de80e838398529b35aee70f4ef579afa0c396b66929c504ef469",
      "assetIds": [
        "41506478881403507969696680653240014914910929820314476107906210059990541021187"
      ]
    },
    {
      "x": 324,
      "y": 302,
      "size": 1,
      "price": "4683000000000000000000",
      "reserved": "",
      "salt": "0x29fe2271b1bc9bb7c10275ddf02ebb13bb7c6ee87ea6d4fa24d40f5f91d532af",
      "assetIds": [
        "41506478881403507969696680653240014914910929820314476107906210059990541021188"
      ]
    },
    {
      "x": 324,
      "y": 303,
      "size": 1,
      "price": "4683000000000000000000",
      "reserved": "",
      "salt": "0x3068a0dfe58db64ee98f75cce69ba8d9aa3bbce7f05913cdbe4a4593b463590b",
      "assetIds": [
        "41506478881403507969696680653240014914910929820314476107906210059990541021187"
      ]
    },
    {
      "x": 324,
      "y": 304,
      "size": 1,
      "price": "4683000000000000000000",
      "reserved": "",
      "salt": "0x1ea7770754b71f1c9fc1a5f33d722867a691ec0338d26eca890065bf5b9dba86",
      "assetIds": [
        "41506478881403507969696680653240014914910929820314476107906210059990541021186"
      ]
    },
    {
      "x": 324,
      "y": 305,
      "size": 1,
      "price": "4683000000000000000000",
      "reserved": "",
      "salt": "0xcd4fd326de2448bb4ad9e7b7e5d8c07f6c66fe38f7cc815e227f01f7867bb437",
      "assetIds": [
        "41506478881403507969696680653240014914910929820314476107906210059990541021186"
      ]
    },
    {
      "x": 324,
      "y": 306,
      "size": 1,
      "price": "4683000000000000000000",
      "reserved": "",
      "salt": "0x2bf2a237a56e44e73045b4fb5eb96ac6ddb5eeca43c897e219d6c98c661963cd",
      "assetIds": [
        "41506478881403507969696680653240014914910929820314476107906210059990541021186"
      ]
    },
    {
      "x": 324,
      "y": 307,
      "size": 1,
      "price": "4683000000000000000000",
      "reserved": "",
      "salt": "0xa66fde62442c5391a4f8f543c5646f476942c3d80eae0a8c40ad3432661c3367",
      "assetIds": [
        "41506478881403507969696680653240014914910929820314476107906210059990541021189"
      ]
    },
    {
      "x": 324,
      "y": 308,
      "size": 1,
      "price": "4683000000000000000000",
      "reserved": "",
      "salt": "0x62371c5c9dbd6c5088d0564bc869ded82347dd28c5c6e41193b0c4d201108863",
      "assetIds": [
        "41506478881403507969696680653240014914910929820314476107906210059990541021189"
      ]
    },
    {
      "x": 324,
      "y": 309,
      "size": 1,
      "price": "4683000000000000000000",
      "reserved": "",
      "salt": "0xdc2475aaaa6c6dbc9cbcf01a967d4f7700b8fae3d414d508ac37feedd4212e33",
      "assetIds": [
        "41506478881403507969696680653240014914910929820314476107906210059990541021186"
      ]
    },
    {
      "x": 324,
      "y": 310,
      "size": 1,
      "price": "4683000000000000000000",
      "reserved": "",
      "salt": "0xc1bfd1291a0e15a76c3321a635cdbc2251345e087ddf3c55a10c618b7bf506f8",
      "assetIds": [
        "41506478881403507969696680653240014914910929820314476107906210059990541021187"
      ]
    },
    {
      "x": 324,
      "y": 311,
      "size": 1,
      "price": "4683000000000000000000",
      "reserved": "",
      "salt": "0x0ee1edeb80fb3e70f49d25c0e82863425388f7e2c3fb44afe9dea465bb136269",
      "assetIds": [
        "41506478881403507969696680653240014914910929820314476107906210059990541021189"
      ]
    },
    {
      "x": 325,
      "y": 298,
      "size": 1,
      "price": "1011000000000000000000",
      "reserved": "0x7a9fe22691c811ea339d9b73150e6911a5343dca",
      "salt": "0x8c7875153af86a77b959c34fb35ce516baad9f9f7ba89f940b9651a0f31df217",
      "assetIds": []
    },
    {
      "x": 325,
      "y": 299,
      "size": 1,
      "price": "1011000000000000000000",
      "reserved": "0x7a9fe22691c811ea339d9b73150e6911a5343dca",
      "salt": "0x215c7242fda9af958a7b7300606120fc9fef09317d8f19afb765acf8eae6b0c5",
      "assetIds": []
    },
    {
      "x": 325,
      "y": 300,
      "size": 1,
      "price": "1011000000000000000000",
      "reserved": "0x7a9fe22691c811ea339d9b73150e6911a5343dca",
      "salt": "0xe98e0c4a9c69939cd8f2c25f283b4659943cea1b23e5da5c983864e127e87e7c",
      "assetIds": []
    },
    {
      "x": 325,
      "y": 301,
      "size": 1,
      "price": "4683000000000000000000",
      "reserved": "",
      "salt": "0x90767f97b2b7fe9b250f84ce00532d14352d5c49d1e27856f5add3eec460406a",
      "assetIds": [
        "41506478881403507969696680653240014914910929820314476107906210059990541021188"
      ]
    },
    {
      "x": 325,
      "y": 302,
      "size": 1,
      "price": "1011000000000000000000",
      "reserved": "0x7a9fe22691c811ea339d9b73150e6911a5343dca",
      "salt": "0x46ba11cb0e1c1d7946c452c7e7e8e262c2b6a2106294defcb168f697d5bd32bb",
      "assetIds": []
    },
    {
      "x": 325,
      "y": 303,
      "size": 1,
      "price": "1011000000000000000000",
      "reserved": "0x7a9fe22691c811ea339d9b73150e6911a5343dca",
      "salt": "0x4c15f3cdd2a525501c3b0213869b9f1d65b2d917ae41298cde782c86073d140b",
      "assetIds": []
    },
    {
      "x": 325,
      "y": 304,
      "size": 1,
      "price": "4683000000000000000000",
      "reserved": "",
      "salt": "0x8ab593f51fe7c932fe71e5f3f4fef5e7eaafd42f603913ba952f2d9d5176c05c",
      "assetIds": [
        "41506478881403507969696680653240014914910929820314476107906210059990541021189"
      ]
    },
    {
      "x": 325,
      "y": 305,
      "size": 1,
      "price": "4683000000000000000000",
      "reserved": "",
      "salt": "0x9b94f371016e7efa2ea8119e557e5bd47739598329442a33e62fceabedbeaa37",
      "assetIds": [
        "41506478881403507969696680653240014914910929820314476107906210059990541021188"
      ]
    },
    {
      "x": 325,
      "y": 306,
      "size": 1,
      "price": "1011000000000000000000",
      "reserved": "0x7a9fe22691c811ea339d9b73150e6911a5343dca",
      "salt": "0x211f74a4511f9084f47e6fa2bcea74ef114b9e613a7f095a2906e5d81715350e",
      "assetIds": []
    },
    {
      "x": 325,
      "y": 307,
      "size": 1,
      "price": "4683000000000000000000",
      "reserved": "",
      "salt": "0x3d50300b765adbbad6ac449fe1246a8f13c2627edc2017ceda585d52e1c4273a",
      "assetIds": [
        "41506478881403507969696680653240014914910929820314476107906210059990541021188"
      ]
    },
    {
      "x": 325,
      "y": 308,
      "size": 1,
      "price": "1011000000000000000000",
      "reserved": "0x7a9fe22691c811ea339d9b73150e6911a5343dca",
      "salt": "0x80d2facb66ef7e40ae8e8df4f041027144dcb48f3945e50fbaa611c8f27588cd",
      "assetIds": []
    },
    {
      "x": 325,
      "y": 309,
      "size": 1,
      "price": "1011000000000000000000",
      "reserved": "0x7a9fe22691c811ea339d9b73150e6911a5343dca",
      "salt": "0xbf8e4d0f909ef7b81619070773af8a4eb6c936ff37fc4df6250ea7a93b8fa6c3",
      "assetIds": []
    },
    {
      "x": 325,
      "y": 310,
      "size": 1,
      "price": "4683000000000000000000",
      "reserved": "",
      "salt": "0x241daa005b196ca10b5f246d45e4e15381a0720fb164f3914fec19f5bb32c7fd",
      "assetIds": [
        "41506478881403507969696680653240014914910929820314476107906210059990541021189"
      ]
    },
    {
      "x": 325,
      "y": 311,
      "size": 1,
      "price": "1011000000000000000000",
      "reserved": "0x7a9fe22691c811ea339d9b73150e6911a5343dca",
      "salt": "0x7ac73edbc353bd03b06ca68418f1aa7d4d8bc92dc13e7931be5184c8800a57d7",
      "assetIds": []
    },
    {
      "x": 326,
      "y": 300,
      "size": 1,
      "price": "1011000000000000000000",
      "reserved": "",
      "salt": "0x81b3fed88a2b0c9606f81ddabc615683c55f046f1c7bf3c3f122312ba20ca280",
      "assetIds": []
    },
    {
      "x": 326,
      "y": 301,
      "size": 1,
      "price": "1011000000000000000000",
      "reserved": "",
      "salt": "0x150f08ddb845ee15766b8ee5597c5b68e016ecdf461f70adaa53a3382df8b125",
      "assetIds": []
    },
    {
      "x": 326,
      "y": 302,
      "size": 1,
      "price": "1011000000000000000000",
      "reserved": "",
      "salt": "0x4348044a88e6684b62a43f2c6261614353ab29d56263d5e29ecbf4a8a9503f8d",
      "assetIds": []
    },
    {
      "x": 326,
      "y": 303,
      "size": 1,
      "price": "1011000000000000000000",
      "reserved": "",
      "salt": "0xecc4985d10093ef6d0e808183f9ad7798ebcaa5404a076ea5ab1f3b1d8c12892",
      "assetIds": []
    },
    {
      "x": 326,
      "y": 304,
      "size": 1,
      "price": "1011000000000000000000",
      "reserved": "",
      "salt": "0x1c8b8e8deed7db95e17cf52f9ffce09eb36793b194986a10c85f11246eb32c6b",
      "assetIds": []
    },
    {
      "x": 326,
      "y": 305,
      "size": 1,
      "price": "1011000000000000000000",
      "reserved": "",
      "salt": "0x8d185a50aac05fa5ecaf4012c272d43552b832f0f2c0a7b07e15032f39ce56c6",
      "assetIds": []
    },
    {
      "x": 326,
      "y": 306,
      "size": 1,
      "price": "1011000000000000000000",
      "reserved": "",
      "salt": "0xd6957010eee73a1130d361d1880d84379984328b800b9d59cb8cffca16f79bb9",
      "assetIds": []
    },
    {
      "x": 326,
      "y": 307,
      "size": 1,
      "price": "1011000000000000000000",
      "reserved": "",
      "salt": "0x014334785a9431a57615d40ccd32e7e5a38a92dc796b11c737885a1d11efb194",
      "assetIds": []
    },
    {
      "x": 326,
      "y": 308,
      "size": 1,
      "price": "1011000000000000000000",
      "reserved": "",
      "salt": "0xa44965c1dfd6a261148c7ca9ef7677c3921379441669eadb16938d4295ae82fe",
      "assetIds": []
    },
    {
      "x": 326,
      "y": 309,
      "size": 1,
      "price": "1011000000000000000000",
      "reserved": "",
      "salt": "0xba319e9f9f1fa66d17bb65f32ba5c2af689117d1fb7cd997492db0129e2d6a17",
      "assetIds": []
    },
    {
      "x": 326,
      "y": 310,
      "size": 1,
      "price": "1011000000000000000000",
      "reserved": "",
      "salt": "0x24c42a832cd2406353ccabb98bcee78cad80e4b26aba3660a2eb2744484791db",
      "assetIds": []
    },
    {
      "x": 326,
      "y": 311,
      "size": 1,
      "price": "1011000000000000000000",
      "reserved": "",
      "salt": "0x4870b99088a7fe5a4e12b04d61d0f1a56e5279b7e343dfcfdf3f347f8b01baa8",
      "assetIds": []
    },
    {
      "x": 327,
      "y": 300,
      "size": 1,
      "price": "1011000000000000000000",
      "reserved": "",
      "salt": "0xafc107bbe2ffbadf5effa79b25c3ce3e2b0ca5ef45dba28bc072f60006d72d32",
      "assetIds": []
    },
    {
      "x": 327,
      "y": 301,
      "size": 1,
      "price": "1011000000000000000000",
      "reserved": "",
      "salt": "0xa01598943de4f9882fc05b28701c61e2771ca55a8df7f13f9caa85275f95d070",
      "assetIds": []
    },
    {
      "x": 327,
      "y": 302,
      "size": 1,
      "price": "1011000000000000000000",
      "reserved": "",
      "salt": "0x7f72907a8d31b3380938d9090a44d7a729f249d085a10314fc33e9408c11b172",
      "assetIds": []
    },
    {
      "x": 327,
      "y": 303,
      "size": 1,
      "price": "1011000000000000000000",
      "reserved": "",
      "salt": "0x2ca636b647c818d78d7ffc1204511b32e127911aad422e5fb16f2ca67f8d00f9",
      "assetIds": []
    },
    {
      "x": 327,
      "y": 304,
      "size": 1,
      "price": "1011000000000000000000",
      "reserved": "0x7a9fe22691c811ea339d9b73150e6911a5343dca",
      "salt": "0x29f915176145f2c49c8f18d9304cb9bfba78013b6595f7cde5b5bc5c10c5492b",
      "assetIds": []
    },
    {
      "x": 327,
      "y": 305,
      "size": 1,
      "price": "1011000000000000000000",
      "reserved": "",
      "salt": "0x58cf47a5b7dae7d6cf39c5036e3769dc31314d85f479c1ced4a233171c766607",
      "assetIds": []
    },
    {
      "x": 327,
      "y": 306,
      "size": 1,
      "price": "1011000000000000000000",
      "reserved": "",
      "salt": "0xf063fc4a0e3bcd38f52a3ae8ad8440233a210ee82ac4223e49c0326683593855",
      "assetIds": []
    },
    {
      "x": 327,
      "y": 307,
      "size": 1,
      "price": "1011000000000000000000",
      "reserved": "",
      "salt": "0x5b07c4e1ff5b5c494ccd7b802106a3436154f2fc8593e31452e12d2c8acb5b35",
      "assetIds": []
    },
    {
      "x": 327,
      "y": 308,
      "size": 1,
      "price": "1011000000000000000000",
      "reserved": "",
      "salt": "0xdd5923e2bfd2fd50f6398ead5dadaf5ebee879995c3cdeb9de79fbfcf7f0f6bb",
      "assetIds": []
    },
    {
      "x": 327,
      "y": 309,
      "size": 1,
      "price": "1011000000000000000000",
      "reserved": "0x7a9fe22691c811ea339d9b73150e6911a5343dca",
      "salt": "0x8f4b0699f27233843f4bfe092f992ca31b81c4d70cf21746df235324e9917774",
      "assetIds": []
    },
    {
      "x": 327,
      "y": 310,
      "size": 1,
      "price": "1011000000000000000000",
      "reserved": "",
      "salt": "0xfa0564f361f990d05323e7f53bcf8d99ee46bc8369720be79f4b62e33d74a39e",
      "assetIds": []
    },
    {
      "x": 327,
      "y": 311,
      "size": 1,
      "price": "1011000000000000000000",
      "reserved": "",
      "salt": "0xa3cd5130243a28977a06c1f95ee2e855a07747eec98411b34d5589c7ea14427a",
      "assetIds": []
    },
    {
      "x": 328,
      "y": 300,
      "size": 1,
      "price": "1011000000000000000000",
      "reserved": "",
      "salt": "0x2e6b793ff7c0abd50df64705fb9c770bd7257746deed646a2d10e1be18029ded",
      "assetIds": []
    },
    {
      "x": 328,
      "y": 301,
      "size": 1,
      "price": "1011000000000000000000",
      "reserved": "0x7a9fe22691c811ea339d9b73150e6911a5343dca",
      "salt": "0x3d67f7cd8afaab51e23cf4c2e4c52aa9a75ed57de820f30a52a5d8f1b9b22761",
      "assetIds": []
    },
    {
      "x": 328,
      "y": 302,
      "size": 1,
      "price": "1011000000000000000000",
      "reserved": "",
      "salt": "0x3a4f57b19530f907c2ceb55c9752e2e2963ea7f242b117eb7e18a0708e3a78bb",
      "assetIds": []
    },
    {
      "x": 328,
      "y": 303,
      "size": 1,
      "price": "1011000000000000000000",
      "reserved": "",
      "salt": "0x1e843edc64b2087cfa1de5207529d7eb1884a0eed5ea4ef7ddbab4e0aa075142",
      "assetIds": []
    },
    {
      "x": 328,
      "y": 304,
      "size": 1,
      "price": "1011000000000000000000",
      "reserved": "",
      "salt": "0xe468f645096622de258b14fc54f2d61b5328e3a83356f694259f13e5abcda6d6",
      "assetIds": []
    },
    {
      "x": 328,
      "y": 305,
      "size": 1,
      "price": "1011000000000000000000",
      "reserved": "",
      "salt": "0xffa5f99d1c4936c8ae2e94df92925eaeec0efaea99a4e13fcf60f5a1e3fc1c30",
      "assetIds": []
    },
    {
      "x": 328,
      "y": 306,
      "size": 1,
      "price": "1011000000000000000000",
      "reserved": "",
      "salt": "0x2edc91d6caa45279eee029cd51d8564fef792ed1b7013bdf5d2e37fc19063a94",
      "assetIds": []
    },
    {
      "x": 328,
      "y": 307,
      "size": 1,
      "price": "1011000000000000000000",
      "reserved": "0x7a9fe22691c811ea339d9b73150e6911a5343dca",
      "salt": "0x959b61a51c9c0bdb53392f80177255035627843080cec501ab9520712970bd3a",
      "assetIds": []
    },
    {
      "x": 328,
      "y": 308,
      "size": 1,
      "price": "1011000000000000000000",
      "reserved": "",
      "salt": "0xa50e29199383368f5bd6beb1ec2a2418c2ff018e17942a3e61bcdde7d959991c",
      "assetIds": []
    },
    {
      "x": 328,
      "y": 309,
      "size": 1,
      "price": "1011000000000000000000",
      "reserved": "",
      "salt": "0x7446552934a2537b814fbe9af070e64af71afd35445edcc1494f390a345773cc",
      "assetIds": []
    },
    {
      "x": 328,
      "y": 310,
      "size": 1,
      "price": "1011000000000000000000",
      "reserved": "",
      "salt": "0xaeb7eae21366851182e557f8546f2b6be700b569334c929c3ece43c8acae972f",
      "assetIds": []
    },
    {
      "x": 328,
      "y": 311,
      "size": 1,
      "price": "1011000000000000000000",
      "reserved": "",
      "salt": "0x3b18665ac131435511347976c2e9ac2282761a942e92c10b1b57466769ef85c5",
      "assetIds": []
    },
    {
      "x": 329,
      "y": 300,
      "size": 1,
      "price": "1011000000000000000000",
      "reserved": "",
      "salt": "0x4b045588f3f2a5fea6e2cfe95acf71ab3bbe330deae95ef5eda9e6df1b580b77",
      "assetIds": []
    },
    {
      "x": 329,
      "y": 301,
      "size": 1,
      "price": "1011000000000000000000",
      "reserved": "",
      "salt": "0x27943c97ba2fd0868cebf8c91d2c1bc1fd9460ea0fd30441442d1d069ffdc7f7",
      "assetIds": []
    },
    {
      "x": 329,
      "y": 302,
      "size": 1,
      "price": "1011000000000000000000",
      "reserved": "",
      "salt": "0xe42b7dabd6a20754e947eb5e63534eb0b93c4cd5bb61393107fd2d95178b3fcc",
      "assetIds": []
    },
    {
      "x": 329,
      "y": 303,
      "size": 1,
      "price": "1011000000000000000000",
      "reserved": "0x7a9fe22691c811ea339d9b73150e6911a5343dca",
      "salt": "0x68068127ca9a57e552b33db4269b27ff76eb4dd7ef33c0d978c2123c7d2e4d8f",
      "assetIds": []
    },
    {
      "x": 329,
      "y": 304,
      "size": 1,
      "price": "1011000000000000000000",
      "reserved": "",
      "salt": "0xbd4f6bd1bacc73a8520300d0010cba343af972a34cd538449651e2e9513480e9",
      "assetIds": []
    },
    {
      "x": 329,
      "y": 305,
      "size": 1,
      "price": "1011000000000000000000",
      "reserved": "",
      "salt": "0x6793fcad812e623007342a90e5150c165b7b9e694dca4e498acbdbe6a8ac4351",
      "assetIds": []
    },
    {
      "x": 329,
      "y": 306,
      "size": 1,
      "price": "1011000000000000000000",
      "reserved": "",
      "salt": "0x0f5335658af86ec11b8751ce1796fbce370683aeb3c5212da92d0896989a74c8",
      "assetIds": []
    },
    {
      "x": 329,
      "y": 307,
      "size": 1,
      "price": "1011000000000000000000",
      "reserved": "",
      "salt": "0x4cde6c52ad5ef6e797a077a2b7e698a2dbf71114a1b75285f23b351c05484101",
      "assetIds": []
    },
    {
      "x": 329,
      "y": 308,
      "size": 1,
      "price": "1011000000000000000000",
      "reserved": "",
      "salt": "0xd0df75c9527c2355a158fe6b9acf5e6b41eb04cf1815c53c1cef29d3821c3278",
      "assetIds": []
    },
    {
      "x": 329,
      "y": 309,
      "size": 1,
      "price": "1011000000000000000000",
      "reserved": "",
      "salt": "0x0740029dc02652ea415d08ce2059ceafa3297c7b9139edf631197348def3faae",
      "assetIds": []
    },
    {
      "x": 329,
      "y": 310,
      "size": 1,
      "price": "1011000000000000000000",
      "reserved": "",
      "salt": "0x67ba66a155d35949ee9e2884b9512087333e98c4727755d5c576a6bdf89e65d5",
      "assetIds": []
    },
    {
      "x": 329,
      "y": 311,
      "size": 1,
      "price": "1011000000000000000000",
      "reserved": "",
      "salt": "0xadffebb970cce23f0a5ddda22729ed1402fc21216fea393cf2b8e163bf786b2e",
      "assetIds": []
    },
    {
      "x": 330,
      "y": 300,
      "size": 1,
      "price": "1011000000000000000000",
      "reserved": "",
      "salt": "0x1727c1d79180f81ab819e1ccbf8d7bc735f6e4b72cbeb3dae1e5bb3a78f7fdf2",
      "assetIds": []
    },
    {
      "x": 330,
      "y": 301,
      "size": 1,
      "price": "1011000000000000000000",
      "reserved": "",
      "salt": "0x548efd58ff9e8187471ee92f10c579ffb1a45a1ffe432d0bc1f60a45f0aea356",
      "assetIds": []
    },
    {
      "x": 330,
      "y": 302,
      "size": 1,
      "price": "1011000000000000000000",
      "reserved": "",
      "salt": "0xce5d5c73165de0b04ad8150264dab30db21b74d770db9f0e4fba3ce54018ad6e",
      "assetIds": []
    },
    {
      "x": 330,
      "y": 303,
      "size": 1,
      "price": "1011000000000000000000",
      "reserved": "",
      "salt": "0xe817706373bf128cd1cedd48dc13b2c40be1779f45aca7399d0a810b2f0ff9d9",
      "assetIds": []
    },
    {
      "x": 330,
      "y": 304,
      "size": 1,
      "price": "1011000000000000000000",
      "reserved": "",
      "salt": "0xbd6d88632f859c022266c3b4dcfd199786a1adbf5fdd229d122a6ad3ef11e5d6",
      "assetIds": []
    },
    {
      "x": 330,
      "y": 305,
      "size": 1,
      "price": "1011000000000000000000",
      "reserved": "",
      "salt": "0x8409de0d0e625b00bdaec06c73bf882081fab5c0b0d904b9b093cc5219c96933",
      "assetIds": []
    },
    {
      "x": 331,
      "y": 300,
      "size": 1,
      "price": "1011000000000000000000",
      "reserved": "",
      "salt": "0xf9339cc2105355683f0d5820c123a78fc54fc47793a741369fa44e834c6f6657",
      "assetIds": []
    },
    {
      "x": 331,
      "y": 301,
      "size": 1,
      "price": "1011000000000000000000",
      "reserved": "",
      "salt": "0x82657540b54f764c16b367e6181d61c9b9769ffc0531931a91cdb4b468c0e250",
      "assetIds": []
    },
    {
      "x": 331,
      "y": 302,
      "size": 1,
      "price": "1011000000000000000000",
      "reserved": "",
      "salt": "0x1039de6c8e22cf6c486631338364a6b9720484542e91affd6ea85ddf8de37ebf",
      "assetIds": []
    },
    {
      "x": 331,
      "y": 303,
      "size": 1,
      "price": "1011000000000000000000",
      "reserved": "",
      "salt": "0xeae0aff573f6b73888b3d29edf04129eb4d7f36a30ee0d395ceaec14fa3ba287",
      "assetIds": []
    },
    {
      "x": 331,
      "y": 304,
      "size": 1,
      "price": "1011000000000000000000",
      "reserved": "",
      "salt": "0xe90d4c3dc20ed1ea84f718ad2f72695b5a766fdf2eb44fed653b3ddec25126d1",
      "assetIds": []
    },
    {
      "x": 331,
      "y": 305,
      "size": 1,
      "price": "1011000000000000000000",
      "reserved": "",
      "salt": "0x9275c317da58840f2289c319435d45c0160a9761a79e9b097928e9d30404b615",
      "assetIds": []
    },
    {
      "x": 332,
      "y": 300,
      "size": 1,
      "price": "1011000000000000000000",
      "reserved": "",
      "salt": "0x372a689557bed81c3bc4e611a868c5930f18254dd8f4a31a973d8caa4e865564",
      "assetIds": []
    },
    {
      "x": 332,
      "y": 301,
      "size": 1,
      "price": "1011000000000000000000",
      "reserved": "0x7a9fe22691c811ea339d9b73150e6911a5343dca",
      "salt": "0xa99c8268a6317d71dbd44a32f0bc3fa9846b1a61451a86ffd3276cea86066d04",
      "assetIds": []
    },
    {
      "x": 332,
      "y": 302,
      "size": 1,
      "price": "1011000000000000000000",
      "reserved": "",
      "salt": "0x6ded9e3b8a296f636be80fd33a73d31954852f6978d968652a3c6742430034fa",
      "assetIds": []
    },
    {
      "x": 332,
      "y": 303,
      "size": 1,
      "price": "1011000000000000000000",
      "reserved": "",
      "salt": "0xeb99992cb951d89d9cd472a25d1b0bf8260014335203329876e5a4429da38877",
      "assetIds": []
    },
    {
      "x": 332,
      "y": 304,
      "size": 1,
      "price": "1011000000000000000000",
      "reserved": "",
      "salt": "0x10d5baa56b1d8f913f57e9199c863dfeced5fbaa2825fecf4fa28bd41fd6df89",
      "assetIds": []
    },
    {
      "x": 332,
      "y": 305,
      "size": 1,
      "price": "1011000000000000000000",
      "reserved": "",
      "salt": "0xadb091dbf33f5d45530dd5796a037b86106c58da2b3ef291fd2dbcb1315d5ed9",
      "assetIds": []
    },
    {
      "x": 333,
      "y": 300,
      "size": 1,
      "price": "1011000000000000000000",
      "reserved": "",
      "salt": "0x9c498e315ae00903c45513f3eb2cf5947d5cb89e6e2642fc79a83eac589e28d7",
      "assetIds": []
    },
    {
      "x": 333,
      "y": 301,
      "size": 1,
      "price": "1011000000000000000000",
      "reserved": "",
      "salt": "0xe19786114f3436553afc93c80543aeeb39f7d99071743756be0c4cd12ce835c1",
      "assetIds": []
    },
    {
      "x": 333,
      "y": 302,
      "size": 1,
      "price": "1011000000000000000000",
      "reserved": "",
      "salt": "0x232877802153ac691570c8e387e1d93f46fceea89b24e08a0a708a1bec0b103c",
      "assetIds": []
    },
    {
      "x": 333,
      "y": 303,
      "size": 1,
      "price": "1011000000000000000000",
      "reserved": "",
      "salt": "0x1d31a26a0c618cb0785112307df706e32c8d0918b597ff6b9b42e595760e5664",
      "assetIds": []
    },
    {
      "x": 333,
      "y": 304,
      "size": 1,
      "price": "1011000000000000000000",
      "reserved": "0x7a9fe22691c811ea339d9b73150e6911a5343dca",
      "salt": "0x24248e8979c67270016de33d4d94b0a5125f99cb2a1e2c1149075cd70156abe5",
      "assetIds": []
    },
    {
      "x": 333,
      "y": 305,
      "size": 1,
      "price": "1011000000000000000000",
      "reserved": "",
      "salt": "0xbecb676c4bbadd7d29d209babeeb65bf0a570d2eb7baf7bc59aaff3499ea59b3",
      "assetIds": []
    },
    {
      "x": 334,
      "y": 300,
      "size": 1,
      "price": "1011000000000000000000",
      "reserved": "0x7a9fe22691c811ea339d9b73150e6911a5343dca",
      "salt": "0x107c27516818b3bc36a4e34c16bec43a355d75f6bc830720e7dc009361997eee",
      "assetIds": []
    },
    {
      "x": 334,
      "y": 301,
      "size": 1,
      "price": "1011000000000000000000",
      "reserved": "",
      "salt": "0xaeb2296210aee34f50598463f5230fcb12d5e4060885a06bb68f8d5a60591f87",
      "assetIds": []
    },
    {
      "x": 334,
      "y": 302,
      "size": 1,
      "price": "1011000000000000000000",
      "reserved": "",
      "salt": "0x6502453c47840ba76c57379b999c972bdda94c2369aa32a8057a63541afea31c",
      "assetIds": []
    },
    {
      "x": 334,
      "y": 303,
      "size": 1,
      "price": "1011000000000000000000",
      "reserved": "",
      "salt": "0xa826845984faa802338b1dadd6802b9192332300dc112a11938f46f6307bc81f",
      "assetIds": []
    },
    {
      "x": 334,
      "y": 304,
      "size": 1,
      "price": "1011000000000000000000",
      "reserved": "",
      "salt": "0x583f284d2b0d30564a726f7b0c44d859facb9e0bfb2a3059cc34d697e815f5b7",
      "assetIds": []
    },
    {
      "x": 334,
      "y": 305,
      "size": 1,
      "price": "1011000000000000000000",
      "reserved": "",
      "salt": "0x0e73b16ed50e6688dc2e02b2e2c024027f5726af315b4dd230b562ae95dcdc5f",
      "assetIds": []
    },
    {
      "x": 335,
      "y": 300,
      "size": 1,
      "price": "1011000000000000000000",
      "reserved": "",
      "salt": "0x1c6f97a42589549aa9a0ddac99343bff252829be609176120fd66522fe84f6ef",
      "assetIds": []
    },
    {
      "x": 335,
      "y": 301,
      "size": 1,
      "price": "1011000000000000000000",
      "reserved": "",
      "salt": "0x46a33c853ea3415e6632c1c611f3561a6d4cac6f9cba4d39bd8b5b7c8e1899a9",
      "assetIds": []
    },
    {
      "x": 335,
      "y": 302,
      "size": 1,
      "price": "1011000000000000000000",
      "reserved": "",
      "salt": "0xc7eb8c5668cbdac6d508246b9f3270405c229ef7524af766bab8e3aea6b969c4",
      "assetIds": []
    },
    {
      "x": 335,
      "y": 303,
      "size": 1,
      "price": "1011000000000000000000",
      "reserved": "",
      "salt": "0xde34caf66f017a18d58f3cc63e028834cd9fa0475c538d3cf2dc1dad819fd5bf",
      "assetIds": []
    },
    {
      "x": 335,
      "y": 304,
      "size": 1,
      "price": "1011000000000000000000",
      "reserved": "",
      "salt": "0xf2c7eb5ac25cba8e3c90abcac22dd42438b74d62e083e7f69ec45e3d083e2d68",
      "assetIds": []
    },
    {
      "x": 335,
      "y": 305,
      "size": 1,
      "price": "1011000000000000000000",
      "reserved": "",
      "salt": "0x9e724d88e66a5375a7e48ceaa2672103a73e8da3e851ea94ee79b296dc3b9278",
      "assetIds": []
    },
    {
      "x": 336,
      "y": 306,
      "size": 1,
      "price": "1011000000000000000000",
      "reserved": "",
      "salt": "0xf5dbc054c2db1a168cb4cf10475050d11742ec119eb552a880b3e5ea3f48f4e4",
      "assetIds": []
    },
    {
      "x": 336,
      "y": 307,
      "size": 1,
      "price": "1011000000000000000000",
      "reserved": "",
      "salt": "0x02a1d6642d633f7adc552f99864225293c72261568c7163cc2d26aa5e762af4b",
      "assetIds": []
    },
    {
      "x": 336,
      "y": 308,
      "size": 1,
      "price": "1011000000000000000000",
      "reserved": "",
      "salt": "0x5c5d23d559de4955c40e918a178d92c4c059a83c0da21edfa8d3109a65d9f888",
      "assetIds": []
    },
    {
      "x": 336,
      "y": 309,
      "size": 1,
      "price": "1011000000000000000000",
      "reserved": "",
      "salt": "0x0a95fc524994784ec168d354cd189efac0fa9963e2abf1ca8eb97788f72d4bc4",
      "assetIds": []
    },
    {
      "x": 336,
      "y": 310,
      "size": 1,
      "price": "1011000000000000000000",
      "reserved": "",
      "salt": "0xe8913b2b94db65fc9536b0351bc115c8fec350f1fec30e71318cc4b3e20da441",
      "assetIds": []
    },
    {
      "x": 336,
      "y": 311,
      "size": 1,
      "price": "1011000000000000000000",
      "reserved": "",
      "salt": "0x0e9016e3e32d283d262d3be9f520bceb1359f874e99ddf16b55e7a05a1d4a37f",
      "assetIds": []
    },
    {
      "x": 337,
      "y": 306,
      "size": 1,
      "price": "1011000000000000000000",
      "reserved": "",
      "salt": "0x1b583ec3467bc10b7605eea027e3cc8deec7595760dae8cd5d85ba641db515c0",
      "assetIds": []
    },
    {
      "x": 337,
      "y": 307,
      "size": 1,
      "price": "1011000000000000000000",
      "reserved": "",
      "salt": "0xcb09ea1756334854d30791c094e7d842e45aeff3323b9460fcce4f99f3e681e2",
      "assetIds": []
    },
    {
      "x": 337,
      "y": 308,
      "size": 1,
      "price": "1011000000000000000000",
      "reserved": "",
      "salt": "0x8593e78c41b19f62fbb160c4ebeec01072f05a7ae39466130d7e6adcee063e5d",
      "assetIds": []
    },
    {
      "x": 337,
      "y": 309,
      "size": 1,
      "price": "1011000000000000000000",
      "reserved": "",
      "salt": "0xe323efd7b66cb514de8c2df932bd8171cca9f5ff0b9a383c3ee0930d0dceaf3c",
      "assetIds": []
    },
    {
      "x": 337,
      "y": 310,
      "size": 1,
      "price": "1011000000000000000000",
      "reserved": "",
      "salt": "0x57d135ba8e3b219612cfa899405afc238e084061f78780b1e4e28986bed31e54",
      "assetIds": []
    },
    {
      "x": 337,
      "y": 311,
      "size": 1,
      "price": "1011000000000000000000",
      "reserved": "",
      "salt": "0x1e979900b9bee8127011ca0dc2457374e78ab0e93fb8d3057026a06c5ed21c4a",
      "assetIds": []
    },
    {
      "x": 338,
      "y": 306,
      "size": 1,
      "price": "1011000000000000000000",
      "reserved": "",
      "salt": "0xa39e9a3b497daeeec25faf2473d28525bae732f0510ceccaf163072c12081b75",
      "assetIds": []
    },
    {
      "x": 338,
      "y": 307,
      "size": 1,
      "price": "1011000000000000000000",
      "reserved": "",
      "salt": "0xc92168fe1dc47dc3e5c385a084ab4cb5ebca080f21a4bcfe8afddf9984a04829",
      "assetIds": []
    },
    {
      "x": 338,
      "y": 308,
      "size": 1,
      "price": "1011000000000000000000",
      "reserved": "0x7a9fe22691c811ea339d9b73150e6911a5343dca",
      "salt": "0x4e59efab2f25c8e253782f8bd7c57c5be471cc748c9aadce51cc1b847798f1c8",
      "assetIds": []
    },
    {
      "x": 338,
      "y": 309,
      "size": 1,
      "price": "1011000000000000000000",
      "reserved": "",
      "salt": "0xd3bb6bce9a2fdd72186accacab26476651e2ce73c0a027dff00ad0d942303ced",
      "assetIds": []
    },
    {
      "x": 338,
      "y": 310,
      "size": 1,
      "price": "1011000000000000000000",
      "reserved": "",
      "salt": "0x8af3ed98ff1c096be47c83bbefbe3586c7d25aec098dc934253373d6bff0f3be",
      "assetIds": []
    },
    {
      "x": 338,
      "y": 311,
      "size": 1,
      "price": "1011000000000000000000",
      "reserved": "",
      "salt": "0x5dceafc5316122e0912255bc82b8831cfb78efcce006cff5a121ed5227816aad",
      "assetIds": []
    },
    {
      "x": 339,
      "y": 306,
      "size": 1,
      "price": "1011000000000000000000",
      "reserved": "",
      "salt": "0xddceda663921720312ea91e12ae7eb87a204d9581d6d10fe97af1d1f173d2aed",
      "assetIds": []
    },
    {
      "x": 339,
      "y": 307,
      "size": 1,
      "price": "1011000000000000000000",
      "reserved": "",
      "salt": "0xddfb9a5d9a084c9cb9ee7be41dc0be67f02db08d27baef73a42dc777d8f78cd1",
      "assetIds": []
    },
    {
      "x": 339,
      "y": 308,
      "size": 1,
      "price": "1011000000000000000000",
      "reserved": "",
      "salt": "0xfbf25d98b18846bc5c0ea150131ae76baaf0372105cccbde39efb4816ce1d745",
      "assetIds": []
    },
    {
      "x": 340,
      "y": 306,
      "size": 1,
      "price": "1011000000000000000000",
      "reserved": "",
      "salt": "0x970490807b0ac1f90264b56d9138b40dce0913f3703118243faf0dcfd0f6fd54",
      "assetIds": []
    },
    {
      "x": 340,
      "y": 307,
      "size": 1,
      "price": "1011000000000000000000",
      "reserved": "0x7a9fe22691c811ea339d9b73150e6911a5343dca",
      "salt": "0xbd68e888f695cbbf6120aa8dc155ac3ec0d7f28a8316f4d22c5348c4615aa4f1",
      "assetIds": []
    },
    {
      "x": 340,
      "y": 308,
      "size": 1,
      "price": "1011000000000000000000",
      "reserved": "",
      "salt": "0x0d50708a8bb27dca6cd20fb20b50b1942d6ef5bf4de4ec913bac5063c5e570f9",
      "assetIds": []
    },
    {
      "x": 341,
      "y": 306,
      "size": 1,
      "price": "1011000000000000000000",
      "reserved": "",
      "salt": "0x8c8f3577caa09687c3726b2569e0fb22df7b90595ffeccfc4f7aa543a765a73e",
      "assetIds": []
    },
    {
      "x": 341,
      "y": 307,
      "size": 1,
      "price": "1011000000000000000000",
      "reserved": "",
      "salt": "0x818ea2c0f647acb78c33ed385d9347c62213fbf234ac12505cf4ed49f57aa754",
      "assetIds": []
    },
    {
      "x": 341,
      "y": 308,
      "size": 1,
      "price": "1011000000000000000000",
      "reserved": "",
      "salt": "0xcbea7f0f02b24262d7f622851d6450468bfc4c0a46b0562ee7e59b3255e4a74d",
      "assetIds": []
    },
    {
      "x": 342,
      "y": 300,
      "size": 1,
      "price": "1011000000000000000000",
      "reserved": "",
      "salt": "0x1d97d34dd580918ee87eeefff22b5b247d97ce4980c48c516c05ef469b082d87",
      "assetIds": []
    },
    {
      "x": 342,
      "y": 301,
      "size": 1,
      "price": "1011000000000000000000",
      "reserved": "",
      "salt": "0x95dd0059a65449466be8db65c5fadff53c6fe28038c052ed7fcb0f459694050d",
      "assetIds": []
    },
    {
      "x": 342,
      "y": 302,
      "size": 1,
      "price": "1011000000000000000000",
      "reserved": "",
      "salt": "0xe31d49af66c8aad85dd6051786ea493056193ab8f28032b8166d3a49d21aca60",
      "assetIds": []
    },
    {
      "x": 342,
      "y": 303,
      "size": 1,
      "price": "1011000000000000000000",
      "reserved": "",
      "salt": "0x7d2eac275a6ef446a9bcab936adb5e2c3e2fd0a7faf030f0d08af698a3ebcf07",
      "assetIds": []
    },
    {
      "x": 342,
      "y": 304,
      "size": 1,
      "price": "1011000000000000000000",
      "reserved": "",
      "salt": "0x53d9a380ad6565db67f5b2d826fa9e637591837732cfdf46adae5f3765ef58a9",
      "assetIds": []
    },
    {
      "x": 342,
      "y": 305,
      "size": 1,
      "price": "1011000000000000000000",
      "reserved": "",
      "salt": "0x97c65be95e2ccd3909b6dc13f1512daa8ddfe444919ac4844d864b8837036c28",
      "assetIds": []
    },
    {
      "x": 342,
      "y": 306,
      "size": 1,
      "price": "1011000000000000000000",
      "reserved": "",
      "salt": "0xd9503189f539010bc72e1c4df4f05d544bd08e44ca96b1f84d65d7035bde147d",
      "assetIds": []
    },
    {
      "x": 342,
      "y": 307,
      "size": 1,
      "price": "1011000000000000000000",
      "reserved": "",
      "salt": "0xf357aed74f957c49f80283c56a8438aa02f363ec50b053e633596cc6916b799e",
      "assetIds": []
    },
    {
      "x": 342,
      "y": 308,
      "size": 1,
      "price": "1011000000000000000000",
      "reserved": "",
      "salt": "0xa534af08d22d9acb3d63239d6fb4b55f320dc29beb8121ecbc15144f9fce783f",
      "assetIds": []
    },
    {
      "x": 343,
      "y": 300,
      "size": 1,
      "price": "1011000000000000000000",
      "reserved": "",
      "salt": "0xf29323980d585e48101c3bd570b87cb1833e23591804b27d7bfe2d240998a418",
      "assetIds": []
    },
    {
      "x": 343,
      "y": 301,
      "size": 1,
      "price": "1011000000000000000000",
      "reserved": "",
      "salt": "0x9be009c0c5fbc1f64aed6006c12f43835dd4ce6517b2c4068c1cebde9221233d",
      "assetIds": []
    },
    {
      "x": 343,
      "y": 302,
      "size": 1,
      "price": "1011000000000000000000",
      "reserved": "",
      "salt": "0x49dbd4f6ab493b07ee95ad5254f6b0c4ab8debf6b6be4c3572c18a770bf7cb07",
      "assetIds": []
    },
    {
      "x": 343,
      "y": 303,
      "size": 1,
      "price": "1011000000000000000000",
      "reserved": "0x7a9fe22691c811ea339d9b73150e6911a5343dca",
      "salt": "0xd6eee845bcdb5a9701332ded078301aca7584b02ddc0c3ca3a37572d6e7fd25f",
      "assetIds": []
    },
    {
      "x": 343,
      "y": 304,
      "size": 1,
      "price": "1011000000000000000000",
      "reserved": "",
      "salt": "0x4c7195acd942b88cddc80a9215ae77495c2da0db135dfc7d8b13a472973ea438",
      "assetIds": []
    },
    {
      "x": 343,
      "y": 305,
      "size": 1,
      "price": "1011000000000000000000",
      "reserved": "",
      "salt": "0x4fb83885d702ddaf19f85fd53968965a7dfee24ddd54652c8761615298c59d3d",
      "assetIds": []
    },
    {
      "x": 343,
      "y": 306,
      "size": 1,
      "price": "1011000000000000000000",
      "reserved": "",
      "salt": "0x44484249c683636834e19a063d576dc2d2bfb5a12d131ece2bf464520c90f542",
      "assetIds": []
    },
    {
      "x": 343,
      "y": 307,
      "size": 1,
      "price": "1011000000000000000000",
      "reserved": "0x7a9fe22691c811ea339d9b73150e6911a5343dca",
      "salt": "0xd49fdb64318ab32c832d3cd06b0a3eebd731ca4e5ce19876c218dc7e4bded4d2",
      "assetIds": []
    },
    {
      "x": 343,
      "y": 308,
      "size": 1,
      "price": "1011000000000000000000",
      "reserved": "",
      "salt": "0x15a69cef007f1c9ceb1c87719f048b3a35e95351292074cf04a44a8a018233b8",
      "assetIds": []
    },
    {
      "x": 344,
      "y": 300,
      "size": 1,
      "price": "1011000000000000000000",
      "reserved": "",
      "salt": "0xf8ff7bd57529b567886c80e4ed87f39d89bdda37dfeb4f131f2e567aa5104adf",
      "assetIds": []
    },
    {
      "x": 344,
      "y": 301,
      "size": 1,
      "price": "1011000000000000000000",
      "reserved": "0x7a9fe22691c811ea339d9b73150e6911a5343dca",
      "salt": "0x0c595b589030f10dc269ef447440589353223d5e24b11343ca3ac4377324fd41",
      "assetIds": []
    },
    {
      "x": 344,
      "y": 302,
      "size": 1,
      "price": "1011000000000000000000",
      "reserved": "",
      "salt": "0x7dcfb622b5e22f34322565fe23995a3121750213f32c2c6240c4c11ae3595d28",
      "assetIds": []
    },
    {
      "x": 344,
      "y": 303,
      "size": 1,
      "price": "1011000000000000000000",
      "reserved": "",
      "salt": "0x48f9e4ceb842c4b5d05c4a0b6a43187154e990c6a8a5aa0e30f89c1caaca09c6",
      "assetIds": []
    },
    {
      "x": 344,
      "y": 304,
      "size": 1,
      "price": "1011000000000000000000",
      "reserved": "",
      "salt": "0x0336a1025969bfa3b00f721a3126f510ec29b5069173c807ca322d413c4933c3",
      "assetIds": []
    },
    {
      "x": 344,
      "y": 305,
      "size": 1,
      "price": "1011000000000000000000",
      "reserved": "0x7a9fe22691c811ea339d9b73150e6911a5343dca",
      "salt": "0x7c7e94708c5781ee5aa4aea04b26c6da7f58f49928fed2ac1dd7f79dfef8d66c",
      "assetIds": []
    },
    {
      "x": 344,
      "y": 306,
      "size": 1,
      "price": "1011000000000000000000",
      "reserved": "",
      "salt": "0x99999609f994420d960c03985c17787cf7aa5abd7c2bf18ae9ed362d1b26f8c3",
      "assetIds": []
    },
    {
      "x": 344,
      "y": 307,
      "size": 1,
      "price": "1011000000000000000000",
      "reserved": "",
      "salt": "0x339caa45935019a3906b45ab0bf5b20c6b0c8475e61a8845058950fa63ddc993",
      "assetIds": []
    },
    {
      "x": 344,
      "y": 308,
      "size": 1,
      "price": "1011000000000000000000",
      "reserved": "",
      "salt": "0x3e48849a4f6f1bc096e3f2f8e6516254ec7c57abec465152d27f8096ea108bd3",
      "assetIds": []
    },
    {
      "x": 297,
      "y": 297,
      "size": 3,
      "price": "8648000000000000000000",
      "reserved": "0x7a9fe22691c811ea339d9b73150e6911a5343dca",
      "salt": "0x8c91cea87ef4f4b91bdd01858030e16bfb72d0ba8076ca9c837e92b48677166c",
      "assetIds": []
    },
    {
      "x": 303,
      "y": 276,
      "size": 3,
      "price": "8648000000000000000000",
      "reserved": "0x7a9fe22691c811ea339d9b73150e6911a5343dca",
      "salt": "0xa9be0636bcbb7873343f3bf1798414a86e19eacd75402377ca7d43f8d6715694",
      "assetIds": []
    },
    {
      "x": 303,
      "y": 285,
      "size": 3,
      "price": "8648000000000000000000",
      "reserved": "0x7a9fe22691c811ea339d9b73150e6911a5343dca",
      "salt": "0x2a8850b47fdc47e1a6b5487cb3dadde07f943554aa48e91d9a21c1616591f27b",
      "assetIds": []
    },
    {
      "x": 306,
      "y": 276,
      "size": 3,
      "price": "8648000000000000000000",
      "reserved": "0x7a9fe22691c811ea339d9b73150e6911a5343dca",
      "salt": "0x38409bb18ca80f74b98cf4f0ea69d408cbc2b3620aead02fccb42b4b5d71aea5",
      "assetIds": []
    },
    {
      "x": 309,
      "y": 309,
      "size": 3,
      "price": "8648000000000000000000",
      "reserved": "0x7a9fe22691c811ea339d9b73150e6911a5343dca",
      "salt": "0x11518bacc512e5294dbca1cc5459bd6a0131708da47cd258b6ccd88cbc22223a",
      "assetIds": []
    },
    {
      "x": 321,
      "y": 288,
      "size": 3,
      "price": "8648000000000000000000",
      "reserved": "0x7a9fe22691c811ea339d9b73150e6911a5343dca",
      "salt": "0xe999da30dce82531774cf79d52f00946ea14805cd75072453173564e3cb61b20",
      "assetIds": []
    },
    {
      "x": 282,
      "y": 282,
      "size": 6,
      "price": "32772000000000000000000",
      "reserved": "0x7a9fe22691c811ea339d9b73150e6911a5343dca",
      "salt": "0xbe2303dd5038897de3f932a6f1cb33ef3caaa3eb2f7a0f4c1576e8597c9d2421",
      "assetIds": []
    },
    {
      "x": 306,
      "y": 282,
      "size": 6,
      "price": "32772000000000000000000",
      "reserved": "0x7a9fe22691c811ea339d9b73150e6911a5343dca",
      "salt": "0xdae2d367122687c7357a9e92890073d266953ab54ed90fe8682aa483cd1330a7",
      "assetIds": []
    },
    {
      "x": 312,
      "y": 276,
      "size": 6,
      "price": "32772000000000000000000",
      "reserved": "0x7a9fe22691c811ea339d9b73150e6911a5343dca",
      "salt": "0x4f2cf398e268a4ad7ed097a9cdfa60e37d99fe083ce04e87cfbee92408acaf3e",
      "assetIds": []
    },
    {
      "x": 312,
      "y": 294,
      "size": 6,
      "price": "32772000000000000000000",
      "reserved": "0x7a9fe22691c811ea339d9b73150e6911a5343dca",
      "salt": "0xd8d7791f0aa32ad0ebe439d67a3a9233969f1dcae1554272b2e2c9509a60c920",
      "assetIds": []
    },
    {
      "x": 318,
      "y": 276,
      "size": 6,
      "price": "32772000000000000000000",
      "reserved": "0x7a9fe22691c811ea339d9b73150e6911a5343dca",
      "salt": "0x5cfce8085e477d327df46f65d849be5bf46b11f2644b0231f8eef8fe4372b3a0",
      "assetIds": []
    },
    {
      "x": 318,
      "y": 294,
      "size": 6,
      "price": "32772000000000000000000",
      "reserved": "0x7a9fe22691c811ea339d9b73150e6911a5343dca",
      "salt": "0xc6285f4b4c05057ee7684ab05e9238744bf6f50a21200f823a8f4e9c5bf419b5",
      "assetIds": []
    },
    {
      "x": 330,
      "y": 306,
      "size": 6,
      "price": "32772000000000000000000",
      "reserved": "0x7a9fe22691c811ea339d9b73150e6911a5343dca",
      "salt": "0x6d646e73563cd7fb1cd5bcba4a87f4ad6089115dab1566f2a9167e2ef073e6ac",
      "assetIds": []
    },
    {
      "x": 336,
      "y": 300,
      "size": 6,
      "price": "32772000000000000000000",
      "reserved": "0x7a9fe22691c811ea339d9b73150e6911a5343dca",
      "salt": "0x2be558a1ebce3bcf87a5cef8c85174868029c32fec09c3923dc19d0da94d5c32",
      "assetIds": []
    },
    {
      "x": 288,
      "y": 300,
      "size": 12,
      "price": "123806000000000000000000",
      "reserved": "0x7a9fe22691c811ea339d9b73150e6911a5343dca",
      "salt": "0x5f072a7d2d9ba2a5bdddc4c821269fcee7a4c96858cae4ae6c4c159e44e6c0f3",
      "assetIds": []
    },
    {
      "x": 300,
      "y": 288,
      "size": 12,
      "price": "123806000000000000000000",
      "reserved": "0x7a9fe22691c811ea339d9b73150e6911a5343dca",
      "salt": "0x876b2c49c685eaee53ac732a94e443b3d3640ace5fbc403dd9493248de0ab81d",
      "assetIds": []
    },
    {
      "x": 312,
      "y": 300,
      "size": 12,
      "price": "123806000000000000000000",
      "reserved": "0x7a9fe22691c811ea339d9b73150e6911a5343dca",
      "salt": "0xdac92c989abacef049fa5d6c28d679790f52439cf18ff7b533d5bf6e5ac9b1d2",
      "assetIds": []
    }
  ],
  "solcInputHash": "e17a5bb930c92aaeeb80a52119ce77b7",
  "bytecode": "0x610160604052620d2f0060055534801561001857600080fd5b506040516200284d3803806200284d83398181016040526101a081101561003e57600080fd5b50805160208201516040830151606080850151608086015160a08088015160c0808a015160e08b01516101008c01516101208d01516101408e01516101608f0151610180909f0151600280546001600160a01b0319166001600160a01b03871617905560038490558e8c1b6001600160601b03199081169099529a8d901b9097169094529a9b999a98999698959793969195909490939091906100e28b600161015d565b600680546001600160a01b039a8b166001600160a01b031991821617909155610140989098526101209690965260008054998916998816999099179098556001600160601b0319606092831b811660e05290821b811660805296901b909516610100525060078054919093169116179055506101c192505050565b6001600160a01b038216600081815260016020908152604091829020805460ff191685151590811790915582519384529083015280517fb21eb88b4e33b3f1281830a7178d74d8aa73220416215726b68ae23d539515cb9281900390910190a15050565b60805160601c60a05160601c60c05160601c60e05160601c6101005160601c61012051610140516126066200024760003980610b3d528061206c525080610b1952806112ec5250806120da525080611841528061199e5250806117f75280611b9d528061210e525080611872528061196f525080610eb25280611c8952506126066000f3fe608060405234801561001057600080fd5b506004361061011b5760003560e01c80638f283970116100b2578063c10a420811610081578063dc5074af11610066578063dc5074af1461085f578063e56f8a9e14610885578063f23a6e61146108a25761011b565b8063c10a420814610780578063caed3500146108575761011b565b80638f28397014610500578063984d625214610526578063b522ecff146105f8578063bc197c811461061e5761011b565b806365194ce7116100ee57806365194ce7146103485780636e9960c3146104a657806377f1c3ac146104ca5780638a04af6a146104d25761011b565b80631187fd3c1461012057806325cb5bc014610300578063495906571461031a57806358bc294414610322575b600080fd5b6102fe600480360361012081101561013757600080fd5b6001600160a01b038235811692602081013582169260408201359092169181019060808101606082013564010000000081111561017357600080fd5b82018360208201111561018557600080fd5b803590602001918460208302840111640100000000831117156101a757600080fd5b919390928235926040810190602001356401000000008111156101c957600080fd5b8201836020820111156101db57600080fd5b803590602001918460208302840111640100000000831117156101fd57600080fd5b91939092909160208101903564010000000081111561021b57600080fd5b82018360208201111561022d57600080fd5b8035906020019184602083028401116401000000008311171561024f57600080fd5b91939092909160208101903564010000000081111561026d57600080fd5b82018360208201111561027f57600080fd5b803590602001918460018302840111640100000000831117156102a157600080fd5b9193909290916020810190356401000000008111156102bf57600080fd5b8201836020820111156102d157600080fd5b803590602001918460018302840111640100000000831117156102f357600080fd5b509092509050610937565b005b610308610b17565b60408051918252519081900360200190f35b610308610b3b565b6102fe6004803603602081101561033857600080fd5b50356001600160a01b0316610b5f565b6103ee6004803603602081101561035e57600080fd5b81019060208101813564010000000081111561037957600080fd5b82018360208201111561038b57600080fd5b803590602001918460018302840111640100000000831117156103ad57600080fd5b91908080601f016020809104026020016040519081016040528093929190818152602001838380828437600092019190915250929550610c0a945050505050565b6040518080602001866001600160a01b03166001600160a01b03168152602001856001600160a01b03166001600160a01b03168152602001848152602001838152602001828103825287818151815260200191508051906020019080838360005b8381101561046757818101518382015260200161044f565b50505050905090810190601f1680156104945780820380516001836020036101000a031916815260200191505b50965050505050505060405180910390f35b6104ae610d0f565b604080516001600160a01b039092168252519081900360200190f35b610308610d1e565b6102fe600480360360408110156104e857600080fd5b506001600160a01b0381351690602001351515610d24565b6102fe6004803603602081101561051657600080fd5b50356001600160a01b0316610d7b565b6102fe6004803603606081101561053c57600080fd5b6001600160a01b03823516919081019060408101602082013564010000000081111561056757600080fd5b82018360208201111561057957600080fd5b8035906020019184602083028401116401000000008311171561059b57600080fd5b9193909290916020810190356401000000008111156105b957600080fd5b8201836020820111156105cb57600080fd5b803590602001918460208302840111640100000000831117156105ed57600080fd5b509092509050610e51565b6102fe6004803603602081101561060e57600080fd5b50356001600160a01b0316610fdc565b61074b600480360360a081101561063457600080fd5b6001600160a01b03823581169260208101359091169181019060608101604082013564010000000081111561066857600080fd5b82018360208201111561067a57600080fd5b8035906020019184602083028401116401000000008311171561069c57600080fd5b9193909290916020810190356401000000008111156106ba57600080fd5b8201836020820111156106cc57600080fd5b803590602001918460208302840111640100000000831117156106ee57600080fd5b91939092909160208101903564010000000081111561070c57600080fd5b82018360208201111561071e57600080fd5b8035906020019184600183028401116401000000008311171561074057600080fd5b5090925090506110c5565b604080517fffffffff000000000000000000000000000000000000000000000000000000009092168252519081900360200190f35b610843600480360360a081101561079657600080fd5b8101906020810181356401000000008111156107b157600080fd5b8201836020820111156107c357600080fd5b803590602001918460018302840111640100000000831117156107e557600080fd5b91908080601f016020809104026020016040519081016040528093929190818152602001838380828437600092019190915250929550506001600160a01b0383358116945060208401351692604081013592506060013590506110f2565b604080519115158252519081900360200190f35b6104ae61122e565b6108436004803603602081101561087557600080fd5b50356001600160a01b031661123d565b6102fe6004803603602081101561089b57600080fd5b503561125b565b61074b600480360360a08110156108b857600080fd5b6001600160a01b03823581169260208101359091169160408201359160608101359181019060a0810160808201356401000000008111156108f857600080fd5b82018360208201111561090a57600080fd5b8035906020019184600183028401116401000000008311171561092c57600080fd5b5090925090506112bf565b6109418e8d6112ea565b610a388d8d8d8d80806020026020016040519081016040528093929190818152602001838360200280828437600081840152601f19601f820116905080830192505050505050508c8c8c80806020026020016040519081016040528093929190818152602001838360200280828437600081840152601f19601f820116905080830192505050505050508b8b8080602002602001604051908101604052809392919081815260200183836020028082843760009201919091525050604080516020601f8d018190048102820181019092528b815292508b91508a908190840183828082843760009201919091525061144d92505050565b610a8c8e8c8c6003818110610a4957fe5b9050602002013586868080601f0160208091040260200160405190810160405280939291908181526020018383808284376000920191909152506117d092505050565b610aca8e8e8d8d8080602002602001604051908101604052809392919081815260200183836020028082843760009201919091525061182192505050565b610b078d898980806020026020016040519081016040528093929190818152602001838360200280828437600092019190915250611c1292505050565b5050505050505050505050505050565b7f000000000000000000000000000000000000000000000000000000000000000090565b7f000000000000000000000000000000000000000000000000000000000000000090565b6000546001600160a01b03163314610bbe576040805162461bcd60e51b815260206004820152601060248201527f53656e646572206e6f742061646d696e00000000000000000000000000000000604482015290519081900360640190fd5b600554600280546001600160a01b03908116600090815260046020526040902042909301909255805473ffffffffffffffffffffffffffffffffffffffff191692909116919091179055565b606060008060008060606000806000808a80602001905160a0811015610c2f57600080fd5b8101908080516040519392919084640100000000821115610c4f57600080fd5b908301906020820185811115610c6457600080fd5b8251640100000000811182820188101715610c7e57600080fd5b82525081516020918201929091019080838360005b83811015610cab578181015183820152602001610c93565b50505050905090810190601f168015610cd85780820380516001836020036101000a031916815260200191505b5060409081526020820151908201516060830151608090930151959f50909d509b5099509197505050505050505091939590929450565b6000546001600160a01b031690565b60035490565b6000546001600160a01b03163314610d6d5760405162461bcd60e51b815260040180806020018281038252602e8152602001806125a3602e913960400191505060405180910390fd5b610d778282611dd6565b5050565b6000546001600160a01b03163314610dda576040805162461bcd60e51b815260206004820152601b60248201527f6f6e6c792061646d696e2063616e206368616e67652061646d696e0000000000604482015290519081900360640190fd5b600054604080516001600160a01b039283168152918316602083015280517f7e644d79422f17c01e4894b5f4f588d331ebfa28653d42ae832dc59e38c9798f9281900390910190a16000805473ffffffffffffffffffffffffffffffffffffffff19166001600160a01b0392909216919091179055565b6000546001600160a01b03163314610eb0576040805162461bcd60e51b815260206004820152600e60248201527f4e4f545f415554484f52495a4544000000000000000000000000000000000000604482015290519081900360640190fd5b7f00000000000000000000000000000000000000000000000000000000000000006001600160a01b0316632eb2c2d63087878787876040518763ffffffff1660e01b815260040180876001600160a01b03166001600160a01b03168152602001866001600160a01b03166001600160a01b031681526020018060200180602001806020018481038452888882818152602001925060200280828437600083820152601f01601f19169091018581038452868152602090810191508790870280828437600081840152601f19601f8201169050808301925050508481038252600081526020016020019950505050505050505050600060405180830381600087803b158015610fbd57600080fd5b505af1158015610fd1573d6000803e3d6000fd5b505050505050505050565b6001600160a01b038116611037576040805162461bcd60e51b815260206004820152600c60248201527f5a45524f5f414444524553530000000000000000000000000000000000000000604482015290519081900360640190fd5b6000546001600160a01b03163314611096576040805162461bcd60e51b815260206004820152600e60248201527f4e4f545f415554484f52495a4544000000000000000000000000000000000000604482015290519081900360640190fd5b6006805473ffffffffffffffffffffffffffffffffffffffff19166001600160a01b0392909216919091179055565b7fbc197c810000000000000000000000000000000000000000000000000000000098975050505050505050565b60006003548211806111155750836001600160a01b0316856001600160a01b0316145b8061111f57508242115b1561112c57506000611225565b60408051606087811b7fffffffffffffffffffffffffffffffffffffffff0000000000000000000000009081166020808501919091529188901b166034830152604882018690526068808301869052835180840390910181526088830184528051908201207f19457468657265756d205369676e6564204d6573736167653a0a33320000000060a884015260c48084018290528451808503909101815260e490930190935281519101206000906111e39089611e58565b6001600160a01b038116600090815260046020526040902054909150421161121057600192505050611225565b6002546001600160a01b039081169116149150505b95945050505050565b6002546001600160a01b031690565b6001600160a01b031660009081526001602052604090205460ff1690565b6000546001600160a01b031633146112ba576040805162461bcd60e51b815260206004820152601060248201527f53656e646572206e6f742061646d696e00000000000000000000000000000000604482015290519081900360640190fd5b600355565b7ff23a6e61000000000000000000000000000000000000000000000000000000009695505050505050565b7f0000000000000000000000000000000000000000000000000000000000000000421061135e576040805162461bcd60e51b815260206004820152600c60248201527f53414c455f49535f4f5645520000000000000000000000000000000000000000604482015290519081900360640190fd5b6001600160a01b03821633148061138457503360009081526001602052604090205460ff165b6113d5576040805162461bcd60e51b815260206004820152600e60248201527f4e4f545f415554484f52495a4544000000000000000000000000000000000000604482015290519081900360640190fd5b6001600160a01b03811615806113fc5750816001600160a01b0316816001600160a01b0316145b610d77576040805162461bcd60e51b815260206004820152600d60248201527f52455345525645445f4c414e4400000000000000000000000000000000000000604482015290519081900360640190fd5b600087878760008151811061145e57fe5b60200260200101518860018151811061147357fe5b60200260200101518960028151811061148857fe5b60200260200101518a60038151811061149d57fe5b60200260200101518a8a60405160200180828051906020019060200280838360005b838110156114d75781810151838201526020016114bf565b50505050905001915050604051602081830303815290604052805190602001208a60405160200180828051906020019060200280838360005b83811015611528578181015183820152602001611510565b5050505090500191505060405160208183030381529060405280519060200120604051602001808a6001600160a01b03166001600160a01b031660601b8152601401896001600160a01b03166001600160a01b031660601b81526014018881526020018781526020018681526020018581526020018481526020018381526020018281526020019950505050505050505050604051602081830303815290604052805190602001209050600760009054906101000a90046001600160a01b03166001600160a01b031663012847ed83836040518363ffffffff1660e01b81526004018080602001838152602001828103825284818151815260200191508051906020019080838360005b8381101561164a578181015183820152602001611632565b50505050905090810190601f1680156116775780820380516001836020036101000a031916815260200191505b50935050505060206040518083038186803b15801561169557600080fd5b505afa1580156116a9573d6000803e3d6000fd5b505050506040513d60208110156116bf57600080fd5b5051611712576040805162461bcd60e51b815260206004820152600c60248201527f494e56414c49445f415554480000000000000000000000000000000000000000604482015290519081900360640190fd5b60006117738760008151811061172457fe5b60200260200101518860018151811061173957fe5b60200260200101518960028151811061174e57fe5b60200260200101518a60038151811061176357fe5b60200260200101518c8b8b611f25565b905061177f8482611fca565b610fd1576040805162461bcd60e51b815260206004820152600c60248201527f494e56414c49445f4c414e440000000000000000000000000000000000000000604482015290519081900360640190fd5b60006117dc8484612095565b60065490915061181b908590839085906001600160a01b03167f00000000000000000000000000000000000000000000000000000000000000006121ee565b50505050565b8060028151811061182e57fe5b60200260200101516001148061186b57507f00000000000000000000000000000000000000000000000000000000000000006001600160a01b0316155b1561196d577f00000000000000000000000000000000000000000000000000000000000000006001600160a01b0316636e1e3bbf83836002815181106118ad57fe5b6020026020010151846000815181106118c257fe5b6020026020010151856001815181106118d757fe5b60200260200101516040518563ffffffff1660e01b815260040180856001600160a01b03166001600160a01b031681526020018481526020018381526020018281526020018060200182810382526000815260200160200195505050505050600060405180830381600087803b15801561195057600080fd5b505af1158015611964573d6000803e3d6000fd5b50505050611b0d565b7f00000000000000000000000000000000000000000000000000000000000000006001600160a01b0316636e1e3bbf7f0000000000000000000000000000000000000000000000000000000000000000836002815181106119ca57fe5b6020026020010151846000815181106119df57fe5b6020026020010151856001815181106119f457fe5b60200260200101518760405160200180826001600160a01b03166001600160a01b031681526020019150506040516020818303038152906040526040518663ffffffff1660e01b815260040180866001600160a01b03166001600160a01b0316815260200185815260200184815260200183815260200180602001828103825283818151815260200191508051906020019080838360005b83811015611aa4578181015183820152602001611a8c565b50505050905090810190601f168015611ad15780820380516001836020036101000a031916815260200191505b509650505050505050600060405180830381600087803b158015611af457600080fd5b505af1158015611b08573d6000803e3d6000fd5b505050505b61019881600181518110611b1d57fe5b60200260200101510281600081518110611b3357fe5b602002602001015101826001600160a01b0316846001600160a01b03167fe4dfa6ac11314892f3029b34a25b1a887da3b1cab2bbf8506d87128ba6e3ac0284600281518110611b7e57fe5b602002602001015185600381518110611b9357fe5b60200260200101517f000000000000000000000000000000000000000000000000000000000000000087600381518110611bc957fe5b602002602001015160405180858152602001848152602001836001600160a01b03166001600160a01b0316815260200182815260200194505050505060405180910390a4505050565b6060815167ffffffffffffffff81118015611c2c57600080fd5b50604051908082528060200260200182016040528015611c56578160200160208202803683370190505b50905060005b8251811015611c86576001828281518110611c7357fe5b6020908102919091010152600101611c5c565b507f00000000000000000000000000000000000000000000000000000000000000006001600160a01b0316632eb2c2d6308585856040518563ffffffff1660e01b815260040180856001600160a01b03166001600160a01b03168152602001846001600160a01b03166001600160a01b03168152602001806020018060200180602001848103845286818151815260200191508051906020019060200280838360005b83811015611d41578181015183820152602001611d29565b50505050905001848103835285818151815260200191508051906020019060200280838360005b83811015611d80578181015183820152602001611d68565b50505050905001848103825260008152602001602001975050505050505050600060405180830381600087803b158015611db957600080fd5b505af1158015611dcd573d6000803e3d6000fd5b50505050505050565b6001600160a01b03821660008181526001602090815260409182902080547fffffffffffffffffffffffffffffffffffffffffffffffffffffffffffffff001685151590811790915582519384529083015280517fb21eb88b4e33b3f1281830a7178d74d8aa73220416215726b68ae23d539515cb9281900390910190a15050565b60008151604114611e6857600080fd5b60208201516040830151606084015160001a601b811015611e8757601b015b8060ff16601b1480611e9c57508060ff16601c145b611ea557600080fd5b6040805160008152602080820180845289905260ff8416828401526060820186905260808201859052915160019260a0808401939192601f1981019281900390910190855afa158015611efc573d6000803e3d6000fd5b5050604051601f1901519450506001600160a01b038416611f1c57600080fd5b50505092915050565b60008787878787878760405160200180888152602001878152602001868152602001858152602001846001600160a01b03166001600160a01b031660601b8152601401838152602001828051906020019060200280838360005b83811015611f97578181015183820152602001611f7f565b50505050905001975050505050505050604051602081830303815290604052805190602001209050979650505050505050565b600081815b8451811015612069576000858281518110611fe657fe5b602002602001015190508083101561202e5782816040516020018083815260200182815260200192505050604051602081830303815290604052805190602001209250612060565b808360405160200180838152602001828152602001925050506040516020818303038152906040528051906020012092505b50600101611fcf565b507f00000000000000000000000000000000000000000000000000000000000000001490505b92915050565b6000806120ba60646120ae85600563ffffffff61247016565b9063ffffffff6124e016565b604080516323b872dd60e01b81526001600160a01b0387811660048301527f0000000000000000000000000000000000000000000000000000000000000000811660248301526044820184905291519293507f0000000000000000000000000000000000000000000000000000000000000000909116916323b872dd916064808201926020929091908290030181600087803b15801561215957600080fd5b505af115801561216d573d6000803e3d6000fd5b505050506040513d602081101561218357600080fd5b50516121d6576040805162461bcd60e51b815260206004820152601360248201527f4645455f5452414e534645525f4641494c454400000000000000000000000000604482015290519081900360640190fd5b6121e6838263ffffffff61254516565b949350505050565b8251819085901561239857606060008060008061220a8a610c0a565b939850919650945092509050600061222586868686866110f2565b156122b35761223f6122378d84612470565b6127106124e0565b9050886001600160a01b0316846001600160a01b0316866001600160a01b03167fac7a699eb95c3c6d390ec4626de17ef9a67b35891efdb197beba7c7fdd45fac48f858760405180848152602001838152602001828152602001935050505060405180910390a46122b08782612545565b96505b801561239157604080516323b872dd60e01b81526001600160a01b038f811660048301528781166024830152604482018490529151918a16916323b872dd916064808201926020929091908290030181600087803b15801561231457600080fd5b505af1158015612328573d6000803e3d6000fd5b505050506040513d602081101561233e57600080fd5b5051612391576040805162461bcd60e51b815260206004820152601960248201527f636f6d6d6973696f6e207472616e73666572206661696c656400000000000000604482015290519081900360640190fd5b5050505050505b604080516323b872dd60e01b81526001600160a01b0389811660048301528681166024830152604482018490529151918416916323b872dd916064808201926020929091908290030181600087803b1580156123f357600080fd5b505af1158015612407573d6000803e3d6000fd5b505050506040513d602081101561241d57600080fd5b5051611dcd576040805162461bcd60e51b815260206004820152601760248201527f7061796d656e74207472616e73666572206661696c6564000000000000000000604482015290519081900360640190fd5b60008261247f5750600061208f565b508181028183828161248d57fe5b041461208f576040805162461bcd60e51b815260206004820152600860248201527f6f766572666c6f77000000000000000000000000000000000000000000000000604482015290519081900360640190fd5b600081612534576040805162461bcd60e51b815260206004820152600960248201527f64697662797a65726f0000000000000000000000000000000000000000000000604482015290519081900360640190fd5b81838161253d57fe5b049392505050565b60008282111561259c576040805162461bcd60e51b815260206004820152600860248201527f756e6465666c6f77000000000000000000000000000000000000000000000000604482015290519081900360640190fd5b5090039056fe6f6e6c792061646d696e2063616e207365747570206d6574615472616e73616374696f6e50726f636573736f7273a2646970667358221220fc9205bafc138c1de206481f144dc3e7818922fbe1a20d2a71392e5e2e413c1a64736f6c63430006050033",
  "devdoc": {
    "methods": {
      "buyLandWithSand(address,address,address,uint256[],bytes32,uint256[],bytes32[],bytes,bytes)": {
        "params": {
          "buyer": "address that perform the payment",
          "info": "[X_INDEX=0] x coordinate of the Land [Y_INDEX=1] y coordinate of the Land [SIZE_INDEX=2] size of the pack of Land to purchase [PRICE_INDEX=3] price in SAND to purchase that Land",
          "proof": "merkleProof for that particular Land",
          "reserved": "the reserved address (if any)",
          "to": "address that will own the purchased Land"
        }
      },
      "changeAdmin(address)": {
        "details": "change the administrator to be `newAdmin`.",
        "params": {
          "newAdmin": "address of the new administrator."
        }
      },
      "getAdmin()": {
        "details": "gives the current administrator of this contract.",
        "returns": {
          "_0": "the current administrator of this contract."
        }
      },
      "getSigningWallet()": {
        "details": "signing wallet authorized for referral",
        "returns": {
          "_0": "the address of the signing wallet"
        }
      },
      "isMetaTransactionProcessor(address)": {
        "details": "check whether address `who` is given meta-transaction execution rights.",
        "params": {
          "who": "The address to query."
        },
        "returns": {
          "_0": "whether the address has meta-transaction execution rights."
        }
      },
      "isReferralValid(bytes,address,address,uint256,uint256)": {
        "params": {
          "commissionRate": "The commissionRate of the referral",
          "expiryTime": "The expiry time of the referral",
          "referee": "The address of the referee",
          "referrer": "The address of the referrer",
          "signature": "The signature to check (signed referral)"
        },
        "returns": {
          "_0": "True if the referral is valid"
        }
      },
      "setMetaTransactionProcessor(address,bool)": {
        "details": "Enable or disable the ability of `metaTransactionProcessor` to perform meta-tx (metaTransactionProcessor rights).",
        "params": {
          "enabled": "set whether the metaTransactionProcessor is enabled or disabled.",
          "metaTransactionProcessor": "address that will be given/removed metaTransactionProcessor rights."
        }
      },
      "setReceivingWallet(address)": {
        "params": {
          "newWallet": "address of the new receiving wallet"
        }
      },
      "updateMaxCommissionRate(uint256)": {
        "details": "Update the maximum commission rate",
        "params": {
          "newMaxCommissionRate": "The new maximum commission rate"
        }
      },
      "updateSigningWallet(address)": {
        "details": "Update the signing wallet",
        "params": {
          "newSigningWallet": "The new address of the signing wallet"
        }
      },
      "withdrawAssets(address,uint256[],uint256[])": {
        "params": {
          "assetIds": "the assetIds to be transferred",
          "to": "intended recipient of the asset tokens",
          "values": "the quantities of the assetIds to be transferred"
        }
      }
    },
    "title": "Estate Sale contract with referral"
  },
  "userdoc": {
    "methods": {
      "buyLandWithSand(address,address,address,uint256[],bytes32,uint256[],bytes32[],bytes,bytes)": {
        "notice": "buy Land with SAND using the merkle proof associated with it"
      },
      "getExpiryTime()": {
        "notice": "Gets the expiry time for the current sale"
      },
      "getMaxCommisionRate()": {
        "notice": "the max commision rate"
      },
      "getMerkleRoot()": {
        "notice": "Gets the Merkle root associated with the current sale"
      },
      "isReferralValid(bytes,address,address,uint256,uint256)": {
        "notice": "Check if a referral is valid"
      },
      "setReceivingWallet(address)": {
        "notice": "set the wallet receiving the proceeds"
      },
      "withdrawAssets(address,uint256[],uint256[])": {
        "notice": "enable Admin to withdraw remaining assets from EstateSaleWithFee contract"
      }
    },
    "notice": "This contract manages the sale of our lands as Estates"
  },
  "storageLayout": {
    "storage": [
      {
        "astId": 13650,
        "contract": "src/solc_0.6/EstateSale/EstateSaleWithAuth.sol:EstateSaleWithAuth",
        "label": "_admin",
        "offset": 0,
        "slot": "0",
        "type": "t_address"
      },
      {
        "astId": 13712,
        "contract": "src/solc_0.6/EstateSale/EstateSaleWithAuth.sol:EstateSaleWithAuth",
        "label": "_metaTransactionContracts",
        "offset": 0,
        "slot": "1",
        "type": "t_mapping(t_address,t_bool)"
      },
      {
        "astId": 11828,
        "contract": "src/solc_0.6/EstateSale/EstateSaleWithAuth.sol:EstateSaleWithAuth",
        "label": "_signingWallet",
        "offset": 0,
        "slot": "2",
        "type": "t_address"
      },
      {
        "astId": 11830,
        "contract": "src/solc_0.6/EstateSale/EstateSaleWithAuth.sol:EstateSaleWithAuth",
        "label": "_maxCommissionRate",
        "offset": 0,
        "slot": "3",
        "type": "t_uint256"
      },
      {
        "astId": 11834,
        "contract": "src/solc_0.6/EstateSale/EstateSaleWithAuth.sol:EstateSaleWithAuth",
        "label": "_previousSigningWallets",
        "offset": 0,
        "slot": "4",
        "type": "t_mapping(t_address,t_uint256)"
      },
      {
        "astId": 11843,
        "contract": "src/solc_0.6/EstateSale/EstateSaleWithAuth.sol:EstateSaleWithAuth",
        "label": "_previousSigningDelay",
        "offset": 0,
        "slot": "5",
        "type": "t_uint256"
      },
      {
        "astId": 7453,
        "contract": "src/solc_0.6/EstateSale/EstateSaleWithAuth.sol:EstateSaleWithAuth",
        "label": "_wallet",
        "offset": 0,
        "slot": "6",
        "type": "t_address_payable"
      },
      {
        "astId": 7455,
        "contract": "src/solc_0.6/EstateSale/EstateSaleWithAuth.sol:EstateSaleWithAuth",
        "label": "_authValidator",
        "offset": 0,
        "slot": "7",
        "type": "t_contract(AuthValidator)6784"
      }
    ],
    "types": {
      "t_address": {
        "encoding": "inplace",
        "label": "address",
        "numberOfBytes": "20"
      },
      "t_address_payable": {
        "encoding": "inplace",
        "label": "address payable",
        "numberOfBytes": "20"
      },
      "t_bool": {
        "encoding": "inplace",
        "label": "bool",
        "numberOfBytes": "1"
      },
      "t_contract(AuthValidator)6784": {
        "encoding": "inplace",
        "label": "contract AuthValidator",
        "numberOfBytes": "20"
      },
      "t_mapping(t_address,t_bool)": {
        "encoding": "mapping",
        "key": "t_address",
        "label": "mapping(address => bool)",
        "numberOfBytes": "32",
        "value": "t_bool"
      },
      "t_mapping(t_address,t_uint256)": {
        "encoding": "mapping",
        "key": "t_address",
        "label": "mapping(address => uint256)",
        "numberOfBytes": "32",
        "value": "t_uint256"
      },
      "t_uint256": {
        "encoding": "inplace",
        "label": "uint256",
        "numberOfBytes": "32"
      }
    }
  }
}