{
  "address": "0xB1967b404AF3532D3003E13d9e1B4De13630C73E",
  "abi": [
    {
      "inputs": [
        {
          "internalType": "address",
          "name": "_checkpointManager",
          "type": "address"
        },
        {
          "internalType": "address",
          "name": "_fxRoot",
          "type": "address"
        },
        {
          "internalType": "address",
          "name": "_rootToken",
          "type": "address"
        }
      ],
      "stateMutability": "nonpayable",
      "type": "constructor"
    },
    {
      "anonymous": false,
      "inputs": [
        {
          "indexed": false,
          "internalType": "address",
          "name": "user",
          "type": "address"
        },
        {
          "indexed": false,
          "internalType": "uint256",
          "name": "size",
          "type": "uint256"
        },
        {
          "indexed": false,
          "internalType": "uint256",
          "name": "x",
          "type": "uint256"
        },
        {
          "indexed": false,
          "internalType": "uint256",
          "name": "y",
          "type": "uint256"
        },
        {
          "indexed": false,
          "internalType": "bytes",
          "name": "data",
          "type": "bytes"
        }
      ],
      "name": "Deposit",
      "type": "event"
    },
    {
      "anonymous": false,
      "inputs": [
        {
          "indexed": false,
          "internalType": "address",
          "name": "user",
          "type": "address"
        },
        {
          "indexed": false,
          "internalType": "uint256",
          "name": "size",
          "type": "uint256"
        },
        {
          "indexed": false,
          "internalType": "uint256",
          "name": "x",
          "type": "uint256"
        },
        {
          "indexed": false,
          "internalType": "uint256",
          "name": "y",
          "type": "uint256"
        },
        {
          "indexed": false,
          "internalType": "bytes",
          "name": "data",
          "type": "bytes"
        }
      ],
      "name": "Withdraw",
      "type": "event"
    },
    {
      "inputs": [],
      "name": "SEND_MESSAGE_EVENT_SIG",
      "outputs": [
        {
          "internalType": "bytes32",
          "name": "",
          "type": "bytes32"
        }
      ],
      "stateMutability": "view",
      "type": "function"
    },
    {
      "inputs": [],
      "name": "checkpointManager",
      "outputs": [
        {
          "internalType": "contract ICheckpointManager",
          "name": "",
          "type": "address"
        }
      ],
      "stateMutability": "view",
      "type": "function"
    },
    {
      "inputs": [],
      "name": "fxChildTunnel",
      "outputs": [
        {
          "internalType": "address",
          "name": "",
          "type": "address"
        }
      ],
      "stateMutability": "view",
      "type": "function"
    },
    {
      "inputs": [],
      "name": "fxRoot",
      "outputs": [
        {
          "internalType": "contract IFxStateSender",
          "name": "",
          "type": "address"
        }
      ],
      "stateMutability": "view",
      "type": "function"
    },
    {
      "inputs": [
        {
          "internalType": "address",
          "name": "",
          "type": "address"
        },
        {
          "internalType": "address",
          "name": "",
          "type": "address"
        },
        {
          "internalType": "uint256",
          "name": "",
          "type": "uint256"
        },
        {
          "internalType": "bytes",
          "name": "",
          "type": "bytes"
        }
      ],
      "name": "onERC721Received",
      "outputs": [
        {
          "internalType": "bytes4",
          "name": "",
          "type": "bytes4"
        }
      ],
      "stateMutability": "pure",
      "type": "function"
    },
    {
      "inputs": [
        {
          "internalType": "bytes32",
          "name": "",
          "type": "bytes32"
        }
      ],
      "name": "processedExits",
      "outputs": [
        {
          "internalType": "bool",
          "name": "",
          "type": "bool"
        }
      ],
      "stateMutability": "view",
      "type": "function"
    },
    {
      "inputs": [
        {
          "internalType": "bytes",
          "name": "inputData",
          "type": "bytes"
        }
      ],
      "name": "receiveMessage",
      "outputs": [],
      "stateMutability": "nonpayable",
      "type": "function"
    },
    {
      "inputs": [],
      "name": "rootToken",
      "outputs": [
        {
          "internalType": "address",
          "name": "",
          "type": "address"
        }
      ],
      "stateMutability": "view",
      "type": "function"
    },
    {
      "inputs": [
        {
          "internalType": "address",
          "name": "_fxChildTunnel",
          "type": "address"
        }
      ],
      "name": "setFxChildTunnel",
      "outputs": [],
      "stateMutability": "nonpayable",
      "type": "function"
    },
    {
      "inputs": [
        {
          "internalType": "address",
          "name": "to",
          "type": "address"
        },
        {
          "internalType": "uint256",
          "name": "size",
          "type": "uint256"
        },
        {
          "internalType": "uint256",
          "name": "x",
          "type": "uint256"
        },
        {
          "internalType": "uint256",
          "name": "y",
          "type": "uint256"
        },
        {
          "internalType": "bytes",
          "name": "data",
          "type": "bytes"
        }
      ],
      "name": "transferQuadToL2",
      "outputs": [],
      "stateMutability": "nonpayable",
      "type": "function"
    }
  ],
  "transactionHash": "0xee76d2c0a4937d987af5b57590600447fe0277d418d0ad37b8edce820b0efcb2",
  "args": [
    "0x2890bA17EfE978480615e330ecB65333b880928e",
    "0x3d1d3E34f7fB6D26245E6640E1c50710eFFf15bA",
    "0x85F817921665fF27b5F3265b3B0b1B19402ed270"
  ],
  "solcInputHash": "b3d034d96ea3f35cedbc589cf6fa6821",
  "bytecode": "0x60806040523480156200001157600080fd5b506040516200235e3803806200235e833981016040819052620000349162000094565b600180546001600160a01b039485166001600160a01b031991821617909155600080549385169382169390931790925560048054919093169116179055620000dd565b80516001600160a01b03811681146200008f57600080fd5b919050565b600080600060608486031215620000a9578283fd5b620000b48462000077565b9250620000c46020850162000077565b9150620000d46040850162000077565b90509250925092565b61227180620000ed6000396000f3fe608060405234801561001057600080fd5b50600436106100be5760003560e01c8063972c492811610076578063c0857ba01161005b578063c0857ba0146101ff578063de9b771f14610212578063f953cec714610225576100be565b8063972c4928146101d9578063aea4e49e146101ec576100be565b80631f2d0065116100a75780631f2d006514610166578063607f2d421461019157806385b6f1bf146101c4576100be565b80630e387de6146100c3578063150b7a02146100fd575b600080fd5b6100ea7f8c5261668696ce22758910d05bab8f186d6eb247ceac2af2e82c7dc17669b03681565b6040519081526020015b60405180910390f35b61013561010b366004611c86565b7f150b7a020000000000000000000000000000000000000000000000000000000095945050505050565b6040517fffffffff0000000000000000000000000000000000000000000000000000000090911681526020016100f4565b600454610179906001600160a01b031681565b6040516001600160a01b0390911681526020016100f4565b6101b461019f366004611d7e565b60036020526000908152604090205460ff1681565b60405190151581526020016100f4565b6101d76101d2366004611d20565b610238565b005b600254610179906001600160a01b031681565b6101d76101fa366004611bfd565b610338565b600154610179906001600160a01b031681565b600054610179906001600160a01b031681565b6101d7610233366004611de2565b6103f6565b600480546040517f38bb305a0000000000000000000000000000000000000000000000000000000081526001600160a01b03909116916338bb305a9161028a91339130918a918a918a918a9101611ea1565b600060405180830381600087803b1580156102a457600080fd5b505af11580156102b8573d6000803e3d6000fd5b50505050600085858585856040516020016102d7959493929190611f0d565b60405160208183030381529060405290506102f181610410565b7f86beac9ed9e1aa4efb77b948567a4c352c177bb58b134f4c9d0d92c2c8ffbfb18686868686604051610328959493929190611f0d565b60405180910390a1505050505050565b6002546001600160a01b0316156103bc5760405162461bcd60e51b815260206004820152602a60248201527f467842617365526f6f7454756e6e656c3a204348494c445f54554e4e454c5f4160448201527f4c52454144595f5345540000000000000000000000000000000000000000000060648201526084015b60405180910390fd5b600280547fffffffffffffffffffffffff0000000000000000000000000000000000000000166001600160a01b0392909216919091179055565b600061040182610494565b905061040c81610ae3565b5050565b6000546002546040517fb47204770000000000000000000000000000000000000000000000000000000081526001600160a01b039283169263b47204779261045f929116908590600401611eeb565b600060405180830381600087803b15801561047957600080fd5b505af115801561048d573d6000803e3d6000fd5b5050505050565b606060006104d16104cc8460408051808201825260008082526020918201528151808301909252825182529182019181019190915290565b610bc8565b90506000610506826002815181106104f957634e487b7160e01b600052603260045260246000fd5b6020026020010151610cfa565b61053f61053a8460088151811061052d57634e487b7160e01b600052603260045260246000fd5b6020026020010151610d75565b610e20565b610563846009815181106104f957634e487b7160e01b600052603260045260246000fd5b60405160200161057593929190611e74565b60408051601f1981840301815291815281516020928301206000818152600390935291205490915060ff16156106125760405162461bcd60e51b8152602060048201526024808201527f4678526f6f7454756e6e656c3a20455849545f414c52454144595f50524f434560448201527f535345440000000000000000000000000000000000000000000000000000000060648201526084016103b3565b600081815260036020526040812080547fffffffffffffffffffffffffffffffffffffffffffffffffffffffffffffff0016600117905582516106a5906104cc90610678908690600690811061052d57634e487b7160e01b600052603260045260246000fd5b60408051808201825260008082526020918201528151808301909252825182529182019181019190915290565b905060006106da826003815181106106cd57634e487b7160e01b600052603260045260246000fd5b6020026020010151610bc8565b6106fe856009815181106104f957634e487b7160e01b600052603260045260246000fd5b8151811061071c57634e487b7160e01b600052603260045260246000fd5b60200260200101519050600061073182610bc8565b90506107648160008151811061075757634e487b7160e01b600052603260045260246000fd5b6020026020010151611047565b6002546001600160a01b039081169116146107e75760405162461bcd60e51b815260206004820152602560248201527f4678526f6f7454756e6e656c3a20494e56414c49445f46585f4348494c445f5460448201527f554e4e454c00000000000000000000000000000000000000000000000000000060648201526084016103b3565b61087f61080e8660068151811061052d57634e487b7160e01b600052603260045260246000fd5b6108328760088151811061052d57634e487b7160e01b600052603260045260246000fd5b6108568860078151811061052d57634e487b7160e01b600052603260045260246000fd5b61087a896005815181106104f957634e487b7160e01b600052603260045260246000fd5b611061565b6108f15760405162461bcd60e51b815260206004820152602360248201527f4678526f6f7454756e6e656c3a20494e56414c49445f524543454950545f505260448201527f4f4f46000000000000000000000000000000000000000000000000000000000060648201526084016103b3565b6109d7610918866002815181106104f957634e487b7160e01b600052603260045260246000fd5b61093c876003815181106104f957634e487b7160e01b600052603260045260246000fd5b610960886004815181106104f957634e487b7160e01b600052603260045260246000fd5b60001b610987896005815181106104f957634e487b7160e01b600052603260045260246000fd5b60001b6109ae8a6000815181106104f957634e487b7160e01b600052603260045260246000fd5b6109d28b60018151811061052d57634e487b7160e01b600052603260045260246000fd5b611388565b5060006109fe826001815181106106cd57634e487b7160e01b600052603260045260246000fd5b90507f8c5261668696ce22758910d05bab8f186d6eb247ceac2af2e82c7dc17669b03660001b610a48826000815181106104f957634e487b7160e01b600052603260045260246000fd5b14610a955760405162461bcd60e51b815260206004820152601f60248201527f4678526f6f7454756e6e656c3a20494e56414c49445f5349474e41545552450060448201526064016103b3565b6000610abb8360028151811061052d57634e487b7160e01b600052603260045260246000fd5b9050600081806020019051810190610ad39190611e15565b985050505050505050505b919050565b600080600080600085806020019051810190610aff9190611c19565b600480546040517f38bb305a000000000000000000000000000000000000000000000000000000008152969b5094995092975090955093506001600160a01b03909116916338bb305a91610b5f9130918a918a918a918a918a9101611ea1565b600060405180830381600087803b158015610b7957600080fd5b505af1158015610b8d573d6000803e3d6000fd5b505050507f91ee42a3ae048785d7370790775b6bf02c58c5d7bfb5de80f6d7cb27e46a207e8585858585604051610328959493929190611f0d565b6060610bd3826114d6565b610bdc57600080fd5b6000610be783611510565b905060008167ffffffffffffffff811115610c1257634e487b7160e01b600052604160045260246000fd5b604051908082528060200260200182016040528015610c5757816020015b6040805180820190915260008082526020820152815260200190600190039081610c305790505b5090506000610c698560200151611593565b8560200151610c789190611fa5565b90506000805b84811015610cef57610c8f83611618565b9150604051806040016040528083815260200184815250848281518110610cc657634e487b7160e01b600052603260045260246000fd5b6020908102919091010152610cdb8284611fa5565b925080610ce781612190565b915050610c7e565b509195945050505050565b805160009015801590610d0f57508151602110155b610d1857600080fd5b6000610d278360200151611593565b90506000818460000151610d3b9190612126565b9050600080838660200151610d509190611fa5565b9050805191506020831015610d6c57826020036101000a820491505b50949350505050565b8051606090610d8357600080fd5b6000610d928360200151611593565b90506000818460000151610da69190612126565b905060008167ffffffffffffffff811115610dd157634e487b7160e01b600052604160045260246000fd5b6040519080825280601f01601f191660200182016040528015610dfb576020820181803683370190505b5090506000816020019050610d6c848760200151610e199190611fa5565b82856116c1565b6040805160208101909152600081528151606091901561104157600080610e4860008661173b565b60f81c90506001811480610e5f57508060ff166003145b15610f3b57600185516002610e749190612107565b610e7e9190612126565b67ffffffffffffffff811115610ea457634e487b7160e01b600052604160045260246000fd5b6040519080825280601f01601f191660200182016040528015610ece576020820181803683370190505b5092506000610ede60018761173b565b90508084600081518110610f0257634e487b7160e01b600052603260045260246000fd5b60200101907effffffffffffffffffffffffffffffffffffffffffffffffffffffffffffff1916908160001a9053506001925050610fad565b600285516002610f4b9190612107565b610f559190612126565b67ffffffffffffffff811115610f7b57634e487b7160e01b600052604160045260246000fd5b6040519080825280601f01601f191660200182016040528015610fa5576020820181803683370190505b509250600091505b60ff82165b835181101561103d57610fdc610fcb60ff851683612126565b610fd6906002611fa5565b8761173b565b848281518110610ffc57634e487b7160e01b600052603260045260246000fd5b60200101907effffffffffffffffffffffffffffffffffffffffffffffffffffffffffffff1916908160001a9053508061103581612190565b915050610fb2565b5050505b92915050565b805160009060151461105857600080fd5b61104182610cfa565b6000806110958460408051808201825260008082526020918201528151808301909252825182529182019181019190915290565b905060006110a282610bc8565b9050606080856000806110b48b610e20565b90508051600014156110d0576000975050505050505050611380565b60005b86518110156113775781518311156110f657600098505050505050505050611380565b61112687828151811061111957634e487b7160e01b600052603260045260246000fd5b60200260200101516117d8565b95508580519060200120841461114757600098505050505050505050611380565b61116a8782815181106106cd57634e487b7160e01b600052603260045260246000fd5b94508451601114156112695781518314156111da578c805190602001206111ab8660108151811061052d57634e487b7160e01b600052603260045260246000fd5b8051906020012014156111c957600198505050505050505050611380565b600098505050505050505050611380565b60008284815181106111fc57634e487b7160e01b600052603260045260246000fd5b016020015160f81c905060108111156112215760009950505050505050505050611380565b611254868260ff168151811061124757634e487b7160e01b600052603260045260246000fd5b6020026020010151611860565b9450611261600185611fa5565b935050611365565b8451600214156111c95760006112a361129c8760008151811061052d57634e487b7160e01b600052603260045260246000fd5b848661188e565b83519091506112b28286611fa5565b1415611315578d805190602001206112e48760018151811061052d57634e487b7160e01b600052603260045260246000fd5b8051906020012014156113035760019950505050505050505050611380565b60009950505050505050505050611380565b8061132c5760009950505050505050505050611380565b6113368185611fa5565b935061135c8660018151811061124757634e487b7160e01b600052603260045260246000fd5b94506113659050565b8061136f81612190565b9150506110d3565b50505050505050505b949350505050565b6001546040517f41539d4a000000000000000000000000000000000000000000000000000000008152600481018490526000918291829182916001600160a01b03909116906341539d4a9060240160a06040518083038186803b1580156113ee57600080fd5b505afa158015611402573d6000803e3d6000fd5b505050506040513d601f19601f820116820180604052508101906114269190611d96565b509350509250925061147d828b61143d9190612126565b6040805160208082018f90528183018e9052606082018d905260808083018d90528351808403909101815260a090920190925280519101209085886119f3565b6114c95760405162461bcd60e51b815260206004820152601c60248201527f4678526f6f7454756e6e656c3a20494e56414c49445f4845414445520000000060448201526064016103b3565b9998505050505050505050565b80516000906114e757506000610ade565b6020820151805160001a9060c082101561150657600092505050610ade565b5060019392505050565b805160009061152157506000610ade565b6000806115318460200151611593565b84602001516115409190611fa5565b90506000846000015185602001516115589190611fa5565b90505b8082101561158a5761156c82611618565b6115769083611fa5565b91508261158281612190565b93505061155b565b50909392505050565b8051600090811a60808110156115ad576000915050610ade565b60b88110806115c8575060c081108015906115c8575060f881105b156115d7576001915050610ade565b60c081101561160c576115ec600160b861213d565b6115f99060ff1682612126565b611604906001611fa5565b915050610ade565b6115ec600160f861213d565b80516000908190811a608081101561163357600191506116ba565b60b881101561165957611647608082612126565b611652906001611fa5565b91506116ba565b60c08110156116865760b78103600185019450806020036101000a855104600182018101935050506116ba565b60f881101561169a5761164760c082612126565b60f78103600185019450806020036101000a855104600182018101935050505b5092915050565b806116cb57611736565b6020811061170357825182526116e2602084611fa5565b92506116ef602083611fa5565b91506116fc602082612126565b90506116cb565b60006001611712836020612126565b61171e90610100612039565b6117289190612126565b845184518216911916178352505b505050565b60006117486002846121ab565b156117905760108261175b600286611fbd565b8151811061177957634e487b7160e01b600052603260045260246000fd5b016020015161178b919060f81c6121bf565b6117ce565b60108261179e600286611fbd565b815181106117bc57634e487b7160e01b600052603260045260246000fd5b01602001516117ce919060f81c611fd1565b60f81b9392505050565b60606000826000015167ffffffffffffffff81111561180757634e487b7160e01b600052604160045260246000fd5b6040519080825280601f01601f191660200182016040528015611831576020820181803683370190505b509050805160001415611845579050610ade565b60008160200190506116ba84602001518286600001516116c1565b805160009060211461187157600080fd5b600080836020015160016118859190611fa5565b51949350505050565b6000808061189b86610e20565b90506000815167ffffffffffffffff8111156118c757634e487b7160e01b600052604160045260246000fd5b6040519080825280601f01601f1916602001820160405280156118f1576020820181803683370190505b509050845b82516119029087611fa5565b8110156119c157600087828151811061192b57634e487b7160e01b600052603260045260246000fd5b01602001517fff0000000000000000000000000000000000000000000000000000000000000016905080836119608985612126565b8151811061197e57634e487b7160e01b600052603260045260246000fd5b60200101907effffffffffffffffffffffffffffffffffffffffffffffffffffffffffffff1916908160001a9053505080806119b990612190565b9150506118f6565b508080519060200120828051906020012014156119e157815192506119e6565b600092505b50909150505b9392505050565b600060208251611a0391906121ab565b15611a505760405162461bcd60e51b815260206004820152601460248201527f496e76616c69642070726f6f66206c656e67746800000000000000000000000060448201526064016103b3565b600060208351611a609190611fbd565b9050611a6d816002612039565b8510611abb5760405162461bcd60e51b815260206004820152601560248201527f4c65616620696e64657820697320746f6f20626967000000000000000000000060448201526064016103b3565b60008660205b85518111611b5b57858101519250611ada6002896121ab565b611b0f576040805160208101849052908101849052606001604051602081830303815290604052805190602001209150611b3c565b60408051602081018590529081018390526060016040516020818303038152906040528051906020012091505b611b47600289611fbd565b9750611b54602082611fa5565b9050611ac1565b509094149695505050505050565b600082601f830112611b79578081fd5b8135611b8c611b8782611f7d565b611f4c565b818152846020838601011115611ba0578283fd5b816020850160208301379081016020019190915292915050565b600082601f830112611bca578081fd5b8151611bd8611b8782611f7d565b818152846020838601011115611bec578283fd5b611380826020830160208701612160565b600060208284031215611c0e578081fd5b81356119ec81612223565b600080600080600060a08688031215611c30578081fd5b8551611c3b81612223565b80955050602086015193506040860151925060608601519150608086015167ffffffffffffffff811115611c6d578182fd5b611c7988828901611bba565b9150509295509295909350565b600080600080600060808688031215611c9d578081fd5b8535611ca881612223565b94506020860135611cb881612223565b935060408601359250606086013567ffffffffffffffff80821115611cdb578283fd5b818801915088601f830112611cee578283fd5b813581811115611cfc578384fd5b896020828501011115611d0d578384fd5b9699959850939650602001949392505050565b600080600080600060a08688031215611d37578081fd5b8535611d4281612223565b9450602086013593506040860135925060608601359150608086013567ffffffffffffffff811115611d72578182fd5b611c7988828901611b69565b600060208284031215611d8f578081fd5b5035919050565b600080600080600060a08688031215611dad578081fd5b855194506020860151935060408601519250606086015191506080860151611dd481612223565b809150509295509295909350565b600060208284031215611df3578081fd5b813567ffffffffffffffff811115611e09578182fd5b61138084828501611b69565b600060208284031215611e26578081fd5b815167ffffffffffffffff811115611e3c578182fd5b61138084828501611bba565b60008151808452611e60816020860160208601612160565b601f01601f19169290920160200192915050565b60008482528351611e8c816020850160208801612160565b60209201918201929092526040019392505050565b60006001600160a01b03808916835280881660208401525085604083015284606083015283608083015260c060a0830152611edf60c0830184611e48565b98975050505050505050565b60006001600160a01b0384168252604060208301526113806040830184611e48565b60006001600160a01b038716825285602083015284604083015283606083015260a06080830152611f4160a0830184611e48565b979650505050505050565b604051601f8201601f1916810167ffffffffffffffff81118282101715611f7557611f7561220d565b604052919050565b600067ffffffffffffffff821115611f9757611f9761220d565b50601f01601f191660200190565b60008219821115611fb857611fb86121e1565b500190565b600082611fcc57611fcc6121f7565b500490565b600060ff831680611fe457611fe46121f7565b8060ff84160491505092915050565b80825b60018086116120055750612030565b818704821115612017576120176121e1565b8086161561202457918102915b9490941c938002611ff6565b94509492505050565b60006119ec6000198484600082612052575060016119ec565b8161205f575060006119ec565b8160018114612075576002811461207f576120ac565b60019150506119ec565b60ff841115612090576120906121e1565b6001841b9150848211156120a6576120a66121e1565b506119ec565b5060208310610133831016604e8410600b84101617156120df575081810a838111156120da576120da6121e1565b6119ec565b6120ec8484846001611ff3565b8086048211156120fe576120fe6121e1565b02949350505050565b6000816000190483118215151615612121576121216121e1565b500290565b600082821015612138576121386121e1565b500390565b600060ff821660ff841680821015612157576121576121e1565b90039392505050565b60005b8381101561217b578181015183820152602001612163565b8381111561218a576000848401525b50505050565b60006000198214156121a4576121a46121e1565b5060010190565b6000826121ba576121ba6121f7565b500690565b600060ff8316806121d2576121d26121f7565b8060ff84160691505092915050565b634e487b7160e01b600052601160045260246000fd5b634e487b7160e01b600052601260045260246000fd5b634e487b7160e01b600052604160045260246000fd5b6001600160a01b038116811461223857600080fd5b5056fea2646970667358221220a6f7aad7d1a4efac136c4e314318175dc283c9b75f49f5185c7182d2d3c78eb764736f6c63430008020033",
  "devdoc": {
    "kind": "dev",
    "methods": {
      "receiveMessage(bytes)": {
        "details": "This function verifies if the transaction actually happened on child chain",
        "params": {
          "inputData": "RLP encoded data of the reference tx containing following list of fields  0 - headerNumber - Checkpoint header block number containing the reference tx  1 - blockProof - Proof that the block header (in the child chain) is a leaf in the submitted merkle root  2 - blockNumber - Block number containing the reference tx on child chain  3 - blockTime - Reference tx block time  4 - txRoot - Transactions root of block  5 - receiptRoot - Receipts root of block  6 - receipt - Receipt of the reference transaction  7 - receiptProof - Merkle proof of the reference receipt  8 - branchMask - 32 bits denoting the path of receipt in merkle tree  9 - receiptLogIndex - Log Index to read from the receipt"
        }
      }
    },
    "version": 1
  },
  "userdoc": {
    "kind": "user",
    "methods": {
      "receiveMessage(bytes)": {
        "notice": "receive message from  L2 to L1, validated by proof"
      }
    },
    "version": 1
  },
  "storageLayout": {
    "storage": [
      {
        "astId": 3380,
        "contract": "src/solc_0.8/polygon/root/land/LandTunnel.sol:LandTunnel",
        "label": "fxRoot",
        "offset": 0,
        "slot": "0",
        "type": "t_contract(IFxStateSender)3346"
      },
      {
        "astId": 3383,
        "contract": "src/solc_0.8/polygon/root/land/LandTunnel.sol:LandTunnel",
        "label": "checkpointManager",
        "offset": 0,
        "slot": "1",
        "type": "t_contract(ICheckpointManager)3364"
      },
      {
        "astId": 3385,
        "contract": "src/solc_0.8/polygon/root/land/LandTunnel.sol:LandTunnel",
        "label": "fxChildTunnel",
        "offset": 0,
        "slot": "2",
        "type": "t_address"
      },
      {
        "astId": 3389,
        "contract": "src/solc_0.8/polygon/root/land/LandTunnel.sol:LandTunnel",
        "label": "processedExits",
        "offset": 0,
        "slot": "3",
        "type": "t_mapping(t_bytes32,t_bool)"
      },
      {
        "astId": 34457,
        "contract": "src/solc_0.8/polygon/root/land/LandTunnel.sol:LandTunnel",
        "label": "rootToken",
        "offset": 0,
        "slot": "4",
        "type": "t_address"
      }
    ],
    "types": {
      "t_address": {
        "encoding": "inplace",
        "label": "address",
        "numberOfBytes": "20"
      },
      "t_bool": {
        "encoding": "inplace",
        "label": "bool",
        "numberOfBytes": "1"
      },
      "t_bytes32": {
        "encoding": "inplace",
        "label": "bytes32",
        "numberOfBytes": "32"
      },
      "t_contract(ICheckpointManager)3364": {
        "encoding": "inplace",
        "label": "contract ICheckpointManager",
        "numberOfBytes": "20"
      },
      "t_contract(IFxStateSender)3346": {
        "encoding": "inplace",
        "label": "contract IFxStateSender",
        "numberOfBytes": "20"
      },
      "t_mapping(t_bytes32,t_bool)": {
        "encoding": "mapping",
        "key": "t_bytes32",
        "label": "mapping(bytes32 => bool)",
        "numberOfBytes": "32",
        "value": "t_bool"
      }
    }
  }
}