{
  "address": "0x6248a2348e38a25eC93D7615424A77c0649a78d9",
  "abi": [
    {
      "inputs": [
        {
          "internalType": "address",
          "name": "landAddress",
          "type": "address"
        },
        {
          "internalType": "address",
          "name": "sandContractAddress",
          "type": "address"
        },
        {
          "internalType": "address",
          "name": "initialMetaTx",
          "type": "address"
        },
        {
          "internalType": "address",
          "name": "admin",
          "type": "address"
        },
        {
          "internalType": "address payable",
          "name": "initialWalletAddress",
          "type": "address"
        },
        {
          "internalType": "bytes32",
          "name": "merkleRoot",
          "type": "bytes32"
        },
        {
          "internalType": "uint256",
          "name": "expiryTime",
          "type": "uint256"
        },
        {
          "internalType": "address",
          "name": "initialSigningWallet",
          "type": "address"
        },
        {
          "internalType": "uint256",
          "name": "initialMaxCommissionRate",
          "type": "uint256"
        },
        {
          "internalType": "address",
          "name": "estate",
          "type": "address"
        },
        {
          "internalType": "address",
          "name": "asset",
          "type": "address"
        },
        {
          "internalType": "address",
          "name": "feeDistributor",
          "type": "address"
        }
      ],
      "stateMutability": "nonpayable",
      "type": "constructor"
    },
    {
      "anonymous": false,
      "inputs": [
        {
          "indexed": false,
          "internalType": "address",
          "name": "oldAdmin",
          "type": "address"
        },
        {
          "indexed": false,
          "internalType": "address",
          "name": "newAdmin",
          "type": "address"
        }
      ],
      "name": "AdminChanged",
      "type": "event"
    },
    {
      "anonymous": false,
      "inputs": [
        {
          "indexed": true,
          "internalType": "address",
          "name": "buyer",
          "type": "address"
        },
        {
          "indexed": true,
          "internalType": "address",
          "name": "to",
          "type": "address"
        },
        {
          "indexed": true,
          "internalType": "uint256",
          "name": "topCornerId",
          "type": "uint256"
        },
        {
          "indexed": false,
          "internalType": "uint256",
          "name": "size",
          "type": "uint256"
        },
        {
          "indexed": false,
          "internalType": "uint256",
          "name": "price",
          "type": "uint256"
        },
        {
          "indexed": false,
          "internalType": "address",
          "name": "token",
          "type": "address"
        },
        {
          "indexed": false,
          "internalType": "uint256",
          "name": "amountPaid",
          "type": "uint256"
        }
      ],
      "name": "LandQuadPurchased",
      "type": "event"
    },
    {
      "anonymous": false,
      "inputs": [
        {
          "indexed": false,
          "internalType": "address",
          "name": "metaTransactionProcessor",
          "type": "address"
        },
        {
          "indexed": false,
          "internalType": "bool",
          "name": "enabled",
          "type": "bool"
        }
      ],
      "name": "MetaTransactionProcessor",
      "type": "event"
    },
    {
      "anonymous": false,
      "inputs": [
        {
          "indexed": true,
          "internalType": "address",
          "name": "referrer",
          "type": "address"
        },
        {
          "indexed": true,
          "internalType": "address",
          "name": "referee",
          "type": "address"
        },
        {
          "indexed": true,
          "internalType": "address",
          "name": "token",
          "type": "address"
        },
        {
          "indexed": false,
          "internalType": "uint256",
          "name": "amount",
          "type": "uint256"
        },
        {
          "indexed": false,
          "internalType": "uint256",
          "name": "commission",
          "type": "uint256"
        },
        {
          "indexed": false,
          "internalType": "uint256",
          "name": "commissionRate",
          "type": "uint256"
        }
      ],
      "name": "ReferralUsed",
      "type": "event"
    },
    {
      "inputs": [
        {
          "internalType": "address",
          "name": "buyer",
          "type": "address"
        },
        {
          "internalType": "address",
          "name": "to",
          "type": "address"
        },
        {
          "internalType": "address",
          "name": "reserved",
          "type": "address"
        },
        {
          "internalType": "uint256",
          "name": "x",
          "type": "uint256"
        },
        {
          "internalType": "uint256",
          "name": "y",
          "type": "uint256"
        },
        {
          "internalType": "uint256",
          "name": "size",
          "type": "uint256"
        },
        {
          "internalType": "uint256",
          "name": "priceInSand",
          "type": "uint256"
        },
        {
          "internalType": "uint256",
          "name": "adjustedPriceInSand",
          "type": "uint256"
        },
        {
          "internalType": "bytes32",
          "name": "salt",
          "type": "bytes32"
        },
        {
          "internalType": "uint256[]",
          "name": "assetIds",
          "type": "uint256[]"
        },
        {
          "internalType": "bytes32[]",
          "name": "proof",
          "type": "bytes32[]"
        },
        {
          "internalType": "bytes",
          "name": "referral",
          "type": "bytes"
        }
      ],
      "name": "buyLandWithSand",
      "outputs": [],
      "stateMutability": "nonpayable",
      "type": "function"
    },
    {
      "inputs": [
        {
          "internalType": "address",
          "name": "newAdmin",
          "type": "address"
        }
      ],
      "name": "changeAdmin",
      "outputs": [],
      "stateMutability": "nonpayable",
      "type": "function"
    },
    {
      "inputs": [
        {
          "internalType": "bytes",
          "name": "referral",
          "type": "bytes"
        }
      ],
      "name": "decodeReferral",
      "outputs": [
        {
          "internalType": "bytes",
          "name": "",
          "type": "bytes"
        },
        {
          "internalType": "address",
          "name": "",
          "type": "address"
        },
        {
          "internalType": "address",
          "name": "",
          "type": "address"
        },
        {
          "internalType": "uint256",
          "name": "",
          "type": "uint256"
        },
        {
          "internalType": "uint256",
          "name": "",
          "type": "uint256"
        }
      ],
      "stateMutability": "pure",
      "type": "function"
    },
    {
      "inputs": [],
      "name": "getAdmin",
      "outputs": [
        {
          "internalType": "address",
          "name": "",
          "type": "address"
        }
      ],
      "stateMutability": "view",
      "type": "function"
    },
    {
      "inputs": [],
      "name": "getExpiryTime",
      "outputs": [
        {
          "internalType": "uint256",
          "name": "",
          "type": "uint256"
        }
      ],
      "stateMutability": "view",
      "type": "function"
    },
    {
      "inputs": [],
      "name": "getMaxCommisionRate",
      "outputs": [
        {
          "internalType": "uint256",
          "name": "",
          "type": "uint256"
        }
      ],
      "stateMutability": "view",
      "type": "function"
    },
    {
      "inputs": [],
      "name": "getMerkleRoot",
      "outputs": [
        {
          "internalType": "bytes32",
          "name": "",
          "type": "bytes32"
        }
      ],
      "stateMutability": "view",
      "type": "function"
    },
    {
      "inputs": [],
      "name": "getSandMultiplier",
      "outputs": [
        {
          "internalType": "uint256",
          "name": "",
          "type": "uint256"
        }
      ],
      "stateMutability": "view",
      "type": "function"
    },
    {
      "inputs": [],
      "name": "getSigningWallet",
      "outputs": [
        {
          "internalType": "address",
          "name": "",
          "type": "address"
        }
      ],
      "stateMutability": "view",
      "type": "function"
    },
    {
      "inputs": [
        {
          "internalType": "address",
          "name": "who",
          "type": "address"
        }
      ],
      "name": "isMetaTransactionProcessor",
      "outputs": [
        {
          "internalType": "bool",
          "name": "",
          "type": "bool"
        }
      ],
      "stateMutability": "view",
      "type": "function"
    },
    {
      "inputs": [
        {
          "internalType": "bytes",
          "name": "signature",
          "type": "bytes"
        },
        {
          "internalType": "address",
          "name": "referrer",
          "type": "address"
        },
        {
          "internalType": "address",
          "name": "referee",
          "type": "address"
        },
        {
          "internalType": "uint256",
          "name": "expiryTime",
          "type": "uint256"
        },
        {
          "internalType": "uint256",
          "name": "commissionRate",
          "type": "uint256"
        }
      ],
      "name": "isReferralValid",
      "outputs": [
        {
          "internalType": "bool",
          "name": "",
          "type": "bool"
        }
      ],
      "stateMutability": "view",
      "type": "function"
    },
    {
      "inputs": [
        {
          "internalType": "address",
          "name": "",
          "type": "address"
        },
        {
          "internalType": "address",
          "name": "",
          "type": "address"
        },
        {
          "internalType": "uint256[]",
          "name": "",
          "type": "uint256[]"
        },
        {
          "internalType": "uint256[]",
          "name": "",
          "type": "uint256[]"
        },
        {
          "internalType": "bytes",
          "name": "",
          "type": "bytes"
        }
      ],
      "name": "onERC1155BatchReceived",
      "outputs": [
        {
          "internalType": "bytes4",
          "name": "",
          "type": "bytes4"
        }
      ],
      "stateMutability": "pure",
      "type": "function"
    },
    {
      "inputs": [
        {
          "internalType": "address",
          "name": "",
          "type": "address"
        },
        {
          "internalType": "address",
          "name": "",
          "type": "address"
        },
        {
          "internalType": "uint256",
          "name": "",
          "type": "uint256"
        },
        {
          "internalType": "uint256",
          "name": "",
          "type": "uint256"
        },
        {
          "internalType": "bytes",
          "name": "",
          "type": "bytes"
        }
      ],
      "name": "onERC1155Received",
      "outputs": [
        {
          "internalType": "bytes4",
          "name": "",
          "type": "bytes4"
        }
      ],
      "stateMutability": "pure",
      "type": "function"
    },
    {
      "inputs": [
        {
          "internalType": "uint256",
          "name": "newMultiplier",
          "type": "uint256"
        }
      ],
      "name": "rebalanceSand",
      "outputs": [],
      "stateMutability": "nonpayable",
      "type": "function"
    },
    {
      "inputs": [
        {
          "internalType": "address",
          "name": "metaTransactionProcessor",
          "type": "address"
        },
        {
          "internalType": "bool",
          "name": "enabled",
          "type": "bool"
        }
      ],
      "name": "setMetaTransactionProcessor",
      "outputs": [],
      "stateMutability": "nonpayable",
      "type": "function"
    },
    {
      "inputs": [
        {
          "internalType": "address payable",
          "name": "newWallet",
          "type": "address"
        }
      ],
      "name": "setReceivingWallet",
      "outputs": [],
      "stateMutability": "nonpayable",
      "type": "function"
    },
    {
      "inputs": [
        {
          "internalType": "uint256",
          "name": "newMaxCommissionRate",
          "type": "uint256"
        }
      ],
      "name": "updateMaxCommissionRate",
      "outputs": [],
      "stateMutability": "nonpayable",
      "type": "function"
    },
    {
      "inputs": [
        {
          "internalType": "address",
          "name": "newSigningWallet",
          "type": "address"
        }
      ],
      "name": "updateSigningWallet",
      "outputs": [],
      "stateMutability": "nonpayable",
      "type": "function"
    },
    {
      "inputs": [
        {
          "internalType": "address",
          "name": "to",
          "type": "address"
        },
        {
          "internalType": "uint256[]",
          "name": "assetIds",
          "type": "uint256[]"
        },
        {
          "internalType": "uint256[]",
          "name": "values",
          "type": "uint256[]"
        }
      ],
      "name": "withdrawAssets",
      "outputs": [],
      "stateMutability": "nonpayable",
      "type": "function"
    }
  ],
  "transactionHash": "0x835e8066a94cfb5c9fff12352af827e4e4a0b8179dee853e7e94744d07df38fb",
  "args": [
    "0xe6E355cc64B67C514e1596719b872ba12A99dA83",
    "0x156eA95C83dF7c5E862b93623c004Ed318C9D69e",
    "0x156eA95C83dF7c5E862b93623c004Ed318C9D69e",
    "0xa4519D601F43D0b8f167842a367465681F652252",
    "0x60927eB036621b801491B6c5e9A60A8d2dEeD75A",
    "0xac339f743e6eeec524ef771f03578416f96fc19fdcdcc1cc7f830fcc5cba673b",
    1646312400,
    "0xB7060D3FeCAC3AE1F0A0AA416E3e8E472257950e",
    2000,
    "0x0000000000000000000000000000000000000000",
    "0xCA0e265A6A5bFD6c7952D993AB8Ef62BAa7A4b8a",
    "0x0977f5050c8158b277F93216f851e83a467ED9c9"
  ],
  "linkedData": [
    {
      "x": 31,
      "y": 84,
      "size": 1,
      "price": "1011000000000000000000",
      "reserved": "",
      "salt": "0xd0f183cc3c4801505fa2fc4d91e5f1640fda8e2fbc87b8827d592cedcb958967",
      "assetIds": []
    },
    {
      "x": 31,
      "y": 85,
      "size": 1,
      "price": "1011000000000000000000",
      "reserved": "",
      "salt": "0x4f339cebcedf55856f16c68df2a332ebc84c2fa4b8f9d943b519340108b8ac46",
      "assetIds": []
    },
    {
      "x": 31,
      "y": 86,
      "size": 1,
      "price": "1011000000000000000000",
      "reserved": "",
      "salt": "0x170cf7695dbb339721db817cee36cce3b08331beca03c4b47a7c602cda7b78ed",
      "assetIds": []
    },
    {
      "x": 32,
      "y": 86,
      "size": 1,
      "price": "1011000000000000000000",
      "reserved": "",
      "salt": "0x7adaaa9d37646ae76cd845e37db9901b457862b1c32d2d680a4e7e271183188c",
      "assetIds": []
    },
    {
      "x": 33,
      "y": 86,
      "size": 1,
      "price": "1011000000000000000000",
      "reserved": "",
      "salt": "0xe224389d222423f8ae73fbee7dbc49eb61090c6a31646e8714e643fb6ba2aed0",
      "assetIds": []
    },
    {
      "x": 34,
      "y": 86,
      "size": 1,
      "price": "1011000000000000000000",
      "reserved": "",
      "salt": "0x5bcc4dcd176b4050517a1862e80fc83676a6796e7cb1567ce0e29095560f998d",
      "assetIds": []
    },
    {
      "x": 35,
      "y": 86,
      "size": 1,
      "price": "1011000000000000000000",
      "reserved": "",
      "salt": "0x90776e3b3c58576704433a400088ec8b8ba4a5d00c987dd1c6e91c976b294b93",
      "assetIds": []
    },
    {
      "x": 30,
      "y": 84,
      "size": 1,
      "price": "1011000000000000000000",
      "reserved": "",
      "salt": "0xc08ead43a6c24e6eb102734d63b02c44d31a3701fbb4f11ce6296bc6f9b4c0fb",
      "assetIds": []
    },
    {
      "x": 30,
      "y": 85,
      "size": 1,
      "price": "1011000000000000000000",
      "reserved": "",
      "salt": "0x3b16c1fbea727ebe2acbf5d5d987f7df6ef58dd73bf07e2df46060b498a887a9",
      "assetIds": []
    },
    {
      "x": 30,
      "y": 86,
      "size": 1,
      "price": "1011000000000000000000",
      "reserved": "",
      "salt": "0x48249f190aa139357e05f67f8101d80a624879e0d0ad6ead0591d41be60c1d1d",
      "assetIds": []
    },
    {
      "x": 30,
      "y": 87,
      "size": 1,
      "price": "1011000000000000000000",
      "reserved": "",
      "salt": "0x4e41c0f2703c00a5b328bda2538c8363f5d9134148c9d720f406be9ac5b610d5",
      "assetIds": []
    },
    {
      "x": 30,
      "y": 88,
      "size": 1,
      "price": "1011000000000000000000",
      "reserved": "",
      "salt": "0x3b7b828910dfa312d25fa191f0f8a5ed61eaa0bccf95093068dc8b03e13be84a",
      "assetIds": []
    },
    {
      "x": 30,
      "y": 89,
      "size": 1,
      "price": "1011000000000000000000",
      "reserved": "",
      "salt": "0x143e14684aface493177ba19af1a75a041674da32435b3927f5c73307c7fc2af",
      "assetIds": []
    },
    {
      "x": 31,
      "y": 89,
      "size": 1,
      "price": "1011000000000000000000",
      "reserved": "",
      "salt": "0x31661846600503fddac3c1c031c0cec496919166aef0d3543a0301c6d1c0ba01",
      "assetIds": []
    },
    {
      "x": 31,
      "y": 90,
      "size": 1,
      "price": "1011000000000000000000",
      "reserved": "",
      "salt": "0xc02f975af4e3a5b4ba7c8c2419edebf8f50b4dc1a47cc042c36e75f7306f357d",
      "assetIds": []
    },
    {
      "x": 31,
      "y": 91,
      "size": 1,
      "price": "1011000000000000000000",
      "reserved": "",
      "salt": "0x53cc6f08770ed9a106d071689a10804453f5daab4c1f718c074b43d09847dc7a",
      "assetIds": []
    },
    {
      "x": 31,
      "y": 92,
      "size": 1,
      "price": "1011000000000000000000",
      "reserved": "",
      "salt": "0x4336f0fe1a4bc0bb81f7e65fe8af882e525f1204bb3ed476ff5c35ced7e2641e",
      "assetIds": []
    },
    {
      "x": 32,
      "y": 92,
      "size": 1,
      "price": "1011000000000000000000",
      "reserved": "",
      "salt": "0x7630cd65bf45cf0490cd60991b7b96669a9bb9a2f4240fda2b1a6168eb30c605",
      "assetIds": []
    },
    {
      "x": 32,
      "y": 93,
      "size": 1,
      "price": "1011000000000000000000",
      "reserved": "",
      "salt": "0x48d8c394165958d280d0e1ba5c3bfc3ca643d2e884e686afdf571016a4c5a434",
      "assetIds": []
    },
    {
      "x": 31,
      "y": 93,
      "size": 1,
      "price": "1011000000000000000000",
      "reserved": "",
      "salt": "0x18fb0ace6bc2b282e5c04b1bc4a5480976dc52f4d4d3ac800315ee7f561a1f5b",
      "assetIds": []
    },
    {
      "x": 31,
      "y": 94,
      "size": 1,
      "price": "1011000000000000000000",
      "reserved": "",
      "salt": "0x051edca2bbea1bc27cf585a9f79e804f4072735a39a513460e1a8a059d96b120",
      "assetIds": []
    },
    {
      "x": 31,
      "y": 95,
      "size": 1,
      "price": "1011000000000000000000",
      "reserved": "",
      "salt": "0x2c0874088820940b1dd7b5daf385df47335ca3cf5f103a766972595a1f26a554",
      "assetIds": []
    },
    {
      "x": 30,
      "y": 95,
      "size": 1,
      "price": "1011000000000000000000",
      "reserved": "",
      "salt": "0xe1162e6dd389fa2b069450b5ebaf4ba2b4a56c9e44640eb186159918ac01a589",
      "assetIds": []
    },
    {
      "x": 32,
      "y": 95,
      "size": 1,
      "price": "1011000000000000000000",
      "reserved": "",
      "salt": "0x1fe14956f66e4fe8fc4faeff29fb15cf89c2736ac0151b845a9354b76bdf78dc",
      "assetIds": []
    },
    {
      "x": 33,
      "y": 95,
      "size": 1,
      "price": "1011000000000000000000",
      "reserved": "",
      "salt": "0x4f6ba8960891178dabb325bce6028a4168f8870f9920ec892039476acbccdd53",
      "assetIds": []
    },
    {
      "x": 34,
      "y": 95,
      "size": 1,
      "price": "1011000000000000000000",
      "reserved": "",
      "salt": "0x79aa249699a79c17a32488e77caafb443133b5f8f5c8bb2597436f3515f8db20",
      "assetIds": []
    },
    {
      "x": 35,
      "y": 95,
      "size": 1,
      "price": "1011000000000000000000",
      "reserved": "",
      "salt": "0x976d98b6228971835bf34b231ca4380313930fda848c1122483be3061ec237b5",
      "assetIds": []
    },
    {
      "x": 35,
      "y": 94,
      "size": 1,
      "price": "1011000000000000000000",
      "reserved": "",
      "salt": "0x418817a43ae0a01651a2355cd402df1d14af46e4b95945b1b58d889f73f3a670",
      "assetIds": []
    },
    {
      "x": 35,
      "y": 93,
      "size": 1,
      "price": "1011000000000000000000",
      "reserved": "",
      "salt": "0x1a3750496222040ab3804f38fefdc4d725a4d817fc7dc66832b9e38d26c90cd8",
      "assetIds": []
    },
    {
      "x": 35,
      "y": 92,
      "size": 1,
      "price": "1011000000000000000000",
      "reserved": "",
      "salt": "0x87c040d8f3dd831002faf29748fdd3274f1f7037136fdb64b1167d298980925f",
      "assetIds": []
    },
    {
      "x": 35,
      "y": 91,
      "size": 1,
      "price": "1011000000000000000000",
      "reserved": "",
      "salt": "0x3bf1cf48e0050ad6ab36572f5f5338bac5403b007a3f5d68fcaf2093710ee518",
      "assetIds": []
    },
    {
      "x": 35,
      "y": 90,
      "size": 1,
      "price": "1011000000000000000000",
      "reserved": "",
      "salt": "0xb12a8e73e8105e5bd866b83dfbec4dd048f5f77df0e27f6a9091625dbcd43ed5",
      "assetIds": []
    },
    {
      "x": 32,
      "y": 89,
      "size": 1,
      "price": "1011000000000000000000",
      "reserved": "",
      "salt": "0xd3e3970943b0671c234adc1deed7b1d407d6b105ccf5af6a0fa22dc30015eb08",
      "assetIds": []
    },
    {
      "x": 32,
      "y": 88,
      "size": 1,
      "price": "1011000000000000000000",
      "reserved": "",
      "salt": "0x212bb2a1a420338f852fcbd77ec8b75f6cd24bb4b2d7ca28776dcceb5453927c",
      "assetIds": []
    },
    {
      "x": 31,
      "y": 88,
      "size": 1,
      "price": "1011000000000000000000",
      "reserved": "",
      "salt": "0xa0320d17f9c08c61aaff335f7e1e7895fa35343189351789d3b0749fe6ed0437",
      "assetIds": []
    },
    {
      "x": 31,
      "y": 87,
      "size": 1,
      "price": "1011000000000000000000",
      "reserved": "",
      "salt": "0x95448205832c03b0b3b7327da55e9189a635e5534d26ab8c11cb34b044645cfe",
      "assetIds": []
    },
    {
      "x": 30,
      "y": 90,
      "size": 1,
      "price": "1011000000000000000000",
      "reserved": "",
      "salt": "0x10df7635cdc9413f78b053215657e440200bb73e163a0fbda768411acff65a29",
      "assetIds": []
    },
    {
      "x": 30,
      "y": 91,
      "size": 1,
      "price": "1011000000000000000000",
      "reserved": "",
      "salt": "0xe0ec1d5b529f30ffe6d4a011f7ebe4eb761e8411a04ec9aecc9467bb06f07a58",
      "assetIds": []
    },
    {
      "x": 30,
      "y": 92,
      "size": 1,
      "price": "1011000000000000000000",
      "reserved": "",
      "salt": "0xa1490d1a8cb5edf4c9bc416b0c491748b83a3dcb67a5d40e9eaa1968e950350b",
      "assetIds": []
    },
    {
      "x": 30,
      "y": 93,
      "size": 1,
      "price": "1011000000000000000000",
      "reserved": "",
      "salt": "0x4fab225c42f91d9b5d63188e0573eb0f19aab175d9a047d98abdce99ee959e0c",
      "assetIds": []
    },
    {
      "x": 32,
      "y": 94,
      "size": 1,
      "price": "1011000000000000000000",
      "reserved": "",
      "salt": "0x88ab2c05ba5d72011d6a0d0883c49067c90fc9a0af23f186393b9ef471132002",
      "assetIds": []
    },
    {
      "x": 33,
      "y": 92,
      "size": 1,
      "price": "1011000000000000000000",
      "reserved": "",
      "salt": "0x92747c0781c4c07b55fa890f1c4c28b807cd5a17ca51d2e59965e5a2c80349c6",
      "assetIds": []
    },
    {
      "x": 34,
      "y": 92,
      "size": 1,
      "price": "1011000000000000000000",
      "reserved": "",
      "salt": "0x7e91c8bb8f76afc2790fca2ef8f3bf1ae2f5c2ac11bb6816fdaa090a521ad3b6",
      "assetIds": []
    },
    {
      "x": 34,
      "y": 91,
      "size": 1,
      "price": "1011000000000000000000",
      "reserved": "",
      "salt": "0x7e3aeca0bc20df6538e089302c3e5d1cce24a7eb41e800e7581184de2c9591a7",
      "assetIds": []
    },
    {
      "x": 34,
      "y": 90,
      "size": 1,
      "price": "1011000000000000000000",
      "reserved": "",
      "salt": "0xb8ea1397ed4b701d31fd92e1de0e581f54ff5ec6431491b6ae5e090f04f50fb4",
      "assetIds": []
    },
    {
      "x": 32,
      "y": 90,
      "size": 1,
      "price": "1011000000000000000000",
      "reserved": "",
      "salt": "0x5bf606a4c7ed6638d0356a070db2406c5ee6f8560045b026646e1d270bcf3af0",
      "assetIds": []
    },
    {
      "x": 32,
      "y": 91,
      "size": 1,
      "price": "1011000000000000000000",
      "reserved": "",
      "salt": "0x126c5f704bc050183da8020b8fa9cce1e90b9a3975127cec8dc02f85477ba08a",
      "assetIds": []
    },
    {
      "x": 33,
      "y": 91,
      "size": 1,
      "price": "1011000000000000000000",
      "reserved": "",
      "salt": "0x801b5a6dc58f45f9a2b38ffe7ce879d25ebf28dc6fa630ae27a037707d132f47",
      "assetIds": []
    },
    {
      "x": 33,
      "y": 90,
      "size": 1,
      "price": "1011000000000000000000",
      "reserved": "",
      "salt": "0x296a892756f2096332c3f25eb21a7e51600e51ade16f1a07fe22d6a0ed566816",
      "assetIds": []
    },
    {
      "x": 32,
      "y": 87,
      "size": 1,
      "price": "1011000000000000000000",
      "reserved": "",
      "salt": "0xe0ba84ad0e538fcef0599997265532c1fbdc5b8d69e92e3c43394523b5d8d582",
      "assetIds": []
    },
    {
      "x": 30,
      "y": 94,
      "size": 1,
      "price": "1011000000000000000000",
      "reserved": "",
      "salt": "0x1024150eb14fe994559303fbfab7dc6c6e8040619c5f4276818cb4da64a89381",
      "assetIds": []
    },
    {
      "x": 33,
      "y": 94,
      "size": 1,
      "price": "1011000000000000000000",
      "reserved": "",
      "salt": "0x204f40dd6433a9a327a77e4a8b8615e5970deb85db166dad1b58d4c3aa27cfff",
      "assetIds": []
    },
    {
      "x": 34,
      "y": 94,
      "size": 1,
      "price": "1011000000000000000000",
      "reserved": "",
      "salt": "0x937448c771ed8faffb51975b21107e933e847c9660ad6fb5b81f96abe20fbd4a",
      "assetIds": []
    },
    {
      "x": 34,
      "y": 93,
      "size": 1,
      "price": "1011000000000000000000",
      "reserved": "",
      "salt": "0x3ddc51a32b47d163f72b703ac1c3ca1c04c155010e02a817e56c5d6fbd561d84",
      "assetIds": []
    },
    {
      "x": 33,
      "y": 93,
      "size": 1,
      "price": "1011000000000000000000",
      "reserved": "",
      "salt": "0xe05dfd7aadd36fe19eb8438d641348584fa9db94f080adbe0bfa8ae7dae2ac53",
      "assetIds": []
    },
    {
      "x": 15,
      "y": 95,
      "size": 1,
      "price": "1011000000000000000000",
      "reserved": "",
      "salt": "0x6855d011ad3832ce2fb813f50c316982605fd60fcab6ce0fedd42320078cedc5",
      "assetIds": []
    },
    {
      "x": 15,
      "y": 94,
      "size": 1,
      "price": "1011000000000000000000",
      "reserved": "",
      "salt": "0xbc6cfebeaa7248cd5edf4c8cb4e057264d778d4f250393ec9b08845f85480f85",
      "assetIds": []
    },
    {
      "x": 15,
      "y": 93,
      "size": 1,
      "price": "1011000000000000000000",
      "reserved": "",
      "salt": "0xaeae178d4fffce307a3f923279ad257187f05267169e24a593e951af71e78298",
      "assetIds": []
    },
    {
      "x": 15,
      "y": 92,
      "size": 1,
      "price": "1011000000000000000000",
      "reserved": "",
      "salt": "0x3d7f2eb270341218e7e2df9ad788356d228750ec0e219860342067cdd836ed4b",
      "assetIds": []
    },
    {
      "x": 15,
      "y": 91,
      "size": 1,
      "price": "1011000000000000000000",
      "reserved": "",
      "salt": "0x177e90c20b32cd4827cb040cac5aa9374d79f2c5f4b6847fd14aaa63aa26b8f2",
      "assetIds": []
    },
    {
      "x": 16,
      "y": 91,
      "size": 1,
      "price": "1011000000000000000000",
      "reserved": "",
      "salt": "0xe6ff472b0d31fda0d63d6f3afd8e19cc65132f90bac2199b4531d1408cd3be5f",
      "assetIds": []
    },
    {
      "x": 16,
      "y": 90,
      "size": 1,
      "price": "1011000000000000000000",
      "reserved": "",
      "salt": "0xdb3c793acb5b35530f6a97606278659547aada15ac8d3a2f069f269fe0dbe3d0",
      "assetIds": []
    },
    {
      "x": 16,
      "y": 89,
      "size": 1,
      "price": "1011000000000000000000",
      "reserved": "",
      "salt": "0x03e5d24799c3b675ca87e471d44639e65f54c60766f4f8d642e3ea4d14410bcc",
      "assetIds": []
    },
    {
      "x": 16,
      "y": 88,
      "size": 1,
      "price": "1011000000000000000000",
      "reserved": "",
      "salt": "0x67fe9909c4b99e3446018f584b35362abed9002babf477a0e040b63f51745657",
      "assetIds": []
    },
    {
      "x": 15,
      "y": 88,
      "size": 1,
      "price": "1011000000000000000000",
      "reserved": "",
      "salt": "0x2c45d910af3b16445c96c789303868951c87bfbc4720ff3edbd98b54efe7dbd8",
      "assetIds": []
    },
    {
      "x": 15,
      "y": 89,
      "size": 1,
      "price": "1011000000000000000000",
      "reserved": "",
      "salt": "0x227d5f9f11f3db725809f9e6648cd2e50d34bab8cec0f8f122a0da4b9f26ffcb",
      "assetIds": []
    },
    {
      "x": 15,
      "y": 90,
      "size": 1,
      "price": "1011000000000000000000",
      "reserved": "",
      "salt": "0x837a25377a716c39714de70affe1283996b6d10b72f2b1fcde79037274d030e4",
      "assetIds": []
    },
    {
      "x": 16,
      "y": 92,
      "size": 1,
      "price": "1011000000000000000000",
      "reserved": "",
      "salt": "0xd0ab4dfce1e4710014e6e2b0d2c63961db09b97c0b3a276269fe1bb32da3d346",
      "assetIds": []
    },
    {
      "x": 16,
      "y": 93,
      "size": 1,
      "price": "1011000000000000000000",
      "reserved": "",
      "salt": "0xc27bde0af8e3ad995489beb8dc8021a08ce77f12e84f5e031b82bae0e23fdbfa",
      "assetIds": []
    },
    {
      "x": 16,
      "y": 94,
      "size": 1,
      "price": "1011000000000000000000",
      "reserved": "",
      "salt": "0xae4da9a56cb10084b006a3ef6d706b81a8966d46941fe477cb5ce0250737fc3c",
      "assetIds": []
    },
    {
      "x": 16,
      "y": 95,
      "size": 1,
      "price": "1011000000000000000000",
      "reserved": "",
      "salt": "0x6c55020d5ed3d5985463195410039509663f136655ebeea79db3aabc8c579292",
      "assetIds": []
    },
    {
      "x": 17,
      "y": 95,
      "size": 1,
      "price": "1011000000000000000000",
      "reserved": "",
      "salt": "0x850b17088cc2a52f1d75eb8e81606fcaa3ecb33ef52c3bda153f1de3eba32ced",
      "assetIds": []
    },
    {
      "x": 18,
      "y": 95,
      "size": 1,
      "price": "1011000000000000000000",
      "reserved": "",
      "salt": "0x6e37fa4121439e07da436fb5d30f81dd806a21352962fcdd92e915d644b70915",
      "assetIds": []
    },
    {
      "x": 19,
      "y": 95,
      "size": 1,
      "price": "1011000000000000000000",
      "reserved": "",
      "salt": "0x569b5d278d9ba3c7a0c29371482d281ea65c024e4ee4a6a1dd9f96791873a575",
      "assetIds": []
    },
    {
      "x": 20,
      "y": 95,
      "size": 1,
      "price": "1011000000000000000000",
      "reserved": "",
      "salt": "0x07250b8a7c6dbd1a2e822ab2bfaf6bb17eeb02e5263e8011d874067048fac75d",
      "assetIds": []
    },
    {
      "x": 21,
      "y": 95,
      "size": 1,
      "price": "1011000000000000000000",
      "reserved": "",
      "salt": "0x330932cbdb8a6e1a409273b0419cdf2be5adfe715445ffef63735f48289cafe6",
      "assetIds": []
    },
    {
      "x": 22,
      "y": 95,
      "size": 1,
      "price": "1011000000000000000000",
      "reserved": "",
      "salt": "0xbcf35fd90b6830068cb627cdbffb6127a7f8a4e10ed153ced9cff1b107e7cd91",
      "assetIds": []
    },
    {
      "x": 23,
      "y": 95,
      "size": 1,
      "price": "1011000000000000000000",
      "reserved": "",
      "salt": "0x2e8988d4664b48263565c7031146a9c7a69b1e33929d668d9bb642e9c1050a1d",
      "assetIds": []
    },
    {
      "x": 23,
      "y": 94,
      "size": 1,
      "price": "1011000000000000000000",
      "reserved": "",
      "salt": "0x4fb65e50c0202cd09edc6dbc228554f8e15035b6265f2fd24ccf9ad41022f315",
      "assetIds": []
    },
    {
      "x": 23,
      "y": 93,
      "size": 1,
      "price": "1011000000000000000000",
      "reserved": "",
      "salt": "0x2a8e335c11120383ad7ca0e2cfaa6dc082598d099554e3d81efc652112c7f0a5",
      "assetIds": []
    },
    {
      "x": 23,
      "y": 92,
      "size": 1,
      "price": "1011000000000000000000",
      "reserved": "",
      "salt": "0x73f7748d3543571c8dbb703f69f9f8731142e9c06752fbeea42d12f1f7d161d8",
      "assetIds": []
    },
    {
      "x": 23,
      "y": 91,
      "size": 1,
      "price": "1011000000000000000000",
      "reserved": "",
      "salt": "0x3eaa5e7d667521fdcddc6be1bff963906daa7ef1810d50df04c98184f4758290",
      "assetIds": []
    },
    {
      "x": 22,
      "y": 91,
      "size": 1,
      "price": "1011000000000000000000",
      "reserved": "",
      "salt": "0x9ec50590fd5893023701ed0681b44bc2d6b021e764827c76da69bee8da21f351",
      "assetIds": []
    },
    {
      "x": 22,
      "y": 90,
      "size": 1,
      "price": "1011000000000000000000",
      "reserved": "",
      "salt": "0x8f41f90d56349c21a5d961276dd1029b9069b7bdea28eeb51858b5926b3c3962",
      "assetIds": []
    },
    {
      "x": 21,
      "y": 90,
      "size": 1,
      "price": "1011000000000000000000",
      "reserved": "",
      "salt": "0x7876716a0f12f1fa1b8856b65c6b16fe68ec854a293e90fc14df039661daf8c2",
      "assetIds": []
    },
    {
      "x": 20,
      "y": 90,
      "size": 1,
      "price": "1011000000000000000000",
      "reserved": "",
      "salt": "0x62f0c0765f73de5de09d7ad0bc28aa57d234e81257f926fa84cd7d3280f18916",
      "assetIds": []
    },
    {
      "x": 19,
      "y": 90,
      "size": 1,
      "price": "1011000000000000000000",
      "reserved": "",
      "salt": "0xedf1cfca03c34ac2b2c50b29f6043c5a4485470b47304a78f391deec82e43937",
      "assetIds": []
    },
    {
      "x": 18,
      "y": 90,
      "size": 1,
      "price": "1011000000000000000000",
      "reserved": "",
      "salt": "0x17a748039397809d4c54fc1bb4de8557a83c32bb2af6d45988c42ef5e0989752",
      "assetIds": []
    },
    {
      "x": 17,
      "y": 90,
      "size": 1,
      "price": "1011000000000000000000",
      "reserved": "",
      "salt": "0xc8f90824a7fd01ea2b1e90931e7d3d6b26b647a31f8b5f4613ec54f58312d8e5",
      "assetIds": []
    },
    {
      "x": 17,
      "y": 91,
      "size": 1,
      "price": "1011000000000000000000",
      "reserved": "",
      "salt": "0xe0578f42a1a3e2c4f54a1fce0124292be0e11b0d37398cb4a57f66febcf9f655",
      "assetIds": []
    },
    {
      "x": 17,
      "y": 92,
      "size": 1,
      "price": "1011000000000000000000",
      "reserved": "",
      "salt": "0x46467f1dc4f2e67d3a2148ba977d6a82d9e9ec0960c6586f4f27ea6163966081",
      "assetIds": []
    },
    {
      "x": 17,
      "y": 93,
      "size": 1,
      "price": "1011000000000000000000",
      "reserved": "",
      "salt": "0x4caf6f122ec432b790e73ff5aa21fe17d1851177b8d98fc9355a6e555b469884",
      "assetIds": []
    },
    {
      "x": 18,
      "y": 93,
      "size": 1,
      "price": "1011000000000000000000",
      "reserved": "",
      "salt": "0x934c50e0970a0a73b32baa5aa0c66b9559727fe55597bdbd7df6d1770e761cf7",
      "assetIds": []
    },
    {
      "x": 19,
      "y": 93,
      "size": 1,
      "price": "1011000000000000000000",
      "reserved": "",
      "salt": "0x0fbb2f01e242a0a57a3666e044fee91ef5640648024824d376e02458b5cf509c",
      "assetIds": []
    },
    {
      "x": 20,
      "y": 93,
      "size": 1,
      "price": "1011000000000000000000",
      "reserved": "",
      "salt": "0x73ff7df086359eec3e9bfdd3b326899aba9e9993779cd9ac404bb1ea1b4b30dd",
      "assetIds": []
    },
    {
      "x": 21,
      "y": 93,
      "size": 1,
      "price": "1011000000000000000000",
      "reserved": "",
      "salt": "0xbf4a0e5b581bb37c77240414b585a75636cd749b02d472541094de8625e80dc0",
      "assetIds": []
    },
    {
      "x": 22,
      "y": 93,
      "size": 1,
      "price": "1011000000000000000000",
      "reserved": "",
      "salt": "0xf22a2c681b1be4b335785edd94a68bb8f7d0500b5eefaca8235ddc7284a81df3",
      "assetIds": []
    },
    {
      "x": 23,
      "y": 90,
      "size": 1,
      "price": "1011000000000000000000",
      "reserved": "",
      "salt": "0x143f7868c59ef30520b7e2d9e1a55205a3a7784e6f834a5d4f6857d701caf00c",
      "assetIds": []
    },
    {
      "x": 19,
      "y": 91,
      "size": 1,
      "price": "1011000000000000000000",
      "reserved": "",
      "salt": "0xb0cd59edd88d4ff603cb05b8d3064219eecc754ee0a1bd95b045f1d9d27d0363",
      "assetIds": []
    },
    {
      "x": 19,
      "y": 92,
      "size": 1,
      "price": "1011000000000000000000",
      "reserved": "",
      "salt": "0xa4e71efa847eec8e5ff6fa2c9efadb0612100fd6460cb9e99eb6c973b0e1f71c",
      "assetIds": []
    },
    {
      "x": 20,
      "y": 92,
      "size": 1,
      "price": "1011000000000000000000",
      "reserved": "",
      "salt": "0xce6b7d70add4d01226ed8c84f36b0daa7f9c06e73fb525f0e27aca026d080f75",
      "assetIds": []
    },
    {
      "x": 21,
      "y": 92,
      "size": 1,
      "price": "1011000000000000000000",
      "reserved": "",
      "salt": "0xb05e163f744763a11bf757fc7c36961ef80c561035552c0d4dcce2df19ffff35",
      "assetIds": []
    },
    {
      "x": 22,
      "y": 92,
      "size": 1,
      "price": "1011000000000000000000",
      "reserved": "",
      "salt": "0x101503275ed84f4214203bc50622c66bbaee12f1fb710c6c5090cd2c114ab48a",
      "assetIds": []
    },
    {
      "x": 18,
      "y": 91,
      "size": 1,
      "price": "1011000000000000000000",
      "reserved": "",
      "salt": "0xa394623dd2ca6d4f5184175d6518560e260f85bd079664ea1dc251f9fe9a9088",
      "assetIds": []
    },
    {
      "x": 17,
      "y": 89,
      "size": 1,
      "price": "1011000000000000000000",
      "reserved": "",
      "salt": "0x41820db2e12ed03926be68e7f96554092789edc961ac8218eccf99a25096db47",
      "assetIds": []
    },
    {
      "x": 17,
      "y": 88,
      "size": 1,
      "price": "1011000000000000000000",
      "reserved": "",
      "salt": "0xe82e7a889654b93e11d680bc2e0369b442c5c947d0fe31981e243f63f6044dd7",
      "assetIds": []
    },
    {
      "x": 21,
      "y": 91,
      "size": 1,
      "price": "1011000000000000000000",
      "reserved": "",
      "salt": "0x7c16442d2ff0bb10b1dde8a3b610d430e01ee9ebc967e6eddf615e128a5c0899",
      "assetIds": []
    },
    {
      "x": 20,
      "y": 91,
      "size": 1,
      "price": "1011000000000000000000",
      "reserved": "",
      "salt": "0xcf0392b2ff0b21f322c15bfaf4624dfc809c7761f2e8787c024519cc6bc639c8",
      "assetIds": []
    },
    {
      "x": 18,
      "y": 94,
      "size": 1,
      "price": "1011000000000000000000",
      "reserved": "",
      "salt": "0x59cda4abb9efaf6b552872f8ea03803e048dcd91b9a798b50f7b68c15dac4183",
      "assetIds": []
    },
    {
      "x": 17,
      "y": 94,
      "size": 1,
      "price": "1011000000000000000000",
      "reserved": "",
      "salt": "0x3083a15e1e37ba32b05483ab65e8cfe51c60d8d1d1ba3c5a7ccd7360c29db2e0",
      "assetIds": []
    },
    {
      "x": 19,
      "y": 94,
      "size": 1,
      "price": "1011000000000000000000",
      "reserved": "",
      "salt": "0x4993e3cbfcce1d7adb102830fb6f5d8a0461c8934b53b3e54001e47d493add4e",
      "assetIds": []
    },
    {
      "x": 20,
      "y": 94,
      "size": 1,
      "price": "1011000000000000000000",
      "reserved": "",
      "salt": "0x02afdc4ec9906a365d9fa96a21fe4643bbc72139c9de6f05ba531b94457d859c",
      "assetIds": []
    },
    {
      "x": 21,
      "y": 94,
      "size": 1,
      "price": "1011000000000000000000",
      "reserved": "",
      "salt": "0x03e36437a9406bf1ab867afaebffbc827b0ff010696b92624d4029e033464243",
      "assetIds": []
    },
    {
      "x": 22,
      "y": 94,
      "size": 1,
      "price": "1011000000000000000000",
      "reserved": "",
      "salt": "0x386700512272989d93f531adca0a21b5bce67ee2f90b99f1d6f96902057b15af",
      "assetIds": []
    },
    {
      "x": 18,
      "y": 92,
      "size": 1,
      "price": "1011000000000000000000",
      "reserved": "",
      "salt": "0xff413d5e1bfc629fb4eb4b4225fc9cb5429c6cfde9b7407c22090f43a8cf47e6",
      "assetIds": []
    },
    {
      "x": 13,
      "y": 126,
      "size": 1,
      "price": "1011000000000000000000",
      "reserved": "",
      "salt": "0xd24eb709c3bf578929cb829b97303860b1cd5a954a6268c1751aa26032ba02b8",
      "assetIds": []
    },
    {
      "x": 13,
      "y": 127,
      "size": 1,
      "price": "1011000000000000000000",
      "reserved": "",
      "salt": "0xb063b11f758780d742a532947e3be680471e68db07a0344a3f52cf186c8aa958",
      "assetIds": []
    },
    {
      "x": 12,
      "y": 127,
      "size": 1,
      "price": "1011000000000000000000",
      "reserved": "",
      "salt": "0xaadb6e1a701378760d5e0375191979019cfc713dd1b27c67e4cc0b1ee20c4a44",
      "assetIds": []
    },
    {
      "x": 14,
      "y": 127,
      "size": 1,
      "price": "1011000000000000000000",
      "reserved": "",
      "salt": "0x023286abe2233040f3c825c41c961bb489fc1ff345baf4d0b95f6cbd7960ab52",
      "assetIds": []
    },
    {
      "x": 14,
      "y": 126,
      "size": 1,
      "price": "1011000000000000000000",
      "reserved": "",
      "salt": "0x2588f264833e3319a6d3478dd8e1082458ff537d6c71230d492820096da3abd8",
      "assetIds": []
    },
    {
      "x": 13,
      "y": 128,
      "size": 1,
      "price": "1011000000000000000000",
      "reserved": "",
      "salt": "0x4acb461010370fa0175a7dd27c51661b2e1f8f8071b68364857d801c5d112805",
      "assetIds": []
    },
    {
      "x": 14,
      "y": 128,
      "size": 1,
      "price": "1011000000000000000000",
      "reserved": "",
      "salt": "0x1e35b6c767d92b144c3bb22ee1cb6963e477cc74c4d29d407fbac10320b36a35",
      "assetIds": []
    },
    {
      "x": 12,
      "y": 126,
      "size": 1,
      "price": "1011000000000000000000",
      "reserved": "",
      "salt": "0x84d3113e9814344c082e0da8d12e46151dfda1ca2bd16a930e8657a27b493d20",
      "assetIds": []
    },
    {
      "x": 12,
      "y": 128,
      "size": 1,
      "price": "1011000000000000000000",
      "reserved": "",
      "salt": "0x9ee39ae4d1ffac07ed32754d580895fa7602b07ec5adf693df05caf2728eec1e",
      "assetIds": []
    },
    {
      "x": 15,
      "y": 130,
      "size": 1,
      "price": "1011000000000000000000",
      "reserved": "",
      "salt": "0xe1fc28440c195d11c6e5ec2d13e5f8dd05ed740d7b5d24ea5b9090747b1ec28c",
      "assetIds": []
    },
    {
      "x": 16,
      "y": 130,
      "size": 1,
      "price": "1011000000000000000000",
      "reserved": "",
      "salt": "0x470649dd627492009c780848c5072ceb22df97323786c70dcba2ad53b3747425",
      "assetIds": []
    },
    {
      "x": 17,
      "y": 130,
      "size": 1,
      "price": "1011000000000000000000",
      "reserved": "",
      "salt": "0xe2bcd2af3ccbca1cca56983e16aa310310f9e491b5bed32cac9a0e812cab4bac",
      "assetIds": []
    },
    {
      "x": 17,
      "y": 129,
      "size": 1,
      "price": "1011000000000000000000",
      "reserved": "",
      "salt": "0x2c0a655eef583a6478133c4bdc8e0c558518f5604d7d02be7927b99c3e72b2c2",
      "assetIds": []
    },
    {
      "x": 16,
      "y": 129,
      "size": 1,
      "price": "1011000000000000000000",
      "reserved": "",
      "salt": "0x473f175c876ab28c3c78a9ea480f57a3a7bbb05a950dcf25a4500e14aff0db03",
      "assetIds": []
    },
    {
      "x": 16,
      "y": 131,
      "size": 1,
      "price": "1011000000000000000000",
      "reserved": "",
      "salt": "0x2eca98b10a828c919642869ff7d1fc4c1f5add7df238808ebc97c0256a2e0216",
      "assetIds": []
    },
    {
      "x": 15,
      "y": 129,
      "size": 1,
      "price": "1011000000000000000000",
      "reserved": "",
      "salt": "0xc79e2baac9e2f878f94cbd3f108fb0ee54a1498e4c840506dd36cb2014fe3d08",
      "assetIds": []
    },
    {
      "x": 15,
      "y": 131,
      "size": 1,
      "price": "1011000000000000000000",
      "reserved": "",
      "salt": "0xf7e097c00c1d5a096ddaa237ec0f76656ceb208da3724e6ae22d1c82d5c4ad94",
      "assetIds": []
    },
    {
      "x": 17,
      "y": 131,
      "size": 1,
      "price": "1011000000000000000000",
      "reserved": "",
      "salt": "0xf6fdf31865af2895228b17315866b4b49769d48c88848bf4a52049a7bcc93354",
      "assetIds": []
    },
    {
      "x": 25,
      "y": 131,
      "size": 1,
      "price": "1011000000000000000000",
      "reserved": "",
      "salt": "0x650b85c49239049344507a7056b9dd364facda23d656c41a7140771f6687f919",
      "assetIds": []
    },
    {
      "x": 26,
      "y": 131,
      "size": 1,
      "price": "1011000000000000000000",
      "reserved": "",
      "salt": "0xdfd394637e129e6a68157d25fd666e4a02be3c0206cdbc63b22a03f43b00a34e",
      "assetIds": []
    },
    {
      "x": 27,
      "y": 131,
      "size": 1,
      "price": "1011000000000000000000",
      "reserved": "",
      "salt": "0xa7e9dee1c906b66ed11c9a555bd0e8202518af9b9f74be7bb43ea1031c92b04d",
      "assetIds": []
    },
    {
      "x": 28,
      "y": 131,
      "size": 1,
      "price": "1011000000000000000000",
      "reserved": "",
      "salt": "0x3ffb3a7a5ef60fa146d3d407c61ffc7052d19bc9749e76b3822ce2f91ce1c156",
      "assetIds": []
    },
    {
      "x": 29,
      "y": 131,
      "size": 1,
      "price": "1011000000000000000000",
      "reserved": "",
      "salt": "0xb758759629bf5a41179c0f3d2c36fec5dcc4744fa454ad139397b53566846fb1",
      "assetIds": []
    },
    {
      "x": 29,
      "y": 130,
      "size": 1,
      "price": "1011000000000000000000",
      "reserved": "",
      "salt": "0x6c30de50b17fd20756805d6d15f73448f69ff9f5fdb1639d7dc64f861ed669df",
      "assetIds": []
    },
    {
      "x": 29,
      "y": 129,
      "size": 1,
      "price": "1011000000000000000000",
      "reserved": "",
      "salt": "0x7643c209e286511688e2c1cd86e22217d5c7e56f4829e9d72588306e760bd675",
      "assetIds": []
    },
    {
      "x": 29,
      "y": 128,
      "size": 1,
      "price": "1011000000000000000000",
      "reserved": "",
      "salt": "0x2a5332a26592c930cedee7fa3338edcacabe89c5422ca370d789862bf7f86127",
      "assetIds": []
    },
    {
      "x": 29,
      "y": 127,
      "size": 1,
      "price": "1011000000000000000000",
      "reserved": "",
      "salt": "0xa9c97439a322b0c289a5d959b4d33dc405e067769ee29ea8aeb953b1b51fd373",
      "assetIds": []
    },
    {
      "x": 29,
      "y": 126,
      "size": 1,
      "price": "1011000000000000000000",
      "reserved": "",
      "salt": "0xc0e6b30120fcaa45f7d2b35d8d1ae9b292291f653b345f6d1e801dd24beaefb2",
      "assetIds": []
    },
    {
      "x": 29,
      "y": 125,
      "size": 1,
      "price": "1011000000000000000000",
      "reserved": "",
      "salt": "0xb302c38543637a70d68cf57853a6c30d9f5923accc3fd154175fe6b93d11ee33",
      "assetIds": []
    },
    {
      "x": 29,
      "y": 124,
      "size": 1,
      "price": "1011000000000000000000",
      "reserved": "",
      "salt": "0x0097c086fe250dce4513eaebd8d15de7b7198032780ab1244f5589835a74eebd",
      "assetIds": []
    },
    {
      "x": 29,
      "y": 123,
      "size": 1,
      "price": "1011000000000000000000",
      "reserved": "",
      "salt": "0x2882baa4ffbb5ebf79fdaad657aa6ff663b0a933ac9fc57901c8954fafd938c2",
      "assetIds": []
    },
    {
      "x": 29,
      "y": 122,
      "size": 1,
      "price": "1011000000000000000000",
      "reserved": "",
      "salt": "0xd30949bd859a64714d2b2e1743bd1e6bab84e78ab8e2a21f4329eaa4ceaebc5b",
      "assetIds": []
    },
    {
      "x": 29,
      "y": 121,
      "size": 1,
      "price": "1011000000000000000000",
      "reserved": "",
      "salt": "0x14c0a2e6743525581470bf288719a52d137a196abf935c39fbadc8da2ee71300",
      "assetIds": []
    },
    {
      "x": 29,
      "y": 120,
      "size": 1,
      "price": "1011000000000000000000",
      "reserved": "",
      "salt": "0x9c7204457ffe00c88398df7d31d9366bcd235134726cd4114024b372866d1ace",
      "assetIds": []
    },
    {
      "x": 29,
      "y": 119,
      "size": 1,
      "price": "1011000000000000000000",
      "reserved": "",
      "salt": "0xa72570192b6c2d6db79f7e60d395fa77f3812c41884ebc582a68bda9e7d35301",
      "assetIds": []
    },
    {
      "x": 29,
      "y": 118,
      "size": 1,
      "price": "1011000000000000000000",
      "reserved": "",
      "salt": "0x4699e2ff8c430dd902df3cc70312cbd17d4276895b3e3437e469699e67fbff3f",
      "assetIds": []
    },
    {
      "x": 29,
      "y": 117,
      "size": 1,
      "price": "1011000000000000000000",
      "reserved": "",
      "salt": "0x35e58996eeaa8813dcfa724c2c487aeb1adad5a715b1209d034c255af4a509fb",
      "assetIds": []
    },
    {
      "x": 29,
      "y": 116,
      "size": 1,
      "price": "1011000000000000000000",
      "reserved": "",
      "salt": "0x1af0b6e5886429aaee541099e783a15476acb1f0b250437b1a0a00f2282e5751",
      "assetIds": []
    },
    {
      "x": 29,
      "y": 115,
      "size": 1,
      "price": "1011000000000000000000",
      "reserved": "",
      "salt": "0x76158516592b9d04b288558d211e1548926f336188aa28416d43980d6324a152",
      "assetIds": []
    },
    {
      "x": 29,
      "y": 114,
      "size": 1,
      "price": "1011000000000000000000",
      "reserved": "",
      "salt": "0xd69dc4ceca6fe0b0ddcb475a900d89b1b2d7f02d0edb37c18c8be10d35def463",
      "assetIds": []
    },
    {
      "x": 29,
      "y": 113,
      "size": 1,
      "price": "1011000000000000000000",
      "reserved": "",
      "salt": "0x05c53b98db4e0f69a007a63f7a979866390ebc1d4cd064e917eeeceedb0df095",
      "assetIds": []
    },
    {
      "x": 30,
      "y": 113,
      "size": 1,
      "price": "1011000000000000000000",
      "reserved": "",
      "salt": "0xe93a6575d65d7fe54360be6d7d8c97328600513ef38d83b6f3f17353e9f2a6ca",
      "assetIds": []
    },
    {
      "x": 31,
      "y": 113,
      "size": 1,
      "price": "1011000000000000000000",
      "reserved": "",
      "salt": "0x605d8d8011d18dda978575ba45a4a464f56b79a67898254c0304f7917ffb1d26",
      "assetIds": []
    },
    {
      "x": 31,
      "y": 112,
      "size": 1,
      "price": "1011000000000000000000",
      "reserved": "",
      "salt": "0xb492e6940e32069b43b2611db1569ad2af977a8be21e902e6de50aa0fed06a0f",
      "assetIds": []
    },
    {
      "x": 31,
      "y": 111,
      "size": 1,
      "price": "1011000000000000000000",
      "reserved": "",
      "salt": "0x935044237653ef4c5301029dfb05fd10e6a8abf81f9278120da5b4b5af0d5b20",
      "assetIds": []
    },
    {
      "x": 31,
      "y": 110,
      "size": 1,
      "price": "1011000000000000000000",
      "reserved": "",
      "salt": "0x974672f81eacca55c1ce86fdb4b99adc25a560878d61870e121f11e03fb74caa",
      "assetIds": []
    },
    {
      "x": 31,
      "y": 109,
      "size": 1,
      "price": "1011000000000000000000",
      "reserved": "",
      "salt": "0x9f7040002e2167c659b18af9e9dc1078ec47de1e9079b240481f494e6bb3cf61",
      "assetIds": []
    },
    {
      "x": 32,
      "y": 109,
      "size": 1,
      "price": "1011000000000000000000",
      "reserved": "",
      "salt": "0xcd287430ce0ba792ef86c50b9e0af0e8a8c204c2e51d3de992e2b907c7625eec",
      "assetIds": []
    },
    {
      "x": 32,
      "y": 108,
      "size": 1,
      "price": "1011000000000000000000",
      "reserved": "",
      "salt": "0xcbb7946e41e716f31c6c37711757067f6dddbac856a1d6ac608c064347525066",
      "assetIds": []
    },
    {
      "x": 31,
      "y": 108,
      "size": 1,
      "price": "1011000000000000000000",
      "reserved": "",
      "salt": "0x28f8e2b369acece61622a0fdae2342e24e4b6f59566839ec563e0f040405a79a",
      "assetIds": []
    },
    {
      "x": 30,
      "y": 108,
      "size": 1,
      "price": "1011000000000000000000",
      "reserved": "",
      "salt": "0x27c2567aa83465d0e6fd30433cc47fe0479b2c2656531bfad19d7914a9c5b3f1",
      "assetIds": []
    },
    {
      "x": 29,
      "y": 108,
      "size": 1,
      "price": "1011000000000000000000",
      "reserved": "",
      "salt": "0x9261daa887b0a2f1db309846ee8eb2cb15018693f1360e37d665566c7f8dc9ba",
      "assetIds": []
    },
    {
      "x": 28,
      "y": 108,
      "size": 1,
      "price": "1011000000000000000000",
      "reserved": "",
      "salt": "0x94ffae5f42d090e4105981efd8ce820af8259979f694bb77df73d67b8666a0e8",
      "assetIds": []
    },
    {
      "x": 27,
      "y": 108,
      "size": 1,
      "price": "1011000000000000000000",
      "reserved": "",
      "salt": "0xd5024be4ae1593370dee19ad821e8f1a80fa4d3937d6be6cef56948feae0fe0a",
      "assetIds": []
    },
    {
      "x": 26,
      "y": 108,
      "size": 1,
      "price": "1011000000000000000000",
      "reserved": "",
      "salt": "0x217799fd4d28472430a5db2bb513c32bc3823b7f344d9f6c4912f4658bf73f47",
      "assetIds": []
    },
    {
      "x": 25,
      "y": 108,
      "size": 1,
      "price": "1011000000000000000000",
      "reserved": "",
      "salt": "0x2151d99bee625982898e2601d4bc3febc59cb7fcc62745fb6b12206aa382a33f",
      "assetIds": []
    },
    {
      "x": 24,
      "y": 108,
      "size": 1,
      "price": "1011000000000000000000",
      "reserved": "",
      "salt": "0xb6863f11d6ab74de64d5bb14c5dad6f0474a1590aeda8d216ce39db8177eb8d8",
      "assetIds": []
    },
    {
      "x": 24,
      "y": 109,
      "size": 1,
      "price": "1011000000000000000000",
      "reserved": "",
      "salt": "0x5e22deeb52cc8e55635a8cd6b47dba59b54e3f7aab4942b9a16c61b0fd353274",
      "assetIds": []
    },
    {
      "x": 25,
      "y": 110,
      "size": 1,
      "price": "1011000000000000000000",
      "reserved": "",
      "salt": "0x432d1b0495e616aa06a81d4fc20257ab6ee84b067ca630c77bf40d01d39f5f56",
      "assetIds": []
    },
    {
      "x": 25,
      "y": 111,
      "size": 1,
      "price": "1011000000000000000000",
      "reserved": "",
      "salt": "0x988fecd06022eba383032d221488cdf112a8e59432ca4f8e365bbec7e88359d0",
      "assetIds": []
    },
    {
      "x": 25,
      "y": 112,
      "size": 1,
      "price": "1011000000000000000000",
      "reserved": "",
      "salt": "0x363300ff64908104ebc7b9bc274e7f7ac6495ecb504bd2e1b8871578dd119bc1",
      "assetIds": []
    },
    {
      "x": 26,
      "y": 112,
      "size": 1,
      "price": "1011000000000000000000",
      "reserved": "",
      "salt": "0x57984930c8fc5a9209e47df3f7bfcef177c91ce9bde563da26d71ed62d60cccf",
      "assetIds": []
    },
    {
      "x": 27,
      "y": 112,
      "size": 1,
      "price": "1011000000000000000000",
      "reserved": "",
      "salt": "0x9d5738733cb86da03298501ec09add827b9df94d1869a521f49c3455811ebf4a",
      "assetIds": []
    },
    {
      "x": 28,
      "y": 112,
      "size": 1,
      "price": "1011000000000000000000",
      "reserved": "",
      "salt": "0xb32b38943ab51f401f312e6a925d23131972f47104f3baeb0af051e98c566c4f",
      "assetIds": []
    },
    {
      "x": 29,
      "y": 112,
      "size": 1,
      "price": "1011000000000000000000",
      "reserved": "",
      "salt": "0xa3920ca8e3f7d378110aac44dea3b974b4f0c593ada43939dbbadf0068afc3f2",
      "assetIds": []
    },
    {
      "x": 30,
      "y": 112,
      "size": 1,
      "price": "1011000000000000000000",
      "reserved": "",
      "salt": "0x85f8b961101c274beee6e255a42a7caaebc7a18026dbc4592818f7b29a1d81bb",
      "assetIds": []
    },
    {
      "x": 32,
      "y": 113,
      "size": 1,
      "price": "1011000000000000000000",
      "reserved": "",
      "salt": "0x18961fdd87ad40e32eb249a922478ccc0455e450927ff93d363f2468227f26b0",
      "assetIds": []
    },
    {
      "x": 32,
      "y": 112,
      "size": 1,
      "price": "1011000000000000000000",
      "reserved": "",
      "salt": "0x9bd768d5b4c6753904e94ead0e77a9d437f95f2f90c36f7483e2ca18f1f5c987",
      "assetIds": []
    },
    {
      "x": 32,
      "y": 111,
      "size": 1,
      "price": "1011000000000000000000",
      "reserved": "",
      "salt": "0xcc33b504cf496ed99b03a74cf45586dcde1f3c04699de2c8024dc954f25af63a",
      "assetIds": []
    },
    {
      "x": 32,
      "y": 110,
      "size": 1,
      "price": "1011000000000000000000",
      "reserved": "",
      "salt": "0xbfeba30a5cbb4e44221cdee126f13613ecdd099a96f03e8df87bb290d6181366",
      "assetIds": []
    },
    {
      "x": 30,
      "y": 109,
      "size": 1,
      "price": "1011000000000000000000",
      "reserved": "",
      "salt": "0xf6c7d79bf2ef7f9cfcf6e0a1405cfa02e36dd92055edbf2180886a1d2a4a1dee",
      "assetIds": []
    },
    {
      "x": 29,
      "y": 109,
      "size": 1,
      "price": "1011000000000000000000",
      "reserved": "",
      "salt": "0x38df9ca56e5c75750d4db3d25d5539a76d2717e8ba73a99017f6b6bb6ae88b62",
      "assetIds": []
    },
    {
      "x": 28,
      "y": 109,
      "size": 1,
      "price": "1011000000000000000000",
      "reserved": "",
      "salt": "0x14fc97976dffce5303d3c182f744ad06f9a4c97fa111369054b8738c0233a559",
      "assetIds": []
    },
    {
      "x": 27,
      "y": 109,
      "size": 1,
      "price": "1011000000000000000000",
      "reserved": "",
      "salt": "0x237e9737247790cbcd50c4068fd12bb3fb44d8438c69d8f73cf89605daf01a54",
      "assetIds": []
    },
    {
      "x": 26,
      "y": 109,
      "size": 1,
      "price": "1011000000000000000000",
      "reserved": "",
      "salt": "0xc37d209214354082cd6046c13b2a2b96552a0e18ee1ced11a099f973989e94f0",
      "assetIds": []
    },
    {
      "x": 25,
      "y": 109,
      "size": 1,
      "price": "1011000000000000000000",
      "reserved": "",
      "salt": "0xbcb095c88f5d83518c949de9064a712e9c955a42a9e7da7276aac71c8f4a23f9",
      "assetIds": []
    },
    {
      "x": 24,
      "y": 110,
      "size": 1,
      "price": "1011000000000000000000",
      "reserved": "",
      "salt": "0x71bdb564d47546309a6ac03cbc53efad34ee0762275e86f29bc494256290040f",
      "assetIds": []
    },
    {
      "x": 24,
      "y": 111,
      "size": 1,
      "price": "1011000000000000000000",
      "reserved": "",
      "salt": "0x3290c0b1279584c27c59f557d51c20a89148dbdebbd4a2d7d5f997a078cddf08",
      "assetIds": []
    },
    {
      "x": 24,
      "y": 112,
      "size": 1,
      "price": "1011000000000000000000",
      "reserved": "",
      "salt": "0x39d5787961ae1e9ebe228f48382fd5ef2b62684ddf124921c9392daa90ab613e",
      "assetIds": []
    },
    {
      "x": 24,
      "y": 113,
      "size": 1,
      "price": "1011000000000000000000",
      "reserved": "",
      "salt": "0xe65451a3638b9e6cc539f0914ae452eb79e35c57aa699aa5eb35fdc83d2ef4da",
      "assetIds": []
    },
    {
      "x": 25,
      "y": 113,
      "size": 1,
      "price": "1011000000000000000000",
      "reserved": "",
      "salt": "0xa512d787e9ba399d3b6f11424a9a9cc092338c8cf6ec9306571784b124629470",
      "assetIds": []
    },
    {
      "x": 26,
      "y": 113,
      "size": 1,
      "price": "1011000000000000000000",
      "reserved": "",
      "salt": "0xc2d151b9f7200e0da310b87bab9b65eb22495def1eb20d04480ddf5a928a8df2",
      "assetIds": []
    },
    {
      "x": 29,
      "y": 111,
      "size": 1,
      "price": "1011000000000000000000",
      "reserved": "",
      "salt": "0x09eeebca73d83328c7b315742842ff92ab1ea0578fd70de0fea67d279b1f2d37",
      "assetIds": []
    },
    {
      "x": 30,
      "y": 111,
      "size": 1,
      "price": "1011000000000000000000",
      "reserved": "",
      "salt": "0x670705e5ff6ad5f829bcc512423e376894fc16db158f92cddfe697cb810eb734",
      "assetIds": []
    },
    {
      "x": 30,
      "y": 110,
      "size": 1,
      "price": "1011000000000000000000",
      "reserved": "",
      "salt": "0xb98d4dfa9ccb92769d63dd14608f4cd4c1d1350c01433264394b8acd3bc586da",
      "assetIds": []
    },
    {
      "x": 29,
      "y": 110,
      "size": 1,
      "price": "1011000000000000000000",
      "reserved": "",
      "salt": "0x0fdf8c556aa0ccf72fd6d6a0304c6bea0453ad59ea8340acd72eb36a5fc50789",
      "assetIds": []
    },
    {
      "x": 28,
      "y": 110,
      "size": 1,
      "price": "1011000000000000000000",
      "reserved": "",
      "salt": "0x240038deb52b184abe101bbad33ac8893d2306e357df7700bdae3b20425c6e28",
      "assetIds": []
    },
    {
      "x": 27,
      "y": 110,
      "size": 1,
      "price": "1011000000000000000000",
      "reserved": "",
      "salt": "0x0103cabd8243544325ce787898dd629545b1a7eb1a815bcdb614889644384dfc",
      "assetIds": []
    },
    {
      "x": 26,
      "y": 110,
      "size": 1,
      "price": "1011000000000000000000",
      "reserved": "",
      "salt": "0xb25907a9c0a3b441396805da997f445e29bbb5d48c1b3d0dd8918804e02c1253",
      "assetIds": []
    },
    {
      "x": 27,
      "y": 111,
      "size": 1,
      "price": "1011000000000000000000",
      "reserved": "",
      "salt": "0x5c272cde5bc40ea28dd1bf6e81f2cfc84e3116ab2a14c4c4cef456f0a350ab6d",
      "assetIds": []
    },
    {
      "x": 26,
      "y": 111,
      "size": 1,
      "price": "1011000000000000000000",
      "reserved": "",
      "salt": "0x0ac53878424a842af9f65bdac38bfa66956a4f2d8198261aeceeec005e4cd96c",
      "assetIds": []
    },
    {
      "x": 28,
      "y": 111,
      "size": 1,
      "price": "1011000000000000000000",
      "reserved": "",
      "salt": "0x6e4b9704c97139f5b28635ace3b6ccfb622eaf59bbafb055a7e13afca4d0b5e2",
      "assetIds": []
    },
    {
      "x": 27,
      "y": 113,
      "size": 1,
      "price": "1011000000000000000000",
      "reserved": "",
      "salt": "0x58354daf2c1b9b6ace7f999721abf94ba17ac4467deb0409c3aeea089754ba9d",
      "assetIds": []
    },
    {
      "x": 27,
      "y": 114,
      "size": 1,
      "price": "1011000000000000000000",
      "reserved": "",
      "salt": "0x71398b14274a2c99ef1681f35c95c1ac92efae80d3f02a56c9479300e5e013b4",
      "assetIds": []
    },
    {
      "x": 27,
      "y": 115,
      "size": 1,
      "price": "1011000000000000000000",
      "reserved": "",
      "salt": "0x62c8fc169edd34b2814c3c11a7e0f855488588418bae1a5fbc498d54fcf22472",
      "assetIds": []
    },
    {
      "x": 26,
      "y": 117,
      "size": 1,
      "price": "1011000000000000000000",
      "reserved": "",
      "salt": "0xc54c0cd8fb0b4cca21fc63b97b93d7c6e413106528df97c40f976fe953f734f3",
      "assetIds": []
    },
    {
      "x": 26,
      "y": 118,
      "size": 1,
      "price": "1011000000000000000000",
      "reserved": "",
      "salt": "0xe6c718cf3eb6cde44017c2e2a915f9641416ff22975b827803b14e043ede43d2",
      "assetIds": []
    },
    {
      "x": 26,
      "y": 119,
      "size": 1,
      "price": "1011000000000000000000",
      "reserved": "",
      "salt": "0x88c7877a0c05ee0dfc677d4da392e8ae9cc1fa5a27e0fa1c8d8a381daeb3c879",
      "assetIds": []
    },
    {
      "x": 26,
      "y": 120,
      "size": 1,
      "price": "1011000000000000000000",
      "reserved": "",
      "salt": "0xe89c13ca111e2d8eccc0d7c12be3b6cdc91c9c67cc9099ff0d74f6827c6ade70",
      "assetIds": []
    },
    {
      "x": 26,
      "y": 121,
      "size": 1,
      "price": "1011000000000000000000",
      "reserved": "",
      "salt": "0x5df8af5ae9c1bc568b1d27c802cee91f55935838afd9ebb41f43cd659729cd0e",
      "assetIds": []
    },
    {
      "x": 26,
      "y": 122,
      "size": 1,
      "price": "1011000000000000000000",
      "reserved": "",
      "salt": "0x42d35f6f80f5e30e14f016c7ff30ef9032f5a8b0ebfa88ea3c861b7a62dca278",
      "assetIds": []
    },
    {
      "x": 27,
      "y": 122,
      "size": 1,
      "price": "1011000000000000000000",
      "reserved": "",
      "salt": "0x32b7bb22849b96290ef37f5c8987e8dfdd1a5234adb72f7cb1be6533e32228be",
      "assetIds": []
    },
    {
      "x": 27,
      "y": 123,
      "size": 1,
      "price": "1011000000000000000000",
      "reserved": "",
      "salt": "0x4a19758f5b1b29596400bc372bd34b719acb30b1a801c316d040c1846b401bfd",
      "assetIds": []
    },
    {
      "x": 27,
      "y": 124,
      "size": 1,
      "price": "1011000000000000000000",
      "reserved": "",
      "salt": "0xf94009cf6c7c7de599edd2eb582f2188ba631ad8e1dc793902e40183737e86d6",
      "assetIds": []
    },
    {
      "x": 26,
      "y": 125,
      "size": 1,
      "price": "1011000000000000000000",
      "reserved": "",
      "salt": "0x1db08b55e9bad1bb212f6b8cbfe9a57ffaff49f2e16c1b554f7e06361b06990c",
      "assetIds": []
    },
    {
      "x": 25,
      "y": 125,
      "size": 1,
      "price": "1011000000000000000000",
      "reserved": "",
      "salt": "0x0a5236a36bf18fa2899f59e34d90b23bce6c7b417861893846381030fd412542",
      "assetIds": []
    },
    {
      "x": 24,
      "y": 125,
      "size": 1,
      "price": "1011000000000000000000",
      "reserved": "",
      "salt": "0x8040beaeec30d60284a979e88f4297fefc50a12dff24576bf18448a8cbc87fe0",
      "assetIds": []
    },
    {
      "x": 23,
      "y": 124,
      "size": 1,
      "price": "1011000000000000000000",
      "reserved": "",
      "salt": "0xb589ba4c994c6ec85f4936bcba974608d12d5af89eac37c05c649bc4b9fe587b",
      "assetIds": []
    },
    {
      "x": 22,
      "y": 124,
      "size": 1,
      "price": "1011000000000000000000",
      "reserved": "",
      "salt": "0xd2a07bf91c4c8432dc2377553d4f34979378cb3ddfe4ad15da0f4d11d6291788",
      "assetIds": []
    },
    {
      "x": 21,
      "y": 124,
      "size": 1,
      "price": "1011000000000000000000",
      "reserved": "",
      "salt": "0x3c9bb668ee2d7a76e4d559d8842b9e85ad768d31793bd0e23b593a38b70eea21",
      "assetIds": []
    },
    {
      "x": 20,
      "y": 124,
      "size": 1,
      "price": "1011000000000000000000",
      "reserved": "",
      "salt": "0xae4d31de9d8de89684041f4a6457bf83784d668e488b48277bd619b64fa23d3c",
      "assetIds": []
    },
    {
      "x": 20,
      "y": 125,
      "size": 1,
      "price": "1011000000000000000000",
      "reserved": "",
      "salt": "0x8d85d25abdf3464e0ba041ec356000f727ef4c03685c50b13695f555f3f8d4a3",
      "assetIds": []
    },
    {
      "x": 19,
      "y": 125,
      "size": 1,
      "price": "1011000000000000000000",
      "reserved": "",
      "salt": "0x33377236e832cbd5b4c650bdc78c079e5a0ed0cc91dc314d930d1f2dcb4b1620",
      "assetIds": []
    },
    {
      "x": 18,
      "y": 125,
      "size": 1,
      "price": "1011000000000000000000",
      "reserved": "",
      "salt": "0x4076df18f483ecd15e600ea69118c8fe5778a5d4c735bd628c8db42bafb4f28e",
      "assetIds": []
    },
    {
      "x": 19,
      "y": 124,
      "size": 1,
      "price": "1011000000000000000000",
      "reserved": "",
      "salt": "0x1b6ccf8d5d5a8c43292e19aa0df946003406717384c809c639b2faedea894fae",
      "assetIds": []
    },
    {
      "x": 24,
      "y": 124,
      "size": 1,
      "price": "1011000000000000000000",
      "reserved": "",
      "salt": "0xece3f4b7066d92fe7c274c041ae854f8f18779c48a142d2806b6f5906c0cc92b",
      "assetIds": []
    },
    {
      "x": 25,
      "y": 124,
      "size": 1,
      "price": "1011000000000000000000",
      "reserved": "",
      "salt": "0xeda087c18a2605d6c305b50a094e84eb5cd3ced35842b0ffdc8ebf8c3a227167",
      "assetIds": []
    },
    {
      "x": 23,
      "y": 125,
      "size": 1,
      "price": "1011000000000000000000",
      "reserved": "",
      "salt": "0x8aef5f2c7e8f1f22c764a2d9961a5467201056124c60861aee7d9018a830bd1e",
      "assetIds": []
    },
    {
      "x": 22,
      "y": 125,
      "size": 1,
      "price": "1011000000000000000000",
      "reserved": "",
      "salt": "0x645b4498df6a1da72e0750c4788ca3fadfd467cfe435424295fd652f2140bfc3",
      "assetIds": []
    },
    {
      "x": 21,
      "y": 125,
      "size": 1,
      "price": "1011000000000000000000",
      "reserved": "",
      "salt": "0x0950e8aab274abcc8a2622780593e998e1f1bf50ab3dbf3e988e97b7a989bd25",
      "assetIds": []
    },
    {
      "x": 28,
      "y": 125,
      "size": 1,
      "price": "1011000000000000000000",
      "reserved": "",
      "salt": "0x56ddd35ead96d58cd8d6cfe44c802820e874296051ad81f62cf661ff70a2172a",
      "assetIds": []
    },
    {
      "x": 28,
      "y": 126,
      "size": 1,
      "price": "1011000000000000000000",
      "reserved": "",
      "salt": "0xbbf9c16c406fcec247a176459e0e2f4cb65fad49c2899def72d993bb90d81507",
      "assetIds": []
    },
    {
      "x": 27,
      "y": 126,
      "size": 1,
      "price": "1011000000000000000000",
      "reserved": "",
      "salt": "0xcedaf33c9142682b6c9089798599749ac68ac00c4dede7a83aec3ad4d079c9ff",
      "assetIds": []
    },
    {
      "x": 27,
      "y": 127,
      "size": 1,
      "price": "1011000000000000000000",
      "reserved": "",
      "salt": "0x85887221f3147d81a23dac32102dc723f3698a773c26321c6bc6ce5ad8f769ad",
      "assetIds": []
    },
    {
      "x": 27,
      "y": 128,
      "size": 1,
      "price": "1011000000000000000000",
      "reserved": "",
      "salt": "0xfb13c276bb5ac6563b8eeafa8f46b8b0c687894967f358245e42c8be3707d4f8",
      "assetIds": []
    },
    {
      "x": 27,
      "y": 129,
      "size": 1,
      "price": "1011000000000000000000",
      "reserved": "",
      "salt": "0x6662163ba90c853e7924af52a3fe3200e7f12a78e48e5cac48f1bdeb3c97d204",
      "assetIds": []
    },
    {
      "x": 27,
      "y": 130,
      "size": 1,
      "price": "1011000000000000000000",
      "reserved": "",
      "salt": "0xb079916bcd4d6cd72c0e7d312d655aefff0696898859e5f200108f29d3b01513",
      "assetIds": []
    },
    {
      "x": 26,
      "y": 130,
      "size": 1,
      "price": "1011000000000000000000",
      "reserved": "",
      "salt": "0xb7d270104f9edd86b4deae557bc6c985f596d1e589dd83efc148a258604444f3",
      "assetIds": []
    },
    {
      "x": 25,
      "y": 130,
      "size": 1,
      "price": "1011000000000000000000",
      "reserved": "",
      "salt": "0x349971ede9896dbffb91927f5803f167aaffc5a2c26437e0ba0cdbabae778b71",
      "assetIds": []
    },
    {
      "x": 24,
      "y": 131,
      "size": 1,
      "price": "1011000000000000000000",
      "reserved": "",
      "salt": "0xdc4ab8c9d8318955ae59d19285b1a378e745890c08900ae826f6efdd15b3bd66",
      "assetIds": []
    },
    {
      "x": 24,
      "y": 130,
      "size": 1,
      "price": "1011000000000000000000",
      "reserved": "",
      "salt": "0x7cf0efd9f4bce52cea30aae5eda110c0a4006ab999c0fe5e6dbd999001f30cc0",
      "assetIds": []
    },
    {
      "x": 24,
      "y": 129,
      "size": 1,
      "price": "1011000000000000000000",
      "reserved": "",
      "salt": "0x73e7c0ab8073327b33cb96f9c96963e56f067063905096e496672888b7c3cd50",
      "assetIds": []
    },
    {
      "x": 24,
      "y": 126,
      "size": 1,
      "price": "1011000000000000000000",
      "reserved": "",
      "salt": "0x4ec25acd572c8b7f4e6717b0327e94b6c723d4f13818cfe1eed76367e9990119",
      "assetIds": []
    },
    {
      "x": 24,
      "y": 127,
      "size": 1,
      "price": "1011000000000000000000",
      "reserved": "",
      "salt": "0x405e6509d73d483432409d4f6b3984c55cb75f5b6c81862df3ce9566dbca1a76",
      "assetIds": []
    },
    {
      "x": 24,
      "y": 128,
      "size": 1,
      "price": "1011000000000000000000",
      "reserved": "",
      "salt": "0x2fec1b49ef8c3adefabd7cbb1a37ae598623974336edb502cdeda0287ea3c75c",
      "assetIds": []
    },
    {
      "x": 25,
      "y": 126,
      "size": 1,
      "price": "1011000000000000000000",
      "reserved": "",
      "salt": "0xce944a420e64ead45f96507d9f5f14ef304859e36282821113544869ce31f2a1",
      "assetIds": []
    },
    {
      "x": 25,
      "y": 127,
      "size": 1,
      "price": "1011000000000000000000",
      "reserved": "",
      "salt": "0x9903749de21d76d9836588c18de15cd6f589cf1a5afc01fa1e469c35499291a3",
      "assetIds": []
    },
    {
      "x": 25,
      "y": 128,
      "size": 1,
      "price": "1011000000000000000000",
      "reserved": "",
      "salt": "0x60a1c3e7b653307c12f9fcefcec7b440bff649235536349e668aba9047822762",
      "assetIds": []
    },
    {
      "x": 25,
      "y": 129,
      "size": 1,
      "price": "1011000000000000000000",
      "reserved": "",
      "salt": "0xfdfb3e917e726a3e92db77e5cc13a1906cdd90dda4254c6c74f56b12ef9f66c2",
      "assetIds": []
    },
    {
      "x": 26,
      "y": 126,
      "size": 1,
      "price": "1011000000000000000000",
      "reserved": "",
      "salt": "0x82da1be9dfcdef9be4e2eab448c25a869e2c6454334fb8a187980be20b2cf6cc",
      "assetIds": []
    },
    {
      "x": 26,
      "y": 127,
      "size": 1,
      "price": "1011000000000000000000",
      "reserved": "",
      "salt": "0x96375f5b28f6fd7c0323b25cb1b712605c838df09ea5c6d9aefea72f7a5f46b7",
      "assetIds": []
    },
    {
      "x": 26,
      "y": 128,
      "size": 1,
      "price": "1011000000000000000000",
      "reserved": "",
      "salt": "0xcb69f5ef9c7f159a3fe19528d58d8619a0c87687b22800d8830bf8ddbd545480",
      "assetIds": []
    },
    {
      "x": 26,
      "y": 129,
      "size": 1,
      "price": "1011000000000000000000",
      "reserved": "",
      "salt": "0x90da263ecb503d98e3ba4c082a62d5870773ffa87c5b7d6734f72643bad3d178",
      "assetIds": []
    },
    {
      "x": 28,
      "y": 129,
      "size": 1,
      "price": "1011000000000000000000",
      "reserved": "",
      "salt": "0x60052f8d7a331dacee494cfaf928235efdd933c10fb98dcb3f5e2d78338d9dc6",
      "assetIds": []
    },
    {
      "x": 28,
      "y": 130,
      "size": 1,
      "price": "1011000000000000000000",
      "reserved": "",
      "salt": "0xafe46e38a847e484dff9d9e8ec51cce9a11fe75853f9bf2f682d05a60f01d86a",
      "assetIds": []
    },
    {
      "x": 28,
      "y": 128,
      "size": 1,
      "price": "1011000000000000000000",
      "reserved": "",
      "salt": "0xd4fd2a28981a919c6faf860b9527c18c5a3988033017b75223e81d23a81940e9",
      "assetIds": []
    },
    {
      "x": 28,
      "y": 127,
      "size": 1,
      "price": "1011000000000000000000",
      "reserved": "",
      "salt": "0x868505e11a7069fd39b5d5eef7910555ecdbd9d795f7de3612e086c6e07fb4d9",
      "assetIds": []
    },
    {
      "x": 28,
      "y": 124,
      "size": 1,
      "price": "1011000000000000000000",
      "reserved": "",
      "salt": "0x43cc7f5f5f58b554e5cd8c70f566ba315d31b88dece5da9de85620619b54d4d0",
      "assetIds": []
    },
    {
      "x": 28,
      "y": 123,
      "size": 1,
      "price": "1011000000000000000000",
      "reserved": "",
      "salt": "0x6e78152372f746c43c5f62c9b33603e84a77d3ab038ae243ccdc7de6de4abd94",
      "assetIds": []
    },
    {
      "x": 28,
      "y": 122,
      "size": 1,
      "price": "1011000000000000000000",
      "reserved": "",
      "salt": "0x6acef546abe1d80d1720fc9a47d32e9cf343f9e3fdbdec4c6f424b9a1ad6bb00",
      "assetIds": []
    },
    {
      "x": 26,
      "y": 124,
      "size": 1,
      "price": "1011000000000000000000",
      "reserved": "",
      "salt": "0x78a73577b9416f1dadc018e1d83cd5446bdb14939855676b6d7447866854b322",
      "assetIds": []
    },
    {
      "x": 27,
      "y": 125,
      "size": 1,
      "price": "1011000000000000000000",
      "reserved": "",
      "salt": "0x74049a17c387b24a65849139f533864695c78359cc2c859874144161615a2a3c",
      "assetIds": []
    },
    {
      "x": 25,
      "y": 122,
      "size": 1,
      "price": "1011000000000000000000",
      "reserved": "",
      "salt": "0x6c3b7dd3fdbec4cc72b1387f5d3687c20ca93630e998d80e7acec6f0eedfc456",
      "assetIds": []
    },
    {
      "x": 25,
      "y": 123,
      "size": 1,
      "price": "1011000000000000000000",
      "reserved": "",
      "salt": "0xfded31e7a0c6ba71432ec1d4e1cba77b9c1639076a5c4aa48fd9c448a8599fd1",
      "assetIds": []
    },
    {
      "x": 24,
      "y": 123,
      "size": 1,
      "price": "1011000000000000000000",
      "reserved": "",
      "salt": "0xb2b088af10d7e259bb32dfcd9605db7614c011caa3a8358d99b27cd23ca54d90",
      "assetIds": []
    },
    {
      "x": 23,
      "y": 123,
      "size": 1,
      "price": "1011000000000000000000",
      "reserved": "",
      "salt": "0x77df90f6a70a0fc4e74adc2d389e9ed800f0429c5b7ea6592a3ffbc166652b4b",
      "assetIds": []
    },
    {
      "x": 22,
      "y": 123,
      "size": 1,
      "price": "1011000000000000000000",
      "reserved": "",
      "salt": "0x86f36ffcd24e91abbeb65a3167ad7b70d9685e837563fe8ba24ab6bfd4d8edaa",
      "assetIds": []
    },
    {
      "x": 21,
      "y": 123,
      "size": 1,
      "price": "1011000000000000000000",
      "reserved": "",
      "salt": "0xaf845c414db9db90e0979c59e478de2d3544031e89a2e3c008d6d657f625952c",
      "assetIds": []
    },
    {
      "x": 20,
      "y": 123,
      "size": 1,
      "price": "1011000000000000000000",
      "reserved": "",
      "salt": "0x8cd7c69919a7ff2921d6bb29a88b9ee1bd7b07db0ddfc133c11eefb39bbdab11",
      "assetIds": []
    },
    {
      "x": 19,
      "y": 123,
      "size": 1,
      "price": "1011000000000000000000",
      "reserved": "",
      "salt": "0x0a0783cbcf5a593b88358760293129c15064b956586caf621bcb172d355b5176",
      "assetIds": []
    },
    {
      "x": 18,
      "y": 123,
      "size": 1,
      "price": "1011000000000000000000",
      "reserved": "",
      "salt": "0x06f538633e00737b5e5f3ec5c4b75bdeed98a7d22ec4e50ef4cb40115ef4a9c3",
      "assetIds": []
    },
    {
      "x": 18,
      "y": 124,
      "size": 1,
      "price": "1011000000000000000000",
      "reserved": "",
      "salt": "0xbb610fa7fffcd70d753c48ff24bcf356434e58cf661cdd7f6366552d53c39ef6",
      "assetIds": []
    },
    {
      "x": 19,
      "y": 122,
      "size": 1,
      "price": "1011000000000000000000",
      "reserved": "",
      "salt": "0xd3f670d32b1342b5b95f0052fe827bdc9799ece0ab2581c3f3128ac2d1c7e024",
      "assetIds": []
    },
    {
      "x": 19,
      "y": 121,
      "size": 1,
      "price": "1011000000000000000000",
      "reserved": "",
      "salt": "0x69deb9e4a62992c5d023fd518b667eaf0b05e7d5069dabf31daa6d525e952adb",
      "assetIds": []
    },
    {
      "x": 19,
      "y": 120,
      "size": 1,
      "price": "1011000000000000000000",
      "reserved": "",
      "salt": "0x76c2d4efebd24d966be54b615dcb56c608dafd9c8f98a01ecd02a781b864d66f",
      "assetIds": []
    },
    {
      "x": 20,
      "y": 120,
      "size": 1,
      "price": "1011000000000000000000",
      "reserved": "",
      "salt": "0xe719f3dd834b34bd3b0d019f1775b85a79fe92ba05c9224d89a271f9dc13d9e4",
      "assetIds": []
    },
    {
      "x": 22,
      "y": 120,
      "size": 1,
      "price": "1011000000000000000000",
      "reserved": "",
      "salt": "0xbdd91294dde51fb533de13af46d66e707557062eb19d5e4ae72e2465548b9230",
      "assetIds": []
    },
    {
      "x": 23,
      "y": 120,
      "size": 1,
      "price": "1011000000000000000000",
      "reserved": "",
      "salt": "0x82b7c1610d27fea3451b0b7f8b78ec2efff2acf6ec158655f6de958dfaa59b3b",
      "assetIds": []
    },
    {
      "x": 24,
      "y": 120,
      "size": 1,
      "price": "1011000000000000000000",
      "reserved": "",
      "salt": "0x7ee3ed36f84284b49d5f8d49f1d4fd625a413d0f54645f95cec85dcfdab2fc67",
      "assetIds": []
    },
    {
      "x": 25,
      "y": 120,
      "size": 1,
      "price": "1011000000000000000000",
      "reserved": "",
      "salt": "0xe9db3d1ab0538b284ec1185c3354fce9b10630f7b3b6654a1c3b87264041263d",
      "assetIds": []
    },
    {
      "x": 23,
      "y": 121,
      "size": 1,
      "price": "1011000000000000000000",
      "reserved": "",
      "salt": "0x95c864409a65c6c9e9352562a30642d839a1310e6f3446b40e759aaeebca61cc",
      "assetIds": []
    },
    {
      "x": 22,
      "y": 121,
      "size": 1,
      "price": "1011000000000000000000",
      "reserved": "",
      "salt": "0x64f68b3f4923b88a80a1134f70bf55439e985f3de13deb7e6acffab85fc00650",
      "assetIds": []
    },
    {
      "x": 21,
      "y": 121,
      "size": 1,
      "price": "1011000000000000000000",
      "reserved": "",
      "salt": "0x6e6f192997ea1527fd204381a819ca13de6dcd2f0abfcf01d9a3d0aab75f9279",
      "assetIds": []
    },
    {
      "x": 20,
      "y": 121,
      "size": 1,
      "price": "1011000000000000000000",
      "reserved": "",
      "salt": "0x83667c3cd2432bcbb4842234ce0eb59c952c66564ee916087961584d135dc433",
      "assetIds": []
    },
    {
      "x": 18,
      "y": 121,
      "size": 1,
      "price": "1011000000000000000000",
      "reserved": "",
      "salt": "0x93ff75f624b8fffab779cace24c292e4b38063aadc860f66f66966a5f802b4d9",
      "assetIds": []
    },
    {
      "x": 20,
      "y": 122,
      "size": 1,
      "price": "1011000000000000000000",
      "reserved": "",
      "salt": "0x493549d0edbcd26f7277c10c330e89fb8860941acb8a1edc859a61b11fb00dc7",
      "assetIds": []
    },
    {
      "x": 21,
      "y": 122,
      "size": 1,
      "price": "1011000000000000000000",
      "reserved": "",
      "salt": "0xe361d6b4170de2ce40d54ce72f83d22e5d7354a6ca613d556b46b55b3b924414",
      "assetIds": []
    },
    {
      "x": 22,
      "y": 122,
      "size": 1,
      "price": "1011000000000000000000",
      "reserved": "",
      "salt": "0x99a10c680ab8015aaf617439f5b4f716a1dfed6e434188c03582b0b5364a7e48",
      "assetIds": []
    },
    {
      "x": 23,
      "y": 122,
      "size": 1,
      "price": "1011000000000000000000",
      "reserved": "",
      "salt": "0x7e7566a2cd1acdd621f2ff4bd62246f532db43979ea347143a1515a2c10da02c",
      "assetIds": []
    },
    {
      "x": 24,
      "y": 122,
      "size": 1,
      "price": "1011000000000000000000",
      "reserved": "",
      "salt": "0x96bef26da8ae388669ecc7f7897c08f7d9d8dd424915933c7485ce362a084407",
      "assetIds": []
    },
    {
      "x": 18,
      "y": 122,
      "size": 1,
      "price": "1011000000000000000000",
      "reserved": "",
      "salt": "0x2c7af2e9e9f3c03696dceda7f8fa8e138841f75adc7f205e2cf855a298a5dfbd",
      "assetIds": []
    },
    {
      "x": 18,
      "y": 120,
      "size": 1,
      "price": "1011000000000000000000",
      "reserved": "",
      "salt": "0x46b246b1538d9eca0055df57dc140706a657bcf13c7902ff483003373e23f8eb",
      "assetIds": []
    },
    {
      "x": 24,
      "y": 119,
      "size": 1,
      "price": "1011000000000000000000",
      "reserved": "",
      "salt": "0x11b6d618e1c82ee1d36c950a309b7367737de31e73e12f9a90c56a978c269e6c",
      "assetIds": []
    },
    {
      "x": 25,
      "y": 119,
      "size": 1,
      "price": "1011000000000000000000",
      "reserved": "",
      "salt": "0xf20613c815223fcccfa89b0ba6255d97e7a12a49882e497fb26a7b9227900ebc",
      "assetIds": []
    },
    {
      "x": 27,
      "y": 120,
      "size": 1,
      "price": "1011000000000000000000",
      "reserved": "",
      "salt": "0xc9714a62d171b667da9b920b56803a8ca4b6d7367425a8f8157d8828042f0f82",
      "assetIds": []
    },
    {
      "x": 27,
      "y": 119,
      "size": 1,
      "price": "1011000000000000000000",
      "reserved": "",
      "salt": "0x41516184ed7e22720a62661f7e6102c20d1c2a415a6b487c64a155fd0ed80e03",
      "assetIds": []
    },
    {
      "x": 25,
      "y": 118,
      "size": 1,
      "price": "1011000000000000000000",
      "reserved": "",
      "salt": "0xa62caa0d733403bebfbc9872027dd24ca2aa15b8ef1d309a061c45374abc1bb9",
      "assetIds": []
    },
    {
      "x": 24,
      "y": 118,
      "size": 1,
      "price": "1011000000000000000000",
      "reserved": "",
      "salt": "0x9af3e1337f15e814d9214539019dcb1d0f7eff80ecc13948c040c829dd18778a",
      "assetIds": []
    },
    {
      "x": 24,
      "y": 117,
      "size": 1,
      "price": "1011000000000000000000",
      "reserved": "",
      "salt": "0x5510b20a5ec4d06b0526c71b106958bdf49c4dcd1551fceb9e725126c4466393",
      "assetIds": []
    },
    {
      "x": 25,
      "y": 117,
      "size": 1,
      "price": "1011000000000000000000",
      "reserved": "",
      "salt": "0xa719becca8723e5c058bce64fae8d38bdde26384be3766af1cfef5785829b26e",
      "assetIds": []
    },
    {
      "x": 25,
      "y": 121,
      "size": 1,
      "price": "1011000000000000000000",
      "reserved": "",
      "salt": "0x4837f67ccb246dbe39127227a22f43c02227a4ba06533508e85cb2a0e9f0c20e",
      "assetIds": []
    },
    {
      "x": 26,
      "y": 123,
      "size": 1,
      "price": "1011000000000000000000",
      "reserved": "",
      "salt": "0x42ca51a5a9730728b331872a5e75ff98e6ce1aa40e0539b9e1459618e562c95d",
      "assetIds": []
    },
    {
      "x": 24,
      "y": 121,
      "size": 1,
      "price": "1011000000000000000000",
      "reserved": "",
      "salt": "0x7748cf264adf62470c6dcac0f5ae724e3547b296822d3cfd037f9359e15af09c",
      "assetIds": []
    },
    {
      "x": 21,
      "y": 120,
      "size": 1,
      "price": "1011000000000000000000",
      "reserved": "",
      "salt": "0x6fb93d50ef821244379e26a46d2d04b7edc81a4b1bdfb536bcb8446b9da97b0f",
      "assetIds": []
    },
    {
      "x": 27,
      "y": 121,
      "size": 1,
      "price": "1011000000000000000000",
      "reserved": "",
      "salt": "0xe9b57b4f8624565837a98da151470f9386ef06ca01f51efb35623fbb27a9d1f9",
      "assetIds": []
    },
    {
      "x": 28,
      "y": 121,
      "size": 1,
      "price": "1011000000000000000000",
      "reserved": "",
      "salt": "0x1979c14ca31a181b8cf89cf87b2d505b11e74f9012afff519867e480c2c41e7a",
      "assetIds": []
    },
    {
      "x": 28,
      "y": 120,
      "size": 1,
      "price": "1011000000000000000000",
      "reserved": "",
      "salt": "0x6b8218ce0da280ab26729bbba37508c76acecebc5812a58c69dfb08595371a81",
      "assetIds": []
    },
    {
      "x": 28,
      "y": 119,
      "size": 1,
      "price": "1011000000000000000000",
      "reserved": "",
      "salt": "0x2b856dbfd7d34a837531c0543aa39dc0ab15555470d246d39b5287fb7d656d36",
      "assetIds": []
    },
    {
      "x": 28,
      "y": 118,
      "size": 1,
      "price": "1011000000000000000000",
      "reserved": "",
      "salt": "0x4ee261a40b5e3ae98125d88e0b9658ff98f16da6b5061f25dc05693ae798498f",
      "assetIds": []
    },
    {
      "x": 28,
      "y": 117,
      "size": 1,
      "price": "1011000000000000000000",
      "reserved": "",
      "salt": "0xc023e4628e1f0b7d8039f96391c6da872d304e897e9efa1bace1e9d2918ed64f",
      "assetIds": []
    },
    {
      "x": 28,
      "y": 116,
      "size": 1,
      "price": "1011000000000000000000",
      "reserved": "",
      "salt": "0xfa78a66160823a05314790a56c47d307bd55746dc09520502566a42440e3352c",
      "assetIds": []
    },
    {
      "x": 28,
      "y": 115,
      "size": 1,
      "price": "1011000000000000000000",
      "reserved": "",
      "salt": "0x32a4b39cd8d496538c331762502dcdb979578609929ad22e156f85147e2ce305",
      "assetIds": []
    },
    {
      "x": 28,
      "y": 114,
      "size": 1,
      "price": "1011000000000000000000",
      "reserved": "",
      "salt": "0x4fbc04191a0303d043017ce9b4a3550edd2cf3911e3ca751f504c6c4c98feaf6",
      "assetIds": []
    },
    {
      "x": 28,
      "y": 113,
      "size": 1,
      "price": "1011000000000000000000",
      "reserved": "",
      "salt": "0xd28513fdcb54897656714bd77d90bc4ac194b10633e431cde17da6de0c6c939d",
      "assetIds": []
    },
    {
      "x": 27,
      "y": 116,
      "size": 1,
      "price": "1011000000000000000000",
      "reserved": "",
      "salt": "0x8e0748c530d8732ddde428eb53aea7d69f8b1d72cdfdb687a7f2cb707e0cc95f",
      "assetIds": []
    },
    {
      "x": 27,
      "y": 117,
      "size": 1,
      "price": "1011000000000000000000",
      "reserved": "",
      "salt": "0x7d7101760ca91ef36aa9b06b75b3c6e7b49dd702fa0de38570818ca7fedd2b1e",
      "assetIds": []
    },
    {
      "x": 0,
      "y": 191,
      "size": 1,
      "price": "1011000000000000000000",
      "reserved": "",
      "salt": "0x83d62e26e8b6be9401a7bf058d9129bc8392fc14bb5974681f4128fb85ba69b3",
      "assetIds": []
    },
    {
      "x": 1,
      "y": 191,
      "size": 1,
      "price": "1011000000000000000000",
      "reserved": "",
      "salt": "0x90f6671d31c7b23971d21c3e245d82d69a73df2aadf1bdc5338f078eb62ffb50",
      "assetIds": []
    },
    {
      "x": 2,
      "y": 191,
      "size": 1,
      "price": "1011000000000000000000",
      "reserved": "",
      "salt": "0x28423fc2d1c385e4d0d419ca4ff93ff15c5b0f067a71b9680a06d47156233ebb",
      "assetIds": []
    },
    {
      "x": 3,
      "y": 191,
      "size": 1,
      "price": "1011000000000000000000",
      "reserved": "",
      "salt": "0xd236950c82df60f05fbcbe84c8270e4dc57ad91964027229017716e90c68978a",
      "assetIds": []
    },
    {
      "x": 4,
      "y": 191,
      "size": 1,
      "price": "1011000000000000000000",
      "reserved": "",
      "salt": "0xeb0a5a79e9cd3ad50a35a8ee14281f3823e50f9bb06aac06ac6d70222755cbdd",
      "assetIds": []
    },
    {
      "x": 5,
      "y": 191,
      "size": 1,
      "price": "1011000000000000000000",
      "reserved": "",
      "salt": "0xc03379767fec3dfc961855d3f8f49b567edd8bce97b96790b7adb8019daef14e",
      "assetIds": []
    },
    {
      "x": 6,
      "y": 191,
      "size": 1,
      "price": "1011000000000000000000",
      "reserved": "",
      "salt": "0x700123dc6d2dbd4fa48c488f3d40630401cddbafe97228dd1d17405dcdbf924b",
      "assetIds": []
    },
    {
      "x": 6,
      "y": 190,
      "size": 1,
      "price": "1011000000000000000000",
      "reserved": "",
      "salt": "0x9ed205604e8acb81a17db536813b6963b45fd85299fc6633217a4cc19670e73d",
      "assetIds": []
    },
    {
      "x": 7,
      "y": 190,
      "size": 1,
      "price": "1011000000000000000000",
      "reserved": "",
      "salt": "0x998e3a9b85a645f070fbce7fb08afd89f88bbceec955e624a9b77e7d2cf7cc81",
      "assetIds": []
    },
    {
      "x": 8,
      "y": 190,
      "size": 1,
      "price": "1011000000000000000000",
      "reserved": "",
      "salt": "0xdab1ba9b8bec65576dc4e3dfde7a569a1bb09abc470ab38662dad1201c9aac84",
      "assetIds": []
    },
    {
      "x": 9,
      "y": 189,
      "size": 1,
      "price": "1011000000000000000000",
      "reserved": "",
      "salt": "0x8e16915816030dd6e9c57fc1aa6a95dd02d7b32833a22749f7104e7d35461315",
      "assetIds": []
    },
    {
      "x": 10,
      "y": 189,
      "size": 1,
      "price": "1011000000000000000000",
      "reserved": "",
      "salt": "0xbdda38ba4046891d14fdcee76a2fb602061cb708f830e63342ac80a70f7edc81",
      "assetIds": []
    },
    {
      "x": 11,
      "y": 189,
      "size": 1,
      "price": "1011000000000000000000",
      "reserved": "",
      "salt": "0xe2cf35bdf1c303401f44d8aa40c8a483b58ff7b1e6980bc484c1c00db31b92b9",
      "assetIds": []
    },
    {
      "x": 10,
      "y": 190,
      "size": 1,
      "price": "1011000000000000000000",
      "reserved": "",
      "salt": "0x266db3fa97d32388c69815bcf86e4b1f191249c65c9eabbdbdf9e52878ccdc7e",
      "assetIds": []
    },
    {
      "x": 10,
      "y": 191,
      "size": 1,
      "price": "1011000000000000000000",
      "reserved": "",
      "salt": "0xc2671171e361a336f5f27c73ed09b85e1010d796cbc91b6f52e0abbda6c3e4fd",
      "assetIds": []
    },
    {
      "x": 11,
      "y": 191,
      "size": 1,
      "price": "1011000000000000000000",
      "reserved": "",
      "salt": "0x88794dc5f3f337b9574e801f949d0fea1aff840675d6102153ad989fc265c99b",
      "assetIds": []
    },
    {
      "x": 9,
      "y": 191,
      "size": 1,
      "price": "1011000000000000000000",
      "reserved": "",
      "salt": "0x43ef3d159a91b7ed8f57b0c1a1802502a38fb9b99455e4bafb2f193e39e17dbf",
      "assetIds": []
    },
    {
      "x": 8,
      "y": 191,
      "size": 1,
      "price": "1011000000000000000000",
      "reserved": "",
      "salt": "0x9896411023ecec1012144e01e7cbdefa64f658126f601e023519ae64e8fd74a1",
      "assetIds": []
    },
    {
      "x": 7,
      "y": 191,
      "size": 1,
      "price": "1011000000000000000000",
      "reserved": "",
      "salt": "0xa41587a0dc4864216d5a74d5a13f826fb8f23c5ab04fb24479d37b861149f930",
      "assetIds": []
    },
    {
      "x": 9,
      "y": 190,
      "size": 1,
      "price": "1011000000000000000000",
      "reserved": "",
      "salt": "0x3defa3cdb68ed085242a954b5d32fbf86e3084d20c541c1723c4ee977efd51b5",
      "assetIds": []
    },
    {
      "x": 11,
      "y": 190,
      "size": 1,
      "price": "1011000000000000000000",
      "reserved": "",
      "salt": "0xf72996f768d1d8cea00711039ad1454217a474b32792763f2660ffb81869e1e2",
      "assetIds": []
    },
    {
      "x": 11,
      "y": 188,
      "size": 1,
      "price": "1011000000000000000000",
      "reserved": "",
      "salt": "0xeb5e317de164a0d8c4602455306093601e463dc8b7faa2e0c5654d2119b325c9",
      "assetIds": []
    },
    {
      "x": 11,
      "y": 187,
      "size": 1,
      "price": "1011000000000000000000",
      "reserved": "",
      "salt": "0x446152fe9c6fe5002c74c7e19eac8d7835c89011e360d856ea7d361397c06d96",
      "assetIds": []
    },
    {
      "x": 11,
      "y": 186,
      "size": 1,
      "price": "1011000000000000000000",
      "reserved": "",
      "salt": "0xcd0f031d3c0a0816290b85a98979507806045ffeea3230fb36fe305bd8d3268c",
      "assetIds": []
    },
    {
      "x": 11,
      "y": 185,
      "size": 1,
      "price": "1011000000000000000000",
      "reserved": "",
      "salt": "0xb8e8b83e8b0c702645108a80002df252dbf3a999bcf4f6263505fcc62cdfaa99",
      "assetIds": []
    },
    {
      "x": 11,
      "y": 184,
      "size": 1,
      "price": "1011000000000000000000",
      "reserved": "",
      "salt": "0xbf79a7712506b5f5f02b33315480830b17fc16e9b70d8f118ef4844faa337aa7",
      "assetIds": []
    },
    {
      "x": 11,
      "y": 183,
      "size": 1,
      "price": "1011000000000000000000",
      "reserved": "",
      "salt": "0x096afdcd4be769016ce220790199858c266035cee5de10af9cf2f1ef3eef7fda",
      "assetIds": []
    },
    {
      "x": 11,
      "y": 182,
      "size": 1,
      "price": "1011000000000000000000",
      "reserved": "",
      "salt": "0x0e5b2157854923a109d23996307a939058240f9b7770347fb38191da381219a6",
      "assetIds": []
    },
    {
      "x": 11,
      "y": 174,
      "size": 1,
      "price": "1011000000000000000000",
      "reserved": "",
      "salt": "0xa140ffa2bb5b34d2a2eb08026e7c8cfbcf0dc555a5e84ae49ccea2842468ab06",
      "assetIds": []
    },
    {
      "x": 11,
      "y": 175,
      "size": 1,
      "price": "1011000000000000000000",
      "reserved": "",
      "salt": "0xecee6e01fbc8db2e8c8b3bdcd2b9fcfdb0b157a367d5ab59d40de05a7b8308d4",
      "assetIds": []
    },
    {
      "x": 11,
      "y": 176,
      "size": 1,
      "price": "1011000000000000000000",
      "reserved": "",
      "salt": "0x6a3e5b510876d63c7fa7afa4ed550a3a8c0e6f67e4205c1c48b442a97f5f4218",
      "assetIds": []
    },
    {
      "x": 11,
      "y": 177,
      "size": 1,
      "price": "1011000000000000000000",
      "reserved": "",
      "salt": "0x499f5a1e3eb2f118e1550c9d36fd5ff1cdc32fde7e6bb09fc18c6254c8e159e9",
      "assetIds": []
    },
    {
      "x": 11,
      "y": 178,
      "size": 1,
      "price": "1011000000000000000000",
      "reserved": "",
      "salt": "0x8762cb82254274d5b82aa6f853e95f366fd5b3eba8a539da96e477d802da660c",
      "assetIds": []
    },
    {
      "x": 11,
      "y": 179,
      "size": 1,
      "price": "1011000000000000000000",
      "reserved": "",
      "salt": "0xa0b2fd582e4a7eb3147671185aceb7d7e66641058021aaf7b7b0904f28c8646b",
      "assetIds": []
    },
    {
      "x": 11,
      "y": 180,
      "size": 1,
      "price": "1011000000000000000000",
      "reserved": "",
      "salt": "0xba8ca8557d694d652ed3c9cd1de8a66896f6ddf4c4504c4842e50c13c32392ac",
      "assetIds": []
    },
    {
      "x": 11,
      "y": 181,
      "size": 1,
      "price": "1011000000000000000000",
      "reserved": "",
      "salt": "0x6aa4b2dcf0ac0d7381bdfc1e45b9257379ea7b2587cd9e79443374de6d81b938",
      "assetIds": []
    },
    {
      "x": 12,
      "y": 173,
      "size": 1,
      "price": "1011000000000000000000",
      "reserved": "",
      "salt": "0xca8ae3d3628294350e2b09d52fbe0c1048448e89c8944539f346128ab4d96ac0",
      "assetIds": []
    },
    {
      "x": 12,
      "y": 172,
      "size": 1,
      "price": "1011000000000000000000",
      "reserved": "",
      "salt": "0x92ce661edd0844ede74ce3d97bda89f25cd18129d855f96f1be4b8f453eca2ad",
      "assetIds": []
    },
    {
      "x": 12,
      "y": 171,
      "size": 1,
      "price": "1011000000000000000000",
      "reserved": "",
      "salt": "0x45dc9b64c9a03b94e459355951db097771321a4914bd839667bd4da154e02d16",
      "assetIds": []
    },
    {
      "x": 12,
      "y": 170,
      "size": 1,
      "price": "1011000000000000000000",
      "reserved": "",
      "salt": "0x37926cb9e7c5db5ccca1dec7c6add04fd70f5991abad0b84eadbc5229829a30f",
      "assetIds": []
    },
    {
      "x": 12,
      "y": 169,
      "size": 1,
      "price": "1011000000000000000000",
      "reserved": "",
      "salt": "0xf0dca7f4a26f15d03490d2354333e6030e023e03ca3fa60485be41a73c67a30f",
      "assetIds": []
    },
    {
      "x": 12,
      "y": 168,
      "size": 1,
      "price": "1011000000000000000000",
      "reserved": "",
      "salt": "0x7ee6e3277cdec7f0655af7f4da57aa3ddabc4dc10fb1ad13724d7048e0ea22b1",
      "assetIds": []
    },
    {
      "x": 10,
      "y": 168,
      "size": 1,
      "price": "1011000000000000000000",
      "reserved": "",
      "salt": "0x499f548f098495aa1568661587ffc0f0e36ab0f7e2243956f873e63337bbcd1d",
      "assetIds": []
    },
    {
      "x": 9,
      "y": 168,
      "size": 1,
      "price": "1011000000000000000000",
      "reserved": "",
      "salt": "0x172e370a41155a10145ec820f52d542dc27a449e064b2e4b3b48eae461e9e046",
      "assetIds": []
    },
    {
      "x": 8,
      "y": 168,
      "size": 1,
      "price": "1011000000000000000000",
      "reserved": "",
      "salt": "0xc5527549617cb5c58bb88f2ab6c76ecffdea8a532b75e1e8717142e4c72156f4",
      "assetIds": []
    },
    {
      "x": 7,
      "y": 168,
      "size": 1,
      "price": "1011000000000000000000",
      "reserved": "",
      "salt": "0xc70d3edc3c641d1d59762b5d7a968837100d5073d8cc361a51498746ff4a668b",
      "assetIds": []
    },
    {
      "x": 6,
      "y": 168,
      "size": 1,
      "price": "1011000000000000000000",
      "reserved": "",
      "salt": "0x17933837ee5e2572d9b94daa095c2cfd1a9ac7db9be84fb4c6370b5d1c784fad",
      "assetIds": []
    },
    {
      "x": 5,
      "y": 168,
      "size": 1,
      "price": "1011000000000000000000",
      "reserved": "",
      "salt": "0xe8fd83cde538e0b6d63f2561c01d92b7f8b246706b13bdd424a7f068a6a10f5e",
      "assetIds": []
    },
    {
      "x": 5,
      "y": 169,
      "size": 1,
      "price": "1011000000000000000000",
      "reserved": "",
      "salt": "0x7237174fe9e2aace71b17f500f2e05ef9fdf53ccc54b8af036d6d5326087597e",
      "assetIds": []
    },
    {
      "x": 4,
      "y": 169,
      "size": 1,
      "price": "1011000000000000000000",
      "reserved": "",
      "salt": "0x4019240a00bbbded72f6339cccd7ceecc4bc723cce3538054c78128196631ae4",
      "assetIds": []
    },
    {
      "x": 3,
      "y": 169,
      "size": 1,
      "price": "1011000000000000000000",
      "reserved": "",
      "salt": "0xa847b855c67b409dd3351c5edf3ce3868c30f7edd12e5c5416bf23454646467f",
      "assetIds": []
    },
    {
      "x": 2,
      "y": 169,
      "size": 1,
      "price": "1011000000000000000000",
      "reserved": "",
      "salt": "0x6a640941cb4bc783187a8950da07df6f496532811ef6b5d2318d6021ab5e9f29",
      "assetIds": []
    },
    {
      "x": 1,
      "y": 169,
      "size": 1,
      "price": "1011000000000000000000",
      "reserved": "",
      "salt": "0x0b6103339e8c3e0e9cf52b019cb91f9ae63250788ac60fd6d9a6ca1e7131b40b",
      "assetIds": []
    },
    {
      "x": 0,
      "y": 169,
      "size": 1,
      "price": "1011000000000000000000",
      "reserved": "",
      "salt": "0xd753c6f0017fce11e2ccf048775ff58c903ed5791931c0e17acb3b4692611e73",
      "assetIds": []
    },
    {
      "x": 0,
      "y": 168,
      "size": 1,
      "price": "1011000000000000000000",
      "reserved": "",
      "salt": "0x82b87b8e5b69801a98dce1f3732617b49fca27dcc1b34a5d0bf1e2abf8303671",
      "assetIds": []
    },
    {
      "x": 11,
      "y": 168,
      "size": 1,
      "price": "1011000000000000000000",
      "reserved": "",
      "salt": "0x550a54999b60038b8a99e3d5bda2ea1c221cc1de1cbe18046a6aa151be1f692d",
      "assetIds": []
    },
    {
      "x": 6,
      "y": 169,
      "size": 1,
      "price": "1011000000000000000000",
      "reserved": "",
      "salt": "0xaf24cdcfa74f099286578e09a6fa5c9de6b85a1fcede537e32894afd2a2a34a4",
      "assetIds": []
    },
    {
      "x": 1,
      "y": 168,
      "size": 1,
      "price": "1011000000000000000000",
      "reserved": "",
      "salt": "0xa19694e2172fb12f095236c998d51578715a52853e696206664c1869fae20444",
      "assetIds": []
    },
    {
      "x": 2,
      "y": 168,
      "size": 1,
      "price": "1011000000000000000000",
      "reserved": "",
      "salt": "0xb3bb11bf860a71ed1ed3dcc504cddceb0f6fce0d6a19d1d7660e205b3a761b1d",
      "assetIds": []
    },
    {
      "x": 4,
      "y": 168,
      "size": 1,
      "price": "1011000000000000000000",
      "reserved": "",
      "salt": "0x4230db3d90466af57419ec4336012c1c52ba9c8a6fdcfcbaced6e637ddcf98fb",
      "assetIds": []
    },
    {
      "x": 3,
      "y": 168,
      "size": 1,
      "price": "1011000000000000000000",
      "reserved": "",
      "salt": "0xe89252c9cc2c2602e7940b9684ead5d5fc1a656c01001875b26e5fcbf2a942d2",
      "assetIds": []
    },
    {
      "x": 2,
      "y": 170,
      "size": 1,
      "price": "1011000000000000000000",
      "reserved": "",
      "salt": "0xa3ae21c1bf898caab36ad98a3411dd83c7b53ee696f61c9414714a3d84ee1de4",
      "assetIds": []
    },
    {
      "x": 2,
      "y": 171,
      "size": 1,
      "price": "1011000000000000000000",
      "reserved": "",
      "salt": "0xdce96c81bf8cf73378e896ec6e3b8bf17ce39af075fa00f8792e1dff2f120adc",
      "assetIds": []
    },
    {
      "x": 2,
      "y": 172,
      "size": 1,
      "price": "1011000000000000000000",
      "reserved": "",
      "salt": "0x2b91c34e3a29412c849bcce4eb0a82dcd359e91186d142973f43ed4a5231721d",
      "assetIds": []
    },
    {
      "x": 2,
      "y": 173,
      "size": 1,
      "price": "1011000000000000000000",
      "reserved": "",
      "salt": "0x2f2329ab515f7f637d44c4004787882be1a4d1eba91b6a415b6b3b27a0cc2360",
      "assetIds": []
    },
    {
      "x": 2,
      "y": 174,
      "size": 1,
      "price": "1011000000000000000000",
      "reserved": "",
      "salt": "0x0b73d039b88b64d13770937f8f178dc24bac5a17421da64bfe737f1a9e1e2a0e",
      "assetIds": []
    },
    {
      "x": 2,
      "y": 175,
      "size": 1,
      "price": "1011000000000000000000",
      "reserved": "",
      "salt": "0xccfc19d55344c727be9759f9df78e5173da151535ba12bbbd7252c5550485dff",
      "assetIds": []
    },
    {
      "x": 2,
      "y": 176,
      "size": 1,
      "price": "1011000000000000000000",
      "reserved": "",
      "salt": "0xd5a5020258c9d3762d6c1582525b1a6b93be056dff3316a2b91ae874802f4de7",
      "assetIds": []
    },
    {
      "x": 2,
      "y": 177,
      "size": 1,
      "price": "1011000000000000000000",
      "reserved": "",
      "salt": "0xaa0f35f3066053973ddef981302fc724a415497f965afcc5c99da248b091cb25",
      "assetIds": []
    },
    {
      "x": 2,
      "y": 178,
      "size": 1,
      "price": "1011000000000000000000",
      "reserved": "",
      "salt": "0xa6bbb8381964ada4eb8b1489946a85cd85a6ae8ab3a0b2cdcc96e5e5437201c4",
      "assetIds": []
    },
    {
      "x": 2,
      "y": 179,
      "size": 1,
      "price": "1011000000000000000000",
      "reserved": "",
      "salt": "0x4b58624f50b365dc95af6ff4cf6e471288be646f658b1479f05665957a0c8a61",
      "assetIds": []
    },
    {
      "x": 3,
      "y": 180,
      "size": 1,
      "price": "1011000000000000000000",
      "reserved": "",
      "salt": "0x21b769706e3492059785ee9ba20ccb9b65be2abb7f9277997c354d5fb1263fef",
      "assetIds": []
    },
    {
      "x": 3,
      "y": 181,
      "size": 1,
      "price": "1011000000000000000000",
      "reserved": "",
      "salt": "0xfee1316a96208c06f94eee8e1c42ad10d4fec18f3bdcea336895fe08e4f84bdb",
      "assetIds": []
    },
    {
      "x": 4,
      "y": 182,
      "size": 1,
      "price": "1011000000000000000000",
      "reserved": "",
      "salt": "0x06ef4ee170f50f2c24b962e6bb49f4798854673a726282a6e261c803a183bdce",
      "assetIds": []
    },
    {
      "x": 4,
      "y": 183,
      "size": 1,
      "price": "1011000000000000000000",
      "reserved": "",
      "salt": "0xd3b070e6a1f5176f560c56e4df6e8efe51296350d505f2910bf28d1f3bdbd00f",
      "assetIds": []
    },
    {
      "x": 4,
      "y": 184,
      "size": 1,
      "price": "1011000000000000000000",
      "reserved": "",
      "salt": "0x5b51affa5303bb536fd40f961a614c9a2bbeaed1e9ff5edf664df4e4de7f8c83",
      "assetIds": []
    },
    {
      "x": 4,
      "y": 185,
      "size": 1,
      "price": "1011000000000000000000",
      "reserved": "",
      "salt": "0xf5e1f164a53e1fc143ba235d2b581a5749ad1d954f2c311b9365b62c10cda2d9",
      "assetIds": []
    },
    {
      "x": 4,
      "y": 186,
      "size": 1,
      "price": "1011000000000000000000",
      "reserved": "",
      "salt": "0x2ac5b6dc6766331499cbe36163264be5fe1f38582b8cad821949452f7f79124b",
      "assetIds": []
    },
    {
      "x": 4,
      "y": 187,
      "size": 1,
      "price": "1011000000000000000000",
      "reserved": "",
      "salt": "0xee0420d8c9ff58aceaa82c23685d498a1755dbebcd7ff9c3ecd567be5b67a3b4",
      "assetIds": []
    },
    {
      "x": 4,
      "y": 188,
      "size": 1,
      "price": "1011000000000000000000",
      "reserved": "",
      "salt": "0x26066c7d931c43405a91075c845814877cc796360dc6ed4d5b7edef0e332dec3",
      "assetIds": []
    },
    {
      "x": 4,
      "y": 189,
      "size": 1,
      "price": "1011000000000000000000",
      "reserved": "",
      "salt": "0x790a9a6276e125864ad3922a9bcf1c62b3cafd7308603be45a013029f2fbc595",
      "assetIds": []
    },
    {
      "x": 4,
      "y": 190,
      "size": 1,
      "price": "1011000000000000000000",
      "reserved": "",
      "salt": "0x8c8b46f9e39f046c33683ab24c5d8c81d11d2b6728271e661261003c6a46c319",
      "assetIds": []
    },
    {
      "x": 1,
      "y": 190,
      "size": 1,
      "price": "1011000000000000000000",
      "reserved": "",
      "salt": "0x8e71cbb858865ecb4f1f00a819a7d39aaf9761db0415877fa89282a5b1838b66",
      "assetIds": []
    },
    {
      "x": 0,
      "y": 190,
      "size": 1,
      "price": "1011000000000000000000",
      "reserved": "",
      "salt": "0xcdfa0a49480bcd3ed73df78c192e20db554c79cc36c4d1ea495695751970461d",
      "assetIds": []
    },
    {
      "x": 0,
      "y": 189,
      "size": 1,
      "price": "1011000000000000000000",
      "reserved": "",
      "salt": "0x900be7a5c8ff9fbe52261fa56f4e6d10c270f8ff0e202f6dc8b3f70bf66d3745",
      "assetIds": []
    },
    {
      "x": 0,
      "y": 188,
      "size": 1,
      "price": "1011000000000000000000",
      "reserved": "",
      "salt": "0x1f95c5c438a3a3780a5e9397005718cb92128ea090f748ad518046fb48a759d3",
      "assetIds": []
    },
    {
      "x": 0,
      "y": 187,
      "size": 1,
      "price": "1011000000000000000000",
      "reserved": "",
      "salt": "0xbeb591785596919e8eb6ade3ad0bad574b54e9744ab1254be29f054b068c46d8",
      "assetIds": []
    },
    {
      "x": 0,
      "y": 186,
      "size": 1,
      "price": "1011000000000000000000",
      "reserved": "",
      "salt": "0xcc959cab13a0b06e53cc39196a8182b82bc7ef145d73b95774f6841595781f96",
      "assetIds": []
    },
    {
      "x": 0,
      "y": 185,
      "size": 1,
      "price": "1011000000000000000000",
      "reserved": "",
      "salt": "0xdc81e7483949a649cddfb1fe565e415b9960c233cd93126d1895e4a6ef6e1ba8",
      "assetIds": []
    },
    {
      "x": 0,
      "y": 184,
      "size": 1,
      "price": "1011000000000000000000",
      "reserved": "",
      "salt": "0x8e7241fcac3d175e6dd3d52e3002e073429337348192b0338aa436d895822e66",
      "assetIds": []
    },
    {
      "x": 0,
      "y": 183,
      "size": 1,
      "price": "1011000000000000000000",
      "reserved": "",
      "salt": "0x16b86070fee227dd551780b843e755f30e6aad171cd73006139fe6b6971d389b",
      "assetIds": []
    },
    {
      "x": 0,
      "y": 182,
      "size": 1,
      "price": "1011000000000000000000",
      "reserved": "",
      "salt": "0x6c73bfc34d712a371df5787517a610c5871c3f6d7143b6a8b14ed53a51606a12",
      "assetIds": []
    },
    {
      "x": 0,
      "y": 181,
      "size": 1,
      "price": "1011000000000000000000",
      "reserved": "",
      "salt": "0xba4922b3a02de7cc1e4c50e237cbc66c0d486d36f0792e202f0cfa8baef89b83",
      "assetIds": []
    },
    {
      "x": 0,
      "y": 180,
      "size": 1,
      "price": "1011000000000000000000",
      "reserved": "",
      "salt": "0x7c02d463ac34aed67cd1e7b9d0683067097a86ffeaa0749bd40a7ab530f01085",
      "assetIds": []
    },
    {
      "x": 0,
      "y": 179,
      "size": 1,
      "price": "1011000000000000000000",
      "reserved": "",
      "salt": "0x9fde11f6516e8c99097c6f69630bf86c2ca48f9a1d4bd01edca92fb98f174f66",
      "assetIds": []
    },
    {
      "x": 0,
      "y": 178,
      "size": 1,
      "price": "1011000000000000000000",
      "reserved": "",
      "salt": "0x8bb382df3b92662ea464c3cb3762235308e22a5c5a4d9f05dfc89ad1d1558f59",
      "assetIds": []
    },
    {
      "x": 0,
      "y": 177,
      "size": 1,
      "price": "1011000000000000000000",
      "reserved": "",
      "salt": "0xa6bfe572dedb5b943d2b0a48a9f054090335ac0a6e1b83f3d3983a6f6b0e35a0",
      "assetIds": []
    },
    {
      "x": 0,
      "y": 176,
      "size": 1,
      "price": "1011000000000000000000",
      "reserved": "",
      "salt": "0x03f57c528cf78e0e38f90f9e6014df384af15e1ca036eb811b4b3031fef925c9",
      "assetIds": []
    },
    {
      "x": 0,
      "y": 175,
      "size": 1,
      "price": "1011000000000000000000",
      "reserved": "",
      "salt": "0x0ce71613c591e55e85fac688c625ba166344fc4b2be3a376965e4019e9f3dd76",
      "assetIds": []
    },
    {
      "x": 0,
      "y": 174,
      "size": 1,
      "price": "1011000000000000000000",
      "reserved": "",
      "salt": "0xfc7ee78f2a1376d5906ae1b9f0ae039e08d89c84f20800a8e754e4a9d4ce6b1b",
      "assetIds": []
    },
    {
      "x": 1,
      "y": 173,
      "size": 1,
      "price": "1011000000000000000000",
      "reserved": "",
      "salt": "0xc62b44dbcf6af6f923b206f45faeefd1c041bcf39258e17be3c3e0a42b17a8f2",
      "assetIds": []
    },
    {
      "x": 1,
      "y": 172,
      "size": 1,
      "price": "1011000000000000000000",
      "reserved": "",
      "salt": "0xad293efee2fa96d77d82f80e9a84fc4462c522d8a081d36b95a51ece0444fd6f",
      "assetIds": []
    },
    {
      "x": 1,
      "y": 171,
      "size": 1,
      "price": "1011000000000000000000",
      "reserved": "",
      "salt": "0x4c7263255241dfb6cbdee72f99638bdbafeabe01e534b2e7200c3487c40e0637",
      "assetIds": []
    },
    {
      "x": 1,
      "y": 170,
      "size": 1,
      "price": "1011000000000000000000",
      "reserved": "",
      "salt": "0xbc8127e0b76e6965c8406eba0634ad6f9d647e6f626255d71c969954142e21d7",
      "assetIds": []
    },
    {
      "x": 0,
      "y": 170,
      "size": 1,
      "price": "1011000000000000000000",
      "reserved": "",
      "salt": "0x1be43259f0c6d4bc600c64c78b1b7cf3cfb8928321ae7fb3b6084968f3b377ba",
      "assetIds": []
    },
    {
      "x": 0,
      "y": 171,
      "size": 1,
      "price": "1011000000000000000000",
      "reserved": "",
      "salt": "0x533aef7e0e9bbe452e77ed0d4e2ab9f0c3595ac279e9c22bc6443e78e7d3fa7c",
      "assetIds": []
    },
    {
      "x": 0,
      "y": 173,
      "size": 1,
      "price": "1011000000000000000000",
      "reserved": "",
      "salt": "0xcbe3846b507accfb067e3527c9ca02c4e8ef3bf98aacb899a4222d34dd6a9531",
      "assetIds": []
    },
    {
      "x": 0,
      "y": 172,
      "size": 1,
      "price": "1011000000000000000000",
      "reserved": "",
      "salt": "0x430cc741bbf99f0a2737a63ed147a487280fbd2b471f28732263c93446d3a607",
      "assetIds": []
    },
    {
      "x": 1,
      "y": 175,
      "size": 1,
      "price": "1011000000000000000000",
      "reserved": "",
      "salt": "0x929db7e0fc7f4e23d298b7098748ca0813a1de0bce86d6dc9c0e85b968177ab6",
      "assetIds": []
    },
    {
      "x": 1,
      "y": 176,
      "size": 1,
      "price": "1011000000000000000000",
      "reserved": "",
      "salt": "0x4ce3bee0bcd11d49fb7eedfac199207c8531d6a27adab1f33a30224743fedbee",
      "assetIds": []
    },
    {
      "x": 1,
      "y": 177,
      "size": 1,
      "price": "1011000000000000000000",
      "reserved": "",
      "salt": "0x61690fd8b7ea061a17cc66bac04c273dc5270792565d22416f1959a2629b20dd",
      "assetIds": []
    },
    {
      "x": 2,
      "y": 180,
      "size": 1,
      "price": "1011000000000000000000",
      "reserved": "",
      "salt": "0xaa9c2c005f10ce6237842e0978a18c134c92f82e52352c6a21d04a114ce3687e",
      "assetIds": []
    },
    {
      "x": 2,
      "y": 181,
      "size": 1,
      "price": "1011000000000000000000",
      "reserved": "",
      "salt": "0xbdf6357161f2091118f4f203fe5b353d4f6d79bc0479d753e0ff33e033421c36",
      "assetIds": []
    },
    {
      "x": 2,
      "y": 182,
      "size": 1,
      "price": "1011000000000000000000",
      "reserved": "",
      "salt": "0x82c781229bf2d5b1839ebda9deff44ac1643a726714fd114c548ec162feedd63",
      "assetIds": []
    },
    {
      "x": 2,
      "y": 183,
      "size": 1,
      "price": "1011000000000000000000",
      "reserved": "",
      "salt": "0x51d51d390f00c760d6aa4974da10ee1fc19cbb1e115c25b9b3f03496fc196aa9",
      "assetIds": []
    },
    {
      "x": 2,
      "y": 184,
      "size": 1,
      "price": "1011000000000000000000",
      "reserved": "",
      "salt": "0xfa90968a40bf61e5509090c9038742d71ea61c6cb6564c5303ed1cfd47df6a23",
      "assetIds": []
    },
    {
      "x": 2,
      "y": 185,
      "size": 1,
      "price": "1011000000000000000000",
      "reserved": "",
      "salt": "0x38430b7033622134a6f13f55761c4a98d85fa6ebbd3b891fd6665d4f9cb2b9e5",
      "assetIds": []
    },
    {
      "x": 2,
      "y": 186,
      "size": 1,
      "price": "1011000000000000000000",
      "reserved": "",
      "salt": "0x840bbc4d855ca8adce65f159ea2912ee378509913f6c7f65ceb365bc09cd562c",
      "assetIds": []
    },
    {
      "x": 2,
      "y": 187,
      "size": 1,
      "price": "1011000000000000000000",
      "reserved": "",
      "salt": "0xc38169e765aea213df70130e2371532dd77f9b83b1b16fbe40525161be174c7b",
      "assetIds": []
    },
    {
      "x": 1,
      "y": 174,
      "size": 1,
      "price": "1011000000000000000000",
      "reserved": "",
      "salt": "0xfba7d27b4d433be866b8fc4476a3f345de4fc40017e8f8010bd02180eccabaed",
      "assetIds": []
    },
    {
      "x": 1,
      "y": 178,
      "size": 1,
      "price": "1011000000000000000000",
      "reserved": "",
      "salt": "0x3576c7103a1b876d5d660e635d276c6dc3e32291956bb91991bdf2c56a0a7f37",
      "assetIds": []
    },
    {
      "x": 1,
      "y": 179,
      "size": 1,
      "price": "1011000000000000000000",
      "reserved": "",
      "salt": "0xe497f2f01dc02491180b879f06864412101622aa7cfe1b0c4ca2142be806135b",
      "assetIds": []
    },
    {
      "x": 1,
      "y": 180,
      "size": 1,
      "price": "1011000000000000000000",
      "reserved": "",
      "salt": "0xfb968e9ba2c74b4e276699b41aa69430bf64b92fa4ef99b40c472080a5154de1",
      "assetIds": []
    },
    {
      "x": 1,
      "y": 181,
      "size": 1,
      "price": "1011000000000000000000",
      "reserved": "",
      "salt": "0x551abb26fa0d96fc1311c006b888a130e50372bc18283d792603940e11312f0c",
      "assetIds": []
    },
    {
      "x": 1,
      "y": 182,
      "size": 1,
      "price": "1011000000000000000000",
      "reserved": "",
      "salt": "0x4d8803846724be5408288bf8e87b81041d10e7228efa6a173927f05e50e61141",
      "assetIds": []
    },
    {
      "x": 1,
      "y": 183,
      "size": 1,
      "price": "1011000000000000000000",
      "reserved": "",
      "salt": "0x58d8a975b89f4c72dc312f4e85738bb6d39ffd52d510ad016f55aadd66047b34",
      "assetIds": []
    },
    {
      "x": 1,
      "y": 184,
      "size": 1,
      "price": "1011000000000000000000",
      "reserved": "",
      "salt": "0x22887eb4aa875b2541391b6e578d541d0ddeb4a65438334f7da8419f16684f43",
      "assetIds": []
    },
    {
      "x": 1,
      "y": 185,
      "size": 1,
      "price": "1011000000000000000000",
      "reserved": "",
      "salt": "0xdce1bc6b1a1efd135fd8cda9bd6f5c0eaa2d995c418b59ae800c7f2560978d71",
      "assetIds": []
    },
    {
      "x": 1,
      "y": 186,
      "size": 1,
      "price": "1011000000000000000000",
      "reserved": "",
      "salt": "0x9c26e245da6e215d9b06063a25d97608c5a154d205673a1fd7d0c6ef045205bf",
      "assetIds": []
    },
    {
      "x": 1,
      "y": 187,
      "size": 1,
      "price": "1011000000000000000000",
      "reserved": "",
      "salt": "0x04679dae018d29cc03539f403f6d2308168415bd4f8913845d1513a158d35aab",
      "assetIds": []
    },
    {
      "x": 2,
      "y": 188,
      "size": 1,
      "price": "1011000000000000000000",
      "reserved": "",
      "salt": "0xacd569d7ef51dfad84fa447551291714943491a62967a007590b4b141a706208",
      "assetIds": []
    },
    {
      "x": 2,
      "y": 189,
      "size": 1,
      "price": "1011000000000000000000",
      "reserved": "",
      "salt": "0x3cdf9c36add2423b3c7d1d4cd88a7e040939af48a09d05342415ef734088ce91",
      "assetIds": []
    },
    {
      "x": 1,
      "y": 189,
      "size": 1,
      "price": "1011000000000000000000",
      "reserved": "",
      "salt": "0x5a4a2a810d9190ee43b3030a7fbe424334333256f8aeb3d09ffa4e1a0bdfcab7",
      "assetIds": []
    },
    {
      "x": 1,
      "y": 188,
      "size": 1,
      "price": "1011000000000000000000",
      "reserved": "",
      "salt": "0x2bacb06bdbdfd1e67ec907e6f48b619da282402f56a0061dc0f9472aa91d73eb",
      "assetIds": []
    },
    {
      "x": 2,
      "y": 190,
      "size": 1,
      "price": "1011000000000000000000",
      "reserved": "",
      "salt": "0x8c6c198ddb3ad770c71a499d29c3f89a4489a1caeddbbf9145d60d28b9b9a86c",
      "assetIds": []
    },
    {
      "x": 3,
      "y": 189,
      "size": 1,
      "price": "1011000000000000000000",
      "reserved": "",
      "salt": "0x902ab4fd8fb8a94e1d2895135166b92e8a4ebe5f0de073b1813f0a8c1ad60ff4",
      "assetIds": []
    },
    {
      "x": 3,
      "y": 188,
      "size": 1,
      "price": "1011000000000000000000",
      "reserved": "",
      "salt": "0xc48252a8a7c40558dd8a75f8d727b27ecda0cf00aeb738136a0d2ba7458291ac",
      "assetIds": []
    },
    {
      "x": 3,
      "y": 187,
      "size": 1,
      "price": "1011000000000000000000",
      "reserved": "",
      "salt": "0xa6fb9c6db7cfdaab44d2c938086bef40111f180b39a79a7fdd47a2e53b1330bb",
      "assetIds": []
    },
    {
      "x": 3,
      "y": 186,
      "size": 1,
      "price": "1011000000000000000000",
      "reserved": "",
      "salt": "0xd9f7199f1cf1d14d98215093b1c77628c2dc169c61e880baebf20b7d0a2e0f4c",
      "assetIds": []
    },
    {
      "x": 3,
      "y": 185,
      "size": 1,
      "price": "1011000000000000000000",
      "reserved": "",
      "salt": "0xb060c4be66cea3e171c6a451d47b89339dd5b2f4b1002b34d9b32e8457d10261",
      "assetIds": []
    },
    {
      "x": 3,
      "y": 184,
      "size": 1,
      "price": "1011000000000000000000",
      "reserved": "",
      "salt": "0x54d14eaa387ad1be3aa14b4b3a26d883612bdfb9e4f0858cf296b3b8ddf13b09",
      "assetIds": []
    },
    {
      "x": 3,
      "y": 183,
      "size": 1,
      "price": "1011000000000000000000",
      "reserved": "",
      "salt": "0xea680c516c9502516f9466be1d3ab6c281ead46e30cbcf3b8eaa54d0c21e4013",
      "assetIds": []
    },
    {
      "x": 3,
      "y": 182,
      "size": 1,
      "price": "1011000000000000000000",
      "reserved": "",
      "salt": "0x15a5d41f0b31cfdfacb486fc182da6486943b2f1cdcaf8978f1e155cf88a17ff",
      "assetIds": []
    },
    {
      "x": 3,
      "y": 190,
      "size": 1,
      "price": "1011000000000000000000",
      "reserved": "",
      "salt": "0xdccd1f5691206de49d0898058fbe527045511a47feda423433b1cba004c83698",
      "assetIds": []
    },
    {
      "x": 5,
      "y": 190,
      "size": 1,
      "price": "1011000000000000000000",
      "reserved": "",
      "salt": "0xbad3a1db8d34173f717c7608a2f17ffd66976048e70b9e298ba15433312fbcdb",
      "assetIds": []
    },
    {
      "x": 6,
      "y": 189,
      "size": 1,
      "price": "1011000000000000000000",
      "reserved": "",
      "salt": "0xd0283a1bcb391df51c37f1cb3c470202b8bf74adc0b6bd6ab92e3a838aa604ea",
      "assetIds": []
    },
    {
      "x": 6,
      "y": 188,
      "size": 1,
      "price": "1011000000000000000000",
      "reserved": "",
      "salt": "0x3fca9b65585e147632337821871aba06d62278a1a80561df7bb25c61def8dd62",
      "assetIds": []
    },
    {
      "x": 6,
      "y": 187,
      "size": 1,
      "price": "1011000000000000000000",
      "reserved": "",
      "salt": "0x1e3f3a35e1343d67ff11c4d214d520b776d6830bad2152e1c462e22d4dd5df57",
      "assetIds": []
    },
    {
      "x": 6,
      "y": 186,
      "size": 1,
      "price": "1011000000000000000000",
      "reserved": "",
      "salt": "0xcc23d5210229f48e779f98f62e8758506166d6389aee1a73ca6604dc439fdcab",
      "assetIds": []
    },
    {
      "x": 6,
      "y": 185,
      "size": 1,
      "price": "1011000000000000000000",
      "reserved": "",
      "salt": "0x0bfc11df7c8763a5e0df63ad0713aad486ff79939eff298f138a2e08c0d62ad7",
      "assetIds": []
    },
    {
      "x": 6,
      "y": 184,
      "size": 1,
      "price": "1011000000000000000000",
      "reserved": "",
      "salt": "0x09c7253d6d3f708551b14048acb328841178a0473b25e35e0e4777a39f04b05a",
      "assetIds": []
    },
    {
      "x": 6,
      "y": 183,
      "size": 1,
      "price": "1011000000000000000000",
      "reserved": "",
      "salt": "0x097b19fbf47865698bc571e85e7bc7e4164e03cf695228ed08ddfbaa854c7866",
      "assetIds": []
    },
    {
      "x": 6,
      "y": 182,
      "size": 1,
      "price": "1011000000000000000000",
      "reserved": "",
      "salt": "0x13d9d01ffa36ed811662fbe74b772275f45e6516655bf043dc0cbed94de87a47",
      "assetIds": []
    },
    {
      "x": 6,
      "y": 181,
      "size": 1,
      "price": "1011000000000000000000",
      "reserved": "",
      "salt": "0xbc3b48a90ebb4af81c014a26d26daf9971e60ea4299ee74b3f1880b2486d7627",
      "assetIds": []
    },
    {
      "x": 6,
      "y": 180,
      "size": 1,
      "price": "1011000000000000000000",
      "reserved": "",
      "salt": "0x9d4736bc887e7c69abe2b4e3d5eb34736753207005176a04eda5a35d70a9e39b",
      "assetIds": []
    },
    {
      "x": 6,
      "y": 179,
      "size": 1,
      "price": "1011000000000000000000",
      "reserved": "",
      "salt": "0x9a7f838fd156893d1508c444dcbe8a897f540b4d45c4c6f8024af3fcc66c1c2e",
      "assetIds": []
    },
    {
      "x": 6,
      "y": 178,
      "size": 1,
      "price": "1011000000000000000000",
      "reserved": "",
      "salt": "0xa531500bf0314f4c73cba19ae38087227823d0057c9cecf6368e674fe64f2664",
      "assetIds": []
    },
    {
      "x": 6,
      "y": 177,
      "size": 1,
      "price": "1011000000000000000000",
      "reserved": "",
      "salt": "0x272fac11cc6216e48fda3fcda3f3ba0d60f3bb8a3d57d858fbc38c2a77e1d030",
      "assetIds": []
    },
    {
      "x": 6,
      "y": 176,
      "size": 1,
      "price": "1011000000000000000000",
      "reserved": "",
      "salt": "0x5e8310b36dd0df2513bae0d2d06bdae06c0af8e87a49a68281d1a1b998508541",
      "assetIds": []
    },
    {
      "x": 6,
      "y": 175,
      "size": 1,
      "price": "1011000000000000000000",
      "reserved": "",
      "salt": "0xd68fce42a9980ca470626db2ccd8388377e8d702822364d2df4fbb8cf9dd2a0b",
      "assetIds": []
    },
    {
      "x": 6,
      "y": 174,
      "size": 1,
      "price": "1011000000000000000000",
      "reserved": "",
      "salt": "0xb86a3a44ce45115d0074086ee1006a61d208817eb24f90bc28df440f532715c8",
      "assetIds": []
    },
    {
      "x": 6,
      "y": 173,
      "size": 1,
      "price": "1011000000000000000000",
      "reserved": "",
      "salt": "0x36ece21c403104ed466abded617ad442ef7932e34daba37a707ea70126cf212d",
      "assetIds": []
    },
    {
      "x": 6,
      "y": 172,
      "size": 1,
      "price": "1011000000000000000000",
      "reserved": "",
      "salt": "0xfd0bfc7b74d60361342c2853d0d2643c1d7cb95b6f1d36274dbe0b021e2a6e8f",
      "assetIds": []
    },
    {
      "x": 6,
      "y": 171,
      "size": 1,
      "price": "1011000000000000000000",
      "reserved": "",
      "salt": "0x8d01421e7d89ee695ab09b80dcac2b72120700008abb6705093e645225c2d97d",
      "assetIds": []
    },
    {
      "x": 6,
      "y": 170,
      "size": 1,
      "price": "1011000000000000000000",
      "reserved": "",
      "salt": "0x4db1ead632597747f34d0eba07e6b68982953a0ab7b4792029a919086df2a7a3",
      "assetIds": []
    },
    {
      "x": 5,
      "y": 170,
      "size": 1,
      "price": "1011000000000000000000",
      "reserved": "",
      "salt": "0xc9d82f9e43e49304203b6b858ca821475c9c36b2b92412a4ce256bf0a77c2cd9",
      "assetIds": []
    },
    {
      "x": 4,
      "y": 170,
      "size": 1,
      "price": "1011000000000000000000",
      "reserved": "",
      "salt": "0xe17a0b992fc572bd2c183738f681784170d28528dcf3a3bc534737aa783d89a6",
      "assetIds": []
    },
    {
      "x": 4,
      "y": 171,
      "size": 1,
      "price": "1011000000000000000000",
      "reserved": "",
      "salt": "0x4a20e7ceb27bc65910737f3aeaf65444af4f906a50b2f5ec0f29123575cf09c1",
      "assetIds": []
    },
    {
      "x": 4,
      "y": 172,
      "size": 1,
      "price": "1011000000000000000000",
      "reserved": "",
      "salt": "0x56ac7bda92af9d30f3e3f0717c86b16eb01865f09c5d4b68ba87e85317f5e5dd",
      "assetIds": []
    },
    {
      "x": 4,
      "y": 173,
      "size": 1,
      "price": "1011000000000000000000",
      "reserved": "",
      "salt": "0x0dd51a2d44f379bfc7b6fd670734590f6609d86c967524820d196ba8ac16cfa5",
      "assetIds": []
    },
    {
      "x": 4,
      "y": 174,
      "size": 1,
      "price": "1011000000000000000000",
      "reserved": "",
      "salt": "0x144d0af417756e9a7e7f05f2f5da89e60a948645877ac4b2156c0bcbff4bd760",
      "assetIds": []
    },
    {
      "x": 4,
      "y": 175,
      "size": 1,
      "price": "1011000000000000000000",
      "reserved": "",
      "salt": "0xfe5cd4e367e3b4697cc05834bdae4a1be7b935ad167942063ce707e694a06713",
      "assetIds": []
    },
    {
      "x": 4,
      "y": 176,
      "size": 1,
      "price": "1011000000000000000000",
      "reserved": "",
      "salt": "0x7c4c1469870a3caa67ee2d444673a4aaa75e2018f631801230e54823b99d7b82",
      "assetIds": []
    },
    {
      "x": 5,
      "y": 172,
      "size": 1,
      "price": "1011000000000000000000",
      "reserved": "",
      "salt": "0x95e00c18623935f93a6f70894b7cc17b57ee78342d0ce4e1e0f9a4ce82156f99",
      "assetIds": []
    },
    {
      "x": 5,
      "y": 173,
      "size": 1,
      "price": "1011000000000000000000",
      "reserved": "",
      "salt": "0xf5a10e6ba5573c82bd6b91782748cec713388917198e799e9081e2f546112fec",
      "assetIds": []
    },
    {
      "x": 5,
      "y": 174,
      "size": 1,
      "price": "1011000000000000000000",
      "reserved": "",
      "salt": "0x38b5315fb4074b739e1949760c446ea9f4738777136a0f3af908c3cfc7b30ec7",
      "assetIds": []
    },
    {
      "x": 5,
      "y": 175,
      "size": 1,
      "price": "1011000000000000000000",
      "reserved": "",
      "salt": "0x595c6f5f850d9f1d474a4cf050cfcd6785652feb817762f636acb97e9266af8b",
      "assetIds": []
    },
    {
      "x": 5,
      "y": 176,
      "size": 1,
      "price": "1011000000000000000000",
      "reserved": "",
      "salt": "0x90748791b774d9ae3de07653eee63595efd90c9ca93294f3cb20273ea8b916db",
      "assetIds": []
    },
    {
      "x": 5,
      "y": 180,
      "size": 1,
      "price": "1011000000000000000000",
      "reserved": "",
      "salt": "0x32e7abb103f1d480fc840405901151ed506da6e81c98b1732e86c0d260558cb9",
      "assetIds": []
    },
    {
      "x": 5,
      "y": 181,
      "size": 1,
      "price": "1011000000000000000000",
      "reserved": "",
      "salt": "0xb96a8d2846830b319cfdab3457c61ebcbaa961740617318efe0929cc0fda43fc",
      "assetIds": []
    },
    {
      "x": 3,
      "y": 175,
      "size": 1,
      "price": "1011000000000000000000",
      "reserved": "",
      "salt": "0x573e690acf8d1410072a4fb2e970ef77db5ff19e2f44a14346f3b32f32441377",
      "assetIds": []
    },
    {
      "x": 3,
      "y": 174,
      "size": 1,
      "price": "1011000000000000000000",
      "reserved": "",
      "salt": "0xa481258ecdd495da9bc0bfd9c618ef774683aab9b0e67919fccdd003ed0287ff",
      "assetIds": []
    },
    {
      "x": 3,
      "y": 173,
      "size": 1,
      "price": "1011000000000000000000",
      "reserved": "",
      "salt": "0xb03ae86fb6d461e4eb67ca85d07c95588813b80734e61959c26273086ef52262",
      "assetIds": []
    },
    {
      "x": 3,
      "y": 172,
      "size": 1,
      "price": "1011000000000000000000",
      "reserved": "",
      "salt": "0xd8eebcc25a31b27a168ea0e740ed1d5fca57f08adb37be75d3ad581453cd921c",
      "assetIds": []
    },
    {
      "x": 3,
      "y": 171,
      "size": 1,
      "price": "1011000000000000000000",
      "reserved": "",
      "salt": "0x41291d003b19935235043ee88eca3cfeaa0b02aa8ce9239358bcf171d8ebf604",
      "assetIds": []
    },
    {
      "x": 3,
      "y": 170,
      "size": 1,
      "price": "1011000000000000000000",
      "reserved": "",
      "salt": "0xaad2282ce920e25fbdf8786b362fa494d79276c7954eb9073241af28c97893c3",
      "assetIds": []
    },
    {
      "x": 3,
      "y": 176,
      "size": 1,
      "price": "1011000000000000000000",
      "reserved": "",
      "salt": "0xc0901a8e4cfe09a5ebcdc4f471fb9664934a6a17c40a72a5e732358d4d792df7",
      "assetIds": []
    },
    {
      "x": 5,
      "y": 182,
      "size": 1,
      "price": "1011000000000000000000",
      "reserved": "",
      "salt": "0xb976e3856f67a18e060d14f4af7f07537c7bf0e9dcb31a8ade309e2b2635d3a5",
      "assetIds": []
    },
    {
      "x": 4,
      "y": 180,
      "size": 1,
      "price": "1011000000000000000000",
      "reserved": "",
      "salt": "0x9d5f468f14eca1df7433f1742bb21a0a6d6bad59e2c7969f1a5de0e9d5526955",
      "assetIds": []
    },
    {
      "x": 5,
      "y": 186,
      "size": 1,
      "price": "1011000000000000000000",
      "reserved": "",
      "salt": "0x83d2a5cc1d3e9fd6cf90c09447b9e6584a4ce6eae73eb06b31e280fcfe89f4c9",
      "assetIds": []
    },
    {
      "x": 5,
      "y": 187,
      "size": 1,
      "price": "1011000000000000000000",
      "reserved": "",
      "salt": "0xde99ab7cc8bf1a8ece683167fe62e508a4d999ada5ea2ca73f179824d9d8a6fc",
      "assetIds": []
    },
    {
      "x": 5,
      "y": 188,
      "size": 1,
      "price": "1011000000000000000000",
      "reserved": "",
      "salt": "0xd7562f6b301bf8a50613666d9ef48a90ae9daad23e6f8b5a7220f2dbfd93ba7d",
      "assetIds": []
    },
    {
      "x": 5,
      "y": 189,
      "size": 1,
      "price": "1011000000000000000000",
      "reserved": "",
      "salt": "0xf341e599140c528ef0b768f212f03c319aecb17d7a53ee00b9d1f5e19f26179b",
      "assetIds": []
    },
    {
      "x": 5,
      "y": 185,
      "size": 1,
      "price": "1011000000000000000000",
      "reserved": "",
      "salt": "0x1772d39b295562a5be0603f726f2af72471d976ec5df6a45f0e9fd6d00ec4198",
      "assetIds": []
    },
    {
      "x": 5,
      "y": 184,
      "size": 1,
      "price": "1011000000000000000000",
      "reserved": "",
      "salt": "0xc12bb6fe9aee7127004e51e063406a34cafb87c46669b5915de000894fabf5c2",
      "assetIds": []
    },
    {
      "x": 5,
      "y": 183,
      "size": 1,
      "price": "1011000000000000000000",
      "reserved": "",
      "salt": "0x125cca6706f0a02216d073f157dc2ff719a3f2daf5d8158083f536242a80d62e",
      "assetIds": []
    },
    {
      "x": 4,
      "y": 181,
      "size": 1,
      "price": "1011000000000000000000",
      "reserved": "",
      "salt": "0xf82ac13c7cbf3ba91ba7a7b7984f70b49c7cabec748eb4a346e8769163ecf1a6",
      "assetIds": []
    },
    {
      "x": 5,
      "y": 171,
      "size": 1,
      "price": "1011000000000000000000",
      "reserved": "",
      "salt": "0xc6812485350d40d68c685ddb4aac75473679b2c658db85028bce08e52232afd7",
      "assetIds": []
    },
    {
      "x": 7,
      "y": 170,
      "size": 1,
      "price": "1011000000000000000000",
      "reserved": "",
      "salt": "0x03d182eadad9ffa7deca23b873867e3ba4c7d05983105608524913b695d4faa7",
      "assetIds": []
    },
    {
      "x": 8,
      "y": 170,
      "size": 1,
      "price": "1011000000000000000000",
      "reserved": "",
      "salt": "0x793d90a7271c6833690b53f4c6f7d472fad39ceef77886f36c00ecaebd5a2516",
      "assetIds": []
    },
    {
      "x": 9,
      "y": 170,
      "size": 1,
      "price": "1011000000000000000000",
      "reserved": "",
      "salt": "0xfcdd00518fb944a794883dcc8d0d19d2f271cecbe63f47ba22e44a686d034e76",
      "assetIds": []
    },
    {
      "x": 10,
      "y": 170,
      "size": 1,
      "price": "1011000000000000000000",
      "reserved": "",
      "salt": "0x799aca97adf5faa2d26e7ecb707cab511f4adb7d670dc1192da1e9f4627f8a04",
      "assetIds": []
    },
    {
      "x": 10,
      "y": 169,
      "size": 1,
      "price": "1011000000000000000000",
      "reserved": "",
      "salt": "0xfdab6e88b80fb08ea9b20b0b39ba5e091f91e4fc7ce6b01e50e54fef9014cda2",
      "assetIds": []
    },
    {
      "x": 11,
      "y": 169,
      "size": 1,
      "price": "1011000000000000000000",
      "reserved": "",
      "salt": "0xc2a0f57bdb2d358f220c88ad97a083aa7dea803f452fd379715a87349d6bf71e",
      "assetIds": []
    },
    {
      "x": 9,
      "y": 169,
      "size": 1,
      "price": "1011000000000000000000",
      "reserved": "",
      "salt": "0x21a0dfd395bcb42f1d8ce31640c8208a751a69b3de1911baa35e7ff2b9d62228",
      "assetIds": []
    },
    {
      "x": 8,
      "y": 169,
      "size": 1,
      "price": "1011000000000000000000",
      "reserved": "",
      "salt": "0x3595c1927792094f75c4503a0e45e59203aaf21f5a7bacd18b0051dd5392cb24",
      "assetIds": []
    },
    {
      "x": 7,
      "y": 169,
      "size": 1,
      "price": "1011000000000000000000",
      "reserved": "",
      "salt": "0x1c408847fc42eca212d92875b1cee32ac4f6cffd66b1d7b7975241d0acd296be",
      "assetIds": []
    },
    {
      "x": 9,
      "y": 171,
      "size": 1,
      "price": "1011000000000000000000",
      "reserved": "",
      "salt": "0xf9c1a59a209d5904a29292a7d76cc4bdf12e7406945b5271044a5b2f16f3670b",
      "assetIds": []
    },
    {
      "x": 10,
      "y": 172,
      "size": 1,
      "price": "1011000000000000000000",
      "reserved": "",
      "salt": "0x5da78e74a3ff54893b1bec61558069d260d0cb84b71232849b4a8cd6bd1a0570",
      "assetIds": []
    },
    {
      "x": 11,
      "y": 172,
      "size": 1,
      "price": "1011000000000000000000",
      "reserved": "",
      "salt": "0xbe7789e7380d96df937a70dac05fc2c5817a66a2f2a2c11afb681d2e5316d7e4",
      "assetIds": []
    },
    {
      "x": 9,
      "y": 172,
      "size": 1,
      "price": "1011000000000000000000",
      "reserved": "",
      "salt": "0xd0791028665944818452a1cf29a441d4cfccaab2855c3f0a210048224ca0437a",
      "assetIds": []
    },
    {
      "x": 8,
      "y": 172,
      "size": 1,
      "price": "1011000000000000000000",
      "reserved": "",
      "salt": "0x61d5e1d1b0195d06e649cbc1d3f37a7cb1f6dff076a71da1c886ae299237a45d",
      "assetIds": []
    },
    {
      "x": 13,
      "y": 172,
      "size": 1,
      "price": "1011000000000000000000",
      "reserved": "",
      "salt": "0x611239f225a1f518ed1afcced851b21f1bf79200b1bf60e409830c6aa2bcf1eb",
      "assetIds": []
    },
    {
      "x": 14,
      "y": 172,
      "size": 1,
      "price": "1011000000000000000000",
      "reserved": "",
      "salt": "0xf750400aa59340e691755c48bdac2fcfc69d96f50ca7f07b67d732f36f85c0a9",
      "assetIds": []
    },
    {
      "x": 13,
      "y": 171,
      "size": 1,
      "price": "1011000000000000000000",
      "reserved": "",
      "salt": "0xfd36ff8beae88341f4b08678e1864514c194c5636ca9ad6d4b7bcfe1121fef59",
      "assetIds": []
    },
    {
      "x": 11,
      "y": 170,
      "size": 1,
      "price": "1011000000000000000000",
      "reserved": "",
      "salt": "0x136d7f7062509ffee3e29afe9455bb5b2e2af745f448703321e0bdbf6594606e",
      "assetIds": []
    },
    {
      "x": 8,
      "y": 171,
      "size": 1,
      "price": "1011000000000000000000",
      "reserved": "",
      "salt": "0xac33db1f5c0f5b9af35f6970af396291b00b754823e99d624af3f82a01a1e960",
      "assetIds": []
    },
    {
      "x": 7,
      "y": 171,
      "size": 1,
      "price": "1011000000000000000000",
      "reserved": "",
      "salt": "0x9d7e67ae4f234c9730fab5f93666bc0f3de4ce8a9d357c1538551a271b9cf871",
      "assetIds": []
    },
    {
      "x": 10,
      "y": 171,
      "size": 1,
      "price": "1011000000000000000000",
      "reserved": "",
      "salt": "0x08ef752373fa5e93b9c0edaada3e56d3e7f1a5107d385981886244ed2e4bca91",
      "assetIds": []
    },
    {
      "x": 11,
      "y": 171,
      "size": 1,
      "price": "1011000000000000000000",
      "reserved": "",
      "salt": "0x2581d267cf07cb4d5deaa1db3085d5b124fd25aeeda741a0fe7bfcd1da2d060b",
      "assetIds": []
    },
    {
      "x": 7,
      "y": 172,
      "size": 1,
      "price": "1011000000000000000000",
      "reserved": "",
      "salt": "0x1522d58cb8f614a7a28d4957fc462ca680e94cde301c824947b20a8cca41e6e9",
      "assetIds": []
    },
    {
      "x": 7,
      "y": 173,
      "size": 1,
      "price": "1011000000000000000000",
      "reserved": "",
      "salt": "0x55e982629940fab3e8e3038add9c9cfc0b44a1a96bf30d9d1b394be458cc7148",
      "assetIds": []
    },
    {
      "x": 7,
      "y": 175,
      "size": 1,
      "price": "1011000000000000000000",
      "reserved": "",
      "salt": "0x061e28a3f8937b92ea11146df6c8f638482022a5141a2cb63ded1e69e745765e",
      "assetIds": []
    },
    {
      "x": 7,
      "y": 176,
      "size": 1,
      "price": "1011000000000000000000",
      "reserved": "",
      "salt": "0x3df4943dc5db391b4ed3a9d6cbb6d711d70356d6905fb7fcf1d886dc732d4a76",
      "assetIds": []
    },
    {
      "x": 7,
      "y": 177,
      "size": 1,
      "price": "1011000000000000000000",
      "reserved": "",
      "salt": "0x0cd1d187ce0b41320b560a286fb41088c0c844d9f462e1c8c4fe7cb9ae3f73a1",
      "assetIds": []
    },
    {
      "x": 8,
      "y": 177,
      "size": 1,
      "price": "1011000000000000000000",
      "reserved": "",
      "salt": "0x7b8948b4170793ca7dfb20c751faebca3f09080184f6b2065e016c7eea152c99",
      "assetIds": []
    },
    {
      "x": 9,
      "y": 177,
      "size": 1,
      "price": "1011000000000000000000",
      "reserved": "",
      "salt": "0x1350bed91dcf4ad1c9dcba446f5cd6d92c3454ea4fd3097735218347e7e35b43",
      "assetIds": []
    },
    {
      "x": 10,
      "y": 177,
      "size": 1,
      "price": "1011000000000000000000",
      "reserved": "",
      "salt": "0xb370fe2049eb3cf1eb2dcf492ddf78d998f62b66224cf88892679885e30b070e",
      "assetIds": []
    },
    {
      "x": 10,
      "y": 176,
      "size": 1,
      "price": "1011000000000000000000",
      "reserved": "",
      "salt": "0xa0e2c4d3d91a415358d1ab7d87d72a332a8230b66e266f269a82656a92e97757",
      "assetIds": []
    },
    {
      "x": 10,
      "y": 175,
      "size": 1,
      "price": "1011000000000000000000",
      "reserved": "",
      "salt": "0x35283b6948f87fb774c20b54524e842f5ec474ff59e2776f716e796b6f563d69",
      "assetIds": []
    },
    {
      "x": 9,
      "y": 175,
      "size": 1,
      "price": "1011000000000000000000",
      "reserved": "",
      "salt": "0x9b4b6144c17e53a07f54821f572497454b7b848ec48677de9ab300f3505ba086",
      "assetIds": []
    },
    {
      "x": 9,
      "y": 174,
      "size": 1,
      "price": "1011000000000000000000",
      "reserved": "",
      "salt": "0x88d66b8fa610f30790f8e7f096faccafbbd3bd3e3960e53f42ed2b28f5a4bd62",
      "assetIds": []
    },
    {
      "x": 8,
      "y": 173,
      "size": 1,
      "price": "1011000000000000000000",
      "reserved": "",
      "salt": "0xd3801ffe766101686f8e5474b32ac9cd9829c07090d8807eeeb846aa54851739",
      "assetIds": []
    },
    {
      "x": 10,
      "y": 173,
      "size": 1,
      "price": "1011000000000000000000",
      "reserved": "",
      "salt": "0x4e17b664a06d2441fc84f7621f33f3f7fb103e10d35625b0c66fc3b6b59dacfd",
      "assetIds": []
    },
    {
      "x": 10,
      "y": 174,
      "size": 1,
      "price": "1011000000000000000000",
      "reserved": "",
      "salt": "0xa67a3e7d2f98c974d170316dd8210782a3600e281aa07ff00fb53e17e007b537",
      "assetIds": []
    },
    {
      "x": 10,
      "y": 178,
      "size": 1,
      "price": "1011000000000000000000",
      "reserved": "",
      "salt": "0xf1600f9fd502c6398aff9e4b6a9e97c3c13d4857e63290738c743e0600674866",
      "assetIds": []
    },
    {
      "x": 10,
      "y": 179,
      "size": 1,
      "price": "1011000000000000000000",
      "reserved": "",
      "salt": "0xb11ecb0d1aa351100c94c7c1065fa1367ae78b3f066f064044cc6e6caaf4877c",
      "assetIds": []
    },
    {
      "x": 9,
      "y": 173,
      "size": 1,
      "price": "1011000000000000000000",
      "reserved": "",
      "salt": "0x6e23d6fb714614b52e300405696cee92c46ac2437b29d1c50082a5187fd64285",
      "assetIds": []
    },
    {
      "x": 11,
      "y": 173,
      "size": 1,
      "price": "1011000000000000000000",
      "reserved": "",
      "salt": "0xdbd2f99f24f57b4cc219eada813ee8dfa33ef2c4f250263602246e0494601466",
      "assetIds": []
    },
    {
      "x": 10,
      "y": 181,
      "size": 1,
      "price": "1011000000000000000000",
      "reserved": "",
      "salt": "0xb291b212305466932b9ce4a72fe04ce9bf14d000e8af154f97576b0248e76b58",
      "assetIds": []
    },
    {
      "x": 10,
      "y": 182,
      "size": 1,
      "price": "1011000000000000000000",
      "reserved": "",
      "salt": "0xd1800e0526e89f06fa7868c3a308b98e83d7251289948b8584ffc93d9ebe20ab",
      "assetIds": []
    },
    {
      "x": 10,
      "y": 180,
      "size": 1,
      "price": "1011000000000000000000",
      "reserved": "",
      "salt": "0x24563c93a089471eb0f387ee3d498645a4cad40caca01ff5235737cc851d3902",
      "assetIds": []
    },
    {
      "x": 9,
      "y": 183,
      "size": 1,
      "price": "1011000000000000000000",
      "reserved": "",
      "salt": "0xfcdab201ac10c34e77117ec21062d7fc0be59244c6baa19c73d00541d4fac678",
      "assetIds": []
    },
    {
      "x": 9,
      "y": 184,
      "size": 1,
      "price": "1011000000000000000000",
      "reserved": "",
      "salt": "0x484994bfb93693d484ffeee7a4af2d0bd61d3efc2f1d8dec74e1fee5f6bc1372",
      "assetIds": []
    },
    {
      "x": 9,
      "y": 182,
      "size": 1,
      "price": "1011000000000000000000",
      "reserved": "",
      "salt": "0x6c2c9f5e33fff72540899bfce6c64b635360ffde3c8d5f9b3b71f5aa041fcaa5",
      "assetIds": []
    },
    {
      "x": 9,
      "y": 181,
      "size": 1,
      "price": "1011000000000000000000",
      "reserved": "",
      "salt": "0xd4657ae7196be5ef2b39ba2911a7fbc00fc844366383d5fcf2a58b82cfe8e491",
      "assetIds": []
    },
    {
      "x": 9,
      "y": 180,
      "size": 1,
      "price": "1011000000000000000000",
      "reserved": "",
      "salt": "0xe6e889dcce8fab4cd819a7242abb53570c081c922d562d74b7afd269bb1b5f0f",
      "assetIds": []
    },
    {
      "x": 9,
      "y": 179,
      "size": 1,
      "price": "1011000000000000000000",
      "reserved": "",
      "salt": "0xf5c7668c05bcd5728fea81eddd70a584b9cd20df6d077e3e3fca92dcbd707bc3",
      "assetIds": []
    },
    {
      "x": 9,
      "y": 178,
      "size": 1,
      "price": "1011000000000000000000",
      "reserved": "",
      "salt": "0x7746f54c25d322c3d32032389bc2e198516fd908f9dcf11552aeda94ed893eec",
      "assetIds": []
    },
    {
      "x": 9,
      "y": 176,
      "size": 1,
      "price": "1011000000000000000000",
      "reserved": "",
      "salt": "0x4c17e28155c5c07670866bb776863eb09ca689d1bf5848cc890736724189d823",
      "assetIds": []
    },
    {
      "x": 8,
      "y": 174,
      "size": 1,
      "price": "1011000000000000000000",
      "reserved": "",
      "salt": "0xaadf48c58ed8768501d8b7dd1031faa7bf4ad90aa4a1ce272f3b07cc96b536df",
      "assetIds": []
    },
    {
      "x": 8,
      "y": 175,
      "size": 1,
      "price": "1011000000000000000000",
      "reserved": "",
      "salt": "0xd7be8357f4ec73356488df9ad140828c8ffbf10932b2f3d19dbfbe3d3bb8a7d4",
      "assetIds": []
    },
    {
      "x": 8,
      "y": 176,
      "size": 1,
      "price": "1011000000000000000000",
      "reserved": "",
      "salt": "0x9bd0097817312d73e70629fdaaa6d1dfc0fb53c6f3e50e4b4ac6efe191ddaaa3",
      "assetIds": []
    },
    {
      "x": 7,
      "y": 178,
      "size": 1,
      "price": "1011000000000000000000",
      "reserved": "",
      "salt": "0xe1d630bc91a88e403432b60234ba22f09c07a1fd564f20af3a9cae0cac952ca9",
      "assetIds": []
    },
    {
      "x": 7,
      "y": 179,
      "size": 1,
      "price": "1011000000000000000000",
      "reserved": "",
      "salt": "0xc28a5b4d1d3da45af721c849d8382cbeaa5f2eb94f4920f19eaa7cdb4b8dbf7c",
      "assetIds": []
    },
    {
      "x": 10,
      "y": 183,
      "size": 1,
      "price": "1011000000000000000000",
      "reserved": "",
      "salt": "0x6e92a230ff5d133456fa17dd8c9e531637ec04054e84c60d2eae0c9c54ff66f3",
      "assetIds": []
    },
    {
      "x": 10,
      "y": 184,
      "size": 1,
      "price": "1011000000000000000000",
      "reserved": "",
      "salt": "0x5ec3b72f28c8348fc89f9ca9823614c57921d1403c85e3f805f54ee32247f60e",
      "assetIds": []
    },
    {
      "x": 10,
      "y": 185,
      "size": 1,
      "price": "1011000000000000000000",
      "reserved": "",
      "salt": "0x9c33562488ddfa0fda7acd7aaec1289ccbade5c606f8f7c136df0bb7e9d915b2",
      "assetIds": []
    },
    {
      "x": 8,
      "y": 181,
      "size": 1,
      "price": "1011000000000000000000",
      "reserved": "",
      "salt": "0xc57daca50581ec294d6fe3467ae28e4121dd7303fa77333f7faa8f1addbcd816",
      "assetIds": []
    },
    {
      "x": 8,
      "y": 180,
      "size": 1,
      "price": "1011000000000000000000",
      "reserved": "",
      "salt": "0xa504f82e0ba85530959b44ba633686e348dac1207a05d736d9daa7f4a9603291",
      "assetIds": []
    },
    {
      "x": 8,
      "y": 178,
      "size": 1,
      "price": "1011000000000000000000",
      "reserved": "",
      "salt": "0xf7f8663a9d354e95187ea4bbb3dc08406a1e87e26c65a6e54f615d96c9b162f0",
      "assetIds": []
    },
    {
      "x": 7,
      "y": 174,
      "size": 1,
      "price": "1011000000000000000000",
      "reserved": "",
      "salt": "0x2d3bbb7a47e1433d1ba0e2c4dd08dc6f23c1350f8be5560e6b88c9bbe061491f",
      "assetIds": []
    },
    {
      "x": 8,
      "y": 182,
      "size": 1,
      "price": "1011000000000000000000",
      "reserved": "",
      "salt": "0x06c3079363e201688cf705d8c6fa8d54bd48ab118815cb1cef9921d7289dfecc",
      "assetIds": []
    },
    {
      "x": 8,
      "y": 179,
      "size": 1,
      "price": "1011000000000000000000",
      "reserved": "",
      "salt": "0xbea7c94374a23b47036b5477630fc536bb7a97d6a44b592a565a5441f6e3ebd2",
      "assetIds": []
    },
    {
      "x": 7,
      "y": 183,
      "size": 1,
      "price": "1011000000000000000000",
      "reserved": "",
      "salt": "0x56137d8725cc14538d67e6bf76fac232a722eefa2b1acb07fe4e9f75bd7b9245",
      "assetIds": []
    },
    {
      "x": 7,
      "y": 184,
      "size": 1,
      "price": "1011000000000000000000",
      "reserved": "",
      "salt": "0x577eb3a9aae09da38aff7375cd39912300400e6338e759a0f2e50728060c95fa",
      "assetIds": []
    },
    {
      "x": 7,
      "y": 186,
      "size": 1,
      "price": "1011000000000000000000",
      "reserved": "",
      "salt": "0x63fad52f971267167236fc880136bc60d1b097a92ab0dce5ad3ae749ade23348",
      "assetIds": []
    },
    {
      "x": 7,
      "y": 187,
      "size": 1,
      "price": "1011000000000000000000",
      "reserved": "",
      "salt": "0x21c2ab5b22bd5d84abd89b656cb183e57995db9efad10493cdbb783a140fb85f",
      "assetIds": []
    },
    {
      "x": 7,
      "y": 188,
      "size": 1,
      "price": "1011000000000000000000",
      "reserved": "",
      "salt": "0x66838427fcf4e29b7f287e3731eb63c35dfe526b9edb03ba4a6e05ff802cef77",
      "assetIds": []
    },
    {
      "x": 7,
      "y": 189,
      "size": 1,
      "price": "1011000000000000000000",
      "reserved": "",
      "salt": "0x39eb1d9aba59ea9ed3d877ba88ca2d94635b9d75f8d5981d3cd548b93cedec07",
      "assetIds": []
    },
    {
      "x": 7,
      "y": 185,
      "size": 1,
      "price": "1011000000000000000000",
      "reserved": "",
      "salt": "0x547a8eea65bb111720469904142fd21542a45253c3361eff3e78e4d18e654822",
      "assetIds": []
    },
    {
      "x": 7,
      "y": 182,
      "size": 1,
      "price": "1011000000000000000000",
      "reserved": "",
      "salt": "0xd05d08d654b4ac67c2c4f0719f4fc0419e34617d05bc13714e3d34b229860e02",
      "assetIds": []
    },
    {
      "x": 8,
      "y": 186,
      "size": 1,
      "price": "1011000000000000000000",
      "reserved": "",
      "salt": "0x4d5f8a7412737fab3425353029dae276a18ff82b663596a0576f73eed74bfef0",
      "assetIds": []
    },
    {
      "x": 8,
      "y": 187,
      "size": 1,
      "price": "1011000000000000000000",
      "reserved": "",
      "salt": "0x413a2591c741b5bf91c89b9c0312fd124e1460af31cb33f2c21bb4aee6dc4fb1",
      "assetIds": []
    },
    {
      "x": 8,
      "y": 185,
      "size": 1,
      "price": "1011000000000000000000",
      "reserved": "",
      "salt": "0x7144a25cdc14fb7d3daf85ceec1c035621bd676d429a7f8a89b2b117731d8350",
      "assetIds": []
    },
    {
      "x": 8,
      "y": 184,
      "size": 1,
      "price": "1011000000000000000000",
      "reserved": "",
      "salt": "0xc56adb4e87c4c761864994d3b25a1331bd64da6915d8adc847a87fd2c0958245",
      "assetIds": []
    },
    {
      "x": 8,
      "y": 183,
      "size": 1,
      "price": "1011000000000000000000",
      "reserved": "",
      "salt": "0x1acd8ae231959b29ae37a674bb12bbf8ce289ff26681fd595fa4df44a49ff97c",
      "assetIds": []
    },
    {
      "x": 7,
      "y": 181,
      "size": 1,
      "price": "1011000000000000000000",
      "reserved": "",
      "salt": "0xca221320da25850470a32f7622a3390df8ab3a43c4a77e5898ca07b7229371fc",
      "assetIds": []
    },
    {
      "x": 9,
      "y": 185,
      "size": 1,
      "price": "1011000000000000000000",
      "reserved": "",
      "salt": "0x52d21aa2e71543532118bdb183ad8959e311063baff52f59873b1dc0f889f918",
      "assetIds": []
    },
    {
      "x": 9,
      "y": 186,
      "size": 1,
      "price": "1011000000000000000000",
      "reserved": "",
      "salt": "0x55d2db8fc39277d2a5d959783aa03d18c69829f513c6312ab33ea66f6c00fec8",
      "assetIds": []
    },
    {
      "x": 10,
      "y": 186,
      "size": 1,
      "price": "1011000000000000000000",
      "reserved": "",
      "salt": "0xf9b2ba704382e432c60c5c071ea7932eec8f1c2cc26f4c38ed5121424c57d05f",
      "assetIds": []
    },
    {
      "x": 10,
      "y": 187,
      "size": 1,
      "price": "1011000000000000000000",
      "reserved": "",
      "salt": "0x3f5630f3eea4fc0087fc7c66886763b031d83989e5235bbb6111178a3647d8e9",
      "assetIds": []
    },
    {
      "x": 10,
      "y": 188,
      "size": 1,
      "price": "1011000000000000000000",
      "reserved": "",
      "salt": "0xa7f25d08cda66c478ab52d5d007dfd467d4e7ee41d8d65321f13ccee5036e0f0",
      "assetIds": []
    },
    {
      "x": 8,
      "y": 189,
      "size": 1,
      "price": "1011000000000000000000",
      "reserved": "",
      "salt": "0x3c431d23a9344af533d19aaadd5cb7f657cd662952ffd6d038346f7960a277bd",
      "assetIds": []
    },
    {
      "x": 8,
      "y": 188,
      "size": 1,
      "price": "1011000000000000000000",
      "reserved": "",
      "salt": "0xaff10ba4c9f2fdd1924ae3544b5966241851dfb7d61b863d8aa72c3c3674f204",
      "assetIds": []
    },
    {
      "x": 9,
      "y": 188,
      "size": 1,
      "price": "1011000000000000000000",
      "reserved": "",
      "salt": "0x31bc0deaaaee8b86ace308a3d077825074fda31853864c4444519ffb3c351ae2",
      "assetIds": []
    },
    {
      "x": 9,
      "y": 187,
      "size": 1,
      "price": "1011000000000000000000",
      "reserved": "",
      "salt": "0xd7264a6f5d9baf02bf8e84b551fdbd235cab533e6970d6d861f34f0b9f5eb1e9",
      "assetIds": []
    },
    {
      "x": 7,
      "y": 180,
      "size": 1,
      "price": "1011000000000000000000",
      "reserved": "",
      "salt": "0x7394c342da0b961f33ac038967137536bf5dc9628548b2c6cc0ceb9ffc646998",
      "assetIds": []
    },
    {
      "x": 24,
      "y": 200,
      "size": 1,
      "price": "1011000000000000000000",
      "reserved": "",
      "salt": "0x7aa46a31c45049df1b000037e4db74b6434ad87d154429e962af18af3184afe2",
      "assetIds": []
    },
    {
      "x": 25,
      "y": 200,
      "size": 1,
      "price": "1011000000000000000000",
      "reserved": "",
      "salt": "0x0128d206f3acc0234641629f0a243231a0d1bf3da28694837f4e55013fd1d6c4",
      "assetIds": []
    },
    {
      "x": 26,
      "y": 200,
      "size": 1,
      "price": "1011000000000000000000",
      "reserved": "",
      "salt": "0x777f3bbacc2c3d72c2f4e08f55ce07148d95246e91ad2566e0738edf2e5f829f",
      "assetIds": []
    },
    {
      "x": 26,
      "y": 199,
      "size": 1,
      "price": "1011000000000000000000",
      "reserved": "",
      "salt": "0x23c65fd0a09134448abc50eec975c185405e9f7ff2909b03bd7b2f9447a0009c",
      "assetIds": []
    },
    {
      "x": 26,
      "y": 198,
      "size": 1,
      "price": "1011000000000000000000",
      "reserved": "",
      "salt": "0x28e0caf395c6cbf7f3bffd00c3019df4b8982f7b16a0cf3123e2e2a6153cc01b",
      "assetIds": []
    },
    {
      "x": 26,
      "y": 197,
      "size": 1,
      "price": "1011000000000000000000",
      "reserved": "",
      "salt": "0xd6a737fb19e003baf8e7178393bedb3cfd77009447bbb7ea414591c640f6c1f5",
      "assetIds": []
    },
    {
      "x": 26,
      "y": 196,
      "size": 1,
      "price": "1011000000000000000000",
      "reserved": "",
      "salt": "0x204f2c56f1107e411585677e032a91c1213a37adc7402ceb35536a2a2422f4de",
      "assetIds": []
    },
    {
      "x": 26,
      "y": 195,
      "size": 1,
      "price": "1011000000000000000000",
      "reserved": "",
      "salt": "0x8231febed3109cbba67234703c4155251830a1d4ccd74a7d3b3370604787ea5b",
      "assetIds": []
    },
    {
      "x": 26,
      "y": 194,
      "size": 1,
      "price": "1011000000000000000000",
      "reserved": "",
      "salt": "0x81e479435cdb946cad51e152f97ddb7c39afc6a22388c3254185af1ec2daf6e3",
      "assetIds": []
    },
    {
      "x": 27,
      "y": 194,
      "size": 1,
      "price": "1011000000000000000000",
      "reserved": "",
      "salt": "0x698fc7feb4470cdfa352c9ed1e890357383d9a56b7c5a3917c77a0b9a8363009",
      "assetIds": []
    },
    {
      "x": 28,
      "y": 194,
      "size": 1,
      "price": "1011000000000000000000",
      "reserved": "",
      "salt": "0x6da16168d69dccd0ad6842e90ab14ceed02c9f11b3f077a264eca44219349e45",
      "assetIds": []
    },
    {
      "x": 28,
      "y": 193,
      "size": 1,
      "price": "1011000000000000000000",
      "reserved": "",
      "salt": "0x5c785c84f01b5a41e550e6b3d4eb073dccb2a66a63a47aed0ba1b3aa173aab1f",
      "assetIds": []
    },
    {
      "x": 28,
      "y": 192,
      "size": 1,
      "price": "1011000000000000000000",
      "reserved": "",
      "salt": "0x96e7b2c7c68ddce526ddf6a710b0a1b497a957531393de960edb7301fe6920de",
      "assetIds": []
    },
    {
      "x": 29,
      "y": 192,
      "size": 1,
      "price": "1011000000000000000000",
      "reserved": "",
      "salt": "0xc2a0778e38fe38022743a6ebc05bab640144b88b1bb62b91cf05806060753879",
      "assetIds": []
    },
    {
      "x": 29,
      "y": 193,
      "size": 1,
      "price": "1011000000000000000000",
      "reserved": "",
      "salt": "0xb8ec2980067e251812a1021c40dcf638f96247c219a27a8503f14b53815cc0e0",
      "assetIds": []
    },
    {
      "x": 29,
      "y": 194,
      "size": 1,
      "price": "1011000000000000000000",
      "reserved": "",
      "salt": "0xeeb4950cc2830a5012f90c6aba67598ced3917ff8b592b23359373a41076cffa",
      "assetIds": []
    },
    {
      "x": 29,
      "y": 191,
      "size": 1,
      "price": "1011000000000000000000",
      "reserved": "",
      "salt": "0xa9f6f1206e1905aca8f3a3cfbe8395976f29134e1fdc4c0f479da1d3bf474010",
      "assetIds": []
    },
    {
      "x": 29,
      "y": 190,
      "size": 1,
      "price": "1011000000000000000000",
      "reserved": "",
      "salt": "0xd56321439b8e11e097a54b97346a1c54ba39f227e24145c14eaa87abf7f6a981",
      "assetIds": []
    },
    {
      "x": 29,
      "y": 189,
      "size": 1,
      "price": "1011000000000000000000",
      "reserved": "",
      "salt": "0x380dec0117d21620765969fb80b461c0e0ad2ae23fc47be9da8ab0134e334119",
      "assetIds": []
    },
    {
      "x": 29,
      "y": 188,
      "size": 1,
      "price": "1011000000000000000000",
      "reserved": "",
      "salt": "0x94792c481b6f6303439b7137fe80e0e78221231c81741f2fd2639a48cd211422",
      "assetIds": []
    },
    {
      "x": 29,
      "y": 187,
      "size": 1,
      "price": "1011000000000000000000",
      "reserved": "",
      "salt": "0xaa859459118a9c2f8ed7bb0062fc80ac6c4468c154493f26ab990e1c13562d16",
      "assetIds": []
    },
    {
      "x": 29,
      "y": 186,
      "size": 1,
      "price": "1011000000000000000000",
      "reserved": "",
      "salt": "0x99e1287317ff9b1ff0fba33b88ba5b447207e4baf7fcdb6eae8fb841c97f38da",
      "assetIds": []
    },
    {
      "x": 29,
      "y": 185,
      "size": 1,
      "price": "1011000000000000000000",
      "reserved": "",
      "salt": "0x35fd7356c1c055657f33fb4547c33be3d1f563c27d2e6be1ade138701c1b0d5d",
      "assetIds": []
    },
    {
      "x": 30,
      "y": 185,
      "size": 1,
      "price": "1011000000000000000000",
      "reserved": "",
      "salt": "0xb0c613609331a479faa621a4f1218abbad8bc22f9e64517ec09a946010211e54",
      "assetIds": []
    },
    {
      "x": 30,
      "y": 184,
      "size": 1,
      "price": "1011000000000000000000",
      "reserved": "",
      "salt": "0x3b52c087c1dda764fba6e8ea197c4cb91890e01ed8ace6601b886676ce47f7b8",
      "assetIds": []
    },
    {
      "x": 30,
      "y": 183,
      "size": 1,
      "price": "1011000000000000000000",
      "reserved": "",
      "salt": "0x5aa361a3161074a43556742800bd24ee90a3f0256f3996606e7c6c22baa90f59",
      "assetIds": []
    },
    {
      "x": 30,
      "y": 182,
      "size": 1,
      "price": "1011000000000000000000",
      "reserved": "",
      "salt": "0x41a8d212f77f64aed3730c654d5e4c3ee3d8329dca415689dc09f9370cdd968e",
      "assetIds": []
    },
    {
      "x": 31,
      "y": 185,
      "size": 1,
      "price": "1011000000000000000000",
      "reserved": "",
      "salt": "0xe023a411d98c00eb07c4f2460d242fa9c210e50bbd710550b4dbae774cf5b1d8",
      "assetIds": []
    },
    {
      "x": 32,
      "y": 185,
      "size": 1,
      "price": "1011000000000000000000",
      "reserved": "",
      "salt": "0x84899678234576cdd65bc1633b2a5798524e166d4acfc48dafededb5eb6db8c8",
      "assetIds": []
    },
    {
      "x": 33,
      "y": 185,
      "size": 1,
      "price": "1011000000000000000000",
      "reserved": "",
      "salt": "0x842914fb222a7e17f17eaa471c4534cb8fe78dc7e10ff2f2ace850dbaddd46f5",
      "assetIds": []
    },
    {
      "x": 34,
      "y": 185,
      "size": 1,
      "price": "1011000000000000000000",
      "reserved": "",
      "salt": "0x2f21ff20b3dc85b2cedc6006e35f09bfaf799f397d1ad1751a8ee7d8f3c4d6eb",
      "assetIds": []
    },
    {
      "x": 35,
      "y": 185,
      "size": 1,
      "price": "1011000000000000000000",
      "reserved": "",
      "salt": "0x7b23fafc44fe3fc9451590206cef8b8f7ad1f99c776e1b6f0140158f49a53e4e",
      "assetIds": []
    },
    {
      "x": 35,
      "y": 184,
      "size": 1,
      "price": "1011000000000000000000",
      "reserved": "",
      "salt": "0xa0f65ef76488911005ea78f1e16807c827388ad4d3b9aa780371522193a0b4b9",
      "assetIds": []
    },
    {
      "x": 35,
      "y": 183,
      "size": 1,
      "price": "1011000000000000000000",
      "reserved": "",
      "salt": "0x55ed87c917cf68368ecf9e98757337ea5a37072bb1827c7aad6a9545c132d340",
      "assetIds": []
    },
    {
      "x": 35,
      "y": 182,
      "size": 1,
      "price": "1011000000000000000000",
      "reserved": "",
      "salt": "0x9956c7b6468b05fcc7a775b44e3e1a0fabf1fe3abca3463611d23b30df297fb8",
      "assetIds": []
    },
    {
      "x": 35,
      "y": 181,
      "size": 1,
      "price": "1011000000000000000000",
      "reserved": "",
      "salt": "0x493b6a23b5a740c46283234cdcaba12f693949ec72360be39f7c96457fd6da3b",
      "assetIds": []
    },
    {
      "x": 35,
      "y": 180,
      "size": 1,
      "price": "1011000000000000000000",
      "reserved": "",
      "salt": "0x93ad9460245dbf443949b309ef97966e229733b88a75e7a758528769976f291c",
      "assetIds": []
    },
    {
      "x": 34,
      "y": 180,
      "size": 1,
      "price": "1011000000000000000000",
      "reserved": "",
      "salt": "0xac03a6f658d2860a9a2d743f952dd806b9f390bd985aca544145baca2d3d0c4a",
      "assetIds": []
    },
    {
      "x": 33,
      "y": 180,
      "size": 1,
      "price": "1011000000000000000000",
      "reserved": "",
      "salt": "0x55aa856552c33428f2ceb049c97c8bd7ab7c86226dcf30f1047da195d00f569b",
      "assetIds": []
    },
    {
      "x": 32,
      "y": 180,
      "size": 1,
      "price": "1011000000000000000000",
      "reserved": "",
      "salt": "0x962fea31a7045eacf9319f45caf2ffd8673d6e68c6de69c1b80c3491929bd205",
      "assetIds": []
    },
    {
      "x": 31,
      "y": 180,
      "size": 1,
      "price": "1011000000000000000000",
      "reserved": "",
      "salt": "0x960cb79ce69eba03c57bbc653cfadefd8ef53f016d54832941276004c5e362e1",
      "assetIds": []
    },
    {
      "x": 30,
      "y": 180,
      "size": 1,
      "price": "1011000000000000000000",
      "reserved": "",
      "salt": "0xb1aa45802250de801cfb1569a8df2cbc5f70936802d7d0989fe76042445ebb75",
      "assetIds": []
    },
    {
      "x": 35,
      "y": 173,
      "size": 1,
      "price": "1011000000000000000000",
      "reserved": "",
      "salt": "0xca278bce49b564e8d2aca6e7a0b9b9b9e43ddeab98735b3a095b4f74b4a5a416",
      "assetIds": []
    },
    {
      "x": 35,
      "y": 172,
      "size": 1,
      "price": "1011000000000000000000",
      "reserved": "",
      "salt": "0xc982bc35e0438bf4759464e805ccfe0f92436cf0fed0a044d313627f506222aa",
      "assetIds": []
    },
    {
      "x": 35,
      "y": 171,
      "size": 1,
      "price": "1011000000000000000000",
      "reserved": "",
      "salt": "0xf550cec61f33973bc0695dd9a9cbb83a58a0723268061ad39b39c4a68bdb2ad5",
      "assetIds": []
    },
    {
      "x": 35,
      "y": 170,
      "size": 1,
      "price": "1011000000000000000000",
      "reserved": "",
      "salt": "0xb4e507fbf71f3b6a90e5a99cb016c98171e459642e69c97bfe7f96530329b1ff",
      "assetIds": []
    },
    {
      "x": 35,
      "y": 169,
      "size": 1,
      "price": "1011000000000000000000",
      "reserved": "",
      "salt": "0x17ba41ca67fc5f4744d9f64c1503016121e55c8c666d5797049d7f4ff4f19d5d",
      "assetIds": []
    },
    {
      "x": 34,
      "y": 169,
      "size": 1,
      "price": "1011000000000000000000",
      "reserved": "",
      "salt": "0xa0b930efe1e9ea7a74409ca45ff6736c89f735df80ce052786d87ad48edec319",
      "assetIds": []
    },
    {
      "x": 34,
      "y": 168,
      "size": 1,
      "price": "1011000000000000000000",
      "reserved": "",
      "salt": "0xd22e1b822822364c4a35a90c99dcea0f886820b0c982b39d7431f122474dc0fb",
      "assetIds": []
    },
    {
      "x": 33,
      "y": 168,
      "size": 1,
      "price": "1011000000000000000000",
      "reserved": "",
      "salt": "0xd3c5e5b197b2834b46708b36bb7ebbd76bfea206e91472dd1e4eb396a4282f29",
      "assetIds": []
    },
    {
      "x": 32,
      "y": 168,
      "size": 1,
      "price": "1011000000000000000000",
      "reserved": "",
      "salt": "0xac0f226025d83c4fd5c369e3d7c774adb5f079686d120b1cbc4794abea9367a5",
      "assetIds": []
    },
    {
      "x": 31,
      "y": 168,
      "size": 1,
      "price": "1011000000000000000000",
      "reserved": "",
      "salt": "0xd854245cb7184e0dfbaa0c896fc32c524ef8af8c77fd483d98477a01c0b48caa",
      "assetIds": []
    },
    {
      "x": 30,
      "y": 168,
      "size": 1,
      "price": "1011000000000000000000",
      "reserved": "",
      "salt": "0xb5432d27b1747296bdef9397bab66003fc2591323859270e61d11c712eb7d509",
      "assetIds": []
    },
    {
      "x": 35,
      "y": 168,
      "size": 1,
      "price": "1011000000000000000000",
      "reserved": "",
      "salt": "0xbcacad5eb343836e8b732b45db4c95aa05924fdec6499bbd693a7d05f9dc854a",
      "assetIds": []
    },
    {
      "x": 34,
      "y": 172,
      "size": 1,
      "price": "1011000000000000000000",
      "reserved": "",
      "salt": "0xc88fe4977410dfa542b666c8cf0020cf9611345e67dcf3e15370315e497e68b7",
      "assetIds": []
    },
    {
      "x": 33,
      "y": 172,
      "size": 1,
      "price": "1011000000000000000000",
      "reserved": "",
      "salt": "0x82a52a220a8b6d1fa6cd91ea9899139960114db97fe61e74f0de6bdf6b6f6a07",
      "assetIds": []
    },
    {
      "x": 32,
      "y": 172,
      "size": 1,
      "price": "1011000000000000000000",
      "reserved": "",
      "salt": "0xf662b99d95f86e31b7a0c6d3ec46e7ab8526ed8b87f0faf94f52d69462416ec5",
      "assetIds": []
    },
    {
      "x": 31,
      "y": 172,
      "size": 1,
      "price": "1011000000000000000000",
      "reserved": "",
      "salt": "0x854674a39d31c682a8e902a68f52144570b4190f9e2e6b417607763861854a6c",
      "assetIds": []
    },
    {
      "x": 30,
      "y": 172,
      "size": 1,
      "price": "1011000000000000000000",
      "reserved": "",
      "salt": "0xf839fbe699fd4465cd4e1cb032467d93baacbf8413b52d081435c001c577f5f3",
      "assetIds": []
    },
    {
      "x": 31,
      "y": 171,
      "size": 1,
      "price": "1011000000000000000000",
      "reserved": "",
      "salt": "0x4da26df236c75379d8ec5c555889ef2ed94760b57cab964c4796c5eb838cc9d5",
      "assetIds": []
    },
    {
      "x": 31,
      "y": 170,
      "size": 1,
      "price": "1011000000000000000000",
      "reserved": "",
      "salt": "0x6b5e29bd0de0270f993d7e041ca73a1953142d78823450e92d69d1b791a685e5",
      "assetIds": []
    },
    {
      "x": 32,
      "y": 170,
      "size": 1,
      "price": "1011000000000000000000",
      "reserved": "",
      "salt": "0x3e18bc162eaf703ab5c13f8197814c0d3779cd4366eadbd506808d37308cc523",
      "assetIds": []
    },
    {
      "x": 33,
      "y": 170,
      "size": 1,
      "price": "1011000000000000000000",
      "reserved": "",
      "salt": "0x9fa94262676103223e67a8d83cd08f341f2b00b5b0c6dd796271db0813a20bf4",
      "assetIds": []
    },
    {
      "x": 33,
      "y": 171,
      "size": 1,
      "price": "1011000000000000000000",
      "reserved": "",
      "salt": "0xeed850f25d1b47e285794bfe83cc87a1ac0458a805238790588d15c4a20fed42",
      "assetIds": []
    },
    {
      "x": 32,
      "y": 171,
      "size": 1,
      "price": "1011000000000000000000",
      "reserved": "",
      "salt": "0x81e92e15c8393477619a579f52a8ed6a204003308aff3fa37dc5528c9c222f3a",
      "assetIds": []
    },
    {
      "x": 30,
      "y": 171,
      "size": 1,
      "price": "1011000000000000000000",
      "reserved": "",
      "salt": "0xc149bf2b712459ce23a4f594155caa9fe48049548e2202a1b791f1183a89d48a",
      "assetIds": []
    },
    {
      "x": 30,
      "y": 170,
      "size": 1,
      "price": "1011000000000000000000",
      "reserved": "",
      "salt": "0x7e099333b24d4d6b253f0216e345cd6f3ded35b34e403d0d28dbd3491b0442b4",
      "assetIds": []
    },
    {
      "x": 30,
      "y": 169,
      "size": 1,
      "price": "1011000000000000000000",
      "reserved": "",
      "salt": "0x80fd546870573dfec2b7464081ccc0b49650da4ef13522b24c11c536d3b6592f",
      "assetIds": []
    },
    {
      "x": 33,
      "y": 169,
      "size": 1,
      "price": "1011000000000000000000",
      "reserved": "",
      "salt": "0xcad145d138e6ce703c46d57bc9b9c79b39746e1520cd1357e32e90ed539cc730",
      "assetIds": []
    },
    {
      "x": 32,
      "y": 169,
      "size": 1,
      "price": "1011000000000000000000",
      "reserved": "",
      "salt": "0xd1f008bcca9dc8d7ad984e54655baf9d9940572a15c0fca280536c6bfb9e91fa",
      "assetIds": []
    },
    {
      "x": 31,
      "y": 169,
      "size": 1,
      "price": "1011000000000000000000",
      "reserved": "",
      "salt": "0x846e99c5e9b93266fafa8a7fee561b2940dafdf09912314a3f934eac4a7a2cbb",
      "assetIds": []
    },
    {
      "x": 34,
      "y": 170,
      "size": 1,
      "price": "1011000000000000000000",
      "reserved": "",
      "salt": "0xed4bbdafd607bbed162b317be007fa29d8aeac91845d483613418519fff84324",
      "assetIds": []
    },
    {
      "x": 34,
      "y": 171,
      "size": 1,
      "price": "1011000000000000000000",
      "reserved": "",
      "salt": "0xa982a6633f823bf590a44ed687eb513a0ea08d9d679f8558c1b02fa7a559e798",
      "assetIds": []
    },
    {
      "x": 33,
      "y": 173,
      "size": 1,
      "price": "1011000000000000000000",
      "reserved": "",
      "salt": "0xbf23c04038c9c7269abaf301fa627e266920f2f151f402876b3a965a046e62be",
      "assetIds": []
    },
    {
      "x": 32,
      "y": 173,
      "size": 1,
      "price": "1011000000000000000000",
      "reserved": "",
      "salt": "0x4c278f9dc779ec7a0201dc4bf9628c4e27f2865b7bc6f63176ed6179a3e388c0",
      "assetIds": []
    },
    {
      "x": 31,
      "y": 173,
      "size": 1,
      "price": "1011000000000000000000",
      "reserved": "",
      "salt": "0xe9bd72f2936e06103c0d9aca11defc2355ad0096020a7d6216e537aed557a1ef",
      "assetIds": []
    },
    {
      "x": 30,
      "y": 173,
      "size": 1,
      "price": "1011000000000000000000",
      "reserved": "",
      "salt": "0x78502726785ac6a6b81dc520146a96ce748bf1ec096476f8538bb3ef88333001",
      "assetIds": []
    },
    {
      "x": 25,
      "y": 174,
      "size": 1,
      "price": "1011000000000000000000",
      "reserved": "",
      "salt": "0x996b6567101d4392fbaa2bd864e2af60af354f3e3e7997a7138b6286cb111da8",
      "assetIds": []
    },
    {
      "x": 24,
      "y": 174,
      "size": 1,
      "price": "1011000000000000000000",
      "reserved": "",
      "salt": "0x974b6881eae0a6db3383f3a7f48051e7628be8a94e4b56232e87cb6e9ffba2c3",
      "assetIds": []
    },
    {
      "x": 23,
      "y": 174,
      "size": 1,
      "price": "1011000000000000000000",
      "reserved": "",
      "salt": "0xad80ce621e7b60c1994c9c27b6626aa362b92f07fe56c8dbbe271d42baf728d4",
      "assetIds": []
    },
    {
      "x": 22,
      "y": 174,
      "size": 1,
      "price": "1011000000000000000000",
      "reserved": "",
      "salt": "0xd283300a63cc431f378d73ea77e1397f10b5fb3f1cff4eae9de8aa24c3df875f",
      "assetIds": []
    },
    {
      "x": 21,
      "y": 174,
      "size": 1,
      "price": "1011000000000000000000",
      "reserved": "",
      "salt": "0x1c6966e3cd30cc44831e53346227a0f53760f76051893979533ca931af83bcd3",
      "assetIds": []
    },
    {
      "x": 20,
      "y": 174,
      "size": 1,
      "price": "1011000000000000000000",
      "reserved": "",
      "salt": "0x4c322be163a74144506e3cd3e2c2c9acab3e9d7cd7533d7647209c5e35a7eb4b",
      "assetIds": []
    },
    {
      "x": 19,
      "y": 174,
      "size": 1,
      "price": "1011000000000000000000",
      "reserved": "",
      "salt": "0xb9a81556e9b826cf57d3f9f1bac86a5082fedc7c7e881a02dbb4a3fff7957f1d",
      "assetIds": []
    },
    {
      "x": 18,
      "y": 174,
      "size": 1,
      "price": "1011000000000000000000",
      "reserved": "",
      "salt": "0x5508c136c4d08fe2d3c111c2ae9accffe566377fc3fd2937244f5affb6ef554d",
      "assetIds": []
    },
    {
      "x": 17,
      "y": 173,
      "size": 1,
      "price": "1011000000000000000000",
      "reserved": "",
      "salt": "0x82a3d29a457a560e38488fe06c4558ebb82eb5c05b77677d21a822a234061f8d",
      "assetIds": []
    },
    {
      "x": 16,
      "y": 173,
      "size": 1,
      "price": "1011000000000000000000",
      "reserved": "",
      "salt": "0x11f544816e68b77b0c023acaf73116184568a75d078ad90d29c9905d5a7e040a",
      "assetIds": []
    },
    {
      "x": 15,
      "y": 173,
      "size": 1,
      "price": "1011000000000000000000",
      "reserved": "",
      "salt": "0x63158c573c78bf5bf83e724c5befb1b6a30d6de6248d782dedaa4df9115453bf",
      "assetIds": []
    },
    {
      "x": 15,
      "y": 172,
      "size": 1,
      "price": "1011000000000000000000",
      "reserved": "",
      "salt": "0xef0987b1fef23a7f43a3ac505b9ae0642dfc7e1724d6d58893445868f8ff3c75",
      "assetIds": []
    },
    {
      "x": 16,
      "y": 172,
      "size": 1,
      "price": "1011000000000000000000",
      "reserved": "",
      "salt": "0xdfa1fad71c44eedce3d2736673bdbd15d6349c812215bbe80a8d43704d9ddfd4",
      "assetIds": []
    },
    {
      "x": 17,
      "y": 172,
      "size": 1,
      "price": "1011000000000000000000",
      "reserved": "",
      "salt": "0x6633062cbc7302930aa4af4adaf09936db6f5447b31dcda606c4c960cde84e49",
      "assetIds": []
    },
    {
      "x": 18,
      "y": 172,
      "size": 1,
      "price": "1011000000000000000000",
      "reserved": "",
      "salt": "0xc41e68d097153cebca53340f27d56547fe2cc9fa9b1e7c0149ce40001bf8d282",
      "assetIds": []
    },
    {
      "x": 19,
      "y": 172,
      "size": 1,
      "price": "1011000000000000000000",
      "reserved": "",
      "salt": "0xa05f9e3b101e23614ade29f8a565b3f8029d8cb09704e1b2e725caf61aa10414",
      "assetIds": []
    },
    {
      "x": 20,
      "y": 172,
      "size": 1,
      "price": "1011000000000000000000",
      "reserved": "",
      "salt": "0x6a761b2b9a7741159fcd09f61be0d9b3ac9e7ae7b7d6e64e3e12b7f3aba99216",
      "assetIds": []
    },
    {
      "x": 21,
      "y": 172,
      "size": 1,
      "price": "1011000000000000000000",
      "reserved": "",
      "salt": "0x7aa012d19555dfc118517a47f2992067e3538317ffa76b1720c383c474147b00",
      "assetIds": []
    },
    {
      "x": 22,
      "y": 172,
      "size": 1,
      "price": "1011000000000000000000",
      "reserved": "",
      "salt": "0x9b9a22e2e6ff377bbf06de62f2e6f55c1dfdf7ee7469401d2de9b500e5f1a6b8",
      "assetIds": []
    },
    {
      "x": 23,
      "y": 172,
      "size": 1,
      "price": "1011000000000000000000",
      "reserved": "",
      "salt": "0x8aafd55267b12a68b685db2ada9b83a394f89b2aa3a2153d32c5e8526630306e",
      "assetIds": []
    },
    {
      "x": 34,
      "y": 173,
      "size": 1,
      "price": "1011000000000000000000",
      "reserved": "",
      "salt": "0xb85813b5cd6abeab4b08b97417b670add35b2f91127bf03d9dcb53cf1779b1e0",
      "assetIds": []
    },
    {
      "x": 31,
      "y": 184,
      "size": 1,
      "price": "1011000000000000000000",
      "reserved": "",
      "salt": "0x23a5333e07e7b52284691f5978d36e577afcaf0791452ac011f1188f405870f4",
      "assetIds": []
    },
    {
      "x": 32,
      "y": 184,
      "size": 1,
      "price": "1011000000000000000000",
      "reserved": "",
      "salt": "0xd1358dfda2511fa49c36355c5eb36526c2f048f83fc7c0eee418fa91aa2a6881",
      "assetIds": []
    },
    {
      "x": 32,
      "y": 183,
      "size": 1,
      "price": "1011000000000000000000",
      "reserved": "",
      "salt": "0x384acc32a17b492038da2167e5ee649ebda2051841a6d1ef690272c2d3b59e85",
      "assetIds": []
    },
    {
      "x": 33,
      "y": 183,
      "size": 1,
      "price": "1011000000000000000000",
      "reserved": "",
      "salt": "0x31376e8f542f0e26bb422bb1522cb0e55d0bf7cfdcbc2ce971937b76226617b1",
      "assetIds": []
    },
    {
      "x": 34,
      "y": 183,
      "size": 1,
      "price": "1011000000000000000000",
      "reserved": "",
      "salt": "0xa5ac6e1c10c07e1cc94b5386e08c71b2262b2d499dcd8f23a65ad356237ccd21",
      "assetIds": []
    },
    {
      "x": 33,
      "y": 184,
      "size": 1,
      "price": "1011000000000000000000",
      "reserved": "",
      "salt": "0x6674e4bbbe99c4f77151ea9f12cc34fa20d2ea025d12d611886f3731ce4715c8",
      "assetIds": []
    },
    {
      "x": 34,
      "y": 184,
      "size": 1,
      "price": "1011000000000000000000",
      "reserved": "",
      "salt": "0xa4ba27295b8823992a0d3d74ff522915eff80ff8e9b3e0149ec0194911561a54",
      "assetIds": []
    },
    {
      "x": 31,
      "y": 183,
      "size": 1,
      "price": "1011000000000000000000",
      "reserved": "",
      "salt": "0x6b366b87b43bb9a7a3a82b23150e78d8bc3ceff8516dd4223b8edec96e6da49e",
      "assetIds": []
    },
    {
      "x": 31,
      "y": 182,
      "size": 1,
      "price": "1011000000000000000000",
      "reserved": "",
      "salt": "0xedc277246d5a5ca8e5dc0c3054c10b6ace7dbae5c0f9ed0826450ecdaf52f8fd",
      "assetIds": []
    },
    {
      "x": 32,
      "y": 182,
      "size": 1,
      "price": "1011000000000000000000",
      "reserved": "",
      "salt": "0xbb81427ab639b2a6c91d3fa74537cba8690f65502beaba1a5548101a390bee0e",
      "assetIds": []
    },
    {
      "x": 33,
      "y": 182,
      "size": 1,
      "price": "1011000000000000000000",
      "reserved": "",
      "salt": "0x97c2e7365890f2e5f7f1eb8919c7f788afccdf95fe53f630d0903026ecafd3ae",
      "assetIds": []
    },
    {
      "x": 34,
      "y": 182,
      "size": 1,
      "price": "1011000000000000000000",
      "reserved": "",
      "salt": "0xfcc073848f402e3a5e431fa2e30e85dd9361d92dd7aec2cc70c247325e53c83c",
      "assetIds": []
    },
    {
      "x": 34,
      "y": 181,
      "size": 1,
      "price": "1011000000000000000000",
      "reserved": "",
      "salt": "0x23d51a3a834a80704721a9da910e73d6625f602ce652070f5744772edfdf90f2",
      "assetIds": []
    },
    {
      "x": 29,
      "y": 180,
      "size": 1,
      "price": "1011000000000000000000",
      "reserved": "",
      "salt": "0x15eb8162edf2f8d776d4a021ef5f1dd2f2ac45ae23943d7e94aecbce75e4af4f",
      "assetIds": []
    },
    {
      "x": 28,
      "y": 180,
      "size": 1,
      "price": "1011000000000000000000",
      "reserved": "",
      "salt": "0x747a829b8fd6e0c0d69186466200938a7cca0a1cbf78520f4a4d47de312e5757",
      "assetIds": []
    },
    {
      "x": 31,
      "y": 181,
      "size": 1,
      "price": "1011000000000000000000",
      "reserved": "",
      "salt": "0x97c3b0d899b5064288a84e0e6aa05c5d64d7239987bf31b328455e03ee554292",
      "assetIds": []
    },
    {
      "x": 32,
      "y": 181,
      "size": 1,
      "price": "1011000000000000000000",
      "reserved": "",
      "salt": "0xd53b2f1bd4719f40f896a1e576e99841086287236c832c8b3b00bb9ce554b8b0",
      "assetIds": []
    },
    {
      "x": 33,
      "y": 181,
      "size": 1,
      "price": "1011000000000000000000",
      "reserved": "",
      "salt": "0x02f1af927cc9b1d2039ada73fe8e513a5465d0a332d0d4775f61dcdf35863d87",
      "assetIds": []
    },
    {
      "x": 30,
      "y": 181,
      "size": 1,
      "price": "1011000000000000000000",
      "reserved": "",
      "salt": "0xda3e3db7496d9483a3b60e9b455ab91c64c6b3e83835457b4bee68336f3ce7ae",
      "assetIds": []
    },
    {
      "x": 29,
      "y": 181,
      "size": 1,
      "price": "1011000000000000000000",
      "reserved": "",
      "salt": "0x3066a1518bf6a2b70ef8b07e14bf7f1e98f91e88040a9a6c52db9e9bb34bccbf",
      "assetIds": []
    },
    {
      "x": 28,
      "y": 181,
      "size": 1,
      "price": "1011000000000000000000",
      "reserved": "",
      "salt": "0x191fb204e01edce6d7f5ced0f2985c5e6b1fe05a448e928ff6e51532bf62e4be",
      "assetIds": []
    },
    {
      "x": 27,
      "y": 181,
      "size": 1,
      "price": "1011000000000000000000",
      "reserved": "",
      "salt": "0xac428d5476fe4c6c346956561b283c4aebdc9f54899617c59818cb07082a2d11",
      "assetIds": []
    },
    {
      "x": 27,
      "y": 182,
      "size": 1,
      "price": "1011000000000000000000",
      "reserved": "",
      "salt": "0x5b3582de4ab856ff619d8d1e03bc76f9ac384f3720dc1def18e18c519d080bfa",
      "assetIds": []
    },
    {
      "x": 27,
      "y": 183,
      "size": 1,
      "price": "1011000000000000000000",
      "reserved": "",
      "salt": "0x24a22da098f715f802144a26e7e8aa98e849a857d08ab7bb453f94c6d956c935",
      "assetIds": []
    },
    {
      "x": 27,
      "y": 184,
      "size": 1,
      "price": "1011000000000000000000",
      "reserved": "",
      "salt": "0x23e167ec4197b30fe3042d7da139008852ad73dd5df77fe9cd69b4cc6c314f35",
      "assetIds": []
    },
    {
      "x": 27,
      "y": 185,
      "size": 1,
      "price": "1011000000000000000000",
      "reserved": "",
      "salt": "0x0a099c62dceb14dc1317be7fe53d70acc5ab40c7f2eea501032ec7923f028f07",
      "assetIds": []
    },
    {
      "x": 27,
      "y": 186,
      "size": 1,
      "price": "1011000000000000000000",
      "reserved": "",
      "salt": "0x2c8744bc0a7f6384449737c3b5433e7e3604d4ff2cc131d57f8058b26cc3a8f4",
      "assetIds": []
    },
    {
      "x": 27,
      "y": 187,
      "size": 1,
      "price": "1011000000000000000000",
      "reserved": "",
      "salt": "0x84c738168f8c0db267ff18c71be43051463e19dab0db4a712fc41fce1770ce98",
      "assetIds": []
    },
    {
      "x": 27,
      "y": 188,
      "size": 1,
      "price": "1011000000000000000000",
      "reserved": "",
      "salt": "0x5fdadd7e60801afa09251310dc98d490c2669a2c6a5c36c7b833548dcf86c326",
      "assetIds": []
    },
    {
      "x": 27,
      "y": 189,
      "size": 1,
      "price": "1011000000000000000000",
      "reserved": "",
      "salt": "0x81b7d5e1e728b0bb8fe8b7f1e51a0bb9bf1193650f31f16033344bda12d3020e",
      "assetIds": []
    },
    {
      "x": 27,
      "y": 190,
      "size": 1,
      "price": "1011000000000000000000",
      "reserved": "",
      "salt": "0x034b994164a889d56f2fbc7be88fbf2e6e772164457c1bf91dbf43569b806fd7",
      "assetIds": []
    },
    {
      "x": 27,
      "y": 191,
      "size": 1,
      "price": "1011000000000000000000",
      "reserved": "",
      "salt": "0xc53e065201ccbe3611bb1c3328a4e9e50a173b3ea06cad089fcda77cfff9e3ce",
      "assetIds": []
    },
    {
      "x": 26,
      "y": 191,
      "size": 1,
      "price": "1011000000000000000000",
      "reserved": "",
      "salt": "0xee36f8c9c977a8e0f1d4d92b04ff2d55565031ee8345aacff394ef7df8a42bb5",
      "assetIds": []
    },
    {
      "x": 26,
      "y": 192,
      "size": 1,
      "price": "1011000000000000000000",
      "reserved": "",
      "salt": "0xf595e6a937188e93b7a56b55e7195649b4641e784705dc9c6c0ba518249ecb81",
      "assetIds": []
    },
    {
      "x": 26,
      "y": 193,
      "size": 1,
      "price": "1011000000000000000000",
      "reserved": "",
      "salt": "0x8f47c570d55155eb9a755f7ab5c75cc266d6d87657bf9dea2f91b95a5cfe12dd",
      "assetIds": []
    },
    {
      "x": 25,
      "y": 193,
      "size": 1,
      "price": "1011000000000000000000",
      "reserved": "",
      "salt": "0x17892433b86043fad5e33ff7da32f1bcdd9e7f61b13eaf72198c2a3faaf7a338",
      "assetIds": []
    },
    {
      "x": 25,
      "y": 194,
      "size": 1,
      "price": "1011000000000000000000",
      "reserved": "",
      "salt": "0x573faaeeea343b032df7a423c6695dc2432372d962c17c894b9d47ffeba5c322",
      "assetIds": []
    },
    {
      "x": 25,
      "y": 195,
      "size": 1,
      "price": "1011000000000000000000",
      "reserved": "",
      "salt": "0x36822569c65c5c7357d5cb6b7831937ea54c27092fad060a5dda9cbaec1ddf69",
      "assetIds": []
    },
    {
      "x": 25,
      "y": 196,
      "size": 1,
      "price": "1011000000000000000000",
      "reserved": "",
      "salt": "0x76b9bf2eaf35a7131ba7c23129f38a8a4b9467df92a6b8e86eb8bd8b5fce4726",
      "assetIds": []
    },
    {
      "x": 25,
      "y": 197,
      "size": 1,
      "price": "1011000000000000000000",
      "reserved": "",
      "salt": "0xdb51bc3e918d2567e3d9aadffdb7b5e851839d2d9f706d2447b70ae2bb2679e8",
      "assetIds": []
    },
    {
      "x": 24,
      "y": 197,
      "size": 1,
      "price": "1011000000000000000000",
      "reserved": "",
      "salt": "0x3eee8363114581eba2c25621c1cd3a1bbcf7f10d2b0a585bacb594c78f687732",
      "assetIds": []
    },
    {
      "x": 24,
      "y": 198,
      "size": 1,
      "price": "1011000000000000000000",
      "reserved": "",
      "salt": "0x40bd117e601df81b5044139e49a811038573d61ac1e62860aa69005e93e314a6",
      "assetIds": []
    },
    {
      "x": 24,
      "y": 199,
      "size": 1,
      "price": "1011000000000000000000",
      "reserved": "",
      "salt": "0x79ea1bfdfa1147e1ac0e63f84d9fd8c435d0d9dd7471b7f4616f3fcf0e7eba5a",
      "assetIds": []
    },
    {
      "x": 25,
      "y": 198,
      "size": 1,
      "price": "1011000000000000000000",
      "reserved": "",
      "salt": "0x2b7720b2005e33cfe31e3ad20ef23af585830316564ec5e8972b3dc4a30b1a62",
      "assetIds": []
    },
    {
      "x": 25,
      "y": 199,
      "size": 1,
      "price": "1011000000000000000000",
      "reserved": "",
      "salt": "0xf3c755aca7edfec1b8915ec880d672b690664abf6c9fff36a2e658b6d5c743c8",
      "assetIds": []
    },
    {
      "x": 25,
      "y": 192,
      "size": 1,
      "price": "1011000000000000000000",
      "reserved": "",
      "salt": "0x2965d55064c6a3089640cc3e1cc72c14ba84c6e74e4f7185c2d3aaca89e1989e",
      "assetIds": []
    },
    {
      "x": 26,
      "y": 190,
      "size": 1,
      "price": "1011000000000000000000",
      "reserved": "",
      "salt": "0x6fc4fd04fc08230308dcffd3159861db2fa064b8f7780f005ed4c884721ec77a",
      "assetIds": []
    },
    {
      "x": 26,
      "y": 189,
      "size": 1,
      "price": "1011000000000000000000",
      "reserved": "",
      "salt": "0x530f184549964cdeac248f4cfba35666196892c145566f61673e0c2766480286",
      "assetIds": []
    },
    {
      "x": 26,
      "y": 188,
      "size": 1,
      "price": "1011000000000000000000",
      "reserved": "",
      "salt": "0xfde020ca13a929e475a4b489f78dc209b85d18518061b6776016059ae4e0a666",
      "assetIds": []
    },
    {
      "x": 28,
      "y": 182,
      "size": 1,
      "price": "1011000000000000000000",
      "reserved": "",
      "salt": "0xcd4f2d6c39b1bf88c1db5476e9d2aa4989f66fbfc68bf32056699ca1a00e8099",
      "assetIds": []
    },
    {
      "x": 28,
      "y": 183,
      "size": 1,
      "price": "1011000000000000000000",
      "reserved": "",
      "salt": "0x4b012bef134f0d9123e8d512c43d05d8e0a903d2103c1ba62cdbae5517105c37",
      "assetIds": []
    },
    {
      "x": 29,
      "y": 183,
      "size": 1,
      "price": "1011000000000000000000",
      "reserved": "",
      "salt": "0x3e63dfb8071ed87ebcd9d1ae80add6fc78e87d98a8ea53c80363af8cc7e3645b",
      "assetIds": []
    },
    {
      "x": 29,
      "y": 182,
      "size": 1,
      "price": "1011000000000000000000",
      "reserved": "",
      "salt": "0x332cf1071abc01159b718bd92fc6ffc33de94bb483b1e24e5a75cada3d06dd05",
      "assetIds": []
    },
    {
      "x": 29,
      "y": 184,
      "size": 1,
      "price": "1011000000000000000000",
      "reserved": "",
      "salt": "0x07a8f92362ac07ab03264b0193e18a932867d93e6433a7b4450d485c195f45ea",
      "assetIds": []
    },
    {
      "x": 28,
      "y": 185,
      "size": 1,
      "price": "1011000000000000000000",
      "reserved": "",
      "salt": "0x7df989381ec11e45cc17228233cc51788f21a49b3166ebbe7e8d079fb1738702",
      "assetIds": []
    },
    {
      "x": 28,
      "y": 184,
      "size": 1,
      "price": "1011000000000000000000",
      "reserved": "",
      "salt": "0x5c0afcaf4009a4e2105808dc861a6c2bee69f4d20e3f59a51472c3cfd3ba9c5f",
      "assetIds": []
    },
    {
      "x": 28,
      "y": 186,
      "size": 1,
      "price": "1011000000000000000000",
      "reserved": "",
      "salt": "0x03821f1bd7aa073102cc4c1657e6844fbde9345ad91b481bc5fc787877975767",
      "assetIds": []
    },
    {
      "x": 28,
      "y": 187,
      "size": 1,
      "price": "1011000000000000000000",
      "reserved": "",
      "salt": "0xe5c12296afb01285cd4354f342392bfeb8d3ec49a52dbb5f8b9d3b3ca426c9f0",
      "assetIds": []
    },
    {
      "x": 28,
      "y": 188,
      "size": 1,
      "price": "1011000000000000000000",
      "reserved": "",
      "salt": "0x778c283b99249faf0e57974666a3b73a9c327072054fbfcb318959b5a4058fb1",
      "assetIds": []
    },
    {
      "x": 28,
      "y": 189,
      "size": 1,
      "price": "1011000000000000000000",
      "reserved": "",
      "salt": "0x4b4137194f231913dd6bcfa08562c728f812252e4246d301fa12b7f35ca6cd0a",
      "assetIds": []
    },
    {
      "x": 28,
      "y": 190,
      "size": 1,
      "price": "1011000000000000000000",
      "reserved": "",
      "salt": "0x4a75f1dc82fab835972571c7dd7403dc6a66434009d30f1d28e0ea129c707de1",
      "assetIds": []
    },
    {
      "x": 28,
      "y": 191,
      "size": 1,
      "price": "1011000000000000000000",
      "reserved": "",
      "salt": "0x81aa71657dea411fe43c20a0e33c6f17e60efd6b6968c3bde7562e9d7d679909",
      "assetIds": []
    },
    {
      "x": 27,
      "y": 192,
      "size": 1,
      "price": "1011000000000000000000",
      "reserved": "",
      "salt": "0xec6ab08559a6a73ae8d6f2b285b9bb1fc8b9fb30368edaba69566bd9d2d90741",
      "assetIds": []
    },
    {
      "x": 27,
      "y": 193,
      "size": 1,
      "price": "1011000000000000000000",
      "reserved": "",
      "salt": "0xfaa16ab6b080fa8cf0b06bb1dc3bb8e178e9626003258036c87d8aa91910425e",
      "assetIds": []
    },
    {
      "x": 24,
      "y": 196,
      "size": 1,
      "price": "1011000000000000000000",
      "reserved": "",
      "salt": "0xa92fb0bbd19476cd79c2265186aaf904409faf4d540d653fd0ab607eb9102784",
      "assetIds": []
    },
    {
      "x": 24,
      "y": 195,
      "size": 1,
      "price": "1011000000000000000000",
      "reserved": "",
      "salt": "0xc6f77fdc29d9dc87564356227bec27111c7360210cd9715daf9f5086a373e07d",
      "assetIds": []
    },
    {
      "x": 25,
      "y": 191,
      "size": 1,
      "price": "1011000000000000000000",
      "reserved": "",
      "salt": "0x3090d94be3e0f97c2d792c7178c4d8c0db7843083e55576de00654369704ebc1",
      "assetIds": []
    },
    {
      "x": 25,
      "y": 190,
      "size": 1,
      "price": "1011000000000000000000",
      "reserved": "",
      "salt": "0x53fe41e1b5c6ddf4dbe0eac8ec890021f7fd7c74a15093ddc5c3da1ff1fbf61f",
      "assetIds": []
    },
    {
      "x": 25,
      "y": 189,
      "size": 1,
      "price": "1011000000000000000000",
      "reserved": "",
      "salt": "0x775eaf7e7b4da533ac0a543f1e1ce4c1c05d7360e4e9ab2c9671ae2de0ec3d1d",
      "assetIds": []
    },
    {
      "x": 25,
      "y": 188,
      "size": 1,
      "price": "1011000000000000000000",
      "reserved": "",
      "salt": "0xb1471d78a3ba931cb949c5c9e17bb6136e354fa687bf3bf2984605aef596d636",
      "assetIds": []
    },
    {
      "x": 25,
      "y": 187,
      "size": 1,
      "price": "1011000000000000000000",
      "reserved": "",
      "salt": "0x24ac1e8f8f058c60e2a502f2757de50ff91270bf45d3991bc12e761c52f3ac9b",
      "assetIds": []
    },
    {
      "x": 25,
      "y": 186,
      "size": 1,
      "price": "1011000000000000000000",
      "reserved": "",
      "salt": "0xfbbda6ede128a6fb84e0609ed36912c08d5ff7bcbd60e523bcf9bcf3ec8ccaa4",
      "assetIds": []
    },
    {
      "x": 25,
      "y": 185,
      "size": 1,
      "price": "1011000000000000000000",
      "reserved": "",
      "salt": "0x74352c73906a9cd02f25a331c00f78535c44cb2931057d91220f8b09e6ccaa16",
      "assetIds": []
    },
    {
      "x": 25,
      "y": 184,
      "size": 1,
      "price": "1011000000000000000000",
      "reserved": "",
      "salt": "0x9659c69d9ce8c455e91ef3687d7a68177648cc1b31a0b235ba0e6898da5b89cd",
      "assetIds": []
    },
    {
      "x": 25,
      "y": 183,
      "size": 1,
      "price": "1011000000000000000000",
      "reserved": "",
      "salt": "0x45253d4a5f438572e8c3a0c570d2a8e1f85296970e6a3b2458542efa9671e539",
      "assetIds": []
    },
    {
      "x": 25,
      "y": 182,
      "size": 1,
      "price": "1011000000000000000000",
      "reserved": "",
      "salt": "0xabc818e98bc062a10aa05493cc6cd6951d535ca290e16b85641d223cc4fc91c5",
      "assetIds": []
    },
    {
      "x": 25,
      "y": 181,
      "size": 1,
      "price": "1011000000000000000000",
      "reserved": "",
      "salt": "0xbbdabf6ec9e4a1083a00c3a253f54f31e261c2442b2b4b2e2df48fb986cc4d9a",
      "assetIds": []
    },
    {
      "x": 25,
      "y": 180,
      "size": 1,
      "price": "1011000000000000000000",
      "reserved": "",
      "salt": "0xcd5943f52a56c7147b2b5d603245b2554fbab918bfbf56024575751efbb75265",
      "assetIds": []
    },
    {
      "x": 25,
      "y": 179,
      "size": 1,
      "price": "1011000000000000000000",
      "reserved": "",
      "salt": "0xddace29a8bc64e493d1ef552cc815d84293655f9bef0914081aaa45b40525c0c",
      "assetIds": []
    },
    {
      "x": 26,
      "y": 179,
      "size": 1,
      "price": "1011000000000000000000",
      "reserved": "",
      "salt": "0xad2d427768b665da3adede0aca6363f575d4fbda05676442e635432e50dc39ac",
      "assetIds": []
    },
    {
      "x": 27,
      "y": 179,
      "size": 1,
      "price": "1011000000000000000000",
      "reserved": "",
      "salt": "0x1e72f6eaf68ebf8b42362cea58177b61013dfe359db6e71ecca5536d486cf53c",
      "assetIds": []
    },
    {
      "x": 28,
      "y": 179,
      "size": 1,
      "price": "1011000000000000000000",
      "reserved": "",
      "salt": "0x2439a56bad9eb8a803cf294827b1e229b91ee170008d7dd7aa0cb96cb8f24864",
      "assetIds": []
    },
    {
      "x": 28,
      "y": 178,
      "size": 1,
      "price": "1011000000000000000000",
      "reserved": "",
      "salt": "0x12d9adeef39743ddaf0be5ba2138d93d75c34e60bf8b921839575260bca84d82",
      "assetIds": []
    },
    {
      "x": 29,
      "y": 178,
      "size": 1,
      "price": "1011000000000000000000",
      "reserved": "",
      "salt": "0xa89fb08bc2fd858ebd12676182408086a7a69c3533210d9a5c6c6569a4b836ec",
      "assetIds": []
    },
    {
      "x": 29,
      "y": 179,
      "size": 1,
      "price": "1011000000000000000000",
      "reserved": "",
      "salt": "0x14b18de5ec6827816869286896552cc7c39cf0975d9c6164374da1dfc08b0dfd",
      "assetIds": []
    },
    {
      "x": 26,
      "y": 180,
      "size": 1,
      "price": "1011000000000000000000",
      "reserved": "",
      "salt": "0x908010cc2e5926d6696379c3ca612462863069ffe79046ad7f34dda170f02b72",
      "assetIds": []
    },
    {
      "x": 26,
      "y": 181,
      "size": 1,
      "price": "1011000000000000000000",
      "reserved": "",
      "salt": "0x826c86e7a939b2ae73ce26e9b266df95311d4908a8d43aaa6ecce0a57334afbd",
      "assetIds": []
    },
    {
      "x": 26,
      "y": 182,
      "size": 1,
      "price": "1011000000000000000000",
      "reserved": "",
      "salt": "0x433c106e1774c4a006ec34fe5a3e721cd5e7ea95a4a8daa086b8f91120f5c3e0",
      "assetIds": []
    },
    {
      "x": 27,
      "y": 180,
      "size": 1,
      "price": "1011000000000000000000",
      "reserved": "",
      "salt": "0x21d1985e8fb892abff3035e674915d216ca9da6a1405b607451193e1eeb2770e",
      "assetIds": []
    },
    {
      "x": 26,
      "y": 183,
      "size": 1,
      "price": "1011000000000000000000",
      "reserved": "",
      "salt": "0xe4eb1f3565883eadad415f3aa14954f366f47e75ffe36fda76e48c6716219346",
      "assetIds": []
    },
    {
      "x": 26,
      "y": 184,
      "size": 1,
      "price": "1011000000000000000000",
      "reserved": "",
      "salt": "0x8c415922c248711c8771bf11dd2cdfe7650efee3e41396015087d5badbfe02d8",
      "assetIds": []
    },
    {
      "x": 26,
      "y": 185,
      "size": 1,
      "price": "1011000000000000000000",
      "reserved": "",
      "salt": "0xed56d4c251adb547f4c4bb85305bdacdbca40d3f05dd23227b57cfdcc504bf50",
      "assetIds": []
    },
    {
      "x": 26,
      "y": 186,
      "size": 1,
      "price": "1011000000000000000000",
      "reserved": "",
      "salt": "0x2e948eb868075a31f0730a9526b0ea5fc25b45c3212d5c617c2c2b3d4be7f1a5",
      "assetIds": []
    },
    {
      "x": 26,
      "y": 187,
      "size": 1,
      "price": "1011000000000000000000",
      "reserved": "",
      "salt": "0x9230c188d66d3d223c622b1d57cc6a945e67f06ee1d9f517f0ffa615a07bf46f",
      "assetIds": []
    },
    {
      "x": 24,
      "y": 194,
      "size": 1,
      "price": "1011000000000000000000",
      "reserved": "",
      "salt": "0x2b4ef071db730a376e8847a8ba52f895027742c51492023009df89e2fbdd8cd6",
      "assetIds": []
    },
    {
      "x": 24,
      "y": 193,
      "size": 1,
      "price": "1011000000000000000000",
      "reserved": "",
      "salt": "0x2db3461f64cb0bb66c9f62c63c1e843ca760bbc253e64dabcdffe3c39bf47f36",
      "assetIds": []
    },
    {
      "x": 24,
      "y": 192,
      "size": 1,
      "price": "1011000000000000000000",
      "reserved": "",
      "salt": "0xe481c60ad214352a3351077fdfd5ef784d1fc82910d91421f11930e26d4a20f0",
      "assetIds": []
    },
    {
      "x": 24,
      "y": 191,
      "size": 1,
      "price": "1011000000000000000000",
      "reserved": "",
      "salt": "0xcc28c150e1ef2fa48e34659a7f3334c2b1f3917a35d2512e1a3adb5f7641ccde",
      "assetIds": []
    },
    {
      "x": 24,
      "y": 190,
      "size": 1,
      "price": "1011000000000000000000",
      "reserved": "",
      "salt": "0xbbe4e9a95b01818350c0464f5b7ba12330b0e0480dd3843d03f183803aca8d7e",
      "assetIds": []
    },
    {
      "x": 24,
      "y": 189,
      "size": 1,
      "price": "1011000000000000000000",
      "reserved": "",
      "salt": "0xe3e5e161cb8e81816d332ee9085ecfa82c3f50b160eb78f330a0e4a3ea20785a",
      "assetIds": []
    },
    {
      "x": 24,
      "y": 188,
      "size": 1,
      "price": "1011000000000000000000",
      "reserved": "",
      "salt": "0x1d8aad73328ce3d36fa94485d1a0f381d3a5594e068b8ed350bab0e00fdc1a21",
      "assetIds": []
    },
    {
      "x": 24,
      "y": 187,
      "size": 1,
      "price": "1011000000000000000000",
      "reserved": "",
      "salt": "0xa567d53a605010088b8a340a0522fb79599ef100014bb26806ce1b798b0ec96d",
      "assetIds": []
    },
    {
      "x": 24,
      "y": 186,
      "size": 1,
      "price": "1011000000000000000000",
      "reserved": "",
      "salt": "0xece0b9ee5c17b1d9224270d48bdf94f86d0ed74be0828719ad9538726e4b0133",
      "assetIds": []
    },
    {
      "x": 24,
      "y": 185,
      "size": 1,
      "price": "1011000000000000000000",
      "reserved": "",
      "salt": "0xa939575af246a4c9e2587c0470401a9ecb207ced21bb11dbb3d8c1ce6043f15e",
      "assetIds": []
    },
    {
      "x": 24,
      "y": 184,
      "size": 1,
      "price": "1011000000000000000000",
      "reserved": "",
      "salt": "0x3185f581c328ff30d17c2972c5140a248c2b2c683c743649d3084a9cc6e09808",
      "assetIds": []
    },
    {
      "x": 24,
      "y": 183,
      "size": 1,
      "price": "1011000000000000000000",
      "reserved": "",
      "salt": "0x47833704a26f4e603f28db9059bd814de0cdc04d62bcc02ce70711bbc18dd25e",
      "assetIds": []
    },
    {
      "x": 24,
      "y": 182,
      "size": 1,
      "price": "1011000000000000000000",
      "reserved": "",
      "salt": "0x53c408f7e1bbb06290d7ddb5349aa92c682315c86c521faaa5723b7804041129",
      "assetIds": []
    },
    {
      "x": 24,
      "y": 181,
      "size": 1,
      "price": "1011000000000000000000",
      "reserved": "",
      "salt": "0x87442aad2bafe504a3686747014bfcee24b61fa07bd607cf323ba6467e7576ae",
      "assetIds": []
    },
    {
      "x": 24,
      "y": 180,
      "size": 1,
      "price": "1011000000000000000000",
      "reserved": "",
      "salt": "0xe06145a75d4aba37cd4b435334bd0550348fe9e2b3caaa6dfc09473ea0d9619e",
      "assetIds": []
    },
    {
      "x": 24,
      "y": 179,
      "size": 1,
      "price": "1011000000000000000000",
      "reserved": "",
      "salt": "0x7c1ec7983f79d65d50195abef0899e61c47d7a6e8c54a4dd8898a67228cada6b",
      "assetIds": []
    },
    {
      "x": 24,
      "y": 178,
      "size": 1,
      "price": "1011000000000000000000",
      "reserved": "",
      "salt": "0xbff7ce647335e6631d0dbe717929ecef5f296603c73df2bbeae680f660020edc",
      "assetIds": []
    },
    {
      "x": 23,
      "y": 178,
      "size": 1,
      "price": "1011000000000000000000",
      "reserved": "",
      "salt": "0xd73628ca420d95a99c3ab6685003be4a531f584e4d18a0a88b771109ad2c761a",
      "assetIds": []
    },
    {
      "x": 22,
      "y": 178,
      "size": 1,
      "price": "1011000000000000000000",
      "reserved": "",
      "salt": "0xbe7ad5a096ca8fe30835346f93e64ebe46ebecc94d99eeba28f0b010e1d345ad",
      "assetIds": []
    },
    {
      "x": 22,
      "y": 179,
      "size": 1,
      "price": "1011000000000000000000",
      "reserved": "",
      "salt": "0x713001598fbdd78136c9bd11a087606549d3671e825a1e5afaa1ab979be711c8",
      "assetIds": []
    },
    {
      "x": 21,
      "y": 179,
      "size": 1,
      "price": "1011000000000000000000",
      "reserved": "",
      "salt": "0x01f2f6c867d822cb5b549c0d72d842fed2d8be5350404a06c472b06b8cad0327",
      "assetIds": []
    },
    {
      "x": 20,
      "y": 179,
      "size": 1,
      "price": "1011000000000000000000",
      "reserved": "",
      "salt": "0xa3e4dd6c9d296f4e03be46d04231e4e8d5f615085e7770dbe10bfe5cd188b2e7",
      "assetIds": []
    },
    {
      "x": 19,
      "y": 179,
      "size": 1,
      "price": "1011000000000000000000",
      "reserved": "",
      "salt": "0xdf2feeb9b410f88064d974430cc38c3b31dd09b272474498dfa365a1bc8935de",
      "assetIds": []
    },
    {
      "x": 18,
      "y": 179,
      "size": 1,
      "price": "1011000000000000000000",
      "reserved": "",
      "salt": "0xd46d67bc5275ff7ded5b306fd21b59ddb80aa2443539dee04fd9b86f060bb1b3",
      "assetIds": []
    },
    {
      "x": 18,
      "y": 178,
      "size": 1,
      "price": "1011000000000000000000",
      "reserved": "",
      "salt": "0x067fc572258eb8f50078680539353577a9bec335a10d21896c796712eedc6873",
      "assetIds": []
    },
    {
      "x": 19,
      "y": 178,
      "size": 1,
      "price": "1011000000000000000000",
      "reserved": "",
      "salt": "0x13272d2d643504bcc8c9e81665f8bcb82d1ec7077d56ee37c2ca0551f836855b",
      "assetIds": []
    },
    {
      "x": 20,
      "y": 178,
      "size": 1,
      "price": "1011000000000000000000",
      "reserved": "",
      "salt": "0xda3c1be17c7c39d315b4fda588c60f97cf28040aec8e3284bfdd072e63255472",
      "assetIds": []
    },
    {
      "x": 21,
      "y": 178,
      "size": 1,
      "price": "1011000000000000000000",
      "reserved": "",
      "salt": "0xcba047e6ccf8afad3fe016bb38c4f1b0d445ef8de9b9d9029ff82671cbb2d215",
      "assetIds": []
    },
    {
      "x": 23,
      "y": 179,
      "size": 1,
      "price": "1011000000000000000000",
      "reserved": "",
      "salt": "0x280d057360af45fb160bd612eb0d1b5138b5230690ca743e41b9733553c6ce7a",
      "assetIds": []
    },
    {
      "x": 27,
      "y": 178,
      "size": 1,
      "price": "1011000000000000000000",
      "reserved": "",
      "salt": "0x0bdc1cd060486f852ff3efd5f1b70d3a15c7d15f05d8c0e9fb5349dd0398f61d",
      "assetIds": []
    },
    {
      "x": 26,
      "y": 178,
      "size": 1,
      "price": "1011000000000000000000",
      "reserved": "",
      "salt": "0x70143a36c80c4ed79efa9167ebd7334c5edd05cf739d0bd9a00074897aeda5cc",
      "assetIds": []
    },
    {
      "x": 25,
      "y": 178,
      "size": 1,
      "price": "1011000000000000000000",
      "reserved": "",
      "salt": "0x640e2fbd81fd6793d5259b03186451f2c49d11cf7f032f0aa4534df92be7c71a",
      "assetIds": []
    },
    {
      "x": 18,
      "y": 177,
      "size": 1,
      "price": "1011000000000000000000",
      "reserved": "",
      "salt": "0xc442a3d520f9eb4ece3bd8680b00c49c944ee3a03b5e0a4f49dd2122d53542ff",
      "assetIds": []
    },
    {
      "x": 19,
      "y": 177,
      "size": 1,
      "price": "1011000000000000000000",
      "reserved": "",
      "salt": "0x38e9b47af61c89a6633f8e35b59d9eced8912f56c74fe0c3ea3176b9ae4a404d",
      "assetIds": []
    },
    {
      "x": 20,
      "y": 177,
      "size": 1,
      "price": "1011000000000000000000",
      "reserved": "",
      "salt": "0x7dc61e5eb778f7497128335f43d5c87afdf926c12abccb7498535ba303f3fbf5",
      "assetIds": []
    },
    {
      "x": 21,
      "y": 177,
      "size": 1,
      "price": "1011000000000000000000",
      "reserved": "",
      "salt": "0xda9090a93901dad46902b47c25299d9119bdf8ecfaba3ed97e9808a4ed956687",
      "assetIds": []
    },
    {
      "x": 22,
      "y": 177,
      "size": 1,
      "price": "1011000000000000000000",
      "reserved": "",
      "salt": "0xba74ee9a4f5778d69b04ae6a6c7dec22d5e8b66786f565607d8e7cdcf1f1ba83",
      "assetIds": []
    },
    {
      "x": 23,
      "y": 177,
      "size": 1,
      "price": "1011000000000000000000",
      "reserved": "",
      "salt": "0x4c09a68e04beaca226d2771f7a93fa8af4c918d3d89291f873704cd020bbb027",
      "assetIds": []
    },
    {
      "x": 24,
      "y": 177,
      "size": 1,
      "price": "1011000000000000000000",
      "reserved": "",
      "salt": "0xcbcfce5766e950d5a81f7d9547ce3f80c441293b797d9a809d1cab3743ffb517",
      "assetIds": []
    },
    {
      "x": 24,
      "y": 176,
      "size": 1,
      "price": "1011000000000000000000",
      "reserved": "",
      "salt": "0x38dd24d15c717736dc0dcb143a05ede4732411d696d217f67b3dc29d01b7fc05",
      "assetIds": []
    },
    {
      "x": 25,
      "y": 176,
      "size": 1,
      "price": "1011000000000000000000",
      "reserved": "",
      "salt": "0x4ab902fec05fa9d5e9337992a504ba34092e3f14ae26f45c52cebe28353ff8f8",
      "assetIds": []
    },
    {
      "x": 26,
      "y": 176,
      "size": 1,
      "price": "1011000000000000000000",
      "reserved": "",
      "salt": "0xf7026684da2e4c20e0a8bee3acdcf2f1bec9ba266a762738d3ab8c2ab7798bf9",
      "assetIds": []
    },
    {
      "x": 27,
      "y": 176,
      "size": 1,
      "price": "1011000000000000000000",
      "reserved": "",
      "salt": "0x4c46e8be134127a79b92b6fafc79b052749d1f1ada034a2bca65b8db88a81e74",
      "assetIds": []
    },
    {
      "x": 28,
      "y": 176,
      "size": 1,
      "price": "1011000000000000000000",
      "reserved": "",
      "salt": "0x25b87721347b4dfa27a09fafafe4497b8062f3bf5104c5aaf56123584b27d79b",
      "assetIds": []
    },
    {
      "x": 29,
      "y": 176,
      "size": 1,
      "price": "1011000000000000000000",
      "reserved": "",
      "salt": "0xd16f85bf66bc9b65f4239be17e8d38a9d43794d8ba4a0ba33e75da8dc8fcaaee",
      "assetIds": []
    },
    {
      "x": 29,
      "y": 177,
      "size": 1,
      "price": "1011000000000000000000",
      "reserved": "",
      "salt": "0x2a3cd05349109182a3110c7c10678d250932bd453d8486e86f8403c922bf1c22",
      "assetIds": []
    },
    {
      "x": 19,
      "y": 176,
      "size": 1,
      "price": "1011000000000000000000",
      "reserved": "",
      "salt": "0xe4631faa67d093ee77edb9249ac9c80c1c2f0c7e3030bf7573a51b3d08eb9f1b",
      "assetIds": []
    },
    {
      "x": 18,
      "y": 176,
      "size": 1,
      "price": "1011000000000000000000",
      "reserved": "",
      "salt": "0x05dafccb470605dc3ed7120d978092609797b9bf95565c25b3deb854a13aeef7",
      "assetIds": []
    },
    {
      "x": 18,
      "y": 175,
      "size": 1,
      "price": "1011000000000000000000",
      "reserved": "",
      "salt": "0xb9a8871aa3a608d85094d6bed0075c33f1f59fab774484574b06ea0304c7ceee",
      "assetIds": []
    },
    {
      "x": 19,
      "y": 175,
      "size": 1,
      "price": "1011000000000000000000",
      "reserved": "",
      "salt": "0x17d6e6d690cfc566f12a6b4596072fd116059e22df0f74931f63f13b4dc50c2c",
      "assetIds": []
    },
    {
      "x": 20,
      "y": 175,
      "size": 1,
      "price": "1011000000000000000000",
      "reserved": "",
      "salt": "0x284df29e65919e2fbbf3467c63ff2698d990ccacd3aae07100b6b24196f1bfdc",
      "assetIds": []
    },
    {
      "x": 21,
      "y": 175,
      "size": 1,
      "price": "1011000000000000000000",
      "reserved": "",
      "salt": "0xe264ad5efc8dc55372463a30950b701301e9389410218fa12ad3ce4a8b6ea886",
      "assetIds": []
    },
    {
      "x": 26,
      "y": 174,
      "size": 1,
      "price": "1011000000000000000000",
      "reserved": "",
      "salt": "0x008c776758a32d508e1d500b4206c1dd699c1e1c1ab669b0f8594df401169c36",
      "assetIds": []
    },
    {
      "x": 26,
      "y": 175,
      "size": 1,
      "price": "1011000000000000000000",
      "reserved": "",
      "salt": "0xf61cc9bd81ef875b7f27c755b1411f3dacfb658640dea661d22b565e7a638a2a",
      "assetIds": []
    },
    {
      "x": 27,
      "y": 175,
      "size": 1,
      "price": "1011000000000000000000",
      "reserved": "",
      "salt": "0x9e2d8f781de904911fa4c40c69ff49ad14c580152c3cb228b65d549399c86bb7",
      "assetIds": []
    },
    {
      "x": 28,
      "y": 175,
      "size": 1,
      "price": "1011000000000000000000",
      "reserved": "",
      "salt": "0x7403aacc81f5231b010168baca7ab4c8429420e51e24362d4b4c49ff3e7d5d6b",
      "assetIds": []
    },
    {
      "x": 29,
      "y": 175,
      "size": 1,
      "price": "1011000000000000000000",
      "reserved": "",
      "salt": "0x83a0fb6a5245d571dd1e676066fde65ab253bda0284285d421ce0eb8efa1fc94",
      "assetIds": []
    },
    {
      "x": 28,
      "y": 174,
      "size": 1,
      "price": "1011000000000000000000",
      "reserved": "",
      "salt": "0xb8813a88888393755ce9e61cc13f86def660da5b61cdb6e88fd450fbd87cd610",
      "assetIds": []
    },
    {
      "x": 29,
      "y": 174,
      "size": 1,
      "price": "1011000000000000000000",
      "reserved": "",
      "salt": "0x52d62d013a91f7e9d7b35c77de0453a209f29c355df5547744fd3b246ba44330",
      "assetIds": []
    },
    {
      "x": 27,
      "y": 174,
      "size": 1,
      "price": "1011000000000000000000",
      "reserved": "",
      "salt": "0xb98bc9630f47fc3c077c867d3aee5d732359e7a0e505381bc4601fdce408f794",
      "assetIds": []
    },
    {
      "x": 18,
      "y": 173,
      "size": 1,
      "price": "1011000000000000000000",
      "reserved": "",
      "salt": "0xb91e69ee0773abe28f1973a91262324bc2a4bf4b0b55389e80113f141f8694a7",
      "assetIds": []
    },
    {
      "x": 14,
      "y": 173,
      "size": 1,
      "price": "1011000000000000000000",
      "reserved": "",
      "salt": "0x580441ecb207cdfe9beba1fdbd92ee04cb5205ca12b7633ded39fe262b98d7b0",
      "assetIds": []
    },
    {
      "x": 13,
      "y": 173,
      "size": 1,
      "price": "1011000000000000000000",
      "reserved": "",
      "salt": "0xa185ed3f1e461e5de7ffaba803de3272c31c86d1d4d42d3926681a95be90cccb",
      "assetIds": []
    },
    {
      "x": 21,
      "y": 173,
      "size": 1,
      "price": "1011000000000000000000",
      "reserved": "",
      "salt": "0x3e67224609463155160ceac1c14a30ca7a1fc17bcf070f274eddb979fe113b4e",
      "assetIds": []
    },
    {
      "x": 22,
      "y": 175,
      "size": 1,
      "price": "1011000000000000000000",
      "reserved": "",
      "salt": "0x8f10b3cf57f34c4bbda020525b64fb94b9be1fe97c1fbe7944264bb8fc874c87",
      "assetIds": []
    },
    {
      "x": 23,
      "y": 175,
      "size": 1,
      "price": "1011000000000000000000",
      "reserved": "",
      "salt": "0x040f87ea7d75d5f49f5d9830b6e9cbc7409dd0a0d5025dffaf45c452ca6a7c4c",
      "assetIds": []
    },
    {
      "x": 24,
      "y": 175,
      "size": 1,
      "price": "1011000000000000000000",
      "reserved": "",
      "salt": "0xbf7bd4cd764064fa8e357e740e1802ec967e9ce9c46dac1b28fac7b144771ee4",
      "assetIds": []
    },
    {
      "x": 25,
      "y": 175,
      "size": 1,
      "price": "1011000000000000000000",
      "reserved": "",
      "salt": "0x93159c1da229dd131f03fe84e5352dc68bf33ab6275016d8e0e76f51db29152b",
      "assetIds": []
    },
    {
      "x": 22,
      "y": 176,
      "size": 1,
      "price": "1011000000000000000000",
      "reserved": "",
      "salt": "0xe24145808364410ee009c05d41706c36d887ba31edfd0b2277708fd878bcabb3",
      "assetIds": []
    },
    {
      "x": 21,
      "y": 176,
      "size": 1,
      "price": "1011000000000000000000",
      "reserved": "",
      "salt": "0x055955a05d1e1b90572f7e4f4c3737e7c17f447459ea3f66a03b38e8768573e4",
      "assetIds": []
    },
    {
      "x": 20,
      "y": 176,
      "size": 1,
      "price": "1011000000000000000000",
      "reserved": "",
      "salt": "0x0b259e08217a073795929f3603a503261d4e92e618ef6d645fba0226a6fbfd1b",
      "assetIds": []
    },
    {
      "x": 23,
      "y": 176,
      "size": 1,
      "price": "1011000000000000000000",
      "reserved": "",
      "salt": "0x5b12619ca43117417d6471e485513dc506f3abdc991c2efe09cf2b07058557dd",
      "assetIds": []
    },
    {
      "x": 27,
      "y": 177,
      "size": 1,
      "price": "1011000000000000000000",
      "reserved": "",
      "salt": "0xb32f2a322a85908af92e8c215aebb6e2e671b41e94f3c22bae0cf71f3c8fb3e1",
      "assetIds": []
    },
    {
      "x": 26,
      "y": 177,
      "size": 1,
      "price": "1011000000000000000000",
      "reserved": "",
      "salt": "0x6d5d0bbd5eb6dc3a355070ba535d74a702070ea89207f9c73026c6bb8be74ce8",
      "assetIds": []
    },
    {
      "x": 25,
      "y": 177,
      "size": 1,
      "price": "1011000000000000000000",
      "reserved": "",
      "salt": "0x5ac1b4c8c847f863a8c28f3f2af4940cc0c534be0417e80c3e8de834dc290ff1",
      "assetIds": []
    },
    {
      "x": 28,
      "y": 177,
      "size": 1,
      "price": "1011000000000000000000",
      "reserved": "",
      "salt": "0xeeb6dac8c2dac4dda9cc4b300f0027bd477d2901dc0f99e5dc1ed6f9ef86869c",
      "assetIds": []
    },
    {
      "x": 23,
      "y": 173,
      "size": 1,
      "price": "1011000000000000000000",
      "reserved": "",
      "salt": "0x844ad10ec3ee0dad3a6f97727ad6f3ab57d121178181284f73e7b35c28e2a5bb",
      "assetIds": []
    },
    {
      "x": 22,
      "y": 173,
      "size": 1,
      "price": "1011000000000000000000",
      "reserved": "",
      "salt": "0xee107499c58165f3861a1e4e3b00b73a4266e85f5557f8d0957ddde12d38488b",
      "assetIds": []
    },
    {
      "x": 20,
      "y": 173,
      "size": 1,
      "price": "1011000000000000000000",
      "reserved": "",
      "salt": "0xbb119be51587b5c51e56c4498b79f4bcc8e7ad48ce5da24d7f77bd164ef25e42",
      "assetIds": []
    },
    {
      "x": 19,
      "y": 173,
      "size": 1,
      "price": "1011000000000000000000",
      "reserved": "",
      "salt": "0x8a3af803b243ab771ead1b475fe3febb2a135f2f69ff42138993bbe9cc079493",
      "assetIds": []
    },
    {
      "x": 14,
      "y": 171,
      "size": 1,
      "price": "1011000000000000000000",
      "reserved": "",
      "salt": "0x00799e003659bf8dda1dfd3da71204482a5b5e357f83cb45fa470b91f78b2e4a",
      "assetIds": []
    },
    {
      "x": 14,
      "y": 170,
      "size": 1,
      "price": "1011000000000000000000",
      "reserved": "",
      "salt": "0x42c0cd62f7c620afb8998cb90c8633382577a680316b1d87e74aaeb5e262e47d",
      "assetIds": []
    },
    {
      "x": 15,
      "y": 170,
      "size": 1,
      "price": "1011000000000000000000",
      "reserved": "",
      "salt": "0xb1362e0d445dea8d1d13a16c4472456d928e50e1d516b439d39cd4bccf3478f6",
      "assetIds": []
    },
    {
      "x": 16,
      "y": 170,
      "size": 1,
      "price": "1011000000000000000000",
      "reserved": "",
      "salt": "0x72ae20e08386aec03840134c3ec833ba692693112e775e8bc7db8c3b36357b1a",
      "assetIds": []
    },
    {
      "x": 17,
      "y": 169,
      "size": 1,
      "price": "1011000000000000000000",
      "reserved": "",
      "salt": "0x3ac97ea94b41cf27891564a56a7c0b0d78c2615dd0c4f6af4844af1d5232219f",
      "assetIds": []
    },
    {
      "x": 18,
      "y": 169,
      "size": 1,
      "price": "1011000000000000000000",
      "reserved": "",
      "salt": "0xb5d8728042a958a58e4894abdf308edced3fbe2cc7b32aa296533efd55fa35a2",
      "assetIds": []
    },
    {
      "x": 19,
      "y": 169,
      "size": 1,
      "price": "1011000000000000000000",
      "reserved": "",
      "salt": "0x8731bd929f54a01e0eda8623533aa4dc427567565b4e5a884491aa8abbf1c993",
      "assetIds": []
    },
    {
      "x": 20,
      "y": 169,
      "size": 1,
      "price": "1011000000000000000000",
      "reserved": "",
      "salt": "0x3fffaf7a0014e44afbf8c56534efeeaa2ce98445bbcfbcea23d33060e5742103",
      "assetIds": []
    },
    {
      "x": 21,
      "y": 169,
      "size": 1,
      "price": "1011000000000000000000",
      "reserved": "",
      "salt": "0xdcb5a0ec01008a9dd4fa9d02f3a53d5dcf47b0291c2b4810f3540417b3bb6e45",
      "assetIds": []
    },
    {
      "x": 22,
      "y": 169,
      "size": 1,
      "price": "1011000000000000000000",
      "reserved": "",
      "salt": "0x34ee2742c8b83441e0b532d230b9e68cd889c500340c5d16bda521ab2da0b674",
      "assetIds": []
    },
    {
      "x": 22,
      "y": 170,
      "size": 1,
      "price": "1011000000000000000000",
      "reserved": "",
      "salt": "0x8bc1c3ea649339316ad1e154dd0d9cbeadad354f8ec117441fd82015224a7703",
      "assetIds": []
    },
    {
      "x": 23,
      "y": 171,
      "size": 1,
      "price": "1011000000000000000000",
      "reserved": "",
      "salt": "0x01499fe9895536a2b3e2487d584b57cd85abe23936bf936f2ef426592ea325b6",
      "assetIds": []
    },
    {
      "x": 15,
      "y": 171,
      "size": 1,
      "price": "1011000000000000000000",
      "reserved": "",
      "salt": "0x9921313a8d52f6c014103451f72127f1649488e75c979c0350c6fb1a8339c625",
      "assetIds": []
    },
    {
      "x": 16,
      "y": 171,
      "size": 1,
      "price": "1011000000000000000000",
      "reserved": "",
      "salt": "0xc92f7e3425cca98fec02760aa124ac2e3a4329385e3fb7b425492fe23729e72d",
      "assetIds": []
    },
    {
      "x": 13,
      "y": 170,
      "size": 1,
      "price": "1011000000000000000000",
      "reserved": "",
      "salt": "0x634a0bcf11cf183dc532e0371afb1f59a033c02bb116d0455832fa0cb58ad8ff",
      "assetIds": []
    },
    {
      "x": 13,
      "y": 169,
      "size": 1,
      "price": "1011000000000000000000",
      "reserved": "",
      "salt": "0x90cd190fb0749c80cbe1c5e687e2843a235280ba4727b1d8499071802eab7702",
      "assetIds": []
    },
    {
      "x": 14,
      "y": 169,
      "size": 1,
      "price": "1011000000000000000000",
      "reserved": "",
      "salt": "0x6accaed331136ec15592c4e04f3db35ab9d42b4b99e705d7bf634a4529a79dac",
      "assetIds": []
    },
    {
      "x": 14,
      "y": 168,
      "size": 1,
      "price": "1011000000000000000000",
      "reserved": "",
      "salt": "0x8e643c002ff72fcb1a5a93510cfb5aca78f41ab5f93d41b188fbd996c1b4929b",
      "assetIds": []
    },
    {
      "x": 15,
      "y": 168,
      "size": 1,
      "price": "1011000000000000000000",
      "reserved": "",
      "salt": "0xb7a640eaf6b80042dd94726026b1d9486c2da781b2e08a7d7e10c6896c10922b",
      "assetIds": []
    },
    {
      "x": 16,
      "y": 168,
      "size": 1,
      "price": "1011000000000000000000",
      "reserved": "",
      "salt": "0x3d9edaabf0d903bf1164afc53aa604851378c345cd9c035ac7c02bc306450813",
      "assetIds": []
    },
    {
      "x": 20,
      "y": 168,
      "size": 1,
      "price": "1011000000000000000000",
      "reserved": "",
      "salt": "0xe413dad345022fccc8384b8dabe5516bc18b7e9d035226a124e1e7266a25f524",
      "assetIds": []
    },
    {
      "x": 19,
      "y": 168,
      "size": 1,
      "price": "1011000000000000000000",
      "reserved": "",
      "salt": "0x231f00da95012b1d53bdbd55e5e4c1b8e719cee5fa41891c888f7faa73c5f71f",
      "assetIds": []
    },
    {
      "x": 18,
      "y": 168,
      "size": 1,
      "price": "1011000000000000000000",
      "reserved": "",
      "salt": "0x8512dce76c5b3c1f7faca143d1253d6f7971705a805b5733e1fd24d1a87a1de3",
      "assetIds": []
    },
    {
      "x": 17,
      "y": 168,
      "size": 1,
      "price": "1011000000000000000000",
      "reserved": "",
      "salt": "0xdcec9f60fca540557e81a9edb8ec87cf34c4e79df4521c76cf4821ab60213ca4",
      "assetIds": []
    },
    {
      "x": 15,
      "y": 169,
      "size": 1,
      "price": "1011000000000000000000",
      "reserved": "",
      "salt": "0x38f8b3ec021c961304ae5a4dd532ace9c4268f7f364e71f7cc7f0b4363e3c8a3",
      "assetIds": []
    },
    {
      "x": 21,
      "y": 168,
      "size": 1,
      "price": "1011000000000000000000",
      "reserved": "",
      "salt": "0x2de4f5367245c09c49e86de0d80db02bea06439b5f6463c6ba05d72e84c59cd4",
      "assetIds": []
    },
    {
      "x": 22,
      "y": 168,
      "size": 1,
      "price": "1011000000000000000000",
      "reserved": "",
      "salt": "0xe223f23e9349a833ed2b055dee35ea35189fe6c78cd374d4d111d8a004c96ec9",
      "assetIds": []
    },
    {
      "x": 23,
      "y": 168,
      "size": 1,
      "price": "1011000000000000000000",
      "reserved": "",
      "salt": "0xbc0fd8c7f9a21d346cde6efadd3f8547bf7ae0ee2a083bdc6b4760b0e229bc9a",
      "assetIds": []
    },
    {
      "x": 23,
      "y": 169,
      "size": 1,
      "price": "1011000000000000000000",
      "reserved": "",
      "salt": "0xb0afbe3178ebb318bce0aec1eacf1bea47f645d5d7a07c277f816c9cc0a7a766",
      "assetIds": []
    },
    {
      "x": 23,
      "y": 170,
      "size": 1,
      "price": "1011000000000000000000",
      "reserved": "",
      "salt": "0x3ab95467de1d5a3da2f47b97e3c7b1eae0c39ab1d9ba87026b8936356bcda509",
      "assetIds": []
    },
    {
      "x": 21,
      "y": 171,
      "size": 1,
      "price": "1011000000000000000000",
      "reserved": "",
      "salt": "0xff685e4d28ee4d1fb99f536211ab4e8d700052d517b1afaf4b09ceadbf4f5d6e",
      "assetIds": []
    },
    {
      "x": 19,
      "y": 171,
      "size": 1,
      "price": "1011000000000000000000",
      "reserved": "",
      "salt": "0x8d385cc4b01ed54edaf159ec6c0f356483a1dc5a0fcbd663215fd4b103e75f8e",
      "assetIds": []
    },
    {
      "x": 19,
      "y": 170,
      "size": 1,
      "price": "1011000000000000000000",
      "reserved": "",
      "salt": "0x35410ab55f252e2d229123f2d6f034b8acd97a02b414ce2486a4a345fb90aa8b",
      "assetIds": []
    },
    {
      "x": 18,
      "y": 170,
      "size": 1,
      "price": "1011000000000000000000",
      "reserved": "",
      "salt": "0x2d69f7eef70578562b8513a5ecf78cda6874f3fc4bff9c747b637096bbfec317",
      "assetIds": []
    },
    {
      "x": 16,
      "y": 169,
      "size": 1,
      "price": "1011000000000000000000",
      "reserved": "",
      "salt": "0x3dbcbe5d1efa135ae29d0ef1a2e791b579447998fa29755b073ec8e0870577e2",
      "assetIds": []
    },
    {
      "x": 13,
      "y": 168,
      "size": 1,
      "price": "1011000000000000000000",
      "reserved": "",
      "salt": "0x755868a55b8c3f1779627c7da16e6804a579c07032c6bb092806c0fda241004f",
      "assetIds": []
    },
    {
      "x": 17,
      "y": 170,
      "size": 1,
      "price": "1011000000000000000000",
      "reserved": "",
      "salt": "0x67d9ecd249bf67ebff67a2019b3d6878cff7b3a3fde4339c1be5ba455162e4f9",
      "assetIds": []
    },
    {
      "x": 17,
      "y": 171,
      "size": 1,
      "price": "1011000000000000000000",
      "reserved": "",
      "salt": "0xf0cb0a0ee765be8a3ff115124778b579ea3decd37e65b97e1881230b1501a381",
      "assetIds": []
    },
    {
      "x": 18,
      "y": 171,
      "size": 1,
      "price": "1011000000000000000000",
      "reserved": "",
      "salt": "0x06536dc8612697c503df91351303d036a8012b0b8adbc88a26d23563e0cf0fad",
      "assetIds": []
    },
    {
      "x": 20,
      "y": 171,
      "size": 1,
      "price": "1011000000000000000000",
      "reserved": "",
      "salt": "0xf0f3c4cdc2601fed1b0d6f844d4bf97a05ba5327debb55418cead2e112ae50a4",
      "assetIds": []
    },
    {
      "x": 20,
      "y": 170,
      "size": 1,
      "price": "1011000000000000000000",
      "reserved": "",
      "salt": "0xcb1212f2e7253aab00994d473602c2e040468c53e7d2b374f12bad8c124eed54",
      "assetIds": []
    },
    {
      "x": 21,
      "y": 170,
      "size": 1,
      "price": "1011000000000000000000",
      "reserved": "",
      "salt": "0x766b1ac180249a7dda442a4131543d2c0f808dfde4c94413dc8ba8234411d956",
      "assetIds": []
    },
    {
      "x": 22,
      "y": 171,
      "size": 1,
      "price": "1011000000000000000000",
      "reserved": "",
      "salt": "0xe8dbd214b3ccbc4835889ec7857ed0ae43cbb71b5139367c165388400084c4eb",
      "assetIds": []
    },
    {
      "x": 24,
      "y": 155,
      "size": 1,
      "price": "1011000000000000000000",
      "reserved": "",
      "salt": "0x5de3c7f583083df6462ab153cc58fb91cbc2ab1a24ee37e102ab8fe427bf65e4",
      "assetIds": []
    },
    {
      "x": 25,
      "y": 155,
      "size": 1,
      "price": "1011000000000000000000",
      "reserved": "",
      "salt": "0xb0a00955b834d9a016378dd2ffbf96fe09a71c82e472cbdc3aa3504477654bdc",
      "assetIds": []
    },
    {
      "x": 26,
      "y": 155,
      "size": 1,
      "price": "1011000000000000000000",
      "reserved": "",
      "salt": "0x001276cc7bbbdd3c0c50dcd30411e9c5ce2babb99dc4acf04dcebf0af6b5bc86",
      "assetIds": []
    },
    {
      "x": 27,
      "y": 155,
      "size": 1,
      "price": "1011000000000000000000",
      "reserved": "",
      "salt": "0x4769c1c73e975f462a99ab252864bade423eccb6de3377f5645a65ec3001be10",
      "assetIds": []
    },
    {
      "x": 28,
      "y": 155,
      "size": 1,
      "price": "1011000000000000000000",
      "reserved": "",
      "salt": "0x20c702c46f29e82d44a0028611260f55a8f9d59f2c1e3c9aacf63d61cc7cac8a",
      "assetIds": []
    },
    {
      "x": 29,
      "y": 155,
      "size": 1,
      "price": "1011000000000000000000",
      "reserved": "",
      "salt": "0x66f11f71430ef8fcd3fbbcfcd832f238474fc1a91cb5d6e7efef41dfc5b8bfd2",
      "assetIds": []
    },
    {
      "x": 29,
      "y": 154,
      "size": 1,
      "price": "1011000000000000000000",
      "reserved": "",
      "salt": "0x49804502f54b69cf9fb0ea7fd550c0d987974996c242e29e704f7438521f9060",
      "assetIds": []
    },
    {
      "x": 29,
      "y": 153,
      "size": 1,
      "price": "1011000000000000000000",
      "reserved": "",
      "salt": "0xaf8f11626a40373ddc9810721bfd3248a8344ca214638041fbf72980e91f507b",
      "assetIds": []
    },
    {
      "x": 29,
      "y": 152,
      "size": 1,
      "price": "1011000000000000000000",
      "reserved": "",
      "salt": "0xe114b5df11730fa03e2bfff8e4fe838b4fd1313c0c7a79983594cf16edf72618",
      "assetIds": []
    },
    {
      "x": 29,
      "y": 151,
      "size": 1,
      "price": "1011000000000000000000",
      "reserved": "",
      "salt": "0xb65d1e5a95c036085bd2773d0a37214c29201203bb715c94814a683fd196f1ec",
      "assetIds": []
    },
    {
      "x": 28,
      "y": 151,
      "size": 1,
      "price": "1011000000000000000000",
      "reserved": "",
      "salt": "0xbe566a0a90c623d11d6a9c729632d742c2be8d2169a57bff0690bbee8d3bd8d8",
      "assetIds": []
    },
    {
      "x": 28,
      "y": 150,
      "size": 1,
      "price": "1011000000000000000000",
      "reserved": "",
      "salt": "0x999ad0e208bf2a308bfe6e26153118457ce0e89bc4fe3e1cedecafcdc2586137",
      "assetIds": []
    },
    {
      "x": 28,
      "y": 149,
      "size": 1,
      "price": "1011000000000000000000",
      "reserved": "",
      "salt": "0x0f8dfe27533b001acb8086296473781d1bc1dc1bf2879002464c76b7c9eda720",
      "assetIds": []
    },
    {
      "x": 29,
      "y": 149,
      "size": 1,
      "price": "1011000000000000000000",
      "reserved": "",
      "salt": "0xc34cde88ac44ff76875cbe76f707dcfa1b3d5a3c725a29254effd6bd856dccb5",
      "assetIds": []
    },
    {
      "x": 29,
      "y": 148,
      "size": 1,
      "price": "1011000000000000000000",
      "reserved": "",
      "salt": "0xeac647af60851879f839cde693acfc79b8d249d9178865c1fbcd25f48c737a84",
      "assetIds": []
    },
    {
      "x": 29,
      "y": 147,
      "size": 1,
      "price": "1011000000000000000000",
      "reserved": "",
      "salt": "0x3cebe13aff4d0a719b02f0e9468bf03b26ceb54a67437b451c72347c69759729",
      "assetIds": []
    },
    {
      "x": 29,
      "y": 146,
      "size": 1,
      "price": "1011000000000000000000",
      "reserved": "",
      "salt": "0x9fd5571cee18ff1252f134174eddd2fba9e7e84132f25011ab26321d0ee50ed6",
      "assetIds": []
    },
    {
      "x": 29,
      "y": 145,
      "size": 1,
      "price": "1011000000000000000000",
      "reserved": "",
      "salt": "0x0bc73f4fcbdc81ca13adfb0f08936b830b97234ed5dd9d86538276d8ce72e7f7",
      "assetIds": []
    },
    {
      "x": 28,
      "y": 145,
      "size": 1,
      "price": "1011000000000000000000",
      "reserved": "",
      "salt": "0x488161bcf8525cfb7499df92931c0a3e311640a109e445886212d14ed76e858a",
      "assetIds": []
    },
    {
      "x": 27,
      "y": 145,
      "size": 1,
      "price": "1011000000000000000000",
      "reserved": "",
      "salt": "0xf3bf050d01fc3847aea05bf488d50b3b2a84f7fbab09ee19f4a7e31e27239335",
      "assetIds": []
    },
    {
      "x": 26,
      "y": 145,
      "size": 1,
      "price": "1011000000000000000000",
      "reserved": "",
      "salt": "0xf0336c37d92eee47a63e8b40723a4b5a1874897bf3aeec8d2524e127a9334a89",
      "assetIds": []
    },
    {
      "x": 25,
      "y": 145,
      "size": 1,
      "price": "1011000000000000000000",
      "reserved": "",
      "salt": "0xf8f30c12666af1fe6a3fbbe77e29c5828f1928153e7c7b5ea4fca04521058dfa",
      "assetIds": []
    },
    {
      "x": 24,
      "y": 145,
      "size": 1,
      "price": "1011000000000000000000",
      "reserved": "",
      "salt": "0xd5d1077e545e5e4afe72b4dcc0f1229168c0f4805c18141126164b3d063f1631",
      "assetIds": []
    },
    {
      "x": 25,
      "y": 144,
      "size": 1,
      "price": "1011000000000000000000",
      "reserved": "",
      "salt": "0xb043a8baae3d1ea0b31852aa61843d5e00ad924b6d75211ae7fac12d441ddf04",
      "assetIds": []
    },
    {
      "x": 26,
      "y": 144,
      "size": 1,
      "price": "1011000000000000000000",
      "reserved": "",
      "salt": "0x11ad4b6bedf9cf9c036946700923ea15be2894d81045038489bf14cbc6f69318",
      "assetIds": []
    },
    {
      "x": 27,
      "y": 144,
      "size": 1,
      "price": "1011000000000000000000",
      "reserved": "",
      "salt": "0xfbae994e3f6a3aa84e3b3fca5ef61d04a7c01d9db5d89e98aa862dda7c739680",
      "assetIds": []
    },
    {
      "x": 28,
      "y": 144,
      "size": 1,
      "price": "1011000000000000000000",
      "reserved": "",
      "salt": "0xe3bdd0c282faef7104d93955a8bb0fbc15332a207c339bb4f51a8b21504bde7f",
      "assetIds": []
    },
    {
      "x": 29,
      "y": 144,
      "size": 1,
      "price": "1011000000000000000000",
      "reserved": "",
      "salt": "0xec91831de42b578b7f637f4b7c13d145c37b23a7a6bfde07598142add920065f",
      "assetIds": []
    },
    {
      "x": 29,
      "y": 150,
      "size": 1,
      "price": "1011000000000000000000",
      "reserved": "",
      "salt": "0xfaff4d36e9d2a98b37e9cc0f25685a787bf53755acebe2782073a5bd0478563c",
      "assetIds": []
    },
    {
      "x": 27,
      "y": 149,
      "size": 1,
      "price": "1011000000000000000000",
      "reserved": "",
      "salt": "0x9328c9e5322f2a5befa0eebe4f857a27279c4c2f6196b57eaf863bc6106f597a",
      "assetIds": []
    },
    {
      "x": 26,
      "y": 149,
      "size": 1,
      "price": "1011000000000000000000",
      "reserved": "",
      "salt": "0x3d042f19182c5f44449c5f73e2c86cce43f5fca2a1ab7ab86265ebcb9cd6c008",
      "assetIds": []
    },
    {
      "x": 25,
      "y": 149,
      "size": 1,
      "price": "1011000000000000000000",
      "reserved": "",
      "salt": "0x2fa452d7b9a94ed137bb2e3e7fba8578d94b9135f7f361fc79322fe1f4cea04f",
      "assetIds": []
    },
    {
      "x": 24,
      "y": 149,
      "size": 1,
      "price": "1011000000000000000000",
      "reserved": "",
      "salt": "0x162c0edf6d7481a13bf57d1e2af2a7e3d4e98243e0a3f24859db370aa4e5eb67",
      "assetIds": []
    },
    {
      "x": 24,
      "y": 148,
      "size": 1,
      "price": "1011000000000000000000",
      "reserved": "",
      "salt": "0x193b097343664c314319d061a4de562f57686365135e7137c98c9ae8e7dba1a7",
      "assetIds": []
    },
    {
      "x": 24,
      "y": 147,
      "size": 1,
      "price": "1011000000000000000000",
      "reserved": "",
      "salt": "0xd8852a8f7ddbca92e11da1e54117b2587209e5215a7d482bfdb87cd2d87b81c5",
      "assetIds": []
    },
    {
      "x": 24,
      "y": 146,
      "size": 1,
      "price": "1011000000000000000000",
      "reserved": "",
      "salt": "0xe9e1d9fd241c13320ebc30bdd9f854883f442c7c6042f8c6825c61f466538d23",
      "assetIds": []
    },
    {
      "x": 24,
      "y": 144,
      "size": 1,
      "price": "1011000000000000000000",
      "reserved": "",
      "salt": "0x4f552c3a31511322be98bc080a47442ea2810454b8d428fcacfa1cff2e8f6f02",
      "assetIds": []
    },
    {
      "x": 25,
      "y": 146,
      "size": 1,
      "price": "1011000000000000000000",
      "reserved": "",
      "salt": "0x264af59f02c793b7d25b5780ac311f96eb748b7965253aa18771436a0839c5fe",
      "assetIds": []
    },
    {
      "x": 26,
      "y": 146,
      "size": 1,
      "price": "1011000000000000000000",
      "reserved": "",
      "salt": "0xda1412ba07d7c8c19b6b7afbf830850a38dd38f5565dbf86142122898f0ff57a",
      "assetIds": []
    },
    {
      "x": 27,
      "y": 146,
      "size": 1,
      "price": "1011000000000000000000",
      "reserved": "",
      "salt": "0xf331faadc31f87c7d8677c60552fe4ad95ec76428aee6bb9a003cab209e69ad4",
      "assetIds": []
    },
    {
      "x": 28,
      "y": 146,
      "size": 1,
      "price": "1011000000000000000000",
      "reserved": "",
      "salt": "0xbd5ef498040faa517036f7f5667cf25cc8333dbe58115965bc99cf4944bef446",
      "assetIds": []
    },
    {
      "x": 28,
      "y": 147,
      "size": 1,
      "price": "1011000000000000000000",
      "reserved": "",
      "salt": "0xf0cb7f739ebf318c1d2fc54eac74d5a9f21c01c58a8daef09a5a5b0a806f58f4",
      "assetIds": []
    },
    {
      "x": 27,
      "y": 147,
      "size": 1,
      "price": "1011000000000000000000",
      "reserved": "",
      "salt": "0xb163738d5cf58514f3ce8c39b1c3590d50dfed9286857fff5a7ed74eda3f51a9",
      "assetIds": []
    },
    {
      "x": 26,
      "y": 147,
      "size": 1,
      "price": "1011000000000000000000",
      "reserved": "",
      "salt": "0x902a70e1b75b49ab89b8e94fece477ec0a9fdab51fdab173be600140068a6509",
      "assetIds": []
    },
    {
      "x": 25,
      "y": 147,
      "size": 1,
      "price": "1011000000000000000000",
      "reserved": "",
      "salt": "0x4f89bfa48613fa28f7161be38edc7a0ea97874f4b8c03978bb1aeaf8f648deca",
      "assetIds": []
    },
    {
      "x": 25,
      "y": 148,
      "size": 1,
      "price": "1011000000000000000000",
      "reserved": "",
      "salt": "0xa21f6510997bb92bfb718d999d4df5708c68e9a933dbad13c0acc7fdd7fcbbeb",
      "assetIds": []
    },
    {
      "x": 26,
      "y": 148,
      "size": 1,
      "price": "1011000000000000000000",
      "reserved": "",
      "salt": "0xb342f0a1d17c94a57cc97964dd0210addcdd26b46668f107dfd1fd0a93ce3c63",
      "assetIds": []
    },
    {
      "x": 27,
      "y": 148,
      "size": 1,
      "price": "1011000000000000000000",
      "reserved": "",
      "salt": "0xe6b3f97b8c25abbf07c44f2506f50e21b70e19a2674fae855fa86c95fbb03240",
      "assetIds": []
    },
    {
      "x": 28,
      "y": 148,
      "size": 1,
      "price": "1011000000000000000000",
      "reserved": "",
      "salt": "0x34065bd21c510131a1bf74adea15444849d3ecc6744656f5208c66e0011c887d",
      "assetIds": []
    },
    {
      "x": 28,
      "y": 152,
      "size": 1,
      "price": "1011000000000000000000",
      "reserved": "",
      "salt": "0xa35c049462c1cccd6107f2c2e839b63641101f9fd2a32c427892a8d1ea7c6382",
      "assetIds": []
    },
    {
      "x": 28,
      "y": 153,
      "size": 1,
      "price": "1011000000000000000000",
      "reserved": "",
      "salt": "0xf3186ff62e4c0e09ce48f9b1b092131521beb93cedf8fa7284c45e6ea45d1e94",
      "assetIds": []
    },
    {
      "x": 28,
      "y": 154,
      "size": 1,
      "price": "1011000000000000000000",
      "reserved": "",
      "salt": "0xa27b826c5d6c1a3c1221213ceb0e7650fcda9d9b22cb157c62cc4058cb7b6a59",
      "assetIds": []
    },
    {
      "x": 27,
      "y": 154,
      "size": 1,
      "price": "1011000000000000000000",
      "reserved": "",
      "salt": "0x095fbecb869a79b38eada70c2cb7f86ff56d04c276304194fbe07bcef88bfb16",
      "assetIds": []
    },
    {
      "x": 26,
      "y": 154,
      "size": 1,
      "price": "1011000000000000000000",
      "reserved": "",
      "salt": "0xaea2b30092b7a86d29cd120954f9e644c01c5189f5c288e9eab277b57635ce9d",
      "assetIds": []
    },
    {
      "x": 25,
      "y": 154,
      "size": 1,
      "price": "1011000000000000000000",
      "reserved": "",
      "salt": "0xf279e88c9b702d4411a7ebd82a41d4a5fea1267592889eb4d893d6d2ae5b13b6",
      "assetIds": []
    },
    {
      "x": 24,
      "y": 154,
      "size": 1,
      "price": "1011000000000000000000",
      "reserved": "",
      "salt": "0xbc134c94b625e58b818a14a6dd66c68a432bbc802f0ef8a27afa19f936111075",
      "assetIds": []
    },
    {
      "x": 24,
      "y": 153,
      "size": 1,
      "price": "1011000000000000000000",
      "reserved": "",
      "salt": "0x5d41f3ced1a5e1551fc571163f393b09d7935393c5bde28926664073c917b248",
      "assetIds": []
    },
    {
      "x": 25,
      "y": 153,
      "size": 1,
      "price": "1011000000000000000000",
      "reserved": "",
      "salt": "0x9a566f96f4fb8158244f9be61e3bbeea776aadb427e0d720032ecd563c5234ca",
      "assetIds": []
    },
    {
      "x": 26,
      "y": 153,
      "size": 1,
      "price": "1011000000000000000000",
      "reserved": "",
      "salt": "0xbb488682fca1662fdbb0d6bafcf2871bec59c9b9b1d5b0f4d82fb47463f31c0c",
      "assetIds": []
    },
    {
      "x": 27,
      "y": 153,
      "size": 1,
      "price": "1011000000000000000000",
      "reserved": "",
      "salt": "0xd0fc748d996197dc7bc3d7d1717019318193d205f834c8e8e79a2c5a0c162585",
      "assetIds": []
    },
    {
      "x": 27,
      "y": 152,
      "size": 1,
      "price": "1011000000000000000000",
      "reserved": "",
      "salt": "0xe0531906d15ad71f2e5dff4c055e6348816c79807150b25a9c89482fc05694ec",
      "assetIds": []
    },
    {
      "x": 27,
      "y": 151,
      "size": 1,
      "price": "1011000000000000000000",
      "reserved": "",
      "salt": "0x822787eb0faa0791fa2b5042be57f72745ce5dfc957974fc395d2657bc4398f6",
      "assetIds": []
    },
    {
      "x": 27,
      "y": 150,
      "size": 1,
      "price": "1011000000000000000000",
      "reserved": "",
      "salt": "0xdcbde11b82ae304b52ad1ba58c7cea97dc693afe5c3432edaf18f3650db8664a",
      "assetIds": []
    },
    {
      "x": 27,
      "y": 118,
      "size": 1,
      "price": "1011000000000000000000",
      "reserved": "",
      "salt": "0xcc9f2f9c5dad2154af5656cffddb6d87673f88110d2bfd5baa3c5d0760a0b4ee",
      "assetIds": []
    },
    {
      "x": 0,
      "y": 143,
      "size": 1,
      "price": "1011000000000000000000",
      "reserved": "",
      "salt": "0xdac0ad7fd81348a8f4421f9a5bc8261425fa9dc83c0b8d9d2b8b20096cbd038c",
      "assetIds": []
    },
    {
      "x": 0,
      "y": 142,
      "size": 1,
      "price": "1011000000000000000000",
      "reserved": "",
      "salt": "0x71ab95929064fc36079ff1a1da6069fa7f2ad431cf65649fb06710f39879c7d6",
      "assetIds": []
    },
    {
      "x": 0,
      "y": 141,
      "size": 1,
      "price": "1011000000000000000000",
      "reserved": "",
      "salt": "0xb731d3e502d56dea09a98ecc14329489e307527cabb4540e2bc4df68acd5eaae",
      "assetIds": []
    },
    {
      "x": 0,
      "y": 140,
      "size": 1,
      "price": "1011000000000000000000",
      "reserved": "",
      "salt": "0xb195c558124a59a969e28ee16c6681ad654c4ab0a43910937b787dbe8f9aa263",
      "assetIds": []
    },
    {
      "x": 0,
      "y": 139,
      "size": 1,
      "price": "1011000000000000000000",
      "reserved": "",
      "salt": "0x79cec270fdd95fdb95c00547c3a9e45b4a872bb85021ac466a1fbd85707385f5",
      "assetIds": []
    },
    {
      "x": 0,
      "y": 138,
      "size": 1,
      "price": "1011000000000000000000",
      "reserved": "",
      "salt": "0xf67c78a200b13c4a710ecc37ecd64c89ccda200faa1d387f1c07244232060044",
      "assetIds": []
    },
    {
      "x": 3,
      "y": 138,
      "size": 1,
      "price": "1011000000000000000000",
      "reserved": "",
      "salt": "0x91e98048b41af68978a8ff902d0a60726f2a6199c384746f76558d21bf93f5f0",
      "assetIds": []
    },
    {
      "x": 4,
      "y": 138,
      "size": 1,
      "price": "1011000000000000000000",
      "reserved": "",
      "salt": "0x43babdc76d133db3ae02cc09d4c3440fa82cbfbf0f5fb424e11331e97d348440",
      "assetIds": []
    },
    {
      "x": 4,
      "y": 139,
      "size": 1,
      "price": "1011000000000000000000",
      "reserved": "",
      "salt": "0x1315c2a5dd01b69ae2a1936449791c5091c0791d27a7843995c9e602c2d1c8fb",
      "assetIds": []
    },
    {
      "x": 5,
      "y": 139,
      "size": 1,
      "price": "1011000000000000000000",
      "reserved": "",
      "salt": "0xaa655592cf4aee590355a3f6e71d8d6ff6d76cc15d15b90241a31694c1df5026",
      "assetIds": []
    },
    {
      "x": 5,
      "y": 140,
      "size": 1,
      "price": "1011000000000000000000",
      "reserved": "",
      "salt": "0xdc4c3fda432d10f65e3018a10b3e9f3a3b2449dd5d6bff571796ce2e3567deb6",
      "assetIds": []
    },
    {
      "x": 5,
      "y": 141,
      "size": 1,
      "price": "1011000000000000000000",
      "reserved": "",
      "salt": "0xdfe4a9050c456a779e809189efccf92cfde09751df81385347c5491900d54641",
      "assetIds": []
    },
    {
      "x": 5,
      "y": 142,
      "size": 1,
      "price": "1011000000000000000000",
      "reserved": "",
      "salt": "0x829c94a9e1ed667f73b46fa4c66357b0705d84fe79af5df4cd0e1c5e29f52fd0",
      "assetIds": []
    },
    {
      "x": 5,
      "y": 143,
      "size": 1,
      "price": "1011000000000000000000",
      "reserved": "",
      "salt": "0xf24eda8d16033d62fa5c85d8e2195229fa49b68c55db2e787f39ef6705195525",
      "assetIds": []
    },
    {
      "x": 4,
      "y": 143,
      "size": 1,
      "price": "1011000000000000000000",
      "reserved": "",
      "salt": "0xb649b673c92802d5f94bd88d2184c2ea8db0e4e81c5b262e1d49274e7fa1a0b7",
      "assetIds": []
    },
    {
      "x": 3,
      "y": 143,
      "size": 1,
      "price": "1011000000000000000000",
      "reserved": "",
      "salt": "0xcf8d6640f7c3ae2c00d39a3b6b2a58e4bbeb0ee40f1639e398d23019608bb7eb",
      "assetIds": []
    },
    {
      "x": 2,
      "y": 143,
      "size": 1,
      "price": "1011000000000000000000",
      "reserved": "",
      "salt": "0x039d1a417699381bea8a080c447b439ba317b005be0025a076e2364340622ae1",
      "assetIds": []
    },
    {
      "x": 1,
      "y": 143,
      "size": 1,
      "price": "1011000000000000000000",
      "reserved": "",
      "salt": "0xabca976e907c60012137329c4ba432287df64fe85704a78cc0e44f9ee1641800",
      "assetIds": []
    },
    {
      "x": 1,
      "y": 139,
      "size": 1,
      "price": "1011000000000000000000",
      "reserved": "",
      "salt": "0x303417ee4af43fb7e9f17d6bcf04e6a8d3ccee8e52ff2be5cd4d4678f753cf10",
      "assetIds": []
    },
    {
      "x": 2,
      "y": 138,
      "size": 1,
      "price": "1011000000000000000000",
      "reserved": "",
      "salt": "0x8b42d1126c7dbe864eb0e762cf9af7ed52b99df4ad0be3cdd15111645fba3201",
      "assetIds": []
    },
    {
      "x": 5,
      "y": 138,
      "size": 1,
      "price": "1011000000000000000000",
      "reserved": "",
      "salt": "0x3471b7b7bfbadb69e471ba27e8ea3727d194fec89ce3c66b217ea8f60db041ca",
      "assetIds": []
    },
    {
      "x": 1,
      "y": 138,
      "size": 1,
      "price": "1011000000000000000000",
      "reserved": "",
      "salt": "0x70dfe01b4c8a8351541abc70065be51c57f9cb61449a7e57f4e15693fc69ae06",
      "assetIds": []
    },
    {
      "x": 2,
      "y": 139,
      "size": 1,
      "price": "1011000000000000000000",
      "reserved": "",
      "salt": "0xe2429ae15d3988ac7be8af49558126d66a21eeaa320a961306f5efbf091c4316",
      "assetIds": []
    },
    {
      "x": 2,
      "y": 140,
      "size": 1,
      "price": "1011000000000000000000",
      "reserved": "",
      "salt": "0x29a590185945a0b9dff8f989f7b54cc3f9d7b3c5133fa9342eb3c351dc26b745",
      "assetIds": []
    },
    {
      "x": 3,
      "y": 140,
      "size": 1,
      "price": "1011000000000000000000",
      "reserved": "",
      "salt": "0x2aaefa5563b0945d61fdfc36c6bdabd412168e9ea1a3ba80ae6d4dca07329b0c",
      "assetIds": []
    },
    {
      "x": 3,
      "y": 141,
      "size": 1,
      "price": "1011000000000000000000",
      "reserved": "",
      "salt": "0x685a5e908458aacf7d066bf4aa9fc75b6fbb0c346c94a889afbc56957b00a2c6",
      "assetIds": []
    },
    {
      "x": 3,
      "y": 142,
      "size": 1,
      "price": "1011000000000000000000",
      "reserved": "",
      "salt": "0x217db0018a8e05d40a73ae5f1408d8fa3c06bc0a0333be9b5d8b4b08ee6673af",
      "assetIds": []
    },
    {
      "x": 4,
      "y": 142,
      "size": 1,
      "price": "1011000000000000000000",
      "reserved": "",
      "salt": "0xbf76eca5e7a5d53fed0105f5c8e0063bc0fd66f9aff80a0f2908ca9c892fde4e",
      "assetIds": []
    },
    {
      "x": 4,
      "y": 141,
      "size": 1,
      "price": "1011000000000000000000",
      "reserved": "",
      "salt": "0x5244aae29466c626c877dd2d4b12989b87d3b71d2c8b1ac885b8b9e60258518d",
      "assetIds": []
    },
    {
      "x": 4,
      "y": 140,
      "size": 1,
      "price": "1011000000000000000000",
      "reserved": "",
      "salt": "0x7909bf581695dcc4b1d5a8abe533912860f7f217014ebb8bd0ba71aab87b7ed7",
      "assetIds": []
    },
    {
      "x": 3,
      "y": 139,
      "size": 1,
      "price": "1011000000000000000000",
      "reserved": "",
      "salt": "0xd58be15b81ada4d22c17df72244db891a75dd7b6e2c33717177c9a788bdad172",
      "assetIds": []
    },
    {
      "x": 2,
      "y": 142,
      "size": 1,
      "price": "1011000000000000000000",
      "reserved": "",
      "salt": "0x0f3df58d4989e98af142b38c0921a334e67c4b1d8f16f1b812a6867e907a98fd",
      "assetIds": []
    },
    {
      "x": 1,
      "y": 141,
      "size": 1,
      "price": "1011000000000000000000",
      "reserved": "",
      "salt": "0x89c0291f2bf36f66fb64d6300de325dfc0f58aacbe6d982b4ce445fbb20ea8ed",
      "assetIds": []
    },
    {
      "x": 1,
      "y": 140,
      "size": 1,
      "price": "1011000000000000000000",
      "reserved": "",
      "salt": "0xab393fde18c169bf1503ed8d0744c70cc548cf8e08958ff8c5bad5c80c1eb15e",
      "assetIds": []
    },
    {
      "x": 1,
      "y": 142,
      "size": 1,
      "price": "1011000000000000000000",
      "reserved": "",
      "salt": "0x9d1265f757aa743a7a643669282517cacdd187b13d6cf7bfc6f3301e922c03c5",
      "assetIds": []
    },
    {
      "x": 2,
      "y": 141,
      "size": 1,
      "price": "1011000000000000000000",
      "reserved": "",
      "salt": "0xb3f8528d66c89d03ab543dda7dd04d3187de5b6dc6bbe8f31f80a0b02f357aa5",
      "assetIds": []
    },
    {
      "x": 0,
      "y": 192,
      "size": 24,
      "price": "466102000000000000000000",
      "reserved": "0x7a9fe22691c811ea339d9b73150e6911a5343dca",
      "salt": "0xbd7087043b342dc1525066028cf4e0b3e325a01782e4f2cbcfd12c2ca07e9b35",
      "assetIds": []
    },
    {
      "x": 0,
      "y": 96,
      "size": 24,
      "price": "466102000000000000000000",
      "reserved": "0x7a9fe22691c811ea339d9b73150e6911a5343dca",
      "salt": "0x0407467433cfdae409f941d796f7b69cdd120ac8027d25802d8bd0cf1723fd58",
      "assetIds": []
    },
    {
      "x": 0,
      "y": 144,
      "size": 24,
      "price": "466102000000000000000000",
      "reserved": "",
      "salt": "0x94b9e79cebb49893d22f2884a19bf1a4b06a70e06856d07f3952cb244d963d25",
      "assetIds": []
    },
    {
      "x": 12,
      "y": 180,
      "size": 12,
      "price": "123806000000000000000000",
      "reserved": "0x7a9fe22691c811ea339d9b73150e6911a5343dca",
      "salt": "0xebc897a6e32413a9be0cd5efe54f6c0ffb0331968f65f4265db97912084faf46",
      "assetIds": []
    },
    {
      "x": 24,
      "y": 156,
      "size": 12,
      "price": "123806000000000000000000",
      "reserved": "0x7a9fe22691c811ea339d9b73150e6911a5343dca",
      "salt": "0xdf75301d15311e85bc5eafe84952878f8da887ccda5d73944e9a1ba9feb475d9",
      "assetIds": []
    },
    {
      "x": 12,
      "y": 132,
      "size": 12,
      "price": "123806000000000000000000",
      "reserved": "0x7a9fe22691c811ea339d9b73150e6911a5343dca",
      "salt": "0xf5f4e2f3bbb3a6a5d65cb0ba01b90370589b0cd9a1b59491e1d46ca60fe25e86",
      "assetIds": []
    },
    {
      "x": 24,
      "y": 96,
      "size": 12,
      "price": "123806000000000000000000",
      "reserved": "",
      "salt": "0xd99d2dc4fd3fd95ef08339adb9c7b819882f46bc4437b247af51de9cbb5a6f9a",
      "assetIds": []
    },
    {
      "x": 0,
      "y": 120,
      "size": 12,
      "price": "123806000000000000000000",
      "reserved": "",
      "salt": "0x0a8c4bb1059409b8ce74c4d8aee787a1ff3a52036fe2c1c3bb7a524da543c980",
      "assetIds": []
    },
    {
      "x": 12,
      "y": 174,
      "size": 6,
      "price": "32772000000000000000000",
      "reserved": "",
      "salt": "0x8294a0a1442185d0f5f87ff6f1e261c90163a7a65c85112ce996b78e791e3a97",
      "assetIds": []
    },
    {
      "x": 30,
      "y": 174,
      "size": 6,
      "price": "32772000000000000000000",
      "reserved": "",
      "salt": "0x8bfc4845dfa85cd0dac3132d4c07d5185760b7fc903b5df8179ac673dabfb18c",
      "assetIds": []
    },
    {
      "x": 6,
      "y": 138,
      "size": 6,
      "price": "32772000000000000000000",
      "reserved": "",
      "salt": "0xbf29c200598ef289d17b09476ad3d0dea2856347d2c8cc4274a61e810c50cbd2",
      "assetIds": []
    },
    {
      "x": 6,
      "y": 132,
      "size": 6,
      "price": "32772000000000000000000",
      "reserved": "",
      "salt": "0x103bfaa26554596f2ddfdeddd704d0161ae27d3948c4f1714b219cb1e74027be",
      "assetIds": []
    },
    {
      "x": 0,
      "y": 132,
      "size": 6,
      "price": "32772000000000000000000",
      "reserved": "",
      "salt": "0x9e519ac770c996604ee928573b58f8946ca450916aa2ea99df95b0bc294f36ce",
      "assetIds": []
    },
    {
      "x": 12,
      "y": 120,
      "size": 6,
      "price": "32772000000000000000000",
      "reserved": "",
      "salt": "0x943ae29194805caad19bacc910ffd20dd6593cf0cd90b6e1c93534d7dffd5eb5",
      "assetIds": []
    },
    {
      "x": 18,
      "y": 126,
      "size": 6,
      "price": "32772000000000000000000",
      "reserved": "",
      "salt": "0xee78c1ef2365bef61520e1188997503607a0ca7673af6a937ffcec68bad8963a",
      "assetIds": []
    },
    {
      "x": 24,
      "y": 90,
      "size": 6,
      "price": "32772000000000000000000",
      "reserved": "",
      "salt": "0x1a2b6740bfaaa32dad8f092b73f5732138cf14c685a180ee5afcf5cee1a9882c",
      "assetIds": []
    },
    {
      "x": 24,
      "y": 84,
      "size": 6,
      "price": "32772000000000000000000",
      "reserved": "",
      "salt": "0x34d0f2a073003683b31cc111407810346cc4fed8d395d16219679e27aa350123",
      "assetIds": []
    },
    {
      "x": 18,
      "y": 84,
      "size": 6,
      "price": "32772000000000000000000",
      "reserved": "",
      "salt": "0xebcf4895a67babe05450d457fc50ae85d5fb9abe97c08c2f5985877419099996",
      "assetIds": []
    },
    {
      "x": 24,
      "y": 168,
      "size": 6,
      "price": "32772000000000000000000",
      "reserved": "0x7a9fe22691c811ea339d9b73150e6911a5343dca",
      "salt": "0x86537577533e2b8f013ca107c3dca6e5492fe5787db28c127bae0cf1725d815a",
      "assetIds": []
    },
    {
      "x": 30,
      "y": 186,
      "size": 6,
      "price": "32772000000000000000000",
      "reserved": "0x7a9fe22691c811ea339d9b73150e6911a5343dca",
      "salt": "0x5a212c9803dcf48de12efc840735c9cfeb7ffd57dfa4bf200a0ee201288818d6",
      "assetIds": []
    },
    {
      "x": 30,
      "y": 150,
      "size": 6,
      "price": "32772000000000000000000",
      "reserved": "0x7a9fe22691c811ea339d9b73150e6911a5343dca",
      "salt": "0xed3bf3e4de0e661e70d989b651c1e0c2439113b8410a7720071124525948f456",
      "assetIds": []
    },
    {
      "x": 3,
      "y": 177,
      "size": 3,
      "price": "8648000000000000000000",
      "reserved": "",
      "salt": "0x4b386605da8d2b88a986ac7f07979856a1f37855dff940db5d95888718665508",
      "assetIds": []
    },
    {
      "x": 24,
      "y": 150,
      "size": 3,
      "price": "8648000000000000000000",
      "reserved": "",
      "salt": "0xb029d7f41b5aed792bc60851aec30c4492879d233720fdbd16e2e1330c4c2307",
      "assetIds": []
    },
    {
      "x": 12,
      "y": 129,
      "size": 3,
      "price": "8648000000000000000000",
      "reserved": "",
      "salt": "0xd70aef9ffb7241e0ade88a7a861c617fdef420fc9f68fa810b753d48d555be97",
      "assetIds": []
    },
    {
      "x": 15,
      "y": 126,
      "size": 3,
      "price": "8648000000000000000000",
      "reserved": "",
      "salt": "0x21e79540fa955640ebf78c95b3e4dc816921b83c840cb8ad4d08f8f5efa900df",
      "assetIds": []
    },
    {
      "x": 24,
      "y": 114,
      "size": 3,
      "price": "8648000000000000000000",
      "reserved": "",
      "salt": "0x476b2a13c391fd08c8bfc8f1ee6cc5daee0f9db4f7e264722f6114d325065f9e",
      "assetIds": []
    },
    {
      "x": 33,
      "y": 87,
      "size": 3,
      "price": "8648000000000000000000",
      "reserved": "",
      "salt": "0xee3daf390d35db1f05a3652ff2bc6896f9c708091da557070e4b7f246e6b16d1",
      "assetIds": []
    }
  ],
  "solcInputHash": "313f455adab9ae93096e43acc50d7d38",
  "bytecode": "0x610160604052620d2f006005556103e860075534801561001e57600080fd5b5060405161242e38038061242e833981810160405261018081101561004257600080fd5b50805160208201516040830151606080850151608086015160a08088015160c0808a015160e08b01516101008c01516101208d01516101408e0151610160909e0151600280546001600160a01b0319166001600160a01b03861617905560038390558d8b1b6001600160601b0319908116909852998c901b909616909352999a9899979895979496929590949391926100dc8a600161014a565b600680546001600160a01b03199081166001600160a01b039a8b1617909155610140979097526101209590955260008054909616979096169690961790935550606093841b6001600160601b031990811660e05292841b831660805290921b1661010052506101ae92505050565b6001600160a01b038216600081815260016020908152604091829020805460ff191685151590811790915582519384529083015280517fb21eb88b4e33b3f1281830a7178d74d8aa73220416215726b68ae23d539515cb9281900390910190a15050565b60805160601c60a05160601c60c05160601c60e05160601c6101005160601c61012051610140516121fb610233600039806109375280611d44525080610913528061139a525080611da45250806115d252806116f4525080610c50528061159c5280611dd852508061166152806116c5525080610dfa528061190852506121fb6000f3fe608060405234801561001057600080fd5b50600436106101515760003560e01c8063984d6252116100cd578063dc5074af11610081578063ecb255b511610066578063ecb255b514610857578063f23a6e6114610874578063f2e7b3811461090957610151565b8063dc5074af14610814578063e56f8a9e1461083a57610151565b8063bc197c81116100b2578063bc197c81146105d3578063c10a420814610735578063caed35001461080c57610151565b8063984d6252146104db578063b522ecff146105ad57610151565b80636e9960c3116101245780638a04af6a116101095780638a04af6a1461032a5780638a12b82f146103585780638f283970146104b557610151565b80636e9960c3146102fe57806377f1c3ac1461032257610151565b806325cb5bc014610156578063495906571461017057806358bc29441461017857806365194ce7146101a0575b600080fd5b61015e610911565b60408051918252519081900360200190f35b61015e610935565b61019e6004803603602081101561018e57600080fd5b50356001600160a01b0316610959565b005b610246600480360360208110156101b657600080fd5b8101906020810181356401000000008111156101d157600080fd5b8201836020820111156101e357600080fd5b8035906020019184600183028401116401000000008311171561020557600080fd5b91908080601f016020809104026020016040519081016040528093929190818152602001838380828437600092019190915250929550610a04945050505050565b6040518080602001866001600160a01b03166001600160a01b03168152602001856001600160a01b03166001600160a01b03168152602001848152602001838152602001828103825287818151815260200191508051906020019080838360005b838110156102bf5781810151838201526020016102a7565b50505050905090810190601f1680156102ec5780820380516001836020036101000a031916815260200191505b50965050505050505060405180910390f35b610306610b09565b604080516001600160a01b039092168252519081900360200190f35b61015e610b18565b61019e6004803603604081101561034057600080fd5b506001600160a01b0381351690602001351515610b1e565b61019e600480360361018081101561036f57600080fd5b6001600160a01b038235811692602081013582169260408201359092169160608201359160808101359160a08201359160c08101359160e0820135916101008101359181019061014081016101208201356401000000008111156103d257600080fd5b8201836020820111156103e457600080fd5b8035906020019184602083028401116401000000008311171561040657600080fd5b91939092909160208101903564010000000081111561042457600080fd5b82018360208201111561043657600080fd5b8035906020019184602083028401116401000000008311171561045857600080fd5b91939092909160208101903564010000000081111561047657600080fd5b82018360208201111561048857600080fd5b803590602001918460018302840111640100000000831117156104aa57600080fd5b509092509050610b75565b61019e600480360360208110156104cb57600080fd5b50356001600160a01b0316610cc3565b61019e600480360360608110156104f157600080fd5b6001600160a01b03823516919081019060408101602082013564010000000081111561051c57600080fd5b82018360208201111561052e57600080fd5b8035906020019184602083028401116401000000008311171561055057600080fd5b91939092909160208101903564010000000081111561056e57600080fd5b82018360208201111561058057600080fd5b803590602001918460208302840111640100000000831117156105a257600080fd5b509092509050610d99565b61019e600480360360208110156105c357600080fd5b50356001600160a01b0316610f24565b610700600480360360a08110156105e957600080fd5b6001600160a01b03823581169260208101359091169181019060608101604082013564010000000081111561061d57600080fd5b82018360208201111561062f57600080fd5b8035906020019184602083028401116401000000008311171561065157600080fd5b91939092909160208101903564010000000081111561066f57600080fd5b82018360208201111561068157600080fd5b803590602001918460208302840111640100000000831117156106a357600080fd5b9193909290916020810190356401000000008111156106c157600080fd5b8201836020820111156106d357600080fd5b803590602001918460018302840111640100000000831117156106f557600080fd5b50909250905061100d565b604080517fffffffff000000000000000000000000000000000000000000000000000000009092168252519081900360200190f35b6107f8600480360360a081101561074b57600080fd5b81019060208101813564010000000081111561076657600080fd5b82018360208201111561077857600080fd5b8035906020019184600183028401116401000000008311171561079a57600080fd5b91908080601f016020809104026020016040519081016040528093929190818152602001838380828437600092019190915250929550506001600160a01b03833581169450602084013516926040810135925060600135905061103a565b604080519115158252519081900360200190f35b610306611176565b6107f86004803603602081101561082a57600080fd5b50356001600160a01b0316611185565b61019e6004803603602081101561085057600080fd5b50356111a3565b61019e6004803603602081101561086d57600080fd5b5035611207565b610700600480360360a081101561088a57600080fd5b6001600160a01b03823581169260208101359091169160408201359160608101359181019060a0810160808201356401000000008111156108ca57600080fd5b8201836020820111156108dc57600080fd5b803590602001918460018302840111640100000000831117156108fe57600080fd5b50909250905061126b565b61015e611296565b7f000000000000000000000000000000000000000000000000000000000000000090565b7f000000000000000000000000000000000000000000000000000000000000000090565b6000546001600160a01b031633146109b8576040805162461bcd60e51b815260206004820152601060248201527f53656e646572206e6f742061646d696e00000000000000000000000000000000604482015290519081900360640190fd5b600554600280546001600160a01b03908116600090815260046020526040902042909301909255805473ffffffffffffffffffffffffffffffffffffffff191692909116919091179055565b606060008060008060606000806000808a80602001905160a0811015610a2957600080fd5b8101908080516040519392919084640100000000821115610a4957600080fd5b908301906020820185811115610a5e57600080fd5b8251640100000000811182820188101715610a7857600080fd5b82525081516020918201929091019080838360005b83811015610aa5578181015183820152602001610a8d565b50505050905090810190601f168015610ad25780820380516001836020036101000a031916815260200191505b5060409081526020820151908201516060830151608090930151959f50909d509b5099509197505050505050505091939590929450565b6000546001600160a01b031690565b60035490565b6000546001600160a01b03163314610b675760405162461bcd60e51b815260040180806020018281038252602e815260200180612198602e913960400191505060405180910390fd5b610b71828261129c565b5050565b610b7f898961131e565b610c048f8e8e8e8e8e8d8d8d80806020026020016040519081016040528093929190818152602001838360200280828437600081840152601f19601f820116905080830192505050505050508c8c8080602002602001604051908101604052809392919081815260200183836020028082843760009201919091525061139892505050565b610c458f8984848080601f01602080910402602001604051908101604052809392919081815260200183838082843760009201919091525061157592505050565b610c758f8f8e8e8e8d7f00000000000000000000000000000000000000000000000000000000000000008f6115c6565b610cb28e87878080602002602001604051908101604052809392919081815260200183836020028082843760009201919091525061189192505050565b505050505050505050505050505050565b6000546001600160a01b03163314610d22576040805162461bcd60e51b815260206004820152601b60248201527f6f6e6c792061646d696e2063616e206368616e67652061646d696e0000000000604482015290519081900360640190fd5b600054604080516001600160a01b039283168152918316602083015280517f7e644d79422f17c01e4894b5f4f588d331ebfa28653d42ae832dc59e38c9798f9281900390910190a16000805473ffffffffffffffffffffffffffffffffffffffff19166001600160a01b0392909216919091179055565b6000546001600160a01b03163314610df8576040805162461bcd60e51b815260206004820152600e60248201527f4e4f545f415554484f52495a4544000000000000000000000000000000000000604482015290519081900360640190fd5b7f00000000000000000000000000000000000000000000000000000000000000006001600160a01b0316632eb2c2d63087878787876040518763ffffffff1660e01b815260040180876001600160a01b03166001600160a01b03168152602001866001600160a01b03166001600160a01b031681526020018060200180602001806020018481038452888882818152602001925060200280828437600083820152601f01601f19169091018581038452868152602090810191508790870280828437600081840152601f19601f8201169050808301925050508481038252600081526020016020019950505050505050505050600060405180830381600087803b158015610f0557600080fd5b505af1158015610f19573d6000803e3d6000fd5b505050505050505050565b6001600160a01b038116610f7f576040805162461bcd60e51b815260206004820152600c60248201527f5a45524f5f414444524553530000000000000000000000000000000000000000604482015290519081900360640190fd5b6000546001600160a01b03163314610fde576040805162461bcd60e51b815260206004820152600e60248201527f4e4f545f415554484f52495a4544000000000000000000000000000000000000604482015290519081900360640190fd5b6006805473ffffffffffffffffffffffffffffffffffffffff19166001600160a01b0392909216919091179055565b7fbc197c810000000000000000000000000000000000000000000000000000000098975050505050505050565b600060035482118061105d5750836001600160a01b0316856001600160a01b0316145b8061106757508242115b156110745750600061116d565b60408051606087811b7fffffffffffffffffffffffffffffffffffffffff0000000000000000000000009081166020808501919091529188901b166034830152604882018690526068808301869052835180840390910181526088830184528051908201207f19457468657265756d205369676e6564204d6573736167653a0a33320000000060a884015260c48084018290528451808503909101815260e4909301909352815191012060009061112b9089611a55565b6001600160a01b03811660009081526004602052604090205490915042116111585760019250505061116d565b6002546001600160a01b039081169116149150505b95945050505050565b6002546001600160a01b031690565b6001600160a01b031660009081526001602052604090205460ff1690565b6000546001600160a01b03163314611202576040805162461bcd60e51b815260206004820152601060248201527f53656e646572206e6f742061646d696e00000000000000000000000000000000604482015290519081900360640190fd5b600355565b6000546001600160a01b03163314611266576040805162461bcd60e51b815260206004820152600e60248201527f4e4f545f415554484f52495a4544000000000000000000000000000000000000604482015290519081900360640190fd5b600755565b7ff23a6e61000000000000000000000000000000000000000000000000000000009695505050505050565b60075490565b6001600160a01b03821660008181526001602090815260409182902080547fffffffffffffffffffffffffffffffffffffffffffffffffffffffffffffff001685151590811790915582519384529083015280517fb21eb88b4e33b3f1281830a7178d74d8aa73220416215726b68ae23d539515cb9281900390910190a15050565b6113456103e861133960075485611b2290919063ffffffff16565b9063ffffffff611b9816565b8114610b71576040805162461bcd60e51b815260206004820152600d60248201527f494e56414c49445f505249434500000000000000000000000000000000000000604482015290519081900360640190fd5b7f0000000000000000000000000000000000000000000000000000000000000000421061140c576040805162461bcd60e51b815260206004820152600c60248201527f53414c455f49535f4f5645520000000000000000000000000000000000000000604482015290519081900360640190fd5b6001600160a01b03891633148061143257503360009081526001602052604090205460ff165b611483576040805162461bcd60e51b815260206004820152600e60248201527f4e4f545f415554484f52495a4544000000000000000000000000000000000000604482015290519081900360640190fd5b6001600160a01b03881615806114aa5750886001600160a01b0316886001600160a01b0316145b6114fb576040805162461bcd60e51b815260206004820152600d60248201527f52455345525645445f4c414e4400000000000000000000000000000000000000604482015290519081900360640190fd5b600061150c888888888d8989611bfd565b90506115188282611ca2565b611569576040805162461bcd60e51b815260206004820152600c60248201527f494e56414c49445f4c414e440000000000000000000000000000000000000000604482015290519081900360640190fd5b50505050505050505050565b60006115818484611d6b565b6006549091506115c0908590839085906001600160a01b03167f0000000000000000000000000000000000000000000000000000000000000000611eb8565b50505050565b83600114806115fc57507f00000000000000000000000000000000000000000000000000000000000000006001600160a01b0316155b156116c357604080517f6e1e3bbf0000000000000000000000000000000000000000000000000000000081526001600160a01b03898116600483015260248201879052604482018990526064820188905260a06084830152600060a4830181905292517f000000000000000000000000000000000000000000000000000000000000000090911692636e1e3bbf9260e4808201939182900301818387803b1580156116a657600080fd5b505af11580156116ba573d6000803e3d6000fd5b50505050611827565b7f00000000000000000000000000000000000000000000000000000000000000006001600160a01b0316636e1e3bbf7f00000000000000000000000000000000000000000000000000000000000000008689898c60405160200180826001600160a01b03166001600160a01b031681526020019150506040516020818303038152906040526040518663ffffffff1660e01b815260040180866001600160a01b03166001600160a01b0316815260200185815260200184815260200183815260200180602001828103825283818151815260200191508051906020019080838360005b838110156117be5781810151838201526020016117a6565b50505050905090810190601f1680156117eb5780820380516001836020036101000a031916815260200191505b509650505050505050600060405180830381600087803b15801561180e57600080fd5b505af1158015611822573d6000803e3d6000fd5b505050505b60408051858152602081018590526001600160a01b03848116828401526060820184905291516101988802890192808b1692908c16917fe4dfa6ac11314892f3029b34a25b1a887da3b1cab2bbf8506d87128ba6e3ac029181900360800190a45050505050505050565b6060815167ffffffffffffffff811180156118ab57600080fd5b506040519080825280602002602001820160405280156118d5578160200160208202803683370190505b50905060005b82518110156119055760018282815181106118f257fe5b60209081029190910101526001016118db565b507f00000000000000000000000000000000000000000000000000000000000000006001600160a01b0316632eb2c2d6308585856040518563ffffffff1660e01b815260040180856001600160a01b03166001600160a01b03168152602001846001600160a01b03166001600160a01b03168152602001806020018060200180602001848103845286818151815260200191508051906020019060200280838360005b838110156119c05781810151838201526020016119a8565b50505050905001848103835285818151815260200191508051906020019060200280838360005b838110156119ff5781810151838201526020016119e7565b50505050905001848103825260008152602001602001975050505050505050600060405180830381600087803b158015611a3857600080fd5b505af1158015611a4c573d6000803e3d6000fd5b50505050505050565b60008151604114611a6557600080fd5b60208201516040830151606084015160001a601b811015611a8457601b015b8060ff16601b1480611a9957508060ff16601c145b611aa257600080fd5b6040805160008152602080820180845289905260ff8416828401526060820186905260808201859052915160019260a0808401939192601f1981019281900390910190855afa158015611af9573d6000803e3d6000fd5b5050604051601f1901519450506001600160a01b038416611b1957600080fd5b50505092915050565b600082611b3157506000611b92565b5081810281838281611b3f57fe5b0414611b92576040805162461bcd60e51b815260206004820152600860248201527f6f766572666c6f77000000000000000000000000000000000000000000000000604482015290519081900360640190fd5b92915050565b600081611bec576040805162461bcd60e51b815260206004820152600960248201527f64697662797a65726f0000000000000000000000000000000000000000000000604482015290519081900360640190fd5b818381611bf557fe5b049392505050565b60008787878787878760405160200180888152602001878152602001868152602001858152602001846001600160a01b03166001600160a01b031660601b8152601401838152602001828051906020019060200280838360005b83811015611c6f578181015183820152602001611c57565b50505050905001975050505050505050604051602081830303815290604052805190602001209050979650505050505050565b600081815b8451811015611d41576000858281518110611cbe57fe5b6020026020010151905080831015611d065782816040516020018083815260200182815260200192505050604051602081830303815290604052805190602001209250611d38565b808360405160200180838152602001828152602001925050506040516020818303038152906040528051906020012092505b50600101611ca7565b507f0000000000000000000000000000000000000000000000000000000000000000149392505050565b600080611d84606461133985600563ffffffff611b2216565b604080516323b872dd60e01b81526001600160a01b0387811660048301527f0000000000000000000000000000000000000000000000000000000000000000811660248301526044820184905291519293507f0000000000000000000000000000000000000000000000000000000000000000909116916323b872dd916064808201926020929091908290030181600087803b158015611e2357600080fd5b505af1158015611e37573d6000803e3d6000fd5b505050506040513d6020811015611e4d57600080fd5b5051611ea0576040805162461bcd60e51b815260206004820152601360248201527f4645455f5452414e534645525f4641494c454400000000000000000000000000604482015290519081900360640190fd5b611eb0838263ffffffff61213a16565b949350505050565b82518190859015612062576060600080600080611ed48a610a04565b9398509196509450925090506000611eef868686868661103a565b15611f7d57611f09611f018d84611b22565b612710611b98565b9050886001600160a01b0316846001600160a01b0316866001600160a01b03167fac7a699eb95c3c6d390ec4626de17ef9a67b35891efdb197beba7c7fdd45fac48f858760405180848152602001838152602001828152602001935050505060405180910390a4611f7a878261213a565b96505b801561205b57604080516323b872dd60e01b81526001600160a01b038f811660048301528781166024830152604482018490529151918a16916323b872dd916064808201926020929091908290030181600087803b158015611fde57600080fd5b505af1158015611ff2573d6000803e3d6000fd5b505050506040513d602081101561200857600080fd5b505161205b576040805162461bcd60e51b815260206004820152601960248201527f636f6d6d6973696f6e207472616e73666572206661696c656400000000000000604482015290519081900360640190fd5b5050505050505b604080516323b872dd60e01b81526001600160a01b0389811660048301528681166024830152604482018490529151918416916323b872dd916064808201926020929091908290030181600087803b1580156120bd57600080fd5b505af11580156120d1573d6000803e3d6000fd5b505050506040513d60208110156120e757600080fd5b5051611a4c576040805162461bcd60e51b815260206004820152601760248201527f7061796d656e74207472616e73666572206661696c6564000000000000000000604482015290519081900360640190fd5b600082821115612191576040805162461bcd60e51b815260206004820152600860248201527f756e6465666c6f77000000000000000000000000000000000000000000000000604482015290519081900360640190fd5b5090039056fe6f6e6c792061646d696e2063616e207365747570206d6574615472616e73616374696f6e50726f636573736f7273a26469706673582212200ff38c5741c66b2a22a9a9ee2abe0f55626323082b6b4443921fd3b25484584a64736f6c63430006050033",
  "devdoc": {
    "methods": {
      "buyLandWithSand(address,address,address,uint256,uint256,uint256,uint256,uint256,bytes32,uint256[],bytes32[],bytes)": {
        "params": {
          "buyer": "address that perform the payment",
          "priceInSand": "price in SAND to purchase that Land",
          "proof": "merkleProof for that particular Land",
          "reserved": "the reserved address (if any)",
          "size": "size of the pack of Land to purchase",
          "to": "address that will own the purchased Land",
          "x": "x coordinate of the Land",
          "y": "y coordinate of the Land"
        }
      },
      "changeAdmin(address)": {
        "details": "change the administrator to be `newAdmin`.",
        "params": {
          "newAdmin": "address of the new administrator."
        }
      },
      "getAdmin()": {
        "details": "gives the current administrator of this contract.",
        "returns": {
          "_0": "the current administrator of this contract."
        }
      },
      "getSigningWallet()": {
        "details": "signing wallet authorized for referral",
        "returns": {
          "_0": "the address of the signing wallet"
        }
      },
      "isMetaTransactionProcessor(address)": {
        "details": "check whether address `who` is given meta-transaction execution rights.",
        "params": {
          "who": "The address to query."
        },
        "returns": {
          "_0": "whether the address has meta-transaction execution rights."
        }
      },
      "isReferralValid(bytes,address,address,uint256,uint256)": {
        "params": {
          "commissionRate": "The commissionRate of the referral",
          "expiryTime": "The expiry time of the referral",
          "referee": "The address of the referee",
          "referrer": "The address of the referrer",
          "signature": "The signature to check (signed referral)"
        },
        "returns": {
          "_0": "True if the referral is valid"
        }
      },
      "setMetaTransactionProcessor(address,bool)": {
        "details": "Enable or disable the ability of `metaTransactionProcessor` to perform meta-tx (metaTransactionProcessor rights).",
        "params": {
          "enabled": "set whether the metaTransactionProcessor is enabled or disabled.",
          "metaTransactionProcessor": "address that will be given/removed metaTransactionProcessor rights."
        }
      },
      "setReceivingWallet(address)": {
        "params": {
          "newWallet": "address of the new receiving wallet"
        }
      },
      "updateMaxCommissionRate(uint256)": {
        "details": "Update the maximum commission rate",
        "params": {
          "newMaxCommissionRate": "The new maximum commission rate"
        }
      },
      "updateSigningWallet(address)": {
        "details": "Update the signing wallet",
        "params": {
          "newSigningWallet": "The new address of the signing wallet"
        }
      },
      "withdrawAssets(address,uint256[],uint256[])": {
        "params": {
          "assetIds": "the assetIds to be transferred",
          "to": "intended recipient of the asset tokens",
          "values": "the quantities of the assetIds to be transferred"
        }
      }
    },
    "title": "Estate Sale contract with referral"
  },
  "userdoc": {
    "methods": {
      "buyLandWithSand(address,address,address,uint256,uint256,uint256,uint256,uint256,bytes32,uint256[],bytes32[],bytes)": {
        "notice": "buy Land with SAND using the merkle proof associated with it"
      },
      "getExpiryTime()": {
        "notice": "Gets the expiry time for the current sale"
      },
      "getMaxCommisionRate()": {
        "notice": "the max commision rate"
      },
      "getMerkleRoot()": {
        "notice": "Gets the Merkle root associated with the current sale"
      },
      "isReferralValid(bytes,address,address,uint256,uint256)": {
        "notice": "Check if a referral is valid"
      },
      "setReceivingWallet(address)": {
        "notice": "set the wallet receiving the proceeds"
      },
      "withdrawAssets(address,uint256[],uint256[])": {
        "notice": "enable Admin to withdraw remaining assets from EstateSaleWithFee contract"
      }
    },
    "notice": "This contract manages the sale of our lands as Estates"
  },
  "storageLayout": {
    "storage": [
      {
        "astId": 12779,
        "contract": "src/solc_0.6/EstateSale/EstateSaleWithFee.sol:EstateSaleWithFee",
        "label": "_admin",
        "offset": 0,
        "slot": "0",
        "type": "t_address"
      },
      {
        "astId": 12841,
        "contract": "src/solc_0.6/EstateSale/EstateSaleWithFee.sol:EstateSaleWithFee",
        "label": "_metaTransactionContracts",
        "offset": 0,
        "slot": "1",
        "type": "t_mapping(t_address,t_bool)"
      },
      {
        "astId": 10957,
        "contract": "src/solc_0.6/EstateSale/EstateSaleWithFee.sol:EstateSaleWithFee",
        "label": "_signingWallet",
        "offset": 0,
        "slot": "2",
        "type": "t_address"
      },
      {
        "astId": 10959,
        "contract": "src/solc_0.6/EstateSale/EstateSaleWithFee.sol:EstateSaleWithFee",
        "label": "_maxCommissionRate",
        "offset": 0,
        "slot": "3",
        "type": "t_uint256"
      },
      {
        "astId": 10963,
        "contract": "src/solc_0.6/EstateSale/EstateSaleWithFee.sol:EstateSaleWithFee",
        "label": "_previousSigningWallets",
        "offset": 0,
        "slot": "4",
        "type": "t_mapping(t_address,t_uint256)"
      },
      {
        "astId": 10972,
        "contract": "src/solc_0.6/EstateSale/EstateSaleWithFee.sol:EstateSaleWithFee",
        "label": "_previousSigningDelay",
        "offset": 0,
        "slot": "5",
        "type": "t_uint256"
      },
      {
        "astId": 7344,
        "contract": "src/solc_0.6/EstateSale/EstateSaleWithFee.sol:EstateSaleWithFee",
        "label": "_wallet",
        "offset": 0,
        "slot": "6",
        "type": "t_address_payable"
      },
      {
        "astId": 7354,
        "contract": "src/solc_0.6/EstateSale/EstateSaleWithFee.sol:EstateSaleWithFee",
        "label": "_multiplier",
        "offset": 0,
        "slot": "7",
        "type": "t_uint256"
      }
    ],
    "types": {
      "t_address": {
        "encoding": "inplace",
        "label": "address",
        "numberOfBytes": "20"
      },
      "t_address_payable": {
        "encoding": "inplace",
        "label": "address payable",
        "numberOfBytes": "20"
      },
      "t_bool": {
        "encoding": "inplace",
        "label": "bool",
        "numberOfBytes": "1"
      },
      "t_mapping(t_address,t_bool)": {
        "encoding": "mapping",
        "key": "t_address",
        "label": "mapping(address => bool)",
        "numberOfBytes": "32",
        "value": "t_bool"
      },
      "t_mapping(t_address,t_uint256)": {
        "encoding": "mapping",
        "key": "t_address",
        "label": "mapping(address => uint256)",
        "numberOfBytes": "32",
        "value": "t_uint256"
      },
      "t_uint256": {
        "encoding": "inplace",
        "label": "uint256",
        "numberOfBytes": "32"
      }
    }
  }
}