{
  "address": "0x03f7f72e607287531fDdC0d6989a9DF28B9C97FE",
  "abi": [
    {
      "inputs": [
        {
          "internalType": "address",
          "name": "_checkpointManager",
          "type": "address"
        },
        {
          "internalType": "address",
          "name": "_fxRoot",
          "type": "address"
        },
        {
          "internalType": "address",
          "name": "_rootToken",
          "type": "address"
        }
      ],
      "stateMutability": "nonpayable",
      "type": "constructor"
    },
    {
      "anonymous": false,
      "inputs": [
        {
          "indexed": false,
          "internalType": "address",
          "name": "user",
          "type": "address"
        },
        {
          "indexed": false,
          "internalType": "uint256",
          "name": "size",
          "type": "uint256"
        },
        {
          "indexed": false,
          "internalType": "uint256",
          "name": "x",
          "type": "uint256"
        },
        {
          "indexed": false,
          "internalType": "uint256",
          "name": "y",
          "type": "uint256"
        },
        {
          "indexed": false,
          "internalType": "bytes",
          "name": "data",
          "type": "bytes"
        }
      ],
      "name": "Deposit",
      "type": "event"
    },
    {
      "anonymous": false,
      "inputs": [
        {
          "indexed": true,
          "internalType": "address",
          "name": "previousOwner",
          "type": "address"
        },
        {
          "indexed": true,
          "internalType": "address",
          "name": "newOwner",
          "type": "address"
        }
      ],
      "name": "OwnershipTransferred",
      "type": "event"
    },
    {
      "anonymous": false,
      "inputs": [
        {
          "indexed": false,
          "internalType": "address",
          "name": "user",
          "type": "address"
        },
        {
          "indexed": false,
          "internalType": "uint256",
          "name": "size",
          "type": "uint256"
        },
        {
          "indexed": false,
          "internalType": "uint256",
          "name": "x",
          "type": "uint256"
        },
        {
          "indexed": false,
          "internalType": "uint256",
          "name": "y",
          "type": "uint256"
        },
        {
          "indexed": false,
          "internalType": "bytes",
          "name": "data",
          "type": "bytes"
        }
      ],
      "name": "Withdraw",
      "type": "event"
    },
    {
      "inputs": [],
      "name": "SEND_MESSAGE_EVENT_SIG",
      "outputs": [
        {
          "internalType": "bytes32",
          "name": "",
          "type": "bytes32"
        }
      ],
      "stateMutability": "view",
      "type": "function"
    },
    {
      "inputs": [
        {
          "internalType": "address",
          "name": "to",
          "type": "address"
        },
        {
          "internalType": "uint256[]",
          "name": "sizes",
          "type": "uint256[]"
        },
        {
          "internalType": "uint256[]",
          "name": "xs",
          "type": "uint256[]"
        },
        {
          "internalType": "uint256[]",
          "name": "ys",
          "type": "uint256[]"
        },
        {
          "internalType": "bytes",
          "name": "data",
          "type": "bytes"
        }
      ],
      "name": "batchTransferQuadToL2",
      "outputs": [],
      "stateMutability": "nonpayable",
      "type": "function"
    },
    {
      "inputs": [],
      "name": "checkpointManager",
      "outputs": [
        {
          "internalType": "contract ICheckpointManager",
          "name": "",
          "type": "address"
        }
      ],
      "stateMutability": "view",
      "type": "function"
    },
    {
      "inputs": [],
      "name": "fxChildTunnel",
      "outputs": [
        {
          "internalType": "address",
          "name": "",
          "type": "address"
        }
      ],
      "stateMutability": "view",
      "type": "function"
    },
    {
      "inputs": [],
      "name": "fxRoot",
      "outputs": [
        {
          "internalType": "contract IFxStateSender",
          "name": "",
          "type": "address"
        }
      ],
      "stateMutability": "view",
      "type": "function"
    },
    {
      "inputs": [
        {
          "internalType": "address",
          "name": "",
          "type": "address"
        },
        {
          "internalType": "address",
          "name": "",
          "type": "address"
        },
        {
          "internalType": "uint256",
          "name": "",
          "type": "uint256"
        },
        {
          "internalType": "bytes",
          "name": "",
          "type": "bytes"
        }
      ],
      "name": "onERC721Received",
      "outputs": [
        {
          "internalType": "bytes4",
          "name": "",
          "type": "bytes4"
        }
      ],
      "stateMutability": "pure",
      "type": "function"
    },
    {
      "inputs": [],
      "name": "owner",
      "outputs": [
        {
          "internalType": "address",
          "name": "",
          "type": "address"
        }
      ],
      "stateMutability": "view",
      "type": "function"
    },
    {
      "inputs": [
        {
          "internalType": "bytes32",
          "name": "",
          "type": "bytes32"
        }
      ],
      "name": "processedExits",
      "outputs": [
        {
          "internalType": "bool",
          "name": "",
          "type": "bool"
        }
      ],
      "stateMutability": "view",
      "type": "function"
    },
    {
      "inputs": [
        {
          "internalType": "bytes",
          "name": "inputData",
          "type": "bytes"
        }
      ],
      "name": "receiveMessage",
      "outputs": [],
      "stateMutability": "nonpayable",
      "type": "function"
    },
    {
      "inputs": [],
      "name": "renounceOwnership",
      "outputs": [],
      "stateMutability": "nonpayable",
      "type": "function"
    },
    {
      "inputs": [],
      "name": "rootToken",
      "outputs": [
        {
          "internalType": "address",
          "name": "",
          "type": "address"
        }
      ],
      "stateMutability": "view",
      "type": "function"
    },
    {
      "inputs": [
        {
          "internalType": "address",
          "name": "_fxChildTunnel",
          "type": "address"
        }
      ],
      "name": "setFxChildTunnel",
      "outputs": [],
      "stateMutability": "nonpayable",
      "type": "function"
    },
    {
      "inputs": [
        {
          "internalType": "address",
          "name": "newOwner",
          "type": "address"
        }
      ],
      "name": "transferOwnership",
      "outputs": [],
      "stateMutability": "nonpayable",
      "type": "function"
    }
  ],
  "transactionHash": "0x4a0e47e3f8f33673e5a00e0687d31d0c24931e2b61b29dac77d492a642c9cfa5",
  "args": [
    "0x2890bA17EfE978480615e330ecB65333b880928e",
    "0x3d1d3E34f7fB6D26245E6640E1c50710eFFf15bA",
    "0x85F817921665fF27b5F3265b3B0b1B19402ed270"
  ],
  "solcInputHash": "870dcee96a68a161b4139d14d18a4589",
  "bytecode": "0x60806040523480156200001157600080fd5b5060405162002cf438038062002cf4833981016040819052620000349162000100565b600180546001600160a01b038086166001600160a01b03199283161790925560008054928516929091169190911781556200006c3390565b600480546001600160a01b0319166001600160a01b038316908117909155604051919250906000907f8be0079c531659141344cd1fd0a4f28419497f9722a3daafe3b4186f6b6457e0908290a350600580546001600160a01b0319166001600160a01b039290921691909117905550620001499050565b80516001600160a01b0381168114620000fb57600080fd5b919050565b60008060006060848603121562000115578283fd5b6200012084620000e3565b92506200013060208501620000e3565b91506200014060408501620000e3565b90509250925092565b612b9b80620001596000396000f3fe608060405234801561001057600080fd5b50600436106100df5760003560e01c8063972c49281161008c578063c4d168d611610066578063c4d168d614610239578063de9b771f1461024c578063f2fde38b1461025f578063f953cec714610272576100df565b8063972c492814610200578063aea4e49e14610213578063c0857ba014610226576100df565b8063607f2d42116100bd578063607f2d42146101b2578063715018a6146101e55780638da5cb5b146101ef576100df565b80630e387de6146100e4578063150b7a021461011e5780631f2d006514610187575b600080fd5b61010b7f8c5261668696ce22758910d05bab8f186d6eb247ceac2af2e82c7dc17669b03681565b6040519081526020015b60405180910390f35b61015661012c36600461249c565b7f150b7a020000000000000000000000000000000000000000000000000000000095945050505050565b6040517fffffffff000000000000000000000000000000000000000000000000000000009091168152602001610115565b60055461019a906001600160a01b031681565b6040516001600160a01b039091168152602001610115565b6101d56101c03660046125e4565b60036020526000908152604090205460ff1681565b6040519015158152602001610115565b6101ed610285565b005b6004546001600160a01b031661019a565b60025461019a906001600160a01b031681565b6101ed6102213660046123c4565b61033b565b60015461019a906001600160a01b031681565b6101ed610247366004612536565b6103e9565b60005461019a906001600160a01b031681565b6101ed61026d3660046123c4565b610651565b6101ed610280366004612648565b610790565b6004546001600160a01b031633146102e45760405162461bcd60e51b815260206004820181905260248201527f4f776e61626c653a2063616c6c6572206973206e6f7420746865206f776e657260448201526064015b60405180910390fd5b6004546040516000916001600160a01b0316907f8be0079c531659141344cd1fd0a4f28419497f9722a3daafe3b4186f6b6457e0908390a36004805473ffffffffffffffffffffffffffffffffffffffff19169055565b6002546001600160a01b0316156103ba5760405162461bcd60e51b815260206004820152602a60248201527f467842617365526f6f7454756e6e656c3a204348494c445f54554e4e454c5f4160448201527f4c52454144595f5345540000000000000000000000000000000000000000000060648201526084016102db565b6002805473ffffffffffffffffffffffffffffffffffffffff19166001600160a01b0392909216919091179055565b825184511480156103fb575081518351145b6104475760405162461bcd60e51b815260206004820152601060248201527f6c323a20696e76616c696420646174610000000000000000000000000000000060448201526064016102db565b6005546040517feaa5e0670000000000000000000000000000000000000000000000000000000081526001600160a01b039091169063eaa5e0679061049a90339030908990899089908990600401612741565b600060405180830381600087803b1580156104b457600080fd5b505af11580156104c8573d6000803e3d6000fd5b5050505060005b8451811015610649576000868683815181106104fb57634e487b7160e01b600052603260045260246000fd5b602002602001015186848151811061052357634e487b7160e01b600052603260045260246000fd5b602002602001015186858151811061054b57634e487b7160e01b600052603260045260246000fd5b602002602001015186604051602001610568959493929190612813565b6040516020818303038152906040529050610582816107aa565b7f86beac9ed9e1aa4efb77b948567a4c352c177bb58b134f4c9d0d92c2c8ffbfb1878784815181106105c457634e487b7160e01b600052603260045260246000fd5b60200260200101518785815181106105ec57634e487b7160e01b600052603260045260246000fd5b602002602001015187868151811061061457634e487b7160e01b600052603260045260246000fd5b60200260200101518760405161062e959493929190612813565b60405180910390a1508061064181612aba565b9150506104cf565b505050505050565b6004546001600160a01b031633146106ab5760405162461bcd60e51b815260206004820181905260248201527f4f776e61626c653a2063616c6c6572206973206e6f7420746865206f776e657260448201526064016102db565b6001600160a01b0381166107275760405162461bcd60e51b815260206004820152602660248201527f4f776e61626c653a206e6577206f776e657220697320746865207a65726f206160448201527f646472657373000000000000000000000000000000000000000000000000000060648201526084016102db565b6004546040516001600160a01b038084169216907f8be0079c531659141344cd1fd0a4f28419497f9722a3daafe3b4186f6b6457e090600090a36004805473ffffffffffffffffffffffffffffffffffffffff19166001600160a01b0392909216919091179055565b600061079b8261082e565b90506107a681610b7f565b5050565b6000546002546040517fb47204770000000000000000000000000000000000000000000000000000000081526001600160a01b039283169263b4720477926107f99291169085906004016127f1565b600060405180830381600087803b15801561081357600080fd5b505af1158015610827573d6000803e3d6000fd5b5050505050565b6060600061083b83610d67565b9050600061084882610dc6565b9050600061085583610e03565b905060008161086384610e3a565b61086c86611060565b60405160200161087e93929190612714565b60408051601f1981840301815291815281516020928301206000818152600390935291205490915060ff161561091b5760405162461bcd60e51b8152602060048201526024808201527f4678526f6f7454756e6e656c3a20455849545f414c52454144595f50524f434560448201527f535345440000000000000000000000000000000000000000000000000000000060648201526084016102db565b600081815260036020526040812080547fffffffffffffffffffffffffffffffffffffffffffffffffffffffffffffff0016600117905561095b8561108a565b90506000610968826111f0565b90506109738161129c565b6002546001600160a01b039081169116146109f65760405162461bcd60e51b815260206004820152602560248201527f4678526f6f7454756e6e656c3a20494e56414c49445f46585f4348494c445f5460448201527f554e4e454c00000000000000000000000000000000000000000000000000000060648201526084016102db565b6000610a01876112d3565b9050610a21610a11846020015190565b87610a1b8a6112fd565b84611327565b610a935760405162461bcd60e51b815260206004820152602360248201527f4678526f6f7454756e6e656c3a20494e56414c49445f524543454950545f505260448201527f4f4f46000000000000000000000000000000000000000000000000000000000060648201526084016102db565b610ac185610aa08961164e565b610aa98a611678565b84610ab38c6116a2565b610abc8d6116cc565b6116f6565b506000610acd83611844565b90507f8c5261668696ce22758910d05bab8f186d6eb247ceac2af2e82c7dc17669b036610b03610afe83600061188e565b6118d4565b14610b505760405162461bcd60e51b815260206004820152601f60248201527f4678526f6f7454756e6e656c3a20494e56414c49445f5349474e41545552450060448201526064016102db565b6000610b5b8461194f565b806020019051810190610b6e919061267b565b99505050505050505050505b919050565b600080600080600085806020019051810190610b9b91906123e0565b9450945094509450945060005b8351811015610d5e5760055485516001600160a01b03909116906338bb305a9030908990899086908110610bec57634e487b7160e01b600052603260045260246000fd5b6020026020010151888681518110610c1457634e487b7160e01b600052603260045260246000fd5b6020026020010151888781518110610c3c57634e487b7160e01b600052603260045260246000fd5b6020026020010151886040518763ffffffff1660e01b8152600401610c66969594939291906127a7565b600060405180830381600087803b158015610c8057600080fd5b505af1158015610c94573d6000803e3d6000fd5b505050507f91ee42a3ae048785d7370790775b6bf02c58c5d7bfb5de80f6d7cb27e46a207e86868381518110610cda57634e487b7160e01b600052603260045260246000fd5b6020026020010151868481518110610d0257634e487b7160e01b600052603260045260246000fd5b6020026020010151868581518110610d2a57634e487b7160e01b600052603260045260246000fd5b602002602001015186604051610d44959493929190612813565b60405180910390a180610d5681612aba565b915050610ba8565b50505050505050565b6040805160208101909152606081526000610db1610dac8460408051808201825260008082526020918201528151808301909252825182529182019181019190915290565b611979565b60408051602081019091529081529392505050565b6060610dfd8260000151600881518110610df057634e487b7160e01b600052603260045260246000fd5b6020026020010151611aab565b92915050565b6000610dfd8260000151600281518110610e2d57634e487b7160e01b600052603260045260246000fd5b60200260200101516118d4565b60408051602081019091526000815281516060919015610dfd57600080610e62600086611b56565b60f81c90506001811480610e7957508060ff166003145b15610f5557600185516002610e8e9190612a31565b610e989190612a50565b67ffffffffffffffff811115610ebe57634e487b7160e01b600052604160045260246000fd5b6040519080825280601f01601f191660200182016040528015610ee8576020820181803683370190505b5092506000610ef8600187611b56565b90508084600081518110610f1c57634e487b7160e01b600052603260045260246000fd5b60200101907effffffffffffffffffffffffffffffffffffffffffffffffffffffffffffff1916908160001a9053506001925050610fc7565b600285516002610f659190612a31565b610f6f9190612a50565b67ffffffffffffffff811115610f9557634e487b7160e01b600052604160045260246000fd5b6040519080825280601f01601f191660200182016040528015610fbf576020820181803683370190505b509250600091505b60ff82165b835181101561105757610ff6610fe560ff851683612a50565b610ff09060026128cf565b87611b56565b84828151811061101657634e487b7160e01b600052603260045260246000fd5b60200101907effffffffffffffffffffffffffffffffffffffffffffffffffffffffffffff1916908160001a9053508061104f81612aba565b915050610fcc565b50505092915050565b6000610dfd8260000151600981518110610e2d57634e487b7160e01b600052603260045260246000fd5b6110ae60405180606001604052806060815260200160608152602001600081525090565b6110d68260000151600681518110610df057634e487b7160e01b600052603260045260246000fd5b60208281018290526040805180820182526000808252908301528051808201909152825181529181019082015261110c81611bf3565b156111215761111a81611979565b82526111dc565b6020820151805160009061113790600190612a50565b67ffffffffffffffff81111561115d57634e487b7160e01b600052604160045260246000fd5b6040519080825280601f01601f191660200182016040528015611187576020820181803683370190505b5090506000808360210191508260200190506111a582828551611c2d565b6040805180820182526000808252602091820152815180830190925284518252808501908201526111d590610dac565b8652505050505b6111e583611060565b604083015250919050565b60408051608081018252600091810182815260608083019390935281526020810191909152600061124c836000015160038151811061123f57634e487b7160e01b600052603260045260246000fd5b6020026020010151611979565b83604001518151811061126f57634e487b7160e01b600052603260045260246000fd5b60200260200101519050604051806040016040528082815260200161129383611979565b90529392505050565b6000610dfd82602001516000815181106112c657634e487b7160e01b600052603260045260246000fd5b6020026020010151611ca7565b6000610dfd8260000151600581518110610e2d57634e487b7160e01b600052603260045260246000fd5b6060610dfd8260000151600781518110610df057634e487b7160e01b600052603260045260246000fd5b60008061135b8460408051808201825260008082526020918201528151808301909252825182529182019181019190915290565b9050600061136882611979565b90506060808560008061137a8b610e3a565b9050805160001415611396576000975050505050505050611646565b60005b865181101561163d5781518311156113bc57600098505050505050505050611646565b6113ec8782815181106113df57634e487b7160e01b600052603260045260246000fd5b6020026020010151611cc1565b95508580519060200120841461140d57600098505050505050505050611646565b61143087828151811061123f57634e487b7160e01b600052603260045260246000fd5b945084516011141561152f5781518314156114a0578c8051906020012061147186601081518110610df057634e487b7160e01b600052603260045260246000fd5b80519060200120141561148f57600198505050505050505050611646565b600098505050505050505050611646565b60008284815181106114c257634e487b7160e01b600052603260045260246000fd5b016020015160f81c905060108111156114e75760009950505050505050505050611646565b61151a868260ff168151811061150d57634e487b7160e01b600052603260045260246000fd5b6020026020010151611d50565b94506115276001856128cf565b93505061162b565b84516002141561148f57600061156961156287600081518110610df057634e487b7160e01b600052603260045260246000fd5b8486611d7e565b835190915061157882866128cf565b14156115db578d805190602001206115aa87600181518110610df057634e487b7160e01b600052603260045260246000fd5b8051906020012014156115c95760019950505050505050505050611646565b60009950505050505050505050611646565b806115f25760009950505050505050505050611646565b6115fc81856128cf565b93506116228660018151811061150d57634e487b7160e01b600052603260045260246000fd5b945061162b9050565b8061163581612aba565b915050611399565b50505050505050505b949350505050565b6000610dfd8260000151600381518110610e2d57634e487b7160e01b600052603260045260246000fd5b6000610dfd8260000151600481518110610e2d57634e487b7160e01b600052603260045260246000fd5b6000610dfd8260000151600081518110610e2d57634e487b7160e01b600052603260045260246000fd5b6060610dfd8260000151600181518110610df057634e487b7160e01b600052603260045260246000fd5b6001546040517f41539d4a000000000000000000000000000000000000000000000000000000008152600481018490526000918291829182916001600160a01b03909116906341539d4a9060240160a06040518083038186803b15801561175c57600080fd5b505afa158015611770573d6000803e3d6000fd5b505050506040513d601f19601f8201168201806040525081019061179491906125fc565b50935050925092506117eb828b6117ab9190612a50565b6040805160208082018f90528183018e9052606082018d905260808083018d90528351808403909101815260a09092019092528051910120908588611ee3565b6118375760405162461bcd60e51b815260206004820152601c60248201527f4678526f6f7454756e6e656c3a20494e56414c49445f4845414445520000000060448201526064016102db565b9998505050505050505050565b6040805160208101909152606081526040518060200160405280611886846020015160018151811061123f57634e487b7160e01b600052603260045260246000fd5b905292915050565b604080518082019091526000808252602082015282518051839081106118c457634e487b7160e01b600052603260045260246000fd5b6020026020010151905092915050565b8051600090158015906118e957508151602110155b6118f257600080fd5b60006119018360200151612059565b905060008184600001516119159190612a50565b905060008083866020015161192a91906128cf565b905080519150602083101561194657826020036101000a820491505b50949350505050565b6060610dfd8260200151600281518110610df057634e487b7160e01b600052603260045260246000fd5b606061198482611bf3565b61198d57600080fd5b6000611998836120de565b905060008167ffffffffffffffff8111156119c357634e487b7160e01b600052604160045260246000fd5b604051908082528060200260200182016040528015611a0857816020015b60408051808201909152600080825260208201528152602001906001900390816119e15790505b5090506000611a1a8560200151612059565b8560200151611a2991906128cf565b90506000805b84811015611aa057611a4083612161565b9150604051806040016040528083815260200184815250848281518110611a7757634e487b7160e01b600052603260045260246000fd5b6020908102919091010152611a8c82846128cf565b925080611a9881612aba565b915050611a2f565b509195945050505050565b8051606090611ab957600080fd5b6000611ac88360200151612059565b90506000818460000151611adc9190612a50565b905060008167ffffffffffffffff811115611b0757634e487b7160e01b600052604160045260246000fd5b6040519080825280601f01601f191660200182016040528015611b31576020820181803683370190505b5090506000816020019050611946848760200151611b4f91906128cf565b8285612223565b6000611b63600284612ad5565b15611bab57601082611b766002866128e7565b81518110611b9457634e487b7160e01b600052603260045260246000fd5b0160200151611ba6919060f81c612ae9565b611be9565b601082611bb96002866128e7565b81518110611bd757634e487b7160e01b600052603260045260246000fd5b0160200151611be9919060f81c6128fb565b60f81b9392505050565b8051600090611c0457506000610b7a565b6020820151805160001a9060c0821015611c2357600092505050610b7a565b5060019392505050565b80611c3757611ca2565b60208110611c6f5782518252611c4e6020846128cf565b9250611c5b6020836128cf565b9150611c68602082612a50565b9050611c37565b60006001611c7e836020612a50565b611c8a90610100612963565b611c949190612a50565b845184518216911916178352505b505050565b8051600090601514611cb857600080fd5b610dfd826118d4565b60606000826000015167ffffffffffffffff811115611cf057634e487b7160e01b600052604160045260246000fd5b6040519080825280601f01601f191660200182016040528015611d1a576020820181803683370190505b509050805160001415611d2e579050610b7a565b6000816020019050611d498460200151828660000151612223565b5092915050565b8051600090602114611d6157600080fd5b60008083602001516001611d7591906128cf565b51949350505050565b60008080611d8b86610e3a565b90506000815167ffffffffffffffff811115611db757634e487b7160e01b600052604160045260246000fd5b6040519080825280601f01601f191660200182016040528015611de1576020820181803683370190505b509050845b8251611df290876128cf565b811015611eb1576000878281518110611e1b57634e487b7160e01b600052603260045260246000fd5b01602001517fff000000000000000000000000000000000000000000000000000000000000001690508083611e508985612a50565b81518110611e6e57634e487b7160e01b600052603260045260246000fd5b60200101907effffffffffffffffffffffffffffffffffffffffffffffffffffffffffffff1916908160001a905350508080611ea990612aba565b915050611de6565b50808051906020012082805190602001201415611ed15781519250611ed6565b600092505b50909150505b9392505050565b600060208251611ef39190612ad5565b15611f405760405162461bcd60e51b815260206004820152601460248201527f496e76616c69642070726f6f66206c656e67746800000000000000000000000060448201526064016102db565b600060208351611f5091906128e7565b9050611f5d816002612963565b8510611fab5760405162461bcd60e51b815260206004820152601560248201527f4c65616620696e64657820697320746f6f20626967000000000000000000000060448201526064016102db565b60008660205b8551811161204b57858101519250611fca600289612ad5565b611fff57604080516020810184905290810184905260600160405160208183030381529060405280519060200120915061202c565b60408051602081018590529081018390526060016040516020818303038152906040528051906020012091505b6120376002896128e7565b97506120446020826128cf565b9050611fb1565b509094149695505050505050565b8051600090811a6080811015612073576000915050610b7a565b60b881108061208e575060c0811080159061208e575060f881105b1561209d576001915050610b7a565b60c08110156120d2576120b2600160b8612a67565b6120bf9060ff1682612a50565b6120ca9060016128cf565b915050610b7a565b6120b2600160f8612a67565b80516000906120ef57506000610b7a565b6000806120ff8460200151612059565b846020015161210e91906128cf565b905060008460000151856020015161212691906128cf565b90505b808210156121585761213a82612161565b61214490836128cf565b91508261215081612aba565b935050612129565b50909392505050565b80516000908190811a608081101561217c5760019150611d49565b60b88110156121a257612190608082612a50565b61219b9060016128cf565b9150611d49565b60c08110156121cf5760b78103600185019450806020036101000a85510460018201810193505050611d49565b60f88110156121e35761219060c082612a50565b60019390930151602084900360f7016101000a90049092017fffffffffffffffffffffffffffffffffffffffffffffffffffffffffffffff0a0192915050565b8061222d57611ca2565b6020811061226557825182526122446020846128cf565b92506122516020836128cf565b915061225e602082612a50565b905061222d565b80611c6f57611ca2565b600082601f83011261227f578081fd5b8135602061229461228f83612883565b612852565b82815281810190858301838502870184018810156122b0578586fd5b855b858110156122ce578135845292840192908401906001016122b2565b5090979650505050505050565b600082601f8301126122eb578081fd5b815160206122fb61228f83612883565b8281528181019085830183850287018401881015612317578586fd5b855b858110156122ce57815184529284019290840190600101612319565b600082601f830112612345578081fd5b813561235361228f826128a7565b818152846020838601011115612367578283fd5b816020850160208301379081016020019190915292915050565b600082601f830112612391578081fd5b815161239f61228f826128a7565b8181528460208386010111156123b3578283fd5b611646826020830160208701612a8a565b6000602082840312156123d5578081fd5b8135611edc81612b4d565b600080600080600060a086880312156123f7578081fd5b855161240281612b4d565b602087015190955067ffffffffffffffff8082111561241f578283fd5b61242b89838a016122db565b95506040880151915080821115612440578283fd5b61244c89838a016122db565b94506060880151915080821115612461578283fd5b61246d89838a016122db565b93506080880151915080821115612482578283fd5b5061248f88828901612381565b9150509295509295909350565b6000806000806000608086880312156124b3578081fd5b85356124be81612b4d565b945060208601356124ce81612b4d565b935060408601359250606086013567ffffffffffffffff808211156124f1578283fd5b818801915088601f830112612504578283fd5b813581811115612512578384fd5b896020828501011115612523578384fd5b9699959850939650602001949392505050565b600080600080600060a0868803121561254d578081fd5b853561255881612b4d565b9450602086013567ffffffffffffffff80821115612574578283fd5b61258089838a0161226f565b95506040880135915080821115612595578283fd5b6125a189838a0161226f565b945060608801359150808211156125b6578283fd5b6125c289838a0161226f565b935060808801359150808211156125d7578283fd5b5061248f88828901612335565b6000602082840312156125f5578081fd5b5035919050565b600080600080600060a08688031215612613578081fd5b85519450602086015193506040860151925060608601519150608086015161263a81612b4d565b809150509295509295909350565b600060208284031215612659578081fd5b813567ffffffffffffffff81111561266f578182fd5b61164684828501612335565b60006020828403121561268c578081fd5b815167ffffffffffffffff8111156126a2578182fd5b61164684828501612381565b6000815180845260208085019450808401835b838110156126dd578151875295820195908201906001016126c1565b509495945050505050565b60008151808452612700816020860160208601612a8a565b601f01601f19169290920160200192915050565b6000848252835161272c816020850160208801612a8a565b60209201918201929092526040019392505050565b60006001600160a01b03808916835280881660208401525060c0604083015261276d60c08301876126ae565b828103606084015261277f81876126ae565b9050828103608084015261279381866126ae565b905082810360a084015261183781856126e8565b60006001600160a01b03808916835280881660208401525085604083015284606083015283608083015260c060a08301526127e560c08301846126e8565b98975050505050505050565b60006001600160a01b03841682526040602083015261164660408301846126e8565b60006001600160a01b038716825285602083015284604083015283606083015260a0608083015261284760a08301846126e8565b979650505050505050565b604051601f8201601f1916810167ffffffffffffffff8111828210171561287b5761287b612b37565b604052919050565b600067ffffffffffffffff82111561289d5761289d612b37565b5060209081020190565b600067ffffffffffffffff8211156128c1576128c1612b37565b50601f01601f191660200190565b600082198211156128e2576128e2612b0b565b500190565b6000826128f6576128f6612b21565b500490565b600060ff83168061290e5761290e612b21565b8060ff84160491505092915050565b80825b600180861161292f575061295a565b81870482111561294157612941612b0b565b8086161561294e57918102915b9490941c938002612920565b94509492505050565b6000611edc600019848460008261297c57506001611edc565b8161298957506000611edc565b816001811461299f57600281146129a9576129d6565b6001915050611edc565b60ff8411156129ba576129ba612b0b565b6001841b9150848211156129d0576129d0612b0b565b50611edc565b5060208310610133831016604e8410600b8410161715612a09575081810a83811115612a0457612a04612b0b565b611edc565b612a16848484600161291d565b808604821115612a2857612a28612b0b565b02949350505050565b6000816000190483118215151615612a4b57612a4b612b0b565b500290565b600082821015612a6257612a62612b0b565b500390565b600060ff821660ff841680821015612a8157612a81612b0b565b90039392505050565b60005b83811015612aa5578181015183820152602001612a8d565b83811115612ab4576000848401525b50505050565b6000600019821415612ace57612ace612b0b565b5060010190565b600082612ae457612ae4612b21565b500690565b600060ff831680612afc57612afc612b21565b8060ff84160691505092915050565b634e487b7160e01b600052601160045260246000fd5b634e487b7160e01b600052601260045260246000fd5b634e487b7160e01b600052604160045260246000fd5b6001600160a01b0381168114612b6257600080fd5b5056fea2646970667358221220a3940e2abb8572d565f240f920833c83669543ef55cfd39073a58be78509887a64736f6c63430008020033",
  "devdoc": {
    "kind": "dev",
    "methods": {
      "owner()": {
        "details": "Returns the address of the current owner."
      },
      "receiveMessage(bytes)": {
        "details": "This function verifies if the transaction actually happened on child chain",
        "params": {
          "inputData": "RLP encoded data of the reference tx containing following list of fields  0 - headerNumber - Checkpoint header block number containing the reference tx  1 - blockProof - Proof that the block header (in the child chain) is a leaf in the submitted merkle root  2 - blockNumber - Block number containing the reference tx on child chain  3 - blockTime - Reference tx block time  4 - txRoot - Transactions root of block  5 - receiptRoot - Receipts root of block  6 - receipt - Receipt of the reference transaction  7 - receiptProof - Merkle proof of the reference receipt  8 - branchMask - 32 bits denoting the path of receipt in merkle tree  9 - receiptLogIndex - Log Index to read from the receipt"
        }
      },
      "renounceOwnership()": {
        "details": "Leaves the contract without owner. It will not be possible to call `onlyOwner` functions anymore. Can only be called by the current owner. NOTE: Renouncing ownership will leave the contract without an owner, thereby removing any functionality that is only available to the owner."
      },
      "transferOwnership(address)": {
        "details": "Transfers ownership of the contract to a new account (`newOwner`). Can only be called by the current owner."
      }
    },
    "version": 1
  },
  "userdoc": {
    "kind": "user",
    "methods": {
      "receiveMessage(bytes)": {
        "notice": "receive message from  L2 to L1, validated by proof"
      }
    },
    "version": 1
  },
  "storageLayout": {
    "storage": [
      {
        "astId": 5070,
        "contract": "src/solc_0.8/polygon/root/land/LandTunnel.sol:LandTunnel",
        "label": "fxRoot",
        "offset": 0,
        "slot": "0",
        "type": "t_contract(IFxStateSender)5020"
      },
      {
        "astId": 5073,
        "contract": "src/solc_0.8/polygon/root/land/LandTunnel.sol:LandTunnel",
        "label": "checkpointManager",
        "offset": 0,
        "slot": "1",
        "type": "t_contract(ICheckpointManager)5038"
      },
      {
        "astId": 5075,
        "contract": "src/solc_0.8/polygon/root/land/LandTunnel.sol:LandTunnel",
        "label": "fxChildTunnel",
        "offset": 0,
        "slot": "2",
        "type": "t_address"
      },
      {
        "astId": 5079,
        "contract": "src/solc_0.8/polygon/root/land/LandTunnel.sol:LandTunnel",
        "label": "processedExits",
        "offset": 0,
        "slot": "3",
        "type": "t_mapping(t_bytes32,t_bool)"
      },
      {
        "astId": 7,
        "contract": "src/solc_0.8/polygon/root/land/LandTunnel.sol:LandTunnel",
        "label": "_owner",
        "offset": 0,
        "slot": "4",
        "type": "t_address"
      },
      {
        "astId": 31085,
        "contract": "src/solc_0.8/polygon/root/land/LandTunnel.sol:LandTunnel",
        "label": "rootToken",
        "offset": 0,
        "slot": "5",
        "type": "t_address"
      }
    ],
    "types": {
      "t_address": {
        "encoding": "inplace",
        "label": "address",
        "numberOfBytes": "20"
      },
      "t_bool": {
        "encoding": "inplace",
        "label": "bool",
        "numberOfBytes": "1"
      },
      "t_bytes32": {
        "encoding": "inplace",
        "label": "bytes32",
        "numberOfBytes": "32"
      },
      "t_contract(ICheckpointManager)5038": {
        "encoding": "inplace",
        "label": "contract ICheckpointManager",
        "numberOfBytes": "20"
      },
      "t_contract(IFxStateSender)5020": {
        "encoding": "inplace",
        "label": "contract IFxStateSender",
        "numberOfBytes": "20"
      },
      "t_mapping(t_bytes32,t_bool)": {
        "encoding": "mapping",
        "key": "t_bytes32",
        "label": "mapping(bytes32 => bool)",
        "numberOfBytes": "32",
        "value": "t_bool"
      }
    }
  }
}