{
  "address": "0x4F8A2a9B065243F1FC3C969aB2564fD6aBC79e9F",
  "abi": [
    {
      "inputs": [
        {
          "internalType": "address",
          "name": "landAddress",
          "type": "address"
        },
        {
          "internalType": "address",
          "name": "sandContractAddress",
          "type": "address"
        },
        {
          "internalType": "address",
          "name": "initialMetaTx",
          "type": "address"
        },
        {
          "internalType": "address",
          "name": "admin",
          "type": "address"
        },
        {
          "internalType": "address payable",
          "name": "initialWalletAddress",
          "type": "address"
        },
        {
          "internalType": "bytes32",
          "name": "merkleRoot",
          "type": "bytes32"
        },
        {
          "internalType": "uint256",
          "name": "expiryTime",
          "type": "uint256"
        },
        {
          "internalType": "address",
          "name": "initialSigningWallet",
          "type": "address"
        },
        {
          "internalType": "uint256",
          "name": "initialMaxCommissionRate",
          "type": "uint256"
        },
        {
          "internalType": "address",
          "name": "estate",
          "type": "address"
        },
        {
          "internalType": "address",
          "name": "asset",
          "type": "address"
        },
        {
          "internalType": "address",
          "name": "feeDistributor",
          "type": "address"
        }
      ],
      "stateMutability": "nonpayable",
      "type": "constructor"
    },
    {
      "anonymous": false,
      "inputs": [
        {
          "indexed": false,
          "internalType": "address",
          "name": "oldAdmin",
          "type": "address"
        },
        {
          "indexed": false,
          "internalType": "address",
          "name": "newAdmin",
          "type": "address"
        }
      ],
      "name": "AdminChanged",
      "type": "event"
    },
    {
      "anonymous": false,
      "inputs": [
        {
          "indexed": true,
          "internalType": "address",
          "name": "buyer",
          "type": "address"
        },
        {
          "indexed": true,
          "internalType": "address",
          "name": "to",
          "type": "address"
        },
        {
          "indexed": true,
          "internalType": "uint256",
          "name": "topCornerId",
          "type": "uint256"
        },
        {
          "indexed": false,
          "internalType": "uint256",
          "name": "size",
          "type": "uint256"
        },
        {
          "indexed": false,
          "internalType": "uint256",
          "name": "price",
          "type": "uint256"
        },
        {
          "indexed": false,
          "internalType": "address",
          "name": "token",
          "type": "address"
        },
        {
          "indexed": false,
          "internalType": "uint256",
          "name": "amountPaid",
          "type": "uint256"
        }
      ],
      "name": "LandQuadPurchased",
      "type": "event"
    },
    {
      "anonymous": false,
      "inputs": [
        {
          "indexed": false,
          "internalType": "address",
          "name": "metaTransactionProcessor",
          "type": "address"
        },
        {
          "indexed": false,
          "internalType": "bool",
          "name": "enabled",
          "type": "bool"
        }
      ],
      "name": "MetaTransactionProcessor",
      "type": "event"
    },
    {
      "anonymous": false,
      "inputs": [
        {
          "indexed": true,
          "internalType": "address",
          "name": "referrer",
          "type": "address"
        },
        {
          "indexed": true,
          "internalType": "address",
          "name": "referee",
          "type": "address"
        },
        {
          "indexed": true,
          "internalType": "address",
          "name": "token",
          "type": "address"
        },
        {
          "indexed": false,
          "internalType": "uint256",
          "name": "amount",
          "type": "uint256"
        },
        {
          "indexed": false,
          "internalType": "uint256",
          "name": "commission",
          "type": "uint256"
        },
        {
          "indexed": false,
          "internalType": "uint256",
          "name": "commissionRate",
          "type": "uint256"
        }
      ],
      "name": "ReferralUsed",
      "type": "event"
    },
    {
      "inputs": [
        {
          "internalType": "address",
          "name": "buyer",
          "type": "address"
        },
        {
          "internalType": "address",
          "name": "to",
          "type": "address"
        },
        {
          "internalType": "address",
          "name": "reserved",
          "type": "address"
        },
        {
          "internalType": "uint256",
          "name": "x",
          "type": "uint256"
        },
        {
          "internalType": "uint256",
          "name": "y",
          "type": "uint256"
        },
        {
          "internalType": "uint256",
          "name": "size",
          "type": "uint256"
        },
        {
          "internalType": "uint256",
          "name": "priceInSand",
          "type": "uint256"
        },
        {
          "internalType": "uint256",
          "name": "adjustedPriceInSand",
          "type": "uint256"
        },
        {
          "internalType": "bytes32",
          "name": "salt",
          "type": "bytes32"
        },
        {
          "internalType": "uint256[]",
          "name": "assetIds",
          "type": "uint256[]"
        },
        {
          "internalType": "bytes32[]",
          "name": "proof",
          "type": "bytes32[]"
        },
        {
          "internalType": "bytes",
          "name": "referral",
          "type": "bytes"
        }
      ],
      "name": "buyLandWithSand",
      "outputs": [],
      "stateMutability": "nonpayable",
      "type": "function"
    },
    {
      "inputs": [
        {
          "internalType": "address",
          "name": "newAdmin",
          "type": "address"
        }
      ],
      "name": "changeAdmin",
      "outputs": [],
      "stateMutability": "nonpayable",
      "type": "function"
    },
    {
      "inputs": [
        {
          "internalType": "bytes",
          "name": "referral",
          "type": "bytes"
        }
      ],
      "name": "decodeReferral",
      "outputs": [
        {
          "internalType": "bytes",
          "name": "",
          "type": "bytes"
        },
        {
          "internalType": "address",
          "name": "",
          "type": "address"
        },
        {
          "internalType": "address",
          "name": "",
          "type": "address"
        },
        {
          "internalType": "uint256",
          "name": "",
          "type": "uint256"
        },
        {
          "internalType": "uint256",
          "name": "",
          "type": "uint256"
        }
      ],
      "stateMutability": "pure",
      "type": "function"
    },
    {
      "inputs": [],
      "name": "getAdmin",
      "outputs": [
        {
          "internalType": "address",
          "name": "",
          "type": "address"
        }
      ],
      "stateMutability": "view",
      "type": "function"
    },
    {
      "inputs": [],
      "name": "getExpiryTime",
      "outputs": [
        {
          "internalType": "uint256",
          "name": "",
          "type": "uint256"
        }
      ],
      "stateMutability": "view",
      "type": "function"
    },
    {
      "inputs": [],
      "name": "getMaxCommisionRate",
      "outputs": [
        {
          "internalType": "uint256",
          "name": "",
          "type": "uint256"
        }
      ],
      "stateMutability": "view",
      "type": "function"
    },
    {
      "inputs": [],
      "name": "getMerkleRoot",
      "outputs": [
        {
          "internalType": "bytes32",
          "name": "",
          "type": "bytes32"
        }
      ],
      "stateMutability": "view",
      "type": "function"
    },
    {
      "inputs": [],
      "name": "getSandMultiplier",
      "outputs": [
        {
          "internalType": "uint256",
          "name": "",
          "type": "uint256"
        }
      ],
      "stateMutability": "view",
      "type": "function"
    },
    {
      "inputs": [],
      "name": "getSigningWallet",
      "outputs": [
        {
          "internalType": "address",
          "name": "",
          "type": "address"
        }
      ],
      "stateMutability": "view",
      "type": "function"
    },
    {
      "inputs": [
        {
          "internalType": "address",
          "name": "who",
          "type": "address"
        }
      ],
      "name": "isMetaTransactionProcessor",
      "outputs": [
        {
          "internalType": "bool",
          "name": "",
          "type": "bool"
        }
      ],
      "stateMutability": "view",
      "type": "function"
    },
    {
      "inputs": [
        {
          "internalType": "bytes",
          "name": "signature",
          "type": "bytes"
        },
        {
          "internalType": "address",
          "name": "referrer",
          "type": "address"
        },
        {
          "internalType": "address",
          "name": "referee",
          "type": "address"
        },
        {
          "internalType": "uint256",
          "name": "expiryTime",
          "type": "uint256"
        },
        {
          "internalType": "uint256",
          "name": "commissionRate",
          "type": "uint256"
        }
      ],
      "name": "isReferralValid",
      "outputs": [
        {
          "internalType": "bool",
          "name": "",
          "type": "bool"
        }
      ],
      "stateMutability": "view",
      "type": "function"
    },
    {
      "inputs": [
        {
          "internalType": "address",
          "name": "",
          "type": "address"
        },
        {
          "internalType": "address",
          "name": "",
          "type": "address"
        },
        {
          "internalType": "uint256[]",
          "name": "",
          "type": "uint256[]"
        },
        {
          "internalType": "uint256[]",
          "name": "",
          "type": "uint256[]"
        },
        {
          "internalType": "bytes",
          "name": "",
          "type": "bytes"
        }
      ],
      "name": "onERC1155BatchReceived",
      "outputs": [
        {
          "internalType": "bytes4",
          "name": "",
          "type": "bytes4"
        }
      ],
      "stateMutability": "pure",
      "type": "function"
    },
    {
      "inputs": [
        {
          "internalType": "address",
          "name": "",
          "type": "address"
        },
        {
          "internalType": "address",
          "name": "",
          "type": "address"
        },
        {
          "internalType": "uint256",
          "name": "",
          "type": "uint256"
        },
        {
          "internalType": "uint256",
          "name": "",
          "type": "uint256"
        },
        {
          "internalType": "bytes",
          "name": "",
          "type": "bytes"
        }
      ],
      "name": "onERC1155Received",
      "outputs": [
        {
          "internalType": "bytes4",
          "name": "",
          "type": "bytes4"
        }
      ],
      "stateMutability": "pure",
      "type": "function"
    },
    {
      "inputs": [
        {
          "internalType": "uint256",
          "name": "newMultiplier",
          "type": "uint256"
        }
      ],
      "name": "rebalanceSand",
      "outputs": [],
      "stateMutability": "nonpayable",
      "type": "function"
    },
    {
      "inputs": [
        {
          "internalType": "address",
          "name": "metaTransactionProcessor",
          "type": "address"
        },
        {
          "internalType": "bool",
          "name": "enabled",
          "type": "bool"
        }
      ],
      "name": "setMetaTransactionProcessor",
      "outputs": [],
      "stateMutability": "nonpayable",
      "type": "function"
    },
    {
      "inputs": [
        {
          "internalType": "address payable",
          "name": "newWallet",
          "type": "address"
        }
      ],
      "name": "setReceivingWallet",
      "outputs": [],
      "stateMutability": "nonpayable",
      "type": "function"
    },
    {
      "inputs": [
        {
          "internalType": "uint256",
          "name": "newMaxCommissionRate",
          "type": "uint256"
        }
      ],
      "name": "updateMaxCommissionRate",
      "outputs": [],
      "stateMutability": "nonpayable",
      "type": "function"
    },
    {
      "inputs": [
        {
          "internalType": "address",
          "name": "newSigningWallet",
          "type": "address"
        }
      ],
      "name": "updateSigningWallet",
      "outputs": [],
      "stateMutability": "nonpayable",
      "type": "function"
    },
    {
      "inputs": [
        {
          "internalType": "address",
          "name": "to",
          "type": "address"
        },
        {
          "internalType": "uint256[]",
          "name": "assetIds",
          "type": "uint256[]"
        },
        {
          "internalType": "uint256[]",
          "name": "values",
          "type": "uint256[]"
        }
      ],
      "name": "withdrawAssets",
      "outputs": [],
      "stateMutability": "nonpayable",
      "type": "function"
    }
  ],
  "transactionHash": "0x1206c3d702b46eaae2f3b018c474729dee868ad889c63dc9374c7f44d0ec362a",
  "args": [
    "0x85F817921665fF27b5F3265b3B0b1B19402ed270",
    "0xccBF2aA6b762ed5fd6e2d819Ce16cBA9A32e793B",
    "0xccBF2aA6b762ed5fd6e2d819Ce16cBA9A32e793B",
    "0x39D01ecc951C2c1f20ba0549e62212659c4d1e06",
    "0xF22455c7F2a81E197AecD951F588a9B650f5b282",
    "0x9608563eba4e6839449699f79857c287ff09c66e01823a831d6a0b9044fc0788",
    1657285200,
    "0xB7060D3FeCAC3AE1F0A0AA416E3e8E472257950e",
    2000,
    "0x0000000000000000000000000000000000000000",
    "0x6736fB8067a9C2d109A68264C83Da4b5FF770230",
    "0x0977f5050c8158b277F93216f851e83a467ED9c9"
  ],
  "linkedData": [
    {
      "x": 168,
      "y": 396,
      "size": 1,
      "price": "1011000000000000000000",
      "reserved": "",
      "salt": "0xdbc200554788643dc3c223e8fe7c9a5ce6ac3dcd98763f07dc388e8f201aa1b5",
      "assetIds": []
    },
    {
      "x": 168,
      "y": 397,
      "size": 1,
      "price": "1011000000000000000000",
      "reserved": "",
      "salt": "0x85f835b3d70a94090f5d21198f98f83ef1ab980a5510651cfc32f95d203b1ade",
      "assetIds": []
    },
    {
      "x": 168,
      "y": 398,
      "size": 1,
      "price": "1011000000000000000000",
      "reserved": "",
      "salt": "0x8fcee42ed9e3ab978ef3ce2b94b46674283841d9b928e038beb35764fc278b83",
      "assetIds": []
    },
    {
      "x": 168,
      "y": 399,
      "size": 1,
      "price": "1011000000000000000000",
      "reserved": "",
      "salt": "0x298fa71423a4f2012ee06f57aa6477517919dc698569d0dc98829cbf49be596f",
      "assetIds": []
    },
    {
      "x": 168,
      "y": 400,
      "size": 1,
      "price": "1011000000000000000000",
      "reserved": "",
      "salt": "0x5249158f0cda33c55ca9c5ac88c5d9d03583668c33382c0d4bf9aee4e60be4cb",
      "assetIds": []
    },
    {
      "x": 168,
      "y": 401,
      "size": 1,
      "price": "1011000000000000000000",
      "reserved": "",
      "salt": "0xa2329bf2a40f77fef93d420130130cd7bda9648ab7803eb15773f1d3ac95f4ea",
      "assetIds": []
    },
    {
      "x": 168,
      "y": 402,
      "size": 1,
      "price": "1011000000000000000000",
      "reserved": "",
      "salt": "0xd9bc2e47b4484b96a2c5cac6fdf27c2e65cad10dd43c9757d6eb548ea63d51b0",
      "assetIds": []
    },
    {
      "x": 168,
      "y": 403,
      "size": 1,
      "price": "1011000000000000000000",
      "reserved": "0x7a9fe22691c811ea339d9b73150e6911a5343dca",
      "salt": "0xf0098f75ddf2a901864b6dabd7c67d465292638b2c6459f2ae0f68d14e984e9e",
      "assetIds": []
    },
    {
      "x": 168,
      "y": 404,
      "size": 1,
      "price": "1011000000000000000000",
      "reserved": "",
      "salt": "0xad8ca7a7238da604ee5aacb64fb1853ef7e8fd4f510ec437f8601e87d7553503",
      "assetIds": []
    },
    {
      "x": 168,
      "y": 405,
      "size": 1,
      "price": "1011000000000000000000",
      "reserved": "",
      "salt": "0x07df305b3b394b9e498ec8e254712fcffcadbb3fce45082c1a54d1e87ddd6ef1",
      "assetIds": []
    },
    {
      "x": 168,
      "y": 406,
      "size": 1,
      "price": "1011000000000000000000",
      "reserved": "",
      "salt": "0x28eb042b5e5a978bbb4afd15b70f879b9f6dc73cfe3e2ee18644fe808aeeb7bd",
      "assetIds": []
    },
    {
      "x": 168,
      "y": 407,
      "size": 1,
      "price": "1011000000000000000000",
      "reserved": "",
      "salt": "0x175ccfe792858b68344c95ee80ec1cc80bd56d143a741e5bbd5c2907c5965dcb",
      "assetIds": []
    },
    {
      "x": 169,
      "y": 396,
      "size": 1,
      "price": "1011000000000000000000",
      "reserved": "",
      "salt": "0xf2d30c28bcefbd18a1ec854c4ee7e42e359c1b89490c6b2c56357bc0c421c989",
      "assetIds": []
    },
    {
      "x": 169,
      "y": 397,
      "size": 1,
      "price": "1011000000000000000000",
      "reserved": "0x7a9fe22691c811ea339d9b73150e6911a5343dca",
      "salt": "0x0071564da276ee7de78d9d2fe85f8ece670c4efd5f058ea96aa26243c0c3bef2",
      "assetIds": []
    },
    {
      "x": 169,
      "y": 398,
      "size": 1,
      "price": "1011000000000000000000",
      "reserved": "",
      "salt": "0xb1ea0f00a4199efdffecbe265ba6ea680eec050525df828358b0a260c98c07d7",
      "assetIds": []
    },
    {
      "x": 169,
      "y": 399,
      "size": 1,
      "price": "1011000000000000000000",
      "reserved": "",
      "salt": "0x30cb94a89c1308941c97b36d4de121d4ddb495579ae539df499f664c3725f294",
      "assetIds": []
    },
    {
      "x": 169,
      "y": 400,
      "size": 1,
      "price": "1011000000000000000000",
      "reserved": "0x7a9fe22691c811ea339d9b73150e6911a5343dca",
      "salt": "0xfd40bb2208488160c415fa6998b9a616b5a572c7cc51a29ebd4f7a3160e739e7",
      "assetIds": []
    },
    {
      "x": 169,
      "y": 401,
      "size": 1,
      "price": "1011000000000000000000",
      "reserved": "",
      "salt": "0xd0fcef962bccd34104fcd3c242c90a368a117f60ef5e9b7b49a5cee2d7fe2cc2",
      "assetIds": []
    },
    {
      "x": 169,
      "y": 402,
      "size": 1,
      "price": "1011000000000000000000",
      "reserved": "",
      "salt": "0x73907179ca2a23c635b4dca55237b6cfd89ecee918e04338e0c8e8968a80d4df",
      "assetIds": []
    },
    {
      "x": 169,
      "y": 403,
      "size": 1,
      "price": "1011000000000000000000",
      "reserved": "",
      "salt": "0x90acf862e36372811b7c9659e82d434b32c0812b5db673075c3d772a9729a641",
      "assetIds": []
    },
    {
      "x": 169,
      "y": 404,
      "size": 1,
      "price": "1011000000000000000000",
      "reserved": "",
      "salt": "0x5d0eade37218a4610afc4434330f61358955233c8ba47190074700ddb5073001",
      "assetIds": []
    },
    {
      "x": 169,
      "y": 405,
      "size": 1,
      "price": "1011000000000000000000",
      "reserved": "",
      "salt": "0x97763ac0fc014c9d54d178991e39f65f1c5b5029d7d024c0d427c78d92e83d58",
      "assetIds": []
    },
    {
      "x": 169,
      "y": 406,
      "size": 1,
      "price": "1011000000000000000000",
      "reserved": "",
      "salt": "0x8dc88bb37495730a00eb42d3f5d9b4d62396f0c08e000a3e81d128a399593436",
      "assetIds": []
    },
    {
      "x": 169,
      "y": 407,
      "size": 1,
      "price": "1011000000000000000000",
      "reserved": "",
      "salt": "0x7acc02fe964a280b1cf7131358937ac69a6971d37f712e0e96bd8375fbf4590e",
      "assetIds": []
    },
    {
      "x": 170,
      "y": 384,
      "size": 1,
      "price": "1011000000000000000000",
      "reserved": "0x7a9fe22691c811ea339d9b73150e6911a5343dca",
      "salt": "0x79f8df2e341b4e89aabc4a3e01a10f0dd54d895776ae2eed2b6a38c9954163a1",
      "assetIds": []
    },
    {
      "x": 170,
      "y": 385,
      "size": 1,
      "price": "1011000000000000000000",
      "reserved": "",
      "salt": "0xc553c2e45215a69b08eaa378e5fc7b554073ea36a79e709a102dc8bd63175d00",
      "assetIds": []
    },
    {
      "x": 170,
      "y": 386,
      "size": 1,
      "price": "1011000000000000000000",
      "reserved": "",
      "salt": "0x4bdc29b63ecf6e8c0dc0f2ff01db56712127e1cd50fce34a62fb5a06fa462e78",
      "assetIds": []
    },
    {
      "x": 170,
      "y": 387,
      "size": 1,
      "price": "1011000000000000000000",
      "reserved": "",
      "salt": "0x761292cd1f0142bfbf8a2dbe0e9d342c7591c17dfefe42834ad5182e5897c4c2",
      "assetIds": []
    },
    {
      "x": 170,
      "y": 388,
      "size": 1,
      "price": "1011000000000000000000",
      "reserved": "",
      "salt": "0x26f6ecbbf8f0fbd000f7d3f66f14124f6d72ddd63b31cbe428ef60a27e9bb459",
      "assetIds": []
    },
    {
      "x": 170,
      "y": 389,
      "size": 1,
      "price": "1011000000000000000000",
      "reserved": "",
      "salt": "0x9719b2bdd3d8f992b30f7662bab90da228368f67c6fc6a34e3f5d2c147d77454",
      "assetIds": []
    },
    {
      "x": 170,
      "y": 390,
      "size": 1,
      "price": "1011000000000000000000",
      "reserved": "",
      "salt": "0xd01f72fa70e2c966727d0694db16baa3eaeaf66a2d27794cc7d96f18567fcb25",
      "assetIds": []
    },
    {
      "x": 170,
      "y": 391,
      "size": 1,
      "price": "1011000000000000000000",
      "reserved": "",
      "salt": "0x5a76d988e58336478ab883711ab25cad45d1b51c3587b63103f337dce6b9c036",
      "assetIds": []
    },
    {
      "x": 170,
      "y": 392,
      "size": 1,
      "price": "1011000000000000000000",
      "reserved": "",
      "salt": "0xeb5caf41eb4ca26114d9f76f004a0077e12f52b49090757f6adcffdd9a07c2a7",
      "assetIds": []
    },
    {
      "x": 170,
      "y": 393,
      "size": 1,
      "price": "1011000000000000000000",
      "reserved": "0x7a9fe22691c811ea339d9b73150e6911a5343dca",
      "salt": "0x25923554fd65d6eb21364332a55d735e0fad3958637565b2e871fff14bae8e7a",
      "assetIds": []
    },
    {
      "x": 170,
      "y": 394,
      "size": 1,
      "price": "1011000000000000000000",
      "reserved": "",
      "salt": "0x0f834748b512792a76ae48e39fef1e1cd3592f80e92c3bee25d1f67dcf8135b6",
      "assetIds": []
    },
    {
      "x": 170,
      "y": 395,
      "size": 1,
      "price": "1011000000000000000000",
      "reserved": "",
      "salt": "0x1a3a24470981413d17ac7eed110acef217f7b57e9e153cbb46108b3f6c3a3a02",
      "assetIds": []
    },
    {
      "x": 170,
      "y": 396,
      "size": 1,
      "price": "1011000000000000000000",
      "reserved": "",
      "salt": "0x3797d903eacb50cd5c2fcd9be51723c0cf0034a2dbedeed685fd6a082c7b5abc",
      "assetIds": []
    },
    {
      "x": 170,
      "y": 397,
      "size": 1,
      "price": "1011000000000000000000",
      "reserved": "",
      "salt": "0x6c6cb1960e858a32278a1d3760522a7fe12391bb3912f5f7cb5aeb645a31cdf6",
      "assetIds": []
    },
    {
      "x": 170,
      "y": 398,
      "size": 1,
      "price": "1011000000000000000000",
      "reserved": "",
      "salt": "0x7d137eaf4139d134077def37f4f77fefaacd312f35b4a6238dad66d658628ca0",
      "assetIds": []
    },
    {
      "x": 170,
      "y": 399,
      "size": 1,
      "price": "1011000000000000000000",
      "reserved": "",
      "salt": "0x6f4b33c5f320520eab9c652ac7163faa6a57833a0ff51e69b6eaf8931f6e701b",
      "assetIds": []
    },
    {
      "x": 170,
      "y": 400,
      "size": 1,
      "price": "1011000000000000000000",
      "reserved": "",
      "salt": "0xd32f168a64f17fe8a706a17d57998c41a629237ddb6dc69eaa302383a7266dbc",
      "assetIds": []
    },
    {
      "x": 170,
      "y": 401,
      "size": 1,
      "price": "1011000000000000000000",
      "reserved": "",
      "salt": "0x0e9551431c29cd5a466637dafa69ac8ca127077ce477aacdc5c887786573fa8e",
      "assetIds": []
    },
    {
      "x": 170,
      "y": 402,
      "size": 1,
      "price": "1011000000000000000000",
      "reserved": "",
      "salt": "0xb747eadc15737943e1730157d6c09fd0983575ca1243c35a58b566ec7e0d7732",
      "assetIds": []
    },
    {
      "x": 170,
      "y": 403,
      "size": 1,
      "price": "1011000000000000000000",
      "reserved": "",
      "salt": "0x5d32476fc9c75b62a69b15a6ac5ca85d5cdc026475b00218177d0a2881736d0a",
      "assetIds": []
    },
    {
      "x": 170,
      "y": 404,
      "size": 1,
      "price": "1011000000000000000000",
      "reserved": "",
      "salt": "0x3618f8fa2cc6455f806035638c7f7b41f0e25c51e14c74ddb71ebe7148792912",
      "assetIds": []
    },
    {
      "x": 170,
      "y": 405,
      "size": 1,
      "price": "1011000000000000000000",
      "reserved": "",
      "salt": "0x10e101ef626f589b21d98e43fbf565c09a53b6d41025ee031cfc55c3fb0d85f1",
      "assetIds": []
    },
    {
      "x": 170,
      "y": 406,
      "size": 1,
      "price": "1011000000000000000000",
      "reserved": "0x7a9fe22691c811ea339d9b73150e6911a5343dca",
      "salt": "0x7bd41e33d1454131344e98f2fcd443b2d406abf305ec50e5e4789ecb4a2711db",
      "assetIds": []
    },
    {
      "x": 170,
      "y": 407,
      "size": 1,
      "price": "1011000000000000000000",
      "reserved": "",
      "salt": "0xe4656e89f782fa2197b619445b99bf8d2c20d2149ca62e610114e8238b164e71",
      "assetIds": []
    },
    {
      "x": 171,
      "y": 384,
      "size": 1,
      "price": "1011000000000000000000",
      "reserved": "",
      "salt": "0x81f052dcee642fff5e41272735b26b618e28651b50f6843898cacd0740217c34",
      "assetIds": []
    },
    {
      "x": 171,
      "y": 385,
      "size": 1,
      "price": "1011000000000000000000",
      "reserved": "",
      "salt": "0xc8d918f482e2ac865246e8eaa7b8c0178c3c523f22cab228e913c746a55aa91b",
      "assetIds": []
    },
    {
      "x": 171,
      "y": 386,
      "size": 1,
      "price": "1011000000000000000000",
      "reserved": "",
      "salt": "0x1a4dc925fc287e1fdc3f5721412c1f8ad26af1ed1d69d463db3a98df5c37105b",
      "assetIds": []
    },
    {
      "x": 171,
      "y": 387,
      "size": 1,
      "price": "1011000000000000000000",
      "reserved": "0x7a9fe22691c811ea339d9b73150e6911a5343dca",
      "salt": "0x8d427769a9623cce454b9c2565cad515318dba649abc9b4ddf54c1e26e21ee32",
      "assetIds": []
    },
    {
      "x": 171,
      "y": 388,
      "size": 1,
      "price": "1011000000000000000000",
      "reserved": "",
      "salt": "0x974d0f762e00d7be0d652f408e3c56a5522fa1c5418e3aa42b2deb91d58ccd78",
      "assetIds": []
    },
    {
      "x": 171,
      "y": 389,
      "size": 1,
      "price": "1011000000000000000000",
      "reserved": "",
      "salt": "0xa53f8abe999a833ee5a141fd82df51cab5978247734440ee90e82499d8b89041",
      "assetIds": []
    },
    {
      "x": 171,
      "y": 390,
      "size": 1,
      "price": "1011000000000000000000",
      "reserved": "",
      "salt": "0xf2af4f39a3f6fd49f7ea5c72ade7191f26a4304c4b245c7515672eaf2cbb4a04",
      "assetIds": []
    },
    {
      "x": 171,
      "y": 391,
      "size": 1,
      "price": "1011000000000000000000",
      "reserved": "",
      "salt": "0x2167f048343f7f9bdc08a34ff58234fecdefd2b58c40e75730e639c739f8a9e4",
      "assetIds": []
    },
    {
      "x": 171,
      "y": 392,
      "size": 1,
      "price": "1011000000000000000000",
      "reserved": "",
      "salt": "0x37ba2f0cd32bf33294d541f8dd5593678f925cd33ef7b8dc17fe3f12bf7accd1",
      "assetIds": []
    },
    {
      "x": 171,
      "y": 396,
      "size": 1,
      "price": "1011000000000000000000",
      "reserved": "",
      "salt": "0xfccee697d993ddb20000cebaf87897cceda046879ea9c9cb1ab19f666ead689b",
      "assetIds": []
    },
    {
      "x": 171,
      "y": 397,
      "size": 1,
      "price": "1011000000000000000000",
      "reserved": "",
      "salt": "0x2fd7edf0603b06edafc20f5f1cc012fc61317e99e776400a09faaadcca95ff5c",
      "assetIds": []
    },
    {
      "x": 171,
      "y": 398,
      "size": 1,
      "price": "1011000000000000000000",
      "reserved": "",
      "salt": "0x12939090fe0691e75be42339f9d126cab4577ac5cdcfec2301574c58965bccc7",
      "assetIds": []
    },
    {
      "x": 171,
      "y": 399,
      "size": 1,
      "price": "1011000000000000000000",
      "reserved": "0x7a9fe22691c811ea339d9b73150e6911a5343dca",
      "salt": "0x93e02f0057eea3183f35c96e0ccdbe93eee93ee20457954b291d970c50a55926",
      "assetIds": []
    },
    {
      "x": 171,
      "y": 400,
      "size": 1,
      "price": "1011000000000000000000",
      "reserved": "",
      "salt": "0xfb78544e9df8ebe7e782619773d1aa5328d400faa72b73bddc5998d97e38ab56",
      "assetIds": []
    },
    {
      "x": 171,
      "y": 401,
      "size": 1,
      "price": "1011000000000000000000",
      "reserved": "",
      "salt": "0xc0700893af05faeeba2f63f5dea48561ac32945998ac56a46c82ef566444f81e",
      "assetIds": []
    },
    {
      "x": 171,
      "y": 402,
      "size": 1,
      "price": "1011000000000000000000",
      "reserved": "",
      "salt": "0x9c7a4f8c9fb8bde15f0456cb4bfb70a303a43018348c99d888656ea336471f48",
      "assetIds": []
    },
    {
      "x": 171,
      "y": 403,
      "size": 1,
      "price": "1011000000000000000000",
      "reserved": "",
      "salt": "0x995177407159c1c79f802492e2abe3e75c9fc8eda43b52e72b406bf2649fe5ec",
      "assetIds": []
    },
    {
      "x": 171,
      "y": 404,
      "size": 1,
      "price": "1011000000000000000000",
      "reserved": "",
      "salt": "0x5a7938a090f6e450302259ed3ffdf324610d293892b069f3b609f4f7ed2dfb9d",
      "assetIds": []
    },
    {
      "x": 171,
      "y": 405,
      "size": 1,
      "price": "1011000000000000000000",
      "reserved": "",
      "salt": "0x6c966d991c93c754cb74cfb9d4380678a8c07f91e48942920b77bb80095b282f",
      "assetIds": []
    },
    {
      "x": 171,
      "y": 406,
      "size": 1,
      "price": "1011000000000000000000",
      "reserved": "",
      "salt": "0xd41773fa7bda30f206abaad414dd47f5277c059878cbe4e6225ed767de046da0",
      "assetIds": []
    },
    {
      "x": 171,
      "y": 407,
      "size": 1,
      "price": "1011000000000000000000",
      "reserved": "",
      "salt": "0x65a533135f094433b995cf3be3f3d6b578130f4451ff0b2eba52157406e2ed03",
      "assetIds": []
    },
    {
      "x": 172,
      "y": 384,
      "size": 1,
      "price": "1011000000000000000000",
      "reserved": "",
      "salt": "0x1b31e8da6a214c5c9814de11fe5e8b049d5b4177a84d6676d982dcea82c745d1",
      "assetIds": []
    },
    {
      "x": 172,
      "y": 385,
      "size": 1,
      "price": "1011000000000000000000",
      "reserved": "",
      "salt": "0xf04c604047fa51cf507afee1cbb1bca4fb6b6a5d2fed66262041517f93d51028",
      "assetIds": []
    },
    {
      "x": 172,
      "y": 386,
      "size": 1,
      "price": "1011000000000000000000",
      "reserved": "",
      "salt": "0x5642863bac98f4500b34d6408fa400b1d298ebab2643fc7ec86cd4568340e581",
      "assetIds": []
    },
    {
      "x": 172,
      "y": 387,
      "size": 1,
      "price": "1011000000000000000000",
      "reserved": "",
      "salt": "0x483746a987fecdfc6f05f58daeed8ca0b46aa3d0d0881ecc9130f27c28dd1f6c",
      "assetIds": []
    },
    {
      "x": 172,
      "y": 388,
      "size": 1,
      "price": "1011000000000000000000",
      "reserved": "",
      "salt": "0x4cece6df35fc0ff9fa3fa80c0e8cafad101c628098cbf53ed3d4df52bbf6acab",
      "assetIds": []
    },
    {
      "x": 172,
      "y": 389,
      "size": 1,
      "price": "1011000000000000000000",
      "reserved": "",
      "salt": "0x3233a7ade708ad1b63b872040e88b79f37263f85f8200ac87dbd9d9e2c75c32d",
      "assetIds": []
    },
    {
      "x": 172,
      "y": 390,
      "size": 1,
      "price": "1011000000000000000000",
      "reserved": "",
      "salt": "0x50a757aee89b22b2ec44c1e839a8acba567e13fe7fa8b00ea155cb8fb177d773",
      "assetIds": []
    },
    {
      "x": 172,
      "y": 391,
      "size": 1,
      "price": "1011000000000000000000",
      "reserved": "0x7a9fe22691c811ea339d9b73150e6911a5343dca",
      "salt": "0xb2b15e675f69f0ad79e3261fe24f702c1793a1cf1472dfc7af3158abff9dd220",
      "assetIds": []
    },
    {
      "x": 172,
      "y": 392,
      "size": 1,
      "price": "1011000000000000000000",
      "reserved": "",
      "salt": "0x0bbf8f5e48671728f706b8496d60f04fcc3cd2ca4548c8f1d7e43b8e13829e63",
      "assetIds": []
    },
    {
      "x": 172,
      "y": 396,
      "size": 1,
      "price": "1011000000000000000000",
      "reserved": "",
      "salt": "0x091a8377807f52fbb1781a36bae2536bb47cb391b6874e544286243ed9dbda6c",
      "assetIds": []
    },
    {
      "x": 172,
      "y": 397,
      "size": 1,
      "price": "1011000000000000000000",
      "reserved": "",
      "salt": "0x9b16ce30f243f842956d6e630ee3c8cf6c3d39c62ec0e54c8a863cf281d155b7",
      "assetIds": []
    },
    {
      "x": 172,
      "y": 398,
      "size": 1,
      "price": "1011000000000000000000",
      "reserved": "",
      "salt": "0xe19b38791c63512664b3d0e6c2414a6e2e5884f83c5a707ec63062a11e4dae1c",
      "assetIds": []
    },
    {
      "x": 172,
      "y": 399,
      "size": 1,
      "price": "4683000000000000000000",
      "reserved": "",
      "salt": "0x2e564c126864d2087c221760d5f4f5420fc51eaad27b2db5383b152ea072ee0c",
      "assetIds": [
        "41506478881403507969696680653240014914910929820314476107906210059990541021186"
      ]
    },
    {
      "x": 172,
      "y": 400,
      "size": 1,
      "price": "4683000000000000000000",
      "reserved": "",
      "salt": "0x24db4fb60ff13cacc1be251a884e2162fe1bdd6e08cebd28419f91c48eadff5d",
      "assetIds": [
        "41506478881403507969696680653240014914910929820314476107906210059990541021186"
      ]
    },
    {
      "x": 172,
      "y": 401,
      "size": 1,
      "price": "4683000000000000000000",
      "reserved": "",
      "salt": "0xf4a65a0538718f2d82b031659a59a61ce96bdf5079af8b3e9d076efc8412af5d",
      "assetIds": [
        "41506478881403507969696680653240014914910929820314476107906210059990541021186"
      ]
    },
    {
      "x": 172,
      "y": 402,
      "size": 1,
      "price": "1011000000000000000000",
      "reserved": "",
      "salt": "0xf99d0e45b492cb846b814105f6f1a01f0ad57db5fa0550b71692dea1c2240be4",
      "assetIds": []
    },
    {
      "x": 172,
      "y": 403,
      "size": 1,
      "price": "1011000000000000000000",
      "reserved": "",
      "salt": "0x7b3135ff4c9dc0d14e449be71dcc02b5b97ce26e2d07c28781e81164225f3afe",
      "assetIds": []
    },
    {
      "x": 172,
      "y": 404,
      "size": 1,
      "price": "1011000000000000000000",
      "reserved": "0x7a9fe22691c811ea339d9b73150e6911a5343dca",
      "salt": "0x612503f0c430787b4dfefa003bf3f2d70331be54a9e48020ee6551ba8d4a9924",
      "assetIds": []
    },
    {
      "x": 172,
      "y": 405,
      "size": 1,
      "price": "1011000000000000000000",
      "reserved": "",
      "salt": "0xa17b935c515fb144050e7c3145aa5446e47207ce4d179786333b6554cfbdfab1",
      "assetIds": []
    },
    {
      "x": 172,
      "y": 406,
      "size": 1,
      "price": "1011000000000000000000",
      "reserved": "",
      "salt": "0x66bd27e94a53d0ee2d3372d7d581cde166041f5d92ecded131e969fc47658a99",
      "assetIds": []
    },
    {
      "x": 172,
      "y": 407,
      "size": 1,
      "price": "1011000000000000000000",
      "reserved": "",
      "salt": "0xea7d17b9c6ed6bcf7f9729535854a71a6b5c7678c6a3d23dc69c446b0e18e3f8",
      "assetIds": []
    },
    {
      "x": 173,
      "y": 384,
      "size": 1,
      "price": "1011000000000000000000",
      "reserved": "",
      "salt": "0x55a7fb83ced16f34a8a6c062574284948a8487afeaf30964e24514703d9194fb",
      "assetIds": []
    },
    {
      "x": 173,
      "y": 385,
      "size": 1,
      "price": "1011000000000000000000",
      "reserved": "",
      "salt": "0xaf7f54a8e76a9e335ad2ed48402a2a78816a5041585c8d6d52141cbc3e3d828e",
      "assetIds": []
    },
    {
      "x": 173,
      "y": 386,
      "size": 1,
      "price": "1011000000000000000000",
      "reserved": "0x7a9fe22691c811ea339d9b73150e6911a5343dca",
      "salt": "0x85882dbc0e3a9f1cb06092f3bbbabeb209b9eac21c37d671c4777f3f3dd200e4",
      "assetIds": []
    },
    {
      "x": 173,
      "y": 387,
      "size": 1,
      "price": "1011000000000000000000",
      "reserved": "",
      "salt": "0xfe6b426c43e704620871210f1ec1c565433ae682c7a764e17695fb77593140b6",
      "assetIds": []
    },
    {
      "x": 173,
      "y": 388,
      "size": 1,
      "price": "1011000000000000000000",
      "reserved": "",
      "salt": "0x7d9834f3134691075690568323ff9e00c9374912c95036e7ca2d5de33124c66d",
      "assetIds": []
    },
    {
      "x": 173,
      "y": 389,
      "size": 1,
      "price": "1011000000000000000000",
      "reserved": "0x7a9fe22691c811ea339d9b73150e6911a5343dca",
      "salt": "0xf8ae26e481dd1f87ae071fb5b62479157d8a59d79acc12f2335972e20ae5e37c",
      "assetIds": []
    },
    {
      "x": 173,
      "y": 390,
      "size": 1,
      "price": "1011000000000000000000",
      "reserved": "",
      "salt": "0x7f8cb1a7c9fb0edc519257e8bddc2cf989cd75ca9b95771d3cbd6db2b71caecf",
      "assetIds": []
    },
    {
      "x": 173,
      "y": 391,
      "size": 1,
      "price": "1011000000000000000000",
      "reserved": "",
      "salt": "0x41c28cbe723871b01461fedfd29c89789bb2cbe1c9d36455353d6fe37898a460",
      "assetIds": []
    },
    {
      "x": 173,
      "y": 392,
      "size": 1,
      "price": "1011000000000000000000",
      "reserved": "",
      "salt": "0xa6972bef60d7cc31389fd279c80c47ff9c6c655ee01e9677056e9ac6f62fb634",
      "assetIds": []
    },
    {
      "x": 173,
      "y": 396,
      "size": 1,
      "price": "4683000000000000000000",
      "reserved": "",
      "salt": "0x0a364008857ae8950d1c568644500e6e3c8395ee20968e17292939c9af67e807",
      "assetIds": [
        "41506478881403507969696680653240014914910929820314476107906210059990541021186"
      ]
    },
    {
      "x": 173,
      "y": 397,
      "size": 1,
      "price": "4683000000000000000000",
      "reserved": "",
      "salt": "0xf16ec1cd5cd0d45cf282d62bb5c49d82a39e0da50b41f001be7e5c0ee15133b1",
      "assetIds": [
        "41506478881403507969696680653240014914910929820314476107906210059990541021186"
      ]
    },
    {
      "x": 173,
      "y": 398,
      "size": 1,
      "price": "4683000000000000000000",
      "reserved": "",
      "salt": "0xf35b30e683446fa6e7ba46cbd33ba09b752bd15540e3bec43f8d8db7cac32858",
      "assetIds": [
        "41506478881403507969696680653240014914910929820314476107906210059990541021186"
      ]
    },
    {
      "x": 173,
      "y": 399,
      "size": 1,
      "price": "4683000000000000000000",
      "reserved": "",
      "salt": "0x2cb197387203dad75ee383e494f35f996a3526f897fed5181c5c83130353e3a4",
      "assetIds": [
        "41506478881403507969696680653240014914910929820314476107906210059990541021186"
      ]
    },
    {
      "x": 173,
      "y": 400,
      "size": 1,
      "price": "4683000000000000000000",
      "reserved": "",
      "salt": "0x127d619368f589deb6ab95ffa0d47258d34a79ae4954b9ed7cef1288ebd9642f",
      "assetIds": [
        "41506478881403507969696680653240014914910929820314476107906210059990541021186"
      ]
    },
    {
      "x": 173,
      "y": 401,
      "size": 1,
      "price": "4683000000000000000000",
      "reserved": "",
      "salt": "0xd9418dd02b456d582add3d6f6861f31b5e09879891b225e9c4d4a97158688765",
      "assetIds": [
        "41506478881403507969696680653240014914910929820314476107906210059990541021186"
      ]
    },
    {
      "x": 173,
      "y": 402,
      "size": 1,
      "price": "1011000000000000000000",
      "reserved": "",
      "salt": "0x08f96346b07b4482cc1d9db05ba27ab78683d920568eb8b519f6ea5f0ab7aa5e",
      "assetIds": []
    },
    {
      "x": 173,
      "y": 403,
      "size": 1,
      "price": "1011000000000000000000",
      "reserved": "",
      "salt": "0xe49cf6c5482ff618d69f1eb6a185a0e7ba74b63b6484b7a1e0103bb724415178",
      "assetIds": []
    },
    {
      "x": 173,
      "y": 404,
      "size": 1,
      "price": "1011000000000000000000",
      "reserved": "",
      "salt": "0x864cbccccd0fe27c78fad164cf782d2f161cdda501a349746f41f11bb0a24d06",
      "assetIds": []
    },
    {
      "x": 173,
      "y": 405,
      "size": 1,
      "price": "1011000000000000000000",
      "reserved": "",
      "salt": "0x07e95a3cff89c8bafbd88d3f4b17ce90509ce2f4234616653601f0f53d7a09dd",
      "assetIds": []
    },
    {
      "x": 173,
      "y": 406,
      "size": 1,
      "price": "1011000000000000000000",
      "reserved": "",
      "salt": "0x77025ca870d508c6ddc0f6c12626952cb2fb7d6b69144c614e0ca4462a58700a",
      "assetIds": []
    },
    {
      "x": 173,
      "y": 407,
      "size": 1,
      "price": "1011000000000000000000",
      "reserved": "",
      "salt": "0x7907be097167f447be8bbb85819e6e1657a0571c183d923a231dc29acbeb9dc8",
      "assetIds": []
    },
    {
      "x": 174,
      "y": 384,
      "size": 1,
      "price": "1011000000000000000000",
      "reserved": "",
      "salt": "0x28f9464e71ea89b47bbebda88fc7144232a630e32a0a939b96de8f8d80a5dd00",
      "assetIds": []
    },
    {
      "x": 174,
      "y": 385,
      "size": 1,
      "price": "1011000000000000000000",
      "reserved": "",
      "salt": "0xfd30034c1b574c37e9b2776716491bd7398bcd8dbe8d0b511615d71aa14fc207",
      "assetIds": []
    },
    {
      "x": 174,
      "y": 386,
      "size": 1,
      "price": "1011000000000000000000",
      "reserved": "",
      "salt": "0x307d476ac9cd6d31b99dc9e8334ca91079effb6bbfd75e297f5bbecf45cfb847",
      "assetIds": []
    },
    {
      "x": 174,
      "y": 387,
      "size": 1,
      "price": "1011000000000000000000",
      "reserved": "",
      "salt": "0x589aff813bb961281b560ac4eae7c6cf9b172a50de61c2e89cba9e16221cbdfc",
      "assetIds": []
    },
    {
      "x": 174,
      "y": 388,
      "size": 1,
      "price": "1011000000000000000000",
      "reserved": "",
      "salt": "0x81f9e2604cdeed90f29daeef26afe273d09d033bedfcc66612b701dc2fe76247",
      "assetIds": []
    },
    {
      "x": 174,
      "y": 389,
      "size": 1,
      "price": "1011000000000000000000",
      "reserved": "",
      "salt": "0xacbe1443ddb6ff0c49e552eedf69130b8f6f587742e6e004e64db1a12db28b60",
      "assetIds": []
    },
    {
      "x": 174,
      "y": 390,
      "size": 1,
      "price": "1011000000000000000000",
      "reserved": "",
      "salt": "0x19f5b309d1c0f0df7465894be3227fa01ff8d3d2c4a87a25e178cdcb7a7c6526",
      "assetIds": []
    },
    {
      "x": 174,
      "y": 391,
      "size": 1,
      "price": "1011000000000000000000",
      "reserved": "",
      "salt": "0x2a6cd637cda503f11eea7b55a96bca387d841944904087f3c6cc61d02cb41e1d",
      "assetIds": []
    },
    {
      "x": 174,
      "y": 392,
      "size": 1,
      "price": "1011000000000000000000",
      "reserved": "",
      "salt": "0xd51fb0031878dc39fbfa978985dab85aa032f13f414e4d814f038ee8357db7de",
      "assetIds": []
    },
    {
      "x": 174,
      "y": 393,
      "size": 1,
      "price": "1011000000000000000000",
      "reserved": "0x7a9fe22691c811ea339d9b73150e6911a5343dca",
      "salt": "0xaa6673c26ed2993428020d9ffb8bace127ad8798b9fa9c4986c78abcbdf04a27",
      "assetIds": []
    },
    {
      "x": 174,
      "y": 394,
      "size": 1,
      "price": "1011000000000000000000",
      "reserved": "0x7a9fe22691c811ea339d9b73150e6911a5343dca",
      "salt": "0xb7a191ae2dbc11bf6b82e72f099257337301ae2a2daf98261f08a8e13e071e97",
      "assetIds": []
    },
    {
      "x": 174,
      "y": 395,
      "size": 1,
      "price": "4683000000000000000000",
      "reserved": "",
      "salt": "0x577a2118bd89af86d1e260278672b2657aaefd122af0714ade4576e746939b63",
      "assetIds": [
        "41506478881403507969696680653240014914910929820314476107906210059990541021186"
      ]
    },
    {
      "x": 174,
      "y": 402,
      "size": 1,
      "price": "4683000000000000000000",
      "reserved": "",
      "salt": "0x6d5aeacd2a8e93f4408cfffd3c8566902d5372d4c7c462f710d2889244bc9c21",
      "assetIds": [
        "41506478881403507969696680653240014914910929820314476107906210059990541021186"
      ]
    },
    {
      "x": 174,
      "y": 403,
      "size": 1,
      "price": "1011000000000000000000",
      "reserved": "",
      "salt": "0xca8d6788e26919a12019ec766dce274ffe397bc212d69d9452b987a7dff20d3e",
      "assetIds": []
    },
    {
      "x": 174,
      "y": 404,
      "size": 1,
      "price": "1011000000000000000000",
      "reserved": "0x7a9fe22691c811ea339d9b73150e6911a5343dca",
      "salt": "0x505bb4d2b2e2637b8c93a986cb49ed953beb916d5ba45c83517fb33b4c800f44",
      "assetIds": []
    },
    {
      "x": 174,
      "y": 405,
      "size": 1,
      "price": "1011000000000000000000",
      "reserved": "",
      "salt": "0x0770ac7f32b83d5f8f87ff1a07ef1639d4e5abe7a664c8c5d6884208e2ccb34f",
      "assetIds": []
    },
    {
      "x": 174,
      "y": 406,
      "size": 1,
      "price": "1011000000000000000000",
      "reserved": "",
      "salt": "0xfe9fb98d657cbb9e7d3e68a776f020be1144201b0e9776482fa7d062f03c3c56",
      "assetIds": []
    },
    {
      "x": 174,
      "y": 407,
      "size": 1,
      "price": "1011000000000000000000",
      "reserved": "",
      "salt": "0x82008930a82a3429d7c57bce072a06dbb45b3f95b9acfb6d9e34603693d902d9",
      "assetIds": []
    },
    {
      "x": 175,
      "y": 384,
      "size": 1,
      "price": "1011000000000000000000",
      "reserved": "",
      "salt": "0x293d9edfcf5d3f4cfbdf65224d43420ca2a37928919fd6b2fa7de2bea4558f23",
      "assetIds": []
    },
    {
      "x": 175,
      "y": 385,
      "size": 1,
      "price": "1011000000000000000000",
      "reserved": "0x7a9fe22691c811ea339d9b73150e6911a5343dca",
      "salt": "0x9392f60118e84e7bef01d952401fd093d4f98c455628c48d959e3cf9e9a0b581",
      "assetIds": []
    },
    {
      "x": 175,
      "y": 386,
      "size": 1,
      "price": "1011000000000000000000",
      "reserved": "",
      "salt": "0x6f2ff0e5d76ce664bf7b1c2ec9fbd7fc60e0d80bddb2039faa6e5d3b71824867",
      "assetIds": []
    },
    {
      "x": 175,
      "y": 387,
      "size": 1,
      "price": "1011000000000000000000",
      "reserved": "",
      "salt": "0x47ec9d9eb10c1ba7ddcaf156b48e741c5d52867ec98c6288e91a060768512bae",
      "assetIds": []
    },
    {
      "x": 175,
      "y": 388,
      "size": 1,
      "price": "1011000000000000000000",
      "reserved": "",
      "salt": "0xa89121e7fd3b8c13dbd37ecaf67e535c3919c7ae12f908c48bbf84056b9db935",
      "assetIds": []
    },
    {
      "x": 175,
      "y": 389,
      "size": 1,
      "price": "1011000000000000000000",
      "reserved": "",
      "salt": "0x7fb5f1ef8db2252333f016e4d49cd47f1ade7ab1e15610eab3a8cb31ee774983",
      "assetIds": []
    },
    {
      "x": 175,
      "y": 390,
      "size": 1,
      "price": "1011000000000000000000",
      "reserved": "",
      "salt": "0xd35dc1886b94ceab86c8c73cfedec9e45c8c0d3f333083d4b52f55f91674e749",
      "assetIds": []
    },
    {
      "x": 175,
      "y": 391,
      "size": 1,
      "price": "1011000000000000000000",
      "reserved": "0x7a9fe22691c811ea339d9b73150e6911a5343dca",
      "salt": "0x82a5acba747be30002cc3c789f24fdd9f79f606ec95688919fcab7a909248b77",
      "assetIds": []
    },
    {
      "x": 175,
      "y": 392,
      "size": 1,
      "price": "1011000000000000000000",
      "reserved": "",
      "salt": "0x23adf7b7901e4bb7698b67be901653c2bdc6bbdd489c0487070c94f3a8a4d9d0",
      "assetIds": []
    },
    {
      "x": 175,
      "y": 393,
      "size": 1,
      "price": "1011000000000000000000",
      "reserved": "",
      "salt": "0xd92819ec4a0febc78b2afd9aab28fa17de6e8397305b2a08f7d9be258aeaca64",
      "assetIds": []
    },
    {
      "x": 175,
      "y": 394,
      "size": 1,
      "price": "4683000000000000000000",
      "reserved": "",
      "salt": "0xf4b342cbe550d3d3d1438b339459ec2e433a0b4ed854d9ccce9da533a189b4c7",
      "assetIds": [
        "41506478881403507969696680653240014914910929820314476107906210059990541021186"
      ]
    },
    {
      "x": 175,
      "y": 395,
      "size": 1,
      "price": "4683000000000000000000",
      "reserved": "",
      "salt": "0xf08a9276934145ad663c4de7cd82c832139cde85fa04266bdd0e5083cb9e5f9e",
      "assetIds": [
        "41506478881403507969696680653240014914910929820314476107906210059990541021186"
      ]
    },
    {
      "x": 175,
      "y": 402,
      "size": 1,
      "price": "4683000000000000000000",
      "reserved": "",
      "salt": "0x52f1e84fc262658aeaccc905ae7ce58438861fcd419fdd86d2693bccc72171c0",
      "assetIds": [
        "41506478881403507969696680653240014914910929820314476107906210059990541021186"
      ]
    },
    {
      "x": 175,
      "y": 403,
      "size": 1,
      "price": "1011000000000000000000",
      "reserved": "0x7a9fe22691c811ea339d9b73150e6911a5343dca",
      "salt": "0xd4c7d5d6b8949a257f7634c9011c4d5c309899395783d8357abb11b39358e075",
      "assetIds": []
    },
    {
      "x": 175,
      "y": 404,
      "size": 1,
      "price": "1011000000000000000000",
      "reserved": "",
      "salt": "0x9b3fd56abaab655d536bf854e44655183cd8002651422ce7321f13ebfb510b2f",
      "assetIds": []
    },
    {
      "x": 175,
      "y": 405,
      "size": 1,
      "price": "1011000000000000000000",
      "reserved": "",
      "salt": "0x5e2951f6602419887879763d5fc66362f854e0107a8988719e77c3a67590354f",
      "assetIds": []
    },
    {
      "x": 175,
      "y": 406,
      "size": 1,
      "price": "1011000000000000000000",
      "reserved": "0x7a9fe22691c811ea339d9b73150e6911a5343dca",
      "salt": "0x18b61ec903300e9685ad9673272d78d472000ba58131d45c2b1f4bd6861fa0e7",
      "assetIds": []
    },
    {
      "x": 175,
      "y": 407,
      "size": 1,
      "price": "1011000000000000000000",
      "reserved": "",
      "salt": "0xdedb47b812f6e02c9de6c08d5c475e7b9da8e1572c23a312f255502a4e848b32",
      "assetIds": []
    },
    {
      "x": 176,
      "y": 384,
      "size": 1,
      "price": "1011000000000000000000",
      "reserved": "",
      "salt": "0x851fa3c6c42626349ba233edc78621c9dbfe894def29802da78d25204186a915",
      "assetIds": []
    },
    {
      "x": 176,
      "y": 385,
      "size": 1,
      "price": "1011000000000000000000",
      "reserved": "",
      "salt": "0x127459b14980e9901672c83835d92c2653bb3c1a905f05031c9d3fa74f34275d",
      "assetIds": []
    },
    {
      "x": 176,
      "y": 386,
      "size": 1,
      "price": "1011000000000000000000",
      "reserved": "",
      "salt": "0x49de844474e1deed42155c2c0c0fd89ff59d72ddbe1ad4b6c59a805c47130ce7",
      "assetIds": []
    },
    {
      "x": 176,
      "y": 387,
      "size": 1,
      "price": "1011000000000000000000",
      "reserved": "0x7a9fe22691c811ea339d9b73150e6911a5343dca",
      "salt": "0x2eda6e5bda552e48363c6e715c10c0f202d9c193fb1a7de30e0211251b8a296b",
      "assetIds": []
    },
    {
      "x": 176,
      "y": 388,
      "size": 1,
      "price": "1011000000000000000000",
      "reserved": "",
      "salt": "0x86ce4f9a4e8dcc5d32267ef18fe216ad820239ec6fdb4ff7120e58df1a456b1a",
      "assetIds": []
    },
    {
      "x": 176,
      "y": 389,
      "size": 1,
      "price": "1011000000000000000000",
      "reserved": "0x7a9fe22691c811ea339d9b73150e6911a5343dca",
      "salt": "0x973ec84b91f06cef0b957e6883aea1894740979edc6911e62369d3843f98289a",
      "assetIds": []
    },
    {
      "x": 176,
      "y": 390,
      "size": 1,
      "price": "1011000000000000000000",
      "reserved": "",
      "salt": "0xfa2714bf2eaf3943f72db2c71cc55542143f86b64cd94abef45f8c6b16c4d107",
      "assetIds": []
    },
    {
      "x": 176,
      "y": 391,
      "size": 1,
      "price": "1011000000000000000000",
      "reserved": "",
      "salt": "0xe7e7c80c380032e593fdfb2aa54f9111ee71c2ff4d99f15b1d34c760d87a73b8",
      "assetIds": []
    },
    {
      "x": 176,
      "y": 392,
      "size": 1,
      "price": "1011000000000000000000",
      "reserved": "",
      "salt": "0x186f4a6d9e39eb61f6b8b7fc6cb8f34e45558902f76e3ad708acf4852dc49e53",
      "assetIds": []
    },
    {
      "x": 176,
      "y": 393,
      "size": 1,
      "price": "1011000000000000000000",
      "reserved": "0x7a9fe22691c811ea339d9b73150e6911a5343dca",
      "salt": "0x35cb70a33da530a764c993eefb952b9018f2c171b3d34f82848f1d230fd0095f",
      "assetIds": []
    },
    {
      "x": 176,
      "y": 394,
      "size": 1,
      "price": "4683000000000000000000",
      "reserved": "",
      "salt": "0x54765519a53304c15ed36aba0dcddcc4bec1b4b91984ab9c52d4c093bbfb3517",
      "assetIds": [
        "41506478881403507969696680653240014914910929820314476107906210059990541021186"
      ]
    },
    {
      "x": 176,
      "y": 395,
      "size": 1,
      "price": "4683000000000000000000",
      "reserved": "",
      "salt": "0x338d0cc55b3d5a6d2ea8d070b56830b93e1b7e5eca80e3baba9ed01bb39b4be1",
      "assetIds": [
        "41506478881403507969696680653240014914910929820314476107906210059990541021186"
      ]
    },
    {
      "x": 176,
      "y": 402,
      "size": 1,
      "price": "4683000000000000000000",
      "reserved": "",
      "salt": "0xc44b95bf6b409c6cf5012a29ea59033fd97d3df500cdb32e726113625c847f3d",
      "assetIds": [
        "41506478881403507969696680653240014914910929820314476107906210059990541021186"
      ]
    },
    {
      "x": 176,
      "y": 403,
      "size": 1,
      "price": "1011000000000000000000",
      "reserved": "",
      "salt": "0x46e791b7ccee5a7fa3f7251a00615efb1904e5ffa3943988409bbbf82f3ca7de",
      "assetIds": []
    },
    {
      "x": 176,
      "y": 404,
      "size": 1,
      "price": "1011000000000000000000",
      "reserved": "",
      "salt": "0x9c228abd6e784886362fe026a21d04e928d9f67897faf116598cbee2f8338c22",
      "assetIds": []
    },
    {
      "x": 176,
      "y": 405,
      "size": 1,
      "price": "1011000000000000000000",
      "reserved": "",
      "salt": "0xefd3d25172efaa962a18e283aab528d3127254be77ab42e25b52f8d9918d8cd9",
      "assetIds": []
    },
    {
      "x": 176,
      "y": 406,
      "size": 1,
      "price": "1011000000000000000000",
      "reserved": "",
      "salt": "0xa49a672a5801ab6b90cbd50b4369649df0336769abcd33aa1223159c6300ec39",
      "assetIds": []
    },
    {
      "x": 176,
      "y": 407,
      "size": 1,
      "price": "1011000000000000000000",
      "reserved": "",
      "salt": "0xf4f83553b146c0bef09057892bfbe4b4f6e1f3756e4f6cb5e3b200b281812f50",
      "assetIds": []
    },
    {
      "x": 177,
      "y": 384,
      "size": 1,
      "price": "1011000000000000000000",
      "reserved": "",
      "salt": "0x1e3ebbc9b7dfe3b462b3f7608978e08a57ad5f756423379ba209958880ed7f23",
      "assetIds": []
    },
    {
      "x": 177,
      "y": 385,
      "size": 1,
      "price": "1011000000000000000000",
      "reserved": "",
      "salt": "0xa966d495ba5c3a37f3a5a284d70faf4634cb17dcef63e6b607d073e0c2576078",
      "assetIds": []
    },
    {
      "x": 177,
      "y": 386,
      "size": 1,
      "price": "1011000000000000000000",
      "reserved": "",
      "salt": "0x96639a540e5107b817a5b03f6882f2614461cf327048d5c3f0707a7d02d87d78",
      "assetIds": []
    },
    {
      "x": 177,
      "y": 387,
      "size": 1,
      "price": "1011000000000000000000",
      "reserved": "",
      "salt": "0xa0d93f0f7da4d754c623d52f5b4acc43658ebb96727009d9bcb4e53ad744656c",
      "assetIds": []
    },
    {
      "x": 177,
      "y": 388,
      "size": 1,
      "price": "1011000000000000000000",
      "reserved": "",
      "salt": "0x79bce9eaab6191c6b723090fd91884fc47bace4c79eccc5891f2c0c76f3e3098",
      "assetIds": []
    },
    {
      "x": 177,
      "y": 389,
      "size": 1,
      "price": "1011000000000000000000",
      "reserved": "",
      "salt": "0x15f46d53687bb46defb715ce03dda64fd15ec572aee8190862df9c2cd40a0c0b",
      "assetIds": []
    },
    {
      "x": 177,
      "y": 390,
      "size": 1,
      "price": "1011000000000000000000",
      "reserved": "",
      "salt": "0x6b56eb096520fec1fd191a52630bb5fe97879b396e646797b9a8a7907e7cc9a4",
      "assetIds": []
    },
    {
      "x": 177,
      "y": 391,
      "size": 1,
      "price": "1011000000000000000000",
      "reserved": "",
      "salt": "0xad82762f918f1935fab1972a4afdece967d0e6c63d143c577912a67bcb8239bc",
      "assetIds": []
    },
    {
      "x": 177,
      "y": 392,
      "size": 1,
      "price": "1011000000000000000000",
      "reserved": "",
      "salt": "0xe9af41b2c62441b39ba33ed643e1c305c6b102c1825e8e552ea2cb1fc9b07fdd",
      "assetIds": []
    },
    {
      "x": 177,
      "y": 393,
      "size": 1,
      "price": "1011000000000000000000",
      "reserved": "",
      "salt": "0x1743ab43d9da6316f7bbd7bb51aebb6757c66a11ad8280761d48fda3d18ae115",
      "assetIds": []
    },
    {
      "x": 177,
      "y": 394,
      "size": 1,
      "price": "1011000000000000000000",
      "reserved": "0x7a9fe22691c811ea339d9b73150e6911a5343dca",
      "salt": "0xe3fec778939f4addd83b93bad5ded015021ef224fefb375c9698f1e079487134",
      "assetIds": []
    },
    {
      "x": 177,
      "y": 395,
      "size": 1,
      "price": "4683000000000000000000",
      "reserved": "",
      "salt": "0x8c370c2a2fa4b8934d7e936e30ee78fe4d8b2b6432d3aa8c60919ac545ae4277",
      "assetIds": [
        "41506478881403507969696680653240014914910929820314476107906210059990541021186"
      ]
    },
    {
      "x": 177,
      "y": 402,
      "size": 1,
      "price": "4683000000000000000000",
      "reserved": "",
      "salt": "0x3ee5f14e8b003955a972f9d6ace5383cc6c982df79aba82f2f5c972825a7139c",
      "assetIds": [
        "41506478881403507969696680653240014914910929820314476107906210059990541021186"
      ]
    },
    {
      "x": 177,
      "y": 403,
      "size": 1,
      "price": "4683000000000000000000",
      "reserved": "",
      "salt": "0x8de87e491320a40170459e11e511fccf85730c290eb37a351155507782f0a948",
      "assetIds": [
        "41506478881403507969696680653240014914910929820314476107906210059990541021186"
      ]
    },
    {
      "x": 177,
      "y": 404,
      "size": 1,
      "price": "1011000000000000000000",
      "reserved": "",
      "salt": "0xd1dfb4f2ca303f476b5998203470917f2a310d75cecc7d02d98264e73bdd3371",
      "assetIds": []
    },
    {
      "x": 177,
      "y": 405,
      "size": 1,
      "price": "1011000000000000000000",
      "reserved": "",
      "salt": "0x090adafdcb68637a45d9c12d6b681b1d64bc1b62c5a48c0ca04daffcbba31901",
      "assetIds": []
    },
    {
      "x": 177,
      "y": 406,
      "size": 1,
      "price": "1011000000000000000000",
      "reserved": "",
      "salt": "0xda23b87d236265e1bc191f683e2bd04c18570524e712f1afa8756ee7effb9e6b",
      "assetIds": []
    },
    {
      "x": 177,
      "y": 407,
      "size": 1,
      "price": "1011000000000000000000",
      "reserved": "",
      "salt": "0xe1899480303ed7dd165c9dedcf353d599714ddc25096785ff054b2c01f345b98",
      "assetIds": []
    },
    {
      "x": 178,
      "y": 384,
      "size": 1,
      "price": "1011000000000000000000",
      "reserved": "",
      "salt": "0x568faf75900e46d115d173b505b13cce9c6505d25d818bcc28335c9dae0d015b",
      "assetIds": []
    },
    {
      "x": 178,
      "y": 385,
      "size": 1,
      "price": "1011000000000000000000",
      "reserved": "0x7a9fe22691c811ea339d9b73150e6911a5343dca",
      "salt": "0xa3d46bd612499488cb758be4b1900d2d3a14ce05739abcd33ae07b3c7736f740",
      "assetIds": []
    },
    {
      "x": 178,
      "y": 386,
      "size": 1,
      "price": "1011000000000000000000",
      "reserved": "",
      "salt": "0xdda4c4b03ac8473e3ed26eb3bb5e5edae525099d232d573a3497157e27104342",
      "assetIds": []
    },
    {
      "x": 178,
      "y": 387,
      "size": 1,
      "price": "1011000000000000000000",
      "reserved": "",
      "salt": "0x2c37784fc6986d8382c6f8018d1aab25f52197bdfc957e9835f25718532acfb2",
      "assetIds": []
    },
    {
      "x": 178,
      "y": 388,
      "size": 1,
      "price": "1011000000000000000000",
      "reserved": "",
      "salt": "0x56a391a2a6b9a15681e636143a7d949153250301adff4e77e84a30398523934e",
      "assetIds": []
    },
    {
      "x": 178,
      "y": 389,
      "size": 1,
      "price": "1011000000000000000000",
      "reserved": "",
      "salt": "0x9c3e2f423b24ee066bf5d1aedbd928ba64eaf8e67441a988ba138703b3631c91",
      "assetIds": []
    },
    {
      "x": 178,
      "y": 390,
      "size": 1,
      "price": "1011000000000000000000",
      "reserved": "",
      "salt": "0x964195fb5d21c4e966e4a15f248355686a4f11bd5c483d61dd21706c6c808f4e",
      "assetIds": []
    },
    {
      "x": 178,
      "y": 391,
      "size": 1,
      "price": "1011000000000000000000",
      "reserved": "0x7a9fe22691c811ea339d9b73150e6911a5343dca",
      "salt": "0xd64474b4059447e5fe502ecab2cec869c27639183a92e2eac0ccea1ccc033a74",
      "assetIds": []
    },
    {
      "x": 178,
      "y": 392,
      "size": 1,
      "price": "1011000000000000000000",
      "reserved": "",
      "salt": "0xf1a6abd2d6144f42f93551846ea865182a12c62b5471380a308804db773db379",
      "assetIds": []
    },
    {
      "x": 178,
      "y": 393,
      "size": 1,
      "price": "1011000000000000000000",
      "reserved": "0x7a9fe22691c811ea339d9b73150e6911a5343dca",
      "salt": "0x1e02a6db5e0e5a8f614eaaa65a3c7eacc0a5fd998c8edfeb70db8462506e7452",
      "assetIds": []
    },
    {
      "x": 178,
      "y": 394,
      "size": 1,
      "price": "4683000000000000000000",
      "reserved": "",
      "salt": "0x940c179705e44638de3096412354c5d432c5b4b231211807931e9522204e58a9",
      "assetIds": [
        "41506478881403507969696680653240014914910929820314476107906210059990541021186"
      ]
    },
    {
      "x": 178,
      "y": 395,
      "size": 1,
      "price": "4683000000000000000000",
      "reserved": "",
      "salt": "0x89f373176037d39adc0a1fc7fe9cba19580d6cf27be2bd7e3a27ebda1c0275a9",
      "assetIds": [
        "41506478881403507969696680653240014914910929820314476107906210059990541021186"
      ]
    },
    {
      "x": 178,
      "y": 402,
      "size": 1,
      "price": "4683000000000000000000",
      "reserved": "",
      "salt": "0xa2bebedcb38b18a07b823950b4add437554b8876d0acb69a4218e786c47f1293",
      "assetIds": [
        "41506478881403507969696680653240014914910929820314476107906210059990541021186"
      ]
    },
    {
      "x": 178,
      "y": 403,
      "size": 1,
      "price": "4683000000000000000000",
      "reserved": "",
      "salt": "0x5200a0f9d10ff28eee351edd33b69891152c24a455779138a0da0d267bb3d21e",
      "assetIds": [
        "41506478881403507969696680653240014914910929820314476107906210059990541021186"
      ]
    },
    {
      "x": 178,
      "y": 404,
      "size": 1,
      "price": "1011000000000000000000",
      "reserved": "0x7a9fe22691c811ea339d9b73150e6911a5343dca",
      "salt": "0xa900e512945b64dc66f8cd6f03efc6fe6cea8ef05e3c680a56a9baf3acd32ae4",
      "assetIds": []
    },
    {
      "x": 178,
      "y": 405,
      "size": 1,
      "price": "1011000000000000000000",
      "reserved": "",
      "salt": "0xafdf5f1062047fbe823716c3fb04e3766d7dddf84094af41269be72e302c7ae1",
      "assetIds": []
    },
    {
      "x": 178,
      "y": 406,
      "size": 1,
      "price": "1011000000000000000000",
      "reserved": "",
      "salt": "0xf55e780457e25ad20e309c6504934de77a14e8238762be892b6eabf7f0c934a9",
      "assetIds": []
    },
    {
      "x": 178,
      "y": 407,
      "size": 1,
      "price": "1011000000000000000000",
      "reserved": "",
      "salt": "0x17cbf2471f8aa3d015cdccbaa0051c316cb166041e99dbd314dca78261ce81fd",
      "assetIds": []
    },
    {
      "x": 179,
      "y": 384,
      "size": 1,
      "price": "1011000000000000000000",
      "reserved": "",
      "salt": "0xdde1f97787d2e4252bc051907b14ee6dfdbec5e72920badc10e6a8a92c195df7",
      "assetIds": []
    },
    {
      "x": 179,
      "y": 385,
      "size": 1,
      "price": "1011000000000000000000",
      "reserved": "",
      "salt": "0x7facfb46134ae9f0b08e0ac29109b2f121a62a4c470d4ae1bc1d6b1e229d5348",
      "assetIds": []
    },
    {
      "x": 179,
      "y": 386,
      "size": 1,
      "price": "1011000000000000000000",
      "reserved": "",
      "salt": "0x8a6f5b3fb026f30bba0de1372812012c72a4c579fab1114ccdf7c1da4b8432d7",
      "assetIds": []
    },
    {
      "x": 179,
      "y": 387,
      "size": 1,
      "price": "1011000000000000000000",
      "reserved": "0x7a9fe22691c811ea339d9b73150e6911a5343dca",
      "salt": "0x2209043e501269f3390540975c00cb3a9888235883dfb02cf516998df1045adf",
      "assetIds": []
    },
    {
      "x": 179,
      "y": 388,
      "size": 1,
      "price": "1011000000000000000000",
      "reserved": "",
      "salt": "0x0bec364dcff49e7e319c33018b01f275c8f72d37929fd891fae7fb499847e6c6",
      "assetIds": []
    },
    {
      "x": 179,
      "y": 389,
      "size": 1,
      "price": "1011000000000000000000",
      "reserved": "",
      "salt": "0x49fb67964eba5deec6a88a8d2278d4922b5ac1d539824d5a570ffaf140d673f9",
      "assetIds": []
    },
    {
      "x": 179,
      "y": 390,
      "size": 1,
      "price": "1011000000000000000000",
      "reserved": "",
      "salt": "0xad32dba78f798ddc7c44ed8e91e5dc79156fcad5428698fb0655a2bc34be05d0",
      "assetIds": []
    },
    {
      "x": 179,
      "y": 391,
      "size": 1,
      "price": "1011000000000000000000",
      "reserved": "",
      "salt": "0x6091acadeff0772feb8d8ff37d0ae858f579d8a860fac98f5e41efdd1e0afe4d",
      "assetIds": []
    },
    {
      "x": 179,
      "y": 392,
      "size": 1,
      "price": "1011000000000000000000",
      "reserved": "",
      "salt": "0xeb4c982564b99079ca6d192bf659bb3143b614bdb7d7c75b939599ef8acb2af1",
      "assetIds": []
    },
    {
      "x": 179,
      "y": 393,
      "size": 1,
      "price": "1011000000000000000000",
      "reserved": "",
      "salt": "0x0c69a23b5c3303df42336e0ca8f2033a5829bbce847f1d5dfb095c61229a049c",
      "assetIds": []
    },
    {
      "x": 179,
      "y": 394,
      "size": 1,
      "price": "1011000000000000000000",
      "reserved": "0x7a9fe22691c811ea339d9b73150e6911a5343dca",
      "salt": "0xfcfccda2e76e886027426e0f46c94b0203aed576771957596ad9d5d6137b9385",
      "assetIds": []
    },
    {
      "x": 179,
      "y": 395,
      "size": 1,
      "price": "4683000000000000000000",
      "reserved": "",
      "salt": "0x49ce19f3b39173221330f40c656b1bda19067b3050eb854022e9d23b1cd92045",
      "assetIds": [
        "41506478881403507969696680653240014914910929820314476107906210059990541021186"
      ]
    },
    {
      "x": 179,
      "y": 402,
      "size": 1,
      "price": "4683000000000000000000",
      "reserved": "",
      "salt": "0x0ce3b57f1640c8724d0e1edeff274b3b8223e369e6a5723cd8dba6686dbaa607",
      "assetIds": [
        "41506478881403507969696680653240014914910929820314476107906210059990541021186"
      ]
    },
    {
      "x": 179,
      "y": 403,
      "size": 1,
      "price": "4683000000000000000000",
      "reserved": "",
      "salt": "0x4f8cd18b6458ed22642c39a86f598072968d05088e8cec62c1788deffff121ed",
      "assetIds": [
        "41506478881403507969696680653240014914910929820314476107906210059990541021186"
      ]
    },
    {
      "x": 179,
      "y": 404,
      "size": 1,
      "price": "1011000000000000000000",
      "reserved": "",
      "salt": "0x433eeb18766b5d53e4250581b9d5dc4586b11692b347fb31fe2816222ba7ed47",
      "assetIds": []
    },
    {
      "x": 179,
      "y": 405,
      "size": 1,
      "price": "1011000000000000000000",
      "reserved": "",
      "salt": "0x3d4e656080c6e85f611433d80db33ca7771dfc730e9bb65d400f81b9e65f7614",
      "assetIds": []
    },
    {
      "x": 179,
      "y": 406,
      "size": 1,
      "price": "1011000000000000000000",
      "reserved": "0x7a9fe22691c811ea339d9b73150e6911a5343dca",
      "salt": "0x962e42936131cdef7030e66c2750c47ee7e5cdb59ada8fdd35339f21fbfa0d4f",
      "assetIds": []
    },
    {
      "x": 179,
      "y": 407,
      "size": 1,
      "price": "1011000000000000000000",
      "reserved": "",
      "salt": "0xdaa6ed1633a8f2e9760fed78d1f1af5196d3a072e27dd78247f0919535932f47",
      "assetIds": []
    },
    {
      "x": 180,
      "y": 384,
      "size": 1,
      "price": "1011000000000000000000",
      "reserved": "",
      "salt": "0xd6fcd12675defc19efa2ca28413e871847710dd6e62b5cd80954e78bea3fb943",
      "assetIds": []
    },
    {
      "x": 180,
      "y": 385,
      "size": 1,
      "price": "1011000000000000000000",
      "reserved": "",
      "salt": "0x6070a8dbed6276aaec92e2f442823dbd24692e2a2ce065e4ff8a12c666690fe8",
      "assetIds": []
    },
    {
      "x": 180,
      "y": 386,
      "size": 1,
      "price": "1011000000000000000000",
      "reserved": "",
      "salt": "0x5a7561dc03275d75031dddce61f0c42b0bfdf1c5313aa6b87586cdf5de9a19dc",
      "assetIds": []
    },
    {
      "x": 180,
      "y": 387,
      "size": 1,
      "price": "1011000000000000000000",
      "reserved": "",
      "salt": "0x768284945a76c155ad9e76deef419e22cde74f3101b5592bb704af19e6cb2c95",
      "assetIds": []
    },
    {
      "x": 180,
      "y": 388,
      "size": 1,
      "price": "1011000000000000000000",
      "reserved": "",
      "salt": "0xfdb67204c640e4935763615fb158e865451d9fba6eebe9b68c09c16ad668afee",
      "assetIds": []
    },
    {
      "x": 180,
      "y": 389,
      "size": 1,
      "price": "1011000000000000000000",
      "reserved": "0x7a9fe22691c811ea339d9b73150e6911a5343dca",
      "salt": "0xeff5af2626503ca0058e997b05219b61d45962934b8338e33b67ec86196b58ae",
      "assetIds": []
    },
    {
      "x": 180,
      "y": 390,
      "size": 1,
      "price": "1011000000000000000000",
      "reserved": "",
      "salt": "0x625c0c8509bbcde7d5bb58ed40666fd2aedfb6f42bd762ba6d747c621d4eca66",
      "assetIds": []
    },
    {
      "x": 180,
      "y": 391,
      "size": 1,
      "price": "1011000000000000000000",
      "reserved": "0x7a9fe22691c811ea339d9b73150e6911a5343dca",
      "salt": "0x04cdbc0737b6cb2d17a700495e37ab296e36ec82e2bd7161664a9464ab7bc4f3",
      "assetIds": []
    },
    {
      "x": 180,
      "y": 392,
      "size": 1,
      "price": "1011000000000000000000",
      "reserved": "",
      "salt": "0xc335dc49393930be200fa6f8c2e928cef706b492bbb21ba12125dcb704bd17ff",
      "assetIds": []
    },
    {
      "x": 180,
      "y": 393,
      "size": 1,
      "price": "1011000000000000000000",
      "reserved": "0x7a9fe22691c811ea339d9b73150e6911a5343dca",
      "salt": "0x4958ae618b3d468ec9a6fb6eac661b346881ea6a66cdee442b0c29e35eba75ad",
      "assetIds": []
    },
    {
      "x": 180,
      "y": 394,
      "size": 1,
      "price": "1011000000000000000000",
      "reserved": "",
      "salt": "0xd063990d9add0fe05990e6736017e113d0f0e6b6a0b3eb9068f5ab4d348e4ee7",
      "assetIds": []
    },
    {
      "x": 180,
      "y": 395,
      "size": 1,
      "price": "4683000000000000000000",
      "reserved": "",
      "salt": "0x3a61c8b22e86367567e7b233a2a9967e116112814f8eb70c260b5a5be6bb2bab",
      "assetIds": [
        "41506478881403507969696680653240014914910929820314476107906210059990541021186"
      ]
    },
    {
      "x": 180,
      "y": 396,
      "size": 1,
      "price": "4683000000000000000000",
      "reserved": "",
      "salt": "0x414f662d8dc8e24a9617c73f3e380663fd70d96695450adc11630fb832eb7c7a",
      "assetIds": [
        "41506478881403507969696680653240014914910929820314476107906210059990541021186"
      ]
    },
    {
      "x": 180,
      "y": 397,
      "size": 1,
      "price": "4683000000000000000000",
      "reserved": "",
      "salt": "0xd407fa67fe6b9e42a28e6f35d844626b2616749285737304d7136ce8270b83d2",
      "assetIds": [
        "41506478881403507969696680653240014914910929820314476107906210059990541021186"
      ]
    },
    {
      "x": 180,
      "y": 398,
      "size": 1,
      "price": "4683000000000000000000",
      "reserved": "",
      "salt": "0x6009e2274436440d732a6be5593ecea3745a8dcedda916b036df4519ea6fb6f8",
      "assetIds": [
        "41506478881403507969696680653240014914910929820314476107906210059990541021186"
      ]
    },
    {
      "x": 180,
      "y": 402,
      "size": 1,
      "price": "1011000000000000000000",
      "reserved": "",
      "salt": "0x2cedfd7c1de2830cab4927e59affc6767a1487102e5d17b57f1e986307837ac3",
      "assetIds": []
    },
    {
      "x": 180,
      "y": 403,
      "size": 1,
      "price": "1011000000000000000000",
      "reserved": "",
      "salt": "0xd00f59d9fcbd0535c293fcfd7dfccb8a269c885ed9551f29201d5edb8d743352",
      "assetIds": []
    },
    {
      "x": 180,
      "y": 404,
      "size": 1,
      "price": "1011000000000000000000",
      "reserved": "",
      "salt": "0xf53d95fd6cf53d032a11595959e47e8dffbb1187fe851bca01ee5c8a57cd4a85",
      "assetIds": []
    },
    {
      "x": 180,
      "y": 405,
      "size": 1,
      "price": "1011000000000000000000",
      "reserved": "",
      "salt": "0x3c61f745ec59ea60a016793797a3e1b151ba1bb93a6199a90a03a57a9d927bee",
      "assetIds": []
    },
    {
      "x": 180,
      "y": 406,
      "size": 1,
      "price": "1011000000000000000000",
      "reserved": "",
      "salt": "0xdb1ffdf5f64f4ded0bb182ca5a2d83ad5e87d8d9ee4731a7abe02dc28100d4c4",
      "assetIds": []
    },
    {
      "x": 180,
      "y": 407,
      "size": 1,
      "price": "1011000000000000000000",
      "reserved": "",
      "salt": "0xe96c0c82ca9144973d5b933b8ff514a144555af02f84fab07b81e70845861425",
      "assetIds": []
    },
    {
      "x": 181,
      "y": 384,
      "size": 1,
      "price": "1011000000000000000000",
      "reserved": "",
      "salt": "0x81a4932ee6a2dfa388371636f06e4d11ceb75afcdb654042e2b6ee6ec6f4a9e8",
      "assetIds": []
    },
    {
      "x": 181,
      "y": 385,
      "size": 1,
      "price": "1011000000000000000000",
      "reserved": "",
      "salt": "0x3ef926680964e03da179a5054856ed0d89f749c7503ea982e472c2f5772e8ea9",
      "assetIds": []
    },
    {
      "x": 181,
      "y": 386,
      "size": 1,
      "price": "1011000000000000000000",
      "reserved": "",
      "salt": "0x6a38ca2317123a425f38db9ababc633246c038348de0702f359b1cf255c37fc7",
      "assetIds": []
    },
    {
      "x": 181,
      "y": 387,
      "size": 1,
      "price": "1011000000000000000000",
      "reserved": "",
      "salt": "0x51097d1dc8024ab4c92735c3424d859aa5a8731efd96451870f73ecb9fb345e8",
      "assetIds": []
    },
    {
      "x": 181,
      "y": 388,
      "size": 1,
      "price": "1011000000000000000000",
      "reserved": "",
      "salt": "0xf12f2a427e74154371bcb130839736cfdf6af1df85e6403b1761102187cb57f1",
      "assetIds": []
    },
    {
      "x": 181,
      "y": 389,
      "size": 1,
      "price": "1011000000000000000000",
      "reserved": "",
      "salt": "0xa6613af5184003fcea9c69d3bf2b8755ee7ba9fd62b037c022e92fc834510fd3",
      "assetIds": []
    },
    {
      "x": 181,
      "y": 390,
      "size": 1,
      "price": "1011000000000000000000",
      "reserved": "",
      "salt": "0x95b5112f49a29b7c32e76c2b9de6ea01edf164b2e59f0d987778b9342631c824",
      "assetIds": []
    },
    {
      "x": 181,
      "y": 391,
      "size": 1,
      "price": "1011000000000000000000",
      "reserved": "",
      "salt": "0x10770f85150426d360a234f33662b2c5d53ce60c977feab30e0c8a06aaafa647",
      "assetIds": []
    },
    {
      "x": 181,
      "y": 392,
      "size": 1,
      "price": "1011000000000000000000",
      "reserved": "",
      "salt": "0x2b31cb4edc2232f1e49e75eb5357aedd01ff8fe8960b78d850d7aa797ab2d150",
      "assetIds": []
    },
    {
      "x": 181,
      "y": 393,
      "size": 1,
      "price": "1011000000000000000000",
      "reserved": "",
      "salt": "0xb6dcce1c09cd0431a56c83d8c2e3642d336504d1dc59555866c1eb6cb5a37d15",
      "assetIds": []
    },
    {
      "x": 181,
      "y": 394,
      "size": 1,
      "price": "1011000000000000000000",
      "reserved": "0x7a9fe22691c811ea339d9b73150e6911a5343dca",
      "salt": "0xe1f9824db1cc97e8f6820bc589c392b6cb8737b0b58e41668de19ce528b3d1f1",
      "assetIds": []
    },
    {
      "x": 181,
      "y": 395,
      "size": 1,
      "price": "1011000000000000000000",
      "reserved": "0x7a9fe22691c811ea339d9b73150e6911a5343dca",
      "salt": "0x6ade16ff31bd9f69934f424b53efe3269b850c0efe0c93320a5a05ff6f2f3c81",
      "assetIds": []
    },
    {
      "x": 181,
      "y": 396,
      "size": 1,
      "price": "4683000000000000000000",
      "reserved": "",
      "salt": "0x7b637bd26f0024f37bf1254718e7ce7d986fd739aedbd1dc697025725b09f697",
      "assetIds": [
        "41506478881403507969696680653240014914910929820314476107906210059990541021186"
      ]
    },
    {
      "x": 181,
      "y": 397,
      "size": 1,
      "price": "4683000000000000000000",
      "reserved": "",
      "salt": "0xc41487b6dc73e981e2f5d8ff1d79ff477a1fd91d835265ddffd43205f1a1fdb3",
      "assetIds": [
        "41506478881403507969696680653240014914910929820314476107906210059990541021186"
      ]
    },
    {
      "x": 181,
      "y": 398,
      "size": 1,
      "price": "4683000000000000000000",
      "reserved": "",
      "salt": "0xc2d1f9b2cf38391525c1ee9ba303adba5c676cebdad1e9b1ec3a9af8cf561add",
      "assetIds": [
        "41506478881403507969696680653240014914910929820314476107906210059990541021186"
      ]
    },
    {
      "x": 181,
      "y": 402,
      "size": 1,
      "price": "1011000000000000000000",
      "reserved": "",
      "salt": "0x965bda8a9f212b920f8d5dd2a9dc52445f7f8efdec48f62d9c668342604ff7e9",
      "assetIds": []
    },
    {
      "x": 181,
      "y": 403,
      "size": 1,
      "price": "1011000000000000000000",
      "reserved": "",
      "salt": "0x9d93db6ffa5bfd47718fe0df79f29338256363d136722dcdafcd6f83c5684042",
      "assetIds": []
    },
    {
      "x": 181,
      "y": 404,
      "size": 1,
      "price": "1011000000000000000000",
      "reserved": "0x7a9fe22691c811ea339d9b73150e6911a5343dca",
      "salt": "0x1abc9e0c8cfc34ffabbd874639c99a53e3707662e64bb5a6e72b040f39619ebf",
      "assetIds": []
    },
    {
      "x": 181,
      "y": 405,
      "size": 1,
      "price": "1011000000000000000000",
      "reserved": "",
      "salt": "0x263e2a6f335d5e6c64b848e69bde29df4f2f51735243302e318d650341f2b69a",
      "assetIds": []
    },
    {
      "x": 181,
      "y": 406,
      "size": 1,
      "price": "1011000000000000000000",
      "reserved": "",
      "salt": "0x93aa73b9fec64f574a052dc024748616721e94a6b6e3436f275815c33d56568d",
      "assetIds": []
    },
    {
      "x": 181,
      "y": 407,
      "size": 1,
      "price": "1011000000000000000000",
      "reserved": "",
      "salt": "0x2b279d27cc140b3a75130f0273d82133279868da445daed0d70e4ab050976258",
      "assetIds": []
    },
    {
      "x": 182,
      "y": 384,
      "size": 1,
      "price": "1011000000000000000000",
      "reserved": "0x7a9fe22691c811ea339d9b73150e6911a5343dca",
      "salt": "0x88d5d86a837199d25c0699b031469d4c30a1fd1c7c55e0babf82c5acaf8ac3dc",
      "assetIds": []
    },
    {
      "x": 182,
      "y": 385,
      "size": 1,
      "price": "1011000000000000000000",
      "reserved": "",
      "salt": "0x44218d3c979d03ed4df531c1af8a803edb294f7adea76a1b487b0de9ec857f88",
      "assetIds": []
    },
    {
      "x": 182,
      "y": 386,
      "size": 1,
      "price": "1011000000000000000000",
      "reserved": "",
      "salt": "0xad9bbc7d63017a7e620c7810084e6fc1987c3356fef4f91d1f7fff0a6e68c6a9",
      "assetIds": []
    },
    {
      "x": 182,
      "y": 387,
      "size": 1,
      "price": "1011000000000000000000",
      "reserved": "0x7a9fe22691c811ea339d9b73150e6911a5343dca",
      "salt": "0x9f4d1f4629d444515f89184387e0f9f92196322484c068932fb78ff8c9a74c71",
      "assetIds": []
    },
    {
      "x": 182,
      "y": 388,
      "size": 1,
      "price": "1011000000000000000000",
      "reserved": "",
      "salt": "0x18c7eb03f4d9a83b340d452dbd59b6a1514411f95a52b09abb807b3c0f3681db",
      "assetIds": []
    },
    {
      "x": 182,
      "y": 389,
      "size": 1,
      "price": "1011000000000000000000",
      "reserved": "0x7a9fe22691c811ea339d9b73150e6911a5343dca",
      "salt": "0xca1c1ba9b847c44100ccf1d8b0905fbaaa1439757041a30a6205ce730ea58ef1",
      "assetIds": []
    },
    {
      "x": 182,
      "y": 390,
      "size": 1,
      "price": "1011000000000000000000",
      "reserved": "0x7a9fe22691c811ea339d9b73150e6911a5343dca",
      "salt": "0x411948653b485e855db55ea145d4a328d7465ab6c0963916a7f312193d5ff27e",
      "assetIds": []
    },
    {
      "x": 182,
      "y": 391,
      "size": 1,
      "price": "1011000000000000000000",
      "reserved": "0x7a9fe22691c811ea339d9b73150e6911a5343dca",
      "salt": "0x30348bbfc90d906cb0d0fa8dc7ba26477f579e9aeb4aa76e7e8689500e1bffa4",
      "assetIds": []
    },
    {
      "x": 182,
      "y": 392,
      "size": 1,
      "price": "1011000000000000000000",
      "reserved": "0x7a9fe22691c811ea339d9b73150e6911a5343dca",
      "salt": "0x609a77c15017c1020b8976894312b7a40d936eb7c04c5dc0dcd5153d7e87f120",
      "assetIds": []
    },
    {
      "x": 182,
      "y": 393,
      "size": 1,
      "price": "1011000000000000000000",
      "reserved": "",
      "salt": "0x95e1ac46f099392bfd6d820f57454ded81d513a24c60f09b074569149283323c",
      "assetIds": []
    },
    {
      "x": 182,
      "y": 394,
      "size": 1,
      "price": "1011000000000000000000",
      "reserved": "0x7a9fe22691c811ea339d9b73150e6911a5343dca",
      "salt": "0xaaf47ee9d700dae6c0f77b3306dc3d2a8f874eec1fd57506fcc14f64cf8d8ec3",
      "assetIds": []
    },
    {
      "x": 182,
      "y": 395,
      "size": 1,
      "price": "1011000000000000000000",
      "reserved": "0x7a9fe22691c811ea339d9b73150e6911a5343dca",
      "salt": "0x70678d960c70e46395960d64015453f1cef7c88a6b3fe83eadb54e5d1f246cfa",
      "assetIds": []
    },
    {
      "x": 182,
      "y": 396,
      "size": 1,
      "price": "1011000000000000000000",
      "reserved": "0x7a9fe22691c811ea339d9b73150e6911a5343dca",
      "salt": "0xf5f7e58a5bf54d2082680a8632d991a029d4af9b08a041f531ce0a4b567df5f0",
      "assetIds": []
    },
    {
      "x": 182,
      "y": 397,
      "size": 1,
      "price": "4683000000000000000000",
      "reserved": "",
      "salt": "0x080442dfb4fa30d9df01ff59c6b44de4facd794d93b5f5cf31d8e1102033cb48",
      "assetIds": [
        "41506478881403507969696680653240014914910929820314476107906210059990541021186"
      ]
    },
    {
      "x": 182,
      "y": 398,
      "size": 1,
      "price": "4683000000000000000000",
      "reserved": "",
      "salt": "0xb051a138c64507a6ba49847659f7d60d6655c237a08ba88c79bc005c5937b098",
      "assetIds": [
        "41506478881403507969696680653240014914910929820314476107906210059990541021186"
      ]
    },
    {
      "x": 182,
      "y": 402,
      "size": 1,
      "price": "1011000000000000000000",
      "reserved": "",
      "salt": "0xc7e528d2ca1d29920a81c12a01209f0a9bd7197bd1834d8e79b44f11460cd9f1",
      "assetIds": []
    },
    {
      "x": 182,
      "y": 403,
      "size": 1,
      "price": "1011000000000000000000",
      "reserved": "",
      "salt": "0x504675f1700204926701bd886a42e0ec552ab86e3dd2c0607d9fd127712d850f",
      "assetIds": []
    },
    {
      "x": 182,
      "y": 404,
      "size": 1,
      "price": "1011000000000000000000",
      "reserved": "",
      "salt": "0x689be7ed33721ff5f9a36edb4b0b08469cb531865d7770843b6e00e475066496",
      "assetIds": []
    },
    {
      "x": 182,
      "y": 405,
      "size": 1,
      "price": "1011000000000000000000",
      "reserved": "",
      "salt": "0x8e0ce56693612571145606f4eaa6d407e69bc9eeeb173f36925a76bf1ed3a35e",
      "assetIds": []
    },
    {
      "x": 182,
      "y": 406,
      "size": 1,
      "price": "1011000000000000000000",
      "reserved": "",
      "salt": "0xc2a9c9f9f1a8d86725c29268711bbe0cd209b65abf73d04e5037dd256ea330c3",
      "assetIds": []
    },
    {
      "x": 182,
      "y": 407,
      "size": 1,
      "price": "1011000000000000000000",
      "reserved": "",
      "salt": "0xad964c3d46b3c03dc4f704f5a7a478795dc3fd3ee4efb8d32629f7ca5ba21bde",
      "assetIds": []
    },
    {
      "x": 183,
      "y": 384,
      "size": 1,
      "price": "1011000000000000000000",
      "reserved": "",
      "salt": "0xc91db33ac3d0dae8ce13db59eab573c2a593412f20bcc19f5eed801d2157c2a0",
      "assetIds": []
    },
    {
      "x": 183,
      "y": 385,
      "size": 1,
      "price": "1011000000000000000000",
      "reserved": "",
      "salt": "0xce455d774cfda16e0c20914feea73c8bedc80d1167cd654e3bae1930a09c97cb",
      "assetIds": []
    },
    {
      "x": 183,
      "y": 386,
      "size": 1,
      "price": "1011000000000000000000",
      "reserved": "",
      "salt": "0x792ecc025e8989b027a2a01e9454fd94c64f4c3e00e636f32d7a27321ab010f3",
      "assetIds": []
    },
    {
      "x": 183,
      "y": 387,
      "size": 1,
      "price": "1011000000000000000000",
      "reserved": "0x7a9fe22691c811ea339d9b73150e6911a5343dca",
      "salt": "0x65d616a4ed5f5483efcbd63d7548de9488c8677c36c202f17cf12ee7b65025dc",
      "assetIds": []
    },
    {
      "x": 183,
      "y": 388,
      "size": 1,
      "price": "1011000000000000000000",
      "reserved": "0x7a9fe22691c811ea339d9b73150e6911a5343dca",
      "salt": "0xf521c6d5fccd50aa1ab56c76c13b5f9e0dc425d56500c7ea04516f35212de188",
      "assetIds": []
    },
    {
      "x": 183,
      "y": 389,
      "size": 1,
      "price": "1011000000000000000000",
      "reserved": "",
      "salt": "0xbf3fd89fbcd2cf5e2050a8b720b355968d6fc2ecd3da66314022349bbf0f8512",
      "assetIds": []
    },
    {
      "x": 183,
      "y": 390,
      "size": 1,
      "price": "1011000000000000000000",
      "reserved": "",
      "salt": "0xb10fcf09e8a39e01791ce313de3992a90011dd32716ab89314e572b8cecab0e8",
      "assetIds": []
    },
    {
      "x": 183,
      "y": 391,
      "size": 1,
      "price": "1011000000000000000000",
      "reserved": "",
      "salt": "0xb5a641ad9d7743912c242f2f4bd1f300b2c1d2e636cb54ca9a9129f08e5c9f21",
      "assetIds": []
    },
    {
      "x": 183,
      "y": 392,
      "size": 1,
      "price": "1011000000000000000000",
      "reserved": "",
      "salt": "0x7440e37151efc093190d4da31e27c1ce0637a683259d8bf98ec70d453bb6aab1",
      "assetIds": []
    },
    {
      "x": 183,
      "y": 393,
      "size": 1,
      "price": "1011000000000000000000",
      "reserved": "",
      "salt": "0xda88a07b5597edee791c76f870b4531019889a544a1caa2e8607ae9267cb9a25",
      "assetIds": []
    },
    {
      "x": 183,
      "y": 394,
      "size": 1,
      "price": "1011000000000000000000",
      "reserved": "",
      "salt": "0x5f8052a50df4ae75f6498049c9045c714bc2c0745d84a22760d9e8854e1bbc7f",
      "assetIds": []
    },
    {
      "x": 183,
      "y": 395,
      "size": 1,
      "price": "1011000000000000000000",
      "reserved": "",
      "salt": "0x5338e18bed6e8deacae2d072ba9824c083edd67823c67b08943ab4d46d21a5ce",
      "assetIds": []
    },
    {
      "x": 183,
      "y": 396,
      "size": 1,
      "price": "1011000000000000000000",
      "reserved": "",
      "salt": "0xef85e3d459ff902fa4613d8290e35cc4fb899ce7495dcd69b8d0def674f8a030",
      "assetIds": []
    },
    {
      "x": 183,
      "y": 397,
      "size": 1,
      "price": "1011000000000000000000",
      "reserved": "",
      "salt": "0xc41abfb6047aee784cf44ed17fd55908e5aec111d30e0d69ff81fcbec355ec46",
      "assetIds": []
    },
    {
      "x": 183,
      "y": 398,
      "size": 1,
      "price": "1011000000000000000000",
      "reserved": "",
      "salt": "0x7f7523d73ef2c45a74dec90bc7f17cd5120e7584fe88dfd07c32190242a58700",
      "assetIds": []
    },
    {
      "x": 183,
      "y": 399,
      "size": 1,
      "price": "1011000000000000000000",
      "reserved": "",
      "salt": "0x14a99032d08783045f9e01d126611de10ced1004094b020fb66264cf15ea630f",
      "assetIds": []
    },
    {
      "x": 183,
      "y": 400,
      "size": 1,
      "price": "1011000000000000000000",
      "reserved": "0x7a9fe22691c811ea339d9b73150e6911a5343dca",
      "salt": "0x1b0f6f257ab94229f5ecf403ad3b8d1b429f45f6c467a2a1397a98ab9da1dd5c",
      "assetIds": []
    },
    {
      "x": 183,
      "y": 401,
      "size": 1,
      "price": "1011000000000000000000",
      "reserved": "",
      "salt": "0x07ee9e56456560ed2f23fc2bd5fe4804e9befb3b5bd011c581797aafe004a131",
      "assetIds": []
    },
    {
      "x": 183,
      "y": 402,
      "size": 1,
      "price": "1011000000000000000000",
      "reserved": "",
      "salt": "0x31ad454842dcd9c6c8d1e6739e5b2af084479f50ec1b095b9c2d7af26c829dd2",
      "assetIds": []
    },
    {
      "x": 183,
      "y": 403,
      "size": 1,
      "price": "1011000000000000000000",
      "reserved": "",
      "salt": "0xad584353ed0b88ae65bf70f5a415fc012847fc231478ac0f05fb86c07bbc47bb",
      "assetIds": []
    },
    {
      "x": 183,
      "y": 404,
      "size": 1,
      "price": "1011000000000000000000",
      "reserved": "",
      "salt": "0xa470fe15cdf78ad78ee26e1b7fb6a12eeede91ab7681c79b96ab4145bea48346",
      "assetIds": []
    },
    {
      "x": 183,
      "y": 405,
      "size": 1,
      "price": "1011000000000000000000",
      "reserved": "",
      "salt": "0x3c45f251c6b9237bd28382a49a00293fb06b850f7891a2fe42472a9517ce181f",
      "assetIds": []
    },
    {
      "x": 183,
      "y": 406,
      "size": 1,
      "price": "1011000000000000000000",
      "reserved": "",
      "salt": "0xeaab35d06ce4b9d78c6fb76f41af3f86ec97a7adf5c170a1963f1e16a612bbe0",
      "assetIds": []
    },
    {
      "x": 183,
      "y": 407,
      "size": 1,
      "price": "1011000000000000000000",
      "reserved": "",
      "salt": "0x70d6635abf25f9d7b2a8a20ab9a57610a8df569a2554d7dda9f8a0745708fff1",
      "assetIds": []
    },
    {
      "x": 184,
      "y": 384,
      "size": 1,
      "price": "1011000000000000000000",
      "reserved": "0x7a9fe22691c811ea339d9b73150e6911a5343dca",
      "salt": "0x9418f80cff3e84b60df6ee401aefdac061410d875be44018d5fbe8549bbcdad8",
      "assetIds": []
    },
    {
      "x": 184,
      "y": 385,
      "size": 1,
      "price": "1011000000000000000000",
      "reserved": "",
      "salt": "0x29834243fece638bc9c507ad2a7bd63746b6f0379bd8ce7b98b9262f94995ff3",
      "assetIds": []
    },
    {
      "x": 184,
      "y": 386,
      "size": 1,
      "price": "1011000000000000000000",
      "reserved": "0x7a9fe22691c811ea339d9b73150e6911a5343dca",
      "salt": "0x277e50da2ec5b49c2207a51355df9f87720804217b6ed946566e792436de9a25",
      "assetIds": []
    },
    {
      "x": 184,
      "y": 387,
      "size": 1,
      "price": "4683000000000000000000",
      "reserved": "",
      "salt": "0x77f80f812939f18f6884c89d2c71519daa627f53645bbcff6abdc7ce15d55cec",
      "assetIds": [
        "41506478881403507969696680653240014914910929820314476107906210059990541021186"
      ]
    },
    {
      "x": 184,
      "y": 388,
      "size": 1,
      "price": "4683000000000000000000",
      "reserved": "",
      "salt": "0x00716c99679f5d10a9a49e3afb1f47a0b05a973074ef759abc774728dae3e80b",
      "assetIds": [
        "41506478881403507969696680653240014914910929820314476107906210059990541021186"
      ]
    },
    {
      "x": 184,
      "y": 389,
      "size": 1,
      "price": "4683000000000000000000",
      "reserved": "",
      "salt": "0x83f716b2ea4824b1ba5463cfbddd53e876a3af89a5f1866c3cdef869aa25d320",
      "assetIds": [
        "41506478881403507969696680653240014914910929820314476107906210059990541021186"
      ]
    },
    {
      "x": 184,
      "y": 390,
      "size": 1,
      "price": "1011000000000000000000",
      "reserved": "",
      "salt": "0x595fd1641918e5880788c25a059eee5fe45638099946a0e6f6fd472f3bd6515f",
      "assetIds": []
    },
    {
      "x": 184,
      "y": 391,
      "size": 1,
      "price": "1011000000000000000000",
      "reserved": "",
      "salt": "0xc1931f793de3c150a02dd2a0ba818166158908d9ff8e2ae6bb395f41a9e4570c",
      "assetIds": []
    },
    {
      "x": 184,
      "y": 392,
      "size": 1,
      "price": "1011000000000000000000",
      "reserved": "",
      "salt": "0x32cf792b98103b718bb54041c069149237672b499f8e34c0e016bb1d5d3ff119",
      "assetIds": []
    },
    {
      "x": 184,
      "y": 393,
      "size": 1,
      "price": "1011000000000000000000",
      "reserved": "",
      "salt": "0xac5fa67a711a9b583c26d102b95582ceb6b69e26cf673a1ae4d75dbc24ed7a29",
      "assetIds": []
    },
    {
      "x": 184,
      "y": 394,
      "size": 1,
      "price": "1011000000000000000000",
      "reserved": "0x7a9fe22691c811ea339d9b73150e6911a5343dca",
      "salt": "0x5e3fb69f2bc9570b7bcf97dcc24abaa8a94ecabd91e1285927092f4b4d9b9377",
      "assetIds": []
    },
    {
      "x": 184,
      "y": 395,
      "size": 1,
      "price": "1011000000000000000000",
      "reserved": "",
      "salt": "0xf091acec2f21c13ff6cdd00f54c58ba0f23d81b1ab528c662fdc262b2d64ec38",
      "assetIds": []
    },
    {
      "x": 184,
      "y": 396,
      "size": 1,
      "price": "1011000000000000000000",
      "reserved": "0x7a9fe22691c811ea339d9b73150e6911a5343dca",
      "salt": "0x5dcdd37cb02eb829a1c83c81d60a2bd2182911dc7adaf7cd5adec0ebce5cc8af",
      "assetIds": []
    },
    {
      "x": 184,
      "y": 397,
      "size": 1,
      "price": "1011000000000000000000",
      "reserved": "",
      "salt": "0x7f83d2ccfe8b8801fbd4ff9d0b6b561cfa69b13ca3a89cac4601eb378e52ef6e",
      "assetIds": []
    },
    {
      "x": 184,
      "y": 398,
      "size": 1,
      "price": "1011000000000000000000",
      "reserved": "",
      "salt": "0x73daa76e082ba399e4e25a7f6b1a3981ea6c7f500683e4b99bf8bab421c54925",
      "assetIds": []
    },
    {
      "x": 184,
      "y": 399,
      "size": 1,
      "price": "1011000000000000000000",
      "reserved": "",
      "salt": "0x5817d962b5ff5bfdb6e88fc5d5cba8be221698744dd16c4e8830b59e17e81e46",
      "assetIds": []
    },
    {
      "x": 184,
      "y": 400,
      "size": 1,
      "price": "1011000000000000000000",
      "reserved": "",
      "salt": "0x6d586789e0ce3eff768bc070b2f0fe26b53ef84e229ec09cc5161e673af3d35b",
      "assetIds": []
    },
    {
      "x": 184,
      "y": 401,
      "size": 1,
      "price": "1011000000000000000000",
      "reserved": "",
      "salt": "0x314eee618487842cef0da71561aebb9919d831bbd947201a6e286734725ae658",
      "assetIds": []
    },
    {
      "x": 184,
      "y": 402,
      "size": 1,
      "price": "1011000000000000000000",
      "reserved": "0x7a9fe22691c811ea339d9b73150e6911a5343dca",
      "salt": "0xb966802b636e6097de56cc79b5830a7bead6e04d597762c58704bb7bd85010f8",
      "assetIds": []
    },
    {
      "x": 184,
      "y": 403,
      "size": 1,
      "price": "1011000000000000000000",
      "reserved": "",
      "salt": "0x2265f7624bc693b3283f13a7082e9368e91cccec04bc1a78da76504b70e9ae3d",
      "assetIds": []
    },
    {
      "x": 184,
      "y": 404,
      "size": 1,
      "price": "1011000000000000000000",
      "reserved": "",
      "salt": "0xdf0573ee86901ade725c964b8362f57b5a0ad851f682df45304f058891f81f31",
      "assetIds": []
    },
    {
      "x": 184,
      "y": 405,
      "size": 1,
      "price": "1011000000000000000000",
      "reserved": "",
      "salt": "0xb1641bd3605fe64635829f10f198f793aa9e275a60cf6eecacbd93469701421b",
      "assetIds": []
    },
    {
      "x": 184,
      "y": 406,
      "size": 1,
      "price": "1011000000000000000000",
      "reserved": "0x7a9fe22691c811ea339d9b73150e6911a5343dca",
      "salt": "0xe12a13e6e6275d7dda3ca40e453897f9a4f8433a6dbda3fa5655607b70950ec5",
      "assetIds": []
    },
    {
      "x": 184,
      "y": 407,
      "size": 1,
      "price": "1011000000000000000000",
      "reserved": "",
      "salt": "0x1b88da7542c84822a7f1cd4f8e757aec59f82c2aaf13d5d130c8a9bcb9bb6018",
      "assetIds": []
    },
    {
      "x": 185,
      "y": 384,
      "size": 1,
      "price": "4683000000000000000000",
      "reserved": "",
      "salt": "0x60859d4efb82c9df2f168b846f56bdaa518d62b62285126014e95545e1c64fdf",
      "assetIds": [
        "41506478881403507969696680653240014914910929820314476107906210059990541021186"
      ]
    },
    {
      "x": 185,
      "y": 385,
      "size": 1,
      "price": "4683000000000000000000",
      "reserved": "",
      "salt": "0x551bfa5a8cdaf5516c5a151916fdf41333ad01ee115ad51e24fa3c7088fa5d73",
      "assetIds": [
        "41506478881403507969696680653240014914910929820314476107906210059990541021186"
      ]
    },
    {
      "x": 185,
      "y": 386,
      "size": 1,
      "price": "4683000000000000000000",
      "reserved": "",
      "salt": "0x64cd8b81899265dcfee4248e51661de5f95a2da70f0d5cda41ff70f1e44640cd",
      "assetIds": [
        "41506478881403507969696680653240014914910929820314476107906210059990541021186"
      ]
    },
    {
      "x": 185,
      "y": 387,
      "size": 1,
      "price": "4683000000000000000000",
      "reserved": "",
      "salt": "0x13e35649a79c4e58bcbed3f46186c7e1197561d139f0c4e463ed9f65bfb482c4",
      "assetIds": [
        "41506478881403507969696680653240014914910929820314476107906210059990541021186"
      ]
    },
    {
      "x": 185,
      "y": 388,
      "size": 1,
      "price": "4683000000000000000000",
      "reserved": "",
      "salt": "0x0b56a50ccba6c95fac745dfd87dffa322d640981a75f7346580059fba47ed274",
      "assetIds": [
        "41506478881403507969696680653240014914910929820314476107906210059990541021186"
      ]
    },
    {
      "x": 185,
      "y": 389,
      "size": 1,
      "price": "4683000000000000000000",
      "reserved": "",
      "salt": "0x15dc8d486b5e306e81a1e2236c91a4dc9860f6e92dca4a50b9badd6203ee4f2e",
      "assetIds": [
        "41506478881403507969696680653240014914910929820314476107906210059990541021186"
      ]
    },
    {
      "x": 185,
      "y": 390,
      "size": 1,
      "price": "1011000000000000000000",
      "reserved": "",
      "salt": "0x68e3f75c219a6baa1dacc17882252d6057a7b683f30881558375c0a4e11af986",
      "assetIds": []
    },
    {
      "x": 185,
      "y": 391,
      "size": 1,
      "price": "1011000000000000000000",
      "reserved": "",
      "salt": "0x35fe7e1b2961a5c47db89faa7040e899b47d3a076743caa17531e2ef68438805",
      "assetIds": []
    },
    {
      "x": 185,
      "y": 392,
      "size": 1,
      "price": "1011000000000000000000",
      "reserved": "",
      "salt": "0x5a6702b6e1ccac37d8180f08853b74379fb8acb1ff4d2ae23d44caa54a5fe75e",
      "assetIds": []
    },
    {
      "x": 185,
      "y": 393,
      "size": 1,
      "price": "1011000000000000000000",
      "reserved": "",
      "salt": "0xf09ca33b7749f2b59362cb287655c9839a301406d5ba50f5e9811e2b1c6b76ff",
      "assetIds": []
    },
    {
      "x": 185,
      "y": 394,
      "size": 1,
      "price": "1011000000000000000000",
      "reserved": "",
      "salt": "0xbda91142a1021b8e7d35f0b6b6a0295c634a3131e0e89e2b89c9f196b552481e",
      "assetIds": []
    },
    {
      "x": 185,
      "y": 395,
      "size": 1,
      "price": "1011000000000000000000",
      "reserved": "",
      "salt": "0x37857999c71a4675ddf00732925d52dc43a51aa6f2bcedfd2f63c8ff30f7e0e4",
      "assetIds": []
    },
    {
      "x": 185,
      "y": 396,
      "size": 1,
      "price": "1011000000000000000000",
      "reserved": "",
      "salt": "0xd4c9b23301001d67d420cc1cd052bbf6abb2ff4fd55d5c3c0e664bb7c692a02c",
      "assetIds": []
    },
    {
      "x": 185,
      "y": 397,
      "size": 1,
      "price": "1011000000000000000000",
      "reserved": "",
      "salt": "0xdd859d4934743e513c67a219c15de6e148fa5ac773b0ec83325b1d5302df7fcc",
      "assetIds": []
    },
    {
      "x": 185,
      "y": 398,
      "size": 1,
      "price": "1011000000000000000000",
      "reserved": "",
      "salt": "0x8f427dabc3abf7e5f53807d65ba81141e166c64ab56c190f1fc69103e9a83e1e",
      "assetIds": []
    },
    {
      "x": 185,
      "y": 399,
      "size": 1,
      "price": "1011000000000000000000",
      "reserved": "",
      "salt": "0xa806ace74f8fc6b63862168ea11bd861515c185b562ba743ab9550de48291fb3",
      "assetIds": []
    },
    {
      "x": 185,
      "y": 400,
      "size": 1,
      "price": "1011000000000000000000",
      "reserved": "",
      "salt": "0xca4de8a18b03458e78f5335bd7a742693bebdc4e5339bc52143b026bfd585fef",
      "assetIds": []
    },
    {
      "x": 185,
      "y": 401,
      "size": 1,
      "price": "1011000000000000000000",
      "reserved": "",
      "salt": "0xd70d85e09c2957c3b922413f9a6323b292677645f6deed03b0bf6fe9027bb30a",
      "assetIds": []
    },
    {
      "x": 185,
      "y": 402,
      "size": 1,
      "price": "1011000000000000000000",
      "reserved": "",
      "salt": "0x5d8362bda6d912fea69934144a8d364ce344682c53a0f086a13dbcb80dbbc902",
      "assetIds": []
    },
    {
      "x": 185,
      "y": 403,
      "size": 1,
      "price": "1011000000000000000000",
      "reserved": "",
      "salt": "0xa8b778ffd923d00c75fb172bf1e34790386a769ac2b48dec4f00daed0c9d6f18",
      "assetIds": []
    },
    {
      "x": 185,
      "y": 404,
      "size": 1,
      "price": "1011000000000000000000",
      "reserved": "",
      "salt": "0xa80c0c9314b069bf8e8a86d075c96c2159d44890ccc049988937db1d8567aacf",
      "assetIds": []
    },
    {
      "x": 185,
      "y": 405,
      "size": 1,
      "price": "1011000000000000000000",
      "reserved": "",
      "salt": "0x1e8d791e61e9bf7f3f312153ccc7b6c9991e11e13a8e31752ede79dd818bc048",
      "assetIds": []
    },
    {
      "x": 185,
      "y": 406,
      "size": 1,
      "price": "1011000000000000000000",
      "reserved": "",
      "salt": "0x721f5cbdf0cde8c385dd6ed52040015c2a9f6f01ccfe197d65db7c9b05fc4e07",
      "assetIds": []
    },
    {
      "x": 185,
      "y": 407,
      "size": 1,
      "price": "1011000000000000000000",
      "reserved": "",
      "salt": "0xc5c26c3a9116e30c74ae68d80393b85b4dcdfecf7ec24df80aaefb09e501ee4a",
      "assetIds": []
    },
    {
      "x": 186,
      "y": 390,
      "size": 1,
      "price": "4683000000000000000000",
      "reserved": "",
      "salt": "0xc9d2f7a7ba16dd31760db6882a39285f3b8fb36a0cd33cfe909ad41dcb4c41c7",
      "assetIds": [
        "41506478881403507969696680653240014914910929820314476107906210059990541021186"
      ]
    },
    {
      "x": 186,
      "y": 391,
      "size": 1,
      "price": "4683000000000000000000",
      "reserved": "",
      "salt": "0xadacc996665b3f2dc77c847a3dbb2b48a037e98a05c2515e05202583dce1be34",
      "assetIds": [
        "41506478881403507969696680653240014914910929820314476107906210059990541021186"
      ]
    },
    {
      "x": 186,
      "y": 392,
      "size": 1,
      "price": "1011000000000000000000",
      "reserved": "0x7a9fe22691c811ea339d9b73150e6911a5343dca",
      "salt": "0xbfab6144589b58e807415ad674af8ac8aa0a90cd790fc8c27ba52b2668a471b7",
      "assetIds": []
    },
    {
      "x": 186,
      "y": 393,
      "size": 1,
      "price": "1011000000000000000000",
      "reserved": "",
      "salt": "0x3be564f291c7581750d480f48909740659d2c43f9fb1f9047efb909a5172799c",
      "assetIds": []
    },
    {
      "x": 186,
      "y": 394,
      "size": 1,
      "price": "1011000000000000000000",
      "reserved": "0x7a9fe22691c811ea339d9b73150e6911a5343dca",
      "salt": "0xedeb0a1977235545c598de4ed2dc69d58cf42d8d3ee7d07ebee9f6a80e9721b5",
      "assetIds": []
    },
    {
      "x": 186,
      "y": 395,
      "size": 1,
      "price": "1011000000000000000000",
      "reserved": "0x7a9fe22691c811ea339d9b73150e6911a5343dca",
      "salt": "0xebf4b998d9745bfcf46901e07293f8a007a4811502890250325f05deaddb9c34",
      "assetIds": []
    },
    {
      "x": 186,
      "y": 396,
      "size": 1,
      "price": "1011000000000000000000",
      "reserved": "",
      "salt": "0xd820929bb24fb0e3bf1066dc2c066003144960e960d7fee3ec238325fc7c5e99",
      "assetIds": []
    },
    {
      "x": 186,
      "y": 397,
      "size": 1,
      "price": "1011000000000000000000",
      "reserved": "",
      "salt": "0x454d1df8d83fb2ee3ec99185e2e765a2ec35b20e8298c701a2e819c017592dc1",
      "assetIds": []
    },
    {
      "x": 186,
      "y": 398,
      "size": 1,
      "price": "1011000000000000000000",
      "reserved": "0x7a9fe22691c811ea339d9b73150e6911a5343dca",
      "salt": "0xbedbe925a3a61b4ce0e7bcfaa7dfbe4337f21b57eb55bab8ed0eaa2ea9c9478c",
      "assetIds": []
    },
    {
      "x": 186,
      "y": 399,
      "size": 1,
      "price": "1011000000000000000000",
      "reserved": "",
      "salt": "0x9a90bbacbfc36acba9561f3a41c65b987cbfc035f8fb018f7db2df7e20c971c8",
      "assetIds": []
    },
    {
      "x": 186,
      "y": 400,
      "size": 1,
      "price": "1011000000000000000000",
      "reserved": "",
      "salt": "0x7ee87019e4caa277063ca8a8c7d2c646564a40dc7e3211ac08629bdc8c1950de",
      "assetIds": []
    },
    {
      "x": 186,
      "y": 401,
      "size": 1,
      "price": "1011000000000000000000",
      "reserved": "",
      "salt": "0x2d229fff215d078f2ea3ea469849ddff81f7b93e64ef08791ce4c22625c4c6b5",
      "assetIds": []
    },
    {
      "x": 186,
      "y": 402,
      "size": 1,
      "price": "1011000000000000000000",
      "reserved": "",
      "salt": "0x888d7918a5e8c28412c64741555cbff336c6c36665ad08d8e8f2f0b426e326a6",
      "assetIds": []
    },
    {
      "x": 186,
      "y": 403,
      "size": 1,
      "price": "1011000000000000000000",
      "reserved": "",
      "salt": "0xdac93c5cb4379c8e09d07d5349c648999268854f30bc833b8e753643b0bb7695",
      "assetIds": []
    },
    {
      "x": 186,
      "y": 404,
      "size": 1,
      "price": "1011000000000000000000",
      "reserved": "0x7a9fe22691c811ea339d9b73150e6911a5343dca",
      "salt": "0x4989bb60ec32ceb8bd991e1936f333e804b9453174a50ff8d25211834ec8a8a2",
      "assetIds": []
    },
    {
      "x": 186,
      "y": 405,
      "size": 1,
      "price": "1011000000000000000000",
      "reserved": "",
      "salt": "0xb2470350f455a363f242b33a9ab170066675f2947bd2a59e70159c3501d79ec3",
      "assetIds": []
    },
    {
      "x": 186,
      "y": 406,
      "size": 1,
      "price": "1011000000000000000000",
      "reserved": "",
      "salt": "0x6c1c55586cf9c7f7565717d1940c87884cb46c8a6c41d6741b5434bb12f5dac2",
      "assetIds": []
    },
    {
      "x": 186,
      "y": 407,
      "size": 1,
      "price": "1011000000000000000000",
      "reserved": "",
      "salt": "0xca7073b56ec84adc878cd96ae9ca4be98905c07c83f3f0243c5ae7add09ff4fe",
      "assetIds": []
    },
    {
      "x": 187,
      "y": 390,
      "size": 1,
      "price": "4683000000000000000000",
      "reserved": "",
      "salt": "0x46ac61088179aad351fe502ea18b0fc377fa6db84287c98e44dcc26cae6b8aab",
      "assetIds": [
        "41506478881403507969696680653240014914910929820314476107906210059990541021186"
      ]
    },
    {
      "x": 187,
      "y": 391,
      "size": 1,
      "price": "4683000000000000000000",
      "reserved": "",
      "salt": "0xb574a3cdf6636fd7b6771518856f9ebec6b9b8f634120aaac34e6da4e57e4b8c",
      "assetIds": [
        "41506478881403507969696680653240014914910929820314476107906210059990541021186"
      ]
    },
    {
      "x": 187,
      "y": 392,
      "size": 1,
      "price": "1011000000000000000000",
      "reserved": "0x7a9fe22691c811ea339d9b73150e6911a5343dca",
      "salt": "0xba711812a590596eb21896fa8a9f2ea3236d8a2059ee15ae1f4180a3740fd5db",
      "assetIds": []
    },
    {
      "x": 187,
      "y": 393,
      "size": 1,
      "price": "1011000000000000000000",
      "reserved": "",
      "salt": "0xdca886f352714962e1170d0208a44b69450da8580163d3039ccb0df8159ab84a",
      "assetIds": []
    },
    {
      "x": 187,
      "y": 394,
      "size": 1,
      "price": "1011000000000000000000",
      "reserved": "",
      "salt": "0x681ecc6eec34321450386b464acb2daf683868afe755ab8113cb84e81c5078c5",
      "assetIds": []
    },
    {
      "x": 187,
      "y": 395,
      "size": 1,
      "price": "1011000000000000000000",
      "reserved": "",
      "salt": "0x47ea6250215eee3792764afad992fdf1a6046144d5f0726b0aa54b3dc2a03fb9",
      "assetIds": []
    },
    {
      "x": 187,
      "y": 396,
      "size": 1,
      "price": "1011000000000000000000",
      "reserved": "",
      "salt": "0x648fe7066033309c8998891cab714ad706de9555de88302d35533c98c7f5cfad",
      "assetIds": []
    },
    {
      "x": 187,
      "y": 397,
      "size": 1,
      "price": "1011000000000000000000",
      "reserved": "",
      "salt": "0x9b81af9126967146edb986c8df931a6aa00bab5ee453c1fe450e844ef85f2945",
      "assetIds": []
    },
    {
      "x": 187,
      "y": 398,
      "size": 1,
      "price": "1011000000000000000000",
      "reserved": "",
      "salt": "0x43f2b88f780ac41e021beaffe424307ba3797f61fafbe6975c47cfdcf5aed569",
      "assetIds": []
    },
    {
      "x": 187,
      "y": 399,
      "size": 1,
      "price": "1011000000000000000000",
      "reserved": "",
      "salt": "0x0ab7cd97c60c99795f82b08576fe737cb94e8ad69d4146470c3f9099f3fc2518",
      "assetIds": []
    },
    {
      "x": 187,
      "y": 400,
      "size": 1,
      "price": "1011000000000000000000",
      "reserved": "0x7a9fe22691c811ea339d9b73150e6911a5343dca",
      "salt": "0x137d1a9468beec5a189dac66712b2f577f5039724c89bf3d79871f7bb326d541",
      "assetIds": []
    },
    {
      "x": 187,
      "y": 401,
      "size": 1,
      "price": "1011000000000000000000",
      "reserved": "",
      "salt": "0x5608ff256151a170b0bbdf06e6fd3ace6abd9e4c5074e341ca0f433545864644",
      "assetIds": []
    },
    {
      "x": 187,
      "y": 402,
      "size": 1,
      "price": "1011000000000000000000",
      "reserved": "0x7a9fe22691c811ea339d9b73150e6911a5343dca",
      "salt": "0x1d4615894be29ffaa723727290e68d27adff7e59495c53fca2f0701da4d214e0",
      "assetIds": []
    },
    {
      "x": 187,
      "y": 403,
      "size": 1,
      "price": "1011000000000000000000",
      "reserved": "",
      "salt": "0xa134e7819598882a6160793dcbd90e053dc0e4a94897b7effd90406defbf7e76",
      "assetIds": []
    },
    {
      "x": 187,
      "y": 404,
      "size": 1,
      "price": "1011000000000000000000",
      "reserved": "",
      "salt": "0xf5b8b43336b99d22bc7630758f0c6611cd9b8083e318f28be58e8749850ce4a5",
      "assetIds": []
    },
    {
      "x": 187,
      "y": 405,
      "size": 1,
      "price": "1011000000000000000000",
      "reserved": "",
      "salt": "0x06091ffbdb27536e06bd51def6c2a53b037ee684b8dbc56f4f804846d188123d",
      "assetIds": []
    },
    {
      "x": 187,
      "y": 406,
      "size": 1,
      "price": "1011000000000000000000",
      "reserved": "0x7a9fe22691c811ea339d9b73150e6911a5343dca",
      "salt": "0x8fd064df4c285efbcbc0b553bd98c99eb1f1816df900667f94df368a225165dd",
      "assetIds": []
    },
    {
      "x": 187,
      "y": 407,
      "size": 1,
      "price": "1011000000000000000000",
      "reserved": "",
      "salt": "0x03e3afa7d02b5981033f0065cad65f8e7477a8c7d92438737fa781e44607aff6",
      "assetIds": []
    },
    {
      "x": 188,
      "y": 390,
      "size": 1,
      "price": "4683000000000000000000",
      "reserved": "",
      "salt": "0x6b45238d65936632e34d06075223c50ac8855083b315911498735ff45c38b461",
      "assetIds": [
        "41506478881403507969696680653240014914910929820314476107906210059990541021186"
      ]
    },
    {
      "x": 188,
      "y": 391,
      "size": 1,
      "price": "4683000000000000000000",
      "reserved": "",
      "salt": "0x2cae3577d476dbca90a3c4906009e8692003062b73889e620809dfcc78ba778b",
      "assetIds": [
        "41506478881403507969696680653240014914910929820314476107906210059990541021186"
      ]
    },
    {
      "x": 188,
      "y": 392,
      "size": 1,
      "price": "1011000000000000000000",
      "reserved": "",
      "salt": "0x4930993d8bcc66ac6424bdd395cabfc08bb62ed263fbff7d20bd852659bf2d03",
      "assetIds": []
    },
    {
      "x": 188,
      "y": 393,
      "size": 1,
      "price": "1011000000000000000000",
      "reserved": "",
      "salt": "0x808e83e697f96dde07a1b9c326ba55b13627fedb5d2be97e81283d2f79e3b708",
      "assetIds": []
    },
    {
      "x": 188,
      "y": 394,
      "size": 1,
      "price": "1011000000000000000000",
      "reserved": "0x7a9fe22691c811ea339d9b73150e6911a5343dca",
      "salt": "0x70941788371d6c694e656ca7dc6baf5392e437a80993a100a75f9df44403f5a5",
      "assetIds": []
    },
    {
      "x": 188,
      "y": 395,
      "size": 1,
      "price": "1011000000000000000000",
      "reserved": "",
      "salt": "0xc3ad2ab52e4d3e0cef1bc30f0debf0079ec314b5d15331762dea79a028bd8fd4",
      "assetIds": []
    },
    {
      "x": 188,
      "y": 396,
      "size": 1,
      "price": "1011000000000000000000",
      "reserved": "0x7a9fe22691c811ea339d9b73150e6911a5343dca",
      "salt": "0xa47a4e45af99419d5b15d2362c1d016a4c9910d8299dba3bb59851842ff56543",
      "assetIds": []
    },
    {
      "x": 188,
      "y": 397,
      "size": 1,
      "price": "1011000000000000000000",
      "reserved": "0x7a9fe22691c811ea339d9b73150e6911a5343dca",
      "salt": "0x76d9a9eabadaaf65ba952a8b3cdf6218ffff2df1c60d3144af07f95f9d4ff484",
      "assetIds": []
    },
    {
      "x": 188,
      "y": 398,
      "size": 1,
      "price": "1011000000000000000000",
      "reserved": "",
      "salt": "0xb9f4bd34855a59539d9a6873cc753226f79c14d3d01e592cee7462319c305862",
      "assetIds": []
    },
    {
      "x": 188,
      "y": 399,
      "size": 1,
      "price": "1011000000000000000000",
      "reserved": "",
      "salt": "0x9ce734f85787ecf14bee951fedbd249d9b3756b3a9e8b7366c9b1d84a9fb363c",
      "assetIds": []
    },
    {
      "x": 188,
      "y": 400,
      "size": 1,
      "price": "1011000000000000000000",
      "reserved": "",
      "salt": "0x7eccea09f2fcac0d304141a9a9dd89d570137de55645ac0f46a1ef8791abc43b",
      "assetIds": []
    },
    {
      "x": 188,
      "y": 401,
      "size": 1,
      "price": "1011000000000000000000",
      "reserved": "",
      "salt": "0xe8ed08768e7cab8a46262d2addd49aba69951abbf430af5beaa8580f794d159d",
      "assetIds": []
    },
    {
      "x": 188,
      "y": 402,
      "size": 1,
      "price": "1011000000000000000000",
      "reserved": "0x7a9fe22691c811ea339d9b73150e6911a5343dca",
      "salt": "0xfda7b8f766ae46a82b19277b2e2e342541d418e630811e0a0b02c339b4bc27e4",
      "assetIds": []
    },
    {
      "x": 188,
      "y": 403,
      "size": 1,
      "price": "1011000000000000000000",
      "reserved": "",
      "salt": "0x843ec94666af74ee2c56880b52256713ec3a3e770833fd669b5ead0834b224c4",
      "assetIds": []
    },
    {
      "x": 188,
      "y": 404,
      "size": 1,
      "price": "1011000000000000000000",
      "reserved": "0x7a9fe22691c811ea339d9b73150e6911a5343dca",
      "salt": "0x6387ac680a2264c2e250eda1e47214979e98e666eb96cd3599396d3aa76243f5",
      "assetIds": []
    },
    {
      "x": 188,
      "y": 405,
      "size": 1,
      "price": "1011000000000000000000",
      "reserved": "",
      "salt": "0x2224d8e91fca96d6eb881545c868fc4c5898d575473aab3b3ea928b0142f24d0",
      "assetIds": []
    },
    {
      "x": 188,
      "y": 406,
      "size": 1,
      "price": "1011000000000000000000",
      "reserved": "0x7a9fe22691c811ea339d9b73150e6911a5343dca",
      "salt": "0x7cb541c8b2043af43691b35974c8e62a6b095c5230acd5e2e784aeb3a65d29eb",
      "assetIds": []
    },
    {
      "x": 188,
      "y": 407,
      "size": 1,
      "price": "1011000000000000000000",
      "reserved": "",
      "salt": "0x97b4c33d1eca028c1beeb07da9cb18eeecfa00c11942147fc7d8524bb96e98a8",
      "assetIds": []
    },
    {
      "x": 189,
      "y": 390,
      "size": 1,
      "price": "4683000000000000000000",
      "reserved": "",
      "salt": "0x3e77038cd1b32e75fec6b1471652705e9583b1802f46fb3612933940db1c33cf",
      "assetIds": [
        "41506478881403507969696680653240014914910929820314476107906210059990541021186"
      ]
    },
    {
      "x": 189,
      "y": 391,
      "size": 1,
      "price": "1011000000000000000000",
      "reserved": "",
      "salt": "0x21de4d8b514d8dbe6e4dceca674882fd2e8fa7d103f983a28ff355a6d390a00b",
      "assetIds": []
    },
    {
      "x": 189,
      "y": 392,
      "size": 1,
      "price": "1011000000000000000000",
      "reserved": "",
      "salt": "0xb6bb6d50d97427cd51459c69e8deb7220c70a9bc7c609ac15777bfb2479af218",
      "assetIds": []
    },
    {
      "x": 189,
      "y": 393,
      "size": 1,
      "price": "1011000000000000000000",
      "reserved": "",
      "salt": "0xee2457ad197d04a0c38d35a5ee88b39deb041c4c3453a90bde2e9dcf737827d6",
      "assetIds": []
    },
    {
      "x": 189,
      "y": 394,
      "size": 1,
      "price": "1011000000000000000000",
      "reserved": "",
      "salt": "0x3f67d81da224f3860d5eeaef86e5ae9685753b268f8b3f390d4b91824d87df88",
      "assetIds": []
    },
    {
      "x": 189,
      "y": 395,
      "size": 1,
      "price": "1011000000000000000000",
      "reserved": "",
      "salt": "0xdf04e29314f2ba947c62842b8558cd8bbd24bc0afde34fc1fcb40e56c10d137e",
      "assetIds": []
    },
    {
      "x": 189,
      "y": 396,
      "size": 1,
      "price": "1011000000000000000000",
      "reserved": "",
      "salt": "0x0ec34b209d7182c3dae01317aaca316f40ad25800bbaf4d2d22ac23cbc17a7cc",
      "assetIds": []
    },
    {
      "x": 189,
      "y": 397,
      "size": 1,
      "price": "1011000000000000000000",
      "reserved": "",
      "salt": "0x601db98bf4f589a4bfc79803ae95265a8744dcf203558bb65e54114bcf63e7be",
      "assetIds": []
    },
    {
      "x": 189,
      "y": 398,
      "size": 1,
      "price": "1011000000000000000000",
      "reserved": "",
      "salt": "0x538db7d1396b4e58392746475a08787b516f7185ea1e4a241d045020c69db382",
      "assetIds": []
    },
    {
      "x": 189,
      "y": 399,
      "size": 1,
      "price": "1011000000000000000000",
      "reserved": "",
      "salt": "0x94cff65b2fd485e6c47b1e92fd2b800c4ee4942e3893aeb44b78759592b874ab",
      "assetIds": []
    },
    {
      "x": 189,
      "y": 400,
      "size": 1,
      "price": "1011000000000000000000",
      "reserved": "0x7a9fe22691c811ea339d9b73150e6911a5343dca",
      "salt": "0xff48035b12f06ea1a59852f6f34cdf29e7a1f06e14602bc8e3b9c0573c89fbe0",
      "assetIds": []
    },
    {
      "x": 189,
      "y": 401,
      "size": 1,
      "price": "1011000000000000000000",
      "reserved": "",
      "salt": "0xb2cadf5c0951527cad5ddb1e12bcbce1d3a0c12e189982b652760880bbdd8be3",
      "assetIds": []
    },
    {
      "x": 189,
      "y": 402,
      "size": 1,
      "price": "1011000000000000000000",
      "reserved": "",
      "salt": "0x5aa39c03ffb213c20832996a54d3c37b58c0ad748924f32d7a7e10c55d51a337",
      "assetIds": []
    },
    {
      "x": 189,
      "y": 403,
      "size": 1,
      "price": "1011000000000000000000",
      "reserved": "",
      "salt": "0xe4e2a8f272752ab94b154b5873899a638080258f5eefe4f2804d9a280c57e6c8",
      "assetIds": []
    },
    {
      "x": 189,
      "y": 404,
      "size": 1,
      "price": "1011000000000000000000",
      "reserved": "",
      "salt": "0x85b18c07aa628347298acbee392699535607ab95b04fa3033d3f636cfd9fde29",
      "assetIds": []
    },
    {
      "x": 189,
      "y": 405,
      "size": 1,
      "price": "1011000000000000000000",
      "reserved": "",
      "salt": "0xaa71793724954a99740fbe374b5267fd69a0aee0dc382245512f5c1d412e944b",
      "assetIds": []
    },
    {
      "x": 189,
      "y": 406,
      "size": 1,
      "price": "1011000000000000000000",
      "reserved": "",
      "salt": "0x97862da9a2911f1277fcb25963e4de238877636a98b91b2ece00b0cd97328918",
      "assetIds": []
    },
    {
      "x": 189,
      "y": 407,
      "size": 1,
      "price": "1011000000000000000000",
      "reserved": "",
      "salt": "0x6bec5769b8cb3f0c39d23e62be9dd2fa6b61e7dad0961b8fe5155dc224187c87",
      "assetIds": []
    },
    {
      "x": 190,
      "y": 390,
      "size": 1,
      "price": "4683000000000000000000",
      "reserved": "",
      "salt": "0x1ef45a876b9493ae23c9e592776e27d65cb8880ddfd0ad122419080e3d3ecd06",
      "assetIds": [
        "41506478881403507969696680653240014914910929820314476107906210059990541021186"
      ]
    },
    {
      "x": 190,
      "y": 391,
      "size": 1,
      "price": "1011000000000000000000",
      "reserved": "0x7a9fe22691c811ea339d9b73150e6911a5343dca",
      "salt": "0xf5facc99cdeace63315e8f2ae7c13197e1f79fca970448d92b715b732b1c274c",
      "assetIds": []
    },
    {
      "x": 190,
      "y": 392,
      "size": 1,
      "price": "1011000000000000000000",
      "reserved": "",
      "salt": "0xf50bc3f1935be81acaf13a3b57b221ed3e46c6ecc0560700da2cce2ab8089680",
      "assetIds": []
    },
    {
      "x": 190,
      "y": 393,
      "size": 1,
      "price": "1011000000000000000000",
      "reserved": "",
      "salt": "0x40e414d7183b86f072f716aee40de94b822c65342b85548ce731a99ae5ca70c3",
      "assetIds": []
    },
    {
      "x": 190,
      "y": 394,
      "size": 1,
      "price": "1011000000000000000000",
      "reserved": "",
      "salt": "0xb1d25ae9ff393f76c913b444d8c6954b77a26d6ebf5a26370cd5a44b1646404d",
      "assetIds": []
    },
    {
      "x": 190,
      "y": 395,
      "size": 1,
      "price": "1011000000000000000000",
      "reserved": "",
      "salt": "0x5ec618f924faad9cca2a1fe3a61d128e5cb16d0afb00e3d5e29df0cd23dae274",
      "assetIds": []
    },
    {
      "x": 190,
      "y": 396,
      "size": 1,
      "price": "1011000000000000000000",
      "reserved": "",
      "salt": "0xf22dcf130d7f392e208e7bbc17aa1b745d6c2f2c8e4d59ff20cb2edfedcfdae8",
      "assetIds": []
    },
    {
      "x": 190,
      "y": 397,
      "size": 1,
      "price": "1011000000000000000000",
      "reserved": "0x7a9fe22691c811ea339d9b73150e6911a5343dca",
      "salt": "0x81d8dc3f592c45bf2f8580f3ce3053ef95f6db5def1f7feb4a9535cc4022cdcf",
      "assetIds": []
    },
    {
      "x": 190,
      "y": 398,
      "size": 1,
      "price": "1011000000000000000000",
      "reserved": "",
      "salt": "0x18da5a0e62627dd05362ea8a03a60923286734b5fa01d1e502ee3053ff64434c",
      "assetIds": []
    },
    {
      "x": 190,
      "y": 399,
      "size": 1,
      "price": "1011000000000000000000",
      "reserved": "",
      "salt": "0x933707775079817420a1945232a4239d0b2a62d86e6dd6c8efb62cf492fa1985",
      "assetIds": []
    },
    {
      "x": 190,
      "y": 400,
      "size": 1,
      "price": "1011000000000000000000",
      "reserved": "",
      "salt": "0x63079033952ba7cfccda68f409e08c481d64a2ae6bd64c6923f2c00b143c60ab",
      "assetIds": []
    },
    {
      "x": 190,
      "y": 401,
      "size": 1,
      "price": "1011000000000000000000",
      "reserved": "",
      "salt": "0x38d0cd2763ab2c4d01da72d4df61a3749d1ba93db9f914e81814188c683a6e9f",
      "assetIds": []
    },
    {
      "x": 190,
      "y": 402,
      "size": 1,
      "price": "1011000000000000000000",
      "reserved": "",
      "salt": "0x9d79dac42876fdd7d390824acca58e0cae3d9f4d7eb5c03541ffd1493a028d28",
      "assetIds": []
    },
    {
      "x": 190,
      "y": 403,
      "size": 1,
      "price": "1011000000000000000000",
      "reserved": "",
      "salt": "0xb18674b2275288c67050c92c52596e65a1e0cf83e5515ed4019ad4af51418978",
      "assetIds": []
    },
    {
      "x": 190,
      "y": 404,
      "size": 1,
      "price": "1011000000000000000000",
      "reserved": "",
      "salt": "0xbbd44c22d8cffd7cc8c91180030ed81a46c94fb71c223dfeb70a2641f536a5db",
      "assetIds": []
    },
    {
      "x": 190,
      "y": 405,
      "size": 1,
      "price": "1011000000000000000000",
      "reserved": "",
      "salt": "0x8a27f934ba3d823d0a56ad96865dc4a8913906fdb266f1b4474b8fe396d1191d",
      "assetIds": []
    },
    {
      "x": 190,
      "y": 406,
      "size": 1,
      "price": "1011000000000000000000",
      "reserved": "0x7a9fe22691c811ea339d9b73150e6911a5343dca",
      "salt": "0xc7bf41f76831479a79f4a0c07596f596dee40d2c52898d326e20d0de63a1b595",
      "assetIds": []
    },
    {
      "x": 190,
      "y": 407,
      "size": 1,
      "price": "1011000000000000000000",
      "reserved": "",
      "salt": "0xb621b5e26514be585244aa48840641e46cc203a704e3e17116c12aa458217a86",
      "assetIds": []
    },
    {
      "x": 191,
      "y": 390,
      "size": 1,
      "price": "4683000000000000000000",
      "reserved": "",
      "salt": "0x32b0804b804893c807250b2aa29a20a9115da6c93e235266c2d70b6d50817417",
      "assetIds": [
        "41506478881403507969696680653240014914910929820314476107906210059990541021186"
      ]
    },
    {
      "x": 191,
      "y": 391,
      "size": 1,
      "price": "1011000000000000000000",
      "reserved": "",
      "salt": "0x83840b856930ab6459f1320697393ac3c4840f0a84896e015e4117419b28feff",
      "assetIds": []
    },
    {
      "x": 191,
      "y": 392,
      "size": 1,
      "price": "1011000000000000000000",
      "reserved": "0x7a9fe22691c811ea339d9b73150e6911a5343dca",
      "salt": "0x74e5842f7083c7c41f20ffa1b556c8151116cf5425f597c9eb0b489f11187a4e",
      "assetIds": []
    },
    {
      "x": 191,
      "y": 393,
      "size": 1,
      "price": "1011000000000000000000",
      "reserved": "",
      "salt": "0xeef845977264cdb710e23522b8c2e1641587e84fd663d36af6b9c89dd6b3deaa",
      "assetIds": []
    },
    {
      "x": 191,
      "y": 394,
      "size": 1,
      "price": "1011000000000000000000",
      "reserved": "0x7a9fe22691c811ea339d9b73150e6911a5343dca",
      "salt": "0x594a2cbcf9c0a5c330b6663e03b74d743f518b7bbf061c897a36bd656532c745",
      "assetIds": []
    },
    {
      "x": 191,
      "y": 395,
      "size": 1,
      "price": "1011000000000000000000",
      "reserved": "",
      "salt": "0xd79261a992fc3eabfcce63e19b8c6715a5e0f4bd4dc2df8a59e654711a8d340c",
      "assetIds": []
    },
    {
      "x": 191,
      "y": 396,
      "size": 1,
      "price": "1011000000000000000000",
      "reserved": "",
      "salt": "0x59d9d917cebf55b2e197799c9a1855b350f8ece02a0f5831c05323420521ec77",
      "assetIds": []
    },
    {
      "x": 191,
      "y": 397,
      "size": 1,
      "price": "1011000000000000000000",
      "reserved": "",
      "salt": "0x4d01fd9a2bab8e280e8d664b2ab24c12daa6d594b3aebc4725f31c320565f5ae",
      "assetIds": []
    },
    {
      "x": 191,
      "y": 398,
      "size": 1,
      "price": "1011000000000000000000",
      "reserved": "",
      "salt": "0xec2037688edf7da6a7c688259dc832c1afd1b506a52ddf7de081f22c42d979d0",
      "assetIds": []
    },
    {
      "x": 191,
      "y": 399,
      "size": 1,
      "price": "1011000000000000000000",
      "reserved": "",
      "salt": "0x02c55671fbcb47e71d996011d398489d1522f58630fa9bb8d11f541f37714f35",
      "assetIds": []
    },
    {
      "x": 191,
      "y": 400,
      "size": 1,
      "price": "1011000000000000000000",
      "reserved": "",
      "salt": "0x8d8daaf887a002f0c129bda049e609243bbd6457881ed1cea30f335fad8d6a6e",
      "assetIds": []
    },
    {
      "x": 191,
      "y": 401,
      "size": 1,
      "price": "1011000000000000000000",
      "reserved": "",
      "salt": "0x395d928cec6b3ce02943aed1f9863c533d09b8ce79dabbb2efa672c0d58d38d0",
      "assetIds": []
    },
    {
      "x": 191,
      "y": 402,
      "size": 1,
      "price": "1011000000000000000000",
      "reserved": "",
      "salt": "0xb3af8d000de1e4abb883762c14adba915754278749985e7538162fc799be8f4f",
      "assetIds": []
    },
    {
      "x": 191,
      "y": 403,
      "size": 1,
      "price": "1011000000000000000000",
      "reserved": "",
      "salt": "0xf02b6016b94a1077eafe9bac31cf9802564bf174900ae59ce79a4d46e69e245a",
      "assetIds": []
    },
    {
      "x": 191,
      "y": 404,
      "size": 1,
      "price": "1011000000000000000000",
      "reserved": "",
      "salt": "0x2ea9e9de12c65e5a1b544ca5785fe336192d6318516d2df449c513e46d0f8c9e",
      "assetIds": []
    },
    {
      "x": 191,
      "y": 405,
      "size": 1,
      "price": "1011000000000000000000",
      "reserved": "",
      "salt": "0xfe1e0b35b437e1aa9be6811a3d4ff7b7bda71aa2cf9d89feaf494a1a3a3bca3a",
      "assetIds": []
    },
    {
      "x": 191,
      "y": 406,
      "size": 1,
      "price": "1011000000000000000000",
      "reserved": "",
      "salt": "0xbd5828280f79107fd2def81eb721ba845f37fc2bbf912dfcf4ebecf7b12e4bfd",
      "assetIds": []
    },
    {
      "x": 191,
      "y": 407,
      "size": 1,
      "price": "1011000000000000000000",
      "reserved": "",
      "salt": "0xfdf3a36e72d99e5806c9eb4fcf3cbc5d0529cea72a68989bf1819efeb3bd35b8",
      "assetIds": []
    },
    {
      "x": 192,
      "y": 372,
      "size": 1,
      "price": "4683000000000000000000",
      "reserved": "",
      "salt": "0x59d64dfe463264ccc7dcaa71e397954219304ec4f7490a9694b69cc36d8e7e37",
      "assetIds": [
        "41506478881403507969696680653240014914910929820314476107906210059990541021186"
      ]
    },
    {
      "x": 192,
      "y": 373,
      "size": 1,
      "price": "4683000000000000000000",
      "reserved": "",
      "salt": "0x59098c7112267970a2e89d0a7fbe28fea67d0e33dbaf2e6def06b2748eccd09e",
      "assetIds": [
        "41506478881403507969696680653240014914910929820314476107906210059990541021186"
      ]
    },
    {
      "x": 192,
      "y": 374,
      "size": 1,
      "price": "4683000000000000000000",
      "reserved": "",
      "salt": "0xeca5ae56dc3598ffd0eeb9ae300381fa6e3b62303b36652e0964c8d8ae3895ad",
      "assetIds": [
        "41506478881403507969696680653240014914910929820314476107906210059990541021186"
      ]
    },
    {
      "x": 192,
      "y": 375,
      "size": 1,
      "price": "1011000000000000000000",
      "reserved": "",
      "salt": "0x2c0b935badea66df66cd6379eb2e5fc333d4f1293f8ed0c52fa00a10f839d319",
      "assetIds": []
    },
    {
      "x": 192,
      "y": 376,
      "size": 1,
      "price": "1011000000000000000000",
      "reserved": "",
      "salt": "0xdeb34d27107e8e747ce297ea5cfe6f35e9e82407947f81ed911dc4c85811a0e2",
      "assetIds": []
    },
    {
      "x": 192,
      "y": 377,
      "size": 1,
      "price": "1011000000000000000000",
      "reserved": "",
      "salt": "0x39f299b86873077821afb44a2d8a596e77f0b4a63a7c0763d37bb929dd23660b",
      "assetIds": []
    },
    {
      "x": 192,
      "y": 378,
      "size": 1,
      "price": "1011000000000000000000",
      "reserved": "",
      "salt": "0x8f255031224692678fd6f79440931de115e9d4cd90c9ca71d03bb750a0e9c9fa",
      "assetIds": []
    },
    {
      "x": 192,
      "y": 379,
      "size": 1,
      "price": "1011000000000000000000",
      "reserved": "",
      "salt": "0xb72e46307d4e0826a348dd9f4c2e1c5ac816eb580d4e50013d5b5fc211f6b211",
      "assetIds": []
    },
    {
      "x": 192,
      "y": 380,
      "size": 1,
      "price": "1011000000000000000000",
      "reserved": "",
      "salt": "0xd4994520907caad0f0ef5af4b6ed6f0b5d9e56a1eb90c30a4857af1bbdc67204",
      "assetIds": []
    },
    {
      "x": 192,
      "y": 381,
      "size": 1,
      "price": "1011000000000000000000",
      "reserved": "",
      "salt": "0x0a88e9f4ff95c86c4f3b3c5926a5734b7becd909bffe825085d5aa930b032674",
      "assetIds": []
    },
    {
      "x": 192,
      "y": 382,
      "size": 1,
      "price": "1011000000000000000000",
      "reserved": "",
      "salt": "0x6babf8a55c580e457434b06a45b544435dbeb3916f4d4026e9e935e43f154833",
      "assetIds": []
    },
    {
      "x": 192,
      "y": 383,
      "size": 1,
      "price": "1011000000000000000000",
      "reserved": "",
      "salt": "0x010357ad1d0a041b8bd66f92964ae722cb11ab080dd9df942345d6a99ebe6715",
      "assetIds": []
    },
    {
      "x": 192,
      "y": 384,
      "size": 1,
      "price": "4683000000000000000000",
      "reserved": "",
      "salt": "0x634232742ce8775e39d2db592b8de3938e71c9c3b74f5364b8f5a116693c0933",
      "assetIds": [
        "41506478881403507969696680653240014914910929820314476107906210059990541021186"
      ]
    },
    {
      "x": 192,
      "y": 385,
      "size": 1,
      "price": "4683000000000000000000",
      "reserved": "",
      "salt": "0xf71eafc73bc07356cd39a2fdda5b86e1827f74f628edb8e3e3d8d8aefc3f0288",
      "assetIds": [
        "41506478881403507969696680653240014914910929820314476107906210059990541021186"
      ]
    },
    {
      "x": 192,
      "y": 386,
      "size": 1,
      "price": "4683000000000000000000",
      "reserved": "",
      "salt": "0x40fbc539ed7bab86c98e42a7ded81018d053a2091629e2c3063a8aabca47fee2",
      "assetIds": [
        "41506478881403507969696680653240014914910929820314476107906210059990541021186"
      ]
    },
    {
      "x": 192,
      "y": 387,
      "size": 1,
      "price": "4683000000000000000000",
      "reserved": "",
      "salt": "0x88a3379a5f2b1247c790e7aaf8231c47f560b630e355e31b0f924467034776b3",
      "assetIds": [
        "41506478881403507969696680653240014914910929820314476107906210059990541021186"
      ]
    },
    {
      "x": 192,
      "y": 388,
      "size": 1,
      "price": "4683000000000000000000",
      "reserved": "",
      "salt": "0xbce5e14505c5c2e418c304f2da390b8c9c841c0f5e5b0b9da0538ce29a616209",
      "assetIds": [
        "41506478881403507969696680653240014914910929820314476107906210059990541021186"
      ]
    },
    {
      "x": 192,
      "y": 389,
      "size": 1,
      "price": "4683000000000000000000",
      "reserved": "",
      "salt": "0xdf8315b170745863a6c78c8aeb779fab5a8205240651071e59c6e1eaaea7e194",
      "assetIds": [
        "41506478881403507969696680653240014914910929820314476107906210059990541021186"
      ]
    },
    {
      "x": 192,
      "y": 390,
      "size": 1,
      "price": "4683000000000000000000",
      "reserved": "",
      "salt": "0xb262b8ba909fd1b66f0bbd9bfff2e20d21c0f0be7bf25a715f200ae8e4fd69f1",
      "assetIds": [
        "41506478881403507969696680653240014914910929820314476107906210059990541021186"
      ]
    },
    {
      "x": 192,
      "y": 391,
      "size": 1,
      "price": "1011000000000000000000",
      "reserved": "",
      "salt": "0x8254deccdbc8e2097c89ad48bd09e384d6112ef6dbbc358720c8b0b230cdc71c",
      "assetIds": []
    },
    {
      "x": 192,
      "y": 392,
      "size": 1,
      "price": "1011000000000000000000",
      "reserved": "",
      "salt": "0xb61e615dfde64aa1b919b906237f89722f2d6b638c46560b7b7f746622847494",
      "assetIds": []
    },
    {
      "x": 192,
      "y": 393,
      "size": 1,
      "price": "1011000000000000000000",
      "reserved": "",
      "salt": "0x236a57a74576a9a9eff892aed99e862e078a07a0223ce70debd7756352534da1",
      "assetIds": []
    },
    {
      "x": 192,
      "y": 394,
      "size": 1,
      "price": "1011000000000000000000",
      "reserved": "",
      "salt": "0x23f8914fbbcd635c5efde95df1c11647b8e7ac7bb5d1b7320121f488fedf19f1",
      "assetIds": []
    },
    {
      "x": 192,
      "y": 395,
      "size": 1,
      "price": "1011000000000000000000",
      "reserved": "",
      "salt": "0x27ad307c4f3e4254883989125662b6e52d0277ce6d7f619096f5c72fbae4ef5d",
      "assetIds": []
    },
    {
      "x": 192,
      "y": 396,
      "size": 1,
      "price": "1011000000000000000000",
      "reserved": "0x7a9fe22691c811ea339d9b73150e6911a5343dca",
      "salt": "0x149c2d4f318bcffb072292cd291a17b70ac1778f5130648c2abdb149ee1032e5",
      "assetIds": []
    },
    {
      "x": 192,
      "y": 397,
      "size": 1,
      "price": "1011000000000000000000",
      "reserved": "",
      "salt": "0x06183e6775da15d81a80f5d8e4acfcaa4dd455e849681da13245c960ed833ebe",
      "assetIds": []
    },
    {
      "x": 192,
      "y": 398,
      "size": 1,
      "price": "1011000000000000000000",
      "reserved": "",
      "salt": "0x16ea5042f7920b3cbee6762195cf8ad85da8990aa7416fe29f96103e960af51f",
      "assetIds": []
    },
    {
      "x": 192,
      "y": 399,
      "size": 1,
      "price": "1011000000000000000000",
      "reserved": "0x7a9fe22691c811ea339d9b73150e6911a5343dca",
      "salt": "0x976e0f9eb4fa73c865c25516ce9e6572368bd3ffffb6e328b3bc9d9fc981d8ab",
      "assetIds": []
    },
    {
      "x": 192,
      "y": 400,
      "size": 1,
      "price": "1011000000000000000000",
      "reserved": "",
      "salt": "0x3364ab261d78454559c89c7383a20b5f93c226f942ccc11b7ac4280c8961911e",
      "assetIds": []
    },
    {
      "x": 192,
      "y": 401,
      "size": 1,
      "price": "1011000000000000000000",
      "reserved": "",
      "salt": "0xd071b76a0888d375639fc709ee0ecbd203a19846f65935b9e36b8916f5cf3b19",
      "assetIds": []
    },
    {
      "x": 192,
      "y": 402,
      "size": 1,
      "price": "1011000000000000000000",
      "reserved": "",
      "salt": "0x8a856b020b00c8cd765a488e051302e1b7e34019bc8101844b53f9ac5a4e5c9b",
      "assetIds": []
    },
    {
      "x": 192,
      "y": 403,
      "size": 1,
      "price": "1011000000000000000000",
      "reserved": "",
      "salt": "0x929784a33e4adee4c045a4769367a18330c161eacbc93f904caf51269ce4c078",
      "assetIds": []
    },
    {
      "x": 192,
      "y": 404,
      "size": 1,
      "price": "1011000000000000000000",
      "reserved": "",
      "salt": "0xe99e71c1a22e5c10990e195760644286932972883b9003a8255eb77b3caf1ca0",
      "assetIds": []
    },
    {
      "x": 192,
      "y": 405,
      "size": 1,
      "price": "1011000000000000000000",
      "reserved": "",
      "salt": "0xb8c9c3348fb73746080e0fea4fa216b77c68f590fb980ca0f9da26b5d1012e3a",
      "assetIds": []
    },
    {
      "x": 192,
      "y": 406,
      "size": 1,
      "price": "1011000000000000000000",
      "reserved": "",
      "salt": "0x4ec5154900411cdcf274520a1269ec858b062024b9b8d35d1cbada7fc498fdff",
      "assetIds": []
    },
    {
      "x": 192,
      "y": 407,
      "size": 1,
      "price": "1011000000000000000000",
      "reserved": "",
      "salt": "0x09acfd30f9f625b4b55b7508059843294602dbe939644901977866a308982737",
      "assetIds": []
    },
    {
      "x": 193,
      "y": 372,
      "size": 1,
      "price": "4683000000000000000000",
      "reserved": "",
      "salt": "0xd02c2554c47d36d09a03223ba87af415dbcca06d45507e834b21136e835bdfcb",
      "assetIds": [
        "41506478881403507969696680653240014914910929820314476107906210059990541021186"
      ]
    },
    {
      "x": 193,
      "y": 373,
      "size": 1,
      "price": "4683000000000000000000",
      "reserved": "",
      "salt": "0xbd6f2df6daa11edf3313ffadd74df5d8ec19fedf6aa3d7a028f1ccd2fbab344c",
      "assetIds": [
        "41506478881403507969696680653240014914910929820314476107906210059990541021186"
      ]
    },
    {
      "x": 193,
      "y": 374,
      "size": 1,
      "price": "4683000000000000000000",
      "reserved": "",
      "salt": "0x31a7f1c99c92ff87927aaea83a447e153082c075263758b30f2f0152c21e215b",
      "assetIds": [
        "41506478881403507969696680653240014914910929820314476107906210059990541021186"
      ]
    },
    {
      "x": 193,
      "y": 375,
      "size": 1,
      "price": "1011000000000000000000",
      "reserved": "",
      "salt": "0x62b481fcf003b8cab13fa1c5e14b653b041a297c2e0b9b28ceaec17ca5c61282",
      "assetIds": []
    },
    {
      "x": 193,
      "y": 376,
      "size": 1,
      "price": "1011000000000000000000",
      "reserved": "",
      "salt": "0xf326fe5508d5fc92783714719315975fda6584ccdbef1d5494fe5a0cb60de9d2",
      "assetIds": []
    },
    {
      "x": 193,
      "y": 377,
      "size": 1,
      "price": "1011000000000000000000",
      "reserved": "",
      "salt": "0xdc7b228e4c293020b218051de12d2b80918b46abe36c12ba82bc03a410606dd3",
      "assetIds": []
    },
    {
      "x": 193,
      "y": 378,
      "size": 1,
      "price": "1011000000000000000000",
      "reserved": "",
      "salt": "0x3e1540b019fc31b2804bf11046aee0e938f31cdec800539df51b7cbac726fa29",
      "assetIds": []
    },
    {
      "x": 193,
      "y": 379,
      "size": 1,
      "price": "1011000000000000000000",
      "reserved": "0x7a9fe22691c811ea339d9b73150e6911a5343dca",
      "salt": "0xea54418a236091fd6fff305193052c1e1a691927f9f3447fde7dec50d18ff196",
      "assetIds": []
    },
    {
      "x": 193,
      "y": 380,
      "size": 1,
      "price": "1011000000000000000000",
      "reserved": "",
      "salt": "0xb89cfb4a8c17b0dd951c2854aea48b766436b4fe7197607834dc8bd3bca43288",
      "assetIds": []
    },
    {
      "x": 193,
      "y": 381,
      "size": 1,
      "price": "1011000000000000000000",
      "reserved": "",
      "salt": "0xece36b100139779f8343337a3e676f4151ecc63628d18095dba1a0a83da61d56",
      "assetIds": []
    },
    {
      "x": 193,
      "y": 382,
      "size": 1,
      "price": "1011000000000000000000",
      "reserved": "0x7a9fe22691c811ea339d9b73150e6911a5343dca",
      "salt": "0xf2409972d98730602a3ece639a084720fec2eeb3fa7792d5ff05f89c27e5c239",
      "assetIds": []
    },
    {
      "x": 193,
      "y": 383,
      "size": 1,
      "price": "1011000000000000000000",
      "reserved": "",
      "salt": "0xcc8f62b3483024f6ec50f61b4a20424368b064e28b88d831a0f8ef93b26f67e6",
      "assetIds": []
    },
    {
      "x": 193,
      "y": 384,
      "size": 1,
      "price": "1011000000000000000000",
      "reserved": "0x7a9fe22691c811ea339d9b73150e6911a5343dca",
      "salt": "0x054ae35e97a499248384c762fba29eaae7e22ac53074fbc548f8d7146bc95978",
      "assetIds": []
    },
    {
      "x": 193,
      "y": 385,
      "size": 1,
      "price": "1011000000000000000000",
      "reserved": "",
      "salt": "0xf4d399e6646a43329b5ab37d02593a49a565b4e9f9ab68f8c45ee8aff82a57ac",
      "assetIds": []
    },
    {
      "x": 193,
      "y": 386,
      "size": 1,
      "price": "1011000000000000000000",
      "reserved": "0x7a9fe22691c811ea339d9b73150e6911a5343dca",
      "salt": "0xd9fa3acd73668204bf45d6505fee9c1434d296fb4cbb130ae4b134d343085c8e",
      "assetIds": []
    },
    {
      "x": 193,
      "y": 387,
      "size": 1,
      "price": "4683000000000000000000",
      "reserved": "",
      "salt": "0xaa88dd2fd2d8255dc73809f23d0c7a13221390bcfd8363b5ebb216d050d06562",
      "assetIds": [
        "41506478881403507969696680653240014914910929820314476107906210059990541021186"
      ]
    },
    {
      "x": 193,
      "y": 388,
      "size": 1,
      "price": "4683000000000000000000",
      "reserved": "",
      "salt": "0x5d30e4d1571dfab36cdc3faedda877403c88d2e0daac7045f0a57cf1cc53a71f",
      "assetIds": [
        "41506478881403507969696680653240014914910929820314476107906210059990541021186"
      ]
    },
    {
      "x": 193,
      "y": 389,
      "size": 1,
      "price": "1011000000000000000000",
      "reserved": "",
      "salt": "0x8b82841939c3e42752702c34ffeed2818cec37d1fbd5136692ca9437b2873a46",
      "assetIds": []
    },
    {
      "x": 193,
      "y": 390,
      "size": 1,
      "price": "1011000000000000000000",
      "reserved": "",
      "salt": "0xcc88e6b346f31a27b6ff40102568d21c439a094deddb217525dd8c84b5398b42",
      "assetIds": []
    },
    {
      "x": 193,
      "y": 391,
      "size": 1,
      "price": "1011000000000000000000",
      "reserved": "",
      "salt": "0xa9eebcc67392e48b3c17598a558540f83f1e608f3c4e83c65c1a426070c13393",
      "assetIds": []
    },
    {
      "x": 193,
      "y": 392,
      "size": 1,
      "price": "1011000000000000000000",
      "reserved": "",
      "salt": "0x45b5ac6e6b45181bcdbb2ccc23ea26a5fd454a37ad6ddc924bbcdbd50adb87a0",
      "assetIds": []
    },
    {
      "x": 193,
      "y": 393,
      "size": 1,
      "price": "1011000000000000000000",
      "reserved": "0x7a9fe22691c811ea339d9b73150e6911a5343dca",
      "salt": "0xe8f6000a6323d84ae2a423c1a78f4fff56d6d56a6bebf892c6d6973798634c71",
      "assetIds": []
    },
    {
      "x": 193,
      "y": 394,
      "size": 1,
      "price": "1011000000000000000000",
      "reserved": "0x7a9fe22691c811ea339d9b73150e6911a5343dca",
      "salt": "0x6ca9d0b3b06daeba111282d5c8bb9971b92c9381da9b7be0ac6ea1cf2c226235",
      "assetIds": []
    },
    {
      "x": 193,
      "y": 395,
      "size": 1,
      "price": "1011000000000000000000",
      "reserved": "",
      "salt": "0x34544b5ed5e5b38ce45d4814830e5a46cd9f39c8f3341a6ce8ace07b314e7790",
      "assetIds": []
    },
    {
      "x": 193,
      "y": 396,
      "size": 1,
      "price": "1011000000000000000000",
      "reserved": "",
      "salt": "0x3e8b7381a1878454f5f22e11c6d5a1003c8d75dc96771a476594850029917955",
      "assetIds": []
    },
    {
      "x": 193,
      "y": 397,
      "size": 1,
      "price": "1011000000000000000000",
      "reserved": "",
      "salt": "0x3005e8166ef64fc372899f0cef465029eb12d56233628c0c7e1ee2d91c720121",
      "assetIds": []
    },
    {
      "x": 193,
      "y": 398,
      "size": 1,
      "price": "1011000000000000000000",
      "reserved": "",
      "salt": "0x77fa101dab0d2361b7a369da2aeb66c9aba5212f7bb05348feea044f69b07c56",
      "assetIds": []
    },
    {
      "x": 193,
      "y": 399,
      "size": 1,
      "price": "1011000000000000000000",
      "reserved": "",
      "salt": "0x121c36618872174fdaa74ed59f161ea272de0a79cabe852b414e730cb39861ee",
      "assetIds": []
    },
    {
      "x": 193,
      "y": 400,
      "size": 1,
      "price": "1011000000000000000000",
      "reserved": "",
      "salt": "0x4c0525345f3e450cb302fb96129bfee8c0bc13abfa8bdb7856b4dcfeb644f988",
      "assetIds": []
    },
    {
      "x": 193,
      "y": 401,
      "size": 1,
      "price": "1011000000000000000000",
      "reserved": "",
      "salt": "0x95e180a9acb927d82e5a0656f54d3afb13126963293ec41a17717340833d57fb",
      "assetIds": []
    },
    {
      "x": 193,
      "y": 402,
      "size": 1,
      "price": "1011000000000000000000",
      "reserved": "",
      "salt": "0xe1b3254090a55941ad5bb6fe6a777cfa996e07d4f8b0c692e2c4a78beb9adf8d",
      "assetIds": []
    },
    {
      "x": 193,
      "y": 403,
      "size": 1,
      "price": "1011000000000000000000",
      "reserved": "",
      "salt": "0x8f3b608655bc8abef34083991fcd89873516969a1fc4e8112587634871f11a04",
      "assetIds": []
    },
    {
      "x": 193,
      "y": 404,
      "size": 1,
      "price": "1011000000000000000000",
      "reserved": "",
      "salt": "0x3b86a2eebe5e4a038ef2c936516582ca5192d2cb5e8c3125a066bfbd0c0ce188",
      "assetIds": []
    },
    {
      "x": 193,
      "y": 405,
      "size": 1,
      "price": "1011000000000000000000",
      "reserved": "",
      "salt": "0x2c63875afd42d15e1115830fd03da05ae184688a876761d18915fb0c45ddeaa0",
      "assetIds": []
    },
    {
      "x": 193,
      "y": 406,
      "size": 1,
      "price": "1011000000000000000000",
      "reserved": "0x7a9fe22691c811ea339d9b73150e6911a5343dca",
      "salt": "0xf2e259bd59c4bf4bad06db152495f11568c563184ec1a1be346efb554139e553",
      "assetIds": []
    },
    {
      "x": 193,
      "y": 407,
      "size": 1,
      "price": "1011000000000000000000",
      "reserved": "",
      "salt": "0xfc01246af4752923ea5ef15680cd15c934ebedb0f59eae3c0a54c97c68126074",
      "assetIds": []
    },
    {
      "x": 194,
      "y": 372,
      "size": 1,
      "price": "4683000000000000000000",
      "reserved": "",
      "salt": "0x4a4c6f2a41d009d0aaac72370632e060796b57ec5f3cd351e4a6bd37bf3f6bcf",
      "assetIds": [
        "41506478881403507969696680653240014914910929820314476107906210059990541021186"
      ]
    },
    {
      "x": 194,
      "y": 373,
      "size": 1,
      "price": "4683000000000000000000",
      "reserved": "",
      "salt": "0xf62babd7f561ebba7747b597e42fb1947d0761786f8777b8b2a21e7cf0669b18",
      "assetIds": [
        "41506478881403507969696680653240014914910929820314476107906210059990541021186"
      ]
    },
    {
      "x": 194,
      "y": 374,
      "size": 1,
      "price": "4683000000000000000000",
      "reserved": "",
      "salt": "0x416fe492562355c08e17b2e3ce0fd6c7ae72c02b6a71377a3865a776fd16b896",
      "assetIds": [
        "41506478881403507969696680653240014914910929820314476107906210059990541021186"
      ]
    },
    {
      "x": 194,
      "y": 375,
      "size": 1,
      "price": "1011000000000000000000",
      "reserved": "",
      "salt": "0xca018b1aa56dd7aba1e3fce1acfb5b9ca5ced6742d53b3d08cd71bc66b75526d",
      "assetIds": []
    },
    {
      "x": 194,
      "y": 376,
      "size": 1,
      "price": "1011000000000000000000",
      "reserved": "",
      "salt": "0x676e7ec88af067803fb7703efb53193ad6267fd9ecd7ff1929510671891460df",
      "assetIds": []
    },
    {
      "x": 194,
      "y": 377,
      "size": 1,
      "price": "1011000000000000000000",
      "reserved": "",
      "salt": "0xd04b14da376088bb7d8dc12e078869b754b08f2192d01b51158ddd476dd9898a",
      "assetIds": []
    },
    {
      "x": 194,
      "y": 378,
      "size": 1,
      "price": "1011000000000000000000",
      "reserved": "",
      "salt": "0xe5f59095ca74d1a278150cb40b7cec153361bee42110c09c4aee36f87038fa28",
      "assetIds": []
    },
    {
      "x": 194,
      "y": 379,
      "size": 1,
      "price": "1011000000000000000000",
      "reserved": "",
      "salt": "0x637dfad6fe0ec890abd257ad4887c0e71083581d4a70b807f729bafd5994fbc5",
      "assetIds": []
    },
    {
      "x": 194,
      "y": 380,
      "size": 1,
      "price": "1011000000000000000000",
      "reserved": "",
      "salt": "0x4c7af3e835ecac7bd0dd3f941c6590ecc96fad12e25dd73a19486009a4e77206",
      "assetIds": []
    },
    {
      "x": 194,
      "y": 381,
      "size": 1,
      "price": "1011000000000000000000",
      "reserved": "",
      "salt": "0x976907d022f2d09e8f3c8541a3f53e71de157811d2005f1ca8b6431e03119b63",
      "assetIds": []
    },
    {
      "x": 194,
      "y": 382,
      "size": 1,
      "price": "1011000000000000000000",
      "reserved": "",
      "salt": "0x1906155e38cd5f0623e9e3382b6c1974f81a2edb1c302353d25399c0557b2cd0",
      "assetIds": []
    },
    {
      "x": 194,
      "y": 383,
      "size": 1,
      "price": "1011000000000000000000",
      "reserved": "",
      "salt": "0xd8a039e83b56af36977b1ffafa3f612f57a039c6b72ea51213b758dc7a95a130",
      "assetIds": []
    },
    {
      "x": 194,
      "y": 384,
      "size": 1,
      "price": "1011000000000000000000",
      "reserved": "0x7a9fe22691c811ea339d9b73150e6911a5343dca",
      "salt": "0x62aa5942caae3581b39e35da5a1b326f3c83066fff98b79c0cdd5ccb15a62b26",
      "assetIds": []
    },
    {
      "x": 194,
      "y": 385,
      "size": 1,
      "price": "1011000000000000000000",
      "reserved": "",
      "salt": "0xd438ef0ea83dcf1d153b909a5d29f04953efeb841511d7b94a56b67aebb685af",
      "assetIds": []
    },
    {
      "x": 194,
      "y": 386,
      "size": 1,
      "price": "1011000000000000000000",
      "reserved": "",
      "salt": "0x67779a848598702ebfb2b1b20ccac0570189b27f54f8821193fe48d52695cd46",
      "assetIds": []
    },
    {
      "x": 194,
      "y": 387,
      "size": 1,
      "price": "1011000000000000000000",
      "reserved": "",
      "salt": "0xfbcc674287bb314371d9b6db065004aea5773b5b324fc05f7bb6d5d1d527aa02",
      "assetIds": []
    },
    {
      "x": 194,
      "y": 388,
      "size": 1,
      "price": "1011000000000000000000",
      "reserved": "0x7a9fe22691c811ea339d9b73150e6911a5343dca",
      "salt": "0x7b4ad92097964413a9ea6060d8e56593674129ab7e488e9c803560d8bdda8f18",
      "assetIds": []
    },
    {
      "x": 194,
      "y": 389,
      "size": 1,
      "price": "1011000000000000000000",
      "reserved": "0x7a9fe22691c811ea339d9b73150e6911a5343dca",
      "salt": "0x03222de0a49eb8ae6bc999a958e49f789c599c6bfe3d0c855b227fb80e438934",
      "assetIds": []
    },
    {
      "x": 194,
      "y": 390,
      "size": 1,
      "price": "1011000000000000000000",
      "reserved": "",
      "salt": "0x8418007210b94ebc86367d759aa4757ccbf8d1647f3f438379117dc7979adb2f",
      "assetIds": []
    },
    {
      "x": 194,
      "y": 391,
      "size": 1,
      "price": "1011000000000000000000",
      "reserved": "0x7a9fe22691c811ea339d9b73150e6911a5343dca",
      "salt": "0x5bb616a2098e24241e36141929ccaea6202f5a3fe11a52f17bee00b3c2a420eb",
      "assetIds": []
    },
    {
      "x": 194,
      "y": 392,
      "size": 1,
      "price": "1011000000000000000000",
      "reserved": "",
      "salt": "0x7556e88b2ab11d132e96216859b64a720902ba68eacb5e9b9f943a2f1461d3c1",
      "assetIds": []
    },
    {
      "x": 194,
      "y": 393,
      "size": 1,
      "price": "1011000000000000000000",
      "reserved": "",
      "salt": "0xfa12ba8fe3994edd2af474ac15cb9e50d33535115f192acc2331fc0f093bbea2",
      "assetIds": []
    },
    {
      "x": 194,
      "y": 394,
      "size": 1,
      "price": "1011000000000000000000",
      "reserved": "",
      "salt": "0x4d9ff06a8691a9aa283b7bd8da13f8dbc86cae67b82bd2e0c517154ce46ccbb2",
      "assetIds": []
    },
    {
      "x": 194,
      "y": 395,
      "size": 1,
      "price": "1011000000000000000000",
      "reserved": "",
      "salt": "0x60010235e0c4c3acd8d5250405e137801517c16f42cb0d9613368216f71f8028",
      "assetIds": []
    },
    {
      "x": 194,
      "y": 396,
      "size": 1,
      "price": "1011000000000000000000",
      "reserved": "",
      "salt": "0xe177727dc59035a0176fad005772c531424a5557c9f98d285cf2eabfb81d3733",
      "assetIds": []
    },
    {
      "x": 194,
      "y": 397,
      "size": 1,
      "price": "1011000000000000000000",
      "reserved": "",
      "salt": "0x379a180e6c5c860d09a532f679c5f246ef5bc9dd6a51187597f0ee7f80084f71",
      "assetIds": []
    },
    {
      "x": 194,
      "y": 398,
      "size": 1,
      "price": "1011000000000000000000",
      "reserved": "",
      "salt": "0x840cc3d8bfe7d5485603e53c4b854439355bfe848007712a51de62bdcd6d1b8f",
      "assetIds": []
    },
    {
      "x": 194,
      "y": 399,
      "size": 1,
      "price": "1011000000000000000000",
      "reserved": "",
      "salt": "0xf05ae9a27853abaf87acba6a7af74dbdf1c371a57ded206d02b4306da4aa9810",
      "assetIds": []
    },
    {
      "x": 194,
      "y": 400,
      "size": 1,
      "price": "1011000000000000000000",
      "reserved": "",
      "salt": "0x624ef9aff81330dc4d62dfeffa8859545d3267696bf099958783902d37b4c1db",
      "assetIds": []
    },
    {
      "x": 194,
      "y": 401,
      "size": 1,
      "price": "1011000000000000000000",
      "reserved": "",
      "salt": "0x9deeda1f866b8ac7ffb3b6e78d6e3fa3876e00efad652abfa8bf72d64e2a0d02",
      "assetIds": []
    },
    {
      "x": 194,
      "y": 402,
      "size": 1,
      "price": "1011000000000000000000",
      "reserved": "",
      "salt": "0x13edd7880e1bfb42290c701381ab0303c8d1fe3c95c1d114e67c551c9706f999",
      "assetIds": []
    },
    {
      "x": 194,
      "y": 403,
      "size": 1,
      "price": "1011000000000000000000",
      "reserved": "",
      "salt": "0x18fb8fbb817bbd8f3f0c4fe4709e980a9e88ec76b2588a479e28f04c87f85499",
      "assetIds": []
    },
    {
      "x": 194,
      "y": 404,
      "size": 1,
      "price": "1011000000000000000000",
      "reserved": "0x7a9fe22691c811ea339d9b73150e6911a5343dca",
      "salt": "0x90b2418dce4670294196a54e24f31e67d1893e4c4b82e48b057bf9ae7bcd8e93",
      "assetIds": []
    },
    {
      "x": 194,
      "y": 405,
      "size": 1,
      "price": "1011000000000000000000",
      "reserved": "",
      "salt": "0x172d95b46b6ead8b6bf4cfdddff7ad3f9a52f206c478bfd6098638accef45e8f",
      "assetIds": []
    },
    {
      "x": 194,
      "y": 406,
      "size": 1,
      "price": "1011000000000000000000",
      "reserved": "",
      "salt": "0x9b4ee1905fbbe4a96e81ccd872117dfd0152011a39ec37337c3dbfb5c603976c",
      "assetIds": []
    },
    {
      "x": 194,
      "y": 407,
      "size": 1,
      "price": "1011000000000000000000",
      "reserved": "",
      "salt": "0x2b07847d4becfa727cf01966d2d702ceeda9c6c887d8a96fb81725d48337e086",
      "assetIds": []
    },
    {
      "x": 195,
      "y": 372,
      "size": 1,
      "price": "4683000000000000000000",
      "reserved": "",
      "salt": "0x2253bca05a75c36d2cf60f7e110958fa51bf5ea4818c15044a9c70a98a6fac36",
      "assetIds": [
        "41506478881403507969696680653240014914910929820314476107906210059990541021186"
      ]
    },
    {
      "x": 195,
      "y": 373,
      "size": 1,
      "price": "4683000000000000000000",
      "reserved": "",
      "salt": "0xcdf8218a86c45e76120c6d3f0a6c5ec78e8d954d122ddce8c14f9d293506fe4a",
      "assetIds": [
        "41506478881403507969696680653240014914910929820314476107906210059990541021186"
      ]
    },
    {
      "x": 195,
      "y": 374,
      "size": 1,
      "price": "1011000000000000000000",
      "reserved": "",
      "salt": "0x95bcdfc723f5aa5fb9749d4b9456d7898716ba37b9cf1c0a1c88897681b65062",
      "assetIds": []
    },
    {
      "x": 195,
      "y": 375,
      "size": 1,
      "price": "1011000000000000000000",
      "reserved": "0x7a9fe22691c811ea339d9b73150e6911a5343dca",
      "salt": "0xfccb79e3931dece2836b011d141ab77395f7a7f3617633efbd881ed3599a0c16",
      "assetIds": []
    },
    {
      "x": 195,
      "y": 376,
      "size": 1,
      "price": "1011000000000000000000",
      "reserved": "",
      "salt": "0x06c9c284aab13a8bfdfe3053e6dd3291d39513e4960974a19b7af45ebd5f5c33",
      "assetIds": []
    },
    {
      "x": 195,
      "y": 377,
      "size": 1,
      "price": "1011000000000000000000",
      "reserved": "0x7a9fe22691c811ea339d9b73150e6911a5343dca",
      "salt": "0x365af0186d3bcc882fa0c13330574e35f71aac19b195548d28e1dc0b2cfc9e0c",
      "assetIds": []
    },
    {
      "x": 195,
      "y": 378,
      "size": 1,
      "price": "1011000000000000000000",
      "reserved": "",
      "salt": "0x8d4edac0b79e794cd6b21e4bf36e9f635a0bd302aad49b948ea5e01340201a1d",
      "assetIds": []
    },
    {
      "x": 195,
      "y": 379,
      "size": 1,
      "price": "1011000000000000000000",
      "reserved": "",
      "salt": "0x542be0584d0a0f2eb394a9f275ae3c4c61d35f2d0088135968cfb81d62643e76",
      "assetIds": []
    },
    {
      "x": 195,
      "y": 380,
      "size": 1,
      "price": "1011000000000000000000",
      "reserved": "",
      "salt": "0x46459640213cd675c5740734a54e8889f157fd35b3e8f6bc694c5acd858b2313",
      "assetIds": []
    },
    {
      "x": 195,
      "y": 381,
      "size": 1,
      "price": "1011000000000000000000",
      "reserved": "",
      "salt": "0x13f292773dc2d667394d4ffea0461b537080c292993ed14d749d45e949b8ea2a",
      "assetIds": []
    },
    {
      "x": 195,
      "y": 382,
      "size": 1,
      "price": "1011000000000000000000",
      "reserved": "",
      "salt": "0xd743973cbc1aed2355b532b8d55765fdc9ead55170da31d96efe40a01756c903",
      "assetIds": []
    },
    {
      "x": 195,
      "y": 383,
      "size": 1,
      "price": "1011000000000000000000",
      "reserved": "",
      "salt": "0x5fa1608eb902fec1c2607a7c6c0fb0bb8803492e3141f99a16e3dd2717813531",
      "assetIds": []
    },
    {
      "x": 195,
      "y": 384,
      "size": 1,
      "price": "1011000000000000000000",
      "reserved": "",
      "salt": "0xd828b955145ba5692c8432efe23d069e7543b5c3a0cbcf989f162c35205041c7",
      "assetIds": []
    },
    {
      "x": 195,
      "y": 385,
      "size": 1,
      "price": "1011000000000000000000",
      "reserved": "",
      "salt": "0xdddceb8646441f3545b68e1b57a39d848ebbe6a106330bff82f538cfa335eeb2",
      "assetIds": []
    },
    {
      "x": 195,
      "y": 386,
      "size": 1,
      "price": "1011000000000000000000",
      "reserved": "",
      "salt": "0xfae12b8aff8117f7c192574c3ccb7403ab04478163e75d2a88f8c77f4798dfc8",
      "assetIds": []
    },
    {
      "x": 195,
      "y": 387,
      "size": 1,
      "price": "1011000000000000000000",
      "reserved": "",
      "salt": "0x3c326fae5e776298da8900d62c4333669ae30de69ffee222e66fd8700c406ecd",
      "assetIds": []
    },
    {
      "x": 195,
      "y": 388,
      "size": 1,
      "price": "1011000000000000000000",
      "reserved": "",
      "salt": "0xd43cfda3d2ff96de42aec80d2fd4c30ba5889110fc7a39bb49b6ec1754ca3acf",
      "assetIds": []
    },
    {
      "x": 195,
      "y": 389,
      "size": 1,
      "price": "1011000000000000000000",
      "reserved": "",
      "salt": "0x86c1bab61e8ab4189b695a3eb718ab77e51343a82a28fa6105964c6257385922",
      "assetIds": []
    },
    {
      "x": 195,
      "y": 390,
      "size": 1,
      "price": "1011000000000000000000",
      "reserved": "",
      "salt": "0x3a9fbd9686ad2d08e4abf9c77f096c1a128660196d3c2392b8472adbff9f464d",
      "assetIds": []
    },
    {
      "x": 195,
      "y": 391,
      "size": 1,
      "price": "1011000000000000000000",
      "reserved": "",
      "salt": "0x5c77b659f1d8c5039fd5a4364b939bfc0bc88ee3291bd4654a02f1e1f9123172",
      "assetIds": []
    },
    {
      "x": 195,
      "y": 392,
      "size": 1,
      "price": "1011000000000000000000",
      "reserved": "",
      "salt": "0x75d467bb2adf28db1eac550239a86663796398926f16fa5b21b47f19f673099b",
      "assetIds": []
    },
    {
      "x": 195,
      "y": 393,
      "size": 1,
      "price": "1011000000000000000000",
      "reserved": "",
      "salt": "0x1f72ca01abfb0df8ce2b017f46372e81ecc81497bbeaaef1c8dff6d4375f7516",
      "assetIds": []
    },
    {
      "x": 195,
      "y": 394,
      "size": 1,
      "price": "1011000000000000000000",
      "reserved": "0x7a9fe22691c811ea339d9b73150e6911a5343dca",
      "salt": "0xe1dc3ee2e8d3ade81fe970f80e15ff9cf98998291e20652a0acc1463b0d98bf1",
      "assetIds": []
    },
    {
      "x": 195,
      "y": 395,
      "size": 1,
      "price": "1011000000000000000000",
      "reserved": "",
      "salt": "0x15bb6c53c631e93e6a4c3aab4789322a2eaefc854097ad93f8418aeb2d2351fb",
      "assetIds": []
    },
    {
      "x": 195,
      "y": 396,
      "size": 1,
      "price": "1011000000000000000000",
      "reserved": "",
      "salt": "0x3133eb4372b6a296d7a534be51c0e775233c77e20900e8209ba69ec25d75e03f",
      "assetIds": []
    },
    {
      "x": 195,
      "y": 397,
      "size": 1,
      "price": "1011000000000000000000",
      "reserved": "0x7a9fe22691c811ea339d9b73150e6911a5343dca",
      "salt": "0x0f215f0a7aa8e54c0b5dd10d2a49f8a5536dd43c30515329be8e4eab35675bbc",
      "assetIds": []
    },
    {
      "x": 195,
      "y": 398,
      "size": 1,
      "price": "1011000000000000000000",
      "reserved": "",
      "salt": "0x1554d50c951d9010c20553246b79c2db081b53ff2b8b9458bc64fbb20db44c79",
      "assetIds": []
    },
    {
      "x": 195,
      "y": 399,
      "size": 1,
      "price": "1011000000000000000000",
      "reserved": "",
      "salt": "0xa3c237e70b7669782a6893c27218aa001454b5ea42390208a8679c8e5e588e33",
      "assetIds": []
    },
    {
      "x": 195,
      "y": 400,
      "size": 1,
      "price": "1011000000000000000000",
      "reserved": "0x7a9fe22691c811ea339d9b73150e6911a5343dca",
      "salt": "0x3150c279d17b9c7569dd1294748a5f1a91e8c38b0371aa12f76050c1d08d6437",
      "assetIds": []
    },
    {
      "x": 195,
      "y": 401,
      "size": 1,
      "price": "1011000000000000000000",
      "reserved": "0x7a9fe22691c811ea339d9b73150e6911a5343dca",
      "salt": "0x42fb26f16799c271a97b8b1291e7bb01e5e9ae45cf178c91b8647844e57d06b9",
      "assetIds": []
    },
    {
      "x": 195,
      "y": 402,
      "size": 1,
      "price": "1011000000000000000000",
      "reserved": "",
      "salt": "0x2641f5cba88e57e2da285f4e94946cd2d053c6b4fa26785f44cc015fe45a398c",
      "assetIds": []
    },
    {
      "x": 195,
      "y": 403,
      "size": 1,
      "price": "1011000000000000000000",
      "reserved": "",
      "salt": "0xb957021b4f0c11ca797c1cfa064b22dd69fa4fbfe556fc2413e6164d192c6d01",
      "assetIds": []
    },
    {
      "x": 195,
      "y": 404,
      "size": 1,
      "price": "1011000000000000000000",
      "reserved": "",
      "salt": "0xc2afb5523a56f6d600d0fdf236ea93f275d6c3676a38b711ddc2b96ba53f9777",
      "assetIds": []
    },
    {
      "x": 195,
      "y": 405,
      "size": 1,
      "price": "1011000000000000000000",
      "reserved": "",
      "salt": "0xb9d21c47ad048d3e69c3f7ec039c19be6990493fefc71827660b27c2e0599425",
      "assetIds": []
    },
    {
      "x": 195,
      "y": 406,
      "size": 1,
      "price": "1011000000000000000000",
      "reserved": "",
      "salt": "0x042fb2dd5398b3d5d4788b4b68bcea236633e3f119f801116e783e06e2954131",
      "assetIds": []
    },
    {
      "x": 195,
      "y": 407,
      "size": 1,
      "price": "1011000000000000000000",
      "reserved": "",
      "salt": "0x5867abbecc737d8624061fc6f9b6ac17deaea3ade3cf1dd057d91ec54572d076",
      "assetIds": []
    },
    {
      "x": 196,
      "y": 372,
      "size": 1,
      "price": "4683000000000000000000",
      "reserved": "",
      "salt": "0xc8a8198c71c710eb8439db8649d8cea9570479cb8f145fbc7461869e08e935d2",
      "assetIds": [
        "41506478881403507969696680653240014914910929820314476107906210059990541021186"
      ]
    },
    {
      "x": 196,
      "y": 373,
      "size": 1,
      "price": "4683000000000000000000",
      "reserved": "",
      "salt": "0x2963d0876dcb2a8642a79ad987afd449e37b34fa77c00f81cee84ad3e67925d4",
      "assetIds": [
        "41506478881403507969696680653240014914910929820314476107906210059990541021186"
      ]
    },
    {
      "x": 196,
      "y": 374,
      "size": 1,
      "price": "1011000000000000000000",
      "reserved": "0x7a9fe22691c811ea339d9b73150e6911a5343dca",
      "salt": "0x174bd527d686d5ab1e3b962dcc1d6b794942a853adf143dbb6784ec79c12f83d",
      "assetIds": []
    },
    {
      "x": 196,
      "y": 375,
      "size": 1,
      "price": "1011000000000000000000",
      "reserved": "",
      "salt": "0x51731ea9a09ec84be6b1ceff0f71315fd6d0507ea76285fbd7298de2dfda9557",
      "assetIds": []
    },
    {
      "x": 196,
      "y": 376,
      "size": 1,
      "price": "1011000000000000000000",
      "reserved": "",
      "salt": "0xe290acaa3f5689e9623f906a3442af75f5751a39294b4d5feae74a85e5258b4c",
      "assetIds": []
    },
    {
      "x": 196,
      "y": 377,
      "size": 1,
      "price": "1011000000000000000000",
      "reserved": "",
      "salt": "0x529d9bb40a4ad6ed4bf94ae8b4e8333abf2519deb32a939baf914131de53b4ac",
      "assetIds": []
    },
    {
      "x": 196,
      "y": 378,
      "size": 1,
      "price": "1011000000000000000000",
      "reserved": "",
      "salt": "0xdca171ebaa500cbcea31d849eaa1f0f18f0245209bab67084d514aabd4fff5eb",
      "assetIds": []
    },
    {
      "x": 196,
      "y": 379,
      "size": 1,
      "price": "1011000000000000000000",
      "reserved": "0x7a9fe22691c811ea339d9b73150e6911a5343dca",
      "salt": "0x7d99683911bc65b115dc07dfc6e64babd64b7463fad1c3d85a8ed6ed8d6d72a3",
      "assetIds": []
    },
    {
      "x": 196,
      "y": 380,
      "size": 1,
      "price": "1011000000000000000000",
      "reserved": "",
      "salt": "0xc1aae0ccda38f237b6aab746581cdd5646b1b49e205959af300a8a0aa483c951",
      "assetIds": []
    },
    {
      "x": 196,
      "y": 381,
      "size": 1,
      "price": "1011000000000000000000",
      "reserved": "",
      "salt": "0xaad53a25d6d16dde70c2df0e1255b5f6d3b02e070d05be5a95dda49a2761295c",
      "assetIds": []
    },
    {
      "x": 196,
      "y": 382,
      "size": 1,
      "price": "1011000000000000000000",
      "reserved": "0x7a9fe22691c811ea339d9b73150e6911a5343dca",
      "salt": "0xb2224a2b1ea7376b283d9087be4115edce9bc2764f61c825f6e52f7ba39cda57",
      "assetIds": []
    },
    {
      "x": 196,
      "y": 383,
      "size": 1,
      "price": "1011000000000000000000",
      "reserved": "",
      "salt": "0xdbc0da699e2223bf59514de98c8eb8d8536d434f8a2e182889161e514af61ae2",
      "assetIds": []
    },
    {
      "x": 196,
      "y": 384,
      "size": 1,
      "price": "1011000000000000000000",
      "reserved": "",
      "salt": "0xf1a74fb0c0959fd88743a2064dcd1ffb42eec85167f55400c9412c6074eea505",
      "assetIds": []
    },
    {
      "x": 196,
      "y": 385,
      "size": 1,
      "price": "1011000000000000000000",
      "reserved": "0x7a9fe22691c811ea339d9b73150e6911a5343dca",
      "salt": "0x34e12f1e84c3efe86073f94099d0894053554063722be21116c35c0e2adaff58",
      "assetIds": []
    },
    {
      "x": 196,
      "y": 386,
      "size": 1,
      "price": "1011000000000000000000",
      "reserved": "",
      "salt": "0xa2411d004e1c453848155b318c9448c79e8f275fa8d9c873a7dceda7f67c9d0d",
      "assetIds": []
    },
    {
      "x": 196,
      "y": 387,
      "size": 1,
      "price": "1011000000000000000000",
      "reserved": "",
      "salt": "0x6695d250f873335ac20d2a3ca3e84f46195f1f2fa57f3ddab221955373652ae9",
      "assetIds": []
    },
    {
      "x": 196,
      "y": 388,
      "size": 1,
      "price": "1011000000000000000000",
      "reserved": "0x7a9fe22691c811ea339d9b73150e6911a5343dca",
      "salt": "0x8afb495776c0d133d6c126cbe2185ab90aa3e97828a815bdcc2c5aba7f657244",
      "assetIds": []
    },
    {
      "x": 196,
      "y": 389,
      "size": 1,
      "price": "1011000000000000000000",
      "reserved": "",
      "salt": "0x63ef958be15cea9b3998e8fe4269230290f521026c7e749ef29a52491fca7b1c",
      "assetIds": []
    },
    {
      "x": 196,
      "y": 390,
      "size": 1,
      "price": "1011000000000000000000",
      "reserved": "",
      "salt": "0x52081ccf4c6ec1c8d350817e2d0c70d38e1d027912b6e703adf44f493f7f568b",
      "assetIds": []
    },
    {
      "x": 196,
      "y": 391,
      "size": 1,
      "price": "1011000000000000000000",
      "reserved": "0x7a9fe22691c811ea339d9b73150e6911a5343dca",
      "salt": "0x39a75a83685265c8b51fa6fd1ca6956cfa9c4add1525b862be3a57de87de02ca",
      "assetIds": []
    },
    {
      "x": 196,
      "y": 392,
      "size": 1,
      "price": "1011000000000000000000",
      "reserved": "",
      "salt": "0x595114ae67059c6cf33268d5ef281b950404faf4792cf2757e1469cd30d636dd",
      "assetIds": []
    },
    {
      "x": 196,
      "y": 393,
      "size": 1,
      "price": "1011000000000000000000",
      "reserved": "0x7a9fe22691c811ea339d9b73150e6911a5343dca",
      "salt": "0xd016cb392f29f7103524008c78724a549b617cf2572d0d49771f7f297a7c6d22",
      "assetIds": []
    },
    {
      "x": 196,
      "y": 394,
      "size": 1,
      "price": "1011000000000000000000",
      "reserved": "",
      "salt": "0x6212e18521b49c931e413504dbb5b860614c46e54ecb95db2d37b430b00d5a56",
      "assetIds": []
    },
    {
      "x": 196,
      "y": 395,
      "size": 1,
      "price": "1011000000000000000000",
      "reserved": "",
      "salt": "0x2c3910311b489cf409cde78cf1ec97d565350b13f7abbfd49202b0e619a74b24",
      "assetIds": []
    },
    {
      "x": 196,
      "y": 396,
      "size": 1,
      "price": "1011000000000000000000",
      "reserved": "",
      "salt": "0x1b64c294d498343ab0fc1fc0e66ea47e8137e18164c85956cca65111a5414c84",
      "assetIds": []
    },
    {
      "x": 196,
      "y": 397,
      "size": 1,
      "price": "1011000000000000000000",
      "reserved": "",
      "salt": "0x90b72dda40fae06d80f864fa2f6f39609dbf7d71b297174a6d5fdb47dfc8d5ca",
      "assetIds": []
    },
    {
      "x": 196,
      "y": 398,
      "size": 1,
      "price": "1011000000000000000000",
      "reserved": "",
      "salt": "0x2ad7ef152ca31de60f9e96a3b3c30690d3ee3474ded3dd5c5e07d57d870f2f11",
      "assetIds": []
    },
    {
      "x": 196,
      "y": 399,
      "size": 1,
      "price": "1011000000000000000000",
      "reserved": "0x7a9fe22691c811ea339d9b73150e6911a5343dca",
      "salt": "0x8c3f5a065dc0629be31edca798dd8c301ffe19af5cc7f89faab9f5b213b825e7",
      "assetIds": []
    },
    {
      "x": 196,
      "y": 400,
      "size": 1,
      "price": "1011000000000000000000",
      "reserved": "",
      "salt": "0x1e61b6914345642d141642e052d04491956fd7dc51ef5df8739f0939f3694a72",
      "assetIds": []
    },
    {
      "x": 196,
      "y": 401,
      "size": 1,
      "price": "1011000000000000000000",
      "reserved": "",
      "salt": "0xf75b4bfcee890cd405a6a09a0865ff47cb5c0e9fe87c565d6ece1ca0a8807c80",
      "assetIds": []
    },
    {
      "x": 196,
      "y": 402,
      "size": 1,
      "price": "1011000000000000000000",
      "reserved": "",
      "salt": "0x1a44870364a05eff6309ae115cf80842546ccd76376eaa29bd5372e110167e9f",
      "assetIds": []
    },
    {
      "x": 196,
      "y": 403,
      "size": 1,
      "price": "1011000000000000000000",
      "reserved": "",
      "salt": "0x32c2305c6ba0d24e62a9c73d0d6497aab2456b168a94a6d390c7ad15dd7ba326",
      "assetIds": []
    },
    {
      "x": 196,
      "y": 404,
      "size": 1,
      "price": "1011000000000000000000",
      "reserved": "",
      "salt": "0x0b1af7aaba910da6c72b1d57c6313a98b78276afaa9356de915ca3e0a6d155c6",
      "assetIds": []
    },
    {
      "x": 196,
      "y": 405,
      "size": 1,
      "price": "1011000000000000000000",
      "reserved": "",
      "salt": "0xa9722a8e27e8704c66ade6e2bd5defd121dbb42383617f6116a4cc6b268d9157",
      "assetIds": []
    },
    {
      "x": 196,
      "y": 406,
      "size": 1,
      "price": "1011000000000000000000",
      "reserved": "0x7a9fe22691c811ea339d9b73150e6911a5343dca",
      "salt": "0x7785db18ab04519c7834712ba13e589d3c7c47b88d290982c3028b32b3da13ae",
      "assetIds": []
    },
    {
      "x": 196,
      "y": 407,
      "size": 1,
      "price": "1011000000000000000000",
      "reserved": "",
      "salt": "0x4add8927b9f5b0a043288252de68c23ca9486131c61d8e3b21e9241cb8938755",
      "assetIds": []
    },
    {
      "x": 197,
      "y": 372,
      "size": 1,
      "price": "4683000000000000000000",
      "reserved": "",
      "salt": "0x28914fc0c9f5313c6cfae1c01a4b707582bf2971a6085b0747f0e9a3bb9cdb7b",
      "assetIds": [
        "41506478881403507969696680653240014914910929820314476107906210059990541021186"
      ]
    },
    {
      "x": 197,
      "y": 373,
      "size": 1,
      "price": "4683000000000000000000",
      "reserved": "",
      "salt": "0x001b84fdf6095ac90cf2e4bf2196644aca5c8205af54a11225940ce3896076ea",
      "assetIds": [
        "41506478881403507969696680653240014914910929820314476107906210059990541021186"
      ]
    },
    {
      "x": 197,
      "y": 374,
      "size": 1,
      "price": "4683000000000000000000",
      "reserved": "",
      "salt": "0xaf108636dea2d20fa5c4ef50def5aeb4a2e0004c74d26453ce849d6358192475",
      "assetIds": [
        "41506478881403507969696680653240014914910929820314476107906210059990541021186"
      ]
    },
    {
      "x": 197,
      "y": 375,
      "size": 1,
      "price": "4683000000000000000000",
      "reserved": "",
      "salt": "0xdb5e081ec2de8078935254d63f278f435ee01c96fa5d18d83142989683f97656",
      "assetIds": [
        "41506478881403507969696680653240014914910929820314476107906210059990541021186"
      ]
    },
    {
      "x": 197,
      "y": 376,
      "size": 1,
      "price": "4683000000000000000000",
      "reserved": "",
      "salt": "0xab2c1b4a265fc29a5db9b9ff635dfd9c96d34b317b693d5c8c01f0bd9b41f0d3",
      "assetIds": [
        "41506478881403507969696680653240014914910929820314476107906210059990541021186"
      ]
    },
    {
      "x": 197,
      "y": 377,
      "size": 1,
      "price": "1011000000000000000000",
      "reserved": "0x7a9fe22691c811ea339d9b73150e6911a5343dca",
      "salt": "0xe31a598577882bbe8738c6bc5dfb9f676a48115978e8569064190c6e5f927e90",
      "assetIds": []
    },
    {
      "x": 197,
      "y": 378,
      "size": 1,
      "price": "1011000000000000000000",
      "reserved": "",
      "salt": "0xb000042a47c52d68fbbe23987b9b5abc59bca5f3c9e09d82b36304fa26a378cb",
      "assetIds": []
    },
    {
      "x": 197,
      "y": 379,
      "size": 1,
      "price": "1011000000000000000000",
      "reserved": "",
      "salt": "0x5341c8f69c443ee8cd3c0eab00606095fe47751164a6a16f99f86882840fcb78",
      "assetIds": []
    },
    {
      "x": 197,
      "y": 380,
      "size": 1,
      "price": "1011000000000000000000",
      "reserved": "",
      "salt": "0x2a7ec441484c902ad87f1ab2ecf48203e0eaac861c946039ba93b1e001ce376c",
      "assetIds": []
    },
    {
      "x": 197,
      "y": 381,
      "size": 1,
      "price": "1011000000000000000000",
      "reserved": "",
      "salt": "0x968c50161ed29e4c84ff01ffe6fc0cf065a1ac23ab7e0838983ff976d1a61ff4",
      "assetIds": []
    },
    {
      "x": 197,
      "y": 382,
      "size": 1,
      "price": "1011000000000000000000",
      "reserved": "",
      "salt": "0xe5ef1c2fd9b5bf456ac5d99872ca8f822679b694067fc882772e4edcc8025d12",
      "assetIds": []
    },
    {
      "x": 197,
      "y": 383,
      "size": 1,
      "price": "1011000000000000000000",
      "reserved": "",
      "salt": "0x2d72ad8e203b69435b4c3bfb86f74729df2d5e897b1f815f9261b5a305955000",
      "assetIds": []
    },
    {
      "x": 197,
      "y": 384,
      "size": 1,
      "price": "1011000000000000000000",
      "reserved": "",
      "salt": "0xa6239436aedb911bf081ae53d79a6a06c5f29a41684e687fce5779f078a9725b",
      "assetIds": []
    },
    {
      "x": 197,
      "y": 385,
      "size": 1,
      "price": "1011000000000000000000",
      "reserved": "",
      "salt": "0x06bb4addeb342c250e22134c3bfcd68018fd80644bbd469546c40274cdd295ea",
      "assetIds": []
    },
    {
      "x": 197,
      "y": 386,
      "size": 1,
      "price": "1011000000000000000000",
      "reserved": "",
      "salt": "0x32006d039af884140e98a0ba56ca5caa4e99e9997add2b974a350b000c5617e3",
      "assetIds": []
    },
    {
      "x": 197,
      "y": 387,
      "size": 1,
      "price": "1011000000000000000000",
      "reserved": "",
      "salt": "0x2b03d5637aa1b75e4df5f00d0a184601bc4b729458df2869dd18b098cac1f333",
      "assetIds": []
    },
    {
      "x": 197,
      "y": 388,
      "size": 1,
      "price": "1011000000000000000000",
      "reserved": "",
      "salt": "0xe9819d11258f0af07d999843697b9a19dfdf5b0d7225116c7e51981a1000148e",
      "assetIds": []
    },
    {
      "x": 197,
      "y": 389,
      "size": 1,
      "price": "1011000000000000000000",
      "reserved": "",
      "salt": "0xd1581050c6145cadef1f597494b21a7a7da64d9a17dc97d1b031473950999f43",
      "assetIds": []
    },
    {
      "x": 197,
      "y": 390,
      "size": 1,
      "price": "1011000000000000000000",
      "reserved": "",
      "salt": "0x6f624ca7efbe68b99d3e764419792fcae0a51a3dbb768481b4cd52af1e469b71",
      "assetIds": []
    },
    {
      "x": 197,
      "y": 391,
      "size": 1,
      "price": "1011000000000000000000",
      "reserved": "",
      "salt": "0x60c936881a52c5411410671f06dc5f978ed734e0b549c829b3a22f44bc3d94c5",
      "assetIds": []
    },
    {
      "x": 197,
      "y": 392,
      "size": 1,
      "price": "1011000000000000000000",
      "reserved": "",
      "salt": "0xd061ddf2c9f546cacc9982da7b26b140b94cedb8312dcfefa695b6855ac4e43d",
      "assetIds": []
    },
    {
      "x": 197,
      "y": 393,
      "size": 1,
      "price": "1011000000000000000000",
      "reserved": "",
      "salt": "0xbcd32dcb83a6761ccb5b68ba882080589289354d2b09c70d4a20dcccbc06c94d",
      "assetIds": []
    },
    {
      "x": 197,
      "y": 394,
      "size": 1,
      "price": "1011000000000000000000",
      "reserved": "",
      "salt": "0x848dba04323959daf25d731a2ff48462ddd810838dc73fa684e55a8693f98c9f",
      "assetIds": []
    },
    {
      "x": 197,
      "y": 395,
      "size": 1,
      "price": "1011000000000000000000",
      "reserved": "",
      "salt": "0xe7cb90ea96aacc4eaf21c11bb78fd03dbc05dabf894a4e60d933e33f762b94ad",
      "assetIds": []
    },
    {
      "x": 197,
      "y": 396,
      "size": 1,
      "price": "1011000000000000000000",
      "reserved": "",
      "salt": "0x4c2a20d1ba71ca32096c5880df83f7aaecdf4be75a7d1a21fe5778ac426a8289",
      "assetIds": []
    },
    {
      "x": 197,
      "y": 397,
      "size": 1,
      "price": "1011000000000000000000",
      "reserved": "",
      "salt": "0x68ae4d245668f102b9fc326c40ec541bde807c19a23c3b62a8d1f7a980a48b79",
      "assetIds": []
    },
    {
      "x": 197,
      "y": 398,
      "size": 1,
      "price": "1011000000000000000000",
      "reserved": "",
      "salt": "0xaddbb7a657caad2cca9d0424e5f426de7ad4b40a79f8be4a7ed4a96087a0f94e",
      "assetIds": []
    },
    {
      "x": 197,
      "y": 399,
      "size": 1,
      "price": "1011000000000000000000",
      "reserved": "",
      "salt": "0x0e2df9449d862e89508a7402b30d03764c5ebb776b33c33deabb9c05648603fd",
      "assetIds": []
    },
    {
      "x": 197,
      "y": 400,
      "size": 1,
      "price": "1011000000000000000000",
      "reserved": "",
      "salt": "0xd1be811dc9cca4ef77141e14c6f208b0d33d57f5bf8b128e93b307f5303f1e9d",
      "assetIds": []
    },
    {
      "x": 197,
      "y": 401,
      "size": 1,
      "price": "1011000000000000000000",
      "reserved": "",
      "salt": "0x9a911cacb4f8454cb0a218703a80494e190a3f68e0870d7b06eb37c8817bfed3",
      "assetIds": []
    },
    {
      "x": 197,
      "y": 402,
      "size": 1,
      "price": "1011000000000000000000",
      "reserved": "",
      "salt": "0xdc44b1f46bcb52ed124f7cb1da13f2b6743b9f9115600e6bae1d47cae156f2a4",
      "assetIds": []
    },
    {
      "x": 197,
      "y": 403,
      "size": 1,
      "price": "1011000000000000000000",
      "reserved": "0x7a9fe22691c811ea339d9b73150e6911a5343dca",
      "salt": "0x79d3d8be9f8d2968ac9d73254036684980a02395865139d58850f95f2a35f3d6",
      "assetIds": []
    },
    {
      "x": 197,
      "y": 404,
      "size": 1,
      "price": "1011000000000000000000",
      "reserved": "0x7a9fe22691c811ea339d9b73150e6911a5343dca",
      "salt": "0x21fd835464738874bbab07810573d32919b16547c1a1e4e84e4ef59852ab3b00",
      "assetIds": []
    },
    {
      "x": 197,
      "y": 405,
      "size": 1,
      "price": "1011000000000000000000",
      "reserved": "",
      "salt": "0xf43d06e4a528e425fc49e535377cd333bd2f4d8f66f416d574a6fad0fbf6954c",
      "assetIds": []
    },
    {
      "x": 197,
      "y": 406,
      "size": 1,
      "price": "1011000000000000000000",
      "reserved": "",
      "salt": "0x6267d6b74286ef4969010679fe5aa3f501261a8c7817fe83fa015185dfbffc21",
      "assetIds": []
    },
    {
      "x": 197,
      "y": 407,
      "size": 1,
      "price": "1011000000000000000000",
      "reserved": "",
      "salt": "0xd19ddcb13eff0dfdeadb0852f36d168408d6a19bef14a008de857d4eb9281da7",
      "assetIds": []
    },
    {
      "x": 198,
      "y": 378,
      "size": 1,
      "price": "1011000000000000000000",
      "reserved": "",
      "salt": "0xcfc6525794f88ac8dac376fe1fc5e46c4a86019cf7bc1b04e893ae5c5ef13130",
      "assetIds": []
    },
    {
      "x": 198,
      "y": 379,
      "size": 1,
      "price": "1011000000000000000000",
      "reserved": "",
      "salt": "0x24b8850aa8c8b6de0453d084cfe3304f0d453731e33d65144dba471e3f277d6a",
      "assetIds": []
    },
    {
      "x": 198,
      "y": 380,
      "size": 1,
      "price": "1011000000000000000000",
      "reserved": "",
      "salt": "0xf6bf8bb15521ecc18a6e75491bc1487cb97e9b658246252e4bec8cafa4bd75d1",
      "assetIds": []
    },
    {
      "x": 198,
      "y": 381,
      "size": 1,
      "price": "1011000000000000000000",
      "reserved": "0x7a9fe22691c811ea339d9b73150e6911a5343dca",
      "salt": "0x2ed30a1ffcc937ef81c80957f1fe2f2d6104e85ea2ce12560c8d11a53a7e6869",
      "assetIds": []
    },
    {
      "x": 198,
      "y": 382,
      "size": 1,
      "price": "1011000000000000000000",
      "reserved": "",
      "salt": "0x7b7eaa6b70b7fa511f8132cdcf2d0fc35d523357e806dce0f39dc55faa30be83",
      "assetIds": []
    },
    {
      "x": 198,
      "y": 383,
      "size": 1,
      "price": "1011000000000000000000",
      "reserved": "",
      "salt": "0x78a48c5f10a4a4a78f6b49066fbc29cc48d47216aaba39044e58e946ec1b9fee",
      "assetIds": []
    },
    {
      "x": 198,
      "y": 384,
      "size": 1,
      "price": "1011000000000000000000",
      "reserved": "",
      "salt": "0x6bc2b5d072fe447605c61fa6acf7a5fb20a607cfd34c44090d2b4b0f8cb70ab0",
      "assetIds": []
    },
    {
      "x": 198,
      "y": 385,
      "size": 1,
      "price": "1011000000000000000000",
      "reserved": "",
      "salt": "0x3ad52f4e73ede366d70983761b2eb24da44a5b4f9a8c57d58b7a5a2f1c7673b4",
      "assetIds": []
    },
    {
      "x": 198,
      "y": 386,
      "size": 1,
      "price": "1011000000000000000000",
      "reserved": "",
      "salt": "0x08201a6950a44604f76f6a17c2dc3ce9c2e8106f02072e7f1b7e0f9e85ce710c",
      "assetIds": []
    },
    {
      "x": 198,
      "y": 387,
      "size": 1,
      "price": "1011000000000000000000",
      "reserved": "",
      "salt": "0x0c4e6affedc9dc786e313e2687cb5912046fb32199fd246a4c087bf6280ddbf5",
      "assetIds": []
    },
    {
      "x": 198,
      "y": 388,
      "size": 1,
      "price": "1011000000000000000000",
      "reserved": "",
      "salt": "0xb8f08454769d9b6306ed5762f03c83eb8a9074e401ded60265d18d897fc04d32",
      "assetIds": []
    },
    {
      "x": 198,
      "y": 389,
      "size": 1,
      "price": "1011000000000000000000",
      "reserved": "",
      "salt": "0x3e5af5aeb79538c12c25fe76717fda433d424f8d3c4cce54113f5b5d467d014a",
      "assetIds": []
    },
    {
      "x": 198,
      "y": 396,
      "size": 1,
      "price": "1011000000000000000000",
      "reserved": "0x7a9fe22691c811ea339d9b73150e6911a5343dca",
      "salt": "0xab6d7114903f0c013931b445ba41615678ce9ad2b21442f8a1d1e547635bf90c",
      "assetIds": []
    },
    {
      "x": 198,
      "y": 397,
      "size": 1,
      "price": "1011000000000000000000",
      "reserved": "",
      "salt": "0xba74f468f78fde62ecc4ec9ffd56169b0638e74326ac6dc9decb9b21a395e655",
      "assetIds": []
    },
    {
      "x": 198,
      "y": 398,
      "size": 1,
      "price": "1011000000000000000000",
      "reserved": "",
      "salt": "0xff726856321861249bc81671a372cf0f79d9bb70c1a8f240a274d1b290d14806",
      "assetIds": []
    },
    {
      "x": 198,
      "y": 399,
      "size": 1,
      "price": "1011000000000000000000",
      "reserved": "",
      "salt": "0x65ed7939dffebb3878991d5ead22aaffdd17190ef572bf86f850dd7c9d32f549",
      "assetIds": []
    },
    {
      "x": 198,
      "y": 400,
      "size": 1,
      "price": "1011000000000000000000",
      "reserved": "",
      "salt": "0x13222ff581db124fa2fc7ab4075b1080eec6c811229540284df5a2efb8580f03",
      "assetIds": []
    },
    {
      "x": 198,
      "y": 401,
      "size": 1,
      "price": "1011000000000000000000",
      "reserved": "",
      "salt": "0x36cdbda273108c77075773b6a6ea3574bbd8b9d48f05932a26393364e68c2eff",
      "assetIds": []
    },
    {
      "x": 198,
      "y": 402,
      "size": 1,
      "price": "1011000000000000000000",
      "reserved": "",
      "salt": "0x87a67505a042d942e87605a6c64b4a2787a0fd0900c4b767c9f7027fd9476fe8",
      "assetIds": []
    },
    {
      "x": 198,
      "y": 403,
      "size": 1,
      "price": "1011000000000000000000",
      "reserved": "",
      "salt": "0xeebc001b26df1f430e2828732f760f73c31fd2667002e7bbd2aa4de52c41bc07",
      "assetIds": []
    },
    {
      "x": 198,
      "y": 404,
      "size": 1,
      "price": "1011000000000000000000",
      "reserved": "",
      "salt": "0xc511a0fcf9b43fe3cfc717e08fa53f238a3f91c66cea02743adcff088448fff5",
      "assetIds": []
    },
    {
      "x": 198,
      "y": 405,
      "size": 1,
      "price": "1011000000000000000000",
      "reserved": "",
      "salt": "0xaa2a6bd281a97a2981a53a507331ed9f08f671ab4278deb8d1d9f433f500ae5a",
      "assetIds": []
    },
    {
      "x": 198,
      "y": 406,
      "size": 1,
      "price": "1011000000000000000000",
      "reserved": "",
      "salt": "0xafdc652525dfdb33b510f3a867260e08b9edd926e7c0c42f6f1cb99f573c20fe",
      "assetIds": []
    },
    {
      "x": 198,
      "y": 407,
      "size": 1,
      "price": "1011000000000000000000",
      "reserved": "",
      "salt": "0x82f09480aa549a6d2395056a481bc0146d16932afb8622c59f857713dbc04752",
      "assetIds": []
    },
    {
      "x": 199,
      "y": 378,
      "size": 1,
      "price": "1011000000000000000000",
      "reserved": "",
      "salt": "0xe067e04f9a143191ed4967e78f6f5ddaea1a159f11a43f4c2465ac55acad0e67",
      "assetIds": []
    },
    {
      "x": 199,
      "y": 379,
      "size": 1,
      "price": "1011000000000000000000",
      "reserved": "0x7a9fe22691c811ea339d9b73150e6911a5343dca",
      "salt": "0xf342fd6eb3639a69b1099c9e93251e32511891436db268401f65e8580a5021dd",
      "assetIds": []
    },
    {
      "x": 199,
      "y": 380,
      "size": 1,
      "price": "1011000000000000000000",
      "reserved": "",
      "salt": "0xddc116dee4fb7c72e989c7d5e6caade26e94c1aee3dd4406d17c7f2edbafe13f",
      "assetIds": []
    },
    {
      "x": 199,
      "y": 381,
      "size": 1,
      "price": "1011000000000000000000",
      "reserved": "",
      "salt": "0xaf65531b9e00018dc6eac2608468d15be4ece6a2ec3f22c9d555431c9a569df5",
      "assetIds": []
    },
    {
      "x": 199,
      "y": 382,
      "size": 1,
      "price": "1011000000000000000000",
      "reserved": "",
      "salt": "0xebda625c025c38924f6d3f899b39cede62361295511aedb743883c416673e6b5",
      "assetIds": []
    },
    {
      "x": 199,
      "y": 383,
      "size": 1,
      "price": "1011000000000000000000",
      "reserved": "",
      "salt": "0x9a1808bf0975db5a5ae190b848138dd9bb7c2767c42415b2fe96175aa67e9a6c",
      "assetIds": []
    },
    {
      "x": 199,
      "y": 384,
      "size": 1,
      "price": "1011000000000000000000",
      "reserved": "",
      "salt": "0x643b3272f4316c36eaecb1c1150698c1c2eadf46c0c939599593b6324dd3f15d",
      "assetIds": []
    },
    {
      "x": 199,
      "y": 385,
      "size": 1,
      "price": "1011000000000000000000",
      "reserved": "",
      "salt": "0xc96b2ad86674032cafb90ad42e5321a53898b53d95fd756c2fbd05e8ed572130",
      "assetIds": []
    },
    {
      "x": 199,
      "y": 386,
      "size": 1,
      "price": "1011000000000000000000",
      "reserved": "",
      "salt": "0xbc07888bd6f990a247e2a8aa13f037a1b011d519e39c3d7634d73d38f9d16efd",
      "assetIds": []
    },
    {
      "x": 199,
      "y": 387,
      "size": 1,
      "price": "1011000000000000000000",
      "reserved": "0x7a9fe22691c811ea339d9b73150e6911a5343dca",
      "salt": "0x66cbdefb3a5a814698b555ff5554957b912c697921292969db22a1c428f123f2",
      "assetIds": []
    },
    {
      "x": 199,
      "y": 388,
      "size": 1,
      "price": "1011000000000000000000",
      "reserved": "",
      "salt": "0xa2c4e3c8aa45040226f3f817de1ec889dd85be2b0a7f01d013d3ac2c426583e5",
      "assetIds": []
    },
    {
      "x": 199,
      "y": 389,
      "size": 1,
      "price": "1011000000000000000000",
      "reserved": "",
      "salt": "0x74e3f79307ec557f2ec4d9caaeecea632758cedd0d4e34d66140fe3546a6979c",
      "assetIds": []
    },
    {
      "x": 199,
      "y": 396,
      "size": 1,
      "price": "1011000000000000000000",
      "reserved": "0x7a9fe22691c811ea339d9b73150e6911a5343dca",
      "salt": "0x7345937152efa2aa09e856b1443eb6ba33c800f71af33aba7cb010f63cb68344",
      "assetIds": []
    },
    {
      "x": 199,
      "y": 397,
      "size": 1,
      "price": "1011000000000000000000",
      "reserved": "",
      "salt": "0xa15d99787b2b0ff716addec2fc0bdef91aedc3e563c2445d13c24aa0cf5a3da8",
      "assetIds": []
    },
    {
      "x": 199,
      "y": 398,
      "size": 1,
      "price": "1011000000000000000000",
      "reserved": "",
      "salt": "0xf49b8d94071b4250e1c26fe52f275003ad52dee83fae7e4d166c49e979a21dca",
      "assetIds": []
    },
    {
      "x": 199,
      "y": 399,
      "size": 1,
      "price": "1011000000000000000000",
      "reserved": "",
      "salt": "0x306750a83bfb7b5784343ad23afe081d3d09e8e86e4635a0bd976d3b788640e7",
      "assetIds": []
    },
    {
      "x": 199,
      "y": 400,
      "size": 1,
      "price": "1011000000000000000000",
      "reserved": "",
      "salt": "0xd7f12d398ee03607c57bbd673af9f2d3773a73ef6558097a68dde0cf3e9b678e",
      "assetIds": []
    },
    {
      "x": 199,
      "y": 401,
      "size": 1,
      "price": "1011000000000000000000",
      "reserved": "",
      "salt": "0xca967f4cc4de9ad9fa4e60fa402534aaea4b10063694e7a6898a572260fc41d7",
      "assetIds": []
    },
    {
      "x": 199,
      "y": 402,
      "size": 1,
      "price": "1011000000000000000000",
      "reserved": "",
      "salt": "0xbd736be3cb5b5d67010963ad955d69915d67ddf2a98cca346b106fad329e9d7f",
      "assetIds": []
    },
    {
      "x": 199,
      "y": 403,
      "size": 1,
      "price": "1011000000000000000000",
      "reserved": "",
      "salt": "0x835263f3ef69a7e153bd5edce032f5d908a8ed4254d2d165e92c8fd790776ea1",
      "assetIds": []
    },
    {
      "x": 199,
      "y": 404,
      "size": 1,
      "price": "1011000000000000000000",
      "reserved": "0x7a9fe22691c811ea339d9b73150e6911a5343dca",
      "salt": "0x2109d3bde8ecd1bf29d20ef1f09774640a42a8351d25dfeb4b44684e26987625",
      "assetIds": []
    },
    {
      "x": 199,
      "y": 405,
      "size": 1,
      "price": "1011000000000000000000",
      "reserved": "",
      "salt": "0x28276e3f9cd563d2ac0b5eabbec85d969989ea388c589c587f9ecf65eb64f8eb",
      "assetIds": []
    },
    {
      "x": 199,
      "y": 406,
      "size": 1,
      "price": "1011000000000000000000",
      "reserved": "0x7a9fe22691c811ea339d9b73150e6911a5343dca",
      "salt": "0x3d3266c873ac4622bdcd9aba3ccf124191a41e0cdc63c0feb4bce182f03c6c8d",
      "assetIds": []
    },
    {
      "x": 199,
      "y": 407,
      "size": 1,
      "price": "1011000000000000000000",
      "reserved": "",
      "salt": "0x434bf97ca8805d795944c67cb31ee992dbca747ff7a2bb94cef1ecb5860a63a8",
      "assetIds": []
    },
    {
      "x": 200,
      "y": 378,
      "size": 1,
      "price": "1011000000000000000000",
      "reserved": "",
      "salt": "0x449b08dee874c7d2bde01d2e9539d4be7926e4cd226b887597891387320493c7",
      "assetIds": []
    },
    {
      "x": 200,
      "y": 379,
      "size": 1,
      "price": "1011000000000000000000",
      "reserved": "",
      "salt": "0xd4d66b94efa25a7835e541343a8c98eb5b3983b319c24b7d9b5cc16db776187c",
      "assetIds": []
    },
    {
      "x": 200,
      "y": 380,
      "size": 1,
      "price": "1011000000000000000000",
      "reserved": "",
      "salt": "0x2cb1d08d5fe6e088ed946a63ee609028a79a135e05f2b2ef607aea944a14ab8b",
      "assetIds": []
    },
    {
      "x": 200,
      "y": 381,
      "size": 1,
      "price": "1011000000000000000000",
      "reserved": "",
      "salt": "0xd88c76ac1090a2a0d5da6594f1fe263f296a25a094c034e446f7b5bc2d8b3c34",
      "assetIds": []
    },
    {
      "x": 200,
      "y": 382,
      "size": 1,
      "price": "1011000000000000000000",
      "reserved": "",
      "salt": "0x90d76826791cb5eaa8ffc09d7c23333146f9998e18283e27773fa689b43a6022",
      "assetIds": []
    },
    {
      "x": 200,
      "y": 383,
      "size": 1,
      "price": "1011000000000000000000",
      "reserved": "",
      "salt": "0xc1a1ef07d4c2ed35fba412dddba077ef49605c9a541da3969e212b0e81804bde",
      "assetIds": []
    },
    {
      "x": 200,
      "y": 384,
      "size": 1,
      "price": "1011000000000000000000",
      "reserved": "",
      "salt": "0x4021885cc3b610f0e4b4ad043f6e5ffedf99e3912f2093bee289323f8db03a2c",
      "assetIds": []
    },
    {
      "x": 200,
      "y": 385,
      "size": 1,
      "price": "1011000000000000000000",
      "reserved": "",
      "salt": "0x98822be03dadc77ef30be0a54ebe4a2af78504bfd660343ed63e30e76688abd9",
      "assetIds": []
    },
    {
      "x": 200,
      "y": 386,
      "size": 1,
      "price": "1011000000000000000000",
      "reserved": "",
      "salt": "0xe10e73623dae98e8001c068c0f335a9fea3864eeb87b2bca3064fa5203e0ee38",
      "assetIds": []
    },
    {
      "x": 200,
      "y": 387,
      "size": 1,
      "price": "1011000000000000000000",
      "reserved": "",
      "salt": "0x30916c16581993d248b4d9f12551365286e60649c5f5a08b2dde8c70684bd681",
      "assetIds": []
    },
    {
      "x": 200,
      "y": 388,
      "size": 1,
      "price": "1011000000000000000000",
      "reserved": "",
      "salt": "0x5cebb9d53babf0cef6a216da1616985f958833ebb9cb1d44ff9fa91de6721f3f",
      "assetIds": []
    },
    {
      "x": 200,
      "y": 389,
      "size": 1,
      "price": "1011000000000000000000",
      "reserved": "",
      "salt": "0x895af4695786d7774a196559588aa79ee3ea20a099bdeafcf264b74fd2932860",
      "assetIds": []
    },
    {
      "x": 200,
      "y": 396,
      "size": 1,
      "price": "1011000000000000000000",
      "reserved": "",
      "salt": "0x6f009b6b1937a5d1abb6ed7767ce4ee4df940dcdaa6f6cd71067af6b408f03dc",
      "assetIds": []
    },
    {
      "x": 200,
      "y": 397,
      "size": 1,
      "price": "1011000000000000000000",
      "reserved": "",
      "salt": "0x011f348ced9f18cd8c5db19201b9b426b48ac7eaec302afecad86be6d8287c99",
      "assetIds": []
    },
    {
      "x": 200,
      "y": 398,
      "size": 1,
      "price": "1011000000000000000000",
      "reserved": "",
      "salt": "0x775f91c2b065636f4f2abc933b9dc9044c5676fb6c60086ebe20df44640cf0be",
      "assetIds": []
    },
    {
      "x": 200,
      "y": 399,
      "size": 1,
      "price": "1011000000000000000000",
      "reserved": "",
      "salt": "0xd2e99afb15a3fcd1fcc508c0fd94d2f8e820de7cd9ec8d37df02d8eadaf56ba8",
      "assetIds": []
    },
    {
      "x": 200,
      "y": 400,
      "size": 1,
      "price": "1011000000000000000000",
      "reserved": "",
      "salt": "0x66220d2c98e2465003dd6fea97382632af647309c55bd617de628a9edcbc6327",
      "assetIds": []
    },
    {
      "x": 200,
      "y": 401,
      "size": 1,
      "price": "1011000000000000000000",
      "reserved": "",
      "salt": "0xc62a527e5334f418709df8af5287c26a17a8396b21924699e8b9a23e22cd9705",
      "assetIds": []
    },
    {
      "x": 200,
      "y": 402,
      "size": 1,
      "price": "1011000000000000000000",
      "reserved": "",
      "salt": "0xd3b9b71d0266bcb72fca25c7311bf5e4f9a080c709c6daed017fce9a8b7a7c7b",
      "assetIds": []
    },
    {
      "x": 200,
      "y": 403,
      "size": 1,
      "price": "1011000000000000000000",
      "reserved": "",
      "salt": "0x811ece91a56dc8325cb1664190e94b98ccccd59d363b49a3034d6f0a82ba5fce",
      "assetIds": []
    },
    {
      "x": 200,
      "y": 404,
      "size": 1,
      "price": "1011000000000000000000",
      "reserved": "",
      "salt": "0xc1bde70e30e7ffbb29ff676d2bcb71de55b7cd4faf98ac89bcf42693376ceb40",
      "assetIds": []
    },
    {
      "x": 200,
      "y": 405,
      "size": 1,
      "price": "1011000000000000000000",
      "reserved": "",
      "salt": "0xe564cb80a2e3af23c1b514cb506013fa9df4e5d3ad0f0c2116a22df653987696",
      "assetIds": []
    },
    {
      "x": 200,
      "y": 406,
      "size": 1,
      "price": "1011000000000000000000",
      "reserved": "",
      "salt": "0xc6c6e116a4cf93d0236872498ff68062585bbc5af7ac63ac446c8b881aa834f9",
      "assetIds": []
    },
    {
      "x": 200,
      "y": 407,
      "size": 1,
      "price": "1011000000000000000000",
      "reserved": "",
      "salt": "0xcde130a9373d4ea2104fa59a4b4145d95daee14e0932fd3d68e629c0f6f6c4ad",
      "assetIds": []
    },
    {
      "x": 201,
      "y": 378,
      "size": 1,
      "price": "1011000000000000000000",
      "reserved": "",
      "salt": "0xec29e74a562f5974bc4c4e2db302e8a86ea3197fcacbff6c3cfefa79e00e9023",
      "assetIds": []
    },
    {
      "x": 201,
      "y": 379,
      "size": 1,
      "price": "1011000000000000000000",
      "reserved": "",
      "salt": "0xd017a3771d353c01bc72b78e592714966d3f8b878c05fe58354c65a672b9648d",
      "assetIds": []
    },
    {
      "x": 201,
      "y": 380,
      "size": 1,
      "price": "1011000000000000000000",
      "reserved": "",
      "salt": "0x883dc87416f5ef8b8b83febb38713e4c17f666c3f22710400a704e8d4c05528c",
      "assetIds": []
    },
    {
      "x": 201,
      "y": 381,
      "size": 1,
      "price": "1011000000000000000000",
      "reserved": "",
      "salt": "0xe6e8b91e83e6e3471519c0522a36881a14f13e6a9280f6990cfdb5ec98e5c351",
      "assetIds": []
    },
    {
      "x": 201,
      "y": 382,
      "size": 1,
      "price": "1011000000000000000000",
      "reserved": "",
      "salt": "0x2db70cf33faf2e080120c36fdb3bf5fb455eff74e9166a83d78663d86aa8e9c5",
      "assetIds": []
    },
    {
      "x": 201,
      "y": 383,
      "size": 1,
      "price": "1011000000000000000000",
      "reserved": "0x7a9fe22691c811ea339d9b73150e6911a5343dca",
      "salt": "0x8d8e0f95706750401eb0c0931f24a2bbd1a92525094a628a12e8cda6fcf32389",
      "assetIds": []
    },
    {
      "x": 201,
      "y": 384,
      "size": 1,
      "price": "1011000000000000000000",
      "reserved": "",
      "salt": "0xd41722663cfe19650e25a6c5c78b42bf1c3b3167eb5d95695825cf112da5a943",
      "assetIds": []
    },
    {
      "x": 201,
      "y": 385,
      "size": 1,
      "price": "1011000000000000000000",
      "reserved": "",
      "salt": "0x820b69816f6563e19dc86c9651c2a1067735faab9093c2c40cd82b64abb9ceb9",
      "assetIds": []
    },
    {
      "x": 201,
      "y": 386,
      "size": 1,
      "price": "1011000000000000000000",
      "reserved": "",
      "salt": "0x362b9af5fbe3b97ee20bdffb4f00b0198ed3c7abad3fdd88c68873fbf40fafd2",
      "assetIds": []
    },
    {
      "x": 201,
      "y": 396,
      "size": 1,
      "price": "1011000000000000000000",
      "reserved": "",
      "salt": "0x6740ab3b1f80b6e654f3237a726278f148d030a20167710941a8fac1dc58d02d",
      "assetIds": []
    },
    {
      "x": 201,
      "y": 397,
      "size": 1,
      "price": "1011000000000000000000",
      "reserved": "",
      "salt": "0xdc702115b798aec97157cd6df44e215d5192f5c5573e5f976efc3971e4637726",
      "assetIds": []
    },
    {
      "x": 201,
      "y": 398,
      "size": 1,
      "price": "1011000000000000000000",
      "reserved": "",
      "salt": "0x83741af2f025715cbebcb70c9f3b93a2ca11faaa4c81c05c8504b3a756c85cdb",
      "assetIds": []
    },
    {
      "x": 201,
      "y": 399,
      "size": 1,
      "price": "1011000000000000000000",
      "reserved": "0x7a9fe22691c811ea339d9b73150e6911a5343dca",
      "salt": "0x7445b242a5a215b29c59d715d91fa6004a0f19efa1b2fdd1e065a5f52ed4ac47",
      "assetIds": []
    },
    {
      "x": 201,
      "y": 400,
      "size": 1,
      "price": "1011000000000000000000",
      "reserved": "",
      "salt": "0x91dfec35dcbf5c44f2c10001a319167cd4f66ae9af26e3a88a2c14f40eb6cbf1",
      "assetIds": []
    },
    {
      "x": 201,
      "y": 401,
      "size": 1,
      "price": "1011000000000000000000",
      "reserved": "",
      "salt": "0xa8357177715b764c0d25167ffbe1f70730ac78a7a444c4538d0887e21afe561f",
      "assetIds": []
    },
    {
      "x": 201,
      "y": 402,
      "size": 1,
      "price": "1011000000000000000000",
      "reserved": "",
      "salt": "0x06f5e4e1398ba68244f0ca54fb4e99ffd9ecf6296966e465499f92ba2cab0ed8",
      "assetIds": []
    },
    {
      "x": 201,
      "y": 403,
      "size": 1,
      "price": "1011000000000000000000",
      "reserved": "",
      "salt": "0x1cf9473286a88587921a27e1b532504a1e5adbf616a5ee67f11b56bb8cc56a6e",
      "assetIds": []
    },
    {
      "x": 201,
      "y": 404,
      "size": 1,
      "price": "1011000000000000000000",
      "reserved": "",
      "salt": "0xa330811fe9db0999eab98050edd1e71595a1ba33d1a1f8e8ced59330c558f0d4",
      "assetIds": []
    },
    {
      "x": 201,
      "y": 405,
      "size": 1,
      "price": "1011000000000000000000",
      "reserved": "",
      "salt": "0x790935827a325528a1d545cec7a3b8aa2ba0fa4cbaa6351b6fbe24a0c0672583",
      "assetIds": []
    },
    {
      "x": 201,
      "y": 406,
      "size": 1,
      "price": "1011000000000000000000",
      "reserved": "",
      "salt": "0xf569b34b98b3cd74d110d76b47f78acfd28fb017d72d7096a1ee42b58992e3d5",
      "assetIds": []
    },
    {
      "x": 201,
      "y": 407,
      "size": 1,
      "price": "1011000000000000000000",
      "reserved": "",
      "salt": "0x869345453b0dcd7c7bab17f097ebb6c532d5b822498913f4419b99b9963b001c",
      "assetIds": []
    },
    {
      "x": 202,
      "y": 378,
      "size": 1,
      "price": "1011000000000000000000",
      "reserved": "",
      "salt": "0xfbfae86b2578e56aa9b64781f91dd0689e3867506fc68b40fa65c0ce75220605",
      "assetIds": []
    },
    {
      "x": 202,
      "y": 379,
      "size": 1,
      "price": "1011000000000000000000",
      "reserved": "",
      "salt": "0x9b8c33307d688c697678f50b3f89189913f46f8ad7327bb148d8f548ede51a96",
      "assetIds": []
    },
    {
      "x": 202,
      "y": 380,
      "size": 1,
      "price": "1011000000000000000000",
      "reserved": "0x7a9fe22691c811ea339d9b73150e6911a5343dca",
      "salt": "0x8ae678ccb4b160868439e3f83fdb36f9d3978508ef04e8e053b667dd862e73c5",
      "assetIds": []
    },
    {
      "x": 202,
      "y": 381,
      "size": 1,
      "price": "1011000000000000000000",
      "reserved": "",
      "salt": "0xa9dc3b05234c1f36413df222febb803ddf52b7dab813b292c3d52caff5d49f21",
      "assetIds": []
    },
    {
      "x": 202,
      "y": 382,
      "size": 1,
      "price": "1011000000000000000000",
      "reserved": "",
      "salt": "0xb1c314b0d2bc17e92f2cd81f75e5f1817569fe83058cfbaf3cb66967ddd7c8c8",
      "assetIds": []
    },
    {
      "x": 202,
      "y": 383,
      "size": 1,
      "price": "1011000000000000000000",
      "reserved": "",
      "salt": "0x34edea984f34152e21a8ad0b1aab6e94a20cc67e74dbea57e755f4a287a83316",
      "assetIds": []
    },
    {
      "x": 202,
      "y": 384,
      "size": 1,
      "price": "1011000000000000000000",
      "reserved": "",
      "salt": "0xe938321a370cd6bc2471fb0366760b67cc9f4c6976d7970ff8f5bc92fa3ce5a8",
      "assetIds": []
    },
    {
      "x": 202,
      "y": 385,
      "size": 1,
      "price": "1011000000000000000000",
      "reserved": "",
      "salt": "0x6f8e1ffed2799916aa2c1f9132b8d25129d766019fc70e785b4e04086e033f73",
      "assetIds": []
    },
    {
      "x": 202,
      "y": 386,
      "size": 1,
      "price": "1011000000000000000000",
      "reserved": "",
      "salt": "0x2d2c0e08a9efd497b03fa57abb18e53c76e07152d254bd9a4034fae50ec3ba19",
      "assetIds": []
    },
    {
      "x": 202,
      "y": 396,
      "size": 1,
      "price": "1011000000000000000000",
      "reserved": "",
      "salt": "0xdc67025cd873fb8376b8c1583150105d4f0c99a432a23600251e84be8a3f954d",
      "assetIds": []
    },
    {
      "x": 202,
      "y": 397,
      "size": 1,
      "price": "1011000000000000000000",
      "reserved": "",
      "salt": "0x5955ae1d7edc9f5967efb06a7c26a9f25d943ac884d7523efb923e9b5410b927",
      "assetIds": []
    },
    {
      "x": 202,
      "y": 398,
      "size": 1,
      "price": "1011000000000000000000",
      "reserved": "",
      "salt": "0xcf933071d5d031c47735938ded0fa6caa85aab04ad601372949f1c3463673fc1",
      "assetIds": []
    },
    {
      "x": 202,
      "y": 399,
      "size": 1,
      "price": "1011000000000000000000",
      "reserved": "",
      "salt": "0xd4c25847bf57268f061a17cc9dc767162143ad3ffe18531e2aff3668e3dedc68",
      "assetIds": []
    },
    {
      "x": 202,
      "y": 400,
      "size": 1,
      "price": "1011000000000000000000",
      "reserved": "",
      "salt": "0x2fc237cc236fff1a6f52860032c2bb000062f8779cecd3af771700306e192bef",
      "assetIds": []
    },
    {
      "x": 202,
      "y": 401,
      "size": 1,
      "price": "1011000000000000000000",
      "reserved": "",
      "salt": "0xd0ce302c7331d895263ec28a1a4f18fa4f34bdaaba71673a38b3dece58cffef8",
      "assetIds": []
    },
    {
      "x": 202,
      "y": 402,
      "size": 1,
      "price": "1011000000000000000000",
      "reserved": "",
      "salt": "0x1f4b088d3d9aab31948a8b6784f189cca6dfcbf8e48514bcd4c81fba5694d4cc",
      "assetIds": []
    },
    {
      "x": 202,
      "y": 403,
      "size": 1,
      "price": "1011000000000000000000",
      "reserved": "0x7a9fe22691c811ea339d9b73150e6911a5343dca",
      "salt": "0x4a7130ec7d6880f65f86f6173be17c4a34b81140932b3ab2d3696cdd6981daae",
      "assetIds": []
    },
    {
      "x": 202,
      "y": 404,
      "size": 1,
      "price": "1011000000000000000000",
      "reserved": "",
      "salt": "0x02356c67825e3208203ef42ccadc823ddc3b64dd35324e92d0d37a7cd3eba1b0",
      "assetIds": []
    },
    {
      "x": 202,
      "y": 405,
      "size": 1,
      "price": "1011000000000000000000",
      "reserved": "",
      "salt": "0xd36a2a3b539e1adc6e43da3a5bf20676cf9a252bb76da31888bd9a7992b919e1",
      "assetIds": []
    },
    {
      "x": 202,
      "y": 406,
      "size": 1,
      "price": "1011000000000000000000",
      "reserved": "0x7a9fe22691c811ea339d9b73150e6911a5343dca",
      "salt": "0x875e4c764c59a7107ea31136fb4ee7b5f58ce879f4233c3857059f9608c1f6df",
      "assetIds": []
    },
    {
      "x": 202,
      "y": 407,
      "size": 1,
      "price": "1011000000000000000000",
      "reserved": "",
      "salt": "0xd05af7c46a180e11d9da6f6689f44210649373c8dbc88f93e935675f7987c8b1",
      "assetIds": []
    },
    {
      "x": 203,
      "y": 378,
      "size": 1,
      "price": "1011000000000000000000",
      "reserved": "",
      "salt": "0xb35dbdc4f5e932bb5d797cfbf26f49aebdad23d0dab4f21c2edf6fddcd4ecd7e",
      "assetIds": []
    },
    {
      "x": 203,
      "y": 379,
      "size": 1,
      "price": "1011000000000000000000",
      "reserved": "",
      "salt": "0x462c36351181d2ded08a9005fbe8dead17c318ea8290797601ba1e4484662e8e",
      "assetIds": []
    },
    {
      "x": 203,
      "y": 380,
      "size": 1,
      "price": "1011000000000000000000",
      "reserved": "",
      "salt": "0x6dc6502de0c790eff30a37c98c5aa02319d14a932922b057c8b32e3316b7f16c",
      "assetIds": []
    },
    {
      "x": 203,
      "y": 381,
      "size": 1,
      "price": "1011000000000000000000",
      "reserved": "",
      "salt": "0xce824e161b7a88ecfe6a12d3e190be1906b8e27758e88401af3bf698bed8f326",
      "assetIds": []
    },
    {
      "x": 203,
      "y": 382,
      "size": 1,
      "price": "1011000000000000000000",
      "reserved": "",
      "salt": "0xd8997e1764568954753baa8878bd3804425f064ea18adee3f5c2c8ef7a4e21fe",
      "assetIds": []
    },
    {
      "x": 203,
      "y": 383,
      "size": 1,
      "price": "1011000000000000000000",
      "reserved": "",
      "salt": "0x94a8b182dd1b5887dfa814694688af4e0ad003d95b28eef5564ceb4d5ea5dea4",
      "assetIds": []
    },
    {
      "x": 203,
      "y": 384,
      "size": 1,
      "price": "1011000000000000000000",
      "reserved": "0x7a9fe22691c811ea339d9b73150e6911a5343dca",
      "salt": "0x8707b5a50f1fb64a2123f901ccee0759043fc74e399503576eb1ab4a061b9c9b",
      "assetIds": []
    },
    {
      "x": 203,
      "y": 385,
      "size": 1,
      "price": "1011000000000000000000",
      "reserved": "0x7a9fe22691c811ea339d9b73150e6911a5343dca",
      "salt": "0x3555705e9d7ff14165f2d554c75db3270f4ffdd4cc7257e5f112edd28d058ff1",
      "assetIds": []
    },
    {
      "x": 203,
      "y": 386,
      "size": 1,
      "price": "1011000000000000000000",
      "reserved": "",
      "salt": "0x62325ca5b9b4c10d9114949e34b51bb2ce2efad61374fbdeec9bfd3df2e97b48",
      "assetIds": []
    },
    {
      "x": 203,
      "y": 396,
      "size": 1,
      "price": "1011000000000000000000",
      "reserved": "",
      "salt": "0xf1bef7c9b1e1ab70954b67d0d5543475c77857d8639065c2c7077ba35e003ca0",
      "assetIds": []
    },
    {
      "x": 203,
      "y": 397,
      "size": 1,
      "price": "1011000000000000000000",
      "reserved": "",
      "salt": "0x1241d52abf3d90bedb4d2656bf0b9e2eb41eb4686a1baf12c3a1b82cc9671ced",
      "assetIds": []
    },
    {
      "x": 203,
      "y": 398,
      "size": 1,
      "price": "1011000000000000000000",
      "reserved": "",
      "salt": "0xf5ed6b50aecec596d722d0639bff1923d4ddff2d5fe2f2472138785755588a00",
      "assetIds": []
    },
    {
      "x": 203,
      "y": 399,
      "size": 1,
      "price": "1011000000000000000000",
      "reserved": "",
      "salt": "0x74610347d6820770d5b6e0b5d0a454ac72033d8cbc91d6b72dd6ee2efb0dc17a",
      "assetIds": []
    },
    {
      "x": 203,
      "y": 400,
      "size": 1,
      "price": "1011000000000000000000",
      "reserved": "",
      "salt": "0x171a2c70cf9aed0025d8a5a1b150ad9135239f9c9f79a1919f346c936cc5ce05",
      "assetIds": []
    },
    {
      "x": 203,
      "y": 401,
      "size": 1,
      "price": "1011000000000000000000",
      "reserved": "",
      "salt": "0x05f51ec2869a4be53944869712b845783ab789a095c89195af2a712947470093",
      "assetIds": []
    },
    {
      "x": 203,
      "y": 402,
      "size": 1,
      "price": "1011000000000000000000",
      "reserved": "",
      "salt": "0xfef24b5878be71b6845f8519a84ea5b203b36d7b8d214d5e48fedc43fd5e6c02",
      "assetIds": []
    },
    {
      "x": 203,
      "y": 403,
      "size": 1,
      "price": "1011000000000000000000",
      "reserved": "",
      "salt": "0xb4cd1590b7fc221c58a6827a0ecd5d50976157be18182e48d9ba3970962e3295",
      "assetIds": []
    },
    {
      "x": 203,
      "y": 404,
      "size": 1,
      "price": "1011000000000000000000",
      "reserved": "0x7a9fe22691c811ea339d9b73150e6911a5343dca",
      "salt": "0x33a47386261fefc5cf448af4c14d9f72bfaaf4ef24ba589dd1286ab12c83efb5",
      "assetIds": []
    },
    {
      "x": 203,
      "y": 405,
      "size": 1,
      "price": "1011000000000000000000",
      "reserved": "",
      "salt": "0x4b764a55ed7128e7fd961bdc03f882a75fb6c892d2bbf737e00820c36a8d4bab",
      "assetIds": []
    },
    {
      "x": 203,
      "y": 406,
      "size": 1,
      "price": "1011000000000000000000",
      "reserved": "",
      "salt": "0x49a1f5dceb5fde34419b97df4830dca339caa96fceba926bb344165055746396",
      "assetIds": []
    },
    {
      "x": 203,
      "y": 407,
      "size": 1,
      "price": "1011000000000000000000",
      "reserved": "",
      "salt": "0xb4300533ffd26b23225f21f984dcff81160cdfa99decf8951ace8840e1ab0c1f",
      "assetIds": []
    },
    {
      "x": 204,
      "y": 360,
      "size": 1,
      "price": "4683000000000000000000",
      "reserved": "",
      "salt": "0x46a4c188eb2e7e5ad83200ab12acece1bea04e14e49bfcb5fc6e37e3f21de2b8",
      "assetIds": [
        "41506478881403507969696680653240014914910929820314476107906210059990541021186"
      ]
    },
    {
      "x": 204,
      "y": 361,
      "size": 1,
      "price": "4683000000000000000000",
      "reserved": "",
      "salt": "0xf2fadb091e3e99044927ffdff02abc9282e06f87f46c317315acc8074336c16a",
      "assetIds": [
        "41506478881403507969696680653240014914910929820314476107906210059990541021186"
      ]
    },
    {
      "x": 204,
      "y": 362,
      "size": 1,
      "price": "4683000000000000000000",
      "reserved": "",
      "salt": "0x9b673a3c160bf9cb8b5c348dd958831825a208e2b29abd521da46afb1c48636f",
      "assetIds": [
        "41506478881403507969696680653240014914910929820314476107906210059990541021186"
      ]
    },
    {
      "x": 204,
      "y": 363,
      "size": 1,
      "price": "4683000000000000000000",
      "reserved": "",
      "salt": "0x3841b008d1546100260b4938f4f6e7e87184248a261917fb40015c7dabcec3dd",
      "assetIds": [
        "41506478881403507969696680653240014914910929820314476107906210059990541021186"
      ]
    },
    {
      "x": 204,
      "y": 364,
      "size": 1,
      "price": "4683000000000000000000",
      "reserved": "",
      "salt": "0xc45bed99cc8ffb8dd8a94b89f2902f2ad285234d1160917a1d7b20386df4300d",
      "assetIds": [
        "41506478881403507969696680653240014914910929820314476107906210059990541021186"
      ]
    },
    {
      "x": 204,
      "y": 365,
      "size": 1,
      "price": "4683000000000000000000",
      "reserved": "",
      "salt": "0xd6334ff1b339ee8dea91f6df657bdf8c2427c1176ab35de715e4139d21736c21",
      "assetIds": [
        "41506478881403507969696680653240014914910929820314476107906210059990541021186"
      ]
    },
    {
      "x": 204,
      "y": 366,
      "size": 1,
      "price": "4683000000000000000000",
      "reserved": "",
      "salt": "0x07046c61fe4a1f6caf8bd1562290c2bd6833552399828514dd06a65b53ceb96a",
      "assetIds": [
        "41506478881403507969696680653240014914910929820314476107906210059990541021186"
      ]
    },
    {
      "x": 204,
      "y": 367,
      "size": 1,
      "price": "4683000000000000000000",
      "reserved": "",
      "salt": "0x45d6044505a30f73636a6303249c38060bd83813fdb4aa9a99bcfb4933b943e6",
      "assetIds": [
        "41506478881403507969696680653240014914910929820314476107906210059990541021186"
      ]
    },
    {
      "x": 204,
      "y": 368,
      "size": 1,
      "price": "4683000000000000000000",
      "reserved": "",
      "salt": "0xf687edffbc509d1ac736cd478c33951570185813a4fbbde1baa855a11ca02c4c",
      "assetIds": [
        "41506478881403507969696680653240014914910929820314476107906210059990541021186"
      ]
    },
    {
      "x": 204,
      "y": 369,
      "size": 1,
      "price": "4683000000000000000000",
      "reserved": "",
      "salt": "0xf1be014ee634fb6b24b9169c8d82f9f8bdef187217845e7bdd4b84ded7d8297f",
      "assetIds": [
        "41506478881403507969696680653240014914910929820314476107906210059990541021186"
      ]
    },
    {
      "x": 204,
      "y": 370,
      "size": 1,
      "price": "4683000000000000000000",
      "reserved": "",
      "salt": "0x12eba330c6bd0817f0ad46d5a4d9f851c3b061e316cfdc1252af9e392eb17e87",
      "assetIds": [
        "41506478881403507969696680653240014914910929820314476107906210059990541021186"
      ]
    },
    {
      "x": 204,
      "y": 371,
      "size": 1,
      "price": "4683000000000000000000",
      "reserved": "",
      "salt": "0xee4f83f7e3ac7bb01075dc7aeb8fb6b19f00669b0d8df3a0a0ff7342c9173b57",
      "assetIds": [
        "41506478881403507969696680653240014914910929820314476107906210059990541021186"
      ]
    },
    {
      "x": 204,
      "y": 372,
      "size": 1,
      "price": "4683000000000000000000",
      "reserved": "",
      "salt": "0x3c5bc5f759e2717f7bb362b6c9cee0847aa55af09e3168abe4af22404e16a31f",
      "assetIds": [
        "41506478881403507969696680653240014914910929820314476107906210059990541021186"
      ]
    },
    {
      "x": 204,
      "y": 373,
      "size": 1,
      "price": "4683000000000000000000",
      "reserved": "",
      "salt": "0xd06d8e2e64baf0c9cec13dc5f6fba906e04a7e0e7fd555c31db4c21f0b2a38ec",
      "assetIds": [
        "41506478881403507969696680653240014914910929820314476107906210059990541021186"
      ]
    },
    {
      "x": 204,
      "y": 374,
      "size": 1,
      "price": "1011000000000000000000",
      "reserved": "0x7a9fe22691c811ea339d9b73150e6911a5343dca",
      "salt": "0xb21945f0e1b94f0559d7f0ba2f72175382e54a5ad37dd6c21b5a234a5c8609e4",
      "assetIds": []
    },
    {
      "x": 204,
      "y": 375,
      "size": 1,
      "price": "1011000000000000000000",
      "reserved": "",
      "salt": "0x3734c86d3518c91178f0a532d967841a5152c44c1133bdc8f43fe0a92d9a368d",
      "assetIds": []
    },
    {
      "x": 204,
      "y": 376,
      "size": 1,
      "price": "1011000000000000000000",
      "reserved": "",
      "salt": "0xdafaab5c0e7ece11e32ece840c4de01fc47aab1b2b216771d55b08de323ce8c8",
      "assetIds": []
    },
    {
      "x": 204,
      "y": 377,
      "size": 1,
      "price": "1011000000000000000000",
      "reserved": "",
      "salt": "0x405ecc54793479e8b2086022080caf2e3f502d6658b58414424013cdd0cdbeeb",
      "assetIds": []
    },
    {
      "x": 204,
      "y": 378,
      "size": 1,
      "price": "1011000000000000000000",
      "reserved": "",
      "salt": "0xf16a6c1dbab0362cfb2e62d1e2362789dd791f17738c35dd5ea85c29a14ed0cd",
      "assetIds": []
    },
    {
      "x": 204,
      "y": 379,
      "size": 1,
      "price": "1011000000000000000000",
      "reserved": "0x7a9fe22691c811ea339d9b73150e6911a5343dca",
      "salt": "0x0e92de67b9a8c27fe86e53349ff9a33b17e2d54f9989272bec0f6705ff767480",
      "assetIds": []
    },
    {
      "x": 204,
      "y": 380,
      "size": 1,
      "price": "1011000000000000000000",
      "reserved": "",
      "salt": "0xf9ef0a53a7e5cdd0fb3a0e084ff0aeeed857ab6760463d319835ef52fdc98531",
      "assetIds": []
    },
    {
      "x": 204,
      "y": 381,
      "size": 1,
      "price": "1011000000000000000000",
      "reserved": "0x7a9fe22691c811ea339d9b73150e6911a5343dca",
      "salt": "0xa4f70f89645b89f31466e9f528ea1bb4f764877d8c8194aa3574f0af72076330",
      "assetIds": []
    },
    {
      "x": 204,
      "y": 382,
      "size": 1,
      "price": "1011000000000000000000",
      "reserved": "",
      "salt": "0x25432a92facd25b355f6b9fa2883e610bcc72df19cd4a97bd9ee3e0c3374d5d0",
      "assetIds": []
    },
    {
      "x": 204,
      "y": 383,
      "size": 1,
      "price": "1011000000000000000000",
      "reserved": "",
      "salt": "0xc8fcbdf2c570f6c4f4fcea7c60687c2956d9ea16a4c8f5cbf625b352bdb4ad60",
      "assetIds": []
    },
    {
      "x": 204,
      "y": 384,
      "size": 1,
      "price": "1011000000000000000000",
      "reserved": "",
      "salt": "0x7ce8b7284c958e36d3130cf9cee56f938c084a49ad1d3c67caa3a3f8a7a7cbd8",
      "assetIds": []
    },
    {
      "x": 204,
      "y": 385,
      "size": 1,
      "price": "1011000000000000000000",
      "reserved": "",
      "salt": "0x086a691f8ef578b443aa3493af651d42f146d1de6dedf3d1f2b4e234dd80555a",
      "assetIds": []
    },
    {
      "x": 204,
      "y": 386,
      "size": 1,
      "price": "1011000000000000000000",
      "reserved": "",
      "salt": "0x4f6a71f823c43972a48182f9fe93ff597fdf72ea55779a7aef43bc002225c611",
      "assetIds": []
    },
    {
      "x": 204,
      "y": 387,
      "size": 1,
      "price": "1011000000000000000000",
      "reserved": "",
      "salt": "0x1195eeb3c9f35eecd5732ffd4186befa909d64c90b3035cad49e7e11481e8eed",
      "assetIds": []
    },
    {
      "x": 204,
      "y": 388,
      "size": 1,
      "price": "1011000000000000000000",
      "reserved": "",
      "salt": "0x92b7c5797b64fcbbc7616235fa58bafdfc30506283eaa6e6ca7d1a938e44056e",
      "assetIds": []
    },
    {
      "x": 204,
      "y": 389,
      "size": 1,
      "price": "1011000000000000000000",
      "reserved": "",
      "salt": "0xb0899a0a58c5a7aa53fa92fb778049cac12d41d21ca404610d5243160a635bfc",
      "assetIds": []
    },
    {
      "x": 204,
      "y": 390,
      "size": 1,
      "price": "1011000000000000000000",
      "reserved": "",
      "salt": "0x3eb24f3925a919822212d51189862fbd1d957c8180bf129f5d4fa0e9fc103923",
      "assetIds": []
    },
    {
      "x": 204,
      "y": 391,
      "size": 1,
      "price": "1011000000000000000000",
      "reserved": "0x7a9fe22691c811ea339d9b73150e6911a5343dca",
      "salt": "0xed611a46f05b9eb91c64d2541d1db2285f7a02db7625820a67d8940f84161d0b",
      "assetIds": []
    },
    {
      "x": 204,
      "y": 392,
      "size": 1,
      "price": "1011000000000000000000",
      "reserved": "",
      "salt": "0xdad15907476244d17a75f80359976b1d7cf1562bb5f852516aacd3c204ddbecf",
      "assetIds": []
    },
    {
      "x": 204,
      "y": 393,
      "size": 1,
      "price": "1011000000000000000000",
      "reserved": "",
      "salt": "0xfa66865803d4db942822e67e8098c54f6164fbf8eedf689591828a7202339974",
      "assetIds": []
    },
    {
      "x": 204,
      "y": 394,
      "size": 1,
      "price": "1011000000000000000000",
      "reserved": "",
      "salt": "0x8f93c85b30bdb6fd2ae43d93fcf7a684c43ded5a1f96d217cfd552df931c0528",
      "assetIds": []
    },
    {
      "x": 204,
      "y": 395,
      "size": 1,
      "price": "1011000000000000000000",
      "reserved": "",
      "salt": "0xa1737550aaf515785d33fdbd844051ce872e09c013e73e16991885a3f55a9b3c",
      "assetIds": []
    },
    {
      "x": 204,
      "y": 396,
      "size": 1,
      "price": "1011000000000000000000",
      "reserved": "",
      "salt": "0xeb46cb34408deae2285665feb171ec9ed36ce4bd47a80b7ca62eeb73a50c1c58",
      "assetIds": []
    },
    {
      "x": 204,
      "y": 397,
      "size": 1,
      "price": "1011000000000000000000",
      "reserved": "",
      "salt": "0x209399c4d081f6495bc7070b003fe246a5829970c5719fd157d151a7424379ad",
      "assetIds": []
    },
    {
      "x": 204,
      "y": 398,
      "size": 1,
      "price": "1011000000000000000000",
      "reserved": "",
      "salt": "0xbebd7dd297aff21065868de5c258afd99e86c364ca52727f244b6bb71600c5ca",
      "assetIds": []
    },
    {
      "x": 204,
      "y": 399,
      "size": 1,
      "price": "1011000000000000000000",
      "reserved": "",
      "salt": "0x1a2ba62dae2f7f7138f8ea872effe4fc54eaea138a071da99b6a4475f0d3970c",
      "assetIds": []
    },
    {
      "x": 204,
      "y": 400,
      "size": 1,
      "price": "1011000000000000000000",
      "reserved": "",
      "salt": "0x11ce2155e22d9aa14e671c8b0ef059da312f0e049ff6b21b2ebdee4f2c234c42",
      "assetIds": []
    },
    {
      "x": 204,
      "y": 401,
      "size": 1,
      "price": "1011000000000000000000",
      "reserved": "",
      "salt": "0x7ffc3d782d305e80ff303d51801e8869fcdf00701bf4da07a7c3fa0babc6b332",
      "assetIds": []
    },
    {
      "x": 204,
      "y": 402,
      "size": 1,
      "price": "1011000000000000000000",
      "reserved": "",
      "salt": "0xd73c745b1aaa068f3bea9202a469d88406dac1777aa7233103fdf93046271344",
      "assetIds": []
    },
    {
      "x": 204,
      "y": 403,
      "size": 1,
      "price": "1011000000000000000000",
      "reserved": "",
      "salt": "0x85d91a1e2056e6ae37c8f55166c936ee3f86472b43826c27263d0f3234446972",
      "assetIds": []
    },
    {
      "x": 204,
      "y": 404,
      "size": 1,
      "price": "1011000000000000000000",
      "reserved": "0x7a9fe22691c811ea339d9b73150e6911a5343dca",
      "salt": "0x4ad48aa47cf101733eb9ed9281d58a858067ae42fed1df503d18f11d022d279f",
      "assetIds": []
    },
    {
      "x": 204,
      "y": 405,
      "size": 1,
      "price": "1011000000000000000000",
      "reserved": "",
      "salt": "0x0517576c91da3aaa68f3360a3f400daf857074b674e93badc39109bf46924d1e",
      "assetIds": []
    },
    {
      "x": 204,
      "y": 406,
      "size": 1,
      "price": "1011000000000000000000",
      "reserved": "",
      "salt": "0x55250379d4714dbff60a2c4e18b5ffbcf23d035b7b6e79afe48adb90de388aea",
      "assetIds": []
    },
    {
      "x": 204,
      "y": 407,
      "size": 1,
      "price": "1011000000000000000000",
      "reserved": "",
      "salt": "0x6f8590c41de7012d9da6151f1ec3ec2ad8c27211f827fb7c924fe98452738b6c",
      "assetIds": []
    },
    {
      "x": 205,
      "y": 360,
      "size": 1,
      "price": "1011000000000000000000",
      "reserved": "",
      "salt": "0xf6bf1e70be99da1661d43e4bb831a55455eab74157a9f8b690b40cb625c03077",
      "assetIds": []
    },
    {
      "x": 205,
      "y": 361,
      "size": 1,
      "price": "1011000000000000000000",
      "reserved": "",
      "salt": "0x6172d5c9e3a6ccc08f4195ee259a8fc0a3e474beb75049e9ce52688def49313f",
      "assetIds": []
    },
    {
      "x": 205,
      "y": 362,
      "size": 1,
      "price": "1011000000000000000000",
      "reserved": "",
      "salt": "0x2e1d814c713320b5a6366b61e6b593fe03a58c07b0431dad58dbcc8db5f5537f",
      "assetIds": []
    },
    {
      "x": 205,
      "y": 363,
      "size": 1,
      "price": "4683000000000000000000",
      "reserved": "",
      "salt": "0xb103e0bdcab3788984de1930d96b726738f8c4e46c79012aee0790fe3c85225f",
      "assetIds": [
        "41506478881403507969696680653240014914910929820314476107906210059990541021186"
      ]
    },
    {
      "x": 205,
      "y": 364,
      "size": 1,
      "price": "4683000000000000000000",
      "reserved": "",
      "salt": "0xb53dca086a7d0f549cf6b22d10ba33b8ceabe1306cfbed658292e143ad326c3f",
      "assetIds": [
        "41506478881403507969696680653240014914910929820314476107906210059990541021186"
      ]
    },
    {
      "x": 205,
      "y": 365,
      "size": 1,
      "price": "4683000000000000000000",
      "reserved": "",
      "salt": "0x7a9fee674727d7f92209ab7ffae20851d2f6ec178532632b9681fee1dae17125",
      "assetIds": [
        "41506478881403507969696680653240014914910929820314476107906210059990541021186"
      ]
    },
    {
      "x": 205,
      "y": 366,
      "size": 1,
      "price": "1011000000000000000000",
      "reserved": "0x7a9fe22691c811ea339d9b73150e6911a5343dca",
      "salt": "0xb77f17eeb953deca836e2fdfb1079bf34544e4285147f3261f259feaf9e44392",
      "assetIds": []
    },
    {
      "x": 205,
      "y": 367,
      "size": 1,
      "price": "1011000000000000000000",
      "reserved": "",
      "salt": "0xc8201a55aaa146d6aee35febb07a697013592ae509f1c0f0e2d0903808fd16af",
      "assetIds": []
    },
    {
      "x": 205,
      "y": 368,
      "size": 1,
      "price": "1011000000000000000000",
      "reserved": "",
      "salt": "0xb1e478282b60966d5d2430c863549293d2bb0d97139fd9407f3b0d38b1059832",
      "assetIds": []
    },
    {
      "x": 205,
      "y": 369,
      "size": 1,
      "price": "4683000000000000000000",
      "reserved": "",
      "salt": "0xced8fc1c71624d4d8c3c5f09b41a8b3d8e836162260ba0843a0f464c40e6f7fc",
      "assetIds": [
        "41506478881403507969696680653240014914910929820314476107906210059990541021186"
      ]
    },
    {
      "x": 205,
      "y": 370,
      "size": 1,
      "price": "4683000000000000000000",
      "reserved": "",
      "salt": "0x2fded068ea7fcbf7b3d99607190e1d17fb537593f5f309870aded0b801a5033a",
      "assetIds": [
        "41506478881403507969696680653240014914910929820314476107906210059990541021186"
      ]
    },
    {
      "x": 205,
      "y": 371,
      "size": 1,
      "price": "4683000000000000000000",
      "reserved": "",
      "salt": "0x4aafd7eb72690f05c66f47d8317a594fc23fede002d989e4915cf0458ce45868",
      "assetIds": [
        "41506478881403507969696680653240014914910929820314476107906210059990541021186"
      ]
    },
    {
      "x": 205,
      "y": 372,
      "size": 1,
      "price": "1011000000000000000000",
      "reserved": "",
      "salt": "0x8145f14d2659045879ca0b6d97be611c02cf3149e8823f31597a31225d01e642",
      "assetIds": []
    },
    {
      "x": 205,
      "y": 373,
      "size": 1,
      "price": "1011000000000000000000",
      "reserved": "0x7a9fe22691c811ea339d9b73150e6911a5343dca",
      "salt": "0xe2be2e0a526897086189736ee0954a1c1e37ebe9ed7299ecd2785c1a6a61bfb7",
      "assetIds": []
    },
    {
      "x": 205,
      "y": 374,
      "size": 1,
      "price": "1011000000000000000000",
      "reserved": "",
      "salt": "0xfb78af559bcea70a29f465cbb5f2b240107bdc4f5c92c01894b6180d43fd699a",
      "assetIds": []
    },
    {
      "x": 205,
      "y": 375,
      "size": 1,
      "price": "1011000000000000000000",
      "reserved": "0x7a9fe22691c811ea339d9b73150e6911a5343dca",
      "salt": "0xebf3adc3be03266f2a301d3f5bd2edebac4496a08352ff1998f9f48f1cd0706d",
      "assetIds": []
    },
    {
      "x": 205,
      "y": 376,
      "size": 1,
      "price": "1011000000000000000000",
      "reserved": "",
      "salt": "0x8ead72cff6a3d0d27ffb36fe223c7e5b4d2e36b07a8d54f805260d737d731ff5",
      "assetIds": []
    },
    {
      "x": 205,
      "y": 377,
      "size": 1,
      "price": "1011000000000000000000",
      "reserved": "",
      "salt": "0xc07074e79346ecb6817a85a5cfd118c2ad091b912021886b48d6198330f987bb",
      "assetIds": []
    },
    {
      "x": 205,
      "y": 378,
      "size": 1,
      "price": "1011000000000000000000",
      "reserved": "",
      "salt": "0x7bf689af2be21e2c57cebd80391cac0c8734cdd2394beef0d81c612e462d9cd3",
      "assetIds": []
    },
    {
      "x": 205,
      "y": 379,
      "size": 1,
      "price": "1011000000000000000000",
      "reserved": "",
      "salt": "0xba8bdc97052d36a47d455d4f9ceda2c3a913864987619129f7c6e0d2ac71b0d1",
      "assetIds": []
    },
    {
      "x": 205,
      "y": 380,
      "size": 1,
      "price": "1011000000000000000000",
      "reserved": "",
      "salt": "0x40c2cdcbcfeb1fc6bd7caecca40eccbd7d4cd0d1e3c172201ecc1789a6078304",
      "assetIds": []
    },
    {
      "x": 205,
      "y": 381,
      "size": 1,
      "price": "1011000000000000000000",
      "reserved": "",
      "salt": "0xd3e875e50ac098fd8fddc9f2c5cc99555ba5216b00d41368c8f2955b0b7d8a35",
      "assetIds": []
    },
    {
      "x": 205,
      "y": 382,
      "size": 1,
      "price": "1011000000000000000000",
      "reserved": "",
      "salt": "0x7f5eb8ac6d7aee93291782a4904f8d1b8635ec788ed92cbf48719d321f8c675f",
      "assetIds": []
    },
    {
      "x": 205,
      "y": 383,
      "size": 1,
      "price": "1011000000000000000000",
      "reserved": "",
      "salt": "0xa7db7f1abf451de53225773d311de20f5625a427428c7d063dc44cc9c410815f",
      "assetIds": []
    },
    {
      "x": 205,
      "y": 384,
      "size": 1,
      "price": "1011000000000000000000",
      "reserved": "0x7a9fe22691c811ea339d9b73150e6911a5343dca",
      "salt": "0xd5547593d80ec3f44fdbce5c5e44e991ed2cabbe8807fceec1b5a9992d83e1b8",
      "assetIds": []
    },
    {
      "x": 205,
      "y": 385,
      "size": 1,
      "price": "1011000000000000000000",
      "reserved": "",
      "salt": "0x874e8add5f3ebe273ae55df74938fc7e54edf1ba45455fb026ea0597a0416924",
      "assetIds": []
    },
    {
      "x": 205,
      "y": 386,
      "size": 1,
      "price": "1011000000000000000000",
      "reserved": "",
      "salt": "0x4fc645a90f994daca1f5f6e62285816b29c462ead6b5049c149807fb9db1d574",
      "assetIds": []
    },
    {
      "x": 205,
      "y": 387,
      "size": 1,
      "price": "1011000000000000000000",
      "reserved": "0x7a9fe22691c811ea339d9b73150e6911a5343dca",
      "salt": "0x7a65605e61da94746ef9e1037b92c9320c5a0dfbc27e0ed9344faddb8b9fa257",
      "assetIds": []
    },
    {
      "x": 205,
      "y": 388,
      "size": 1,
      "price": "1011000000000000000000",
      "reserved": "",
      "salt": "0xeaa369718033e1477d29637556df234276ff0c452ee1e3983bc346de447019a9",
      "assetIds": []
    },
    {
      "x": 205,
      "y": 389,
      "size": 1,
      "price": "1011000000000000000000",
      "reserved": "0x7a9fe22691c811ea339d9b73150e6911a5343dca",
      "salt": "0x9786c52e36a905cee71a6e69551e607fd3a2eb9d698eb6034bcfe8fcca92337e",
      "assetIds": []
    },
    {
      "x": 205,
      "y": 390,
      "size": 1,
      "price": "1011000000000000000000",
      "reserved": "",
      "salt": "0x0680ed2baacd89ca686b113ddd104391b2cefa4d0a21c60303819893cf0f9fdd",
      "assetIds": []
    },
    {
      "x": 205,
      "y": 391,
      "size": 1,
      "price": "1011000000000000000000",
      "reserved": "",
      "salt": "0x4a30257005dfa797bf7efd471f2ba0f8aeb1f5ca320f1ece794f9fcf265807f4",
      "assetIds": []
    },
    {
      "x": 205,
      "y": 392,
      "size": 1,
      "price": "1011000000000000000000",
      "reserved": "",
      "salt": "0xb4cbb5e72e8c5092568ce02aefa58f429c6cf9c66667144ae575d2f32c6426f1",
      "assetIds": []
    },
    {
      "x": 205,
      "y": 393,
      "size": 1,
      "price": "1011000000000000000000",
      "reserved": "",
      "salt": "0x56cbf4d7b2c02de2b9a55b57014bcd5118e030cd1985bab0754ec978271a9496",
      "assetIds": []
    },
    {
      "x": 205,
      "y": 394,
      "size": 1,
      "price": "1011000000000000000000",
      "reserved": "",
      "salt": "0xaf6e367f08dd8d70c1648062407f2c955c12b19fda8769e434946d96cd11fc48",
      "assetIds": []
    },
    {
      "x": 205,
      "y": 395,
      "size": 1,
      "price": "1011000000000000000000",
      "reserved": "",
      "salt": "0x71568b09e54bfcdbb7be74ebbb60ef2f84eb6fd9133c44acd5ea4114187b142f",
      "assetIds": []
    },
    {
      "x": 205,
      "y": 396,
      "size": 1,
      "price": "1011000000000000000000",
      "reserved": "",
      "salt": "0x89f1d666be22a20642f9a394c4bcb060223ee29e675a2e4ce00d0fb251771812",
      "assetIds": []
    },
    {
      "x": 205,
      "y": 397,
      "size": 1,
      "price": "1011000000000000000000",
      "reserved": "",
      "salt": "0xaff5b42ee1c0878946ebd680f2564028880f8e1fd61a34943a65936a7eae3e3f",
      "assetIds": []
    },
    {
      "x": 205,
      "y": 398,
      "size": 1,
      "price": "1011000000000000000000",
      "reserved": "0x7a9fe22691c811ea339d9b73150e6911a5343dca",
      "salt": "0x865b65edef447fcb2040b60de3a1b5ec5bf18650f93d36c436087526e9b6e9ff",
      "assetIds": []
    },
    {
      "x": 205,
      "y": 399,
      "size": 1,
      "price": "1011000000000000000000",
      "reserved": "",
      "salt": "0x07f4ddacec661a69b3dee1bfcf08d6429bba34b42f59bf7417c6bf1ab3ddadec",
      "assetIds": []
    },
    {
      "x": 205,
      "y": 400,
      "size": 1,
      "price": "1011000000000000000000",
      "reserved": "",
      "salt": "0x0b72108efad2a847da8d4b9f905e27e366ebf665d1e3506b2a3a05820b9f2da6",
      "assetIds": []
    },
    {
      "x": 205,
      "y": 401,
      "size": 1,
      "price": "1011000000000000000000",
      "reserved": "0x7a9fe22691c811ea339d9b73150e6911a5343dca",
      "salt": "0xad6c826b560c57be071291277a4996a2b7ef90548c53ece58f6588cb4672943d",
      "assetIds": []
    },
    {
      "x": 205,
      "y": 402,
      "size": 1,
      "price": "1011000000000000000000",
      "reserved": "",
      "salt": "0x56bcbe1714e4775f9175edcd52d9133df3de7834ad7ebfca1858ac8f85886a06",
      "assetIds": []
    },
    {
      "x": 205,
      "y": 403,
      "size": 1,
      "price": "1011000000000000000000",
      "reserved": "",
      "salt": "0x2b9d5a1cfa942931ff52230b994e12b32de4829d029b8f7ceed6114454e290d1",
      "assetIds": []
    },
    {
      "x": 205,
      "y": 404,
      "size": 1,
      "price": "1011000000000000000000",
      "reserved": "",
      "salt": "0x98f0a6a87fd8210f5e45fe97aae64c93f2a85a037f523f4268045d5f866cdb77",
      "assetIds": []
    },
    {
      "x": 205,
      "y": 405,
      "size": 1,
      "price": "1011000000000000000000",
      "reserved": "",
      "salt": "0xa2543767d70837fafa8eb7ae1c6bc51fca618c00fcd6402c591a975b5cacb2d7",
      "assetIds": []
    },
    {
      "x": 205,
      "y": 406,
      "size": 1,
      "price": "1011000000000000000000",
      "reserved": "",
      "salt": "0xb5c927888f9e665a8bbdc65145538724d3ea0014c772c90b1a8d561098a8f17b",
      "assetIds": []
    },
    {
      "x": 205,
      "y": 407,
      "size": 1,
      "price": "1011000000000000000000",
      "reserved": "",
      "salt": "0xb0c51a4f94dadad0f1e92fd4d47fa807ed488bdc8f7a8cca0a4830ca60743b5f",
      "assetIds": []
    },
    {
      "x": 206,
      "y": 360,
      "size": 1,
      "price": "1011000000000000000000",
      "reserved": "",
      "salt": "0x869c92053529a3a80ad0274bc106103ff0269280da16658614ddb43f1595ac7e",
      "assetIds": []
    },
    {
      "x": 206,
      "y": 361,
      "size": 1,
      "price": "1011000000000000000000",
      "reserved": "",
      "salt": "0xece7384f1c65cf18b9791ffa1757bf2d6e0a174f57031622a53ce3e9d53613fc",
      "assetIds": []
    },
    {
      "x": 206,
      "y": 362,
      "size": 1,
      "price": "1011000000000000000000",
      "reserved": "",
      "salt": "0xc990933ca948dc4377e2c9ca697191ea5f7dc76b2b74245924e73b83a13d9786",
      "assetIds": []
    },
    {
      "x": 206,
      "y": 363,
      "size": 1,
      "price": "1011000000000000000000",
      "reserved": "",
      "salt": "0x28f51362d6ceffac14a63c4626b0fe433489a2cdcbedb28173e1f1adab01a5fc",
      "assetIds": []
    },
    {
      "x": 206,
      "y": 364,
      "size": 1,
      "price": "1011000000000000000000",
      "reserved": "0x7a9fe22691c811ea339d9b73150e6911a5343dca",
      "salt": "0xae9f31b9edaac55a4c3fbf858f0585f3fd01a4781df405040a5f03ab869da94f",
      "assetIds": []
    },
    {
      "x": 206,
      "y": 365,
      "size": 1,
      "price": "1011000000000000000000",
      "reserved": "",
      "salt": "0x6776930e66ae63a55b4f75c8e77bad00364b159105c81b30a2bb3645bccc94d3",
      "assetIds": []
    },
    {
      "x": 206,
      "y": 366,
      "size": 1,
      "price": "1011000000000000000000",
      "reserved": "",
      "salt": "0x62dd5a87bfdcf1566fc3e94bb3a8cc8e2397c6fcce3ab2287d321f6409482445",
      "assetIds": []
    },
    {
      "x": 206,
      "y": 367,
      "size": 1,
      "price": "1011000000000000000000",
      "reserved": "",
      "salt": "0x847ffd70410a7ece48d84bf64c1be36e8b973a8391e5db7e732ebfa188f4e90b",
      "assetIds": []
    },
    {
      "x": 206,
      "y": 368,
      "size": 1,
      "price": "1011000000000000000000",
      "reserved": "0x7a9fe22691c811ea339d9b73150e6911a5343dca",
      "salt": "0x41dc01e11a3a011ced8aaac44d57672ced5ef9f00b71f594137bdadf841f5d8d",
      "assetIds": []
    },
    {
      "x": 206,
      "y": 369,
      "size": 1,
      "price": "4683000000000000000000",
      "reserved": "",
      "salt": "0xe31615168c213fcb9de22c226ea2e39417a9a967108d7107d34bbf81d3c7368d",
      "assetIds": [
        "41506478881403507969696680653240014914910929820314476107906210059990541021186"
      ]
    },
    {
      "x": 206,
      "y": 370,
      "size": 1,
      "price": "1011000000000000000000",
      "reserved": "0x7a9fe22691c811ea339d9b73150e6911a5343dca",
      "salt": "0xc08d62fbdede3d40646cecb1aac7f60f28e3038da29693cda73dfcdb3b6548d9",
      "assetIds": []
    },
    {
      "x": 206,
      "y": 371,
      "size": 1,
      "price": "1011000000000000000000",
      "reserved": "",
      "salt": "0x3cbce18c840da34baac1a7437bfaf0566308b7962d4fd280fa29a534958168a0",
      "assetIds": []
    },
    {
      "x": 206,
      "y": 372,
      "size": 1,
      "price": "1011000000000000000000",
      "reserved": "0x7a9fe22691c811ea339d9b73150e6911a5343dca",
      "salt": "0xc9c0eadeb72ff9e25d88c4396e2d4083dd94092634698cacf89e2ed51e5ec109",
      "assetIds": []
    },
    {
      "x": 206,
      "y": 373,
      "size": 1,
      "price": "1011000000000000000000",
      "reserved": "",
      "salt": "0xf2fb96902d1eb49cbfcc902218e4baba63d270112ca8ec9b7c8dcf3a43d2726c",
      "assetIds": []
    },
    {
      "x": 206,
      "y": 374,
      "size": 1,
      "price": "1011000000000000000000",
      "reserved": "0x7a9fe22691c811ea339d9b73150e6911a5343dca",
      "salt": "0x0df8804b765d3c18a9aa0ba12aaf7ba3faeeab7ea496b08ac5c10483a0520a84",
      "assetIds": []
    },
    {
      "x": 206,
      "y": 375,
      "size": 1,
      "price": "1011000000000000000000",
      "reserved": "",
      "salt": "0x79b424f1718a572e76d897e4acf3730de4df71daa20b0d3e2d50587deba06dbd",
      "assetIds": []
    },
    {
      "x": 206,
      "y": 376,
      "size": 1,
      "price": "1011000000000000000000",
      "reserved": "",
      "salt": "0xf322567ebf97376a1778f66c9e7a78ce56e5e5a29ca8b7eceb1d2313e65b4b66",
      "assetIds": []
    },
    {
      "x": 206,
      "y": 377,
      "size": 1,
      "price": "1011000000000000000000",
      "reserved": "",
      "salt": "0xc58182d3f898efd59ee9443e1bdd0499839156f6ece0ae7624c7677e9b925cc1",
      "assetIds": []
    },
    {
      "x": 206,
      "y": 378,
      "size": 1,
      "price": "1011000000000000000000",
      "reserved": "",
      "salt": "0x7cd54a4da57c3924d79958bf989b3b2111dff2f199e4313b659e568fc541bab9",
      "assetIds": []
    },
    {
      "x": 206,
      "y": 379,
      "size": 1,
      "price": "1011000000000000000000",
      "reserved": "0x7a9fe22691c811ea339d9b73150e6911a5343dca",
      "salt": "0xc78a762f35c53e174d0e36174cee5804cea5bc75e56b9e24eddd9cc1e7191be6",
      "assetIds": []
    },
    {
      "x": 206,
      "y": 380,
      "size": 1,
      "price": "1011000000000000000000",
      "reserved": "",
      "salt": "0x8fb089043dbd6734cf8aa39e089b9c4070ad22497cacebde6cabefce722f7dc6",
      "assetIds": []
    },
    {
      "x": 206,
      "y": 381,
      "size": 1,
      "price": "1011000000000000000000",
      "reserved": "",
      "salt": "0x5f40ed4364acf9a5c7b5ab4e67ac08a743703fd51bf328a5c24ec2b2820ef650",
      "assetIds": []
    },
    {
      "x": 206,
      "y": 382,
      "size": 1,
      "price": "1011000000000000000000",
      "reserved": "0x7a9fe22691c811ea339d9b73150e6911a5343dca",
      "salt": "0x9f0e0fb966ee08007693bc477b7b9952081554601c0ff8837618863510c0d73c",
      "assetIds": []
    },
    {
      "x": 206,
      "y": 383,
      "size": 1,
      "price": "1011000000000000000000",
      "reserved": "",
      "salt": "0x9f8d5ed9beeafa3899ca315f01ba658cef304e219af690224e2f5ac7a78a2817",
      "assetIds": []
    },
    {
      "x": 206,
      "y": 384,
      "size": 1,
      "price": "1011000000000000000000",
      "reserved": "",
      "salt": "0x4c86bb3702d7acf0d9ce535058bf621be547f983322ba1736a9039d63fd77082",
      "assetIds": []
    },
    {
      "x": 206,
      "y": 385,
      "size": 1,
      "price": "1011000000000000000000",
      "reserved": "",
      "salt": "0xab12a99cf37d670832f9a64ce77e67b414ff227b71d737f5d2b262acfd96b0a2",
      "assetIds": []
    },
    {
      "x": 206,
      "y": 386,
      "size": 1,
      "price": "1011000000000000000000",
      "reserved": "",
      "salt": "0x1a585ab4edf45e38e1fe23f134ef0bf31a2aea7332aec912a447a2ae39a6d164",
      "assetIds": []
    },
    {
      "x": 206,
      "y": 387,
      "size": 1,
      "price": "1011000000000000000000",
      "reserved": "",
      "salt": "0xcf5809846131f16547362a2716a530e830dd729b45783b8b9855a1e7ecf411f5",
      "assetIds": []
    },
    {
      "x": 206,
      "y": 388,
      "size": 1,
      "price": "1011000000000000000000",
      "reserved": "",
      "salt": "0x352c108d057d698d77783ebf04166509212f94e0ae814d128b57eea0eb0b794c",
      "assetIds": []
    },
    {
      "x": 206,
      "y": 389,
      "size": 1,
      "price": "1011000000000000000000",
      "reserved": "",
      "salt": "0xb9a57ada91fedc50f52516eea3ea5338d8b1a34cda5b1e2013cd386ebd93c68b",
      "assetIds": []
    },
    {
      "x": 206,
      "y": 390,
      "size": 1,
      "price": "1011000000000000000000",
      "reserved": "",
      "salt": "0xc476ac34d0c694597762197fd29df82ab86ac1382786666e6105179fe48b7f67",
      "assetIds": []
    },
    {
      "x": 206,
      "y": 391,
      "size": 1,
      "price": "1011000000000000000000",
      "reserved": "",
      "salt": "0x39aad3d1860285eaa53e76ad79b26b89398acc409ba925471698d7bb46c0a24d",
      "assetIds": []
    },
    {
      "x": 206,
      "y": 392,
      "size": 1,
      "price": "1011000000000000000000",
      "reserved": "",
      "salt": "0x053b6c804d9997e3a70edd8f3ceac405cc5b9c491bc0a91c7517d71af5520d6e",
      "assetIds": []
    },
    {
      "x": 206,
      "y": 393,
      "size": 1,
      "price": "1011000000000000000000",
      "reserved": "",
      "salt": "0xa557a04ccba3b01d17bf323a6c72a3e86afa1d89a99b4d7a7bcc9066ce491fb3",
      "assetIds": []
    },
    {
      "x": 206,
      "y": 394,
      "size": 1,
      "price": "1011000000000000000000",
      "reserved": "0x7a9fe22691c811ea339d9b73150e6911a5343dca",
      "salt": "0xac7fd3a8e6895cf360eaff20a0c75fdbdc63b926862d39c9fb11bdbc7cd8bab2",
      "assetIds": []
    },
    {
      "x": 206,
      "y": 395,
      "size": 1,
      "price": "1011000000000000000000",
      "reserved": "0x7a9fe22691c811ea339d9b73150e6911a5343dca",
      "salt": "0xecb2d50e983b95be9abfff710e1560de333052f6f498b2f8a5c08d228b8e619e",
      "assetIds": []
    },
    {
      "x": 206,
      "y": 396,
      "size": 1,
      "price": "1011000000000000000000",
      "reserved": "",
      "salt": "0x55c370f81341296e9cb4d2a49bc8259b531c813537520758bb87d7f8cca37892",
      "assetIds": []
    },
    {
      "x": 206,
      "y": 397,
      "size": 1,
      "price": "4683000000000000000000",
      "reserved": "",
      "salt": "0x59315f893430645f0be92e798d9c6dcf83cb002ecbe7660fef6e318da8bf63fe",
      "assetIds": [
        "41506478881403507969696680653240014914910929820314476107906210059990541021186"
      ]
    },
    {
      "x": 206,
      "y": 398,
      "size": 1,
      "price": "1011000000000000000000",
      "reserved": "",
      "salt": "0x9a51008e38e98c89b0f0bde565f7d520e7c1b71776c2dd3775b02b896e5d9651",
      "assetIds": []
    },
    {
      "x": 206,
      "y": 399,
      "size": 1,
      "price": "1011000000000000000000",
      "reserved": "0x7a9fe22691c811ea339d9b73150e6911a5343dca",
      "salt": "0x220346901696bdbf887a9ffb68da4dd3b48b4ea3c53f95f809dbab425be1b53c",
      "assetIds": []
    },
    {
      "x": 206,
      "y": 400,
      "size": 1,
      "price": "1011000000000000000000",
      "reserved": "",
      "salt": "0x1a3adb57f223e03639614e7ac79f569f83049c8a478a2d16112894fb878aaf41",
      "assetIds": []
    },
    {
      "x": 206,
      "y": 401,
      "size": 1,
      "price": "1011000000000000000000",
      "reserved": "0x7a9fe22691c811ea339d9b73150e6911a5343dca",
      "salt": "0xf2c6a6776635be44f8185576af1155fc6ec57fbd4e2773eda48226a035dec443",
      "assetIds": []
    },
    {
      "x": 206,
      "y": 402,
      "size": 1,
      "price": "1011000000000000000000",
      "reserved": "0x7a9fe22691c811ea339d9b73150e6911a5343dca",
      "salt": "0xdf41f3b920deb5c7ed93968e7b247ca772206c3a5a3ae2bcb23a3d3aa6db91dc",
      "assetIds": []
    },
    {
      "x": 206,
      "y": 403,
      "size": 1,
      "price": "1011000000000000000000",
      "reserved": "",
      "salt": "0x8b0ff7047e54d76831433c0195d1cf3173e1cad698e3182af82f60800ae5db61",
      "assetIds": []
    },
    {
      "x": 206,
      "y": 404,
      "size": 1,
      "price": "1011000000000000000000",
      "reserved": "0x7a9fe22691c811ea339d9b73150e6911a5343dca",
      "salt": "0xa2f8194bacbcfefad60ca9721e356e4031fe0a4c9e3e6350401a62e0eee095f5",
      "assetIds": []
    },
    {
      "x": 206,
      "y": 405,
      "size": 1,
      "price": "1011000000000000000000",
      "reserved": "",
      "salt": "0x31717830e9faa273c4dbbf19ce2f02b39943bbdc6dd2b98591df211ffb9e7599",
      "assetIds": []
    },
    {
      "x": 206,
      "y": 406,
      "size": 1,
      "price": "1011000000000000000000",
      "reserved": "",
      "salt": "0x1b5b4345943bdb80b0775321709c67b9c592b8e595388aef239cde80d28b3e6f",
      "assetIds": []
    },
    {
      "x": 206,
      "y": 407,
      "size": 1,
      "price": "1011000000000000000000",
      "reserved": "",
      "salt": "0xba58b70e46a6de1d96c43185d6382647e1796fa83e2a4272ec27730caec2009a",
      "assetIds": []
    },
    {
      "x": 207,
      "y": 359,
      "size": 1,
      "price": "1011000000000000000000",
      "reserved": "",
      "salt": "0x2b0d6415565279ef9928f52415982ac2725151aaf64c4691a4b1665c9452bf3e",
      "assetIds": []
    },
    {
      "x": 207,
      "y": 360,
      "size": 1,
      "price": "1011000000000000000000",
      "reserved": "",
      "salt": "0x651fbcea48a692ff455d3c655b03bbcef3c5eb23eda935fc9ba18e41072de2f6",
      "assetIds": []
    },
    {
      "x": 207,
      "y": 361,
      "size": 1,
      "price": "1011000000000000000000",
      "reserved": "",
      "salt": "0x36ab473df69c40e7bbab6962174f5865cbab7ac1178011cebd696de736f2a593",
      "assetIds": []
    },
    {
      "x": 207,
      "y": 362,
      "size": 1,
      "price": "1011000000000000000000",
      "reserved": "",
      "salt": "0x96ba5fb3bae1460e30fa3c6b5b5fcd6b454c2637e8a0c3897f1b0d3f95bb907c",
      "assetIds": []
    },
    {
      "x": 207,
      "y": 363,
      "size": 1,
      "price": "1011000000000000000000",
      "reserved": "",
      "salt": "0x104aca9eac318382185fbe9947868602ce2599da7a181f1726092d187c6c3e3b",
      "assetIds": []
    },
    {
      "x": 207,
      "y": 364,
      "size": 1,
      "price": "1011000000000000000000",
      "reserved": "",
      "salt": "0x19900068858d59a75b7581e1afe2b0c2839a1fc2b3562bc34b0b5ba3bbce361e",
      "assetIds": []
    },
    {
      "x": 207,
      "y": 365,
      "size": 1,
      "price": "1011000000000000000000",
      "reserved": "",
      "salt": "0x643a89bb8580a084903f3fe4bcd2602182d283e7cdf871bde1acb9ff954ad71e",
      "assetIds": []
    },
    {
      "x": 207,
      "y": 366,
      "size": 1,
      "price": "1011000000000000000000",
      "reserved": "",
      "salt": "0x8edf6164c0e1ea7c073eed3030fc23de5ea5b8f8e81f60a4c660e2da01807740",
      "assetIds": []
    },
    {
      "x": 207,
      "y": 367,
      "size": 1,
      "price": "1011000000000000000000",
      "reserved": "",
      "salt": "0xf756254df087248d7e4b073a5391b5ca3b119a1cf64b6e0a19dcb10b6977ce83",
      "assetIds": []
    },
    {
      "x": 207,
      "y": 368,
      "size": 1,
      "price": "1011000000000000000000",
      "reserved": "",
      "salt": "0x754f0183601066931332a763716d675d0fd890b76068c8e9e95324acefc6da05",
      "assetIds": []
    },
    {
      "x": 207,
      "y": 369,
      "size": 1,
      "price": "1011000000000000000000",
      "reserved": "",
      "salt": "0x3500918f92fab626d0625b1b8d8c58e59cd90160aeef4feb1ab0b18ca658dcf5",
      "assetIds": []
    },
    {
      "x": 207,
      "y": 370,
      "size": 1,
      "price": "1011000000000000000000",
      "reserved": "",
      "salt": "0x9eeabda30bad3e72c35f3c01610934d5f0d4bb45b3dc09d372e93096af4e0b5c",
      "assetIds": []
    },
    {
      "x": 207,
      "y": 371,
      "size": 1,
      "price": "1011000000000000000000",
      "reserved": "",
      "salt": "0x0053a12e606a3207d6b98150466535f29d1697213dfa8302cb3b22ebbf32f9fe",
      "assetIds": []
    },
    {
      "x": 207,
      "y": 372,
      "size": 1,
      "price": "4683000000000000000000",
      "reserved": "",
      "salt": "0x91b749d56c4c8a1be9d8795eecba529713a1909d0b4108d15d8f33ad52d5c2d2",
      "assetIds": [
        "41506478881403507969696680653240014914910929820314476107906210059990541021186"
      ]
    },
    {
      "x": 207,
      "y": 373,
      "size": 1,
      "price": "1011000000000000000000",
      "reserved": "",
      "salt": "0xf4df2a6e5d36740b367cc4e808606527daac0656d4edc565803504dffe1ce1c2",
      "assetIds": []
    },
    {
      "x": 207,
      "y": 374,
      "size": 1,
      "price": "1011000000000000000000",
      "reserved": "",
      "salt": "0x56e0ea610b61a5172a4dc1cee137f1eee26f72d8392571cdc2ea1fae2914c712",
      "assetIds": []
    },
    {
      "x": 207,
      "y": 375,
      "size": 1,
      "price": "1011000000000000000000",
      "reserved": "",
      "salt": "0xa9d91b61463dc14d79f64d79c948292e2c1922c3904bf97d8575477abcb39f24",
      "assetIds": []
    },
    {
      "x": 207,
      "y": 376,
      "size": 1,
      "price": "1011000000000000000000",
      "reserved": "",
      "salt": "0xd468b1975ecfefae938b145ecbe09a7ee96aa5ac12e015994c062cc40ed61842",
      "assetIds": []
    },
    {
      "x": 207,
      "y": 377,
      "size": 1,
      "price": "1011000000000000000000",
      "reserved": "0x7a9fe22691c811ea339d9b73150e6911a5343dca",
      "salt": "0x1190daf535855928f5c1f4823fcf32e77caceb033c29f3da5a5dac0e5769da90",
      "assetIds": []
    },
    {
      "x": 207,
      "y": 378,
      "size": 1,
      "price": "1011000000000000000000",
      "reserved": "",
      "salt": "0x649e9b41de645dcd00295f2cda43325ab78fbefbaae0175c2285800c809883b3",
      "assetIds": []
    },
    {
      "x": 207,
      "y": 379,
      "size": 1,
      "price": "1011000000000000000000",
      "reserved": "",
      "salt": "0x964adadff8a01a8a44412801947efce8d433a7c2879bb976560ab8e8ba9cf5a3",
      "assetIds": []
    },
    {
      "x": 207,
      "y": 380,
      "size": 1,
      "price": "1011000000000000000000",
      "reserved": "",
      "salt": "0x4fcebf6984cf725b6231334aeb6ce5b5639289e5ecd9a774350f5a04ce18c938",
      "assetIds": []
    },
    {
      "x": 207,
      "y": 381,
      "size": 1,
      "price": "1011000000000000000000",
      "reserved": "",
      "salt": "0xebb9c4bd313145ad1ca2168f1aeab896ae587bc17ca5af3d66fe2366c4ac6cad",
      "assetIds": []
    },
    {
      "x": 207,
      "y": 382,
      "size": 1,
      "price": "1011000000000000000000",
      "reserved": "",
      "salt": "0xe6d14e53bb386a0f7f9b0710e04d664764ec8e03ea0ed5c1407c1a4af34c1711",
      "assetIds": []
    },
    {
      "x": 207,
      "y": 383,
      "size": 1,
      "price": "1011000000000000000000",
      "reserved": "",
      "salt": "0x0987f233f05dc62964ca7a473ef0a5931d3799906a56a11d54a2f3f4939faa64",
      "assetIds": []
    },
    {
      "x": 207,
      "y": 384,
      "size": 1,
      "price": "1011000000000000000000",
      "reserved": "0x7a9fe22691c811ea339d9b73150e6911a5343dca",
      "salt": "0x67bf9490536be088bff481466e00b1d455266aef1284d9dd9ce2cbc1d4bb56c0",
      "assetIds": []
    },
    {
      "x": 207,
      "y": 385,
      "size": 1,
      "price": "1011000000000000000000",
      "reserved": "",
      "salt": "0x7950ae3cf142608e7f0156f010d866e3a6860be5da55e8c058dee97205845301",
      "assetIds": []
    },
    {
      "x": 207,
      "y": 386,
      "size": 1,
      "price": "1011000000000000000000",
      "reserved": "0x7a9fe22691c811ea339d9b73150e6911a5343dca",
      "salt": "0xf8bab367966daf654ca17ee4c218679be0512fe7dc2a12476189c90393250f5f",
      "assetIds": []
    },
    {
      "x": 207,
      "y": 387,
      "size": 1,
      "price": "1011000000000000000000",
      "reserved": "",
      "salt": "0xfd20e1032dd861632f55f4259efbb25693475e62fc6925cafa02be3d39890acd",
      "assetIds": []
    },
    {
      "x": 207,
      "y": 388,
      "size": 1,
      "price": "1011000000000000000000",
      "reserved": "",
      "salt": "0xad630f72030c467ffad64b9efd9d6af99903dac7153b951dd0ed3730beb4faee",
      "assetIds": []
    },
    {
      "x": 207,
      "y": 389,
      "size": 1,
      "price": "1011000000000000000000",
      "reserved": "0x7a9fe22691c811ea339d9b73150e6911a5343dca",
      "salt": "0xc1c2c34a07a17d194602470ebcd90a4e675fe24d093fcf8f509d7e2b5b10a2bd",
      "assetIds": []
    },
    {
      "x": 207,
      "y": 390,
      "size": 1,
      "price": "4683000000000000000000",
      "reserved": "",
      "salt": "0x4e2c4b00920759ff2a48145c1d1b82ce890229f6f5160dd4c4c9df3567288da0",
      "assetIds": [
        "41506478881403507969696680653240014914910929820314476107906210059990541021186"
      ]
    },
    {
      "x": 207,
      "y": 391,
      "size": 1,
      "price": "1011000000000000000000",
      "reserved": "",
      "salt": "0xe13b894f21580b1db85649c500762fe944c7ad8fe6b9dfb004b9b708c51b29c8",
      "assetIds": []
    },
    {
      "x": 207,
      "y": 392,
      "size": 1,
      "price": "1011000000000000000000",
      "reserved": "0x7a9fe22691c811ea339d9b73150e6911a5343dca",
      "salt": "0xfd7478d809c98b9438a4a26915f4df6e35f3ac217946d97dcf21a704190a97c9",
      "assetIds": []
    },
    {
      "x": 207,
      "y": 393,
      "size": 1,
      "price": "4683000000000000000000",
      "reserved": "",
      "salt": "0xef369021def13a0aa0ada0c5682329db90cb25aaff00fe358ce7ea4ab448ec00",
      "assetIds": [
        "41506478881403507969696680653240014914910929820314476107906210059990541021186"
      ]
    },
    {
      "x": 207,
      "y": 394,
      "size": 1,
      "price": "4683000000000000000000",
      "reserved": "",
      "salt": "0x1e7033eb684e3f0bb3e02bf9b67492d866410cdcf36778cc17c69f84c5a89ed2",
      "assetIds": [
        "41506478881403507969696680653240014914910929820314476107906210059990541021186"
      ]
    },
    {
      "x": 207,
      "y": 395,
      "size": 1,
      "price": "1011000000000000000000",
      "reserved": "0x7a9fe22691c811ea339d9b73150e6911a5343dca",
      "salt": "0x90ab74ab62ee9c8a73d8b2f67d263bbecaf311983f207cd2a47a460b42904f16",
      "assetIds": []
    },
    {
      "x": 207,
      "y": 396,
      "size": 1,
      "price": "4683000000000000000000",
      "reserved": "",
      "salt": "0x9331c79eda4a287812e3b4eb848a37402fc7820b30a439ec77b3e5b708729e4c",
      "assetIds": [
        "41506478881403507969696680653240014914910929820314476107906210059990541021186"
      ]
    },
    {
      "x": 207,
      "y": 397,
      "size": 1,
      "price": "4683000000000000000000",
      "reserved": "",
      "salt": "0x7af4534d3eac918474588a47c48a3fe4c119396ce5da3519e8267a9e534004ff",
      "assetIds": [
        "41506478881403507969696680653240014914910929820314476107906210059990541021186"
      ]
    },
    {
      "x": 207,
      "y": 398,
      "size": 1,
      "price": "1011000000000000000000",
      "reserved": "",
      "salt": "0xdcb442fef68fa8f8553cc8b04eb794a4dabba9bf8f3ddb53c951411514369b71",
      "assetIds": []
    },
    {
      "x": 207,
      "y": 399,
      "size": 1,
      "price": "1011000000000000000000",
      "reserved": "",
      "salt": "0x112457c89bb0503484e16ab07652bfd3555c70c1029fa1037402e582035df4d2",
      "assetIds": []
    },
    {
      "x": 207,
      "y": 400,
      "size": 1,
      "price": "1011000000000000000000",
      "reserved": "",
      "salt": "0xf118ca7da3696fe1418488ae6b4100dcecf7e37d66ff2c6088d36ceba14f6a54",
      "assetIds": []
    },
    {
      "x": 207,
      "y": 401,
      "size": 1,
      "price": "1011000000000000000000",
      "reserved": "",
      "salt": "0x796d075450216df04099af1472647b197e50da71a328f33cd6d99dfabbedcbb9",
      "assetIds": []
    },
    {
      "x": 207,
      "y": 405,
      "size": 1,
      "price": "1011000000000000000000",
      "reserved": "",
      "salt": "0x83537888f069881dc273ce828bbfff3525dc849c190859d6b0317820912ee2ce",
      "assetIds": []
    },
    {
      "x": 207,
      "y": 406,
      "size": 1,
      "price": "1011000000000000000000",
      "reserved": "0x7a9fe22691c811ea339d9b73150e6911a5343dca",
      "salt": "0xef3f98e2bc592ac10ac4ef34abe7fdb5240bf2e365e93d71baa8bfec7e6b49c2",
      "assetIds": []
    },
    {
      "x": 207,
      "y": 407,
      "size": 1,
      "price": "1011000000000000000000",
      "reserved": "",
      "salt": "0x60b233cc40d380d952d19065ac2da2a2eb4e2c3d533bf7c61b85febf56e701a7",
      "assetIds": []
    },
    {
      "x": 208,
      "y": 359,
      "size": 1,
      "price": "1011000000000000000000",
      "reserved": "",
      "salt": "0xe191bf2e21e45676bdbcca06c44c1ad6302e799fbd01befc00ad7d6db1006131",
      "assetIds": []
    },
    {
      "x": 208,
      "y": 360,
      "size": 1,
      "price": "1011000000000000000000",
      "reserved": "0x7a9fe22691c811ea339d9b73150e6911a5343dca",
      "salt": "0xbb524423a2158c838266c61ba1872c9f05a99a0bfa748d6ece4e5044117f1432",
      "assetIds": []
    },
    {
      "x": 208,
      "y": 361,
      "size": 1,
      "price": "1011000000000000000000",
      "reserved": "",
      "salt": "0xf2b9e3f75b079e85a770a9ad5c3cc703f7535a2a869d01cd46091115ba849d44",
      "assetIds": []
    },
    {
      "x": 208,
      "y": 362,
      "size": 1,
      "price": "1011000000000000000000",
      "reserved": "",
      "salt": "0x696566301f12b1891421784199f77c239295dbe0adaba3c7612a2ea76c19a453",
      "assetIds": []
    },
    {
      "x": 208,
      "y": 363,
      "size": 1,
      "price": "1011000000000000000000",
      "reserved": "",
      "salt": "0xdef47b73e6dd8dcf597286741380d45b4fbf5bf5fe377e064380f8c0b2e821dd",
      "assetIds": []
    },
    {
      "x": 208,
      "y": 364,
      "size": 1,
      "price": "1011000000000000000000",
      "reserved": "",
      "salt": "0xdfa1c0f0b2d5f13f9a5396346e65608f39eeda0137d8744bdd22a7617c6b43c7",
      "assetIds": []
    },
    {
      "x": 208,
      "y": 365,
      "size": 1,
      "price": "1011000000000000000000",
      "reserved": "",
      "salt": "0x8eeb2a7541fecf2ed22dd8b1a29b0e9e30e0f7578a8728554d693e1442b152a2",
      "assetIds": []
    },
    {
      "x": 208,
      "y": 366,
      "size": 1,
      "price": "1011000000000000000000",
      "reserved": "",
      "salt": "0xaa93b96be18ed2b6676e827f229bbcc86c0e07a9f6491c9ceae856e1a063eb65",
      "assetIds": []
    },
    {
      "x": 208,
      "y": 367,
      "size": 1,
      "price": "1011000000000000000000",
      "reserved": "",
      "salt": "0x068b65db9b28248e1a96186d4d14f51fe42bde33a0a76cb89da3f20321e10b9e",
      "assetIds": []
    },
    {
      "x": 208,
      "y": 368,
      "size": 1,
      "price": "1011000000000000000000",
      "reserved": "",
      "salt": "0xffe89d1af3fc23ad92a95ec7d0e24c78bd35bac427a713e0d2f01f79bde333df",
      "assetIds": []
    },
    {
      "x": 208,
      "y": 369,
      "size": 1,
      "price": "1011000000000000000000",
      "reserved": "",
      "salt": "0xa2754aa03ecbcee07788c9edb8d66ab3ac2f8892e8bd5cb76c1385a4059e3adb",
      "assetIds": []
    },
    {
      "x": 208,
      "y": 370,
      "size": 1,
      "price": "1011000000000000000000",
      "reserved": "0x7a9fe22691c811ea339d9b73150e6911a5343dca",
      "salt": "0x5ecea52c06acd8191986b6ec108b5a7907dd6ea26820b11a9c4982eaccf52c28",
      "assetIds": []
    },
    {
      "x": 208,
      "y": 371,
      "size": 1,
      "price": "1011000000000000000000",
      "reserved": "",
      "salt": "0xfad34208effe8a83a5324b722ccb41e6f07c37179aaa4e6eca26ac008ddbb044",
      "assetIds": []
    },
    {
      "x": 208,
      "y": 372,
      "size": 1,
      "price": "4683000000000000000000",
      "reserved": "",
      "salt": "0xadb3f6afbe8501a29dd4f85f307b415b8e24bbf26acef717531842692d633a82",
      "assetIds": [
        "41506478881403507969696680653240014914910929820314476107906210059990541021186"
      ]
    },
    {
      "x": 208,
      "y": 373,
      "size": 1,
      "price": "1011000000000000000000",
      "reserved": "",
      "salt": "0x8f7b0633a77e461d4ec1cdab52f87f5fcaf539af2ef956e283adf5947467933a",
      "assetIds": []
    },
    {
      "x": 208,
      "y": 374,
      "size": 1,
      "price": "1011000000000000000000",
      "reserved": "",
      "salt": "0xcbfae076a02e291ae9e2c09d85b1776c9e63d6475d9029c5e58dfc7972cff3d9",
      "assetIds": []
    },
    {
      "x": 208,
      "y": 375,
      "size": 1,
      "price": "1011000000000000000000",
      "reserved": "0x7a9fe22691c811ea339d9b73150e6911a5343dca",
      "salt": "0xac65e6e6a2e5acb4e9192d4040299f952a7e855adb34c16d37f2c688735d0d02",
      "assetIds": []
    },
    {
      "x": 208,
      "y": 376,
      "size": 1,
      "price": "1011000000000000000000",
      "reserved": "",
      "salt": "0xb3afddd3ed79263bd0a1e2da968320b2133ae714e7fa0e5b070803dd947bfe05",
      "assetIds": []
    },
    {
      "x": 208,
      "y": 377,
      "size": 1,
      "price": "1011000000000000000000",
      "reserved": "",
      "salt": "0xe5a892f39fee092b7cd7fd015fe7eb56d33689b6b5c57cd5b28a37bbe384d056",
      "assetIds": []
    },
    {
      "x": 208,
      "y": 378,
      "size": 1,
      "price": "1011000000000000000000",
      "reserved": "",
      "salt": "0x13082d05605a0be60100b4f50b571171b8f2522fdf1bcbb30176977362b324f2",
      "assetIds": []
    },
    {
      "x": 208,
      "y": 379,
      "size": 1,
      "price": "1011000000000000000000",
      "reserved": "",
      "salt": "0xbc662530feb1b054c544221264e18df3b660a2839fca033005fa528325e9ea5f",
      "assetIds": []
    },
    {
      "x": 208,
      "y": 380,
      "size": 1,
      "price": "1011000000000000000000",
      "reserved": "0x7a9fe22691c811ea339d9b73150e6911a5343dca",
      "salt": "0xc971a0f3692bc1eb6647190bcf05e69c1efbd90a7a36980f933cec10c39db288",
      "assetIds": []
    },
    {
      "x": 208,
      "y": 381,
      "size": 1,
      "price": "1011000000000000000000",
      "reserved": "",
      "salt": "0x5d2fae8a258f2df32cc1ff39a5940782cacd93e412c38b6d2202b58197f0e5f3",
      "assetIds": []
    },
    {
      "x": 208,
      "y": 382,
      "size": 1,
      "price": "1011000000000000000000",
      "reserved": "",
      "salt": "0x7c28f30434d06f07242d5026946ad3b0ff40208a8189d84327e24a9fa41387b4",
      "assetIds": []
    },
    {
      "x": 208,
      "y": 383,
      "size": 1,
      "price": "1011000000000000000000",
      "reserved": "",
      "salt": "0x29ca690bd8ca7af579cbb1a533bcc63fd8a1f6a814e699633dd411c45653d674",
      "assetIds": []
    },
    {
      "x": 208,
      "y": 384,
      "size": 1,
      "price": "1011000000000000000000",
      "reserved": "",
      "salt": "0xbd85e483fba6f7e3af7db99f7c5515f3aaaea5fe12672bbcc102ccc031c1a0c1",
      "assetIds": []
    },
    {
      "x": 208,
      "y": 385,
      "size": 1,
      "price": "1011000000000000000000",
      "reserved": "",
      "salt": "0x3428a0495fb488aba572935ee1d378bcaa4d08ab977238ddc0860bbe30c1aa92",
      "assetIds": []
    },
    {
      "x": 208,
      "y": 386,
      "size": 1,
      "price": "1011000000000000000000",
      "reserved": "",
      "salt": "0x22109568bec14f200feeec5f97e8e7be2ef5ccfdfc6a041c6d064a5e3150ed0f",
      "assetIds": []
    },
    {
      "x": 208,
      "y": 387,
      "size": 1,
      "price": "1011000000000000000000",
      "reserved": "",
      "salt": "0x28d35d17a575fcdef17d0a3c3389b251be75c82ce37362c940cde34db4b7a91f",
      "assetIds": []
    },
    {
      "x": 208,
      "y": 388,
      "size": 1,
      "price": "1011000000000000000000",
      "reserved": "",
      "salt": "0x46c82dfeb7bff77f0d9f78f3f032fd4b8c3f1be419c276fbec4ed552295a169b",
      "assetIds": []
    },
    {
      "x": 208,
      "y": 389,
      "size": 1,
      "price": "1011000000000000000000",
      "reserved": "0x7a9fe22691c811ea339d9b73150e6911a5343dca",
      "salt": "0x4c04b5f8a42c251b83e0f703e2216ed65216fbdde88c9679638a5205e23cc3f0",
      "assetIds": []
    },
    {
      "x": 208,
      "y": 390,
      "size": 1,
      "price": "4683000000000000000000",
      "reserved": "",
      "salt": "0x0ffbea6e46985d90b14188419698b7b9db9239240906e3cd736734b248b963e0",
      "assetIds": [
        "41506478881403507969696680653240014914910929820314476107906210059990541021186"
      ]
    },
    {
      "x": 208,
      "y": 391,
      "size": 1,
      "price": "4683000000000000000000",
      "reserved": "",
      "salt": "0xa569ae0c8f5ddc468341784887eab1fce488d75f51e442cd839d22a64a4be5a3",
      "assetIds": [
        "41506478881403507969696680653240014914910929820314476107906210059990541021186"
      ]
    },
    {
      "x": 208,
      "y": 392,
      "size": 1,
      "price": "4683000000000000000000",
      "reserved": "",
      "salt": "0x6552004f8c7c053ae152c1cefad69fc2d41cb01f18825b5628182297f67e06ab",
      "assetIds": [
        "41506478881403507969696680653240014914910929820314476107906210059990541021186"
      ]
    },
    {
      "x": 208,
      "y": 393,
      "size": 1,
      "price": "1011000000000000000000",
      "reserved": "0x7a9fe22691c811ea339d9b73150e6911a5343dca",
      "salt": "0xcd0e81ad82ee186c2c9816fbe1bbc7c845e7a1d00ab9ee779549071bb82acd9d",
      "assetIds": []
    },
    {
      "x": 208,
      "y": 394,
      "size": 1,
      "price": "1011000000000000000000",
      "reserved": "0x7a9fe22691c811ea339d9b73150e6911a5343dca",
      "salt": "0xb1ad62a02fd099cf316aff3953b6ead7f0d8d922c806dd7b88f5f7d76c00f14a",
      "assetIds": []
    },
    {
      "x": 208,
      "y": 395,
      "size": 1,
      "price": "4683000000000000000000",
      "reserved": "",
      "salt": "0xfab6f9dcdfe74f86eb0fe828f783ff02527823ed76a5f70fae6f385b64ab995d",
      "assetIds": [
        "41506478881403507969696680653240014914910929820314476107906210059990541021186"
      ]
    },
    {
      "x": 208,
      "y": 396,
      "size": 1,
      "price": "4683000000000000000000",
      "reserved": "",
      "salt": "0x452ce157dbf6658c6c8dd3e3205bf30e0ff9ce1157bdb65cb8843eee0222a993",
      "assetIds": [
        "41506478881403507969696680653240014914910929820314476107906210059990541021186"
      ]
    },
    {
      "x": 208,
      "y": 397,
      "size": 1,
      "price": "4683000000000000000000",
      "reserved": "",
      "salt": "0xc02ba2265f33a5460c90bdf663112b8556ccec560cf76a68d56ad94a827bd1b4",
      "assetIds": [
        "41506478881403507969696680653240014914910929820314476107906210059990541021186"
      ]
    },
    {
      "x": 208,
      "y": 398,
      "size": 1,
      "price": "1011000000000000000000",
      "reserved": "0x7a9fe22691c811ea339d9b73150e6911a5343dca",
      "salt": "0xbd16bb7f0cded1b9f0951ed8c1ccf46bfaec93ab8fc6591f407cc5b5e77fe1f6",
      "assetIds": []
    },
    {
      "x": 208,
      "y": 399,
      "size": 1,
      "price": "1011000000000000000000",
      "reserved": "",
      "salt": "0xec6ec58f143e64a288c97984b4d0befe1ea82216cb5798d6c258df812a291fac",
      "assetIds": []
    },
    {
      "x": 208,
      "y": 400,
      "size": 1,
      "price": "1011000000000000000000",
      "reserved": "0x7a9fe22691c811ea339d9b73150e6911a5343dca",
      "salt": "0x9e28ba7cb8bd469c6a27bfd2ce9b28c0faf04f33ed2a98358af7e9bcbd4b0ccf",
      "assetIds": []
    },
    {
      "x": 208,
      "y": 401,
      "size": 1,
      "price": "1011000000000000000000",
      "reserved": "",
      "salt": "0xc3556cfd100a0d530e202ec6d3dd96e56ad91093fc5faa65b8eb97788c1e5198",
      "assetIds": []
    },
    {
      "x": 208,
      "y": 405,
      "size": 1,
      "price": "1011000000000000000000",
      "reserved": "",
      "salt": "0x8c315600988299077c7d70b8129947719d9de994c33dc1e4654a7c13d3b4c4e9",
      "assetIds": []
    },
    {
      "x": 208,
      "y": 406,
      "size": 1,
      "price": "1011000000000000000000",
      "reserved": "",
      "salt": "0xace56020e94007dda0aec7f76609cc8a01a48a3e5fb25b10ce44ea5cd2c24d0f",
      "assetIds": []
    },
    {
      "x": 208,
      "y": 407,
      "size": 1,
      "price": "1011000000000000000000",
      "reserved": "",
      "salt": "0x6ad4d4a76813252888e04a10494fb17f305c9978c90c9ba372770094a5b33ab6",
      "assetIds": []
    },
    {
      "x": 209,
      "y": 359,
      "size": 1,
      "price": "1011000000000000000000",
      "reserved": "",
      "salt": "0x9d56640cc3b053fc456988a044efa90414c8e1162ee17fc844934e4c1c97b481",
      "assetIds": []
    },
    {
      "x": 209,
      "y": 360,
      "size": 1,
      "price": "1011000000000000000000",
      "reserved": "",
      "salt": "0x36ad1b81d5df4f8a52b65add8164b00a04b112ede2c5ecea6ca1b4f4596fd118",
      "assetIds": []
    },
    {
      "x": 209,
      "y": 361,
      "size": 1,
      "price": "1011000000000000000000",
      "reserved": "",
      "salt": "0xebf5b4a0a757af65f61e88a76412d9f9f83644de593948ff34158c6b0e027cb7",
      "assetIds": []
    },
    {
      "x": 209,
      "y": 362,
      "size": 1,
      "price": "1011000000000000000000",
      "reserved": "",
      "salt": "0x09606c015046477e3b8c443ac762349c11cbf0f4457020199d9893f228fdfcb3",
      "assetIds": []
    },
    {
      "x": 209,
      "y": 363,
      "size": 1,
      "price": "1011000000000000000000",
      "reserved": "0x7a9fe22691c811ea339d9b73150e6911a5343dca",
      "salt": "0x8575d32c06d64a04062b7022b244c6e615d97fa025eb0144cd7ed18e3d66260c",
      "assetIds": []
    },
    {
      "x": 209,
      "y": 364,
      "size": 1,
      "price": "1011000000000000000000",
      "reserved": "",
      "salt": "0x80d5d77fe133d2b25cf3dfc4aa9938d750f74a0bf7b09a11d909e95d1d787906",
      "assetIds": []
    },
    {
      "x": 209,
      "y": 365,
      "size": 1,
      "price": "1011000000000000000000",
      "reserved": "",
      "salt": "0xbe2f1d54a27b37d74d46d7a20492e6c9848d49504731c735fdd11c93b89b10f4",
      "assetIds": []
    },
    {
      "x": 209,
      "y": 366,
      "size": 1,
      "price": "1011000000000000000000",
      "reserved": "0x7a9fe22691c811ea339d9b73150e6911a5343dca",
      "salt": "0x43cae19fac0a3b1a13ac69693a6e3b02f66edcbe465829489181a23de5280bdd",
      "assetIds": []
    },
    {
      "x": 209,
      "y": 367,
      "size": 1,
      "price": "1011000000000000000000",
      "reserved": "",
      "salt": "0x4011ba5c73c9406440e3da83e6cebe24fe348efc51fd2ced2fef1dfcedca8eb9",
      "assetIds": []
    },
    {
      "x": 209,
      "y": 368,
      "size": 1,
      "price": "1011000000000000000000",
      "reserved": "",
      "salt": "0x4933938a64f1ded12db248ff23845967d7f70b67e7d0785222a2da76f9898d7c",
      "assetIds": []
    },
    {
      "x": 209,
      "y": 369,
      "size": 1,
      "price": "1011000000000000000000",
      "reserved": "",
      "salt": "0x1ceada355e49f8711686d4e14bca3670038867a61f056147070cd14431e64f56",
      "assetIds": []
    },
    {
      "x": 209,
      "y": 370,
      "size": 1,
      "price": "1011000000000000000000",
      "reserved": "",
      "salt": "0xe3b0697ce0e7f8b1d9c046c305e0539eee49d925001b16d67a92f6ebe8e8b082",
      "assetIds": []
    },
    {
      "x": 209,
      "y": 371,
      "size": 1,
      "price": "1011000000000000000000",
      "reserved": "",
      "salt": "0xa552d6eac3195af5bab28da74899696d45a4799bf73b1ec7c16d49c2098d0bb2",
      "assetIds": []
    },
    {
      "x": 209,
      "y": 372,
      "size": 1,
      "price": "4683000000000000000000",
      "reserved": "",
      "salt": "0xd8811fba70df0f564e60096d4d3cb00aea534705aa1fa6cf19be397d55ed5f14",
      "assetIds": [
        "41506478881403507969696680653240014914910929820314476107906210059990541021186"
      ]
    },
    {
      "x": 209,
      "y": 373,
      "size": 1,
      "price": "1011000000000000000000",
      "reserved": "",
      "salt": "0x590f12849b9294233735728de8b70a677134106cf6d4ec3ae7ebfd7aae936f19",
      "assetIds": []
    },
    {
      "x": 209,
      "y": 374,
      "size": 1,
      "price": "1011000000000000000000",
      "reserved": "",
      "salt": "0xac8b7872cace3a14e6724d524d3e2bbc9eb143a6cfaf58a08a2cc3deb350578d",
      "assetIds": []
    },
    {
      "x": 209,
      "y": 375,
      "size": 1,
      "price": "1011000000000000000000",
      "reserved": "",
      "salt": "0xf0179a8376a0145d3add32f045e4de1c1256b030123abf30f2488cbf17b7b5a1",
      "assetIds": []
    },
    {
      "x": 209,
      "y": 376,
      "size": 1,
      "price": "1011000000000000000000",
      "reserved": "",
      "salt": "0x3e9ca0bd8c7e5605fa54fdcd40510bb786eb31d63ff18af55b0b6220fc6402a8",
      "assetIds": []
    },
    {
      "x": 209,
      "y": 377,
      "size": 1,
      "price": "1011000000000000000000",
      "reserved": "",
      "salt": "0xa8bda9910c8332c6af1250acd2504bd6c5b10089738fa7104094b37f48319220",
      "assetIds": []
    },
    {
      "x": 209,
      "y": 378,
      "size": 1,
      "price": "1011000000000000000000",
      "reserved": "",
      "salt": "0xfdb7a70f3ff8aa95cf95fd67b565e3fd57ea64b2b666bf022cb9fd6b555e0ce7",
      "assetIds": []
    },
    {
      "x": 209,
      "y": 379,
      "size": 1,
      "price": "1011000000000000000000",
      "reserved": "",
      "salt": "0xfe3f407c881f79d3ab9f7da895b84d3420e158f750dff7384feba793d46e657d",
      "assetIds": []
    },
    {
      "x": 209,
      "y": 380,
      "size": 1,
      "price": "1011000000000000000000",
      "reserved": "",
      "salt": "0xac650b845a62b08b2c327480a14c74d7d2413520d8286002754ac07aaa87b87c",
      "assetIds": []
    },
    {
      "x": 209,
      "y": 381,
      "size": 1,
      "price": "1011000000000000000000",
      "reserved": "",
      "salt": "0xe3833bde06a1df39b3ff7d1bde421f6add47a439fa9d40c62cdcc1f73198e491",
      "assetIds": []
    },
    {
      "x": 209,
      "y": 382,
      "size": 1,
      "price": "1011000000000000000000",
      "reserved": "",
      "salt": "0x1acb061cc8bbf8e74125046f42e9ab8b13c9c3e3b2fc1a83b78dd0674dcb7685",
      "assetIds": []
    },
    {
      "x": 209,
      "y": 383,
      "size": 1,
      "price": "1011000000000000000000",
      "reserved": "0x7a9fe22691c811ea339d9b73150e6911a5343dca",
      "salt": "0xf591abef0250d029b00ff0504a256067c361f43c5b3d2f36013ded1b3c04b06d",
      "assetIds": []
    },
    {
      "x": 209,
      "y": 384,
      "size": 1,
      "price": "1011000000000000000000",
      "reserved": "0x7a9fe22691c811ea339d9b73150e6911a5343dca",
      "salt": "0xd3c08a11c9b2d100778b1427d9a33e2ab1860ab29542f42b272eb90e6ab4108b",
      "assetIds": []
    },
    {
      "x": 209,
      "y": 385,
      "size": 1,
      "price": "1011000000000000000000",
      "reserved": "",
      "salt": "0x530a56dd02ab477e83017b8bdd76935c639ba1f6a897157778164ddf7ec4f05a",
      "assetIds": []
    },
    {
      "x": 209,
      "y": 386,
      "size": 1,
      "price": "1011000000000000000000",
      "reserved": "",
      "salt": "0x7262aa2e06a426492405eee07418edc7c16b35733b68f69b365f3009423107d6",
      "assetIds": []
    },
    {
      "x": 209,
      "y": 387,
      "size": 1,
      "price": "1011000000000000000000",
      "reserved": "",
      "salt": "0x58dc2d5d5221c402c65f84d6a295142f4100eda31be0c5495bad81c84a722539",
      "assetIds": []
    },
    {
      "x": 209,
      "y": 388,
      "size": 1,
      "price": "1011000000000000000000",
      "reserved": "",
      "salt": "0x4499db76605516e6e714238b6b16a359b2aefdf45e5cf0bf6bcd46d9ad0cee84",
      "assetIds": []
    },
    {
      "x": 209,
      "y": 389,
      "size": 1,
      "price": "4683000000000000000000",
      "reserved": "",
      "salt": "0x971f71b6a69456d099c23a2f829f780ad8f02b126c1126183cfe1e723161a5fe",
      "assetIds": [
        "41506478881403507969696680653240014914910929820314476107906210059990541021186"
      ]
    },
    {
      "x": 209,
      "y": 390,
      "size": 1,
      "price": "4683000000000000000000",
      "reserved": "",
      "salt": "0xdc6efb81f43bc943c8e8159cf6e93e8aaf9bc067a22cb3ac59a0bf5621dd89ad",
      "assetIds": [
        "41506478881403507969696680653240014914910929820314476107906210059990541021186"
      ]
    },
    {
      "x": 209,
      "y": 391,
      "size": 1,
      "price": "4683000000000000000000",
      "reserved": "",
      "salt": "0x7782b2f9e62b0314982c5a79e4d144cd7a5d7dc6d0f0210716a5d17695d1a528",
      "assetIds": [
        "41506478881403507969696680653240014914910929820314476107906210059990541021186"
      ]
    },
    {
      "x": 209,
      "y": 392,
      "size": 1,
      "price": "4683000000000000000000",
      "reserved": "",
      "salt": "0xc3c924470d3432dc22396a4a656616cf372b22bcbdcaf5d53d82068eadae1f30",
      "assetIds": [
        "41506478881403507969696680653240014914910929820314476107906210059990541021186"
      ]
    },
    {
      "x": 209,
      "y": 393,
      "size": 1,
      "price": "4683000000000000000000",
      "reserved": "",
      "salt": "0xa1e6fabd8a18e59338f219c97c4b2d7a05d8b753b91de06a1fba87c292e92aaf",
      "assetIds": [
        "41506478881403507969696680653240014914910929820314476107906210059990541021186"
      ]
    },
    {
      "x": 209,
      "y": 394,
      "size": 1,
      "price": "4683000000000000000000",
      "reserved": "",
      "salt": "0x163800fe17e2fa246b5bfb89258433dc3ad5869b2ac612e53d04218459e14287",
      "assetIds": [
        "41506478881403507969696680653240014914910929820314476107906210059990541021186"
      ]
    },
    {
      "x": 209,
      "y": 395,
      "size": 1,
      "price": "4683000000000000000000",
      "reserved": "",
      "salt": "0xc6bed119015aec0be06bce688e7fd0c611577874646a555855c5755b23a3eb28",
      "assetIds": [
        "41506478881403507969696680653240014914910929820314476107906210059990541021186"
      ]
    },
    {
      "x": 209,
      "y": 396,
      "size": 1,
      "price": "4683000000000000000000",
      "reserved": "",
      "salt": "0x12bae8c3bbed6fd93a0c2221ef81e4547409dd8e474eb5ea0fb1f35cb17eebaf",
      "assetIds": [
        "41506478881403507969696680653240014914910929820314476107906210059990541021186"
      ]
    },
    {
      "x": 209,
      "y": 397,
      "size": 1,
      "price": "1011000000000000000000",
      "reserved": "",
      "salt": "0xc3aa16ab0c81a8cfe9acacaeb838cdd05863550527a968982f01b9a0bc731266",
      "assetIds": []
    },
    {
      "x": 209,
      "y": 398,
      "size": 1,
      "price": "1011000000000000000000",
      "reserved": "",
      "salt": "0xa1a1c7a742162c649cd420ed4e7785708fac15024e0f38431fd9b1589fabefc5",
      "assetIds": []
    },
    {
      "x": 209,
      "y": 399,
      "size": 1,
      "price": "1011000000000000000000",
      "reserved": "",
      "salt": "0x7dca6ac4b92fe60292a77a34dead6b664e5f990a4b6607800761f34ca76edd9d",
      "assetIds": []
    },
    {
      "x": 209,
      "y": 400,
      "size": 1,
      "price": "1011000000000000000000",
      "reserved": "",
      "salt": "0xe29d8cf5e92ccb9248b8c2437db7e9aa749dd9d3a991156d88e979abc61d4d26",
      "assetIds": []
    },
    {
      "x": 209,
      "y": 401,
      "size": 1,
      "price": "1011000000000000000000",
      "reserved": "",
      "salt": "0xc42662fe6353147b97b44df410b394d0e6be0e044bd52c5def79731f26b7d881",
      "assetIds": []
    },
    {
      "x": 209,
      "y": 405,
      "size": 1,
      "price": "1011000000000000000000",
      "reserved": "",
      "salt": "0x508f73707a4062f7d35bf2512c5fef0323715c09751004e19493ec431a3493bd",
      "assetIds": []
    },
    {
      "x": 209,
      "y": 406,
      "size": 1,
      "price": "1011000000000000000000",
      "reserved": "",
      "salt": "0x50818d33cefa867bdec30b74e3130d00cf1184ee71fd5d22219c27e9aa4bcd88",
      "assetIds": []
    },
    {
      "x": 209,
      "y": 407,
      "size": 1,
      "price": "1011000000000000000000",
      "reserved": "",
      "salt": "0x25720785da52bfa82767957268829bb0a31a1fc0b9eb06fbb2d54970b06eb16b",
      "assetIds": []
    },
    {
      "x": 210,
      "y": 359,
      "size": 1,
      "price": "1011000000000000000000",
      "reserved": "",
      "salt": "0x02a47c512a62ba2164f1a6f5bae5188e28fdb96410eec81c0fa22235b7630ecb",
      "assetIds": []
    },
    {
      "x": 210,
      "y": 360,
      "size": 1,
      "price": "1011000000000000000000",
      "reserved": "",
      "salt": "0x4c72caf355474c98555fece470be70470517554f3ccbba122e3d57dbe16ee4dd",
      "assetIds": []
    },
    {
      "x": 210,
      "y": 361,
      "size": 1,
      "price": "1011000000000000000000",
      "reserved": "",
      "salt": "0x95c5847ba0feec696f58484b5f783d32f878f1b87f405f2a59d8ca7e7135b5bd",
      "assetIds": []
    },
    {
      "x": 210,
      "y": 362,
      "size": 1,
      "price": "1011000000000000000000",
      "reserved": "",
      "salt": "0xc0b6c18c769cf3e4e4df5b3ce86a23ed2db7be0b4758e4a77378535619effd07",
      "assetIds": []
    },
    {
      "x": 210,
      "y": 363,
      "size": 1,
      "price": "1011000000000000000000",
      "reserved": "",
      "salt": "0x5baa2d98b03235dae67ae3ce45ceaf31c6f9617d9974abcb98b5afc53f2040ad",
      "assetIds": []
    },
    {
      "x": 210,
      "y": 364,
      "size": 1,
      "price": "1011000000000000000000",
      "reserved": "",
      "salt": "0x1e4fcdd6f9a37f1aa1ea0b6fbb2172c41d294ee8f49d3ae77951ba050aa18e0d",
      "assetIds": []
    },
    {
      "x": 210,
      "y": 365,
      "size": 1,
      "price": "1011000000000000000000",
      "reserved": "",
      "salt": "0xbbef0112fad133dce613e20f8822c1139203d5b7bb980afdce07c50e9495dd7d",
      "assetIds": []
    },
    {
      "x": 210,
      "y": 366,
      "size": 1,
      "price": "1011000000000000000000",
      "reserved": "",
      "salt": "0x49f9403c35833207b970a189c37e512587908c69c2639b855817100d98c8019c",
      "assetIds": []
    },
    {
      "x": 210,
      "y": 367,
      "size": 1,
      "price": "1011000000000000000000",
      "reserved": "",
      "salt": "0x7548f88ca4db78e62cc31882390c31e64560176b2a6bb919665648f95d44c530",
      "assetIds": []
    },
    {
      "x": 210,
      "y": 368,
      "size": 1,
      "price": "1011000000000000000000",
      "reserved": "",
      "salt": "0x32440955debb0db9648d02fe0718841671472be743b33751ccfec0506ea7bbc2",
      "assetIds": []
    },
    {
      "x": 210,
      "y": 369,
      "size": 1,
      "price": "1011000000000000000000",
      "reserved": "",
      "salt": "0xeeffa2aaff4f39a941c0f9fc1a76599b531127efdc3857d324c2f898089652d4",
      "assetIds": []
    },
    {
      "x": 210,
      "y": 370,
      "size": 1,
      "price": "1011000000000000000000",
      "reserved": "",
      "salt": "0x69a641d4ad7ebe86a91752f91a4c85caa902929fd9021bf6dca2edf25849efc7",
      "assetIds": []
    },
    {
      "x": 210,
      "y": 371,
      "size": 1,
      "price": "1011000000000000000000",
      "reserved": "",
      "salt": "0x5cadb139b821bdccd7756f18e734f9e1ce86e5914253fbbe94ee6f635c1d0a23",
      "assetIds": []
    },
    {
      "x": 210,
      "y": 372,
      "size": 1,
      "price": "4683000000000000000000",
      "reserved": "",
      "salt": "0xfe425460f1347dbadf911bbf044496b44c3623e34727bad8867a8a8896eea9c5",
      "assetIds": [
        "41506478881403507969696680653240014914910929820314476107906210059990541021186"
      ]
    },
    {
      "x": 210,
      "y": 373,
      "size": 1,
      "price": "1011000000000000000000",
      "reserved": "0x7a9fe22691c811ea339d9b73150e6911a5343dca",
      "salt": "0xa7621e9be1b4d285454361cde10cb9c515d6388127e82100f3225290c870f093",
      "assetIds": []
    },
    {
      "x": 210,
      "y": 374,
      "size": 1,
      "price": "1011000000000000000000",
      "reserved": "",
      "salt": "0x8d7f784fd627ec1f1b43d45a5b1259146f6b0fa177eea6266c93b2c678766be7",
      "assetIds": []
    },
    {
      "x": 210,
      "y": 375,
      "size": 1,
      "price": "1011000000000000000000",
      "reserved": "",
      "salt": "0x5d7087cb6c6756d002d8df74c91de669dfb4a0d5fcf74b7a594529b7dfe7290a",
      "assetIds": []
    },
    {
      "x": 210,
      "y": 376,
      "size": 1,
      "price": "1011000000000000000000",
      "reserved": "0x7a9fe22691c811ea339d9b73150e6911a5343dca",
      "salt": "0x1bc108639529a613ccf70fe7d3277f79b7e0a1768a92b61337e00bd85c14163c",
      "assetIds": []
    },
    {
      "x": 210,
      "y": 377,
      "size": 1,
      "price": "1011000000000000000000",
      "reserved": "0x7a9fe22691c811ea339d9b73150e6911a5343dca",
      "salt": "0x8d328694e061134440dbfde4331cb258a3d43b5a20b3c6c8acb99092b2c23e19",
      "assetIds": []
    },
    {
      "x": 210,
      "y": 384,
      "size": 1,
      "price": "1011000000000000000000",
      "reserved": "",
      "salt": "0x35fa620b408fd5ccbd29c58df4394ae4fcca41060132aafc819cf07f4bbc3129",
      "assetIds": []
    },
    {
      "x": 210,
      "y": 385,
      "size": 1,
      "price": "1011000000000000000000",
      "reserved": "",
      "salt": "0x54e500cc5d0cfe0f2a057012fc2511e7545cd11165be574b3fc588d637b02550",
      "assetIds": []
    },
    {
      "x": 210,
      "y": 386,
      "size": 1,
      "price": "1011000000000000000000",
      "reserved": "",
      "salt": "0x8eb6c6becf02c0eed530c34b88217ea1a5e6453aa7273b4f360abf89b0ba1aa0",
      "assetIds": []
    },
    {
      "x": 210,
      "y": 387,
      "size": 1,
      "price": "1011000000000000000000",
      "reserved": "",
      "salt": "0x0d7277113b1e468a63bf386bbef02b954e47959766eb1c71ed4dd97b4b3c9ec2",
      "assetIds": []
    },
    {
      "x": 210,
      "y": 388,
      "size": 1,
      "price": "1011000000000000000000",
      "reserved": "0x7a9fe22691c811ea339d9b73150e6911a5343dca",
      "salt": "0x5aa307b4a4deb2d9ef7f768024d82091134b6fc0ec38ba9978f1a7aa8a126886",
      "assetIds": []
    },
    {
      "x": 210,
      "y": 389,
      "size": 1,
      "price": "4683000000000000000000",
      "reserved": "",
      "salt": "0xd8baa96e89e8c3ad6849ca346fa9ec7a1dca8a3ea44ee312f1cde69169e7a782",
      "assetIds": [
        "41506478881403507969696680653240014914910929820314476107906210059990541021186"
      ]
    },
    {
      "x": 210,
      "y": 396,
      "size": 1,
      "price": "4683000000000000000000",
      "reserved": "",
      "salt": "0x706a0f643bd5eae0ed678d97f1ef1a41a7daba23ce2daf5227748cba3393d304",
      "assetIds": [
        "41506478881403507969696680653240014914910929820314476107906210059990541021186"
      ]
    },
    {
      "x": 210,
      "y": 397,
      "size": 1,
      "price": "4683000000000000000000",
      "reserved": "",
      "salt": "0x25807f266b713776953f543d00906f4d88ae3bee3341a30ddaa02cb7c043d363",
      "assetIds": [
        "41506478881403507969696680653240014914910929820314476107906210059990541021186"
      ]
    },
    {
      "x": 210,
      "y": 398,
      "size": 1,
      "price": "4683000000000000000000",
      "reserved": "",
      "salt": "0x4eb7a7b0cb6c57b9c1b2b1290accaafc533734fce8681de9cd2d506dac1f6c3a",
      "assetIds": [
        "41506478881403507969696680653240014914910929820314476107906210059990541021186"
      ]
    },
    {
      "x": 210,
      "y": 399,
      "size": 1,
      "price": "1011000000000000000000",
      "reserved": "",
      "salt": "0x7decce502b3209fb969373dff68dd5f6dd626d5c6621da3cd65ea30bca3ee1d9",
      "assetIds": []
    },
    {
      "x": 210,
      "y": 400,
      "size": 1,
      "price": "1011000000000000000000",
      "reserved": "",
      "salt": "0xd328c93103bbf12f1460c62b7e936ac63f3fd143fb70abbb16f613cb77dd9185",
      "assetIds": []
    },
    {
      "x": 210,
      "y": 401,
      "size": 1,
      "price": "1011000000000000000000",
      "reserved": "",
      "salt": "0x04b3b490b239314be41ab49e63c44f0513c54b1f982422d1eadf8c3d3ef40a00",
      "assetIds": []
    },
    {
      "x": 210,
      "y": 402,
      "size": 1,
      "price": "1011000000000000000000",
      "reserved": "",
      "salt": "0xbb68962d28102b974cee679748bd2e8b42db42a59b8438d787b098d2da3f010b",
      "assetIds": []
    },
    {
      "x": 210,
      "y": 403,
      "size": 1,
      "price": "1011000000000000000000",
      "reserved": "",
      "salt": "0x0631aa1896939dea40817173ebecaf11a0110f90f3938a6cbea411ea7a5e0271",
      "assetIds": []
    },
    {
      "x": 210,
      "y": 404,
      "size": 1,
      "price": "1011000000000000000000",
      "reserved": "",
      "salt": "0x20f375e7de8134829a6ca467b4d9a45572b0408d4410745e2bdbd6ebb702abb6",
      "assetIds": []
    },
    {
      "x": 210,
      "y": 405,
      "size": 1,
      "price": "1011000000000000000000",
      "reserved": "",
      "salt": "0x3b075fa09deb0bd027e54bc4f58a2a78c1e1938bb392ee11891657842d67551f",
      "assetIds": []
    },
    {
      "x": 210,
      "y": 406,
      "size": 1,
      "price": "1011000000000000000000",
      "reserved": "",
      "salt": "0xcbef0b725219d14acbee41ca8927b2ef84656ab8e748240aec7155069ce6c4a4",
      "assetIds": []
    },
    {
      "x": 210,
      "y": 407,
      "size": 1,
      "price": "1011000000000000000000",
      "reserved": "",
      "salt": "0x3ed59358719b34a37d56ed4e68c35ac0d082a95c02180b868529c62ba01962ec",
      "assetIds": []
    },
    {
      "x": 211,
      "y": 359,
      "size": 1,
      "price": "1011000000000000000000",
      "reserved": "",
      "salt": "0xdca418e1744edc74947374315f4f712224d26a65142bdc0f5448420b9a7cb2db",
      "assetIds": []
    },
    {
      "x": 211,
      "y": 360,
      "size": 1,
      "price": "1011000000000000000000",
      "reserved": "",
      "salt": "0x623bed6e6ea7f2b282006cbb57844bccb221538bfe4579d05aa3d91f8bf51f54",
      "assetIds": []
    },
    {
      "x": 211,
      "y": 361,
      "size": 1,
      "price": "1011000000000000000000",
      "reserved": "",
      "salt": "0xa20e17a9ec99b6e3ee8ea4cb0861a044975ea90965f041cdbc63410ff059acd4",
      "assetIds": []
    },
    {
      "x": 211,
      "y": 362,
      "size": 1,
      "price": "1011000000000000000000",
      "reserved": "",
      "salt": "0xa0b3e1c4abc9319cfa3953eea856710c55407f40d3b6c8445b8dbf0fcdd074d3",
      "assetIds": []
    },
    {
      "x": 211,
      "y": 363,
      "size": 1,
      "price": "1011000000000000000000",
      "reserved": "",
      "salt": "0xda62f22d162f837d1ef4533de39ae9d9010db7b02440fa6b873b2aa6470eae14",
      "assetIds": []
    },
    {
      "x": 211,
      "y": 364,
      "size": 1,
      "price": "1011000000000000000000",
      "reserved": "",
      "salt": "0x494dcfa0c331d7501be16460413b548123c546a7bdcfe8958326978546c4a0dd",
      "assetIds": []
    },
    {
      "x": 211,
      "y": 365,
      "size": 1,
      "price": "1011000000000000000000",
      "reserved": "",
      "salt": "0xeb7198f64f6711d66fdc42910e143da294de6aa7d75c99cc52b09c03ec94dfe1",
      "assetIds": []
    },
    {
      "x": 211,
      "y": 366,
      "size": 1,
      "price": "1011000000000000000000",
      "reserved": "",
      "salt": "0x4c7d58d2da9ccfb7fe8874eb608632d6d853e64658d7c50a341d108ab656c19c",
      "assetIds": []
    },
    {
      "x": 211,
      "y": 367,
      "size": 1,
      "price": "1011000000000000000000",
      "reserved": "",
      "salt": "0xccf78f3992f7c225de690fe60962bcee74ca628af1748b83bf4271245d8be677",
      "assetIds": []
    },
    {
      "x": 211,
      "y": 368,
      "size": 1,
      "price": "1011000000000000000000",
      "reserved": "0x7a9fe22691c811ea339d9b73150e6911a5343dca",
      "salt": "0x82d9e82eddf46299ed2a1ce26c94f8db719e8b48c1cb1cfb7a976f9b195f32a5",
      "assetIds": []
    },
    {
      "x": 211,
      "y": 369,
      "size": 1,
      "price": "1011000000000000000000",
      "reserved": "",
      "salt": "0x8b2c0ff43f30047f306674d04dd06c207dd5d197f497b75a2ebdfbc51ec505e1",
      "assetIds": []
    },
    {
      "x": 211,
      "y": 370,
      "size": 1,
      "price": "1011000000000000000000",
      "reserved": "",
      "salt": "0x6f0402a9004a3f807247639386c09b5b5c47b1c78a714fb01c662b51c79701f4",
      "assetIds": []
    },
    {
      "x": 211,
      "y": 371,
      "size": 1,
      "price": "1011000000000000000000",
      "reserved": "",
      "salt": "0xc4803efe3269eb06ab6f3e91ca9964f45cc1b34d962c72cce69db603a0b65eba",
      "assetIds": []
    },
    {
      "x": 211,
      "y": 372,
      "size": 1,
      "price": "4683000000000000000000",
      "reserved": "",
      "salt": "0xbc1c811d24f6b3660ce51b2c43353252e7c61bf72863681e6b6a091e2eed0ef8",
      "assetIds": [
        "41506478881403507969696680653240014914910929820314476107906210059990541021186"
      ]
    },
    {
      "x": 211,
      "y": 373,
      "size": 1,
      "price": "1011000000000000000000",
      "reserved": "",
      "salt": "0x18c41250be86e6aa63993da21119af44275eff78852c6090812f1a891e045772",
      "assetIds": []
    },
    {
      "x": 211,
      "y": 374,
      "size": 1,
      "price": "1011000000000000000000",
      "reserved": "",
      "salt": "0x4b772e95db11e8a05e9477540180449f7bdbec9a31bc94c006ad511ebcbfe769",
      "assetIds": []
    },
    {
      "x": 211,
      "y": 375,
      "size": 1,
      "price": "1011000000000000000000",
      "reserved": "",
      "salt": "0x22d3bdc45bc063e95aa0deebc5e955dc7b1b7f050aefd22bfbb857719806c3cf",
      "assetIds": []
    },
    {
      "x": 211,
      "y": 376,
      "size": 1,
      "price": "1011000000000000000000",
      "reserved": "",
      "salt": "0x277a0af63c0c27506ec330954505e8bebd91d3d57c433bd6f2aff1c35d05b0fa",
      "assetIds": []
    },
    {
      "x": 211,
      "y": 377,
      "size": 1,
      "price": "1011000000000000000000",
      "reserved": "",
      "salt": "0x49636d8c09d550e844ded50199655798ab31a46f66a32164e0d7847d90019912",
      "assetIds": []
    },
    {
      "x": 211,
      "y": 384,
      "size": 1,
      "price": "1011000000000000000000",
      "reserved": "",
      "salt": "0xdfce92362b6efd9072af0b5a125d54296db5fb0bb5e1262c15c6fd2f21a65081",
      "assetIds": []
    },
    {
      "x": 211,
      "y": 385,
      "size": 1,
      "price": "1011000000000000000000",
      "reserved": "0x7a9fe22691c811ea339d9b73150e6911a5343dca",
      "salt": "0x6f5ff41206611abdb6a4f39009b98826d996fe8de47ea139f945a731ab951307",
      "assetIds": []
    },
    {
      "x": 211,
      "y": 386,
      "size": 1,
      "price": "1011000000000000000000",
      "reserved": "",
      "salt": "0x8f08025d36f9f294b8ee64361daf7f6888dac34d7f5bec531619e75a368f64bb",
      "assetIds": []
    },
    {
      "x": 211,
      "y": 387,
      "size": 1,
      "price": "1011000000000000000000",
      "reserved": "0x7a9fe22691c811ea339d9b73150e6911a5343dca",
      "salt": "0xd61deede635567dbbb03a3dd49fed6c9aaaff9d208632de791c292f1befc663c",
      "assetIds": []
    },
    {
      "x": 211,
      "y": 388,
      "size": 1,
      "price": "1011000000000000000000",
      "reserved": "",
      "salt": "0x55728b45d73f6a270f3ddac65c73113dedc233ba37d6ae62d14fb16fc4165ec6",
      "assetIds": []
    },
    {
      "x": 211,
      "y": 389,
      "size": 1,
      "price": "4683000000000000000000",
      "reserved": "",
      "salt": "0x7f4ad808e9249a67876e33b1f6785ff6fe31a59f722a521675b26b01aab0d49e",
      "assetIds": [
        "41506478881403507969696680653240014914910929820314476107906210059990541021186"
      ]
    },
    {
      "x": 211,
      "y": 396,
      "size": 1,
      "price": "4683000000000000000000",
      "reserved": "",
      "salt": "0x482aa9c0ffa425e515fbbd791b7a528a3ff7f45946fbd70982202f8929213315",
      "assetIds": [
        "41506478881403507969696680653240014914910929820314476107906210059990541021186"
      ]
    },
    {
      "x": 211,
      "y": 397,
      "size": 1,
      "price": "4683000000000000000000",
      "reserved": "",
      "salt": "0x03e133b843bbddb33c3ab2e3c2f601b60b1a706767cf15ceb0aebe20eeceee44",
      "assetIds": [
        "41506478881403507969696680653240014914910929820314476107906210059990541021186"
      ]
    },
    {
      "x": 211,
      "y": 398,
      "size": 1,
      "price": "4683000000000000000000",
      "reserved": "",
      "salt": "0xdca4fee4cd83d2449c562c80dfd3467c09d6dce49fb63f7f0c50ff3e55dcb844",
      "assetIds": [
        "41506478881403507969696680653240014914910929820314476107906210059990541021186"
      ]
    },
    {
      "x": 211,
      "y": 399,
      "size": 1,
      "price": "4683000000000000000000",
      "reserved": "",
      "salt": "0x17d8e25ae3482da86c589db0266166343fa50e5ad63752e3a5768ee5ea6bed39",
      "assetIds": [
        "41506478881403507969696680653240014914910929820314476107906210059990541021186"
      ]
    },
    {
      "x": 211,
      "y": 400,
      "size": 1,
      "price": "1011000000000000000000",
      "reserved": "",
      "salt": "0xfe0dee3c30744ee6a55352a4d53099e65b54984bec12b760d27da4b178cdb56d",
      "assetIds": []
    },
    {
      "x": 211,
      "y": 401,
      "size": 1,
      "price": "1011000000000000000000",
      "reserved": "",
      "salt": "0x0aafec9c820652a98699068e5649b23c1cc643078ad0908781ce2f14350c5272",
      "assetIds": []
    },
    {
      "x": 211,
      "y": 402,
      "size": 1,
      "price": "1011000000000000000000",
      "reserved": "",
      "salt": "0x4a76d94176f7a1151118a97407bf5371f9127659abdc1cc862732fc19add4de4",
      "assetIds": []
    },
    {
      "x": 211,
      "y": 403,
      "size": 1,
      "price": "1011000000000000000000",
      "reserved": "",
      "salt": "0xd650b2f7c1edd2b7aaaec79f129231a2afd2b336cc241f1fa95eb3cf4c967e09",
      "assetIds": []
    },
    {
      "x": 211,
      "y": 404,
      "size": 1,
      "price": "1011000000000000000000",
      "reserved": "",
      "salt": "0xbea565d02fac4aa11b79353d839e286d5df27f388812821a7fc07d7beb4b62dd",
      "assetIds": []
    },
    {
      "x": 211,
      "y": 405,
      "size": 1,
      "price": "1011000000000000000000",
      "reserved": "0x7a9fe22691c811ea339d9b73150e6911a5343dca",
      "salt": "0x7d08f1f86234f9016d6887c65c09e1c637bc71f35f004e7418d72d2f082964bc",
      "assetIds": []
    },
    {
      "x": 211,
      "y": 406,
      "size": 1,
      "price": "1011000000000000000000",
      "reserved": "",
      "salt": "0x72f956507766d65bf46562c365c71cc1c650c2ebbd1d87b1a5451d94036f6e12",
      "assetIds": []
    },
    {
      "x": 211,
      "y": 407,
      "size": 1,
      "price": "1011000000000000000000",
      "reserved": "",
      "salt": "0x852624d50f6ef84121caf930888abc2632bfa3520ba91a9502fe16a0afee0b66",
      "assetIds": []
    },
    {
      "x": 212,
      "y": 359,
      "size": 1,
      "price": "1011000000000000000000",
      "reserved": "",
      "salt": "0x2cf07e507e789ca6ed4a37da4cd2602896de2ea6e30c2231d0318db43a2b69f8",
      "assetIds": []
    },
    {
      "x": 212,
      "y": 360,
      "size": 1,
      "price": "1011000000000000000000",
      "reserved": "",
      "salt": "0x865a2671470403898d27e890323f10f8a996242ccbb799fca872215f8d97c87a",
      "assetIds": []
    },
    {
      "x": 212,
      "y": 361,
      "size": 1,
      "price": "1011000000000000000000",
      "reserved": "",
      "salt": "0x7ffb3aad7236009b3fae76d6369d4b6781e1f2fbf15c1ae41f5d576a2e062ef7",
      "assetIds": []
    },
    {
      "x": 212,
      "y": 362,
      "size": 1,
      "price": "1011000000000000000000",
      "reserved": "",
      "salt": "0x9c6531a4db14823c42580f0cd3c4b9a1775ed3bb719ad2129198252cc9d81b34",
      "assetIds": []
    },
    {
      "x": 212,
      "y": 363,
      "size": 1,
      "price": "1011000000000000000000",
      "reserved": "",
      "salt": "0x1318fdab26d5d12ac1b42a18838133048fd48c44e4bc38a82399f147f0758719",
      "assetIds": []
    },
    {
      "x": 212,
      "y": 364,
      "size": 1,
      "price": "1011000000000000000000",
      "reserved": "",
      "salt": "0x8b54f234c863529be32256809cf7ea70dd832f9892e3a6bc5122cb28a7c012ef",
      "assetIds": []
    },
    {
      "x": 212,
      "y": 365,
      "size": 1,
      "price": "1011000000000000000000",
      "reserved": "",
      "salt": "0xe77702bf5dacbaf39750e560a05e2abce923c0e0c72ebc076c02f4b34e3ba032",
      "assetIds": []
    },
    {
      "x": 212,
      "y": 366,
      "size": 1,
      "price": "1011000000000000000000",
      "reserved": "",
      "salt": "0xb09e233ee8008839297898b0aa19c2b52da2bd70e14c1ed60b9236345b244cf6",
      "assetIds": []
    },
    {
      "x": 212,
      "y": 367,
      "size": 1,
      "price": "1011000000000000000000",
      "reserved": "",
      "salt": "0x7e41f9f4fe85b24ec8e6ff4972a3a7b92adb36ca0fc81b02dace96a9de20f0ad",
      "assetIds": []
    },
    {
      "x": 212,
      "y": 368,
      "size": 1,
      "price": "1011000000000000000000",
      "reserved": "",
      "salt": "0x1c8d88e58880f0004d87cb7244f98d11acd6aaecc0510de6796588032a75988f",
      "assetIds": []
    },
    {
      "x": 212,
      "y": 369,
      "size": 1,
      "price": "4683000000000000000000",
      "reserved": "",
      "salt": "0x21359ab23ab084aa8187c9d94c8e950eac45ad1fd3da0fec7450696e787160f0",
      "assetIds": [
        "41506478881403507969696680653240014914910929820314476107906210059990541021186"
      ]
    },
    {
      "x": 212,
      "y": 370,
      "size": 1,
      "price": "1011000000000000000000",
      "reserved": "",
      "salt": "0x42ff4eb972d087e0745dec019613cfaf2c3057e709054689381cc1df84fdc94b",
      "assetIds": []
    },
    {
      "x": 212,
      "y": 371,
      "size": 1,
      "price": "1011000000000000000000",
      "reserved": "",
      "salt": "0x9cb725071ee7573cb3cdebc2802ba32cf3217e2e9a39e91d203db0e15db0056c",
      "assetIds": []
    },
    {
      "x": 212,
      "y": 372,
      "size": 1,
      "price": "4683000000000000000000",
      "reserved": "",
      "salt": "0xe29407d7377eeb0ef3484becc8eb15c24883495867fe1692905f008a653491cc",
      "assetIds": [
        "41506478881403507969696680653240014914910929820314476107906210059990541021186"
      ]
    },
    {
      "x": 212,
      "y": 373,
      "size": 1,
      "price": "1011000000000000000000",
      "reserved": "",
      "salt": "0xc76d8d4d3b4d040ecfd0b7079b7b07dfca9fc2790839d23c24d043cabbfc7385",
      "assetIds": []
    },
    {
      "x": 212,
      "y": 374,
      "size": 1,
      "price": "1011000000000000000000",
      "reserved": "",
      "salt": "0x69458a88b4677cd5ec7792265a356561fa28d5694ad7ae88fd72bc451dd69fff",
      "assetIds": []
    },
    {
      "x": 212,
      "y": 375,
      "size": 1,
      "price": "4683000000000000000000",
      "reserved": "",
      "salt": "0x5791ff0c3575549d13415d75b4eb0a5d0afde6119e410ad6fd5e71c8cdaaf826",
      "assetIds": [
        "41506478881403507969696680653240014914910929820314476107906210059990541021186"
      ]
    },
    {
      "x": 212,
      "y": 376,
      "size": 1,
      "price": "4683000000000000000000",
      "reserved": "",
      "salt": "0xbc1abb4351048a4e7ba5babaa0d49633809deae2123b8def9cf518f6e29e1bff",
      "assetIds": [
        "41506478881403507969696680653240014914910929820314476107906210059990541021186"
      ]
    },
    {
      "x": 212,
      "y": 377,
      "size": 1,
      "price": "1011000000000000000000",
      "reserved": "",
      "salt": "0xd2b45340366b2ea9e493350e25d06c2835889f22fb60a80a0c3e416bfc7fba34",
      "assetIds": []
    },
    {
      "x": 212,
      "y": 384,
      "size": 1,
      "price": "1011000000000000000000",
      "reserved": "",
      "salt": "0xbfbc264972d2bb8c77aa0fe14ace07426bbf835144b65d4cb6c775bcdeba399a",
      "assetIds": []
    },
    {
      "x": 212,
      "y": 385,
      "size": 1,
      "price": "1011000000000000000000",
      "reserved": "",
      "salt": "0x891cb64fe98c89f75adbffef6ea24ffcae59d7ceafd6bc86cfaeaad71f2682b1",
      "assetIds": []
    },
    {
      "x": 212,
      "y": 386,
      "size": 1,
      "price": "1011000000000000000000",
      "reserved": "",
      "salt": "0xa8fdac721e17f2bf75b3ab31ef507a6e28f8484e119103e308b5bd60d2eff919",
      "assetIds": []
    },
    {
      "x": 212,
      "y": 387,
      "size": 1,
      "price": "1011000000000000000000",
      "reserved": "",
      "salt": "0xe4a4191f5f20dc03896822f6afe9d826aff4f7a784d640caf788226e32e05154",
      "assetIds": []
    },
    {
      "x": 212,
      "y": 388,
      "size": 1,
      "price": "1011000000000000000000",
      "reserved": "",
      "salt": "0x0846d1f2a0717986210631c433aa1b76072419872d506cddaa507bb49218aa61",
      "assetIds": []
    },
    {
      "x": 212,
      "y": 389,
      "size": 1,
      "price": "4683000000000000000000",
      "reserved": "",
      "salt": "0xf8024f62c16f5577bebd570645a10f99483e23f5877934863d93fad1e42615d2",
      "assetIds": [
        "41506478881403507969696680653240014914910929820314476107906210059990541021186"
      ]
    },
    {
      "x": 212,
      "y": 396,
      "size": 1,
      "price": "4683000000000000000000",
      "reserved": "",
      "salt": "0xad173745e35eca2a3d0b648838f71732c26a0b9282c34ec278d1d75f0162e76d",
      "assetIds": [
        "41506478881403507969696680653240014914910929820314476107906210059990541021186"
      ]
    },
    {
      "x": 212,
      "y": 397,
      "size": 1,
      "price": "1011000000000000000000",
      "reserved": "0x7a9fe22691c811ea339d9b73150e6911a5343dca",
      "salt": "0xe642cd51fffabe1021d80e38eb4fd7a3bb8627fe0a91fcd9ad514040bc938293",
      "assetIds": []
    },
    {
      "x": 212,
      "y": 398,
      "size": 1,
      "price": "4683000000000000000000",
      "reserved": "",
      "salt": "0x4f7c4824f0b20c548b3d39c3191cbd682a6289cd6ebd54860b5c851b95c1cb77",
      "assetIds": [
        "41506478881403507969696680653240014914910929820314476107906210059990541021186"
      ]
    },
    {
      "x": 212,
      "y": 399,
      "size": 1,
      "price": "1011000000000000000000",
      "reserved": "0x7a9fe22691c811ea339d9b73150e6911a5343dca",
      "salt": "0x7fcb89835c4b8b818d3a61cdaf000c06701a404f3d9446a98357b6ba17280f17",
      "assetIds": []
    },
    {
      "x": 212,
      "y": 400,
      "size": 1,
      "price": "1011000000000000000000",
      "reserved": "",
      "salt": "0x5b8e257e07be100332c7fc96d7f6becd7f5b12268bcc3f1ba0e05f6bde1d9881",
      "assetIds": []
    },
    {
      "x": 212,
      "y": 401,
      "size": 1,
      "price": "1011000000000000000000",
      "reserved": "",
      "salt": "0x9935bbecbe1764e64e1aa00982e6c92d454923de5100e7c863ad8c9f03320fe1",
      "assetIds": []
    },
    {
      "x": 213,
      "y": 357,
      "size": 1,
      "price": "1011000000000000000000",
      "reserved": "0x7a9fe22691c811ea339d9b73150e6911a5343dca",
      "salt": "0x52d2df1028e9f51010a3eacf54b535c6298f433e5c1134939e7638e38897c3ed",
      "assetIds": []
    },
    {
      "x": 213,
      "y": 358,
      "size": 1,
      "price": "1011000000000000000000",
      "reserved": "",
      "salt": "0x01550b0fa421e642ca7be961f368a147d6d1e1092465eabf1479218b53b3af7e",
      "assetIds": []
    },
    {
      "x": 213,
      "y": 359,
      "size": 1,
      "price": "1011000000000000000000",
      "reserved": "",
      "salt": "0xacb62332dc032b7031e1847058cfcdab048fe8a051c09dd0061d58ce54ab91af",
      "assetIds": []
    },
    {
      "x": 213,
      "y": 360,
      "size": 1,
      "price": "1011000000000000000000",
      "reserved": "0x7a9fe22691c811ea339d9b73150e6911a5343dca",
      "salt": "0xe066ec63717157b8e307f9ffbcb11de6a0acc98c3ffb00b467bc52e5392363b2",
      "assetIds": []
    },
    {
      "x": 213,
      "y": 361,
      "size": 1,
      "price": "1011000000000000000000",
      "reserved": "0x7a9fe22691c811ea339d9b73150e6911a5343dca",
      "salt": "0x978b2cb70658e7ae2143aef3a74c4997f8dfff39a4d4a9d997a7b7d094dc8992",
      "assetIds": []
    },
    {
      "x": 213,
      "y": 362,
      "size": 1,
      "price": "1011000000000000000000",
      "reserved": "0x7a9fe22691c811ea339d9b73150e6911a5343dca",
      "salt": "0x5896eb8426bfa3753841441daabe2773e2f318ba9a2d6faa2fd8fcfd74b23565",
      "assetIds": []
    },
    {
      "x": 213,
      "y": 363,
      "size": 1,
      "price": "4683000000000000000000",
      "reserved": "",
      "salt": "0x9fe74e4aabd3e95ddf82b44a59cfa6b4964bf7fdab4eeca6fa469783adec3323",
      "assetIds": [
        "41506478881403507969696680653240014914910929820314476107906210059990541021186"
      ]
    },
    {
      "x": 213,
      "y": 364,
      "size": 1,
      "price": "1011000000000000000000",
      "reserved": "0x7a9fe22691c811ea339d9b73150e6911a5343dca",
      "salt": "0x846632cd45d82c793f21837588aa6338d5364c511658bddf81086ac38d9841ec",
      "assetIds": []
    },
    {
      "x": 213,
      "y": 365,
      "size": 1,
      "price": "4683000000000000000000",
      "reserved": "",
      "salt": "0x3af83cee1beb52eba1c0c9e740129b2c6c69238c27fee6487c7494d4739ded52",
      "assetIds": [
        "41506478881403507969696680653240014914910929820314476107906210059990541021186"
      ]
    },
    {
      "x": 213,
      "y": 369,
      "size": 1,
      "price": "4683000000000000000000",
      "reserved": "",
      "salt": "0x84c59e3aa6efa02b39ea85c6830e26eba156690250d0913ebca520b500d29c2b",
      "assetIds": [
        "41506478881403507969696680653240014914910929820314476107906210059990541021186"
      ]
    },
    {
      "x": 213,
      "y": 370,
      "size": 1,
      "price": "4683000000000000000000",
      "reserved": "",
      "salt": "0xc3102281541e12b065465aaf427943b1522784023d0a55655dd40fc642359aac",
      "assetIds": [
        "41506478881403507969696680653240014914910929820314476107906210059990541021186"
      ]
    },
    {
      "x": 213,
      "y": 371,
      "size": 1,
      "price": "1011000000000000000000",
      "reserved": "",
      "salt": "0x5e5927641a6f70da6b0a03b1b8001974bb50de71affc7355b9d5c52badb63a83",
      "assetIds": []
    },
    {
      "x": 213,
      "y": 372,
      "size": 1,
      "price": "1011000000000000000000",
      "reserved": "0x7a9fe22691c811ea339d9b73150e6911a5343dca",
      "salt": "0x72ee787fa1fb2ae1f64185c8c12c7f4f47a6cb9dcacded037c8831a55766c822",
      "assetIds": []
    },
    {
      "x": 213,
      "y": 373,
      "size": 1,
      "price": "4683000000000000000000",
      "reserved": "",
      "salt": "0x8d630e20724d244f999973542171e287796e3c983c69249517c89140fa9e73eb",
      "assetIds": [
        "41506478881403507969696680653240014914910929820314476107906210059990541021186"
      ]
    },
    {
      "x": 213,
      "y": 374,
      "size": 1,
      "price": "1011000000000000000000",
      "reserved": "0x7a9fe22691c811ea339d9b73150e6911a5343dca",
      "salt": "0x1c9508e301e3e59baafcfec29caa06f88d21344ca065c5615bb830a0cac73ab9",
      "assetIds": []
    },
    {
      "x": 213,
      "y": 375,
      "size": 1,
      "price": "1011000000000000000000",
      "reserved": "0x7a9fe22691c811ea339d9b73150e6911a5343dca",
      "salt": "0x5c55887c3a5213a73aa6d621527ddb6d2fc2c0e08df08e69ad8d9f5c4b4ebb8a",
      "assetIds": []
    },
    {
      "x": 213,
      "y": 376,
      "size": 1,
      "price": "4683000000000000000000",
      "reserved": "",
      "salt": "0xd9be034f370898683f1e70934d9888ff7e02a020fb6403f5b6fb05ae80119132",
      "assetIds": [
        "41506478881403507969696680653240014914910929820314476107906210059990541021186"
      ]
    },
    {
      "x": 213,
      "y": 377,
      "size": 1,
      "price": "1011000000000000000000",
      "reserved": "",
      "salt": "0xb9a1b4215d5e14605c1952003d258cb763a57e73958eda8c1611ab5496a5c425",
      "assetIds": []
    },
    {
      "x": 213,
      "y": 384,
      "size": 1,
      "price": "1011000000000000000000",
      "reserved": "",
      "salt": "0x1451655d8ec5dbbe6084312bf5a2f4d88b69c9fb6084956b5092608042c71067",
      "assetIds": []
    },
    {
      "x": 213,
      "y": 385,
      "size": 1,
      "price": "1011000000000000000000",
      "reserved": "",
      "salt": "0xcb090e5eca2f8741de315093880fabc5a25f050e3b25480bb9ebbbcbfdb192f6",
      "assetIds": []
    },
    {
      "x": 213,
      "y": 386,
      "size": 1,
      "price": "1011000000000000000000",
      "reserved": "",
      "salt": "0x79b4d6f90fef8cb9a2e6d85cc67b529b898dea80bda1ffe1b0e7d079a112fe08",
      "assetIds": []
    },
    {
      "x": 213,
      "y": 387,
      "size": 1,
      "price": "1011000000000000000000",
      "reserved": "",
      "salt": "0xc11d36e1bacc69fed07a727101eef2842ed3f29ea29d6f21718a519d1a88a6e7",
      "assetIds": []
    },
    {
      "x": 213,
      "y": 388,
      "size": 1,
      "price": "1011000000000000000000",
      "reserved": "",
      "salt": "0xda74dcb444e75ae3e7da35bdb3fae77e13462af38759bd4dd458e55f753c5c79",
      "assetIds": []
    },
    {
      "x": 213,
      "y": 389,
      "size": 1,
      "price": "4683000000000000000000",
      "reserved": "",
      "salt": "0x6f572b681759406548ae6ff97fc610dda1e19023c76b04e85c580d06ebabebf4",
      "assetIds": [
        "41506478881403507969696680653240014914910929820314476107906210059990541021186"
      ]
    },
    {
      "x": 213,
      "y": 396,
      "size": 1,
      "price": "4683000000000000000000",
      "reserved": "",
      "salt": "0x5322a61ec70495248f0ce634d3286b33cb51e0476dd45b9912fc77689251ce38",
      "assetIds": [
        "41506478881403507969696680653240014914910929820314476107906210059990541021186"
      ]
    },
    {
      "x": 213,
      "y": 397,
      "size": 1,
      "price": "1011000000000000000000",
      "reserved": "",
      "salt": "0xbc1f7a45a41c965f6ae3c2e35ceee8f59e6ff45a129542b4a2bf688edc8f8f76",
      "assetIds": []
    },
    {
      "x": 213,
      "y": 398,
      "size": 1,
      "price": "1011000000000000000000",
      "reserved": "",
      "salt": "0x3449ac1c855b4f6c4a69244da5846f8ac8303c291bd80027b41078867dae55e7",
      "assetIds": []
    },
    {
      "x": 213,
      "y": 399,
      "size": 1,
      "price": "1011000000000000000000",
      "reserved": "",
      "salt": "0x4c20705f1c2abd11a406ee21cd64e45f062c4fec7be713028e3d13bfe30cfb68",
      "assetIds": []
    },
    {
      "x": 213,
      "y": 400,
      "size": 1,
      "price": "1011000000000000000000",
      "reserved": "",
      "salt": "0xcc2b0cee0a9b01092d9d62228c28e20230cd30297601c1438b7092e9e82a16cc",
      "assetIds": []
    },
    {
      "x": 214,
      "y": 357,
      "size": 1,
      "price": "1011000000000000000000",
      "reserved": "",
      "salt": "0x44f9c1cf2e045bc57eca11d3654a2e48ad97872b303807bc41ed076a9c2d2c1f",
      "assetIds": []
    },
    {
      "x": 214,
      "y": 358,
      "size": 1,
      "price": "1011000000000000000000",
      "reserved": "0x7a9fe22691c811ea339d9b73150e6911a5343dca",
      "salt": "0x4235d2287b6d9e9d8590e5b8fafcee01e21fc449c08ad2aa065f5b46f6306acc",
      "assetIds": []
    },
    {
      "x": 214,
      "y": 359,
      "size": 1,
      "price": "1011000000000000000000",
      "reserved": "0x7a9fe22691c811ea339d9b73150e6911a5343dca",
      "salt": "0x5f8c3b0ec502d64910c6ae0e65cc825ab8c441cd3b4701767c80a2bfcc7c2826",
      "assetIds": []
    },
    {
      "x": 214,
      "y": 360,
      "size": 1,
      "price": "4683000000000000000000",
      "reserved": "",
      "salt": "0xc42046ee2521a7debdcf18913ffd1b62263dbbc7a55605b4c34cc48428d23be3",
      "assetIds": [
        "41506478881403507969696680653240014914910929820314476107906210059990541021186"
      ]
    },
    {
      "x": 214,
      "y": 361,
      "size": 1,
      "price": "4683000000000000000000",
      "reserved": "",
      "salt": "0xb3ff4fde903c830fd1677bfc4e8be302bc671d0ffecf64fef35e3b1f093ca1ed",
      "assetIds": [
        "41506478881403507969696680653240014914910929820314476107906210059990541021186"
      ]
    },
    {
      "x": 214,
      "y": 362,
      "size": 1,
      "price": "4683000000000000000000",
      "reserved": "",
      "salt": "0x32153e9f625831a4555e8212717db4c795b8e62dfc95b36c5332b13083b2cca4",
      "assetIds": [
        "41506478881403507969696680653240014914910929820314476107906210059990541021186"
      ]
    },
    {
      "x": 214,
      "y": 363,
      "size": 1,
      "price": "4683000000000000000000",
      "reserved": "",
      "salt": "0x730978a36fa597494a7dbc253016ff370cb42a415ca0f7d568b8fdb9cb70f802",
      "assetIds": [
        "41506478881403507969696680653240014914910929820314476107906210059990541021186"
      ]
    },
    {
      "x": 214,
      "y": 364,
      "size": 1,
      "price": "4683000000000000000000",
      "reserved": "",
      "salt": "0x38881339d0a492146fd1e354c25095bf4929f572d7ef8296106335877cb2f5a7",
      "assetIds": [
        "41506478881403507969696680653240014914910929820314476107906210059990541021186"
      ]
    },
    {
      "x": 214,
      "y": 365,
      "size": 1,
      "price": "4683000000000000000000",
      "reserved": "",
      "salt": "0xc3297d6ea2549c8585db1e564895d63ef173e0b77630e8b85834d27ffd05e9bf",
      "assetIds": [
        "41506478881403507969696680653240014914910929820314476107906210059990541021186"
      ]
    },
    {
      "x": 214,
      "y": 369,
      "size": 1,
      "price": "4683000000000000000000",
      "reserved": "",
      "salt": "0x82c5b78d2f4f86af1ac26a0c7139cbca7ff0c664299f40645258536f3a8d7659",
      "assetIds": [
        "41506478881403507969696680653240014914910929820314476107906210059990541021186"
      ]
    },
    {
      "x": 214,
      "y": 370,
      "size": 1,
      "price": "4683000000000000000000",
      "reserved": "",
      "salt": "0x2cf8ca845732fa594c5c4813912ad37caa459a0afbc61307cd3c35f125f0115a",
      "assetIds": [
        "41506478881403507969696680653240014914910929820314476107906210059990541021186"
      ]
    },
    {
      "x": 214,
      "y": 371,
      "size": 1,
      "price": "4683000000000000000000",
      "reserved": "",
      "salt": "0x321ff97cb91050135420aa73138b9d42433d22d380f21fbd0ae7697532a8929d",
      "assetIds": [
        "41506478881403507969696680653240014914910929820314476107906210059990541021186"
      ]
    },
    {
      "x": 214,
      "y": 372,
      "size": 1,
      "price": "4683000000000000000000",
      "reserved": "",
      "salt": "0x2e1b7dc9c2251efbe2a91dbc4098165f861216a08ade0f44e5afdc8c793a1dbd",
      "assetIds": [
        "41506478881403507969696680653240014914910929820314476107906210059990541021186"
      ]
    },
    {
      "x": 214,
      "y": 373,
      "size": 1,
      "price": "4683000000000000000000",
      "reserved": "",
      "salt": "0xdf74373b795a2101e4cde77249ac8a7246c2fee36bdde605982122e7162f148f",
      "assetIds": [
        "41506478881403507969696680653240014914910929820314476107906210059990541021186"
      ]
    },
    {
      "x": 214,
      "y": 374,
      "size": 1,
      "price": "4683000000000000000000",
      "reserved": "",
      "salt": "0xc0eb82de5617d5e2c4c628dc55c4da7500b1bb6ba63a3279f31595e330c1771e",
      "assetIds": [
        "41506478881403507969696680653240014914910929820314476107906210059990541021186"
      ]
    },
    {
      "x": 214,
      "y": 375,
      "size": 1,
      "price": "4683000000000000000000",
      "reserved": "",
      "salt": "0x622af96798d663d25f37a0c32badb1826c711daa69115660f96c75708b944dbc",
      "assetIds": [
        "41506478881403507969696680653240014914910929820314476107906210059990541021186"
      ]
    },
    {
      "x": 214,
      "y": 376,
      "size": 1,
      "price": "4683000000000000000000",
      "reserved": "",
      "salt": "0x98bb6a0fe6b6c019c0600425a149fba5feceb9baf9838bfd3601c5b7d4dffe39",
      "assetIds": [
        "41506478881403507969696680653240014914910929820314476107906210059990541021186"
      ]
    },
    {
      "x": 214,
      "y": 377,
      "size": 1,
      "price": "1011000000000000000000",
      "reserved": "0x7a9fe22691c811ea339d9b73150e6911a5343dca",
      "salt": "0x4d07f305b21a6bcbd998c1ba908a48836db0e5633b64f7467428fd573d5abcdd",
      "assetIds": []
    },
    {
      "x": 214,
      "y": 384,
      "size": 1,
      "price": "1011000000000000000000",
      "reserved": "",
      "salt": "0xab438820e92df34969027af528efb1c0a43ba253a6b1adee3b31b8527ee89eed",
      "assetIds": []
    },
    {
      "x": 214,
      "y": 385,
      "size": 1,
      "price": "1011000000000000000000",
      "reserved": "0x7a9fe22691c811ea339d9b73150e6911a5343dca",
      "salt": "0x6d16e2838d8e749cb9c22d42ffe9751d0029120a9c72055dab454c5bbece9ca5",
      "assetIds": []
    },
    {
      "x": 214,
      "y": 386,
      "size": 1,
      "price": "1011000000000000000000",
      "reserved": "0x7a9fe22691c811ea339d9b73150e6911a5343dca",
      "salt": "0xccb837bdb77db1b05f1a995af745c7eba62bcfb0b02390ec28ea497880ff5d94",
      "assetIds": []
    },
    {
      "x": 214,
      "y": 387,
      "size": 1,
      "price": "1011000000000000000000",
      "reserved": "",
      "salt": "0x21a878387b544af2fcca9c3bbd41d2e7230fd688ea501902b4342c1bc8d7b21b",
      "assetIds": []
    },
    {
      "x": 214,
      "y": 388,
      "size": 1,
      "price": "1011000000000000000000",
      "reserved": "",
      "salt": "0xe54329597a4f0355317118cf62fad1db47c2a5323d5c11a13bbb7e95c0572086",
      "assetIds": []
    },
    {
      "x": 214,
      "y": 389,
      "size": 1,
      "price": "4683000000000000000000",
      "reserved": "",
      "salt": "0x4c8ff01684f8ee1b0e8253701b7b7a51621ef32ca7d590beeff6670d26aa8e79",
      "assetIds": [
        "41506478881403507969696680653240014914910929820314476107906210059990541021186"
      ]
    },
    {
      "x": 214,
      "y": 396,
      "size": 1,
      "price": "4683000000000000000000",
      "reserved": "",
      "salt": "0xdf791733fd223c48424b271a0c094ba7f049f35b674c93d08e94df315d4aeca1",
      "assetIds": [
        "41506478881403507969696680653240014914910929820314476107906210059990541021186"
      ]
    },
    {
      "x": 214,
      "y": 397,
      "size": 1,
      "price": "1011000000000000000000",
      "reserved": "",
      "salt": "0x7b0af09d8ce400f9b615b48563541c887f53a290678259bb8063dac435b9009b",
      "assetIds": []
    },
    {
      "x": 214,
      "y": 398,
      "size": 1,
      "price": "1011000000000000000000",
      "reserved": "",
      "salt": "0x4bb565414805fdd93291688f950d1a541c0eaf4af19d5fd42b9da20150ed42a5",
      "assetIds": []
    },
    {
      "x": 214,
      "y": 399,
      "size": 1,
      "price": "1011000000000000000000",
      "reserved": "",
      "salt": "0x4c68568739bcbaee8e8d65deaa2f4e5d0a7b545c54e704799f0029af4729fcb6",
      "assetIds": []
    },
    {
      "x": 215,
      "y": 357,
      "size": 1,
      "price": "1011000000000000000000",
      "reserved": "",
      "salt": "0x88c377c960eb68b75e0363e68518db942a962addff6d6369ccb396e68fbbffce",
      "assetIds": []
    },
    {
      "x": 215,
      "y": 358,
      "size": 1,
      "price": "4683000000000000000000",
      "reserved": "",
      "salt": "0x95af89267cbdaa7f3588343db37afec6ae2bc0bd238e2e6b3d11ac957d29239e",
      "assetIds": [
        "41506478881403507969696680653240014914910929820314476107906210059990541021186"
      ]
    },
    {
      "x": 215,
      "y": 359,
      "size": 1,
      "price": "4683000000000000000000",
      "reserved": "",
      "salt": "0x164b4378b0226ffa776d7be302f3c5afcbb9fe56bf918df28e5d4fef0de5e878",
      "assetIds": [
        "41506478881403507969696680653240014914910929820314476107906210059990541021186"
      ]
    },
    {
      "x": 215,
      "y": 360,
      "size": 1,
      "price": "4683000000000000000000",
      "reserved": "",
      "salt": "0xb6815c241432eecbbdc0cea059d491c303903f642e796a710c6c67941444addf",
      "assetIds": [
        "41506478881403507969696680653240014914910929820314476107906210059990541021186"
      ]
    },
    {
      "x": 215,
      "y": 361,
      "size": 1,
      "price": "4683000000000000000000",
      "reserved": "",
      "salt": "0xeb6b03756d5f83e19da9337a23e859a0697c3a466699d4f6d7b2a4aaed87683c",
      "assetIds": [
        "41506478881403507969696680653240014914910929820314476107906210059990541021186"
      ]
    },
    {
      "x": 215,
      "y": 362,
      "size": 1,
      "price": "4683000000000000000000",
      "reserved": "",
      "salt": "0x7423949c2328d9ed000459f195d3213f78a608fc952130a6c20086f1cff6c894",
      "assetIds": [
        "41506478881403507969696680653240014914910929820314476107906210059990541021186"
      ]
    },
    {
      "x": 215,
      "y": 363,
      "size": 1,
      "price": "4683000000000000000000",
      "reserved": "",
      "salt": "0x2698b4f29920cffa1da7b7337f6b786a81e32ea9665b42b09603913113d093c4",
      "assetIds": [
        "41506478881403507969696680653240014914910929820314476107906210059990541021186"
      ]
    },
    {
      "x": 215,
      "y": 364,
      "size": 1,
      "price": "4683000000000000000000",
      "reserved": "",
      "salt": "0x1c91c0ce6c83b83dba49ea43f8e6dc33f11cbfafe0e696d41699843229d64d66",
      "assetIds": [
        "41506478881403507969696680653240014914910929820314476107906210059990541021186"
      ]
    },
    {
      "x": 215,
      "y": 365,
      "size": 1,
      "price": "4683000000000000000000",
      "reserved": "",
      "salt": "0x0f3a933dbdb352269bdfcd076ad7971a84b32d8e493a0155e244b6757cb574db",
      "assetIds": [
        "41506478881403507969696680653240014914910929820314476107906210059990541021186"
      ]
    },
    {
      "x": 215,
      "y": 369,
      "size": 1,
      "price": "4683000000000000000000",
      "reserved": "",
      "salt": "0xc884b209378bed6e9690adf06241e25b36423cbe3f1f414979fc436f7be45ebb",
      "assetIds": [
        "41506478881403507969696680653240014914910929820314476107906210059990541021186"
      ]
    },
    {
      "x": 215,
      "y": 370,
      "size": 1,
      "price": "4683000000000000000000",
      "reserved": "",
      "salt": "0x52c7becb72df3d671ed218518ac1d4fb5e5e63eace9c25b6564a04825d3dc9f5",
      "assetIds": [
        "41506478881403507969696680653240014914910929820314476107906210059990541021186"
      ]
    },
    {
      "x": 215,
      "y": 371,
      "size": 1,
      "price": "4683000000000000000000",
      "reserved": "",
      "salt": "0x68d6a9c4c72bfc087409f447e6ee31d8c3f5fc1687ac122f3cb7e4a62b6aed17",
      "assetIds": [
        "41506478881403507969696680653240014914910929820314476107906210059990541021186"
      ]
    },
    {
      "x": 215,
      "y": 372,
      "size": 1,
      "price": "4683000000000000000000",
      "reserved": "",
      "salt": "0xd3deb03b73ed2f28ffe36879f32b1c70e2bdc29de4e2ca672621f25b845e1585",
      "assetIds": [
        "41506478881403507969696680653240014914910929820314476107906210059990541021186"
      ]
    },
    {
      "x": 215,
      "y": 373,
      "size": 1,
      "price": "4683000000000000000000",
      "reserved": "",
      "salt": "0x284ffe2469a5deb28178a34b165b4a098016744d3acea3ed270d410ebcb80fd3",
      "assetIds": [
        "41506478881403507969696680653240014914910929820314476107906210059990541021186"
      ]
    },
    {
      "x": 215,
      "y": 374,
      "size": 1,
      "price": "4683000000000000000000",
      "reserved": "",
      "salt": "0x68657a413955b3c4d873c4f304d1b33c37d0e6670aab907c8d04e48d44461ce3",
      "assetIds": [
        "41506478881403507969696680653240014914910929820314476107906210059990541021186"
      ]
    },
    {
      "x": 215,
      "y": 375,
      "size": 1,
      "price": "4683000000000000000000",
      "reserved": "",
      "salt": "0x6cce781391591126f5193e33370823302d1d54385fc19bdea7c5475a58ef7ffb",
      "assetIds": [
        "41506478881403507969696680653240014914910929820314476107906210059990541021186"
      ]
    },
    {
      "x": 215,
      "y": 376,
      "size": 1,
      "price": "4683000000000000000000",
      "reserved": "",
      "salt": "0x69388db6b9b20b324e08624996a314acdbd2007a9b6e21f1867b76c6790ecd8b",
      "assetIds": [
        "41506478881403507969696680653240014914910929820314476107906210059990541021186"
      ]
    },
    {
      "x": 215,
      "y": 377,
      "size": 1,
      "price": "4683000000000000000000",
      "reserved": "",
      "salt": "0x909252d443499868fcbf39055e8ecfc40082f76d920377f9a9f7416ecdb5c1c5",
      "assetIds": [
        "41506478881403507969696680653240014914910929820314476107906210059990541021186"
      ]
    },
    {
      "x": 215,
      "y": 384,
      "size": 1,
      "price": "1011000000000000000000",
      "reserved": "",
      "salt": "0x4366a5ba9a88da2c2748f2781d3b6ddc0b3747c634f838615e520b1d433c32b1",
      "assetIds": []
    },
    {
      "x": 215,
      "y": 385,
      "size": 1,
      "price": "1011000000000000000000",
      "reserved": "",
      "salt": "0xf2d2c6e0acf64c41e1b4851ca224115aa78bf4b1e46b070b4de4dba133a8f3c3",
      "assetIds": []
    },
    {
      "x": 215,
      "y": 386,
      "size": 1,
      "price": "1011000000000000000000",
      "reserved": "",
      "salt": "0x67e21b66723f4514d4778c532e10e02668220892706901153b60f74e57c6861d",
      "assetIds": []
    },
    {
      "x": 215,
      "y": 387,
      "size": 1,
      "price": "1011000000000000000000",
      "reserved": "",
      "salt": "0xd2e6abe888f8cba1ae0fc320894061933e7652a7b87785b96d9a7c8648fbd43c",
      "assetIds": []
    },
    {
      "x": 215,
      "y": 388,
      "size": 1,
      "price": "1011000000000000000000",
      "reserved": "",
      "salt": "0xcd43cb64f40c9cea24b355a39035aec51cb4f98c7e315a2e6c7a4d91b384588b",
      "assetIds": []
    },
    {
      "x": 215,
      "y": 389,
      "size": 1,
      "price": "4683000000000000000000",
      "reserved": "",
      "salt": "0x2e1544d2478831991d4bebb7610e17da2744550d139dfef46e0db4e05dc4a339",
      "assetIds": [
        "41506478881403507969696680653240014914910929820314476107906210059990541021186"
      ]
    },
    {
      "x": 215,
      "y": 396,
      "size": 1,
      "price": "4683000000000000000000",
      "reserved": "",
      "salt": "0x92e219bfe24216e0fbccb4064d0905d0ae4da671b7e3733dc177b2dd08fc4476",
      "assetIds": [
        "41506478881403507969696680653240014914910929820314476107906210059990541021186"
      ]
    },
    {
      "x": 215,
      "y": 397,
      "size": 1,
      "price": "1011000000000000000000",
      "reserved": "0x7a9fe22691c811ea339d9b73150e6911a5343dca",
      "salt": "0xd5fc029f035decd6f39a32f58ad3c03700c378f88c4000f4bba3c0bce332167a",
      "assetIds": []
    },
    {
      "x": 215,
      "y": 398,
      "size": 1,
      "price": "1011000000000000000000",
      "reserved": "",
      "salt": "0xcdc6a4dcc856ed60a697ae07709416222a8a6fabdd4a8e2f9a57bc9e42147770",
      "assetIds": []
    },
    {
      "x": 215,
      "y": 399,
      "size": 1,
      "price": "1011000000000000000000",
      "reserved": "",
      "salt": "0x7e63eb7cfa630a679aa3d6a97a11037a137991b11b1a685802301bd3a4546359",
      "assetIds": []
    },
    {
      "x": 216,
      "y": 357,
      "size": 1,
      "price": "1011000000000000000000",
      "reserved": "",
      "salt": "0x4a69a1d7a39bc7c4d56fa5ad6d0972a159ab182f8a9d82cf555d495db467082c",
      "assetIds": []
    },
    {
      "x": 216,
      "y": 358,
      "size": 1,
      "price": "4683000000000000000000",
      "reserved": "",
      "salt": "0xa9af2f6d024165fa034f7c83a063650fbd0cef6ebf3b51445ce0be558a097ac0",
      "assetIds": [
        "41506478881403507969696680653240014914910929820314476107906210059990541021186"
      ]
    },
    {
      "x": 216,
      "y": 359,
      "size": 1,
      "price": "4683000000000000000000",
      "reserved": "",
      "salt": "0xc1f8510d4796bb83e8c2f948b8c06c96adf9255945a3095d948a898b0c47ede2",
      "assetIds": [
        "41506478881403507969696680653240014914910929820314476107906210059990541021186"
      ]
    },
    {
      "x": 216,
      "y": 384,
      "size": 1,
      "price": "4683000000000000000000",
      "reserved": "",
      "salt": "0x7a75e303c57d384e7260c3af493e1eb9a21d0e0cf09e6cf4ff710787b6387eb6",
      "assetIds": [
        "41506478881403507969696680653240014914910929820314476107906210059990541021186"
      ]
    },
    {
      "x": 216,
      "y": 385,
      "size": 1,
      "price": "4683000000000000000000",
      "reserved": "",
      "salt": "0xd8188f992793c709812d74f75560568355986f46be1c64c1034b24958c3bdfcd",
      "assetIds": [
        "41506478881403507969696680653240014914910929820314476107906210059990541021186"
      ]
    },
    {
      "x": 216,
      "y": 386,
      "size": 1,
      "price": "4683000000000000000000",
      "reserved": "",
      "salt": "0x5ef386f56ca1fcb8a636086dff7cd124d765a11c9f7f7a5b99d0da53d37c2414",
      "assetIds": [
        "41506478881403507969696680653240014914910929820314476107906210059990541021186"
      ]
    },
    {
      "x": 216,
      "y": 387,
      "size": 1,
      "price": "1011000000000000000000",
      "reserved": "",
      "salt": "0x348a2a644891fe7b0c109e915c38f0780303ac0172db2ea5d0e24753d469ad68",
      "assetIds": []
    },
    {
      "x": 216,
      "y": 388,
      "size": 1,
      "price": "1011000000000000000000",
      "reserved": "0x7a9fe22691c811ea339d9b73150e6911a5343dca",
      "salt": "0x83ac8ab18682082c8e3fb5a1fccc87b9447b7470938b5bb3082406c41797b5fe",
      "assetIds": []
    },
    {
      "x": 216,
      "y": 389,
      "size": 1,
      "price": "1011000000000000000000",
      "reserved": "",
      "salt": "0xef4a41499957c89c8287143d50f081050770feaa0293b569ecc2377071edc294",
      "assetIds": []
    },
    {
      "x": 216,
      "y": 390,
      "size": 1,
      "price": "4683000000000000000000",
      "reserved": "",
      "salt": "0x6671efe1e525f183c20551389ab48637a973194136b62bfeafee54548aa696e2",
      "assetIds": [
        "41506478881403507969696680653240014914910929820314476107906210059990541021186"
      ]
    },
    {
      "x": 216,
      "y": 391,
      "size": 1,
      "price": "4683000000000000000000",
      "reserved": "",
      "salt": "0x8b9f9c88c89d8dc005cb501342613f044d88405cf8d82d2b7ca79eb1d2abf06c",
      "assetIds": [
        "41506478881403507969696680653240014914910929820314476107906210059990541021186"
      ]
    },
    {
      "x": 216,
      "y": 392,
      "size": 1,
      "price": "4683000000000000000000",
      "reserved": "",
      "salt": "0x8322084ada21ecbeb40064b407cbc7bf25f4799fb7da7113ae57835dae97e59b",
      "assetIds": [
        "41506478881403507969696680653240014914910929820314476107906210059990541021186"
      ]
    },
    {
      "x": 216,
      "y": 393,
      "size": 1,
      "price": "4683000000000000000000",
      "reserved": "",
      "salt": "0x6412f6b1223347ffc97dfd41b6031b0f43cd1d117c9e2920831480105d8008d3",
      "assetIds": [
        "41506478881403507969696680653240014914910929820314476107906210059990541021186"
      ]
    },
    {
      "x": 216,
      "y": 394,
      "size": 1,
      "price": "4683000000000000000000",
      "reserved": "",
      "salt": "0xfb2b74da55b617b841a8e34f9af2b0c6d4ef2cafc7d70205084d8e0feee0d462",
      "assetIds": [
        "41506478881403507969696680653240014914910929820314476107906210059990541021186"
      ]
    },
    {
      "x": 216,
      "y": 395,
      "size": 1,
      "price": "4683000000000000000000",
      "reserved": "",
      "salt": "0x92f484c842fe69665399b2006c34652f5a317aa6b8e6d4e5070d675d55811f4c",
      "assetIds": [
        "41506478881403507969696680653240014914910929820314476107906210059990541021186"
      ]
    },
    {
      "x": 216,
      "y": 396,
      "size": 1,
      "price": "4683000000000000000000",
      "reserved": "",
      "salt": "0x010319888a88338207bff03075628900667249d5d5e664265db0b6cc3d64cf6a",
      "assetIds": [
        "41506478881403507969696680653240014914910929820314476107906210059990541021186"
      ]
    },
    {
      "x": 216,
      "y": 397,
      "size": 1,
      "price": "1011000000000000000000",
      "reserved": "",
      "salt": "0x89813ecf0a5b9dc71451e5c21b464ce1a4a70ed43226d32cabaf4892addf710c",
      "assetIds": []
    },
    {
      "x": 216,
      "y": 398,
      "size": 1,
      "price": "1011000000000000000000",
      "reserved": "",
      "salt": "0x157e8455a0e6543e1bf4643316a47d5cc8327941d269f72320f06e045852a244",
      "assetIds": []
    },
    {
      "x": 216,
      "y": 399,
      "size": 1,
      "price": "1011000000000000000000",
      "reserved": "",
      "salt": "0x02f139c3bd9be8a161d6d79ce6a594e9c1a34b26227bd44572e4806ce0465daf",
      "assetIds": []
    },
    {
      "x": 217,
      "y": 357,
      "size": 1,
      "price": "1011000000000000000000",
      "reserved": "",
      "salt": "0x6dcfc76c3bc43c473817638729f876a05ea055f1b4d99acd326b7529d0acd186",
      "assetIds": []
    },
    {
      "x": 217,
      "y": 358,
      "size": 1,
      "price": "4683000000000000000000",
      "reserved": "",
      "salt": "0x62763756654594cd7ef6c04b115dfef28e17440933d7a639f496d1c022b70af3",
      "assetIds": [
        "41506478881403507969696680653240014914910929820314476107906210059990541021186"
      ]
    },
    {
      "x": 217,
      "y": 359,
      "size": 1,
      "price": "4683000000000000000000",
      "reserved": "",
      "salt": "0xaa1704d2eb4a0402dfe26ace084ad775b6ae25d594ee732e82f80711479423f8",
      "assetIds": [
        "41506478881403507969696680653240014914910929820314476107906210059990541021186"
      ]
    },
    {
      "x": 217,
      "y": 384,
      "size": 1,
      "price": "4683000000000000000000",
      "reserved": "",
      "salt": "0xc339477f96a68b451377e56a3a5ad7a536e5db0220116df1c4d9a5eb4b379e4e",
      "assetIds": [
        "41506478881403507969696680653240014914910929820314476107906210059990541021186"
      ]
    },
    {
      "x": 217,
      "y": 385,
      "size": 1,
      "price": "4683000000000000000000",
      "reserved": "",
      "salt": "0x7bdf552f448df2f01cc475b56895aa0fd2f9a69076961b6f47578a17255ed1b3",
      "assetIds": [
        "41506478881403507969696680653240014914910929820314476107906210059990541021186"
      ]
    },
    {
      "x": 217,
      "y": 386,
      "size": 1,
      "price": "4683000000000000000000",
      "reserved": "",
      "salt": "0xacbe06ba3ff740fd48b2c6879440231e7c1afd1ab434100c02506f1038307b4e",
      "assetIds": [
        "41506478881403507969696680653240014914910929820314476107906210059990541021186"
      ]
    },
    {
      "x": 217,
      "y": 387,
      "size": 1,
      "price": "1011000000000000000000",
      "reserved": "",
      "salt": "0xded29af192c52d9d4d40e63de16e82f723d0321f0abb2d02c27eb206d758a243",
      "assetIds": []
    },
    {
      "x": 217,
      "y": 388,
      "size": 1,
      "price": "1011000000000000000000",
      "reserved": "0x7a9fe22691c811ea339d9b73150e6911a5343dca",
      "salt": "0x47f83f3c3a8868ee5ea3571e62031f0ec406e8f8703b29bdc6cc7bb0657ff7e7",
      "assetIds": []
    },
    {
      "x": 217,
      "y": 389,
      "size": 1,
      "price": "1011000000000000000000",
      "reserved": "",
      "salt": "0x21f3a84aa450031ef76ca0d4e57bf8af6ca95c84da2f10864a835f19578d87a2",
      "assetIds": []
    },
    {
      "x": 217,
      "y": 390,
      "size": 1,
      "price": "1011000000000000000000",
      "reserved": "",
      "salt": "0x9847e04afa26cfa43086f880c2ec45c460d1c3e3193edcd84117f6b5e4f9515e",
      "assetIds": []
    },
    {
      "x": 217,
      "y": 391,
      "size": 1,
      "price": "1011000000000000000000",
      "reserved": "",
      "salt": "0x26c0758a0aabc4d67b7eec63eb76b66b3676f047028a79bc0617bb7ab7fec2f3",
      "assetIds": []
    },
    {
      "x": 217,
      "y": 392,
      "size": 1,
      "price": "1011000000000000000000",
      "reserved": "0x7a9fe22691c811ea339d9b73150e6911a5343dca",
      "salt": "0x710635041628001820efc3b9e4b713b8ac31ddfceaa9880058db30d61720c609",
      "assetIds": []
    },
    {
      "x": 217,
      "y": 393,
      "size": 1,
      "price": "1011000000000000000000",
      "reserved": "",
      "salt": "0x41fc512467964c0437155cdc3506fb0c532e3a740554ff2dc82792cb73b10590",
      "assetIds": []
    },
    {
      "x": 217,
      "y": 394,
      "size": 1,
      "price": "1011000000000000000000",
      "reserved": "",
      "salt": "0x726a2d462ac687b05e36d8b013a82bb40e80bb8e62fae34510310a2ea58f177e",
      "assetIds": []
    },
    {
      "x": 217,
      "y": 395,
      "size": 1,
      "price": "1011000000000000000000",
      "reserved": "",
      "salt": "0xab84cdd8f8ae4a68f907172bd2d8c0a5075f057dbc0ad840c5f7a3658ab84005",
      "assetIds": []
    },
    {
      "x": 217,
      "y": 396,
      "size": 1,
      "price": "4683000000000000000000",
      "reserved": "",
      "salt": "0xe444d112945778762cb326b39274cfc5babff7aeb80159a4f2a32004893bf34f",
      "assetIds": [
        "41506478881403507969696680653240014914910929820314476107906210059990541021186"
      ]
    },
    {
      "x": 217,
      "y": 397,
      "size": 1,
      "price": "1011000000000000000000",
      "reserved": "",
      "salt": "0x4e6560c8b37a16e73ad21ed837cd0b733b2a040c66a5cf01c752ec25baf7abb5",
      "assetIds": []
    },
    {
      "x": 217,
      "y": 398,
      "size": 1,
      "price": "1011000000000000000000",
      "reserved": "",
      "salt": "0x0e9485341ef78e635062c15154fe240010aa38949740e82cd6d5f9ac1b2601db",
      "assetIds": []
    },
    {
      "x": 217,
      "y": 399,
      "size": 1,
      "price": "1011000000000000000000",
      "reserved": "",
      "salt": "0x0554249f2a21aad34c79c84e05fa4d4a8b734226b922a748f0411a766d7f0de1",
      "assetIds": []
    },
    {
      "x": 218,
      "y": 357,
      "size": 1,
      "price": "1011000000000000000000",
      "reserved": "",
      "salt": "0xa260aed2fb0d1ce609be4ad706f6ac83f5c828c9d6417997d82b296e021c08f4",
      "assetIds": []
    },
    {
      "x": 218,
      "y": 358,
      "size": 1,
      "price": "4683000000000000000000",
      "reserved": "",
      "salt": "0x9d032f58c52dabadbc60796434777f891943fae98fe73b6a1d1d69bb058959db",
      "assetIds": [
        "41506478881403507969696680653240014914910929820314476107906210059990541021186"
      ]
    },
    {
      "x": 218,
      "y": 359,
      "size": 1,
      "price": "4683000000000000000000",
      "reserved": "",
      "salt": "0x0d4b9b6c3e1cf60b439fe11e20f2ab497d4843df70cf36c0c01dbdc82e17fefe",
      "assetIds": [
        "41506478881403507969696680653240014914910929820314476107906210059990541021186"
      ]
    },
    {
      "x": 218,
      "y": 384,
      "size": 1,
      "price": "4683000000000000000000",
      "reserved": "",
      "salt": "0x25f2ae24b56a7669a22bfd00cc2396f4ccf1527e6f29fc10e7dc81a0b3ca563d",
      "assetIds": [
        "41506478881403507969696680653240014914910929820314476107906210059990541021186"
      ]
    },
    {
      "x": 218,
      "y": 385,
      "size": 1,
      "price": "4683000000000000000000",
      "reserved": "",
      "salt": "0xe41a03ba121fd71381d858a9b47c8598714ac6f821d3218da4dd1f13d7bffa20",
      "assetIds": [
        "41506478881403507969696680653240014914910929820314476107906210059990541021186"
      ]
    },
    {
      "x": 218,
      "y": 386,
      "size": 1,
      "price": "4683000000000000000000",
      "reserved": "",
      "salt": "0xe3907f0cd80d6375a01a9de92fe62e0211538b152091f0395c43ef61cac770cc",
      "assetIds": [
        "41506478881403507969696680653240014914910929820314476107906210059990541021186"
      ]
    },
    {
      "x": 218,
      "y": 387,
      "size": 1,
      "price": "1011000000000000000000",
      "reserved": "",
      "salt": "0x775d13aa9385cdf6a022941c99ec1334c16d0b97c6e78724b40ef9ffb00ded4d",
      "assetIds": []
    },
    {
      "x": 218,
      "y": 388,
      "size": 1,
      "price": "1011000000000000000000",
      "reserved": "",
      "salt": "0x96939ab5664db1a974ccf72d24005ef77c02afb424094530a414a8a97d8745aa",
      "assetIds": []
    },
    {
      "x": 218,
      "y": 389,
      "size": 1,
      "price": "1011000000000000000000",
      "reserved": "",
      "salt": "0x83d1156a1e0f905261c5abf99a491324a758fa7c6ad1d3e2cd72cace94b4e09f",
      "assetIds": []
    },
    {
      "x": 218,
      "y": 390,
      "size": 1,
      "price": "1011000000000000000000",
      "reserved": "",
      "salt": "0x7384095b1a008cf6f923d0a66bb86c481699b782fad8bfa6a4dc6ce1fcf87a04",
      "assetIds": []
    },
    {
      "x": 218,
      "y": 391,
      "size": 1,
      "price": "1011000000000000000000",
      "reserved": "",
      "salt": "0x5bf7c5980284d6b892bceaa700489ebaa16a01c4285bd28ab85cb919eac17d9c",
      "assetIds": []
    },
    {
      "x": 218,
      "y": 392,
      "size": 1,
      "price": "1011000000000000000000",
      "reserved": "0x7a9fe22691c811ea339d9b73150e6911a5343dca",
      "salt": "0x8af02f6d75de901482671f485e0c1605937b0f1e607a03c08d7a438d1e012bf6",
      "assetIds": []
    },
    {
      "x": 218,
      "y": 393,
      "size": 1,
      "price": "1011000000000000000000",
      "reserved": "",
      "salt": "0x831244418c15681ad97fa5f55142adbcc1c149ef0b71040e35a730d324f49314",
      "assetIds": []
    },
    {
      "x": 218,
      "y": 394,
      "size": 1,
      "price": "1011000000000000000000",
      "reserved": "0x7a9fe22691c811ea339d9b73150e6911a5343dca",
      "salt": "0x387ef1f64e380cbeed3c62dcaa47f0ff7764c38ab02581549b217538a7a13a08",
      "assetIds": []
    },
    {
      "x": 218,
      "y": 395,
      "size": 1,
      "price": "1011000000000000000000",
      "reserved": "",
      "salt": "0x4640ac309a46560badf204f74bfad54cf96a8470c67336949f898490bfed670c",
      "assetIds": []
    },
    {
      "x": 218,
      "y": 396,
      "size": 1,
      "price": "1011000000000000000000",
      "reserved": "0x7a9fe22691c811ea339d9b73150e6911a5343dca",
      "salt": "0x13eaf3c7e2744cfdad5435fac0fa05cd4c787d85b2d5a855a6b36be89a7adf8c",
      "assetIds": []
    },
    {
      "x": 218,
      "y": 397,
      "size": 1,
      "price": "1011000000000000000000",
      "reserved": "",
      "salt": "0xa92e233abfb5edfd743cd9dcab1ddaf73355d46565727f5337a02152dd35b44e",
      "assetIds": []
    },
    {
      "x": 218,
      "y": 398,
      "size": 1,
      "price": "1011000000000000000000",
      "reserved": "0x7a9fe22691c811ea339d9b73150e6911a5343dca",
      "salt": "0xb95f6d9e24b9453db1446e1d279ad85926fd49cb88667733e4cc9a00a9a69ae1",
      "assetIds": []
    },
    {
      "x": 218,
      "y": 399,
      "size": 1,
      "price": "1011000000000000000000",
      "reserved": "",
      "salt": "0x6069f3e5b302309857b258922ef7f1f14bfa548278ae11a03a962db5ce45012c",
      "assetIds": []
    },
    {
      "x": 219,
      "y": 357,
      "size": 1,
      "price": "1011000000000000000000",
      "reserved": "",
      "salt": "0xf6a50cb146710414c77656d98c7ffe7b0a93678c1ef047b658d447487309836a",
      "assetIds": []
    },
    {
      "x": 219,
      "y": 358,
      "size": 1,
      "price": "4683000000000000000000",
      "reserved": "",
      "salt": "0xe63a655397f7421ca4663bebd7450e84d3fbd2a59a4f7bfcd88006c69b2707b6",
      "assetIds": [
        "41506478881403507969696680653240014914910929820314476107906210059990541021186"
      ]
    },
    {
      "x": 219,
      "y": 359,
      "size": 1,
      "price": "4683000000000000000000",
      "reserved": "",
      "salt": "0x16e8962ede47dd682fc9fe29bff8eb99d3dca027f47379e58634b28d4094ee85",
      "assetIds": [
        "41506478881403507969696680653240014914910929820314476107906210059990541021186"
      ]
    },
    {
      "x": 219,
      "y": 384,
      "size": 1,
      "price": "4683000000000000000000",
      "reserved": "",
      "salt": "0x6b95f03ee09f6152bec40dd3bed23a918812f0cbade2dbe020027dc5b2e2fb95",
      "assetIds": [
        "41506478881403507969696680653240014914910929820314476107906210059990541021186"
      ]
    },
    {
      "x": 219,
      "y": 385,
      "size": 1,
      "price": "4683000000000000000000",
      "reserved": "",
      "salt": "0x4f7d40bf1b7fa75de40d96690f246700ab522afa77ad126f26f518e94c281b5b",
      "assetIds": [
        "41506478881403507969696680653240014914910929820314476107906210059990541021186"
      ]
    },
    {
      "x": 219,
      "y": 386,
      "size": 1,
      "price": "4683000000000000000000",
      "reserved": "",
      "salt": "0xa2c7ab2e9e8bf08fd304ae8b1a3a51361192488c0cc96b90485b1f5134af8de6",
      "assetIds": [
        "41506478881403507969696680653240014914910929820314476107906210059990541021186"
      ]
    },
    {
      "x": 219,
      "y": 387,
      "size": 1,
      "price": "1011000000000000000000",
      "reserved": "0x7a9fe22691c811ea339d9b73150e6911a5343dca",
      "salt": "0xda4f3677956292377ebb1ab70fc4fee90963aef53ed09320dae713959972170b",
      "assetIds": []
    },
    {
      "x": 219,
      "y": 388,
      "size": 1,
      "price": "1011000000000000000000",
      "reserved": "",
      "salt": "0xa6a77c136c38b39577a8db53df300fc27e3be014a3c56002533d0759e91d42ca",
      "assetIds": []
    },
    {
      "x": 219,
      "y": 389,
      "size": 1,
      "price": "1011000000000000000000",
      "reserved": "",
      "salt": "0x4d0b5ebfb3c7f622b7420abf80e1c5bf7fcfb42a9a2051906a70156d1b4883a0",
      "assetIds": []
    },
    {
      "x": 219,
      "y": 390,
      "size": 1,
      "price": "1011000000000000000000",
      "reserved": "",
      "salt": "0x65f0b58f7c75763dea583cce50ee7a2d7a9d66d56b1a857d666e90d034159509",
      "assetIds": []
    },
    {
      "x": 219,
      "y": 391,
      "size": 1,
      "price": "1011000000000000000000",
      "reserved": "",
      "salt": "0xa2aab6b76eb883562572442fbf7bd1e401924941db1d7a4916a373f9e39d43e2",
      "assetIds": []
    },
    {
      "x": 219,
      "y": 392,
      "size": 1,
      "price": "1011000000000000000000",
      "reserved": "",
      "salt": "0xf96ea1ba15d64fc0c9b72436529eaa9c52290aed92b653f695617ac079fa7c2e",
      "assetIds": []
    },
    {
      "x": 219,
      "y": 393,
      "size": 1,
      "price": "1011000000000000000000",
      "reserved": "",
      "salt": "0x53c1e8cb2a45e3706266c769d9ae750bb85bb0b23b4274cecd7b6b068276dac1",
      "assetIds": []
    },
    {
      "x": 219,
      "y": 394,
      "size": 1,
      "price": "1011000000000000000000",
      "reserved": "",
      "salt": "0xa50d5cac393771e202dd8cf86ef55f423d7ee37265b8905d6f5da699e8bc6e14",
      "assetIds": []
    },
    {
      "x": 219,
      "y": 395,
      "size": 1,
      "price": "1011000000000000000000",
      "reserved": "",
      "salt": "0xc52cc1f481190435acea76e20e784b6020658ac6022ecf0fed75b609bed275a0",
      "assetIds": []
    },
    {
      "x": 219,
      "y": 396,
      "size": 1,
      "price": "1011000000000000000000",
      "reserved": "",
      "salt": "0xf3dad0fffcd9e10dec8e2b622886eef76920a4f3e1b588db127d1cfc91af31de",
      "assetIds": []
    },
    {
      "x": 219,
      "y": 397,
      "size": 1,
      "price": "1011000000000000000000",
      "reserved": "",
      "salt": "0x8833cae3219bb04291137b04ca7602219a5206478d4c65e115d538d70d383992",
      "assetIds": []
    },
    {
      "x": 219,
      "y": 398,
      "size": 1,
      "price": "1011000000000000000000",
      "reserved": "",
      "salt": "0xaa358add93bffed431f04eaf22f8643d5f27a66ff5a472dee87e4d3ed2b2cccd",
      "assetIds": []
    },
    {
      "x": 219,
      "y": 399,
      "size": 1,
      "price": "1011000000000000000000",
      "reserved": "",
      "salt": "0xa4a57f591a600b9540f069a39842e344c6e36d3138c8fbbc67d311aa7edca060",
      "assetIds": []
    },
    {
      "x": 220,
      "y": 357,
      "size": 1,
      "price": "1011000000000000000000",
      "reserved": "",
      "salt": "0x808fd9604041b2db27b2404ddb935a02f81735a760c6d65dc538bd50cb834897",
      "assetIds": []
    },
    {
      "x": 220,
      "y": 358,
      "size": 1,
      "price": "4683000000000000000000",
      "reserved": "",
      "salt": "0xf2526e83c8ad7ae2138be217f735c19acb732606c0b257d800b98b73ff6c281d",
      "assetIds": [
        "41506478881403507969696680653240014914910929820314476107906210059990541021186"
      ]
    },
    {
      "x": 220,
      "y": 359,
      "size": 1,
      "price": "4683000000000000000000",
      "reserved": "",
      "salt": "0x69b89fb7331de9450bb50b0cf995c2e7dd2867b931ff9c493d7f0efdddc7faf3",
      "assetIds": [
        "41506478881403507969696680653240014914910929820314476107906210059990541021186"
      ]
    },
    {
      "x": 220,
      "y": 384,
      "size": 1,
      "price": "4683000000000000000000",
      "reserved": "",
      "salt": "0xacacbd9c22421ee74156c3bbb02fd0356aacda742214043bb0a71b1a47a8a528",
      "assetIds": [
        "41506478881403507969696680653240014914910929820314476107906210059990541021186"
      ]
    },
    {
      "x": 220,
      "y": 385,
      "size": 1,
      "price": "4683000000000000000000",
      "reserved": "",
      "salt": "0xd5f446614d89db53bb8af9b65888ff60e04e920a66824d286967648f33af3409",
      "assetIds": [
        "41506478881403507969696680653240014914910929820314476107906210059990541021186"
      ]
    },
    {
      "x": 220,
      "y": 386,
      "size": 1,
      "price": "4683000000000000000000",
      "reserved": "",
      "salt": "0xaa05384720f9bc4a4adc94929c3cf534f68f6913c53eb33d4cb37227a48075a4",
      "assetIds": [
        "41506478881403507969696680653240014914910929820314476107906210059990541021186"
      ]
    },
    {
      "x": 220,
      "y": 387,
      "size": 1,
      "price": "1011000000000000000000",
      "reserved": "",
      "salt": "0xddb28d6b44e8ef040b85420002199bd0f27f9e8ac9aec7e8333f8624667be36d",
      "assetIds": []
    },
    {
      "x": 220,
      "y": 388,
      "size": 1,
      "price": "1011000000000000000000",
      "reserved": "",
      "salt": "0x123b1b0d7a37ff1caf647938b0ddb33fb05113877aae5ca4ea191283e47d8a93",
      "assetIds": []
    },
    {
      "x": 220,
      "y": 389,
      "size": 1,
      "price": "1011000000000000000000",
      "reserved": "",
      "salt": "0x9ba6a02e86cdc71862090c26f4df5830119aa43739ca34a0de34c98a5f817047",
      "assetIds": []
    },
    {
      "x": 220,
      "y": 390,
      "size": 1,
      "price": "1011000000000000000000",
      "reserved": "0x7a9fe22691c811ea339d9b73150e6911a5343dca",
      "salt": "0xd5d72f2a8bdd8da30f80101674c99c799ad60945e7e221a3278c9159df7d335b",
      "assetIds": []
    },
    {
      "x": 220,
      "y": 391,
      "size": 1,
      "price": "1011000000000000000000",
      "reserved": "",
      "salt": "0x02d7589ea6e7d0bb5ac6df8c582f35b367af036416b49e7d572b1e462d0f874e",
      "assetIds": []
    },
    {
      "x": 220,
      "y": 392,
      "size": 1,
      "price": "1011000000000000000000",
      "reserved": "0x7a9fe22691c811ea339d9b73150e6911a5343dca",
      "salt": "0xc70a3080782b33b86e234473bd1d854aa75e47aaa5e95c05b07057dedd2da634",
      "assetIds": []
    },
    {
      "x": 221,
      "y": 357,
      "size": 1,
      "price": "1011000000000000000000",
      "reserved": "",
      "salt": "0x156ec90065d7ba3568adbe5e9dca0c625c7c5d1008f415a568db2c39852bc4cc",
      "assetIds": []
    },
    {
      "x": 221,
      "y": 358,
      "size": 1,
      "price": "4683000000000000000000",
      "reserved": "",
      "salt": "0xd75a0338b9a749a1ec3afb362b2cc7151fd0ba8cffbf474d234a9e1b0f751ab1",
      "assetIds": [
        "41506478881403507969696680653240014914910929820314476107906210059990541021186"
      ]
    },
    {
      "x": 221,
      "y": 359,
      "size": 1,
      "price": "4683000000000000000000",
      "reserved": "",
      "salt": "0xbbf6bb6dbb83c754dcdc7653759a6dd0b1b6dc95c84cd303beba11ca36934954",
      "assetIds": [
        "41506478881403507969696680653240014914910929820314476107906210059990541021186"
      ]
    },
    {
      "x": 221,
      "y": 384,
      "size": 1,
      "price": "4683000000000000000000",
      "reserved": "",
      "salt": "0x8de6d740a54c86c2d6c4976b8bd89eeebec7e224af672b590329b0128114779e",
      "assetIds": [
        "41506478881403507969696680653240014914910929820314476107906210059990541021186"
      ]
    },
    {
      "x": 221,
      "y": 385,
      "size": 1,
      "price": "4683000000000000000000",
      "reserved": "",
      "salt": "0xb37da2633d87d24313bbf2de53cde2605b55d51eea522ff6f2b4f4ee697f1324",
      "assetIds": [
        "41506478881403507969696680653240014914910929820314476107906210059990541021186"
      ]
    },
    {
      "x": 221,
      "y": 386,
      "size": 1,
      "price": "4683000000000000000000",
      "reserved": "",
      "salt": "0xc4a6b4715e653a149ed243de78c445d8da926fe53c28dea8a38d0c6475127d9f",
      "assetIds": [
        "41506478881403507969696680653240014914910929820314476107906210059990541021186"
      ]
    },
    {
      "x": 221,
      "y": 387,
      "size": 1,
      "price": "1011000000000000000000",
      "reserved": "",
      "salt": "0x1aa53c8375bf4a1b38d9a50145b34503f87adeaf9360250863b51aee1d3900b6",
      "assetIds": []
    },
    {
      "x": 221,
      "y": 388,
      "size": 1,
      "price": "1011000000000000000000",
      "reserved": "",
      "salt": "0x7c66f936112a8701a5805653081e42f5b59245bdad18c9c33850df389d838916",
      "assetIds": []
    },
    {
      "x": 221,
      "y": 389,
      "size": 1,
      "price": "1011000000000000000000",
      "reserved": "0x7a9fe22691c811ea339d9b73150e6911a5343dca",
      "salt": "0x5fade556a7ebf774ac35b2b836f6856e0e9e9a5e632ad1dd9b6d05a40737569a",
      "assetIds": []
    },
    {
      "x": 221,
      "y": 390,
      "size": 1,
      "price": "1011000000000000000000",
      "reserved": "",
      "salt": "0xbef52f35d30a9b9af8ed5cf0aea880368c9f318345516bab6790754960939669",
      "assetIds": []
    },
    {
      "x": 221,
      "y": 391,
      "size": 1,
      "price": "1011000000000000000000",
      "reserved": "",
      "salt": "0x19fac18839e7616715ee5ec9279d7c503317065fcc0375c503d3866734ebe79b",
      "assetIds": []
    },
    {
      "x": 222,
      "y": 357,
      "size": 1,
      "price": "1011000000000000000000",
      "reserved": "",
      "salt": "0x9d524c5e2913023174f3a4e6f8821b2729b66bc8a03a02ad6568e9a2f7b1621d",
      "assetIds": []
    },
    {
      "x": 222,
      "y": 358,
      "size": 1,
      "price": "4683000000000000000000",
      "reserved": "",
      "salt": "0xaefa9e934c61149080d862988587692adc7ab395d670820963609a641dfd0d02",
      "assetIds": [
        "41506478881403507969696680653240014914910929820314476107906210059990541021186"
      ]
    },
    {
      "x": 222,
      "y": 359,
      "size": 1,
      "price": "4683000000000000000000",
      "reserved": "",
      "salt": "0xa622626e232170a4f506e29a69c1c287eff66b7d3513b451e271d3bd0d1c829e",
      "assetIds": [
        "41506478881403507969696680653240014914910929820314476107906210059990541021186"
      ]
    },
    {
      "x": 222,
      "y": 384,
      "size": 1,
      "price": "4683000000000000000000",
      "reserved": "",
      "salt": "0x3d894c0536b1777dfd0e2501b2db1e4aae9f9a6c22e600bf8773ef26859046e2",
      "assetIds": [
        "41506478881403507969696680653240014914910929820314476107906210059990541021186"
      ]
    },
    {
      "x": 222,
      "y": 385,
      "size": 1,
      "price": "4683000000000000000000",
      "reserved": "",
      "salt": "0xa4421c857771ea4c28e2099720497b165d146c62b809b4d89b2f64c055e5ae6f",
      "assetIds": [
        "41506478881403507969696680653240014914910929820314476107906210059990541021186"
      ]
    },
    {
      "x": 222,
      "y": 386,
      "size": 1,
      "price": "4683000000000000000000",
      "reserved": "",
      "salt": "0x2b620ed2a0aef50e784c4f3fbbd247e5b2de9679050be8c94afbf4a7af9b6d5a",
      "assetIds": [
        "41506478881403507969696680653240014914910929820314476107906210059990541021186"
      ]
    },
    {
      "x": 222,
      "y": 387,
      "size": 1,
      "price": "1011000000000000000000",
      "reserved": "",
      "salt": "0xf76fd5c9c790518e1b29145b3fc0673f923a2e14cba7eef1cc562349e953e67d",
      "assetIds": []
    },
    {
      "x": 222,
      "y": 388,
      "size": 1,
      "price": "1011000000000000000000",
      "reserved": "",
      "salt": "0x2b9ceb670299ae033ec7b055a8714deceb83c6e4f80741dde30cbc30e1b5f0f9",
      "assetIds": []
    },
    {
      "x": 222,
      "y": 389,
      "size": 1,
      "price": "1011000000000000000000",
      "reserved": "",
      "salt": "0x7ae9fd84c061327d3d916cdaca4fecd0db31e96c87a190f40ff564e7e50e7eee",
      "assetIds": []
    },
    {
      "x": 222,
      "y": 390,
      "size": 1,
      "price": "1011000000000000000000",
      "reserved": "",
      "salt": "0xb2d14987eac33e59288a969ffd31011ebc20dca219b71a4f7696df3453bd9bfa",
      "assetIds": []
    },
    {
      "x": 222,
      "y": 391,
      "size": 1,
      "price": "1011000000000000000000",
      "reserved": "",
      "salt": "0xb81375401e092f4df60fa54d4a35fa29ba14ce9b2b5bde04e6c0df15a6ce37b5",
      "assetIds": []
    },
    {
      "x": 223,
      "y": 357,
      "size": 1,
      "price": "1011000000000000000000",
      "reserved": "",
      "salt": "0x64fa0a08e5a5ac71691449f05ea87d832727a6a84e05dc21dfd2ee9a67a24e28",
      "assetIds": []
    },
    {
      "x": 223,
      "y": 358,
      "size": 1,
      "price": "4683000000000000000000",
      "reserved": "",
      "salt": "0x5e120c1a76e0068d6cc3fcde69c0fa2b5bae97b8337feacdad28a8afc6917e5d",
      "assetIds": [
        "41506478881403507969696680653240014914910929820314476107906210059990541021186"
      ]
    },
    {
      "x": 223,
      "y": 359,
      "size": 1,
      "price": "4683000000000000000000",
      "reserved": "",
      "salt": "0xf29e0a4e05dd037925bef4df48f2c29f7fcabad29909da92659f2e92e632cd42",
      "assetIds": [
        "41506478881403507969696680653240014914910929820314476107906210059990541021186"
      ]
    },
    {
      "x": 223,
      "y": 384,
      "size": 1,
      "price": "4683000000000000000000",
      "reserved": "",
      "salt": "0x43ecafdd7ab0b11000ee2b4e1c3804c71f314d00f90aa40da75f299fef8f5814",
      "assetIds": [
        "41506478881403507969696680653240014914910929820314476107906210059990541021186"
      ]
    },
    {
      "x": 223,
      "y": 385,
      "size": 1,
      "price": "4683000000000000000000",
      "reserved": "",
      "salt": "0x73c1b808726ba4b6641db976887b0f49ae5ddd8766a8aca8a57a74c52e467ea1",
      "assetIds": [
        "41506478881403507969696680653240014914910929820314476107906210059990541021186"
      ]
    },
    {
      "x": 223,
      "y": 386,
      "size": 1,
      "price": "4683000000000000000000",
      "reserved": "",
      "salt": "0xa7f05f0e1c2e3b8b5e3272c123a1103ba0e3affe4de6a6f3279ce3736890c790",
      "assetIds": [
        "41506478881403507969696680653240014914910929820314476107906210059990541021186"
      ]
    },
    {
      "x": 223,
      "y": 387,
      "size": 1,
      "price": "4683000000000000000000",
      "reserved": "",
      "salt": "0xe60121c314cfac2940f18f21279b6955d514a4627a40b940733cbec83a8f9b2d",
      "assetIds": [
        "41506478881403507969696680653240014914910929820314476107906210059990541021186"
      ]
    },
    {
      "x": 223,
      "y": 388,
      "size": 1,
      "price": "4683000000000000000000",
      "reserved": "",
      "salt": "0x64608d6c3b2bf7a539d9d840cdac4c9c604e6f76430daa5dab2ca7216fc2484d",
      "assetIds": [
        "41506478881403507969696680653240014914910929820314476107906210059990541021186"
      ]
    },
    {
      "x": 223,
      "y": 389,
      "size": 1,
      "price": "1011000000000000000000",
      "reserved": "",
      "salt": "0xf48b4533c26a063f515b03e1225a301879b534938e836793ef6dafd0d15d88dd",
      "assetIds": []
    },
    {
      "x": 223,
      "y": 390,
      "size": 1,
      "price": "1011000000000000000000",
      "reserved": "",
      "salt": "0x6c6b539826c4dd36f6806d075a96c04c2a6ea5a4d6d50937edb116993a16032c",
      "assetIds": []
    },
    {
      "x": 223,
      "y": 391,
      "size": 1,
      "price": "1011000000000000000000",
      "reserved": "",
      "salt": "0xd254048ffb4aa4bf019cd209bbc9ff5863314e416b4774af65a0a5c0a2e5be45",
      "assetIds": []
    },
    {
      "x": 224,
      "y": 357,
      "size": 1,
      "price": "1011000000000000000000",
      "reserved": "",
      "salt": "0x5944c5bbff2bc9e30fe14b948d832cfa46ede2a752f7c88dccaa9e1f09b6d0af",
      "assetIds": []
    },
    {
      "x": 224,
      "y": 358,
      "size": 1,
      "price": "4683000000000000000000",
      "reserved": "",
      "salt": "0x8fe900723961b8f8539e1dbed97666635252cbe22c8794e34a76941523bd1ea8",
      "assetIds": [
        "41506478881403507969696680653240014914910929820314476107906210059990541021186"
      ]
    },
    {
      "x": 224,
      "y": 359,
      "size": 1,
      "price": "4683000000000000000000",
      "reserved": "",
      "salt": "0x5fde1f8dffce3e5d7a323827ce504c535abb2ea55e586d1022bd789ec069c6c6",
      "assetIds": [
        "41506478881403507969696680653240014914910929820314476107906210059990541021186"
      ]
    },
    {
      "x": 224,
      "y": 384,
      "size": 1,
      "price": "4683000000000000000000",
      "reserved": "",
      "salt": "0x5807530fbdb88a1d69a8645f99116de7164bce80ef2e2516f20b3d76b3ac23f7",
      "assetIds": [
        "41506478881403507969696680653240014914910929820314476107906210059990541021186"
      ]
    },
    {
      "x": 224,
      "y": 385,
      "size": 1,
      "price": "4683000000000000000000",
      "reserved": "",
      "salt": "0x824f6ac85c3b3f5b8600dea22933ed3a423c11dae172d15cf4382e85975ffa79",
      "assetIds": [
        "41506478881403507969696680653240014914910929820314476107906210059990541021186"
      ]
    },
    {
      "x": 224,
      "y": 386,
      "size": 1,
      "price": "4683000000000000000000",
      "reserved": "",
      "salt": "0x8bfd949aba991aeed72539bb8f340f965ff4c310f4f4cd9a2758e043ee8a5ab0",
      "assetIds": [
        "41506478881403507969696680653240014914910929820314476107906210059990541021186"
      ]
    },
    {
      "x": 224,
      "y": 387,
      "size": 1,
      "price": "4683000000000000000000",
      "reserved": "",
      "salt": "0x627cd68ca9843234f634f7ca912ee4d1b1a4a20819d2700d855b5d36d8b87be8",
      "assetIds": [
        "41506478881403507969696680653240014914910929820314476107906210059990541021186"
      ]
    },
    {
      "x": 224,
      "y": 388,
      "size": 1,
      "price": "4683000000000000000000",
      "reserved": "",
      "salt": "0x43ce8b471949c4c1738e93dc2deb7f351ac7741a5d9ea27faf74adbe15fa8c20",
      "assetIds": [
        "41506478881403507969696680653240014914910929820314476107906210059990541021186"
      ]
    },
    {
      "x": 224,
      "y": 389,
      "size": 1,
      "price": "1011000000000000000000",
      "reserved": "",
      "salt": "0xdf34709289d9d7e5e7fca01205c245d4c9e2377c4932657fa2c4d26e943ec66e",
      "assetIds": []
    },
    {
      "x": 224,
      "y": 390,
      "size": 1,
      "price": "1011000000000000000000",
      "reserved": "",
      "salt": "0x26461df3ca437b35a55f5c6802645279d55f0573723ce55fc870b90eef4610fb",
      "assetIds": []
    },
    {
      "x": 224,
      "y": 391,
      "size": 1,
      "price": "1011000000000000000000",
      "reserved": "",
      "salt": "0x638aaa0dcb4fd0c76654d7a6c5e7367cace6bd39d0d9e2975dd689a2b4ef1242",
      "assetIds": []
    },
    {
      "x": 225,
      "y": 357,
      "size": 1,
      "price": "1011000000000000000000",
      "reserved": "",
      "salt": "0xc376c6793af42b16133e5f10f72a7eff106b660d89531972bceee6e7662f0c54",
      "assetIds": []
    },
    {
      "x": 225,
      "y": 358,
      "size": 1,
      "price": "4683000000000000000000",
      "reserved": "",
      "salt": "0x4a30ce988d97179986f6565723aad9d3d18dff2a48e74c1103e97fc23162b3a7",
      "assetIds": [
        "41506478881403507969696680653240014914910929820314476107906210059990541021186"
      ]
    },
    {
      "x": 225,
      "y": 359,
      "size": 1,
      "price": "4683000000000000000000",
      "reserved": "",
      "salt": "0x93fa7a8617d8a8ed4cb182360f5fb1de55291d774d151ddeda94580ec5e25b40",
      "assetIds": [
        "41506478881403507969696680653240014914910929820314476107906210059990541021186"
      ]
    },
    {
      "x": 225,
      "y": 384,
      "size": 1,
      "price": "4683000000000000000000",
      "reserved": "",
      "salt": "0xa9c8bcd7eafb0c91e0eac8d1956e7b5f334f4c319ee8d6599f87b0b6432146a5",
      "assetIds": [
        "41506478881403507969696680653240014914910929820314476107906210059990541021186"
      ]
    },
    {
      "x": 225,
      "y": 385,
      "size": 1,
      "price": "4683000000000000000000",
      "reserved": "",
      "salt": "0xbcfc130521db4d5d369ade9541f1765eb2a19a0ee5eb999459cbfe7f73654beb",
      "assetIds": [
        "41506478881403507969696680653240014914910929820314476107906210059990541021186"
      ]
    },
    {
      "x": 225,
      "y": 386,
      "size": 1,
      "price": "4683000000000000000000",
      "reserved": "",
      "salt": "0x741f5b199b071cd8d800da9b520a6a03933647cccca3579aa0778ee8ea038d07",
      "assetIds": [
        "41506478881403507969696680653240014914910929820314476107906210059990541021186"
      ]
    },
    {
      "x": 225,
      "y": 387,
      "size": 1,
      "price": "4683000000000000000000",
      "reserved": "",
      "salt": "0x0b4bb1f7fb2843dc1d5350197d3ecdd56d78d8e8dc7e7d0ebf78813c2278e1a8",
      "assetIds": [
        "41506478881403507969696680653240014914910929820314476107906210059990541021186"
      ]
    },
    {
      "x": 225,
      "y": 388,
      "size": 1,
      "price": "4683000000000000000000",
      "reserved": "",
      "salt": "0x405dd40c9bcd08d041ec0da0e85f76fac95edbbeb8a292d92123aff293c6e460",
      "assetIds": [
        "41506478881403507969696680653240014914910929820314476107906210059990541021186"
      ]
    },
    {
      "x": 225,
      "y": 389,
      "size": 1,
      "price": "4683000000000000000000",
      "reserved": "",
      "salt": "0xa5c6dc4013bb5b55d8231d977b7ccf03075c63148eab0738116910eabb0b5d4a",
      "assetIds": [
        "41506478881403507969696680653240014914910929820314476107906210059990541021186"
      ]
    },
    {
      "x": 225,
      "y": 390,
      "size": 1,
      "price": "1011000000000000000000",
      "reserved": "",
      "salt": "0x335b6824dd04f52175ae0b137b84fc27c6664c750f8b74b67b776283bac80f0f",
      "assetIds": []
    },
    {
      "x": 225,
      "y": 391,
      "size": 1,
      "price": "1011000000000000000000",
      "reserved": "",
      "salt": "0xb7d4b7d35496dcc4cd60bc1338ca83b98b82f719a095342b35832535cee9e717",
      "assetIds": []
    },
    {
      "x": 226,
      "y": 357,
      "size": 1,
      "price": "1011000000000000000000",
      "reserved": "",
      "salt": "0x2760ffad0b0eccbe261fce83905c0c1643984925facdaa7b5e2a480763d69f81",
      "assetIds": []
    },
    {
      "x": 226,
      "y": 358,
      "size": 1,
      "price": "4683000000000000000000",
      "reserved": "",
      "salt": "0x331a6590ac02e553d5e811116a3848cacfddd137795c7940ea1fe162e742cf94",
      "assetIds": [
        "41506478881403507969696680653240014914910929820314476107906210059990541021186"
      ]
    },
    {
      "x": 226,
      "y": 359,
      "size": 1,
      "price": "4683000000000000000000",
      "reserved": "",
      "salt": "0xfd9fb7a6b8fe6e0f165a5b0ae0afdc81b24698c41aa4abc8a0ecb8fd501b5e52",
      "assetIds": [
        "41506478881403507969696680653240014914910929820314476107906210059990541021186"
      ]
    },
    {
      "x": 226,
      "y": 384,
      "size": 1,
      "price": "4683000000000000000000",
      "reserved": "",
      "salt": "0x2d6de4cb954cfc9722ac758a9a137d68ef5bf403a71f56d3291c7399376e287f",
      "assetIds": [
        "41506478881403507969696680653240014914910929820314476107906210059990541021186"
      ]
    },
    {
      "x": 226,
      "y": 385,
      "size": 1,
      "price": "4683000000000000000000",
      "reserved": "",
      "salt": "0x8b4e58b47016c8ef15ff40c4a7e79af4c055f892752e39e437807d6913c325e9",
      "assetIds": [
        "41506478881403507969696680653240014914910929820314476107906210059990541021186"
      ]
    },
    {
      "x": 226,
      "y": 386,
      "size": 1,
      "price": "4683000000000000000000",
      "reserved": "",
      "salt": "0x32dc1db5168c47529a968c33f0e05ba0e85a1060f3bf29f66eab50d7b089d6db",
      "assetIds": [
        "41506478881403507969696680653240014914910929820314476107906210059990541021186"
      ]
    },
    {
      "x": 226,
      "y": 387,
      "size": 1,
      "price": "1011000000000000000000",
      "reserved": "0x7a9fe22691c811ea339d9b73150e6911a5343dca",
      "salt": "0x075584fbb5d97f98cbb8d2cf57ce36b043802b083d475e039145b28248b6400d",
      "assetIds": []
    },
    {
      "x": 226,
      "y": 388,
      "size": 1,
      "price": "4683000000000000000000",
      "reserved": "",
      "salt": "0xabc82eb14e1e30fb8904ab815383d98ef6870552d0fb4448adaa1807a0ecd7c8",
      "assetIds": [
        "41506478881403507969696680653240014914910929820314476107906210059990541021186"
      ]
    },
    {
      "x": 226,
      "y": 389,
      "size": 1,
      "price": "4683000000000000000000",
      "reserved": "",
      "salt": "0x70620f80e0e8e3bf4f9f1856436e8fa4928cc4fefd69515aedbe7279b8f4103c",
      "assetIds": [
        "41506478881403507969696680653240014914910929820314476107906210059990541021186"
      ]
    },
    {
      "x": 226,
      "y": 390,
      "size": 1,
      "price": "1011000000000000000000",
      "reserved": "",
      "salt": "0x1f0d483b8f115c2302f05e2aac602ac3cc0cf4301fd9bb178bd8f070b6e94c20",
      "assetIds": []
    },
    {
      "x": 226,
      "y": 391,
      "size": 1,
      "price": "1011000000000000000000",
      "reserved": "",
      "salt": "0xab4055d4b46b97188d28ced2be4a3a3a9c0df84685a0ce1d87e983eb625ce819",
      "assetIds": []
    },
    {
      "x": 227,
      "y": 357,
      "size": 1,
      "price": "1011000000000000000000",
      "reserved": "",
      "salt": "0x29964c93bfdc9b0409f556d07306282835cedb3dd35c42c3ba47dad064bfcb5a",
      "assetIds": []
    },
    {
      "x": 227,
      "y": 358,
      "size": 1,
      "price": "4683000000000000000000",
      "reserved": "",
      "salt": "0x0673770189aa431543859dc04279a6200c92a5a3e75e2eadd8dd0caff95e26a2",
      "assetIds": [
        "41506478881403507969696680653240014914910929820314476107906210059990541021186"
      ]
    },
    {
      "x": 227,
      "y": 359,
      "size": 1,
      "price": "4683000000000000000000",
      "reserved": "",
      "salt": "0xac3feed92f86206bf2ef16197e0f4b7c33239b91f153af4664ee1c4a54489db3",
      "assetIds": [
        "41506478881403507969696680653240014914910929820314476107906210059990541021186"
      ]
    },
    {
      "x": 227,
      "y": 384,
      "size": 1,
      "price": "4683000000000000000000",
      "reserved": "",
      "salt": "0x37c9bb8876978ac3d2c6d54d4e63b5128e5e31c9ffc182a6c03161ecde4ff7b6",
      "assetIds": [
        "41506478881403507969696680653240014914910929820314476107906210059990541021186"
      ]
    },
    {
      "x": 227,
      "y": 385,
      "size": 1,
      "price": "4683000000000000000000",
      "reserved": "",
      "salt": "0x1ff0fd4ca69c93d2c1590eccbcc4fb146d77d4da06f04e8d764985a78f2745d6",
      "assetIds": [
        "41506478881403507969696680653240014914910929820314476107906210059990541021186"
      ]
    },
    {
      "x": 227,
      "y": 386,
      "size": 1,
      "price": "4683000000000000000000",
      "reserved": "",
      "salt": "0x8b4f4cc0e73e658b3231cf319ed4f18d0d4c255b6b030bce88f8c242400f4f49",
      "assetIds": [
        "41506478881403507969696680653240014914910929820314476107906210059990541021186"
      ]
    },
    {
      "x": 227,
      "y": 387,
      "size": 1,
      "price": "4683000000000000000000",
      "reserved": "",
      "salt": "0x279d943c42410c6ac6a542901383ebb2becd21bd5492c131230733b2814b90e3",
      "assetIds": [
        "41506478881403507969696680653240014914910929820314476107906210059990541021186"
      ]
    },
    {
      "x": 227,
      "y": 388,
      "size": 1,
      "price": "4683000000000000000000",
      "reserved": "",
      "salt": "0xfe1c96e1363f34ab58422da9d1672bce707d40e5b5ca186d0c846695104d9658",
      "assetIds": [
        "41506478881403507969696680653240014914910929820314476107906210059990541021186"
      ]
    },
    {
      "x": 227,
      "y": 389,
      "size": 1,
      "price": "4683000000000000000000",
      "reserved": "",
      "salt": "0xd9815f17f74fb61fdff8bbb8883dc02e802b8bbd34f90d28802cbe620d7c2697",
      "assetIds": [
        "41506478881403507969696680653240014914910929820314476107906210059990541021186"
      ]
    },
    {
      "x": 227,
      "y": 390,
      "size": 1,
      "price": "1011000000000000000000",
      "reserved": "",
      "salt": "0xe9d46b5674c69c52be7be50f0c071e58b505ec74c6529bbb0ce73797b870c837",
      "assetIds": []
    },
    {
      "x": 227,
      "y": 391,
      "size": 1,
      "price": "1011000000000000000000",
      "reserved": "",
      "salt": "0xec7bfb446088f93c2803269a6ca7122544a57a8b673f9fbb3e1873e9900d7cdf",
      "assetIds": []
    },
    {
      "x": 228,
      "y": 357,
      "size": 1,
      "price": "1011000000000000000000",
      "reserved": "",
      "salt": "0x914ece7b9158bc2fe8153690d1404fc2f01b1429cb51ec1fe2d93dc4dcb1f860",
      "assetIds": []
    },
    {
      "x": 228,
      "y": 358,
      "size": 1,
      "price": "1011000000000000000000",
      "reserved": "",
      "salt": "0x7884b497d94161d0e5c2613230fe19ae4f0f79d0cfac869d9b486cb3f96ae23f",
      "assetIds": []
    },
    {
      "x": 228,
      "y": 359,
      "size": 1,
      "price": "4683000000000000000000",
      "reserved": "",
      "salt": "0x924159a191e63366896c8865d8b34d922a39151b33952e76bfdf493a6391fd7d",
      "assetIds": [
        "41506478881403507969696680653240014914910929820314476107906210059990541021186"
      ]
    },
    {
      "x": 228,
      "y": 384,
      "size": 1,
      "price": "4683000000000000000000",
      "reserved": "",
      "salt": "0xb4e1a37ce1d8507c11a912f66bc7002333b7779d9f8fb49fc9d3a5e809e9c786",
      "assetIds": [
        "41506478881403507969696680653240014914910929820314476107906210059990541021186"
      ]
    },
    {
      "x": 228,
      "y": 385,
      "size": 1,
      "price": "4683000000000000000000",
      "reserved": "",
      "salt": "0x934b38fe4e9d37b526187e54e012ec1e9cd8f62b5721c42d7d4fd7f1a1564495",
      "assetIds": [
        "41506478881403507969696680653240014914910929820314476107906210059990541021186"
      ]
    },
    {
      "x": 228,
      "y": 386,
      "size": 1,
      "price": "1011000000000000000000",
      "reserved": "",
      "salt": "0x3e999c07c2f03b09d5fc3de3f36874d20f635a8e7a60b2872b5835d5acbcd4ea",
      "assetIds": []
    },
    {
      "x": 228,
      "y": 387,
      "size": 1,
      "price": "4683000000000000000000",
      "reserved": "",
      "salt": "0xf20ed02f902c18b3f684400daea4baa1b4495f4d5c5a72e2fab6dc794f0931cd",
      "assetIds": [
        "41506478881403507969696680653240014914910929820314476107906210059990541021186"
      ]
    },
    {
      "x": 228,
      "y": 388,
      "size": 1,
      "price": "4683000000000000000000",
      "reserved": "",
      "salt": "0x638430fe6cc06f50573b4efe6ce9b4c222087d601002876c53b1e60f39314bea",
      "assetIds": [
        "41506478881403507969696680653240014914910929820314476107906210059990541021186"
      ]
    },
    {
      "x": 228,
      "y": 389,
      "size": 1,
      "price": "4683000000000000000000",
      "reserved": "",
      "salt": "0x0e670f9d453af392d14035ec303be1026ec6be79b9b48fcea83230189899cfef",
      "assetIds": [
        "41506478881403507969696680653240014914910929820314476107906210059990541021186"
      ]
    },
    {
      "x": 228,
      "y": 390,
      "size": 1,
      "price": "1011000000000000000000",
      "reserved": "",
      "salt": "0x854316acdfc497355e906fd30e0fae9af2c3cc4719d636e1bada3cad9083074c",
      "assetIds": []
    },
    {
      "x": 229,
      "y": 358,
      "size": 1,
      "price": "1011000000000000000000",
      "reserved": "",
      "salt": "0x85fdb848ddec7ee34ad26e01585de52c16b66380917d3dddb18dbf266fd1ced4",
      "assetIds": []
    },
    {
      "x": 229,
      "y": 359,
      "size": 1,
      "price": "4683000000000000000000",
      "reserved": "",
      "salt": "0x2973cdd0167728e3b9bc0f0b61eecae1bbe84ccf13e0c5caa6b5bdb34718976d",
      "assetIds": [
        "41506478881403507969696680653240014914910929820314476107906210059990541021186"
      ]
    },
    {
      "x": 229,
      "y": 384,
      "size": 1,
      "price": "4683000000000000000000",
      "reserved": "",
      "salt": "0xa4bd58a3ade015cccd766c58c23bdf1eff817a0ef2fe375b62171b17c75b7f1b",
      "assetIds": [
        "41506478881403507969696680653240014914910929820314476107906210059990541021186"
      ]
    },
    {
      "x": 229,
      "y": 385,
      "size": 1,
      "price": "4683000000000000000000",
      "reserved": "",
      "salt": "0x93dda6c6fab09d1665d547321491a664ab1facf883db4c56d404c22c3c5e0414",
      "assetIds": [
        "41506478881403507969696680653240014914910929820314476107906210059990541021186"
      ]
    },
    {
      "x": 229,
      "y": 386,
      "size": 1,
      "price": "1011000000000000000000",
      "reserved": "",
      "salt": "0x1019fa488b285b3d5c46d510cf12a7f81f95ad47284f7b3197b0ee9360a696ba",
      "assetIds": []
    },
    {
      "x": 229,
      "y": 387,
      "size": 1,
      "price": "1011000000000000000000",
      "reserved": "0x7a9fe22691c811ea339d9b73150e6911a5343dca",
      "salt": "0x5ae04263de6427f2505ba5eba7c2243e20e7279572838be0d31895515ac9c621",
      "assetIds": []
    },
    {
      "x": 229,
      "y": 388,
      "size": 1,
      "price": "4683000000000000000000",
      "reserved": "",
      "salt": "0x91e14189aa91f43deb0ebbf13b8d26cd314caa40f8a29b5cd94a0f343962662e",
      "assetIds": [
        "41506478881403507969696680653240014914910929820314476107906210059990541021186"
      ]
    },
    {
      "x": 229,
      "y": 389,
      "size": 1,
      "price": "4683000000000000000000",
      "reserved": "",
      "salt": "0xfd407cffa4e40ee80b9572c02a129b888c0893c4c22677cc82801dba4620859b",
      "assetIds": [
        "41506478881403507969696680653240014914910929820314476107906210059990541021186"
      ]
    },
    {
      "x": 229,
      "y": 390,
      "size": 1,
      "price": "1011000000000000000000",
      "reserved": "",
      "salt": "0xe3be9e9b9eaa31e746bed593f656037a01ae11a81fbfb7c07411d5e364ee7ce4",
      "assetIds": []
    },
    {
      "x": 230,
      "y": 358,
      "size": 1,
      "price": "1011000000000000000000",
      "reserved": "",
      "salt": "0x139549110fbd2ff8eba8087bfb9d04a962fb33bf4c89564afb7599b0d9b2e602",
      "assetIds": []
    },
    {
      "x": 230,
      "y": 359,
      "size": 1,
      "price": "4683000000000000000000",
      "reserved": "",
      "salt": "0x7cc1dc81c19916e84e3e49103b8ffe9edb4b9345363bb833f7f84133da46c0ed",
      "assetIds": [
        "41506478881403507969696680653240014914910929820314476107906210059990541021186"
      ]
    },
    {
      "x": 230,
      "y": 384,
      "size": 1,
      "price": "4683000000000000000000",
      "reserved": "",
      "salt": "0x5fb31d9f42e220fe248f7e6deebc8bc9be3f284d1755c93459dc8e63bc263d90",
      "assetIds": [
        "41506478881403507969696680653240014914910929820314476107906210059990541021186"
      ]
    },
    {
      "x": 230,
      "y": 385,
      "size": 1,
      "price": "4683000000000000000000",
      "reserved": "",
      "salt": "0x1c59104707fba40537fd5b98a31c21a3b4b1763b415fecebcd91d45e2a4fd567",
      "assetIds": [
        "41506478881403507969696680653240014914910929820314476107906210059990541021186"
      ]
    },
    {
      "x": 230,
      "y": 386,
      "size": 1,
      "price": "1011000000000000000000",
      "reserved": "",
      "salt": "0xefd0a1d4d54f2f704bca28c4d45bf1b3c785a45274a4bc53fdc175eae28dc952",
      "assetIds": []
    },
    {
      "x": 230,
      "y": 387,
      "size": 1,
      "price": "4683000000000000000000",
      "reserved": "",
      "salt": "0xb24a9119e76ae502cf768052e95b8b4c002dc3ddbd33fbb45cac46734f5f589f",
      "assetIds": [
        "41506478881403507969696680653240014914910929820314476107906210059990541021186"
      ]
    },
    {
      "x": 230,
      "y": 388,
      "size": 1,
      "price": "4683000000000000000000",
      "reserved": "",
      "salt": "0x9661e0174fc1adb8817d76293538c7d8988aa68e9af51d1967ce00f096c31cb3",
      "assetIds": [
        "41506478881403507969696680653240014914910929820314476107906210059990541021186"
      ]
    },
    {
      "x": 230,
      "y": 389,
      "size": 1,
      "price": "4683000000000000000000",
      "reserved": "",
      "salt": "0x63712301dd2fb6b6e8a69b086eec78ba2d18f6ae69849f1db73d5d4a2ee65650",
      "assetIds": [
        "41506478881403507969696680653240014914910929820314476107906210059990541021186"
      ]
    },
    {
      "x": 230,
      "y": 390,
      "size": 1,
      "price": "1011000000000000000000",
      "reserved": "",
      "salt": "0xcf4764abf858d08d52d1e9c4eb96904a5f430349343411f8c9b52d0db67dc8fc",
      "assetIds": []
    },
    {
      "x": 231,
      "y": 358,
      "size": 1,
      "price": "1011000000000000000000",
      "reserved": "",
      "salt": "0x6c11862cf7e82145d78181608da9fc25049e7be3ef3dcbef5968c62d4c4a7dc2",
      "assetIds": []
    },
    {
      "x": 231,
      "y": 359,
      "size": 1,
      "price": "4683000000000000000000",
      "reserved": "",
      "salt": "0x84ed9a588a30a359ba94d4d7adc5d8eb217bcc8cd9ae760489506ffec880b4c1",
      "assetIds": [
        "41506478881403507969696680653240014914910929820314476107906210059990541021186"
      ]
    },
    {
      "x": 231,
      "y": 384,
      "size": 1,
      "price": "4683000000000000000000",
      "reserved": "",
      "salt": "0x377d93d31537eeca1f41cb17a480fd56bccfeced0544b8fa1f2dc86afeccd397",
      "assetIds": [
        "41506478881403507969696680653240014914910929820314476107906210059990541021186"
      ]
    },
    {
      "x": 231,
      "y": 385,
      "size": 1,
      "price": "1011000000000000000000",
      "reserved": "",
      "salt": "0xe1de1ccc5e1aff6780f5ab3abd5757a3ca3cd8dd509a7004e69dde031c79c4f5",
      "assetIds": []
    },
    {
      "x": 231,
      "y": 386,
      "size": 1,
      "price": "1011000000000000000000",
      "reserved": "0x7a9fe22691c811ea339d9b73150e6911a5343dca",
      "salt": "0x34a4f4383617411e3e58955cd0a6e3d4e0b4dbc83f04950ebf749051bd3213e7",
      "assetIds": []
    },
    {
      "x": 231,
      "y": 387,
      "size": 1,
      "price": "4683000000000000000000",
      "reserved": "",
      "salt": "0x7b7b5eb63114779e4208cd84cdb733c9bc833498b6d480f4379897d4f58c7efb",
      "assetIds": [
        "41506478881403507969696680653240014914910929820314476107906210059990541021186"
      ]
    },
    {
      "x": 231,
      "y": 388,
      "size": 1,
      "price": "4683000000000000000000",
      "reserved": "",
      "salt": "0xd305f40bb3417168ed19b433cb0fe67feba64be8575c8fa07a6dd9a60488c18f",
      "assetIds": [
        "41506478881403507969696680653240014914910929820314476107906210059990541021186"
      ]
    },
    {
      "x": 231,
      "y": 389,
      "size": 1,
      "price": "4683000000000000000000",
      "reserved": "",
      "salt": "0xd4f8228f1c553c44184fd9119d58b7f53faaebf2611cb18fffe5bd91779a9117",
      "assetIds": [
        "41506478881403507969696680653240014914910929820314476107906210059990541021186"
      ]
    },
    {
      "x": 231,
      "y": 390,
      "size": 1,
      "price": "1011000000000000000000",
      "reserved": "",
      "salt": "0x734e77e7ccbbb3a3e5da805be2945cc8bcf6cdabd811d86eddbd2b2a5160ba86",
      "assetIds": []
    },
    {
      "x": 232,
      "y": 358,
      "size": 1,
      "price": "1011000000000000000000",
      "reserved": "",
      "salt": "0x0122753b4d00f78d28aedba71fd9e0e6613bc8d9ea3d8adde5cb04ee448e8721",
      "assetIds": []
    },
    {
      "x": 232,
      "y": 359,
      "size": 1,
      "price": "4683000000000000000000",
      "reserved": "",
      "salt": "0x1556cf178bc8b1c1c22d958c4aa49e40cf9589e9ac007cafd9d172812f70cd43",
      "assetIds": [
        "41506478881403507969696680653240014914910929820314476107906210059990541021186"
      ]
    },
    {
      "x": 232,
      "y": 384,
      "size": 1,
      "price": "4683000000000000000000",
      "reserved": "",
      "salt": "0x5a42cca764f55c611867f5ccbfceb7ae3c1c0a3532dcd7038978d05c037ced9f",
      "assetIds": [
        "41506478881403507969696680653240014914910929820314476107906210059990541021186"
      ]
    },
    {
      "x": 232,
      "y": 385,
      "size": 1,
      "price": "1011000000000000000000",
      "reserved": "",
      "salt": "0x1dea0bf316aed04e6a6d38d217633b539cf64308238374f4d93e4224bd00f52a",
      "assetIds": []
    },
    {
      "x": 232,
      "y": 386,
      "size": 1,
      "price": "1011000000000000000000",
      "reserved": "",
      "salt": "0xb365fde776e8065c3879c6f991b6be6d381339a1452b570ca3e9b4807f36dd8a",
      "assetIds": []
    },
    {
      "x": 232,
      "y": 387,
      "size": 1,
      "price": "4683000000000000000000",
      "reserved": "",
      "salt": "0xdd8ed07ee2ed9427308e2e6b8180cc4f3400e3a6f732d45a5ccb6d3db57aed1c",
      "assetIds": [
        "41506478881403507969696680653240014914910929820314476107906210059990541021186"
      ]
    },
    {
      "x": 232,
      "y": 388,
      "size": 1,
      "price": "4683000000000000000000",
      "reserved": "",
      "salt": "0x322bf1eaf9512d06f4bbb2bed52d572eaa22b6210e427b856c25a5b5fc9a0403",
      "assetIds": [
        "41506478881403507969696680653240014914910929820314476107906210059990541021186"
      ]
    },
    {
      "x": 232,
      "y": 389,
      "size": 1,
      "price": "4683000000000000000000",
      "reserved": "",
      "salt": "0x61e229b9501a2989d31653ced21dd4b4070aa72bb3f209499b819e675b1b00a0",
      "assetIds": [
        "41506478881403507969696680653240014914910929820314476107906210059990541021186"
      ]
    },
    {
      "x": 232,
      "y": 390,
      "size": 1,
      "price": "1011000000000000000000",
      "reserved": "",
      "salt": "0x41c519c7217a3b2c21ef5abe150d7837e4e4b4553016e25cc04c8f83469e25d2",
      "assetIds": []
    },
    {
      "x": 233,
      "y": 359,
      "size": 1,
      "price": "4683000000000000000000",
      "reserved": "",
      "salt": "0x45aff75664fef184b9e502f0a015a6beea37b71110f41c853360d521886b2eaf",
      "assetIds": [
        "41506478881403507969696680653240014914910929820314476107906210059990541021186"
      ]
    },
    {
      "x": 233,
      "y": 384,
      "size": 1,
      "price": "4683000000000000000000",
      "reserved": "",
      "salt": "0x3f5c52ffaac243033dfcd9b7e7b511c7b73ce2a6c2591ed844b445b202916760",
      "assetIds": [
        "41506478881403507969696680653240014914910929820314476107906210059990541021186"
      ]
    },
    {
      "x": 233,
      "y": 385,
      "size": 1,
      "price": "1011000000000000000000",
      "reserved": "",
      "salt": "0xa49e8e71fd0723e0a8d2e66c5cd9f505bd12895dd1a51f0eb21ce1ff66e775c4",
      "assetIds": []
    },
    {
      "x": 233,
      "y": 386,
      "size": 1,
      "price": "1011000000000000000000",
      "reserved": "",
      "salt": "0xedaf0b7d798862181d50a304be3c087d55c91fb56b248484bba200aad314b174",
      "assetIds": []
    },
    {
      "x": 233,
      "y": 387,
      "size": 1,
      "price": "1011000000000000000000",
      "reserved": "",
      "salt": "0x083f04c8497cfd8f6323cd53f353467507107e1a227ed5d2280b5565de2fe610",
      "assetIds": []
    },
    {
      "x": 233,
      "y": 388,
      "size": 1,
      "price": "1011000000000000000000",
      "reserved": "",
      "salt": "0xe961c2d7f8aecad5ffee98c1d5f6a568a16af6c814839b4f07ebf2e8e6287079",
      "assetIds": []
    },
    {
      "x": 233,
      "y": 389,
      "size": 1,
      "price": "1011000000000000000000",
      "reserved": "",
      "salt": "0x68ff25d41622179328c709921db42a72964cb8c91879729f0721b9d5cb4186d5",
      "assetIds": []
    },
    {
      "x": 233,
      "y": 390,
      "size": 1,
      "price": "1011000000000000000000",
      "reserved": "0x7a9fe22691c811ea339d9b73150e6911a5343dca",
      "salt": "0xb950db694c4ac8b5593b84d83614ddcad6dfcccfb4bae22d6106e2affd24c330",
      "assetIds": []
    },
    {
      "x": 234,
      "y": 359,
      "size": 1,
      "price": "4683000000000000000000",
      "reserved": "",
      "salt": "0x77c18be401c91681c96de86adffe1e3eb5dd9a64536cfe29d34ba5e4e52c9f14",
      "assetIds": [
        "41506478881403507969696680653240014914910929820314476107906210059990541021186"
      ]
    },
    {
      "x": 234,
      "y": 384,
      "size": 1,
      "price": "4683000000000000000000",
      "reserved": "",
      "salt": "0x2497747440de41f7d4a690e66969a21d65bd825838ba072ff22e076a2687a1ba",
      "assetIds": [
        "41506478881403507969696680653240014914910929820314476107906210059990541021186"
      ]
    },
    {
      "x": 234,
      "y": 385,
      "size": 1,
      "price": "4683000000000000000000",
      "reserved": "",
      "salt": "0x8c0a27d4e94a71964794eed068cde116138bf48306f3d72335aaef7dfdcd794d",
      "assetIds": [
        "41506478881403507969696680653240014914910929820314476107906210059990541021186"
      ]
    },
    {
      "x": 234,
      "y": 386,
      "size": 1,
      "price": "1011000000000000000000",
      "reserved": "",
      "salt": "0x3a57520f6a8696a33574b63865f57c3e7a95d4b4c8c70fba9c68ad7cf9534450",
      "assetIds": []
    },
    {
      "x": 234,
      "y": 387,
      "size": 1,
      "price": "1011000000000000000000",
      "reserved": "",
      "salt": "0x66d445ab3c2b4c896731e2fe5a07ddfd38d62e71b500be2303ce88e3ec482f12",
      "assetIds": []
    },
    {
      "x": 234,
      "y": 388,
      "size": 1,
      "price": "1011000000000000000000",
      "reserved": "",
      "salt": "0xb2f0194e3c4378afcbcd80ebf01fc9e7eb27315ea2157a393af47cf0a8f1a0b7",
      "assetIds": []
    },
    {
      "x": 234,
      "y": 389,
      "size": 1,
      "price": "1011000000000000000000",
      "reserved": "",
      "salt": "0x59016f2c4cfe132be89609ca026baca438281e57aa207206fec7fc446039524f",
      "assetIds": []
    },
    {
      "x": 235,
      "y": 358,
      "size": 1,
      "price": "1011000000000000000000",
      "reserved": "",
      "salt": "0x26e0db52e39e395d15fd20be89f61a2620b763db0df11a5cbf985abe775b1f01",
      "assetIds": []
    },
    {
      "x": 235,
      "y": 359,
      "size": 1,
      "price": "4683000000000000000000",
      "reserved": "",
      "salt": "0x675424d9f7df01cf3352b6e7657146b0f8065503c3e54c100bf48baf675062d7",
      "assetIds": [
        "41506478881403507969696680653240014914910929820314476107906210059990541021186"
      ]
    },
    {
      "x": 235,
      "y": 384,
      "size": 1,
      "price": "4683000000000000000000",
      "reserved": "",
      "salt": "0x4a36d3fd41e2d435ebe0ae63d9810232badbcfec6016327046f0c0ac40b55d2e",
      "assetIds": [
        "41506478881403507969696680653240014914910929820314476107906210059990541021186"
      ]
    },
    {
      "x": 235,
      "y": 385,
      "size": 1,
      "price": "4683000000000000000000",
      "reserved": "",
      "salt": "0xc36a44e839a9a6163d09b514206ba438ad8575a01d3b92383cc3dda85a463bc4",
      "assetIds": [
        "41506478881403507969696680653240014914910929820314476107906210059990541021186"
      ]
    },
    {
      "x": 235,
      "y": 386,
      "size": 1,
      "price": "4683000000000000000000",
      "reserved": "",
      "salt": "0xdbdc6f60e7129922feb924528bb2c86127bb02163299675b9ae40785c0b7ee1a",
      "assetIds": [
        "41506478881403507969696680653240014914910929820314476107906210059990541021186"
      ]
    },
    {
      "x": 235,
      "y": 387,
      "size": 1,
      "price": "1011000000000000000000",
      "reserved": "",
      "salt": "0xd02fa77d48b96096a31ee45cc88057bcbaeedd83a6f18f53d68f9790ffb764be",
      "assetIds": []
    },
    {
      "x": 236,
      "y": 358,
      "size": 1,
      "price": "1011000000000000000000",
      "reserved": "",
      "salt": "0x59039dd3509bdc3bbddf115be5ed093954d0e8b46732f991aa0c3ac87e9ee2c6",
      "assetIds": []
    },
    {
      "x": 236,
      "y": 359,
      "size": 1,
      "price": "4683000000000000000000",
      "reserved": "",
      "salt": "0x7784be15bb7908102679246054b913841cc93772f82784259706fca23cbde501",
      "assetIds": [
        "41506478881403507969696680653240014914910929820314476107906210059990541021186"
      ]
    },
    {
      "x": 236,
      "y": 384,
      "size": 1,
      "price": "4683000000000000000000",
      "reserved": "",
      "salt": "0xd2600fbdd5baf862191c338990faa284a750f1e78f73e0e8d8da3f6d6cff3dbd",
      "assetIds": [
        "41506478881403507969696680653240014914910929820314476107906210059990541021186"
      ]
    },
    {
      "x": 236,
      "y": 385,
      "size": 1,
      "price": "1011000000000000000000",
      "reserved": "",
      "salt": "0xe36809ac39530df857671ec7e82a1c461ba4b7cdb147964f7c09ac3dc42421bb",
      "assetIds": []
    },
    {
      "x": 236,
      "y": 386,
      "size": 1,
      "price": "1011000000000000000000",
      "reserved": "",
      "salt": "0x67ececcb5ad52b1c34561ad154a536f376be40157c62aa1e4b24c177e67adc61",
      "assetIds": []
    },
    {
      "x": 236,
      "y": 387,
      "size": 1,
      "price": "1011000000000000000000",
      "reserved": "0x7a9fe22691c811ea339d9b73150e6911a5343dca",
      "salt": "0x1056e3d2bde3eced0af9b83bcffec91528c33ac06b15f0c387b199b41391fbac",
      "assetIds": []
    },
    {
      "x": 237,
      "y": 358,
      "size": 1,
      "price": "1011000000000000000000",
      "reserved": "",
      "salt": "0xa0711b72d7c543484fa07160615566bceb9ab3932f3d9ef138971ce11599b49a",
      "assetIds": []
    },
    {
      "x": 237,
      "y": 359,
      "size": 1,
      "price": "4683000000000000000000",
      "reserved": "",
      "salt": "0xe77cc3440c34ef93732da996cb4d73372c862a205fca9c0a2baa1a40ebb2b0ad",
      "assetIds": [
        "41506478881403507969696680653240014914910929820314476107906210059990541021186"
      ]
    },
    {
      "x": 237,
      "y": 384,
      "size": 1,
      "price": "4683000000000000000000",
      "reserved": "",
      "salt": "0xdc2a194727ce89a4d627d8ea9a6346d0c0185dd93f96fa42b711a0373a2fcc6a",
      "assetIds": [
        "41506478881403507969696680653240014914910929820314476107906210059990541021186"
      ]
    },
    {
      "x": 237,
      "y": 385,
      "size": 1,
      "price": "1011000000000000000000",
      "reserved": "",
      "salt": "0xc9fd0bcc1f854f80e52bb1b15b7fab39c7f24b0e1c60099caf49ae9e2710e192",
      "assetIds": []
    },
    {
      "x": 237,
      "y": 386,
      "size": 1,
      "price": "1011000000000000000000",
      "reserved": "",
      "salt": "0x7d7ff6169ee55391168264a86ac2fc0c8fac8c116f64c9121d124583817a4fd0",
      "assetIds": []
    },
    {
      "x": 238,
      "y": 358,
      "size": 1,
      "price": "4683000000000000000000",
      "reserved": "",
      "salt": "0x16cc33f117a778aa55b506cbb6deb8a52315afbf91b2d16fc004c72af5e34cfa",
      "assetIds": [
        "41506478881403507969696680653240014914910929820314476107906210059990541021186"
      ]
    },
    {
      "x": 238,
      "y": 359,
      "size": 1,
      "price": "4683000000000000000000",
      "reserved": "",
      "salt": "0xb90cf11d739633443e0ead536362e82fe022b6146098b9fca56bf6e9b1da7d5f",
      "assetIds": [
        "41506478881403507969696680653240014914910929820314476107906210059990541021186"
      ]
    },
    {
      "x": 238,
      "y": 384,
      "size": 1,
      "price": "4683000000000000000000",
      "reserved": "",
      "salt": "0xb5972e2e532b18b59449f6a165c0c2e14ea6665837ebb7b93e2763f734dfe56d",
      "assetIds": [
        "41506478881403507969696680653240014914910929820314476107906210059990541021186"
      ]
    },
    {
      "x": 238,
      "y": 385,
      "size": 1,
      "price": "1011000000000000000000",
      "reserved": "",
      "salt": "0x04d7ed8c0dd4e2175918a10878ffa28c0eb22f8b0c0731f25c4c6e583b7e2629",
      "assetIds": []
    },
    {
      "x": 238,
      "y": 386,
      "size": 1,
      "price": "1011000000000000000000",
      "reserved": "",
      "salt": "0x795de4d3cad98e15f913c05ed52a471eaffc9efd7b57b20fde549e7f16c9cec2",
      "assetIds": []
    },
    {
      "x": 239,
      "y": 358,
      "size": 1,
      "price": "4683000000000000000000",
      "reserved": "",
      "salt": "0x5bcd0c9ac8379708e0c48a65d392751574eb468a4c009f5436fb16f500be2515",
      "assetIds": [
        "41506478881403507969696680653240014914910929820314476107906210059990541021186"
      ]
    },
    {
      "x": 239,
      "y": 359,
      "size": 1,
      "price": "4683000000000000000000",
      "reserved": "",
      "salt": "0xc18706ea0992eda74405e2e9d3be7446f16bf796765e322c155d6cb9fb12e9eb",
      "assetIds": [
        "41506478881403507969696680653240014914910929820314476107906210059990541021186"
      ]
    },
    {
      "x": 239,
      "y": 384,
      "size": 1,
      "price": "4683000000000000000000",
      "reserved": "",
      "salt": "0x0efa73a125a8d6f231113b01f0c9935a2e3fd7e374d7fa3e48782916e8662d66",
      "assetIds": [
        "41506478881403507969696680653240014914910929820314476107906210059990541021186"
      ]
    },
    {
      "x": 239,
      "y": 385,
      "size": 1,
      "price": "4683000000000000000000",
      "reserved": "",
      "salt": "0x90ba991250d0191aed865eae47814934342662b7a43ad1ab38dd18dce9e2e875",
      "assetIds": [
        "41506478881403507969696680653240014914910929820314476107906210059990541021186"
      ]
    },
    {
      "x": 239,
      "y": 386,
      "size": 1,
      "price": "1011000000000000000000",
      "reserved": "",
      "salt": "0xeb1d515705bea75d1fc42b67fd2a271515bb69adf3e015adc31db5d7f85f65ce",
      "assetIds": []
    },
    {
      "x": 240,
      "y": 360,
      "size": 1,
      "price": "4683000000000000000000",
      "reserved": "",
      "salt": "0xf527cebf2f3e537575ffb752ea90a6a9030d08474f8b9a8f40415b29cce32e7c",
      "assetIds": [
        "41506478881403507969696680653240014914910929820314476107906210059990541021186"
      ]
    },
    {
      "x": 240,
      "y": 361,
      "size": 1,
      "price": "4683000000000000000000",
      "reserved": "",
      "salt": "0xdec28b156581d768eab2ab3b67b69d010cf9533d4fda770fc55c29a6f86fde4f",
      "assetIds": [
        "41506478881403507969696680653240014914910929820314476107906210059990541021186"
      ]
    },
    {
      "x": 240,
      "y": 362,
      "size": 1,
      "price": "4683000000000000000000",
      "reserved": "",
      "salt": "0x2deafaa49a280d66b21abd2192504a92907721af904d44e08b9e07a48693e46a",
      "assetIds": [
        "41506478881403507969696680653240014914910929820314476107906210059990541021186"
      ]
    },
    {
      "x": 240,
      "y": 363,
      "size": 1,
      "price": "4683000000000000000000",
      "reserved": "",
      "salt": "0xfcd418ae9baeb5781e19e3a7696faab9f9d669dbbe9dfbd64c6536a6fe238b45",
      "assetIds": [
        "41506478881403507969696680653240014914910929820314476107906210059990541021186"
      ]
    },
    {
      "x": 240,
      "y": 364,
      "size": 1,
      "price": "4683000000000000000000",
      "reserved": "",
      "salt": "0x4a7085e5f128d7716cea8eb5dafd8b6608b73d6c96ed2540e529fb8b210020b9",
      "assetIds": [
        "41506478881403507969696680653240014914910929820314476107906210059990541021186"
      ]
    },
    {
      "x": 240,
      "y": 365,
      "size": 1,
      "price": "4683000000000000000000",
      "reserved": "",
      "salt": "0x8e6d4f30d856ebb3b0de4e48c47418f3f2700a2775abfb64ca900536660a6bea",
      "assetIds": [
        "41506478881403507969696680653240014914910929820314476107906210059990541021186"
      ]
    },
    {
      "x": 240,
      "y": 366,
      "size": 1,
      "price": "4683000000000000000000",
      "reserved": "",
      "salt": "0x46a0b2e303ccc8f35934975b02c662ed12c5f61154389ea967f2c4a2980ac622",
      "assetIds": [
        "41506478881403507969696680653240014914910929820314476107906210059990541021186"
      ]
    },
    {
      "x": 240,
      "y": 367,
      "size": 1,
      "price": "4683000000000000000000",
      "reserved": "",
      "salt": "0xabb8a36b6ac29349f40ce0567342649003aa8904ce1055bfd73309fd563a10cf",
      "assetIds": [
        "41506478881403507969696680653240014914910929820314476107906210059990541021186"
      ]
    },
    {
      "x": 240,
      "y": 368,
      "size": 1,
      "price": "4683000000000000000000",
      "reserved": "",
      "salt": "0xa8aecf539da4082a8ac41a4e23e3b4c18cdd63ba00dd7ad8ea6b719be0e5b620",
      "assetIds": [
        "41506478881403507969696680653240014914910929820314476107906210059990541021186"
      ]
    },
    {
      "x": 240,
      "y": 369,
      "size": 1,
      "price": "4683000000000000000000",
      "reserved": "",
      "salt": "0x994ca17499931590bca435f7e79fae0584f30ef94800f04788fdc115fe95da1f",
      "assetIds": [
        "41506478881403507969696680653240014914910929820314476107906210059990541021186"
      ]
    },
    {
      "x": 240,
      "y": 370,
      "size": 1,
      "price": "4683000000000000000000",
      "reserved": "",
      "salt": "0x1649bd1ca248389ee4e31244d17f7122d6763a43dc43bf2acf8e20567191da03",
      "assetIds": [
        "41506478881403507969696680653240014914910929820314476107906210059990541021186"
      ]
    },
    {
      "x": 240,
      "y": 371,
      "size": 1,
      "price": "4683000000000000000000",
      "reserved": "",
      "salt": "0xd90e939dd05cf37d982dbf402f4c6990a856eb639f2da5af194126222e1a1114",
      "assetIds": [
        "41506478881403507969696680653240014914910929820314476107906210059990541021186"
      ]
    },
    {
      "x": 240,
      "y": 372,
      "size": 1,
      "price": "4683000000000000000000",
      "reserved": "",
      "salt": "0x967863254dea7230a6bfd7b31b8373dc3d05742ecb2c316735e80f27c024c8fd",
      "assetIds": [
        "41506478881403507969696680653240014914910929820314476107906210059990541021186"
      ]
    },
    {
      "x": 240,
      "y": 373,
      "size": 1,
      "price": "4683000000000000000000",
      "reserved": "",
      "salt": "0x743f41a6e840033d6ef53b3a3901b31ba9274919c842cf54a28226ab25bdc77a",
      "assetIds": [
        "41506478881403507969696680653240014914910929820314476107906210059990541021186"
      ]
    },
    {
      "x": 240,
      "y": 374,
      "size": 1,
      "price": "4683000000000000000000",
      "reserved": "",
      "salt": "0x56457d1ee0e14ac160814a16ff9a356df1bc62b41382b6ee3b7fffc8d10501a6",
      "assetIds": [
        "41506478881403507969696680653240014914910929820314476107906210059990541021186"
      ]
    },
    {
      "x": 240,
      "y": 375,
      "size": 1,
      "price": "4683000000000000000000",
      "reserved": "",
      "salt": "0xea89f4697be2a8740e27fd09f3f87d5343cdc0b46c37a86dad2a39fad0655ceb",
      "assetIds": [
        "41506478881403507969696680653240014914910929820314476107906210059990541021186"
      ]
    },
    {
      "x": 240,
      "y": 376,
      "size": 1,
      "price": "4683000000000000000000",
      "reserved": "",
      "salt": "0x49e54ea87ee338116861337ee3eb69eec975e8973d7376fc861e6a3fe7d865ba",
      "assetIds": [
        "41506478881403507969696680653240014914910929820314476107906210059990541021186"
      ]
    },
    {
      "x": 240,
      "y": 377,
      "size": 1,
      "price": "4683000000000000000000",
      "reserved": "",
      "salt": "0x13151f050d363c6165f9cc184eaa80caa1c45abbe65970e7b5813a3ab6bd8e04",
      "assetIds": [
        "41506478881403507969696680653240014914910929820314476107906210059990541021186"
      ]
    },
    {
      "x": 240,
      "y": 378,
      "size": 1,
      "price": "4683000000000000000000",
      "reserved": "",
      "salt": "0xc71372a4d62f8bed097ee6f09e9ccc4041fc1e0f65a12e914e1f273ec0575c98",
      "assetIds": [
        "41506478881403507969696680653240014914910929820314476107906210059990541021186"
      ]
    },
    {
      "x": 240,
      "y": 379,
      "size": 1,
      "price": "4683000000000000000000",
      "reserved": "",
      "salt": "0x4fdac4bd5ba83e0e7d4c057a2d28f76742f906620441bd00aa970990de3880b9",
      "assetIds": [
        "41506478881403507969696680653240014914910929820314476107906210059990541021186"
      ]
    },
    {
      "x": 240,
      "y": 380,
      "size": 1,
      "price": "4683000000000000000000",
      "reserved": "",
      "salt": "0x1422b10fd4e12c4fd0bb824da2c2bab49d3ddbb70e40ebd56e56869d3d1bff4b",
      "assetIds": [
        "41506478881403507969696680653240014914910929820314476107906210059990541021186"
      ]
    },
    {
      "x": 240,
      "y": 381,
      "size": 1,
      "price": "4683000000000000000000",
      "reserved": "",
      "salt": "0xcb0f4397334e3b33d16eff69ed5f56fe518fd3e6651e5e1d28e3e1846d0e29e6",
      "assetIds": [
        "41506478881403507969696680653240014914910929820314476107906210059990541021186"
      ]
    },
    {
      "x": 240,
      "y": 382,
      "size": 1,
      "price": "4683000000000000000000",
      "reserved": "",
      "salt": "0x3f76fffa2371c454b228de3bd15b9c7bb758812ed32a2118fe9540ae2198d7b0",
      "assetIds": [
        "41506478881403507969696680653240014914910929820314476107906210059990541021186"
      ]
    },
    {
      "x": 240,
      "y": 383,
      "size": 1,
      "price": "4683000000000000000000",
      "reserved": "",
      "salt": "0xbf7f25c46a9ebc76cc8ca587a4c5e2f68326f86fe718ecc16eb3f2c0aa05ffa9",
      "assetIds": [
        "41506478881403507969696680653240014914910929820314476107906210059990541021186"
      ]
    },
    {
      "x": 241,
      "y": 360,
      "size": 1,
      "price": "4683000000000000000000",
      "reserved": "",
      "salt": "0xae1da9624ea1dddd6f25e0e89571c17d243d7585b233d0d6eaaab58a20a61411",
      "assetIds": [
        "41506478881403507969696680653240014914910929820314476107906210059990541021186"
      ]
    },
    {
      "x": 241,
      "y": 361,
      "size": 1,
      "price": "4683000000000000000000",
      "reserved": "",
      "salt": "0x6fddc28812706014dd8a6e8ad686fa003164b890c9573cfe1d11f074502b3c71",
      "assetIds": [
        "41506478881403507969696680653240014914910929820314476107906210059990541021186"
      ]
    },
    {
      "x": 241,
      "y": 362,
      "size": 1,
      "price": "4683000000000000000000",
      "reserved": "",
      "salt": "0x5898e0bc932fea10960b09e30e4d497972b0394db40ddeb3f94df15f9387d8c3",
      "assetIds": [
        "41506478881403507969696680653240014914910929820314476107906210059990541021186"
      ]
    },
    {
      "x": 241,
      "y": 363,
      "size": 1,
      "price": "1011000000000000000000",
      "reserved": "",
      "salt": "0xb015943cbda4b372bd2397dc12a53de5986e388d38b0dcd11a605ed649f84c46",
      "assetIds": []
    },
    {
      "x": 241,
      "y": 364,
      "size": 1,
      "price": "1011000000000000000000",
      "reserved": "",
      "salt": "0xafd54297ebe2eba3aaf6143578787bb86bf86b89c5795c5a638d5fa4337dda6c",
      "assetIds": []
    },
    {
      "x": 241,
      "y": 365,
      "size": 1,
      "price": "1011000000000000000000",
      "reserved": "",
      "salt": "0x8338bcb99b60a987cd3f1adc97febe561403bffb9e6ce1f34f0bf393a17a4526",
      "assetIds": []
    },
    {
      "x": 241,
      "y": 366,
      "size": 1,
      "price": "4683000000000000000000",
      "reserved": "",
      "salt": "0x8bed6265f74e0816ef58b4f50dc893e05d3be1a53e4f4263281f73823a03c6f7",
      "assetIds": [
        "41506478881403507969696680653240014914910929820314476107906210059990541021186"
      ]
    },
    {
      "x": 241,
      "y": 367,
      "size": 1,
      "price": "4683000000000000000000",
      "reserved": "",
      "salt": "0x02d9720745b11475b9793cbd18b475fac084532c8da22318f3b8e2fc8a91a7ec",
      "assetIds": [
        "41506478881403507969696680653240014914910929820314476107906210059990541021186"
      ]
    },
    {
      "x": 241,
      "y": 368,
      "size": 1,
      "price": "4683000000000000000000",
      "reserved": "",
      "salt": "0x8968cd2649537568f04b29cddf843f2647ce2f521c9b2c67ae4a284b9599a171",
      "assetIds": [
        "41506478881403507969696680653240014914910929820314476107906210059990541021186"
      ]
    },
    {
      "x": 241,
      "y": 369,
      "size": 1,
      "price": "1011000000000000000000",
      "reserved": "",
      "salt": "0x7e0cf44380a31ab9864cd40248b15b793b856fced563e989b088ff0b88053e8e",
      "assetIds": []
    },
    {
      "x": 241,
      "y": 370,
      "size": 1,
      "price": "1011000000000000000000",
      "reserved": "",
      "salt": "0x95caa17e868c992c47e1a1f4f034525eea5a4cf28be67169346c46cb4fb171cf",
      "assetIds": []
    },
    {
      "x": 241,
      "y": 371,
      "size": 1,
      "price": "1011000000000000000000",
      "reserved": "",
      "salt": "0x6fc1ce42fcbed1ddce7a8adf9b9f43abc9700cf077b97d0df02855867060365d",
      "assetIds": []
    },
    {
      "x": 241,
      "y": 372,
      "size": 1,
      "price": "4683000000000000000000",
      "reserved": "",
      "salt": "0xd3d6e1da0e9524b8d7c96a049c39a964642c7a5e944ab6971219463ec2b26a5a",
      "assetIds": [
        "41506478881403507969696680653240014914910929820314476107906210059990541021186"
      ]
    },
    {
      "x": 241,
      "y": 373,
      "size": 1,
      "price": "4683000000000000000000",
      "reserved": "",
      "salt": "0x2c228ec16947894104416aa381e95305ea14b29fc2670671d261a4c6e5162643",
      "assetIds": [
        "41506478881403507969696680653240014914910929820314476107906210059990541021186"
      ]
    },
    {
      "x": 241,
      "y": 374,
      "size": 1,
      "price": "4683000000000000000000",
      "reserved": "",
      "salt": "0xe2f71e461246ae59aa7ae3ccd937ee7c98330ba4e6ae706ea983a8cd8121c751",
      "assetIds": [
        "41506478881403507969696680653240014914910929820314476107906210059990541021186"
      ]
    },
    {
      "x": 241,
      "y": 375,
      "size": 1,
      "price": "1011000000000000000000",
      "reserved": "",
      "salt": "0xb6505f172182561310fb4d5d32c581a330bc0a19871b3c8b15699c4a76ad4346",
      "assetIds": []
    },
    {
      "x": 241,
      "y": 376,
      "size": 1,
      "price": "1011000000000000000000",
      "reserved": "",
      "salt": "0x8d8fd9621a204c4a3028391bcd3abc5748571a6da44708b8c1e7319549c0e187",
      "assetIds": []
    },
    {
      "x": 241,
      "y": 377,
      "size": 1,
      "price": "1011000000000000000000",
      "reserved": "",
      "salt": "0x81b92f63c26189182cd392bdb1746614bc4fc55395e9241a9f591ce57a6f7fd2",
      "assetIds": []
    },
    {
      "x": 241,
      "y": 378,
      "size": 1,
      "price": "4683000000000000000000",
      "reserved": "",
      "salt": "0x207aa75bb200e75a071b15ce20024a8da50c91a6077755b3c1570363a29e9786",
      "assetIds": [
        "41506478881403507969696680653240014914910929820314476107906210059990541021186"
      ]
    },
    {
      "x": 241,
      "y": 379,
      "size": 1,
      "price": "4683000000000000000000",
      "reserved": "",
      "salt": "0x98ed9efb6be38d6175695352c43fdfd54620463d8095ad5010f5bbb95a63bdd0",
      "assetIds": [
        "41506478881403507969696680653240014914910929820314476107906210059990541021186"
      ]
    },
    {
      "x": 241,
      "y": 380,
      "size": 1,
      "price": "4683000000000000000000",
      "reserved": "",
      "salt": "0x1a178d9187bc9ba30662461108b1e08da4b3a48eeac08fad1c7777a687eb508f",
      "assetIds": [
        "41506478881403507969696680653240014914910929820314476107906210059990541021186"
      ]
    },
    {
      "x": 241,
      "y": 381,
      "size": 1,
      "price": "1011000000000000000000",
      "reserved": "",
      "salt": "0x20e5200f9ea2310f246ae13ceaf758e46518830540f952e3a7556c77b96af091",
      "assetIds": []
    },
    {
      "x": 241,
      "y": 382,
      "size": 1,
      "price": "1011000000000000000000",
      "reserved": "",
      "salt": "0x5bd15e3fb73be9d703f5acbe81830096927c3c7558c1f14749d5671ed7f5938c",
      "assetIds": []
    },
    {
      "x": 241,
      "y": 383,
      "size": 1,
      "price": "1011000000000000000000",
      "reserved": "",
      "salt": "0x0b3c334a16e066dd69c527478bb7eef65e940d8560fb45e3c59dbbad915a3ec4",
      "assetIds": []
    },
    {
      "x": 242,
      "y": 360,
      "size": 1,
      "price": "4683000000000000000000",
      "reserved": "",
      "salt": "0x8fda4d45afedbb80dfcc83c5b6a11023d8e980872775ab3bf4f0f4bd28fc5767",
      "assetIds": [
        "41506478881403507969696680653240014914910929820314476107906210059990541021186"
      ]
    },
    {
      "x": 242,
      "y": 361,
      "size": 1,
      "price": "1011000000000000000000",
      "reserved": "",
      "salt": "0x3fec7417503b6c3bfddc512d38fd8e0b7d6bf36f31fbf11abe8d139a7f919602",
      "assetIds": []
    },
    {
      "x": 242,
      "y": 362,
      "size": 1,
      "price": "1011000000000000000000",
      "reserved": "",
      "salt": "0xa4717ed838bb085ade2dda422e5989eaaa741de7840823340cfb5db48790e652",
      "assetIds": []
    },
    {
      "x": 242,
      "y": 363,
      "size": 1,
      "price": "1011000000000000000000",
      "reserved": "",
      "salt": "0x8c60b87f051558d1e4610ee82054b365fd23665b79421212a493c8fad6c37cc4",
      "assetIds": []
    },
    {
      "x": 242,
      "y": 364,
      "size": 1,
      "price": "1011000000000000000000",
      "reserved": "",
      "salt": "0x8f6d6edf7470905ab1322f6446d8b0ae6b252aefbf21d46e7bf73147bcbb63b8",
      "assetIds": []
    },
    {
      "x": 242,
      "y": 365,
      "size": 1,
      "price": "1011000000000000000000",
      "reserved": "",
      "salt": "0x36d610d8682978df681bd869a9c0d396f9b1c659045434ee728e9d80a55bdbed",
      "assetIds": []
    },
    {
      "x": 242,
      "y": 366,
      "size": 1,
      "price": "1011000000000000000000",
      "reserved": "",
      "salt": "0x5fafef769ae17a6416762a4140a45a9e72581b2afe740889f0bbc3d42e083b9b",
      "assetIds": []
    },
    {
      "x": 242,
      "y": 367,
      "size": 1,
      "price": "1011000000000000000000",
      "reserved": "",
      "salt": "0xab323393c392b7f4ac581982d80a14b30428bd6faba040d455dee256c741255f",
      "assetIds": []
    },
    {
      "x": 242,
      "y": 368,
      "size": 1,
      "price": "1011000000000000000000",
      "reserved": "",
      "salt": "0x450785828bbfab768f64fb2547db92480f1c1d7163cd86d148c44fee6043a817",
      "assetIds": []
    },
    {
      "x": 242,
      "y": 369,
      "size": 1,
      "price": "1011000000000000000000",
      "reserved": "",
      "salt": "0x279d7b8539b2ebe683c8a803521054abe315eb19c17487eb86537b499ab54498",
      "assetIds": []
    },
    {
      "x": 242,
      "y": 370,
      "size": 1,
      "price": "1011000000000000000000",
      "reserved": "",
      "salt": "0xa3da7025c4b5d7cf080c3893d810a161c8d1745de9f68f2982535386b8868e11",
      "assetIds": []
    },
    {
      "x": 242,
      "y": 371,
      "size": 1,
      "price": "1011000000000000000000",
      "reserved": "",
      "salt": "0xc873e81a54ee357fd757d03f4dfc03affb975e6014a2afb35bc1acc2d534ffae",
      "assetIds": []
    },
    {
      "x": 242,
      "y": 372,
      "size": 1,
      "price": "1011000000000000000000",
      "reserved": "",
      "salt": "0x08d3395defd7c1d78dfac06771dc431da3a19070cf22a38ce3d4908d30c7a26b",
      "assetIds": []
    },
    {
      "x": 242,
      "y": 373,
      "size": 1,
      "price": "1011000000000000000000",
      "reserved": "",
      "salt": "0x930b136fff89a990b464fb1d7f20007b11557bbe886ab9afb1ed21de4d2724ba",
      "assetIds": []
    },
    {
      "x": 242,
      "y": 374,
      "size": 1,
      "price": "1011000000000000000000",
      "reserved": "",
      "salt": "0xfd3dc15de1e5593c071b7972b98fce111d9d92e38105a20239f8711590490117",
      "assetIds": []
    },
    {
      "x": 242,
      "y": 375,
      "size": 1,
      "price": "1011000000000000000000",
      "reserved": "",
      "salt": "0x22516d2c3b15fad39e2f1869630fc41b8aa2e251f45827f90ec0dc1a345fe2d2",
      "assetIds": []
    },
    {
      "x": 242,
      "y": 376,
      "size": 1,
      "price": "1011000000000000000000",
      "reserved": "",
      "salt": "0x4c7c9ed9814f87390dd4f4227f4b066db390159b9a224823bf9d9e8e0b4d1928",
      "assetIds": []
    },
    {
      "x": 242,
      "y": 377,
      "size": 1,
      "price": "1011000000000000000000",
      "reserved": "",
      "salt": "0x45936bfe6a34a32c58e882093495ca032079e74e32efc45b8c918c924c6f4591",
      "assetIds": []
    },
    {
      "x": 242,
      "y": 378,
      "size": 1,
      "price": "1011000000000000000000",
      "reserved": "",
      "salt": "0x16caed4f6e8e8c69003ec1db0ad92124bce950d461d1d355bd0bbc01504fdac0",
      "assetIds": []
    },
    {
      "x": 242,
      "y": 379,
      "size": 1,
      "price": "1011000000000000000000",
      "reserved": "",
      "salt": "0xea2fd6945ebd9a01ec10d938cce91552749342cd0d0804a4050548038ab4f008",
      "assetIds": []
    },
    {
      "x": 242,
      "y": 380,
      "size": 1,
      "price": "1011000000000000000000",
      "reserved": "",
      "salt": "0xdbb47c8deb662ac44bca0385b41b19bc1de0fb230371428bec807e0b741955d3",
      "assetIds": []
    },
    {
      "x": 242,
      "y": 381,
      "size": 1,
      "price": "1011000000000000000000",
      "reserved": "",
      "salt": "0xed907ea12a7f55463c6545766bf5388672c8d1e087b20443aa2ea4a2ec4960ba",
      "assetIds": []
    },
    {
      "x": 242,
      "y": 382,
      "size": 1,
      "price": "1011000000000000000000",
      "reserved": "0x7a9fe22691c811ea339d9b73150e6911a5343dca",
      "salt": "0xc7d45a2ab344afbda4fae495de0cc45ede2539db0895c22cff6a7b60d8cd7fc1",
      "assetIds": []
    },
    {
      "x": 242,
      "y": 383,
      "size": 1,
      "price": "1011000000000000000000",
      "reserved": "0x7a9fe22691c811ea339d9b73150e6911a5343dca",
      "salt": "0x00bbba477d458872f322c10e1b01b33def3909dcb51d66513b8f8e3947100b00",
      "assetIds": []
    },
    {
      "x": 171,
      "y": 393,
      "size": 3,
      "price": "8648000000000000000000",
      "reserved": "0x7a9fe22691c811ea339d9b73150e6911a5343dca",
      "salt": "0xa8a91660682a51e6603b52dd56567718e8b6379a0aead7bed4356384c56943f0",
      "assetIds": []
    },
    {
      "x": 180,
      "y": 399,
      "size": 3,
      "price": "8648000000000000000000",
      "reserved": "0x7a9fe22691c811ea339d9b73150e6911a5343dca",
      "salt": "0xbc073a26a9ec02b4958947f7d6f3abc58687c32908b5eb3e51886eb799d34092",
      "assetIds": []
    },
    {
      "x": 201,
      "y": 387,
      "size": 3,
      "price": "8648000000000000000000",
      "reserved": "0x7a9fe22691c811ea339d9b73150e6911a5343dca",
      "salt": "0xdbeb23b0f1287fa6127a3f327870f092e6b6ccda7173448bff42cfa2a3a3e361",
      "assetIds": []
    },
    {
      "x": 207,
      "y": 402,
      "size": 3,
      "price": "8648000000000000000000",
      "reserved": "0x7a9fe22691c811ea339d9b73150e6911a5343dca",
      "salt": "0xe4a49f0590692b84a1d27d633f68cc1af57b2badaa6ac4d91bf7539bcd0f3d49",
      "assetIds": []
    },
    {
      "x": 213,
      "y": 366,
      "size": 3,
      "price": "8648000000000000000000",
      "reserved": "0x7a9fe22691c811ea339d9b73150e6911a5343dca",
      "salt": "0xa7056acb7d27fe7b84ae2c99f6b03822966cd74b10bdc89bb3d4a1185fc89c2f",
      "assetIds": []
    },
    {
      "x": 174,
      "y": 396,
      "size": 6,
      "price": "32772000000000000000000",
      "reserved": "0x7a9fe22691c811ea339d9b73150e6911a5343dca",
      "salt": "0xa57ce00fc9e670f9511b594f014bb2ba2399ffdc48ccb0ea30359fcb09324ef6",
      "assetIds": []
    },
    {
      "x": 186,
      "y": 384,
      "size": 6,
      "price": "32772000000000000000000",
      "reserved": "0x7a9fe22691c811ea339d9b73150e6911a5343dca",
      "salt": "0x6189b376af3b69e9ffbc7982aed93e5b637521574dabf0d68b1b0df2d6972336",
      "assetIds": []
    },
    {
      "x": 198,
      "y": 372,
      "size": 6,
      "price": "32772000000000000000000",
      "reserved": "0x7a9fe22691c811ea339d9b73150e6911a5343dca",
      "salt": "0x843e0af5065f4ae7c4c7706386758bcca5d76e51be3a31590d6a609570c16731",
      "assetIds": []
    },
    {
      "x": 198,
      "y": 390,
      "size": 6,
      "price": "32772000000000000000000",
      "reserved": "0x7a9fe22691c811ea339d9b73150e6911a5343dca",
      "salt": "0xafc5dcee9b66463b660d498b04956eb9f4a35782c64cfc093bf543223b86ec76",
      "assetIds": []
    },
    {
      "x": 210,
      "y": 378,
      "size": 6,
      "price": "32772000000000000000000",
      "reserved": "0x7a9fe22691c811ea339d9b73150e6911a5343dca",
      "salt": "0x7f2f8aa06760a71897e32b0f7647df9f2cec83efdd378478fa5aba678069bd56",
      "assetIds": []
    },
    {
      "x": 210,
      "y": 390,
      "size": 6,
      "price": "32772000000000000000000",
      "reserved": "0x7a9fe22691c811ea339d9b73150e6911a5343dca",
      "salt": "0xe305a7527938737f3afc36373194976f2fc26edad9dc632153c9ecbc8acebca0",
      "assetIds": []
    },
    {
      "x": 192,
      "y": 360,
      "size": 12,
      "price": "123806000000000000000000",
      "reserved": "0x7a9fe22691c811ea339d9b73150e6911a5343dca",
      "salt": "0xaa7e0d89b30617b3d257f287c076aa27695af8532a49c317d6972876325e3c2a",
      "assetIds": []
    },
    {
      "x": 216,
      "y": 360,
      "size": 24,
      "price": "466102000000000000000000",
      "reserved": "0x7a9fe22691c811ea339d9b73150e6911a5343dca",
      "salt": "0x8e3588a2485cd83600b00acddf39e25903592c4786e54bcb9d7645bef7f8010d",
      "assetIds": []
    }
  ],
  "solcInputHash": "313f455adab9ae93096e43acc50d7d38",
  "bytecode": "0x610160604052620d2f006005556103e860075534801561001e57600080fd5b5060405161242e38038061242e833981810160405261018081101561004257600080fd5b50805160208201516040830151606080850151608086015160a08088015160c0808a015160e08b01516101008c01516101208d01516101408e0151610160909e0151600280546001600160a01b0319166001600160a01b03861617905560038390558d8b1b6001600160601b0319908116909852998c901b909616909352999a9899979895979496929590949391926100dc8a600161014a565b600680546001600160a01b03199081166001600160a01b039a8b1617909155610140979097526101209590955260008054909616979096169690961790935550606093841b6001600160601b031990811660e05292841b831660805290921b1661010052506101ae92505050565b6001600160a01b038216600081815260016020908152604091829020805460ff191685151590811790915582519384529083015280517fb21eb88b4e33b3f1281830a7178d74d8aa73220416215726b68ae23d539515cb9281900390910190a15050565b60805160601c60a05160601c60c05160601c60e05160601c6101005160601c61012051610140516121fb610233600039806109375280611d44525080610913528061139a525080611da45250806115d252806116f4525080610c50528061159c5280611dd852508061166152806116c5525080610dfa528061190852506121fb6000f3fe608060405234801561001057600080fd5b50600436106101515760003560e01c8063984d6252116100cd578063dc5074af11610081578063ecb255b511610066578063ecb255b514610857578063f23a6e6114610874578063f2e7b3811461090957610151565b8063dc5074af14610814578063e56f8a9e1461083a57610151565b8063bc197c81116100b2578063bc197c81146105d3578063c10a420814610735578063caed35001461080c57610151565b8063984d6252146104db578063b522ecff146105ad57610151565b80636e9960c3116101245780638a04af6a116101095780638a04af6a1461032a5780638a12b82f146103585780638f283970146104b557610151565b80636e9960c3146102fe57806377f1c3ac1461032257610151565b806325cb5bc014610156578063495906571461017057806358bc29441461017857806365194ce7146101a0575b600080fd5b61015e610911565b60408051918252519081900360200190f35b61015e610935565b61019e6004803603602081101561018e57600080fd5b50356001600160a01b0316610959565b005b610246600480360360208110156101b657600080fd5b8101906020810181356401000000008111156101d157600080fd5b8201836020820111156101e357600080fd5b8035906020019184600183028401116401000000008311171561020557600080fd5b91908080601f016020809104026020016040519081016040528093929190818152602001838380828437600092019190915250929550610a04945050505050565b6040518080602001866001600160a01b03166001600160a01b03168152602001856001600160a01b03166001600160a01b03168152602001848152602001838152602001828103825287818151815260200191508051906020019080838360005b838110156102bf5781810151838201526020016102a7565b50505050905090810190601f1680156102ec5780820380516001836020036101000a031916815260200191505b50965050505050505060405180910390f35b610306610b09565b604080516001600160a01b039092168252519081900360200190f35b61015e610b18565b61019e6004803603604081101561034057600080fd5b506001600160a01b0381351690602001351515610b1e565b61019e600480360361018081101561036f57600080fd5b6001600160a01b038235811692602081013582169260408201359092169160608201359160808101359160a08201359160c08101359160e0820135916101008101359181019061014081016101208201356401000000008111156103d257600080fd5b8201836020820111156103e457600080fd5b8035906020019184602083028401116401000000008311171561040657600080fd5b91939092909160208101903564010000000081111561042457600080fd5b82018360208201111561043657600080fd5b8035906020019184602083028401116401000000008311171561045857600080fd5b91939092909160208101903564010000000081111561047657600080fd5b82018360208201111561048857600080fd5b803590602001918460018302840111640100000000831117156104aa57600080fd5b509092509050610b75565b61019e600480360360208110156104cb57600080fd5b50356001600160a01b0316610cc3565b61019e600480360360608110156104f157600080fd5b6001600160a01b03823516919081019060408101602082013564010000000081111561051c57600080fd5b82018360208201111561052e57600080fd5b8035906020019184602083028401116401000000008311171561055057600080fd5b91939092909160208101903564010000000081111561056e57600080fd5b82018360208201111561058057600080fd5b803590602001918460208302840111640100000000831117156105a257600080fd5b509092509050610d99565b61019e600480360360208110156105c357600080fd5b50356001600160a01b0316610f24565b610700600480360360a08110156105e957600080fd5b6001600160a01b03823581169260208101359091169181019060608101604082013564010000000081111561061d57600080fd5b82018360208201111561062f57600080fd5b8035906020019184602083028401116401000000008311171561065157600080fd5b91939092909160208101903564010000000081111561066f57600080fd5b82018360208201111561068157600080fd5b803590602001918460208302840111640100000000831117156106a357600080fd5b9193909290916020810190356401000000008111156106c157600080fd5b8201836020820111156106d357600080fd5b803590602001918460018302840111640100000000831117156106f557600080fd5b50909250905061100d565b604080517fffffffff000000000000000000000000000000000000000000000000000000009092168252519081900360200190f35b6107f8600480360360a081101561074b57600080fd5b81019060208101813564010000000081111561076657600080fd5b82018360208201111561077857600080fd5b8035906020019184600183028401116401000000008311171561079a57600080fd5b91908080601f016020809104026020016040519081016040528093929190818152602001838380828437600092019190915250929550506001600160a01b03833581169450602084013516926040810135925060600135905061103a565b604080519115158252519081900360200190f35b610306611176565b6107f86004803603602081101561082a57600080fd5b50356001600160a01b0316611185565b61019e6004803603602081101561085057600080fd5b50356111a3565b61019e6004803603602081101561086d57600080fd5b5035611207565b610700600480360360a081101561088a57600080fd5b6001600160a01b03823581169260208101359091169160408201359160608101359181019060a0810160808201356401000000008111156108ca57600080fd5b8201836020820111156108dc57600080fd5b803590602001918460018302840111640100000000831117156108fe57600080fd5b50909250905061126b565b61015e611296565b7f000000000000000000000000000000000000000000000000000000000000000090565b7f000000000000000000000000000000000000000000000000000000000000000090565b6000546001600160a01b031633146109b8576040805162461bcd60e51b815260206004820152601060248201527f53656e646572206e6f742061646d696e00000000000000000000000000000000604482015290519081900360640190fd5b600554600280546001600160a01b03908116600090815260046020526040902042909301909255805473ffffffffffffffffffffffffffffffffffffffff191692909116919091179055565b606060008060008060606000806000808a80602001905160a0811015610a2957600080fd5b8101908080516040519392919084640100000000821115610a4957600080fd5b908301906020820185811115610a5e57600080fd5b8251640100000000811182820188101715610a7857600080fd5b82525081516020918201929091019080838360005b83811015610aa5578181015183820152602001610a8d565b50505050905090810190601f168015610ad25780820380516001836020036101000a031916815260200191505b5060409081526020820151908201516060830151608090930151959f50909d509b5099509197505050505050505091939590929450565b6000546001600160a01b031690565b60035490565b6000546001600160a01b03163314610b675760405162461bcd60e51b815260040180806020018281038252602e815260200180612198602e913960400191505060405180910390fd5b610b71828261129c565b5050565b610b7f898961131e565b610c048f8e8e8e8e8e8d8d8d80806020026020016040519081016040528093929190818152602001838360200280828437600081840152601f19601f820116905080830192505050505050508c8c8080602002602001604051908101604052809392919081815260200183836020028082843760009201919091525061139892505050565b610c458f8984848080601f01602080910402602001604051908101604052809392919081815260200183838082843760009201919091525061157592505050565b610c758f8f8e8e8e8d7f00000000000000000000000000000000000000000000000000000000000000008f6115c6565b610cb28e87878080602002602001604051908101604052809392919081815260200183836020028082843760009201919091525061189192505050565b505050505050505050505050505050565b6000546001600160a01b03163314610d22576040805162461bcd60e51b815260206004820152601b60248201527f6f6e6c792061646d696e2063616e206368616e67652061646d696e0000000000604482015290519081900360640190fd5b600054604080516001600160a01b039283168152918316602083015280517f7e644d79422f17c01e4894b5f4f588d331ebfa28653d42ae832dc59e38c9798f9281900390910190a16000805473ffffffffffffffffffffffffffffffffffffffff19166001600160a01b0392909216919091179055565b6000546001600160a01b03163314610df8576040805162461bcd60e51b815260206004820152600e60248201527f4e4f545f415554484f52495a4544000000000000000000000000000000000000604482015290519081900360640190fd5b7f00000000000000000000000000000000000000000000000000000000000000006001600160a01b0316632eb2c2d63087878787876040518763ffffffff1660e01b815260040180876001600160a01b03166001600160a01b03168152602001866001600160a01b03166001600160a01b031681526020018060200180602001806020018481038452888882818152602001925060200280828437600083820152601f01601f19169091018581038452868152602090810191508790870280828437600081840152601f19601f8201169050808301925050508481038252600081526020016020019950505050505050505050600060405180830381600087803b158015610f0557600080fd5b505af1158015610f19573d6000803e3d6000fd5b505050505050505050565b6001600160a01b038116610f7f576040805162461bcd60e51b815260206004820152600c60248201527f5a45524f5f414444524553530000000000000000000000000000000000000000604482015290519081900360640190fd5b6000546001600160a01b03163314610fde576040805162461bcd60e51b815260206004820152600e60248201527f4e4f545f415554484f52495a4544000000000000000000000000000000000000604482015290519081900360640190fd5b6006805473ffffffffffffffffffffffffffffffffffffffff19166001600160a01b0392909216919091179055565b7fbc197c810000000000000000000000000000000000000000000000000000000098975050505050505050565b600060035482118061105d5750836001600160a01b0316856001600160a01b0316145b8061106757508242115b156110745750600061116d565b60408051606087811b7fffffffffffffffffffffffffffffffffffffffff0000000000000000000000009081166020808501919091529188901b166034830152604882018690526068808301869052835180840390910181526088830184528051908201207f19457468657265756d205369676e6564204d6573736167653a0a33320000000060a884015260c48084018290528451808503909101815260e4909301909352815191012060009061112b9089611a55565b6001600160a01b03811660009081526004602052604090205490915042116111585760019250505061116d565b6002546001600160a01b039081169116149150505b95945050505050565b6002546001600160a01b031690565b6001600160a01b031660009081526001602052604090205460ff1690565b6000546001600160a01b03163314611202576040805162461bcd60e51b815260206004820152601060248201527f53656e646572206e6f742061646d696e00000000000000000000000000000000604482015290519081900360640190fd5b600355565b6000546001600160a01b03163314611266576040805162461bcd60e51b815260206004820152600e60248201527f4e4f545f415554484f52495a4544000000000000000000000000000000000000604482015290519081900360640190fd5b600755565b7ff23a6e61000000000000000000000000000000000000000000000000000000009695505050505050565b60075490565b6001600160a01b03821660008181526001602090815260409182902080547fffffffffffffffffffffffffffffffffffffffffffffffffffffffffffffff001685151590811790915582519384529083015280517fb21eb88b4e33b3f1281830a7178d74d8aa73220416215726b68ae23d539515cb9281900390910190a15050565b6113456103e861133960075485611b2290919063ffffffff16565b9063ffffffff611b9816565b8114610b71576040805162461bcd60e51b815260206004820152600d60248201527f494e56414c49445f505249434500000000000000000000000000000000000000604482015290519081900360640190fd5b7f0000000000000000000000000000000000000000000000000000000000000000421061140c576040805162461bcd60e51b815260206004820152600c60248201527f53414c455f49535f4f5645520000000000000000000000000000000000000000604482015290519081900360640190fd5b6001600160a01b03891633148061143257503360009081526001602052604090205460ff165b611483576040805162461bcd60e51b815260206004820152600e60248201527f4e4f545f415554484f52495a4544000000000000000000000000000000000000604482015290519081900360640190fd5b6001600160a01b03881615806114aa5750886001600160a01b0316886001600160a01b0316145b6114fb576040805162461bcd60e51b815260206004820152600d60248201527f52455345525645445f4c414e4400000000000000000000000000000000000000604482015290519081900360640190fd5b600061150c888888888d8989611bfd565b90506115188282611ca2565b611569576040805162461bcd60e51b815260206004820152600c60248201527f494e56414c49445f4c414e440000000000000000000000000000000000000000604482015290519081900360640190fd5b50505050505050505050565b60006115818484611d6b565b6006549091506115c0908590839085906001600160a01b03167f0000000000000000000000000000000000000000000000000000000000000000611eb8565b50505050565b83600114806115fc57507f00000000000000000000000000000000000000000000000000000000000000006001600160a01b0316155b156116c357604080517f6e1e3bbf0000000000000000000000000000000000000000000000000000000081526001600160a01b03898116600483015260248201879052604482018990526064820188905260a06084830152600060a4830181905292517f000000000000000000000000000000000000000000000000000000000000000090911692636e1e3bbf9260e4808201939182900301818387803b1580156116a657600080fd5b505af11580156116ba573d6000803e3d6000fd5b50505050611827565b7f00000000000000000000000000000000000000000000000000000000000000006001600160a01b0316636e1e3bbf7f00000000000000000000000000000000000000000000000000000000000000008689898c60405160200180826001600160a01b03166001600160a01b031681526020019150506040516020818303038152906040526040518663ffffffff1660e01b815260040180866001600160a01b03166001600160a01b0316815260200185815260200184815260200183815260200180602001828103825283818151815260200191508051906020019080838360005b838110156117be5781810151838201526020016117a6565b50505050905090810190601f1680156117eb5780820380516001836020036101000a031916815260200191505b509650505050505050600060405180830381600087803b15801561180e57600080fd5b505af1158015611822573d6000803e3d6000fd5b505050505b60408051858152602081018590526001600160a01b03848116828401526060820184905291516101988802890192808b1692908c16917fe4dfa6ac11314892f3029b34a25b1a887da3b1cab2bbf8506d87128ba6e3ac029181900360800190a45050505050505050565b6060815167ffffffffffffffff811180156118ab57600080fd5b506040519080825280602002602001820160405280156118d5578160200160208202803683370190505b50905060005b82518110156119055760018282815181106118f257fe5b60209081029190910101526001016118db565b507f00000000000000000000000000000000000000000000000000000000000000006001600160a01b0316632eb2c2d6308585856040518563ffffffff1660e01b815260040180856001600160a01b03166001600160a01b03168152602001846001600160a01b03166001600160a01b03168152602001806020018060200180602001848103845286818151815260200191508051906020019060200280838360005b838110156119c05781810151838201526020016119a8565b50505050905001848103835285818151815260200191508051906020019060200280838360005b838110156119ff5781810151838201526020016119e7565b50505050905001848103825260008152602001602001975050505050505050600060405180830381600087803b158015611a3857600080fd5b505af1158015611a4c573d6000803e3d6000fd5b50505050505050565b60008151604114611a6557600080fd5b60208201516040830151606084015160001a601b811015611a8457601b015b8060ff16601b1480611a9957508060ff16601c145b611aa257600080fd5b6040805160008152602080820180845289905260ff8416828401526060820186905260808201859052915160019260a0808401939192601f1981019281900390910190855afa158015611af9573d6000803e3d6000fd5b5050604051601f1901519450506001600160a01b038416611b1957600080fd5b50505092915050565b600082611b3157506000611b92565b5081810281838281611b3f57fe5b0414611b92576040805162461bcd60e51b815260206004820152600860248201527f6f766572666c6f77000000000000000000000000000000000000000000000000604482015290519081900360640190fd5b92915050565b600081611bec576040805162461bcd60e51b815260206004820152600960248201527f64697662797a65726f0000000000000000000000000000000000000000000000604482015290519081900360640190fd5b818381611bf557fe5b049392505050565b60008787878787878760405160200180888152602001878152602001868152602001858152602001846001600160a01b03166001600160a01b031660601b8152601401838152602001828051906020019060200280838360005b83811015611c6f578181015183820152602001611c57565b50505050905001975050505050505050604051602081830303815290604052805190602001209050979650505050505050565b600081815b8451811015611d41576000858281518110611cbe57fe5b6020026020010151905080831015611d065782816040516020018083815260200182815260200192505050604051602081830303815290604052805190602001209250611d38565b808360405160200180838152602001828152602001925050506040516020818303038152906040528051906020012092505b50600101611ca7565b507f0000000000000000000000000000000000000000000000000000000000000000149392505050565b600080611d84606461133985600563ffffffff611b2216565b604080516323b872dd60e01b81526001600160a01b0387811660048301527f0000000000000000000000000000000000000000000000000000000000000000811660248301526044820184905291519293507f0000000000000000000000000000000000000000000000000000000000000000909116916323b872dd916064808201926020929091908290030181600087803b158015611e2357600080fd5b505af1158015611e37573d6000803e3d6000fd5b505050506040513d6020811015611e4d57600080fd5b5051611ea0576040805162461bcd60e51b815260206004820152601360248201527f4645455f5452414e534645525f4641494c454400000000000000000000000000604482015290519081900360640190fd5b611eb0838263ffffffff61213a16565b949350505050565b82518190859015612062576060600080600080611ed48a610a04565b9398509196509450925090506000611eef868686868661103a565b15611f7d57611f09611f018d84611b22565b612710611b98565b9050886001600160a01b0316846001600160a01b0316866001600160a01b03167fac7a699eb95c3c6d390ec4626de17ef9a67b35891efdb197beba7c7fdd45fac48f858760405180848152602001838152602001828152602001935050505060405180910390a4611f7a878261213a565b96505b801561205b57604080516323b872dd60e01b81526001600160a01b038f811660048301528781166024830152604482018490529151918a16916323b872dd916064808201926020929091908290030181600087803b158015611fde57600080fd5b505af1158015611ff2573d6000803e3d6000fd5b505050506040513d602081101561200857600080fd5b505161205b576040805162461bcd60e51b815260206004820152601960248201527f636f6d6d6973696f6e207472616e73666572206661696c656400000000000000604482015290519081900360640190fd5b5050505050505b604080516323b872dd60e01b81526001600160a01b0389811660048301528681166024830152604482018490529151918416916323b872dd916064808201926020929091908290030181600087803b1580156120bd57600080fd5b505af11580156120d1573d6000803e3d6000fd5b505050506040513d60208110156120e757600080fd5b5051611a4c576040805162461bcd60e51b815260206004820152601760248201527f7061796d656e74207472616e73666572206661696c6564000000000000000000604482015290519081900360640190fd5b600082821115612191576040805162461bcd60e51b815260206004820152600860248201527f756e6465666c6f77000000000000000000000000000000000000000000000000604482015290519081900360640190fd5b5090039056fe6f6e6c792061646d696e2063616e207365747570206d6574615472616e73616374696f6e50726f636573736f7273a26469706673582212200ff38c5741c66b2a22a9a9ee2abe0f55626323082b6b4443921fd3b25484584a64736f6c63430006050033",
  "devdoc": {
    "methods": {
      "buyLandWithSand(address,address,address,uint256,uint256,uint256,uint256,uint256,bytes32,uint256[],bytes32[],bytes)": {
        "params": {
          "buyer": "address that perform the payment",
          "priceInSand": "price in SAND to purchase that Land",
          "proof": "merkleProof for that particular Land",
          "reserved": "the reserved address (if any)",
          "size": "size of the pack of Land to purchase",
          "to": "address that will own the purchased Land",
          "x": "x coordinate of the Land",
          "y": "y coordinate of the Land"
        }
      },
      "changeAdmin(address)": {
        "details": "change the administrator to be `newAdmin`.",
        "params": {
          "newAdmin": "address of the new administrator."
        }
      },
      "getAdmin()": {
        "details": "gives the current administrator of this contract.",
        "returns": {
          "_0": "the current administrator of this contract."
        }
      },
      "getSigningWallet()": {
        "details": "signing wallet authorized for referral",
        "returns": {
          "_0": "the address of the signing wallet"
        }
      },
      "isMetaTransactionProcessor(address)": {
        "details": "check whether address `who` is given meta-transaction execution rights.",
        "params": {
          "who": "The address to query."
        },
        "returns": {
          "_0": "whether the address has meta-transaction execution rights."
        }
      },
      "isReferralValid(bytes,address,address,uint256,uint256)": {
        "params": {
          "commissionRate": "The commissionRate of the referral",
          "expiryTime": "The expiry time of the referral",
          "referee": "The address of the referee",
          "referrer": "The address of the referrer",
          "signature": "The signature to check (signed referral)"
        },
        "returns": {
          "_0": "True if the referral is valid"
        }
      },
      "setMetaTransactionProcessor(address,bool)": {
        "details": "Enable or disable the ability of `metaTransactionProcessor` to perform meta-tx (metaTransactionProcessor rights).",
        "params": {
          "enabled": "set whether the metaTransactionProcessor is enabled or disabled.",
          "metaTransactionProcessor": "address that will be given/removed metaTransactionProcessor rights."
        }
      },
      "setReceivingWallet(address)": {
        "params": {
          "newWallet": "address of the new receiving wallet"
        }
      },
      "updateMaxCommissionRate(uint256)": {
        "details": "Update the maximum commission rate",
        "params": {
          "newMaxCommissionRate": "The new maximum commission rate"
        }
      },
      "updateSigningWallet(address)": {
        "details": "Update the signing wallet",
        "params": {
          "newSigningWallet": "The new address of the signing wallet"
        }
      },
      "withdrawAssets(address,uint256[],uint256[])": {
        "params": {
          "assetIds": "the assetIds to be transferred",
          "to": "intended recipient of the asset tokens",
          "values": "the quantities of the assetIds to be transferred"
        }
      }
    },
    "title": "Estate Sale contract with referral"
  },
  "userdoc": {
    "methods": {
      "buyLandWithSand(address,address,address,uint256,uint256,uint256,uint256,uint256,bytes32,uint256[],bytes32[],bytes)": {
        "notice": "buy Land with SAND using the merkle proof associated with it"
      },
      "getExpiryTime()": {
        "notice": "Gets the expiry time for the current sale"
      },
      "getMaxCommisionRate()": {
        "notice": "the max commision rate"
      },
      "getMerkleRoot()": {
        "notice": "Gets the Merkle root associated with the current sale"
      },
      "isReferralValid(bytes,address,address,uint256,uint256)": {
        "notice": "Check if a referral is valid"
      },
      "setReceivingWallet(address)": {
        "notice": "set the wallet receiving the proceeds"
      },
      "withdrawAssets(address,uint256[],uint256[])": {
        "notice": "enable Admin to withdraw remaining assets from EstateSaleWithFee contract"
      }
    },
    "notice": "This contract manages the sale of our lands as Estates"
  },
  "storageLayout": {
    "storage": [
      {
        "astId": 12779,
        "contract": "src/solc_0.6/EstateSale/EstateSaleWithFee.sol:EstateSaleWithFee",
        "label": "_admin",
        "offset": 0,
        "slot": "0",
        "type": "t_address"
      },
      {
        "astId": 12841,
        "contract": "src/solc_0.6/EstateSale/EstateSaleWithFee.sol:EstateSaleWithFee",
        "label": "_metaTransactionContracts",
        "offset": 0,
        "slot": "1",
        "type": "t_mapping(t_address,t_bool)"
      },
      {
        "astId": 10957,
        "contract": "src/solc_0.6/EstateSale/EstateSaleWithFee.sol:EstateSaleWithFee",
        "label": "_signingWallet",
        "offset": 0,
        "slot": "2",
        "type": "t_address"
      },
      {
        "astId": 10959,
        "contract": "src/solc_0.6/EstateSale/EstateSaleWithFee.sol:EstateSaleWithFee",
        "label": "_maxCommissionRate",
        "offset": 0,
        "slot": "3",
        "type": "t_uint256"
      },
      {
        "astId": 10963,
        "contract": "src/solc_0.6/EstateSale/EstateSaleWithFee.sol:EstateSaleWithFee",
        "label": "_previousSigningWallets",
        "offset": 0,
        "slot": "4",
        "type": "t_mapping(t_address,t_uint256)"
      },
      {
        "astId": 10972,
        "contract": "src/solc_0.6/EstateSale/EstateSaleWithFee.sol:EstateSaleWithFee",
        "label": "_previousSigningDelay",
        "offset": 0,
        "slot": "5",
        "type": "t_uint256"
      },
      {
        "astId": 7344,
        "contract": "src/solc_0.6/EstateSale/EstateSaleWithFee.sol:EstateSaleWithFee",
        "label": "_wallet",
        "offset": 0,
        "slot": "6",
        "type": "t_address_payable"
      },
      {
        "astId": 7354,
        "contract": "src/solc_0.6/EstateSale/EstateSaleWithFee.sol:EstateSaleWithFee",
        "label": "_multiplier",
        "offset": 0,
        "slot": "7",
        "type": "t_uint256"
      }
    ],
    "types": {
      "t_address": {
        "encoding": "inplace",
        "label": "address",
        "numberOfBytes": "20"
      },
      "t_address_payable": {
        "encoding": "inplace",
        "label": "address payable",
        "numberOfBytes": "20"
      },
      "t_bool": {
        "encoding": "inplace",
        "label": "bool",
        "numberOfBytes": "1"
      },
      "t_mapping(t_address,t_bool)": {
        "encoding": "mapping",
        "key": "t_address",
        "label": "mapping(address => bool)",
        "numberOfBytes": "32",
        "value": "t_bool"
      },
      "t_mapping(t_address,t_uint256)": {
        "encoding": "mapping",
        "key": "t_address",
        "label": "mapping(address => uint256)",
        "numberOfBytes": "32",
        "value": "t_uint256"
      },
      "t_uint256": {
        "encoding": "inplace",
        "label": "uint256",
        "numberOfBytes": "32"
      }
    }
  }
}