{
  "address": "0x36F777B4EB81491d7967882d01dE2A7AD40fDcfC",
  "abi": [
    {
      "inputs": [
        {
          "internalType": "address",
          "name": "landAddress",
          "type": "address"
        },
        {
          "internalType": "address",
          "name": "sandContractAddress",
          "type": "address"
        },
        {
          "internalType": "address",
          "name": "initialMetaTx",
          "type": "address"
        },
        {
          "internalType": "address",
          "name": "admin",
          "type": "address"
        },
        {
          "internalType": "address payable",
          "name": "initialWalletAddress",
          "type": "address"
        },
        {
          "internalType": "bytes32",
          "name": "merkleRoot",
          "type": "bytes32"
        },
        {
          "internalType": "uint256",
          "name": "expiryTime",
          "type": "uint256"
        },
        {
          "internalType": "address",
          "name": "initialSigningWallet",
          "type": "address"
        },
        {
          "internalType": "uint256",
          "name": "initialMaxCommissionRate",
          "type": "uint256"
        },
        {
          "internalType": "address",
          "name": "estate",
          "type": "address"
        },
        {
          "internalType": "address",
          "name": "asset",
          "type": "address"
        },
        {
          "internalType": "address",
          "name": "feeDistributor",
          "type": "address"
        }
      ],
      "stateMutability": "nonpayable",
      "type": "constructor"
    },
    {
      "anonymous": false,
      "inputs": [
        {
          "indexed": false,
          "internalType": "address",
          "name": "oldAdmin",
          "type": "address"
        },
        {
          "indexed": false,
          "internalType": "address",
          "name": "newAdmin",
          "type": "address"
        }
      ],
      "name": "AdminChanged",
      "type": "event"
    },
    {
      "anonymous": false,
      "inputs": [
        {
          "indexed": true,
          "internalType": "address",
          "name": "buyer",
          "type": "address"
        },
        {
          "indexed": true,
          "internalType": "address",
          "name": "to",
          "type": "address"
        },
        {
          "indexed": true,
          "internalType": "uint256",
          "name": "topCornerId",
          "type": "uint256"
        },
        {
          "indexed": false,
          "internalType": "uint256",
          "name": "size",
          "type": "uint256"
        },
        {
          "indexed": false,
          "internalType": "uint256",
          "name": "price",
          "type": "uint256"
        },
        {
          "indexed": false,
          "internalType": "address",
          "name": "token",
          "type": "address"
        },
        {
          "indexed": false,
          "internalType": "uint256",
          "name": "amountPaid",
          "type": "uint256"
        }
      ],
      "name": "LandQuadPurchased",
      "type": "event"
    },
    {
      "anonymous": false,
      "inputs": [
        {
          "indexed": false,
          "internalType": "address",
          "name": "metaTransactionProcessor",
          "type": "address"
        },
        {
          "indexed": false,
          "internalType": "bool",
          "name": "enabled",
          "type": "bool"
        }
      ],
      "name": "MetaTransactionProcessor",
      "type": "event"
    },
    {
      "anonymous": false,
      "inputs": [
        {
          "indexed": true,
          "internalType": "address",
          "name": "referrer",
          "type": "address"
        },
        {
          "indexed": true,
          "internalType": "address",
          "name": "referee",
          "type": "address"
        },
        {
          "indexed": true,
          "internalType": "address",
          "name": "token",
          "type": "address"
        },
        {
          "indexed": false,
          "internalType": "uint256",
          "name": "amount",
          "type": "uint256"
        },
        {
          "indexed": false,
          "internalType": "uint256",
          "name": "commission",
          "type": "uint256"
        },
        {
          "indexed": false,
          "internalType": "uint256",
          "name": "commissionRate",
          "type": "uint256"
        }
      ],
      "name": "ReferralUsed",
      "type": "event"
    },
    {
      "inputs": [
        {
          "internalType": "address",
          "name": "buyer",
          "type": "address"
        },
        {
          "internalType": "address",
          "name": "to",
          "type": "address"
        },
        {
          "internalType": "address",
          "name": "reserved",
          "type": "address"
        },
        {
          "internalType": "uint256",
          "name": "x",
          "type": "uint256"
        },
        {
          "internalType": "uint256",
          "name": "y",
          "type": "uint256"
        },
        {
          "internalType": "uint256",
          "name": "size",
          "type": "uint256"
        },
        {
          "internalType": "uint256",
          "name": "priceInSand",
          "type": "uint256"
        },
        {
          "internalType": "uint256",
          "name": "adjustedPriceInSand",
          "type": "uint256"
        },
        {
          "internalType": "bytes32",
          "name": "salt",
          "type": "bytes32"
        },
        {
          "internalType": "uint256[]",
          "name": "assetIds",
          "type": "uint256[]"
        },
        {
          "internalType": "bytes32[]",
          "name": "proof",
          "type": "bytes32[]"
        },
        {
          "internalType": "bytes",
          "name": "referral",
          "type": "bytes"
        }
      ],
      "name": "buyLandWithSand",
      "outputs": [],
      "stateMutability": "nonpayable",
      "type": "function"
    },
    {
      "inputs": [
        {
          "internalType": "address",
          "name": "newAdmin",
          "type": "address"
        }
      ],
      "name": "changeAdmin",
      "outputs": [],
      "stateMutability": "nonpayable",
      "type": "function"
    },
    {
      "inputs": [
        {
          "internalType": "bytes",
          "name": "referral",
          "type": "bytes"
        }
      ],
      "name": "decodeReferral",
      "outputs": [
        {
          "internalType": "bytes",
          "name": "",
          "type": "bytes"
        },
        {
          "internalType": "address",
          "name": "",
          "type": "address"
        },
        {
          "internalType": "address",
          "name": "",
          "type": "address"
        },
        {
          "internalType": "uint256",
          "name": "",
          "type": "uint256"
        },
        {
          "internalType": "uint256",
          "name": "",
          "type": "uint256"
        }
      ],
      "stateMutability": "pure",
      "type": "function"
    },
    {
      "inputs": [],
      "name": "getAdmin",
      "outputs": [
        {
          "internalType": "address",
          "name": "",
          "type": "address"
        }
      ],
      "stateMutability": "view",
      "type": "function"
    },
    {
      "inputs": [],
      "name": "getExpiryTime",
      "outputs": [
        {
          "internalType": "uint256",
          "name": "",
          "type": "uint256"
        }
      ],
      "stateMutability": "view",
      "type": "function"
    },
    {
      "inputs": [],
      "name": "getMaxCommisionRate",
      "outputs": [
        {
          "internalType": "uint256",
          "name": "",
          "type": "uint256"
        }
      ],
      "stateMutability": "view",
      "type": "function"
    },
    {
      "inputs": [],
      "name": "getMerkleRoot",
      "outputs": [
        {
          "internalType": "bytes32",
          "name": "",
          "type": "bytes32"
        }
      ],
      "stateMutability": "view",
      "type": "function"
    },
    {
      "inputs": [],
      "name": "getSandMultiplier",
      "outputs": [
        {
          "internalType": "uint256",
          "name": "",
          "type": "uint256"
        }
      ],
      "stateMutability": "view",
      "type": "function"
    },
    {
      "inputs": [],
      "name": "getSigningWallet",
      "outputs": [
        {
          "internalType": "address",
          "name": "",
          "type": "address"
        }
      ],
      "stateMutability": "view",
      "type": "function"
    },
    {
      "inputs": [
        {
          "internalType": "address",
          "name": "who",
          "type": "address"
        }
      ],
      "name": "isMetaTransactionProcessor",
      "outputs": [
        {
          "internalType": "bool",
          "name": "",
          "type": "bool"
        }
      ],
      "stateMutability": "view",
      "type": "function"
    },
    {
      "inputs": [
        {
          "internalType": "bytes",
          "name": "signature",
          "type": "bytes"
        },
        {
          "internalType": "address",
          "name": "referrer",
          "type": "address"
        },
        {
          "internalType": "address",
          "name": "referee",
          "type": "address"
        },
        {
          "internalType": "uint256",
          "name": "expiryTime",
          "type": "uint256"
        },
        {
          "internalType": "uint256",
          "name": "commissionRate",
          "type": "uint256"
        }
      ],
      "name": "isReferralValid",
      "outputs": [
        {
          "internalType": "bool",
          "name": "",
          "type": "bool"
        }
      ],
      "stateMutability": "view",
      "type": "function"
    },
    {
      "inputs": [
        {
          "internalType": "address",
          "name": "",
          "type": "address"
        },
        {
          "internalType": "address",
          "name": "",
          "type": "address"
        },
        {
          "internalType": "uint256[]",
          "name": "",
          "type": "uint256[]"
        },
        {
          "internalType": "uint256[]",
          "name": "",
          "type": "uint256[]"
        },
        {
          "internalType": "bytes",
          "name": "",
          "type": "bytes"
        }
      ],
      "name": "onERC1155BatchReceived",
      "outputs": [
        {
          "internalType": "bytes4",
          "name": "",
          "type": "bytes4"
        }
      ],
      "stateMutability": "pure",
      "type": "function"
    },
    {
      "inputs": [
        {
          "internalType": "address",
          "name": "",
          "type": "address"
        },
        {
          "internalType": "address",
          "name": "",
          "type": "address"
        },
        {
          "internalType": "uint256",
          "name": "",
          "type": "uint256"
        },
        {
          "internalType": "uint256",
          "name": "",
          "type": "uint256"
        },
        {
          "internalType": "bytes",
          "name": "",
          "type": "bytes"
        }
      ],
      "name": "onERC1155Received",
      "outputs": [
        {
          "internalType": "bytes4",
          "name": "",
          "type": "bytes4"
        }
      ],
      "stateMutability": "pure",
      "type": "function"
    },
    {
      "inputs": [
        {
          "internalType": "uint256",
          "name": "newMultiplier",
          "type": "uint256"
        }
      ],
      "name": "rebalanceSand",
      "outputs": [],
      "stateMutability": "nonpayable",
      "type": "function"
    },
    {
      "inputs": [
        {
          "internalType": "address",
          "name": "metaTransactionProcessor",
          "type": "address"
        },
        {
          "internalType": "bool",
          "name": "enabled",
          "type": "bool"
        }
      ],
      "name": "setMetaTransactionProcessor",
      "outputs": [],
      "stateMutability": "nonpayable",
      "type": "function"
    },
    {
      "inputs": [
        {
          "internalType": "address payable",
          "name": "newWallet",
          "type": "address"
        }
      ],
      "name": "setReceivingWallet",
      "outputs": [],
      "stateMutability": "nonpayable",
      "type": "function"
    },
    {
      "inputs": [
        {
          "internalType": "uint256",
          "name": "newMaxCommissionRate",
          "type": "uint256"
        }
      ],
      "name": "updateMaxCommissionRate",
      "outputs": [],
      "stateMutability": "nonpayable",
      "type": "function"
    },
    {
      "inputs": [
        {
          "internalType": "address",
          "name": "newSigningWallet",
          "type": "address"
        }
      ],
      "name": "updateSigningWallet",
      "outputs": [],
      "stateMutability": "nonpayable",
      "type": "function"
    },
    {
      "inputs": [
        {
          "internalType": "address",
          "name": "to",
          "type": "address"
        },
        {
          "internalType": "uint256[]",
          "name": "assetIds",
          "type": "uint256[]"
        },
        {
          "internalType": "uint256[]",
          "name": "values",
          "type": "uint256[]"
        }
      ],
      "name": "withdrawAssets",
      "outputs": [],
      "stateMutability": "nonpayable",
      "type": "function"
    }
  ],
  "transactionHash": "0x088aba028448773bf8cd0a956562403cd91b8b94345cee441d13b7679b0af7bc",
  "args": [
    "0xe6E355cc64B67C514e1596719b872ba12A99dA83",
    "0x156eA95C83dF7c5E862b93623c004Ed318C9D69e",
    "0x156eA95C83dF7c5E862b93623c004Ed318C9D69e",
    "0xa4519D601F43D0b8f167842a367465681F652252",
    "0x60927eB036621b801491B6c5e9A60A8d2dEeD75A",
    "0x508fadadcade26d1ff069ee388cad014df97b4667814ce27248e6bb27db5b659",
    1651237200,
    "0xB7060D3FeCAC3AE1F0A0AA416E3e8E472257950e",
    2000,
    "0x0000000000000000000000000000000000000000",
    "0xCA0e265A6A5bFD6c7952D993AB8Ef62BAa7A4b8a",
    "0x0977f5050c8158b277F93216f851e83a467ED9c9"
  ],
  "linkedData": [
    {
      "x": 324,
      "y": 288,
      "size": 1,
      "price": "4683000000000000000000",
      "reserved": "",
      "salt": "0x68695ac145057c244025a3a5c3fb4039378e03c0329c1e483618569b8c21556a",
      "assetIds": [
        "41506478881403507969696680653240014914910929820314476107906210059990541021189"
      ]
    },
    {
      "x": 324,
      "y": 289,
      "size": 1,
      "price": "4683000000000000000000",
      "reserved": "",
      "salt": "0x320f0b6056e3a006e34db2756d4168cc8f834a4959c0b3ca9996f24d7ee22ff7",
      "assetIds": [
        "41506478881403507969696680653240014914910929820314476107906210059990541021185"
      ]
    },
    {
      "x": 324,
      "y": 290,
      "size": 1,
      "price": "1011000000000000000000",
      "reserved": "0x7a9fe22691c811ea339d9b73150e6911a5343dca",
      "salt": "0x8db71a3b332c191aa9b9f733360ad17feb34337d5144cd25bd3bac29a07ad0ce",
      "assetIds": []
    },
    {
      "x": 324,
      "y": 291,
      "size": 1,
      "price": "4683000000000000000000",
      "reserved": "",
      "salt": "0xfd1e50e7409ee3c9ea8a485b04d9b1b5cd45acf857b814c4eb5f5161fc0b6e13",
      "assetIds": [
        "41506478881403507969696680653240014914910929820314476107906210059990541021186"
      ]
    },
    {
      "x": 324,
      "y": 292,
      "size": 1,
      "price": "4683000000000000000000",
      "reserved": "",
      "salt": "0x5a2375a42a010c1ce2fce341acbe9edf936bbb4ca258737420b94ff809df883d",
      "assetIds": [
        "41506478881403507969696680653240014914910929820314476107906210059990541021186"
      ]
    },
    {
      "x": 324,
      "y": 293,
      "size": 1,
      "price": "4683000000000000000000",
      "reserved": "",
      "salt": "0x79260bc739604d13a1678bca3997c7ae1332f03f5218e670fda95dfae47aac8d",
      "assetIds": [
        "41506478881403507969696680653240014914910929820314476107906210059990541021185"
      ]
    },
    {
      "x": 324,
      "y": 294,
      "size": 1,
      "price": "4683000000000000000000",
      "reserved": "",
      "salt": "0x584a4a869405ef4390baa183e355ef391d2404b788a2a3de98273b8cb4a2fe6f",
      "assetIds": [
        "41506478881403507969696680653240014914910929820314476107906210059990541021188"
      ]
    },
    {
      "x": 324,
      "y": 295,
      "size": 1,
      "price": "4683000000000000000000",
      "reserved": "",
      "salt": "0x92bcf275ec9bf67f3f2ec0bc4f520ee1d0929476327c7e6a9e2e9e18f7e3b2ac",
      "assetIds": [
        "41506478881403507969696680653240014914910929820314476107906210059990541021189"
      ]
    },
    {
      "x": 324,
      "y": 296,
      "size": 1,
      "price": "4683000000000000000000",
      "reserved": "",
      "salt": "0x5a6217df4f815cebbf40be08ceaab606001a05ed7f2cd7c4d1c0daf7b9dbd0c9",
      "assetIds": [
        "41506478881403507969696680653240014914910929820314476107906210059990541021188"
      ]
    },
    {
      "x": 324,
      "y": 297,
      "size": 1,
      "price": "4683000000000000000000",
      "reserved": "",
      "salt": "0x26497f9a368edab71ad7c88066dd3eba407df482cfa11617ce91c28b11f0af0a",
      "assetIds": [
        "41506478881403507969696680653240014914910929820314476107906210059990541021188"
      ]
    },
    {
      "x": 325,
      "y": 288,
      "size": 1,
      "price": "4683000000000000000000",
      "reserved": "",
      "salt": "0x59d12dd027c35f5dfb3e14214c8d160c96cb1d280b3b98e4552c8a3c72190779",
      "assetIds": [
        "41506478881403507969696680653240014914910929820314476107906210059990541021187"
      ]
    },
    {
      "x": 325,
      "y": 289,
      "size": 1,
      "price": "4683000000000000000000",
      "reserved": "",
      "salt": "0xe96a404b00e4b4ddcdad52c7f409868c057b044764b6897268697f72c86e52e4",
      "assetIds": [
        "41506478881403507969696680653240014914910929820314476107906210059990532622336"
      ]
    },
    {
      "x": 325,
      "y": 290,
      "size": 1,
      "price": "4683000000000000000000",
      "reserved": "",
      "salt": "0xfaaaf0a68176c82a3ba52dcf996ff55e279a68c093e24f6bdf9af9a72190579f",
      "assetIds": [
        "41506478881403507969696680653240014914910929820314476107906210059990541021186"
      ]
    },
    {
      "x": 325,
      "y": 291,
      "size": 1,
      "price": "4683000000000000000000",
      "reserved": "",
      "salt": "0x52da2ce0af39d503cb6f27cae5e3c9d98376746cc45fd47c4bef6e3e8d6d64e4",
      "assetIds": [
        "41506478881403507969696680653240014914910929820314476107906210059990541021185"
      ]
    },
    {
      "x": 325,
      "y": 292,
      "size": 1,
      "price": "4683000000000000000000",
      "reserved": "",
      "salt": "0x4d8fdd233f38e65342459b0c41ef3c2173c2f755bb44dcfb8ab602e2273d3696",
      "assetIds": [
        "41506478881403507969696680653240014914910929820314476107906210059990541021189"
      ]
    },
    {
      "x": 325,
      "y": 293,
      "size": 1,
      "price": "4683000000000000000000",
      "reserved": "",
      "salt": "0xf730201dbde059fe4aaced596e6af94cff3435803f9c705a757afaf3558d01df",
      "assetIds": [
        "41506478881403507969696680653240014914910929820314476107906210059990541021187"
      ]
    },
    {
      "x": 325,
      "y": 294,
      "size": 1,
      "price": "4683000000000000000000",
      "reserved": "",
      "salt": "0x3695352948fef2f7848c3137cbedeedf9a5acd766bfaddf0340092533cbfeab1",
      "assetIds": [
        "41506478881403507969696680653240014914910929820314476107906210059990541021188"
      ]
    },
    {
      "x": 325,
      "y": 295,
      "size": 1,
      "price": "4683000000000000000000",
      "reserved": "",
      "salt": "0x8fbbad6a8a49f4f23523a7b419b5951ea997978a3c592c28db73a7b7af168eae",
      "assetIds": [
        "41506478881403507969696680653240014914910929820314476107906210059990541021188"
      ]
    },
    {
      "x": 325,
      "y": 296,
      "size": 1,
      "price": "4683000000000000000000",
      "reserved": "",
      "salt": "0xdee106c1804a8deb5d92cef0fb1abf5c309936a24ac80c42a4fe9641131676be",
      "assetIds": [
        "41506478881403507969696680653240014914910929820314476107906210059990541021187"
      ]
    },
    {
      "x": 325,
      "y": 297,
      "size": 1,
      "price": "4683000000000000000000",
      "reserved": "",
      "salt": "0x263f2c7dda5e6bd0b803c76c22e5af283ac34c2e6caf227e64a403c10e5de63a",
      "assetIds": [
        "41506478881403507969696680653240014914910929820314476107906210059990541021188"
      ]
    },
    {
      "x": 326,
      "y": 288,
      "size": 1,
      "price": "4683000000000000000000",
      "reserved": "",
      "salt": "0x8e0d7882acb84628ba6301edb4e0ac2a5809d83bac948465e50c9857afc9bd63",
      "assetIds": [
        "41506478881403507969696680653240014914910929820314476107906210059990541021188"
      ]
    },
    {
      "x": 326,
      "y": 289,
      "size": 1,
      "price": "4683000000000000000000",
      "reserved": "",
      "salt": "0x6ac2b03eae01c86b668a19ad090874d8dddf95cdd1a78aaab46b3ae2945f97f7",
      "assetIds": [
        "41506478881403507969696680653240014914910929820314476107906210059990541021187"
      ]
    },
    {
      "x": 326,
      "y": 290,
      "size": 1,
      "price": "4683000000000000000000",
      "reserved": "",
      "salt": "0xb36789165498687bec5b155d04fb6a58e7885900950bddbd77c0a68831b2f7f8",
      "assetIds": [
        "41506478881403507969696680653240014914910929820314476107906210059990541021185"
      ]
    },
    {
      "x": 326,
      "y": 291,
      "size": 1,
      "price": "4683000000000000000000",
      "reserved": "",
      "salt": "0x4326f017fbe4025ec6b5cca3de8c57d3c8b8957565dbfede864706b146195662",
      "assetIds": [
        "41506478881403507969696680653240014914910929820314476107906210059990541021188"
      ]
    },
    {
      "x": 326,
      "y": 292,
      "size": 1,
      "price": "4683000000000000000000",
      "reserved": "",
      "salt": "0xe3af7e61fcd2946a641e3612a618088bb44d884889ab4eca0629ab0bcf501303",
      "assetIds": [
        "41506478881403507969696680653240014914910929820314476107906210059990541021184"
      ]
    },
    {
      "x": 326,
      "y": 293,
      "size": 1,
      "price": "4683000000000000000000",
      "reserved": "",
      "salt": "0x57c4f76b6e714d023a6deab87cc21180f17b5062f09ff8eabe5cc9454e6ccac8",
      "assetIds": [
        "41506478881403507969696680653240014914910929820314476107906210059990541021184"
      ]
    },
    {
      "x": 326,
      "y": 294,
      "size": 1,
      "price": "4683000000000000000000",
      "reserved": "",
      "salt": "0x9ce1e267da0ec86157306c8debfbfd0dee42ed5eef9c9ec6532a0436483434b6",
      "assetIds": [
        "41506478881403507969696680653240014914910929820314476107906210059990541021188"
      ]
    },
    {
      "x": 326,
      "y": 295,
      "size": 1,
      "price": "4683000000000000000000",
      "reserved": "",
      "salt": "0x21182baf9d1555db0640f3c94c486acd46a4153428e6f693d15f90d7fccffe10",
      "assetIds": [
        "41506478881403507969696680653240014914910929820314476107906210059990532622336"
      ]
    },
    {
      "x": 326,
      "y": 296,
      "size": 1,
      "price": "4683000000000000000000",
      "reserved": "",
      "salt": "0xbdb33b23b3f1dc6b54753fba3f9788477894b869b4251a3a7d965bc98070b3ca",
      "assetIds": [
        "41506478881403507969696680653240014914910929820314476107906210059990532622336"
      ]
    },
    {
      "x": 326,
      "y": 297,
      "size": 1,
      "price": "4683000000000000000000",
      "reserved": "",
      "salt": "0x325328ccbb7854c337a3e1641c45af7d7e5d7d87a15e3e679efa4ee78016879b",
      "assetIds": [
        "41506478881403507969696680653240014914910929820314476107906210059990541021189"
      ]
    },
    {
      "x": 326,
      "y": 298,
      "size": 1,
      "price": "4683000000000000000000",
      "reserved": "",
      "salt": "0x3f553249a423493cbfdde7b75f225ef467772bbada3ad664a0720070f236f5f6",
      "assetIds": [
        "41506478881403507969696680653240014914910929820314476107906210059990541021188"
      ]
    },
    {
      "x": 326,
      "y": 299,
      "size": 1,
      "price": "4683000000000000000000",
      "reserved": "",
      "salt": "0x3e2965800826067cf06155b5d0648914dd4cf62f8d9834fccb8ea1873a11e51d",
      "assetIds": [
        "41506478881403507969696680653240014914910929820314476107906210059990541021188"
      ]
    },
    {
      "x": 327,
      "y": 288,
      "size": 1,
      "price": "1011000000000000000000",
      "reserved": "0x7a9fe22691c811ea339d9b73150e6911a5343dca",
      "salt": "0x3614a7ce063a2315ce1ea3c464757915633f3a01b318e2c7e163e94c71435fe0",
      "assetIds": []
    },
    {
      "x": 327,
      "y": 289,
      "size": 1,
      "price": "4683000000000000000000",
      "reserved": "",
      "salt": "0x8dc0ff58d7f12a90abfb7f1cdf98f30c65accec0c3b0e8e79cb9d8257766f238",
      "assetIds": [
        "41506478881403507969696680653240014914910929820314476107906210059990541021187"
      ]
    },
    {
      "x": 327,
      "y": 290,
      "size": 1,
      "price": "4683000000000000000000",
      "reserved": "",
      "salt": "0x5ef0cc907bf5ad133ebdbdcb086796b0370f2f4c576bd1aa677bd54076dcd745",
      "assetIds": [
        "41506478881403507969696680653240014914910929820314476107906210059990541021187"
      ]
    },
    {
      "x": 327,
      "y": 291,
      "size": 1,
      "price": "4683000000000000000000",
      "reserved": "",
      "salt": "0x0f0c28180df3d7b5aca41b72d93ea7c524f3cc80ef52669f6f2ad0754320363b",
      "assetIds": [
        "41506478881403507969696680653240014914910929820314476107906210059990541021189"
      ]
    },
    {
      "x": 327,
      "y": 292,
      "size": 1,
      "price": "4683000000000000000000",
      "reserved": "",
      "salt": "0x8c672369601e453b2b67055f08f150bb50d09b2185687d288d425735389264eb",
      "assetIds": [
        "41506478881403507969696680653240014914910929820314476107906210059990532622336"
      ]
    },
    {
      "x": 327,
      "y": 293,
      "size": 1,
      "price": "4683000000000000000000",
      "reserved": "",
      "salt": "0xc3b5f7b8beb95ce5bbb3fda80cf830e4434e791b31d69ac47027f1c8ef20467a",
      "assetIds": [
        "41506478881403507969696680653240014914910929820314476107906210059990541021184"
      ]
    },
    {
      "x": 327,
      "y": 294,
      "size": 1,
      "price": "4683000000000000000000",
      "reserved": "",
      "salt": "0xd7b4336844dd506de68f468280fa172e8a12fba8bbe73e9a9fdb1bd5c0be3c31",
      "assetIds": [
        "41506478881403507969696680653240014914910929820314476107906210059990541021189"
      ]
    },
    {
      "x": 327,
      "y": 295,
      "size": 1,
      "price": "4683000000000000000000",
      "reserved": "",
      "salt": "0x07d67118c43a0b5c4172c5d74cbf8ce3d440ef686e72f625af07131bd961978c",
      "assetIds": [
        "41506478881403507969696680653240014914910929820314476107906210059990541021189"
      ]
    },
    {
      "x": 327,
      "y": 296,
      "size": 1,
      "price": "1011000000000000000000",
      "reserved": "0x7a9fe22691c811ea339d9b73150e6911a5343dca",
      "salt": "0xe828241b8009e983cc6cd73559875bc42e7a99fcc4e35ad633efcca7703dd147",
      "assetIds": []
    },
    {
      "x": 327,
      "y": 297,
      "size": 1,
      "price": "4683000000000000000000",
      "reserved": "",
      "salt": "0x021dec7d8ff906dfcbafb344dfa51cefea275662fd426ecd411e829ad2005564",
      "assetIds": [
        "41506478881403507969696680653240014914910929820314476107906210059990541021189"
      ]
    },
    {
      "x": 327,
      "y": 298,
      "size": 1,
      "price": "4683000000000000000000",
      "reserved": "",
      "salt": "0x963723f56ebd4af34a6c742e2a53935cf5e2650234aa5b4b5449a9c82ebe96e3",
      "assetIds": [
        "41506478881403507969696680653240014914910929820314476107906210059990541021189"
      ]
    },
    {
      "x": 327,
      "y": 299,
      "size": 1,
      "price": "4683000000000000000000",
      "reserved": "",
      "salt": "0x6bd713aa915bc2beb2d44ac9d8078634e8339732a070f3f515868ff7752a0f97",
      "assetIds": [
        "41506478881403507969696680653240014914910929820314476107906210059990541021188"
      ]
    },
    {
      "x": 328,
      "y": 288,
      "size": 1,
      "price": "4683000000000000000000",
      "reserved": "",
      "salt": "0x46310525a890a94dc25b9e72e332dfe967b7666242ee1100da50ccbe6abc1ccb",
      "assetIds": [
        "41506478881403507969696680653240014914910929820314476107906210059990541021185"
      ]
    },
    {
      "x": 328,
      "y": 289,
      "size": 1,
      "price": "4683000000000000000000",
      "reserved": "",
      "salt": "0x7fa7e14865a76308b076de02079e796883cb0a88a3a13471a70fd8576aa246ca",
      "assetIds": [
        "41506478881403507969696680653240014914910929820314476107906210059990541021186"
      ]
    },
    {
      "x": 328,
      "y": 290,
      "size": 1,
      "price": "4683000000000000000000",
      "reserved": "",
      "salt": "0x801cb15e3be653b20b38a6d514c141d4c75c3820e70ada5f5aab29d9e09192ac",
      "assetIds": [
        "41506478881403507969696680653240014914910929820314476107906210059990541021188"
      ]
    },
    {
      "x": 328,
      "y": 291,
      "size": 1,
      "price": "4683000000000000000000",
      "reserved": "",
      "salt": "0x4c454e285e627bf9e359c817ac57efa60989cccc23422a8a2c28dfc6403f3441",
      "assetIds": [
        "41506478881403507969696680653240014914910929820314476107906210059990541021188"
      ]
    },
    {
      "x": 328,
      "y": 292,
      "size": 1,
      "price": "4683000000000000000000",
      "reserved": "",
      "salt": "0x63e3952d309e5049c205365b5dfaacf2f4a4f7a42cf9ee39fcd288502576e51a",
      "assetIds": [
        "41506478881403507969696680653240014914910929820314476107906210059990541021187"
      ]
    },
    {
      "x": 328,
      "y": 293,
      "size": 1,
      "price": "4683000000000000000000",
      "reserved": "",
      "salt": "0x16c904a7b5d27353ff15fd662d89105a9550346678ce2cd345a1c85ead8bfc6e",
      "assetIds": [
        "41506478881403507969696680653240014914910929820314476107906210059990541021184"
      ]
    },
    {
      "x": 328,
      "y": 294,
      "size": 1,
      "price": "4683000000000000000000",
      "reserved": "",
      "salt": "0x96795ad96299491763606ae14d5d3608b4276103fb89f2f7844e4b3d2f7528bd",
      "assetIds": [
        "41506478881403507969696680653240014914910929820314476107906210059990541021188"
      ]
    },
    {
      "x": 328,
      "y": 295,
      "size": 1,
      "price": "4683000000000000000000",
      "reserved": "",
      "salt": "0xedea3a653aa6c1ec5b7af6d4fbf7f75baf58bd432c2b939420d9047c8bf7e204",
      "assetIds": [
        "41506478881403507969696680653240014914910929820314476107906210059990541021188"
      ]
    },
    {
      "x": 328,
      "y": 296,
      "size": 1,
      "price": "4683000000000000000000",
      "reserved": "",
      "salt": "0x5fedc219f52664e51d7632c123e6866901a93c68e238cdca702696bc03da646d",
      "assetIds": [
        "41506478881403507969696680653240014914910929820314476107906210059990541021187"
      ]
    },
    {
      "x": 328,
      "y": 297,
      "size": 1,
      "price": "4683000000000000000000",
      "reserved": "",
      "salt": "0x285d14146d53c526d49a9ba4bdf0ea4f5609e8f6ed4cc062280b03eb074d7437",
      "assetIds": [
        "41506478881403507969696680653240014914910929820314476107906210059990541021184"
      ]
    },
    {
      "x": 328,
      "y": 298,
      "size": 1,
      "price": "4683000000000000000000",
      "reserved": "",
      "salt": "0x72d68f1378beb932140b9083e0a107fa5c0740f56aac6817829dc0daf73933f5",
      "assetIds": [
        "41506478881403507969696680653240014914910929820314476107906210059990541021186"
      ]
    },
    {
      "x": 328,
      "y": 299,
      "size": 1,
      "price": "4683000000000000000000",
      "reserved": "",
      "salt": "0x5056e457422f6cee31c19f05d4feb382ecb2bca0c31993425e88878dec822eb8",
      "assetIds": [
        "41506478881403507969696680653240014914910929820314476107906210059990541021187"
      ]
    },
    {
      "x": 329,
      "y": 288,
      "size": 1,
      "price": "4683000000000000000000",
      "reserved": "",
      "salt": "0x94675b4645a185bff054b3f9f405da061efb3202a7b3953e1ae9b02b0347adf0",
      "assetIds": [
        "41506478881403507969696680653240014914910929820314476107906210059990541021187"
      ]
    },
    {
      "x": 329,
      "y": 289,
      "size": 1,
      "price": "4683000000000000000000",
      "reserved": "",
      "salt": "0xc09acce749d9a4817a57a0d7af04b55b1c996c6eed1941b704ad6f3251ae540a",
      "assetIds": [
        "41506478881403507969696680653240014914910929820314476107906210059990541021187"
      ]
    },
    {
      "x": 329,
      "y": 290,
      "size": 1,
      "price": "4683000000000000000000",
      "reserved": "",
      "salt": "0xd580f91ad9ee5bccbf35fd4dd731db4d60b45a7211e7aa6c0513aac259271486",
      "assetIds": [
        "41506478881403507969696680653240014914910929820314476107906210059990532622336"
      ]
    },
    {
      "x": 329,
      "y": 291,
      "size": 1,
      "price": "4683000000000000000000",
      "reserved": "",
      "salt": "0xf09f0c83cb8b12235db20a4735778e7542641cad0fdc0a70256a9e156b34a930",
      "assetIds": [
        "41506478881403507969696680653240014914910929820314476107906210059990532622336"
      ]
    },
    {
      "x": 329,
      "y": 292,
      "size": 1,
      "price": "4683000000000000000000",
      "reserved": "",
      "salt": "0x39847fd787fa96f5c6b2af3d55cbf63522def96dd55f314b43dbbd34d70df66a",
      "assetIds": [
        "41506478881403507969696680653240014914910929820314476107906210059990541021185"
      ]
    },
    {
      "x": 329,
      "y": 293,
      "size": 1,
      "price": "4683000000000000000000",
      "reserved": "",
      "salt": "0x56582fe1d9219e7f49d16958fb8224fc3ec04f182d87e554c4a7dd4cb07683f6",
      "assetIds": [
        "41506478881403507969696680653240014914910929820314476107906210059990541021188"
      ]
    },
    {
      "x": 329,
      "y": 294,
      "size": 1,
      "price": "4683000000000000000000",
      "reserved": "",
      "salt": "0x7daa4ea6511926a362ad180817d4e28d23354f2c068d219dfcf71373d7de4c70",
      "assetIds": [
        "41506478881403507969696680653240014914910929820314476107906210059990541021185"
      ]
    },
    {
      "x": 329,
      "y": 295,
      "size": 1,
      "price": "4683000000000000000000",
      "reserved": "",
      "salt": "0x4e0ab43ec0b3f9294f47ef60b0ec73bebb80fa4eb88e6a8fc3e052db94318813",
      "assetIds": [
        "41506478881403507969696680653240014914910929820314476107906210059990541021188"
      ]
    },
    {
      "x": 329,
      "y": 296,
      "size": 1,
      "price": "4683000000000000000000",
      "reserved": "",
      "salt": "0xabdbb418325320d1cd1c4a36393a26fe294d4076009d98186997c50115aa8403",
      "assetIds": [
        "41506478881403507969696680653240014914910929820314476107906210059990541021188"
      ]
    },
    {
      "x": 329,
      "y": 297,
      "size": 1,
      "price": "4683000000000000000000",
      "reserved": "",
      "salt": "0x7a25dd83f5896a034b85d0c67e75b1e48440d40a4abd17a4cdd3f48526da7b27",
      "assetIds": [
        "41506478881403507969696680653240014914910929820314476107906210059990541021188"
      ]
    },
    {
      "x": 329,
      "y": 298,
      "size": 1,
      "price": "4683000000000000000000",
      "reserved": "",
      "salt": "0xc40bc19c40a165a4c8ca1853676cc6b40f7d3231e1266ea0e5ddd9af2019231e",
      "assetIds": [
        "41506478881403507969696680653240014914910929820314476107906210059990541021185"
      ]
    },
    {
      "x": 329,
      "y": 299,
      "size": 1,
      "price": "4683000000000000000000",
      "reserved": "",
      "salt": "0x39340f92f8604be81f0f715d52cc4eb0548518cb3ce02cbed181d13949fd4f3a",
      "assetIds": [
        "41506478881403507969696680653240014914910929820314476107906210059990541021188"
      ]
    },
    {
      "x": 330,
      "y": 288,
      "size": 1,
      "price": "4683000000000000000000",
      "reserved": "",
      "salt": "0x7bd6f5876b7ebd10a56732258ea4fcae77ff37f0f68ffaf83ea47ed457f1fbac",
      "assetIds": [
        "41506478881403507969696680653240014914910929820314476107906210059990541021186"
      ]
    },
    {
      "x": 330,
      "y": 289,
      "size": 1,
      "price": "4683000000000000000000",
      "reserved": "",
      "salt": "0x3d557312faacb66b56e2ed87688b17be2cc8b6eaa7badc7f6efafd7874806db9",
      "assetIds": [
        "41506478881403507969696680653240014914910929820314476107906210059990541021187"
      ]
    },
    {
      "x": 330,
      "y": 290,
      "size": 1,
      "price": "4683000000000000000000",
      "reserved": "",
      "salt": "0xd786f7d969d090d93f6cc2de1caf173132ea60197f9ecee3ec417b918b006b79",
      "assetIds": [
        "41506478881403507969696680653240014914910929820314476107906210059990532622336"
      ]
    },
    {
      "x": 330,
      "y": 291,
      "size": 1,
      "price": "4683000000000000000000",
      "reserved": "",
      "salt": "0x903bce0d5bd6050ad002f7b70ab35a1b3dc0bae17dfbbd932cc0a89dd5ba184d",
      "assetIds": [
        "41506478881403507969696680653240014914910929820314476107906210059990541021188"
      ]
    },
    {
      "x": 330,
      "y": 292,
      "size": 1,
      "price": "4683000000000000000000",
      "reserved": "",
      "salt": "0xe1e2ba5be905f0a308d3dee3a21a99ce357dc988106def10c77e8464ea1db2f4",
      "assetIds": [
        "41506478881403507969696680653240014914910929820314476107906210059990541021184"
      ]
    },
    {
      "x": 330,
      "y": 293,
      "size": 1,
      "price": "4683000000000000000000",
      "reserved": "",
      "salt": "0x84acca3aed687e3d6a729d5e25dfa815d88104bd71cc87004b6fe48896eb6142",
      "assetIds": [
        "41506478881403507969696680653240014914910929820314476107906210059990541021188"
      ]
    },
    {
      "x": 331,
      "y": 288,
      "size": 1,
      "price": "4683000000000000000000",
      "reserved": "",
      "salt": "0xcc087c31c6531e324b7b7b71bf7e35455fcbfa9a1d48fd5fed9055c4f25b6fe5",
      "assetIds": [
        "41506478881403507969696680653240014914910929820314476107906210059990541021186"
      ]
    },
    {
      "x": 331,
      "y": 289,
      "size": 1,
      "price": "4683000000000000000000",
      "reserved": "",
      "salt": "0x82bed06c8a2875d5b85bf3b36177aab4118ac6d7a5841fb92bfac765b8144762",
      "assetIds": [
        "41506478881403507969696680653240014914910929820314476107906210059990541021187"
      ]
    },
    {
      "x": 331,
      "y": 290,
      "size": 1,
      "price": "4683000000000000000000",
      "reserved": "",
      "salt": "0x5345ffa956748b820b1d0e965e43eb748167e3ede87580b3086e821237ce2ed2",
      "assetIds": [
        "41506478881403507969696680653240014914910929820314476107906210059990541021185"
      ]
    },
    {
      "x": 331,
      "y": 291,
      "size": 1,
      "price": "4683000000000000000000",
      "reserved": "",
      "salt": "0x2060d8a32899bbf079376a19ab77fea026b7e36d684859f5094995f950c67b04",
      "assetIds": [
        "41506478881403507969696680653240014914910929820314476107906210059990541021188"
      ]
    },
    {
      "x": 331,
      "y": 292,
      "size": 1,
      "price": "4683000000000000000000",
      "reserved": "",
      "salt": "0x4224370b7330bbba45364aa0328bcd56a9514b13fe5e9438c202b19c566b9cd5",
      "assetIds": [
        "41506478881403507969696680653240014914910929820314476107906210059990541021184"
      ]
    },
    {
      "x": 331,
      "y": 293,
      "size": 1,
      "price": "4683000000000000000000",
      "reserved": "",
      "salt": "0x16b1ecf43d9c9fbdc003ad25556763ea9588962329baaf7d82a2de4ca2d0a716",
      "assetIds": [
        "41506478881403507969696680653240014914910929820314476107906210059990541021187"
      ]
    },
    {
      "x": 332,
      "y": 288,
      "size": 1,
      "price": "4683000000000000000000",
      "reserved": "",
      "salt": "0x6f09e26e7326514d8c9717e0908b6d56c0b37410bd1bd497edc158cb16163fc8",
      "assetIds": [
        "41506478881403507969696680653240014914910929820314476107906210059990541021189"
      ]
    },
    {
      "x": 332,
      "y": 289,
      "size": 1,
      "price": "4683000000000000000000",
      "reserved": "",
      "salt": "0xf2d514faefc1ae6fd3e7dbead867c01c652db9b1e10b32e50cfd9698cb2b2dbb",
      "assetIds": [
        "41506478881403507969696680653240014914910929820314476107906210059990541021189"
      ]
    },
    {
      "x": 332,
      "y": 290,
      "size": 1,
      "price": "4683000000000000000000",
      "reserved": "",
      "salt": "0x60bc599f56fdef1c3382e53f5d2972d77f59c4a463d95efdb5582bdb898fb1b3",
      "assetIds": [
        "41506478881403507969696680653240014914910929820314476107906210059990541021187"
      ]
    },
    {
      "x": 332,
      "y": 291,
      "size": 1,
      "price": "4683000000000000000000",
      "reserved": "",
      "salt": "0x3a2314bf60f93783e94788631e6b95423126444d4215d76a483c5eb301cfadfb",
      "assetIds": [
        "41506478881403507969696680653240014914910929820314476107906210059990541021184"
      ]
    },
    {
      "x": 332,
      "y": 292,
      "size": 1,
      "price": "4683000000000000000000",
      "reserved": "",
      "salt": "0xe2357c83049f894ee98625e2e303160c5d4e4fde4491924e255966d83d77a115",
      "assetIds": [
        "41506478881403507969696680653240014914910929820314476107906210059990541021188"
      ]
    },
    {
      "x": 332,
      "y": 293,
      "size": 1,
      "price": "4683000000000000000000",
      "reserved": "",
      "salt": "0xd5fa99b8a25ade6f2a2b97d88cd50635aaeeb80d3b105478e471842c2eed4de3",
      "assetIds": [
        "41506478881403507969696680653240014914910929820314476107906210059990541021186"
      ]
    },
    {
      "x": 333,
      "y": 261,
      "size": 1,
      "price": "4683000000000000000000",
      "reserved": "",
      "salt": "0x42ff86488025a77a1f7db511bc8e72160a0bdd1f0d13e2bb5c9e2a165da01de9",
      "assetIds": [
        "41506478881403507969696680653240014914910929820314476107906210059990541021188"
      ]
    },
    {
      "x": 333,
      "y": 262,
      "size": 1,
      "price": "4683000000000000000000",
      "reserved": "",
      "salt": "0x38c13c93c3aac91d361f04304d6745d37e89f17279d854736db49551fe1dbc82",
      "assetIds": [
        "41506478881403507969696680653240014914910929820314476107906210059990541021184"
      ]
    },
    {
      "x": 333,
      "y": 263,
      "size": 1,
      "price": "4683000000000000000000",
      "reserved": "",
      "salt": "0xbb5653ca741b8bdd5eed60afbc0b9becbefe2df1cf3a1c90aab9f127341aeea4",
      "assetIds": [
        "41506478881403507969696680653240014914910929820314476107906210059990541021187"
      ]
    },
    {
      "x": 333,
      "y": 288,
      "size": 1,
      "price": "4683000000000000000000",
      "reserved": "",
      "salt": "0x609af7f891f02703df676c07332fcf61cb0f1a862115c6712807187b22f795e3",
      "assetIds": [
        "41506478881403507969696680653240014914910929820314476107906210059990541021185"
      ]
    },
    {
      "x": 333,
      "y": 289,
      "size": 1,
      "price": "4683000000000000000000",
      "reserved": "",
      "salt": "0xcb8906776b6db59c4454a258bee02de28c181e0adde13c6a5553c3ae0ac8556c",
      "assetIds": [
        "41506478881403507969696680653240014914910929820314476107906210059990541021187"
      ]
    },
    {
      "x": 333,
      "y": 290,
      "size": 1,
      "price": "4683000000000000000000",
      "reserved": "",
      "salt": "0xebc4fd3a01a2214ba9105431747d6a7b1bd59ddd1643e32c1b1f2f10201a46a5",
      "assetIds": [
        "41506478881403507969696680653240014914910929820314476107906210059990541021188"
      ]
    },
    {
      "x": 334,
      "y": 261,
      "size": 1,
      "price": "4683000000000000000000",
      "reserved": "",
      "salt": "0xbe74e9ff26f32671386924becb59656b94abbacf8dd648b02f2d4d67ec82df02",
      "assetIds": [
        "41506478881403507969696680653240014914910929820314476107906210059990532622336"
      ]
    },
    {
      "x": 334,
      "y": 262,
      "size": 1,
      "price": "4683000000000000000000",
      "reserved": "",
      "salt": "0x852c03404f108d3cc85018f9a00c0732e44365e1a3bddfd8c6f17bd1a4a47274",
      "assetIds": [
        "41506478881403507969696680653240014914910929820314476107906210059990541021186"
      ]
    },
    {
      "x": 334,
      "y": 263,
      "size": 1,
      "price": "4683000000000000000000",
      "reserved": "",
      "salt": "0xd5b1282b3e5b64280fe50123d109aa953cd25845eae1155e175d733128d0ba3a",
      "assetIds": [
        "41506478881403507969696680653240014914910929820314476107906210059990541021187"
      ]
    },
    {
      "x": 334,
      "y": 288,
      "size": 1,
      "price": "4683000000000000000000",
      "reserved": "",
      "salt": "0xb11880197ac2f99b5d3b2f6bad61fd53b0566c14c981d2ac538235965b4bd848",
      "assetIds": [
        "41506478881403507969696680653240014914910929820314476107906210059990541021189"
      ]
    },
    {
      "x": 334,
      "y": 289,
      "size": 1,
      "price": "4683000000000000000000",
      "reserved": "",
      "salt": "0xf4d73994849ccbaccec3b5909e35df5ba1aa47ffd30fbf6bae49cbd32be880f6",
      "assetIds": [
        "41506478881403507969696680653240014914910929820314476107906210059990541021189"
      ]
    },
    {
      "x": 334,
      "y": 290,
      "size": 1,
      "price": "4683000000000000000000",
      "reserved": "",
      "salt": "0x7d4150fa276c92f3ffb996a3276fd335001a79bf593ec5a496e478493eac498a",
      "assetIds": [
        "41506478881403507969696680653240014914910929820314476107906210059990541021184"
      ]
    },
    {
      "x": 335,
      "y": 261,
      "size": 1,
      "price": "4683000000000000000000",
      "reserved": "",
      "salt": "0x9f048880c5e675a5fea75360c116dd5c92951aac00b07ba6b9bb3edda9429a62",
      "assetIds": [
        "41506478881403507969696680653240014914910929820314476107906210059990541021188"
      ]
    },
    {
      "x": 335,
      "y": 262,
      "size": 1,
      "price": "4683000000000000000000",
      "reserved": "",
      "salt": "0x295528cf948f94496a2c04533d1ec7f2c9abd7f1cc5dccc13823df2cc40bf275",
      "assetIds": [
        "41506478881403507969696680653240014914910929820314476107906210059990541021184"
      ]
    },
    {
      "x": 335,
      "y": 263,
      "size": 1,
      "price": "4683000000000000000000",
      "reserved": "",
      "salt": "0xe08013b1840903e06d4e4e0e6b5992ac6b961bc17dcbeea640bd6b62d2a18eb4",
      "assetIds": [
        "41506478881403507969696680653240014914910929820314476107906210059990541021189"
      ]
    },
    {
      "x": 335,
      "y": 288,
      "size": 1,
      "price": "1011000000000000000000",
      "reserved": "0x7a9fe22691c811ea339d9b73150e6911a5343dca",
      "salt": "0x3f9d7689586691330c4047bda255db63ecb1f5211183a50759241b64056bd94b",
      "assetIds": []
    },
    {
      "x": 335,
      "y": 289,
      "size": 1,
      "price": "4683000000000000000000",
      "reserved": "",
      "salt": "0xde060865cebcc228cf5c337c57f5c33868ffba7612b5d68dbe72d80f213124e9",
      "assetIds": [
        "41506478881403507969696680653240014914910929820314476107906210059990541021184"
      ]
    },
    {
      "x": 335,
      "y": 290,
      "size": 1,
      "price": "4683000000000000000000",
      "reserved": "",
      "salt": "0x2bc2d5a14d76a1436d2bb64699bf96bb3c0e946a1027ff52745b5edfe6e7324e",
      "assetIds": [
        "41506478881403507969696680653240014914910929820314476107906210059990541021189"
      ]
    },
    {
      "x": 336,
      "y": 252,
      "size": 1,
      "price": "4683000000000000000000",
      "reserved": "",
      "salt": "0x6db143d18d28e79f0d0a47c2d23b8d53758ff0597b9979af74722f69a1baf7d4",
      "assetIds": [
        "41506478881403507969696680653240014914910929820314476107906210059990541021188"
      ]
    },
    {
      "x": 336,
      "y": 253,
      "size": 1,
      "price": "4683000000000000000000",
      "reserved": "",
      "salt": "0x7f6271d034c8928acc9cf7cad5e841c906935730ee188cd942f4ada9b6ffa21b",
      "assetIds": [
        "41506478881403507969696680653240014914910929820314476107906210059990541021186"
      ]
    },
    {
      "x": 336,
      "y": 254,
      "size": 1,
      "price": "4683000000000000000000",
      "reserved": "",
      "salt": "0x26377f46c91ebb591b1e99c090affdeeeb2686edd1a48b506ebe6b5a45911694",
      "assetIds": [
        "41506478881403507969696680653240014914910929820314476107906210059990541021189"
      ]
    },
    {
      "x": 336,
      "y": 258,
      "size": 1,
      "price": "4683000000000000000000",
      "reserved": "",
      "salt": "0x24845a99d32ef68bccb95f27f806c7cf8c4a201fc4b84cca528753cb8b9caa44",
      "assetIds": [
        "41506478881403507969696680653240014914910929820314476107906210059990541021188"
      ]
    },
    {
      "x": 336,
      "y": 259,
      "size": 1,
      "price": "4683000000000000000000",
      "reserved": "",
      "salt": "0x9af493b510aedd55be97b07d475da892b00f8772d865893f399b53d86c5fba8e",
      "assetIds": [
        "41506478881403507969696680653240014914910929820314476107906210059990541021187"
      ]
    },
    {
      "x": 336,
      "y": 260,
      "size": 1,
      "price": "4683000000000000000000",
      "reserved": "",
      "salt": "0x5c81ef3a47e0ab63360b23ecaaf127d9d98a2b43674d0ceca1f2de95e050a71c",
      "assetIds": [
        "41506478881403507969696680653240014914910929820314476107906210059990541021187"
      ]
    },
    {
      "x": 336,
      "y": 261,
      "size": 1,
      "price": "4683000000000000000000",
      "reserved": "",
      "salt": "0x2a14c090b6bc6c5f6b674fe2cc85294cd4a2f4545ad98b933a7cfc79af12e10c",
      "assetIds": [
        "41506478881403507969696680653240014914910929820314476107906210059990541021188"
      ]
    },
    {
      "x": 336,
      "y": 262,
      "size": 1,
      "price": "4683000000000000000000",
      "reserved": "",
      "salt": "0x129afe15764a0a67ad25cc4d322f47e589ac5764f5def08da44147783ffc9b76",
      "assetIds": [
        "41506478881403507969696680653240014914910929820314476107906210059990541021187"
      ]
    },
    {
      "x": 336,
      "y": 263,
      "size": 1,
      "price": "4683000000000000000000",
      "reserved": "",
      "salt": "0xf7a18fe357c3fd333d5ff5faf541952d1a61e9ac5ab278c362df4600f861d12d",
      "assetIds": [
        "41506478881403507969696680653240014914910929820314476107906210059990541021186"
      ]
    },
    {
      "x": 336,
      "y": 288,
      "size": 1,
      "price": "4683000000000000000000",
      "reserved": "",
      "salt": "0x37c2ae0bb74a9333654668227614f815e66c5cf406a7948d0811a92b662d6a55",
      "assetIds": [
        "41506478881403507969696680653240014914910929820314476107906210059990541021187"
      ]
    },
    {
      "x": 336,
      "y": 289,
      "size": 1,
      "price": "4683000000000000000000",
      "reserved": "",
      "salt": "0xa416b47e851fe8f48d09b89aef66db0bae58bb266448b34617830c51f2abac85",
      "assetIds": [
        "41506478881403507969696680653240014914910929820314476107906210059990541021188"
      ]
    },
    {
      "x": 336,
      "y": 290,
      "size": 1,
      "price": "4683000000000000000000",
      "reserved": "",
      "salt": "0x2b5f010c542b3ca10f810c87ec79e87dbaef0429511bc2608d925affb3f12891",
      "assetIds": [
        "41506478881403507969696680653240014914910929820314476107906210059990541021189"
      ]
    },
    {
      "x": 336,
      "y": 291,
      "size": 1,
      "price": "4683000000000000000000",
      "reserved": "",
      "salt": "0xfaf8ee7030c4bb0e4bbeef83b14f26e58426f0c8acfd2d1ada56434c28cabc75",
      "assetIds": [
        "41506478881403507969696680653240014914910929820314476107906210059990541021187"
      ]
    },
    {
      "x": 336,
      "y": 292,
      "size": 1,
      "price": "4683000000000000000000",
      "reserved": "",
      "salt": "0x795d055612d4a24e7a99fb8bab83474aa280bf56f2f9e55a89c801252948757e",
      "assetIds": [
        "41506478881403507969696680653240014914910929820314476107906210059990541021188"
      ]
    },
    {
      "x": 336,
      "y": 293,
      "size": 1,
      "price": "4683000000000000000000",
      "reserved": "",
      "salt": "0x8f5fc60bf1ebd1ef5dd893e32b5320616df87fdb396859e134f00abcb673c1db",
      "assetIds": [
        "41506478881403507969696680653240014914910929820314476107906210059990541021187"
      ]
    },
    {
      "x": 336,
      "y": 294,
      "size": 1,
      "price": "4683000000000000000000",
      "reserved": "",
      "salt": "0x53cf7847f25b626204c08c497dbad1a3a0320e144db6b6c660faf14b023381f1",
      "assetIds": [
        "41506478881403507969696680653240014914910929820314476107906210059990541021184"
      ]
    },
    {
      "x": 336,
      "y": 295,
      "size": 1,
      "price": "4683000000000000000000",
      "reserved": "",
      "salt": "0x9fbc3b1548d4b3b1c5cb6b2f6cbd4781ac1582951a7cb06dd393661a7846b19f",
      "assetIds": [
        "41506478881403507969696680653240014914910929820314476107906210059990541021187"
      ]
    },
    {
      "x": 336,
      "y": 296,
      "size": 1,
      "price": "4683000000000000000000",
      "reserved": "",
      "salt": "0xf089ffc76940995992ad30f167f29d98326a9da6d82cf9089acd29795f256347",
      "assetIds": [
        "41506478881403507969696680653240014914910929820314476107906210059990541021189"
      ]
    },
    {
      "x": 336,
      "y": 297,
      "size": 1,
      "price": "4683000000000000000000",
      "reserved": "",
      "salt": "0x88f9b0ae84061b22e95af5878632fc5932f2411bc67a1343db48964ec3356cc2",
      "assetIds": [
        "41506478881403507969696680653240014914910929820314476107906210059990532622336"
      ]
    },
    {
      "x": 336,
      "y": 298,
      "size": 1,
      "price": "4683000000000000000000",
      "reserved": "",
      "salt": "0x670ff4d3c7b0b2af2da10f03fdfbfd52f97bf4cc1ba5f66c7123e91c9aeb6251",
      "assetIds": [
        "41506478881403507969696680653240014914910929820314476107906210059990541021187"
      ]
    },
    {
      "x": 336,
      "y": 299,
      "size": 1,
      "price": "4683000000000000000000",
      "reserved": "",
      "salt": "0xef1a0116c766eac7348f635b37d1705666ccce15735413c1008254e5b5a1fcf4",
      "assetIds": [
        "41506478881403507969696680653240014914910929820314476107906210059990541021189"
      ]
    },
    {
      "x": 337,
      "y": 252,
      "size": 1,
      "price": "4683000000000000000000",
      "reserved": "",
      "salt": "0x6e01d8eed044841f9c282ccfdeb18bfe45d7a45420bb3c1d94a5d873c2fbf180",
      "assetIds": [
        "41506478881403507969696680653240014914910929820314476107906210059990541021188"
      ]
    },
    {
      "x": 337,
      "y": 253,
      "size": 1,
      "price": "1011000000000000000000",
      "reserved": "0x7a9fe22691c811ea339d9b73150e6911a5343dca",
      "salt": "0x2fc781c81c8201dcdff73ee137ec23a0fd502af565fda7d36b096c414b2bca4a",
      "assetIds": []
    },
    {
      "x": 337,
      "y": 254,
      "size": 1,
      "price": "4683000000000000000000",
      "reserved": "",
      "salt": "0xf1322b9c4ef6eab9626f3f718115feb1c9bb099893bbfa0357da42c05e295ef4",
      "assetIds": [
        "41506478881403507969696680653240014914910929820314476107906210059990541021187"
      ]
    },
    {
      "x": 337,
      "y": 258,
      "size": 1,
      "price": "4683000000000000000000",
      "reserved": "",
      "salt": "0x3073c72364ee08b3aa11f60bbf54a74ea475d504531b5b87e2be53831fed57ec",
      "assetIds": [
        "41506478881403507969696680653240014914910929820314476107906210059990541021189"
      ]
    },
    {
      "x": 337,
      "y": 259,
      "size": 1,
      "price": "4683000000000000000000",
      "reserved": "",
      "salt": "0x19dd4374d5530c6e5d21d3e4c94ad672fa928dfaad9819be534b0b3fc33db326",
      "assetIds": [
        "41506478881403507969696680653240014914910929820314476107906210059990541021186"
      ]
    },
    {
      "x": 337,
      "y": 260,
      "size": 1,
      "price": "4683000000000000000000",
      "reserved": "",
      "salt": "0x424088f565b3f8533ad7cbd3c350567c99e9dbeb071b94a3bd228a9de474c936",
      "assetIds": [
        "41506478881403507969696680653240014914910929820314476107906210059990541021188"
      ]
    },
    {
      "x": 337,
      "y": 261,
      "size": 1,
      "price": "4683000000000000000000",
      "reserved": "",
      "salt": "0xa288540ef69a07655a862c0e4d4dfdc7e1fb6055ec3233ff8dbb26af243a04ea",
      "assetIds": [
        "41506478881403507969696680653240014914910929820314476107906210059990541021189"
      ]
    },
    {
      "x": 337,
      "y": 262,
      "size": 1,
      "price": "4683000000000000000000",
      "reserved": "",
      "salt": "0x332de124ada94d4d59ebad23dc32b0c80e2ed00cef52c6cb5405dbebc7b531d5",
      "assetIds": [
        "41506478881403507969696680653240014914910929820314476107906210059990541021184"
      ]
    },
    {
      "x": 337,
      "y": 263,
      "size": 1,
      "price": "4683000000000000000000",
      "reserved": "",
      "salt": "0x0cb5e90e679e846e4f44e953f05c11f18436ccdf97cd2dd5d19c9010794fd601",
      "assetIds": [
        "41506478881403507969696680653240014914910929820314476107906210059990541021188"
      ]
    },
    {
      "x": 337,
      "y": 288,
      "size": 1,
      "price": "4683000000000000000000",
      "reserved": "",
      "salt": "0x78a81ff6d81263ea7303e21089f724a5c16932783aaba693918f21a320ed8be3",
      "assetIds": [
        "41506478881403507969696680653240014914910929820314476107906210059990541021187"
      ]
    },
    {
      "x": 337,
      "y": 289,
      "size": 1,
      "price": "4683000000000000000000",
      "reserved": "",
      "salt": "0x6748e74c9a7250b21414bae47a8b36a7486995a0bcd5c4510b1826bb18de8a74",
      "assetIds": [
        "41506478881403507969696680653240014914910929820314476107906210059990541021188"
      ]
    },
    {
      "x": 337,
      "y": 290,
      "size": 1,
      "price": "4683000000000000000000",
      "reserved": "",
      "salt": "0xc786a1f667e13d271231827a7f42e5ee14429a79520a76a1c2b0deed0afcdce3",
      "assetIds": [
        "41506478881403507969696680653240014914910929820314476107906210059990541021189"
      ]
    },
    {
      "x": 337,
      "y": 291,
      "size": 1,
      "price": "4683000000000000000000",
      "reserved": "",
      "salt": "0x8981276751f236cd15694c01594c10cb150fec324952c475d3f5a2698b56c526",
      "assetIds": [
        "41506478881403507969696680653240014914910929820314476107906210059990541021184"
      ]
    },
    {
      "x": 337,
      "y": 292,
      "size": 1,
      "price": "4683000000000000000000",
      "reserved": "",
      "salt": "0x2a96348a88ee411661bf0e2f552953521a326ddfb0bc8b4b4c93a00dd5a68a7a",
      "assetIds": [
        "41506478881403507969696680653240014914910929820314476107906210059990541021185"
      ]
    },
    {
      "x": 337,
      "y": 293,
      "size": 1,
      "price": "4683000000000000000000",
      "reserved": "",
      "salt": "0xd792e1b95cd28ff7c38abee1943f993bb514325e5808859cbd2dc4928208ef80",
      "assetIds": [
        "41506478881403507969696680653240014914910929820314476107906210059990541021187"
      ]
    },
    {
      "x": 337,
      "y": 294,
      "size": 1,
      "price": "4683000000000000000000",
      "reserved": "",
      "salt": "0xea8ff97755fac907f884ec4d861bcf5a98090b7be574141801d020aefdbc4941",
      "assetIds": [
        "41506478881403507969696680653240014914910929820314476107906210059990541021189"
      ]
    },
    {
      "x": 337,
      "y": 295,
      "size": 1,
      "price": "4683000000000000000000",
      "reserved": "",
      "salt": "0xe0717de73eb84812b7246857163f11512552d87b425f7a8b78f72e9970ef50a1",
      "assetIds": [
        "41506478881403507969696680653240014914910929820314476107906210059990541021188"
      ]
    },
    {
      "x": 337,
      "y": 296,
      "size": 1,
      "price": "4683000000000000000000",
      "reserved": "",
      "salt": "0xa6ee99578f7239f64f3f5845a4333eb6f0dedde96446ee37851f58cbc5ab21f3",
      "assetIds": [
        "41506478881403507969696680653240014914910929820314476107906210059990541021187"
      ]
    },
    {
      "x": 337,
      "y": 297,
      "size": 1,
      "price": "4683000000000000000000",
      "reserved": "",
      "salt": "0x05966c2ccf8d537c45c57b76e7c8d2a8b05f545adf41eb87f6dd3fb5e58bc802",
      "assetIds": [
        "41506478881403507969696680653240014914910929820314476107906210059990541021188"
      ]
    },
    {
      "x": 337,
      "y": 298,
      "size": 1,
      "price": "4683000000000000000000",
      "reserved": "",
      "salt": "0xd842703695cc4664d875c0017e78eb78ca9291c066912f475b3cde3654abcedb",
      "assetIds": [
        "41506478881403507969696680653240014914910929820314476107906210059990541021187"
      ]
    },
    {
      "x": 337,
      "y": 299,
      "size": 1,
      "price": "4683000000000000000000",
      "reserved": "",
      "salt": "0x46fe13c6614d7c10481f7fbb2b8481370bb8af3c5ee909792300e6a638f8c3d8",
      "assetIds": [
        "41506478881403507969696680653240014914910929820314476107906210059990532622336"
      ]
    },
    {
      "x": 338,
      "y": 252,
      "size": 1,
      "price": "4683000000000000000000",
      "reserved": "",
      "salt": "0x92b889eb03a76fb33e4118ab5cbcf270f55075e9d707be1c15ca58e4a2607711",
      "assetIds": [
        "41506478881403507969696680653240014914910929820314476107906210059990541021184"
      ]
    },
    {
      "x": 338,
      "y": 253,
      "size": 1,
      "price": "4683000000000000000000",
      "reserved": "",
      "salt": "0x600230eb35687407ea021df81f9bc5ac7df78bd348f693c1c972bad499d77898",
      "assetIds": [
        "41506478881403507969696680653240014914910929820314476107906210059990541021185"
      ]
    },
    {
      "x": 338,
      "y": 254,
      "size": 1,
      "price": "4683000000000000000000",
      "reserved": "",
      "salt": "0x08ac828e12cb65fb7d5b79c30365a0c0f792e1c25cdaf92bd59fa53d015ca902",
      "assetIds": [
        "41506478881403507969696680653240014914910929820314476107906210059990541021185"
      ]
    },
    {
      "x": 338,
      "y": 258,
      "size": 1,
      "price": "4683000000000000000000",
      "reserved": "",
      "salt": "0x95c0ee5740b119f080b71295ae7e44fe78f7fb7f7698d859a5ff26fed9e6c646",
      "assetIds": [
        "41506478881403507969696680653240014914910929820314476107906210059990541021188"
      ]
    },
    {
      "x": 338,
      "y": 259,
      "size": 1,
      "price": "4683000000000000000000",
      "reserved": "",
      "salt": "0xb716bd43cf5dd7bf4b15f8111d18320595701b4a6bd725cfc6a507c7d8e814b5",
      "assetIds": [
        "41506478881403507969696680653240014914910929820314476107906210059990541021187"
      ]
    },
    {
      "x": 338,
      "y": 260,
      "size": 1,
      "price": "4683000000000000000000",
      "reserved": "",
      "salt": "0x6cc4da1c0a61fdb4db048600f5862bde510c7874e6051172e409655853b2061e",
      "assetIds": [
        "41506478881403507969696680653240014914910929820314476107906210059990541021186"
      ]
    },
    {
      "x": 338,
      "y": 261,
      "size": 1,
      "price": "4683000000000000000000",
      "reserved": "",
      "salt": "0xb54cc4e15d3e5d053375971b12b2e960e142732c7f4f9d1fbc4c8197ff49ece9",
      "assetIds": [
        "41506478881403507969696680653240014914910929820314476107906210059990541021189"
      ]
    },
    {
      "x": 338,
      "y": 262,
      "size": 1,
      "price": "4683000000000000000000",
      "reserved": "",
      "salt": "0xc1cc5202a45f006f6a2bc26e106f16f1140450aecdee6b19ecde050867665283",
      "assetIds": [
        "41506478881403507969696680653240014914910929820314476107906210059990541021188"
      ]
    },
    {
      "x": 338,
      "y": 263,
      "size": 1,
      "price": "4683000000000000000000",
      "reserved": "",
      "salt": "0x8213dcc9ce3513f40a0e6f5ff310ef2f387d57e98fa688b89993018c8708ffaa",
      "assetIds": [
        "41506478881403507969696680653240014914910929820314476107906210059990541021188"
      ]
    },
    {
      "x": 338,
      "y": 288,
      "size": 1,
      "price": "4683000000000000000000",
      "reserved": "",
      "salt": "0x619ac9d24279fd8e57710bc0405b92d41f79c385f42415a49427aa13d94a5b49",
      "assetIds": [
        "41506478881403507969696680653240014914910929820314476107906210059990541021187"
      ]
    },
    {
      "x": 338,
      "y": 289,
      "size": 1,
      "price": "1011000000000000000000",
      "reserved": "0x7a9fe22691c811ea339d9b73150e6911a5343dca",
      "salt": "0x6127877756403959ad66a5297bd3de70046939ec6e59a75eb77b96dada3611b9",
      "assetIds": []
    },
    {
      "x": 338,
      "y": 290,
      "size": 1,
      "price": "4683000000000000000000",
      "reserved": "",
      "salt": "0xc3092c1d0c8313c309192f82306f4b1ddca6607b3c9494376267ba07102990b2",
      "assetIds": [
        "41506478881403507969696680653240014914910929820314476107906210059990541021189"
      ]
    },
    {
      "x": 338,
      "y": 291,
      "size": 1,
      "price": "4683000000000000000000",
      "reserved": "",
      "salt": "0x9cee2c3ca28f3e69ef5e6a2fa966d1f0b1ec9c6a42827848ef217814eeaf5e89",
      "assetIds": [
        "41506478881403507969696680653240014914910929820314476107906210059990541021187"
      ]
    },
    {
      "x": 338,
      "y": 292,
      "size": 1,
      "price": "4683000000000000000000",
      "reserved": "",
      "salt": "0x97a8285f1399749cb8dc51616b59d5b1f9859e38fdca46756987c1b155f65ddd",
      "assetIds": [
        "41506478881403507969696680653240014914910929820314476107906210059990541021187"
      ]
    },
    {
      "x": 338,
      "y": 293,
      "size": 1,
      "price": "4683000000000000000000",
      "reserved": "",
      "salt": "0x89e98e10b98fd785040c3fca8abada282428a028d740609878c178c206a5f09a",
      "assetIds": [
        "41506478881403507969696680653240014914910929820314476107906210059990541021187"
      ]
    },
    {
      "x": 338,
      "y": 294,
      "size": 1,
      "price": "4683000000000000000000",
      "reserved": "",
      "salt": "0xf7ce84151f0460238752eab0d9fc6dc8b1c46b2a518916dc8be83181d75571eb",
      "assetIds": [
        "41506478881403507969696680653240014914910929820314476107906210059990541021189"
      ]
    },
    {
      "x": 338,
      "y": 295,
      "size": 1,
      "price": "4683000000000000000000",
      "reserved": "",
      "salt": "0x9b502c5c177a14b473a4b535e5ad69430908ef4382172c270589c19ffcf44683",
      "assetIds": [
        "41506478881403507969696680653240014914910929820314476107906210059990541021185"
      ]
    },
    {
      "x": 338,
      "y": 296,
      "size": 1,
      "price": "4683000000000000000000",
      "reserved": "",
      "salt": "0xfb1fcb746963fc2a5305fa57ea6f0fe0eea2949e8795b644c48c0d184240aaed",
      "assetIds": [
        "41506478881403507969696680653240014914910929820314476107906210059990541021187"
      ]
    },
    {
      "x": 338,
      "y": 297,
      "size": 1,
      "price": "4683000000000000000000",
      "reserved": "",
      "salt": "0x4dc626a3bd5db57b82db603b319ba469b470c263ab01d8fddb4fa31f25187d5a",
      "assetIds": [
        "41506478881403507969696680653240014914910929820314476107906210059990541021188"
      ]
    },
    {
      "x": 338,
      "y": 298,
      "size": 1,
      "price": "4683000000000000000000",
      "reserved": "",
      "salt": "0xf3705c09a7aac79f62de08d33f35569fbae0fc782c5a9c07f7878a0bdcf48d05",
      "assetIds": [
        "41506478881403507969696680653240014914910929820314476107906210059990541021186"
      ]
    },
    {
      "x": 338,
      "y": 299,
      "size": 1,
      "price": "4683000000000000000000",
      "reserved": "",
      "salt": "0x4c73d220710fb70e6baeb6a1df6b8e831a95e4879c5fdae1ff2b6c05f070c446",
      "assetIds": [
        "41506478881403507969696680653240014914910929820314476107906210059990541021188"
      ]
    },
    {
      "x": 339,
      "y": 246,
      "size": 1,
      "price": "4683000000000000000000",
      "reserved": "",
      "salt": "0xd69433c9e74198ec834f08676a202d7fb27bf812bd8b3d7730b4e922cfb03f75",
      "assetIds": [
        "41506478881403507969696680653240014914910929820314476107906210059990541021184"
      ]
    },
    {
      "x": 339,
      "y": 247,
      "size": 1,
      "price": "4683000000000000000000",
      "reserved": "",
      "salt": "0xaa99623dfe130dff3f4d833f0be9cc0b3ebe0ebcbdbd3669b194aa7613e2cc91",
      "assetIds": [
        "41506478881403507969696680653240014914910929820314476107906210059990541021185"
      ]
    },
    {
      "x": 339,
      "y": 248,
      "size": 1,
      "price": "4683000000000000000000",
      "reserved": "",
      "salt": "0x0f0003915e3777934757d9ebf956534c4b9b2298e118673b31c13b47abc8046d",
      "assetIds": [
        "41506478881403507969696680653240014914910929820314476107906210059990541021187"
      ]
    },
    {
      "x": 339,
      "y": 249,
      "size": 1,
      "price": "4683000000000000000000",
      "reserved": "",
      "salt": "0x00dc31e60e315c19009f9a0b2ccfabdb90f0b1245f08b85dc8acb89d16674f5d",
      "assetIds": [
        "41506478881403507969696680653240014914910929820314476107906210059990541021185"
      ]
    },
    {
      "x": 339,
      "y": 250,
      "size": 1,
      "price": "4683000000000000000000",
      "reserved": "",
      "salt": "0xbfa12ec3322b3168bd216ff34f517c8954a340c8e2a8b3e75901c66af03604f8",
      "assetIds": [
        "41506478881403507969696680653240014914910929820314476107906210059990541021188"
      ]
    },
    {
      "x": 339,
      "y": 251,
      "size": 1,
      "price": "4683000000000000000000",
      "reserved": "",
      "salt": "0x5733280b9aa96953dd4ef43723535a2784caf27b8e538abe94f545427d9f711b",
      "assetIds": [
        "41506478881403507969696680653240014914910929820314476107906210059990541021185"
      ]
    },
    {
      "x": 339,
      "y": 255,
      "size": 1,
      "price": "4683000000000000000000",
      "reserved": "",
      "salt": "0xb619273e3069d6eaa85d13e2643e9d1c4522cca28ab5dcbb94a3e5fb19b5f875",
      "assetIds": [
        "41506478881403507969696680653240014914910929820314476107906210059990541021187"
      ]
    },
    {
      "x": 339,
      "y": 256,
      "size": 1,
      "price": "4683000000000000000000",
      "reserved": "",
      "salt": "0xd68fc7b744edfd419d67bc71d5c953bcc6a225638dc7395934a60685f0361bd3",
      "assetIds": [
        "41506478881403507969696680653240014914910929820314476107906210059990541021189"
      ]
    },
    {
      "x": 339,
      "y": 257,
      "size": 1,
      "price": "4683000000000000000000",
      "reserved": "",
      "salt": "0xa457ae558e76d7bf84d119b74400658419ea95c58911806217a89c2a86362f89",
      "assetIds": [
        "41506478881403507969696680653240014914910929820314476107906210059990532622336"
      ]
    },
    {
      "x": 339,
      "y": 258,
      "size": 1,
      "price": "4683000000000000000000",
      "reserved": "",
      "salt": "0x7ea039496d6df3946ad90227163f4fa68b84befbb4c22ba98b2c888f56e408cf",
      "assetIds": [
        "41506478881403507969696680653240014914910929820314476107906210059990541021188"
      ]
    },
    {
      "x": 339,
      "y": 259,
      "size": 1,
      "price": "4683000000000000000000",
      "reserved": "",
      "salt": "0x1310c3038f69e2062c769afb768f1e881134033795e02b46aa2b5e9707f7ba04",
      "assetIds": [
        "41506478881403507969696680653240014914910929820314476107906210059990541021189"
      ]
    },
    {
      "x": 339,
      "y": 260,
      "size": 1,
      "price": "4683000000000000000000",
      "reserved": "",
      "salt": "0xf4755f8512909fa19f2c8e76b148a93bcbe53bdf69b33779dc4f7c3f381e347e",
      "assetIds": [
        "41506478881403507969696680653240014914910929820314476107906210059990541021187"
      ]
    },
    {
      "x": 339,
      "y": 261,
      "size": 1,
      "price": "4683000000000000000000",
      "reserved": "",
      "salt": "0xb889612aef7469849a62e2d518417f56e3b7073be5133f5a67be62e48eceae72",
      "assetIds": [
        "41506478881403507969696680653240014914910929820314476107906210059990541021185"
      ]
    },
    {
      "x": 339,
      "y": 262,
      "size": 1,
      "price": "1011000000000000000000",
      "reserved": "0x7a9fe22691c811ea339d9b73150e6911a5343dca",
      "salt": "0x49900fda2b302d907830e81fc8ec1ea603bcc3adc39469fa38d5ca865762bbbe",
      "assetIds": []
    },
    {
      "x": 339,
      "y": 263,
      "size": 1,
      "price": "4683000000000000000000",
      "reserved": "",
      "salt": "0x61842124e86ad878a26c5c0723533933222241c725c8ef12605002c8cb9461fa",
      "assetIds": [
        "41506478881403507969696680653240014914910929820314476107906210059990541021184"
      ]
    },
    {
      "x": 339,
      "y": 288,
      "size": 1,
      "price": "4683000000000000000000",
      "reserved": "",
      "salt": "0x8152eae646231072b24ba7c06f6d3e1da757e1a2971d51535d9788048e2a6ca6",
      "assetIds": [
        "41506478881403507969696680653240014914910929820314476107906210059990541021184"
      ]
    },
    {
      "x": 339,
      "y": 289,
      "size": 1,
      "price": "4683000000000000000000",
      "reserved": "",
      "salt": "0x1393076498b82cf6ff29851b10c74a1ed002f365e5a96d3b7fa915116d242685",
      "assetIds": [
        "41506478881403507969696680653240014914910929820314476107906210059990541021188"
      ]
    },
    {
      "x": 339,
      "y": 290,
      "size": 1,
      "price": "4683000000000000000000",
      "reserved": "",
      "salt": "0x0a26314be09bbce4063b4fb88e24d3285668e84ce539deb0a32676fee2eef932",
      "assetIds": [
        "41506478881403507969696680653240014914910929820314476107906210059990541021188"
      ]
    },
    {
      "x": 339,
      "y": 291,
      "size": 1,
      "price": "4683000000000000000000",
      "reserved": "",
      "salt": "0x0aae31808ec3ff272d894cd62ddbfcfb0c61221cac312438b685ba65f5d0bb26",
      "assetIds": [
        "41506478881403507969696680653240014914910929820314476107906210059990541021189"
      ]
    },
    {
      "x": 339,
      "y": 292,
      "size": 1,
      "price": "4683000000000000000000",
      "reserved": "",
      "salt": "0x2e218565986c3a8438171e448f09478ddb8318d444dc7006bf3d9a23ecb6b0eb",
      "assetIds": [
        "41506478881403507969696680653240014914910929820314476107906210059990541021188"
      ]
    },
    {
      "x": 339,
      "y": 293,
      "size": 1,
      "price": "4683000000000000000000",
      "reserved": "",
      "salt": "0x3d3b8dbb5aaa08984e891b49fd33d20beb8685a48aff81b1a06d85536a0f3e16",
      "assetIds": [
        "41506478881403507969696680653240014914910929820314476107906210059990532622336"
      ]
    },
    {
      "x": 339,
      "y": 294,
      "size": 1,
      "price": "4683000000000000000000",
      "reserved": "",
      "salt": "0x6dcd761a87176ad7dbfd5b353ce68bda57590bdece9ef65255c159527c778390",
      "assetIds": [
        "41506478881403507969696680653240014914910929820314476107906210059990541021184"
      ]
    },
    {
      "x": 339,
      "y": 295,
      "size": 1,
      "price": "4683000000000000000000",
      "reserved": "",
      "salt": "0x43f000cf00dca6b0d3dc313f26d1d6d1455401d272395a7c404bdf5232cb2979",
      "assetIds": [
        "41506478881403507969696680653240014914910929820314476107906210059990541021184"
      ]
    },
    {
      "x": 339,
      "y": 296,
      "size": 1,
      "price": "4683000000000000000000",
      "reserved": "",
      "salt": "0xb369a65dcd3581c3fe86ab39eeb523cfd22b78671f1ea4acf85491f0edd6af54",
      "assetIds": [
        "41506478881403507969696680653240014914910929820314476107906210059990541021187"
      ]
    },
    {
      "x": 339,
      "y": 297,
      "size": 1,
      "price": "4683000000000000000000",
      "reserved": "",
      "salt": "0xee7bd3b252a32b90ecda6540dd9d595c232b8c82a8794284b5d2831faf17c689",
      "assetIds": [
        "41506478881403507969696680653240014914910929820314476107906210059990541021185"
      ]
    },
    {
      "x": 339,
      "y": 298,
      "size": 1,
      "price": "4683000000000000000000",
      "reserved": "",
      "salt": "0xe41fdd02153615933ed0532b048c8edd2db73bd49d6710e0fbfb8d6c7834cf10",
      "assetIds": [
        "41506478881403507969696680653240014914910929820314476107906210059990541021189"
      ]
    },
    {
      "x": 339,
      "y": 299,
      "size": 1,
      "price": "4683000000000000000000",
      "reserved": "",
      "salt": "0x5f9aa839b62b6be8e4bc516588d24aee18f1a917f3d27d2a060bd9b3fb7ce2ae",
      "assetIds": [
        "41506478881403507969696680653240014914910929820314476107906210059990532622336"
      ]
    },
    {
      "x": 340,
      "y": 246,
      "size": 1,
      "price": "4683000000000000000000",
      "reserved": "",
      "salt": "0x9228fe217f2a86013bdc9d302e98ad1edd5c6d52f948d8ea4d3fda6fb5856687",
      "assetIds": [
        "41506478881403507969696680653240014914910929820314476107906210059990541021188"
      ]
    },
    {
      "x": 340,
      "y": 247,
      "size": 1,
      "price": "4683000000000000000000",
      "reserved": "",
      "salt": "0xe9ac746cb0f5bd6d06d599eeecbf0a63bc0a90d4f6acfaaf4bf2e07f0e41949f",
      "assetIds": [
        "41506478881403507969696680653240014914910929820314476107906210059990541021187"
      ]
    },
    {
      "x": 340,
      "y": 248,
      "size": 1,
      "price": "4683000000000000000000",
      "reserved": "",
      "salt": "0x04393865c0c1ff2ff1453ce10d9b44af978f88ab89a2ed5b2b6d77c3a6fd58f4",
      "assetIds": [
        "41506478881403507969696680653240014914910929820314476107906210059990541021184"
      ]
    },
    {
      "x": 340,
      "y": 249,
      "size": 1,
      "price": "4683000000000000000000",
      "reserved": "",
      "salt": "0x3672c2162eb42ab78d49ca0d0c5222e2c2d50189f8ab867bcc0337041af35ae4",
      "assetIds": [
        "41506478881403507969696680653240014914910929820314476107906210059990541021185"
      ]
    },
    {
      "x": 340,
      "y": 250,
      "size": 1,
      "price": "4683000000000000000000",
      "reserved": "",
      "salt": "0x1715649ad4655f91e23d4038735c10ea71a7e3f0508dd9ccb580b46f8686e465",
      "assetIds": [
        "41506478881403507969696680653240014914910929820314476107906210059990541021186"
      ]
    },
    {
      "x": 340,
      "y": 251,
      "size": 1,
      "price": "4683000000000000000000",
      "reserved": "",
      "salt": "0xe2238d03958e905b156e6d1f6e58bf995c48ef019a6e98a0403690ae27c4fe5f",
      "assetIds": [
        "41506478881403507969696680653240014914910929820314476107906210059990541021188"
      ]
    },
    {
      "x": 340,
      "y": 255,
      "size": 1,
      "price": "4683000000000000000000",
      "reserved": "",
      "salt": "0x9e7f0ec72e247ef82400ef8c84db4e713dab19d7dab870dccff605c5bc35453f",
      "assetIds": [
        "41506478881403507969696680653240014914910929820314476107906210059990541021184"
      ]
    },
    {
      "x": 340,
      "y": 256,
      "size": 1,
      "price": "4683000000000000000000",
      "reserved": "",
      "salt": "0xc8232066e329c4b612f15a2c569f8b295ef414f736bfe7add9d6fa5fd9ae60e5",
      "assetIds": [
        "41506478881403507969696680653240014914910929820314476107906210059990541021185"
      ]
    },
    {
      "x": 340,
      "y": 257,
      "size": 1,
      "price": "4683000000000000000000",
      "reserved": "",
      "salt": "0xaeb75f3c59157016e7b2b352392836a432c68ca25254c42d8bf7ec3eca48c337",
      "assetIds": [
        "41506478881403507969696680653240014914910929820314476107906210059990541021187"
      ]
    },
    {
      "x": 340,
      "y": 258,
      "size": 1,
      "price": "4683000000000000000000",
      "reserved": "",
      "salt": "0x39fd56fc9c4f19a7138b6b0f02051907eb66da8472b4b500e4694a19beb72a17",
      "assetIds": [
        "41506478881403507969696680653240014914910929820314476107906210059990541021187"
      ]
    },
    {
      "x": 340,
      "y": 259,
      "size": 1,
      "price": "4683000000000000000000",
      "reserved": "",
      "salt": "0x2c1dcd114ac594b7286b723334bad5058a726a2328c65f036151fde1f014e6f7",
      "assetIds": [
        "41506478881403507969696680653240014914910929820314476107906210059990541021187"
      ]
    },
    {
      "x": 340,
      "y": 260,
      "size": 1,
      "price": "4683000000000000000000",
      "reserved": "",
      "salt": "0x5086fc17316231aa997a0b12687cbe17c4d556accccc54055db38873077d6c83",
      "assetIds": [
        "41506478881403507969696680653240014914910929820314476107906210059990541021189"
      ]
    },
    {
      "x": 340,
      "y": 261,
      "size": 1,
      "price": "4683000000000000000000",
      "reserved": "",
      "salt": "0x24993b454844af055eadcf5b295f785b8dd9f421b86649c75e2d547b5c1caa21",
      "assetIds": [
        "41506478881403507969696680653240014914910929820314476107906210059990541021187"
      ]
    },
    {
      "x": 340,
      "y": 262,
      "size": 1,
      "price": "4683000000000000000000",
      "reserved": "",
      "salt": "0x1c35eb3acdabc0a77990291455813d330f7eb35d7dbe54f1c166222e23095494",
      "assetIds": [
        "41506478881403507969696680653240014914910929820314476107906210059990541021186"
      ]
    },
    {
      "x": 340,
      "y": 263,
      "size": 1,
      "price": "4683000000000000000000",
      "reserved": "",
      "salt": "0xe319a3352f296bc41727c1f5c395e59bb765abe366173c056d1b969ac84f774d",
      "assetIds": [
        "41506478881403507969696680653240014914910929820314476107906210059990541021185"
      ]
    },
    {
      "x": 340,
      "y": 288,
      "size": 1,
      "price": "4683000000000000000000",
      "reserved": "",
      "salt": "0x6bead4c9b99dfa64f00c2521b95363cb5cc4832ceba307c7378bb8cd29cd317c",
      "assetIds": [
        "41506478881403507969696680653240014914910929820314476107906210059990541021189"
      ]
    },
    {
      "x": 340,
      "y": 289,
      "size": 1,
      "price": "4683000000000000000000",
      "reserved": "",
      "salt": "0x068618654d9b3a583e2ef42ed1bcbea9adb3b3f4c1521cf8b9ea00505f3bb849",
      "assetIds": [
        "41506478881403507969696680653240014914910929820314476107906210059990541021187"
      ]
    },
    {
      "x": 340,
      "y": 290,
      "size": 1,
      "price": "4683000000000000000000",
      "reserved": "",
      "salt": "0x126fc6392c04aa0edd9cabaa0d3947187798d994c965f63c729f20603e224db9",
      "assetIds": [
        "41506478881403507969696680653240014914910929820314476107906210059990541021189"
      ]
    },
    {
      "x": 340,
      "y": 291,
      "size": 1,
      "price": "4683000000000000000000",
      "reserved": "",
      "salt": "0xd1ff0902ac70f777bf7aa172fda773dec5d69d78d0dc6e09d34cf4891eda04c5",
      "assetIds": [
        "41506478881403507969696680653240014914910929820314476107906210059990541021185"
      ]
    },
    {
      "x": 340,
      "y": 292,
      "size": 1,
      "price": "4683000000000000000000",
      "reserved": "",
      "salt": "0xf2eb832acdc601ea119bb0aa4f5025ce6fd770a21adad0ebe304418b4d4b0def",
      "assetIds": [
        "41506478881403507969696680653240014914910929820314476107906210059990541021184"
      ]
    },
    {
      "x": 340,
      "y": 293,
      "size": 1,
      "price": "4683000000000000000000",
      "reserved": "",
      "salt": "0x96f0a260e25cfe594b3745a84258248d799bc1ea2f24dee792b4a236f6716bd8",
      "assetIds": [
        "41506478881403507969696680653240014914910929820314476107906210059990541021184"
      ]
    },
    {
      "x": 340,
      "y": 294,
      "size": 1,
      "price": "4683000000000000000000",
      "reserved": "",
      "salt": "0xd0a844f302eaf56139fbed176df84cfa2b19f9c46d0c95f6d989c5da0f075c9a",
      "assetIds": [
        "41506478881403507969696680653240014914910929820314476107906210059990532622336"
      ]
    },
    {
      "x": 340,
      "y": 295,
      "size": 1,
      "price": "4683000000000000000000",
      "reserved": "",
      "salt": "0xc2df7e105702bc3cf36af20f3f1fdd9469be2fe46912b49ef3dae0ccf3e2d868",
      "assetIds": [
        "41506478881403507969696680653240014914910929820314476107906210059990541021188"
      ]
    },
    {
      "x": 340,
      "y": 296,
      "size": 1,
      "price": "4683000000000000000000",
      "reserved": "",
      "salt": "0x99ea2d05203a79efa1fdc5a9f19bc3ab6bbe361561ca23f35f5f88a2dc6fc613",
      "assetIds": [
        "41506478881403507969696680653240014914910929820314476107906210059990532622336"
      ]
    },
    {
      "x": 340,
      "y": 297,
      "size": 1,
      "price": "4683000000000000000000",
      "reserved": "",
      "salt": "0x24135483ab5c04504d108868eee41aadefb131387402db871493758eba26484b",
      "assetIds": [
        "41506478881403507969696680653240014914910929820314476107906210059990541021185"
      ]
    },
    {
      "x": 340,
      "y": 298,
      "size": 1,
      "price": "4683000000000000000000",
      "reserved": "",
      "salt": "0x2c7e7173fa28775b2963d038b772acbdbd71f6ba064b32f54df761733f381acb",
      "assetIds": [
        "41506478881403507969696680653240014914910929820314476107906210059990541021189"
      ]
    },
    {
      "x": 340,
      "y": 299,
      "size": 1,
      "price": "4683000000000000000000",
      "reserved": "",
      "salt": "0xec917885d2d50466437624ec9b90aad5f49688e1bb820733f93c89965c11eb88",
      "assetIds": [
        "41506478881403507969696680653240014914910929820314476107906210059990541021187"
      ]
    },
    {
      "x": 341,
      "y": 246,
      "size": 1,
      "price": "4683000000000000000000",
      "reserved": "",
      "salt": "0xf25e0aa908b991f4be658b13c097a6fd21673851f233884a6029e031a4cde6ad",
      "assetIds": [
        "41506478881403507969696680653240014914910929820314476107906210059990541021187"
      ]
    },
    {
      "x": 341,
      "y": 247,
      "size": 1,
      "price": "4683000000000000000000",
      "reserved": "",
      "salt": "0x3717698a8c2869afde03141c9a1dc57d11d200db72fadcbb85961aa0c2860b2d",
      "assetIds": [
        "41506478881403507969696680653240014914910929820314476107906210059990541021184"
      ]
    },
    {
      "x": 341,
      "y": 248,
      "size": 1,
      "price": "4683000000000000000000",
      "reserved": "",
      "salt": "0x4b2e252c2df2878675f986dde8f696e75ea8c3a29d8cac1ce28d554ac70b5060",
      "assetIds": [
        "41506478881403507969696680653240014914910929820314476107906210059990541021189"
      ]
    },
    {
      "x": 341,
      "y": 249,
      "size": 1,
      "price": "4683000000000000000000",
      "reserved": "",
      "salt": "0xd74eff4017d11a898ae07d1630ff10ba7f84196df59a17c6ff9ac907edebeec4",
      "assetIds": [
        "41506478881403507969696680653240014914910929820314476107906210059990541021186"
      ]
    },
    {
      "x": 341,
      "y": 250,
      "size": 1,
      "price": "4683000000000000000000",
      "reserved": "",
      "salt": "0x834b59b48e87d11d519adfdd093dd34b7ae16ddab42b8bccd028b99f80c04461",
      "assetIds": [
        "41506478881403507969696680653240014914910929820314476107906210059990541021187"
      ]
    },
    {
      "x": 341,
      "y": 251,
      "size": 1,
      "price": "4683000000000000000000",
      "reserved": "",
      "salt": "0x2c9a8aa4f38383d3d73cbdd5fde27c5250b3c9cd4655b03c7abc10578208aa4c",
      "assetIds": [
        "41506478881403507969696680653240014914910929820314476107906210059990541021185"
      ]
    },
    {
      "x": 341,
      "y": 255,
      "size": 1,
      "price": "4683000000000000000000",
      "reserved": "",
      "salt": "0xc5785aaa2de96239e2749f4406cb89695e80c6532a83dceb3f131613f55f521d",
      "assetIds": [
        "41506478881403507969696680653240014914910929820314476107906210059990532622336"
      ]
    },
    {
      "x": 341,
      "y": 256,
      "size": 1,
      "price": "4683000000000000000000",
      "reserved": "",
      "salt": "0xf932cdca553793e732cfc36f597f13822039e8f24082ffb04a9e4b401a02c424",
      "assetIds": [
        "41506478881403507969696680653240014914910929820314476107906210059990532622336"
      ]
    },
    {
      "x": 341,
      "y": 257,
      "size": 1,
      "price": "4683000000000000000000",
      "reserved": "",
      "salt": "0xe4243debf445776c813dc6c3a54338efcda24cf1dc66c7d1861831ec4f156121",
      "assetIds": [
        "41506478881403507969696680653240014914910929820314476107906210059990541021189"
      ]
    },
    {
      "x": 341,
      "y": 258,
      "size": 1,
      "price": "4683000000000000000000",
      "reserved": "",
      "salt": "0xeb13529545737bc8807ffdf1fd35887259f0266e702dd0313c59aaa49bad1a08",
      "assetIds": [
        "41506478881403507969696680653240014914910929820314476107906210059990541021187"
      ]
    },
    {
      "x": 341,
      "y": 259,
      "size": 1,
      "price": "4683000000000000000000",
      "reserved": "",
      "salt": "0xb8574ff60f62a3b3dd8eabf88aa6e3a34295fdb13aa95005e3b24403e2ed43f0",
      "assetIds": [
        "41506478881403507969696680653240014914910929820314476107906210059990541021188"
      ]
    },
    {
      "x": 341,
      "y": 260,
      "size": 1,
      "price": "4683000000000000000000",
      "reserved": "",
      "salt": "0x1c5035ace54af2f09fe5af46ab0625cec22b7a60645556ec6d39046d13e66884",
      "assetIds": [
        "41506478881403507969696680653240014914910929820314476107906210059990541021189"
      ]
    },
    {
      "x": 341,
      "y": 261,
      "size": 1,
      "price": "4683000000000000000000",
      "reserved": "",
      "salt": "0x21c20a8a544469dd0f6dd686461126eef1f7d4ae82067cd2582da99f0c49aff8",
      "assetIds": [
        "41506478881403507969696680653240014914910929820314476107906210059990541021184"
      ]
    },
    {
      "x": 341,
      "y": 262,
      "size": 1,
      "price": "4683000000000000000000",
      "reserved": "",
      "salt": "0x430a477041bb9633a7c60257c97cd491dce8b5ec0af696d7eaa51773143bd7e1",
      "assetIds": [
        "41506478881403507969696680653240014914910929820314476107906210059990532622336"
      ]
    },
    {
      "x": 341,
      "y": 263,
      "size": 1,
      "price": "4683000000000000000000",
      "reserved": "",
      "salt": "0x6eb71fcf0f7fc480463a0383197f316e2f6a9ad5432b51d1197447a3a1f86e06",
      "assetIds": [
        "41506478881403507969696680653240014914910929820314476107906210059990541021185"
      ]
    },
    {
      "x": 341,
      "y": 288,
      "size": 1,
      "price": "4683000000000000000000",
      "reserved": "",
      "salt": "0x0b630a1e7c4aa76912644c9df5ca98b502b07b5935ad1034fcb88dba17fa8997",
      "assetIds": [
        "41506478881403507969696680653240014914910929820314476107906210059990541021189"
      ]
    },
    {
      "x": 341,
      "y": 289,
      "size": 1,
      "price": "4683000000000000000000",
      "reserved": "",
      "salt": "0x6ec46db9fa190b1da9c016236844103a385d81764725576ec42a8f4ee455e95c",
      "assetIds": [
        "41506478881403507969696680653240014914910929820314476107906210059990541021187"
      ]
    },
    {
      "x": 341,
      "y": 290,
      "size": 1,
      "price": "4683000000000000000000",
      "reserved": "",
      "salt": "0xb926513241215e62dd5f8fe2d80dfa8634a104d01adc90a69648681555db432f",
      "assetIds": [
        "41506478881403507969696680653240014914910929820314476107906210059990541021187"
      ]
    },
    {
      "x": 341,
      "y": 291,
      "size": 1,
      "price": "4683000000000000000000",
      "reserved": "",
      "salt": "0x31311bea37809dfdeff846498a1111cc43fe0b11b7f3bbbbc2ac07f4c70270d6",
      "assetIds": [
        "41506478881403507969696680653240014914910929820314476107906210059990541021187"
      ]
    },
    {
      "x": 341,
      "y": 292,
      "size": 1,
      "price": "4683000000000000000000",
      "reserved": "",
      "salt": "0x3b3ca2971b2467610c781c595a75416e5b9d910308b070bb367d1cce07b204c7",
      "assetIds": [
        "41506478881403507969696680653240014914910929820314476107906210059990541021187"
      ]
    },
    {
      "x": 341,
      "y": 293,
      "size": 1,
      "price": "4683000000000000000000",
      "reserved": "",
      "salt": "0xf845dfc2caeb9a59ec20edcc6846d872352ee86fa5ed1ec328f1deb5e208c713",
      "assetIds": [
        "41506478881403507969696680653240014914910929820314476107906210059990541021189"
      ]
    },
    {
      "x": 341,
      "y": 294,
      "size": 1,
      "price": "4683000000000000000000",
      "reserved": "",
      "salt": "0x1812a89d7bd0f531cc05a5319220d9bd35ff9065c9a80e6ca066871d26e978bb",
      "assetIds": [
        "41506478881403507969696680653240014914910929820314476107906210059990541021184"
      ]
    },
    {
      "x": 341,
      "y": 295,
      "size": 1,
      "price": "4683000000000000000000",
      "reserved": "",
      "salt": "0x549b251e6749749fa69e61607a7388d1af9906d15369f1a49f3cfe2f76cbc866",
      "assetIds": [
        "41506478881403507969696680653240014914910929820314476107906210059990541021187"
      ]
    },
    {
      "x": 341,
      "y": 296,
      "size": 1,
      "price": "4683000000000000000000",
      "reserved": "",
      "salt": "0x869853fd488a125fb21a70ac1fc7ea956d7063c7b2807869d23568c036174bcb",
      "assetIds": [
        "41506478881403507969696680653240014914910929820314476107906210059990541021188"
      ]
    },
    {
      "x": 341,
      "y": 297,
      "size": 1,
      "price": "4683000000000000000000",
      "reserved": "",
      "salt": "0xef1cd9a2a8dbefb3d7da90a19c537ba8139e6e3036742b7172a3b04f187615f1",
      "assetIds": [
        "41506478881403507969696680653240014914910929820314476107906210059990541021188"
      ]
    },
    {
      "x": 341,
      "y": 298,
      "size": 1,
      "price": "4683000000000000000000",
      "reserved": "",
      "salt": "0x061f2489ac1974917587d221d316566d48585ecdab169b206cc497fdc24b5a83",
      "assetIds": [
        "41506478881403507969696680653240014914910929820314476107906210059990541021188"
      ]
    },
    {
      "x": 341,
      "y": 299,
      "size": 1,
      "price": "4683000000000000000000",
      "reserved": "",
      "salt": "0xa8ca3cf25cc404205dc02df648d9befefe7180c6b4e1f74b3b5af9e70d2a9bfa",
      "assetIds": [
        "41506478881403507969696680653240014914910929820314476107906210059990541021189"
      ]
    },
    {
      "x": 342,
      "y": 240,
      "size": 1,
      "price": "4683000000000000000000",
      "reserved": "",
      "salt": "0x9dbe04aecb7f1b396014a8ab0babb40cace0e857d1da90530f82b9dd1ee9b796",
      "assetIds": [
        "41506478881403507969696680653240014914910929820314476107906210059990541021189"
      ]
    },
    {
      "x": 342,
      "y": 241,
      "size": 1,
      "price": "4683000000000000000000",
      "reserved": "",
      "salt": "0x7f0215de192df87a45db730e1e3a70f20a7d5eedb260d1f787b15b17ce3ffd2d",
      "assetIds": [
        "41506478881403507969696680653240014914910929820314476107906210059990541021189"
      ]
    },
    {
      "x": 342,
      "y": 242,
      "size": 1,
      "price": "4683000000000000000000",
      "reserved": "",
      "salt": "0x68ac62b7e37295e32735542b980201033d642555df8bab64ad49359d8d2a136f",
      "assetIds": [
        "41506478881403507969696680653240014914910929820314476107906210059990541021189"
      ]
    },
    {
      "x": 342,
      "y": 243,
      "size": 1,
      "price": "4683000000000000000000",
      "reserved": "",
      "salt": "0xb6154d1df1bf466401053e55097b6dc33e309a8842a1a5bfccfaa698d2f997e1",
      "assetIds": [
        "41506478881403507969696680653240014914910929820314476107906210059990541021188"
      ]
    },
    {
      "x": 342,
      "y": 244,
      "size": 1,
      "price": "4683000000000000000000",
      "reserved": "",
      "salt": "0x8f102e65fa07cdc7d07b282d62e099a2e205c18348b09cdbfca4ee3b9b47c959",
      "assetIds": [
        "41506478881403507969696680653240014914910929820314476107906210059990541021187"
      ]
    },
    {
      "x": 342,
      "y": 245,
      "size": 1,
      "price": "4683000000000000000000",
      "reserved": "",
      "salt": "0xbeb147c626cce7e6da70489ce3dce71fca5c6531de73096e863bf4525ec00510",
      "assetIds": [
        "41506478881403507969696680653240014914910929820314476107906210059990541021187"
      ]
    },
    {
      "x": 342,
      "y": 246,
      "size": 1,
      "price": "4683000000000000000000",
      "reserved": "",
      "salt": "0x09edafcf420bf1e67ac5ca72b09a49fb7ae968c55bf87d8124019c2b56033f3e",
      "assetIds": [
        "41506478881403507969696680653240014914910929820314476107906210059990541021187"
      ]
    },
    {
      "x": 342,
      "y": 247,
      "size": 1,
      "price": "4683000000000000000000",
      "reserved": "",
      "salt": "0xee4afaad8c8e074b06259703d10dadb1e276b23a0d2b4b2c97c55d06e5938bbf",
      "assetIds": [
        "41506478881403507969696680653240014914910929820314476107906210059990541021188"
      ]
    },
    {
      "x": 342,
      "y": 248,
      "size": 1,
      "price": "4683000000000000000000",
      "reserved": "",
      "salt": "0x3dfc99d40bf94b6777894408a3c9839763d2353097bf7edb8de3d58d209a9a8b",
      "assetIds": [
        "41506478881403507969696680653240014914910929820314476107906210059990541021189"
      ]
    },
    {
      "x": 342,
      "y": 249,
      "size": 1,
      "price": "4683000000000000000000",
      "reserved": "",
      "salt": "0x2eea36a2f6ea4bc5a0c76c579c8ea24bff0d885cb73082a0071131455cf3dc12",
      "assetIds": [
        "41506478881403507969696680653240014914910929820314476107906210059990541021189"
      ]
    },
    {
      "x": 342,
      "y": 250,
      "size": 1,
      "price": "4683000000000000000000",
      "reserved": "",
      "salt": "0x74058ce1da97edd39ef058f25c4833e34d9e41f35f614c3fd41a34899da400b9",
      "assetIds": [
        "41506478881403507969696680653240014914910929820314476107906210059990541021187"
      ]
    },
    {
      "x": 342,
      "y": 251,
      "size": 1,
      "price": "4683000000000000000000",
      "reserved": "",
      "salt": "0x5db520329ae8599d0e626339bd04eb4960681ab40b1c90feccae744b1d550e38",
      "assetIds": [
        "41506478881403507969696680653240014914910929820314476107906210059990541021189"
      ]
    },
    {
      "x": 342,
      "y": 252,
      "size": 1,
      "price": "4683000000000000000000",
      "reserved": "",
      "salt": "0x18a2bf343f81edae4971e708dc55a38912f6c796a6c83f7092b842ad762f04d3",
      "assetIds": [
        "41506478881403507969696680653240014914910929820314476107906210059990541021185"
      ]
    },
    {
      "x": 342,
      "y": 253,
      "size": 1,
      "price": "4683000000000000000000",
      "reserved": "",
      "salt": "0x44cbe9fb0b555a3dd82e36096b05475c76b1a6af5af86996b9ba4b69544366ed",
      "assetIds": [
        "41506478881403507969696680653240014914910929820314476107906210059990541021187"
      ]
    },
    {
      "x": 342,
      "y": 254,
      "size": 1,
      "price": "4683000000000000000000",
      "reserved": "",
      "salt": "0x3a556cf917c9b582e6b5feea9310b288e85ddc53916865ca300de8da1dc2badb",
      "assetIds": [
        "41506478881403507969696680653240014914910929820314476107906210059990541021188"
      ]
    },
    {
      "x": 342,
      "y": 255,
      "size": 1,
      "price": "4683000000000000000000",
      "reserved": "",
      "salt": "0xdae473476a0d19d8dafc7a150c44dbcc05a57f9f99de66d2b0a8a71e70a1a502",
      "assetIds": [
        "41506478881403507969696680653240014914910929820314476107906210059990541021187"
      ]
    },
    {
      "x": 342,
      "y": 256,
      "size": 1,
      "price": "4683000000000000000000",
      "reserved": "",
      "salt": "0x4572e1af39c06eb28054cd266e7adc24b07c3e5095d4051494038abdba4dcfe8",
      "assetIds": [
        "41506478881403507969696680653240014914910929820314476107906210059990541021187"
      ]
    },
    {
      "x": 342,
      "y": 257,
      "size": 1,
      "price": "4683000000000000000000",
      "reserved": "",
      "salt": "0x4267a8a6796fa8ab0f420bc1217be11e9ad20a2aeb5b9c27a0930b9e2760d8a9",
      "assetIds": [
        "41506478881403507969696680653240014914910929820314476107906210059990541021187"
      ]
    },
    {
      "x": 342,
      "y": 294,
      "size": 1,
      "price": "4683000000000000000000",
      "reserved": "",
      "salt": "0x33b272dbdc3a9872e2a2bbb8ecb900c70160e81e6e67049c01437bd1f68324c6",
      "assetIds": [
        "41506478881403507969696680653240014914910929820314476107906210059990541021186"
      ]
    },
    {
      "x": 342,
      "y": 295,
      "size": 1,
      "price": "4683000000000000000000",
      "reserved": "",
      "salt": "0x714741da61ecd35496e7a245da944ee8537db0b4d9e9009fedccfa4c0627e230",
      "assetIds": [
        "41506478881403507969696680653240014914910929820314476107906210059990541021187"
      ]
    },
    {
      "x": 342,
      "y": 296,
      "size": 1,
      "price": "4683000000000000000000",
      "reserved": "",
      "salt": "0x39e1b8ecc13246bc6a148fefadc7380ef6a492ae63afd645c9e19a54156245bd",
      "assetIds": [
        "41506478881403507969696680653240014914910929820314476107906210059990541021187"
      ]
    },
    {
      "x": 342,
      "y": 297,
      "size": 1,
      "price": "4683000000000000000000",
      "reserved": "",
      "salt": "0xf71a7279774545386bf412243250f990c00bb4b5d8e8b0510223b3dcb7da0f4e",
      "assetIds": [
        "41506478881403507969696680653240014914910929820314476107906210059990541021189"
      ]
    },
    {
      "x": 342,
      "y": 298,
      "size": 1,
      "price": "4683000000000000000000",
      "reserved": "",
      "salt": "0x92c2d1bff0e738d43b559fc9e7f059283209cd823eecbf97cae92344029442bb",
      "assetIds": [
        "41506478881403507969696680653240014914910929820314476107906210059990541021186"
      ]
    },
    {
      "x": 342,
      "y": 299,
      "size": 1,
      "price": "4683000000000000000000",
      "reserved": "",
      "salt": "0xc30c3fff6f56f9db2abfb4e81e5631c52dd87a864c372b761274b3e6c40ab908",
      "assetIds": [
        "41506478881403507969696680653240014914910929820314476107906210059990532622336"
      ]
    },
    {
      "x": 343,
      "y": 240,
      "size": 1,
      "price": "4683000000000000000000",
      "reserved": "",
      "salt": "0xdceca09e5bfee2b6e6845ec7989c9d91d04b8fb591f272641bdb389378b2013f",
      "assetIds": [
        "41506478881403507969696680653240014914910929820314476107906210059990541021187"
      ]
    },
    {
      "x": 343,
      "y": 241,
      "size": 1,
      "price": "4683000000000000000000",
      "reserved": "",
      "salt": "0xec446ea693df0861228b757d41966181bef44fb527e8c16ef4f2500c41a8e780",
      "assetIds": [
        "41506478881403507969696680653240014914910929820314476107906210059990541021189"
      ]
    },
    {
      "x": 343,
      "y": 242,
      "size": 1,
      "price": "4683000000000000000000",
      "reserved": "",
      "salt": "0x8cec10f305bbe85235fb4d63f9b1e80654039ef28cbfd96a7e0046360cbd2c0e",
      "assetIds": [
        "41506478881403507969696680653240014914910929820314476107906210059990541021186"
      ]
    },
    {
      "x": 343,
      "y": 243,
      "size": 1,
      "price": "4683000000000000000000",
      "reserved": "",
      "salt": "0x68c37c65b7ade09602087d0176f14b2cc25400d96df38dbd5788e455a2d8838c",
      "assetIds": [
        "41506478881403507969696680653240014914910929820314476107906210059990541021184"
      ]
    },
    {
      "x": 343,
      "y": 244,
      "size": 1,
      "price": "4683000000000000000000",
      "reserved": "",
      "salt": "0x96ee2b91cb647de5ad1b5f968f0e11eec25c0099f1645798c65f7663c6421263",
      "assetIds": [
        "41506478881403507969696680653240014914910929820314476107906210059990541021187"
      ]
    },
    {
      "x": 343,
      "y": 245,
      "size": 1,
      "price": "4683000000000000000000",
      "reserved": "",
      "salt": "0x077af6007800afee30dc6534a49a0e5301c51ec1c9e11587363a1c5a3154dd4a",
      "assetIds": [
        "41506478881403507969696680653240014914910929820314476107906210059990541021186"
      ]
    },
    {
      "x": 343,
      "y": 246,
      "size": 1,
      "price": "4683000000000000000000",
      "reserved": "",
      "salt": "0x069afbc5befec13545778299c5517dc1a45dc4fcbf04b06b3e4865342b4af557",
      "assetIds": [
        "41506478881403507969696680653240014914910929820314476107906210059990541021189"
      ]
    },
    {
      "x": 343,
      "y": 247,
      "size": 1,
      "price": "4683000000000000000000",
      "reserved": "",
      "salt": "0xf0464595661cbc0f1d05f8ddeecb994b3ca32eb01f42fe124fe8a477c31d735e",
      "assetIds": [
        "41506478881403507969696680653240014914910929820314476107906210059990532622336"
      ]
    },
    {
      "x": 343,
      "y": 248,
      "size": 1,
      "price": "4683000000000000000000",
      "reserved": "",
      "salt": "0xace8ee27dde112d214aeb05fd0d543aba0c81bc8d36079fe9dd02358a1bb0e13",
      "assetIds": [
        "41506478881403507969696680653240014914910929820314476107906210059990541021188"
      ]
    },
    {
      "x": 343,
      "y": 249,
      "size": 1,
      "price": "4683000000000000000000",
      "reserved": "",
      "salt": "0x8aeb0b78ce780bd4af824c6e24953c46d5a5fcff9ec4ddb19275c673523b55bf",
      "assetIds": [
        "41506478881403507969696680653240014914910929820314476107906210059990532622336"
      ]
    },
    {
      "x": 343,
      "y": 250,
      "size": 1,
      "price": "4683000000000000000000",
      "reserved": "",
      "salt": "0x5230271f0830d7d95eca60493e78795e97ef6941a9beb23bf96b3894a3965499",
      "assetIds": [
        "41506478881403507969696680653240014914910929820314476107906210059990541021184"
      ]
    },
    {
      "x": 343,
      "y": 251,
      "size": 1,
      "price": "4683000000000000000000",
      "reserved": "",
      "salt": "0xc7ca92a7b80d40714315cdbe448596ec3116be36d5f02b1c98bbfdf9cec9edab",
      "assetIds": [
        "41506478881403507969696680653240014914910929820314476107906210059990541021187"
      ]
    },
    {
      "x": 343,
      "y": 252,
      "size": 1,
      "price": "4683000000000000000000",
      "reserved": "",
      "salt": "0xac2020e4e9cba9e17c129f3ae4a6b934195611850815dd78aecc59d5632a5cae",
      "assetIds": [
        "41506478881403507969696680653240014914910929820314476107906210059990541021188"
      ]
    },
    {
      "x": 343,
      "y": 253,
      "size": 1,
      "price": "4683000000000000000000",
      "reserved": "",
      "salt": "0xbea81f38cc158bc1580c2b8f890b1d89423e8387c2856ad180eac2797ea5dd4c",
      "assetIds": [
        "41506478881403507969696680653240014914910929820314476107906210059990541021189"
      ]
    },
    {
      "x": 343,
      "y": 254,
      "size": 1,
      "price": "4683000000000000000000",
      "reserved": "",
      "salt": "0x56d7ae9d26135e9543fcbb263a745be8d79b8c0cbb754cd1bc9514064c66b2d9",
      "assetIds": [
        "41506478881403507969696680653240014914910929820314476107906210059990541021188"
      ]
    },
    {
      "x": 343,
      "y": 255,
      "size": 1,
      "price": "4683000000000000000000",
      "reserved": "",
      "salt": "0x0083d8524319d0f02a9f4193636fd41d00d678f5dbaa191b47075b749e8086af",
      "assetIds": [
        "41506478881403507969696680653240014914910929820314476107906210059990541021188"
      ]
    },
    {
      "x": 343,
      "y": 256,
      "size": 1,
      "price": "1011000000000000000000",
      "reserved": "0x7a9fe22691c811ea339d9b73150e6911a5343dca",
      "salt": "0xda40acf749f10dec58f57b047d732194bd45b815987d910e06568e10f122e55f",
      "assetIds": []
    },
    {
      "x": 343,
      "y": 257,
      "size": 1,
      "price": "4683000000000000000000",
      "reserved": "",
      "salt": "0xdbc4fed2af7ab8e7929492192be43ad7f899c18e92188e74d6c7a2e591fcdd76",
      "assetIds": [
        "41506478881403507969696680653240014914910929820314476107906210059990541021187"
      ]
    },
    {
      "x": 343,
      "y": 294,
      "size": 1,
      "price": "4683000000000000000000",
      "reserved": "",
      "salt": "0x029abb79db41431762c9ca6f652001c9f19f70b2ed846ada0ba8117d23f68231",
      "assetIds": [
        "41506478881403507969696680653240014914910929820314476107906210059990532622336"
      ]
    },
    {
      "x": 343,
      "y": 295,
      "size": 1,
      "price": "1011000000000000000000",
      "reserved": "0x7a9fe22691c811ea339d9b73150e6911a5343dca",
      "salt": "0xb3c8a7d0d49f06c5e56b92a51b1f19d8dab80431e799a9f928210f583130d26a",
      "assetIds": []
    },
    {
      "x": 343,
      "y": 296,
      "size": 1,
      "price": "4683000000000000000000",
      "reserved": "",
      "salt": "0xcd2b6adf5671de7a40c73d6cf20769d37cc9de518ec0b880b37e33b7df3eecf2",
      "assetIds": [
        "41506478881403507969696680653240014914910929820314476107906210059990541021189"
      ]
    },
    {
      "x": 343,
      "y": 297,
      "size": 1,
      "price": "4683000000000000000000",
      "reserved": "",
      "salt": "0xfccc45ae2b3afb2b879f54adf478b5423c59e920baae9c9ca9614e461a1dd2d6",
      "assetIds": [
        "41506478881403507969696680653240014914910929820314476107906210059990541021187"
      ]
    },
    {
      "x": 343,
      "y": 298,
      "size": 1,
      "price": "4683000000000000000000",
      "reserved": "",
      "salt": "0x158d7740bacb3aeb05a284f08128795865a3c4bc53b5085c76b02252f4ac8d87",
      "assetIds": [
        "41506478881403507969696680653240014914910929820314476107906210059990541021188"
      ]
    },
    {
      "x": 343,
      "y": 299,
      "size": 1,
      "price": "4683000000000000000000",
      "reserved": "",
      "salt": "0x7144f697358d3944a514575bda8f056c316be4c9bdbe4fff45c3025468bc9468",
      "assetIds": [
        "41506478881403507969696680653240014914910929820314476107906210059990532622336"
      ]
    },
    {
      "x": 344,
      "y": 240,
      "size": 1,
      "price": "4683000000000000000000",
      "reserved": "",
      "salt": "0x18be4781a746e15e62e59c7ab01ba0cd5c2acc9b555d522c4901fb7df680bc25",
      "assetIds": [
        "41506478881403507969696680653240014914910929820314476107906210059990541021187"
      ]
    },
    {
      "x": 344,
      "y": 241,
      "size": 1,
      "price": "4683000000000000000000",
      "reserved": "",
      "salt": "0x7d293b41c9847cd22af54397efc61b269485b651c4422f55071e87da50c77cf6",
      "assetIds": [
        "41506478881403507969696680653240014914910929820314476107906210059990541021188"
      ]
    },
    {
      "x": 344,
      "y": 242,
      "size": 1,
      "price": "4683000000000000000000",
      "reserved": "",
      "salt": "0x43ce5b14777451f294ff5df0d4894a2f54a9e9806acb1d129ef5e3d287c01040",
      "assetIds": [
        "41506478881403507969696680653240014914910929820314476107906210059990541021187"
      ]
    },
    {
      "x": 344,
      "y": 243,
      "size": 1,
      "price": "4683000000000000000000",
      "reserved": "",
      "salt": "0x695e0ed9b3973b32916eedf1f03b7cbb5dc18e7666b7bb14b12a0cb44907bc3b",
      "assetIds": [
        "41506478881403507969696680653240014914910929820314476107906210059990541021187"
      ]
    },
    {
      "x": 344,
      "y": 244,
      "size": 1,
      "price": "4683000000000000000000",
      "reserved": "",
      "salt": "0xad3d22c44e62d872331413951fe5a4351d3de7f17514821c67e20ee70bd56c5d",
      "assetIds": [
        "41506478881403507969696680653240014914910929820314476107906210059990541021188"
      ]
    },
    {
      "x": 344,
      "y": 245,
      "size": 1,
      "price": "4683000000000000000000",
      "reserved": "",
      "salt": "0x893ef301af4cc12be2450c7602035eec2b430847f473581e6cdbcf415d8097d6",
      "assetIds": [
        "41506478881403507969696680653240014914910929820314476107906210059990532622336"
      ]
    },
    {
      "x": 344,
      "y": 246,
      "size": 1,
      "price": "4683000000000000000000",
      "reserved": "",
      "salt": "0x5767c82840fdb593b27f4ec4333b6b77b4184745729f1d92b10f7a2337488b0f",
      "assetIds": [
        "41506478881403507969696680653240014914910929820314476107906210059990541021188"
      ]
    },
    {
      "x": 344,
      "y": 247,
      "size": 1,
      "price": "4683000000000000000000",
      "reserved": "",
      "salt": "0xf7c31fa28f544f57e5e2c252b16ce464f12e169fe282377db4487bede71f25e8",
      "assetIds": [
        "41506478881403507969696680653240014914910929820314476107906210059990541021185"
      ]
    },
    {
      "x": 344,
      "y": 248,
      "size": 1,
      "price": "4683000000000000000000",
      "reserved": "",
      "salt": "0x5c9c668082e39948221c105b8ca18c23e1e70c744e664ddc29f35c8c4fa5a7fc",
      "assetIds": [
        "41506478881403507969696680653240014914910929820314476107906210059990541021188"
      ]
    },
    {
      "x": 344,
      "y": 249,
      "size": 1,
      "price": "4683000000000000000000",
      "reserved": "",
      "salt": "0x7d4a4a2a2197269b7b627ff2b20aeb6f92ec173a3166daa9651394c8f2b98503",
      "assetIds": [
        "41506478881403507969696680653240014914910929820314476107906210059990541021188"
      ]
    },
    {
      "x": 344,
      "y": 250,
      "size": 1,
      "price": "4683000000000000000000",
      "reserved": "",
      "salt": "0xf12c76691ee7f710d4255d19040894021d5dc31fc002c708ff1f4d6e1007da3a",
      "assetIds": [
        "41506478881403507969696680653240014914910929820314476107906210059990541021187"
      ]
    },
    {
      "x": 344,
      "y": 251,
      "size": 1,
      "price": "4683000000000000000000",
      "reserved": "",
      "salt": "0x63689fe38cac20d6bcd7a57fce921f76a85ce247be2a66188583c84c5440d42c",
      "assetIds": [
        "41506478881403507969696680653240014914910929820314476107906210059990541021189"
      ]
    },
    {
      "x": 344,
      "y": 252,
      "size": 1,
      "price": "4683000000000000000000",
      "reserved": "",
      "salt": "0x714a1cc96ba5db7d410b782fae1253d57855060b4ff6c31a4501bc90f9393528",
      "assetIds": [
        "41506478881403507969696680653240014914910929820314476107906210059990541021189"
      ]
    },
    {
      "x": 344,
      "y": 253,
      "size": 1,
      "price": "4683000000000000000000",
      "reserved": "",
      "salt": "0xff99cedaf7ff6f4e6edd9f6a94c232668c25f92177fd1b8fe3403e28f6a69cdd",
      "assetIds": [
        "41506478881403507969696680653240014914910929820314476107906210059990541021188"
      ]
    },
    {
      "x": 344,
      "y": 254,
      "size": 1,
      "price": "4683000000000000000000",
      "reserved": "",
      "salt": "0x1876982f9fd4e5f89dd9ab0ba3a9945f47c4f935cb1bc02c2a8ce04e304ed757",
      "assetIds": [
        "41506478881403507969696680653240014914910929820314476107906210059990541021185"
      ]
    },
    {
      "x": 344,
      "y": 255,
      "size": 1,
      "price": "4683000000000000000000",
      "reserved": "",
      "salt": "0x83cd278c4e458bee54148a8cfe3af0162017bda218616851fe2791bb9abf0325",
      "assetIds": [
        "41506478881403507969696680653240014914910929820314476107906210059990532622336"
      ]
    },
    {
      "x": 344,
      "y": 256,
      "size": 1,
      "price": "4683000000000000000000",
      "reserved": "",
      "salt": "0x7636a7815e6e9c92722b1b536c625850e3c58401bee7a55ec13c19366aeb0659",
      "assetIds": [
        "41506478881403507969696680653240014914910929820314476107906210059990541021187"
      ]
    },
    {
      "x": 344,
      "y": 257,
      "size": 1,
      "price": "4683000000000000000000",
      "reserved": "",
      "salt": "0x6b38f1bdf36446cea0f14c378feff28d3ff6142bf7fe23f2eb1224e9f76136c6",
      "assetIds": [
        "41506478881403507969696680653240014914910929820314476107906210059990541021188"
      ]
    },
    {
      "x": 344,
      "y": 294,
      "size": 1,
      "price": "4683000000000000000000",
      "reserved": "",
      "salt": "0x0cc293d03095a15d2561dae542f9971b48c01a87feda3262811f2621a6ed06ea",
      "assetIds": [
        "41506478881403507969696680653240014914910929820314476107906210059990541021187"
      ]
    },
    {
      "x": 344,
      "y": 295,
      "size": 1,
      "price": "4683000000000000000000",
      "reserved": "",
      "salt": "0xd04bbbf5663bd59d7b2d02d0497a7eae9b7ef4e46370bc78fb9b0258596ef912",
      "assetIds": [
        "41506478881403507969696680653240014914910929820314476107906210059990541021187"
      ]
    },
    {
      "x": 344,
      "y": 296,
      "size": 1,
      "price": "4683000000000000000000",
      "reserved": "",
      "salt": "0xa5d24f5a6991e5e43f075351bcd21cd1d866e11ac5c019872e5db9a0e957a38f",
      "assetIds": [
        "41506478881403507969696680653240014914910929820314476107906210059990541021188"
      ]
    },
    {
      "x": 344,
      "y": 297,
      "size": 1,
      "price": "4683000000000000000000",
      "reserved": "",
      "salt": "0x32b319dae22d83b01e3039b236c34497641dae19a1eb421b3382280e2805c700",
      "assetIds": [
        "41506478881403507969696680653240014914910929820314476107906210059990541021185"
      ]
    },
    {
      "x": 344,
      "y": 298,
      "size": 1,
      "price": "4683000000000000000000",
      "reserved": "",
      "salt": "0x8478dac045883f247c9fbee92c95c48276e102f9fdd96497dfc5399e8a6f422a",
      "assetIds": [
        "41506478881403507969696680653240014914910929820314476107906210059990541021187"
      ]
    },
    {
      "x": 344,
      "y": 299,
      "size": 1,
      "price": "4683000000000000000000",
      "reserved": "",
      "salt": "0x3251646b602d7c98fd03e9b811df469b8d6eb28384fc244f8fc5643d9f94d2ad",
      "assetIds": [
        "41506478881403507969696680653240014914910929820314476107906210059990532622336"
      ]
    },
    {
      "x": 345,
      "y": 240,
      "size": 1,
      "price": "4683000000000000000000",
      "reserved": "",
      "salt": "0x92df34280adffd5692ec7c2c1e9bc21ff943921cf985e5cac6a215306cac3732",
      "assetIds": [
        "41506478881403507969696680653240014914910929820314476107906210059990541021188"
      ]
    },
    {
      "x": 345,
      "y": 241,
      "size": 1,
      "price": "4683000000000000000000",
      "reserved": "",
      "salt": "0x0ec95c59ff33a6f3df71db1cb9568816c1affee6565b57f78ddee3152a04fe1b",
      "assetIds": [
        "41506478881403507969696680653240014914910929820314476107906210059990541021188"
      ]
    },
    {
      "x": 345,
      "y": 242,
      "size": 1,
      "price": "4683000000000000000000",
      "reserved": "",
      "salt": "0x856947d1055398574a3f72ccce7efbc9ad127e2d5f3d8423c0790bb06c6de5a6",
      "assetIds": [
        "41506478881403507969696680653240014914910929820314476107906210059990541021187"
      ]
    },
    {
      "x": 345,
      "y": 243,
      "size": 1,
      "price": "4683000000000000000000",
      "reserved": "",
      "salt": "0xc938b4711552197e70dac201b36f6970db6814daf9dd7ceffee3fb9821bbef75",
      "assetIds": [
        "41506478881403507969696680653240014914910929820314476107906210059990532622336"
      ]
    },
    {
      "x": 345,
      "y": 244,
      "size": 1,
      "price": "1011000000000000000000",
      "reserved": "0x7a9fe22691c811ea339d9b73150e6911a5343dca",
      "salt": "0x42c67a1009f0592d59c6b88a336dcdd2be2678d0c82102b15c81a34318b407cb",
      "assetIds": []
    },
    {
      "x": 345,
      "y": 245,
      "size": 1,
      "price": "4683000000000000000000",
      "reserved": "",
      "salt": "0xf059013c4b0a1d9dfc6934b3a263f5c7e09f5b4f86efb3bbc328b5ed9678c62c",
      "assetIds": [
        "41506478881403507969696680653240014914910929820314476107906210059990541021188"
      ]
    },
    {
      "x": 345,
      "y": 246,
      "size": 1,
      "price": "4683000000000000000000",
      "reserved": "",
      "salt": "0x3659c34150d131d70a8903441d1d52046c085167ab54cd058cd5746dec301dd1",
      "assetIds": [
        "41506478881403507969696680653240014914910929820314476107906210059990541021189"
      ]
    },
    {
      "x": 345,
      "y": 247,
      "size": 1,
      "price": "4683000000000000000000",
      "reserved": "",
      "salt": "0x7b3d15d38e7eea35082ac6f402e34169423acbdb690c3dc44912925b1572a100",
      "assetIds": [
        "41506478881403507969696680653240014914910929820314476107906210059990541021188"
      ]
    },
    {
      "x": 345,
      "y": 248,
      "size": 1,
      "price": "4683000000000000000000",
      "reserved": "",
      "salt": "0x879c6d9528dcf214a8166fae307523fe96399a06e63f8ada0f7cbe85604909b4",
      "assetIds": [
        "41506478881403507969696680653240014914910929820314476107906210059990541021185"
      ]
    },
    {
      "x": 345,
      "y": 249,
      "size": 1,
      "price": "4683000000000000000000",
      "reserved": "",
      "salt": "0x3c22500e6c852dcf7064334ba44ef330a86affaf25c45966c2a655f5957478bb",
      "assetIds": [
        "41506478881403507969696680653240014914910929820314476107906210059990541021185"
      ]
    },
    {
      "x": 345,
      "y": 250,
      "size": 1,
      "price": "4683000000000000000000",
      "reserved": "",
      "salt": "0x4b88e809a45eaf20bdba17240218cb3d6d21b8ecbaaa46d1a0552d7028b23dff",
      "assetIds": [
        "41506478881403507969696680653240014914910929820314476107906210059990541021187"
      ]
    },
    {
      "x": 345,
      "y": 251,
      "size": 1,
      "price": "1011000000000000000000",
      "reserved": "0x7a9fe22691c811ea339d9b73150e6911a5343dca",
      "salt": "0xd61aa5009893e406c5e61f75c2590f8e8f64d9ae7c8201aed0d60ecfd329f77c",
      "assetIds": []
    },
    {
      "x": 345,
      "y": 252,
      "size": 1,
      "price": "4683000000000000000000",
      "reserved": "",
      "salt": "0xdd0a7354a2f2ef17cd717d0908645b55a61d268cea415be7b8003a8b1c0d008d",
      "assetIds": [
        "41506478881403507969696680653240014914910929820314476107906210059990541021188"
      ]
    },
    {
      "x": 345,
      "y": 253,
      "size": 1,
      "price": "4683000000000000000000",
      "reserved": "",
      "salt": "0xd8d393a13f51cce2471d0b9b252c8978daee6c809fa2dc7b1f9a5094bf35a178",
      "assetIds": [
        "41506478881403507969696680653240014914910929820314476107906210059990541021186"
      ]
    },
    {
      "x": 345,
      "y": 254,
      "size": 1,
      "price": "4683000000000000000000",
      "reserved": "",
      "salt": "0x1e09ad6038f7e76858c5f9ea65f416e37f40daeb17f9a29946368f2615af94f9",
      "assetIds": [
        "41506478881403507969696680653240014914910929820314476107906210059990541021188"
      ]
    },
    {
      "x": 345,
      "y": 255,
      "size": 1,
      "price": "4683000000000000000000",
      "reserved": "",
      "salt": "0x7cb05147138adbcf5817e2a4411f87d1cc42749347af199a0ce9933556fb5d60",
      "assetIds": [
        "41506478881403507969696680653240014914910929820314476107906210059990532622336"
      ]
    },
    {
      "x": 345,
      "y": 256,
      "size": 1,
      "price": "4683000000000000000000",
      "reserved": "",
      "salt": "0x63692aab5d3c77a3066fbe3b7745fdadc0bab9c80ee7ef7df4e6c0c277776f4b",
      "assetIds": [
        "41506478881403507969696680653240014914910929820314476107906210059990541021189"
      ]
    },
    {
      "x": 345,
      "y": 257,
      "size": 1,
      "price": "4683000000000000000000",
      "reserved": "",
      "salt": "0x8a88c10ba48afffef52c6d6adaf4e798ac4b33bed3eb0f28b7c7b0ddb0673846",
      "assetIds": [
        "41506478881403507969696680653240014914910929820314476107906210059990541021184"
      ]
    },
    {
      "x": 345,
      "y": 297,
      "size": 1,
      "price": "4683000000000000000000",
      "reserved": "",
      "salt": "0x4f7562a64f5ff82d4ef6b2f57402d6aedf199b0146e3f5aa48005843be292843",
      "assetIds": [
        "41506478881403507969696680653240014914910929820314476107906210059990541021187"
      ]
    },
    {
      "x": 345,
      "y": 298,
      "size": 1,
      "price": "4683000000000000000000",
      "reserved": "",
      "salt": "0x82c51ec83ff0c88ddc73406973705dad6f584a9defeca68d989ea9f10fd9bd02",
      "assetIds": [
        "41506478881403507969696680653240014914910929820314476107906210059990541021187"
      ]
    },
    {
      "x": 345,
      "y": 299,
      "size": 1,
      "price": "4683000000000000000000",
      "reserved": "",
      "salt": "0xafb79997ce3cf99b62dabf2b58ed88870256e618a4ec00561a0b4f9f3c9d72b2",
      "assetIds": [
        "41506478881403507969696680653240014914910929820314476107906210059990541021188"
      ]
    },
    {
      "x": 345,
      "y": 303,
      "size": 1,
      "price": "4683000000000000000000",
      "reserved": "",
      "salt": "0xdfaf1487ec85a05836bf04de2547ba38c91325e77e226fd41f84e7585b3d3954",
      "assetIds": [
        "41506478881403507969696680653240014914910929820314476107906210059990541021187"
      ]
    },
    {
      "x": 345,
      "y": 304,
      "size": 1,
      "price": "4683000000000000000000",
      "reserved": "",
      "salt": "0x35beafd07d4900e38583111856f8c71195622928de3704e7062b6555e98085ef",
      "assetIds": [
        "41506478881403507969696680653240014914910929820314476107906210059990541021188"
      ]
    },
    {
      "x": 345,
      "y": 305,
      "size": 1,
      "price": "4683000000000000000000",
      "reserved": "",
      "salt": "0x6fce5d66bdbc1abe639e4ea87e08db568385bb662694506ad87cb79cf5aadaa6",
      "assetIds": [
        "41506478881403507969696680653240014914910929820314476107906210059990541021189"
      ]
    },
    {
      "x": 346,
      "y": 240,
      "size": 1,
      "price": "4683000000000000000000",
      "reserved": "",
      "salt": "0xb457ec3185da7cee35fd66fdb38891924fb64d428c0db02b183e6bb15f9d9947",
      "assetIds": [
        "41506478881403507969696680653240014914910929820314476107906210059990541021187"
      ]
    },
    {
      "x": 346,
      "y": 241,
      "size": 1,
      "price": "4683000000000000000000",
      "reserved": "",
      "salt": "0x086001170470e6b18f3713f7eefcf10be494c09ad861383a7115a5dae820ec97",
      "assetIds": [
        "41506478881403507969696680653240014914910929820314476107906210059990541021185"
      ]
    },
    {
      "x": 346,
      "y": 242,
      "size": 1,
      "price": "4683000000000000000000",
      "reserved": "",
      "salt": "0xba99204c5e195f72ae3474846c51adcec98ffcef9041402699f0b0a4387c931d",
      "assetIds": [
        "41506478881403507969696680653240014914910929820314476107906210059990541021187"
      ]
    },
    {
      "x": 346,
      "y": 243,
      "size": 1,
      "price": "4683000000000000000000",
      "reserved": "",
      "salt": "0x46731b6b98827ef2a0c38ef47b4e23aa47353f5fe5e4c82fe2e530a394577fcd",
      "assetIds": [
        "41506478881403507969696680653240014914910929820314476107906210059990541021186"
      ]
    },
    {
      "x": 346,
      "y": 244,
      "size": 1,
      "price": "4683000000000000000000",
      "reserved": "",
      "salt": "0x38ff70e0dd7be20fea04d643c6bc4624a637c1b27c9e48b809ab9ee541776927",
      "assetIds": [
        "41506478881403507969696680653240014914910929820314476107906210059990541021189"
      ]
    },
    {
      "x": 346,
      "y": 245,
      "size": 1,
      "price": "4683000000000000000000",
      "reserved": "",
      "salt": "0x2c35286d8f58e19dc9c09aafd3364d6dccb4a3e21f092c2af6d337e8637af38a",
      "assetIds": [
        "41506478881403507969696680653240014914910929820314476107906210059990541021187"
      ]
    },
    {
      "x": 346,
      "y": 246,
      "size": 1,
      "price": "4683000000000000000000",
      "reserved": "",
      "salt": "0x701e6f2bc8ae2b5c3c34db156c9385faf71fb6599c3f48d7dfcd8b400a59ca22",
      "assetIds": [
        "41506478881403507969696680653240014914910929820314476107906210059990541021187"
      ]
    },
    {
      "x": 346,
      "y": 247,
      "size": 1,
      "price": "4683000000000000000000",
      "reserved": "",
      "salt": "0x8d69ae21557b3ce83ce3265f771c140e665f96ffc7a2d67f729f2ba750698b4b",
      "assetIds": [
        "41506478881403507969696680653240014914910929820314476107906210059990541021188"
      ]
    },
    {
      "x": 346,
      "y": 248,
      "size": 1,
      "price": "4683000000000000000000",
      "reserved": "",
      "salt": "0xc34cf31a1ba0ef89a7b949f9b5a85da70848270b0367f5b4201b627615e8fe0f",
      "assetIds": [
        "41506478881403507969696680653240014914910929820314476107906210059990541021184"
      ]
    },
    {
      "x": 346,
      "y": 249,
      "size": 1,
      "price": "4683000000000000000000",
      "reserved": "",
      "salt": "0x9e8ac0b10807753847a5c4de0f1b88d41964f8262d918d864fa43f3a1784aa0c",
      "assetIds": [
        "41506478881403507969696680653240014914910929820314476107906210059990541021189"
      ]
    },
    {
      "x": 346,
      "y": 250,
      "size": 1,
      "price": "4683000000000000000000",
      "reserved": "",
      "salt": "0xcb5421f68607c46bf62683987ec20cb1e173771d8c76f15ccd12d0f3c26ff6f5",
      "assetIds": [
        "41506478881403507969696680653240014914910929820314476107906210059990541021188"
      ]
    },
    {
      "x": 346,
      "y": 251,
      "size": 1,
      "price": "4683000000000000000000",
      "reserved": "",
      "salt": "0x11308299ab94c2890a3d67dc364fce756f4beea4d4a749b443ec1c8d3505a371",
      "assetIds": [
        "41506478881403507969696680653240014914910929820314476107906210059990541021184"
      ]
    },
    {
      "x": 346,
      "y": 252,
      "size": 1,
      "price": "4683000000000000000000",
      "reserved": "",
      "salt": "0x446139071117aa04f69176533eec3671fcbc60ff0b794aa21eecb7e49307ce3a",
      "assetIds": [
        "41506478881403507969696680653240014914910929820314476107906210059990541021189"
      ]
    },
    {
      "x": 346,
      "y": 253,
      "size": 1,
      "price": "4683000000000000000000",
      "reserved": "",
      "salt": "0xe12a77aa9df99bcd95f9c6b76a5b03938fec03e14de140979d93cbc0299bf9fe",
      "assetIds": [
        "41506478881403507969696680653240014914910929820314476107906210059990541021187"
      ]
    },
    {
      "x": 346,
      "y": 254,
      "size": 1,
      "price": "4683000000000000000000",
      "reserved": "",
      "salt": "0x9f1128127229ec3e476f454e131ae02889b93c2984fdaff3d3bdf99ac4b795c8",
      "assetIds": [
        "41506478881403507969696680653240014914910929820314476107906210059990541021188"
      ]
    },
    {
      "x": 346,
      "y": 255,
      "size": 1,
      "price": "4683000000000000000000",
      "reserved": "",
      "salt": "0xc2c6569ea9578677a99e220a3dd8a0c4552050d2c25e0d24321f8b51fb94870e",
      "assetIds": [
        "41506478881403507969696680653240014914910929820314476107906210059990532622336"
      ]
    },
    {
      "x": 346,
      "y": 256,
      "size": 1,
      "price": "4683000000000000000000",
      "reserved": "",
      "salt": "0xffc3b6782cad0ac52819452c12779e46934f42ef024d8a2d2659d8ad675d7338",
      "assetIds": [
        "41506478881403507969696680653240014914910929820314476107906210059990541021187"
      ]
    },
    {
      "x": 346,
      "y": 257,
      "size": 1,
      "price": "4683000000000000000000",
      "reserved": "",
      "salt": "0x306327eb3f59d62134bd44b0ee9bea4b6c22a32c578d7745f13afe4e227ae60a",
      "assetIds": [
        "41506478881403507969696680653240014914910929820314476107906210059990541021188"
      ]
    },
    {
      "x": 346,
      "y": 297,
      "size": 1,
      "price": "4683000000000000000000",
      "reserved": "",
      "salt": "0x0117960188528efeeb95b1ffca10b1afb95eb5716fff0406bd8ce4fed45a1f1d",
      "assetIds": [
        "41506478881403507969696680653240014914910929820314476107906210059990541021188"
      ]
    },
    {
      "x": 346,
      "y": 298,
      "size": 1,
      "price": "4683000000000000000000",
      "reserved": "",
      "salt": "0x1b98355b4e87b909154196f1b6530d66a661c1fabbbda31f8cf67cb90f80b64d",
      "assetIds": [
        "41506478881403507969696680653240014914910929820314476107906210059990541021187"
      ]
    },
    {
      "x": 346,
      "y": 299,
      "size": 1,
      "price": "4683000000000000000000",
      "reserved": "",
      "salt": "0x7d9ff4fb5b04a2ebcf622e2389f51301241f704484707149e4890915d1b2cd5e",
      "assetIds": [
        "41506478881403507969696680653240014914910929820314476107906210059990541021188"
      ]
    },
    {
      "x": 346,
      "y": 303,
      "size": 1,
      "price": "4683000000000000000000",
      "reserved": "",
      "salt": "0xca865dfa5ece25e778fd4234e09be4978ef6acf9f3b63de2fe9436f1e858b6b8",
      "assetIds": [
        "41506478881403507969696680653240014914910929820314476107906210059990532622336"
      ]
    },
    {
      "x": 346,
      "y": 304,
      "size": 1,
      "price": "4683000000000000000000",
      "reserved": "",
      "salt": "0x484687027e28aa16d4d76fba2dd91f211c61bde5120b7e3dd96169f82d49f1d9",
      "assetIds": [
        "41506478881403507969696680653240014914910929820314476107906210059990541021188"
      ]
    },
    {
      "x": 346,
      "y": 305,
      "size": 1,
      "price": "4683000000000000000000",
      "reserved": "",
      "salt": "0xb7ffec657d8d3d856d6aa27b3fe08341c206b82e34d2bf878ee4171360c50277",
      "assetIds": [
        "41506478881403507969696680653240014914910929820314476107906210059990532622336"
      ]
    },
    {
      "x": 347,
      "y": 240,
      "size": 1,
      "price": "4683000000000000000000",
      "reserved": "",
      "salt": "0xf303bf0759acab6d8d4cdb4d1fd3b1ce6e88ddf05f602416e64d2e277859fdae",
      "assetIds": [
        "41506478881403507969696680653240014914910929820314476107906210059990541021187"
      ]
    },
    {
      "x": 347,
      "y": 241,
      "size": 1,
      "price": "4683000000000000000000",
      "reserved": "",
      "salt": "0x620351c51d95c62cba145540a61e9152f946c686dc0c7a84a13c778aca642f0a",
      "assetIds": [
        "41506478881403507969696680653240014914910929820314476107906210059990541021187"
      ]
    },
    {
      "x": 347,
      "y": 242,
      "size": 1,
      "price": "4683000000000000000000",
      "reserved": "",
      "salt": "0xd0e0813d4d442d548093e1c4db43029f1a338f8dd08bd132ab722680c0233e03",
      "assetIds": [
        "41506478881403507969696680653240014914910929820314476107906210059990541021187"
      ]
    },
    {
      "x": 347,
      "y": 243,
      "size": 1,
      "price": "4683000000000000000000",
      "reserved": "",
      "salt": "0xb47f930891981020a3d92b2d2cba37657c35c6f3d4ed9ce9de5d07aa7b3981cf",
      "assetIds": [
        "41506478881403507969696680653240014914910929820314476107906210059990541021189"
      ]
    },
    {
      "x": 347,
      "y": 244,
      "size": 1,
      "price": "4683000000000000000000",
      "reserved": "",
      "salt": "0x73905120d8d05713795fd18019df908322da6d380b2aeebe53e5ed08470f4283",
      "assetIds": [
        "41506478881403507969696680653240014914910929820314476107906210059990541021186"
      ]
    },
    {
      "x": 347,
      "y": 245,
      "size": 1,
      "price": "4683000000000000000000",
      "reserved": "",
      "salt": "0xbac22c516caa109953d0f8a6193ca142c22f9734d55329df4cea4875db6314f5",
      "assetIds": [
        "41506478881403507969696680653240014914910929820314476107906210059990541021185"
      ]
    },
    {
      "x": 347,
      "y": 246,
      "size": 1,
      "price": "4683000000000000000000",
      "reserved": "",
      "salt": "0x9bc0ee5109dda51da67327340cc1e77e28e7b32fef4562a948cc9f31cd617830",
      "assetIds": [
        "41506478881403507969696680653240014914910929820314476107906210059990541021188"
      ]
    },
    {
      "x": 347,
      "y": 247,
      "size": 1,
      "price": "4683000000000000000000",
      "reserved": "",
      "salt": "0xf1a4dbc91904c61170c335a41cfd2ce5aa1d859a10423db8ff55b61d2f46c678",
      "assetIds": [
        "41506478881403507969696680653240014914910929820314476107906210059990541021188"
      ]
    },
    {
      "x": 347,
      "y": 248,
      "size": 1,
      "price": "4683000000000000000000",
      "reserved": "",
      "salt": "0x62051c042b21598c8b3d5f982f392b0e51f9c5b7f38d163c8c4eab3f13d877d6",
      "assetIds": [
        "41506478881403507969696680653240014914910929820314476107906210059990541021187"
      ]
    },
    {
      "x": 347,
      "y": 249,
      "size": 1,
      "price": "4683000000000000000000",
      "reserved": "",
      "salt": "0x821d862534ad51f7971f312b653482464b6aa7680154ab5ed3aa794a231b21e3",
      "assetIds": [
        "41506478881403507969696680653240014914910929820314476107906210059990532622336"
      ]
    },
    {
      "x": 347,
      "y": 250,
      "size": 1,
      "price": "4683000000000000000000",
      "reserved": "",
      "salt": "0x2051eb14cb39414ee0bf964e56e6a58f12b316e09987fd8ff1821cb9a4eb1fbe",
      "assetIds": [
        "41506478881403507969696680653240014914910929820314476107906210059990541021188"
      ]
    },
    {
      "x": 347,
      "y": 251,
      "size": 1,
      "price": "4683000000000000000000",
      "reserved": "",
      "salt": "0x69a29730ae894c74853f6e14d0a2f32f7c47b116d04426d2524ff96e9d9901cd",
      "assetIds": [
        "41506478881403507969696680653240014914910929820314476107906210059990541021185"
      ]
    },
    {
      "x": 347,
      "y": 252,
      "size": 1,
      "price": "4683000000000000000000",
      "reserved": "",
      "salt": "0x4f8184f9fcff88aa2a099a4db7a7b3df1f988aa00936841ab79a0fbb88913081",
      "assetIds": [
        "41506478881403507969696680653240014914910929820314476107906210059990541021188"
      ]
    },
    {
      "x": 347,
      "y": 253,
      "size": 1,
      "price": "4683000000000000000000",
      "reserved": "",
      "salt": "0xc6b4ee1b126dd4d89c1b385f84301d3d8838f14f4281ed6fade7bf31c3bdcecf",
      "assetIds": [
        "41506478881403507969696680653240014914910929820314476107906210059990541021186"
      ]
    },
    {
      "x": 347,
      "y": 254,
      "size": 1,
      "price": "4683000000000000000000",
      "reserved": "",
      "salt": "0x0f79e73463384938a89fc9bdbf4bee2e57a43c0300deccb596e3f8c3964c2e4d",
      "assetIds": [
        "41506478881403507969696680653240014914910929820314476107906210059990541021185"
      ]
    },
    {
      "x": 347,
      "y": 255,
      "size": 1,
      "price": "4683000000000000000000",
      "reserved": "",
      "salt": "0x516faddcb7e80f2ab52dbf61540c5a6cf190dd8c2349478ca3ca59c31d428c7d",
      "assetIds": [
        "41506478881403507969696680653240014914910929820314476107906210059990541021188"
      ]
    },
    {
      "x": 347,
      "y": 256,
      "size": 1,
      "price": "4683000000000000000000",
      "reserved": "",
      "salt": "0x8ce46fa8703a32ba23017967276ea56f769bf958d21682b09f5c9bb64b30cf27",
      "assetIds": [
        "41506478881403507969696680653240014914910929820314476107906210059990541021189"
      ]
    },
    {
      "x": 347,
      "y": 257,
      "size": 1,
      "price": "4683000000000000000000",
      "reserved": "",
      "salt": "0x2baca11edd6e05ae8394d452f14742f2ed83f45232adba4999be5f35b44ce08e",
      "assetIds": [
        "41506478881403507969696680653240014914910929820314476107906210059990541021188"
      ]
    },
    {
      "x": 347,
      "y": 297,
      "size": 1,
      "price": "4683000000000000000000",
      "reserved": "",
      "salt": "0x5de690368d1f5b67767a0e865a79b7a725f18da22c80ed3fb35162eea4c3e468",
      "assetIds": [
        "41506478881403507969696680653240014914910929820314476107906210059990541021185"
      ]
    },
    {
      "x": 347,
      "y": 298,
      "size": 1,
      "price": "4683000000000000000000",
      "reserved": "",
      "salt": "0x1a33cbadedc489d0db1927c5878a046f0cc6168feae8c55d623280577f65d604",
      "assetIds": [
        "41506478881403507969696680653240014914910929820314476107906210059990541021188"
      ]
    },
    {
      "x": 347,
      "y": 299,
      "size": 1,
      "price": "4683000000000000000000",
      "reserved": "",
      "salt": "0xdcd0c3edfcdc6311a4cb09b52d092fed3e1c164e58cda8cc1b0c006af723a211",
      "assetIds": [
        "41506478881403507969696680653240014914910929820314476107906210059990541021189"
      ]
    },
    {
      "x": 347,
      "y": 303,
      "size": 1,
      "price": "4683000000000000000000",
      "reserved": "",
      "salt": "0xd2d3a08fb30fd3d64aac6a34257fc97c4e63333065f93cb1ba4a4d7c233b55c7",
      "assetIds": [
        "41506478881403507969696680653240014914910929820314476107906210059990541021185"
      ]
    },
    {
      "x": 347,
      "y": 304,
      "size": 1,
      "price": "4683000000000000000000",
      "reserved": "",
      "salt": "0xc87ec5093735a52f0c3eec9cbc28ef0ee7f6a871fa31f4e27fbfb55e31cdbbc7",
      "assetIds": [
        "41506478881403507969696680653240014914910929820314476107906210059990541021186"
      ]
    },
    {
      "x": 347,
      "y": 305,
      "size": 1,
      "price": "4683000000000000000000",
      "reserved": "",
      "salt": "0xf7731e7077c72edf7e6a7f034d9e4d7f49fe893f8e4d91bf833e963ef892bd53",
      "assetIds": [
        "41506478881403507969696680653240014914910929820314476107906210059990541021185"
      ]
    },
    {
      "x": 348,
      "y": 255,
      "size": 1,
      "price": "4683000000000000000000",
      "reserved": "",
      "salt": "0x9490454012585eb279c5f0d0453e0aa13f16032be3c1846e59f89814bcb2c80b",
      "assetIds": [
        "41506478881403507969696680653240014914910929820314476107906210059990541021188"
      ]
    },
    {
      "x": 348,
      "y": 256,
      "size": 1,
      "price": "4683000000000000000000",
      "reserved": "",
      "salt": "0xa46bc6706c849b19d1f237fe8de5773b95a2d2ae64385751f96257c728aab6f2",
      "assetIds": [
        "41506478881403507969696680653240014914910929820314476107906210059990541021188"
      ]
    },
    {
      "x": 348,
      "y": 257,
      "size": 1,
      "price": "4683000000000000000000",
      "reserved": "",
      "salt": "0x78f6323fbe54eb21132345e24ad68c439e8110d0b81f8cb847b7a02e90677748",
      "assetIds": [
        "41506478881403507969696680653240014914910929820314476107906210059990541021186"
      ]
    },
    {
      "x": 348,
      "y": 258,
      "size": 1,
      "price": "4683000000000000000000",
      "reserved": "",
      "salt": "0x23d74797dd5975b71c1272225a441c605197ecbf0a733114cbdd4f72ffa622cd",
      "assetIds": [
        "41506478881403507969696680653240014914910929820314476107906210059990541021187"
      ]
    },
    {
      "x": 348,
      "y": 259,
      "size": 1,
      "price": "4683000000000000000000",
      "reserved": "",
      "salt": "0xba398474d7295b62f3c0a1c2bbd529ff6ac6c83b3cfa64c6ce70234e281589cf",
      "assetIds": [
        "41506478881403507969696680653240014914910929820314476107906210059990541021187"
      ]
    },
    {
      "x": 348,
      "y": 260,
      "size": 1,
      "price": "4683000000000000000000",
      "reserved": "",
      "salt": "0xcf5d49dd9aeddce69d6d4e73d78788ba728bf80f4493a6612acf8bffb23800bb",
      "assetIds": [
        "41506478881403507969696680653240014914910929820314476107906210059990541021189"
      ]
    },
    {
      "x": 348,
      "y": 261,
      "size": 1,
      "price": "4683000000000000000000",
      "reserved": "",
      "salt": "0x0272f46976bd1c327c9ed8b8191f84cc50f0b54750e3a286f9a1a2f1599a065e",
      "assetIds": [
        "41506478881403507969696680653240014914910929820314476107906210059990541021188"
      ]
    },
    {
      "x": 348,
      "y": 262,
      "size": 1,
      "price": "4683000000000000000000",
      "reserved": "",
      "salt": "0xce0b4354850ff25cb603ec3f35c5eb505783f1ad9174e9a0ae1a3ca201d3d24c",
      "assetIds": [
        "41506478881403507969696680653240014914910929820314476107906210059990541021189"
      ]
    },
    {
      "x": 348,
      "y": 263,
      "size": 1,
      "price": "4683000000000000000000",
      "reserved": "",
      "salt": "0x57eba1dbf77661c4e4636c07e8db5683b6b9d305025a3b4405863053d1c54d37",
      "assetIds": [
        "41506478881403507969696680653240014914910929820314476107906210059990541021188"
      ]
    },
    {
      "x": 348,
      "y": 300,
      "size": 1,
      "price": "4683000000000000000000",
      "reserved": "",
      "salt": "0x2e5ec16743fe85984b423546c9fe255a63c417707587b64ea36847a8a66fce43",
      "assetIds": [
        "41506478881403507969696680653240014914910929820314476107906210059990541021185"
      ]
    },
    {
      "x": 348,
      "y": 301,
      "size": 1,
      "price": "4683000000000000000000",
      "reserved": "",
      "salt": "0xc9a4b7365b6bf9246079c61856cf5692151d5fa391e24b1467004f503e492e94",
      "assetIds": [
        "41506478881403507969696680653240014914910929820314476107906210059990541021188"
      ]
    },
    {
      "x": 348,
      "y": 302,
      "size": 1,
      "price": "4683000000000000000000",
      "reserved": "",
      "salt": "0xc7db656444689fb641beb64b4c7743e7e36e6c84313d0fa138fe70948135f1a3",
      "assetIds": [
        "41506478881403507969696680653240014914910929820314476107906210059990541021189"
      ]
    },
    {
      "x": 348,
      "y": 303,
      "size": 1,
      "price": "4683000000000000000000",
      "reserved": "",
      "salt": "0x96e796e8ecadcb60ba80bc61b5b0cf04722a269c98641838ade2145c32f5a585",
      "assetIds": [
        "41506478881403507969696680653240014914910929820314476107906210059990541021187"
      ]
    },
    {
      "x": 348,
      "y": 304,
      "size": 1,
      "price": "4683000000000000000000",
      "reserved": "",
      "salt": "0x83984c43d6ef9dd37bfe52dd21290988e0da0adeee22539ac47568427f78797c",
      "assetIds": [
        "41506478881403507969696680653240014914910929820314476107906210059990541021188"
      ]
    },
    {
      "x": 348,
      "y": 305,
      "size": 1,
      "price": "4683000000000000000000",
      "reserved": "",
      "salt": "0xb03dcc0a22d826867297d5ff0554545960d594b4808850c4109de0dc586ba76f",
      "assetIds": [
        "41506478881403507969696680653240014914910929820314476107906210059990541021187"
      ]
    },
    {
      "x": 349,
      "y": 255,
      "size": 1,
      "price": "4683000000000000000000",
      "reserved": "",
      "salt": "0xc6229cb6866b9b8534b99717068530b7b1162500f1f2cb3603b96350f8b29480",
      "assetIds": [
        "41506478881403507969696680653240014914910929820314476107906210059990541021185"
      ]
    },
    {
      "x": 349,
      "y": 256,
      "size": 1,
      "price": "4683000000000000000000",
      "reserved": "",
      "salt": "0xcccba338ae2b12c8ef8614de9710eb17ac3d44fa8f0e5f1cc3f3cf0bd27d9954",
      "assetIds": [
        "41506478881403507969696680653240014914910929820314476107906210059990541021188"
      ]
    },
    {
      "x": 349,
      "y": 257,
      "size": 1,
      "price": "4683000000000000000000",
      "reserved": "",
      "salt": "0x7ed33c2ed4bac9d43fc2f42d672c7a0de6d03d7ab0721dec5ec20b8ff0711bc3",
      "assetIds": [
        "41506478881403507969696680653240014914910929820314476107906210059990541021186"
      ]
    },
    {
      "x": 349,
      "y": 258,
      "size": 1,
      "price": "4683000000000000000000",
      "reserved": "",
      "salt": "0x6f79ff1747995970c53fa53de55e35225b8500fd225035176545cba8cbda793d",
      "assetIds": [
        "41506478881403507969696680653240014914910929820314476107906210059990541021188"
      ]
    },
    {
      "x": 349,
      "y": 259,
      "size": 1,
      "price": "4683000000000000000000",
      "reserved": "",
      "salt": "0x0224f2b08e9f25d76d1388f5f8e311d01fd660011cafb39dac9712a6b094fad0",
      "assetIds": [
        "41506478881403507969696680653240014914910929820314476107906210059990541021185"
      ]
    },
    {
      "x": 349,
      "y": 260,
      "size": 1,
      "price": "4683000000000000000000",
      "reserved": "",
      "salt": "0xdaf6bf0741abb9d4a872953ea61236de64defcff5ab8b1e27774d06458984d65",
      "assetIds": [
        "41506478881403507969696680653240014914910929820314476107906210059990541021189"
      ]
    },
    {
      "x": 349,
      "y": 261,
      "size": 1,
      "price": "4683000000000000000000",
      "reserved": "",
      "salt": "0x071a55feb47a452328630543e6fba1f35db041b8902ccd002b9c0ef47031e757",
      "assetIds": [
        "41506478881403507969696680653240014914910929820314476107906210059990541021188"
      ]
    },
    {
      "x": 349,
      "y": 262,
      "size": 1,
      "price": "4683000000000000000000",
      "reserved": "",
      "salt": "0xf368f9b25698ffbdfc832d9c7c339a0c7ac5bf9a809abe9b67842a67a91edeea",
      "assetIds": [
        "41506478881403507969696680653240014914910929820314476107906210059990541021188"
      ]
    },
    {
      "x": 349,
      "y": 263,
      "size": 1,
      "price": "4683000000000000000000",
      "reserved": "",
      "salt": "0x9ff396b49ae4acc96f65d340fd2a5708e024d3b710d020858392af66a7ba14c7",
      "assetIds": [
        "41506478881403507969696680653240014914910929820314476107906210059990541021189"
      ]
    },
    {
      "x": 349,
      "y": 300,
      "size": 1,
      "price": "4683000000000000000000",
      "reserved": "",
      "salt": "0xb4745025ac7365a9a39a5961b8f7729e04ddf58550f0773cfa299e6047d0b4fa",
      "assetIds": [
        "41506478881403507969696680653240014914910929820314476107906210059990541021188"
      ]
    },
    {
      "x": 349,
      "y": 301,
      "size": 1,
      "price": "4683000000000000000000",
      "reserved": "",
      "salt": "0x26dacd6b5d90e5de7baa94e849abc74610c5dc6048df19d95bbadbcc88542bf0",
      "assetIds": [
        "41506478881403507969696680653240014914910929820314476107906210059990541021189"
      ]
    },
    {
      "x": 349,
      "y": 302,
      "size": 1,
      "price": "4683000000000000000000",
      "reserved": "",
      "salt": "0x8cd46d4ff2010d08422dd74adcd15f260619c2940664d0ba32baf2dee77431b8",
      "assetIds": [
        "41506478881403507969696680653240014914910929820314476107906210059990541021186"
      ]
    },
    {
      "x": 349,
      "y": 303,
      "size": 1,
      "price": "1011000000000000000000",
      "reserved": "0x7a9fe22691c811ea339d9b73150e6911a5343dca",
      "salt": "0x2aafdac8e6fcd8caa2fde3d5bf7295e13f211182c7027730cfeb4fcea0c1e7e4",
      "assetIds": []
    },
    {
      "x": 349,
      "y": 304,
      "size": 1,
      "price": "4683000000000000000000",
      "reserved": "",
      "salt": "0xedc32cbb89eef22bca2e70764b81dbf155ffef63773ec8e179344fabb021914a",
      "assetIds": [
        "41506478881403507969696680653240014914910929820314476107906210059990541021187"
      ]
    },
    {
      "x": 349,
      "y": 305,
      "size": 1,
      "price": "4683000000000000000000",
      "reserved": "",
      "salt": "0x074f16300d7149e06054f0780b9b3f48477242a51fd5c8ff77deb2cf70455ed0",
      "assetIds": [
        "41506478881403507969696680653240014914910929820314476107906210059990541021187"
      ]
    },
    {
      "x": 350,
      "y": 255,
      "size": 1,
      "price": "4683000000000000000000",
      "reserved": "",
      "salt": "0x662f67f7d4dab1ecf85906657a7953f09656c8426de71d38d2883aff2664321d",
      "assetIds": [
        "41506478881403507969696680653240014914910929820314476107906210059990541021185"
      ]
    },
    {
      "x": 350,
      "y": 256,
      "size": 1,
      "price": "4683000000000000000000",
      "reserved": "",
      "salt": "0x5563c867fa0bcd88af4c7619393df39213fe979434d700b8ecdbf1e4fcfe5467",
      "assetIds": [
        "41506478881403507969696680653240014914910929820314476107906210059990541021186"
      ]
    },
    {
      "x": 350,
      "y": 257,
      "size": 1,
      "price": "4683000000000000000000",
      "reserved": "",
      "salt": "0x7505bbf4f52312bc9fb93a06880a7e2fe0e4553f33271cfcd970a3056e24bef0",
      "assetIds": [
        "41506478881403507969696680653240014914910929820314476107906210059990541021185"
      ]
    },
    {
      "x": 350,
      "y": 258,
      "size": 1,
      "price": "4683000000000000000000",
      "reserved": "",
      "salt": "0x6accdb79c67d6589d4f91d9bbb4ff050c9f4fe6026c20924010aa0588ac6a677",
      "assetIds": [
        "41506478881403507969696680653240014914910929820314476107906210059990541021187"
      ]
    },
    {
      "x": 350,
      "y": 259,
      "size": 1,
      "price": "4683000000000000000000",
      "reserved": "",
      "salt": "0xb790b64ddc91294cae3e3edc09f137c506771822373e348ab56bd5039958a702",
      "assetIds": [
        "41506478881403507969696680653240014914910929820314476107906210059990541021184"
      ]
    },
    {
      "x": 350,
      "y": 260,
      "size": 1,
      "price": "4683000000000000000000",
      "reserved": "",
      "salt": "0xd156b92865c57e1c854091794d5c9bd57b6aba7e7f356092831f89baeb44170a",
      "assetIds": [
        "41506478881403507969696680653240014914910929820314476107906210059990541021184"
      ]
    },
    {
      "x": 350,
      "y": 261,
      "size": 1,
      "price": "4683000000000000000000",
      "reserved": "",
      "salt": "0xfa49c24bf8433f3dc7172d10189dcec69f6d7ec1667fe617b9bf5b49fafd8522",
      "assetIds": [
        "41506478881403507969696680653240014914910929820314476107906210059990532622336"
      ]
    },
    {
      "x": 350,
      "y": 262,
      "size": 1,
      "price": "4683000000000000000000",
      "reserved": "",
      "salt": "0xf35cfa6ef1c32c5b926195794fee148762856538f7ae1085f81ed12edd5df31a",
      "assetIds": [
        "41506478881403507969696680653240014914910929820314476107906210059990541021185"
      ]
    },
    {
      "x": 350,
      "y": 263,
      "size": 1,
      "price": "4683000000000000000000",
      "reserved": "",
      "salt": "0x114806c8a205e721c02583d47302bf9b6aba2df720473a0b5ffa0d3e2db34ea0",
      "assetIds": [
        "41506478881403507969696680653240014914910929820314476107906210059990541021189"
      ]
    },
    {
      "x": 350,
      "y": 300,
      "size": 1,
      "price": "4683000000000000000000",
      "reserved": "",
      "salt": "0xda229da3b7003a0d26ceee919c647ab6786579fc98d554b8fb80c2316a400706",
      "assetIds": [
        "41506478881403507969696680653240014914910929820314476107906210059990541021186"
      ]
    },
    {
      "x": 350,
      "y": 301,
      "size": 1,
      "price": "4683000000000000000000",
      "reserved": "",
      "salt": "0xb2d283fb458085a0879e6404b2c8a66fd23b37168ce6cfa83c8ba2aa91928f7d",
      "assetIds": [
        "41506478881403507969696680653240014914910929820314476107906210059990541021189"
      ]
    },
    {
      "x": 350,
      "y": 302,
      "size": 1,
      "price": "4683000000000000000000",
      "reserved": "",
      "salt": "0x24683c55fdb54409b397c689440b059738a425688478e21fcff0c0f72126633e",
      "assetIds": [
        "41506478881403507969696680653240014914910929820314476107906210059990541021184"
      ]
    },
    {
      "x": 350,
      "y": 303,
      "size": 1,
      "price": "4683000000000000000000",
      "reserved": "",
      "salt": "0x7e967ced33c3afa9f920c16c1fa1ab4fb89706f762c90ce4f2cb28af36f9eb6a",
      "assetIds": [
        "41506478881403507969696680653240014914910929820314476107906210059990541021189"
      ]
    },
    {
      "x": 350,
      "y": 304,
      "size": 1,
      "price": "4683000000000000000000",
      "reserved": "",
      "salt": "0x71d1f7ca3ee8cf5c39f2afc97ad72fefc640ad7e4e0a2caa3cda0985d657d281",
      "assetIds": [
        "41506478881403507969696680653240014914910929820314476107906210059990541021185"
      ]
    },
    {
      "x": 350,
      "y": 305,
      "size": 1,
      "price": "4683000000000000000000",
      "reserved": "",
      "salt": "0x5d6a53eb0dfdf4ee510a7f6f1f71399fa82f5dc9e92025a3578c8cb753cfdd91",
      "assetIds": [
        "41506478881403507969696680653240014914910929820314476107906210059990541021188"
      ]
    },
    {
      "x": 351,
      "y": 252,
      "size": 1,
      "price": "4683000000000000000000",
      "reserved": "",
      "salt": "0x6c258fbef24c5b6412f47e3d020732151e7dec6d434a6a584c96effafe3a4d7a",
      "assetIds": [
        "41506478881403507969696680653240014914910929820314476107906210059990541021189"
      ]
    },
    {
      "x": 351,
      "y": 253,
      "size": 1,
      "price": "4683000000000000000000",
      "reserved": "",
      "salt": "0xaedc094f16e2c5c3b36bf2b856b152fc3d6ca3028ec030722e115204ae5406ff",
      "assetIds": [
        "41506478881403507969696680653240014914910929820314476107906210059990541021185"
      ]
    },
    {
      "x": 351,
      "y": 254,
      "size": 1,
      "price": "4683000000000000000000",
      "reserved": "",
      "salt": "0xd5cc488f504d6b17c6ac5fb980b1c8dc105f9bd15607017533277b8c9dae25f0",
      "assetIds": [
        "41506478881403507969696680653240014914910929820314476107906210059990541021186"
      ]
    },
    {
      "x": 351,
      "y": 255,
      "size": 1,
      "price": "4683000000000000000000",
      "reserved": "",
      "salt": "0x85032ce18e1df17673aade40d3b31cb2b771ae43b3e7ccd86e92498cb39ca0be",
      "assetIds": [
        "41506478881403507969696680653240014914910929820314476107906210059990532622336"
      ]
    },
    {
      "x": 351,
      "y": 256,
      "size": 1,
      "price": "4683000000000000000000",
      "reserved": "",
      "salt": "0xc418ed790bb2bd730b7eaa7b5305777890d65a16d7b9f1c566af471877848d06",
      "assetIds": [
        "41506478881403507969696680653240014914910929820314476107906210059990541021186"
      ]
    },
    {
      "x": 351,
      "y": 257,
      "size": 1,
      "price": "4683000000000000000000",
      "reserved": "",
      "salt": "0x550547344e46a897a454b2044ce875ad10fc2ea723a9c916736aaa59ff1311d9",
      "assetIds": [
        "41506478881403507969696680653240014914910929820314476107906210059990541021185"
      ]
    },
    {
      "x": 351,
      "y": 258,
      "size": 1,
      "price": "4683000000000000000000",
      "reserved": "",
      "salt": "0xf3e3198e3fa53076415bd01e3f7f3be7f53dc9e2f4ee9c5ee35162f5fb32dc63",
      "assetIds": [
        "41506478881403507969696680653240014914910929820314476107906210059990541021185"
      ]
    },
    {
      "x": 351,
      "y": 259,
      "size": 1,
      "price": "4683000000000000000000",
      "reserved": "",
      "salt": "0x38df55a636a953dd15b380a8c5d6e4ded5312b99cc948f4290f725bce190f28f",
      "assetIds": [
        "41506478881403507969696680653240014914910929820314476107906210059990541021188"
      ]
    },
    {
      "x": 351,
      "y": 260,
      "size": 1,
      "price": "4683000000000000000000",
      "reserved": "",
      "salt": "0xd9360ead5ec7c4970f93ade4f6375b573b3c1dabee951a6c8550662aef982743",
      "assetIds": [
        "41506478881403507969696680653240014914910929820314476107906210059990541021188"
      ]
    },
    {
      "x": 351,
      "y": 261,
      "size": 1,
      "price": "4683000000000000000000",
      "reserved": "",
      "salt": "0xd37a92eba5576a8898edd15f407b9713a13e2b8bcdfa261a62ebece702250e74",
      "assetIds": [
        "41506478881403507969696680653240014914910929820314476107906210059990541021189"
      ]
    },
    {
      "x": 351,
      "y": 262,
      "size": 1,
      "price": "4683000000000000000000",
      "reserved": "",
      "salt": "0xd891ac365697505a6f64bcb6d1d9efb955509950aee545383181f8db8496ceca",
      "assetIds": [
        "41506478881403507969696680653240014914910929820314476107906210059990541021189"
      ]
    },
    {
      "x": 351,
      "y": 263,
      "size": 1,
      "price": "4683000000000000000000",
      "reserved": "",
      "salt": "0xda24cad577afe9b9ad6d7d00cfe46b64639796f21dd71aeb0c3d216157082b3b",
      "assetIds": [
        "41506478881403507969696680653240014914910929820314476107906210059990541021184"
      ]
    },
    {
      "x": 351,
      "y": 300,
      "size": 1,
      "price": "4683000000000000000000",
      "reserved": "",
      "salt": "0x67ebd3a36df1c56ff7c9d97919767b126678b0ab50b49b49fd80162da63ec022",
      "assetIds": [
        "41506478881403507969696680653240014914910929820314476107906210059990541021189"
      ]
    },
    {
      "x": 351,
      "y": 301,
      "size": 1,
      "price": "4683000000000000000000",
      "reserved": "",
      "salt": "0x8f27aa3990a3988aac998d073b5154c0aa1f909f437d79b880f284269e541c35",
      "assetIds": [
        "41506478881403507969696680653240014914910929820314476107906210059990541021187"
      ]
    },
    {
      "x": 351,
      "y": 302,
      "size": 1,
      "price": "4683000000000000000000",
      "reserved": "",
      "salt": "0x051841861c51070fe7adf8be6857f75c64122db34099de0d33daf19b757c1b68",
      "assetIds": [
        "41506478881403507969696680653240014914910929820314476107906210059990541021185"
      ]
    },
    {
      "x": 351,
      "y": 303,
      "size": 1,
      "price": "4683000000000000000000",
      "reserved": "",
      "salt": "0xe5576d27f13f132d84575ed80ad6dc753d3c69fc1b52f2314b3b3af9910fd5db",
      "assetIds": [
        "41506478881403507969696680653240014914910929820314476107906210059990541021189"
      ]
    },
    {
      "x": 351,
      "y": 304,
      "size": 1,
      "price": "4683000000000000000000",
      "reserved": "",
      "salt": "0x75bb032737371151a10dd9d79c64f15473414ad13e10829cf7cddcb64588fc9a",
      "assetIds": [
        "41506478881403507969696680653240014914910929820314476107906210059990541021187"
      ]
    },
    {
      "x": 351,
      "y": 305,
      "size": 1,
      "price": "4683000000000000000000",
      "reserved": "",
      "salt": "0x65e70d3fa708ca97aaf00cf9a8791650a1d8e944b9e6d5f7a2f31bb62a22c6fe",
      "assetIds": [
        "41506478881403507969696680653240014914910929820314476107906210059990541021188"
      ]
    },
    {
      "x": 352,
      "y": 252,
      "size": 1,
      "price": "4683000000000000000000",
      "reserved": "",
      "salt": "0x86732e27ce27ebb9db460ec95790e90dd0f0695543aac23737c41fd56cb21ee5",
      "assetIds": [
        "41506478881403507969696680653240014914910929820314476107906210059990541021189"
      ]
    },
    {
      "x": 352,
      "y": 253,
      "size": 1,
      "price": "4683000000000000000000",
      "reserved": "",
      "salt": "0x3bd13ddcc286d27afc8993ddff8d07ee99db337df4e53354787c3e87b4f23d2d",
      "assetIds": [
        "41506478881403507969696680653240014914910929820314476107906210059990541021188"
      ]
    },
    {
      "x": 352,
      "y": 254,
      "size": 1,
      "price": "4683000000000000000000",
      "reserved": "",
      "salt": "0x49bd742224568cce88a6460f9b6b54ec56336e1b28c09cfca17a28d93a794b69",
      "assetIds": [
        "41506478881403507969696680653240014914910929820314476107906210059990541021188"
      ]
    },
    {
      "x": 352,
      "y": 255,
      "size": 1,
      "price": "4683000000000000000000",
      "reserved": "",
      "salt": "0x9c07476c4b7bc4d5e8277137ed05e1780094f9b384a08fc4fd598d5f6089b03b",
      "assetIds": [
        "41506478881403507969696680653240014914910929820314476107906210059990541021184"
      ]
    },
    {
      "x": 352,
      "y": 256,
      "size": 1,
      "price": "4683000000000000000000",
      "reserved": "",
      "salt": "0x77a69d0e29a832945f7161616f71e24ad46a8e6be072b5ede456cffc5d14a48c",
      "assetIds": [
        "41506478881403507969696680653240014914910929820314476107906210059990541021186"
      ]
    },
    {
      "x": 352,
      "y": 257,
      "size": 1,
      "price": "4683000000000000000000",
      "reserved": "",
      "salt": "0x39d582aacdececdd73f54df081adaa0910ba24c1f595f4b26b1d320ab96844d9",
      "assetIds": [
        "41506478881403507969696680653240014914910929820314476107906210059990532622336"
      ]
    },
    {
      "x": 352,
      "y": 258,
      "size": 1,
      "price": "4683000000000000000000",
      "reserved": "",
      "salt": "0x16a5bc1d37f830817fa5421c94b9c4b4319d58267518a86e575b4ab95cbb8ea0",
      "assetIds": [
        "41506478881403507969696680653240014914910929820314476107906210059990541021188"
      ]
    },
    {
      "x": 352,
      "y": 259,
      "size": 1,
      "price": "4683000000000000000000",
      "reserved": "",
      "salt": "0xec50a3231d6d7ccee67fa9a8f83f53a02c7b3487cdeb7468a1d592271fcbdba3",
      "assetIds": [
        "41506478881403507969696680653240014914910929820314476107906210059990541021187"
      ]
    },
    {
      "x": 352,
      "y": 260,
      "size": 1,
      "price": "4683000000000000000000",
      "reserved": "",
      "salt": "0xc0a5a367caa0f32e04c29df154719377ec8bd87c47b5615a74a822ac7c5154d4",
      "assetIds": [
        "41506478881403507969696680653240014914910929820314476107906210059990541021187"
      ]
    },
    {
      "x": 352,
      "y": 261,
      "size": 1,
      "price": "4683000000000000000000",
      "reserved": "",
      "salt": "0x97622f30d8c521bd750aaa4f9f6a5f8082393f7da2a725de19bd20ca5194b6da",
      "assetIds": [
        "41506478881403507969696680653240014914910929820314476107906210059990541021189"
      ]
    },
    {
      "x": 352,
      "y": 262,
      "size": 1,
      "price": "1011000000000000000000",
      "reserved": "0x7a9fe22691c811ea339d9b73150e6911a5343dca",
      "salt": "0xc2f5a158b379fa7da3500628c58b48fb5fee31bb06099c78a801fc4b08e9876a",
      "assetIds": []
    },
    {
      "x": 352,
      "y": 263,
      "size": 1,
      "price": "4683000000000000000000",
      "reserved": "",
      "salt": "0x7477af2b23ea9745ae6ceb9b41941adba2cea8fd55add4694403ab43019c7154",
      "assetIds": [
        "41506478881403507969696680653240014914910929820314476107906210059990541021189"
      ]
    },
    {
      "x": 352,
      "y": 300,
      "size": 1,
      "price": "4683000000000000000000",
      "reserved": "",
      "salt": "0x49847e2986f91b5050972f2fb29f830b27eec12430c5aaf3e07dd269e09a0082",
      "assetIds": [
        "41506478881403507969696680653240014914910929820314476107906210059990541021188"
      ]
    },
    {
      "x": 352,
      "y": 301,
      "size": 1,
      "price": "4683000000000000000000",
      "reserved": "",
      "salt": "0x948d41fe9dbb27bed0ed1c0f93300c0f187849339cba9c155734d001a5f41a90",
      "assetIds": [
        "41506478881403507969696680653240014914910929820314476107906210059990541021189"
      ]
    },
    {
      "x": 352,
      "y": 302,
      "size": 1,
      "price": "4683000000000000000000",
      "reserved": "",
      "salt": "0x5c8aeed73b196ec3dfb7bbcd0f50ff6c8b276259e17463d8641d40643e542124",
      "assetIds": [
        "41506478881403507969696680653240014914910929820314476107906210059990541021186"
      ]
    },
    {
      "x": 352,
      "y": 303,
      "size": 1,
      "price": "4683000000000000000000",
      "reserved": "",
      "salt": "0xfc567bef574fce2b2a4b621c5ed454155cfc16714982c5853aa0b34f39e66712",
      "assetIds": [
        "41506478881403507969696680653240014914910929820314476107906210059990541021188"
      ]
    },
    {
      "x": 352,
      "y": 304,
      "size": 1,
      "price": "4683000000000000000000",
      "reserved": "",
      "salt": "0xf38666b9033c31f3cc0d1c79549c6b464e799c9bfe5f8576e6234f177a0cfdea",
      "assetIds": [
        "41506478881403507969696680653240014914910929820314476107906210059990541021187"
      ]
    },
    {
      "x": 352,
      "y": 305,
      "size": 1,
      "price": "4683000000000000000000",
      "reserved": "",
      "salt": "0x497f0cd4b239e52caa4953248fae44ace388133d09dba5f4e0b971ba86b7ee9b",
      "assetIds": [
        "41506478881403507969696680653240014914910929820314476107906210059990541021184"
      ]
    },
    {
      "x": 353,
      "y": 252,
      "size": 1,
      "price": "1011000000000000000000",
      "reserved": "0x7a9fe22691c811ea339d9b73150e6911a5343dca",
      "salt": "0xf9cb0a5c53005013306b77b6b68924326f281c9cc01d0b1cfab2a74ff8d3d2d3",
      "assetIds": []
    },
    {
      "x": 353,
      "y": 253,
      "size": 1,
      "price": "4683000000000000000000",
      "reserved": "",
      "salt": "0x1843cdd4f9438db9a6bc4d924f8a63751e0ab4832750dbcd3de8b0d0e0112e63",
      "assetIds": [
        "41506478881403507969696680653240014914910929820314476107906210059990541021186"
      ]
    },
    {
      "x": 353,
      "y": 254,
      "size": 1,
      "price": "4683000000000000000000",
      "reserved": "",
      "salt": "0x774ccc89318e25a7132b12cf7e1091856f73ee05a6d2c4a3db6cfc285b3ef676",
      "assetIds": [
        "41506478881403507969696680653240014914910929820314476107906210059990541021188"
      ]
    },
    {
      "x": 353,
      "y": 255,
      "size": 1,
      "price": "4683000000000000000000",
      "reserved": "",
      "salt": "0x88510174f3d61d008ac5b4662a241e2cfa7864f2e1f610b48f7380ecb4b40c34",
      "assetIds": [
        "41506478881403507969696680653240014914910929820314476107906210059990541021185"
      ]
    },
    {
      "x": 353,
      "y": 256,
      "size": 1,
      "price": "4683000000000000000000",
      "reserved": "",
      "salt": "0x06f71886e658c48653e7aebd8dcb0e56e539d9c53a7a26518819635ef230e8e4",
      "assetIds": [
        "41506478881403507969696680653240014914910929820314476107906210059990532622336"
      ]
    },
    {
      "x": 353,
      "y": 257,
      "size": 1,
      "price": "4683000000000000000000",
      "reserved": "",
      "salt": "0x98cbaf7747b75cc57272884a1dfefa90f308a8245f80714fd28fc33ef4dd8b7d",
      "assetIds": [
        "41506478881403507969696680653240014914910929820314476107906210059990541021189"
      ]
    },
    {
      "x": 353,
      "y": 258,
      "size": 1,
      "price": "4683000000000000000000",
      "reserved": "",
      "salt": "0x67f662fedef4b5053196f6b8d6f03d5e13c259b1df632d5472ba731bf3987e92",
      "assetIds": [
        "41506478881403507969696680653240014914910929820314476107906210059990541021188"
      ]
    },
    {
      "x": 353,
      "y": 259,
      "size": 1,
      "price": "4683000000000000000000",
      "reserved": "",
      "salt": "0xae62aedba7a1cc54768f3de9bf1a6247b139c3fed9dee8559c6e1396a5466460",
      "assetIds": [
        "41506478881403507969696680653240014914910929820314476107906210059990541021189"
      ]
    },
    {
      "x": 353,
      "y": 260,
      "size": 1,
      "price": "4683000000000000000000",
      "reserved": "",
      "salt": "0xd904fcb43298aaf879ca1677a79ac1633236185ec646ddba56008d5a16605d6b",
      "assetIds": [
        "41506478881403507969696680653240014914910929820314476107906210059990541021188"
      ]
    },
    {
      "x": 353,
      "y": 261,
      "size": 1,
      "price": "4683000000000000000000",
      "reserved": "",
      "salt": "0xf0e001c3c77207bffa73d8dad48b7793051157cfc7c2eeeb583f7a33860c9790",
      "assetIds": [
        "41506478881403507969696680653240014914910929820314476107906210059990541021187"
      ]
    },
    {
      "x": 353,
      "y": 262,
      "size": 1,
      "price": "4683000000000000000000",
      "reserved": "",
      "salt": "0x52746d6f512b43a33a3313a61788fd595d9d9630345d2b637a71ae9a80c6bdcd",
      "assetIds": [
        "41506478881403507969696680653240014914910929820314476107906210059990541021188"
      ]
    },
    {
      "x": 353,
      "y": 263,
      "size": 1,
      "price": "4683000000000000000000",
      "reserved": "",
      "salt": "0xa45d92667ad7ad63bb7fc7d4514f45a6146ae5473885d0e35a91ded1bea38a40",
      "assetIds": [
        "41506478881403507969696680653240014914910929820314476107906210059990541021185"
      ]
    },
    {
      "x": 353,
      "y": 300,
      "size": 1,
      "price": "4683000000000000000000",
      "reserved": "",
      "salt": "0x4b967eb46e33bf78f24b5f05114951062d5eeb3c5f5c81cb5b06dd25b018aab0",
      "assetIds": [
        "41506478881403507969696680653240014914910929820314476107906210059990541021184"
      ]
    },
    {
      "x": 353,
      "y": 301,
      "size": 1,
      "price": "4683000000000000000000",
      "reserved": "",
      "salt": "0x91b1a8a03a897575956424ac6d1981c2652773cd9b85772a857312b0662aea17",
      "assetIds": [
        "41506478881403507969696680653240014914910929820314476107906210059990541021188"
      ]
    },
    {
      "x": 353,
      "y": 302,
      "size": 1,
      "price": "4683000000000000000000",
      "reserved": "",
      "salt": "0x17762799005a3ed3ffec1488a1c01bc22306387d4c6a6a23dd302a76803c2b9b",
      "assetIds": [
        "41506478881403507969696680653240014914910929820314476107906210059990532622336"
      ]
    },
    {
      "x": 353,
      "y": 303,
      "size": 1,
      "price": "4683000000000000000000",
      "reserved": "",
      "salt": "0xcd1f75f1a99767cfa974bc01a78f2d17c01425411d28283694bffb1aecfecf3f",
      "assetIds": [
        "41506478881403507969696680653240014914910929820314476107906210059990541021185"
      ]
    },
    {
      "x": 353,
      "y": 304,
      "size": 1,
      "price": "4683000000000000000000",
      "reserved": "",
      "salt": "0xbb8ab4b8f6fe6dedabd108978153368aa4be4be8b2d604ec86aab7b547a34cce",
      "assetIds": [
        "41506478881403507969696680653240014914910929820314476107906210059990541021187"
      ]
    },
    {
      "x": 353,
      "y": 305,
      "size": 1,
      "price": "4683000000000000000000",
      "reserved": "",
      "salt": "0x289f6f41e44dc499262c196d6f4e7d942679fa5cbf0cabcade8f945730974e95",
      "assetIds": [
        "41506478881403507969696680653240014914910929820314476107906210059990541021187"
      ]
    },
    {
      "x": 354,
      "y": 252,
      "size": 1,
      "price": "4683000000000000000000",
      "reserved": "",
      "salt": "0x343d79af8f1dd03b3d740d739af435db3e3c933604c842ec7b6309323cf02058",
      "assetIds": [
        "41506478881403507969696680653240014914910929820314476107906210059990541021189"
      ]
    },
    {
      "x": 354,
      "y": 253,
      "size": 1,
      "price": "4683000000000000000000",
      "reserved": "",
      "salt": "0x6e49d85995dda15801d91cd61c5a5d744d5857506ebfcf9a6355df14b1f01acc",
      "assetIds": [
        "41506478881403507969696680653240014914910929820314476107906210059990541021186"
      ]
    },
    {
      "x": 354,
      "y": 254,
      "size": 1,
      "price": "4683000000000000000000",
      "reserved": "",
      "salt": "0xa3d0f34701203c24f83041ccfca7309d171ba17e048b8718f295def710d87560",
      "assetIds": [
        "41506478881403507969696680653240014914910929820314476107906210059990541021185"
      ]
    },
    {
      "x": 354,
      "y": 255,
      "size": 1,
      "price": "4683000000000000000000",
      "reserved": "",
      "salt": "0x55375076836c19d5472b53b669000bfea4a8f257bdcae9504a82fcea68c1dec4",
      "assetIds": [
        "41506478881403507969696680653240014914910929820314476107906210059990541021189"
      ]
    },
    {
      "x": 354,
      "y": 256,
      "size": 1,
      "price": "4683000000000000000000",
      "reserved": "",
      "salt": "0xd87974f8eca2c3a05b52de1d0f5b0332d5d490c615d7a3209f6b2e823b621eda",
      "assetIds": [
        "41506478881403507969696680653240014914910929820314476107906210059990541021187"
      ]
    },
    {
      "x": 354,
      "y": 257,
      "size": 1,
      "price": "4683000000000000000000",
      "reserved": "",
      "salt": "0xdcb9b0fdf004d38163aff25fb1d4b523aaa8e487698104c438575bacaf71be7b",
      "assetIds": [
        "41506478881403507969696680653240014914910929820314476107906210059990541021186"
      ]
    },
    {
      "x": 354,
      "y": 300,
      "size": 1,
      "price": "4683000000000000000000",
      "reserved": "",
      "salt": "0xbd39aadda6e3cb325e1581118c82dae9fd56757bc9b6639c3c0d5e8889223893",
      "assetIds": [
        "41506478881403507969696680653240014914910929820314476107906210059990541021187"
      ]
    },
    {
      "x": 354,
      "y": 301,
      "size": 1,
      "price": "4683000000000000000000",
      "reserved": "",
      "salt": "0x723a86e171a80192cd3677917553e1fc2838d1ebaa858e9b9e3a3c6909c88aba",
      "assetIds": [
        "41506478881403507969696680653240014914910929820314476107906210059990541021188"
      ]
    },
    {
      "x": 354,
      "y": 302,
      "size": 1,
      "price": "4683000000000000000000",
      "reserved": "",
      "salt": "0x695e2a193b7d8fb0bb37e687c0053de7a3959d34dc74fad45bd62c638cecf012",
      "assetIds": [
        "41506478881403507969696680653240014914910929820314476107906210059990541021186"
      ]
    },
    {
      "x": 354,
      "y": 303,
      "size": 1,
      "price": "4683000000000000000000",
      "reserved": "",
      "salt": "0x83df80e753bca5586a9c3a9639b3fcc2c8c60240926118bb79eda467e2c46b9d",
      "assetIds": [
        "41506478881403507969696680653240014914910929820314476107906210059990541021186"
      ]
    },
    {
      "x": 354,
      "y": 304,
      "size": 1,
      "price": "4683000000000000000000",
      "reserved": "",
      "salt": "0x82a1bf9b80be35819626b6a87ca16273acb482e872b7fa1c0612e3827c1fe2d2",
      "assetIds": [
        "41506478881403507969696680653240014914910929820314476107906210059990541021189"
      ]
    },
    {
      "x": 354,
      "y": 305,
      "size": 1,
      "price": "4683000000000000000000",
      "reserved": "",
      "salt": "0x5f660e6ee5ac35a2984cd9036c5795483b8b23a760c0dcc96c4de3f29850df54",
      "assetIds": [
        "41506478881403507969696680653240014914910929820314476107906210059990541021187"
      ]
    },
    {
      "x": 354,
      "y": 306,
      "size": 1,
      "price": "4683000000000000000000",
      "reserved": "",
      "salt": "0x8864761a9587b9bd31b417731f8f3fb0e43a9254da014ed7ba88c08fe1e245ac",
      "assetIds": [
        "41506478881403507969696680653240014914910929820314476107906210059990541021187"
      ]
    },
    {
      "x": 354,
      "y": 307,
      "size": 1,
      "price": "4683000000000000000000",
      "reserved": "",
      "salt": "0x613eb7a75281ce4318a86197c95fcbfe4447ddd07eeac73eb235e6f4eebef543",
      "assetIds": [
        "41506478881403507969696680653240014914910929820314476107906210059990541021186"
      ]
    },
    {
      "x": 354,
      "y": 308,
      "size": 1,
      "price": "4683000000000000000000",
      "reserved": "",
      "salt": "0xcb2b0515d50dcf4625660eb3317704d184dce004562f533dc629bc1d469dffb6",
      "assetIds": [
        "41506478881403507969696680653240014914910929820314476107906210059990541021187"
      ]
    },
    {
      "x": 354,
      "y": 309,
      "size": 1,
      "price": "4683000000000000000000",
      "reserved": "",
      "salt": "0x0951110b25a9a695e102e5cdf4613c57e19056798d56fd1ec003ede4e644773e",
      "assetIds": [
        "41506478881403507969696680653240014914910929820314476107906210059990541021188"
      ]
    },
    {
      "x": 354,
      "y": 310,
      "size": 1,
      "price": "4683000000000000000000",
      "reserved": "",
      "salt": "0xa5a814117d098868838fb2217e61024cd07b7ab052d7b38a559f335741982b49",
      "assetIds": [
        "41506478881403507969696680653240014914910929820314476107906210059990541021187"
      ]
    },
    {
      "x": 354,
      "y": 311,
      "size": 1,
      "price": "4683000000000000000000",
      "reserved": "",
      "salt": "0x37c763f6a2321e863e7cc6fdb6ac33ac1bd10ad72970cd782773c9a7a193ef22",
      "assetIds": [
        "41506478881403507969696680653240014914910929820314476107906210059990541021188"
      ]
    },
    {
      "x": 355,
      "y": 252,
      "size": 1,
      "price": "4683000000000000000000",
      "reserved": "",
      "salt": "0x022a31eb19a1912efec993655beb19b37d92b66c2f62c813786cc5209a8522b3",
      "assetIds": [
        "41506478881403507969696680653240014914910929820314476107906210059990541021185"
      ]
    },
    {
      "x": 355,
      "y": 253,
      "size": 1,
      "price": "4683000000000000000000",
      "reserved": "",
      "salt": "0x39b5c867b7b37c6a286db562da5f1e5c9eebd21cb11a3207947f98a25b8f4840",
      "assetIds": [
        "41506478881403507969696680653240014914910929820314476107906210059990541021187"
      ]
    },
    {
      "x": 355,
      "y": 254,
      "size": 1,
      "price": "4683000000000000000000",
      "reserved": "",
      "salt": "0xeaca8c45380848a4e39a71294e2d2d1bc489ace1e140be23f964bee59d889710",
      "assetIds": [
        "41506478881403507969696680653240014914910929820314476107906210059990541021188"
      ]
    },
    {
      "x": 355,
      "y": 255,
      "size": 1,
      "price": "4683000000000000000000",
      "reserved": "",
      "salt": "0x73feb02daa539059fd24a6e394ca7a02c0d9d4b28aeacc45b76f522271ccbdc0",
      "assetIds": [
        "41506478881403507969696680653240014914910929820314476107906210059990541021187"
      ]
    },
    {
      "x": 355,
      "y": 256,
      "size": 1,
      "price": "4683000000000000000000",
      "reserved": "",
      "salt": "0xc46aa8f6c03c61ec0afb5ab94d5f33dbdfd805c9cddc07c76dec6483ba1e8e3a",
      "assetIds": [
        "41506478881403507969696680653240014914910929820314476107906210059990541021187"
      ]
    },
    {
      "x": 355,
      "y": 257,
      "size": 1,
      "price": "4683000000000000000000",
      "reserved": "",
      "salt": "0x3965fc20930d4524de673134b1eadeb8a9431c306cf76c47fc3fd141a68e6692",
      "assetIds": [
        "41506478881403507969696680653240014914910929820314476107906210059990541021188"
      ]
    },
    {
      "x": 355,
      "y": 300,
      "size": 1,
      "price": "4683000000000000000000",
      "reserved": "",
      "salt": "0x51785093245053440b087ddad52245c22999fd507e27778d91c28ad3d1773ee0",
      "assetIds": [
        "41506478881403507969696680653240014914910929820314476107906210059990541021187"
      ]
    },
    {
      "x": 355,
      "y": 301,
      "size": 1,
      "price": "4683000000000000000000",
      "reserved": "",
      "salt": "0x65afb823a8897e2cbb810e8ab8b6ced34ca92bc1581d70023181ce6db21a9d64",
      "assetIds": [
        "41506478881403507969696680653240014914910929820314476107906210059990541021189"
      ]
    },
    {
      "x": 355,
      "y": 302,
      "size": 1,
      "price": "4683000000000000000000",
      "reserved": "",
      "salt": "0x2e399c7f34694c3e1519eba49de0e37aa965f51fb8b328b9e8609ed8120000d2",
      "assetIds": [
        "41506478881403507969696680653240014914910929820314476107906210059990541021188"
      ]
    },
    {
      "x": 355,
      "y": 303,
      "size": 1,
      "price": "4683000000000000000000",
      "reserved": "",
      "salt": "0xaea16e07d0cb388e56e357d1968b1fe5f893cd881e66ef6fb864392249c69761",
      "assetIds": [
        "41506478881403507969696680653240014914910929820314476107906210059990541021189"
      ]
    },
    {
      "x": 355,
      "y": 304,
      "size": 1,
      "price": "4683000000000000000000",
      "reserved": "",
      "salt": "0xdc5e0b47c6f1695b8a8789e68e71fa846749897ed33e3a8c7886d1d22fcd7bd2",
      "assetIds": [
        "41506478881403507969696680653240014914910929820314476107906210059990541021188"
      ]
    },
    {
      "x": 355,
      "y": 305,
      "size": 1,
      "price": "1011000000000000000000",
      "reserved": "0x7a9fe22691c811ea339d9b73150e6911a5343dca",
      "salt": "0x6911ebbfd850701faeef73aad1d2ac1796ca4e2f09488e8d9093a5e94879a001",
      "assetIds": []
    },
    {
      "x": 355,
      "y": 306,
      "size": 1,
      "price": "4683000000000000000000",
      "reserved": "",
      "salt": "0xc08022d2a2d7ddd6612179652339fb8aa68551432433e0dafbf7378691e6a52d",
      "assetIds": [
        "41506478881403507969696680653240014914910929820314476107906210059990541021188"
      ]
    },
    {
      "x": 355,
      "y": 307,
      "size": 1,
      "price": "4683000000000000000000",
      "reserved": "",
      "salt": "0xd71fc428256e9a18c067827d29fa0adb7787b0deb110fa9cbb4fe7ccb78e9b25",
      "assetIds": [
        "41506478881403507969696680653240014914910929820314476107906210059990541021186"
      ]
    },
    {
      "x": 355,
      "y": 308,
      "size": 1,
      "price": "4683000000000000000000",
      "reserved": "",
      "salt": "0x7c9dc2776766c26d1cfe804c4b0b84e5f371643500b109c1315a00c5bd5e808c",
      "assetIds": [
        "41506478881403507969696680653240014914910929820314476107906210059990541021189"
      ]
    },
    {
      "x": 355,
      "y": 309,
      "size": 1,
      "price": "4683000000000000000000",
      "reserved": "",
      "salt": "0x5fb4683544fb4120332241f1177200a5a907e5ec8609bded8246e07be1a2c835",
      "assetIds": [
        "41506478881403507969696680653240014914910929820314476107906210059990541021186"
      ]
    },
    {
      "x": 355,
      "y": 310,
      "size": 1,
      "price": "4683000000000000000000",
      "reserved": "",
      "salt": "0x8a133e012ef5d51a0ddf314537642eb57ceaf428f33c05bc5d7c939071fdc070",
      "assetIds": [
        "41506478881403507969696680653240014914910929820314476107906210059990541021187"
      ]
    },
    {
      "x": 355,
      "y": 311,
      "size": 1,
      "price": "4683000000000000000000",
      "reserved": "",
      "salt": "0x9f3c0dbe55d89d2c9569d3211290d8c5d1bacfe33d596c345a21975159850002",
      "assetIds": [
        "41506478881403507969696680653240014914910929820314476107906210059990541021188"
      ]
    },
    {
      "x": 356,
      "y": 252,
      "size": 1,
      "price": "4683000000000000000000",
      "reserved": "",
      "salt": "0x65120818dba66ab5a923f534d8b244470e09ba3773614623b2a6da2cd6fa4e1d",
      "assetIds": [
        "41506478881403507969696680653240014914910929820314476107906210059990541021186"
      ]
    },
    {
      "x": 356,
      "y": 253,
      "size": 1,
      "price": "4683000000000000000000",
      "reserved": "",
      "salt": "0xf928c370bde7a952a4b179dbb3bc2a8f623e0846522df267e0f667f1dea5c249",
      "assetIds": [
        "41506478881403507969696680653240014914910929820314476107906210059990541021187"
      ]
    },
    {
      "x": 356,
      "y": 254,
      "size": 1,
      "price": "4683000000000000000000",
      "reserved": "",
      "salt": "0x1dee3e12df8608580a491e9edc8e8f4467c620499ab7508b39148556ffce200a",
      "assetIds": [
        "41506478881403507969696680653240014914910929820314476107906210059990541021187"
      ]
    },
    {
      "x": 356,
      "y": 255,
      "size": 1,
      "price": "4683000000000000000000",
      "reserved": "",
      "salt": "0x052fc63cd040585e0cfd3a18b3a3ccb750ca5a85d326107fc2835085b9f0df48",
      "assetIds": [
        "41506478881403507969696680653240014914910929820314476107906210059990541021186"
      ]
    },
    {
      "x": 356,
      "y": 256,
      "size": 1,
      "price": "4683000000000000000000",
      "reserved": "",
      "salt": "0xbbccaa26bf27cc87f6fa3874d93fc52249e8dca1f7af0f289d5d6002e290f85a",
      "assetIds": [
        "41506478881403507969696680653240014914910929820314476107906210059990541021187"
      ]
    },
    {
      "x": 356,
      "y": 257,
      "size": 1,
      "price": "4683000000000000000000",
      "reserved": "",
      "salt": "0x18f81be31cbcf836fd012041afc36ae3ef38d0a4261ac8260e742e6ecf117f31",
      "assetIds": [
        "41506478881403507969696680653240014914910929820314476107906210059990541021186"
      ]
    },
    {
      "x": 356,
      "y": 300,
      "size": 1,
      "price": "4683000000000000000000",
      "reserved": "",
      "salt": "0xa3c59b183800b4a043d9b940030e123a3ac11f5fcf373c354452bb3a19370789",
      "assetIds": [
        "41506478881403507969696680653240014914910929820314476107906210059990541021188"
      ]
    },
    {
      "x": 356,
      "y": 301,
      "size": 1,
      "price": "4683000000000000000000",
      "reserved": "",
      "salt": "0x478b9d0534730e48f1b14cf183e85cb6f4956165c2b723e794f6df7669647ebc",
      "assetIds": [
        "41506478881403507969696680653240014914910929820314476107906210059990541021184"
      ]
    },
    {
      "x": 356,
      "y": 302,
      "size": 1,
      "price": "4683000000000000000000",
      "reserved": "",
      "salt": "0x97367a8398cccb34c9a696f763a970bdf5466bacb5b5f76e287fdfc4f9cc5953",
      "assetIds": [
        "41506478881403507969696680653240014914910929820314476107906210059990541021189"
      ]
    },
    {
      "x": 356,
      "y": 303,
      "size": 1,
      "price": "4683000000000000000000",
      "reserved": "",
      "salt": "0xf471069223f25b89f5a9ac5e01073750bea1bf70fb604c4c972a2291bca97522",
      "assetIds": [
        "41506478881403507969696680653240014914910929820314476107906210059990541021188"
      ]
    },
    {
      "x": 356,
      "y": 304,
      "size": 1,
      "price": "4683000000000000000000",
      "reserved": "",
      "salt": "0x6cb58c66f2bfa5d275c3c06743b7570b2e69611fe087674fd84add5d67768461",
      "assetIds": [
        "41506478881403507969696680653240014914910929820314476107906210059990541021187"
      ]
    },
    {
      "x": 356,
      "y": 305,
      "size": 1,
      "price": "4683000000000000000000",
      "reserved": "",
      "salt": "0x5b644749f591d77748a7251c20ff02a7dbe377d89fcd988c1d158484d5722538",
      "assetIds": [
        "41506478881403507969696680653240014914910929820314476107906210059990541021186"
      ]
    },
    {
      "x": 356,
      "y": 306,
      "size": 1,
      "price": "4683000000000000000000",
      "reserved": "",
      "salt": "0x7749c46820ccd3330f45b0a29412ac4c9131a3abbf865664a6a59910fcf72318",
      "assetIds": [
        "41506478881403507969696680653240014914910929820314476107906210059990541021187"
      ]
    },
    {
      "x": 356,
      "y": 307,
      "size": 1,
      "price": "4683000000000000000000",
      "reserved": "",
      "salt": "0xadfeffb85df454e0de8a9de0607ba4fee9d11756fa8debd8165ce3d6f5d6f759",
      "assetIds": [
        "41506478881403507969696680653240014914910929820314476107906210059990541021185"
      ]
    },
    {
      "x": 356,
      "y": 308,
      "size": 1,
      "price": "4683000000000000000000",
      "reserved": "",
      "salt": "0x051cfa2dbbe11dc8670f67ee396476814265fbda410b3e5018a57494fc069878",
      "assetIds": [
        "41506478881403507969696680653240014914910929820314476107906210059990532622336"
      ]
    },
    {
      "x": 356,
      "y": 309,
      "size": 1,
      "price": "4683000000000000000000",
      "reserved": "",
      "salt": "0x546186f714175eea8f989e9bdc1c01a36e714a9a96ab0fdc774c37da82deb26c",
      "assetIds": [
        "41506478881403507969696680653240014914910929820314476107906210059990541021187"
      ]
    },
    {
      "x": 356,
      "y": 310,
      "size": 1,
      "price": "4683000000000000000000",
      "reserved": "",
      "salt": "0x76e63f02577f79253208aaa70f404405547ccb2291901e7ca11bb3cdb3332e8d",
      "assetIds": [
        "41506478881403507969696680653240014914910929820314476107906210059990541021189"
      ]
    },
    {
      "x": 356,
      "y": 311,
      "size": 1,
      "price": "4683000000000000000000",
      "reserved": "",
      "salt": "0xa8ea81b411a42afbc7e72796f7118920e4dd0124a8be1cac0e2dd654ec2dda64",
      "assetIds": [
        "41506478881403507969696680653240014914910929820314476107906210059990541021189"
      ]
    },
    {
      "x": 357,
      "y": 252,
      "size": 1,
      "price": "4683000000000000000000",
      "reserved": "",
      "salt": "0x1681fc581a05b19395d6b85e8cb5613ee9a5a88a5871fed5fc7e87c2ce542855",
      "assetIds": [
        "41506478881403507969696680653240014914910929820314476107906210059990541021187"
      ]
    },
    {
      "x": 357,
      "y": 253,
      "size": 1,
      "price": "4683000000000000000000",
      "reserved": "",
      "salt": "0xd00019e1835339512c34a7a610ba22031d01d098c31de638f7915a08933242d7",
      "assetIds": [
        "41506478881403507969696680653240014914910929820314476107906210059990541021187"
      ]
    },
    {
      "x": 357,
      "y": 254,
      "size": 1,
      "price": "4683000000000000000000",
      "reserved": "",
      "salt": "0xd6471465388b3ba867cef627201d6e1e4910c3fc72b98040ecf6323a4d885e37",
      "assetIds": [
        "41506478881403507969696680653240014914910929820314476107906210059990541021187"
      ]
    },
    {
      "x": 357,
      "y": 255,
      "size": 1,
      "price": "4683000000000000000000",
      "reserved": "",
      "salt": "0xf50b3d92a9d79bb61dc070b3de35c55e4e3fc20189dda97b91a425962ba9e308",
      "assetIds": [
        "41506478881403507969696680653240014914910929820314476107906210059990541021186"
      ]
    },
    {
      "x": 357,
      "y": 256,
      "size": 1,
      "price": "4683000000000000000000",
      "reserved": "",
      "salt": "0x9d7e9a52956914c822cce007c2257d552b004c29873eb127e5642f120e75cfd3",
      "assetIds": [
        "41506478881403507969696680653240014914910929820314476107906210059990541021189"
      ]
    },
    {
      "x": 357,
      "y": 257,
      "size": 1,
      "price": "4683000000000000000000",
      "reserved": "",
      "salt": "0x555bf66317562b2e822d1feccef4e4278fe20d42c5a0b6f6040cab0edc8a4ac7",
      "assetIds": [
        "41506478881403507969696680653240014914910929820314476107906210059990541021189"
      ]
    },
    {
      "x": 357,
      "y": 300,
      "size": 1,
      "price": "4683000000000000000000",
      "reserved": "",
      "salt": "0xb3883938962068af4b5f438fe3584d1f37a5e864947b30228e6a9f8c580a8057",
      "assetIds": [
        "41506478881403507969696680653240014914910929820314476107906210059990541021187"
      ]
    },
    {
      "x": 357,
      "y": 301,
      "size": 1,
      "price": "4683000000000000000000",
      "reserved": "",
      "salt": "0x784a368d932d20ce6cf5021343ee576a586444bce87fec1631ce9f9c565ff9a5",
      "assetIds": [
        "41506478881403507969696680653240014914910929820314476107906210059990541021185"
      ]
    },
    {
      "x": 357,
      "y": 302,
      "size": 1,
      "price": "4683000000000000000000",
      "reserved": "",
      "salt": "0xbe50b354873ee951a5db01605fcc13ed9095ecfdfc8b1bab630bf2382c8df524",
      "assetIds": [
        "41506478881403507969696680653240014914910929820314476107906210059990541021187"
      ]
    },
    {
      "x": 357,
      "y": 306,
      "size": 1,
      "price": "4683000000000000000000",
      "reserved": "",
      "salt": "0x331783005d5537b3eb0a2121ca35b732def47df4ba016242a93df0696ab43b2b",
      "assetIds": [
        "41506478881403507969696680653240014914910929820314476107906210059990541021189"
      ]
    },
    {
      "x": 357,
      "y": 307,
      "size": 1,
      "price": "4683000000000000000000",
      "reserved": "",
      "salt": "0x62386976fdfe5ab26097412351e8873d0de614118e8d8b28d69cb99acee4a378",
      "assetIds": [
        "41506478881403507969696680653240014914910929820314476107906210059990541021184"
      ]
    },
    {
      "x": 357,
      "y": 308,
      "size": 1,
      "price": "4683000000000000000000",
      "reserved": "",
      "salt": "0x76fe0aa7ef43794985fb70d03db561a985499623255cef6a5399f431c5bcfd0e",
      "assetIds": [
        "41506478881403507969696680653240014914910929820314476107906210059990541021188"
      ]
    },
    {
      "x": 358,
      "y": 252,
      "size": 1,
      "price": "4683000000000000000000",
      "reserved": "",
      "salt": "0x0733bf5cf68f0195ff20323ea610074d785999eefdd8cbf88970918f5c8505e3",
      "assetIds": [
        "41506478881403507969696680653240014914910929820314476107906210059990541021189"
      ]
    },
    {
      "x": 358,
      "y": 253,
      "size": 1,
      "price": "4683000000000000000000",
      "reserved": "",
      "salt": "0x500d671b02dd2656099ff4424ac39db6830e27c35212ad9c2d5068de0f0e9339",
      "assetIds": [
        "41506478881403507969696680653240014914910929820314476107906210059990541021186"
      ]
    },
    {
      "x": 358,
      "y": 254,
      "size": 1,
      "price": "1011000000000000000000",
      "reserved": "0x7a9fe22691c811ea339d9b73150e6911a5343dca",
      "salt": "0xab6ad7c271d78a4074a1073911b86fe40ea52ee84841059b8df5a96cebf5238d",
      "assetIds": []
    },
    {
      "x": 358,
      "y": 255,
      "size": 1,
      "price": "4683000000000000000000",
      "reserved": "",
      "salt": "0xea05a392a6cb765e4446f66fed878e7c9d48a2a0e6bec9821930858019364ee9",
      "assetIds": [
        "41506478881403507969696680653240014914910929820314476107906210059990541021187"
      ]
    },
    {
      "x": 358,
      "y": 256,
      "size": 1,
      "price": "4683000000000000000000",
      "reserved": "",
      "salt": "0x65be8902a3dac1ae2acde7db3b00bd8893356715d010fa0ca56fd720ac53d925",
      "assetIds": [
        "41506478881403507969696680653240014914910929820314476107906210059990541021187"
      ]
    },
    {
      "x": 358,
      "y": 257,
      "size": 1,
      "price": "4683000000000000000000",
      "reserved": "",
      "salt": "0x08fbeffd493bf1e4fb17dc1174a292a909f1fa689bb0fefa543794f595f93d5b",
      "assetIds": [
        "41506478881403507969696680653240014914910929820314476107906210059990541021187"
      ]
    },
    {
      "x": 358,
      "y": 300,
      "size": 1,
      "price": "4683000000000000000000",
      "reserved": "",
      "salt": "0x4f6c5f43a4e08bfdf7209f5f3a9e1aebad12d07b44bd77cae2bc24c290f30bc3",
      "assetIds": [
        "41506478881403507969696680653240014914910929820314476107906210059990541021187"
      ]
    },
    {
      "x": 358,
      "y": 301,
      "size": 1,
      "price": "4683000000000000000000",
      "reserved": "",
      "salt": "0x02d96071bc066ee2465e0b775b4b28324e54000fdf2029cafd7be3cc376f2946",
      "assetIds": [
        "41506478881403507969696680653240014914910929820314476107906210059990541021186"
      ]
    },
    {
      "x": 358,
      "y": 302,
      "size": 1,
      "price": "4683000000000000000000",
      "reserved": "",
      "salt": "0x625e6d2f1c58f5b0ef901f0ad50b35bbcb1cd8034f67902c0fb6a077a5f0f2eb",
      "assetIds": [
        "41506478881403507969696680653240014914910929820314476107906210059990541021184"
      ]
    },
    {
      "x": 358,
      "y": 306,
      "size": 1,
      "price": "4683000000000000000000",
      "reserved": "",
      "salt": "0x1d871164b7ba64eddf8eb1a650b2182b60ff929719b6e58b3d196f29545053bf",
      "assetIds": [
        "41506478881403507969696680653240014914910929820314476107906210059990541021184"
      ]
    },
    {
      "x": 358,
      "y": 307,
      "size": 1,
      "price": "4683000000000000000000",
      "reserved": "",
      "salt": "0x05dbcb024bccefad8bf93fd90f14f8e8086c4e2f524ce01a40df3bf30b2a435f",
      "assetIds": [
        "41506478881403507969696680653240014914910929820314476107906210059990541021187"
      ]
    },
    {
      "x": 358,
      "y": 308,
      "size": 1,
      "price": "4683000000000000000000",
      "reserved": "",
      "salt": "0x8885a8be3f97a4a11c2f6050a9ff9858b2e94f924cbea23f33cf0af6447e3f46",
      "assetIds": [
        "41506478881403507969696680653240014914910929820314476107906210059990541021187"
      ]
    },
    {
      "x": 359,
      "y": 252,
      "size": 1,
      "price": "4683000000000000000000",
      "reserved": "",
      "salt": "0xf86df904fbe7cc40610c4f44670b5b6cc1ff76e257aa88f479f4748d1cf10296",
      "assetIds": [
        "41506478881403507969696680653240014914910929820314476107906210059990532622336"
      ]
    },
    {
      "x": 359,
      "y": 253,
      "size": 1,
      "price": "4683000000000000000000",
      "reserved": "",
      "salt": "0x977cf231981d6ad107dea2c3361b92bd36aa2fe50973fc1606d4938c80830b2a",
      "assetIds": [
        "41506478881403507969696680653240014914910929820314476107906210059990541021186"
      ]
    },
    {
      "x": 359,
      "y": 254,
      "size": 1,
      "price": "4683000000000000000000",
      "reserved": "",
      "salt": "0x9046b419d89c0b38424948ee50b2b830b260dcca7f90da270a0e3460357f9db6",
      "assetIds": [
        "41506478881403507969696680653240014914910929820314476107906210059990541021187"
      ]
    },
    {
      "x": 359,
      "y": 255,
      "size": 1,
      "price": "4683000000000000000000",
      "reserved": "",
      "salt": "0x71f040cd25d83c7672745914936e3b2e4836c595f10d71e70d8380d2186f3af5",
      "assetIds": [
        "41506478881403507969696680653240014914910929820314476107906210059990541021188"
      ]
    },
    {
      "x": 359,
      "y": 256,
      "size": 1,
      "price": "4683000000000000000000",
      "reserved": "",
      "salt": "0x652000540b103a0eb38e4b3b8898a6ae0e3526b0f3ac6a9fc4d9b213bca777ab",
      "assetIds": [
        "41506478881403507969696680653240014914910929820314476107906210059990541021185"
      ]
    },
    {
      "x": 359,
      "y": 257,
      "size": 1,
      "price": "4683000000000000000000",
      "reserved": "",
      "salt": "0x18e04acfa0f2710d2b7ce2009a98f2ac16c86fc1ea14d82ecbc34355a945f77d",
      "assetIds": [
        "41506478881403507969696680653240014914910929820314476107906210059990541021187"
      ]
    },
    {
      "x": 359,
      "y": 300,
      "size": 1,
      "price": "4683000000000000000000",
      "reserved": "",
      "salt": "0xc9be781c1eae97938c73bcfa35888aada29047b96c779e88220d8e153f4f5337",
      "assetIds": [
        "41506478881403507969696680653240014914910929820314476107906210059990541021189"
      ]
    },
    {
      "x": 359,
      "y": 301,
      "size": 1,
      "price": "4683000000000000000000",
      "reserved": "",
      "salt": "0x7242d1d29df628ece9bf5ebf8c2b3897945917da0b4649feec31d93eac6199ca",
      "assetIds": [
        "41506478881403507969696680653240014914910929820314476107906210059990541021184"
      ]
    },
    {
      "x": 359,
      "y": 302,
      "size": 1,
      "price": "4683000000000000000000",
      "reserved": "",
      "salt": "0xec90de427e908a140a6bef7d4ecf06816e98fec914353eb7c9e1d067a8a37508",
      "assetIds": [
        "41506478881403507969696680653240014914910929820314476107906210059990532622336"
      ]
    },
    {
      "x": 359,
      "y": 306,
      "size": 1,
      "price": "4683000000000000000000",
      "reserved": "",
      "salt": "0x0685ead3baff75a7da0fc886f8024eb3c17ac267b2870e03c514fbd96114e102",
      "assetIds": [
        "41506478881403507969696680653240014914910929820314476107906210059990541021189"
      ]
    },
    {
      "x": 359,
      "y": 307,
      "size": 1,
      "price": "4683000000000000000000",
      "reserved": "",
      "salt": "0x4d18820b432f3989e9d6d6b5150985bf41a80b396e9b8ef733708d16b55f8e5c",
      "assetIds": [
        "41506478881403507969696680653240014914910929820314476107906210059990541021187"
      ]
    },
    {
      "x": 359,
      "y": 308,
      "size": 1,
      "price": "4683000000000000000000",
      "reserved": "",
      "salt": "0x7074a5f6544eeefc9db5f65d37fa000bc3a6f40422c37fbb5b8094680aa57c48",
      "assetIds": [
        "41506478881403507969696680653240014914910929820314476107906210059990541021188"
      ]
    },
    {
      "x": 360,
      "y": 270,
      "size": 1,
      "price": "4683000000000000000000",
      "reserved": "",
      "salt": "0x712fcb4b9f9221dd4dbc388f882ae3b7f6d14d12753efd40806cb11a8b521e4c",
      "assetIds": [
        "41506478881403507969696680653240014914910929820314476107906210059990541021187"
      ]
    },
    {
      "x": 360,
      "y": 271,
      "size": 1,
      "price": "4683000000000000000000",
      "reserved": "",
      "salt": "0xa65ae3c406c6f9f2019134105ab8c75545a142ad92631547c65b4ad650d4bed4",
      "assetIds": [
        "41506478881403507969696680653240014914910929820314476107906210059990541021186"
      ]
    },
    {
      "x": 360,
      "y": 272,
      "size": 1,
      "price": "4683000000000000000000",
      "reserved": "",
      "salt": "0xa3a829a6037333ebea4951ec5d897976c983d5234115441f764e4d830910803e",
      "assetIds": [
        "41506478881403507969696680653240014914910929820314476107906210059990541021185"
      ]
    },
    {
      "x": 360,
      "y": 288,
      "size": 1,
      "price": "4683000000000000000000",
      "reserved": "",
      "salt": "0xe6438c5b0a787a47735c1c9c6b3a0b49f9cbbdc6da31e10b568891817f941113",
      "assetIds": [
        "41506478881403507969696680653240014914910929820314476107906210059990541021186"
      ]
    },
    {
      "x": 360,
      "y": 289,
      "size": 1,
      "price": "4683000000000000000000",
      "reserved": "",
      "salt": "0xe17076be092ce9ce40ff04163f21c9e9c7cc4d4ab33711b588896e3346902f28",
      "assetIds": [
        "41506478881403507969696680653240014914910929820314476107906210059990541021187"
      ]
    },
    {
      "x": 360,
      "y": 290,
      "size": 1,
      "price": "4683000000000000000000",
      "reserved": "",
      "salt": "0xc44f2a96eda82941d99304bed8ab91157a0ae5f2bdad31a0fa38c172c8f11cca",
      "assetIds": [
        "41506478881403507969696680653240014914910929820314476107906210059990541021185"
      ]
    },
    {
      "x": 360,
      "y": 291,
      "size": 1,
      "price": "4683000000000000000000",
      "reserved": "",
      "salt": "0xc7c1843d6b2f842ad5295e6d1219437acfe9c31624493e2eaeb5a4c40461bb4f",
      "assetIds": [
        "41506478881403507969696680653240014914910929820314476107906210059990541021188"
      ]
    },
    {
      "x": 360,
      "y": 292,
      "size": 1,
      "price": "4683000000000000000000",
      "reserved": "",
      "salt": "0x56b416dba198a8ee18bb5d3dba566090484ccd136ab3082c03633e1b9dcefbc4",
      "assetIds": [
        "41506478881403507969696680653240014914910929820314476107906210059990541021187"
      ]
    },
    {
      "x": 360,
      "y": 293,
      "size": 1,
      "price": "4683000000000000000000",
      "reserved": "",
      "salt": "0xbcb772906c26d2ab7dd3eda7e9bff64b917adb38737a51769b1e01f03dcd26e1",
      "assetIds": [
        "41506478881403507969696680653240014914910929820314476107906210059990541021186"
      ]
    },
    {
      "x": 360,
      "y": 297,
      "size": 1,
      "price": "4683000000000000000000",
      "reserved": "",
      "salt": "0x464c72f394b1ba63fff3076200f27bdbc95af5e8444085be7f698c3f7cde1f1b",
      "assetIds": [
        "41506478881403507969696680653240014914910929820314476107906210059990541021188"
      ]
    },
    {
      "x": 360,
      "y": 298,
      "size": 1,
      "price": "4683000000000000000000",
      "reserved": "",
      "salt": "0x7636f01cb493deb35ce0ce907e5fcfb798bdfff5116dea812c9f85be843b1ca1",
      "assetIds": [
        "41506478881403507969696680653240014914910929820314476107906210059990541021188"
      ]
    },
    {
      "x": 360,
      "y": 299,
      "size": 1,
      "price": "4683000000000000000000",
      "reserved": "",
      "salt": "0x6a90a869aacd39941671def5a57132668b1e1a34260e40436e44082dcc626d92",
      "assetIds": [
        "41506478881403507969696680653240014914910929820314476107906210059990532622336"
      ]
    },
    {
      "x": 360,
      "y": 300,
      "size": 1,
      "price": "4683000000000000000000",
      "reserved": "",
      "salt": "0xa983ef43bf5498dc69acb0c2c05ebe5eb88d0edeb753ec436e46a68c76347c8b",
      "assetIds": [
        "41506478881403507969696680653240014914910929820314476107906210059990541021187"
      ]
    },
    {
      "x": 360,
      "y": 301,
      "size": 1,
      "price": "4683000000000000000000",
      "reserved": "",
      "salt": "0xd2326de9fc5c06a18801961d899289dc1f21cd6090522e642ba2eace44748809",
      "assetIds": [
        "41506478881403507969696680653240014914910929820314476107906210059990541021188"
      ]
    },
    {
      "x": 360,
      "y": 302,
      "size": 1,
      "price": "4683000000000000000000",
      "reserved": "",
      "salt": "0xff327ed8bf20920f3255981bac12c251ae4c69b79f6fa876421e0c5f398426e4",
      "assetIds": [
        "41506478881403507969696680653240014914910929820314476107906210059990541021185"
      ]
    },
    {
      "x": 360,
      "y": 303,
      "size": 1,
      "price": "4683000000000000000000",
      "reserved": "",
      "salt": "0x54f10e1d6dc905e8473b4a6caa53ef2cf738a196474ce221fea423bf118366fc",
      "assetIds": [
        "41506478881403507969696680653240014914910929820314476107906210059990541021188"
      ]
    },
    {
      "x": 360,
      "y": 304,
      "size": 1,
      "price": "4683000000000000000000",
      "reserved": "",
      "salt": "0x519505ca1b2a166f8252b5caef4fc1862232884814f22dc98632e15819353d7c",
      "assetIds": [
        "41506478881403507969696680653240014914910929820314476107906210059990541021185"
      ]
    },
    {
      "x": 360,
      "y": 305,
      "size": 1,
      "price": "4683000000000000000000",
      "reserved": "",
      "salt": "0xf222476a1a0f5da3335276501c060ac64496a4b5bfb6e733954f57416f4ef62c",
      "assetIds": [
        "41506478881403507969696680653240014914910929820314476107906210059990541021189"
      ]
    },
    {
      "x": 360,
      "y": 306,
      "size": 1,
      "price": "4683000000000000000000",
      "reserved": "",
      "salt": "0xdda79e3d45b37077aa2c6aa41c7638f68590ee9eae32e2c80553b5b2e34a2607",
      "assetIds": [
        "41506478881403507969696680653240014914910929820314476107906210059990541021188"
      ]
    },
    {
      "x": 360,
      "y": 307,
      "size": 1,
      "price": "4683000000000000000000",
      "reserved": "",
      "salt": "0x6632b08c43f93904fe97cc7251611f78fae21bad86ad79807cf813df8c09c205",
      "assetIds": [
        "41506478881403507969696680653240014914910929820314476107906210059990541021187"
      ]
    },
    {
      "x": 360,
      "y": 308,
      "size": 1,
      "price": "4683000000000000000000",
      "reserved": "",
      "salt": "0x142c911d4bd56e474f303fb5f7d1fbbe95d0b798cd0fe9cd63d2d7e0a6f659c7",
      "assetIds": [
        "41506478881403507969696680653240014914910929820314476107906210059990532622336"
      ]
    },
    {
      "x": 361,
      "y": 270,
      "size": 1,
      "price": "4683000000000000000000",
      "reserved": "",
      "salt": "0x54b3832438ac49127fb167dda8898e2030948cb32af94448e016a43637fe7133",
      "assetIds": [
        "41506478881403507969696680653240014914910929820314476107906210059990541021187"
      ]
    },
    {
      "x": 361,
      "y": 271,
      "size": 1,
      "price": "4683000000000000000000",
      "reserved": "",
      "salt": "0xafd8440f3201f37607b939153f9d94e068bbeef263248b27e5c445786b007b6a",
      "assetIds": [
        "41506478881403507969696680653240014914910929820314476107906210059990541021185"
      ]
    },
    {
      "x": 361,
      "y": 272,
      "size": 1,
      "price": "4683000000000000000000",
      "reserved": "",
      "salt": "0xe95f84d3259e8fb1aa9c7ad61697160fc60dd3c16914ae8ba2d02dd51f56d928",
      "assetIds": [
        "41506478881403507969696680653240014914910929820314476107906210059990541021184"
      ]
    },
    {
      "x": 361,
      "y": 288,
      "size": 1,
      "price": "4683000000000000000000",
      "reserved": "",
      "salt": "0xc094a74946f8bdc62746d07053a17ee495a6004de1c4619eacae4177cac2c12b",
      "assetIds": [
        "41506478881403507969696680653240014914910929820314476107906210059990541021187"
      ]
    },
    {
      "x": 361,
      "y": 289,
      "size": 1,
      "price": "4683000000000000000000",
      "reserved": "",
      "salt": "0xb6fe10afb26883cb7c553100d8f45a5aeb0fd83d396df3fa65b079a65b14aa53",
      "assetIds": [
        "41506478881403507969696680653240014914910929820314476107906210059990541021188"
      ]
    },
    {
      "x": 361,
      "y": 290,
      "size": 1,
      "price": "4683000000000000000000",
      "reserved": "",
      "salt": "0x4072d3c6fd01bdbd5bb54eda57774a7beced4f754fb98804b2fdb33af181fdf1",
      "assetIds": [
        "41506478881403507969696680653240014914910929820314476107906210059990541021187"
      ]
    },
    {
      "x": 361,
      "y": 291,
      "size": 1,
      "price": "4683000000000000000000",
      "reserved": "",
      "salt": "0x0da8f944b4fbf8153d0853ff806fb3956c482a86c5bb94e0df91e07fff2ca797",
      "assetIds": [
        "41506478881403507969696680653240014914910929820314476107906210059990541021189"
      ]
    },
    {
      "x": 361,
      "y": 292,
      "size": 1,
      "price": "4683000000000000000000",
      "reserved": "",
      "salt": "0x4ed72c43520f2f745ac434d4a4b377774f7735f0d2cd5a1c34fa0fe8be6466a2",
      "assetIds": [
        "41506478881403507969696680653240014914910929820314476107906210059990541021184"
      ]
    },
    {
      "x": 361,
      "y": 293,
      "size": 1,
      "price": "4683000000000000000000",
      "reserved": "",
      "salt": "0x7dffe7e31dbd043360023ddb454452dbcc01a45a8e81522c4a513daf42a74b5a",
      "assetIds": [
        "41506478881403507969696680653240014914910929820314476107906210059990541021189"
      ]
    },
    {
      "x": 361,
      "y": 297,
      "size": 1,
      "price": "4683000000000000000000",
      "reserved": "",
      "salt": "0x94ecd9c2ce8925f67a3e23228640f0c74b365fa08a2c0213eae12b191b47939c",
      "assetIds": [
        "41506478881403507969696680653240014914910929820314476107906210059990541021185"
      ]
    },
    {
      "x": 361,
      "y": 298,
      "size": 1,
      "price": "4683000000000000000000",
      "reserved": "",
      "salt": "0xdab79d13486277ee3ea6288ef3d4cb1a3647dbabe47ef5f4999c8a133b85fd8a",
      "assetIds": [
        "41506478881403507969696680653240014914910929820314476107906210059990541021188"
      ]
    },
    {
      "x": 361,
      "y": 299,
      "size": 1,
      "price": "4683000000000000000000",
      "reserved": "",
      "salt": "0xb8340dbaa39cbecd1da2e6f63509ff9a82cf6e321fbc7329e9a666a49c94ca59",
      "assetIds": [
        "41506478881403507969696680653240014914910929820314476107906210059990541021187"
      ]
    },
    {
      "x": 361,
      "y": 300,
      "size": 1,
      "price": "4683000000000000000000",
      "reserved": "",
      "salt": "0x944f4fde57264bc127d5fcb679c21bf8abe12f29ad6755b42772e5ffa53a1183",
      "assetIds": [
        "41506478881403507969696680653240014914910929820314476107906210059990541021188"
      ]
    },
    {
      "x": 361,
      "y": 301,
      "size": 1,
      "price": "4683000000000000000000",
      "reserved": "",
      "salt": "0x193bd53af5f3c721f78a364ef75492a49944f764832e247d68747313051f3bc3",
      "assetIds": [
        "41506478881403507969696680653240014914910929820314476107906210059990532622336"
      ]
    },
    {
      "x": 361,
      "y": 302,
      "size": 1,
      "price": "4683000000000000000000",
      "reserved": "",
      "salt": "0x409800cad2d11d337b1d0e0a29e68361080378362762ab0791c340317dce7080",
      "assetIds": [
        "41506478881403507969696680653240014914910929820314476107906210059990541021187"
      ]
    },
    {
      "x": 361,
      "y": 303,
      "size": 1,
      "price": "4683000000000000000000",
      "reserved": "",
      "salt": "0x856985cfc4d06eb46a0d44769804698f07ef7a8ac82c6778822a872fbf973a19",
      "assetIds": [
        "41506478881403507969696680653240014914910929820314476107906210059990541021187"
      ]
    },
    {
      "x": 361,
      "y": 304,
      "size": 1,
      "price": "4683000000000000000000",
      "reserved": "",
      "salt": "0x09304dfe3641430d607d468e91a99422773b9efb8d538535f36f504c0f0ed300",
      "assetIds": [
        "41506478881403507969696680653240014914910929820314476107906210059990541021189"
      ]
    },
    {
      "x": 361,
      "y": 305,
      "size": 1,
      "price": "4683000000000000000000",
      "reserved": "",
      "salt": "0x9bbe142f43eb387a56ff3ef9ca4ce0df1659e7387ac00a055ee6182eacdde93f",
      "assetIds": [
        "41506478881403507969696680653240014914910929820314476107906210059990532622336"
      ]
    },
    {
      "x": 361,
      "y": 306,
      "size": 1,
      "price": "4683000000000000000000",
      "reserved": "",
      "salt": "0x3629c4557d291fbfcd88b9618bcfc6dce242904d7b90967efcb57d5e9affa6d4",
      "assetIds": [
        "41506478881403507969696680653240014914910929820314476107906210059990541021187"
      ]
    },
    {
      "x": 361,
      "y": 307,
      "size": 1,
      "price": "4683000000000000000000",
      "reserved": "",
      "salt": "0x25e1cb2fbaa75f559890cfc59515f0541b2f55c4311814e4946118e0574655ef",
      "assetIds": [
        "41506478881403507969696680653240014914910929820314476107906210059990532622336"
      ]
    },
    {
      "x": 361,
      "y": 308,
      "size": 1,
      "price": "4683000000000000000000",
      "reserved": "",
      "salt": "0x2023149cdbde32a3ce9bfc5d42ec35502c2ab8ec9a1077a5d6fec7f1cc607116",
      "assetIds": [
        "41506478881403507969696680653240014914910929820314476107906210059990541021188"
      ]
    },
    {
      "x": 362,
      "y": 270,
      "size": 1,
      "price": "4683000000000000000000",
      "reserved": "",
      "salt": "0x80f72dab0aca6f376fd4f6febd71bfcf33af649a6da5d2bded064216321787cc",
      "assetIds": [
        "41506478881403507969696680653240014914910929820314476107906210059990541021187"
      ]
    },
    {
      "x": 362,
      "y": 271,
      "size": 1,
      "price": "4683000000000000000000",
      "reserved": "",
      "salt": "0x9b2f8eb44047e1923837623471adfb98049de688cee7a30803c3b86306dc7fea",
      "assetIds": [
        "41506478881403507969696680653240014914910929820314476107906210059990541021187"
      ]
    },
    {
      "x": 362,
      "y": 272,
      "size": 1,
      "price": "4683000000000000000000",
      "reserved": "",
      "salt": "0x47f0bcd4f5bf8325a8135be445b19b243b72bf224d8cc35d8c74eb89c0d0bd38",
      "assetIds": [
        "41506478881403507969696680653240014914910929820314476107906210059990541021187"
      ]
    },
    {
      "x": 362,
      "y": 288,
      "size": 1,
      "price": "4683000000000000000000",
      "reserved": "",
      "salt": "0x508d9b7c77c190ad2dfb30874239540ba0129793e3df6a3e1f362dff751dc5be",
      "assetIds": [
        "41506478881403507969696680653240014914910929820314476107906210059990541021187"
      ]
    },
    {
      "x": 362,
      "y": 289,
      "size": 1,
      "price": "4683000000000000000000",
      "reserved": "",
      "salt": "0x774fe68bc355847f0bdd402d894c57989c8e9c1c14389045bc3158d1d78d225d",
      "assetIds": [
        "41506478881403507969696680653240014914910929820314476107906210059990541021187"
      ]
    },
    {
      "x": 362,
      "y": 290,
      "size": 1,
      "price": "4683000000000000000000",
      "reserved": "",
      "salt": "0xa957dcef4e0420a3b0c09426b2ad6401d771cdba579b3a6b93be16d908fed802",
      "assetIds": [
        "41506478881403507969696680653240014914910929820314476107906210059990541021188"
      ]
    },
    {
      "x": 362,
      "y": 291,
      "size": 1,
      "price": "4683000000000000000000",
      "reserved": "",
      "salt": "0x073a532596da6610bfbbe389a7609167f3ae1d11b074993779b16da32a74f7ed",
      "assetIds": [
        "41506478881403507969696680653240014914910929820314476107906210059990541021189"
      ]
    },
    {
      "x": 362,
      "y": 292,
      "size": 1,
      "price": "4683000000000000000000",
      "reserved": "",
      "salt": "0x30a7d6bf075f94e1d7b308600f53e6471d6c9d9ea49851114959907c979503c2",
      "assetIds": [
        "41506478881403507969696680653240014914910929820314476107906210059990541021189"
      ]
    },
    {
      "x": 362,
      "y": 293,
      "size": 1,
      "price": "4683000000000000000000",
      "reserved": "",
      "salt": "0x1b464297bb913152fc56824cc0cbfae357f75b5c133d6b60370b0ad0c8496688",
      "assetIds": [
        "41506478881403507969696680653240014914910929820314476107906210059990541021188"
      ]
    },
    {
      "x": 362,
      "y": 297,
      "size": 1,
      "price": "4683000000000000000000",
      "reserved": "",
      "salt": "0xe3c3f1a479c7b80441816cb7c3328f1f87b16cd90aefd298ee6ad636270ffc40",
      "assetIds": [
        "41506478881403507969696680653240014914910929820314476107906210059990541021188"
      ]
    },
    {
      "x": 362,
      "y": 298,
      "size": 1,
      "price": "4683000000000000000000",
      "reserved": "",
      "salt": "0x9b4fa46a4e5b48bbc34b3dd14e76fba5cda7d25357b88bc9c9a8441c83d966ea",
      "assetIds": [
        "41506478881403507969696680653240014914910929820314476107906210059990541021187"
      ]
    },
    {
      "x": 362,
      "y": 299,
      "size": 1,
      "price": "4683000000000000000000",
      "reserved": "",
      "salt": "0x7b4dacf82fa121eb32117e2f39e73aa830e0e7eb1abefb6c8df20ad3b6a3720a",
      "assetIds": [
        "41506478881403507969696680653240014914910929820314476107906210059990541021186"
      ]
    },
    {
      "x": 362,
      "y": 300,
      "size": 1,
      "price": "4683000000000000000000",
      "reserved": "",
      "salt": "0xd331d53dcb07cca30adee33627f221481cc2d2e24844dfb23b608d06da2932c6",
      "assetIds": [
        "41506478881403507969696680653240014914910929820314476107906210059990541021189"
      ]
    },
    {
      "x": 362,
      "y": 301,
      "size": 1,
      "price": "4683000000000000000000",
      "reserved": "",
      "salt": "0x8ffe12d1a71d36ecdc9470b0f6b5bff8080d24fb30ccf5391bce818bcf606792",
      "assetIds": [
        "41506478881403507969696680653240014914910929820314476107906210059990532622336"
      ]
    },
    {
      "x": 362,
      "y": 302,
      "size": 1,
      "price": "4683000000000000000000",
      "reserved": "",
      "salt": "0xe1edb11fd7d1be08d86cc0b9dd1ecbfccbbbbf8bb649cadb8b3afe32dfce28ef",
      "assetIds": [
        "41506478881403507969696680653240014914910929820314476107906210059990541021187"
      ]
    },
    {
      "x": 362,
      "y": 303,
      "size": 1,
      "price": "4683000000000000000000",
      "reserved": "",
      "salt": "0x6b35aea059275a0a212b02e281cc4afc09aa127f930c9198f429095999a8c941",
      "assetIds": [
        "41506478881403507969696680653240014914910929820314476107906210059990541021184"
      ]
    },
    {
      "x": 362,
      "y": 304,
      "size": 1,
      "price": "4683000000000000000000",
      "reserved": "",
      "salt": "0x01f1216d3a938424e68f3a31110b99a19ee681c2d127b108fd68fb5c4339b6b6",
      "assetIds": [
        "41506478881403507969696680653240014914910929820314476107906210059990541021185"
      ]
    },
    {
      "x": 362,
      "y": 305,
      "size": 1,
      "price": "4683000000000000000000",
      "reserved": "",
      "salt": "0x742ae1623caa4b2c24996aa228e5dab23d845f6695c16243f2c50b12138122e4",
      "assetIds": [
        "41506478881403507969696680653240014914910929820314476107906210059990541021187"
      ]
    },
    {
      "x": 362,
      "y": 306,
      "size": 1,
      "price": "4683000000000000000000",
      "reserved": "",
      "salt": "0xbca46b28e9f370f621da0deb27f0e8caf7067113e3a150d47a0be832d85d2d48",
      "assetIds": [
        "41506478881403507969696680653240014914910929820314476107906210059990541021188"
      ]
    },
    {
      "x": 362,
      "y": 307,
      "size": 1,
      "price": "4683000000000000000000",
      "reserved": "",
      "salt": "0x31d36f1b91a1cb58a956bd130e6265867ecdc0bf1632d129b62326fc9d969d95",
      "assetIds": [
        "41506478881403507969696680653240014914910929820314476107906210059990541021185"
      ]
    },
    {
      "x": 362,
      "y": 308,
      "size": 1,
      "price": "4683000000000000000000",
      "reserved": "",
      "salt": "0x60692e02815f03582874abb91beb4b87804ec6ce90f84ac011995d3a8776d496",
      "assetIds": [
        "41506478881403507969696680653240014914910929820314476107906210059990541021189"
      ]
    },
    {
      "x": 363,
      "y": 270,
      "size": 1,
      "price": "4683000000000000000000",
      "reserved": "",
      "salt": "0x8578a9ae7575db992b84f78b0afa22bbbf51b1c9527901105deb3b0600748424",
      "assetIds": [
        "41506478881403507969696680653240014914910929820314476107906210059990532622336"
      ]
    },
    {
      "x": 363,
      "y": 271,
      "size": 1,
      "price": "4683000000000000000000",
      "reserved": "",
      "salt": "0x6a139fd9c10e4bc2cae811b4f1ad6398175cb6e7f631976caaec36ec012d58a9",
      "assetIds": [
        "41506478881403507969696680653240014914910929820314476107906210059990532622336"
      ]
    },
    {
      "x": 363,
      "y": 272,
      "size": 1,
      "price": "4683000000000000000000",
      "reserved": "",
      "salt": "0xaf3af2212b3fc592ea1ee0ab652768d390499e6a89ede727cfdb2a01d9e8d777",
      "assetIds": [
        "41506478881403507969696680653240014914910929820314476107906210059990541021185"
      ]
    },
    {
      "x": 363,
      "y": 273,
      "size": 1,
      "price": "4683000000000000000000",
      "reserved": "",
      "salt": "0x636f248ad6d05852ec992543470300d4e238bce667b65c16b797d10d54cfe59b",
      "assetIds": [
        "41506478881403507969696680653240014914910929820314476107906210059990541021187"
      ]
    },
    {
      "x": 363,
      "y": 274,
      "size": 1,
      "price": "4683000000000000000000",
      "reserved": "",
      "salt": "0x96519075cb1b5ba7dc74aec3cb223e662371fbd9753dbed06d20f4c23d1cd1dc",
      "assetIds": [
        "41506478881403507969696680653240014914910929820314476107906210059990541021187"
      ]
    },
    {
      "x": 363,
      "y": 275,
      "size": 1,
      "price": "4683000000000000000000",
      "reserved": "",
      "salt": "0x0cd2bf4de5aee5a334db8fb340c5deb195cd30e857b5d7d82ea2771b980a45e4",
      "assetIds": [
        "41506478881403507969696680653240014914910929820314476107906210059990541021187"
      ]
    },
    {
      "x": 363,
      "y": 288,
      "size": 1,
      "price": "4683000000000000000000",
      "reserved": "",
      "salt": "0xb82cf999f4fae9a3a8ac8eb6ba11e294c437d0c368e7d44b48d044a8f9827603",
      "assetIds": [
        "41506478881403507969696680653240014914910929820314476107906210059990541021185"
      ]
    },
    {
      "x": 363,
      "y": 289,
      "size": 1,
      "price": "1011000000000000000000",
      "reserved": "0x7a9fe22691c811ea339d9b73150e6911a5343dca",
      "salt": "0x17ce573cc5bf24ecfddaa19ce9612bad98354537ddf846e07eae1b9497bea630",
      "assetIds": []
    },
    {
      "x": 363,
      "y": 290,
      "size": 1,
      "price": "4683000000000000000000",
      "reserved": "",
      "salt": "0x953fee687d02522ec70a12862e9933141b42dd86bb8d039ee1fcc558b5766da0",
      "assetIds": [
        "41506478881403507969696680653240014914910929820314476107906210059990541021189"
      ]
    },
    {
      "x": 363,
      "y": 291,
      "size": 1,
      "price": "4683000000000000000000",
      "reserved": "",
      "salt": "0x6136b520c08dcc75a8492cf5596a7dec123e9f1da83408740774f27142cef09c",
      "assetIds": [
        "41506478881403507969696680653240014914910929820314476107906210059990541021188"
      ]
    },
    {
      "x": 363,
      "y": 292,
      "size": 1,
      "price": "4683000000000000000000",
      "reserved": "",
      "salt": "0x51e39070c1449aa4c6070c743512851d19fc84ddf2ba55ef36f6bc3e7c4e989d",
      "assetIds": [
        "41506478881403507969696680653240014914910929820314476107906210059990541021184"
      ]
    },
    {
      "x": 363,
      "y": 293,
      "size": 1,
      "price": "4683000000000000000000",
      "reserved": "",
      "salt": "0xd3cebb1c93c3abe0476e0deabc83576dd60da430d508b0fcc31e5c7a1b4ecaaf",
      "assetIds": [
        "41506478881403507969696680653240014914910929820314476107906210059990532622336"
      ]
    },
    {
      "x": 363,
      "y": 294,
      "size": 1,
      "price": "4683000000000000000000",
      "reserved": "",
      "salt": "0xd3cd82d94a3380e60a29e17a8b7673195c370f53d25faea1a2ffda0130a3f304",
      "assetIds": [
        "41506478881403507969696680653240014914910929820314476107906210059990541021189"
      ]
    },
    {
      "x": 363,
      "y": 295,
      "size": 1,
      "price": "4683000000000000000000",
      "reserved": "",
      "salt": "0x75e83c885201cdb985f97cec614301e2455384e4b7db969b8afded53d1dae8fd",
      "assetIds": [
        "41506478881403507969696680653240014914910929820314476107906210059990541021189"
      ]
    },
    {
      "x": 363,
      "y": 296,
      "size": 1,
      "price": "4683000000000000000000",
      "reserved": "",
      "salt": "0xc544d748841448779f78427d22714683c67d69982f470fca02125615f85bafee",
      "assetIds": [
        "41506478881403507969696680653240014914910929820314476107906210059990541021188"
      ]
    },
    {
      "x": 363,
      "y": 297,
      "size": 1,
      "price": "4683000000000000000000",
      "reserved": "",
      "salt": "0xe7a23cb71ae16ec95a8c9ade5ff9db44cd2f71d5d573de639d7a2129e39171af",
      "assetIds": [
        "41506478881403507969696680653240014914910929820314476107906210059990532622336"
      ]
    },
    {
      "x": 363,
      "y": 298,
      "size": 1,
      "price": "4683000000000000000000",
      "reserved": "",
      "salt": "0xd7d22f17448269a69925ed674fd507a9962d790993b1750f3f4248def31b8339",
      "assetIds": [
        "41506478881403507969696680653240014914910929820314476107906210059990541021187"
      ]
    },
    {
      "x": 363,
      "y": 299,
      "size": 1,
      "price": "1011000000000000000000",
      "reserved": "0x7a9fe22691c811ea339d9b73150e6911a5343dca",
      "salt": "0xd2b572a27ad0e22b7672ede6bd2dda6516388fe6ab7ee4d62c943ef5facffd3c",
      "assetIds": []
    },
    {
      "x": 363,
      "y": 300,
      "size": 1,
      "price": "4683000000000000000000",
      "reserved": "",
      "salt": "0x3e213102f9432a6d37fe00cdad58fcc8a7d44a5da144e369681c78493825ce42",
      "assetIds": [
        "41506478881403507969696680653240014914910929820314476107906210059990541021186"
      ]
    },
    {
      "x": 363,
      "y": 301,
      "size": 1,
      "price": "4683000000000000000000",
      "reserved": "",
      "salt": "0xf79194ff47ea30659aefa11740e196f6caded1f340e6d607cbc845244d285005",
      "assetIds": [
        "41506478881403507969696680653240014914910929820314476107906210059990541021187"
      ]
    },
    {
      "x": 363,
      "y": 302,
      "size": 1,
      "price": "4683000000000000000000",
      "reserved": "",
      "salt": "0x52d903f0d5009eedaabae7e72b5115584f55e66b07689eb3eaa9740775084fea",
      "assetIds": [
        "41506478881403507969696680653240014914910929820314476107906210059990541021188"
      ]
    },
    {
      "x": 363,
      "y": 303,
      "size": 1,
      "price": "4683000000000000000000",
      "reserved": "",
      "salt": "0xbbb58d79e46bb126b0136db4a7b1d2b533a5735731b5b300e9b5c60234d34122",
      "assetIds": [
        "41506478881403507969696680653240014914910929820314476107906210059990532622336"
      ]
    },
    {
      "x": 363,
      "y": 304,
      "size": 1,
      "price": "1011000000000000000000",
      "reserved": "0x7a9fe22691c811ea339d9b73150e6911a5343dca",
      "salt": "0xc6605d0c48e979553966aa99dac5c8d5eb8ba6325a455d6868a5677dfd2256fd",
      "assetIds": []
    },
    {
      "x": 363,
      "y": 305,
      "size": 1,
      "price": "4683000000000000000000",
      "reserved": "",
      "salt": "0x139db392a515b50c99825dcf57a427cb234fcf12e2f7c25e23c67e40c327cda8",
      "assetIds": [
        "41506478881403507969696680653240014914910929820314476107906210059990541021186"
      ]
    },
    {
      "x": 363,
      "y": 306,
      "size": 1,
      "price": "4683000000000000000000",
      "reserved": "",
      "salt": "0x7a8edaddd9f97721eec84fa00f28eff3779ac26894a805cc068d7fe22a7f6d01",
      "assetIds": [
        "41506478881403507969696680653240014914910929820314476107906210059990541021186"
      ]
    },
    {
      "x": 363,
      "y": 307,
      "size": 1,
      "price": "4683000000000000000000",
      "reserved": "",
      "salt": "0x5a65091d458abeefc69c34ca2c0fdbe0403be5a817a0a622576356c4b9b90f08",
      "assetIds": [
        "41506478881403507969696680653240014914910929820314476107906210059990541021186"
      ]
    },
    {
      "x": 363,
      "y": 308,
      "size": 1,
      "price": "4683000000000000000000",
      "reserved": "",
      "salt": "0xd7f280a3dc94fe92942f618773c9d625918589ae79d7e91da5248f002e1980f3",
      "assetIds": [
        "41506478881403507969696680653240014914910929820314476107906210059990541021185"
      ]
    },
    {
      "x": 364,
      "y": 270,
      "size": 1,
      "price": "4683000000000000000000",
      "reserved": "",
      "salt": "0xc658b1b47a6d53eb12cc813bfeae0634b84fca077bb6557f1718014cf5a1817e",
      "assetIds": [
        "41506478881403507969696680653240014914910929820314476107906210059990541021184"
      ]
    },
    {
      "x": 364,
      "y": 271,
      "size": 1,
      "price": "4683000000000000000000",
      "reserved": "",
      "salt": "0xf0b7ab3298d683d9abd04cfe4a44739d126c8e7012083fa2edb67f5cf893df3a",
      "assetIds": [
        "41506478881403507969696680653240014914910929820314476107906210059990541021189"
      ]
    },
    {
      "x": 364,
      "y": 272,
      "size": 1,
      "price": "4683000000000000000000",
      "reserved": "",
      "salt": "0x32311d23bb8172269a4507f792a4302d7a47e1bf6f89fcd5a02d11bc285405d3",
      "assetIds": [
        "41506478881403507969696680653240014914910929820314476107906210059990541021187"
      ]
    },
    {
      "x": 364,
      "y": 273,
      "size": 1,
      "price": "4683000000000000000000",
      "reserved": "",
      "salt": "0x2d0df1491a5508613af746652645b14b46baab28d8d51ade0a7210acc2ebb92e",
      "assetIds": [
        "41506478881403507969696680653240014914910929820314476107906210059990541021187"
      ]
    },
    {
      "x": 364,
      "y": 274,
      "size": 1,
      "price": "4683000000000000000000",
      "reserved": "",
      "salt": "0x3ee536e3b5e71f9f1b37e33cc99946cb5bef98d0985a1a5521e927fb5907339d",
      "assetIds": [
        "41506478881403507969696680653240014914910929820314476107906210059990541021189"
      ]
    },
    {
      "x": 364,
      "y": 275,
      "size": 1,
      "price": "4683000000000000000000",
      "reserved": "",
      "salt": "0xb4c76836182919873d168a77100eb41a6a2f81041c1969e3438d5cb760a9009d",
      "assetIds": [
        "41506478881403507969696680653240014914910929820314476107906210059990541021185"
      ]
    },
    {
      "x": 364,
      "y": 288,
      "size": 1,
      "price": "4683000000000000000000",
      "reserved": "",
      "salt": "0xca256417e6043ff1d6d76021802d23823a07ce8128fd61e26c6d0b5dd9515420",
      "assetIds": [
        "41506478881403507969696680653240014914910929820314476107906210059990541021185"
      ]
    },
    {
      "x": 364,
      "y": 289,
      "size": 1,
      "price": "4683000000000000000000",
      "reserved": "",
      "salt": "0x3962cd22fc76a0082699a9af9c0dd14801f4893a9ebef5f6f33e4aeb0d21abac",
      "assetIds": [
        "41506478881403507969696680653240014914910929820314476107906210059990541021187"
      ]
    },
    {
      "x": 364,
      "y": 290,
      "size": 1,
      "price": "4683000000000000000000",
      "reserved": "",
      "salt": "0xdcd825c556110f0c07529b598725eb3b6fd6a1890b0af9e41323d1db010ebf59",
      "assetIds": [
        "41506478881403507969696680653240014914910929820314476107906210059990541021187"
      ]
    },
    {
      "x": 364,
      "y": 291,
      "size": 1,
      "price": "4683000000000000000000",
      "reserved": "",
      "salt": "0xa4a037e2dc4a2a225c5c696cd7cdcde80df6ee8e8b9cc8849d1fc1450ddf43bc",
      "assetIds": [
        "41506478881403507969696680653240014914910929820314476107906210059990541021187"
      ]
    },
    {
      "x": 364,
      "y": 292,
      "size": 1,
      "price": "4683000000000000000000",
      "reserved": "",
      "salt": "0x264d30f9738bba7d639f383c0471749526811326e22a448de0c2d2e6d0633019",
      "assetIds": [
        "41506478881403507969696680653240014914910929820314476107906210059990541021184"
      ]
    },
    {
      "x": 364,
      "y": 293,
      "size": 1,
      "price": "4683000000000000000000",
      "reserved": "",
      "salt": "0x0f7386af647f7bb4ea7223f0c080e36070417de1c21fbfcbaf58a840c292868b",
      "assetIds": [
        "41506478881403507969696680653240014914910929820314476107906210059990541021186"
      ]
    },
    {
      "x": 364,
      "y": 294,
      "size": 1,
      "price": "4683000000000000000000",
      "reserved": "",
      "salt": "0x9d56e3c764bd80bd29b7a41fbb5a76b80b13a9f5d4d8c82f48e4f9639147866a",
      "assetIds": [
        "41506478881403507969696680653240014914910929820314476107906210059990541021186"
      ]
    },
    {
      "x": 364,
      "y": 295,
      "size": 1,
      "price": "4683000000000000000000",
      "reserved": "",
      "salt": "0xad6438fb4aa9b16a55a2590d89dfc4007df125caf663ee44801e0a3e60553251",
      "assetIds": [
        "41506478881403507969696680653240014914910929820314476107906210059990541021186"
      ]
    },
    {
      "x": 364,
      "y": 296,
      "size": 1,
      "price": "4683000000000000000000",
      "reserved": "",
      "salt": "0x4c4b79900f446d40617d75b72a59d99e5dbc53642b4372bf9233663bdb48a284",
      "assetIds": [
        "41506478881403507969696680653240014914910929820314476107906210059990541021188"
      ]
    },
    {
      "x": 364,
      "y": 297,
      "size": 1,
      "price": "4683000000000000000000",
      "reserved": "",
      "salt": "0x133d902b125343e005af6f8b40444531a69128a62053355571504c072a2bdb58",
      "assetIds": [
        "41506478881403507969696680653240014914910929820314476107906210059990541021189"
      ]
    },
    {
      "x": 364,
      "y": 298,
      "size": 1,
      "price": "4683000000000000000000",
      "reserved": "",
      "salt": "0xbeb29bbe64930f0be6ed430fb08db383ebe5f48f261ebc4d465cd8350b1ef3ba",
      "assetIds": [
        "41506478881403507969696680653240014914910929820314476107906210059990541021188"
      ]
    },
    {
      "x": 364,
      "y": 299,
      "size": 1,
      "price": "4683000000000000000000",
      "reserved": "",
      "salt": "0x91050e4fde46db86e11817f125c4c2b109875dbda5f9403d0467d341409b80c7",
      "assetIds": [
        "41506478881403507969696680653240014914910929820314476107906210059990541021187"
      ]
    },
    {
      "x": 364,
      "y": 300,
      "size": 1,
      "price": "4683000000000000000000",
      "reserved": "",
      "salt": "0x95b2a6c91c86406c69449314c47abdf02eaf75cb556804b433c636e27eb864fb",
      "assetIds": [
        "41506478881403507969696680653240014914910929820314476107906210059990541021185"
      ]
    },
    {
      "x": 364,
      "y": 301,
      "size": 1,
      "price": "4683000000000000000000",
      "reserved": "",
      "salt": "0xadbd0d31387f32c10e01221a6258784b6cc76075d6510c8dd3aba9e0e728ddfb",
      "assetIds": [
        "41506478881403507969696680653240014914910929820314476107906210059990541021187"
      ]
    },
    {
      "x": 364,
      "y": 302,
      "size": 1,
      "price": "4683000000000000000000",
      "reserved": "",
      "salt": "0x086608c7c318dbbb09b0daacf3b86a091aabdb06273e2ded2e917ba646cf8267",
      "assetIds": [
        "41506478881403507969696680653240014914910929820314476107906210059990532622336"
      ]
    },
    {
      "x": 364,
      "y": 303,
      "size": 1,
      "price": "4683000000000000000000",
      "reserved": "",
      "salt": "0x3c2c6adaf6c479143835e3bc6c854f19c04c42aaf92c594613fc49010a0c4a4f",
      "assetIds": [
        "41506478881403507969696680653240014914910929820314476107906210059990541021189"
      ]
    },
    {
      "x": 364,
      "y": 304,
      "size": 1,
      "price": "4683000000000000000000",
      "reserved": "",
      "salt": "0x6930d3f296f58c80431c6b97aef62985f5e686081c79e594f8a82d11f320c34b",
      "assetIds": [
        "41506478881403507969696680653240014914910929820314476107906210059990541021188"
      ]
    },
    {
      "x": 364,
      "y": 305,
      "size": 1,
      "price": "4683000000000000000000",
      "reserved": "",
      "salt": "0xc4d2bcc55a7c8d288aab89b73b1aa5fc35032a00a6a71ee3611dd5bfaa6d89ab",
      "assetIds": [
        "41506478881403507969696680653240014914910929820314476107906210059990541021187"
      ]
    },
    {
      "x": 364,
      "y": 306,
      "size": 1,
      "price": "4683000000000000000000",
      "reserved": "",
      "salt": "0x2787888317bfe73a2b2f0734ef9198e8827b33e7ff424ee9a373b30bedcfc46a",
      "assetIds": [
        "41506478881403507969696680653240014914910929820314476107906210059990541021187"
      ]
    },
    {
      "x": 364,
      "y": 307,
      "size": 1,
      "price": "1011000000000000000000",
      "reserved": "0x7a9fe22691c811ea339d9b73150e6911a5343dca",
      "salt": "0x43fd0edb7638eee4bf94af55b920a04960523dcd8e328f4a92e7fdfcd08d6093",
      "assetIds": []
    },
    {
      "x": 364,
      "y": 308,
      "size": 1,
      "price": "4683000000000000000000",
      "reserved": "",
      "salt": "0xafe844ca08a2cbaaefe481b7588f883a46f5917ccb212ebfb2c728fb8e3d2fe8",
      "assetIds": [
        "41506478881403507969696680653240014914910929820314476107906210059990541021188"
      ]
    },
    {
      "x": 365,
      "y": 270,
      "size": 1,
      "price": "4683000000000000000000",
      "reserved": "",
      "salt": "0x439c8ca448f64aaf03cfd165915106ed0e66d5f661740e33a14ff93a889c547c",
      "assetIds": [
        "41506478881403507969696680653240014914910929820314476107906210059990541021189"
      ]
    },
    {
      "x": 365,
      "y": 271,
      "size": 1,
      "price": "4683000000000000000000",
      "reserved": "",
      "salt": "0x0fb23af06ec0e8e00b6fad3f2a2c027a171711e2216fcd6932781693841ec292",
      "assetIds": [
        "41506478881403507969696680653240014914910929820314476107906210059990541021188"
      ]
    },
    {
      "x": 365,
      "y": 272,
      "size": 1,
      "price": "4683000000000000000000",
      "reserved": "",
      "salt": "0xc10b8ea13eb3c6e0f0dead955f9493fc9cb6ce138fa383da4ce7f928555f7a2d",
      "assetIds": [
        "41506478881403507969696680653240014914910929820314476107906210059990541021188"
      ]
    },
    {
      "x": 365,
      "y": 273,
      "size": 1,
      "price": "4683000000000000000000",
      "reserved": "",
      "salt": "0x9e0240c41bca88eedf4b9174777477a597dc2c689656a02880b52749b79f0a14",
      "assetIds": [
        "41506478881403507969696680653240014914910929820314476107906210059990541021189"
      ]
    },
    {
      "x": 365,
      "y": 274,
      "size": 1,
      "price": "4683000000000000000000",
      "reserved": "",
      "salt": "0x4c80d4ff72d9bfad72328107aeff1610cc11ced97e3223a38e9da2d56dd8280f",
      "assetIds": [
        "41506478881403507969696680653240014914910929820314476107906210059990541021187"
      ]
    },
    {
      "x": 365,
      "y": 275,
      "size": 1,
      "price": "4683000000000000000000",
      "reserved": "",
      "salt": "0xde2963ab86bcf6e825cf6f014fc938cc9b670bfdd4522fe51d14cd0ddeb92e59",
      "assetIds": [
        "41506478881403507969696680653240014914910929820314476107906210059990541021189"
      ]
    },
    {
      "x": 365,
      "y": 288,
      "size": 1,
      "price": "4683000000000000000000",
      "reserved": "",
      "salt": "0x09939020c29bda6b4c0a91efb0747ae10958cce0afabf519050a8da14d1018ee",
      "assetIds": [
        "41506478881403507969696680653240014914910929820314476107906210059990541021188"
      ]
    },
    {
      "x": 365,
      "y": 289,
      "size": 1,
      "price": "4683000000000000000000",
      "reserved": "",
      "salt": "0xb326defc294a334e95984e8b8e8182589a24ef162c89af1eefc544690b23622e",
      "assetIds": [
        "41506478881403507969696680653240014914910929820314476107906210059990541021189"
      ]
    },
    {
      "x": 365,
      "y": 290,
      "size": 1,
      "price": "4683000000000000000000",
      "reserved": "",
      "salt": "0x58d6fbfbcf2dda636568e1213eca83e47799eb82227824cb722c85b80bce5d8c",
      "assetIds": [
        "41506478881403507969696680653240014914910929820314476107906210059990541021189"
      ]
    },
    {
      "x": 365,
      "y": 291,
      "size": 1,
      "price": "4683000000000000000000",
      "reserved": "",
      "salt": "0xf15274ed9ed5f3bc70b1d5974292156792881963cc56ba31b13479620bbc68bf",
      "assetIds": [
        "41506478881403507969696680653240014914910929820314476107906210059990541021187"
      ]
    },
    {
      "x": 365,
      "y": 292,
      "size": 1,
      "price": "4683000000000000000000",
      "reserved": "",
      "salt": "0x2cc71371317fc93f466f16ed6658248925db9a1a094523c880f0838abc46c7ec",
      "assetIds": [
        "41506478881403507969696680653240014914910929820314476107906210059990541021188"
      ]
    },
    {
      "x": 365,
      "y": 293,
      "size": 1,
      "price": "4683000000000000000000",
      "reserved": "",
      "salt": "0x31b1b3d168301647559276bcc34715b4b84feabc82015c9a957dd0740b22653f",
      "assetIds": [
        "41506478881403507969696680653240014914910929820314476107906210059990541021188"
      ]
    },
    {
      "x": 365,
      "y": 294,
      "size": 1,
      "price": "4683000000000000000000",
      "reserved": "",
      "salt": "0x0420dab75d586adabe2c2f064eb2136e690442f49a44a7bb1384424f15b3fc2c",
      "assetIds": [
        "41506478881403507969696680653240014914910929820314476107906210059990541021184"
      ]
    },
    {
      "x": 365,
      "y": 295,
      "size": 1,
      "price": "4683000000000000000000",
      "reserved": "",
      "salt": "0x0ad8c37dc35eaa1c85c0c1ac64fa34beb35d4e9ef3fcff792144a5556c79d864",
      "assetIds": [
        "41506478881403507969696680653240014914910929820314476107906210059990541021189"
      ]
    },
    {
      "x": 365,
      "y": 296,
      "size": 1,
      "price": "4683000000000000000000",
      "reserved": "",
      "salt": "0x0709eaf69250456c7e58c69cbd93913deeafbf44ea0d80d5fccebedb4c3333d2",
      "assetIds": [
        "41506478881403507969696680653240014914910929820314476107906210059990532622336"
      ]
    },
    {
      "x": 365,
      "y": 297,
      "size": 1,
      "price": "4683000000000000000000",
      "reserved": "",
      "salt": "0x6163dffede0c3f1af2efc27d34a7364ad4539406870671bacd3f3579aeb768f8",
      "assetIds": [
        "41506478881403507969696680653240014914910929820314476107906210059990541021187"
      ]
    },
    {
      "x": 365,
      "y": 298,
      "size": 1,
      "price": "4683000000000000000000",
      "reserved": "",
      "salt": "0x886a032d10253d134e69f6cc380be1649d1881cf829d1a2980e3da127e6bba68",
      "assetIds": [
        "41506478881403507969696680653240014914910929820314476107906210059990541021184"
      ]
    },
    {
      "x": 365,
      "y": 299,
      "size": 1,
      "price": "4683000000000000000000",
      "reserved": "",
      "salt": "0x905a7fd9099ca834a93a150e622997b8caef85045a76f490425bd6aa42509f2b",
      "assetIds": [
        "41506478881403507969696680653240014914910929820314476107906210059990541021186"
      ]
    },
    {
      "x": 365,
      "y": 300,
      "size": 1,
      "price": "4683000000000000000000",
      "reserved": "",
      "salt": "0x746c65b9a5ae21eef490dcd79e4726445319a5e227263513a477c0e30d4266cc",
      "assetIds": [
        "41506478881403507969696680653240014914910929820314476107906210059990541021187"
      ]
    },
    {
      "x": 365,
      "y": 301,
      "size": 1,
      "price": "4683000000000000000000",
      "reserved": "",
      "salt": "0xc19554cb6d81599bcfdcd7efef11781745b1da0a0a14e8954aea19d87b029844",
      "assetIds": [
        "41506478881403507969696680653240014914910929820314476107906210059990541021188"
      ]
    },
    {
      "x": 365,
      "y": 302,
      "size": 1,
      "price": "4683000000000000000000",
      "reserved": "",
      "salt": "0x546e115ccc501680e50c983752f4ca7320b01a52981524dcda36a4dc2b581f54",
      "assetIds": [
        "41506478881403507969696680653240014914910929820314476107906210059990541021188"
      ]
    },
    {
      "x": 365,
      "y": 303,
      "size": 1,
      "price": "4683000000000000000000",
      "reserved": "",
      "salt": "0x6829a3a59236e4c338b5530d6be7fd0ac4da0455dab9fc0d8e56fc8338419d56",
      "assetIds": [
        "41506478881403507969696680653240014914910929820314476107906210059990541021187"
      ]
    },
    {
      "x": 365,
      "y": 304,
      "size": 1,
      "price": "4683000000000000000000",
      "reserved": "",
      "salt": "0x567c97b10a81c7a6765a500ddf7268e35c1f23f38faecac2b984ade3e7d92029",
      "assetIds": [
        "41506478881403507969696680653240014914910929820314476107906210059990541021189"
      ]
    },
    {
      "x": 365,
      "y": 305,
      "size": 1,
      "price": "4683000000000000000000",
      "reserved": "",
      "salt": "0x377fdc2b386d5f4846272ef4795d9f53f1fed2ae928d7ad07f833418a744693c",
      "assetIds": [
        "41506478881403507969696680653240014914910929820314476107906210059990541021187"
      ]
    },
    {
      "x": 365,
      "y": 306,
      "size": 1,
      "price": "4683000000000000000000",
      "reserved": "",
      "salt": "0x7e91f75e30d1bf423b2f0abaca029c93648abeb10a4735bc0be5e24317222f7e",
      "assetIds": [
        "41506478881403507969696680653240014914910929820314476107906210059990541021189"
      ]
    },
    {
      "x": 365,
      "y": 307,
      "size": 1,
      "price": "4683000000000000000000",
      "reserved": "",
      "salt": "0x86964562fc52872f44f159eb1596884ed9e31732360cc0fe0220a1f44233696e",
      "assetIds": [
        "41506478881403507969696680653240014914910929820314476107906210059990541021187"
      ]
    },
    {
      "x": 365,
      "y": 308,
      "size": 1,
      "price": "4683000000000000000000",
      "reserved": "",
      "salt": "0x02fadbfefc436a742713d9207ef58fd6d64b6c8b6ad5c00b757e10f39a21721e",
      "assetIds": [
        "41506478881403507969696680653240014914910929820314476107906210059990541021187"
      ]
    },
    {
      "x": 366,
      "y": 231,
      "size": 1,
      "price": "4683000000000000000000",
      "reserved": "",
      "salt": "0x5f97ab788cbd532c63a52c16705312fb3ce9bc37ba5fbf4ece60dabe703e981b",
      "assetIds": [
        "41506478881403507969696680653240014914910929820314476107906210059990541021189"
      ]
    },
    {
      "x": 366,
      "y": 232,
      "size": 1,
      "price": "4683000000000000000000",
      "reserved": "",
      "salt": "0xdeebbf81953209073c93baf63742f0694d7e77f067572536cf614581850efbf7",
      "assetIds": [
        "41506478881403507969696680653240014914910929820314476107906210059990541021188"
      ]
    },
    {
      "x": 366,
      "y": 233,
      "size": 1,
      "price": "4683000000000000000000",
      "reserved": "",
      "salt": "0x9e8a5b5de09c109419dcd0a0955c7ef18d54775a6bd77899a1bb03f446022bfe",
      "assetIds": [
        "41506478881403507969696680653240014914910929820314476107906210059990541021189"
      ]
    },
    {
      "x": 366,
      "y": 234,
      "size": 1,
      "price": "4683000000000000000000",
      "reserved": "",
      "salt": "0x8a04c45b495cb6b2607a8e1187c299e0c1d73f0aab65e9006fa415e15e98d426",
      "assetIds": [
        "41506478881403507969696680653240014914910929820314476107906210059990541021188"
      ]
    },
    {
      "x": 366,
      "y": 235,
      "size": 1,
      "price": "4683000000000000000000",
      "reserved": "",
      "salt": "0x2dda01c0116cc79a5173fb31f2dbb8d3f5c3cc537ab88d0ba62593e1deaca790",
      "assetIds": [
        "41506478881403507969696680653240014914910929820314476107906210059990541021187"
      ]
    },
    {
      "x": 366,
      "y": 236,
      "size": 1,
      "price": "4683000000000000000000",
      "reserved": "",
      "salt": "0xe1f13ec7ae8a284c7123cae52eea97bac2d1b359fbdfafd4e78fe8cf9226fe4e",
      "assetIds": [
        "41506478881403507969696680653240014914910929820314476107906210059990541021187"
      ]
    },
    {
      "x": 366,
      "y": 237,
      "size": 1,
      "price": "4683000000000000000000",
      "reserved": "",
      "salt": "0xa5d4b99dc8eea0fc720af9a5eeb7e23a6ba77837e29b36f3703c7275d553d0f2",
      "assetIds": [
        "41506478881403507969696680653240014914910929820314476107906210059990541021188"
      ]
    },
    {
      "x": 366,
      "y": 238,
      "size": 1,
      "price": "4683000000000000000000",
      "reserved": "",
      "salt": "0xcfc730ab8efe8ed291119298005138d031c5f0777375b2fd2574dded172cf220",
      "assetIds": [
        "41506478881403507969696680653240014914910929820314476107906210059990541021186"
      ]
    },
    {
      "x": 366,
      "y": 239,
      "size": 1,
      "price": "4683000000000000000000",
      "reserved": "",
      "salt": "0x3c0f263a937f299461cf1c19140a1336906303f9b6ed58edc16f17a87e87d8f7",
      "assetIds": [
        "41506478881403507969696680653240014914910929820314476107906210059990532622336"
      ]
    },
    {
      "x": 366,
      "y": 264,
      "size": 1,
      "price": "4683000000000000000000",
      "reserved": "",
      "salt": "0x11345050d77512be6e48498492164df00f6159e0dc360991be0fc1f58c87abd3",
      "assetIds": [
        "41506478881403507969696680653240014914910929820314476107906210059990541021188"
      ]
    },
    {
      "x": 366,
      "y": 265,
      "size": 1,
      "price": "4683000000000000000000",
      "reserved": "",
      "salt": "0x6e11654c0317f6d204bf6f2debbe2b8d9676bfca7adea2b47d9271e8f933b84d",
      "assetIds": [
        "41506478881403507969696680653240014914910929820314476107906210059990541021188"
      ]
    },
    {
      "x": 366,
      "y": 266,
      "size": 1,
      "price": "4683000000000000000000",
      "reserved": "",
      "salt": "0x0b789380328fc2cdafc975d1d329e6e99bf991d75199ed971bf062cd27b29a07",
      "assetIds": [
        "41506478881403507969696680653240014914910929820314476107906210059990541021187"
      ]
    },
    {
      "x": 366,
      "y": 288,
      "size": 1,
      "price": "4683000000000000000000",
      "reserved": "",
      "salt": "0xa856fac33efcb3066229e2e181168db46b5c7e2ec019b52de0f649331547bd1c",
      "assetIds": [
        "41506478881403507969696680653240014914910929820314476107906210059990541021187"
      ]
    },
    {
      "x": 366,
      "y": 289,
      "size": 1,
      "price": "4683000000000000000000",
      "reserved": "",
      "salt": "0x8eee7e2052076e265ee007cf8227dfbc5ee64ac9e6327d2b30f5f3672c197649",
      "assetIds": [
        "41506478881403507969696680653240014914910929820314476107906210059990532622336"
      ]
    },
    {
      "x": 366,
      "y": 290,
      "size": 1,
      "price": "4683000000000000000000",
      "reserved": "",
      "salt": "0xdd819df29198f5ece92a5e2ca6a6d68e3ab2abfae900365d1f7d22af204bff54",
      "assetIds": [
        "41506478881403507969696680653240014914910929820314476107906210059990541021185"
      ]
    },
    {
      "x": 366,
      "y": 294,
      "size": 1,
      "price": "4683000000000000000000",
      "reserved": "",
      "salt": "0xead6bcff4d8d36d7957899bf65a2b71942e9ff80f43e1178a52b6bc39ce92f4c",
      "assetIds": [
        "41506478881403507969696680653240014914910929820314476107906210059990541021185"
      ]
    },
    {
      "x": 366,
      "y": 295,
      "size": 1,
      "price": "4683000000000000000000",
      "reserved": "",
      "salt": "0x44df3d37e853c7f057337f6e1fe4cf8b1d3f04ae40b7727edf3035802061566a",
      "assetIds": [
        "41506478881403507969696680653240014914910929820314476107906210059990541021188"
      ]
    },
    {
      "x": 366,
      "y": 296,
      "size": 1,
      "price": "4683000000000000000000",
      "reserved": "",
      "salt": "0xf71edc3833b539efe149aaa2d72b75709bc80c2ac747cf8e49b82daeb4585d53",
      "assetIds": [
        "41506478881403507969696680653240014914910929820314476107906210059990541021189"
      ]
    },
    {
      "x": 366,
      "y": 297,
      "size": 1,
      "price": "4683000000000000000000",
      "reserved": "",
      "salt": "0xea598758105a60cf6cd253922f8fe611af7b3b28cd1baf1a8c55bdf58f592610",
      "assetIds": [
        "41506478881403507969696680653240014914910929820314476107906210059990541021188"
      ]
    },
    {
      "x": 366,
      "y": 298,
      "size": 1,
      "price": "4683000000000000000000",
      "reserved": "",
      "salt": "0x868bb763479699f34a9c6e6c1055cfa22bcd9bbd1293359257f10fa492c3fab9",
      "assetIds": [
        "41506478881403507969696680653240014914910929820314476107906210059990541021188"
      ]
    },
    {
      "x": 366,
      "y": 299,
      "size": 1,
      "price": "4683000000000000000000",
      "reserved": "",
      "salt": "0x73963324dab89aba28e864435c3f90a4b4dd5efc7348eb7094c8e5df9e68e2e6",
      "assetIds": [
        "41506478881403507969696680653240014914910929820314476107906210059990541021184"
      ]
    },
    {
      "x": 366,
      "y": 300,
      "size": 1,
      "price": "4683000000000000000000",
      "reserved": "",
      "salt": "0xc9bc4f94125a37ba698c33ec6ebd627edb152f2203ccdcde4e5899f6b784a616",
      "assetIds": [
        "41506478881403507969696680653240014914910929820314476107906210059990541021187"
      ]
    },
    {
      "x": 366,
      "y": 301,
      "size": 1,
      "price": "4683000000000000000000",
      "reserved": "",
      "salt": "0x521d68ab098089e8a9a787cdaa03edc2f1240467305c7bfdd78e66bf2f0a8381",
      "assetIds": [
        "41506478881403507969696680653240014914910929820314476107906210059990532622336"
      ]
    },
    {
      "x": 366,
      "y": 302,
      "size": 1,
      "price": "4683000000000000000000",
      "reserved": "",
      "salt": "0x96719691634823b214f51fbcb54cb388ddf33980e9239e1fe84c1526c602b302",
      "assetIds": [
        "41506478881403507969696680653240014914910929820314476107906210059990541021188"
      ]
    },
    {
      "x": 366,
      "y": 303,
      "size": 1,
      "price": "4683000000000000000000",
      "reserved": "",
      "salt": "0xe9fe4bb5573110f35b1c32ad9fd5ad16537ff00d147d6c45d49782c3cbc5d7d3",
      "assetIds": [
        "41506478881403507969696680653240014914910929820314476107906210059990541021187"
      ]
    },
    {
      "x": 366,
      "y": 304,
      "size": 1,
      "price": "4683000000000000000000",
      "reserved": "",
      "salt": "0xdecb19634b0a7b3df0b05117076fe1c772d6c0c51dffcaff7c9a3fd0b667016b",
      "assetIds": [
        "41506478881403507969696680653240014914910929820314476107906210059990541021188"
      ]
    },
    {
      "x": 366,
      "y": 305,
      "size": 1,
      "price": "4683000000000000000000",
      "reserved": "",
      "salt": "0x2c66b22bc45e97aa3a483fd96b3b4e67cc939188c1219e6310183cdbee967f85",
      "assetIds": [
        "41506478881403507969696680653240014914910929820314476107906210059990541021189"
      ]
    },
    {
      "x": 366,
      "y": 306,
      "size": 1,
      "price": "4683000000000000000000",
      "reserved": "",
      "salt": "0x05ebad7b6a97871dd215988aab30a2d3c279058ca6ceda2e2a50d485d80418b7",
      "assetIds": [
        "41506478881403507969696680653240014914910929820314476107906210059990541021189"
      ]
    },
    {
      "x": 367,
      "y": 231,
      "size": 1,
      "price": "4683000000000000000000",
      "reserved": "",
      "salt": "0x19e336ca54e112960b5d6cc1116d220f535bf6b7efab635dafa01e04fe4a9da1",
      "assetIds": [
        "41506478881403507969696680653240014914910929820314476107906210059990541021189"
      ]
    },
    {
      "x": 367,
      "y": 232,
      "size": 1,
      "price": "4683000000000000000000",
      "reserved": "",
      "salt": "0xcad2b99a69dc224f838800dc73c7af67b5e5f2ac968c5f8cba1d2dd92e4bc9cd",
      "assetIds": [
        "41506478881403507969696680653240014914910929820314476107906210059990541021188"
      ]
    },
    {
      "x": 367,
      "y": 233,
      "size": 1,
      "price": "4683000000000000000000",
      "reserved": "",
      "salt": "0xe8f1e5f42316bb8f2e954f8dd1347301239b3263c9af1b6850251699e35e3d57",
      "assetIds": [
        "41506478881403507969696680653240014914910929820314476107906210059990541021189"
      ]
    },
    {
      "x": 367,
      "y": 234,
      "size": 1,
      "price": "4683000000000000000000",
      "reserved": "",
      "salt": "0x0b59c389d78b0b3e7032bc8ab72048a34107ec7bc86bee253bf020283acfcb82",
      "assetIds": [
        "41506478881403507969696680653240014914910929820314476107906210059990541021187"
      ]
    },
    {
      "x": 367,
      "y": 235,
      "size": 1,
      "price": "4683000000000000000000",
      "reserved": "",
      "salt": "0x2a6c65f4e1c69725f5bd6552e18e3bd2f9a01e839bc678af31aba02f08a4212b",
      "assetIds": [
        "41506478881403507969696680653240014914910929820314476107906210059990541021188"
      ]
    },
    {
      "x": 367,
      "y": 236,
      "size": 1,
      "price": "4683000000000000000000",
      "reserved": "",
      "salt": "0x8278c261e653e31697fe0d651e922a27aff4db00fc97379b5219c829144b6fa2",
      "assetIds": [
        "41506478881403507969696680653240014914910929820314476107906210059990541021186"
      ]
    },
    {
      "x": 367,
      "y": 237,
      "size": 1,
      "price": "1011000000000000000000",
      "reserved": "0x7a9fe22691c811ea339d9b73150e6911a5343dca",
      "salt": "0x8779f646dad5bbab8f46501c7cc72c280daac5e089d22481ee8fa8c9a1cb1ed9",
      "assetIds": []
    },
    {
      "x": 367,
      "y": 238,
      "size": 1,
      "price": "4683000000000000000000",
      "reserved": "",
      "salt": "0xe5a676728be3c8fa28bf5e169ead9888b02838e0a49651a802922c4db4b56c1a",
      "assetIds": [
        "41506478881403507969696680653240014914910929820314476107906210059990541021186"
      ]
    },
    {
      "x": 367,
      "y": 239,
      "size": 1,
      "price": "4683000000000000000000",
      "reserved": "",
      "salt": "0x99c4e386357f2c0660c7848e2a5f3df06d7f164e901217974250660859e1e47e",
      "assetIds": [
        "41506478881403507969696680653240014914910929820314476107906210059990541021189"
      ]
    },
    {
      "x": 367,
      "y": 264,
      "size": 1,
      "price": "4683000000000000000000",
      "reserved": "",
      "salt": "0xf31e4b9fa450c69b98ec079cb8278f1ed7d06aba17923fe86af5777ca60e2e3f",
      "assetIds": [
        "41506478881403507969696680653240014914910929820314476107906210059990541021189"
      ]
    },
    {
      "x": 367,
      "y": 265,
      "size": 1,
      "price": "4683000000000000000000",
      "reserved": "",
      "salt": "0xe42113662c40eb46c8eb76a65f79d4a1ae294f55d1d906e7917140dbd73eae54",
      "assetIds": [
        "41506478881403507969696680653240014914910929820314476107906210059990541021186"
      ]
    },
    {
      "x": 367,
      "y": 266,
      "size": 1,
      "price": "4683000000000000000000",
      "reserved": "",
      "salt": "0x6afe7ac8ca2592fd8bc4194645906dbdea36e9d862c8926db8aae9434a68124e",
      "assetIds": [
        "41506478881403507969696680653240014914910929820314476107906210059990541021187"
      ]
    },
    {
      "x": 367,
      "y": 288,
      "size": 1,
      "price": "4683000000000000000000",
      "reserved": "",
      "salt": "0xb0f8ccc6832459fcc6b67f77718319806cb65a62aafa4be69aece4170316ae1a",
      "assetIds": [
        "41506478881403507969696680653240014914910929820314476107906210059990541021189"
      ]
    },
    {
      "x": 367,
      "y": 289,
      "size": 1,
      "price": "1011000000000000000000",
      "reserved": "0x7a9fe22691c811ea339d9b73150e6911a5343dca",
      "salt": "0xd7abd5443f20607c7054408bedba483146402e16501e3542864b358d79f5cbc1",
      "assetIds": []
    },
    {
      "x": 367,
      "y": 290,
      "size": 1,
      "price": "4683000000000000000000",
      "reserved": "",
      "salt": "0xc799c662823f090f60373442cb4d480149f8a1c2483da3ae47eea20652282df7",
      "assetIds": [
        "41506478881403507969696680653240014914910929820314476107906210059990541021185"
      ]
    },
    {
      "x": 367,
      "y": 294,
      "size": 1,
      "price": "4683000000000000000000",
      "reserved": "",
      "salt": "0xee4f58b585e81a7b5941ad4c801177ecf0e89d523b47c50559600c4cecb7876b",
      "assetIds": [
        "41506478881403507969696680653240014914910929820314476107906210059990541021188"
      ]
    },
    {
      "x": 367,
      "y": 295,
      "size": 1,
      "price": "4683000000000000000000",
      "reserved": "",
      "salt": "0x6e6294c6b8e8bdfed4dcac3f735b3f8813284423076933395bb19f9a59b92ed0",
      "assetIds": [
        "41506478881403507969696680653240014914910929820314476107906210059990541021187"
      ]
    },
    {
      "x": 367,
      "y": 296,
      "size": 1,
      "price": "4683000000000000000000",
      "reserved": "",
      "salt": "0x4845841cbf2b562736a1252823418a38e39f4c03da1b4ff4320bf2cb5facd8fc",
      "assetIds": [
        "41506478881403507969696680653240014914910929820314476107906210059990541021184"
      ]
    },
    {
      "x": 367,
      "y": 297,
      "size": 1,
      "price": "4683000000000000000000",
      "reserved": "",
      "salt": "0x4ed00d23a770b786ab020d34b71ea3c2e4187a284fcaf61aca26eb6aa13a6d34",
      "assetIds": [
        "41506478881403507969696680653240014914910929820314476107906210059990541021187"
      ]
    },
    {
      "x": 367,
      "y": 298,
      "size": 1,
      "price": "4683000000000000000000",
      "reserved": "",
      "salt": "0x5c40131e32dce6909cebca2688b550a70bdf0edd70a3cb22623c3be544064adf",
      "assetIds": [
        "41506478881403507969696680653240014914910929820314476107906210059990541021189"
      ]
    },
    {
      "x": 367,
      "y": 299,
      "size": 1,
      "price": "4683000000000000000000",
      "reserved": "",
      "salt": "0x22a66bb5b63a0348be4b68c8e8f919ba4724093d77824c8d722e1097cb07555a",
      "assetIds": [
        "41506478881403507969696680653240014914910929820314476107906210059990541021187"
      ]
    },
    {
      "x": 367,
      "y": 300,
      "size": 1,
      "price": "4683000000000000000000",
      "reserved": "",
      "salt": "0xd039ee95c1c025c6561bcc5b0c7b9a00602138fedc6f9872e0ba5fa7732a60f8",
      "assetIds": [
        "41506478881403507969696680653240014914910929820314476107906210059990541021188"
      ]
    },
    {
      "x": 367,
      "y": 301,
      "size": 1,
      "price": "4683000000000000000000",
      "reserved": "",
      "salt": "0x7ab5d0acb15b91e79299738228b29d476f9aa145dd55a2275b4b6e16713b8e90",
      "assetIds": [
        "41506478881403507969696680653240014914910929820314476107906210059990541021187"
      ]
    },
    {
      "x": 367,
      "y": 302,
      "size": 1,
      "price": "4683000000000000000000",
      "reserved": "",
      "salt": "0x621ca04deacc1d7b531a78413ac8b3fc1926c80b17d1f813ad2b19ba25b4e9c3",
      "assetIds": [
        "41506478881403507969696680653240014914910929820314476107906210059990541021188"
      ]
    },
    {
      "x": 367,
      "y": 303,
      "size": 1,
      "price": "1011000000000000000000",
      "reserved": "0x7a9fe22691c811ea339d9b73150e6911a5343dca",
      "salt": "0x9feedee00fb3cd64f0860c005de256dc6d2ee46d03b3a6c291e8c5fcec017d26",
      "assetIds": []
    },
    {
      "x": 367,
      "y": 304,
      "size": 1,
      "price": "4683000000000000000000",
      "reserved": "",
      "salt": "0x5b2b083d653abd777b433a4dbbb04974874a2d0c4c65ab87c38b768da0df18f8",
      "assetIds": [
        "41506478881403507969696680653240014914910929820314476107906210059990541021188"
      ]
    },
    {
      "x": 367,
      "y": 305,
      "size": 1,
      "price": "4683000000000000000000",
      "reserved": "",
      "salt": "0x69f45688d9243fb36d5531d2b37b2482e6b70d793ba8a78dfa5bb8aa0d61d2db",
      "assetIds": [
        "41506478881403507969696680653240014914910929820314476107906210059990541021188"
      ]
    },
    {
      "x": 367,
      "y": 306,
      "size": 1,
      "price": "4683000000000000000000",
      "reserved": "",
      "salt": "0xf3473db98e9f8ff2f643272c2867bb80c19ce4fdc9a4c25ea04cb17b187f0f81",
      "assetIds": [
        "41506478881403507969696680653240014914910929820314476107906210059990541021184"
      ]
    },
    {
      "x": 368,
      "y": 231,
      "size": 1,
      "price": "4683000000000000000000",
      "reserved": "",
      "salt": "0xbfde8484a266c3e360835ba2f71b98545efecebdc53a70ee7efaa8fc92ca29e1",
      "assetIds": [
        "41506478881403507969696680653240014914910929820314476107906210059990541021187"
      ]
    },
    {
      "x": 368,
      "y": 232,
      "size": 1,
      "price": "4683000000000000000000",
      "reserved": "",
      "salt": "0x2594ae5135834f16f6e599ded44001a257a3dd67741a4032bdab170b30473a4a",
      "assetIds": [
        "41506478881403507969696680653240014914910929820314476107906210059990541021186"
      ]
    },
    {
      "x": 368,
      "y": 233,
      "size": 1,
      "price": "4683000000000000000000",
      "reserved": "",
      "salt": "0xafc7a7b08ba5fe89ddedf8a98e09b33fb6fb31291c784d5d969674c2fab339fa",
      "assetIds": [
        "41506478881403507969696680653240014914910929820314476107906210059990541021186"
      ]
    },
    {
      "x": 368,
      "y": 234,
      "size": 1,
      "price": "4683000000000000000000",
      "reserved": "",
      "salt": "0x2e139f6fe833cdcee17952ae4b2c544d90a906155dfaaf81302557e094a43d4a",
      "assetIds": [
        "41506478881403507969696680653240014914910929820314476107906210059990541021187"
      ]
    },
    {
      "x": 368,
      "y": 235,
      "size": 1,
      "price": "4683000000000000000000",
      "reserved": "",
      "salt": "0x3481b4bc25b5fb65f1e0c757e285889f8cd883d3191895e166e03032f9585778",
      "assetIds": [
        "41506478881403507969696680653240014914910929820314476107906210059990541021185"
      ]
    },
    {
      "x": 368,
      "y": 236,
      "size": 1,
      "price": "4683000000000000000000",
      "reserved": "",
      "salt": "0xf21080a0b2f2a2d94f8abe0f128806df1c47bedcb28f11cffe928b0880172e75",
      "assetIds": [
        "41506478881403507969696680653240014914910929820314476107906210059990541021184"
      ]
    },
    {
      "x": 368,
      "y": 237,
      "size": 1,
      "price": "4683000000000000000000",
      "reserved": "",
      "salt": "0x3f774fe086f44ce9cbbdc940f74e085897c4a911ebcc6bc8b09baf4740ea814f",
      "assetIds": [
        "41506478881403507969696680653240014914910929820314476107906210059990541021188"
      ]
    },
    {
      "x": 368,
      "y": 238,
      "size": 1,
      "price": "4683000000000000000000",
      "reserved": "",
      "salt": "0xb7defd36738fa74dabfd0748f6a6117ad80d92930f2d841c91490f5c8d5cc35b",
      "assetIds": [
        "41506478881403507969696680653240014914910929820314476107906210059990541021184"
      ]
    },
    {
      "x": 368,
      "y": 239,
      "size": 1,
      "price": "4683000000000000000000",
      "reserved": "",
      "salt": "0x175213f9cc522417318d5a122943cae644efdd5e92ea93a65e67a48bef52fb63",
      "assetIds": [
        "41506478881403507969696680653240014914910929820314476107906210059990541021184"
      ]
    },
    {
      "x": 368,
      "y": 264,
      "size": 1,
      "price": "4683000000000000000000",
      "reserved": "",
      "salt": "0xcb4909238de919aa5bc767e663b26f21fa806fa6f4aeae3157170161129b3c36",
      "assetIds": [
        "41506478881403507969696680653240014914910929820314476107906210059990541021188"
      ]
    },
    {
      "x": 368,
      "y": 265,
      "size": 1,
      "price": "4683000000000000000000",
      "reserved": "",
      "salt": "0x71d9849daee4ec7f23400655c7fdc310c84fb9d08833aa7cee75933ac73f4e3f",
      "assetIds": [
        "41506478881403507969696680653240014914910929820314476107906210059990541021188"
      ]
    },
    {
      "x": 368,
      "y": 266,
      "size": 1,
      "price": "4683000000000000000000",
      "reserved": "",
      "salt": "0x677d0458fee9569e001fa7f8dc5e6b846336b6675ae6a655df6f5348912d2e6c",
      "assetIds": [
        "41506478881403507969696680653240014914910929820314476107906210059990541021187"
      ]
    },
    {
      "x": 368,
      "y": 288,
      "size": 1,
      "price": "4683000000000000000000",
      "reserved": "",
      "salt": "0x3326af937ca68b1dd7c57f4d882cad6b4864116df01f53cdba0770d4e74e728a",
      "assetIds": [
        "41506478881403507969696680653240014914910929820314476107906210059990541021187"
      ]
    },
    {
      "x": 368,
      "y": 289,
      "size": 1,
      "price": "4683000000000000000000",
      "reserved": "",
      "salt": "0xff9bafd8e93ae0f2c97cf37249178ef491ccb8150fdd3139b39fc28e2de3abcc",
      "assetIds": [
        "41506478881403507969696680653240014914910929820314476107906210059990541021184"
      ]
    },
    {
      "x": 368,
      "y": 290,
      "size": 1,
      "price": "4683000000000000000000",
      "reserved": "",
      "salt": "0x8af9130b8e79f23842cf86c726c6d4a250a5a875e3016e356ebe46d0c6d1dc44",
      "assetIds": [
        "41506478881403507969696680653240014914910929820314476107906210059990541021189"
      ]
    },
    {
      "x": 368,
      "y": 294,
      "size": 1,
      "price": "4683000000000000000000",
      "reserved": "",
      "salt": "0x054448007262f3c5669a7a865303986f6f0bdd3ee46c25bfa07e51ce65fbc336",
      "assetIds": [
        "41506478881403507969696680653240014914910929820314476107906210059990541021185"
      ]
    },
    {
      "x": 368,
      "y": 295,
      "size": 1,
      "price": "4683000000000000000000",
      "reserved": "",
      "salt": "0x66cd0431f42b1835ef67777884df084d1425cce0bd842ab88dce3ac5d3d5904a",
      "assetIds": [
        "41506478881403507969696680653240014914910929820314476107906210059990541021187"
      ]
    },
    {
      "x": 368,
      "y": 296,
      "size": 1,
      "price": "4683000000000000000000",
      "reserved": "",
      "salt": "0x8a07f8cb5b38dd5739efab30e9f2944c870367939468b68b00d66da09e48c83e",
      "assetIds": [
        "41506478881403507969696680653240014914910929820314476107906210059990541021189"
      ]
    },
    {
      "x": 368,
      "y": 297,
      "size": 1,
      "price": "4683000000000000000000",
      "reserved": "",
      "salt": "0xe8474de7efb24dcee0d4e6af6beda03ac5aa0881339de97138ae5ab431736ae1",
      "assetIds": [
        "41506478881403507969696680653240014914910929820314476107906210059990541021189"
      ]
    },
    {
      "x": 368,
      "y": 298,
      "size": 1,
      "price": "4683000000000000000000",
      "reserved": "",
      "salt": "0x1f1a59f0b688b76b02b2bf5844134512c44471b42dfeba0d72a17deed1f4bcf6",
      "assetIds": [
        "41506478881403507969696680653240014914910929820314476107906210059990541021188"
      ]
    },
    {
      "x": 368,
      "y": 299,
      "size": 1,
      "price": "4683000000000000000000",
      "reserved": "",
      "salt": "0x6f2dd32e0649cd344493c03cf49806f7a3558e59057c3670a4d80df6ab473d0b",
      "assetIds": [
        "41506478881403507969696680653240014914910929820314476107906210059990541021187"
      ]
    },
    {
      "x": 368,
      "y": 300,
      "size": 1,
      "price": "4683000000000000000000",
      "reserved": "",
      "salt": "0x899b4905f1b7bad07cd2a1eed31e910a5e19034a57a39b838aa0eda861e663d2",
      "assetIds": [
        "41506478881403507969696680653240014914910929820314476107906210059990541021184"
      ]
    },
    {
      "x": 368,
      "y": 301,
      "size": 1,
      "price": "4683000000000000000000",
      "reserved": "",
      "salt": "0x9647fedb449bdffab220b93b11d42d0c2e742bb2d9e0a336f9e73040988067cb",
      "assetIds": [
        "41506478881403507969696680653240014914910929820314476107906210059990541021188"
      ]
    },
    {
      "x": 368,
      "y": 302,
      "size": 1,
      "price": "4683000000000000000000",
      "reserved": "",
      "salt": "0x841c503c5090c74fe350794ed2db8940f73036f07c1625d0e8f26239c3fda5a6",
      "assetIds": [
        "41506478881403507969696680653240014914910929820314476107906210059990541021187"
      ]
    },
    {
      "x": 368,
      "y": 303,
      "size": 1,
      "price": "4683000000000000000000",
      "reserved": "",
      "salt": "0x6f6c96b5a177728df4e6dd4bbdda8f9784ec6ee6654a2fb7ee54165f430a4687",
      "assetIds": [
        "41506478881403507969696680653240014914910929820314476107906210059990541021184"
      ]
    },
    {
      "x": 368,
      "y": 304,
      "size": 1,
      "price": "4683000000000000000000",
      "reserved": "",
      "salt": "0xcf225d0d22512bd0603ee19ac4a17fde150f1ac21bcb885d9574ab88d3f02af0",
      "assetIds": [
        "41506478881403507969696680653240014914910929820314476107906210059990541021188"
      ]
    },
    {
      "x": 368,
      "y": 305,
      "size": 1,
      "price": "4683000000000000000000",
      "reserved": "",
      "salt": "0xc3cb958416c7ffb52d11565ab8a1239930bac8ced616e8239641257fcffadcac",
      "assetIds": [
        "41506478881403507969696680653240014914910929820314476107906210059990541021187"
      ]
    },
    {
      "x": 369,
      "y": 231,
      "size": 1,
      "price": "4683000000000000000000",
      "reserved": "",
      "salt": "0xe4a0bcbc61689691c688ddb56bfa5e31ce85fe7ccf4a15e39cf548cf55510395",
      "assetIds": [
        "41506478881403507969696680653240014914910929820314476107906210059990532622336"
      ]
    },
    {
      "x": 369,
      "y": 232,
      "size": 1,
      "price": "4683000000000000000000",
      "reserved": "",
      "salt": "0x0fa210401be591c9133f05a8aebc58cf2f73191f4026014df0c4dfc2258fe1f4",
      "assetIds": [
        "41506478881403507969696680653240014914910929820314476107906210059990541021188"
      ]
    },
    {
      "x": 369,
      "y": 233,
      "size": 1,
      "price": "4683000000000000000000",
      "reserved": "",
      "salt": "0xc7d9fc4efe188ce86d340977527b7a3e1e6f948f7e5dc9fbc89cc24c1b1a7a28",
      "assetIds": [
        "41506478881403507969696680653240014914910929820314476107906210059990541021188"
      ]
    },
    {
      "x": 369,
      "y": 234,
      "size": 1,
      "price": "4683000000000000000000",
      "reserved": "",
      "salt": "0xab1c04082625987d53d49d6ac837ea443f80f244693620b782054757aed57cff",
      "assetIds": [
        "41506478881403507969696680653240014914910929820314476107906210059990541021186"
      ]
    },
    {
      "x": 369,
      "y": 235,
      "size": 1,
      "price": "4683000000000000000000",
      "reserved": "",
      "salt": "0xedd09cc0ee733de42a4154ef2495017eaa667607f1bbe202f19807fc36b58347",
      "assetIds": [
        "41506478881403507969696680653240014914910929820314476107906210059990541021189"
      ]
    },
    {
      "x": 369,
      "y": 236,
      "size": 1,
      "price": "4683000000000000000000",
      "reserved": "",
      "salt": "0xa9d62c797dbafcf15922f68cf965af8165a5c0e2614d09b542af8b763e5ea777",
      "assetIds": [
        "41506478881403507969696680653240014914910929820314476107906210059990541021185"
      ]
    },
    {
      "x": 369,
      "y": 237,
      "size": 1,
      "price": "4683000000000000000000",
      "reserved": "",
      "salt": "0xc54924852ecfe20a03ea11a7a31fd7ba85e4d3f2baeb3a326e09a3b243c302eb",
      "assetIds": [
        "41506478881403507969696680653240014914910929820314476107906210059990541021187"
      ]
    },
    {
      "x": 369,
      "y": 238,
      "size": 1,
      "price": "4683000000000000000000",
      "reserved": "",
      "salt": "0xd5c259ea583f5f7c03ac10b42cce44f3153577172e300c758cdc381c565979f1",
      "assetIds": [
        "41506478881403507969696680653240014914910929820314476107906210059990541021186"
      ]
    },
    {
      "x": 369,
      "y": 239,
      "size": 1,
      "price": "4683000000000000000000",
      "reserved": "",
      "salt": "0x8b70f49c9a20414455451dabab9dea9538eb1eb44e8a94443bbac3113db7d43d",
      "assetIds": [
        "41506478881403507969696680653240014914910929820314476107906210059990541021187"
      ]
    },
    {
      "x": 369,
      "y": 264,
      "size": 1,
      "price": "4683000000000000000000",
      "reserved": "",
      "salt": "0x3d6d312e60cb4daa048705314fc0eab0561aabb903f189ccf2f260f92cc95f7d",
      "assetIds": [
        "41506478881403507969696680653240014914910929820314476107906210059990541021187"
      ]
    },
    {
      "x": 369,
      "y": 265,
      "size": 1,
      "price": "4683000000000000000000",
      "reserved": "",
      "salt": "0xeb7ec44fce8065065376f1c118cd043cfe49fb1966cb096fc1521527c0025eb8",
      "assetIds": [
        "41506478881403507969696680653240014914910929820314476107906210059990532622336"
      ]
    },
    {
      "x": 369,
      "y": 266,
      "size": 1,
      "price": "4683000000000000000000",
      "reserved": "",
      "salt": "0x9cffa04dbd859e90dc25f5b43645657fbb505f3482dce4fe9f19bbbcd7f422f7",
      "assetIds": [
        "41506478881403507969696680653240014914910929820314476107906210059990541021187"
      ]
    },
    {
      "x": 369,
      "y": 267,
      "size": 1,
      "price": "4683000000000000000000",
      "reserved": "",
      "salt": "0x675f37780444a18b6890a79bf2def01b9871ae5730bef95d7fba7efaa36ca421",
      "assetIds": [
        "41506478881403507969696680653240014914910929820314476107906210059990541021188"
      ]
    },
    {
      "x": 369,
      "y": 268,
      "size": 1,
      "price": "4683000000000000000000",
      "reserved": "",
      "salt": "0x758e9b5d65735119308483181e6844e9389070032e07e36775a1cee8055ee263",
      "assetIds": [
        "41506478881403507969696680653240014914910929820314476107906210059990541021187"
      ]
    },
    {
      "x": 369,
      "y": 269,
      "size": 1,
      "price": "4683000000000000000000",
      "reserved": "",
      "salt": "0x3704656d9c96dc17ae78a8536507778ac6e98a102925e6ca71eb21a0858bf40d",
      "assetIds": [
        "41506478881403507969696680653240014914910929820314476107906210059990532622336"
      ]
    },
    {
      "x": 369,
      "y": 288,
      "size": 1,
      "price": "4683000000000000000000",
      "reserved": "",
      "salt": "0xda927ed2b341f8422b06edbdc173bf615293e309b797266a270899642c3d8b55",
      "assetIds": [
        "41506478881403507969696680653240014914910929820314476107906210059990541021188"
      ]
    },
    {
      "x": 369,
      "y": 289,
      "size": 1,
      "price": "4683000000000000000000",
      "reserved": "",
      "salt": "0xa549a5a96af987892ea00349cd579ca84bf680a237d1f1352c3a25ff5b9dce63",
      "assetIds": [
        "41506478881403507969696680653240014914910929820314476107906210059990541021185"
      ]
    },
    {
      "x": 369,
      "y": 290,
      "size": 1,
      "price": "4683000000000000000000",
      "reserved": "",
      "salt": "0x118b81a8c765e8c958058b99a89a51a52adfd2ad3b0e8979d9f0f2505b826181",
      "assetIds": [
        "41506478881403507969696680653240014914910929820314476107906210059990541021189"
      ]
    },
    {
      "x": 369,
      "y": 291,
      "size": 1,
      "price": "4683000000000000000000",
      "reserved": "",
      "salt": "0xe1bfb529edd6b019fc474c6016a5b4f9175a4ff28775edbf26119a3f77a822f1",
      "assetIds": [
        "41506478881403507969696680653240014914910929820314476107906210059990541021188"
      ]
    },
    {
      "x": 369,
      "y": 292,
      "size": 1,
      "price": "4683000000000000000000",
      "reserved": "",
      "salt": "0x6226c6d3fe1f3b0165a16b37d9694e8ba1cb910ac92cda3ea3d7e804200736f1",
      "assetIds": [
        "41506478881403507969696680653240014914910929820314476107906210059990541021188"
      ]
    },
    {
      "x": 369,
      "y": 293,
      "size": 1,
      "price": "4683000000000000000000",
      "reserved": "",
      "salt": "0x26c4a22a7d768c2f54f849e58a8de19867ff9752d6ae2c73a57fe451ed2cb18a",
      "assetIds": [
        "41506478881403507969696680653240014914910929820314476107906210059990541021187"
      ]
    },
    {
      "x": 369,
      "y": 294,
      "size": 1,
      "price": "4683000000000000000000",
      "reserved": "",
      "salt": "0x8a3948d219679c9b9e3ded7c9bdc7066b66244f11cd98350ecfe07c909711b53",
      "assetIds": [
        "41506478881403507969696680653240014914910929820314476107906210059990541021187"
      ]
    },
    {
      "x": 369,
      "y": 295,
      "size": 1,
      "price": "4683000000000000000000",
      "reserved": "",
      "salt": "0x30e40291e3126f6f3548fd76652e0cfa5f9395ffe4dcab7ac90313b5d4d1cf14",
      "assetIds": [
        "41506478881403507969696680653240014914910929820314476107906210059990541021184"
      ]
    },
    {
      "x": 369,
      "y": 296,
      "size": 1,
      "price": "4683000000000000000000",
      "reserved": "",
      "salt": "0x4534b559069c7b9f8e500f965d44a4fb96259396dc1dd9d665b8ef61958d14e2",
      "assetIds": [
        "41506478881403507969696680653240014914910929820314476107906210059990541021189"
      ]
    },
    {
      "x": 369,
      "y": 297,
      "size": 1,
      "price": "4683000000000000000000",
      "reserved": "",
      "salt": "0x6a71e6edf709718833a9607650ed875028619532ec299b30856d73752d14d812",
      "assetIds": [
        "41506478881403507969696680653240014914910929820314476107906210059990541021185"
      ]
    },
    {
      "x": 369,
      "y": 298,
      "size": 1,
      "price": "4683000000000000000000",
      "reserved": "",
      "salt": "0x0198c32776e6a3d26634c4a2beb9950806a846a653cca21a4e4c47e564318102",
      "assetIds": [
        "41506478881403507969696680653240014914910929820314476107906210059990541021189"
      ]
    },
    {
      "x": 369,
      "y": 299,
      "size": 1,
      "price": "4683000000000000000000",
      "reserved": "",
      "salt": "0xafea3de5837370d1da2b301e22e2486190bf6095039a13a395897b302682718b",
      "assetIds": [
        "41506478881403507969696680653240014914910929820314476107906210059990541021186"
      ]
    },
    {
      "x": 369,
      "y": 300,
      "size": 1,
      "price": "4683000000000000000000",
      "reserved": "",
      "salt": "0x8feba8612d049a20d9113c8985b10e9c3e4c86c778f129a01ff156e6b2c39480",
      "assetIds": [
        "41506478881403507969696680653240014914910929820314476107906210059990541021187"
      ]
    },
    {
      "x": 369,
      "y": 301,
      "size": 1,
      "price": "4683000000000000000000",
      "reserved": "",
      "salt": "0x39a1234bfcab28a12673e70acc9406f98dd5a338824faf4eceaa15dd87d1d479",
      "assetIds": [
        "41506478881403507969696680653240014914910929820314476107906210059990541021189"
      ]
    },
    {
      "x": 369,
      "y": 302,
      "size": 1,
      "price": "4683000000000000000000",
      "reserved": "",
      "salt": "0xea711765efcd6c06e1e3d6becc6c3b48da3f00c746da4af5e5b7211d3b06688d",
      "assetIds": [
        "41506478881403507969696680653240014914910929820314476107906210059990541021187"
      ]
    },
    {
      "x": 369,
      "y": 303,
      "size": 1,
      "price": "4683000000000000000000",
      "reserved": "",
      "salt": "0x3dc9cf9a35a2d1cd81f575d37096dc4cbcf0e00297416cd41458cb864b08b70a",
      "assetIds": [
        "41506478881403507969696680653240014914910929820314476107906210059990541021188"
      ]
    },
    {
      "x": 369,
      "y": 304,
      "size": 1,
      "price": "4683000000000000000000",
      "reserved": "",
      "salt": "0x3375ccbad94d3afb4faac38c3ccda546a2548a05d703a06d715543ac34a18df4",
      "assetIds": [
        "41506478881403507969696680653240014914910929820314476107906210059990532622336"
      ]
    },
    {
      "x": 369,
      "y": 305,
      "size": 1,
      "price": "4683000000000000000000",
      "reserved": "",
      "salt": "0xdeca3c1ea9186e3538e6f8f4a19ad8f72f16f78353613e21a83fd44ac42c382b",
      "assetIds": [
        "41506478881403507969696680653240014914910929820314476107906210059990541021188"
      ]
    },
    {
      "x": 370,
      "y": 231,
      "size": 1,
      "price": "4683000000000000000000",
      "reserved": "",
      "salt": "0x5d37bce1390fb34a69441df3f55ae2b6af575fde8e1afff2f67c20a5666625f8",
      "assetIds": [
        "41506478881403507969696680653240014914910929820314476107906210059990541021187"
      ]
    },
    {
      "x": 370,
      "y": 232,
      "size": 1,
      "price": "1011000000000000000000",
      "reserved": "0x7a9fe22691c811ea339d9b73150e6911a5343dca",
      "salt": "0x04b267499d6c0664a1ab9c852918a2fe414ffb0c383197df49d3c024e678c2be",
      "assetIds": []
    },
    {
      "x": 370,
      "y": 233,
      "size": 1,
      "price": "4683000000000000000000",
      "reserved": "",
      "salt": "0x4969fcfcc32ecd17e7ce9d6a8cd40faa1f5f36b87c32e4015ff003cf9639c771",
      "assetIds": [
        "41506478881403507969696680653240014914910929820314476107906210059990541021186"
      ]
    },
    {
      "x": 370,
      "y": 234,
      "size": 1,
      "price": "4683000000000000000000",
      "reserved": "",
      "salt": "0x7a32ac99ef85ae67f1254946715a819ec1bfabdf006fffa324c14c5ae4ce53d8",
      "assetIds": [
        "41506478881403507969696680653240014914910929820314476107906210059990541021187"
      ]
    },
    {
      "x": 370,
      "y": 235,
      "size": 1,
      "price": "4683000000000000000000",
      "reserved": "",
      "salt": "0x4b0f7aa6a718adb56fca56b3e508567e59b6c1576f32938e553c49e9b836d84d",
      "assetIds": [
        "41506478881403507969696680653240014914910929820314476107906210059990541021187"
      ]
    },
    {
      "x": 370,
      "y": 236,
      "size": 1,
      "price": "4683000000000000000000",
      "reserved": "",
      "salt": "0x0364f79ea278765104b83d90b8a7dbdb9acb272b473eeef038561c6c025d3e95",
      "assetIds": [
        "41506478881403507969696680653240014914910929820314476107906210059990541021188"
      ]
    },
    {
      "x": 370,
      "y": 237,
      "size": 1,
      "price": "4683000000000000000000",
      "reserved": "",
      "salt": "0x7911e7aabc8432f83207cc1c19d847fb6e08c284ad9dc5b5f36e7d161a28074d",
      "assetIds": [
        "41506478881403507969696680653240014914910929820314476107906210059990541021188"
      ]
    },
    {
      "x": 370,
      "y": 238,
      "size": 1,
      "price": "4683000000000000000000",
      "reserved": "",
      "salt": "0x31d2e7eb4a8c4b03b3039c45783e37195512362a28ed4419e61e432829856cad",
      "assetIds": [
        "41506478881403507969696680653240014914910929820314476107906210059990541021189"
      ]
    },
    {
      "x": 370,
      "y": 239,
      "size": 1,
      "price": "4683000000000000000000",
      "reserved": "",
      "salt": "0x9178bbeccf1427e1c823cad42d2439271e943d0a26cdeb77450ed1865db2318a",
      "assetIds": [
        "41506478881403507969696680653240014914910929820314476107906210059990541021187"
      ]
    },
    {
      "x": 370,
      "y": 264,
      "size": 1,
      "price": "1011000000000000000000",
      "reserved": "0x7a9fe22691c811ea339d9b73150e6911a5343dca",
      "salt": "0x58a18b4429a56df31ca46b10575e24a26fe48a6a9537ebe898ab24e0921ead82",
      "assetIds": []
    },
    {
      "x": 370,
      "y": 265,
      "size": 1,
      "price": "4683000000000000000000",
      "reserved": "",
      "salt": "0xf32361090c0cb126788d76727dd4c0a8b63fa30360a6a64c645dc32d062bcd7c",
      "assetIds": [
        "41506478881403507969696680653240014914910929820314476107906210059990541021187"
      ]
    },
    {
      "x": 370,
      "y": 266,
      "size": 1,
      "price": "4683000000000000000000",
      "reserved": "",
      "salt": "0x98f6675d55649aba126637ce7165d3279f9d4f3f9dad2c42de6e2c57f2dc0237",
      "assetIds": [
        "41506478881403507969696680653240014914910929820314476107906210059990541021184"
      ]
    },
    {
      "x": 370,
      "y": 267,
      "size": 1,
      "price": "4683000000000000000000",
      "reserved": "",
      "salt": "0x5efd235bc32da6a338aa8b7a0e205275b8a894db9dfa2cac42f7b5ba7b354eb2",
      "assetIds": [
        "41506478881403507969696680653240014914910929820314476107906210059990541021184"
      ]
    },
    {
      "x": 370,
      "y": 268,
      "size": 1,
      "price": "4683000000000000000000",
      "reserved": "",
      "salt": "0xc3cd5660aa343bef201ebc966bb89836db234e9be86f7781e393318517659498",
      "assetIds": [
        "41506478881403507969696680653240014914910929820314476107906210059990541021185"
      ]
    },
    {
      "x": 370,
      "y": 269,
      "size": 1,
      "price": "4683000000000000000000",
      "reserved": "",
      "salt": "0x72d67f6de83d2f1fccdc225da21ad53d43838f279b2237ee95c6b8430e70c247",
      "assetIds": [
        "41506478881403507969696680653240014914910929820314476107906210059990541021187"
      ]
    },
    {
      "x": 370,
      "y": 288,
      "size": 1,
      "price": "4683000000000000000000",
      "reserved": "",
      "salt": "0x583c93f34c50a449739dbc9ceac486e05eccdd69a770b87a5365974897f87064",
      "assetIds": [
        "41506478881403507969696680653240014914910929820314476107906210059990532622336"
      ]
    },
    {
      "x": 370,
      "y": 289,
      "size": 1,
      "price": "4683000000000000000000",
      "reserved": "",
      "salt": "0xcd927502bfbc77c15bfb2d7484393100f6c15aff35b36ed3eb23d120c2263168",
      "assetIds": [
        "41506478881403507969696680653240014914910929820314476107906210059990541021185"
      ]
    },
    {
      "x": 370,
      "y": 290,
      "size": 1,
      "price": "4683000000000000000000",
      "reserved": "",
      "salt": "0x10c863938acddad6795fdbd06f22bee29db4c161f46555ba16efc8037d89fa40",
      "assetIds": [
        "41506478881403507969696680653240014914910929820314476107906210059990541021188"
      ]
    },
    {
      "x": 370,
      "y": 291,
      "size": 1,
      "price": "4683000000000000000000",
      "reserved": "",
      "salt": "0x158f1208d961c87be20b421f262705371ce2a7bc647beba1c106917f2447a03c",
      "assetIds": [
        "41506478881403507969696680653240014914910929820314476107906210059990541021188"
      ]
    },
    {
      "x": 370,
      "y": 292,
      "size": 1,
      "price": "4683000000000000000000",
      "reserved": "",
      "salt": "0x75549ce90501d30a83bbb745972cbb663fe0905b9ca39751c9968e8d582ac8a7",
      "assetIds": [
        "41506478881403507969696680653240014914910929820314476107906210059990541021184"
      ]
    },
    {
      "x": 370,
      "y": 293,
      "size": 1,
      "price": "4683000000000000000000",
      "reserved": "",
      "salt": "0x362c4c737e477f1ccb82d69772abfa18fd8abbb579c9b7e556a50a6e58cb86dc",
      "assetIds": [
        "41506478881403507969696680653240014914910929820314476107906210059990541021185"
      ]
    },
    {
      "x": 370,
      "y": 294,
      "size": 1,
      "price": "4683000000000000000000",
      "reserved": "",
      "salt": "0x868901dc972a9142ecf5fd1ae181e7b0a4055fa904f5a8a78d5ae6095b8f7c8d",
      "assetIds": [
        "41506478881403507969696680653240014914910929820314476107906210059990541021188"
      ]
    },
    {
      "x": 370,
      "y": 295,
      "size": 1,
      "price": "4683000000000000000000",
      "reserved": "",
      "salt": "0xc9ad90ac20dc2eb3c856e1dafa85c0e853f4db6b7a023a92374ec3738155aff4",
      "assetIds": [
        "41506478881403507969696680653240014914910929820314476107906210059990541021186"
      ]
    },
    {
      "x": 370,
      "y": 296,
      "size": 1,
      "price": "4683000000000000000000",
      "reserved": "",
      "salt": "0xda2e5e49dd6b83d1068ce0075be61ecc25174d6b2c5eb776a1526ad1010dbc2b",
      "assetIds": [
        "41506478881403507969696680653240014914910929820314476107906210059990541021187"
      ]
    },
    {
      "x": 370,
      "y": 297,
      "size": 1,
      "price": "4683000000000000000000",
      "reserved": "",
      "salt": "0x22047bdd92c39a0552ff9322d1ee8154b7f07386801b6e8735a6f6edb75bde1e",
      "assetIds": [
        "41506478881403507969696680653240014914910929820314476107906210059990541021185"
      ]
    },
    {
      "x": 370,
      "y": 298,
      "size": 1,
      "price": "4683000000000000000000",
      "reserved": "",
      "salt": "0x4f26c2383fdba24f3993b322688340be79ade2015ace819cccdaa4003b1316bc",
      "assetIds": [
        "41506478881403507969696680653240014914910929820314476107906210059990541021189"
      ]
    },
    {
      "x": 370,
      "y": 299,
      "size": 1,
      "price": "4683000000000000000000",
      "reserved": "",
      "salt": "0x4a97cb153bca9e3b0c7ee5938bab0f281a428491dabb7dcecc1968973a77a3ae",
      "assetIds": [
        "41506478881403507969696680653240014914910929820314476107906210059990541021186"
      ]
    },
    {
      "x": 370,
      "y": 300,
      "size": 1,
      "price": "4683000000000000000000",
      "reserved": "",
      "salt": "0x49da886cc800229781cdf1286eb475d304c3e611e740f2171e8602ec4cd8f01b",
      "assetIds": [
        "41506478881403507969696680653240014914910929820314476107906210059990541021186"
      ]
    },
    {
      "x": 370,
      "y": 301,
      "size": 1,
      "price": "4683000000000000000000",
      "reserved": "",
      "salt": "0x24cc1e4639bcb9f28c0c400dfabbf4aa78bcbbd6e4eb46f4102880d50a74ad73",
      "assetIds": [
        "41506478881403507969696680653240014914910929820314476107906210059990541021189"
      ]
    },
    {
      "x": 370,
      "y": 302,
      "size": 1,
      "price": "4683000000000000000000",
      "reserved": "",
      "salt": "0xc61d9a9d929a776ca1b02b51ae9e0fa751d143f3533e479c99cc238e000e51f2",
      "assetIds": [
        "41506478881403507969696680653240014914910929820314476107906210059990541021189"
      ]
    },
    {
      "x": 370,
      "y": 303,
      "size": 1,
      "price": "4683000000000000000000",
      "reserved": "",
      "salt": "0x4703f6674e330af216fab9a2b5f1a989a4bcc156f890808facc37d607a618447",
      "assetIds": [
        "41506478881403507969696680653240014914910929820314476107906210059990541021184"
      ]
    },
    {
      "x": 370,
      "y": 304,
      "size": 1,
      "price": "4683000000000000000000",
      "reserved": "",
      "salt": "0x8081aaf3a17d8ddeac7a0215fad626937aa8d057401d3ebe3b1ec634a9bb7b30",
      "assetIds": [
        "41506478881403507969696680653240014914910929820314476107906210059990541021187"
      ]
    },
    {
      "x": 370,
      "y": 305,
      "size": 1,
      "price": "4683000000000000000000",
      "reserved": "",
      "salt": "0xf42293b7c0708572492fac540eaa1841a66a61a36a44034ea6b4061f161275e1",
      "assetIds": [
        "41506478881403507969696680653240014914910929820314476107906210059990541021184"
      ]
    },
    {
      "x": 371,
      "y": 231,
      "size": 1,
      "price": "4683000000000000000000",
      "reserved": "",
      "salt": "0xadcf8d3c0416ff7f844e52b85d7274b6582ec946c59162e924aaba8a1d733d17",
      "assetIds": [
        "41506478881403507969696680653240014914910929820314476107906210059990541021189"
      ]
    },
    {
      "x": 371,
      "y": 232,
      "size": 1,
      "price": "4683000000000000000000",
      "reserved": "",
      "salt": "0x8663783919e14fffa8b6ad1b43b126b703077f3d5adfd5b244936ed4bf5ca848",
      "assetIds": [
        "41506478881403507969696680653240014914910929820314476107906210059990541021187"
      ]
    },
    {
      "x": 371,
      "y": 233,
      "size": 1,
      "price": "4683000000000000000000",
      "reserved": "",
      "salt": "0xe01d4594a1dbb118ceadd7a4ae3c79774494717836e634da035e379fb6498dc3",
      "assetIds": [
        "41506478881403507969696680653240014914910929820314476107906210059990541021188"
      ]
    },
    {
      "x": 371,
      "y": 234,
      "size": 1,
      "price": "4683000000000000000000",
      "reserved": "",
      "salt": "0x045e2d5daac63a53f8c8dd8a928d6d087c93fa7acd39e5b389896256c197df10",
      "assetIds": [
        "41506478881403507969696680653240014914910929820314476107906210059990541021185"
      ]
    },
    {
      "x": 371,
      "y": 235,
      "size": 1,
      "price": "4683000000000000000000",
      "reserved": "",
      "salt": "0x83cc5d56a87729331c9cfa484020ac75b9576848ff8c19bceb8da8f8b52fdc89",
      "assetIds": [
        "41506478881403507969696680653240014914910929820314476107906210059990541021189"
      ]
    },
    {
      "x": 371,
      "y": 236,
      "size": 1,
      "price": "4683000000000000000000",
      "reserved": "",
      "salt": "0x23dd23188e3fa44cc9bd4f59b8e5f25ad7528f851b4b49fd041bad5681cab1cd",
      "assetIds": [
        "41506478881403507969696680653240014914910929820314476107906210059990541021187"
      ]
    },
    {
      "x": 371,
      "y": 237,
      "size": 1,
      "price": "4683000000000000000000",
      "reserved": "",
      "salt": "0x443f4062f0af6b3221fdf699573daa02e009e46c76fb22dfa4b28d35f83a35ac",
      "assetIds": [
        "41506478881403507969696680653240014914910929820314476107906210059990541021187"
      ]
    },
    {
      "x": 371,
      "y": 238,
      "size": 1,
      "price": "4683000000000000000000",
      "reserved": "",
      "salt": "0xc0f053480bf03c40a83ffbcd65a18731bf66798d606670525790e3da0622fa76",
      "assetIds": [
        "41506478881403507969696680653240014914910929820314476107906210059990541021188"
      ]
    },
    {
      "x": 371,
      "y": 239,
      "size": 1,
      "price": "4683000000000000000000",
      "reserved": "",
      "salt": "0x0d37aed48b1051706aabb678a02d19690de767962e390554420baa68b5834fdc",
      "assetIds": [
        "41506478881403507969696680653240014914910929820314476107906210059990541021189"
      ]
    },
    {
      "x": 371,
      "y": 264,
      "size": 1,
      "price": "4683000000000000000000",
      "reserved": "",
      "salt": "0x0892366e630e4a88e102e008f30f7626bbf01289135ae48096ae875caab45057",
      "assetIds": [
        "41506478881403507969696680653240014914910929820314476107906210059990541021188"
      ]
    },
    {
      "x": 371,
      "y": 265,
      "size": 1,
      "price": "4683000000000000000000",
      "reserved": "",
      "salt": "0x2b3641cc53d9e329b52327bc05e9b0d5097a9f7fa65e58ffbeded5360cb6c5d2",
      "assetIds": [
        "41506478881403507969696680653240014914910929820314476107906210059990541021187"
      ]
    },
    {
      "x": 371,
      "y": 266,
      "size": 1,
      "price": "4683000000000000000000",
      "reserved": "",
      "salt": "0xf306ca146c3192f4bd238318137b50ebbc3194b4e07f2ec7e4733bfb10e4e480",
      "assetIds": [
        "41506478881403507969696680653240014914910929820314476107906210059990541021185"
      ]
    },
    {
      "x": 371,
      "y": 267,
      "size": 1,
      "price": "4683000000000000000000",
      "reserved": "",
      "salt": "0x3da5751e665df384007083d08fb04bd380d90ae673488d5326836ae1adc7bd72",
      "assetIds": [
        "41506478881403507969696680653240014914910929820314476107906210059990541021189"
      ]
    },
    {
      "x": 371,
      "y": 268,
      "size": 1,
      "price": "4683000000000000000000",
      "reserved": "",
      "salt": "0x84c573466c48c1e87124ff28c00c0b9e38aaca366b297ffd56b3b5cb3e191a0f",
      "assetIds": [
        "41506478881403507969696680653240014914910929820314476107906210059990541021188"
      ]
    },
    {
      "x": 371,
      "y": 269,
      "size": 1,
      "price": "4683000000000000000000",
      "reserved": "",
      "salt": "0x23048209c737f56d5e58938eca80ff79287b935036c416978b4b2af6984fe736",
      "assetIds": [
        "41506478881403507969696680653240014914910929820314476107906210059990541021187"
      ]
    },
    {
      "x": 371,
      "y": 288,
      "size": 1,
      "price": "4683000000000000000000",
      "reserved": "",
      "salt": "0x39fdec1628722fc5f202bfa2e2b5f6d7493badaca9e9ffaf8c20c400ef353e9e",
      "assetIds": [
        "41506478881403507969696680653240014914910929820314476107906210059990532622336"
      ]
    },
    {
      "x": 371,
      "y": 289,
      "size": 1,
      "price": "4683000000000000000000",
      "reserved": "",
      "salt": "0xdfbb51a451cd965a8792adee7be995185e2cdb24e5de91f263c354bb5f201cd7",
      "assetIds": [
        "41506478881403507969696680653240014914910929820314476107906210059990541021187"
      ]
    },
    {
      "x": 371,
      "y": 290,
      "size": 1,
      "price": "4683000000000000000000",
      "reserved": "",
      "salt": "0x5967df9a642db1ed439fde861d85546afb4a98b0eda3e8ba9bde3f0e4cd96e74",
      "assetIds": [
        "41506478881403507969696680653240014914910929820314476107906210059990541021188"
      ]
    },
    {
      "x": 371,
      "y": 291,
      "size": 1,
      "price": "4683000000000000000000",
      "reserved": "",
      "salt": "0x9880cc7aed5f590086c7871c154fc5e538e72bdbd986152338e348c4ae325249",
      "assetIds": [
        "41506478881403507969696680653240014914910929820314476107906210059990541021185"
      ]
    },
    {
      "x": 371,
      "y": 292,
      "size": 1,
      "price": "4683000000000000000000",
      "reserved": "",
      "salt": "0x30b193a73cd4f7b44d66b946b1345a67470a9431f584282536b3c507f044f6ad",
      "assetIds": [
        "41506478881403507969696680653240014914910929820314476107906210059990541021187"
      ]
    },
    {
      "x": 371,
      "y": 293,
      "size": 1,
      "price": "4683000000000000000000",
      "reserved": "",
      "salt": "0x1f40fd76e84b77711eb7bf636e1e05e6a92f2637c9ce4e838b80398637f115af",
      "assetIds": [
        "41506478881403507969696680653240014914910929820314476107906210059990541021189"
      ]
    },
    {
      "x": 371,
      "y": 294,
      "size": 1,
      "price": "1011000000000000000000",
      "reserved": "0x7a9fe22691c811ea339d9b73150e6911a5343dca",
      "salt": "0x0e248cad30251fc7c9e64a9815e06ecc42786b77dd331abbaf1136ae57c09bfc",
      "assetIds": []
    },
    {
      "x": 371,
      "y": 295,
      "size": 1,
      "price": "4683000000000000000000",
      "reserved": "",
      "salt": "0xc13c3cb979be15a71ba9dbe5c48ff4b8ffa9c953195c14fec601024229a5cf5c",
      "assetIds": [
        "41506478881403507969696680653240014914910929820314476107906210059990541021189"
      ]
    },
    {
      "x": 371,
      "y": 296,
      "size": 1,
      "price": "4683000000000000000000",
      "reserved": "",
      "salt": "0x53a9d763a9accf58ca2a347451b816010df2290b60e372fd9a406e7ba1d144c0",
      "assetIds": [
        "41506478881403507969696680653240014914910929820314476107906210059990541021188"
      ]
    },
    {
      "x": 371,
      "y": 297,
      "size": 1,
      "price": "4683000000000000000000",
      "reserved": "",
      "salt": "0xab4c90a7efa678b86d35f517ed0f64ce6a14589e09249f6603bcba7db5acdb50",
      "assetIds": [
        "41506478881403507969696680653240014914910929820314476107906210059990541021187"
      ]
    },
    {
      "x": 371,
      "y": 298,
      "size": 1,
      "price": "4683000000000000000000",
      "reserved": "",
      "salt": "0xd71856146006f4540b79b81f59a33aa06a5df981fdaf1ca93e399814c438112d",
      "assetIds": [
        "41506478881403507969696680653240014914910929820314476107906210059990541021184"
      ]
    },
    {
      "x": 371,
      "y": 299,
      "size": 1,
      "price": "4683000000000000000000",
      "reserved": "",
      "salt": "0x8e93e080b508225a3e16359292278cc3619d9094db8061da2d2dfe8fdbc2daca",
      "assetIds": [
        "41506478881403507969696680653240014914910929820314476107906210059990541021189"
      ]
    },
    {
      "x": 371,
      "y": 300,
      "size": 1,
      "price": "4683000000000000000000",
      "reserved": "",
      "salt": "0xcf5ad2a26b32df382e59a2dd93ee8019620b6bf4a3467ae4895ed51f0e0098f8",
      "assetIds": [
        "41506478881403507969696680653240014914910929820314476107906210059990541021187"
      ]
    },
    {
      "x": 371,
      "y": 301,
      "size": 1,
      "price": "4683000000000000000000",
      "reserved": "",
      "salt": "0x44811eb5414ab81fe60e1dd992416ba8c4c91a589ba3d3ff669f594acdee2b47",
      "assetIds": [
        "41506478881403507969696680653240014914910929820314476107906210059990541021188"
      ]
    },
    {
      "x": 371,
      "y": 302,
      "size": 1,
      "price": "4683000000000000000000",
      "reserved": "",
      "salt": "0x7e46dd4c91131835f44e37b30cee681282eb577ce092b8c08b92987464beccb9",
      "assetIds": [
        "41506478881403507969696680653240014914910929820314476107906210059990541021189"
      ]
    },
    {
      "x": 371,
      "y": 303,
      "size": 1,
      "price": "4683000000000000000000",
      "reserved": "",
      "salt": "0xc69d5ba3cfcacc4f5a0ebbc8964131f213060f3c96e503c74d6a0d020437b369",
      "assetIds": [
        "41506478881403507969696680653240014914910929820314476107906210059990541021188"
      ]
    },
    {
      "x": 371,
      "y": 304,
      "size": 1,
      "price": "4683000000000000000000",
      "reserved": "",
      "salt": "0x4e0db1e068e27177148a2eb9415666760794fe5fd820642b62567fc9392ed4c2",
      "assetIds": [
        "41506478881403507969696680653240014914910929820314476107906210059990541021188"
      ]
    },
    {
      "x": 371,
      "y": 305,
      "size": 1,
      "price": "4683000000000000000000",
      "reserved": "",
      "salt": "0x01a59fe34cf0d76103f8c56c7bd56490ef726457484e275160191735a28cb47b",
      "assetIds": [
        "41506478881403507969696680653240014914910929820314476107906210059990541021187"
      ]
    },
    {
      "x": 372,
      "y": 231,
      "size": 1,
      "price": "4683000000000000000000",
      "reserved": "",
      "salt": "0x4511480e8dd8a015e5fc5b3b0b779beecfae8c9c7b2e0819be24940353b9d782",
      "assetIds": [
        "41506478881403507969696680653240014914910929820314476107906210059990541021189"
      ]
    },
    {
      "x": 372,
      "y": 232,
      "size": 1,
      "price": "4683000000000000000000",
      "reserved": "",
      "salt": "0x03e820de9d57814d458ac81fafb3e37ce219feaadfc8aaa14f2cd984f3e909c2",
      "assetIds": [
        "41506478881403507969696680653240014914910929820314476107906210059990541021188"
      ]
    },
    {
      "x": 372,
      "y": 233,
      "size": 1,
      "price": "4683000000000000000000",
      "reserved": "",
      "salt": "0x9df078ed180dc871ee8cdf71a9767a441c564c46e944ddf2d3e8286ec65c8e95",
      "assetIds": [
        "41506478881403507969696680653240014914910929820314476107906210059990532622336"
      ]
    },
    {
      "x": 372,
      "y": 276,
      "size": 1,
      "price": "4683000000000000000000",
      "reserved": "",
      "salt": "0x53ec71fa82370032f6321d5ee0e998ea8a2b4093d6a8a8efa6d16884ca824357",
      "assetIds": [
        "41506478881403507969696680653240014914910929820314476107906210059990541021188"
      ]
    },
    {
      "x": 372,
      "y": 277,
      "size": 1,
      "price": "4683000000000000000000",
      "reserved": "",
      "salt": "0xa87e4491e1b9326c098039215a00a45df1f844efd5f19cfa7d0847f60f357add",
      "assetIds": [
        "41506478881403507969696680653240014914910929820314476107906210059990541021188"
      ]
    },
    {
      "x": 372,
      "y": 278,
      "size": 1,
      "price": "4683000000000000000000",
      "reserved": "",
      "salt": "0xa054514faf3a273d6cd0f166b16c1d78abd0dff17f16f4280bc10b6f387ec726",
      "assetIds": [
        "41506478881403507969696680653240014914910929820314476107906210059990541021187"
      ]
    },
    {
      "x": 372,
      "y": 279,
      "size": 1,
      "price": "4683000000000000000000",
      "reserved": "",
      "salt": "0x76f0c0d105702f2aadd0f761537f6dda4612b6e13dc00b318e49f4cb13a51629",
      "assetIds": [
        "41506478881403507969696680653240014914910929820314476107906210059990541021188"
      ]
    },
    {
      "x": 372,
      "y": 280,
      "size": 1,
      "price": "4683000000000000000000",
      "reserved": "",
      "salt": "0xd1be07a9221a9245202b60c63bc04ef0ea408ce4564a0df05e59e3b26155e605",
      "assetIds": [
        "41506478881403507969696680653240014914910929820314476107906210059990541021189"
      ]
    },
    {
      "x": 372,
      "y": 281,
      "size": 1,
      "price": "4683000000000000000000",
      "reserved": "",
      "salt": "0x8f18fe6c232cb2e382b0158890466c10d143e0f1972f57038f0473fb305d3859",
      "assetIds": [
        "41506478881403507969696680653240014914910929820314476107906210059990541021188"
      ]
    },
    {
      "x": 372,
      "y": 288,
      "size": 1,
      "price": "4683000000000000000000",
      "reserved": "",
      "salt": "0x10c4e36038e9f257200d650e8c84d7da7d8c057f4c0020dfcfc7f5d7eb99bca3",
      "assetIds": [
        "41506478881403507969696680653240014914910929820314476107906210059990541021184"
      ]
    },
    {
      "x": 372,
      "y": 289,
      "size": 1,
      "price": "4683000000000000000000",
      "reserved": "",
      "salt": "0xc3af27381042ba56428c1057d3a2ab8b8534af6951aa7fe9dd0958da7f4e8829",
      "assetIds": [
        "41506478881403507969696680653240014914910929820314476107906210059990541021186"
      ]
    },
    {
      "x": 372,
      "y": 290,
      "size": 1,
      "price": "4683000000000000000000",
      "reserved": "",
      "salt": "0xa0ecae955d623c53df910a7ffaaca86d45d35f85eb058ef896e24bb48d16dcad",
      "assetIds": [
        "41506478881403507969696680653240014914910929820314476107906210059990541021188"
      ]
    },
    {
      "x": 372,
      "y": 291,
      "size": 1,
      "price": "4683000000000000000000",
      "reserved": "",
      "salt": "0x65a4806ab8327d2fa4e18f7c99c6d93c935d70059651ad34e52ead8c55d81869",
      "assetIds": [
        "41506478881403507969696680653240014914910929820314476107906210059990541021184"
      ]
    },
    {
      "x": 372,
      "y": 292,
      "size": 1,
      "price": "4683000000000000000000",
      "reserved": "",
      "salt": "0x1507443bc034ae8ae2f7cb3ffce309379ab91aa4eb18e003b5a9f4bb2a700ec2",
      "assetIds": [
        "41506478881403507969696680653240014914910929820314476107906210059990532622336"
      ]
    },
    {
      "x": 372,
      "y": 293,
      "size": 1,
      "price": "4683000000000000000000",
      "reserved": "",
      "salt": "0x8d19c9adb3f1904d819f57ddb85c545e28926b3495dee095cac7750093ca5c85",
      "assetIds": [
        "41506478881403507969696680653240014914910929820314476107906210059990541021187"
      ]
    },
    {
      "x": 372,
      "y": 294,
      "size": 1,
      "price": "4683000000000000000000",
      "reserved": "",
      "salt": "0x25e2ed3d6e7419628ffea8bfebe0cafbb3264b2ac58615ef80de02cd7a1ce482",
      "assetIds": [
        "41506478881403507969696680653240014914910929820314476107906210059990541021189"
      ]
    },
    {
      "x": 372,
      "y": 295,
      "size": 1,
      "price": "4683000000000000000000",
      "reserved": "",
      "salt": "0xd11cd78719f5acbccc9e9e9ac25d03a550f361baaca134e875c846622a178971",
      "assetIds": [
        "41506478881403507969696680653240014914910929820314476107906210059990541021188"
      ]
    },
    {
      "x": 372,
      "y": 296,
      "size": 1,
      "price": "4683000000000000000000",
      "reserved": "",
      "salt": "0x952da9585e752f5858f3f7a747d9e43be29ad2918acd516cc91d01b75231f504",
      "assetIds": [
        "41506478881403507969696680653240014914910929820314476107906210059990541021187"
      ]
    },
    {
      "x": 372,
      "y": 297,
      "size": 1,
      "price": "4683000000000000000000",
      "reserved": "",
      "salt": "0xf2782a310b6e11ccda78e56d5a401b2eaf0e93b84b1feb2b7b149f2ab5196f3d",
      "assetIds": [
        "41506478881403507969696680653240014914910929820314476107906210059990541021185"
      ]
    },
    {
      "x": 372,
      "y": 298,
      "size": 1,
      "price": "4683000000000000000000",
      "reserved": "",
      "salt": "0x2497ca8079ee266d7088f5b701a61a6044f913b6012fa4fda0575699e498e527",
      "assetIds": [
        "41506478881403507969696680653240014914910929820314476107906210059990541021184"
      ]
    },
    {
      "x": 372,
      "y": 299,
      "size": 1,
      "price": "4683000000000000000000",
      "reserved": "",
      "salt": "0x87d8636d62a88f3bb890299c2db9d0477388d88295e013333e4d00c09c0fdb82",
      "assetIds": [
        "41506478881403507969696680653240014914910929820314476107906210059990541021187"
      ]
    },
    {
      "x": 372,
      "y": 300,
      "size": 1,
      "price": "4683000000000000000000",
      "reserved": "",
      "salt": "0x92c7081be9ffd0bfc57d4e4678b21fab5fab409e3d060c9928891dec50df7100",
      "assetIds": [
        "41506478881403507969696680653240014914910929820314476107906210059990541021188"
      ]
    },
    {
      "x": 372,
      "y": 301,
      "size": 1,
      "price": "4683000000000000000000",
      "reserved": "",
      "salt": "0x1e7baaf86ae2ebf3fd3815a7334f1fa51997e145aec4f9f5ba72a2a61f4aa739",
      "assetIds": [
        "41506478881403507969696680653240014914910929820314476107906210059990532622336"
      ]
    },
    {
      "x": 372,
      "y": 302,
      "size": 1,
      "price": "4683000000000000000000",
      "reserved": "",
      "salt": "0x5afd302aca9f3c85f75ec7891016a613ca36727241d133a1fd7a748ce545cb38",
      "assetIds": [
        "41506478881403507969696680653240014914910929820314476107906210059990541021184"
      ]
    },
    {
      "x": 372,
      "y": 303,
      "size": 1,
      "price": "4683000000000000000000",
      "reserved": "",
      "salt": "0x696b59a849370bcbd84b234383bbb8a2c257ab2e0fe325716b6e2fdc3ab3fb94",
      "assetIds": [
        "41506478881403507969696680653240014914910929820314476107906210059990541021188"
      ]
    },
    {
      "x": 372,
      "y": 304,
      "size": 1,
      "price": "4683000000000000000000",
      "reserved": "",
      "salt": "0xf1315f63701967c292f39d466e5ad9d829e49cc166618c64000f72f13821fadf",
      "assetIds": [
        "41506478881403507969696680653240014914910929820314476107906210059990541021186"
      ]
    },
    {
      "x": 372,
      "y": 305,
      "size": 1,
      "price": "4683000000000000000000",
      "reserved": "",
      "salt": "0xc7bbd33badebb6f25cb266bb85c578af2f3482be3f8b4218883ae424f40b398b",
      "assetIds": [
        "41506478881403507969696680653240014914910929820314476107906210059990541021187"
      ]
    },
    {
      "x": 373,
      "y": 231,
      "size": 1,
      "price": "4683000000000000000000",
      "reserved": "",
      "salt": "0x6f86a842f539793d8152473f5cca4aee97fc12dcbfbbdc94f70e5b66307e4a22",
      "assetIds": [
        "41506478881403507969696680653240014914910929820314476107906210059990541021189"
      ]
    },
    {
      "x": 373,
      "y": 232,
      "size": 1,
      "price": "4683000000000000000000",
      "reserved": "",
      "salt": "0xe5f7d8504bcfac5d0f03861cd2f928814df76dff3463aaaa2d84f4072a4a4cc3",
      "assetIds": [
        "41506478881403507969696680653240014914910929820314476107906210059990541021187"
      ]
    },
    {
      "x": 373,
      "y": 233,
      "size": 1,
      "price": "4683000000000000000000",
      "reserved": "",
      "salt": "0x6edb523a21679bf293a8839336f64791d3f4a5612d8756c3c1d2c19a090cddbc",
      "assetIds": [
        "41506478881403507969696680653240014914910929820314476107906210059990541021188"
      ]
    },
    {
      "x": 373,
      "y": 276,
      "size": 1,
      "price": "4683000000000000000000",
      "reserved": "",
      "salt": "0x7c18fdeb81169ec3dd74a0a77fb8336a780eb259f01f5bdd76890b9a38111110",
      "assetIds": [
        "41506478881403507969696680653240014914910929820314476107906210059990541021185"
      ]
    },
    {
      "x": 373,
      "y": 277,
      "size": 1,
      "price": "1011000000000000000000",
      "reserved": "0x7a9fe22691c811ea339d9b73150e6911a5343dca",
      "salt": "0xaeee64169158824316ff840532ce3f65aecf9b4ca2c557a82c0feec78ea19a90",
      "assetIds": []
    },
    {
      "x": 373,
      "y": 278,
      "size": 1,
      "price": "4683000000000000000000",
      "reserved": "",
      "salt": "0xcaa21a9a116eae04273028eb7a90a26073e5327c35c520caba54ee98d8e4f8c3",
      "assetIds": [
        "41506478881403507969696680653240014914910929820314476107906210059990541021188"
      ]
    },
    {
      "x": 373,
      "y": 279,
      "size": 1,
      "price": "4683000000000000000000",
      "reserved": "",
      "salt": "0xc277607ddb387dc9e7d4fbcbecfa5f5d79ccbd012d61044d8c954e1b18aa245f",
      "assetIds": [
        "41506478881403507969696680653240014914910929820314476107906210059990541021189"
      ]
    },
    {
      "x": 373,
      "y": 280,
      "size": 1,
      "price": "4683000000000000000000",
      "reserved": "",
      "salt": "0xd7deb07085de1d7d2dc71698734f4f99da2df7b18042b1573c5397f2f8ab5226",
      "assetIds": [
        "41506478881403507969696680653240014914910929820314476107906210059990541021189"
      ]
    },
    {
      "x": 373,
      "y": 281,
      "size": 1,
      "price": "4683000000000000000000",
      "reserved": "",
      "salt": "0x92b25808886250563c9ea91d3962f1e8f4644b0e7a81128df6f611a2f9de8f3b",
      "assetIds": [
        "41506478881403507969696680653240014914910929820314476107906210059990541021186"
      ]
    },
    {
      "x": 373,
      "y": 288,
      "size": 1,
      "price": "4683000000000000000000",
      "reserved": "",
      "salt": "0x4cd2fea6b5a99cf4f38173fcec0db53cd94893e0f6fb243073830eecae5d0be1",
      "assetIds": [
        "41506478881403507969696680653240014914910929820314476107906210059990541021188"
      ]
    },
    {
      "x": 373,
      "y": 289,
      "size": 1,
      "price": "4683000000000000000000",
      "reserved": "",
      "salt": "0xc6b1d4e1ffa5d74de59ac8bc26b9ac4256b35b3261aede9fde8a3fc062e70234",
      "assetIds": [
        "41506478881403507969696680653240014914910929820314476107906210059990541021189"
      ]
    },
    {
      "x": 373,
      "y": 290,
      "size": 1,
      "price": "4683000000000000000000",
      "reserved": "",
      "salt": "0x80fae08d9118cb21cf47130f2e929f0fa62c638c8b8eef6e5b00228cfa04e583",
      "assetIds": [
        "41506478881403507969696680653240014914910929820314476107906210059990541021189"
      ]
    },
    {
      "x": 373,
      "y": 291,
      "size": 1,
      "price": "4683000000000000000000",
      "reserved": "",
      "salt": "0x67d62c45e40c6624edbc4ab7cea140b5413662c4c04b37f7a4046d8f19a393a2",
      "assetIds": [
        "41506478881403507969696680653240014914910929820314476107906210059990541021185"
      ]
    },
    {
      "x": 373,
      "y": 292,
      "size": 1,
      "price": "4683000000000000000000",
      "reserved": "",
      "salt": "0x88aee0c1d51f28a3678101b39256633f1f842c2285e78f994691482315e02fe3",
      "assetIds": [
        "41506478881403507969696680653240014914910929820314476107906210059990541021187"
      ]
    },
    {
      "x": 373,
      "y": 293,
      "size": 1,
      "price": "4683000000000000000000",
      "reserved": "",
      "salt": "0xb24bfe2cf94f375591328ccc84aa9a71bac1f13862603d3b70d46560aa7cf099",
      "assetIds": [
        "41506478881403507969696680653240014914910929820314476107906210059990532622336"
      ]
    },
    {
      "x": 373,
      "y": 294,
      "size": 1,
      "price": "4683000000000000000000",
      "reserved": "",
      "salt": "0x8799abbe6359683192dfa61ceb706323c72fb3c3c95a77463e0600b11d165eb5",
      "assetIds": [
        "41506478881403507969696680653240014914910929820314476107906210059990541021189"
      ]
    },
    {
      "x": 373,
      "y": 295,
      "size": 1,
      "price": "4683000000000000000000",
      "reserved": "",
      "salt": "0x0889c812cc0d44547a4b397e9912f158856e1fa3b700f5de784b1478abb26faf",
      "assetIds": [
        "41506478881403507969696680653240014914910929820314476107906210059990541021185"
      ]
    },
    {
      "x": 373,
      "y": 296,
      "size": 1,
      "price": "4683000000000000000000",
      "reserved": "",
      "salt": "0x0575d43ac22b3359635c5ac07f40ed1d0f917eee980ec501d530f91a4eac1c84",
      "assetIds": [
        "41506478881403507969696680653240014914910929820314476107906210059990541021188"
      ]
    },
    {
      "x": 373,
      "y": 297,
      "size": 1,
      "price": "4683000000000000000000",
      "reserved": "",
      "salt": "0xf31d4f31b7c4da0794961942031a1466e2ee213f1170b6f072e5a0b350aac1cc",
      "assetIds": [
        "41506478881403507969696680653240014914910929820314476107906210059990541021188"
      ]
    },
    {
      "x": 373,
      "y": 298,
      "size": 1,
      "price": "4683000000000000000000",
      "reserved": "",
      "salt": "0x9f60839102549af2227ed3e7bd1387238258ca099c1277671b1e8d609b7c47e5",
      "assetIds": [
        "41506478881403507969696680653240014914910929820314476107906210059990541021187"
      ]
    },
    {
      "x": 373,
      "y": 299,
      "size": 1,
      "price": "4683000000000000000000",
      "reserved": "",
      "salt": "0xf5291a7e01a0e9466068a0d35cb39eaef94d013c92664f88a8703c6df638df82",
      "assetIds": [
        "41506478881403507969696680653240014914910929820314476107906210059990541021188"
      ]
    },
    {
      "x": 373,
      "y": 300,
      "size": 1,
      "price": "4683000000000000000000",
      "reserved": "",
      "salt": "0x442a6dd6324bef2c8f4e2c33f12274fd13f8e314a840e9ba80ada2dfad132377",
      "assetIds": [
        "41506478881403507969696680653240014914910929820314476107906210059990541021186"
      ]
    },
    {
      "x": 373,
      "y": 301,
      "size": 1,
      "price": "4683000000000000000000",
      "reserved": "",
      "salt": "0x2dee8dea1047dafff7c6f69f4bfef50977647db116c1ca90e9b4ee89e6cbda22",
      "assetIds": [
        "41506478881403507969696680653240014914910929820314476107906210059990541021189"
      ]
    },
    {
      "x": 373,
      "y": 302,
      "size": 1,
      "price": "4683000000000000000000",
      "reserved": "",
      "salt": "0xa25b7795a6b6be0292b9aaf532e71c81c9d49c8968ed017190e5e97042cdf524",
      "assetIds": [
        "41506478881403507969696680653240014914910929820314476107906210059990532622336"
      ]
    },
    {
      "x": 373,
      "y": 303,
      "size": 1,
      "price": "4683000000000000000000",
      "reserved": "",
      "salt": "0x6fffafeb0b152925beb6dab9754343ce25bee8c45209369a7eb55c2b35c20b20",
      "assetIds": [
        "41506478881403507969696680653240014914910929820314476107906210059990532622336"
      ]
    },
    {
      "x": 373,
      "y": 304,
      "size": 1,
      "price": "4683000000000000000000",
      "reserved": "",
      "salt": "0x9d3a06a4be1a514f4a45a71dddb56a5595dbde912c19444f7163467c01df7c93",
      "assetIds": [
        "41506478881403507969696680653240014914910929820314476107906210059990541021187"
      ]
    },
    {
      "x": 373,
      "y": 305,
      "size": 1,
      "price": "4683000000000000000000",
      "reserved": "",
      "salt": "0xb383fef707e48aa6009aef9b1a979d433fa4001798f4e41c54b092f90975539e",
      "assetIds": [
        "41506478881403507969696680653240014914910929820314476107906210059990541021187"
      ]
    },
    {
      "x": 374,
      "y": 231,
      "size": 1,
      "price": "4683000000000000000000",
      "reserved": "",
      "salt": "0x5c16105f256468e3324bb2d3def2f8f130aa1192841f3b15518c84ee1d94f064",
      "assetIds": [
        "41506478881403507969696680653240014914910929820314476107906210059990541021187"
      ]
    },
    {
      "x": 374,
      "y": 232,
      "size": 1,
      "price": "4683000000000000000000",
      "reserved": "",
      "salt": "0x4f614becc7f98009491691fbfe56db44520b5c85bfa1354e664bebef682e12bb",
      "assetIds": [
        "41506478881403507969696680653240014914910929820314476107906210059990541021187"
      ]
    },
    {
      "x": 374,
      "y": 233,
      "size": 1,
      "price": "4683000000000000000000",
      "reserved": "",
      "salt": "0x4f832dd090894b1f18ea347eb44bc31358b175bc201ad1a0264979e8da7aa168",
      "assetIds": [
        "41506478881403507969696680653240014914910929820314476107906210059990541021187"
      ]
    },
    {
      "x": 374,
      "y": 276,
      "size": 1,
      "price": "4683000000000000000000",
      "reserved": "",
      "salt": "0xd86ecf5ee660b8f65379bc14db242c9f9cc5da249568a6ba036510a1e8031838",
      "assetIds": [
        "41506478881403507969696680653240014914910929820314476107906210059990541021188"
      ]
    },
    {
      "x": 374,
      "y": 277,
      "size": 1,
      "price": "4683000000000000000000",
      "reserved": "",
      "salt": "0x4f82889ac0cfffe970d21982e9d1c211da4dc140a1c101206ed3b51245b50a9e",
      "assetIds": [
        "41506478881403507969696680653240014914910929820314476107906210059990541021189"
      ]
    },
    {
      "x": 374,
      "y": 278,
      "size": 1,
      "price": "4683000000000000000000",
      "reserved": "",
      "salt": "0x50cb1cbd14a7faf82e8e3a0988ee94fd1c751465ffb5ba07c48b6385132363b6",
      "assetIds": [
        "41506478881403507969696680653240014914910929820314476107906210059990541021187"
      ]
    },
    {
      "x": 374,
      "y": 279,
      "size": 1,
      "price": "4683000000000000000000",
      "reserved": "",
      "salt": "0x9bf180299a454e6c2d5d575241f1cfdc6aa145657170ede879c12fa7053fbc90",
      "assetIds": [
        "41506478881403507969696680653240014914910929820314476107906210059990532622336"
      ]
    },
    {
      "x": 374,
      "y": 280,
      "size": 1,
      "price": "4683000000000000000000",
      "reserved": "",
      "salt": "0x8e6643ce65f77d8967dd118a71e56fd09d0138c1d0dc8671468b322c72d55e2c",
      "assetIds": [
        "41506478881403507969696680653240014914910929820314476107906210059990541021187"
      ]
    },
    {
      "x": 374,
      "y": 281,
      "size": 1,
      "price": "4683000000000000000000",
      "reserved": "",
      "salt": "0x1bbb6daee3fcd981b396ef9f2a7a0ff4b4924826316567ad9d474ecf233cb3db",
      "assetIds": [
        "41506478881403507969696680653240014914910929820314476107906210059990541021187"
      ]
    },
    {
      "x": 374,
      "y": 288,
      "size": 1,
      "price": "4683000000000000000000",
      "reserved": "",
      "salt": "0x3e79b1f7b72dee2536ce5209f95de02c87bd43d819dfa664e4004973d920bcff",
      "assetIds": [
        "41506478881403507969696680653240014914910929820314476107906210059990541021188"
      ]
    },
    {
      "x": 374,
      "y": 289,
      "size": 1,
      "price": "4683000000000000000000",
      "reserved": "",
      "salt": "0x309b3e0e398faddc1d51ee3f0c8eeaa6b6d5e1c46783c10b895a2cb26e07e5f0",
      "assetIds": [
        "41506478881403507969696680653240014914910929820314476107906210059990541021189"
      ]
    },
    {
      "x": 374,
      "y": 290,
      "size": 1,
      "price": "4683000000000000000000",
      "reserved": "",
      "salt": "0xacdfb464c284cba2bbaee4022aa25e7c1818f209ce1b4c303f58003d79fc4673",
      "assetIds": [
        "41506478881403507969696680653240014914910929820314476107906210059990541021186"
      ]
    },
    {
      "x": 374,
      "y": 291,
      "size": 1,
      "price": "4683000000000000000000",
      "reserved": "",
      "salt": "0x40363454fc2b88538a0dec46b87476647839f78f4378b569103ac588d0a3a125",
      "assetIds": [
        "41506478881403507969696680653240014914910929820314476107906210059990532622336"
      ]
    },
    {
      "x": 374,
      "y": 292,
      "size": 1,
      "price": "4683000000000000000000",
      "reserved": "",
      "salt": "0x8de82734c4779ccd18d01cdd67bd6eec9834630848aafdb2f58f529e2e439e5d",
      "assetIds": [
        "41506478881403507969696680653240014914910929820314476107906210059990541021189"
      ]
    },
    {
      "x": 374,
      "y": 293,
      "size": 1,
      "price": "4683000000000000000000",
      "reserved": "",
      "salt": "0xd242d140a038cc36c3f83cd6fa6500c4d622f6b940d6cb95b1cf939f56aafaa4",
      "assetIds": [
        "41506478881403507969696680653240014914910929820314476107906210059990541021186"
      ]
    },
    {
      "x": 374,
      "y": 294,
      "size": 1,
      "price": "4683000000000000000000",
      "reserved": "",
      "salt": "0xa0496620c073faf7634965c51e5f396c9c8fdec07bdacd7baf3c06c402adcfc9",
      "assetIds": [
        "41506478881403507969696680653240014914910929820314476107906210059990541021189"
      ]
    },
    {
      "x": 374,
      "y": 295,
      "size": 1,
      "price": "4683000000000000000000",
      "reserved": "",
      "salt": "0x47763ec33a48473c44e11ec87ea9f55e73a2b0fd5bfd9abf0c2dfab1e4aaedf4",
      "assetIds": [
        "41506478881403507969696680653240014914910929820314476107906210059990541021188"
      ]
    },
    {
      "x": 374,
      "y": 296,
      "size": 1,
      "price": "4683000000000000000000",
      "reserved": "",
      "salt": "0x5dffe1fff1f809536bdb367200f81053f4eda6cf3aeba4c571f529d027d018f3",
      "assetIds": [
        "41506478881403507969696680653240014914910929820314476107906210059990541021186"
      ]
    },
    {
      "x": 374,
      "y": 297,
      "size": 1,
      "price": "4683000000000000000000",
      "reserved": "",
      "salt": "0x9dc380fc0c539b0c25edb56f1d148796a94b840e11897dfa342cd06131a865ae",
      "assetIds": [
        "41506478881403507969696680653240014914910929820314476107906210059990541021189"
      ]
    },
    {
      "x": 374,
      "y": 298,
      "size": 1,
      "price": "1011000000000000000000",
      "reserved": "0x7a9fe22691c811ea339d9b73150e6911a5343dca",
      "salt": "0x4fd1cd38151ba768b95d5be9f56619dedd0dc42399cdc79d65b1aaeadb760962",
      "assetIds": []
    },
    {
      "x": 374,
      "y": 299,
      "size": 1,
      "price": "4683000000000000000000",
      "reserved": "",
      "salt": "0xd4b4110b9712ae667cc3cd4fb98365c1763e013a56edc13aa19b5d175c580eaa",
      "assetIds": [
        "41506478881403507969696680653240014914910929820314476107906210059990541021187"
      ]
    },
    {
      "x": 374,
      "y": 300,
      "size": 1,
      "price": "4683000000000000000000",
      "reserved": "",
      "salt": "0x62d6abd805337a133588b2692856c3a0cf5bb7d647b11414745d7fd635c4bf0d",
      "assetIds": [
        "41506478881403507969696680653240014914910929820314476107906210059990541021188"
      ]
    },
    {
      "x": 374,
      "y": 301,
      "size": 1,
      "price": "4683000000000000000000",
      "reserved": "",
      "salt": "0xd8f78e18f2e50e6366947d82ee28f78b151fc4ed6749ceb949056978e54fa1cd",
      "assetIds": [
        "41506478881403507969696680653240014914910929820314476107906210059990541021187"
      ]
    },
    {
      "x": 374,
      "y": 302,
      "size": 1,
      "price": "4683000000000000000000",
      "reserved": "",
      "salt": "0x5302e0afb214e96d75860ab67c1cf1f3cf751c8904b632e16a499bbf46df0bf4",
      "assetIds": [
        "41506478881403507969696680653240014914910929820314476107906210059990541021186"
      ]
    },
    {
      "x": 374,
      "y": 303,
      "size": 1,
      "price": "4683000000000000000000",
      "reserved": "",
      "salt": "0x1e666336c00cdaeb322a48e214cd255283b81f02163485eb687b1475eff3d6ae",
      "assetIds": [
        "41506478881403507969696680653240014914910929820314476107906210059990541021187"
      ]
    },
    {
      "x": 374,
      "y": 304,
      "size": 1,
      "price": "1011000000000000000000",
      "reserved": "0x7a9fe22691c811ea339d9b73150e6911a5343dca",
      "salt": "0xf2bbb741e8620d8d4ee020da1a60fbcbe6ccec86ccfe74443b228229c0546473",
      "assetIds": []
    },
    {
      "x": 374,
      "y": 305,
      "size": 1,
      "price": "4683000000000000000000",
      "reserved": "",
      "salt": "0x6e1ff73a45f3d6e16a1cb4c6f51dcebec5f2c2c5ee1020e4dd5be9d8ce6b9b5b",
      "assetIds": [
        "41506478881403507969696680653240014914910929820314476107906210059990541021188"
      ]
    },
    {
      "x": 375,
      "y": 231,
      "size": 1,
      "price": "4683000000000000000000",
      "reserved": "",
      "salt": "0x799cdfd580a92c3232e02dcd4071776c8f0bb550522eaf02f588829b849a8354",
      "assetIds": [
        "41506478881403507969696680653240014914910929820314476107906210059990541021188"
      ]
    },
    {
      "x": 375,
      "y": 232,
      "size": 1,
      "price": "4683000000000000000000",
      "reserved": "",
      "salt": "0xcd3aec1bffc21b8e829f5a9433a06ef6e271565d6bff116a5f764b2ea0320dde",
      "assetIds": [
        "41506478881403507969696680653240014914910929820314476107906210059990541021188"
      ]
    },
    {
      "x": 375,
      "y": 233,
      "size": 1,
      "price": "4683000000000000000000",
      "reserved": "",
      "salt": "0x92bfe1fd60b43be3847361f3209cb027ad86e47c101a607ed26280a59dbf205c",
      "assetIds": [
        "41506478881403507969696680653240014914910929820314476107906210059990541021187"
      ]
    },
    {
      "x": 375,
      "y": 276,
      "size": 1,
      "price": "4683000000000000000000",
      "reserved": "",
      "salt": "0x8cfab42f6526caa7b1acb7f480a1e5a529b4279ab86ed5cac18f65e12a426efe",
      "assetIds": [
        "41506478881403507969696680653240014914910929820314476107906210059990541021188"
      ]
    },
    {
      "x": 375,
      "y": 277,
      "size": 1,
      "price": "4683000000000000000000",
      "reserved": "",
      "salt": "0x877da5152aba5e2d441635a0724fbc67307ddbd2d569ce2ac62407a45450cef0",
      "assetIds": [
        "41506478881403507969696680653240014914910929820314476107906210059990541021189"
      ]
    },
    {
      "x": 375,
      "y": 278,
      "size": 1,
      "price": "4683000000000000000000",
      "reserved": "",
      "salt": "0x6903eb1596b11b3da96c309c224c89ec0c69facab20d25ae83caa02069792cd1",
      "assetIds": [
        "41506478881403507969696680653240014914910929820314476107906210059990541021188"
      ]
    },
    {
      "x": 375,
      "y": 279,
      "size": 1,
      "price": "4683000000000000000000",
      "reserved": "",
      "salt": "0x9875637e769c29218956665a041867a4007095d8dc41cc06a5ecdf15b04e9bf9",
      "assetIds": [
        "41506478881403507969696680653240014914910929820314476107906210059990532622336"
      ]
    },
    {
      "x": 375,
      "y": 280,
      "size": 1,
      "price": "4683000000000000000000",
      "reserved": "",
      "salt": "0x459d7e710ce10d3b22423d0f8cc3ff7b3c73d2bd5a7e2d674d3ae5e9750c176a",
      "assetIds": [
        "41506478881403507969696680653240014914910929820314476107906210059990532622336"
      ]
    },
    {
      "x": 375,
      "y": 281,
      "size": 1,
      "price": "4683000000000000000000",
      "reserved": "",
      "salt": "0x9781821eb5e8700bb9be73b849b346fe5d96ce4df54e966ad2e3178a4d745473",
      "assetIds": [
        "41506478881403507969696680653240014914910929820314476107906210059990541021188"
      ]
    },
    {
      "x": 375,
      "y": 288,
      "size": 1,
      "price": "4683000000000000000000",
      "reserved": "",
      "salt": "0xe7a466a37522ab6ce0897c1821fd699b4c73b0a5185989cb5fae49f3022b433e",
      "assetIds": [
        "41506478881403507969696680653240014914910929820314476107906210059990541021187"
      ]
    },
    {
      "x": 375,
      "y": 289,
      "size": 1,
      "price": "4683000000000000000000",
      "reserved": "",
      "salt": "0x3324d8b6659115ca1e51b7f6f44992dff2ace3dd858f3ca34fe3c665ffbea2ca",
      "assetIds": [
        "41506478881403507969696680653240014914910929820314476107906210059990541021189"
      ]
    },
    {
      "x": 375,
      "y": 290,
      "size": 1,
      "price": "4683000000000000000000",
      "reserved": "",
      "salt": "0x50406900577a5853d1f0936848add6c8d8614872f9c1d9b12be6f2364a61f201",
      "assetIds": [
        "41506478881403507969696680653240014914910929820314476107906210059990541021184"
      ]
    },
    {
      "x": 375,
      "y": 291,
      "size": 1,
      "price": "4683000000000000000000",
      "reserved": "",
      "salt": "0x94b1604589b4ae88586a4097a829736cb30527650fe2486f5d4ce92c0a3430ac",
      "assetIds": [
        "41506478881403507969696680653240014914910929820314476107906210059990541021187"
      ]
    },
    {
      "x": 375,
      "y": 292,
      "size": 1,
      "price": "4683000000000000000000",
      "reserved": "",
      "salt": "0x2fde8fb5468c47db3f3cd9137bcf38b67688aef51ba0befb473c585ccdefc681",
      "assetIds": [
        "41506478881403507969696680653240014914910929820314476107906210059990541021187"
      ]
    },
    {
      "x": 375,
      "y": 293,
      "size": 1,
      "price": "4683000000000000000000",
      "reserved": "",
      "salt": "0xd8b6ee61594b17053afda5c5b92a7b31d7117e628821b6c61eb88e16b5cffe3d",
      "assetIds": [
        "41506478881403507969696680653240014914910929820314476107906210059990532622336"
      ]
    },
    {
      "x": 375,
      "y": 294,
      "size": 1,
      "price": "4683000000000000000000",
      "reserved": "",
      "salt": "0x794d069dd69e4cb11cdf87d82edee95874c82d3501e11e4c5c6c1d572d3835cf",
      "assetIds": [
        "41506478881403507969696680653240014914910929820314476107906210059990541021187"
      ]
    },
    {
      "x": 375,
      "y": 295,
      "size": 1,
      "price": "4683000000000000000000",
      "reserved": "",
      "salt": "0x0ad41c6bc8edde071a155137b8db9759e9c267eb8ef6a4b6d8ec7d701754ecc2",
      "assetIds": [
        "41506478881403507969696680653240014914910929820314476107906210059990541021187"
      ]
    },
    {
      "x": 375,
      "y": 296,
      "size": 1,
      "price": "4683000000000000000000",
      "reserved": "",
      "salt": "0x8b4b40254acfc9d72ecf6af58b000f6913abd41ff7125f4bcf711209c8599c9b",
      "assetIds": [
        "41506478881403507969696680653240014914910929820314476107906210059990541021189"
      ]
    },
    {
      "x": 375,
      "y": 297,
      "size": 1,
      "price": "4683000000000000000000",
      "reserved": "",
      "salt": "0x112dc75e735bf64970de9898a180cddecad451370085d44449e2d4aff04ac296",
      "assetIds": [
        "41506478881403507969696680653240014914910929820314476107906210059990541021188"
      ]
    },
    {
      "x": 375,
      "y": 298,
      "size": 1,
      "price": "4683000000000000000000",
      "reserved": "",
      "salt": "0xfeb1acfceacd1eb6baeefbe07801ea8872129b510ea628e1412f1a715d2059d3",
      "assetIds": [
        "41506478881403507969696680653240014914910929820314476107906210059990541021188"
      ]
    },
    {
      "x": 375,
      "y": 299,
      "size": 1,
      "price": "4683000000000000000000",
      "reserved": "",
      "salt": "0xd5bef0a213d828a74a5d70b6d0d03619d8f028cafb687f7c56d8ddecb1932c4a",
      "assetIds": [
        "41506478881403507969696680653240014914910929820314476107906210059990541021184"
      ]
    },
    {
      "x": 375,
      "y": 300,
      "size": 1,
      "price": "4683000000000000000000",
      "reserved": "",
      "salt": "0x966482147f31234265fe6c912ad4d1457f72e46ffb4f251dfa2ae64b41a65165",
      "assetIds": [
        "41506478881403507969696680653240014914910929820314476107906210059990532622336"
      ]
    },
    {
      "x": 375,
      "y": 301,
      "size": 1,
      "price": "4683000000000000000000",
      "reserved": "",
      "salt": "0xd1ebdd135eeb1b0d6953d9e58a7b4ca2cea5a2db5687c97f102f8b73eb312049",
      "assetIds": [
        "41506478881403507969696680653240014914910929820314476107906210059990541021186"
      ]
    },
    {
      "x": 375,
      "y": 302,
      "size": 1,
      "price": "4683000000000000000000",
      "reserved": "",
      "salt": "0xff65a65a0ca9edad25c5435e6aa3320b3aaeaacf3d7b030215532e4b92924062",
      "assetIds": [
        "41506478881403507969696680653240014914910929820314476107906210059990541021185"
      ]
    },
    {
      "x": 375,
      "y": 303,
      "size": 1,
      "price": "4683000000000000000000",
      "reserved": "",
      "salt": "0xa56de6d18cbcda6e7687f1f553ea50198faa86718bc628253d698db9d9c45b79",
      "assetIds": [
        "41506478881403507969696680653240014914910929820314476107906210059990541021187"
      ]
    },
    {
      "x": 375,
      "y": 304,
      "size": 1,
      "price": "4683000000000000000000",
      "reserved": "",
      "salt": "0xc16a5f37017d4998350f0a7e316b3607c4d0c80b62b408f76e853cc2d9a36460",
      "assetIds": [
        "41506478881403507969696680653240014914910929820314476107906210059990541021189"
      ]
    },
    {
      "x": 375,
      "y": 305,
      "size": 1,
      "price": "4683000000000000000000",
      "reserved": "",
      "salt": "0xd99432c649a0951fe1c308b789479a571dc486d12ee47b0c64a87e6666c39c85",
      "assetIds": [
        "41506478881403507969696680653240014914910929820314476107906210059990541021187"
      ]
    },
    {
      "x": 376,
      "y": 231,
      "size": 1,
      "price": "4683000000000000000000",
      "reserved": "",
      "salt": "0x8d753eb3a17e70fc5aa188a5c9b43aad063f0624f271eb768eac39d59b1e9e24",
      "assetIds": [
        "41506478881403507969696680653240014914910929820314476107906210059990541021186"
      ]
    },
    {
      "x": 376,
      "y": 232,
      "size": 1,
      "price": "4683000000000000000000",
      "reserved": "",
      "salt": "0x1b32a4f8051f78b5828a6c2f417665fd85c6020f7fd9f120ee50a03cf0df3bc3",
      "assetIds": [
        "41506478881403507969696680653240014914910929820314476107906210059990541021186"
      ]
    },
    {
      "x": 376,
      "y": 233,
      "size": 1,
      "price": "4683000000000000000000",
      "reserved": "",
      "salt": "0x16ab833e34cf75a00dc0bdbfd0fa384b09b117baeab1295a8ea6288398d02ef2",
      "assetIds": [
        "41506478881403507969696680653240014914910929820314476107906210059990532622336"
      ]
    },
    {
      "x": 376,
      "y": 276,
      "size": 1,
      "price": "4683000000000000000000",
      "reserved": "",
      "salt": "0x1be20cd5595764fe5ebe9281b6410be63ac627f9d85556b1da0285af4041031a",
      "assetIds": [
        "41506478881403507969696680653240014914910929820314476107906210059990532622336"
      ]
    },
    {
      "x": 376,
      "y": 277,
      "size": 1,
      "price": "4683000000000000000000",
      "reserved": "",
      "salt": "0x3d969c020d66ac8761e56c33d5093bc848baf60ce5e16c41ebbef7622470e160",
      "assetIds": [
        "41506478881403507969696680653240014914910929820314476107906210059990541021188"
      ]
    },
    {
      "x": 376,
      "y": 278,
      "size": 1,
      "price": "4683000000000000000000",
      "reserved": "",
      "salt": "0xafd975296e8afc8509b2d44c039175e3fd0b661099768b8b3771bf55c757abbe",
      "assetIds": [
        "41506478881403507969696680653240014914910929820314476107906210059990541021186"
      ]
    },
    {
      "x": 376,
      "y": 279,
      "size": 1,
      "price": "4683000000000000000000",
      "reserved": "",
      "salt": "0x49947b084085b11e2a7c9977d4570a2f228c750975015f7b72a81a7b78cd894e",
      "assetIds": [
        "41506478881403507969696680653240014914910929820314476107906210059990541021188"
      ]
    },
    {
      "x": 376,
      "y": 280,
      "size": 1,
      "price": "4683000000000000000000",
      "reserved": "",
      "salt": "0xceaa9d2a4e098322a316c6329de25fab767a7f346190eeb656df5f546624d078",
      "assetIds": [
        "41506478881403507969696680653240014914910929820314476107906210059990541021188"
      ]
    },
    {
      "x": 376,
      "y": 281,
      "size": 1,
      "price": "4683000000000000000000",
      "reserved": "",
      "salt": "0x6350e0e1619492d2cdd5d393612c0374f28ff9abe6d302a81998df8becd8f3fc",
      "assetIds": [
        "41506478881403507969696680653240014914910929820314476107906210059990541021185"
      ]
    },
    {
      "x": 376,
      "y": 288,
      "size": 1,
      "price": "4683000000000000000000",
      "reserved": "",
      "salt": "0xb52b2aa4d8a41bc0c27c5d810fc38101f93b255e009eb6bfd27ba83e416c2e48",
      "assetIds": [
        "41506478881403507969696680653240014914910929820314476107906210059990541021187"
      ]
    },
    {
      "x": 376,
      "y": 289,
      "size": 1,
      "price": "4683000000000000000000",
      "reserved": "",
      "salt": "0x6f581c8dac353c30aab15ed96e3e05280685ddc463308ccd5fe81416395d2ae0",
      "assetIds": [
        "41506478881403507969696680653240014914910929820314476107906210059990541021184"
      ]
    },
    {
      "x": 376,
      "y": 290,
      "size": 1,
      "price": "4683000000000000000000",
      "reserved": "",
      "salt": "0xb909171689d839c69073fa83aba6643fd07a64129cf8f2f52e9d1b4c0df812aa",
      "assetIds": [
        "41506478881403507969696680653240014914910929820314476107906210059990541021188"
      ]
    },
    {
      "x": 376,
      "y": 291,
      "size": 1,
      "price": "4683000000000000000000",
      "reserved": "",
      "salt": "0x237f74b9afc41ebb17491ce17e8b1eb210a6e5d2a51e8a72ae4a607b5dbd8d01",
      "assetIds": [
        "41506478881403507969696680653240014914910929820314476107906210059990541021186"
      ]
    },
    {
      "x": 376,
      "y": 292,
      "size": 1,
      "price": "4683000000000000000000",
      "reserved": "",
      "salt": "0x6ae139dd929b51ee80b9e2880925e153f3ef43e2b987a5fd89fc81520c802fb7",
      "assetIds": [
        "41506478881403507969696680653240014914910929820314476107906210059990532622336"
      ]
    },
    {
      "x": 376,
      "y": 293,
      "size": 1,
      "price": "4683000000000000000000",
      "reserved": "",
      "salt": "0x1592e385ed797645b8d2903be44b3c19a6c5f8c174b7ffad2723d843b13d0b4b",
      "assetIds": [
        "41506478881403507969696680653240014914910929820314476107906210059990541021187"
      ]
    },
    {
      "x": 376,
      "y": 294,
      "size": 1,
      "price": "4683000000000000000000",
      "reserved": "",
      "salt": "0xca696919882925a9f26020beb8d7d1a491086bd2a5c3ed9fd8c3902f1b2e99ad",
      "assetIds": [
        "41506478881403507969696680653240014914910929820314476107906210059990541021187"
      ]
    },
    {
      "x": 376,
      "y": 295,
      "size": 1,
      "price": "4683000000000000000000",
      "reserved": "",
      "salt": "0xe7fd652684ead7bbe01b27350aa88fb3ecbb26db6124abc7efff2f52e830a52f",
      "assetIds": [
        "41506478881403507969696680653240014914910929820314476107906210059990541021187"
      ]
    },
    {
      "x": 376,
      "y": 296,
      "size": 1,
      "price": "4683000000000000000000",
      "reserved": "",
      "salt": "0x74b0fce926ed48792a25e003870778fa4b6f589892c14b5daaef07b447060355",
      "assetIds": [
        "41506478881403507969696680653240014914910929820314476107906210059990541021188"
      ]
    },
    {
      "x": 376,
      "y": 297,
      "size": 1,
      "price": "4683000000000000000000",
      "reserved": "",
      "salt": "0x70cffb1faca534098932640ca1f73029ca7ed54c73c27ffd7186f2e616468c2c",
      "assetIds": [
        "41506478881403507969696680653240014914910929820314476107906210059990541021187"
      ]
    },
    {
      "x": 376,
      "y": 298,
      "size": 1,
      "price": "4683000000000000000000",
      "reserved": "",
      "salt": "0x36ec04f3554cd3dce095207b3622f4e467b42cc9a301fb45fe01d69a22174e8d",
      "assetIds": [
        "41506478881403507969696680653240014914910929820314476107906210059990541021189"
      ]
    },
    {
      "x": 376,
      "y": 299,
      "size": 1,
      "price": "4683000000000000000000",
      "reserved": "",
      "salt": "0xba4b20bb58e69987726be19119b8610dcc7106ba5e3fd073bca009ff203bfba2",
      "assetIds": [
        "41506478881403507969696680653240014914910929820314476107906210059990541021184"
      ]
    },
    {
      "x": 376,
      "y": 300,
      "size": 1,
      "price": "4683000000000000000000",
      "reserved": "",
      "salt": "0xb668ac3a22c752216e623714920e2ac58b3ba4cc36de84ad2a36176d6d667a58",
      "assetIds": [
        "41506478881403507969696680653240014914910929820314476107906210059990541021187"
      ]
    },
    {
      "x": 376,
      "y": 301,
      "size": 1,
      "price": "4683000000000000000000",
      "reserved": "",
      "salt": "0xbbbfa229f8bf970d4f54b7e40d567c358b9a2e73eaf9d539ad7945e1a7a7ff24",
      "assetIds": [
        "41506478881403507969696680653240014914910929820314476107906210059990541021189"
      ]
    },
    {
      "x": 376,
      "y": 302,
      "size": 1,
      "price": "4683000000000000000000",
      "reserved": "",
      "salt": "0xb21b9684bbc30f858396f9d3440fe8212fd8c39723a21769dd946d77125deccc",
      "assetIds": [
        "41506478881403507969696680653240014914910929820314476107906210059990541021189"
      ]
    },
    {
      "x": 376,
      "y": 303,
      "size": 1,
      "price": "4683000000000000000000",
      "reserved": "",
      "salt": "0x244b7dfccc1385ccdb26a623bb07746d810d5dea0899d7015229879ab52ccada",
      "assetIds": [
        "41506478881403507969696680653240014914910929820314476107906210059990541021184"
      ]
    },
    {
      "x": 376,
      "y": 304,
      "size": 1,
      "price": "4683000000000000000000",
      "reserved": "",
      "salt": "0x16118db349756531d73d7eef9f711d1a09e525bf9d9b7aa0e8c814779ccfbb05",
      "assetIds": [
        "41506478881403507969696680653240014914910929820314476107906210059990532622336"
      ]
    },
    {
      "x": 376,
      "y": 305,
      "size": 1,
      "price": "4683000000000000000000",
      "reserved": "",
      "salt": "0x81bcafde872c5ec1c1e0ec45d4e797b75c8cb9f4ed4db01a0a742d644cb81a82",
      "assetIds": [
        "41506478881403507969696680653240014914910929820314476107906210059990541021187"
      ]
    },
    {
      "x": 377,
      "y": 231,
      "size": 1,
      "price": "4683000000000000000000",
      "reserved": "",
      "salt": "0xe1ca9862343bb5215dbfe5dc71cadd4180db5289aba874078069b876d5aadd8e",
      "assetIds": [
        "41506478881403507969696680653240014914910929820314476107906210059990541021186"
      ]
    },
    {
      "x": 377,
      "y": 232,
      "size": 1,
      "price": "4683000000000000000000",
      "reserved": "",
      "salt": "0xc83ab59876903842323f4cb8a6fe7987191908b23681c1ba4e855e494747cbe1",
      "assetIds": [
        "41506478881403507969696680653240014914910929820314476107906210059990541021186"
      ]
    },
    {
      "x": 377,
      "y": 233,
      "size": 1,
      "price": "4683000000000000000000",
      "reserved": "",
      "salt": "0x506a73482d3aa4d68fee56b3d56de484440eded1cb24a6ab26e3f6d7c82d0551",
      "assetIds": [
        "41506478881403507969696680653240014914910929820314476107906210059990541021187"
      ]
    },
    {
      "x": 377,
      "y": 276,
      "size": 1,
      "price": "4683000000000000000000",
      "reserved": "",
      "salt": "0x6610c7f84e803d7bfe4b0b3a10ef80c0c67cf1ae90ce90ad59d6d8a5dbb703bd",
      "assetIds": [
        "41506478881403507969696680653240014914910929820314476107906210059990541021188"
      ]
    },
    {
      "x": 377,
      "y": 277,
      "size": 1,
      "price": "4683000000000000000000",
      "reserved": "",
      "salt": "0x87c35dab9263474dd3d98f96ce888601962b47952a5ca61b987fcc35ffb02eed",
      "assetIds": [
        "41506478881403507969696680653240014914910929820314476107906210059990541021185"
      ]
    },
    {
      "x": 377,
      "y": 278,
      "size": 1,
      "price": "4683000000000000000000",
      "reserved": "",
      "salt": "0x68bcb32645468200335599969c96424edee9eb306e98d5bb26735f935f8cd357",
      "assetIds": [
        "41506478881403507969696680653240014914910929820314476107906210059990541021189"
      ]
    },
    {
      "x": 377,
      "y": 279,
      "size": 1,
      "price": "4683000000000000000000",
      "reserved": "",
      "salt": "0xa2c0497ffa79fa97e4938ce565059fef6313131f92d42014e66474f002b1cd03",
      "assetIds": [
        "41506478881403507969696680653240014914910929820314476107906210059990541021185"
      ]
    },
    {
      "x": 377,
      "y": 280,
      "size": 1,
      "price": "4683000000000000000000",
      "reserved": "",
      "salt": "0x54661f6d3ba03fa8cd3b2accdda532f2444dbe133c0bc7566464007303f9d608",
      "assetIds": [
        "41506478881403507969696680653240014914910929820314476107906210059990541021184"
      ]
    },
    {
      "x": 377,
      "y": 281,
      "size": 1,
      "price": "4683000000000000000000",
      "reserved": "",
      "salt": "0x0ff9a7788f469633df6f4d8a057c55b8cdd21e54672419cb84f70b88f67f4aeb",
      "assetIds": [
        "41506478881403507969696680653240014914910929820314476107906210059990541021188"
      ]
    },
    {
      "x": 377,
      "y": 288,
      "size": 1,
      "price": "4683000000000000000000",
      "reserved": "",
      "salt": "0x994776f08944374e905d65fffc45598dc0a038f6190496f60449f89cbcf3746e",
      "assetIds": [
        "41506478881403507969696680653240014914910929820314476107906210059990541021188"
      ]
    },
    {
      "x": 377,
      "y": 289,
      "size": 1,
      "price": "4683000000000000000000",
      "reserved": "",
      "salt": "0x1425cdac7f68418bc75b6c9f7eed89119c08489976948420a0830bd6b9510343",
      "assetIds": [
        "41506478881403507969696680653240014914910929820314476107906210059990541021189"
      ]
    },
    {
      "x": 377,
      "y": 290,
      "size": 1,
      "price": "4683000000000000000000",
      "reserved": "",
      "salt": "0xa5099cf27221ea5e4967a3b2140d76749a74cb657bef642c6cfb936e0019694a",
      "assetIds": [
        "41506478881403507969696680653240014914910929820314476107906210059990541021187"
      ]
    },
    {
      "x": 377,
      "y": 291,
      "size": 1,
      "price": "4683000000000000000000",
      "reserved": "",
      "salt": "0x2e159ec3d40a127f42d63ef7ebcb4e2215cb75e34488de6d4929de56a35f0c6b",
      "assetIds": [
        "41506478881403507969696680653240014914910929820314476107906210059990541021185"
      ]
    },
    {
      "x": 377,
      "y": 292,
      "size": 1,
      "price": "4683000000000000000000",
      "reserved": "",
      "salt": "0x0bfc66fec69bc464e64fb26fb4a15e33d8a4bf7b41e30d19893f722864aebd9a",
      "assetIds": [
        "41506478881403507969696680653240014914910929820314476107906210059990541021187"
      ]
    },
    {
      "x": 377,
      "y": 293,
      "size": 1,
      "price": "4683000000000000000000",
      "reserved": "",
      "salt": "0xedc7aafa50cc5535516c0935b3b1729760ca81f50f6d0f28e87f9363ccae1610",
      "assetIds": [
        "41506478881403507969696680653240014914910929820314476107906210059990541021189"
      ]
    },
    {
      "x": 377,
      "y": 294,
      "size": 1,
      "price": "4683000000000000000000",
      "reserved": "",
      "salt": "0x284e24b7115fcca6dd9f5e849ab7da0924c79e9382f7252c01ce51b646912615",
      "assetIds": [
        "41506478881403507969696680653240014914910929820314476107906210059990541021189"
      ]
    },
    {
      "x": 377,
      "y": 295,
      "size": 1,
      "price": "4683000000000000000000",
      "reserved": "",
      "salt": "0x4acefb4ed663c62088b124f7878ab3792f885ac24bcbb7ed0df253145a94c7e9",
      "assetIds": [
        "41506478881403507969696680653240014914910929820314476107906210059990541021187"
      ]
    },
    {
      "x": 377,
      "y": 296,
      "size": 1,
      "price": "4683000000000000000000",
      "reserved": "",
      "salt": "0x7b7b1803d04d0e783fab21f4744af50143d6bdaf03f8742ef72b2157ffab49c7",
      "assetIds": [
        "41506478881403507969696680653240014914910929820314476107906210059990541021185"
      ]
    },
    {
      "x": 377,
      "y": 297,
      "size": 1,
      "price": "4683000000000000000000",
      "reserved": "",
      "salt": "0x059a01c43a0500104331a1463a657933d252c74074933dc4ce7767962e35a8a7",
      "assetIds": [
        "41506478881403507969696680653240014914910929820314476107906210059990541021187"
      ]
    },
    {
      "x": 377,
      "y": 298,
      "size": 1,
      "price": "4683000000000000000000",
      "reserved": "",
      "salt": "0x632a40750f03f308e53f771d20bf8082982533bf7293e873a1aa854ca2007ace",
      "assetIds": [
        "41506478881403507969696680653240014914910929820314476107906210059990541021187"
      ]
    },
    {
      "x": 377,
      "y": 299,
      "size": 1,
      "price": "4683000000000000000000",
      "reserved": "",
      "salt": "0x44fd9ae897c5ed6cc63dc93f0cb053e656d631744a7c09d43a70ebfc278d0828",
      "assetIds": [
        "41506478881403507969696680653240014914910929820314476107906210059990541021188"
      ]
    },
    {
      "x": 377,
      "y": 300,
      "size": 1,
      "price": "4683000000000000000000",
      "reserved": "",
      "salt": "0x57db33fc4cb833f98b4e0429d2afbea4e3cf7b90b5ce09cf2f38d419e6df8bf8",
      "assetIds": [
        "41506478881403507969696680653240014914910929820314476107906210059990532622336"
      ]
    },
    {
      "x": 377,
      "y": 301,
      "size": 1,
      "price": "4683000000000000000000",
      "reserved": "",
      "salt": "0x1cf98039effc0aac21ba51625583dd0f220e0fa917b52b53e29377bfecf612e5",
      "assetIds": [
        "41506478881403507969696680653240014914910929820314476107906210059990541021184"
      ]
    },
    {
      "x": 377,
      "y": 302,
      "size": 1,
      "price": "4683000000000000000000",
      "reserved": "",
      "salt": "0x317204ea501def71d59676b116a1a2eb5086c550ee869027f80e1a140a2bf437",
      "assetIds": [
        "41506478881403507969696680653240014914910929820314476107906210059990541021188"
      ]
    },
    {
      "x": 377,
      "y": 303,
      "size": 1,
      "price": "4683000000000000000000",
      "reserved": "",
      "salt": "0x807b4d4b12ff894fd4f4ca389d1071cd5554a62979479a8b1603ae72b96ea77a",
      "assetIds": [
        "41506478881403507969696680653240014914910929820314476107906210059990541021189"
      ]
    },
    {
      "x": 377,
      "y": 304,
      "size": 1,
      "price": "4683000000000000000000",
      "reserved": "",
      "salt": "0x844074b65630285e8a8a7bc0a49b2aa03531dc21146aa577d77911b1709c9532",
      "assetIds": [
        "41506478881403507969696680653240014914910929820314476107906210059990541021188"
      ]
    },
    {
      "x": 377,
      "y": 305,
      "size": 1,
      "price": "4683000000000000000000",
      "reserved": "",
      "salt": "0x5b94f79ac41459d6367cfbb2cddd77e7993fd09f2675e2bb88d0fbf3af741b50",
      "assetIds": [
        "41506478881403507969696680653240014914910929820314476107906210059990541021186"
      ]
    },
    {
      "x": 378,
      "y": 228,
      "size": 1,
      "price": "4683000000000000000000",
      "reserved": "",
      "salt": "0x97c1aa0dc73a93c8aa1cb13bc545c6279fe3fcbc4c26360d7d4f315f93766b8d",
      "assetIds": [
        "41506478881403507969696680653240014914910929820314476107906210059990541021187"
      ]
    },
    {
      "x": 378,
      "y": 229,
      "size": 1,
      "price": "4683000000000000000000",
      "reserved": "",
      "salt": "0xe04333fdc0a9b3273bc8c50b1a386f1c020880656ec4e384888823256c6a0da9",
      "assetIds": [
        "41506478881403507969696680653240014914910929820314476107906210059990541021184"
      ]
    },
    {
      "x": 378,
      "y": 230,
      "size": 1,
      "price": "4683000000000000000000",
      "reserved": "",
      "salt": "0xe3499dd231c80221db37c48811c1e68aa0eac32170482f75d7950f9befd03fbb",
      "assetIds": [
        "41506478881403507969696680653240014914910929820314476107906210059990541021187"
      ]
    },
    {
      "x": 378,
      "y": 234,
      "size": 1,
      "price": "4683000000000000000000",
      "reserved": "",
      "salt": "0x27ca75b3fefa447fb8f5edb52933181995a6da5e7bea08c5eb647b0fd7557f58",
      "assetIds": [
        "41506478881403507969696680653240014914910929820314476107906210059990532622336"
      ]
    },
    {
      "x": 378,
      "y": 235,
      "size": 1,
      "price": "4683000000000000000000",
      "reserved": "",
      "salt": "0x92a4b01fb851275359f4929733440804e17462fe2bf0434fc1f3c6e8dbb3d6b3",
      "assetIds": [
        "41506478881403507969696680653240014914910929820314476107906210059990541021189"
      ]
    },
    {
      "x": 378,
      "y": 236,
      "size": 1,
      "price": "4683000000000000000000",
      "reserved": "",
      "salt": "0xef420cc1f5a6ffb7deb9c6ea6777153329c07af7932aa5bae6989d984ad96487",
      "assetIds": [
        "41506478881403507969696680653240014914910929820314476107906210059990541021187"
      ]
    },
    {
      "x": 378,
      "y": 237,
      "size": 1,
      "price": "4683000000000000000000",
      "reserved": "",
      "salt": "0x598fb99e1c4766266d1cd00e0de66af96cf6d3269669d28eaf1335cb78f48720",
      "assetIds": [
        "41506478881403507969696680653240014914910929820314476107906210059990541021188"
      ]
    },
    {
      "x": 378,
      "y": 238,
      "size": 1,
      "price": "4683000000000000000000",
      "reserved": "",
      "salt": "0x51c4db6fc18116a914c55c1831c1c296269231659a6cec5ef149d9596d904541",
      "assetIds": [
        "41506478881403507969696680653240014914910929820314476107906210059990541021188"
      ]
    },
    {
      "x": 378,
      "y": 239,
      "size": 1,
      "price": "4683000000000000000000",
      "reserved": "",
      "salt": "0xf04eca4838078f0d29084e56fd5f85fac6d4fa316196885aae1ae224239b8e8a",
      "assetIds": [
        "41506478881403507969696680653240014914910929820314476107906210059990541021189"
      ]
    },
    {
      "x": 378,
      "y": 282,
      "size": 1,
      "price": "4683000000000000000000",
      "reserved": "",
      "salt": "0x182ff1e337a470c6fd2a6d780280bd45231cc950e85c60d0d521ffc426f2fba2",
      "assetIds": [
        "41506478881403507969696680653240014914910929820314476107906210059990541021188"
      ]
    },
    {
      "x": 378,
      "y": 283,
      "size": 1,
      "price": "4683000000000000000000",
      "reserved": "",
      "salt": "0x50fc543f10f928051bb99e52ce51030b68b96a522349b7d2437f1c9d19637445",
      "assetIds": [
        "41506478881403507969696680653240014914910929820314476107906210059990541021189"
      ]
    },
    {
      "x": 378,
      "y": 284,
      "size": 1,
      "price": "4683000000000000000000",
      "reserved": "",
      "salt": "0x24f9e36bd437bf0aa82e7ac1911b8c7e798d0e335299f06891af55c9064aed77",
      "assetIds": [
        "41506478881403507969696680653240014914910929820314476107906210059990541021188"
      ]
    },
    {
      "x": 378,
      "y": 288,
      "size": 1,
      "price": "4683000000000000000000",
      "reserved": "",
      "salt": "0x622a5fdea3de6ceb9973cd0fa4545d56d27dbc7736c43b4302cd0c3b88481b26",
      "assetIds": [
        "41506478881403507969696680653240014914910929820314476107906210059990532622336"
      ]
    },
    {
      "x": 378,
      "y": 289,
      "size": 1,
      "price": "4683000000000000000000",
      "reserved": "",
      "salt": "0x0ec6cf2c902d352336e52acd0dc3fe681eb5cc4e864dade8c51822cfd1a9c92b",
      "assetIds": [
        "41506478881403507969696680653240014914910929820314476107906210059990541021187"
      ]
    },
    {
      "x": 378,
      "y": 290,
      "size": 1,
      "price": "4683000000000000000000",
      "reserved": "",
      "salt": "0x7c4a0ce9fbb735e39655cc1a2b69d3185a0da451d42e272e0bf583dd2d66d923",
      "assetIds": [
        "41506478881403507969696680653240014914910929820314476107906210059990541021187"
      ]
    },
    {
      "x": 378,
      "y": 300,
      "size": 1,
      "price": "4683000000000000000000",
      "reserved": "",
      "salt": "0xeef42ff05787b62550f530a672190342412b53e06f7a597f5f7390367c12db5b",
      "assetIds": [
        "41506478881403507969696680653240014914910929820314476107906210059990541021189"
      ]
    },
    {
      "x": 378,
      "y": 301,
      "size": 1,
      "price": "4683000000000000000000",
      "reserved": "",
      "salt": "0xb9b26ff832e61c95e011131061b37f707cdab41b6702e6c2e65c448d4a9f795b",
      "assetIds": [
        "41506478881403507969696680653240014914910929820314476107906210059990541021187"
      ]
    },
    {
      "x": 378,
      "y": 302,
      "size": 1,
      "price": "4683000000000000000000",
      "reserved": "",
      "salt": "0x8bbaa8a0fe1cc69f7d6a7eb5b8c55e20c2fe3941a14e33829780637e466c79d1",
      "assetIds": [
        "41506478881403507969696680653240014914910929820314476107906210059990541021188"
      ]
    },
    {
      "x": 378,
      "y": 303,
      "size": 1,
      "price": "4683000000000000000000",
      "reserved": "",
      "salt": "0x44d454b8584873698df497b3920a589f80a08db55f90b46b5800b01be54bff8e",
      "assetIds": [
        "41506478881403507969696680653240014914910929820314476107906210059990541021185"
      ]
    },
    {
      "x": 378,
      "y": 304,
      "size": 1,
      "price": "4683000000000000000000",
      "reserved": "",
      "salt": "0x8d6e717548394a120d9c2aed6280d3ac14afebeb0a7a81d58ea4d0fec0204381",
      "assetIds": [
        "41506478881403507969696680653240014914910929820314476107906210059990541021185"
      ]
    },
    {
      "x": 378,
      "y": 305,
      "size": 1,
      "price": "4683000000000000000000",
      "reserved": "",
      "salt": "0x336fe12752e3bb8616038eef0aa51994724e03f7bd01e8b38737d6d00987f921",
      "assetIds": [
        "41506478881403507969696680653240014914910929820314476107906210059990541021188"
      ]
    },
    {
      "x": 379,
      "y": 228,
      "size": 1,
      "price": "4683000000000000000000",
      "reserved": "",
      "salt": "0x8cc13cf32c847c0fe97b2c8f2be19a994077551fbef57941d9644c439ae5369c",
      "assetIds": [
        "41506478881403507969696680653240014914910929820314476107906210059990541021184"
      ]
    },
    {
      "x": 379,
      "y": 229,
      "size": 1,
      "price": "4683000000000000000000",
      "reserved": "",
      "salt": "0x09d0b3dacfae28c9f8626641e3ebea9e4dbca8236b95cb3e887294bf1d2a4029",
      "assetIds": [
        "41506478881403507969696680653240014914910929820314476107906210059990532622336"
      ]
    },
    {
      "x": 379,
      "y": 230,
      "size": 1,
      "price": "4683000000000000000000",
      "reserved": "",
      "salt": "0x0d33a5ef42150f8b7c209410b19afbb04a55238df0d12778fa4ab5996a87caec",
      "assetIds": [
        "41506478881403507969696680653240014914910929820314476107906210059990541021188"
      ]
    },
    {
      "x": 379,
      "y": 234,
      "size": 1,
      "price": "4683000000000000000000",
      "reserved": "",
      "salt": "0x26eb47ac61de2157df1b6954a889937d771a5a786a5fe471614c37c593e70b00",
      "assetIds": [
        "41506478881403507969696680653240014914910929820314476107906210059990541021189"
      ]
    },
    {
      "x": 379,
      "y": 235,
      "size": 1,
      "price": "4683000000000000000000",
      "reserved": "",
      "salt": "0x97d256b54d441d38d8a8da7145761e671a69e02c2a43a6bd21a34057cb13cc01",
      "assetIds": [
        "41506478881403507969696680653240014914910929820314476107906210059990541021189"
      ]
    },
    {
      "x": 379,
      "y": 236,
      "size": 1,
      "price": "4683000000000000000000",
      "reserved": "",
      "salt": "0x605cd5b69c8865b2030b6a4f0f4683cf5bdb8245af423d0adeeb0c83e297e536",
      "assetIds": [
        "41506478881403507969696680653240014914910929820314476107906210059990541021184"
      ]
    },
    {
      "x": 379,
      "y": 237,
      "size": 1,
      "price": "4683000000000000000000",
      "reserved": "",
      "salt": "0x2b7564b306d052572def4f07d6f3592b27e575d9632b08a65d4226d2a2c5c76e",
      "assetIds": [
        "41506478881403507969696680653240014914910929820314476107906210059990541021188"
      ]
    },
    {
      "x": 379,
      "y": 238,
      "size": 1,
      "price": "4683000000000000000000",
      "reserved": "",
      "salt": "0xafb6e09364146c9ce2ef2238f3e2d30ab5e2f7ff7cf2ff70b3177d84b0b75fb5",
      "assetIds": [
        "41506478881403507969696680653240014914910929820314476107906210059990541021188"
      ]
    },
    {
      "x": 379,
      "y": 239,
      "size": 1,
      "price": "4683000000000000000000",
      "reserved": "",
      "salt": "0x4d5b16e0629033efee0c456f338cd3c207e618fa433cbee32a502ea22553aacb",
      "assetIds": [
        "41506478881403507969696680653240014914910929820314476107906210059990541021188"
      ]
    },
    {
      "x": 379,
      "y": 282,
      "size": 1,
      "price": "4683000000000000000000",
      "reserved": "",
      "salt": "0xe1f8b9d48757d27700768c1daa680ff3f0b2626812afb9e7edbe91a12973a818",
      "assetIds": [
        "41506478881403507969696680653240014914910929820314476107906210059990541021185"
      ]
    },
    {
      "x": 379,
      "y": 283,
      "size": 1,
      "price": "4683000000000000000000",
      "reserved": "",
      "salt": "0xfdd7321aaf836d9d23f8c5d1bb6c89a9ce51e73707441440ebfc7914f81a3fa2",
      "assetIds": [
        "41506478881403507969696680653240014914910929820314476107906210059990541021188"
      ]
    },
    {
      "x": 379,
      "y": 284,
      "size": 1,
      "price": "4683000000000000000000",
      "reserved": "",
      "salt": "0x5284cd8cce85418083ddd86b19d6b69cd296854f56db78b74a21ed00ab3f5548",
      "assetIds": [
        "41506478881403507969696680653240014914910929820314476107906210059990541021187"
      ]
    },
    {
      "x": 379,
      "y": 288,
      "size": 1,
      "price": "4683000000000000000000",
      "reserved": "",
      "salt": "0x43acb03a88437acf1de6dca093b5eb08def65b457de99e1ef45dd0ace473a344",
      "assetIds": [
        "41506478881403507969696680653240014914910929820314476107906210059990532622336"
      ]
    },
    {
      "x": 379,
      "y": 289,
      "size": 1,
      "price": "4683000000000000000000",
      "reserved": "",
      "salt": "0xcbdd7e827934b06302477be1fcfda4951db0dcd7fb8709348265acbe7921247e",
      "assetIds": [
        "41506478881403507969696680653240014914910929820314476107906210059990541021189"
      ]
    },
    {
      "x": 379,
      "y": 290,
      "size": 1,
      "price": "4683000000000000000000",
      "reserved": "",
      "salt": "0xabeaf2be336a9d298481606c130effed2b86dffed764474ff1c4c452d5e5663f",
      "assetIds": [
        "41506478881403507969696680653240014914910929820314476107906210059990541021188"
      ]
    },
    {
      "x": 379,
      "y": 300,
      "size": 1,
      "price": "4683000000000000000000",
      "reserved": "",
      "salt": "0x31221f3d88682bbcbb91572c8ba12b9111902589fce2397cc5d9dcd8b3eb82b8",
      "assetIds": [
        "41506478881403507969696680653240014914910929820314476107906210059990541021188"
      ]
    },
    {
      "x": 379,
      "y": 301,
      "size": 1,
      "price": "4683000000000000000000",
      "reserved": "",
      "salt": "0x75f2d321efb16f2a338d5f904bbb06ec88d4b7b1cff87789bfc5d0e654582a5d",
      "assetIds": [
        "41506478881403507969696680653240014914910929820314476107906210059990541021184"
      ]
    },
    {
      "x": 379,
      "y": 302,
      "size": 1,
      "price": "4683000000000000000000",
      "reserved": "",
      "salt": "0x4b76c811dc264c246e3c1c602ce51757d97a8149ee91625c2063746395484f7b",
      "assetIds": [
        "41506478881403507969696680653240014914910929820314476107906210059990541021187"
      ]
    },
    {
      "x": 379,
      "y": 303,
      "size": 1,
      "price": "4683000000000000000000",
      "reserved": "",
      "salt": "0xcee92975eb369fed59ad583e941aab036909482512f8459797238413ccfc3ec6",
      "assetIds": [
        "41506478881403507969696680653240014914910929820314476107906210059990541021189"
      ]
    },
    {
      "x": 379,
      "y": 304,
      "size": 1,
      "price": "4683000000000000000000",
      "reserved": "",
      "salt": "0x68c71ff977e796c89668bb2ef71034a8f783cf63b12b6487a497f02e6c98ddae",
      "assetIds": [
        "41506478881403507969696680653240014914910929820314476107906210059990541021186"
      ]
    },
    {
      "x": 379,
      "y": 305,
      "size": 1,
      "price": "4683000000000000000000",
      "reserved": "",
      "salt": "0xab3fc8309b23c9a37681ddb05031adeb411a0b8c87c92deb9ab7e3ab5aae9f7e",
      "assetIds": [
        "41506478881403507969696680653240014914910929820314476107906210059990541021187"
      ]
    },
    {
      "x": 380,
      "y": 228,
      "size": 1,
      "price": "4683000000000000000000",
      "reserved": "",
      "salt": "0x130e57437210d9925e91b7e4a34d94d0be228fea1b53cee23befd73819b63d93",
      "assetIds": [
        "41506478881403507969696680653240014914910929820314476107906210059990541021187"
      ]
    },
    {
      "x": 380,
      "y": 229,
      "size": 1,
      "price": "4683000000000000000000",
      "reserved": "",
      "salt": "0xa90d8267f042495f33b4046f6e7c3ce85520edf4d8151549931e7dd187ff8c1b",
      "assetIds": [
        "41506478881403507969696680653240014914910929820314476107906210059990541021185"
      ]
    },
    {
      "x": 380,
      "y": 230,
      "size": 1,
      "price": "4683000000000000000000",
      "reserved": "",
      "salt": "0xa3e0215e618dfb09d1b0188a7673d24aea46cf5c38c59d24cf8c7a65adefc906",
      "assetIds": [
        "41506478881403507969696680653240014914910929820314476107906210059990541021188"
      ]
    },
    {
      "x": 380,
      "y": 234,
      "size": 1,
      "price": "4683000000000000000000",
      "reserved": "",
      "salt": "0x5f13cce269b195612fe77c1c8cc226e56acb50b2d9085109008a3987d2ea93d1",
      "assetIds": [
        "41506478881403507969696680653240014914910929820314476107906210059990541021185"
      ]
    },
    {
      "x": 380,
      "y": 235,
      "size": 1,
      "price": "4683000000000000000000",
      "reserved": "",
      "salt": "0x1153c013490cd3026d22acb238919bdd4393eb1cfecc3c412ef7b5596bd4823e",
      "assetIds": [
        "41506478881403507969696680653240014914910929820314476107906210059990541021189"
      ]
    },
    {
      "x": 380,
      "y": 236,
      "size": 1,
      "price": "4683000000000000000000",
      "reserved": "",
      "salt": "0x180ab65ebd5db9560497861b5f3a4183f38cace1964748bbd7857c80f8578de0",
      "assetIds": [
        "41506478881403507969696680653240014914910929820314476107906210059990541021188"
      ]
    },
    {
      "x": 380,
      "y": 237,
      "size": 1,
      "price": "4683000000000000000000",
      "reserved": "",
      "salt": "0xc48ed34f5b0d9d302e87995d7928c805af1f6b63f94f952d09223ece8deffa1f",
      "assetIds": [
        "41506478881403507969696680653240014914910929820314476107906210059990541021186"
      ]
    },
    {
      "x": 380,
      "y": 238,
      "size": 1,
      "price": "4683000000000000000000",
      "reserved": "",
      "salt": "0x408c8863f0a244ac41d24b9d663b3c6956c55ce5f67266e4609dc98c4dcfec76",
      "assetIds": [
        "41506478881403507969696680653240014914910929820314476107906210059990541021187"
      ]
    },
    {
      "x": 380,
      "y": 239,
      "size": 1,
      "price": "4683000000000000000000",
      "reserved": "",
      "salt": "0x768cf2ea6379b15baec3e9ffb30affd804748daf4a8ed9ef8618ee087212724b",
      "assetIds": [
        "41506478881403507969696680653240014914910929820314476107906210059990541021188"
      ]
    },
    {
      "x": 380,
      "y": 282,
      "size": 1,
      "price": "4683000000000000000000",
      "reserved": "",
      "salt": "0x455b371b6a3ee74d67db56da4b85ce05e3141ef283a5e758cf7d2b2cfd6be937",
      "assetIds": [
        "41506478881403507969696680653240014914910929820314476107906210059990541021189"
      ]
    },
    {
      "x": 380,
      "y": 283,
      "size": 1,
      "price": "4683000000000000000000",
      "reserved": "",
      "salt": "0xb439cf43a5e7c1642745d65725f1bb28db37d4e80c225bc30524a34cd69f92c6",
      "assetIds": [
        "41506478881403507969696680653240014914910929820314476107906210059990541021188"
      ]
    },
    {
      "x": 380,
      "y": 284,
      "size": 1,
      "price": "4683000000000000000000",
      "reserved": "",
      "salt": "0xaaead858121fe98a1d55006edbea4da9efff025198ed2f1e0fe2574c3ad08ae8",
      "assetIds": [
        "41506478881403507969696680653240014914910929820314476107906210059990541021186"
      ]
    },
    {
      "x": 380,
      "y": 288,
      "size": 1,
      "price": "4683000000000000000000",
      "reserved": "",
      "salt": "0x55391374d2dbcb2240e65ee86b7a9893fb3f7c5659e9cf2b5b8e770bff7cbaf8",
      "assetIds": [
        "41506478881403507969696680653240014914910929820314476107906210059990541021187"
      ]
    },
    {
      "x": 380,
      "y": 289,
      "size": 1,
      "price": "4683000000000000000000",
      "reserved": "",
      "salt": "0x5c9cb7198d71856c504d08f9dae59b418b24e9c131f6ca3ef1224dc5c53efeb9",
      "assetIds": [
        "41506478881403507969696680653240014914910929820314476107906210059990541021187"
      ]
    },
    {
      "x": 380,
      "y": 290,
      "size": 1,
      "price": "4683000000000000000000",
      "reserved": "",
      "salt": "0x8e1ee2fd68dc94188841dc783361a69f2c2d5938b1b79cdbbe301f5ae6410931",
      "assetIds": [
        "41506478881403507969696680653240014914910929820314476107906210059990541021189"
      ]
    },
    {
      "x": 380,
      "y": 300,
      "size": 1,
      "price": "4683000000000000000000",
      "reserved": "",
      "salt": "0x9f27b3028afeac94ffac2c7328bfc43fc48b65e31bcdcd38748e5856b3f52157",
      "assetIds": [
        "41506478881403507969696680653240014914910929820314476107906210059990532622336"
      ]
    },
    {
      "x": 380,
      "y": 301,
      "size": 1,
      "price": "4683000000000000000000",
      "reserved": "",
      "salt": "0x8f76812ea463a78344d608f2bcd49801398bdbf97009a35700ba294380b293f3",
      "assetIds": [
        "41506478881403507969696680653240014914910929820314476107906210059990541021186"
      ]
    },
    {
      "x": 380,
      "y": 302,
      "size": 1,
      "price": "1011000000000000000000",
      "reserved": "0x7a9fe22691c811ea339d9b73150e6911a5343dca",
      "salt": "0x76cc82472a48bab28293711c25a3a8f8d1bf42c3f1f7a237aafc6cf9f2c6315a",
      "assetIds": []
    },
    {
      "x": 380,
      "y": 303,
      "size": 1,
      "price": "4683000000000000000000",
      "reserved": "",
      "salt": "0x28b3f19015b6cfb2152422494c6073c66e4b8163d1ccdd80aaa370135b0a95c2",
      "assetIds": [
        "41506478881403507969696680653240014914910929820314476107906210059990541021189"
      ]
    },
    {
      "x": 380,
      "y": 304,
      "size": 1,
      "price": "4683000000000000000000",
      "reserved": "",
      "salt": "0xdf74f58df4cdd68e82113fea358cc85e0ce2eac62778c3e54c1be8b4954fd413",
      "assetIds": [
        "41506478881403507969696680653240014914910929820314476107906210059990541021188"
      ]
    },
    {
      "x": 380,
      "y": 305,
      "size": 1,
      "price": "4683000000000000000000",
      "reserved": "",
      "salt": "0x9ecf0e41e84ddc549f33f293fe661b25878ee49ae333695d83b90adffd222ba7",
      "assetIds": [
        "41506478881403507969696680653240014914910929820314476107906210059990541021185"
      ]
    },
    {
      "x": 381,
      "y": 228,
      "size": 1,
      "price": "4683000000000000000000",
      "reserved": "",
      "salt": "0x912e48149e8d153bb5cc65cef7b4dbd0933835424e5ae3fe779ee36a8a80c467",
      "assetIds": [
        "41506478881403507969696680653240014914910929820314476107906210059990541021188"
      ]
    },
    {
      "x": 381,
      "y": 229,
      "size": 1,
      "price": "4683000000000000000000",
      "reserved": "",
      "salt": "0xcb34598f1945f90209e3ae9d82b41b893ec0e9dd03783b64aad328fa2a5fce91",
      "assetIds": [
        "41506478881403507969696680653240014914910929820314476107906210059990541021187"
      ]
    },
    {
      "x": 381,
      "y": 230,
      "size": 1,
      "price": "4683000000000000000000",
      "reserved": "",
      "salt": "0xf04557b2b44401ab95af755e3c9bc6f00a912a4bb0a807ba2e132cf51b5246b7",
      "assetIds": [
        "41506478881403507969696680653240014914910929820314476107906210059990541021188"
      ]
    },
    {
      "x": 381,
      "y": 231,
      "size": 1,
      "price": "4683000000000000000000",
      "reserved": "",
      "salt": "0xca377d442dea54215120397e4aefac50d0a946e8c6745bb046581eb761ad72eb",
      "assetIds": [
        "41506478881403507969696680653240014914910929820314476107906210059990541021189"
      ]
    },
    {
      "x": 381,
      "y": 232,
      "size": 1,
      "price": "4683000000000000000000",
      "reserved": "",
      "salt": "0x1b15c255899418678be5d4d0a880a8477057f6776e4bac76d0a732f1f8fe62d1",
      "assetIds": [
        "41506478881403507969696680653240014914910929820314476107906210059990541021188"
      ]
    },
    {
      "x": 381,
      "y": 233,
      "size": 1,
      "price": "4683000000000000000000",
      "reserved": "",
      "salt": "0x824f0ccbc27130426997f0a163fa384c4f49501c70bfdc356b87e5c0a4afb823",
      "assetIds": [
        "41506478881403507969696680653240014914910929820314476107906210059990541021188"
      ]
    },
    {
      "x": 381,
      "y": 234,
      "size": 1,
      "price": "4683000000000000000000",
      "reserved": "",
      "salt": "0xb1ae18c9c1572684880cc51fd1dde0249b6cd3ef3292d36d3521c4a8180e164b",
      "assetIds": [
        "41506478881403507969696680653240014914910929820314476107906210059990541021188"
      ]
    },
    {
      "x": 381,
      "y": 235,
      "size": 1,
      "price": "4683000000000000000000",
      "reserved": "",
      "salt": "0x2c633864f2a8708d9095adb84b56304b5555dd4a7291ddb2d3d7931cf8936037",
      "assetIds": [
        "41506478881403507969696680653240014914910929820314476107906210059990541021188"
      ]
    },
    {
      "x": 381,
      "y": 236,
      "size": 1,
      "price": "1011000000000000000000",
      "reserved": "0x7a9fe22691c811ea339d9b73150e6911a5343dca",
      "salt": "0xc76e0201b09b38e43dd63470903865b4aa0d048c5e144379c97b76d4ac84830c",
      "assetIds": []
    },
    {
      "x": 381,
      "y": 237,
      "size": 1,
      "price": "4683000000000000000000",
      "reserved": "",
      "salt": "0xb77313a6f0149d64840e4df8b01a415f112ca5b171d104d91e187e2aa5273804",
      "assetIds": [
        "41506478881403507969696680653240014914910929820314476107906210059990541021187"
      ]
    },
    {
      "x": 381,
      "y": 238,
      "size": 1,
      "price": "4683000000000000000000",
      "reserved": "",
      "salt": "0x61a867d44021933ef9047d494da885afe1440145fef895244ba6e8dacc742e74",
      "assetIds": [
        "41506478881403507969696680653240014914910929820314476107906210059990541021185"
      ]
    },
    {
      "x": 381,
      "y": 239,
      "size": 1,
      "price": "4683000000000000000000",
      "reserved": "",
      "salt": "0xa4467e59b61dc4108ad942d363d8045a3ac684451a0fe7257a24d3aa7f4f9fad",
      "assetIds": [
        "41506478881403507969696680653240014914910929820314476107906210059990541021189"
      ]
    },
    {
      "x": 381,
      "y": 282,
      "size": 1,
      "price": "4683000000000000000000",
      "reserved": "",
      "salt": "0x9312573cf5bcda2dce8528b28ae4a157db61c5dc669913a8fc24cbd3e9719b8a",
      "assetIds": [
        "41506478881403507969696680653240014914910929820314476107906210059990541021189"
      ]
    },
    {
      "x": 381,
      "y": 283,
      "size": 1,
      "price": "4683000000000000000000",
      "reserved": "",
      "salt": "0x87aee2157e75979665eabcef48fcb7050f21ea4d58b9ccff67c59e927fa601df",
      "assetIds": [
        "41506478881403507969696680653240014914910929820314476107906210059990541021184"
      ]
    },
    {
      "x": 381,
      "y": 284,
      "size": 1,
      "price": "4683000000000000000000",
      "reserved": "",
      "salt": "0xf3acfa671920006183710d522dea045daddf60a003ef627091a1056e0d705eb0",
      "assetIds": [
        "41506478881403507969696680653240014914910929820314476107906210059990541021189"
      ]
    },
    {
      "x": 381,
      "y": 288,
      "size": 1,
      "price": "4683000000000000000000",
      "reserved": "",
      "salt": "0xb00b5a89b3802b92f771ea5b6c7e5fe8847d9cd4070af94edeb27f440b920300",
      "assetIds": [
        "41506478881403507969696680653240014914910929820314476107906210059990541021188"
      ]
    },
    {
      "x": 381,
      "y": 289,
      "size": 1,
      "price": "4683000000000000000000",
      "reserved": "",
      "salt": "0x16b5a5807883f361702e5ceba0e5e3f563c1c2a55890bb901bc36dcb68ce18f5",
      "assetIds": [
        "41506478881403507969696680653240014914910929820314476107906210059990541021189"
      ]
    },
    {
      "x": 381,
      "y": 290,
      "size": 1,
      "price": "4683000000000000000000",
      "reserved": "",
      "salt": "0x2db42a4c8600312d1ae3243ec4211f079e87b15832acb9b6b7b3ae1d4f80600a",
      "assetIds": [
        "41506478881403507969696680653240014914910929820314476107906210059990541021188"
      ]
    },
    {
      "x": 381,
      "y": 291,
      "size": 1,
      "price": "4683000000000000000000",
      "reserved": "",
      "salt": "0xb2337a9c2521bd05575a62e3460dd7180c416e00bb8d8546253f8413ff56004f",
      "assetIds": [
        "41506478881403507969696680653240014914910929820314476107906210059990541021189"
      ]
    },
    {
      "x": 381,
      "y": 292,
      "size": 1,
      "price": "4683000000000000000000",
      "reserved": "",
      "salt": "0x565cfe99452c7a7dab924ac1e9c5acb367fda255032a2bfd28841f417368da4e",
      "assetIds": [
        "41506478881403507969696680653240014914910929820314476107906210059990532622336"
      ]
    },
    {
      "x": 381,
      "y": 293,
      "size": 1,
      "price": "4683000000000000000000",
      "reserved": "",
      "salt": "0x02d8c45218c08c5966b5d82bef6beada24b662177f71413b1c4cfc07c15d32a4",
      "assetIds": [
        "41506478881403507969696680653240014914910929820314476107906210059990541021187"
      ]
    },
    {
      "x": 381,
      "y": 300,
      "size": 1,
      "price": "4683000000000000000000",
      "reserved": "",
      "salt": "0xa5af53d4f8ab47c0625fbf5af09c071c06b4fbe6dbeec21fd9e1d6e285ef832e",
      "assetIds": [
        "41506478881403507969696680653240014914910929820314476107906210059990541021185"
      ]
    },
    {
      "x": 381,
      "y": 301,
      "size": 1,
      "price": "4683000000000000000000",
      "reserved": "",
      "salt": "0x0d8005e155294979c151074b492f3cf7150ffd51330bb259f7b93c79ee406a94",
      "assetIds": [
        "41506478881403507969696680653240014914910929820314476107906210059990541021189"
      ]
    },
    {
      "x": 381,
      "y": 302,
      "size": 1,
      "price": "4683000000000000000000",
      "reserved": "",
      "salt": "0xdd69471549b9264c501fa7abb509b648102a475a49746dec0a8881308d03c342",
      "assetIds": [
        "41506478881403507969696680653240014914910929820314476107906210059990541021188"
      ]
    },
    {
      "x": 381,
      "y": 303,
      "size": 1,
      "price": "4683000000000000000000",
      "reserved": "",
      "salt": "0xabf11d3565d0808ed907ad1a60ed817f2d409f57a7dad3f4d9eb1d0d286392e3",
      "assetIds": [
        "41506478881403507969696680653240014914910929820314476107906210059990541021188"
      ]
    },
    {
      "x": 381,
      "y": 304,
      "size": 1,
      "price": "4683000000000000000000",
      "reserved": "",
      "salt": "0xe9eb19c2617331d229f9f628e8125a4b254c6171ab3e43e5f0b3f812c82cb365",
      "assetIds": [
        "41506478881403507969696680653240014914910929820314476107906210059990541021188"
      ]
    },
    {
      "x": 381,
      "y": 305,
      "size": 1,
      "price": "4683000000000000000000",
      "reserved": "",
      "salt": "0x997ee49e90c3aa9cdbc096c87ae549f4687904698a485fa7751e222d967182bc",
      "assetIds": [
        "41506478881403507969696680653240014914910929820314476107906210059990541021189"
      ]
    },
    {
      "x": 382,
      "y": 228,
      "size": 1,
      "price": "4683000000000000000000",
      "reserved": "",
      "salt": "0xcc1195cef2c55ad6578861482992481622d9572ba9ebbb394884b8e2c1bc8f61",
      "assetIds": [
        "41506478881403507969696680653240014914910929820314476107906210059990541021188"
      ]
    },
    {
      "x": 382,
      "y": 229,
      "size": 1,
      "price": "4683000000000000000000",
      "reserved": "",
      "salt": "0x9c827950710304e802dc28cec64f7e292a71f642b88bf3ba01899b6934ffc761",
      "assetIds": [
        "41506478881403507969696680653240014914910929820314476107906210059990541021187"
      ]
    },
    {
      "x": 382,
      "y": 230,
      "size": 1,
      "price": "4683000000000000000000",
      "reserved": "",
      "salt": "0x27f16d8445dadd5a32a9a2d35070c0f387f4df5a449f8d1976870a6700278e04",
      "assetIds": [
        "41506478881403507969696680653240014914910929820314476107906210059990541021188"
      ]
    },
    {
      "x": 382,
      "y": 231,
      "size": 1,
      "price": "4683000000000000000000",
      "reserved": "",
      "salt": "0x13887d478e29e2327a28225e496fede356948093eb9ec1d7aafafe5ec490b250",
      "assetIds": [
        "41506478881403507969696680653240014914910929820314476107906210059990541021189"
      ]
    },
    {
      "x": 382,
      "y": 232,
      "size": 1,
      "price": "4683000000000000000000",
      "reserved": "",
      "salt": "0x60044b53f9f756247aa85044a23b54b6923abe713e47433f9f610be14cd25078",
      "assetIds": [
        "41506478881403507969696680653240014914910929820314476107906210059990541021189"
      ]
    },
    {
      "x": 382,
      "y": 233,
      "size": 1,
      "price": "4683000000000000000000",
      "reserved": "",
      "salt": "0xb73a5c7dcdcdce788f993cd6289733a7b50792a58b92fb5d96948f74e9231330",
      "assetIds": [
        "41506478881403507969696680653240014914910929820314476107906210059990541021187"
      ]
    },
    {
      "x": 382,
      "y": 234,
      "size": 1,
      "price": "4683000000000000000000",
      "reserved": "",
      "salt": "0x115d4c414dce6a1da302ec2b3d9f1ea41e647d1a1e5bb6b0e4d5d66b788bdccb",
      "assetIds": [
        "41506478881403507969696680653240014914910929820314476107906210059990541021184"
      ]
    },
    {
      "x": 382,
      "y": 235,
      "size": 1,
      "price": "4683000000000000000000",
      "reserved": "",
      "salt": "0x374a4b1093c417d7fb60c64471b9e0f595a87c068b2a7e5970a5edab549d30af",
      "assetIds": [
        "41506478881403507969696680653240014914910929820314476107906210059990532622336"
      ]
    },
    {
      "x": 382,
      "y": 236,
      "size": 1,
      "price": "4683000000000000000000",
      "reserved": "",
      "salt": "0xc6ae0b436d19f6a8c816996c8be58fe693b8cd5bde44cecf2096665f5c7a72da",
      "assetIds": [
        "41506478881403507969696680653240014914910929820314476107906210059990532622336"
      ]
    },
    {
      "x": 382,
      "y": 237,
      "size": 1,
      "price": "4683000000000000000000",
      "reserved": "",
      "salt": "0xa9f9a1d5260cebc87c9b034343cc16a7a6d182c1e5a8b2418efd46a76a80e0da",
      "assetIds": [
        "41506478881403507969696680653240014914910929820314476107906210059990541021188"
      ]
    },
    {
      "x": 382,
      "y": 238,
      "size": 1,
      "price": "4683000000000000000000",
      "reserved": "",
      "salt": "0x008bd411ffce780fc37b8b24a93bef6c8fdde2da30835b13aaaece7648e5d593",
      "assetIds": [
        "41506478881403507969696680653240014914910929820314476107906210059990541021186"
      ]
    },
    {
      "x": 382,
      "y": 239,
      "size": 1,
      "price": "4683000000000000000000",
      "reserved": "",
      "salt": "0x1ea326e8429aaaee5f2dc348f2489b53799f6bb9b0207c1df819065ee32070be",
      "assetIds": [
        "41506478881403507969696680653240014914910929820314476107906210059990541021188"
      ]
    },
    {
      "x": 382,
      "y": 282,
      "size": 1,
      "price": "4683000000000000000000",
      "reserved": "",
      "salt": "0x9de98c4b2817723e78d015452c2ca03a584df47be21367d37b2b7b16a6bb964b",
      "assetIds": [
        "41506478881403507969696680653240014914910929820314476107906210059990541021187"
      ]
    },
    {
      "x": 382,
      "y": 283,
      "size": 1,
      "price": "1011000000000000000000",
      "reserved": "0x7a9fe22691c811ea339d9b73150e6911a5343dca",
      "salt": "0xf0b003facfb91ed05f8538429d15689c367701ee07c9338dacc35ec240909957",
      "assetIds": []
    },
    {
      "x": 382,
      "y": 284,
      "size": 1,
      "price": "4683000000000000000000",
      "reserved": "",
      "salt": "0x8ff72d4f7db720ace77df4129613903ec5bbdd4334ea8eb4b2cb2606bec2c28a",
      "assetIds": [
        "41506478881403507969696680653240014914910929820314476107906210059990541021189"
      ]
    },
    {
      "x": 382,
      "y": 288,
      "size": 1,
      "price": "4683000000000000000000",
      "reserved": "",
      "salt": "0xc75ded362f8e8795d5a8d73a991574d4cd2bfabbdaba25d2e8dafa1ec2a200a7",
      "assetIds": [
        "41506478881403507969696680653240014914910929820314476107906210059990541021189"
      ]
    },
    {
      "x": 382,
      "y": 289,
      "size": 1,
      "price": "4683000000000000000000",
      "reserved": "",
      "salt": "0xac874aa917efe291cc2909120159e4bdcca1c3b13b1a389864715fb0be892fae",
      "assetIds": [
        "41506478881403507969696680653240014914910929820314476107906210059990532622336"
      ]
    },
    {
      "x": 382,
      "y": 290,
      "size": 1,
      "price": "4683000000000000000000",
      "reserved": "",
      "salt": "0x929b184e4e568e90e6acf243c45663eed6682d5e360b680926632a44a0e08166",
      "assetIds": [
        "41506478881403507969696680653240014914910929820314476107906210059990541021184"
      ]
    },
    {
      "x": 382,
      "y": 291,
      "size": 1,
      "price": "4683000000000000000000",
      "reserved": "",
      "salt": "0x2bef6ae8fdae7449f94a0492e4c7dfa8191f396995f5f13e0ac2cea2ed3b28b0",
      "assetIds": [
        "41506478881403507969696680653240014914910929820314476107906210059990541021184"
      ]
    },
    {
      "x": 382,
      "y": 292,
      "size": 1,
      "price": "4683000000000000000000",
      "reserved": "",
      "salt": "0x4d6721da27e6e347b5f38f94a01139b0cce535b57b4acf28cbfcc5822966429b",
      "assetIds": [
        "41506478881403507969696680653240014914910929820314476107906210059990541021188"
      ]
    },
    {
      "x": 382,
      "y": 293,
      "size": 1,
      "price": "4683000000000000000000",
      "reserved": "",
      "salt": "0xd2f5e4993facddd18c33e4ee484aef3b8957cd59c11a9081f2bf5f6e0be777da",
      "assetIds": [
        "41506478881403507969696680653240014914910929820314476107906210059990532622336"
      ]
    },
    {
      "x": 382,
      "y": 300,
      "size": 1,
      "price": "4683000000000000000000",
      "reserved": "",
      "salt": "0xb26c0bd2c6817801888c867ae41226debd15d97f493a91a659bb78281a521f8a",
      "assetIds": [
        "41506478881403507969696680653240014914910929820314476107906210059990541021189"
      ]
    },
    {
      "x": 382,
      "y": 301,
      "size": 1,
      "price": "4683000000000000000000",
      "reserved": "",
      "salt": "0xbe6a35e43721f4d3c97125e176cdefc47d597e50073c99d3d3580287589eb477",
      "assetIds": [
        "41506478881403507969696680653240014914910929820314476107906210059990541021187"
      ]
    },
    {
      "x": 382,
      "y": 302,
      "size": 1,
      "price": "4683000000000000000000",
      "reserved": "",
      "salt": "0x4f0f930b180d61ed0f4a74a2631a20475db4d82656b04c50b0456d8d422fe2ce",
      "assetIds": [
        "41506478881403507969696680653240014914910929820314476107906210059990541021186"
      ]
    },
    {
      "x": 382,
      "y": 303,
      "size": 1,
      "price": "4683000000000000000000",
      "reserved": "",
      "salt": "0x22825a401dcb49c79869ca9133d8b1db1ec83e19a2f169a1c182bebe090d18ad",
      "assetIds": [
        "41506478881403507969696680653240014914910929820314476107906210059990541021184"
      ]
    },
    {
      "x": 382,
      "y": 304,
      "size": 1,
      "price": "4683000000000000000000",
      "reserved": "",
      "salt": "0x74e43303ba52d074d025603f299d5e0f17630341e27459ea86a5c53384fc6fb5",
      "assetIds": [
        "41506478881403507969696680653240014914910929820314476107906210059990541021188"
      ]
    },
    {
      "x": 382,
      "y": 305,
      "size": 1,
      "price": "4683000000000000000000",
      "reserved": "",
      "salt": "0x3d556b0ab36b1f35fba7ce4306921e29c42bdea0d0443f23024c5c2a2994e92f",
      "assetIds": [
        "41506478881403507969696680653240014914910929820314476107906210059990541021189"
      ]
    },
    {
      "x": 383,
      "y": 228,
      "size": 1,
      "price": "4683000000000000000000",
      "reserved": "",
      "salt": "0x5e1be970f133fdff161b4f5d54ca319eb3a5cb4bb4d29320db21f32d3317baa3",
      "assetIds": [
        "41506478881403507969696680653240014914910929820314476107906210059990532622336"
      ]
    },
    {
      "x": 383,
      "y": 229,
      "size": 1,
      "price": "4683000000000000000000",
      "reserved": "",
      "salt": "0x0e39a32c4995dd8111dacef989ae0ed9eed3bb8ceb14dd2f2cfe02b7a842a2cd",
      "assetIds": [
        "41506478881403507969696680653240014914910929820314476107906210059990541021188"
      ]
    },
    {
      "x": 383,
      "y": 230,
      "size": 1,
      "price": "4683000000000000000000",
      "reserved": "",
      "salt": "0x0cab1f06f826ae2d44f1e11b198d44d90301dab40f9428dedb4dc1df9e4edc6e",
      "assetIds": [
        "41506478881403507969696680653240014914910929820314476107906210059990541021184"
      ]
    },
    {
      "x": 383,
      "y": 231,
      "size": 1,
      "price": "4683000000000000000000",
      "reserved": "",
      "salt": "0x73e0bc5d4574a2d2b8960511334026ce73133dbb2b1ac77419ba9b3c5af672a6",
      "assetIds": [
        "41506478881403507969696680653240014914910929820314476107906210059990541021187"
      ]
    },
    {
      "x": 383,
      "y": 232,
      "size": 1,
      "price": "4683000000000000000000",
      "reserved": "",
      "salt": "0x5313928e3f502729cf35779ebf950a301cff919035b1ab460fad6e3cff875b8d",
      "assetIds": [
        "41506478881403507969696680653240014914910929820314476107906210059990541021189"
      ]
    },
    {
      "x": 383,
      "y": 233,
      "size": 1,
      "price": "4683000000000000000000",
      "reserved": "",
      "salt": "0x51790fafac9ad04039158342d5d5fe8997e2588660c33914173281d637e57597",
      "assetIds": [
        "41506478881403507969696680653240014914910929820314476107906210059990541021189"
      ]
    },
    {
      "x": 383,
      "y": 234,
      "size": 1,
      "price": "4683000000000000000000",
      "reserved": "",
      "salt": "0x0457187af9a15c24b98f941a0ad93833156dd406de47b3b178b0934e7e830e0b",
      "assetIds": [
        "41506478881403507969696680653240014914910929820314476107906210059990532622336"
      ]
    },
    {
      "x": 383,
      "y": 235,
      "size": 1,
      "price": "4683000000000000000000",
      "reserved": "",
      "salt": "0xfd1bcd050a4b4d76b746c6ab4bebad08724dcdf5739ce80950c4a3d7546b129e",
      "assetIds": [
        "41506478881403507969696680653240014914910929820314476107906210059990541021187"
      ]
    },
    {
      "x": 383,
      "y": 236,
      "size": 1,
      "price": "4683000000000000000000",
      "reserved": "",
      "salt": "0x4a9a223e6ae98984b48eb3fdd06b718acae50beb36432b865d9084fde016a11d",
      "assetIds": [
        "41506478881403507969696680653240014914910929820314476107906210059990541021188"
      ]
    },
    {
      "x": 383,
      "y": 237,
      "size": 1,
      "price": "4683000000000000000000",
      "reserved": "",
      "salt": "0xecc4e848b05209e29205c9cebef7c4a7fd1420abb8d991b2b2ba68ccdbd4d46d",
      "assetIds": [
        "41506478881403507969696680653240014914910929820314476107906210059990541021187"
      ]
    },
    {
      "x": 383,
      "y": 238,
      "size": 1,
      "price": "4683000000000000000000",
      "reserved": "",
      "salt": "0x6d0a2e11f1b9e77c6884187ec316fa5d3cef11a19f5d89f04891e9a4ee918dcb",
      "assetIds": [
        "41506478881403507969696680653240014914910929820314476107906210059990541021188"
      ]
    },
    {
      "x": 383,
      "y": 239,
      "size": 1,
      "price": "4683000000000000000000",
      "reserved": "",
      "salt": "0xadec6b2b68915b00709ed5756a469b7dde7e8bedb068dfa8bdb9bc43ae1cc4ee",
      "assetIds": [
        "41506478881403507969696680653240014914910929820314476107906210059990541021184"
      ]
    },
    {
      "x": 383,
      "y": 282,
      "size": 1,
      "price": "4683000000000000000000",
      "reserved": "",
      "salt": "0x97b491b6045e3358e587d537b49e3ab95d72fb528c768960805b8b646caa1e46",
      "assetIds": [
        "41506478881403507969696680653240014914910929820314476107906210059990541021188"
      ]
    },
    {
      "x": 383,
      "y": 283,
      "size": 1,
      "price": "4683000000000000000000",
      "reserved": "",
      "salt": "0x33811daeaa84550a342a89fa2192cd53ecadeb9e82c7732378aa4ac99c35607d",
      "assetIds": [
        "41506478881403507969696680653240014914910929820314476107906210059990541021184"
      ]
    },
    {
      "x": 383,
      "y": 284,
      "size": 1,
      "price": "4683000000000000000000",
      "reserved": "",
      "salt": "0xbaf1c5b967714efe1456a4d15052d8905555c9e349a377f58d8f86f1fe0c7a96",
      "assetIds": [
        "41506478881403507969696680653240014914910929820314476107906210059990541021189"
      ]
    },
    {
      "x": 383,
      "y": 288,
      "size": 1,
      "price": "4683000000000000000000",
      "reserved": "",
      "salt": "0x79bfa559190573fa0954770c1b1438c821a3f20c86dab6a01058753df5822652",
      "assetIds": [
        "41506478881403507969696680653240014914910929820314476107906210059990541021184"
      ]
    },
    {
      "x": 383,
      "y": 289,
      "size": 1,
      "price": "4683000000000000000000",
      "reserved": "",
      "salt": "0x6860ae44dfc9e6635c16d9d169c2c19c8201920560c7cfb49329d82b640abfd1",
      "assetIds": [
        "41506478881403507969696680653240014914910929820314476107906210059990541021189"
      ]
    },
    {
      "x": 383,
      "y": 290,
      "size": 1,
      "price": "4683000000000000000000",
      "reserved": "",
      "salt": "0xf16bc956c9efc8fcacff1e6f06844c601ad4dbe57f3af0b4690cbfc30bd93c3f",
      "assetIds": [
        "41506478881403507969696680653240014914910929820314476107906210059990541021187"
      ]
    },
    {
      "x": 383,
      "y": 291,
      "size": 1,
      "price": "4683000000000000000000",
      "reserved": "",
      "salt": "0xddcd765ede93cfad8a3f1812c70fc83bae400e3d20bdd72a27e3ea917987f399",
      "assetIds": [
        "41506478881403507969696680653240014914910929820314476107906210059990541021187"
      ]
    },
    {
      "x": 383,
      "y": 292,
      "size": 1,
      "price": "4683000000000000000000",
      "reserved": "",
      "salt": "0x3996a27aeffe314e9b6a543bb23ebbe6e663a41224bea8ff3393b1ec298027d2",
      "assetIds": [
        "41506478881403507969696680653240014914910929820314476107906210059990541021186"
      ]
    },
    {
      "x": 383,
      "y": 293,
      "size": 1,
      "price": "4683000000000000000000",
      "reserved": "",
      "salt": "0x86179666cbb6a0650f8ab769850b57d56351b0d643b3c3b28f459c7980625ecc",
      "assetIds": [
        "41506478881403507969696680653240014914910929820314476107906210059990541021188"
      ]
    },
    {
      "x": 383,
      "y": 300,
      "size": 1,
      "price": "4683000000000000000000",
      "reserved": "",
      "salt": "0x5e5fb0e83cf20b0fa609078ccfa433e086f0ea8e40e668ce6a0877ae8c2e0e26",
      "assetIds": [
        "41506478881403507969696680653240014914910929820314476107906210059990541021184"
      ]
    },
    {
      "x": 383,
      "y": 301,
      "size": 1,
      "price": "4683000000000000000000",
      "reserved": "",
      "salt": "0xa0780aed83db78be1ad9ccf47d9d28ada45fb4fed5680cc01df98924f94ab986",
      "assetIds": [
        "41506478881403507969696680653240014914910929820314476107906210059990541021189"
      ]
    },
    {
      "x": 383,
      "y": 302,
      "size": 1,
      "price": "4683000000000000000000",
      "reserved": "",
      "salt": "0xe1cd935d475b93a0b538124a27aa80e6a7c37f100bb54556850cf14bb5a631c2",
      "assetIds": [
        "41506478881403507969696680653240014914910929820314476107906210059990541021188"
      ]
    },
    {
      "x": 383,
      "y": 303,
      "size": 1,
      "price": "4683000000000000000000",
      "reserved": "",
      "salt": "0xffe5d5f434f6796c90e7052e6ed5501fc0af391bead8925e018a7b65e6075a51",
      "assetIds": [
        "41506478881403507969696680653240014914910929820314476107906210059990541021189"
      ]
    },
    {
      "x": 383,
      "y": 304,
      "size": 1,
      "price": "4683000000000000000000",
      "reserved": "",
      "salt": "0x4ca8a1d498b154466a53ad144c5ddc47becf0120c9cd5eb46ede36b6559570a4",
      "assetIds": [
        "41506478881403507969696680653240014914910929820314476107906210059990541021189"
      ]
    },
    {
      "x": 383,
      "y": 305,
      "size": 1,
      "price": "4683000000000000000000",
      "reserved": "",
      "salt": "0xf8af3cd931e148b92658904193883090c919ab680b9e27d6603e90ab4bedb38e",
      "assetIds": [
        "41506478881403507969696680653240014914910929820314476107906210059990541021185"
      ]
    },
    {
      "x": 384,
      "y": 225,
      "size": 1,
      "price": "4683000000000000000000",
      "reserved": "",
      "salt": "0x12bf3d07b029565e5be3dd803a3f73270b53f93c04649bfd2d104e04959e37f2",
      "assetIds": [
        "41506478881403507969696680653240014914910929820314476107906210059990541021187"
      ]
    },
    {
      "x": 384,
      "y": 226,
      "size": 1,
      "price": "4683000000000000000000",
      "reserved": "",
      "salt": "0x71e6e89da42aed74745563f7a94175a727ef0292fb89c8ae9437a7f2809fbec9",
      "assetIds": [
        "41506478881403507969696680653240014914910929820314476107906210059990541021188"
      ]
    },
    {
      "x": 384,
      "y": 227,
      "size": 1,
      "price": "4683000000000000000000",
      "reserved": "",
      "salt": "0xe39b046dafe38edf6471b549447fa27566390c6de46fcda558b15ec731256a50",
      "assetIds": [
        "41506478881403507969696680653240014914910929820314476107906210059990541021187"
      ]
    },
    {
      "x": 384,
      "y": 228,
      "size": 1,
      "price": "4683000000000000000000",
      "reserved": "",
      "salt": "0xdea8d757591191116d86e356787c813ca9b44d361262eada6631fcda5f5f4784",
      "assetIds": [
        "41506478881403507969696680653240014914910929820314476107906210059990541021187"
      ]
    },
    {
      "x": 384,
      "y": 229,
      "size": 1,
      "price": "4683000000000000000000",
      "reserved": "",
      "salt": "0x5f4427ec77417e9f7af30621e524d73c948f1dffe8c59b207e940f3280f4140b",
      "assetIds": [
        "41506478881403507969696680653240014914910929820314476107906210059990541021187"
      ]
    },
    {
      "x": 384,
      "y": 230,
      "size": 1,
      "price": "4683000000000000000000",
      "reserved": "",
      "salt": "0xc9347671b081b0a46697c11f519b832b16ee36ba3ec86185b2015109a3da58ab",
      "assetIds": [
        "41506478881403507969696680653240014914910929820314476107906210059990541021186"
      ]
    },
    {
      "x": 384,
      "y": 231,
      "size": 1,
      "price": "4683000000000000000000",
      "reserved": "",
      "salt": "0xf3b634889358db793c1ca3847cfa50f6eed413f8ec1b65763a4e47c322f46d6c",
      "assetIds": [
        "41506478881403507969696680653240014914910929820314476107906210059990532622336"
      ]
    },
    {
      "x": 384,
      "y": 232,
      "size": 1,
      "price": "4683000000000000000000",
      "reserved": "",
      "salt": "0xda9ccd1d79d03ca7590efce741875f2d8cd53959997e3b8aee14046684880b53",
      "assetIds": [
        "41506478881403507969696680653240014914910929820314476107906210059990541021188"
      ]
    },
    {
      "x": 384,
      "y": 233,
      "size": 1,
      "price": "4683000000000000000000",
      "reserved": "",
      "salt": "0x9eb15f2f874cd1f3dae809318e8ecc7b4712f25a649a4efacfd43b0391db9a63",
      "assetIds": [
        "41506478881403507969696680653240014914910929820314476107906210059990541021189"
      ]
    },
    {
      "x": 384,
      "y": 234,
      "size": 1,
      "price": "4683000000000000000000",
      "reserved": "",
      "salt": "0x797422536fb86fd6030b500dba58d93524139e45c1a6a1c37a5bc82f5ac0fc9b",
      "assetIds": [
        "41506478881403507969696680653240014914910929820314476107906210059990541021187"
      ]
    },
    {
      "x": 384,
      "y": 235,
      "size": 1,
      "price": "4683000000000000000000",
      "reserved": "",
      "salt": "0x053338d57f781b5d1866a7ca5bf67e10d2e03a591f29031974c22d8bb3918f0c",
      "assetIds": [
        "41506478881403507969696680653240014914910929820314476107906210059990541021187"
      ]
    },
    {
      "x": 384,
      "y": 236,
      "size": 1,
      "price": "4683000000000000000000",
      "reserved": "",
      "salt": "0xb92d54114fc123543468c3d20095f4752a2e85a1c86ae340c94faa2960865918",
      "assetIds": [
        "41506478881403507969696680653240014914910929820314476107906210059990541021188"
      ]
    },
    {
      "x": 384,
      "y": 237,
      "size": 1,
      "price": "4683000000000000000000",
      "reserved": "",
      "salt": "0x975598512477a11f69955d9a673ec4236aa18be2650c6dcbecae5013c4a15d8b",
      "assetIds": [
        "41506478881403507969696680653240014914910929820314476107906210059990541021184"
      ]
    },
    {
      "x": 384,
      "y": 238,
      "size": 1,
      "price": "4683000000000000000000",
      "reserved": "",
      "salt": "0x8576fbf7714908ec3992c05a844dc0a27a5dbd84462cc934292255d8d32ef646",
      "assetIds": [
        "41506478881403507969696680653240014914910929820314476107906210059990532622336"
      ]
    },
    {
      "x": 384,
      "y": 239,
      "size": 1,
      "price": "4683000000000000000000",
      "reserved": "",
      "salt": "0xa2d9e103dfc8e91532963e100d3dcf2d19d44a6a63ee6eb889e74257291d3d2d",
      "assetIds": [
        "41506478881403507969696680653240014914910929820314476107906210059990541021187"
      ]
    },
    {
      "x": 384,
      "y": 255,
      "size": 1,
      "price": "4683000000000000000000",
      "reserved": "",
      "salt": "0x682846fb539c798d2baca6dd3276664ec566c7f09205454bf97c4c225e0e955f",
      "assetIds": [
        "41506478881403507969696680653240014914910929820314476107906210059990532622336"
      ]
    },
    {
      "x": 384,
      "y": 256,
      "size": 1,
      "price": "4683000000000000000000",
      "reserved": "",
      "salt": "0x5a1810e57cbca5e52e824cae206bb2592839f7f2a7d3dcb95a48dfd417e16576",
      "assetIds": [
        "41506478881403507969696680653240014914910929820314476107906210059990541021188"
      ]
    },
    {
      "x": 384,
      "y": 257,
      "size": 1,
      "price": "4683000000000000000000",
      "reserved": "",
      "salt": "0x9c408e6be23297a47fd3672503b5cbccba6b3d8835a12d6f4b8168d87db432c2",
      "assetIds": [
        "41506478881403507969696680653240014914910929820314476107906210059990541021188"
      ]
    },
    {
      "x": 384,
      "y": 294,
      "size": 1,
      "price": "4683000000000000000000",
      "reserved": "",
      "salt": "0x9b95dcfe6be456f7f6946f804c4ba36860bce04cc485aeb3b6178d7a5f9cd057",
      "assetIds": [
        "41506478881403507969696680653240014914910929820314476107906210059990541021189"
      ]
    },
    {
      "x": 384,
      "y": 295,
      "size": 1,
      "price": "4683000000000000000000",
      "reserved": "",
      "salt": "0x10952410dcc6ce4339956734f51dc1e5b334e447d77a108bf76d58f9b8300fa8",
      "assetIds": [
        "41506478881403507969696680653240014914910929820314476107906210059990541021189"
      ]
    },
    {
      "x": 384,
      "y": 296,
      "size": 1,
      "price": "4683000000000000000000",
      "reserved": "",
      "salt": "0x204851ea783a861a888ef6c15b7f67399eec95e2fec6812351b33b61c8acc6bc",
      "assetIds": [
        "41506478881403507969696680653240014914910929820314476107906210059990541021187"
      ]
    },
    {
      "x": 384,
      "y": 297,
      "size": 1,
      "price": "4683000000000000000000",
      "reserved": "",
      "salt": "0x25facf439efccc548a19d0579ac1eb226d5e6f9f260c3857e38a0338d0c6e628",
      "assetIds": [
        "41506478881403507969696680653240014914910929820314476107906210059990541021185"
      ]
    },
    {
      "x": 384,
      "y": 298,
      "size": 1,
      "price": "4683000000000000000000",
      "reserved": "",
      "salt": "0x7ba41aff23a729fd22c82cd95e2f9e1279a929da63f0edfacd4a51feecef7be0",
      "assetIds": [
        "41506478881403507969696680653240014914910929820314476107906210059990541021189"
      ]
    },
    {
      "x": 384,
      "y": 299,
      "size": 1,
      "price": "4683000000000000000000",
      "reserved": "",
      "salt": "0x6cc0a4b5d78ee6cde690c814a25b1af65b71946ac0b82883825fe7473dfa636c",
      "assetIds": [
        "41506478881403507969696680653240014914910929820314476107906210059990541021187"
      ]
    },
    {
      "x": 385,
      "y": 225,
      "size": 1,
      "price": "4683000000000000000000",
      "reserved": "",
      "salt": "0xf817bf21c521868d83355f5d5d59e0e7f860e6e9c612c9cda40866ccdbfcb7aa",
      "assetIds": [
        "41506478881403507969696680653240014914910929820314476107906210059990541021184"
      ]
    },
    {
      "x": 385,
      "y": 226,
      "size": 1,
      "price": "4683000000000000000000",
      "reserved": "",
      "salt": "0x021943d06401def904c037ddb3eb280f717cd28e35e16e811ad63018890e1192",
      "assetIds": [
        "41506478881403507969696680653240014914910929820314476107906210059990541021187"
      ]
    },
    {
      "x": 385,
      "y": 227,
      "size": 1,
      "price": "4683000000000000000000",
      "reserved": "",
      "salt": "0xce57da80c9f005d752a3b425510896c8bde7b7dd2180a1be96dbea8069fdbf45",
      "assetIds": [
        "41506478881403507969696680653240014914910929820314476107906210059990541021184"
      ]
    },
    {
      "x": 385,
      "y": 228,
      "size": 1,
      "price": "4683000000000000000000",
      "reserved": "",
      "salt": "0xe4e6bb90351601f2a3c500c659a8c0a8fe8c0b3d8ad4add1bf4f4ae894af8bf7",
      "assetIds": [
        "41506478881403507969696680653240014914910929820314476107906210059990541021187"
      ]
    },
    {
      "x": 385,
      "y": 229,
      "size": 1,
      "price": "1011000000000000000000",
      "reserved": "0x7a9fe22691c811ea339d9b73150e6911a5343dca",
      "salt": "0x05cc2577b614e691c1d27e852ab6355b6e79225f0047f842eaf350dc7ca83c0a",
      "assetIds": []
    },
    {
      "x": 385,
      "y": 230,
      "size": 1,
      "price": "4683000000000000000000",
      "reserved": "",
      "salt": "0x4c5c4d2ae93e7d45bd0f0993a371e305f37e7c8fee25801b7ff551b82c82a34b",
      "assetIds": [
        "41506478881403507969696680653240014914910929820314476107906210059990541021188"
      ]
    },
    {
      "x": 385,
      "y": 231,
      "size": 1,
      "price": "4683000000000000000000",
      "reserved": "",
      "salt": "0xe692a8e607059fc80ae1e2b3c5962d72e00d9bcb8031530017253ba10d445b34",
      "assetIds": [
        "41506478881403507969696680653240014914910929820314476107906210059990532622336"
      ]
    },
    {
      "x": 385,
      "y": 232,
      "size": 1,
      "price": "4683000000000000000000",
      "reserved": "",
      "salt": "0x971f95e0ab82c094b2504c6b19636eea220b1da86b4caf888016d723c9d9c015",
      "assetIds": [
        "41506478881403507969696680653240014914910929820314476107906210059990541021188"
      ]
    },
    {
      "x": 385,
      "y": 233,
      "size": 1,
      "price": "4683000000000000000000",
      "reserved": "",
      "salt": "0xc5d657020442057f1323718c02af1d94c2e75021c7063282e262cf4787c7162e",
      "assetIds": [
        "41506478881403507969696680653240014914910929820314476107906210059990541021186"
      ]
    },
    {
      "x": 385,
      "y": 234,
      "size": 1,
      "price": "4683000000000000000000",
      "reserved": "",
      "salt": "0x719dc19a384dc9d08a6cdb3d17e0f6e79efe37b366b918b1701b9931179c3963",
      "assetIds": [
        "41506478881403507969696680653240014914910929820314476107906210059990541021185"
      ]
    },
    {
      "x": 385,
      "y": 235,
      "size": 1,
      "price": "4683000000000000000000",
      "reserved": "",
      "salt": "0x68bca72843909bacc607e73a85681f828859b2d9a60879e5719caab895e688f9",
      "assetIds": [
        "41506478881403507969696680653240014914910929820314476107906210059990541021186"
      ]
    },
    {
      "x": 385,
      "y": 236,
      "size": 1,
      "price": "4683000000000000000000",
      "reserved": "",
      "salt": "0x37165d3faa66d55826376aba2d251301ba96812c3e3cd84e3b9141801a2e9ab0",
      "assetIds": [
        "41506478881403507969696680653240014914910929820314476107906210059990532622336"
      ]
    },
    {
      "x": 385,
      "y": 237,
      "size": 1,
      "price": "1011000000000000000000",
      "reserved": "0x7a9fe22691c811ea339d9b73150e6911a5343dca",
      "salt": "0xd02cddf1b55b002e1d92803fd774cecf2c10e9e1ffb317085becee521d119500",
      "assetIds": []
    },
    {
      "x": 385,
      "y": 238,
      "size": 1,
      "price": "4683000000000000000000",
      "reserved": "",
      "salt": "0x9a70aa5d3d5b85e0814e9660746e40ceb6ac96b0bc01d6d9e42b6a49d83bd6ec",
      "assetIds": [
        "41506478881403507969696680653240014914910929820314476107906210059990541021187"
      ]
    },
    {
      "x": 385,
      "y": 239,
      "size": 1,
      "price": "4683000000000000000000",
      "reserved": "",
      "salt": "0x78ca655b87712ccfe8306c02af526db795f1fcc8275415ebea5bfcd6ae1b8617",
      "assetIds": [
        "41506478881403507969696680653240014914910929820314476107906210059990541021188"
      ]
    },
    {
      "x": 385,
      "y": 255,
      "size": 1,
      "price": "4683000000000000000000",
      "reserved": "",
      "salt": "0x4a35e9ec9d5cb4551289014a197ba070a4555d858cf8a372e7b90f3472714908",
      "assetIds": [
        "41506478881403507969696680653240014914910929820314476107906210059990541021187"
      ]
    },
    {
      "x": 385,
      "y": 256,
      "size": 1,
      "price": "1011000000000000000000",
      "reserved": "0x7a9fe22691c811ea339d9b73150e6911a5343dca",
      "salt": "0x35ed12aba43dcd7466e16f99632283163aca60b0e80dcb3c148e9316069d8de9",
      "assetIds": []
    },
    {
      "x": 385,
      "y": 257,
      "size": 1,
      "price": "4683000000000000000000",
      "reserved": "",
      "salt": "0x5fed9ece5c75af2335e5497aafcb0a30dbe2c0a65163c4dc745589d27e5e4385",
      "assetIds": [
        "41506478881403507969696680653240014914910929820314476107906210059990541021187"
      ]
    },
    {
      "x": 385,
      "y": 294,
      "size": 1,
      "price": "4683000000000000000000",
      "reserved": "",
      "salt": "0xfebccad525c78a40242cbe6149a2e7f23164c0c9fe556e96e9b02038bf3c0da3",
      "assetIds": [
        "41506478881403507969696680653240014914910929820314476107906210059990541021189"
      ]
    },
    {
      "x": 385,
      "y": 295,
      "size": 1,
      "price": "4683000000000000000000",
      "reserved": "",
      "salt": "0x6f7bf13899ce1da57492f00e9177e3c9b7f62845a0afbb560cc686cdcb8aa4e4",
      "assetIds": [
        "41506478881403507969696680653240014914910929820314476107906210059990541021187"
      ]
    },
    {
      "x": 385,
      "y": 296,
      "size": 1,
      "price": "4683000000000000000000",
      "reserved": "",
      "salt": "0xb33a6657974582e5b477506009930ed603325b1e533c1517026a94c8c66296b3",
      "assetIds": [
        "41506478881403507969696680653240014914910929820314476107906210059990541021188"
      ]
    },
    {
      "x": 385,
      "y": 297,
      "size": 1,
      "price": "4683000000000000000000",
      "reserved": "",
      "salt": "0x4587ff07bc801c80d97464abb3def6c40c0d34a9a6d0182278496e093c167abe",
      "assetIds": [
        "41506478881403507969696680653240014914910929820314476107906210059990541021184"
      ]
    },
    {
      "x": 385,
      "y": 298,
      "size": 1,
      "price": "4683000000000000000000",
      "reserved": "",
      "salt": "0xf4d5458e2e4a81f33db6541c9eb53f1f16b77a347930132e1c9e4cabbb67cda8",
      "assetIds": [
        "41506478881403507969696680653240014914910929820314476107906210059990541021185"
      ]
    },
    {
      "x": 385,
      "y": 299,
      "size": 1,
      "price": "4683000000000000000000",
      "reserved": "",
      "salt": "0x228e160d8a91e71e4715fbc7f301ced5f125d76ec9c83c735123c9b248aaa034",
      "assetIds": [
        "41506478881403507969696680653240014914910929820314476107906210059990532622336"
      ]
    },
    {
      "x": 386,
      "y": 225,
      "size": 1,
      "price": "4683000000000000000000",
      "reserved": "",
      "salt": "0x99103259b92c5e397932e38761d4ab98dcf9ffddb150c406e3a4e3d4504755c7",
      "assetIds": [
        "41506478881403507969696680653240014914910929820314476107906210059990541021187"
      ]
    },
    {
      "x": 386,
      "y": 226,
      "size": 1,
      "price": "4683000000000000000000",
      "reserved": "",
      "salt": "0xa84af08e38abf8334fd6d40f6dda45df702fcfbb0b25a9515914d9261264c3a1",
      "assetIds": [
        "41506478881403507969696680653240014914910929820314476107906210059990541021184"
      ]
    },
    {
      "x": 386,
      "y": 227,
      "size": 1,
      "price": "4683000000000000000000",
      "reserved": "",
      "salt": "0x7ae1229590af77c457a1eb812e01e1fa12361b4f88282f4b244fbce3663cf5cd",
      "assetIds": [
        "41506478881403507969696680653240014914910929820314476107906210059990541021188"
      ]
    },
    {
      "x": 386,
      "y": 228,
      "size": 1,
      "price": "4683000000000000000000",
      "reserved": "",
      "salt": "0x373543c0daae8c9997759e34e2d5b8a5e9c693fb271b5e8430c176f8f652ce4a",
      "assetIds": [
        "41506478881403507969696680653240014914910929820314476107906210059990541021189"
      ]
    },
    {
      "x": 386,
      "y": 229,
      "size": 1,
      "price": "4683000000000000000000",
      "reserved": "",
      "salt": "0xb327e7a76a823225aeec98d5a772b9498a69a26737355db41e7db32b5803ed68",
      "assetIds": [
        "41506478881403507969696680653240014914910929820314476107906210059990541021187"
      ]
    },
    {
      "x": 386,
      "y": 230,
      "size": 1,
      "price": "4683000000000000000000",
      "reserved": "",
      "salt": "0x994f9717eeebef208524519b48bcdcc7d98ec41187c510e1f18f3f24a7969b17",
      "assetIds": [
        "41506478881403507969696680653240014914910929820314476107906210059990541021189"
      ]
    },
    {
      "x": 386,
      "y": 231,
      "size": 1,
      "price": "4683000000000000000000",
      "reserved": "",
      "salt": "0xbcab515ab65a49d34b921426e8187fde82c741d3c5e0c3927dc446bfaf0c76c0",
      "assetIds": [
        "41506478881403507969696680653240014914910929820314476107906210059990541021188"
      ]
    },
    {
      "x": 386,
      "y": 232,
      "size": 1,
      "price": "4683000000000000000000",
      "reserved": "",
      "salt": "0x9b49efaa25a5c83467b5b6a093522e369a918233445b77117be57f2e9150eaf3",
      "assetIds": [
        "41506478881403507969696680653240014914910929820314476107906210059990541021189"
      ]
    },
    {
      "x": 386,
      "y": 233,
      "size": 1,
      "price": "4683000000000000000000",
      "reserved": "",
      "salt": "0x92628b9dd6ad54f93ad971cdef750984b9b6860a44af55f3d0b3aefc3cd710d5",
      "assetIds": [
        "41506478881403507969696680653240014914910929820314476107906210059990541021187"
      ]
    },
    {
      "x": 386,
      "y": 234,
      "size": 1,
      "price": "4683000000000000000000",
      "reserved": "",
      "salt": "0x1485164607f244abe99a7c722b94e87bc7f49ccb9a8a7d4cc180069fae7954d7",
      "assetIds": [
        "41506478881403507969696680653240014914910929820314476107906210059990541021184"
      ]
    },
    {
      "x": 386,
      "y": 235,
      "size": 1,
      "price": "4683000000000000000000",
      "reserved": "",
      "salt": "0x0aba384fb6ee034c9d1a81c07e2db1e81c59134609eabdbaab95b703ad063d95",
      "assetIds": [
        "41506478881403507969696680653240014914910929820314476107906210059990541021188"
      ]
    },
    {
      "x": 386,
      "y": 236,
      "size": 1,
      "price": "4683000000000000000000",
      "reserved": "",
      "salt": "0x4b357b97823d608986756472305a4d4735a120448bb6b3e803ea728e4da160d7",
      "assetIds": [
        "41506478881403507969696680653240014914910929820314476107906210059990541021188"
      ]
    },
    {
      "x": 386,
      "y": 237,
      "size": 1,
      "price": "4683000000000000000000",
      "reserved": "",
      "salt": "0x983db02644388ab9a35d30580de235de9f71aba30de97171f0ba5fbc1d7c4747",
      "assetIds": [
        "41506478881403507969696680653240014914910929820314476107906210059990541021189"
      ]
    },
    {
      "x": 386,
      "y": 238,
      "size": 1,
      "price": "4683000000000000000000",
      "reserved": "",
      "salt": "0xc8025a7011579f424c0934cc2b486ea1f7736f7aba25958b268c1416cbb8818b",
      "assetIds": [
        "41506478881403507969696680653240014914910929820314476107906210059990541021186"
      ]
    },
    {
      "x": 386,
      "y": 239,
      "size": 1,
      "price": "4683000000000000000000",
      "reserved": "",
      "salt": "0x1c7896730807fd076c300326cfd95bded9f22718b962b775316fd64243eb375a",
      "assetIds": [
        "41506478881403507969696680653240014914910929820314476107906210059990541021187"
      ]
    },
    {
      "x": 386,
      "y": 255,
      "size": 1,
      "price": "4683000000000000000000",
      "reserved": "",
      "salt": "0xfeb4881e5040c7dc21fb0c8cee77773293e255a0501f0bc3dc798fec68f49a75",
      "assetIds": [
        "41506478881403507969696680653240014914910929820314476107906210059990541021185"
      ]
    },
    {
      "x": 386,
      "y": 256,
      "size": 1,
      "price": "4683000000000000000000",
      "reserved": "",
      "salt": "0xe824424c9c2a9db06c6871dfc970d148f6d59d650dfe49528e2f78997d234c55",
      "assetIds": [
        "41506478881403507969696680653240014914910929820314476107906210059990541021184"
      ]
    },
    {
      "x": 386,
      "y": 257,
      "size": 1,
      "price": "4683000000000000000000",
      "reserved": "",
      "salt": "0x5bc26e421130b230c0bf2ec1a11bbcb6348656c07e7fd1d54f469cd911de8e62",
      "assetIds": [
        "41506478881403507969696680653240014914910929820314476107906210059990541021186"
      ]
    },
    {
      "x": 386,
      "y": 294,
      "size": 1,
      "price": "4683000000000000000000",
      "reserved": "",
      "salt": "0xc141146a64ce6ef88e53b25ddb3147def889951e0f7705adba6939b9e3587811",
      "assetIds": [
        "41506478881403507969696680653240014914910929820314476107906210059990541021187"
      ]
    },
    {
      "x": 386,
      "y": 295,
      "size": 1,
      "price": "4683000000000000000000",
      "reserved": "",
      "salt": "0x537c147128f631796ab59ec0c83b050348b299dbebc75419c21aff03223b81ed",
      "assetIds": [
        "41506478881403507969696680653240014914910929820314476107906210059990541021184"
      ]
    },
    {
      "x": 386,
      "y": 296,
      "size": 1,
      "price": "4683000000000000000000",
      "reserved": "",
      "salt": "0xd203da78351a675a4e8606a92bd3f5886ea4657cc11c479694df494f21eac27e",
      "assetIds": [
        "41506478881403507969696680653240014914910929820314476107906210059990541021186"
      ]
    },
    {
      "x": 386,
      "y": 297,
      "size": 1,
      "price": "4683000000000000000000",
      "reserved": "",
      "salt": "0x74d4248fc056d66d49f0e964c67d5f6465ed1a58c4374f1be0381ad6396e0970",
      "assetIds": [
        "41506478881403507969696680653240014914910929820314476107906210059990541021189"
      ]
    },
    {
      "x": 386,
      "y": 298,
      "size": 1,
      "price": "4683000000000000000000",
      "reserved": "",
      "salt": "0x17d4ea21e7fd8e0cee32e3ed7b39f22b8231f119ad2204e644601cac42560d22",
      "assetIds": [
        "41506478881403507969696680653240014914910929820314476107906210059990541021188"
      ]
    },
    {
      "x": 386,
      "y": 299,
      "size": 1,
      "price": "4683000000000000000000",
      "reserved": "",
      "salt": "0x4f5549db4b0e211bd36c422dd5c2ef521f22dee4ade0f444128e745ec8e28790",
      "assetIds": [
        "41506478881403507969696680653240014914910929820314476107906210059990541021189"
      ]
    },
    {
      "x": 387,
      "y": 225,
      "size": 1,
      "price": "4683000000000000000000",
      "reserved": "",
      "salt": "0x63c5d06ccd0f369dc5c9c14bbec6dcd899f01facc35f2c2c1faf0d95abe1b1d8",
      "assetIds": [
        "41506478881403507969696680653240014914910929820314476107906210059990541021184"
      ]
    },
    {
      "x": 387,
      "y": 226,
      "size": 1,
      "price": "4683000000000000000000",
      "reserved": "",
      "salt": "0xe5e4f53814f973c4ff0710176e88e7b819706ae6f1149699bc56961cd3e55483",
      "assetIds": [
        "41506478881403507969696680653240014914910929820314476107906210059990532622336"
      ]
    },
    {
      "x": 387,
      "y": 227,
      "size": 1,
      "price": "4683000000000000000000",
      "reserved": "",
      "salt": "0xb10f1db6dc14311bd8726730d050e9dde1f72e4c2e26753e140133fa33c8a680",
      "assetIds": [
        "41506478881403507969696680653240014914910929820314476107906210059990541021187"
      ]
    },
    {
      "x": 387,
      "y": 228,
      "size": 1,
      "price": "4683000000000000000000",
      "reserved": "",
      "salt": "0x456f34bae062100dbc91a4b15f5b6567527db8ca0887adf9be4f997e11bc0cf5",
      "assetIds": [
        "41506478881403507969696680653240014914910929820314476107906210059990541021185"
      ]
    },
    {
      "x": 387,
      "y": 229,
      "size": 1,
      "price": "4683000000000000000000",
      "reserved": "",
      "salt": "0x5140c00248f0f48e4e9db9482abb16b4b2bde3cd6e62dbdcca27b6918fb14be5",
      "assetIds": [
        "41506478881403507969696680653240014914910929820314476107906210059990541021188"
      ]
    },
    {
      "x": 387,
      "y": 230,
      "size": 1,
      "price": "4683000000000000000000",
      "reserved": "",
      "salt": "0xb4eac0763d935fa996cd2332e1903e15f7505c17d0629ad7025b11a415f3b90c",
      "assetIds": [
        "41506478881403507969696680653240014914910929820314476107906210059990541021186"
      ]
    },
    {
      "x": 387,
      "y": 231,
      "size": 1,
      "price": "4683000000000000000000",
      "reserved": "",
      "salt": "0x6961d6040dc313b41c0b149f30bb727afcb119beaf6ad8b797a7cdd01eac6866",
      "assetIds": [
        "41506478881403507969696680653240014914910929820314476107906210059990541021186"
      ]
    },
    {
      "x": 387,
      "y": 232,
      "size": 1,
      "price": "4683000000000000000000",
      "reserved": "",
      "salt": "0x69749658d0bc5b6f7da8c1a6ae770d57dc9e90e91c05681d59e8b6a3a691c7ee",
      "assetIds": [
        "41506478881403507969696680653240014914910929820314476107906210059990541021187"
      ]
    },
    {
      "x": 387,
      "y": 233,
      "size": 1,
      "price": "4683000000000000000000",
      "reserved": "",
      "salt": "0x8e163432b94a2bbaaaf9b11ac816de34778f03e1838b6e4fe1e943d3a9c9ee7b",
      "assetIds": [
        "41506478881403507969696680653240014914910929820314476107906210059990541021185"
      ]
    },
    {
      "x": 387,
      "y": 234,
      "size": 1,
      "price": "4683000000000000000000",
      "reserved": "",
      "salt": "0x388454ddfb70e007d053318fefc0c4a4b72dffefe0bc9b79f15fd906443e7b44",
      "assetIds": [
        "41506478881403507969696680653240014914910929820314476107906210059990541021188"
      ]
    },
    {
      "x": 387,
      "y": 235,
      "size": 1,
      "price": "4683000000000000000000",
      "reserved": "",
      "salt": "0xe0743c38e9107fe07bf4a6c21f56e42b83be34efc0da1975b9a88be94254a111",
      "assetIds": [
        "41506478881403507969696680653240014914910929820314476107906210059990541021188"
      ]
    },
    {
      "x": 387,
      "y": 236,
      "size": 1,
      "price": "4683000000000000000000",
      "reserved": "",
      "salt": "0x6e875ef2249d2ca09ee0c48837fe059cbb204544891e45aa07158ec67958f50c",
      "assetIds": [
        "41506478881403507969696680653240014914910929820314476107906210059990532622336"
      ]
    },
    {
      "x": 387,
      "y": 237,
      "size": 1,
      "price": "4683000000000000000000",
      "reserved": "",
      "salt": "0xde766882427eff77c9da4df45d77da07f2d248cf528366a10cac8d6d7a54a888",
      "assetIds": [
        "41506478881403507969696680653240014914910929820314476107906210059990541021187"
      ]
    },
    {
      "x": 387,
      "y": 238,
      "size": 1,
      "price": "4683000000000000000000",
      "reserved": "",
      "salt": "0x38174a888d897dc257bc977c0e8cb0a9916441ae5350979ea45a34a2b7828830",
      "assetIds": [
        "41506478881403507969696680653240014914910929820314476107906210059990532622336"
      ]
    },
    {
      "x": 387,
      "y": 239,
      "size": 1,
      "price": "4683000000000000000000",
      "reserved": "",
      "salt": "0x6e49303b4ac77302c08cdfa362b7c340c6bfc2c53588ff00f9f9b2ef8f34cf09",
      "assetIds": [
        "41506478881403507969696680653240014914910929820314476107906210059990541021186"
      ]
    },
    {
      "x": 387,
      "y": 252,
      "size": 1,
      "price": "4683000000000000000000",
      "reserved": "",
      "salt": "0x65d7dc6cffe89c061e32f30d8fb15d76230ceb1b0c881c9a545894e52c8de757",
      "assetIds": [
        "41506478881403507969696680653240014914910929820314476107906210059990541021187"
      ]
    },
    {
      "x": 387,
      "y": 253,
      "size": 1,
      "price": "4683000000000000000000",
      "reserved": "",
      "salt": "0x4adbe9edd0e563be09d8eec2cc5142e504d88773971d18a4bb0b5eb059f97c57",
      "assetIds": [
        "41506478881403507969696680653240014914910929820314476107906210059990541021187"
      ]
    },
    {
      "x": 387,
      "y": 254,
      "size": 1,
      "price": "4683000000000000000000",
      "reserved": "",
      "salt": "0x00141e287485352cdefc60d3b917f8dd2dc908c7e0c75662cbe090a6a50fddfa",
      "assetIds": [
        "41506478881403507969696680653240014914910929820314476107906210059990541021187"
      ]
    },
    {
      "x": 387,
      "y": 255,
      "size": 1,
      "price": "4683000000000000000000",
      "reserved": "",
      "salt": "0x28b860a45ce45cbdaa4f67d04492b9159742d85046930a6f768bf72d8a23c7b9",
      "assetIds": [
        "41506478881403507969696680653240014914910929820314476107906210059990541021188"
      ]
    },
    {
      "x": 387,
      "y": 256,
      "size": 1,
      "price": "4683000000000000000000",
      "reserved": "",
      "salt": "0xca49cc81a7cc25bb1c9be4d291f917d83aae042ba9ea41d19baccf0494fe3483",
      "assetIds": [
        "41506478881403507969696680653240014914910929820314476107906210059990541021185"
      ]
    },
    {
      "x": 387,
      "y": 257,
      "size": 1,
      "price": "4683000000000000000000",
      "reserved": "",
      "salt": "0x4b352d769fc8ab5f6ea78e1fe25e485c6a15f2ccfef3ebc7b1d5ded027dfc0a4",
      "assetIds": [
        "41506478881403507969696680653240014914910929820314476107906210059990541021187"
      ]
    },
    {
      "x": 387,
      "y": 294,
      "size": 1,
      "price": "4683000000000000000000",
      "reserved": "",
      "salt": "0x2236ebdea994a8cb76085c95ee2207d203e690e6dfb8c516e0a83b0aa5129e91",
      "assetIds": [
        "41506478881403507969696680653240014914910929820314476107906210059990541021189"
      ]
    },
    {
      "x": 387,
      "y": 295,
      "size": 1,
      "price": "4683000000000000000000",
      "reserved": "",
      "salt": "0xe6028cc5cdff7a6690b937fd3d979eb68e1c12d147e538f069af8ef069edb1e3",
      "assetIds": [
        "41506478881403507969696680653240014914910929820314476107906210059990541021188"
      ]
    },
    {
      "x": 387,
      "y": 296,
      "size": 1,
      "price": "4683000000000000000000",
      "reserved": "",
      "salt": "0x59e1862fa692d29f1ab8ca7004b0e3c0b52da4082589116d5c3d91c74590f745",
      "assetIds": [
        "41506478881403507969696680653240014914910929820314476107906210059990541021188"
      ]
    },
    {
      "x": 387,
      "y": 297,
      "size": 1,
      "price": "4683000000000000000000",
      "reserved": "",
      "salt": "0x395f9f84c7ad47f60a92109cb3c6062daaba6d57d6ed20d5a47cbc3a93a7827d",
      "assetIds": [
        "41506478881403507969696680653240014914910929820314476107906210059990541021188"
      ]
    },
    {
      "x": 387,
      "y": 298,
      "size": 1,
      "price": "4683000000000000000000",
      "reserved": "",
      "salt": "0x803469fab8d2e3dfd8906494ae797feb8dcc99567598bb4db63e26deb1aceed7",
      "assetIds": [
        "41506478881403507969696680653240014914910929820314476107906210059990541021187"
      ]
    },
    {
      "x": 387,
      "y": 299,
      "size": 1,
      "price": "4683000000000000000000",
      "reserved": "",
      "salt": "0x2fe69283e5c54af7815cde1d98104121086c6dddc9cd35a7a9bc82bec3042c81",
      "assetIds": [
        "41506478881403507969696680653240014914910929820314476107906210059990541021189"
      ]
    },
    {
      "x": 387,
      "y": 306,
      "size": 1,
      "price": "4683000000000000000000",
      "reserved": "",
      "salt": "0x48979023e7f9a20b42bd857e277eee259fd8691b2fced59e531248f36b35312f",
      "assetIds": [
        "41506478881403507969696680653240014914910929820314476107906210059990532622336"
      ]
    },
    {
      "x": 387,
      "y": 307,
      "size": 1,
      "price": "4683000000000000000000",
      "reserved": "",
      "salt": "0x7202a823e62443106ed235c0f9c327b0d0c4543beb077b4dfe8865973ea5e862",
      "assetIds": [
        "41506478881403507969696680653240014914910929820314476107906210059990541021187"
      ]
    },
    {
      "x": 387,
      "y": 308,
      "size": 1,
      "price": "4683000000000000000000",
      "reserved": "",
      "salt": "0xddfe3699fa415bc69de0eb0899463d737f7cc4659f3efa4f859b9f200724d31d",
      "assetIds": [
        "41506478881403507969696680653240014914910929820314476107906210059990541021188"
      ]
    },
    {
      "x": 387,
      "y": 309,
      "size": 1,
      "price": "4683000000000000000000",
      "reserved": "",
      "salt": "0x0d3d2c883182805e5c1c4c2f926e169ed6bc91d26af96d2c9a57a10852664ef8",
      "assetIds": [
        "41506478881403507969696680653240014914910929820314476107906210059990541021186"
      ]
    },
    {
      "x": 387,
      "y": 310,
      "size": 1,
      "price": "4683000000000000000000",
      "reserved": "",
      "salt": "0x449b197b6cf30b26b493ce6f01d90a545da722c1b27b5ea2fd76c14886a264b1",
      "assetIds": [
        "41506478881403507969696680653240014914910929820314476107906210059990541021188"
      ]
    },
    {
      "x": 387,
      "y": 311,
      "size": 1,
      "price": "4683000000000000000000",
      "reserved": "",
      "salt": "0x0e0de76b899c3e40b5fb2efa4a0ead879aad487afd7dd085ddecd7ed9bad97c8",
      "assetIds": [
        "41506478881403507969696680653240014914910929820314476107906210059990541021186"
      ]
    },
    {
      "x": 388,
      "y": 225,
      "size": 1,
      "price": "4683000000000000000000",
      "reserved": "",
      "salt": "0xf567f6596142e26e4bb1cd8ccf3e17c2902ceacf283af63d1295b233c1d3d03c",
      "assetIds": [
        "41506478881403507969696680653240014914910929820314476107906210059990541021186"
      ]
    },
    {
      "x": 388,
      "y": 226,
      "size": 1,
      "price": "4683000000000000000000",
      "reserved": "",
      "salt": "0x50d358e1fabb04e7d68818c88b787b817c559c90b969f24adc123ad603dae6fe",
      "assetIds": [
        "41506478881403507969696680653240014914910929820314476107906210059990541021187"
      ]
    },
    {
      "x": 388,
      "y": 227,
      "size": 1,
      "price": "4683000000000000000000",
      "reserved": "",
      "salt": "0xef7206cfc641bc144276e12b9687c0006e11c6a564f4ed27508369f1539a405e",
      "assetIds": [
        "41506478881403507969696680653240014914910929820314476107906210059990541021185"
      ]
    },
    {
      "x": 388,
      "y": 228,
      "size": 1,
      "price": "4683000000000000000000",
      "reserved": "",
      "salt": "0xa500e142d164ee2bad411c94b41463d10d73cb66c1ce64b6d4eb84938471e9e2",
      "assetIds": [
        "41506478881403507969696680653240014914910929820314476107906210059990541021184"
      ]
    },
    {
      "x": 388,
      "y": 229,
      "size": 1,
      "price": "4683000000000000000000",
      "reserved": "",
      "salt": "0x7d3ad152da825e3d998c30878d143af0e0db34439f40165a158a38a0a7578129",
      "assetIds": [
        "41506478881403507969696680653240014914910929820314476107906210059990541021188"
      ]
    },
    {
      "x": 388,
      "y": 230,
      "size": 1,
      "price": "4683000000000000000000",
      "reserved": "",
      "salt": "0x72db9f747cc2be75fd8e59a0b24d6739b58ff1fe781ca15bd6025f1edfca24fa",
      "assetIds": [
        "41506478881403507969696680653240014914910929820314476107906210059990541021188"
      ]
    },
    {
      "x": 388,
      "y": 231,
      "size": 1,
      "price": "4683000000000000000000",
      "reserved": "",
      "salt": "0xe1aadfa1e94cdb08deb6dd53cc629e5968f6a813a80c1306d28c2f25d52ded31",
      "assetIds": [
        "41506478881403507969696680653240014914910929820314476107906210059990541021187"
      ]
    },
    {
      "x": 388,
      "y": 232,
      "size": 1,
      "price": "4683000000000000000000",
      "reserved": "",
      "salt": "0x496456ce0d6184a0d7074410c6768ae8dd31dc5c75b2eaebd404deb6732344a3",
      "assetIds": [
        "41506478881403507969696680653240014914910929820314476107906210059990541021184"
      ]
    },
    {
      "x": 388,
      "y": 233,
      "size": 1,
      "price": "4683000000000000000000",
      "reserved": "",
      "salt": "0xe0be55c2e4bc9a71dd48d81065377550f55e340aa809c07b2cadb726466d9330",
      "assetIds": [
        "41506478881403507969696680653240014914910929820314476107906210059990541021187"
      ]
    },
    {
      "x": 388,
      "y": 234,
      "size": 1,
      "price": "4683000000000000000000",
      "reserved": "",
      "salt": "0xaa604664b0c3861cf1b24885e76d2fb5f8e738dac592fa63e7e55923898aac42",
      "assetIds": [
        "41506478881403507969696680653240014914910929820314476107906210059990541021188"
      ]
    },
    {
      "x": 388,
      "y": 235,
      "size": 1,
      "price": "4683000000000000000000",
      "reserved": "",
      "salt": "0xb11f1957596df5f324e9d97640383e50e74a52dc0901a06f84ce0f4c330c89b8",
      "assetIds": [
        "41506478881403507969696680653240014914910929820314476107906210059990541021188"
      ]
    },
    {
      "x": 388,
      "y": 236,
      "size": 1,
      "price": "4683000000000000000000",
      "reserved": "",
      "salt": "0x96ccb6fb03c351b2f20d517cc69c34179e7d9e7ea6e26edd8a7922d398ee4496",
      "assetIds": [
        "41506478881403507969696680653240014914910929820314476107906210059990541021187"
      ]
    },
    {
      "x": 388,
      "y": 237,
      "size": 1,
      "price": "4683000000000000000000",
      "reserved": "",
      "salt": "0xe2a61ed8ba9cb71afec973ff76a3574723f14041ed6900a580cce20d891d60ba",
      "assetIds": [
        "41506478881403507969696680653240014914910929820314476107906210059990541021187"
      ]
    },
    {
      "x": 388,
      "y": 238,
      "size": 1,
      "price": "4683000000000000000000",
      "reserved": "",
      "salt": "0xac1ca5b64536927521bdc181251e4563005c250ba1608c23e5c3e9e6062892ac",
      "assetIds": [
        "41506478881403507969696680653240014914910929820314476107906210059990541021188"
      ]
    },
    {
      "x": 388,
      "y": 239,
      "size": 1,
      "price": "4683000000000000000000",
      "reserved": "",
      "salt": "0x4fdf0f72dcf5b87546a40d6811d96278c8f08aa646a28cf3c2aa90451c27b62c",
      "assetIds": [
        "41506478881403507969696680653240014914910929820314476107906210059990541021186"
      ]
    },
    {
      "x": 388,
      "y": 252,
      "size": 1,
      "price": "4683000000000000000000",
      "reserved": "",
      "salt": "0xcdae00d68e15a3c2753f58d413f13232175775cf2c40a92cbb91653d33d8caa1",
      "assetIds": [
        "41506478881403507969696680653240014914910929820314476107906210059990541021188"
      ]
    },
    {
      "x": 388,
      "y": 253,
      "size": 1,
      "price": "4683000000000000000000",
      "reserved": "",
      "salt": "0xb13464e61e0188dad61ecfec61d9b5b0fdd85dc8f83ca842d861899725410bac",
      "assetIds": [
        "41506478881403507969696680653240014914910929820314476107906210059990541021188"
      ]
    },
    {
      "x": 388,
      "y": 254,
      "size": 1,
      "price": "4683000000000000000000",
      "reserved": "",
      "salt": "0xb55e4b573938735484a87bc0d8fec098e9d6d4e35908d0b45c923e581ff64286",
      "assetIds": [
        "41506478881403507969696680653240014914910929820314476107906210059990541021187"
      ]
    },
    {
      "x": 388,
      "y": 255,
      "size": 1,
      "price": "4683000000000000000000",
      "reserved": "",
      "salt": "0x4d5488964ce37117472207224ff74268f4f41348aa5182bee6f9e1bb921d525e",
      "assetIds": [
        "41506478881403507969696680653240014914910929820314476107906210059990541021189"
      ]
    },
    {
      "x": 388,
      "y": 256,
      "size": 1,
      "price": "4683000000000000000000",
      "reserved": "",
      "salt": "0xc6e436730e6022652415c13aa98dd575513faabda9174d0f7e1c681593965b0f",
      "assetIds": [
        "41506478881403507969696680653240014914910929820314476107906210059990541021184"
      ]
    },
    {
      "x": 388,
      "y": 257,
      "size": 1,
      "price": "4683000000000000000000",
      "reserved": "",
      "salt": "0x3bcc74c734c24bd4adf8d53c83b78a29c4a72e5ff4c1f648d79580f64bcbf2a1",
      "assetIds": [
        "41506478881403507969696680653240014914910929820314476107906210059990541021184"
      ]
    },
    {
      "x": 388,
      "y": 294,
      "size": 1,
      "price": "4683000000000000000000",
      "reserved": "",
      "salt": "0x9a87607151565de641b0a77367b3ebccc00778a718ef4ed6f66c6e4a227aa7ab",
      "assetIds": [
        "41506478881403507969696680653240014914910929820314476107906210059990541021189"
      ]
    },
    {
      "x": 388,
      "y": 295,
      "size": 1,
      "price": "4683000000000000000000",
      "reserved": "",
      "salt": "0x76ecdc51fed1504ae0eb8cc5c8b15f0f3580e97bda587e3f803cf199f9c24c62",
      "assetIds": [
        "41506478881403507969696680653240014914910929820314476107906210059990541021184"
      ]
    },
    {
      "x": 388,
      "y": 296,
      "size": 1,
      "price": "4683000000000000000000",
      "reserved": "",
      "salt": "0x49fecc7e80803d71570fa9489f4c5035d40a9bf7bf35ecd2c2953c2f87b42e1c",
      "assetIds": [
        "41506478881403507969696680653240014914910929820314476107906210059990541021188"
      ]
    },
    {
      "x": 388,
      "y": 297,
      "size": 1,
      "price": "4683000000000000000000",
      "reserved": "",
      "salt": "0xa20d950d9b07e6aee163429d334707e1263fd118a2d32bebce5011b980bbae7e",
      "assetIds": [
        "41506478881403507969696680653240014914910929820314476107906210059990532622336"
      ]
    },
    {
      "x": 388,
      "y": 298,
      "size": 1,
      "price": "4683000000000000000000",
      "reserved": "",
      "salt": "0xc489a122056db785048aa9eab3c513cff26ff6aecbeb4aa4d0a5956d534450d9",
      "assetIds": [
        "41506478881403507969696680653240014914910929820314476107906210059990541021189"
      ]
    },
    {
      "x": 388,
      "y": 299,
      "size": 1,
      "price": "1011000000000000000000",
      "reserved": "0x7a9fe22691c811ea339d9b73150e6911a5343dca",
      "salt": "0x64f22dba7c23bafd7608c5e089ce00e5aac6560b90d83446a05f0738024171ee",
      "assetIds": []
    },
    {
      "x": 388,
      "y": 306,
      "size": 1,
      "price": "4683000000000000000000",
      "reserved": "",
      "salt": "0xcb8b3c0c3981c45e296b760dab337f3740d8d690e7fc44e22e19197c02873651",
      "assetIds": [
        "41506478881403507969696680653240014914910929820314476107906210059990541021188"
      ]
    },
    {
      "x": 388,
      "y": 307,
      "size": 1,
      "price": "4683000000000000000000",
      "reserved": "",
      "salt": "0x8226b59075ba51dff91e6979e022f5164f6c79926cfa5b5d99c18097ba37d1d6",
      "assetIds": [
        "41506478881403507969696680653240014914910929820314476107906210059990541021186"
      ]
    },
    {
      "x": 388,
      "y": 308,
      "size": 1,
      "price": "4683000000000000000000",
      "reserved": "",
      "salt": "0x6804fac7142955ceff5b7b735fb62b2a887031e8c841c14c3650311c3c5af7ac",
      "assetIds": [
        "41506478881403507969696680653240014914910929820314476107906210059990541021188"
      ]
    },
    {
      "x": 388,
      "y": 309,
      "size": 1,
      "price": "4683000000000000000000",
      "reserved": "",
      "salt": "0x11ef3d2d7e3229a5a1873bd6b570f6a507ab31a67567a0e5414de3d646cc0fac",
      "assetIds": [
        "41506478881403507969696680653240014914910929820314476107906210059990541021187"
      ]
    },
    {
      "x": 388,
      "y": 310,
      "size": 1,
      "price": "4683000000000000000000",
      "reserved": "",
      "salt": "0x15ed4fde2f810806a9efdacc20984fb3099eff27c8f03077dad82a9f2d3149f1",
      "assetIds": [
        "41506478881403507969696680653240014914910929820314476107906210059990541021189"
      ]
    },
    {
      "x": 388,
      "y": 311,
      "size": 1,
      "price": "4683000000000000000000",
      "reserved": "",
      "salt": "0xcdfe6f7edebc791189e08bb38f84ee7cf6c57a590fd64d3684b6db4c83b6221f",
      "assetIds": [
        "41506478881403507969696680653240014914910929820314476107906210059990541021188"
      ]
    },
    {
      "x": 389,
      "y": 225,
      "size": 1,
      "price": "4683000000000000000000",
      "reserved": "",
      "salt": "0x3c062463206c377043a15bf823a1b1375fb7f75efc0b3f06df62f2188f25b9a1",
      "assetIds": [
        "41506478881403507969696680653240014914910929820314476107906210059990541021188"
      ]
    },
    {
      "x": 389,
      "y": 226,
      "size": 1,
      "price": "4683000000000000000000",
      "reserved": "",
      "salt": "0x8793b33e9e64382ef7f49b03e4c8dc75a2c668514bf6a51f9781beff3983d4c9",
      "assetIds": [
        "41506478881403507969696680653240014914910929820314476107906210059990541021187"
      ]
    },
    {
      "x": 389,
      "y": 227,
      "size": 1,
      "price": "4683000000000000000000",
      "reserved": "",
      "salt": "0x5bfae293522f8f9fd63966b7f28176a649627f8d9ec734c01ceb658bd91bc54d",
      "assetIds": [
        "41506478881403507969696680653240014914910929820314476107906210059990541021189"
      ]
    },
    {
      "x": 389,
      "y": 228,
      "size": 1,
      "price": "4683000000000000000000",
      "reserved": "",
      "salt": "0xe4387995fdd431fd38bc79ce551f94a8e59fce17457197f88ab62c7c6f2962ba",
      "assetIds": [
        "41506478881403507969696680653240014914910929820314476107906210059990532622336"
      ]
    },
    {
      "x": 389,
      "y": 229,
      "size": 1,
      "price": "4683000000000000000000",
      "reserved": "",
      "salt": "0xae6e27dc1b09fb192b6e50107ef7807390846f22ab823d49fe4c728649bc6510",
      "assetIds": [
        "41506478881403507969696680653240014914910929820314476107906210059990532622336"
      ]
    },
    {
      "x": 389,
      "y": 230,
      "size": 1,
      "price": "4683000000000000000000",
      "reserved": "",
      "salt": "0x86c0199eae6c1d6b97d365217ddf17609de9582f586287da582fbb0e76b8b6cc",
      "assetIds": [
        "41506478881403507969696680653240014914910929820314476107906210059990532622336"
      ]
    },
    {
      "x": 389,
      "y": 231,
      "size": 1,
      "price": "4683000000000000000000",
      "reserved": "",
      "salt": "0x0dd97425207fc6e40b3915a0e072292293277f8288ef878ef2b5dc3a51bce14e",
      "assetIds": [
        "41506478881403507969696680653240014914910929820314476107906210059990541021189"
      ]
    },
    {
      "x": 389,
      "y": 232,
      "size": 1,
      "price": "4683000000000000000000",
      "reserved": "",
      "salt": "0x83d0ed3616f67932f8c2208dcff2f9677ed4277eaf9eee755fe79323f82abf63",
      "assetIds": [
        "41506478881403507969696680653240014914910929820314476107906210059990541021184"
      ]
    },
    {
      "x": 389,
      "y": 233,
      "size": 1,
      "price": "4683000000000000000000",
      "reserved": "",
      "salt": "0x59181b4834a5e80094d384e7bbd01c5d6643c01309dc6b8f4d184e9e4a63ae00",
      "assetIds": [
        "41506478881403507969696680653240014914910929820314476107906210059990541021187"
      ]
    },
    {
      "x": 389,
      "y": 234,
      "size": 1,
      "price": "4683000000000000000000",
      "reserved": "",
      "salt": "0x9371e7bc6aa2bc44d4180dc09d95946c79f26eb02d53c83862ce3a8fdb01b83e",
      "assetIds": [
        "41506478881403507969696680653240014914910929820314476107906210059990541021187"
      ]
    },
    {
      "x": 389,
      "y": 235,
      "size": 1,
      "price": "4683000000000000000000",
      "reserved": "",
      "salt": "0x11d096ad3d83fca19db9cd9cba4f894498389f0171939d6a49264e9306e85ddb",
      "assetIds": [
        "41506478881403507969696680653240014914910929820314476107906210059990541021186"
      ]
    },
    {
      "x": 389,
      "y": 236,
      "size": 1,
      "price": "4683000000000000000000",
      "reserved": "",
      "salt": "0xd9911022cba2c1d330b7a112eb65f9317048972ccc46fcb7922ac54794b325fa",
      "assetIds": [
        "41506478881403507969696680653240014914910929820314476107906210059990541021188"
      ]
    },
    {
      "x": 389,
      "y": 237,
      "size": 1,
      "price": "4683000000000000000000",
      "reserved": "",
      "salt": "0xb3bd690b078cfa2a7dc1a3f24633ccccf1c7370b3af77019a73f1fa4f474e1cc",
      "assetIds": [
        "41506478881403507969696680653240014914910929820314476107906210059990541021186"
      ]
    },
    {
      "x": 389,
      "y": 238,
      "size": 1,
      "price": "4683000000000000000000",
      "reserved": "",
      "salt": "0x923869431be2f7758c1bacc3b678fdac878660b52498e3aeb34535692d8b05bb",
      "assetIds": [
        "41506478881403507969696680653240014914910929820314476107906210059990541021184"
      ]
    },
    {
      "x": 389,
      "y": 239,
      "size": 1,
      "price": "4683000000000000000000",
      "reserved": "",
      "salt": "0x43c76c35b53a736246527128d6b50a34c002645af41f6c6d9e4253a97dcd7cb7",
      "assetIds": [
        "41506478881403507969696680653240014914910929820314476107906210059990541021185"
      ]
    },
    {
      "x": 389,
      "y": 252,
      "size": 1,
      "price": "4683000000000000000000",
      "reserved": "",
      "salt": "0xe981bfca862dee9499f1686a44dda8e85af7b3e035f9d13c947931bc1242b586",
      "assetIds": [
        "41506478881403507969696680653240014914910929820314476107906210059990541021188"
      ]
    },
    {
      "x": 389,
      "y": 253,
      "size": 1,
      "price": "4683000000000000000000",
      "reserved": "",
      "salt": "0x36d56da4ad95cf76e05f5d3624855e8f30680fa337fdf0a1db143260bde53c00",
      "assetIds": [
        "41506478881403507969696680653240014914910929820314476107906210059990541021187"
      ]
    },
    {
      "x": 389,
      "y": 254,
      "size": 1,
      "price": "4683000000000000000000",
      "reserved": "",
      "salt": "0xd5510aadc9cda6571f36bd2be4e98cb354ae9dc779feb36fed6386799161fc55",
      "assetIds": [
        "41506478881403507969696680653240014914910929820314476107906210059990532622336"
      ]
    },
    {
      "x": 389,
      "y": 255,
      "size": 1,
      "price": "4683000000000000000000",
      "reserved": "",
      "salt": "0xd866fad287eb407cbc336a03cf6d17cfca1b773a343db219b413f132d7f71e42",
      "assetIds": [
        "41506478881403507969696680653240014914910929820314476107906210059990541021188"
      ]
    },
    {
      "x": 389,
      "y": 256,
      "size": 1,
      "price": "4683000000000000000000",
      "reserved": "",
      "salt": "0x8b657709bc53e472bb1b899ca6b642ee5061e268b2dbfd72a9e1c35c9526f133",
      "assetIds": [
        "41506478881403507969696680653240014914910929820314476107906210059990541021187"
      ]
    },
    {
      "x": 389,
      "y": 257,
      "size": 1,
      "price": "4683000000000000000000",
      "reserved": "",
      "salt": "0xce9329e35c9e98d1ceca9330078b59c72fc00c3c177a3b7ab3124ae53316892a",
      "assetIds": [
        "41506478881403507969696680653240014914910929820314476107906210059990541021189"
      ]
    },
    {
      "x": 389,
      "y": 294,
      "size": 1,
      "price": "4683000000000000000000",
      "reserved": "",
      "salt": "0xe1df78740415adb11d53a598046c7c4b9edba7deccc85155821c4af98b67151b",
      "assetIds": [
        "41506478881403507969696680653240014914910929820314476107906210059990532622336"
      ]
    },
    {
      "x": 389,
      "y": 295,
      "size": 1,
      "price": "4683000000000000000000",
      "reserved": "",
      "salt": "0xddbc9e6589e3853a6189b87b19547a393323ebd1d0d90405a394a9fe9c2aae45",
      "assetIds": [
        "41506478881403507969696680653240014914910929820314476107906210059990541021184"
      ]
    },
    {
      "x": 389,
      "y": 296,
      "size": 1,
      "price": "4683000000000000000000",
      "reserved": "",
      "salt": "0xa2c1e8bdd7fbad2d546a343674377c513a45e83aaaba35b8a38e1359a441323a",
      "assetIds": [
        "41506478881403507969696680653240014914910929820314476107906210059990541021187"
      ]
    },
    {
      "x": 389,
      "y": 297,
      "size": 1,
      "price": "4683000000000000000000",
      "reserved": "",
      "salt": "0x90f2e33540ab7da765e60c5c78cb5b1a64a8069dd8174de7757719fbf0457884",
      "assetIds": [
        "41506478881403507969696680653240014914910929820314476107906210059990532622336"
      ]
    },
    {
      "x": 389,
      "y": 298,
      "size": 1,
      "price": "4683000000000000000000",
      "reserved": "",
      "salt": "0xf6220eb788dad2ac3aed371aed2f9055f3b1787740a7b7b34fcb36bf36b55990",
      "assetIds": [
        "41506478881403507969696680653240014914910929820314476107906210059990541021184"
      ]
    },
    {
      "x": 389,
      "y": 299,
      "size": 1,
      "price": "4683000000000000000000",
      "reserved": "",
      "salt": "0x74f000c22519300a3644cbab048d8ceeb262c98725157c5c4a65506aa10ba016",
      "assetIds": [
        "41506478881403507969696680653240014914910929820314476107906210059990541021187"
      ]
    },
    {
      "x": 389,
      "y": 306,
      "size": 1,
      "price": "4683000000000000000000",
      "reserved": "",
      "salt": "0x9fa510bfe2015deb364da5d9269aba27827c6669943b85ce87d4cf6990ae0959",
      "assetIds": [
        "41506478881403507969696680653240014914910929820314476107906210059990541021188"
      ]
    },
    {
      "x": 389,
      "y": 307,
      "size": 1,
      "price": "4683000000000000000000",
      "reserved": "",
      "salt": "0xd8e18c56a619e41d85176cc9a43bfe466acd5499c13d6688b23922abe80e4ca6",
      "assetIds": [
        "41506478881403507969696680653240014914910929820314476107906210059990541021187"
      ]
    },
    {
      "x": 389,
      "y": 308,
      "size": 1,
      "price": "4683000000000000000000",
      "reserved": "",
      "salt": "0x550324aa974e244424fc7fcfe3c5cc79a8e5693cac5041a956f35668443cd0cf",
      "assetIds": [
        "41506478881403507969696680653240014914910929820314476107906210059990541021189"
      ]
    },
    {
      "x": 389,
      "y": 309,
      "size": 1,
      "price": "4683000000000000000000",
      "reserved": "",
      "salt": "0x4029817eabf4a59cae7034ee753152bb92b5755d55955eaab2bdd18c07e18051",
      "assetIds": [
        "41506478881403507969696680653240014914910929820314476107906210059990541021184"
      ]
    },
    {
      "x": 389,
      "y": 310,
      "size": 1,
      "price": "4683000000000000000000",
      "reserved": "",
      "salt": "0x288e5be3b832e696f284211c08c9ec519e9f763750eb5769b8493e886ec00439",
      "assetIds": [
        "41506478881403507969696680653240014914910929820314476107906210059990541021188"
      ]
    },
    {
      "x": 389,
      "y": 311,
      "size": 1,
      "price": "4683000000000000000000",
      "reserved": "",
      "salt": "0x00dac625e7d47de8d4d11984f90a8818519a4f686995abf4ff9d92e63184ea30",
      "assetIds": [
        "41506478881403507969696680653240014914910929820314476107906210059990541021187"
      ]
    },
    {
      "x": 390,
      "y": 222,
      "size": 1,
      "price": "4683000000000000000000",
      "reserved": "",
      "salt": "0xf56ea5598afe2cb63997ec572fbcf6f48557ecb12e299a9d52e4d8cf25583f74",
      "assetIds": [
        "41506478881403507969696680653240014914910929820314476107906210059990532622336"
      ]
    },
    {
      "x": 390,
      "y": 223,
      "size": 1,
      "price": "4683000000000000000000",
      "reserved": "",
      "salt": "0x0c821c2a5cab4b31f47e4d842d0f81e7f1b1c1ec0c506b9167fb38813d1d818b",
      "assetIds": [
        "41506478881403507969696680653240014914910929820314476107906210059990541021189"
      ]
    },
    {
      "x": 390,
      "y": 224,
      "size": 1,
      "price": "4683000000000000000000",
      "reserved": "",
      "salt": "0xcc6ef94530da25cdf280788fe06e4e1e570b97bef4882e727d07dd218c59bf46",
      "assetIds": [
        "41506478881403507969696680653240014914910929820314476107906210059990541021188"
      ]
    },
    {
      "x": 390,
      "y": 225,
      "size": 1,
      "price": "4683000000000000000000",
      "reserved": "",
      "salt": "0xd48c09ab7f211e43f69f3db78273538795377041fb6b52c0e1575b1448deb4e9",
      "assetIds": [
        "41506478881403507969696680653240014914910929820314476107906210059990541021188"
      ]
    },
    {
      "x": 390,
      "y": 226,
      "size": 1,
      "price": "4683000000000000000000",
      "reserved": "",
      "salt": "0x5a2b35e18e449b80d47123d0182f2eda87b8674b327bd7dbd210f57e11db0cf6",
      "assetIds": [
        "41506478881403507969696680653240014914910929820314476107906210059990541021187"
      ]
    },
    {
      "x": 390,
      "y": 227,
      "size": 1,
      "price": "4683000000000000000000",
      "reserved": "",
      "salt": "0x904bbca60962915c34ca55905b24233cfe9bf7b9ba3a1bce169dd6755dd886ee",
      "assetIds": [
        "41506478881403507969696680653240014914910929820314476107906210059990541021188"
      ]
    },
    {
      "x": 390,
      "y": 234,
      "size": 1,
      "price": "4683000000000000000000",
      "reserved": "",
      "salt": "0x6aa14b6ffe25f2a1be3f91619bfc5cebaa43ff48c2e3757a02d936807d0e55ec",
      "assetIds": [
        "41506478881403507969696680653240014914910929820314476107906210059990541021188"
      ]
    },
    {
      "x": 390,
      "y": 235,
      "size": 1,
      "price": "4683000000000000000000",
      "reserved": "",
      "salt": "0x1e00b78fa7bd3a0a349127706b37e350c1f3a7f5d0291082075c4080aba524e3",
      "assetIds": [
        "41506478881403507969696680653240014914910929820314476107906210059990541021187"
      ]
    },
    {
      "x": 390,
      "y": 236,
      "size": 1,
      "price": "4683000000000000000000",
      "reserved": "",
      "salt": "0x5e1584b89f6b02b79d94b5c388d4435a813ded2bd7ffbd71e85edbaa9de5abaa",
      "assetIds": [
        "41506478881403507969696680653240014914910929820314476107906210059990541021187"
      ]
    },
    {
      "x": 390,
      "y": 237,
      "size": 1,
      "price": "4683000000000000000000",
      "reserved": "",
      "salt": "0x5f5fe009d4e1f1cd84d5c5c588b4e410d0fc533c5ac499b17e0faba4b71f6deb",
      "assetIds": [
        "41506478881403507969696680653240014914910929820314476107906210059990541021188"
      ]
    },
    {
      "x": 390,
      "y": 238,
      "size": 1,
      "price": "4683000000000000000000",
      "reserved": "",
      "salt": "0xf8ae8d683905dda9473fdbd5b65d8af55188b8773d9a0329b869bb88e339ea44",
      "assetIds": [
        "41506478881403507969696680653240014914910929820314476107906210059990541021187"
      ]
    },
    {
      "x": 390,
      "y": 239,
      "size": 1,
      "price": "4683000000000000000000",
      "reserved": "",
      "salt": "0x4d7faec95522867dbe1f0b22d8342f5c037eed8c33cad6fbf578b5337c81672e",
      "assetIds": [
        "41506478881403507969696680653240014914910929820314476107906210059990541021187"
      ]
    },
    {
      "x": 390,
      "y": 252,
      "size": 1,
      "price": "4683000000000000000000",
      "reserved": "",
      "salt": "0x6492df21b089279456435b4c29bff9ca07f6b38002cdf86266ce81ee1fb7703b",
      "assetIds": [
        "41506478881403507969696680653240014914910929820314476107906210059990541021184"
      ]
    },
    {
      "x": 390,
      "y": 253,
      "size": 1,
      "price": "4683000000000000000000",
      "reserved": "",
      "salt": "0xd962f5672cbe3cc015993dbad8202cd476066cf2243009dcf00ef7b45068b52a",
      "assetIds": [
        "41506478881403507969696680653240014914910929820314476107906210059990541021187"
      ]
    },
    {
      "x": 390,
      "y": 254,
      "size": 1,
      "price": "4683000000000000000000",
      "reserved": "",
      "salt": "0x529f8e78e47b6b28a04fe2989c9b195e4c249b53878fd81aa9cb9697febc2028",
      "assetIds": [
        "41506478881403507969696680653240014914910929820314476107906210059990541021186"
      ]
    },
    {
      "x": 390,
      "y": 255,
      "size": 1,
      "price": "4683000000000000000000",
      "reserved": "",
      "salt": "0x8fbc8d61b949b0892b1d40f97460f8e8249886e05607f16935f404ba31454e65",
      "assetIds": [
        "41506478881403507969696680653240014914910929820314476107906210059990541021188"
      ]
    },
    {
      "x": 390,
      "y": 256,
      "size": 1,
      "price": "4683000000000000000000",
      "reserved": "",
      "salt": "0x09d872462c9660c778313e02b6867bbb1897f36a7a5d54a186c10013df42189a",
      "assetIds": [
        "41506478881403507969696680653240014914910929820314476107906210059990532622336"
      ]
    },
    {
      "x": 390,
      "y": 257,
      "size": 1,
      "price": "4683000000000000000000",
      "reserved": "",
      "salt": "0x4be612028cf9d322eab7e3a29caf23640ce8561418ee788ac6f3f0126325fff0",
      "assetIds": [
        "41506478881403507969696680653240014914910929820314476107906210059990541021187"
      ]
    },
    {
      "x": 390,
      "y": 261,
      "size": 1,
      "price": "4683000000000000000000",
      "reserved": "",
      "salt": "0xed7b9dcc46fbd55b14f03a225dc9477a40a40d8cd42ba82151190c11c12c1867",
      "assetIds": [
        "41506478881403507969696680653240014914910929820314476107906210059990541021187"
      ]
    },
    {
      "x": 390,
      "y": 262,
      "size": 1,
      "price": "4683000000000000000000",
      "reserved": "",
      "salt": "0xb5ebbc3840985dc8f0e9b0351ebf065ef39d1c2cfd7dd82b4fc9a55ca5e16052",
      "assetIds": [
        "41506478881403507969696680653240014914910929820314476107906210059990541021187"
      ]
    },
    {
      "x": 390,
      "y": 263,
      "size": 1,
      "price": "4683000000000000000000",
      "reserved": "",
      "salt": "0x8758e340c042589b64cc1313b4c1b39261cd12ecc417a5eccb34f8138c7e5cee",
      "assetIds": [
        "41506478881403507969696680653240014914910929820314476107906210059990541021189"
      ]
    },
    {
      "x": 390,
      "y": 291,
      "size": 1,
      "price": "4683000000000000000000",
      "reserved": "",
      "salt": "0xd47d6051c952ce6f81c1b5a711a41a12b15b73a9f6190be3ed51a69d07dc4946",
      "assetIds": [
        "41506478881403507969696680653240014914910929820314476107906210059990541021187"
      ]
    },
    {
      "x": 390,
      "y": 292,
      "size": 1,
      "price": "4683000000000000000000",
      "reserved": "",
      "salt": "0x209205e935007f22b40c0196a1ca5a0d8fac7a5bec5d11afa4507d711979810d",
      "assetIds": [
        "41506478881403507969696680653240014914910929820314476107906210059990541021187"
      ]
    },
    {
      "x": 390,
      "y": 293,
      "size": 1,
      "price": "4683000000000000000000",
      "reserved": "",
      "salt": "0x60d33649aeeb14baa52305696af7a057690eeafc53252343faf1c5d07b7e9100",
      "assetIds": [
        "41506478881403507969696680653240014914910929820314476107906210059990541021188"
      ]
    },
    {
      "x": 390,
      "y": 294,
      "size": 1,
      "price": "4683000000000000000000",
      "reserved": "",
      "salt": "0x71a15ec4275dad19c4670bf3bab4fc1459f94aad08a3aee5daebea830aecc408",
      "assetIds": [
        "41506478881403507969696680653240014914910929820314476107906210059990541021189"
      ]
    },
    {
      "x": 390,
      "y": 295,
      "size": 1,
      "price": "4683000000000000000000",
      "reserved": "",
      "salt": "0xf6e5feb50c8eac81e6074c842ea634267e68041519e204f1a2e4e01e0c6502ba",
      "assetIds": [
        "41506478881403507969696680653240014914910929820314476107906210059990532622336"
      ]
    },
    {
      "x": 390,
      "y": 296,
      "size": 1,
      "price": "4683000000000000000000",
      "reserved": "",
      "salt": "0x8ba23466d1e5b2cffda629caf1222b7115752ea2b605837e4088140689f8524f",
      "assetIds": [
        "41506478881403507969696680653240014914910929820314476107906210059990541021187"
      ]
    },
    {
      "x": 390,
      "y": 297,
      "size": 1,
      "price": "4683000000000000000000",
      "reserved": "",
      "salt": "0x932c0cf09b467a4afe0072fe4fab1abec0794f34313db334714b42677385bcb4",
      "assetIds": [
        "41506478881403507969696680653240014914910929820314476107906210059990541021187"
      ]
    },
    {
      "x": 390,
      "y": 298,
      "size": 1,
      "price": "4683000000000000000000",
      "reserved": "",
      "salt": "0xf72dd3614d155cabe4ac215bba801ca63ff544b3bee72180d9e3a71a214cee95",
      "assetIds": [
        "41506478881403507969696680653240014914910929820314476107906210059990541021188"
      ]
    },
    {
      "x": 390,
      "y": 299,
      "size": 1,
      "price": "4683000000000000000000",
      "reserved": "",
      "salt": "0x39260e0575fc5a53bcc44bf0d79594a4dae985b0ec4c81b32369ffaf3fa8c059",
      "assetIds": [
        "41506478881403507969696680653240014914910929820314476107906210059990541021189"
      ]
    },
    {
      "x": 390,
      "y": 300,
      "size": 1,
      "price": "4683000000000000000000",
      "reserved": "",
      "salt": "0x6938cb6d9a3ea6aff6b45736aeeb3c1f9505d887603c3917748df7e802135016",
      "assetIds": [
        "41506478881403507969696680653240014914910929820314476107906210059990541021189"
      ]
    },
    {
      "x": 390,
      "y": 301,
      "size": 1,
      "price": "4683000000000000000000",
      "reserved": "",
      "salt": "0x05704483b2dcc28abcc46964c3b606213a7a61dab8a558d1056fb5c709e26401",
      "assetIds": [
        "41506478881403507969696680653240014914910929820314476107906210059990532622336"
      ]
    },
    {
      "x": 390,
      "y": 302,
      "size": 1,
      "price": "4683000000000000000000",
      "reserved": "",
      "salt": "0x12beabd27f1ad4179129b0fb59d5de1d8975bdcc6fb2bf2163fff4bd5efeb53e",
      "assetIds": [
        "41506478881403507969696680653240014914910929820314476107906210059990541021189"
      ]
    },
    {
      "x": 390,
      "y": 306,
      "size": 1,
      "price": "4683000000000000000000",
      "reserved": "",
      "salt": "0x37033c62fe3c95e0f0c2fb379a7bbc2c454f4058c98f85fb63dc7d7f1b632a94",
      "assetIds": [
        "41506478881403507969696680653240014914910929820314476107906210059990541021187"
      ]
    },
    {
      "x": 390,
      "y": 307,
      "size": 1,
      "price": "4683000000000000000000",
      "reserved": "",
      "salt": "0x5a0f88190c2aad1ab399edd80c1902961238e64d485929d0cb8f5a1b89db43a7",
      "assetIds": [
        "41506478881403507969696680653240014914910929820314476107906210059990532622336"
      ]
    },
    {
      "x": 390,
      "y": 308,
      "size": 1,
      "price": "4683000000000000000000",
      "reserved": "",
      "salt": "0x050ac7d65507f77c66bed2191958719433b94f096adbc655d03e76ffa5d79886",
      "assetIds": [
        "41506478881403507969696680653240014914910929820314476107906210059990541021189"
      ]
    },
    {
      "x": 391,
      "y": 222,
      "size": 1,
      "price": "4683000000000000000000",
      "reserved": "",
      "salt": "0xdcfd4f57dd097dd5401828bd9db6e64e4069508945efc08e3446d2f3212e4bcc",
      "assetIds": [
        "41506478881403507969696680653240014914910929820314476107906210059990541021188"
      ]
    },
    {
      "x": 391,
      "y": 223,
      "size": 1,
      "price": "4683000000000000000000",
      "reserved": "",
      "salt": "0x8da5eae75bbbde191eee31465270da1e109f2562560ed2ff711725024688b8e8",
      "assetIds": [
        "41506478881403507969696680653240014914910929820314476107906210059990541021187"
      ]
    },
    {
      "x": 391,
      "y": 224,
      "size": 1,
      "price": "4683000000000000000000",
      "reserved": "",
      "salt": "0x4a9e5f463ab8d16aacf4e524fd42dd8a37f20eb6cf78e5866cb85e44069fb074",
      "assetIds": [
        "41506478881403507969696680653240014914910929820314476107906210059990541021185"
      ]
    },
    {
      "x": 391,
      "y": 225,
      "size": 1,
      "price": "4683000000000000000000",
      "reserved": "",
      "salt": "0xb58cacf692a63bc6552dcfdd3692d55328626f1d02a47558beda4fa0a8f38642",
      "assetIds": [
        "41506478881403507969696680653240014914910929820314476107906210059990541021189"
      ]
    },
    {
      "x": 391,
      "y": 226,
      "size": 1,
      "price": "4683000000000000000000",
      "reserved": "",
      "salt": "0xea06fbfa30b3f660da3dfcdce8b158abd5125cace087030d01bd98a5fd7723b3",
      "assetIds": [
        "41506478881403507969696680653240014914910929820314476107906210059990541021188"
      ]
    },
    {
      "x": 391,
      "y": 227,
      "size": 1,
      "price": "4683000000000000000000",
      "reserved": "",
      "salt": "0xc57a383afbc3a4457cb1f66bbebd03c205ccb46a1713dcd17644f0938b643610",
      "assetIds": [
        "41506478881403507969696680653240014914910929820314476107906210059990541021187"
      ]
    },
    {
      "x": 391,
      "y": 234,
      "size": 1,
      "price": "4683000000000000000000",
      "reserved": "",
      "salt": "0x4af117aa4fd7223b1c41b159f417f3228a6c98283058c58d2e877d8cf869f573",
      "assetIds": [
        "41506478881403507969696680653240014914910929820314476107906210059990541021187"
      ]
    },
    {
      "x": 391,
      "y": 235,
      "size": 1,
      "price": "4683000000000000000000",
      "reserved": "",
      "salt": "0xd80d05c65fa8593916f7c34c52282d5dd49bd7e837a7f8e2d60063ecdb7d0785",
      "assetIds": [
        "41506478881403507969696680653240014914910929820314476107906210059990541021189"
      ]
    },
    {
      "x": 391,
      "y": 236,
      "size": 1,
      "price": "4683000000000000000000",
      "reserved": "",
      "salt": "0xd9fc36a6123caf1c7df10688a7e3e1e7a7e2851718de3994aadedad960ef3614",
      "assetIds": [
        "41506478881403507969696680653240014914910929820314476107906210059990541021189"
      ]
    },
    {
      "x": 391,
      "y": 237,
      "size": 1,
      "price": "4683000000000000000000",
      "reserved": "",
      "salt": "0x7283e0934fb3264dc88a834015e2d967cbf6ead363e1c7cb6b09d6c43bce7f3f",
      "assetIds": [
        "41506478881403507969696680653240014914910929820314476107906210059990541021188"
      ]
    },
    {
      "x": 391,
      "y": 238,
      "size": 1,
      "price": "1011000000000000000000",
      "reserved": "0x7a9fe22691c811ea339d9b73150e6911a5343dca",
      "salt": "0xda8dced5a4259e98163618af72db7e79580ec37622d402bc571309068b9ec69b",
      "assetIds": []
    },
    {
      "x": 391,
      "y": 239,
      "size": 1,
      "price": "4683000000000000000000",
      "reserved": "",
      "salt": "0xadaf3347af2fe9ac82c83b47b360f4724c5ff1ccb7b10f421e1d1c0710df8a21",
      "assetIds": [
        "41506478881403507969696680653240014914910929820314476107906210059990541021189"
      ]
    },
    {
      "x": 391,
      "y": 252,
      "size": 1,
      "price": "4683000000000000000000",
      "reserved": "",
      "salt": "0x6211ea8f5fc6d81e40c06062d4a7d54cddb1bc65aee3bc46020bfc47b94fb5ee",
      "assetIds": [
        "41506478881403507969696680653240014914910929820314476107906210059990541021185"
      ]
    },
    {
      "x": 391,
      "y": 253,
      "size": 1,
      "price": "4683000000000000000000",
      "reserved": "",
      "salt": "0x5e1b4c16a4f215c2644cd21943a1b0005ef759f4935a8879dd20b439fee218af",
      "assetIds": [
        "41506478881403507969696680653240014914910929820314476107906210059990532622336"
      ]
    },
    {
      "x": 391,
      "y": 254,
      "size": 1,
      "price": "4683000000000000000000",
      "reserved": "",
      "salt": "0x73422549972a7dffc2bf6ed6b1ca20c2145c84a1dca7e78f7f73664b7b1e9f2d",
      "assetIds": [
        "41506478881403507969696680653240014914910929820314476107906210059990541021185"
      ]
    },
    {
      "x": 391,
      "y": 255,
      "size": 1,
      "price": "1011000000000000000000",
      "reserved": "0x7a9fe22691c811ea339d9b73150e6911a5343dca",
      "salt": "0x3bc8e08ca36635d4ffc43214149b5292e4293d413be28f2af1944fe719464ddd",
      "assetIds": []
    },
    {
      "x": 391,
      "y": 256,
      "size": 1,
      "price": "4683000000000000000000",
      "reserved": "",
      "salt": "0x8314ae7e6fdf168e51b23395bf1e0c6bb7cd8e1cea578ed126be96364b427f82",
      "assetIds": [
        "41506478881403507969696680653240014914910929820314476107906210059990541021189"
      ]
    },
    {
      "x": 391,
      "y": 257,
      "size": 1,
      "price": "4683000000000000000000",
      "reserved": "",
      "salt": "0xe8277e87c27b41d581de5491241f988ce9d491d6929656630e4afbadd3cc7af7",
      "assetIds": [
        "41506478881403507969696680653240014914910929820314476107906210059990541021184"
      ]
    },
    {
      "x": 391,
      "y": 261,
      "size": 1,
      "price": "4683000000000000000000",
      "reserved": "",
      "salt": "0x71709ee0df36e4e6684e25e309cd0e4100cbc34e45614b477cddb70a811a1d41",
      "assetIds": [
        "41506478881403507969696680653240014914910929820314476107906210059990541021188"
      ]
    },
    {
      "x": 391,
      "y": 262,
      "size": 1,
      "price": "4683000000000000000000",
      "reserved": "",
      "salt": "0xbb9040222147dad5757570c569295cfa3c7eb161f47e5311eda887e899a92374",
      "assetIds": [
        "41506478881403507969696680653240014914910929820314476107906210059990541021189"
      ]
    },
    {
      "x": 391,
      "y": 263,
      "size": 1,
      "price": "4683000000000000000000",
      "reserved": "",
      "salt": "0xd178b9a6d809a653ad3ed2da5c5e78e41b955e6bdf6c223624af94f4dce9320c",
      "assetIds": [
        "41506478881403507969696680653240014914910929820314476107906210059990541021188"
      ]
    },
    {
      "x": 391,
      "y": 291,
      "size": 1,
      "price": "4683000000000000000000",
      "reserved": "",
      "salt": "0x1fcd160ecda2f7e87c20b805e32c8d378057d91084370e6133eec08ff9ee76d5",
      "assetIds": [
        "41506478881403507969696680653240014914910929820314476107906210059990541021188"
      ]
    },
    {
      "x": 391,
      "y": 292,
      "size": 1,
      "price": "4683000000000000000000",
      "reserved": "",
      "salt": "0x0e5c514e6217aa540cc060ce37fed2fbbc68535b42e1dc7f4ca125f5ae194233",
      "assetIds": [
        "41506478881403507969696680653240014914910929820314476107906210059990541021189"
      ]
    },
    {
      "x": 391,
      "y": 293,
      "size": 1,
      "price": "4683000000000000000000",
      "reserved": "",
      "salt": "0x5288c4bd21748674aec933e6bf811a78f8649361220a661b627e9c8d5147b947",
      "assetIds": [
        "41506478881403507969696680653240014914910929820314476107906210059990541021188"
      ]
    },
    {
      "x": 391,
      "y": 294,
      "size": 1,
      "price": "4683000000000000000000",
      "reserved": "",
      "salt": "0xe30760959fd5de080c7ee46e88ddca76bc038b332c42bad09924d6060d11b1eb",
      "assetIds": [
        "41506478881403507969696680653240014914910929820314476107906210059990541021185"
      ]
    },
    {
      "x": 391,
      "y": 295,
      "size": 1,
      "price": "4683000000000000000000",
      "reserved": "",
      "salt": "0x296f490a763c58b1af98811c1e0af75ed529005820e4644b66e62e18cf3827c4",
      "assetIds": [
        "41506478881403507969696680653240014914910929820314476107906210059990541021186"
      ]
    },
    {
      "x": 391,
      "y": 296,
      "size": 1,
      "price": "4683000000000000000000",
      "reserved": "",
      "salt": "0xed8f9811e43fbafd8a06d8eead3fe9567e256e2f2919e0bc117e04f7468d5fa6",
      "assetIds": [
        "41506478881403507969696680653240014914910929820314476107906210059990532622336"
      ]
    },
    {
      "x": 391,
      "y": 297,
      "size": 1,
      "price": "4683000000000000000000",
      "reserved": "",
      "salt": "0xdd1a7b2edcabf75e0238e905369721d8137f0c79332a2b8e2acff3b5d4b586af",
      "assetIds": [
        "41506478881403507969696680653240014914910929820314476107906210059990541021189"
      ]
    },
    {
      "x": 391,
      "y": 298,
      "size": 1,
      "price": "4683000000000000000000",
      "reserved": "",
      "salt": "0x6e31bb316ab3d1d5a6c8cc51089eac223018f4c27dbf3db17301433551ba00ab",
      "assetIds": [
        "41506478881403507969696680653240014914910929820314476107906210059990541021185"
      ]
    },
    {
      "x": 391,
      "y": 299,
      "size": 1,
      "price": "4683000000000000000000",
      "reserved": "",
      "salt": "0xe518c79bb2bd5fec76a0deea41def7ca3974e407f24f2fe142d81615518c9ce7",
      "assetIds": [
        "41506478881403507969696680653240014914910929820314476107906210059990541021184"
      ]
    },
    {
      "x": 391,
      "y": 300,
      "size": 1,
      "price": "4683000000000000000000",
      "reserved": "",
      "salt": "0x8a2d58f8b476250297303dd5443bded921ad0ea321a5e36ff87591330d36eca9",
      "assetIds": [
        "41506478881403507969696680653240014914910929820314476107906210059990541021188"
      ]
    },
    {
      "x": 391,
      "y": 301,
      "size": 1,
      "price": "4683000000000000000000",
      "reserved": "",
      "salt": "0x5ca8ca1c4d9d05e01708ccaa3c8ee7d7fafd5712eb844028097c89f35bbd8da9",
      "assetIds": [
        "41506478881403507969696680653240014914910929820314476107906210059990541021189"
      ]
    },
    {
      "x": 391,
      "y": 302,
      "size": 1,
      "price": "4683000000000000000000",
      "reserved": "",
      "salt": "0x70608125564ebb35e233bff7b3f24a35a06c9216e71d57317f6b85e4a704b187",
      "assetIds": [
        "41506478881403507969696680653240014914910929820314476107906210059990541021185"
      ]
    },
    {
      "x": 391,
      "y": 306,
      "size": 1,
      "price": "4683000000000000000000",
      "reserved": "",
      "salt": "0x024d6743b13c40d8dd1e87b0ef9db3faa2d0294e9e49ee4611edb0747011f304",
      "assetIds": [
        "41506478881403507969696680653240014914910929820314476107906210059990541021185"
      ]
    },
    {
      "x": 391,
      "y": 307,
      "size": 1,
      "price": "4683000000000000000000",
      "reserved": "",
      "salt": "0xd2b7d0f53418219620a4ca90de6d9d65574d6db7fed513a687757cfc000102f2",
      "assetIds": [
        "41506478881403507969696680653240014914910929820314476107906210059990541021186"
      ]
    },
    {
      "x": 391,
      "y": 308,
      "size": 1,
      "price": "4683000000000000000000",
      "reserved": "",
      "salt": "0xd67dc185d02ab16ca0e37fba7f3b8512bcbb9c4903474abd23909ae1c795a878",
      "assetIds": [
        "41506478881403507969696680653240014914910929820314476107906210059990541021186"
      ]
    },
    {
      "x": 392,
      "y": 222,
      "size": 1,
      "price": "4683000000000000000000",
      "reserved": "",
      "salt": "0x4215811b5fc2f153fb6230d93aa50072072131c1fd1eb79e460ec34c098de44e",
      "assetIds": [
        "41506478881403507969696680653240014914910929820314476107906210059990541021187"
      ]
    },
    {
      "x": 392,
      "y": 223,
      "size": 1,
      "price": "4683000000000000000000",
      "reserved": "",
      "salt": "0x9bc36a91e457eaaf9cb1fd35265f7fcbd14e2cf699ac9c985bbe66c201b064a7",
      "assetIds": [
        "41506478881403507969696680653240014914910929820314476107906210059990541021184"
      ]
    },
    {
      "x": 392,
      "y": 224,
      "size": 1,
      "price": "4683000000000000000000",
      "reserved": "",
      "salt": "0x074d0f3c24e2349dc239205309a74075a0cc2997859c460703c7e0a7d19618f9",
      "assetIds": [
        "41506478881403507969696680653240014914910929820314476107906210059990541021184"
      ]
    },
    {
      "x": 392,
      "y": 225,
      "size": 1,
      "price": "4683000000000000000000",
      "reserved": "",
      "salt": "0x3722062ace0e2e618b0e74d4a634a7fa7d4540fb755dc5bb6a9ccb1f124c8e52",
      "assetIds": [
        "41506478881403507969696680653240014914910929820314476107906210059990541021187"
      ]
    },
    {
      "x": 392,
      "y": 226,
      "size": 1,
      "price": "4683000000000000000000",
      "reserved": "",
      "salt": "0x4c7adf9b09000c6e3c4a7d38dd9a10904461c740a873566df7965eb2a33b75fe",
      "assetIds": [
        "41506478881403507969696680653240014914910929820314476107906210059990541021185"
      ]
    },
    {
      "x": 392,
      "y": 227,
      "size": 1,
      "price": "4683000000000000000000",
      "reserved": "",
      "salt": "0xab1738a977db058a1ad60ca94dadb463cd1b3f000b2b2250d4536ee044dc1d70",
      "assetIds": [
        "41506478881403507969696680653240014914910929820314476107906210059990541021189"
      ]
    },
    {
      "x": 392,
      "y": 234,
      "size": 1,
      "price": "4683000000000000000000",
      "reserved": "",
      "salt": "0x78ac1af6fd57f7329b59e81fb045bda92e9a24bd12e1148dfb75f38c509f5cb2",
      "assetIds": [
        "41506478881403507969696680653240014914910929820314476107906210059990541021189"
      ]
    },
    {
      "x": 392,
      "y": 235,
      "size": 1,
      "price": "4683000000000000000000",
      "reserved": "",
      "salt": "0x225976d6b593c3ff5bdff77cba44a1f1c932a9ed93fcb53de536adc88842e7f3",
      "assetIds": [
        "41506478881403507969696680653240014914910929820314476107906210059990541021186"
      ]
    },
    {
      "x": 392,
      "y": 236,
      "size": 1,
      "price": "4683000000000000000000",
      "reserved": "",
      "salt": "0x6a3a0715ac891b9978a45f7ee3a279c3d80119da54b8e2079f708fab95c7babf",
      "assetIds": [
        "41506478881403507969696680653240014914910929820314476107906210059990541021188"
      ]
    },
    {
      "x": 392,
      "y": 237,
      "size": 1,
      "price": "4683000000000000000000",
      "reserved": "",
      "salt": "0x47e07dbdee1d8dd867297202adf04b264d2803b309e43dcf478abd5476035f9f",
      "assetIds": [
        "41506478881403507969696680653240014914910929820314476107906210059990541021189"
      ]
    },
    {
      "x": 392,
      "y": 238,
      "size": 1,
      "price": "4683000000000000000000",
      "reserved": "",
      "salt": "0x885f5b1dc5c1fdd1508dfc9aae942052341e4d6e945694387bf30df5dba160ab",
      "assetIds": [
        "41506478881403507969696680653240014914910929820314476107906210059990541021189"
      ]
    },
    {
      "x": 392,
      "y": 239,
      "size": 1,
      "price": "4683000000000000000000",
      "reserved": "",
      "salt": "0xf045f4a9d974aea86f57bb5de7602ce37e89c8d799fb17a3b19794227b5d8fbb",
      "assetIds": [
        "41506478881403507969696680653240014914910929820314476107906210059990541021189"
      ]
    },
    {
      "x": 392,
      "y": 252,
      "size": 1,
      "price": "4683000000000000000000",
      "reserved": "",
      "salt": "0xe8b8288ebfb244057885b531a2f099e7dddeb45c1ee8702a6558a42e565de9e5",
      "assetIds": [
        "41506478881403507969696680653240014914910929820314476107906210059990532622336"
      ]
    },
    {
      "x": 392,
      "y": 253,
      "size": 1,
      "price": "4683000000000000000000",
      "reserved": "",
      "salt": "0x6fa43aa763ddad0236e01a1707bc540193458bad9640fd2616f1b2ebd02de40d",
      "assetIds": [
        "41506478881403507969696680653240014914910929820314476107906210059990541021188"
      ]
    },
    {
      "x": 392,
      "y": 254,
      "size": 1,
      "price": "4683000000000000000000",
      "reserved": "",
      "salt": "0x7eb5e9b2a62267be60c65060e4466a905ea79cae3540b8c0a72ee4b5b1abc444",
      "assetIds": [
        "41506478881403507969696680653240014914910929820314476107906210059990532622336"
      ]
    },
    {
      "x": 392,
      "y": 255,
      "size": 1,
      "price": "4683000000000000000000",
      "reserved": "",
      "salt": "0x2a3352abfa4a586c36513825928c7d8896c2f1bc82ab8757d4ae9048419f2034",
      "assetIds": [
        "41506478881403507969696680653240014914910929820314476107906210059990541021188"
      ]
    },
    {
      "x": 392,
      "y": 256,
      "size": 1,
      "price": "4683000000000000000000",
      "reserved": "",
      "salt": "0x793622e3bf75f67ddbf41ae7d1f4dddc08ac4f0aeb67920e982605caeab5bb8a",
      "assetIds": [
        "41506478881403507969696680653240014914910929820314476107906210059990541021188"
      ]
    },
    {
      "x": 392,
      "y": 257,
      "size": 1,
      "price": "4683000000000000000000",
      "reserved": "",
      "salt": "0x90284302c447f98cc9dab396e09fc715e689121ebfa9f934d616644600711221",
      "assetIds": [
        "41506478881403507969696680653240014914910929820314476107906210059990541021188"
      ]
    },
    {
      "x": 392,
      "y": 261,
      "size": 1,
      "price": "4683000000000000000000",
      "reserved": "",
      "salt": "0x48497e5d5975e72845bb1c3f2992ef9b3147aa95914f9cfcb3e655a091c20b81",
      "assetIds": [
        "41506478881403507969696680653240014914910929820314476107906210059990541021188"
      ]
    },
    {
      "x": 392,
      "y": 262,
      "size": 1,
      "price": "4683000000000000000000",
      "reserved": "",
      "salt": "0xaf7e83f6ab6591f5dd7233e495dbb6aa08fe12a5fde3910382c4d464db659f78",
      "assetIds": [
        "41506478881403507969696680653240014914910929820314476107906210059990541021189"
      ]
    },
    {
      "x": 392,
      "y": 263,
      "size": 1,
      "price": "4683000000000000000000",
      "reserved": "",
      "salt": "0xe768b3d518a21dcd84c8ed563916d823f061f4270fc0934f2c4128b4aece6272",
      "assetIds": [
        "41506478881403507969696680653240014914910929820314476107906210059990541021187"
      ]
    },
    {
      "x": 392,
      "y": 291,
      "size": 1,
      "price": "4683000000000000000000",
      "reserved": "",
      "salt": "0x31192aebbcd98181db0d8fc435f1bee9ba3cee4751fa5345d0cc1934cbf8c1a1",
      "assetIds": [
        "41506478881403507969696680653240014914910929820314476107906210059990541021185"
      ]
    },
    {
      "x": 392,
      "y": 292,
      "size": 1,
      "price": "4683000000000000000000",
      "reserved": "",
      "salt": "0x5118e15a561f72e73d1fdc42988c3c4e09e4a64e3a0cbe44d18dd1da48fcccc7",
      "assetIds": [
        "41506478881403507969696680653240014914910929820314476107906210059990541021184"
      ]
    },
    {
      "x": 392,
      "y": 293,
      "size": 1,
      "price": "4683000000000000000000",
      "reserved": "",
      "salt": "0x3a8022ea715d4c593152269907ebb48724a5fdcc66e5f83b29a63514af041cea",
      "assetIds": [
        "41506478881403507969696680653240014914910929820314476107906210059990541021188"
      ]
    },
    {
      "x": 392,
      "y": 294,
      "size": 1,
      "price": "4683000000000000000000",
      "reserved": "",
      "salt": "0xffb3d5909db16d79650f36c73dae27e795e4e23c552a1588fe7f5ea1cf0b1dfe",
      "assetIds": [
        "41506478881403507969696680653240014914910929820314476107906210059990541021185"
      ]
    },
    {
      "x": 392,
      "y": 295,
      "size": 1,
      "price": "4683000000000000000000",
      "reserved": "",
      "salt": "0x1150fcda88f8050e9726bf4e8f17c4ab476fad8f8a6f0cbc6530c78ad3b0e995",
      "assetIds": [
        "41506478881403507969696680653240014914910929820314476107906210059990541021187"
      ]
    },
    {
      "x": 392,
      "y": 296,
      "size": 1,
      "price": "4683000000000000000000",
      "reserved": "",
      "salt": "0xfbf1f0aaa163f85673010b669de127b9b96f640ee0e4508b10451b9ff6aba243",
      "assetIds": [
        "41506478881403507969696680653240014914910929820314476107906210059990541021187"
      ]
    },
    {
      "x": 392,
      "y": 297,
      "size": 1,
      "price": "4683000000000000000000",
      "reserved": "",
      "salt": "0x946e268f9d29cede8d8e008ad61c9b23dd59b4b2d8adc50fd4d1ca693b9e00c5",
      "assetIds": [
        "41506478881403507969696680653240014914910929820314476107906210059990541021188"
      ]
    },
    {
      "x": 392,
      "y": 298,
      "size": 1,
      "price": "4683000000000000000000",
      "reserved": "",
      "salt": "0x69d269a5430b231dfd2f4514b9f835b162b2fc813395fb3af5e42959ec12b2b7",
      "assetIds": [
        "41506478881403507969696680653240014914910929820314476107906210059990532622336"
      ]
    },
    {
      "x": 392,
      "y": 299,
      "size": 1,
      "price": "4683000000000000000000",
      "reserved": "",
      "salt": "0x36457ff1408332023bf60f8068fbe7381c6bfec889de341ecbc304a7a971c6f4",
      "assetIds": [
        "41506478881403507969696680653240014914910929820314476107906210059990541021189"
      ]
    },
    {
      "x": 392,
      "y": 300,
      "size": 1,
      "price": "4683000000000000000000",
      "reserved": "",
      "salt": "0x6b18d21b87a9bf48b58053eb5c62085ec98ef61e6ffb84a1ef40389a83dfdc6d",
      "assetIds": [
        "41506478881403507969696680653240014914910929820314476107906210059990541021187"
      ]
    },
    {
      "x": 392,
      "y": 301,
      "size": 1,
      "price": "4683000000000000000000",
      "reserved": "",
      "salt": "0x5e682302e3b5fb163f1a048da8508935edb72d5946521f123e42eb04f2e6fd00",
      "assetIds": [
        "41506478881403507969696680653240014914910929820314476107906210059990541021187"
      ]
    },
    {
      "x": 392,
      "y": 302,
      "size": 1,
      "price": "4683000000000000000000",
      "reserved": "",
      "salt": "0x398447e56a340df10d44217e2655cc99ebb1f983b03e528f27b09c7b789ca48f",
      "assetIds": [
        "41506478881403507969696680653240014914910929820314476107906210059990541021185"
      ]
    },
    {
      "x": 392,
      "y": 306,
      "size": 1,
      "price": "4683000000000000000000",
      "reserved": "",
      "salt": "0x7e4c5a4447a824c71026790efe12f9b48d83cffce796cad5647f709b7cb1d741",
      "assetIds": [
        "41506478881403507969696680653240014914910929820314476107906210059990541021188"
      ]
    },
    {
      "x": 392,
      "y": 307,
      "size": 1,
      "price": "4683000000000000000000",
      "reserved": "",
      "salt": "0xb737474568fd65d7bdd2aff710092f3509734cf5a7243754bf325775fb871652",
      "assetIds": [
        "41506478881403507969696680653240014914910929820314476107906210059990541021188"
      ]
    },
    {
      "x": 392,
      "y": 308,
      "size": 1,
      "price": "4683000000000000000000",
      "reserved": "",
      "salt": "0x1b3cc3400e5cacd94d913762b918197013022c4ab95ac15d5c2704725d8186b0",
      "assetIds": [
        "41506478881403507969696680653240014914910929820314476107906210059990541021184"
      ]
    },
    {
      "x": 393,
      "y": 222,
      "size": 1,
      "price": "4683000000000000000000",
      "reserved": "",
      "salt": "0x4a7dadb077fe69f9f3247564d15780415df6ade587788b1ccacd15432856cabf",
      "assetIds": [
        "41506478881403507969696680653240014914910929820314476107906210059990541021186"
      ]
    },
    {
      "x": 393,
      "y": 223,
      "size": 1,
      "price": "4683000000000000000000",
      "reserved": "",
      "salt": "0x896a6ec826d0022bab789f278a2b25132fa3c752db6e0725eeeb0ca5a9f3fc1f",
      "assetIds": [
        "41506478881403507969696680653240014914910929820314476107906210059990541021187"
      ]
    },
    {
      "x": 393,
      "y": 224,
      "size": 1,
      "price": "4683000000000000000000",
      "reserved": "",
      "salt": "0xc654ecd0d699cd22b33f3a63757f647e7fea459fbe3730124f361e063e068805",
      "assetIds": [
        "41506478881403507969696680653240014914910929820314476107906210059990541021188"
      ]
    },
    {
      "x": 393,
      "y": 225,
      "size": 1,
      "price": "4683000000000000000000",
      "reserved": "",
      "salt": "0xd9d0030db5c6556a9b03f32168991dc1965fdcce0ed7bb3e5c1faefc500efac6",
      "assetIds": [
        "41506478881403507969696680653240014914910929820314476107906210059990541021187"
      ]
    },
    {
      "x": 393,
      "y": 226,
      "size": 1,
      "price": "4683000000000000000000",
      "reserved": "",
      "salt": "0xd86519233e060ef686b06115aa82f0089ff28c38a38354ee8f1b67df2c661bee",
      "assetIds": [
        "41506478881403507969696680653240014914910929820314476107906210059990541021187"
      ]
    },
    {
      "x": 393,
      "y": 227,
      "size": 1,
      "price": "4683000000000000000000",
      "reserved": "",
      "salt": "0x7609b90b6b751f113d150e40dab59e9475e3d50b88bc8fa63e5c5d8af7d4d7c6",
      "assetIds": [
        "41506478881403507969696680653240014914910929820314476107906210059990541021186"
      ]
    },
    {
      "x": 393,
      "y": 234,
      "size": 1,
      "price": "4683000000000000000000",
      "reserved": "",
      "salt": "0x74d64496805cc5975b3729fc113f90d93fe64adbb8a3e2c396702c1eee0b7696",
      "assetIds": [
        "41506478881403507969696680653240014914910929820314476107906210059990541021189"
      ]
    },
    {
      "x": 393,
      "y": 235,
      "size": 1,
      "price": "4683000000000000000000",
      "reserved": "",
      "salt": "0xb524a0d100f9c98fac88aa07c3230d83848859eda9293402149e74d5758710c4",
      "assetIds": [
        "41506478881403507969696680653240014914910929820314476107906210059990541021188"
      ]
    },
    {
      "x": 393,
      "y": 236,
      "size": 1,
      "price": "4683000000000000000000",
      "reserved": "",
      "salt": "0xd8b7bf6279bbf7b93c66efe970bf9ca3bed0155b435f1b5811ae1afc715e5329",
      "assetIds": [
        "41506478881403507969696680653240014914910929820314476107906210059990532622336"
      ]
    },
    {
      "x": 393,
      "y": 237,
      "size": 1,
      "price": "4683000000000000000000",
      "reserved": "",
      "salt": "0x74dc8a01e1b0dfeb4188b60387b8fe54eb8a4734e384ba01f6fc56e8722129c5",
      "assetIds": [
        "41506478881403507969696680653240014914910929820314476107906210059990541021186"
      ]
    },
    {
      "x": 393,
      "y": 238,
      "size": 1,
      "price": "4683000000000000000000",
      "reserved": "",
      "salt": "0xc0b8a71068c56babb974ddbdebaaab95b9f84d98b5d757c141b4de1e561afb83",
      "assetIds": [
        "41506478881403507969696680653240014914910929820314476107906210059990541021188"
      ]
    },
    {
      "x": 393,
      "y": 239,
      "size": 1,
      "price": "4683000000000000000000",
      "reserved": "",
      "salt": "0x414e9399e6f7a2f91c27f8f73e79ea3d29d5350c0d1886186413826fa0765dc8",
      "assetIds": [
        "41506478881403507969696680653240014914910929820314476107906210059990541021187"
      ]
    },
    {
      "x": 393,
      "y": 252,
      "size": 1,
      "price": "4683000000000000000000",
      "reserved": "",
      "salt": "0xac6a02113c14de99aa2f297193d3cbbfd0e4cf75296ff996027972ab07f635bb",
      "assetIds": [
        "41506478881403507969696680653240014914910929820314476107906210059990541021187"
      ]
    },
    {
      "x": 393,
      "y": 253,
      "size": 1,
      "price": "4683000000000000000000",
      "reserved": "",
      "salt": "0x201828a3e85d759734645541ca1a98e83476a79452176cd4ccc14d73df68a1f5",
      "assetIds": [
        "41506478881403507969696680653240014914910929820314476107906210059990541021187"
      ]
    },
    {
      "x": 393,
      "y": 254,
      "size": 1,
      "price": "4683000000000000000000",
      "reserved": "",
      "salt": "0x62ea03d4dab38d31ac9209efc9ded9a7da16d9a339701126c6161dbe68732d65",
      "assetIds": [
        "41506478881403507969696680653240014914910929820314476107906210059990541021187"
      ]
    },
    {
      "x": 393,
      "y": 255,
      "size": 1,
      "price": "4683000000000000000000",
      "reserved": "",
      "salt": "0x7d39c6f29f7a0a02061732550f9b88b8734705934a5666ae37afd0070c882b4d",
      "assetIds": [
        "41506478881403507969696680653240014914910929820314476107906210059990541021188"
      ]
    },
    {
      "x": 393,
      "y": 256,
      "size": 1,
      "price": "4683000000000000000000",
      "reserved": "",
      "salt": "0x21b8586a4f2c01e356394b11ff6316c179a2365dcbc5be9d1fd2767ce6daeecf",
      "assetIds": [
        "41506478881403507969696680653240014914910929820314476107906210059990541021187"
      ]
    },
    {
      "x": 393,
      "y": 257,
      "size": 1,
      "price": "4683000000000000000000",
      "reserved": "",
      "salt": "0x2c1dd7c7b1d673d017a8cf7920cc48db110dc18161b659343097afdce75e9d0c",
      "assetIds": [
        "41506478881403507969696680653240014914910929820314476107906210059990541021188"
      ]
    },
    {
      "x": 393,
      "y": 258,
      "size": 1,
      "price": "4683000000000000000000",
      "reserved": "",
      "salt": "0x74477a0c971d5ccbe47a396e53c33b008f988e7958af43f1f0bc9567476e99cd",
      "assetIds": [
        "41506478881403507969696680653240014914910929820314476107906210059990541021187"
      ]
    },
    {
      "x": 393,
      "y": 259,
      "size": 1,
      "price": "4683000000000000000000",
      "reserved": "",
      "salt": "0xb17b94b032e3537d97a76f48d2bd59ef2b45ceb07e600f2bf6c6eaaafd3249e7",
      "assetIds": [
        "41506478881403507969696680653240014914910929820314476107906210059990541021188"
      ]
    },
    {
      "x": 393,
      "y": 260,
      "size": 1,
      "price": "4683000000000000000000",
      "reserved": "",
      "salt": "0x40e3d2796fb7edd2ab7c145607dbc680525132e3f3ddb1909553503448b86302",
      "assetIds": [
        "41506478881403507969696680653240014914910929820314476107906210059990541021188"
      ]
    },
    {
      "x": 393,
      "y": 288,
      "size": 1,
      "price": "4683000000000000000000",
      "reserved": "",
      "salt": "0xd98470088de7b2b19ff8e0f925f1a37da972733cf82c9e15f810811b389d0be3",
      "assetIds": [
        "41506478881403507969696680653240014914910929820314476107906210059990532622336"
      ]
    },
    {
      "x": 393,
      "y": 289,
      "size": 1,
      "price": "4683000000000000000000",
      "reserved": "",
      "salt": "0x23dc3b221aaf83ef978913f24418551eaa6909475d07aac28ba17fa5b422eb36",
      "assetIds": [
        "41506478881403507969696680653240014914910929820314476107906210059990541021187"
      ]
    },
    {
      "x": 393,
      "y": 290,
      "size": 1,
      "price": "4683000000000000000000",
      "reserved": "",
      "salt": "0xdacf336e548066502579b4905beb4404eb8de32c1bb34d73c02c8ba92a5e7a0e",
      "assetIds": [
        "41506478881403507969696680653240014914910929820314476107906210059990541021189"
      ]
    },
    {
      "x": 393,
      "y": 291,
      "size": 1,
      "price": "4683000000000000000000",
      "reserved": "",
      "salt": "0x459b07164aae4168534a728fe454f16bb1e2741756c8c8a87a7b915dc19b847e",
      "assetIds": [
        "41506478881403507969696680653240014914910929820314476107906210059990541021184"
      ]
    },
    {
      "x": 393,
      "y": 292,
      "size": 1,
      "price": "4683000000000000000000",
      "reserved": "",
      "salt": "0x506d26d9e1513aa1f4a6bce86bbb6b414f835883b033790441d001f79d3a2ec5",
      "assetIds": [
        "41506478881403507969696680653240014914910929820314476107906210059990541021189"
      ]
    },
    {
      "x": 393,
      "y": 293,
      "size": 1,
      "price": "4683000000000000000000",
      "reserved": "",
      "salt": "0x69da30beb9a95abe730220f5c3ee380d98e56cfd606cb074e4add73c452cdd10",
      "assetIds": [
        "41506478881403507969696680653240014914910929820314476107906210059990541021187"
      ]
    },
    {
      "x": 393,
      "y": 294,
      "size": 1,
      "price": "4683000000000000000000",
      "reserved": "",
      "salt": "0x72f56b58491f176e46b505b0869e84caaac0c0c00fb8d23553a9ea7c8c1ac898",
      "assetIds": [
        "41506478881403507969696680653240014914910929820314476107906210059990541021187"
      ]
    },
    {
      "x": 393,
      "y": 295,
      "size": 1,
      "price": "4683000000000000000000",
      "reserved": "",
      "salt": "0xef2d8de68da57fbec05f077124ae2af96ccd5b8b71cbdf695a6f727c2b001531",
      "assetIds": [
        "41506478881403507969696680653240014914910929820314476107906210059990532622336"
      ]
    },
    {
      "x": 393,
      "y": 296,
      "size": 1,
      "price": "4683000000000000000000",
      "reserved": "",
      "salt": "0x935c05f25733792df37b32721359374560587b7e51f8f7a33df7c467bb43e31c",
      "assetIds": [
        "41506478881403507969696680653240014914910929820314476107906210059990541021188"
      ]
    },
    {
      "x": 393,
      "y": 300,
      "size": 1,
      "price": "4683000000000000000000",
      "reserved": "",
      "salt": "0xdf442a4251cd4dca0843bb71e7a75282afc5b5b8e5d07c8dc4dc5144a77c22b4",
      "assetIds": [
        "41506478881403507969696680653240014914910929820314476107906210059990541021187"
      ]
    },
    {
      "x": 393,
      "y": 301,
      "size": 1,
      "price": "4683000000000000000000",
      "reserved": "",
      "salt": "0x584678f4e1ed216065679e6ba818d02a3fc7b782df3cf820e7c94569637c604f",
      "assetIds": [
        "41506478881403507969696680653240014914910929820314476107906210059990541021185"
      ]
    },
    {
      "x": 393,
      "y": 302,
      "size": 1,
      "price": "4683000000000000000000",
      "reserved": "",
      "salt": "0xe98733a930307d3c7b1d0fa6cf0ea973a58c13d6fbf2970ba113873a447531f6",
      "assetIds": [
        "41506478881403507969696680653240014914910929820314476107906210059990541021188"
      ]
    },
    {
      "x": 393,
      "y": 303,
      "size": 1,
      "price": "4683000000000000000000",
      "reserved": "",
      "salt": "0x08db1f2c6188ebf006f4f74304b36d9c36b58c44e72d340adfd85c4ff35acb9a",
      "assetIds": [
        "41506478881403507969696680653240014914910929820314476107906210059990541021187"
      ]
    },
    {
      "x": 393,
      "y": 304,
      "size": 1,
      "price": "4683000000000000000000",
      "reserved": "",
      "salt": "0xf97d332aca308c3a0a0e0660f8d2b7d4b0aedd88fec1b2597cf45e4e0782d7e7",
      "assetIds": [
        "41506478881403507969696680653240014914910929820314476107906210059990532622336"
      ]
    },
    {
      "x": 393,
      "y": 305,
      "size": 1,
      "price": "4683000000000000000000",
      "reserved": "",
      "salt": "0xa351a8e1c6b492cff8574646ebf33e7ad32dc86784503e66630af775b8b35ac3",
      "assetIds": [
        "41506478881403507969696680653240014914910929820314476107906210059990541021187"
      ]
    },
    {
      "x": 393,
      "y": 306,
      "size": 1,
      "price": "4683000000000000000000",
      "reserved": "",
      "salt": "0x38acd84c9940378d5fb9f70e5a7ae89b5f57db7107210aebcc1ea18b5c0f4637",
      "assetIds": [
        "41506478881403507969696680653240014914910929820314476107906210059990541021189"
      ]
    },
    {
      "x": 393,
      "y": 307,
      "size": 1,
      "price": "4683000000000000000000",
      "reserved": "",
      "salt": "0x0b02558c5a97a1f44b924cf898d9324964355f00d04ebf95aa21919b03ccee31",
      "assetIds": [
        "41506478881403507969696680653240014914910929820314476107906210059990541021185"
      ]
    },
    {
      "x": 393,
      "y": 308,
      "size": 1,
      "price": "4683000000000000000000",
      "reserved": "",
      "salt": "0x9bc0cf022dfdb1ccfa3a3d2a3f0f28af368101fc927ab2de37fde7070844878e",
      "assetIds": [
        "41506478881403507969696680653240014914910929820314476107906210059990541021187"
      ]
    },
    {
      "x": 393,
      "y": 309,
      "size": 1,
      "price": "4683000000000000000000",
      "reserved": "",
      "salt": "0x8674d2cf50f18871b61b6efff0bde22ddd6e2e81f0090515a2bd0f9ce7e15db4",
      "assetIds": [
        "41506478881403507969696680653240014914910929820314476107906210059990541021189"
      ]
    },
    {
      "x": 393,
      "y": 310,
      "size": 1,
      "price": "4683000000000000000000",
      "reserved": "",
      "salt": "0x376552c2b0c8d7395472909baec8086a30fa7a40e7e92c0edcdb297ce7c04359",
      "assetIds": [
        "41506478881403507969696680653240014914910929820314476107906210059990541021186"
      ]
    },
    {
      "x": 393,
      "y": 311,
      "size": 1,
      "price": "4683000000000000000000",
      "reserved": "",
      "salt": "0x283b3eaaa6d5bbb319c7370655e1cd484954672c52f5e73a470046c31976631f",
      "assetIds": [
        "41506478881403507969696680653240014914910929820314476107906210059990532622336"
      ]
    },
    {
      "x": 394,
      "y": 222,
      "size": 1,
      "price": "4683000000000000000000",
      "reserved": "",
      "salt": "0x355ea05b02a992d0130b81e3d9e350eedd3091e3975848a428ca4253725add9c",
      "assetIds": [
        "41506478881403507969696680653240014914910929820314476107906210059990532622336"
      ]
    },
    {
      "x": 394,
      "y": 223,
      "size": 1,
      "price": "4683000000000000000000",
      "reserved": "",
      "salt": "0xec33a170055c5076517c9a9efe6ea53de7a914af14d4d9634f1b55e3fb67305c",
      "assetIds": [
        "41506478881403507969696680653240014914910929820314476107906210059990541021186"
      ]
    },
    {
      "x": 394,
      "y": 224,
      "size": 1,
      "price": "4683000000000000000000",
      "reserved": "",
      "salt": "0x42898f942046940d72c0514526c6787861decd0b12e02aa8634f03530b385bdc",
      "assetIds": [
        "41506478881403507969696680653240014914910929820314476107906210059990541021185"
      ]
    },
    {
      "x": 394,
      "y": 225,
      "size": 1,
      "price": "4683000000000000000000",
      "reserved": "",
      "salt": "0xe19485a4d8eccdb7401055bec21631843e6eb827cb3fcfb773d3a8a8e8e139fd",
      "assetIds": [
        "41506478881403507969696680653240014914910929820314476107906210059990541021184"
      ]
    },
    {
      "x": 394,
      "y": 226,
      "size": 1,
      "price": "4683000000000000000000",
      "reserved": "",
      "salt": "0x900e436f93d8cb47735dc952594e254ea19f247f3e20f6a62fb69c983f4a8fcd",
      "assetIds": [
        "41506478881403507969696680653240014914910929820314476107906210059990541021187"
      ]
    },
    {
      "x": 394,
      "y": 227,
      "size": 1,
      "price": "4683000000000000000000",
      "reserved": "",
      "salt": "0x537cb9cff681668be36d717a6984464c46a2abc5a3fffaf94cc56c4bcc4dda39",
      "assetIds": [
        "41506478881403507969696680653240014914910929820314476107906210059990541021184"
      ]
    },
    {
      "x": 394,
      "y": 234,
      "size": 1,
      "price": "4683000000000000000000",
      "reserved": "",
      "salt": "0x2b82264ad343bd76bd463cbe5bafec873e367e8977fc00cc4c4921d8e9da4db5",
      "assetIds": [
        "41506478881403507969696680653240014914910929820314476107906210059990541021189"
      ]
    },
    {
      "x": 394,
      "y": 235,
      "size": 1,
      "price": "4683000000000000000000",
      "reserved": "",
      "salt": "0x696b2551a19ad7a2f4a6804144437b8b48569d8365f811d5eed08ff87021a32c",
      "assetIds": [
        "41506478881403507969696680653240014914910929820314476107906210059990541021188"
      ]
    },
    {
      "x": 394,
      "y": 236,
      "size": 1,
      "price": "4683000000000000000000",
      "reserved": "",
      "salt": "0x50fb23ffd36c5d8918b6ef649b9c7e196038e413a899919bdeae3c7552fe767a",
      "assetIds": [
        "41506478881403507969696680653240014914910929820314476107906210059990541021189"
      ]
    },
    {
      "x": 394,
      "y": 237,
      "size": 1,
      "price": "4683000000000000000000",
      "reserved": "",
      "salt": "0x3cae2692d2723c3222c6ca289b868f2376e352133587e9eafb9b178f8bac283d",
      "assetIds": [
        "41506478881403507969696680653240014914910929820314476107906210059990541021187"
      ]
    },
    {
      "x": 394,
      "y": 238,
      "size": 1,
      "price": "4683000000000000000000",
      "reserved": "",
      "salt": "0x44da81f24c9a255f2567b1cb8a8174c3e90797935a160164683172a9974bae2c",
      "assetIds": [
        "41506478881403507969696680653240014914910929820314476107906210059990541021189"
      ]
    },
    {
      "x": 394,
      "y": 239,
      "size": 1,
      "price": "4683000000000000000000",
      "reserved": "",
      "salt": "0x6313a07abe9e6b14afe848ba0f11e7901e38fbe98bcb4f5db56e4d2c3f3f19a8",
      "assetIds": [
        "41506478881403507969696680653240014914910929820314476107906210059990541021187"
      ]
    },
    {
      "x": 394,
      "y": 252,
      "size": 1,
      "price": "4683000000000000000000",
      "reserved": "",
      "salt": "0xb24f5cba6574ce5c8d85a7b4affe0d08a002f396e192246024f56e7d82eaf088",
      "assetIds": [
        "41506478881403507969696680653240014914910929820314476107906210059990541021187"
      ]
    },
    {
      "x": 394,
      "y": 253,
      "size": 1,
      "price": "4683000000000000000000",
      "reserved": "",
      "salt": "0xa2cbe3945953ed29b995421afc8fc220980e5cd68ea4734adf55d04a65558129",
      "assetIds": [
        "41506478881403507969696680653240014914910929820314476107906210059990541021186"
      ]
    },
    {
      "x": 394,
      "y": 254,
      "size": 1,
      "price": "4683000000000000000000",
      "reserved": "",
      "salt": "0x6f2a56480706811ce4fa3502de14e2cedcae36c84cfc4ad49a8d8f3341c244d1",
      "assetIds": [
        "41506478881403507969696680653240014914910929820314476107906210059990532622336"
      ]
    },
    {
      "x": 394,
      "y": 255,
      "size": 1,
      "price": "4683000000000000000000",
      "reserved": "",
      "salt": "0x9dc8fef089b736156a62dcf97d05c08cc3d5b25951a9ad742361d84d3327d354",
      "assetIds": [
        "41506478881403507969696680653240014914910929820314476107906210059990541021187"
      ]
    },
    {
      "x": 394,
      "y": 256,
      "size": 1,
      "price": "4683000000000000000000",
      "reserved": "",
      "salt": "0xfc15b8b88873532704caf222e99be2815040c794947110a95e194f055206145d",
      "assetIds": [
        "41506478881403507969696680653240014914910929820314476107906210059990541021189"
      ]
    },
    {
      "x": 394,
      "y": 257,
      "size": 1,
      "price": "4683000000000000000000",
      "reserved": "",
      "salt": "0x7c61efaa0b671ed29de00f7370ce4ac5df5acdec4a66f9283c81da8a81b572c2",
      "assetIds": [
        "41506478881403507969696680653240014914910929820314476107906210059990541021189"
      ]
    },
    {
      "x": 394,
      "y": 258,
      "size": 1,
      "price": "4683000000000000000000",
      "reserved": "",
      "salt": "0xfe4d95519a9a5e14981148cb7f4a0b02e351eb706e22497ac8c95fcdd2baa607",
      "assetIds": [
        "41506478881403507969696680653240014914910929820314476107906210059990541021185"
      ]
    },
    {
      "x": 394,
      "y": 259,
      "size": 1,
      "price": "4683000000000000000000",
      "reserved": "",
      "salt": "0xa903529ed134567c13ef28e1c8109fa5bf7f6a5d1a153fed73668d84ae21e903",
      "assetIds": [
        "41506478881403507969696680653240014914910929820314476107906210059990541021188"
      ]
    },
    {
      "x": 394,
      "y": 260,
      "size": 1,
      "price": "4683000000000000000000",
      "reserved": "",
      "salt": "0xea51a16a5fc03188d50007d53120104ee3f80f1196ea4c3774caaadb9cf6d19a",
      "assetIds": [
        "41506478881403507969696680653240014914910929820314476107906210059990541021185"
      ]
    },
    {
      "x": 394,
      "y": 288,
      "size": 1,
      "price": "4683000000000000000000",
      "reserved": "",
      "salt": "0xa46f8c930e62de4793a325ef62c19226956e4a57e2e60acf768beaaf5f6e8f38",
      "assetIds": [
        "41506478881403507969696680653240014914910929820314476107906210059990541021189"
      ]
    },
    {
      "x": 394,
      "y": 289,
      "size": 1,
      "price": "1011000000000000000000",
      "reserved": "0x7a9fe22691c811ea339d9b73150e6911a5343dca",
      "salt": "0x453146b231a41f6aaa99285a11f9988d11eb15efcf49f4e1a7703cc6ab8a8039",
      "assetIds": []
    },
    {
      "x": 394,
      "y": 290,
      "size": 1,
      "price": "4683000000000000000000",
      "reserved": "",
      "salt": "0xbc86b2161bf89502f29a944e75969916c5e2ad9803cf2d0936d321a2e853e5d5",
      "assetIds": [
        "41506478881403507969696680653240014914910929820314476107906210059990541021188"
      ]
    },
    {
      "x": 394,
      "y": 291,
      "size": 1,
      "price": "4683000000000000000000",
      "reserved": "",
      "salt": "0x4ddc91815311e0dd6b5f746a115eec12bcc9f914e1469fcb4507334b01ceeeb0",
      "assetIds": [
        "41506478881403507969696680653240014914910929820314476107906210059990541021188"
      ]
    },
    {
      "x": 394,
      "y": 292,
      "size": 1,
      "price": "4683000000000000000000",
      "reserved": "",
      "salt": "0x3e44b674909107b52bc21066d7164157d22e0dae13e29df31606ba7090d0dcf8",
      "assetIds": [
        "41506478881403507969696680653240014914910929820314476107906210059990541021187"
      ]
    },
    {
      "x": 394,
      "y": 293,
      "size": 1,
      "price": "4683000000000000000000",
      "reserved": "",
      "salt": "0x33cc34d8fc0b1c9b6f37f565cac45253ea3cb275df09d598401d086f71cbc27d",
      "assetIds": [
        "41506478881403507969696680653240014914910929820314476107906210059990541021187"
      ]
    },
    {
      "x": 394,
      "y": 294,
      "size": 1,
      "price": "4683000000000000000000",
      "reserved": "",
      "salt": "0x650b50093864ad79e392e57bac9c2df634fe868d5fcaf54323f542df167751b6",
      "assetIds": [
        "41506478881403507969696680653240014914910929820314476107906210059990541021185"
      ]
    },
    {
      "x": 394,
      "y": 295,
      "size": 1,
      "price": "4683000000000000000000",
      "reserved": "",
      "salt": "0x57b80a1d390fc66fb31c83d088d3db9212c549f4ad80fbf30225ee63d53fb017",
      "assetIds": [
        "41506478881403507969696680653240014914910929820314476107906210059990541021188"
      ]
    },
    {
      "x": 394,
      "y": 296,
      "size": 1,
      "price": "4683000000000000000000",
      "reserved": "",
      "salt": "0x10e87ab1f388def8c4db02021efce72be391b58e10bcbbb762751dd8d38c3064",
      "assetIds": [
        "41506478881403507969696680653240014914910929820314476107906210059990541021189"
      ]
    },
    {
      "x": 394,
      "y": 300,
      "size": 1,
      "price": "4683000000000000000000",
      "reserved": "",
      "salt": "0x80bf30be2b3c876ee282f64f56acd5971e5dbbd5d3864eb0d229f7fb8d2d30d8",
      "assetIds": [
        "41506478881403507969696680653240014914910929820314476107906210059990541021188"
      ]
    },
    {
      "x": 394,
      "y": 301,
      "size": 1,
      "price": "4683000000000000000000",
      "reserved": "",
      "salt": "0x8cc3e03cf61654cb0268eed69cb9d98483860091ae89288f73e369739664d1c2",
      "assetIds": [
        "41506478881403507969696680653240014914910929820314476107906210059990541021184"
      ]
    },
    {
      "x": 394,
      "y": 302,
      "size": 1,
      "price": "4683000000000000000000",
      "reserved": "",
      "salt": "0xf931db90fd4e92701791a6ff2b430298e8cc60ffceddfd773d8236d6eb7687a2",
      "assetIds": [
        "41506478881403507969696680653240014914910929820314476107906210059990541021189"
      ]
    },
    {
      "x": 394,
      "y": 303,
      "size": 1,
      "price": "4683000000000000000000",
      "reserved": "",
      "salt": "0xac84aa00a38586c8a9ba7043664b010792545e4065f9db6a8d5ba5e1286498c8",
      "assetIds": [
        "41506478881403507969696680653240014914910929820314476107906210059990541021188"
      ]
    },
    {
      "x": 394,
      "y": 304,
      "size": 1,
      "price": "4683000000000000000000",
      "reserved": "",
      "salt": "0xbf285440f1ab2a47f829386a91d70f6ce8d990dd6b823f67dd5a7839afc886e4",
      "assetIds": [
        "41506478881403507969696680653240014914910929820314476107906210059990541021187"
      ]
    },
    {
      "x": 394,
      "y": 305,
      "size": 1,
      "price": "4683000000000000000000",
      "reserved": "",
      "salt": "0x081cf4850ccaa187357c6110fdf822f1cc8bf1c8ca3c14920c36023cf07659a0",
      "assetIds": [
        "41506478881403507969696680653240014914910929820314476107906210059990541021186"
      ]
    },
    {
      "x": 394,
      "y": 306,
      "size": 1,
      "price": "4683000000000000000000",
      "reserved": "",
      "salt": "0x01c8f8623ce515bccd197dcb3b60796e2f6c61787c537af35ff258c55c0de7d4",
      "assetIds": [
        "41506478881403507969696680653240014914910929820314476107906210059990541021188"
      ]
    },
    {
      "x": 394,
      "y": 307,
      "size": 1,
      "price": "1011000000000000000000",
      "reserved": "0x7a9fe22691c811ea339d9b73150e6911a5343dca",
      "salt": "0xcd7b83db92544c19bcf05b278c8b56e56106bac40885f3a5e812805bd267807b",
      "assetIds": []
    },
    {
      "x": 394,
      "y": 308,
      "size": 1,
      "price": "4683000000000000000000",
      "reserved": "",
      "salt": "0x3171ca65fda42768607d640fe16a323ee1ca4e6bc24abcc1fac5bac9066f48ee",
      "assetIds": [
        "41506478881403507969696680653240014914910929820314476107906210059990532622336"
      ]
    },
    {
      "x": 394,
      "y": 309,
      "size": 1,
      "price": "4683000000000000000000",
      "reserved": "",
      "salt": "0xc3225980f28045fa011d5e93423d426c8f161665bb0f5d81a5b12b6a26c417fd",
      "assetIds": [
        "41506478881403507969696680653240014914910929820314476107906210059990541021187"
      ]
    },
    {
      "x": 394,
      "y": 310,
      "size": 1,
      "price": "4683000000000000000000",
      "reserved": "",
      "salt": "0xe864740099d57dab85f9a89c93185b89400931caf7ce76d161524cda5e600ab4",
      "assetIds": [
        "41506478881403507969696680653240014914910929820314476107906210059990541021188"
      ]
    },
    {
      "x": 394,
      "y": 311,
      "size": 1,
      "price": "4683000000000000000000",
      "reserved": "",
      "salt": "0x4acf47ca6274f39eb71f02489401a605bf3df555f8214057cdce71c74fd2a69c",
      "assetIds": [
        "41506478881403507969696680653240014914910929820314476107906210059990541021186"
      ]
    },
    {
      "x": 395,
      "y": 222,
      "size": 1,
      "price": "4683000000000000000000",
      "reserved": "",
      "salt": "0xb6e029fb6c9a1b2f09704901e15285ac86d1b501ea0b5bd3124927be7cd71ab5",
      "assetIds": [
        "41506478881403507969696680653240014914910929820314476107906210059990532622336"
      ]
    },
    {
      "x": 395,
      "y": 223,
      "size": 1,
      "price": "1011000000000000000000",
      "reserved": "0x7a9fe22691c811ea339d9b73150e6911a5343dca",
      "salt": "0x5d9f85b1b218c5c5653fa72b5b8c1e19f4cca3d94bb50c4b3793ac68377b5c9b",
      "assetIds": []
    },
    {
      "x": 395,
      "y": 224,
      "size": 1,
      "price": "4683000000000000000000",
      "reserved": "",
      "salt": "0x4a377bbba1b3806061d68ff064876f818670d01f2bc2d7c1ba7663823e8d67fc",
      "assetIds": [
        "41506478881403507969696680653240014914910929820314476107906210059990541021187"
      ]
    },
    {
      "x": 395,
      "y": 225,
      "size": 1,
      "price": "4683000000000000000000",
      "reserved": "",
      "salt": "0x65af3f963c1941e28aaf5946a0f8adce44e9f8e59959b95ae0b8880a281c7c22",
      "assetIds": [
        "41506478881403507969696680653240014914910929820314476107906210059990541021188"
      ]
    },
    {
      "x": 395,
      "y": 226,
      "size": 1,
      "price": "4683000000000000000000",
      "reserved": "",
      "salt": "0xe92b5f952ebc6087903758effd1134474276d65cf206f654f9e2c45a6572e6f5",
      "assetIds": [
        "41506478881403507969696680653240014914910929820314476107906210059990541021187"
      ]
    },
    {
      "x": 395,
      "y": 227,
      "size": 1,
      "price": "4683000000000000000000",
      "reserved": "",
      "salt": "0x27b07d8c39eab3bc3f8c48979489b1dfc6295afdbec514d18c3557331787ac2a",
      "assetIds": [
        "41506478881403507969696680653240014914910929820314476107906210059990541021187"
      ]
    },
    {
      "x": 395,
      "y": 234,
      "size": 1,
      "price": "4683000000000000000000",
      "reserved": "",
      "salt": "0xdc67bc6ada6e945039337a70e409ae08ef9945b12d9680dc25959034ddbad878",
      "assetIds": [
        "41506478881403507969696680653240014914910929820314476107906210059990541021188"
      ]
    },
    {
      "x": 395,
      "y": 235,
      "size": 1,
      "price": "4683000000000000000000",
      "reserved": "",
      "salt": "0xfc5d9be666dd9349864712187ec18bb9ab0172737204e7a16b7b8c171b163fe7",
      "assetIds": [
        "41506478881403507969696680653240014914910929820314476107906210059990541021187"
      ]
    },
    {
      "x": 395,
      "y": 236,
      "size": 1,
      "price": "4683000000000000000000",
      "reserved": "",
      "salt": "0xaf626c9464c8531ad4ec42d4203f1b9f5fbbba1d511e5c766e77640cb8580e72",
      "assetIds": [
        "41506478881403507969696680653240014914910929820314476107906210059990541021188"
      ]
    },
    {
      "x": 395,
      "y": 237,
      "size": 1,
      "price": "4683000000000000000000",
      "reserved": "",
      "salt": "0xa56a8bc3af7213c777c160c91f2a6d8113458108f4bd02b005fead3fa64ed23f",
      "assetIds": [
        "41506478881403507969696680653240014914910929820314476107906210059990541021188"
      ]
    },
    {
      "x": 395,
      "y": 238,
      "size": 1,
      "price": "4683000000000000000000",
      "reserved": "",
      "salt": "0x46bc6d237999fd9396ca3af067c59ed80e04d7f1bbfed130f7a9a3ef7c18db5b",
      "assetIds": [
        "41506478881403507969696680653240014914910929820314476107906210059990541021188"
      ]
    },
    {
      "x": 395,
      "y": 239,
      "size": 1,
      "price": "4683000000000000000000",
      "reserved": "",
      "salt": "0x4509cc9f18bc3dd07d58bdba283188453ff6ee54bed157a9cef6a51de6c53f42",
      "assetIds": [
        "41506478881403507969696680653240014914910929820314476107906210059990541021184"
      ]
    },
    {
      "x": 395,
      "y": 252,
      "size": 1,
      "price": "4683000000000000000000",
      "reserved": "",
      "salt": "0x722ca4d9b64391ee532d809a96ef90695e44dd33af0a11388a7d21d9a738d449",
      "assetIds": [
        "41506478881403507969696680653240014914910929820314476107906210059990541021187"
      ]
    },
    {
      "x": 395,
      "y": 253,
      "size": 1,
      "price": "4683000000000000000000",
      "reserved": "",
      "salt": "0xa04039007a55df9635a1d60d0c816b2951563e3b52cf553c446a7c9fa9c5a592",
      "assetIds": [
        "41506478881403507969696680653240014914910929820314476107906210059990541021187"
      ]
    },
    {
      "x": 395,
      "y": 254,
      "size": 1,
      "price": "4683000000000000000000",
      "reserved": "",
      "salt": "0xf12977e66d7fe52cc4fbaf170d14d22695e75044e8afb0f7b65bf03a9bf60874",
      "assetIds": [
        "41506478881403507969696680653240014914910929820314476107906210059990541021188"
      ]
    },
    {
      "x": 395,
      "y": 255,
      "size": 1,
      "price": "4683000000000000000000",
      "reserved": "",
      "salt": "0x8cd68d88198d4ba0eaa5f7815c26601534b8c5ce090bcc2ec07c10e9df447140",
      "assetIds": [
        "41506478881403507969696680653240014914910929820314476107906210059990541021189"
      ]
    },
    {
      "x": 395,
      "y": 256,
      "size": 1,
      "price": "4683000000000000000000",
      "reserved": "",
      "salt": "0xc0026607c042a474ac9998259e31c40ee2cf708b5be025eecab0d36f498e0609",
      "assetIds": [
        "41506478881403507969696680653240014914910929820314476107906210059990541021188"
      ]
    },
    {
      "x": 395,
      "y": 257,
      "size": 1,
      "price": "4683000000000000000000",
      "reserved": "",
      "salt": "0x7403f28cc7531ef2ce98190eddfac73c38567f56f30e408e8040dce478ee22a3",
      "assetIds": [
        "41506478881403507969696680653240014914910929820314476107906210059990541021188"
      ]
    },
    {
      "x": 395,
      "y": 258,
      "size": 1,
      "price": "4683000000000000000000",
      "reserved": "",
      "salt": "0xd8439de577dcf24df6d1b5b45b59777d0f9b754f179c4d62326f99c210e84146",
      "assetIds": [
        "41506478881403507969696680653240014914910929820314476107906210059990541021185"
      ]
    },
    {
      "x": 395,
      "y": 259,
      "size": 1,
      "price": "4683000000000000000000",
      "reserved": "",
      "salt": "0xa684c16d1e819b46c5b7476833293c693dadcdda6485664ff589663b91be2421",
      "assetIds": [
        "41506478881403507969696680653240014914910929820314476107906210059990541021188"
      ]
    },
    {
      "x": 395,
      "y": 260,
      "size": 1,
      "price": "4683000000000000000000",
      "reserved": "",
      "salt": "0x0468317c6e91dd462c7b104b527b29176618e4df6595cc16d16754668c30d98f",
      "assetIds": [
        "41506478881403507969696680653240014914910929820314476107906210059990541021187"
      ]
    },
    {
      "x": 395,
      "y": 288,
      "size": 1,
      "price": "4683000000000000000000",
      "reserved": "",
      "salt": "0x2d04733933e2b805531b6a8d9e0c572fa98b803977e9fd6bc6cb8492ef6fc707",
      "assetIds": [
        "41506478881403507969696680653240014914910929820314476107906210059990541021188"
      ]
    },
    {
      "x": 395,
      "y": 289,
      "size": 1,
      "price": "4683000000000000000000",
      "reserved": "",
      "salt": "0xe2d63a6b816152244643426f537e3bdc0db7500b7d47e612bf1acdbf3fcd2468",
      "assetIds": [
        "41506478881403507969696680653240014914910929820314476107906210059990541021187"
      ]
    },
    {
      "x": 395,
      "y": 290,
      "size": 1,
      "price": "4683000000000000000000",
      "reserved": "",
      "salt": "0x365a08dbef8d211e8bc9620018ddb515c337d48675a065957c5bfb416bc1fadb",
      "assetIds": [
        "41506478881403507969696680653240014914910929820314476107906210059990541021188"
      ]
    },
    {
      "x": 395,
      "y": 291,
      "size": 1,
      "price": "4683000000000000000000",
      "reserved": "",
      "salt": "0xde8142fec8c38f18359ceabfabbe54894122930bfc4bb501485b7dc4579102e7",
      "assetIds": [
        "41506478881403507969696680653240014914910929820314476107906210059990541021188"
      ]
    },
    {
      "x": 395,
      "y": 292,
      "size": 1,
      "price": "4683000000000000000000",
      "reserved": "",
      "salt": "0xa34d49e7a9bc8e3d747fc69ec63ee52e91823bd1eea07b9a06e1ce38bc73d5da",
      "assetIds": [
        "41506478881403507969696680653240014914910929820314476107906210059990541021189"
      ]
    },
    {
      "x": 395,
      "y": 293,
      "size": 1,
      "price": "4683000000000000000000",
      "reserved": "",
      "salt": "0x32a528e40bd8ebbb508cb803eda61e4e80f0230566c2e1eaa14b2343d4ab6a1a",
      "assetIds": [
        "41506478881403507969696680653240014914910929820314476107906210059990541021187"
      ]
    },
    {
      "x": 395,
      "y": 294,
      "size": 1,
      "price": "4683000000000000000000",
      "reserved": "",
      "salt": "0x3152bb5986feefb5eee46763cf845f9bcbcb6afda4a25159b0315695c317f8e2",
      "assetIds": [
        "41506478881403507969696680653240014914910929820314476107906210059990541021187"
      ]
    },
    {
      "x": 395,
      "y": 295,
      "size": 1,
      "price": "4683000000000000000000",
      "reserved": "",
      "salt": "0x26fd4d6e53209f2603ab5ac203e9bcc618e57b1b5a1962834875b4db3ba5d022",
      "assetIds": [
        "41506478881403507969696680653240014914910929820314476107906210059990541021184"
      ]
    },
    {
      "x": 395,
      "y": 296,
      "size": 1,
      "price": "4683000000000000000000",
      "reserved": "",
      "salt": "0x425be3b11683bbf3aae6bdb277953a08ea081a1741df36a8be0beb38a1409106",
      "assetIds": [
        "41506478881403507969696680653240014914910929820314476107906210059990541021188"
      ]
    },
    {
      "x": 395,
      "y": 300,
      "size": 1,
      "price": "4683000000000000000000",
      "reserved": "",
      "salt": "0xcd990deaef8a808bbb80e5835827090e263f0bcbf9e19fa95b22b3973b279aef",
      "assetIds": [
        "41506478881403507969696680653240014914910929820314476107906210059990541021188"
      ]
    },
    {
      "x": 395,
      "y": 301,
      "size": 1,
      "price": "4683000000000000000000",
      "reserved": "",
      "salt": "0xf7053c8edc1d6303b394e48660024b06bea86a7737827c5894ab1cbfa93cb776",
      "assetIds": [
        "41506478881403507969696680653240014914910929820314476107906210059990541021188"
      ]
    },
    {
      "x": 395,
      "y": 302,
      "size": 1,
      "price": "4683000000000000000000",
      "reserved": "",
      "salt": "0x9dbecae3e80106f62121b83c8ec98fe7478960cdf2a6e43cb3aac08a2fd47866",
      "assetIds": [
        "41506478881403507969696680653240014914910929820314476107906210059990541021184"
      ]
    },
    {
      "x": 395,
      "y": 303,
      "size": 1,
      "price": "4683000000000000000000",
      "reserved": "",
      "salt": "0x05887e30dec52ea204c8aa2392efc8e5162b6f388ba0df94c7e25acc3ab3a8b5",
      "assetIds": [
        "41506478881403507969696680653240014914910929820314476107906210059990541021185"
      ]
    },
    {
      "x": 395,
      "y": 304,
      "size": 1,
      "price": "4683000000000000000000",
      "reserved": "",
      "salt": "0xaf0e8f6249fd05e450b767b2466c5fd07a7ec3d03f853027bb71a26dae37886d",
      "assetIds": [
        "41506478881403507969696680653240014914910929820314476107906210059990541021186"
      ]
    },
    {
      "x": 395,
      "y": 305,
      "size": 1,
      "price": "4683000000000000000000",
      "reserved": "",
      "salt": "0x9494b1fb73be9f323596d663c8563b5b1ea5902ac72e36c55bac19f7da95f10c",
      "assetIds": [
        "41506478881403507969696680653240014914910929820314476107906210059990532622336"
      ]
    },
    {
      "x": 395,
      "y": 306,
      "size": 1,
      "price": "4683000000000000000000",
      "reserved": "",
      "salt": "0xb1d1577cd3679a02541914de1d34b585160d380ada7b846e2b6516cf9c7f8836",
      "assetIds": [
        "41506478881403507969696680653240014914910929820314476107906210059990541021189"
      ]
    },
    {
      "x": 395,
      "y": 307,
      "size": 1,
      "price": "4683000000000000000000",
      "reserved": "",
      "salt": "0x6f273b88f8e7f2d812e7c2ec9432acffa9dc77d5600add2df8b054296457d95b",
      "assetIds": [
        "41506478881403507969696680653240014914910929820314476107906210059990541021187"
      ]
    },
    {
      "x": 395,
      "y": 308,
      "size": 1,
      "price": "4683000000000000000000",
      "reserved": "",
      "salt": "0x79e9959250596f0543fa13970f60a9869e11b266d29f0c41b8e0b76fc52e1707",
      "assetIds": [
        "41506478881403507969696680653240014914910929820314476107906210059990541021185"
      ]
    },
    {
      "x": 395,
      "y": 309,
      "size": 1,
      "price": "4683000000000000000000",
      "reserved": "",
      "salt": "0xb5154933e5dd0e80f0433551df8752444320b8b662a4f22e1ee4686f2b98d8c3",
      "assetIds": [
        "41506478881403507969696680653240014914910929820314476107906210059990541021188"
      ]
    },
    {
      "x": 395,
      "y": 310,
      "size": 1,
      "price": "4683000000000000000000",
      "reserved": "",
      "salt": "0xd8bff7481099a23e80b0f9068fbdf84c28ad23ad4194f23197f1fc9e141857b9",
      "assetIds": [
        "41506478881403507969696680653240014914910929820314476107906210059990541021188"
      ]
    },
    {
      "x": 395,
      "y": 311,
      "size": 1,
      "price": "4683000000000000000000",
      "reserved": "",
      "salt": "0x7f5e619c83d55b8fe786786cf0e59984bae9e2c75736c9083c5ba2475a6ed442",
      "assetIds": [
        "41506478881403507969696680653240014914910929820314476107906210059990541021188"
      ]
    },
    {
      "x": 396,
      "y": 228,
      "size": 1,
      "price": "4683000000000000000000",
      "reserved": "",
      "salt": "0x28bd13400f90a9ea72dc2567ebc1522af063ba8b000804cd5f0036d37b192d32",
      "assetIds": [
        "41506478881403507969696680653240014914910929820314476107906210059990541021187"
      ]
    },
    {
      "x": 396,
      "y": 229,
      "size": 1,
      "price": "4683000000000000000000",
      "reserved": "",
      "salt": "0x687f177ee71fbf50c45084a6a2efe9dc24ac6bdaec2bd22d4a9c653a9f7ba81b",
      "assetIds": [
        "41506478881403507969696680653240014914910929820314476107906210059990541021186"
      ]
    },
    {
      "x": 396,
      "y": 230,
      "size": 1,
      "price": "4683000000000000000000",
      "reserved": "",
      "salt": "0x3ea355acf2d7c2471eec211963381a66abfdbebff0ce3c2018f8e792e2f70c8e",
      "assetIds": [
        "41506478881403507969696680653240014914910929820314476107906210059990541021188"
      ]
    },
    {
      "x": 396,
      "y": 231,
      "size": 1,
      "price": "4683000000000000000000",
      "reserved": "",
      "salt": "0x07b47ba1718d6929105d54831c5a1677279b8ef1217c566042dce04b09905b04",
      "assetIds": [
        "41506478881403507969696680653240014914910929820314476107906210059990541021188"
      ]
    },
    {
      "x": 396,
      "y": 232,
      "size": 1,
      "price": "4683000000000000000000",
      "reserved": "",
      "salt": "0x734ddaa467024c9a61ae52df97f8c406027f205af119234a09c0e037df693ffe",
      "assetIds": [
        "41506478881403507969696680653240014914910929820314476107906210059990541021184"
      ]
    },
    {
      "x": 396,
      "y": 233,
      "size": 1,
      "price": "4683000000000000000000",
      "reserved": "",
      "salt": "0xb389cbdb2ec2278cc5f7c36f49f611b8f0aa3c491d20a12be4ef8c70e72b97ec",
      "assetIds": [
        "41506478881403507969696680653240014914910929820314476107906210059990541021189"
      ]
    },
    {
      "x": 396,
      "y": 234,
      "size": 1,
      "price": "4683000000000000000000",
      "reserved": "",
      "salt": "0xbd551e429dfdcfc0dc8c1744f3f7a8bac2bf5d6ae63f06b97fd5aa033accd15b",
      "assetIds": [
        "41506478881403507969696680653240014914910929820314476107906210059990541021187"
      ]
    },
    {
      "x": 396,
      "y": 235,
      "size": 1,
      "price": "4683000000000000000000",
      "reserved": "",
      "salt": "0x0ef50d025df8b831f5186b3d5ba7855e76a9590ff4b8c7b5a0a4831effcb408d",
      "assetIds": [
        "41506478881403507969696680653240014914910929820314476107906210059990541021185"
      ]
    },
    {
      "x": 396,
      "y": 236,
      "size": 1,
      "price": "4683000000000000000000",
      "reserved": "",
      "salt": "0x1acc897bd9f3008699659c3005740925693412a89790fb28e638329060d9a5a8",
      "assetIds": [
        "41506478881403507969696680653240014914910929820314476107906210059990541021189"
      ]
    },
    {
      "x": 396,
      "y": 237,
      "size": 1,
      "price": "4683000000000000000000",
      "reserved": "",
      "salt": "0xa71adf59f69860efa3f76eb7b6a44049c56ec29e040f462ea5971ad5267417a2",
      "assetIds": [
        "41506478881403507969696680653240014914910929820314476107906210059990541021188"
      ]
    },
    {
      "x": 396,
      "y": 238,
      "size": 1,
      "price": "4683000000000000000000",
      "reserved": "",
      "salt": "0x4b8fbd8e2c18d1a727b88c7d455ff97167e676b55a65ba231a6426c67b43ecf8",
      "assetIds": [
        "41506478881403507969696680653240014914910929820314476107906210059990541021186"
      ]
    },
    {
      "x": 396,
      "y": 239,
      "size": 1,
      "price": "4683000000000000000000",
      "reserved": "",
      "salt": "0xba629ef922b6d693c87490af913836e8b188bafbf8846fef4c48d9b878425411",
      "assetIds": [
        "41506478881403507969696680653240014914910929820314476107906210059990541021188"
      ]
    },
    {
      "x": 396,
      "y": 240,
      "size": 1,
      "price": "4683000000000000000000",
      "reserved": "",
      "salt": "0xd457eb8a762379f01b063045f4321932fe4f748431ce33849f846bd0b594a9df",
      "assetIds": [
        "41506478881403507969696680653240014914910929820314476107906210059990541021187"
      ]
    },
    {
      "x": 396,
      "y": 241,
      "size": 1,
      "price": "4683000000000000000000",
      "reserved": "",
      "salt": "0xfdafdaeb5c7a313068076ae4f5640b733a942ca28dfa08f8800b54b1d374c02e",
      "assetIds": [
        "41506478881403507969696680653240014914910929820314476107906210059990541021187"
      ]
    },
    {
      "x": 396,
      "y": 242,
      "size": 1,
      "price": "4683000000000000000000",
      "reserved": "",
      "salt": "0xce828d250057b1699a91be5c50144d0b8c3bbb3550d4298a1a9638d6a7bc52b4",
      "assetIds": [
        "41506478881403507969696680653240014914910929820314476107906210059990541021188"
      ]
    },
    {
      "x": 396,
      "y": 243,
      "size": 1,
      "price": "4683000000000000000000",
      "reserved": "",
      "salt": "0x2fe8765c46226f45870924f0a2173b3328d98ee3cafa238c975cf7d246a4f2a8",
      "assetIds": [
        "41506478881403507969696680653240014914910929820314476107906210059990541021188"
      ]
    },
    {
      "x": 396,
      "y": 244,
      "size": 1,
      "price": "4683000000000000000000",
      "reserved": "",
      "salt": "0xfb94ba55d77614f74552ee0a975c525ec2a263e4288c005e6c2d9963a071981f",
      "assetIds": [
        "41506478881403507969696680653240014914910929820314476107906210059990541021185"
      ]
    },
    {
      "x": 396,
      "y": 245,
      "size": 1,
      "price": "4683000000000000000000",
      "reserved": "",
      "salt": "0x4230ade8feb0482e9b775684c9a5f0257ef086618f70ec5a097ee20f0d6db724",
      "assetIds": [
        "41506478881403507969696680653240014914910929820314476107906210059990541021184"
      ]
    },
    {
      "x": 396,
      "y": 246,
      "size": 1,
      "price": "4683000000000000000000",
      "reserved": "",
      "salt": "0x7449ebe5eb09b9be4635a79a4f4085dcf751e477cfc6fdbf59c2581c24a8ac89",
      "assetIds": [
        "41506478881403507969696680653240014914910929820314476107906210059990541021184"
      ]
    },
    {
      "x": 396,
      "y": 247,
      "size": 1,
      "price": "4683000000000000000000",
      "reserved": "",
      "salt": "0x8af906e10652a2f20d4008ae243b5bad2c94c24b65933a134851153b211f9b82",
      "assetIds": [
        "41506478881403507969696680653240014914910929820314476107906210059990532622336"
      ]
    },
    {
      "x": 396,
      "y": 248,
      "size": 1,
      "price": "4683000000000000000000",
      "reserved": "",
      "salt": "0xd8cd8431970989001b861c69ccacacd2995308948fcc3282e0a913e74dda1e30",
      "assetIds": [
        "41506478881403507969696680653240014914910929820314476107906210059990541021187"
      ]
    },
    {
      "x": 396,
      "y": 249,
      "size": 1,
      "price": "4683000000000000000000",
      "reserved": "",
      "salt": "0x34aa34fc083b327d16e71064c62b3d76d9d08d70aa7e3df40a938e83618311c4",
      "assetIds": [
        "41506478881403507969696680653240014914910929820314476107906210059990541021187"
      ]
    },
    {
      "x": 396,
      "y": 250,
      "size": 1,
      "price": "4683000000000000000000",
      "reserved": "",
      "salt": "0xf2836a6f9e3eac8c7c84bfa0a891236bea1ff90a6e15d253dcb879188822618c",
      "assetIds": [
        "41506478881403507969696680653240014914910929820314476107906210059990532622336"
      ]
    },
    {
      "x": 396,
      "y": 251,
      "size": 1,
      "price": "4683000000000000000000",
      "reserved": "",
      "salt": "0x5ab3ce1b937213171987c3740800e8c7335db4a6eb7f7cfa5c5572216f44bc3d",
      "assetIds": [
        "41506478881403507969696680653240014914910929820314476107906210059990541021188"
      ]
    },
    {
      "x": 396,
      "y": 294,
      "size": 1,
      "price": "4683000000000000000000",
      "reserved": "",
      "salt": "0x8d9a3e16c1de86f90e18b6294f8b6715b8c3fbfbcfb95eee6be6e21671808ba8",
      "assetIds": [
        "41506478881403507969696680653240014914910929820314476107906210059990541021188"
      ]
    },
    {
      "x": 396,
      "y": 295,
      "size": 1,
      "price": "4683000000000000000000",
      "reserved": "",
      "salt": "0x0f0f9a2c53aaf0ee345d7b8b529448462a9d88845c1e8d3eb68756ab672c9580",
      "assetIds": [
        "41506478881403507969696680653240014914910929820314476107906210059990541021187"
      ]
    },
    {
      "x": 396,
      "y": 296,
      "size": 1,
      "price": "4683000000000000000000",
      "reserved": "",
      "salt": "0x727890b93fdec2f1e3be06f03fe0f73a8ae8b99db9e5e945bf2299a669c755c6",
      "assetIds": [
        "41506478881403507969696680653240014914910929820314476107906210059990532622336"
      ]
    },
    {
      "x": 396,
      "y": 297,
      "size": 1,
      "price": "4683000000000000000000",
      "reserved": "",
      "salt": "0xeeddbad506f5787da8e1790473fbd1b94ff1ad707123b4cef5cecd9fa257b037",
      "assetIds": [
        "41506478881403507969696680653240014914910929820314476107906210059990541021187"
      ]
    },
    {
      "x": 396,
      "y": 298,
      "size": 1,
      "price": "4683000000000000000000",
      "reserved": "",
      "salt": "0x2fe6b47cdb3c32be6005b7085f265184935710f74a6f79df2423caf7494ffe55",
      "assetIds": [
        "41506478881403507969696680653240014914910929820314476107906210059990541021184"
      ]
    },
    {
      "x": 396,
      "y": 299,
      "size": 1,
      "price": "4683000000000000000000",
      "reserved": "",
      "salt": "0x4a92093c38d9fc1c2141e9df5210fb182816f417d76ab194f9101756da1b2153",
      "assetIds": [
        "41506478881403507969696680653240014914910929820314476107906210059990541021188"
      ]
    },
    {
      "x": 397,
      "y": 228,
      "size": 1,
      "price": "4683000000000000000000",
      "reserved": "",
      "salt": "0x5d2d3d9cce87091f0e49e211759b139c9027dc86d15e050177cc38b5c9454de4",
      "assetIds": [
        "41506478881403507969696680653240014914910929820314476107906210059990541021188"
      ]
    },
    {
      "x": 397,
      "y": 229,
      "size": 1,
      "price": "4683000000000000000000",
      "reserved": "",
      "salt": "0x0113d6277a48c450899af22d9b0abd961507cb113ab194458b3ee3bb242048aa",
      "assetIds": [
        "41506478881403507969696680653240014914910929820314476107906210059990541021189"
      ]
    },
    {
      "x": 397,
      "y": 230,
      "size": 1,
      "price": "4683000000000000000000",
      "reserved": "",
      "salt": "0x6a16300068abc82fb8184d3a03dd90a39b04c7fdd39f78121003570a4b536aa2",
      "assetIds": [
        "41506478881403507969696680653240014914910929820314476107906210059990541021188"
      ]
    },
    {
      "x": 397,
      "y": 231,
      "size": 1,
      "price": "4683000000000000000000",
      "reserved": "",
      "salt": "0xbc3482e1b95bdcaf6906d1695f6225863cf6dcf8e0b341422ba9e21cfb2c6054",
      "assetIds": [
        "41506478881403507969696680653240014914910929820314476107906210059990532622336"
      ]
    },
    {
      "x": 397,
      "y": 232,
      "size": 1,
      "price": "4683000000000000000000",
      "reserved": "",
      "salt": "0x1cb3c21bbfe23bfa76a1729c6db4d1c98a2f0d7681a7ff0b19d4a65ad838e283",
      "assetIds": [
        "41506478881403507969696680653240014914910929820314476107906210059990532622336"
      ]
    },
    {
      "x": 397,
      "y": 233,
      "size": 1,
      "price": "4683000000000000000000",
      "reserved": "",
      "salt": "0xdda7718fc6612c4eccfc3aed61f2412a59109965013321a6c87e3449b9cb2fa5",
      "assetIds": [
        "41506478881403507969696680653240014914910929820314476107906210059990541021189"
      ]
    },
    {
      "x": 397,
      "y": 234,
      "size": 1,
      "price": "4683000000000000000000",
      "reserved": "",
      "salt": "0x2be84a786b65c9db641fe0ec622ef611290459019567971d3ce8c8b363821538",
      "assetIds": [
        "41506478881403507969696680653240014914910929820314476107906210059990541021186"
      ]
    },
    {
      "x": 397,
      "y": 235,
      "size": 1,
      "price": "4683000000000000000000",
      "reserved": "",
      "salt": "0xb0775d358b52f61764b4661c15bee5efb5a7a5cd9fe66b16f16c7a1f0f5701b1",
      "assetIds": [
        "41506478881403507969696680653240014914910929820314476107906210059990541021184"
      ]
    },
    {
      "x": 397,
      "y": 236,
      "size": 1,
      "price": "4683000000000000000000",
      "reserved": "",
      "salt": "0xf9dfae85a2833798cfa7714c6bebd2d2a06bccc63c93dbd3e121a2a582628f17",
      "assetIds": [
        "41506478881403507969696680653240014914910929820314476107906210059990541021184"
      ]
    },
    {
      "x": 397,
      "y": 237,
      "size": 1,
      "price": "4683000000000000000000",
      "reserved": "",
      "salt": "0xd98726671a0e15805248c61095f3868412e54268974160158e29a1577cbb2dc0",
      "assetIds": [
        "41506478881403507969696680653240014914910929820314476107906210059990541021188"
      ]
    },
    {
      "x": 397,
      "y": 238,
      "size": 1,
      "price": "4683000000000000000000",
      "reserved": "",
      "salt": "0xc97aa31fb65eb3ef15f4cd9b900cdcfc197c5d4a87ed685d0ee4aef061557356",
      "assetIds": [
        "41506478881403507969696680653240014914910929820314476107906210059990541021186"
      ]
    },
    {
      "x": 397,
      "y": 239,
      "size": 1,
      "price": "4683000000000000000000",
      "reserved": "",
      "salt": "0x8485707170c29c2f10916f0c0c946f744ab8aedddf4ca78eb513e0ae7da902a4",
      "assetIds": [
        "41506478881403507969696680653240014914910929820314476107906210059990541021187"
      ]
    },
    {
      "x": 397,
      "y": 240,
      "size": 1,
      "price": "4683000000000000000000",
      "reserved": "",
      "salt": "0x17778ca859eb06feb4295aed3eac47027f8cde48b15ca0939a5d9391fc9aa939",
      "assetIds": [
        "41506478881403507969696680653240014914910929820314476107906210059990541021187"
      ]
    },
    {
      "x": 397,
      "y": 241,
      "size": 1,
      "price": "4683000000000000000000",
      "reserved": "",
      "salt": "0xfb70b6ec16e69a82b56facee01469bd24adc50bb252e8de6001587e5b18466d0",
      "assetIds": [
        "41506478881403507969696680653240014914910929820314476107906210059990541021186"
      ]
    },
    {
      "x": 397,
      "y": 242,
      "size": 1,
      "price": "4683000000000000000000",
      "reserved": "",
      "salt": "0x476d171ac28d43aa3f5539065ea33448a925359e84ff951d75640f2743cfa106",
      "assetIds": [
        "41506478881403507969696680653240014914910929820314476107906210059990532622336"
      ]
    },
    {
      "x": 397,
      "y": 243,
      "size": 1,
      "price": "4683000000000000000000",
      "reserved": "",
      "salt": "0x008bf5baf56b0ad3f1648037d67ab2491476e2c9ddbc3188ef66065b6823b195",
      "assetIds": [
        "41506478881403507969696680653240014914910929820314476107906210059990541021184"
      ]
    },
    {
      "x": 397,
      "y": 244,
      "size": 1,
      "price": "4683000000000000000000",
      "reserved": "",
      "salt": "0x7c2419c52af11a04fc14b2f99707c77f82c4b4261ecaa1fe0a60fce2405228e7",
      "assetIds": [
        "41506478881403507969696680653240014914910929820314476107906210059990541021184"
      ]
    },
    {
      "x": 397,
      "y": 245,
      "size": 1,
      "price": "4683000000000000000000",
      "reserved": "",
      "salt": "0x6cce5dbccc6a9be3511d066c2ddf1dd4f8ef1de54809e7cd4e858d03b659eb02",
      "assetIds": [
        "41506478881403507969696680653240014914910929820314476107906210059990541021186"
      ]
    },
    {
      "x": 397,
      "y": 246,
      "size": 1,
      "price": "4683000000000000000000",
      "reserved": "",
      "salt": "0xa40d9d0a5769365de56083398445201607876fe58d7262876eaadbfa1e62666b",
      "assetIds": [
        "41506478881403507969696680653240014914910929820314476107906210059990541021189"
      ]
    },
    {
      "x": 397,
      "y": 247,
      "size": 1,
      "price": "4683000000000000000000",
      "reserved": "",
      "salt": "0x140553b97b4ed81361959266db287ea00dc74a762300921d835251fd7242c5b8",
      "assetIds": [
        "41506478881403507969696680653240014914910929820314476107906210059990541021184"
      ]
    },
    {
      "x": 397,
      "y": 248,
      "size": 1,
      "price": "4683000000000000000000",
      "reserved": "",
      "salt": "0xc6f30175bcfcdf856670b9ce42869cdd510d1658d861483d2cf57b9ef8e984aa",
      "assetIds": [
        "41506478881403507969696680653240014914910929820314476107906210059990541021188"
      ]
    },
    {
      "x": 397,
      "y": 249,
      "size": 1,
      "price": "4683000000000000000000",
      "reserved": "",
      "salt": "0x8cc844feff0421a229b68363ca3b6f276c1678ee815aab545c981000d31fee0a",
      "assetIds": [
        "41506478881403507969696680653240014914910929820314476107906210059990541021184"
      ]
    },
    {
      "x": 397,
      "y": 250,
      "size": 1,
      "price": "4683000000000000000000",
      "reserved": "",
      "salt": "0x92582a55af0557039465d238a8591405b16d88e1caa53b337aff1a0467240f1c",
      "assetIds": [
        "41506478881403507969696680653240014914910929820314476107906210059990541021185"
      ]
    },
    {
      "x": 397,
      "y": 251,
      "size": 1,
      "price": "4683000000000000000000",
      "reserved": "",
      "salt": "0x5bb0ca797e1b5efa5831899782840f6a70ca8032e5085b1396dc5056ee958f86",
      "assetIds": [
        "41506478881403507969696680653240014914910929820314476107906210059990541021185"
      ]
    },
    {
      "x": 397,
      "y": 294,
      "size": 1,
      "price": "4683000000000000000000",
      "reserved": "",
      "salt": "0x30a91e088f5d7d2c29cb667a2bd3685a65c595fffbbaccf5c1d6c0f854fe1c31",
      "assetIds": [
        "41506478881403507969696680653240014914910929820314476107906210059990541021188"
      ]
    },
    {
      "x": 397,
      "y": 295,
      "size": 1,
      "price": "4683000000000000000000",
      "reserved": "",
      "salt": "0x2dd4de5ee411eba9ce553bef7e092e2990e0fb649a123e098dc7e579cba9b419",
      "assetIds": [
        "41506478881403507969696680653240014914910929820314476107906210059990541021187"
      ]
    },
    {
      "x": 397,
      "y": 296,
      "size": 1,
      "price": "4683000000000000000000",
      "reserved": "",
      "salt": "0x6c61542da7ead82667b4615080e154148687e857b008faaed89ec3632deb481c",
      "assetIds": [
        "41506478881403507969696680653240014914910929820314476107906210059990541021187"
      ]
    },
    {
      "x": 397,
      "y": 297,
      "size": 1,
      "price": "4683000000000000000000",
      "reserved": "",
      "salt": "0xf3de2697c62f1906418092ec727e32fe20e246ad10398f26f1d905a572ba14f0",
      "assetIds": [
        "41506478881403507969696680653240014914910929820314476107906210059990541021184"
      ]
    },
    {
      "x": 397,
      "y": 298,
      "size": 1,
      "price": "4683000000000000000000",
      "reserved": "",
      "salt": "0x2908e73db22a3425974d41ad546bf7efb210732249ce7f6fd2d1e4d25621f9ca",
      "assetIds": [
        "41506478881403507969696680653240014914910929820314476107906210059990541021188"
      ]
    },
    {
      "x": 397,
      "y": 299,
      "size": 1,
      "price": "4683000000000000000000",
      "reserved": "",
      "salt": "0x88043a9948e2b956743b97d2a1a1b8390f8bd67c12a7ede546109289ed005129",
      "assetIds": [
        "41506478881403507969696680653240014914910929820314476107906210059990541021186"
      ]
    },
    {
      "x": 398,
      "y": 228,
      "size": 1,
      "price": "4683000000000000000000",
      "reserved": "",
      "salt": "0xc3cef9900f4583ba866685d3907e7df46461b52e33fb76c8b01a8e028fd866f2",
      "assetIds": [
        "41506478881403507969696680653240014914910929820314476107906210059990532622336"
      ]
    },
    {
      "x": 398,
      "y": 229,
      "size": 1,
      "price": "4683000000000000000000",
      "reserved": "",
      "salt": "0x9d460b2bef93d4487f768063db74cb082624c9551807ac4ec46bdce55d22deef",
      "assetIds": [
        "41506478881403507969696680653240014914910929820314476107906210059990541021189"
      ]
    },
    {
      "x": 398,
      "y": 230,
      "size": 1,
      "price": "4683000000000000000000",
      "reserved": "",
      "salt": "0xbbd065681e2855b840639efd09e3b327b8fe845d1db52bcc8e666acf50ddace4",
      "assetIds": [
        "41506478881403507969696680653240014914910929820314476107906210059990541021187"
      ]
    },
    {
      "x": 398,
      "y": 231,
      "size": 1,
      "price": "4683000000000000000000",
      "reserved": "",
      "salt": "0x0e31b660758ebb7d300d7db88393744368181f445358b49a79db1234e74daa25",
      "assetIds": [
        "41506478881403507969696680653240014914910929820314476107906210059990532622336"
      ]
    },
    {
      "x": 398,
      "y": 232,
      "size": 1,
      "price": "4683000000000000000000",
      "reserved": "",
      "salt": "0x8206cd1c302e86b7d1cf6e94fc82e46a51e9933f191207afca90d401c23f3691",
      "assetIds": [
        "41506478881403507969696680653240014914910929820314476107906210059990541021188"
      ]
    },
    {
      "x": 398,
      "y": 233,
      "size": 1,
      "price": "4683000000000000000000",
      "reserved": "",
      "salt": "0x0071f6cc3bdacf8eecdba7e01e54f8cef3e679cf925656d6df66e7528818ec10",
      "assetIds": [
        "41506478881403507969696680653240014914910929820314476107906210059990541021186"
      ]
    },
    {
      "x": 398,
      "y": 234,
      "size": 1,
      "price": "4683000000000000000000",
      "reserved": "",
      "salt": "0x337a6a5ee6d3b5769748c37aaddf52bf956159c9d2441af10c589f4c0db48a46",
      "assetIds": [
        "41506478881403507969696680653240014914910929820314476107906210059990541021189"
      ]
    },
    {
      "x": 398,
      "y": 235,
      "size": 1,
      "price": "4683000000000000000000",
      "reserved": "",
      "salt": "0x2e33c518c16e4133457eb655150c2d91dacd16770e102399a614fa52a5d5e411",
      "assetIds": [
        "41506478881403507969696680653240014914910929820314476107906210059990541021187"
      ]
    },
    {
      "x": 398,
      "y": 236,
      "size": 1,
      "price": "4683000000000000000000",
      "reserved": "",
      "salt": "0x727c36562b98f3890abbc45cc38b6dd6d567b6a3fb7fdbe8a426c8b1c70b1ada",
      "assetIds": [
        "41506478881403507969696680653240014914910929820314476107906210059990541021188"
      ]
    },
    {
      "x": 398,
      "y": 237,
      "size": 1,
      "price": "4683000000000000000000",
      "reserved": "",
      "salt": "0x9678a13e474687025d01f02826fbc7fa58c20217dea56eebf3635056366ee141",
      "assetIds": [
        "41506478881403507969696680653240014914910929820314476107906210059990541021188"
      ]
    },
    {
      "x": 398,
      "y": 238,
      "size": 1,
      "price": "4683000000000000000000",
      "reserved": "",
      "salt": "0x46db76be20c5c151a649c74f25c1fdbd1c5a46be50edca44f2af24a62930690b",
      "assetIds": [
        "41506478881403507969696680653240014914910929820314476107906210059990532622336"
      ]
    },
    {
      "x": 398,
      "y": 239,
      "size": 1,
      "price": "4683000000000000000000",
      "reserved": "",
      "salt": "0xf5caad624b2f1ce43950b9cf7c7e539c5950fc76b67ed7656cab72b82de99c12",
      "assetIds": [
        "41506478881403507969696680653240014914910929820314476107906210059990541021189"
      ]
    },
    {
      "x": 398,
      "y": 240,
      "size": 1,
      "price": "4683000000000000000000",
      "reserved": "",
      "salt": "0xe8703e5246a41cbb3e951155c19aeac604fd2b6a1b5642adbbfc9cd4af5cd684",
      "assetIds": [
        "41506478881403507969696680653240014914910929820314476107906210059990541021187"
      ]
    },
    {
      "x": 398,
      "y": 241,
      "size": 1,
      "price": "4683000000000000000000",
      "reserved": "",
      "salt": "0x8a1806fd5c78be5c8ac71a3cbaef406057a2d244ba69c915a7118ead56a421be",
      "assetIds": [
        "41506478881403507969696680653240014914910929820314476107906210059990541021187"
      ]
    },
    {
      "x": 398,
      "y": 242,
      "size": 1,
      "price": "4683000000000000000000",
      "reserved": "",
      "salt": "0xcb90474acaf4216ad23637c251d3afc769ec7ea68b63a7556611278f4dab8a45",
      "assetIds": [
        "41506478881403507969696680653240014914910929820314476107906210059990541021188"
      ]
    },
    {
      "x": 398,
      "y": 243,
      "size": 1,
      "price": "4683000000000000000000",
      "reserved": "",
      "salt": "0x14b62f555f75d626eb99a293dc4f44a08810f0b475e589bda35b4cb441dca575",
      "assetIds": [
        "41506478881403507969696680653240014914910929820314476107906210059990541021186"
      ]
    },
    {
      "x": 398,
      "y": 244,
      "size": 1,
      "price": "4683000000000000000000",
      "reserved": "",
      "salt": "0xd5037763b37262abd5eb9277eda4660d2349f395c2ecab86ac141caad1331f1a",
      "assetIds": [
        "41506478881403507969696680653240014914910929820314476107906210059990541021185"
      ]
    },
    {
      "x": 398,
      "y": 245,
      "size": 1,
      "price": "4683000000000000000000",
      "reserved": "",
      "salt": "0x233636b31d23bef4cc9b4d9bc756000bfe6a5b4a637938e308c72a613af27b94",
      "assetIds": [
        "41506478881403507969696680653240014914910929820314476107906210059990541021188"
      ]
    },
    {
      "x": 398,
      "y": 246,
      "size": 1,
      "price": "4683000000000000000000",
      "reserved": "",
      "salt": "0xf6a9a6c47c7f83355529846616a852799507629e536932b11c8e347eefc870f6",
      "assetIds": [
        "41506478881403507969696680653240014914910929820314476107906210059990541021188"
      ]
    },
    {
      "x": 398,
      "y": 247,
      "size": 1,
      "price": "4683000000000000000000",
      "reserved": "",
      "salt": "0x46f54ee160e8475514c32f057d3bc5763ff925c0b5b798c2503e10d20fd8b3c6",
      "assetIds": [
        "41506478881403507969696680653240014914910929820314476107906210059990532622336"
      ]
    },
    {
      "x": 398,
      "y": 248,
      "size": 1,
      "price": "4683000000000000000000",
      "reserved": "",
      "salt": "0x3319552c9ab57b808d8aeee84443ad06fbae9719c6e70030a94f512bd433be96",
      "assetIds": [
        "41506478881403507969696680653240014914910929820314476107906210059990541021189"
      ]
    },
    {
      "x": 398,
      "y": 249,
      "size": 1,
      "price": "4683000000000000000000",
      "reserved": "",
      "salt": "0xa42c306a41f0795f6d45f5a530bdad5b60ba300e58f2c72444f07157882d0a51",
      "assetIds": [
        "41506478881403507969696680653240014914910929820314476107906210059990541021188"
      ]
    },
    {
      "x": 398,
      "y": 250,
      "size": 1,
      "price": "4683000000000000000000",
      "reserved": "",
      "salt": "0x2a7e318b9621ff64b29b640a9591ea7a860174fdc1fb76af6ca82940ce5b2510",
      "assetIds": [
        "41506478881403507969696680653240014914910929820314476107906210059990541021184"
      ]
    },
    {
      "x": 398,
      "y": 251,
      "size": 1,
      "price": "4683000000000000000000",
      "reserved": "",
      "salt": "0x3ee3e37099c7bb7af422e18c1931eeb5bfe7b8e2454a35fab2f43806ca506cee",
      "assetIds": [
        "41506478881403507969696680653240014914910929820314476107906210059990541021185"
      ]
    },
    {
      "x": 398,
      "y": 294,
      "size": 1,
      "price": "4683000000000000000000",
      "reserved": "",
      "salt": "0x790c4dd7b333b2a03749ee2858df5621e1097178bd14807d47fd169d457a465a",
      "assetIds": [
        "41506478881403507969696680653240014914910929820314476107906210059990541021189"
      ]
    },
    {
      "x": 398,
      "y": 295,
      "size": 1,
      "price": "4683000000000000000000",
      "reserved": "",
      "salt": "0x446f339e5bffcbe0a01e430fe3fb8fbacc3462c56765f72ab8af915762fb2021",
      "assetIds": [
        "41506478881403507969696680653240014914910929820314476107906210059990541021188"
      ]
    },
    {
      "x": 398,
      "y": 296,
      "size": 1,
      "price": "4683000000000000000000",
      "reserved": "",
      "salt": "0xa85702c6a688302c91ebf8a9eea451391b5d480f9437752551abeb256c2c43d2",
      "assetIds": [
        "41506478881403507969696680653240014914910929820314476107906210059990541021189"
      ]
    },
    {
      "x": 398,
      "y": 297,
      "size": 1,
      "price": "4683000000000000000000",
      "reserved": "",
      "salt": "0xed6a03da288159bfa235353972b951a220f4dd84a00a63289fc8f9a785b92f59",
      "assetIds": [
        "41506478881403507969696680653240014914910929820314476107906210059990541021188"
      ]
    },
    {
      "x": 398,
      "y": 298,
      "size": 1,
      "price": "4683000000000000000000",
      "reserved": "",
      "salt": "0xfa30f72b75f4c606ec929d746efa7abaa4222df6c30a24f6e2b97dfcbaeb8b65",
      "assetIds": [
        "41506478881403507969696680653240014914910929820314476107906210059990532622336"
      ]
    },
    {
      "x": 398,
      "y": 299,
      "size": 1,
      "price": "4683000000000000000000",
      "reserved": "",
      "salt": "0xb81ecfa71b0017f873bef12d1b669b0bdf657c649534d54afb4d615335ff48a5",
      "assetIds": [
        "41506478881403507969696680653240014914910929820314476107906210059990541021188"
      ]
    },
    {
      "x": 399,
      "y": 228,
      "size": 1,
      "price": "4683000000000000000000",
      "reserved": "",
      "salt": "0x08371a5ba3a181478949addf1e26b6a43d1d1e05f538187bcdaf6270472a0d39",
      "assetIds": [
        "41506478881403507969696680653240014914910929820314476107906210059990541021184"
      ]
    },
    {
      "x": 399,
      "y": 229,
      "size": 1,
      "price": "4683000000000000000000",
      "reserved": "",
      "salt": "0x4f223fdcae8fbfb63e1f487196271bc8dd62b1442de7db49ea3fc8a3d71caf2c",
      "assetIds": [
        "41506478881403507969696680653240014914910929820314476107906210059990541021189"
      ]
    },
    {
      "x": 399,
      "y": 230,
      "size": 1,
      "price": "4683000000000000000000",
      "reserved": "",
      "salt": "0x27283477c1b23699121134e934c3ecd7e53d7797e2a8d40d6092a12cc81e8bfc",
      "assetIds": [
        "41506478881403507969696680653240014914910929820314476107906210059990541021187"
      ]
    },
    {
      "x": 399,
      "y": 231,
      "size": 1,
      "price": "4683000000000000000000",
      "reserved": "",
      "salt": "0x60798eec9629845f53bc76940ff5ff5e98a6376d749694cb08f42eea6ce25b4a",
      "assetIds": [
        "41506478881403507969696680653240014914910929820314476107906210059990541021186"
      ]
    },
    {
      "x": 399,
      "y": 232,
      "size": 1,
      "price": "4683000000000000000000",
      "reserved": "",
      "salt": "0x050602973cd57969f16c800dcfbac9292c5d3ff18ef4af3a23e1f1c69d500b6c",
      "assetIds": [
        "41506478881403507969696680653240014914910929820314476107906210059990541021187"
      ]
    },
    {
      "x": 399,
      "y": 233,
      "size": 1,
      "price": "4683000000000000000000",
      "reserved": "",
      "salt": "0xf558fd54bab7f862016fe7e59bacc91bc66d16c943a67c2dc9a5d2d9c92270f4",
      "assetIds": [
        "41506478881403507969696680653240014914910929820314476107906210059990541021184"
      ]
    },
    {
      "x": 399,
      "y": 234,
      "size": 1,
      "price": "4683000000000000000000",
      "reserved": "",
      "salt": "0xa45abe1fcc94a580c194c4596d73cb6f5ffe6fb12e7ae6452787c2869e11af41",
      "assetIds": [
        "41506478881403507969696680653240014914910929820314476107906210059990541021188"
      ]
    },
    {
      "x": 399,
      "y": 235,
      "size": 1,
      "price": "4683000000000000000000",
      "reserved": "",
      "salt": "0xf16629a3816198b31e4e10fb52f758ee422a0002f5196cf9c148eefc0989188c",
      "assetIds": [
        "41506478881403507969696680653240014914910929820314476107906210059990541021187"
      ]
    },
    {
      "x": 399,
      "y": 236,
      "size": 1,
      "price": "4683000000000000000000",
      "reserved": "",
      "salt": "0xbcebc330378f09fa62708f336ef3fd1fd7f60a886f4990dfa54dddaad8d9a6d0",
      "assetIds": [
        "41506478881403507969696680653240014914910929820314476107906210059990532622336"
      ]
    },
    {
      "x": 399,
      "y": 240,
      "size": 1,
      "price": "4683000000000000000000",
      "reserved": "",
      "salt": "0x323881e4dcce5fa8fff9dca4874b31949c18e9749acaa340f011b81f97ea4a10",
      "assetIds": [
        "41506478881403507969696680653240014914910929820314476107906210059990541021188"
      ]
    },
    {
      "x": 399,
      "y": 241,
      "size": 1,
      "price": "1011000000000000000000",
      "reserved": "0x7a9fe22691c811ea339d9b73150e6911a5343dca",
      "salt": "0x70612133b9833f1632fca34752fd978c8d181611eeb82bc9cdf6b159ee79f27a",
      "assetIds": []
    },
    {
      "x": 399,
      "y": 242,
      "size": 1,
      "price": "4683000000000000000000",
      "reserved": "",
      "salt": "0xde63c1d66a3dfb26770711d1c41068c76818b57956987fc5403574b667c71ddf",
      "assetIds": [
        "41506478881403507969696680653240014914910929820314476107906210059990541021187"
      ]
    },
    {
      "x": 399,
      "y": 243,
      "size": 1,
      "price": "4683000000000000000000",
      "reserved": "",
      "salt": "0x1b74e4fd9e4b2fc45fbaa138a7a0998649e3eb7980e62ddb8c5b9ca53112ae91",
      "assetIds": [
        "41506478881403507969696680653240014914910929820314476107906210059990541021188"
      ]
    },
    {
      "x": 399,
      "y": 244,
      "size": 1,
      "price": "4683000000000000000000",
      "reserved": "",
      "salt": "0x21b41abf9c67404692b42088d74c0fba5debd09582fac212b3be71409bc16de5",
      "assetIds": [
        "41506478881403507969696680653240014914910929820314476107906210059990541021188"
      ]
    },
    {
      "x": 399,
      "y": 245,
      "size": 1,
      "price": "4683000000000000000000",
      "reserved": "",
      "salt": "0x95da1e68126ec0ba19124ede5e050acc7698cd365fec388bbfe771c8c0479ced",
      "assetIds": [
        "41506478881403507969696680653240014914910929820314476107906210059990541021184"
      ]
    },
    {
      "x": 399,
      "y": 246,
      "size": 1,
      "price": "4683000000000000000000",
      "reserved": "",
      "salt": "0xcf7b8d871c9806e5631c2e030ec27843671e199ca531f57aa0d7ae2bda61fd70",
      "assetIds": [
        "41506478881403507969696680653240014914910929820314476107906210059990532622336"
      ]
    },
    {
      "x": 399,
      "y": 247,
      "size": 1,
      "price": "4683000000000000000000",
      "reserved": "",
      "salt": "0x20564923a4d63a129a809e2883b462e683b5e681795fbe4ab284660dbfc8190a",
      "assetIds": [
        "41506478881403507969696680653240014914910929820314476107906210059990541021188"
      ]
    },
    {
      "x": 399,
      "y": 248,
      "size": 1,
      "price": "4683000000000000000000",
      "reserved": "",
      "salt": "0xee3e3626354d3ada2d39d0f7432d767309c53ff72afe44be127d0d044f41f8b0",
      "assetIds": [
        "41506478881403507969696680653240014914910929820314476107906210059990532622336"
      ]
    },
    {
      "x": 399,
      "y": 249,
      "size": 1,
      "price": "4683000000000000000000",
      "reserved": "",
      "salt": "0xcb2be665fd249782e392af7c35ae45ad6768e18c90fd69e7d7bbedfce68548f5",
      "assetIds": [
        "41506478881403507969696680653240014914910929820314476107906210059990541021185"
      ]
    },
    {
      "x": 399,
      "y": 250,
      "size": 1,
      "price": "4683000000000000000000",
      "reserved": "",
      "salt": "0x6dc9c84c87fa87c032b9c4236b7799a0d15e4705234e772430858fab6ce46697",
      "assetIds": [
        "41506478881403507969696680653240014914910929820314476107906210059990541021187"
      ]
    },
    {
      "x": 399,
      "y": 251,
      "size": 1,
      "price": "4683000000000000000000",
      "reserved": "",
      "salt": "0x7f74483d7d49389612714890e62dc112e46c892e6a4430cb4632deb1db6358b2",
      "assetIds": [
        "41506478881403507969696680653240014914910929820314476107906210059990541021184"
      ]
    },
    {
      "x": 399,
      "y": 294,
      "size": 1,
      "price": "4683000000000000000000",
      "reserved": "",
      "salt": "0xe4e3b82a304ab78db101cd7324712a37be68b21bac8554c09385c4c6c47061a7",
      "assetIds": [
        "41506478881403507969696680653240014914910929820314476107906210059990541021187"
      ]
    },
    {
      "x": 399,
      "y": 295,
      "size": 1,
      "price": "4683000000000000000000",
      "reserved": "",
      "salt": "0xcf7d7f1d2d887b25073b836a61037db961f49ddcaee3b4f06f915b0d7239a56d",
      "assetIds": [
        "41506478881403507969696680653240014914910929820314476107906210059990541021187"
      ]
    },
    {
      "x": 399,
      "y": 296,
      "size": 1,
      "price": "1011000000000000000000",
      "reserved": "0x7a9fe22691c811ea339d9b73150e6911a5343dca",
      "salt": "0xbd29f85c3299ed342539e88ee2741aaea64cbb99e63f8031bfe9edfa3fcbe036",
      "assetIds": []
    },
    {
      "x": 399,
      "y": 297,
      "size": 1,
      "price": "4683000000000000000000",
      "reserved": "",
      "salt": "0x2159d317e09747a2907009b351529af8199243f6ce04b37292cc62036f0ae022",
      "assetIds": [
        "41506478881403507969696680653240014914910929820314476107906210059990541021187"
      ]
    },
    {
      "x": 399,
      "y": 298,
      "size": 1,
      "price": "4683000000000000000000",
      "reserved": "",
      "salt": "0x4358c7c007fd26eb519cf1324b51a29aff31983ed7807f2f7f9374538113fa8b",
      "assetIds": [
        "41506478881403507969696680653240014914910929820314476107906210059990541021189"
      ]
    },
    {
      "x": 399,
      "y": 299,
      "size": 1,
      "price": "4683000000000000000000",
      "reserved": "",
      "salt": "0x90dc81a8049865192086ecb32cebe24e34106657e69ecdea0a7502de744e8d1d",
      "assetIds": [
        "41506478881403507969696680653240014914910929820314476107906210059990541021185"
      ]
    },
    {
      "x": 400,
      "y": 228,
      "size": 1,
      "price": "4683000000000000000000",
      "reserved": "",
      "salt": "0x6cd827b008996c7359a6157944c8987010606835b10d9ca49161c271fdfb0cbf",
      "assetIds": [
        "41506478881403507969696680653240014914910929820314476107906210059990541021187"
      ]
    },
    {
      "x": 400,
      "y": 229,
      "size": 1,
      "price": "4683000000000000000000",
      "reserved": "",
      "salt": "0x8d86e97c934e5dda901e9a2f012afe8342986d1e4560fcc8d7d16304a51b5aec",
      "assetIds": [
        "41506478881403507969696680653240014914910929820314476107906210059990541021188"
      ]
    },
    {
      "x": 400,
      "y": 230,
      "size": 1,
      "price": "4683000000000000000000",
      "reserved": "",
      "salt": "0xcd6b6aee5a68732c42542f9d510b3e41e8dfe302015201af3449a8cd6d14e574",
      "assetIds": [
        "41506478881403507969696680653240014914910929820314476107906210059990541021188"
      ]
    },
    {
      "x": 400,
      "y": 231,
      "size": 1,
      "price": "4683000000000000000000",
      "reserved": "",
      "salt": "0xbbb88ae7f256d21bae7fa48f5a4ab515a8f855f8e7f1f35f70fd89bd6db45de1",
      "assetIds": [
        "41506478881403507969696680653240014914910929820314476107906210059990541021186"
      ]
    },
    {
      "x": 400,
      "y": 232,
      "size": 1,
      "price": "4683000000000000000000",
      "reserved": "",
      "salt": "0x2e59d376d485fd229b295acea2c899998d28fb897c977bc61b3c986992acbc13",
      "assetIds": [
        "41506478881403507969696680653240014914910929820314476107906210059990541021189"
      ]
    },
    {
      "x": 400,
      "y": 233,
      "size": 1,
      "price": "4683000000000000000000",
      "reserved": "",
      "salt": "0x1ddf232b5cbf1de8ff70a2299f3a4b274763bec2b8ac2b8e5f0a083485835ca3",
      "assetIds": [
        "41506478881403507969696680653240014914910929820314476107906210059990532622336"
      ]
    },
    {
      "x": 400,
      "y": 234,
      "size": 1,
      "price": "4683000000000000000000",
      "reserved": "",
      "salt": "0x62975f9e95c9993cc29af8594b809b5ac1694ebe42e76ccc71f2a5bdf4880a40",
      "assetIds": [
        "41506478881403507969696680653240014914910929820314476107906210059990541021188"
      ]
    },
    {
      "x": 400,
      "y": 235,
      "size": 1,
      "price": "4683000000000000000000",
      "reserved": "",
      "salt": "0xca68892fec1c3a00b19bf2d4c07ea8b413ccf0a6b0f787f47e365f9c02756e62",
      "assetIds": [
        "41506478881403507969696680653240014914910929820314476107906210059990541021184"
      ]
    },
    {
      "x": 400,
      "y": 236,
      "size": 1,
      "price": "4683000000000000000000",
      "reserved": "",
      "salt": "0x1402f62c3ccb857d5b15789c50165be1051d959c47f6c6052ed19ce41cc67b93",
      "assetIds": [
        "41506478881403507969696680653240014914910929820314476107906210059990532622336"
      ]
    },
    {
      "x": 400,
      "y": 240,
      "size": 1,
      "price": "4683000000000000000000",
      "reserved": "",
      "salt": "0xfd316d60c415a3fa0f9ce9ae2aa4b4b4b4143747f66e06ef008cc394ee87a74d",
      "assetIds": [
        "41506478881403507969696680653240014914910929820314476107906210059990532622336"
      ]
    },
    {
      "x": 400,
      "y": 241,
      "size": 1,
      "price": "4683000000000000000000",
      "reserved": "",
      "salt": "0x0a120446269948a2a04342c8a0468deeae5e938b45016a161b62c5a1705d3a9e",
      "assetIds": [
        "41506478881403507969696680653240014914910929820314476107906210059990541021188"
      ]
    },
    {
      "x": 400,
      "y": 242,
      "size": 1,
      "price": "4683000000000000000000",
      "reserved": "",
      "salt": "0xdcd586015c33afb15624fb6131120252e75793cc509e7499936b9a5b876e1b72",
      "assetIds": [
        "41506478881403507969696680653240014914910929820314476107906210059990541021184"
      ]
    },
    {
      "x": 400,
      "y": 243,
      "size": 1,
      "price": "4683000000000000000000",
      "reserved": "",
      "salt": "0x9ae7cd5b68de60d98336963ea47f4bb954e811a0a87f2ef6b5f1d5ac87b046f2",
      "assetIds": [
        "41506478881403507969696680653240014914910929820314476107906210059990541021189"
      ]
    },
    {
      "x": 400,
      "y": 244,
      "size": 1,
      "price": "4683000000000000000000",
      "reserved": "",
      "salt": "0xc5b23360e04786edbbaab504cb36a44b6ebb35062ada6bc110f66aea831dd8cd",
      "assetIds": [
        "41506478881403507969696680653240014914910929820314476107906210059990541021187"
      ]
    },
    {
      "x": 400,
      "y": 245,
      "size": 1,
      "price": "4683000000000000000000",
      "reserved": "",
      "salt": "0x557c0604aa32b5ca86e29959e7b869bde379f56b9031fe7f32c28c0630e7fbfb",
      "assetIds": [
        "41506478881403507969696680653240014914910929820314476107906210059990541021188"
      ]
    },
    {
      "x": 400,
      "y": 246,
      "size": 1,
      "price": "4683000000000000000000",
      "reserved": "",
      "salt": "0x3b3603ffa939ebd7f1959b3766df3cc8feac42e0e356d86d1dd3380496abab30",
      "assetIds": [
        "41506478881403507969696680653240014914910929820314476107906210059990541021184"
      ]
    },
    {
      "x": 400,
      "y": 247,
      "size": 1,
      "price": "4683000000000000000000",
      "reserved": "",
      "salt": "0xb51fadd0f946418bc51799c1c41cc858e414c34b6e3e0b834e7d8b668f17c40a",
      "assetIds": [
        "41506478881403507969696680653240014914910929820314476107906210059990541021185"
      ]
    },
    {
      "x": 400,
      "y": 248,
      "size": 1,
      "price": "4683000000000000000000",
      "reserved": "",
      "salt": "0xa10338de7f642e5995f4316d305d8f5ecfbc82989b44b4905a0196a2dc44d842",
      "assetIds": [
        "41506478881403507969696680653240014914910929820314476107906210059990532622336"
      ]
    },
    {
      "x": 400,
      "y": 249,
      "size": 1,
      "price": "4683000000000000000000",
      "reserved": "",
      "salt": "0x59c3aba80aef717fe1cc47636e41735229318c8fb7b8514cc350a721ffd2db18",
      "assetIds": [
        "41506478881403507969696680653240014914910929820314476107906210059990541021187"
      ]
    },
    {
      "x": 400,
      "y": 250,
      "size": 1,
      "price": "1011000000000000000000",
      "reserved": "0x7a9fe22691c811ea339d9b73150e6911a5343dca",
      "salt": "0x8f6d12d00d8068fde5565f5d36da3491ce1f8c820c9913a4780ff177e11f3a7f",
      "assetIds": []
    },
    {
      "x": 400,
      "y": 251,
      "size": 1,
      "price": "4683000000000000000000",
      "reserved": "",
      "salt": "0x3279117362132f9776d01a80b85226c30be6fdc574a271049c11f9bdda205217",
      "assetIds": [
        "41506478881403507969696680653240014914910929820314476107906210059990541021188"
      ]
    },
    {
      "x": 400,
      "y": 294,
      "size": 1,
      "price": "4683000000000000000000",
      "reserved": "",
      "salt": "0xe165b59b710986697962fea9d7074ffcac571cbd5f373c6d89348b06358cba13",
      "assetIds": [
        "41506478881403507969696680653240014914910929820314476107906210059990541021187"
      ]
    },
    {
      "x": 400,
      "y": 295,
      "size": 1,
      "price": "4683000000000000000000",
      "reserved": "",
      "salt": "0x430b913993bc331d68f74e3e52fa9645fa56643d7383f11fd2845744916db7de",
      "assetIds": [
        "41506478881403507969696680653240014914910929820314476107906210059990541021187"
      ]
    },
    {
      "x": 400,
      "y": 296,
      "size": 1,
      "price": "4683000000000000000000",
      "reserved": "",
      "salt": "0x9bdadd4dadc5ce3abcd3899e65d3fddd2a0c686558fd7a29ef75a28e954055df",
      "assetIds": [
        "41506478881403507969696680653240014914910929820314476107906210059990532622336"
      ]
    },
    {
      "x": 400,
      "y": 297,
      "size": 1,
      "price": "4683000000000000000000",
      "reserved": "",
      "salt": "0xc073234c92420b33f4fab25bf71dbb5ca6281d890c8651a2f0a84d99e08c8186",
      "assetIds": [
        "41506478881403507969696680653240014914910929820314476107906210059990541021186"
      ]
    },
    {
      "x": 400,
      "y": 298,
      "size": 1,
      "price": "4683000000000000000000",
      "reserved": "",
      "salt": "0x35d90a23184e1995f44ca94e073ca009ddeba5b04cf11ba37a581a61b6990243",
      "assetIds": [
        "41506478881403507969696680653240014914910929820314476107906210059990541021189"
      ]
    },
    {
      "x": 400,
      "y": 299,
      "size": 1,
      "price": "4683000000000000000000",
      "reserved": "",
      "salt": "0x0d7418abcdf00d44b834313f98e9843dc72676aa17d3ab256f56ee65a5dd4d51",
      "assetIds": [
        "41506478881403507969696680653240014914910929820314476107906210059990541021188"
      ]
    },
    {
      "x": 401,
      "y": 228,
      "size": 1,
      "price": "4683000000000000000000",
      "reserved": "",
      "salt": "0xd5f290713323f6b00a03274232e2f54e4f553f8e5649bba97ae62cb15ef7ee7e",
      "assetIds": [
        "41506478881403507969696680653240014914910929820314476107906210059990541021188"
      ]
    },
    {
      "x": 401,
      "y": 229,
      "size": 1,
      "price": "4683000000000000000000",
      "reserved": "",
      "salt": "0x8ce7400688fadc147efeb5b79d2c9a3ebfab9bd7dbbdddad2f51d5376f307b31",
      "assetIds": [
        "41506478881403507969696680653240014914910929820314476107906210059990541021189"
      ]
    },
    {
      "x": 401,
      "y": 230,
      "size": 1,
      "price": "4683000000000000000000",
      "reserved": "",
      "salt": "0xa58979e07b641416d1570b6841e2e4ca9f3a6ad12b64bd7f6dfa2cce07924b0a",
      "assetIds": [
        "41506478881403507969696680653240014914910929820314476107906210059990541021188"
      ]
    },
    {
      "x": 401,
      "y": 231,
      "size": 1,
      "price": "1011000000000000000000",
      "reserved": "0x7a9fe22691c811ea339d9b73150e6911a5343dca",
      "salt": "0x3553e163ec5b265a6479d0ac0fca962fd2598d392a52e5a5a085cb00d157ff0c",
      "assetIds": []
    },
    {
      "x": 401,
      "y": 232,
      "size": 1,
      "price": "4683000000000000000000",
      "reserved": "",
      "salt": "0xf3d3c14ea245f4515fbeb25d882f593d2026857b632462dadb3f6b72e09c4ad5",
      "assetIds": [
        "41506478881403507969696680653240014914910929820314476107906210059990541021188"
      ]
    },
    {
      "x": 401,
      "y": 233,
      "size": 1,
      "price": "1011000000000000000000",
      "reserved": "0x7a9fe22691c811ea339d9b73150e6911a5343dca",
      "salt": "0x7e3895f39479cfb910fd9ffb80aed78a8653b5122c439a7b919cdcf40e3a5082",
      "assetIds": []
    },
    {
      "x": 401,
      "y": 234,
      "size": 1,
      "price": "4683000000000000000000",
      "reserved": "",
      "salt": "0x11f92eb1fa0f7718c81b8f1c4908572e73a694c73784260f6375e857ff61762d",
      "assetIds": [
        "41506478881403507969696680653240014914910929820314476107906210059990541021188"
      ]
    },
    {
      "x": 401,
      "y": 235,
      "size": 1,
      "price": "4683000000000000000000",
      "reserved": "",
      "salt": "0x1ecb92b62a2b186f08e0e440490b18e14e5634e7bdac34d7c54acbd491a54881",
      "assetIds": [
        "41506478881403507969696680653240014914910929820314476107906210059990541021187"
      ]
    },
    {
      "x": 401,
      "y": 236,
      "size": 1,
      "price": "4683000000000000000000",
      "reserved": "",
      "salt": "0x5340e9e5fb4785ff0b6f8b8c1f5d794e239eeada8efc2cf686a083937af12ed4",
      "assetIds": [
        "41506478881403507969696680653240014914910929820314476107906210059990541021187"
      ]
    },
    {
      "x": 401,
      "y": 240,
      "size": 1,
      "price": "4683000000000000000000",
      "reserved": "",
      "salt": "0x970f368e6b869adcd579c94fa064051efe5ea9014495e644ff3b8039802b29d9",
      "assetIds": [
        "41506478881403507969696680653240014914910929820314476107906210059990541021185"
      ]
    },
    {
      "x": 401,
      "y": 241,
      "size": 1,
      "price": "4683000000000000000000",
      "reserved": "",
      "salt": "0x2999f1536e749636641dc8322be52b8ba9f56b9c3fa931e25c0294ae81339949",
      "assetIds": [
        "41506478881403507969696680653240014914910929820314476107906210059990541021186"
      ]
    },
    {
      "x": 401,
      "y": 242,
      "size": 1,
      "price": "4683000000000000000000",
      "reserved": "",
      "salt": "0xf0c705f5328417153463e6815457b48fe7130afa9010f03409ed791fcc4863bc",
      "assetIds": [
        "41506478881403507969696680653240014914910929820314476107906210059990541021187"
      ]
    },
    {
      "x": 401,
      "y": 243,
      "size": 1,
      "price": "4683000000000000000000",
      "reserved": "",
      "salt": "0x2ff99450f827ff1468683a61a978f74b691c9e0819eafaa447b2f9b53e790630",
      "assetIds": [
        "41506478881403507969696680653240014914910929820314476107906210059990541021185"
      ]
    },
    {
      "x": 401,
      "y": 244,
      "size": 1,
      "price": "4683000000000000000000",
      "reserved": "",
      "salt": "0xacf8bfdc11ad46d0cae44c04c6c4355c83f62b3cb1687aad1bcdbc842a7d4c73",
      "assetIds": [
        "41506478881403507969696680653240014914910929820314476107906210059990541021189"
      ]
    },
    {
      "x": 401,
      "y": 245,
      "size": 1,
      "price": "4683000000000000000000",
      "reserved": "",
      "salt": "0x350150e6fab487d79d820eb44293fbe7b2d5bcd4f07858e686f181224086bb6f",
      "assetIds": [
        "41506478881403507969696680653240014914910929820314476107906210059990541021186"
      ]
    },
    {
      "x": 401,
      "y": 246,
      "size": 1,
      "price": "4683000000000000000000",
      "reserved": "",
      "salt": "0x47af08d152799605d17d7f541e034e3a3ece3b5440526f99dec0e71488f11b78",
      "assetIds": [
        "41506478881403507969696680653240014914910929820314476107906210059990541021186"
      ]
    },
    {
      "x": 401,
      "y": 247,
      "size": 1,
      "price": "4683000000000000000000",
      "reserved": "",
      "salt": "0xaabd47effc00ebea7c057a522a48f37376e3a6b891d6be7f8306f472362f6fab",
      "assetIds": [
        "41506478881403507969696680653240014914910929820314476107906210059990541021189"
      ]
    },
    {
      "x": 401,
      "y": 248,
      "size": 1,
      "price": "4683000000000000000000",
      "reserved": "",
      "salt": "0x196f3c12ee48ec6a7bcdb9f04f98fbc342a70270e6e658b01434ab63cd19553c",
      "assetIds": [
        "41506478881403507969696680653240014914910929820314476107906210059990541021184"
      ]
    },
    {
      "x": 401,
      "y": 249,
      "size": 1,
      "price": "4683000000000000000000",
      "reserved": "",
      "salt": "0x307ffc80df67be8aeb18dea8091488a525dfa17d2ceb659158d92f4a17e5b541",
      "assetIds": [
        "41506478881403507969696680653240014914910929820314476107906210059990541021184"
      ]
    },
    {
      "x": 401,
      "y": 250,
      "size": 1,
      "price": "4683000000000000000000",
      "reserved": "",
      "salt": "0x2beaffb3a1188b9a52ebeff7aae30f818cd29e950df790c93453c4eca2726a34",
      "assetIds": [
        "41506478881403507969696680653240014914910929820314476107906210059990532622336"
      ]
    },
    {
      "x": 401,
      "y": 251,
      "size": 1,
      "price": "4683000000000000000000",
      "reserved": "",
      "salt": "0x6789c5c649eaebc454c37b3478811747d2b8f9948de14201a33b89e7b39c82fc",
      "assetIds": [
        "41506478881403507969696680653240014914910929820314476107906210059990541021187"
      ]
    },
    {
      "x": 401,
      "y": 294,
      "size": 1,
      "price": "4683000000000000000000",
      "reserved": "",
      "salt": "0x3e756df0e0d4187539efc95fbda2fa94cd98f7bc5856d4c42ffa899de1a3f7d7",
      "assetIds": [
        "41506478881403507969696680653240014914910929820314476107906210059990541021188"
      ]
    },
    {
      "x": 401,
      "y": 295,
      "size": 1,
      "price": "4683000000000000000000",
      "reserved": "",
      "salt": "0x20933b12e2af75f8883347a8250c9b5d952c141a97935dea7f641e614128f154",
      "assetIds": [
        "41506478881403507969696680653240014914910929820314476107906210059990541021188"
      ]
    },
    {
      "x": 401,
      "y": 296,
      "size": 1,
      "price": "4683000000000000000000",
      "reserved": "",
      "salt": "0x332f88bfdd364f12f9798f452ae659873aca83df8cfb6d79f1d08462a64e9151",
      "assetIds": [
        "41506478881403507969696680653240014914910929820314476107906210059990541021189"
      ]
    },
    {
      "x": 401,
      "y": 297,
      "size": 1,
      "price": "4683000000000000000000",
      "reserved": "",
      "salt": "0x22c1c1796ff12091834818011ae3936eb7e4e641bd41538123b24517cb37d084",
      "assetIds": [
        "41506478881403507969696680653240014914910929820314476107906210059990541021187"
      ]
    },
    {
      "x": 401,
      "y": 298,
      "size": 1,
      "price": "4683000000000000000000",
      "reserved": "",
      "salt": "0x7dccf95f5014e5eec5074ceb27db5a7eff423a0f522189df189b7847d4869289",
      "assetIds": [
        "41506478881403507969696680653240014914910929820314476107906210059990541021187"
      ]
    },
    {
      "x": 401,
      "y": 299,
      "size": 1,
      "price": "4683000000000000000000",
      "reserved": "",
      "salt": "0x7deafee782d7b300bb9df7e5635c02b381a232e95c56ba3781966dc2ba09d331",
      "assetIds": [
        "41506478881403507969696680653240014914910929820314476107906210059990541021185"
      ]
    },
    {
      "x": 402,
      "y": 240,
      "size": 1,
      "price": "4683000000000000000000",
      "reserved": "",
      "salt": "0xe352c3c753cd280178f61038e079c1ff31fb2e3e5e810cc405d6b3f1febd0008",
      "assetIds": [
        "41506478881403507969696680653240014914910929820314476107906210059990541021188"
      ]
    },
    {
      "x": 402,
      "y": 241,
      "size": 1,
      "price": "4683000000000000000000",
      "reserved": "",
      "salt": "0x68eea230d9caa70ec68d04f421c203bcb72fbceb0d054f6a2b1e69d7335dc4e6",
      "assetIds": [
        "41506478881403507969696680653240014914910929820314476107906210059990541021186"
      ]
    },
    {
      "x": 402,
      "y": 242,
      "size": 1,
      "price": "4683000000000000000000",
      "reserved": "",
      "salt": "0x3964787de7040830f1b87b7558a7c416ff26eeff70c4f2853c7b8ce814f77390",
      "assetIds": [
        "41506478881403507969696680653240014914910929820314476107906210059990541021187"
      ]
    },
    {
      "x": 402,
      "y": 243,
      "size": 1,
      "price": "4683000000000000000000",
      "reserved": "",
      "salt": "0x5d69ee2621678f4f9c58f5c52b11c5b837141d72a455a10d8b5e327af3ffc2ff",
      "assetIds": [
        "41506478881403507969696680653240014914910929820314476107906210059990532622336"
      ]
    },
    {
      "x": 402,
      "y": 244,
      "size": 1,
      "price": "4683000000000000000000",
      "reserved": "",
      "salt": "0xa9580204fa197d22294420bea2fc13b8cf63179ff9f25ae31900b3b06e1a2072",
      "assetIds": [
        "41506478881403507969696680653240014914910929820314476107906210059990541021184"
      ]
    },
    {
      "x": 402,
      "y": 245,
      "size": 1,
      "price": "4683000000000000000000",
      "reserved": "",
      "salt": "0x1401b4fb1f7c6f233bc5b501dc182bc7b973ea3a492bcb15e8b9f6d92dc4eafc",
      "assetIds": [
        "41506478881403507969696680653240014914910929820314476107906210059990541021188"
      ]
    },
    {
      "x": 402,
      "y": 246,
      "size": 1,
      "price": "4683000000000000000000",
      "reserved": "",
      "salt": "0x4b8914880e0f2d15757d9005a4b220f6f0dae09acf749efd051f156ae46deafc",
      "assetIds": [
        "41506478881403507969696680653240014914910929820314476107906210059990541021189"
      ]
    },
    {
      "x": 402,
      "y": 247,
      "size": 1,
      "price": "4683000000000000000000",
      "reserved": "",
      "salt": "0x402b5c901ad5faaa213745c38df6eeb873133ebe1d929e1e976ecf5c540ddb4c",
      "assetIds": [
        "41506478881403507969696680653240014914910929820314476107906210059990541021188"
      ]
    },
    {
      "x": 402,
      "y": 248,
      "size": 1,
      "price": "4683000000000000000000",
      "reserved": "",
      "salt": "0x330ee2c846f8458c48c367239b65a8012ec18a2e40f351276397e4e8453d765b",
      "assetIds": [
        "41506478881403507969696680653240014914910929820314476107906210059990541021184"
      ]
    },
    {
      "x": 402,
      "y": 249,
      "size": 1,
      "price": "4683000000000000000000",
      "reserved": "",
      "salt": "0xeda5136d6280cf6d50044bcb9e7d77fe097b795c5b86067ba7a9b48e5b623bc9",
      "assetIds": [
        "41506478881403507969696680653240014914910929820314476107906210059990541021187"
      ]
    },
    {
      "x": 402,
      "y": 250,
      "size": 1,
      "price": "4683000000000000000000",
      "reserved": "",
      "salt": "0x1062446d71db92404c8e34887ea6216673314928b8ec0c6eabe57daecfc58fc4",
      "assetIds": [
        "41506478881403507969696680653240014914910929820314476107906210059990541021189"
      ]
    },
    {
      "x": 402,
      "y": 251,
      "size": 1,
      "price": "4683000000000000000000",
      "reserved": "",
      "salt": "0x4a4d701fb3102d4ae8a423924a74387f778a7a3170b46d1fbd9db63b974c60b0",
      "assetIds": [
        "41506478881403507969696680653240014914910929820314476107906210059990541021188"
      ]
    },
    {
      "x": 402,
      "y": 288,
      "size": 1,
      "price": "4683000000000000000000",
      "reserved": "",
      "salt": "0xab493e858bd365e20aa474075dcdb897896faa8f9da4e10ecae13a5f0f93b09e",
      "assetIds": [
        "41506478881403507969696680653240014914910929820314476107906210059990541021188"
      ]
    },
    {
      "x": 402,
      "y": 289,
      "size": 1,
      "price": "4683000000000000000000",
      "reserved": "",
      "salt": "0x3082d962e1143eba1efd399e2ec940b41b23c9c5c1190ec696584e8f15938911",
      "assetIds": [
        "41506478881403507969696680653240014914910929820314476107906210059990541021188"
      ]
    },
    {
      "x": 402,
      "y": 290,
      "size": 1,
      "price": "4683000000000000000000",
      "reserved": "",
      "salt": "0x383604403437f171ec16576de8a3d14d4b3bac6d9dc3df292336fd9921c626f1",
      "assetIds": [
        "41506478881403507969696680653240014914910929820314476107906210059990532622336"
      ]
    },
    {
      "x": 402,
      "y": 291,
      "size": 1,
      "price": "4683000000000000000000",
      "reserved": "",
      "salt": "0x837ba7e26bddd76886969966955b65195d090444e5d080a3190035add1833088",
      "assetIds": [
        "41506478881403507969696680653240014914910929820314476107906210059990541021187"
      ]
    },
    {
      "x": 402,
      "y": 292,
      "size": 1,
      "price": "4683000000000000000000",
      "reserved": "",
      "salt": "0x911e17d02e1ebd2dbad8b07ebc6440aa162fd7955f6533b38adce2cf4954f989",
      "assetIds": [
        "41506478881403507969696680653240014914910929820314476107906210059990541021184"
      ]
    },
    {
      "x": 402,
      "y": 293,
      "size": 1,
      "price": "4683000000000000000000",
      "reserved": "",
      "salt": "0x41e9817a6abfcc2382faadaa2591ee9a392b2b3d039f51f6ca4e7b37ce8a7a81",
      "assetIds": [
        "41506478881403507969696680653240014914910929820314476107906210059990541021189"
      ]
    },
    {
      "x": 402,
      "y": 306,
      "size": 1,
      "price": "4683000000000000000000",
      "reserved": "",
      "salt": "0x19a1d2f996abc40c2b7f49233fc7f22d23628ecd4bc45a88e1c102f48fae14e0",
      "assetIds": [
        "41506478881403507969696680653240014914910929820314476107906210059990532622336"
      ]
    },
    {
      "x": 402,
      "y": 307,
      "size": 1,
      "price": "4683000000000000000000",
      "reserved": "",
      "salt": "0x98f6057a471874a211b6bc3f4b0205ac499c08d19fabdcb3ea04744174d378e8",
      "assetIds": [
        "41506478881403507969696680653240014914910929820314476107906210059990541021184"
      ]
    },
    {
      "x": 402,
      "y": 308,
      "size": 1,
      "price": "4683000000000000000000",
      "reserved": "",
      "salt": "0x78c132492e43b7d7b1ff1bc8af896603e8391e407de661a72b675e1b600d7992",
      "assetIds": [
        "41506478881403507969696680653240014914910929820314476107906210059990541021185"
      ]
    },
    {
      "x": 402,
      "y": 309,
      "size": 1,
      "price": "4683000000000000000000",
      "reserved": "",
      "salt": "0x55e9af72421240ac85fc9ad7c1f3a3c59c3aeb1c850091c0e3bbc9071361e05d",
      "assetIds": [
        "41506478881403507969696680653240014914910929820314476107906210059990541021188"
      ]
    },
    {
      "x": 402,
      "y": 310,
      "size": 1,
      "price": "4683000000000000000000",
      "reserved": "",
      "salt": "0xbc4776809ca34d9e9366975973d2c559b0112f6f7eebd1d634de849f09b1f461",
      "assetIds": [
        "41506478881403507969696680653240014914910929820314476107906210059990541021188"
      ]
    },
    {
      "x": 402,
      "y": 311,
      "size": 1,
      "price": "4683000000000000000000",
      "reserved": "",
      "salt": "0x7b083d6ec7623a540abb2a44cec45c8c1263e7edbdaab6ce8d40596d42772c49",
      "assetIds": [
        "41506478881403507969696680653240014914910929820314476107906210059990541021188"
      ]
    },
    {
      "x": 403,
      "y": 240,
      "size": 1,
      "price": "4683000000000000000000",
      "reserved": "",
      "salt": "0x82b90337842fa080273662d509fcdbd514b340bd0c5b1fea46a286d01788c7a2",
      "assetIds": [
        "41506478881403507969696680653240014914910929820314476107906210059990532622336"
      ]
    },
    {
      "x": 403,
      "y": 241,
      "size": 1,
      "price": "4683000000000000000000",
      "reserved": "",
      "salt": "0xca268287529401574ee1fb0dbe84b77f91154fc2504417e513f4d7d0ffb8216c",
      "assetIds": [
        "41506478881403507969696680653240014914910929820314476107906210059990541021188"
      ]
    },
    {
      "x": 403,
      "y": 242,
      "size": 1,
      "price": "4683000000000000000000",
      "reserved": "",
      "salt": "0x36387087eb7d7417a3dec5321b926899a7bcc8224231c7dfa1161aa6cc7b6891",
      "assetIds": [
        "41506478881403507969696680653240014914910929820314476107906210059990541021187"
      ]
    },
    {
      "x": 403,
      "y": 243,
      "size": 1,
      "price": "4683000000000000000000",
      "reserved": "",
      "salt": "0x2fc9f09769c78cfae191f2eab2636e95ee02e05f962bbb76b66254905ed64fed",
      "assetIds": [
        "41506478881403507969696680653240014914910929820314476107906210059990541021188"
      ]
    },
    {
      "x": 403,
      "y": 244,
      "size": 1,
      "price": "4683000000000000000000",
      "reserved": "",
      "salt": "0x2718391608fad3f0c9187c87bcfd465f97a9785469cc6b9205f27c4d587fb2e2",
      "assetIds": [
        "41506478881403507969696680653240014914910929820314476107906210059990541021188"
      ]
    },
    {
      "x": 403,
      "y": 245,
      "size": 1,
      "price": "4683000000000000000000",
      "reserved": "",
      "salt": "0x7101ae0b9c4dd54b9f32f89d4fb566b349a7655d6d8a1e6e33178e2a14983e1f",
      "assetIds": [
        "41506478881403507969696680653240014914910929820314476107906210059990541021189"
      ]
    },
    {
      "x": 403,
      "y": 246,
      "size": 1,
      "price": "4683000000000000000000",
      "reserved": "",
      "salt": "0x4a02d4856ad530665bd7d0e7f6535f63b23e9defa4ec7ef22fb464a017d2f366",
      "assetIds": [
        "41506478881403507969696680653240014914910929820314476107906210059990541021188"
      ]
    },
    {
      "x": 403,
      "y": 247,
      "size": 1,
      "price": "4683000000000000000000",
      "reserved": "",
      "salt": "0x26406844917a5a08fb059e62f47de8353faeba1c07b48a987d9fff7344fc4a66",
      "assetIds": [
        "41506478881403507969696680653240014914910929820314476107906210059990541021185"
      ]
    },
    {
      "x": 403,
      "y": 248,
      "size": 1,
      "price": "4683000000000000000000",
      "reserved": "",
      "salt": "0x2a169013dcc0a7182b0dfb546e145015c9080bbb947f9ba1dd4b0d1e68b4ef72",
      "assetIds": [
        "41506478881403507969696680653240014914910929820314476107906210059990541021188"
      ]
    },
    {
      "x": 403,
      "y": 249,
      "size": 1,
      "price": "4683000000000000000000",
      "reserved": "",
      "salt": "0x9a3b8ebccf8928256a21af0d0a50ab32dac236373b46273ebc46e14ccb0a5ffe",
      "assetIds": [
        "41506478881403507969696680653240014914910929820314476107906210059990541021187"
      ]
    },
    {
      "x": 403,
      "y": 250,
      "size": 1,
      "price": "4683000000000000000000",
      "reserved": "",
      "salt": "0x8d94afeb49e2b63ce2979bae8ecb4fee1dffe8dc6aba33d8994a9a527bf620cf",
      "assetIds": [
        "41506478881403507969696680653240014914910929820314476107906210059990541021187"
      ]
    },
    {
      "x": 403,
      "y": 251,
      "size": 1,
      "price": "4683000000000000000000",
      "reserved": "",
      "salt": "0x35677803a800a72e05eb679c5d837566ff4f831cef70941163296672eb87521a",
      "assetIds": [
        "41506478881403507969696680653240014914910929820314476107906210059990541021186"
      ]
    },
    {
      "x": 403,
      "y": 288,
      "size": 1,
      "price": "4683000000000000000000",
      "reserved": "",
      "salt": "0xe282b15dea3684c7654fdc8abcdd028e41c05c1f854eb6305eb27b3630b64cf6",
      "assetIds": [
        "41506478881403507969696680653240014914910929820314476107906210059990541021184"
      ]
    },
    {
      "x": 403,
      "y": 289,
      "size": 1,
      "price": "4683000000000000000000",
      "reserved": "",
      "salt": "0x460cbaa7e8e45ff6e796f1497e024cdc8d50d688aca25ac8020fb1f704e56769",
      "assetIds": [
        "41506478881403507969696680653240014914910929820314476107906210059990541021188"
      ]
    },
    {
      "x": 403,
      "y": 290,
      "size": 1,
      "price": "4683000000000000000000",
      "reserved": "",
      "salt": "0x3e47150be3fef88e799d29ffe3eb53a374025dd84664af964f5d751be8e23480",
      "assetIds": [
        "41506478881403507969696680653240014914910929820314476107906210059990541021188"
      ]
    },
    {
      "x": 403,
      "y": 291,
      "size": 1,
      "price": "4683000000000000000000",
      "reserved": "",
      "salt": "0x3a176d9877b8224b6aacffaabe27dd121fac594b9501bb3dc8ccc4756b168f6e",
      "assetIds": [
        "41506478881403507969696680653240014914910929820314476107906210059990541021187"
      ]
    },
    {
      "x": 403,
      "y": 292,
      "size": 1,
      "price": "4683000000000000000000",
      "reserved": "",
      "salt": "0x0a83bbab9f99333227fbce82a5451d94e368619b823d30c84acde71c3f07dfc2",
      "assetIds": [
        "41506478881403507969696680653240014914910929820314476107906210059990541021189"
      ]
    },
    {
      "x": 403,
      "y": 293,
      "size": 1,
      "price": "4683000000000000000000",
      "reserved": "",
      "salt": "0x6e2352ea7335f9de770d486e078387dc7c5f78902af8721876661011be454c71",
      "assetIds": [
        "41506478881403507969696680653240014914910929820314476107906210059990541021186"
      ]
    },
    {
      "x": 403,
      "y": 306,
      "size": 1,
      "price": "4683000000000000000000",
      "reserved": "",
      "salt": "0xb98829e4344b56f82c06c674b080dc2b5ce0c50b657f06176188b9bb96876d35",
      "assetIds": [
        "41506478881403507969696680653240014914910929820314476107906210059990541021187"
      ]
    },
    {
      "x": 403,
      "y": 307,
      "size": 1,
      "price": "4683000000000000000000",
      "reserved": "",
      "salt": "0x0651963e9f04289b2e88b73ed29c99cc981903797a8bf048c5f70932fe0824da",
      "assetIds": [
        "41506478881403507969696680653240014914910929820314476107906210059990541021188"
      ]
    },
    {
      "x": 403,
      "y": 308,
      "size": 1,
      "price": "4683000000000000000000",
      "reserved": "",
      "salt": "0xa82186efed3499a1509cc98b82a5a9afce78e940091bf5db16b90f536153cbe6",
      "assetIds": [
        "41506478881403507969696680653240014914910929820314476107906210059990541021188"
      ]
    },
    {
      "x": 403,
      "y": 309,
      "size": 1,
      "price": "1011000000000000000000",
      "reserved": "0x7a9fe22691c811ea339d9b73150e6911a5343dca",
      "salt": "0x528fd687b26c0a41ac36c6eb5b327fba3c3f92ca333a54341abfeee80187ac16",
      "assetIds": []
    },
    {
      "x": 403,
      "y": 310,
      "size": 1,
      "price": "4683000000000000000000",
      "reserved": "",
      "salt": "0x0c07aba6a3270060b597e95d9f834dfae551dee606390b8f0b5598dea3284dcb",
      "assetIds": [
        "41506478881403507969696680653240014914910929820314476107906210059990541021187"
      ]
    },
    {
      "x": 403,
      "y": 311,
      "size": 1,
      "price": "4683000000000000000000",
      "reserved": "",
      "salt": "0xc11fb1d210003512a34bf0d7e4b5a15051e8c97b2fab0e4573fa8fa5482ceb01",
      "assetIds": [
        "41506478881403507969696680653240014914910929820314476107906210059990541021188"
      ]
    },
    {
      "x": 404,
      "y": 240,
      "size": 1,
      "price": "4683000000000000000000",
      "reserved": "",
      "salt": "0x6bb68cada3cab95470459e8179c2c66a49c328d4a9ec9eca54d85a3d41d41b70",
      "assetIds": [
        "41506478881403507969696680653240014914910929820314476107906210059990541021187"
      ]
    },
    {
      "x": 404,
      "y": 241,
      "size": 1,
      "price": "4683000000000000000000",
      "reserved": "",
      "salt": "0x41339c4251751b96291b87cc8c99fe7f6c128349c00a0a8e4ac5442ea3698944",
      "assetIds": [
        "41506478881403507969696680653240014914910929820314476107906210059990541021189"
      ]
    },
    {
      "x": 404,
      "y": 242,
      "size": 1,
      "price": "4683000000000000000000",
      "reserved": "",
      "salt": "0x75694572801c5feb90816bc5b1ec899d174099648c77fbfdeccb9453cdeb3a34",
      "assetIds": [
        "41506478881403507969696680653240014914910929820314476107906210059990541021188"
      ]
    },
    {
      "x": 404,
      "y": 243,
      "size": 1,
      "price": "4683000000000000000000",
      "reserved": "",
      "salt": "0x518906f2dc3a1f8b03bfedb77865674b1a06c33f5ea23afd7a96176378c81b3a",
      "assetIds": [
        "41506478881403507969696680653240014914910929820314476107906210059990541021187"
      ]
    },
    {
      "x": 404,
      "y": 244,
      "size": 1,
      "price": "4683000000000000000000",
      "reserved": "",
      "salt": "0x9bf287cec2b9023639464bb31aab4729a7fd980c7c2b76b7c55d4329db319876",
      "assetIds": [
        "41506478881403507969696680653240014914910929820314476107906210059990541021184"
      ]
    },
    {
      "x": 404,
      "y": 245,
      "size": 1,
      "price": "4683000000000000000000",
      "reserved": "",
      "salt": "0x5faf2b5fb48d1224b89ee078b649cdfaf65e4a635ed80395552b11d19e12cdcb",
      "assetIds": [
        "41506478881403507969696680653240014914910929820314476107906210059990541021187"
      ]
    },
    {
      "x": 404,
      "y": 246,
      "size": 1,
      "price": "4683000000000000000000",
      "reserved": "",
      "salt": "0x16381335667934025f318391f50240d3591f7dfd31da007022a45e35bac81018",
      "assetIds": [
        "41506478881403507969696680653240014914910929820314476107906210059990541021184"
      ]
    },
    {
      "x": 404,
      "y": 247,
      "size": 1,
      "price": "4683000000000000000000",
      "reserved": "",
      "salt": "0x6a323dc45326d210e704d6c44afaff11259707b2e7ef93fa15248872d47afb2c",
      "assetIds": [
        "41506478881403507969696680653240014914910929820314476107906210059990541021187"
      ]
    },
    {
      "x": 404,
      "y": 248,
      "size": 1,
      "price": "4683000000000000000000",
      "reserved": "",
      "salt": "0x4cfad58a3ebf19fb978c9d3d79e7730cf845633534e0c5ce09f9a9267567adf0",
      "assetIds": [
        "41506478881403507969696680653240014914910929820314476107906210059990541021185"
      ]
    },
    {
      "x": 404,
      "y": 249,
      "size": 1,
      "price": "4683000000000000000000",
      "reserved": "",
      "salt": "0x6692861282732cf2403cd8eb1dc05bf765d6eef43aaaaef525707d03a52c6225",
      "assetIds": [
        "41506478881403507969696680653240014914910929820314476107906210059990541021189"
      ]
    },
    {
      "x": 404,
      "y": 250,
      "size": 1,
      "price": "4683000000000000000000",
      "reserved": "",
      "salt": "0x29c6bc45b2aa2fb898c20ddc495c730e4bfc2ddc485b7e5a20ca239b80b567c4",
      "assetIds": [
        "41506478881403507969696680653240014914910929820314476107906210059990541021185"
      ]
    },
    {
      "x": 404,
      "y": 251,
      "size": 1,
      "price": "4683000000000000000000",
      "reserved": "",
      "salt": "0xdd41effa4a5eeaf96a12485b5fb5e2ec1d3116dc443113bba6eaf254ca052d43",
      "assetIds": [
        "41506478881403507969696680653240014914910929820314476107906210059990541021189"
      ]
    },
    {
      "x": 404,
      "y": 288,
      "size": 1,
      "price": "4683000000000000000000",
      "reserved": "",
      "salt": "0xcc791db131b9f01f4a667db18ad8a1866d4c6cc935dd1eccd986d3d8b23e67b8",
      "assetIds": [
        "41506478881403507969696680653240014914910929820314476107906210059990532622336"
      ]
    },
    {
      "x": 404,
      "y": 289,
      "size": 1,
      "price": "4683000000000000000000",
      "reserved": "",
      "salt": "0xa548d33cea84c891147ca12062434a0471af0589016246f7608a456d42dc5c5f",
      "assetIds": [
        "41506478881403507969696680653240014914910929820314476107906210059990541021189"
      ]
    },
    {
      "x": 404,
      "y": 290,
      "size": 1,
      "price": "4683000000000000000000",
      "reserved": "",
      "salt": "0x3a73c92d3d2833871d17de4d1eccf5cebe38319123c342151d07b144fcda6581",
      "assetIds": [
        "41506478881403507969696680653240014914910929820314476107906210059990541021188"
      ]
    },
    {
      "x": 404,
      "y": 291,
      "size": 1,
      "price": "4683000000000000000000",
      "reserved": "",
      "salt": "0x5e63bd66fa695273c0ac29246b15e82eb5ad8b74a134893b6f74ecf07ed051aa",
      "assetIds": [
        "41506478881403507969696680653240014914910929820314476107906210059990541021186"
      ]
    },
    {
      "x": 404,
      "y": 292,
      "size": 1,
      "price": "4683000000000000000000",
      "reserved": "",
      "salt": "0x7df9e4e0edb12af52c7d840d8328ab9bf887a9517990f40e39779add9fb399cb",
      "assetIds": [
        "41506478881403507969696680653240014914910929820314476107906210059990541021184"
      ]
    },
    {
      "x": 404,
      "y": 293,
      "size": 1,
      "price": "4683000000000000000000",
      "reserved": "",
      "salt": "0xcdac68e2e82327d2bb82757f05945ee775874a675296532e1b1d10ff97d790a1",
      "assetIds": [
        "41506478881403507969696680653240014914910929820314476107906210059990541021189"
      ]
    },
    {
      "x": 404,
      "y": 306,
      "size": 1,
      "price": "4683000000000000000000",
      "reserved": "",
      "salt": "0x73b4b95714cffed8c04a41e71bab57bdf48b495fb613a588f2885fcd25126319",
      "assetIds": [
        "41506478881403507969696680653240014914910929820314476107906210059990541021187"
      ]
    },
    {
      "x": 404,
      "y": 307,
      "size": 1,
      "price": "4683000000000000000000",
      "reserved": "",
      "salt": "0xcb4ef1fdd61cdeedb62387e833b6d126dd38099975dc510aa84f2df5769de22e",
      "assetIds": [
        "41506478881403507969696680653240014914910929820314476107906210059990541021188"
      ]
    },
    {
      "x": 404,
      "y": 308,
      "size": 1,
      "price": "4683000000000000000000",
      "reserved": "",
      "salt": "0x20fc9f204591d1eb480f8a3c04f5f435c32b8d42aedb6568484c276f0b72a404",
      "assetIds": [
        "41506478881403507969696680653240014914910929820314476107906210059990541021189"
      ]
    },
    {
      "x": 404,
      "y": 309,
      "size": 1,
      "price": "4683000000000000000000",
      "reserved": "",
      "salt": "0x2d913addeaf9b2778d158d679e463be5ec2f7ce93a7d55b801582e615a58684c",
      "assetIds": [
        "41506478881403507969696680653240014914910929820314476107906210059990541021187"
      ]
    },
    {
      "x": 404,
      "y": 310,
      "size": 1,
      "price": "4683000000000000000000",
      "reserved": "",
      "salt": "0xaad1c2fabf68574f9f13af4714722d77b1090e6c42a760332a28fd9dda1bb89e",
      "assetIds": [
        "41506478881403507969696680653240014914910929820314476107906210059990541021187"
      ]
    },
    {
      "x": 404,
      "y": 311,
      "size": 1,
      "price": "4683000000000000000000",
      "reserved": "",
      "salt": "0xbd99e305747316c75818341ea1c859e16ead7d6b1559e03f3976a2fac5e8b1c1",
      "assetIds": [
        "41506478881403507969696680653240014914910929820314476107906210059990541021189"
      ]
    },
    {
      "x": 405,
      "y": 240,
      "size": 1,
      "price": "4683000000000000000000",
      "reserved": "",
      "salt": "0xcc7d35b3369bc4fadba4f2854a0c65b44bf8b50037f428606654a1811632c992",
      "assetIds": [
        "41506478881403507969696680653240014914910929820314476107906210059990541021189"
      ]
    },
    {
      "x": 405,
      "y": 241,
      "size": 1,
      "price": "4683000000000000000000",
      "reserved": "",
      "salt": "0xddab3589e766c489c4d2f1e8f952594e69ddbef5e38dc66322481dd2d18a503c",
      "assetIds": [
        "41506478881403507969696680653240014914910929820314476107906210059990541021188"
      ]
    },
    {
      "x": 405,
      "y": 242,
      "size": 1,
      "price": "4683000000000000000000",
      "reserved": "",
      "salt": "0x601abddf7f9a23a5457511e50592bc16aff86257c8e7cc7d5e05880bdddd3d1d",
      "assetIds": [
        "41506478881403507969696680653240014914910929820314476107906210059990541021189"
      ]
    },
    {
      "x": 405,
      "y": 243,
      "size": 1,
      "price": "4683000000000000000000",
      "reserved": "",
      "salt": "0x2027a70ae05b45c562771195e874e675b185df71b6693d9358f70ff9abd88cb1",
      "assetIds": [
        "41506478881403507969696680653240014914910929820314476107906210059990541021188"
      ]
    },
    {
      "x": 405,
      "y": 244,
      "size": 1,
      "price": "4683000000000000000000",
      "reserved": "",
      "salt": "0xcb9e0f5ae8a8f2e4a9ad813b5d9422e5cc44f7ca4cee255c50320f483cb45c73",
      "assetIds": [
        "41506478881403507969696680653240014914910929820314476107906210059990541021187"
      ]
    },
    {
      "x": 405,
      "y": 245,
      "size": 1,
      "price": "4683000000000000000000",
      "reserved": "",
      "salt": "0x7df4c322da52390d19eb65cbc25695fe51b49d114813261628c99e2ccbdcf049",
      "assetIds": [
        "41506478881403507969696680653240014914910929820314476107906210059990541021186"
      ]
    },
    {
      "x": 405,
      "y": 246,
      "size": 1,
      "price": "4683000000000000000000",
      "reserved": "",
      "salt": "0x471e20e3fb5212dc99a45474e6d36b45a63ee4e331f303c50df548bdb121e713",
      "assetIds": [
        "41506478881403507969696680653240014914910929820314476107906210059990541021187"
      ]
    },
    {
      "x": 405,
      "y": 247,
      "size": 1,
      "price": "1011000000000000000000",
      "reserved": "0x7a9fe22691c811ea339d9b73150e6911a5343dca",
      "salt": "0x179fde07e055d441889f1a691e754b8fa9e2e63818d2db5eb850da7007962580",
      "assetIds": []
    },
    {
      "x": 405,
      "y": 248,
      "size": 1,
      "price": "4683000000000000000000",
      "reserved": "",
      "salt": "0x8d236d67c9e94bb17fd44dd2c313b79a535880b4b0385ec0f3260f79b34fd71b",
      "assetIds": [
        "41506478881403507969696680653240014914910929820314476107906210059990541021185"
      ]
    },
    {
      "x": 405,
      "y": 249,
      "size": 1,
      "price": "4683000000000000000000",
      "reserved": "",
      "salt": "0xb94cda9ae4ca8c4990459424c59283f6b8d78fb1708e6fb190198a2de81759af",
      "assetIds": [
        "41506478881403507969696680653240014914910929820314476107906210059990541021189"
      ]
    },
    {
      "x": 405,
      "y": 250,
      "size": 1,
      "price": "4683000000000000000000",
      "reserved": "",
      "salt": "0x36388763e7fb5a36d5c9ecc3cd6d0d8feba5c437fa53e5a606cae4e180710fc9",
      "assetIds": [
        "41506478881403507969696680653240014914910929820314476107906210059990541021187"
      ]
    },
    {
      "x": 405,
      "y": 251,
      "size": 1,
      "price": "4683000000000000000000",
      "reserved": "",
      "salt": "0xe1af22cda38f905834004925f8f1dda98af732699cf7f5c258d2a5aec5e5c96b",
      "assetIds": [
        "41506478881403507969696680653240014914910929820314476107906210059990541021189"
      ]
    },
    {
      "x": 405,
      "y": 291,
      "size": 1,
      "price": "4683000000000000000000",
      "reserved": "",
      "salt": "0xdc7d2265cea2aec9f4f8c6f6335229406dad69353d3047f2c0edd2e1de72e944",
      "assetIds": [
        "41506478881403507969696680653240014914910929820314476107906210059990541021185"
      ]
    },
    {
      "x": 405,
      "y": 292,
      "size": 1,
      "price": "1011000000000000000000",
      "reserved": "0x7a9fe22691c811ea339d9b73150e6911a5343dca",
      "salt": "0xbabaaa16089b84cb9c2ce39fd98541056542adf7e1d2a6103bf10db1345c673c",
      "assetIds": []
    },
    {
      "x": 405,
      "y": 293,
      "size": 1,
      "price": "4683000000000000000000",
      "reserved": "",
      "salt": "0x6739618b7895a52c22ec2960346ef9fd96c9eb191c67038a358ffe561e2c3f39",
      "assetIds": [
        "41506478881403507969696680653240014914910929820314476107906210059990541021187"
      ]
    },
    {
      "x": 405,
      "y": 306,
      "size": 1,
      "price": "4683000000000000000000",
      "reserved": "",
      "salt": "0x4b89c0f874238fbcad2d84aba8f0b8a8c30434d73f637caceb8b37c5a4412ff7",
      "assetIds": [
        "41506478881403507969696680653240014914910929820314476107906210059990541021189"
      ]
    },
    {
      "x": 405,
      "y": 307,
      "size": 1,
      "price": "4683000000000000000000",
      "reserved": "",
      "salt": "0xfdf3b290db3e6b0fd835301837c379d5c76f6cb1261c5b953121a53f44466c79",
      "assetIds": [
        "41506478881403507969696680653240014914910929820314476107906210059990541021187"
      ]
    },
    {
      "x": 405,
      "y": 308,
      "size": 1,
      "price": "4683000000000000000000",
      "reserved": "",
      "salt": "0x6d5d864186fe13babd2b69411b7c3d68e65f5084a9bd4df69ea2532d5f26dd09",
      "assetIds": [
        "41506478881403507969696680653240014914910929820314476107906210059990541021188"
      ]
    },
    {
      "x": 405,
      "y": 309,
      "size": 1,
      "price": "4683000000000000000000",
      "reserved": "",
      "salt": "0x6b09cb9a1cf834c3a0ed835f00b57445a91da81a8ede5c7d4a8fa4ff102b408b",
      "assetIds": [
        "41506478881403507969696680653240014914910929820314476107906210059990541021188"
      ]
    },
    {
      "x": 405,
      "y": 310,
      "size": 1,
      "price": "4683000000000000000000",
      "reserved": "",
      "salt": "0x4321d4f367bd5105a0414cf89d0d43c2a235f4b10ee5acce089ba40ebb35cb14",
      "assetIds": [
        "41506478881403507969696680653240014914910929820314476107906210059990541021188"
      ]
    },
    {
      "x": 405,
      "y": 311,
      "size": 1,
      "price": "4683000000000000000000",
      "reserved": "",
      "salt": "0x5498a25e3ff26f22d9031196da48d2c16808e421782c875e81330268cbfa7d6a",
      "assetIds": [
        "41506478881403507969696680653240014914910929820314476107906210059990541021187"
      ]
    },
    {
      "x": 406,
      "y": 240,
      "size": 1,
      "price": "4683000000000000000000",
      "reserved": "",
      "salt": "0x5ac35837483e42bcc20e3dc10f005e4e8e3854c3ac0b91a35dde3b785c6fc91d",
      "assetIds": [
        "41506478881403507969696680653240014914910929820314476107906210059990541021188"
      ]
    },
    {
      "x": 406,
      "y": 241,
      "size": 1,
      "price": "4683000000000000000000",
      "reserved": "",
      "salt": "0x2bfbfbf123522d2418e31bcdcfbc014f353b7397393d9f968a63ca816ea08acd",
      "assetIds": [
        "41506478881403507969696680653240014914910929820314476107906210059990541021188"
      ]
    },
    {
      "x": 406,
      "y": 242,
      "size": 1,
      "price": "1011000000000000000000",
      "reserved": "0x7a9fe22691c811ea339d9b73150e6911a5343dca",
      "salt": "0x989676cc73eceaa03cb0c8b1ca44cc5ef18030dbc45e60a8c8620cf8536734d4",
      "assetIds": []
    },
    {
      "x": 406,
      "y": 243,
      "size": 1,
      "price": "4683000000000000000000",
      "reserved": "",
      "salt": "0x3d9af91b254c7dcf586373538830163890d6d641a623840d5347476433458b7a",
      "assetIds": [
        "41506478881403507969696680653240014914910929820314476107906210059990541021186"
      ]
    },
    {
      "x": 406,
      "y": 244,
      "size": 1,
      "price": "4683000000000000000000",
      "reserved": "",
      "salt": "0x7e94328b9b8cb22255c95c09c6ae7573f1bef2d8e08b63e2254c0d99c5cc30f0",
      "assetIds": [
        "41506478881403507969696680653240014914910929820314476107906210059990541021187"
      ]
    },
    {
      "x": 406,
      "y": 245,
      "size": 1,
      "price": "4683000000000000000000",
      "reserved": "",
      "salt": "0xa6a9fdf215ade8d92f52da824e58a7a18581b44704f310f283b7380b2703d303",
      "assetIds": [
        "41506478881403507969696680653240014914910929820314476107906210059990541021188"
      ]
    },
    {
      "x": 406,
      "y": 246,
      "size": 1,
      "price": "4683000000000000000000",
      "reserved": "",
      "salt": "0x96ad4b507f4885590fd68c8b4a48a6fab4db18546dcace9b74a33711d7afa374",
      "assetIds": [
        "41506478881403507969696680653240014914910929820314476107906210059990541021187"
      ]
    },
    {
      "x": 406,
      "y": 247,
      "size": 1,
      "price": "4683000000000000000000",
      "reserved": "",
      "salt": "0x15bec5afdcc032903dbf93176b7413205baabdcbaace5df35826b286848d40af",
      "assetIds": [
        "41506478881403507969696680653240014914910929820314476107906210059990541021188"
      ]
    },
    {
      "x": 406,
      "y": 248,
      "size": 1,
      "price": "4683000000000000000000",
      "reserved": "",
      "salt": "0x211ba146142b09097501e6ec3597c835d08fa7e790381a75046e50191985a9ac",
      "assetIds": [
        "41506478881403507969696680653240014914910929820314476107906210059990541021187"
      ]
    },
    {
      "x": 406,
      "y": 249,
      "size": 1,
      "price": "4683000000000000000000",
      "reserved": "",
      "salt": "0xc28518fb038c6c0b518fc6644ee3074ae99b2e453bbbd488bb4d4c3b46331273",
      "assetIds": [
        "41506478881403507969696680653240014914910929820314476107906210059990541021189"
      ]
    },
    {
      "x": 406,
      "y": 250,
      "size": 1,
      "price": "4683000000000000000000",
      "reserved": "",
      "salt": "0x40c14f0707c23a7071e12df80ff195ed5acd8e867fa7c47dc0f8b3afaeb7ce9d",
      "assetIds": [
        "41506478881403507969696680653240014914910929820314476107906210059990541021188"
      ]
    },
    {
      "x": 406,
      "y": 251,
      "size": 1,
      "price": "4683000000000000000000",
      "reserved": "",
      "salt": "0x1ad0d6e7eb4cef3197ee94d85e88edfef60acbb036d5d84f48c91fe9270bc94e",
      "assetIds": [
        "41506478881403507969696680653240014914910929820314476107906210059990541021185"
      ]
    },
    {
      "x": 406,
      "y": 291,
      "size": 1,
      "price": "4683000000000000000000",
      "reserved": "",
      "salt": "0xfeda07c31f3ca72cc161fa636bd7a17d839955ed7d615d60c12318809cfb1989",
      "assetIds": [
        "41506478881403507969696680653240014914910929820314476107906210059990532622336"
      ]
    },
    {
      "x": 406,
      "y": 292,
      "size": 1,
      "price": "4683000000000000000000",
      "reserved": "",
      "salt": "0x9349bcbda0840717c5b25dd787dfef56c51fcd1c3c3932ab75004d1017cf14e3",
      "assetIds": [
        "41506478881403507969696680653240014914910929820314476107906210059990541021188"
      ]
    },
    {
      "x": 406,
      "y": 293,
      "size": 1,
      "price": "4683000000000000000000",
      "reserved": "",
      "salt": "0x8a281baca672703b99eea2e2080b2a2493c65ba4793d364671a51efa782568d9",
      "assetIds": [
        "41506478881403507969696680653240014914910929820314476107906210059990541021186"
      ]
    },
    {
      "x": 406,
      "y": 306,
      "size": 1,
      "price": "4683000000000000000000",
      "reserved": "",
      "salt": "0x426d619b7aee35c163fc029114f7f0999b9121c781f126702098a6c8cada8d67",
      "assetIds": [
        "41506478881403507969696680653240014914910929820314476107906210059990541021188"
      ]
    },
    {
      "x": 406,
      "y": 307,
      "size": 1,
      "price": "4683000000000000000000",
      "reserved": "",
      "salt": "0x488b603a4f49f4b268af184bb581f28c4b4180825bdd38ef288f1d8aae98003b",
      "assetIds": [
        "41506478881403507969696680653240014914910929820314476107906210059990541021189"
      ]
    },
    {
      "x": 406,
      "y": 308,
      "size": 1,
      "price": "4683000000000000000000",
      "reserved": "",
      "salt": "0xc298a0c7f5941e501116149805615580f3e70ac4c23fbcd992243e51ea246256",
      "assetIds": [
        "41506478881403507969696680653240014914910929820314476107906210059990541021188"
      ]
    },
    {
      "x": 406,
      "y": 309,
      "size": 1,
      "price": "4683000000000000000000",
      "reserved": "",
      "salt": "0x271fa7d57e5746cda347ab2684a08b80d019c6a59a730c03825488245666d307",
      "assetIds": [
        "41506478881403507969696680653240014914910929820314476107906210059990541021186"
      ]
    },
    {
      "x": 406,
      "y": 310,
      "size": 1,
      "price": "4683000000000000000000",
      "reserved": "",
      "salt": "0x553adb85d99e55a7b12c78ff7f60570fc13155e6af1fee52faf1e431a5224dea",
      "assetIds": [
        "41506478881403507969696680653240014914910929820314476107906210059990541021186"
      ]
    },
    {
      "x": 406,
      "y": 311,
      "size": 1,
      "price": "4683000000000000000000",
      "reserved": "",
      "salt": "0xf3c887e61e8682065041d123811b0d451939a5d32f3947c9c35b0aaf8d42c4aa",
      "assetIds": [
        "41506478881403507969696680653240014914910929820314476107906210059990541021187"
      ]
    },
    {
      "x": 407,
      "y": 240,
      "size": 1,
      "price": "4683000000000000000000",
      "reserved": "",
      "salt": "0xefdcf1dc194f07bc9325ca27a6f3f864a812a316c4c10e1d6831f449ad760bab",
      "assetIds": [
        "41506478881403507969696680653240014914910929820314476107906210059990541021185"
      ]
    },
    {
      "x": 407,
      "y": 241,
      "size": 1,
      "price": "4683000000000000000000",
      "reserved": "",
      "salt": "0xd52f446c8bfa23fcc13b1eab92c7275496e0add2c8e8f7282a087e032c088b02",
      "assetIds": [
        "41506478881403507969696680653240014914910929820314476107906210059990532622336"
      ]
    },
    {
      "x": 407,
      "y": 242,
      "size": 1,
      "price": "4683000000000000000000",
      "reserved": "",
      "salt": "0x05a3f63aea0b7fe021f4a71557c90e119ec40e4573f8d94cb0a741d4c7167ed4",
      "assetIds": [
        "41506478881403507969696680653240014914910929820314476107906210059990541021185"
      ]
    },
    {
      "x": 407,
      "y": 243,
      "size": 1,
      "price": "4683000000000000000000",
      "reserved": "",
      "salt": "0x5bc52ace736fd0075c04e1c722f5b5a25470d97a0f636fa27202de69773e8f93",
      "assetIds": [
        "41506478881403507969696680653240014914910929820314476107906210059990541021186"
      ]
    },
    {
      "x": 407,
      "y": 244,
      "size": 1,
      "price": "4683000000000000000000",
      "reserved": "",
      "salt": "0x00eb35e0ef8e5c52a078e78e20e2be4175de34bcdff85305222a89388b63169b",
      "assetIds": [
        "41506478881403507969696680653240014914910929820314476107906210059990541021184"
      ]
    },
    {
      "x": 407,
      "y": 245,
      "size": 1,
      "price": "4683000000000000000000",
      "reserved": "",
      "salt": "0x022fca8f18f828b67e14736c8ba32b52f3c17e66c2ff2a4ed3e762b01eaa9fad",
      "assetIds": [
        "41506478881403507969696680653240014914910929820314476107906210059990541021188"
      ]
    },
    {
      "x": 407,
      "y": 246,
      "size": 1,
      "price": "4683000000000000000000",
      "reserved": "",
      "salt": "0xb0139d95634fd4def34df29c00db5e0419ce3026ea6bb0b7db6db35a47d9809a",
      "assetIds": [
        "41506478881403507969696680653240014914910929820314476107906210059990541021188"
      ]
    },
    {
      "x": 407,
      "y": 247,
      "size": 1,
      "price": "4683000000000000000000",
      "reserved": "",
      "salt": "0xc28ea9f8eb5c26294bf8b374d4c0381a717916e27ae2ec6b13f1cb57162ecefd",
      "assetIds": [
        "41506478881403507969696680653240014914910929820314476107906210059990532622336"
      ]
    },
    {
      "x": 407,
      "y": 248,
      "size": 1,
      "price": "4683000000000000000000",
      "reserved": "",
      "salt": "0x199ef1b24fe5ef92f85a44d9c0c752329ac260e2bbfe3ecc3ef1e13ffbdb0d73",
      "assetIds": [
        "41506478881403507969696680653240014914910929820314476107906210059990541021186"
      ]
    },
    {
      "x": 407,
      "y": 249,
      "size": 1,
      "price": "4683000000000000000000",
      "reserved": "",
      "salt": "0x0e6f47dc870321476e18a4c503e034295ef22dfb84e2f033d0ae698303d56bfb",
      "assetIds": [
        "41506478881403507969696680653240014914910929820314476107906210059990541021189"
      ]
    },
    {
      "x": 407,
      "y": 250,
      "size": 1,
      "price": "4683000000000000000000",
      "reserved": "",
      "salt": "0x35095e31ec7cc7d220342d7961ad06e00e5612cebda2ea1af50e5dbdef2ff366",
      "assetIds": [
        "41506478881403507969696680653240014914910929820314476107906210059990541021187"
      ]
    },
    {
      "x": 407,
      "y": 251,
      "size": 1,
      "price": "4683000000000000000000",
      "reserved": "",
      "salt": "0x7fb929b1bdc4dff4265bfdaf5ffbd82d62a9762de354d6c7e7f056ffa02e9926",
      "assetIds": [
        "41506478881403507969696680653240014914910929820314476107906210059990532622336"
      ]
    },
    {
      "x": 407,
      "y": 291,
      "size": 1,
      "price": "4683000000000000000000",
      "reserved": "",
      "salt": "0xd7f6b769081185ac89c0b9fb669f48fc8336c9813550c0d0cfa33adba17f7872",
      "assetIds": [
        "41506478881403507969696680653240014914910929820314476107906210059990541021187"
      ]
    },
    {
      "x": 407,
      "y": 292,
      "size": 1,
      "price": "4683000000000000000000",
      "reserved": "",
      "salt": "0x017306a56f2ac8be67950ec3efcb3aa5351812efe257a92385044cde88c81570",
      "assetIds": [
        "41506478881403507969696680653240014914910929820314476107906210059990541021187"
      ]
    },
    {
      "x": 407,
      "y": 293,
      "size": 1,
      "price": "4683000000000000000000",
      "reserved": "",
      "salt": "0x7b8e4c28bf5ff4647f9ca04a12fe5c62f5c7b416e252ede2cbbe7e6758554e03",
      "assetIds": [
        "41506478881403507969696680653240014914910929820314476107906210059990541021188"
      ]
    },
    {
      "x": 407,
      "y": 306,
      "size": 1,
      "price": "4683000000000000000000",
      "reserved": "",
      "salt": "0x9ac854fa9fde276c138927242f4920970bb28269b4c9dbd377615e7c28f92647",
      "assetIds": [
        "41506478881403507969696680653240014914910929820314476107906210059990541021186"
      ]
    },
    {
      "x": 407,
      "y": 307,
      "size": 1,
      "price": "4683000000000000000000",
      "reserved": "",
      "salt": "0xe43eb4a8f56d1e5128f8d9a99fed7632522f0ff1bfe4383e77069e95fd47075f",
      "assetIds": [
        "41506478881403507969696680653240014914910929820314476107906210059990541021189"
      ]
    },
    {
      "x": 407,
      "y": 308,
      "size": 1,
      "price": "4683000000000000000000",
      "reserved": "",
      "salt": "0x107c19006bff22626163a7743be7aa6245c4d098a931e507453c201f5fca62ea",
      "assetIds": [
        "41506478881403507969696680653240014914910929820314476107906210059990541021187"
      ]
    },
    {
      "x": 407,
      "y": 309,
      "size": 1,
      "price": "4683000000000000000000",
      "reserved": "",
      "salt": "0xcc6d49ee0ea965b58b454afd3cfc91771cfdb8d9e769aeae407af1ebba762815",
      "assetIds": [
        "41506478881403507969696680653240014914910929820314476107906210059990541021187"
      ]
    },
    {
      "x": 407,
      "y": 310,
      "size": 1,
      "price": "4683000000000000000000",
      "reserved": "",
      "salt": "0x35b8f992788efa6a60c17365cfa1c05310e9fa6a83e295d2a8fe3b92184a845c",
      "assetIds": [
        "41506478881403507969696680653240014914910929820314476107906210059990541021187"
      ]
    },
    {
      "x": 407,
      "y": 311,
      "size": 1,
      "price": "4683000000000000000000",
      "reserved": "",
      "salt": "0xfbec51f114087d8fb07611e4ec8493b40937e1f75853939628876b73151c4c5b",
      "assetIds": [
        "41506478881403507969696680653240014914910929820314476107906210059990541021187"
      ]
    },
    {
      "x": 333,
      "y": 258,
      "size": 3,
      "price": "8648000000000000000000",
      "reserved": "",
      "salt": "0x196a2dc53ae37a40fb253c972cae6d8049eff8cbffecb59f4e87993086695824",
      "assetIds": []
    },
    {
      "x": 333,
      "y": 270,
      "size": 3,
      "price": "8648000000000000000000",
      "reserved": "0x7a9fe22691c811ea339d9b73150e6911a5343dca",
      "salt": "0xde1f8f7d9da8e87fe2240097352320e82b520c94a89bfd46b4ac5f1e9b07800b",
      "assetIds": []
    },
    {
      "x": 333,
      "y": 273,
      "size": 3,
      "price": "8648000000000000000000",
      "reserved": "",
      "salt": "0x13974a88a98c65c69352f4da872ddb4d170237d7c285ddd49363d50fcd7823b1",
      "assetIds": []
    },
    {
      "x": 333,
      "y": 291,
      "size": 3,
      "price": "8648000000000000000000",
      "reserved": "",
      "salt": "0xcb15e38f9f62ca9ad35328d21674c15132fb09a8af1142a4b81c6d297460231b",
      "assetIds": []
    },
    {
      "x": 336,
      "y": 255,
      "size": 3,
      "price": "8648000000000000000000",
      "reserved": "",
      "salt": "0x3b4ea9aae6fcc594d5b09b28fab2cc5300f4e1b57108d5f9e865464ac21bab17",
      "assetIds": []
    },
    {
      "x": 339,
      "y": 252,
      "size": 3,
      "price": "8648000000000000000000",
      "reserved": "0x7a9fe22691c811ea339d9b73150e6911a5343dca",
      "salt": "0x6d63257ae0a2416dcc1812fd3515d3f5923dd0e5407ec493c3f1b59fed3d24e7",
      "assetIds": []
    },
    {
      "x": 345,
      "y": 294,
      "size": 3,
      "price": "8648000000000000000000",
      "reserved": "0x7a9fe22691c811ea339d9b73150e6911a5343dca",
      "salt": "0x48bdf70035b466c6c492b061f85abd759b0a3396625304f16e445b8468928f81",
      "assetIds": []
    },
    {
      "x": 345,
      "y": 300,
      "size": 3,
      "price": "8648000000000000000000",
      "reserved": "0xdeaddeaddeaddeaddeaddeaddeaddeaddeaddead",
      "salt": "0xcf63274988d0418e08c184ecdc8b23f39480097593d51d1244c0c5a6aba533ff",
      "assetIds": []
    },
    {
      "x": 348,
      "y": 252,
      "size": 3,
      "price": "8648000000000000000000",
      "reserved": "",
      "salt": "0x0da5f282a7eb0ed7505f23ad78ce1ec3a9c0091e0c6611238868c779f4788a22",
      "assetIds": []
    },
    {
      "x": 357,
      "y": 303,
      "size": 3,
      "price": "8648000000000000000000",
      "reserved": "",
      "salt": "0xa4f91952ab6120b82a70de745fc94d57583c2d13174fa64a3e5213d30b84761c",
      "assetIds": []
    },
    {
      "x": 360,
      "y": 273,
      "size": 3,
      "price": "8648000000000000000000",
      "reserved": "0x7a9fe22691c811ea339d9b73150e6911a5343dca",
      "salt": "0x1d832bf456cbef74b118eeb89e3625651ce87fc9c5e539361b95f58c70e1b20c",
      "assetIds": []
    },
    {
      "x": 360,
      "y": 294,
      "size": 3,
      "price": "8648000000000000000000",
      "reserved": "",
      "salt": "0x1688169f90db73efd9bf447756a57a8e21a737bb8f0b6252236c12e3c51517b2",
      "assetIds": []
    },
    {
      "x": 366,
      "y": 267,
      "size": 3,
      "price": "8648000000000000000000",
      "reserved": "",
      "salt": "0x2be77fc41113cd254038f5633993fe7bbd48bded5be5697fbe4f77e7da8ce566",
      "assetIds": []
    },
    {
      "x": 366,
      "y": 291,
      "size": 3,
      "price": "8648000000000000000000",
      "reserved": "0x7a9fe22691c811ea339d9b73150e6911a5343dca",
      "salt": "0x965ed2c0429a87399ab239f9f4ae2f98269ce72dd6cf11e6b74d73f08eba0d40",
      "assetIds": []
    },
    {
      "x": 378,
      "y": 231,
      "size": 3,
      "price": "8648000000000000000000",
      "reserved": "0x7a9fe22691c811ea339d9b73150e6911a5343dca",
      "salt": "0x6b0979849f599d2f841e97c6cb39bbc56dd1257247f1da69eec5770587a8f3d9",
      "assetIds": []
    },
    {
      "x": 378,
      "y": 285,
      "size": 3,
      "price": "8648000000000000000000",
      "reserved": "",
      "salt": "0x70e53705b0550257ea3e90afbe7b3cc25081b566cde8ce89563b6332cb16005b",
      "assetIds": []
    },
    {
      "x": 378,
      "y": 291,
      "size": 3,
      "price": "8648000000000000000000",
      "reserved": "0x7a9fe22691c811ea339d9b73150e6911a5343dca",
      "salt": "0x70fbc8c9d07bf290b5157d2226b49853478c92d8695767b6fccab2080fe1c2c6",
      "assetIds": []
    },
    {
      "x": 381,
      "y": 285,
      "size": 3,
      "price": "8648000000000000000000",
      "reserved": "0xdeaddeaddeaddeaddeaddeaddeaddeaddeaddead",
      "salt": "0x68b43d45bf7426acdcfbe49b2cfc1bae651e94e82889803d1f859151d5515744",
      "assetIds": []
    },
    {
      "x": 384,
      "y": 252,
      "size": 3,
      "price": "8648000000000000000000",
      "reserved": "",
      "salt": "0x7debf6ce9518d1e6fb5a010cf7e296a3c0abccec5d42d8d852e657e8e874984c",
      "assetIds": []
    },
    {
      "x": 387,
      "y": 222,
      "size": 3,
      "price": "8648000000000000000000",
      "reserved": "0xdeaddeaddeaddeaddeaddeaddeaddeaddeaddead",
      "salt": "0x97fc0c692ed0b442440baecd3e5c3b33fd839f39f31239a63e1f08abb13c8e3f",
      "assetIds": []
    },
    {
      "x": 390,
      "y": 258,
      "size": 3,
      "price": "8648000000000000000000",
      "reserved": "0x7a9fe22691c811ea339d9b73150e6911a5343dca",
      "salt": "0x6ab92b090159a9f970b678723ffcb8fb904ee41cffc51437c4a63f0acaa820f5",
      "assetIds": []
    },
    {
      "x": 390,
      "y": 288,
      "size": 3,
      "price": "8648000000000000000000",
      "reserved": "0xdeaddeaddeaddeaddeaddeaddeaddeaddeaddead",
      "salt": "0xecb3b7be03e4c04c2059314ebbbb46b1c861514d1d6009431a881993c2ddf8eb",
      "assetIds": []
    },
    {
      "x": 390,
      "y": 303,
      "size": 3,
      "price": "8648000000000000000000",
      "reserved": "0x7a9fe22691c811ea339d9b73150e6911a5343dca",
      "salt": "0xba4d96f88a1a5e16f01a576a9fcc36f836a355321a3f673bea90358fce4c6a26",
      "assetIds": []
    },
    {
      "x": 390,
      "y": 309,
      "size": 3,
      "price": "8648000000000000000000",
      "reserved": "",
      "salt": "0x7d47fbf20b839fef5788ab914f0445ea068d9c79a224f1eb715e01b90e10d1a9",
      "assetIds": []
    },
    {
      "x": 393,
      "y": 261,
      "size": 3,
      "price": "8648000000000000000000",
      "reserved": "0xdeaddeaddeaddeaddeaddeaddeaddeaddeaddead",
      "salt": "0x439ff76bcde8065e7fa9aebccdacac5b899d94234a2f702a97afecd63a1acce4",
      "assetIds": []
    },
    {
      "x": 393,
      "y": 297,
      "size": 3,
      "price": "8648000000000000000000",
      "reserved": "",
      "salt": "0x9b3f355725c6de0762d2040380882d84c728834241cd7b129360b8bb0d8ae6ee",
      "assetIds": []
    },
    {
      "x": 399,
      "y": 237,
      "size": 3,
      "price": "8648000000000000000000",
      "reserved": "",
      "salt": "0x9221d23517fb11098bed75c71928cc358993d98fb03b459e1409c0da8a995f7a",
      "assetIds": []
    },
    {
      "x": 405,
      "y": 288,
      "size": 3,
      "price": "8648000000000000000000",
      "reserved": "0xdeaddeaddeaddeaddeaddeaddeaddeaddeaddead",
      "salt": "0x844d4ebcbcbc8e3671383ad55c8667df2dbcd76234459b852282ca6408720ae9",
      "assetIds": []
    },
    {
      "x": 168,
      "y": 198,
      "size": 6,
      "price": "32772000000000000000000",
      "reserved": "0x7a9fe22691c811ea339d9b73150e6911a5343dca",
      "salt": "0xea2de181f2234b912c344e58ce89dd579cd20237a1aeb434f35cd1c3275675c4",
      "assetIds": []
    },
    {
      "x": 174,
      "y": 198,
      "size": 6,
      "price": "32772000000000000000000",
      "reserved": "0x7a9fe22691c811ea339d9b73150e6911a5343dca",
      "salt": "0xfc9cb182dce83fb70713b5b41cd66b847512cc37fc50e266067034b69e7cb16d",
      "assetIds": []
    },
    {
      "x": 180,
      "y": 198,
      "size": 6,
      "price": "32772000000000000000000",
      "reserved": "0x7a9fe22691c811ea339d9b73150e6911a5343dca",
      "salt": "0x379c54bee929df35433cb7ae169f1250d03e12ba9aa67eae20d59e5a94d968fe",
      "assetIds": []
    },
    {
      "x": 186,
      "y": 198,
      "size": 6,
      "price": "32772000000000000000000",
      "reserved": "0x7a9fe22691c811ea339d9b73150e6911a5343dca",
      "salt": "0x46f0c9e44992146f24566fcf7be06d9d468b384830b0d393d051dca5ce30de3b",
      "assetIds": []
    },
    {
      "x": 330,
      "y": 252,
      "size": 6,
      "price": "32772000000000000000000",
      "reserved": "0xdeaddeaddeaddeaddeaddeaddeaddeaddeaddead",
      "salt": "0x209fc9530e02c4ed09925e25fb4c410bfd99f7a6d5498291a38339409efb12b9",
      "assetIds": []
    },
    {
      "x": 330,
      "y": 264,
      "size": 6,
      "price": "32772000000000000000000",
      "reserved": "0xdeaddeaddeaddeaddeaddeaddeaddeaddeaddead",
      "salt": "0x2addf657cae1c4fbdd8e121bafe0e79991b3d669c8b0baa57c52e1d25c5ca11e",
      "assetIds": []
    },
    {
      "x": 330,
      "y": 294,
      "size": 6,
      "price": "32772000000000000000000",
      "reserved": "0x7a9fe22691c811ea339d9b73150e6911a5343dca",
      "salt": "0x4aad9a6d24aec46804984a1fc051e4ffa35b7f32ceb43b0c844564843d29cbd3",
      "assetIds": []
    },
    {
      "x": 342,
      "y": 258,
      "size": 6,
      "price": "32772000000000000000000",
      "reserved": "0xdeaddeaddeaddeaddeaddeaddeaddeaddeaddead",
      "salt": "0x88b2efd89c5ef617509408d6fce0418fb525cbc43e2f386c5c6acfa5b19da8c5",
      "assetIds": []
    },
    {
      "x": 342,
      "y": 288,
      "size": 6,
      "price": "32772000000000000000000",
      "reserved": "0xdeaddeaddeaddeaddeaddeaddeaddeaddeaddead",
      "salt": "0xcda24cf31912f11a5116ddc1a501bd21690f592f8a5e849b86ceee924b837078",
      "assetIds": []
    },
    {
      "x": 348,
      "y": 306,
      "size": 6,
      "price": "32772000000000000000000",
      "reserved": "0x7a9fe22691c811ea339d9b73150e6911a5343dca",
      "salt": "0xa76ea3a787d52f9d89a6807de2e1c566320b13e6175f3753e1b88641c24e02d5",
      "assetIds": []
    },
    {
      "x": 354,
      "y": 258,
      "size": 6,
      "price": "32772000000000000000000",
      "reserved": "0x716eb921f3b346d2c5749b5380dc740d359055d7",
      "salt": "0xfacd0cee9840ab71b69640a1ecee3d5b73ed8ac3dd06fb01b697f30c82d27661",
      "assetIds": []
    },
    {
      "x": 360,
      "y": 234,
      "size": 6,
      "price": "32772000000000000000000",
      "reserved": "0xdeaddeaddeaddeaddeaddeaddeaddeaddeaddead",
      "salt": "0xf073761ab96cfa3731348ac0872691852cae5a2011e4103c79a8e42d0199e6de",
      "assetIds": []
    },
    {
      "x": 360,
      "y": 264,
      "size": 6,
      "price": "32772000000000000000000",
      "reserved": "0xdeaddeaddeaddeaddeaddeaddeaddeaddeaddead",
      "salt": "0x08ca3805d5c005f95fd164017c0b5be00291f53cd94b52d88af4b17be5f9098f",
      "assetIds": []
    },
    {
      "x": 366,
      "y": 270,
      "size": 6,
      "price": "32772000000000000000000",
      "reserved": "0x7a9fe22691c811ea339d9b73150e6911a5343dca",
      "salt": "0xec4d49585074ddd3438e8e9e927b38cfec54a8fc7304a6ba1a9fcc255f91c131",
      "assetIds": []
    },
    {
      "x": 372,
      "y": 234,
      "size": 6,
      "price": "32772000000000000000000",
      "reserved": "0xdeaddeaddeaddeaddeaddeaddeaddeaddeaddead",
      "salt": "0xeaf0074a0420c6857c36a8fe4ae9c6ae293b110c34434e1b3699c19130edd555",
      "assetIds": []
    },
    {
      "x": 372,
      "y": 282,
      "size": 6,
      "price": "32772000000000000000000",
      "reserved": "0x7a9fe22691c811ea339d9b73150e6911a5343dca",
      "salt": "0x6f04869d32fa5df2705ad51ec34ca2016507077298ec059e1c857a2402fd1c3f",
      "assetIds": []
    },
    {
      "x": 378,
      "y": 276,
      "size": 6,
      "price": "32772000000000000000000",
      "reserved": "0x7a9fe22691c811ea339d9b73150e6911a5343dca",
      "salt": "0x595302e40a3a8a2fef2ae793eecfeccbb35eefc96f8d9b63b68febeed44eada0",
      "assetIds": []
    },
    {
      "x": 378,
      "y": 294,
      "size": 6,
      "price": "32772000000000000000000",
      "reserved": "0x7a9fe22691c811ea339d9b73150e6911a5343dca",
      "salt": "0xfdf525033905abcc7d9d88a0b2143434624b230d692d1375cb5577e2e1643563",
      "assetIds": []
    },
    {
      "x": 384,
      "y": 258,
      "size": 6,
      "price": "32772000000000000000000",
      "reserved": "0x7a9fe22691c811ea339d9b73150e6911a5343dca",
      "salt": "0x55a551cfaff864d3761dc6c72ec147c935a5803997d748f52df774f2da5e86f8",
      "assetIds": []
    },
    {
      "x": 384,
      "y": 288,
      "size": 6,
      "price": "32772000000000000000000",
      "reserved": "0x7a9fe22691c811ea339d9b73150e6911a5343dca",
      "salt": "0xd827bcd5e9755bd67cde5b2d150897167e8ab5dd5ae53ddd0730607e4314538a",
      "assetIds": []
    },
    {
      "x": 384,
      "y": 300,
      "size": 6,
      "price": "32772000000000000000000",
      "reserved": "0x7a9fe22691c811ea339d9b73150e6911a5343dca",
      "salt": "0xd273671af82c9cb80a7f674da5c60a0800983e994999ed11d4cbf95bc17b5d38",
      "assetIds": []
    },
    {
      "x": 390,
      "y": 216,
      "size": 6,
      "price": "32772000000000000000000",
      "reserved": "0x7a9fe22691c811ea339d9b73150e6911a5343dca",
      "salt": "0x1c37739887b7646367de15a65537fb621b0e97973b2d6f4dfe9e7b274c710f02",
      "assetIds": []
    },
    {
      "x": 390,
      "y": 228,
      "size": 6,
      "price": "32772000000000000000000",
      "reserved": "0x7a9fe22691c811ea339d9b73150e6911a5343dca",
      "salt": "0x65c0ab7a8c76e6d4a1bf36420e5fdb60ec9530df5f59cbf2a9ea1e6410b6e8e6",
      "assetIds": []
    },
    {
      "x": 396,
      "y": 288,
      "size": 6,
      "price": "32772000000000000000000",
      "reserved": "0x7a9fe22691c811ea339d9b73150e6911a5343dca",
      "salt": "0xad67597b17e5c46645affb99a9e2db6b2e539e476cd17dceea37b0b89f84f609",
      "assetIds": []
    },
    {
      "x": 396,
      "y": 300,
      "size": 6,
      "price": "32772000000000000000000",
      "reserved": "0x7a9fe22691c811ea339d9b73150e6911a5343dca",
      "salt": "0x33c573c1d736233ff51d2c6f643d56e7a9b981b1f55618106fd56923db4e3a64",
      "assetIds": []
    },
    {
      "x": 396,
      "y": 306,
      "size": 6,
      "price": "32772000000000000000000",
      "reserved": "0x7a9fe22691c811ea339d9b73150e6911a5343dca",
      "salt": "0x66391c7dfaf0ddedbd7aee7b4d79a5f41b364c86ec6add3c07214625efd7977d",
      "assetIds": []
    },
    {
      "x": 402,
      "y": 228,
      "size": 6,
      "price": "32772000000000000000000",
      "reserved": "0x7a9fe22691c811ea339d9b73150e6911a5343dca",
      "salt": "0x496d17bf0d6eddb15ddcebc59aa0abb990cffcdc0354d885f2840d34134f8fea",
      "assetIds": []
    },
    {
      "x": 402,
      "y": 234,
      "size": 6,
      "price": "32772000000000000000000",
      "reserved": "0x7a9fe22691c811ea339d9b73150e6911a5343dca",
      "salt": "0xb9daa0161937250dca21f1c48166ff9b46953e846a22be09332c5d0257ea4dce",
      "assetIds": []
    },
    {
      "x": 402,
      "y": 294,
      "size": 6,
      "price": "32772000000000000000000",
      "reserved": "0x7a9fe22691c811ea339d9b73150e6911a5343dca",
      "salt": "0xfcc86b1792b1dfdf2cb5f428e4b733513f30689fbf5f6ad4fbb941f02d3bdb60",
      "assetIds": []
    },
    {
      "x": 402,
      "y": 300,
      "size": 6,
      "price": "32772000000000000000000",
      "reserved": "0x7a9fe22691c811ea339d9b73150e6911a5343dca",
      "salt": "0xdeae28f541616149d16b716fe8385ee8190bb2948e8b4cf5153f1c5c8ac23f1e",
      "assetIds": []
    },
    {
      "x": 324,
      "y": 276,
      "size": 12,
      "price": "123806000000000000000000",
      "reserved": "0x7a9fe22691c811ea339d9b73150e6911a5343dca",
      "salt": "0x63e11812ffeb20b59e976b6ad99748a70314d6ac8e214c9c1b5fc3d3942061af",
      "assetIds": []
    },
    {
      "x": 348,
      "y": 240,
      "size": 12,
      "price": "123806000000000000000000",
      "reserved": "0x7a9fe22691c811ea339d9b73150e6911a5343dca",
      "salt": "0x0adacf16c51b9cdb7f4942ee11235b32af751406710beeef047d1e84e49ab6db",
      "assetIds": []
    },
    {
      "x": 348,
      "y": 288,
      "size": 12,
      "price": "123806000000000000000000",
      "reserved": "0x7a9fe22691c811ea339d9b73150e6911a5343dca",
      "salt": "0x7b7f64539087e242a03ebdb0d3aff43cd7bab719dd2e79c5a05aad7c307a113b",
      "assetIds": []
    },
    {
      "x": 360,
      "y": 276,
      "size": 12,
      "price": "123806000000000000000000",
      "reserved": "0xdeaddeaddeaddeaddeaddeaddeaddeaddeaddead",
      "salt": "0x9f242a7b8614c93a2de5663cc4a8f88e6164c078e05fa33870179670fe17c1af",
      "assetIds": []
    },
    {
      "x": 372,
      "y": 264,
      "size": 12,
      "price": "123806000000000000000000",
      "reserved": "0x7a9fe22691c811ea339d9b73150e6911a5343dca",
      "salt": "0x0171f2fa1a60d3cf3cc8ab083c446f1c18028f4e06e231469c4123d6ac6f1add",
      "assetIds": []
    },
    {
      "x": 384,
      "y": 240,
      "size": 12,
      "price": "123806000000000000000000",
      "reserved": "0x7a9fe22691c811ea339d9b73150e6911a5343dca",
      "salt": "0x32fd53f789eff42fd642114e36fbb01b0354743949058c9b278b9a517128bf0c",
      "assetIds": []
    },
    {
      "x": 396,
      "y": 216,
      "size": 12,
      "price": "123806000000000000000000",
      "reserved": "0x7a9fe22691c811ea339d9b73150e6911a5343dca",
      "salt": "0x91d8efd3a2f0c1d5d0478b13928266fcca2905fd3d7c77d96b166c9edc80a157",
      "assetIds": []
    },
    {
      "x": 396,
      "y": 252,
      "size": 12,
      "price": "123806000000000000000000",
      "reserved": "0xdeaddeaddeaddeaddeaddeaddeaddeaddeaddead",
      "salt": "0x96bd03ded9d750720fdfa27b2e2f0b0a13d74ab3bfeb0006794913a3beed7d50",
      "assetIds": []
    },
    {
      "x": 336,
      "y": 264,
      "size": 24,
      "price": "466102000000000000000000",
      "reserved": "0xdeaddeaddeaddeaddeaddeaddeaddeaddeaddead",
      "salt": "0xb50ef4cfb16379cb618637798175bb93c9e6d6758cfdc9587ec7eaf47bf23407",
      "assetIds": []
    },
    {
      "x": 360,
      "y": 240,
      "size": 24,
      "price": "466102000000000000000000",
      "reserved": "0xdeaddeaddeaddeaddeaddeaddeaddeaddeaddead",
      "salt": "0xbc254b18167e329305a97ea924bd0d8f3f2067a9c6dcb27e7eadad81142d6f4c",
      "assetIds": []
    },
    {
      "x": 384,
      "y": 264,
      "size": 24,
      "price": "466102000000000000000000",
      "reserved": "0xdeaddeaddeaddeaddeaddeaddeaddeaddeaddead",
      "salt": "0xc405d791837b7db44a784679222cc364987082043ae3a7d89902adb72ae685af",
      "assetIds": []
    }
  ],
  "solcInputHash": "313f455adab9ae93096e43acc50d7d38",
  "bytecode": "0x610160604052620d2f006005556103e860075534801561001e57600080fd5b5060405161242e38038061242e833981810160405261018081101561004257600080fd5b50805160208201516040830151606080850151608086015160a08088015160c0808a015160e08b01516101008c01516101208d01516101408e0151610160909e0151600280546001600160a01b0319166001600160a01b03861617905560038390558d8b1b6001600160601b0319908116909852998c901b909616909352999a9899979895979496929590949391926100dc8a600161014a565b600680546001600160a01b03199081166001600160a01b039a8b1617909155610140979097526101209590955260008054909616979096169690961790935550606093841b6001600160601b031990811660e05292841b831660805290921b1661010052506101ae92505050565b6001600160a01b038216600081815260016020908152604091829020805460ff191685151590811790915582519384529083015280517fb21eb88b4e33b3f1281830a7178d74d8aa73220416215726b68ae23d539515cb9281900390910190a15050565b60805160601c60a05160601c60c05160601c60e05160601c6101005160601c61012051610140516121fb610233600039806109375280611d44525080610913528061139a525080611da45250806115d252806116f4525080610c50528061159c5280611dd852508061166152806116c5525080610dfa528061190852506121fb6000f3fe608060405234801561001057600080fd5b50600436106101515760003560e01c8063984d6252116100cd578063dc5074af11610081578063ecb255b511610066578063ecb255b514610857578063f23a6e6114610874578063f2e7b3811461090957610151565b8063dc5074af14610814578063e56f8a9e1461083a57610151565b8063bc197c81116100b2578063bc197c81146105d3578063c10a420814610735578063caed35001461080c57610151565b8063984d6252146104db578063b522ecff146105ad57610151565b80636e9960c3116101245780638a04af6a116101095780638a04af6a1461032a5780638a12b82f146103585780638f283970146104b557610151565b80636e9960c3146102fe57806377f1c3ac1461032257610151565b806325cb5bc014610156578063495906571461017057806358bc29441461017857806365194ce7146101a0575b600080fd5b61015e610911565b60408051918252519081900360200190f35b61015e610935565b61019e6004803603602081101561018e57600080fd5b50356001600160a01b0316610959565b005b610246600480360360208110156101b657600080fd5b8101906020810181356401000000008111156101d157600080fd5b8201836020820111156101e357600080fd5b8035906020019184600183028401116401000000008311171561020557600080fd5b91908080601f016020809104026020016040519081016040528093929190818152602001838380828437600092019190915250929550610a04945050505050565b6040518080602001866001600160a01b03166001600160a01b03168152602001856001600160a01b03166001600160a01b03168152602001848152602001838152602001828103825287818151815260200191508051906020019080838360005b838110156102bf5781810151838201526020016102a7565b50505050905090810190601f1680156102ec5780820380516001836020036101000a031916815260200191505b50965050505050505060405180910390f35b610306610b09565b604080516001600160a01b039092168252519081900360200190f35b61015e610b18565b61019e6004803603604081101561034057600080fd5b506001600160a01b0381351690602001351515610b1e565b61019e600480360361018081101561036f57600080fd5b6001600160a01b038235811692602081013582169260408201359092169160608201359160808101359160a08201359160c08101359160e0820135916101008101359181019061014081016101208201356401000000008111156103d257600080fd5b8201836020820111156103e457600080fd5b8035906020019184602083028401116401000000008311171561040657600080fd5b91939092909160208101903564010000000081111561042457600080fd5b82018360208201111561043657600080fd5b8035906020019184602083028401116401000000008311171561045857600080fd5b91939092909160208101903564010000000081111561047657600080fd5b82018360208201111561048857600080fd5b803590602001918460018302840111640100000000831117156104aa57600080fd5b509092509050610b75565b61019e600480360360208110156104cb57600080fd5b50356001600160a01b0316610cc3565b61019e600480360360608110156104f157600080fd5b6001600160a01b03823516919081019060408101602082013564010000000081111561051c57600080fd5b82018360208201111561052e57600080fd5b8035906020019184602083028401116401000000008311171561055057600080fd5b91939092909160208101903564010000000081111561056e57600080fd5b82018360208201111561058057600080fd5b803590602001918460208302840111640100000000831117156105a257600080fd5b509092509050610d99565b61019e600480360360208110156105c357600080fd5b50356001600160a01b0316610f24565b610700600480360360a08110156105e957600080fd5b6001600160a01b03823581169260208101359091169181019060608101604082013564010000000081111561061d57600080fd5b82018360208201111561062f57600080fd5b8035906020019184602083028401116401000000008311171561065157600080fd5b91939092909160208101903564010000000081111561066f57600080fd5b82018360208201111561068157600080fd5b803590602001918460208302840111640100000000831117156106a357600080fd5b9193909290916020810190356401000000008111156106c157600080fd5b8201836020820111156106d357600080fd5b803590602001918460018302840111640100000000831117156106f557600080fd5b50909250905061100d565b604080517fffffffff000000000000000000000000000000000000000000000000000000009092168252519081900360200190f35b6107f8600480360360a081101561074b57600080fd5b81019060208101813564010000000081111561076657600080fd5b82018360208201111561077857600080fd5b8035906020019184600183028401116401000000008311171561079a57600080fd5b91908080601f016020809104026020016040519081016040528093929190818152602001838380828437600092019190915250929550506001600160a01b03833581169450602084013516926040810135925060600135905061103a565b604080519115158252519081900360200190f35b610306611176565b6107f86004803603602081101561082a57600080fd5b50356001600160a01b0316611185565b61019e6004803603602081101561085057600080fd5b50356111a3565b61019e6004803603602081101561086d57600080fd5b5035611207565b610700600480360360a081101561088a57600080fd5b6001600160a01b03823581169260208101359091169160408201359160608101359181019060a0810160808201356401000000008111156108ca57600080fd5b8201836020820111156108dc57600080fd5b803590602001918460018302840111640100000000831117156108fe57600080fd5b50909250905061126b565b61015e611296565b7f000000000000000000000000000000000000000000000000000000000000000090565b7f000000000000000000000000000000000000000000000000000000000000000090565b6000546001600160a01b031633146109b8576040805162461bcd60e51b815260206004820152601060248201527f53656e646572206e6f742061646d696e00000000000000000000000000000000604482015290519081900360640190fd5b600554600280546001600160a01b03908116600090815260046020526040902042909301909255805473ffffffffffffffffffffffffffffffffffffffff191692909116919091179055565b606060008060008060606000806000808a80602001905160a0811015610a2957600080fd5b8101908080516040519392919084640100000000821115610a4957600080fd5b908301906020820185811115610a5e57600080fd5b8251640100000000811182820188101715610a7857600080fd5b82525081516020918201929091019080838360005b83811015610aa5578181015183820152602001610a8d565b50505050905090810190601f168015610ad25780820380516001836020036101000a031916815260200191505b5060409081526020820151908201516060830151608090930151959f50909d509b5099509197505050505050505091939590929450565b6000546001600160a01b031690565b60035490565b6000546001600160a01b03163314610b675760405162461bcd60e51b815260040180806020018281038252602e815260200180612198602e913960400191505060405180910390fd5b610b71828261129c565b5050565b610b7f898961131e565b610c048f8e8e8e8e8e8d8d8d80806020026020016040519081016040528093929190818152602001838360200280828437600081840152601f19601f820116905080830192505050505050508c8c8080602002602001604051908101604052809392919081815260200183836020028082843760009201919091525061139892505050565b610c458f8984848080601f01602080910402602001604051908101604052809392919081815260200183838082843760009201919091525061157592505050565b610c758f8f8e8e8e8d7f00000000000000000000000000000000000000000000000000000000000000008f6115c6565b610cb28e87878080602002602001604051908101604052809392919081815260200183836020028082843760009201919091525061189192505050565b505050505050505050505050505050565b6000546001600160a01b03163314610d22576040805162461bcd60e51b815260206004820152601b60248201527f6f6e6c792061646d696e2063616e206368616e67652061646d696e0000000000604482015290519081900360640190fd5b600054604080516001600160a01b039283168152918316602083015280517f7e644d79422f17c01e4894b5f4f588d331ebfa28653d42ae832dc59e38c9798f9281900390910190a16000805473ffffffffffffffffffffffffffffffffffffffff19166001600160a01b0392909216919091179055565b6000546001600160a01b03163314610df8576040805162461bcd60e51b815260206004820152600e60248201527f4e4f545f415554484f52495a4544000000000000000000000000000000000000604482015290519081900360640190fd5b7f00000000000000000000000000000000000000000000000000000000000000006001600160a01b0316632eb2c2d63087878787876040518763ffffffff1660e01b815260040180876001600160a01b03166001600160a01b03168152602001866001600160a01b03166001600160a01b031681526020018060200180602001806020018481038452888882818152602001925060200280828437600083820152601f01601f19169091018581038452868152602090810191508790870280828437600081840152601f19601f8201169050808301925050508481038252600081526020016020019950505050505050505050600060405180830381600087803b158015610f0557600080fd5b505af1158015610f19573d6000803e3d6000fd5b505050505050505050565b6001600160a01b038116610f7f576040805162461bcd60e51b815260206004820152600c60248201527f5a45524f5f414444524553530000000000000000000000000000000000000000604482015290519081900360640190fd5b6000546001600160a01b03163314610fde576040805162461bcd60e51b815260206004820152600e60248201527f4e4f545f415554484f52495a4544000000000000000000000000000000000000604482015290519081900360640190fd5b6006805473ffffffffffffffffffffffffffffffffffffffff19166001600160a01b0392909216919091179055565b7fbc197c810000000000000000000000000000000000000000000000000000000098975050505050505050565b600060035482118061105d5750836001600160a01b0316856001600160a01b0316145b8061106757508242115b156110745750600061116d565b60408051606087811b7fffffffffffffffffffffffffffffffffffffffff0000000000000000000000009081166020808501919091529188901b166034830152604882018690526068808301869052835180840390910181526088830184528051908201207f19457468657265756d205369676e6564204d6573736167653a0a33320000000060a884015260c48084018290528451808503909101815260e4909301909352815191012060009061112b9089611a55565b6001600160a01b03811660009081526004602052604090205490915042116111585760019250505061116d565b6002546001600160a01b039081169116149150505b95945050505050565b6002546001600160a01b031690565b6001600160a01b031660009081526001602052604090205460ff1690565b6000546001600160a01b03163314611202576040805162461bcd60e51b815260206004820152601060248201527f53656e646572206e6f742061646d696e00000000000000000000000000000000604482015290519081900360640190fd5b600355565b6000546001600160a01b03163314611266576040805162461bcd60e51b815260206004820152600e60248201527f4e4f545f415554484f52495a4544000000000000000000000000000000000000604482015290519081900360640190fd5b600755565b7ff23a6e61000000000000000000000000000000000000000000000000000000009695505050505050565b60075490565b6001600160a01b03821660008181526001602090815260409182902080547fffffffffffffffffffffffffffffffffffffffffffffffffffffffffffffff001685151590811790915582519384529083015280517fb21eb88b4e33b3f1281830a7178d74d8aa73220416215726b68ae23d539515cb9281900390910190a15050565b6113456103e861133960075485611b2290919063ffffffff16565b9063ffffffff611b9816565b8114610b71576040805162461bcd60e51b815260206004820152600d60248201527f494e56414c49445f505249434500000000000000000000000000000000000000604482015290519081900360640190fd5b7f0000000000000000000000000000000000000000000000000000000000000000421061140c576040805162461bcd60e51b815260206004820152600c60248201527f53414c455f49535f4f5645520000000000000000000000000000000000000000604482015290519081900360640190fd5b6001600160a01b03891633148061143257503360009081526001602052604090205460ff165b611483576040805162461bcd60e51b815260206004820152600e60248201527f4e4f545f415554484f52495a4544000000000000000000000000000000000000604482015290519081900360640190fd5b6001600160a01b03881615806114aa5750886001600160a01b0316886001600160a01b0316145b6114fb576040805162461bcd60e51b815260206004820152600d60248201527f52455345525645445f4c414e4400000000000000000000000000000000000000604482015290519081900360640190fd5b600061150c888888888d8989611bfd565b90506115188282611ca2565b611569576040805162461bcd60e51b815260206004820152600c60248201527f494e56414c49445f4c414e440000000000000000000000000000000000000000604482015290519081900360640190fd5b50505050505050505050565b60006115818484611d6b565b6006549091506115c0908590839085906001600160a01b03167f0000000000000000000000000000000000000000000000000000000000000000611eb8565b50505050565b83600114806115fc57507f00000000000000000000000000000000000000000000000000000000000000006001600160a01b0316155b156116c357604080517f6e1e3bbf0000000000000000000000000000000000000000000000000000000081526001600160a01b03898116600483015260248201879052604482018990526064820188905260a06084830152600060a4830181905292517f000000000000000000000000000000000000000000000000000000000000000090911692636e1e3bbf9260e4808201939182900301818387803b1580156116a657600080fd5b505af11580156116ba573d6000803e3d6000fd5b50505050611827565b7f00000000000000000000000000000000000000000000000000000000000000006001600160a01b0316636e1e3bbf7f00000000000000000000000000000000000000000000000000000000000000008689898c60405160200180826001600160a01b03166001600160a01b031681526020019150506040516020818303038152906040526040518663ffffffff1660e01b815260040180866001600160a01b03166001600160a01b0316815260200185815260200184815260200183815260200180602001828103825283818151815260200191508051906020019080838360005b838110156117be5781810151838201526020016117a6565b50505050905090810190601f1680156117eb5780820380516001836020036101000a031916815260200191505b509650505050505050600060405180830381600087803b15801561180e57600080fd5b505af1158015611822573d6000803e3d6000fd5b505050505b60408051858152602081018590526001600160a01b03848116828401526060820184905291516101988802890192808b1692908c16917fe4dfa6ac11314892f3029b34a25b1a887da3b1cab2bbf8506d87128ba6e3ac029181900360800190a45050505050505050565b6060815167ffffffffffffffff811180156118ab57600080fd5b506040519080825280602002602001820160405280156118d5578160200160208202803683370190505b50905060005b82518110156119055760018282815181106118f257fe5b60209081029190910101526001016118db565b507f00000000000000000000000000000000000000000000000000000000000000006001600160a01b0316632eb2c2d6308585856040518563ffffffff1660e01b815260040180856001600160a01b03166001600160a01b03168152602001846001600160a01b03166001600160a01b03168152602001806020018060200180602001848103845286818151815260200191508051906020019060200280838360005b838110156119c05781810151838201526020016119a8565b50505050905001848103835285818151815260200191508051906020019060200280838360005b838110156119ff5781810151838201526020016119e7565b50505050905001848103825260008152602001602001975050505050505050600060405180830381600087803b158015611a3857600080fd5b505af1158015611a4c573d6000803e3d6000fd5b50505050505050565b60008151604114611a6557600080fd5b60208201516040830151606084015160001a601b811015611a8457601b015b8060ff16601b1480611a9957508060ff16601c145b611aa257600080fd5b6040805160008152602080820180845289905260ff8416828401526060820186905260808201859052915160019260a0808401939192601f1981019281900390910190855afa158015611af9573d6000803e3d6000fd5b5050604051601f1901519450506001600160a01b038416611b1957600080fd5b50505092915050565b600082611b3157506000611b92565b5081810281838281611b3f57fe5b0414611b92576040805162461bcd60e51b815260206004820152600860248201527f6f766572666c6f77000000000000000000000000000000000000000000000000604482015290519081900360640190fd5b92915050565b600081611bec576040805162461bcd60e51b815260206004820152600960248201527f64697662797a65726f0000000000000000000000000000000000000000000000604482015290519081900360640190fd5b818381611bf557fe5b049392505050565b60008787878787878760405160200180888152602001878152602001868152602001858152602001846001600160a01b03166001600160a01b031660601b8152601401838152602001828051906020019060200280838360005b83811015611c6f578181015183820152602001611c57565b50505050905001975050505050505050604051602081830303815290604052805190602001209050979650505050505050565b600081815b8451811015611d41576000858281518110611cbe57fe5b6020026020010151905080831015611d065782816040516020018083815260200182815260200192505050604051602081830303815290604052805190602001209250611d38565b808360405160200180838152602001828152602001925050506040516020818303038152906040528051906020012092505b50600101611ca7565b507f0000000000000000000000000000000000000000000000000000000000000000149392505050565b600080611d84606461133985600563ffffffff611b2216565b604080516323b872dd60e01b81526001600160a01b0387811660048301527f0000000000000000000000000000000000000000000000000000000000000000811660248301526044820184905291519293507f0000000000000000000000000000000000000000000000000000000000000000909116916323b872dd916064808201926020929091908290030181600087803b158015611e2357600080fd5b505af1158015611e37573d6000803e3d6000fd5b505050506040513d6020811015611e4d57600080fd5b5051611ea0576040805162461bcd60e51b815260206004820152601360248201527f4645455f5452414e534645525f4641494c454400000000000000000000000000604482015290519081900360640190fd5b611eb0838263ffffffff61213a16565b949350505050565b82518190859015612062576060600080600080611ed48a610a04565b9398509196509450925090506000611eef868686868661103a565b15611f7d57611f09611f018d84611b22565b612710611b98565b9050886001600160a01b0316846001600160a01b0316866001600160a01b03167fac7a699eb95c3c6d390ec4626de17ef9a67b35891efdb197beba7c7fdd45fac48f858760405180848152602001838152602001828152602001935050505060405180910390a4611f7a878261213a565b96505b801561205b57604080516323b872dd60e01b81526001600160a01b038f811660048301528781166024830152604482018490529151918a16916323b872dd916064808201926020929091908290030181600087803b158015611fde57600080fd5b505af1158015611ff2573d6000803e3d6000fd5b505050506040513d602081101561200857600080fd5b505161205b576040805162461bcd60e51b815260206004820152601960248201527f636f6d6d6973696f6e207472616e73666572206661696c656400000000000000604482015290519081900360640190fd5b5050505050505b604080516323b872dd60e01b81526001600160a01b0389811660048301528681166024830152604482018490529151918416916323b872dd916064808201926020929091908290030181600087803b1580156120bd57600080fd5b505af11580156120d1573d6000803e3d6000fd5b505050506040513d60208110156120e757600080fd5b5051611a4c576040805162461bcd60e51b815260206004820152601760248201527f7061796d656e74207472616e73666572206661696c6564000000000000000000604482015290519081900360640190fd5b600082821115612191576040805162461bcd60e51b815260206004820152600860248201527f756e6465666c6f77000000000000000000000000000000000000000000000000604482015290519081900360640190fd5b5090039056fe6f6e6c792061646d696e2063616e207365747570206d6574615472616e73616374696f6e50726f636573736f7273a26469706673582212200ff38c5741c66b2a22a9a9ee2abe0f55626323082b6b4443921fd3b25484584a64736f6c63430006050033",
  "devdoc": {
    "methods": {
      "buyLandWithSand(address,address,address,uint256,uint256,uint256,uint256,uint256,bytes32,uint256[],bytes32[],bytes)": {
        "params": {
          "buyer": "address that perform the payment",
          "priceInSand": "price in SAND to purchase that Land",
          "proof": "merkleProof for that particular Land",
          "reserved": "the reserved address (if any)",
          "size": "size of the pack of Land to purchase",
          "to": "address that will own the purchased Land",
          "x": "x coordinate of the Land",
          "y": "y coordinate of the Land"
        }
      },
      "changeAdmin(address)": {
        "details": "change the administrator to be `newAdmin`.",
        "params": {
          "newAdmin": "address of the new administrator."
        }
      },
      "getAdmin()": {
        "details": "gives the current administrator of this contract.",
        "returns": {
          "_0": "the current administrator of this contract."
        }
      },
      "getSigningWallet()": {
        "details": "signing wallet authorized for referral",
        "returns": {
          "_0": "the address of the signing wallet"
        }
      },
      "isMetaTransactionProcessor(address)": {
        "details": "check whether address `who` is given meta-transaction execution rights.",
        "params": {
          "who": "The address to query."
        },
        "returns": {
          "_0": "whether the address has meta-transaction execution rights."
        }
      },
      "isReferralValid(bytes,address,address,uint256,uint256)": {
        "params": {
          "commissionRate": "The commissionRate of the referral",
          "expiryTime": "The expiry time of the referral",
          "referee": "The address of the referee",
          "referrer": "The address of the referrer",
          "signature": "The signature to check (signed referral)"
        },
        "returns": {
          "_0": "True if the referral is valid"
        }
      },
      "setMetaTransactionProcessor(address,bool)": {
        "details": "Enable or disable the ability of `metaTransactionProcessor` to perform meta-tx (metaTransactionProcessor rights).",
        "params": {
          "enabled": "set whether the metaTransactionProcessor is enabled or disabled.",
          "metaTransactionProcessor": "address that will be given/removed metaTransactionProcessor rights."
        }
      },
      "setReceivingWallet(address)": {
        "params": {
          "newWallet": "address of the new receiving wallet"
        }
      },
      "updateMaxCommissionRate(uint256)": {
        "details": "Update the maximum commission rate",
        "params": {
          "newMaxCommissionRate": "The new maximum commission rate"
        }
      },
      "updateSigningWallet(address)": {
        "details": "Update the signing wallet",
        "params": {
          "newSigningWallet": "The new address of the signing wallet"
        }
      },
      "withdrawAssets(address,uint256[],uint256[])": {
        "params": {
          "assetIds": "the assetIds to be transferred",
          "to": "intended recipient of the asset tokens",
          "values": "the quantities of the assetIds to be transferred"
        }
      }
    },
    "title": "Estate Sale contract with referral"
  },
  "userdoc": {
    "methods": {
      "buyLandWithSand(address,address,address,uint256,uint256,uint256,uint256,uint256,bytes32,uint256[],bytes32[],bytes)": {
        "notice": "buy Land with SAND using the merkle proof associated with it"
      },
      "getExpiryTime()": {
        "notice": "Gets the expiry time for the current sale"
      },
      "getMaxCommisionRate()": {
        "notice": "the max commision rate"
      },
      "getMerkleRoot()": {
        "notice": "Gets the Merkle root associated with the current sale"
      },
      "isReferralValid(bytes,address,address,uint256,uint256)": {
        "notice": "Check if a referral is valid"
      },
      "setReceivingWallet(address)": {
        "notice": "set the wallet receiving the proceeds"
      },
      "withdrawAssets(address,uint256[],uint256[])": {
        "notice": "enable Admin to withdraw remaining assets from EstateSaleWithFee contract"
      }
    },
    "notice": "This contract manages the sale of our lands as Estates"
  },
  "storageLayout": {
    "storage": [
      {
        "astId": 12779,
        "contract": "src/solc_0.6/EstateSale/EstateSaleWithFee.sol:EstateSaleWithFee",
        "label": "_admin",
        "offset": 0,
        "slot": "0",
        "type": "t_address"
      },
      {
        "astId": 12841,
        "contract": "src/solc_0.6/EstateSale/EstateSaleWithFee.sol:EstateSaleWithFee",
        "label": "_metaTransactionContracts",
        "offset": 0,
        "slot": "1",
        "type": "t_mapping(t_address,t_bool)"
      },
      {
        "astId": 10957,
        "contract": "src/solc_0.6/EstateSale/EstateSaleWithFee.sol:EstateSaleWithFee",
        "label": "_signingWallet",
        "offset": 0,
        "slot": "2",
        "type": "t_address"
      },
      {
        "astId": 10959,
        "contract": "src/solc_0.6/EstateSale/EstateSaleWithFee.sol:EstateSaleWithFee",
        "label": "_maxCommissionRate",
        "offset": 0,
        "slot": "3",
        "type": "t_uint256"
      },
      {
        "astId": 10963,
        "contract": "src/solc_0.6/EstateSale/EstateSaleWithFee.sol:EstateSaleWithFee",
        "label": "_previousSigningWallets",
        "offset": 0,
        "slot": "4",
        "type": "t_mapping(t_address,t_uint256)"
      },
      {
        "astId": 10972,
        "contract": "src/solc_0.6/EstateSale/EstateSaleWithFee.sol:EstateSaleWithFee",
        "label": "_previousSigningDelay",
        "offset": 0,
        "slot": "5",
        "type": "t_uint256"
      },
      {
        "astId": 7344,
        "contract": "src/solc_0.6/EstateSale/EstateSaleWithFee.sol:EstateSaleWithFee",
        "label": "_wallet",
        "offset": 0,
        "slot": "6",
        "type": "t_address_payable"
      },
      {
        "astId": 7354,
        "contract": "src/solc_0.6/EstateSale/EstateSaleWithFee.sol:EstateSaleWithFee",
        "label": "_multiplier",
        "offset": 0,
        "slot": "7",
        "type": "t_uint256"
      }
    ],
    "types": {
      "t_address": {
        "encoding": "inplace",
        "label": "address",
        "numberOfBytes": "20"
      },
      "t_address_payable": {
        "encoding": "inplace",
        "label": "address payable",
        "numberOfBytes": "20"
      },
      "t_bool": {
        "encoding": "inplace",
        "label": "bool",
        "numberOfBytes": "1"
      },
      "t_mapping(t_address,t_bool)": {
        "encoding": "mapping",
        "key": "t_address",
        "label": "mapping(address => bool)",
        "numberOfBytes": "32",
        "value": "t_bool"
      },
      "t_mapping(t_address,t_uint256)": {
        "encoding": "mapping",
        "key": "t_address",
        "label": "mapping(address => uint256)",
        "numberOfBytes": "32",
        "value": "t_uint256"
      },
      "t_uint256": {
        "encoding": "inplace",
        "label": "uint256",
        "numberOfBytes": "32"
      }
    }
  }
}