{
  "address": "0xc52bd4196A0f1BFCad080dcB1b821e1B050936Be",
  "abi": [
    {
      "inputs": [
        {
          "internalType": "address",
          "name": "landAddress",
          "type": "address"
        },
        {
          "internalType": "address",
          "name": "sandContractAddress",
          "type": "address"
        },
        {
          "internalType": "address",
          "name": "initialMetaTx",
          "type": "address"
        },
        {
          "internalType": "address",
          "name": "admin",
          "type": "address"
        },
        {
          "internalType": "address payable",
          "name": "initialWalletAddress",
          "type": "address"
        },
        {
          "internalType": "bytes32",
          "name": "merkleRoot",
          "type": "bytes32"
        },
        {
          "internalType": "uint256",
          "name": "expiryTime",
          "type": "uint256"
        },
        {
          "internalType": "address",
          "name": "initialSigningWallet",
          "type": "address"
        },
        {
          "internalType": "uint256",
          "name": "initialMaxCommissionRate",
          "type": "uint256"
        },
        {
          "internalType": "address",
          "name": "estate",
          "type": "address"
        },
        {
          "internalType": "address",
          "name": "asset",
          "type": "address"
        },
        {
          "internalType": "address",
          "name": "feeDistributor",
          "type": "address"
        }
      ],
      "stateMutability": "nonpayable",
      "type": "constructor"
    },
    {
      "anonymous": false,
      "inputs": [
        {
          "indexed": false,
          "internalType": "address",
          "name": "oldAdmin",
          "type": "address"
        },
        {
          "indexed": false,
          "internalType": "address",
          "name": "newAdmin",
          "type": "address"
        }
      ],
      "name": "AdminChanged",
      "type": "event"
    },
    {
      "anonymous": false,
      "inputs": [
        {
          "indexed": true,
          "internalType": "address",
          "name": "buyer",
          "type": "address"
        },
        {
          "indexed": true,
          "internalType": "address",
          "name": "to",
          "type": "address"
        },
        {
          "indexed": true,
          "internalType": "uint256",
          "name": "topCornerId",
          "type": "uint256"
        },
        {
          "indexed": false,
          "internalType": "uint256",
          "name": "size",
          "type": "uint256"
        },
        {
          "indexed": false,
          "internalType": "uint256",
          "name": "price",
          "type": "uint256"
        },
        {
          "indexed": false,
          "internalType": "address",
          "name": "token",
          "type": "address"
        },
        {
          "indexed": false,
          "internalType": "uint256",
          "name": "amountPaid",
          "type": "uint256"
        }
      ],
      "name": "LandQuadPurchased",
      "type": "event"
    },
    {
      "anonymous": false,
      "inputs": [
        {
          "indexed": false,
          "internalType": "address",
          "name": "metaTransactionProcessor",
          "type": "address"
        },
        {
          "indexed": false,
          "internalType": "bool",
          "name": "enabled",
          "type": "bool"
        }
      ],
      "name": "MetaTransactionProcessor",
      "type": "event"
    },
    {
      "anonymous": false,
      "inputs": [
        {
          "indexed": true,
          "internalType": "address",
          "name": "referrer",
          "type": "address"
        },
        {
          "indexed": true,
          "internalType": "address",
          "name": "referee",
          "type": "address"
        },
        {
          "indexed": true,
          "internalType": "address",
          "name": "token",
          "type": "address"
        },
        {
          "indexed": false,
          "internalType": "uint256",
          "name": "amount",
          "type": "uint256"
        },
        {
          "indexed": false,
          "internalType": "uint256",
          "name": "commission",
          "type": "uint256"
        },
        {
          "indexed": false,
          "internalType": "uint256",
          "name": "commissionRate",
          "type": "uint256"
        }
      ],
      "name": "ReferralUsed",
      "type": "event"
    },
    {
      "inputs": [
        {
          "internalType": "address",
          "name": "buyer",
          "type": "address"
        },
        {
          "internalType": "address",
          "name": "to",
          "type": "address"
        },
        {
          "internalType": "address",
          "name": "reserved",
          "type": "address"
        },
        {
          "internalType": "uint256",
          "name": "x",
          "type": "uint256"
        },
        {
          "internalType": "uint256",
          "name": "y",
          "type": "uint256"
        },
        {
          "internalType": "uint256",
          "name": "size",
          "type": "uint256"
        },
        {
          "internalType": "uint256",
          "name": "priceInSand",
          "type": "uint256"
        },
        {
          "internalType": "uint256",
          "name": "adjustedPriceInSand",
          "type": "uint256"
        },
        {
          "internalType": "bytes32",
          "name": "salt",
          "type": "bytes32"
        },
        {
          "internalType": "uint256[]",
          "name": "assetIds",
          "type": "uint256[]"
        },
        {
          "internalType": "bytes32[]",
          "name": "proof",
          "type": "bytes32[]"
        },
        {
          "internalType": "bytes",
          "name": "referral",
          "type": "bytes"
        }
      ],
      "name": "buyLandWithSand",
      "outputs": [],
      "stateMutability": "nonpayable",
      "type": "function"
    },
    {
      "inputs": [
        {
          "internalType": "address",
          "name": "newAdmin",
          "type": "address"
        }
      ],
      "name": "changeAdmin",
      "outputs": [],
      "stateMutability": "nonpayable",
      "type": "function"
    },
    {
      "inputs": [
        {
          "internalType": "bytes",
          "name": "referral",
          "type": "bytes"
        }
      ],
      "name": "decodeReferral",
      "outputs": [
        {
          "internalType": "bytes",
          "name": "",
          "type": "bytes"
        },
        {
          "internalType": "address",
          "name": "",
          "type": "address"
        },
        {
          "internalType": "address",
          "name": "",
          "type": "address"
        },
        {
          "internalType": "uint256",
          "name": "",
          "type": "uint256"
        },
        {
          "internalType": "uint256",
          "name": "",
          "type": "uint256"
        }
      ],
      "stateMutability": "pure",
      "type": "function"
    },
    {
      "inputs": [],
      "name": "getAdmin",
      "outputs": [
        {
          "internalType": "address",
          "name": "",
          "type": "address"
        }
      ],
      "stateMutability": "view",
      "type": "function"
    },
    {
      "inputs": [],
      "name": "getExpiryTime",
      "outputs": [
        {
          "internalType": "uint256",
          "name": "",
          "type": "uint256"
        }
      ],
      "stateMutability": "view",
      "type": "function"
    },
    {
      "inputs": [],
      "name": "getMaxCommisionRate",
      "outputs": [
        {
          "internalType": "uint256",
          "name": "",
          "type": "uint256"
        }
      ],
      "stateMutability": "view",
      "type": "function"
    },
    {
      "inputs": [],
      "name": "getMerkleRoot",
      "outputs": [
        {
          "internalType": "bytes32",
          "name": "",
          "type": "bytes32"
        }
      ],
      "stateMutability": "view",
      "type": "function"
    },
    {
      "inputs": [],
      "name": "getSandMultiplier",
      "outputs": [
        {
          "internalType": "uint256",
          "name": "",
          "type": "uint256"
        }
      ],
      "stateMutability": "view",
      "type": "function"
    },
    {
      "inputs": [],
      "name": "getSigningWallet",
      "outputs": [
        {
          "internalType": "address",
          "name": "",
          "type": "address"
        }
      ],
      "stateMutability": "view",
      "type": "function"
    },
    {
      "inputs": [
        {
          "internalType": "address",
          "name": "who",
          "type": "address"
        }
      ],
      "name": "isMetaTransactionProcessor",
      "outputs": [
        {
          "internalType": "bool",
          "name": "",
          "type": "bool"
        }
      ],
      "stateMutability": "view",
      "type": "function"
    },
    {
      "inputs": [
        {
          "internalType": "bytes",
          "name": "signature",
          "type": "bytes"
        },
        {
          "internalType": "address",
          "name": "referrer",
          "type": "address"
        },
        {
          "internalType": "address",
          "name": "referee",
          "type": "address"
        },
        {
          "internalType": "uint256",
          "name": "expiryTime",
          "type": "uint256"
        },
        {
          "internalType": "uint256",
          "name": "commissionRate",
          "type": "uint256"
        }
      ],
      "name": "isReferralValid",
      "outputs": [
        {
          "internalType": "bool",
          "name": "",
          "type": "bool"
        }
      ],
      "stateMutability": "view",
      "type": "function"
    },
    {
      "inputs": [
        {
          "internalType": "address",
          "name": "",
          "type": "address"
        },
        {
          "internalType": "address",
          "name": "",
          "type": "address"
        },
        {
          "internalType": "uint256[]",
          "name": "",
          "type": "uint256[]"
        },
        {
          "internalType": "uint256[]",
          "name": "",
          "type": "uint256[]"
        },
        {
          "internalType": "bytes",
          "name": "",
          "type": "bytes"
        }
      ],
      "name": "onERC1155BatchReceived",
      "outputs": [
        {
          "internalType": "bytes4",
          "name": "",
          "type": "bytes4"
        }
      ],
      "stateMutability": "pure",
      "type": "function"
    },
    {
      "inputs": [
        {
          "internalType": "address",
          "name": "",
          "type": "address"
        },
        {
          "internalType": "address",
          "name": "",
          "type": "address"
        },
        {
          "internalType": "uint256",
          "name": "",
          "type": "uint256"
        },
        {
          "internalType": "uint256",
          "name": "",
          "type": "uint256"
        },
        {
          "internalType": "bytes",
          "name": "",
          "type": "bytes"
        }
      ],
      "name": "onERC1155Received",
      "outputs": [
        {
          "internalType": "bytes4",
          "name": "",
          "type": "bytes4"
        }
      ],
      "stateMutability": "pure",
      "type": "function"
    },
    {
      "inputs": [
        {
          "internalType": "uint256",
          "name": "newMultiplier",
          "type": "uint256"
        }
      ],
      "name": "rebalanceSand",
      "outputs": [],
      "stateMutability": "nonpayable",
      "type": "function"
    },
    {
      "inputs": [
        {
          "internalType": "address",
          "name": "metaTransactionProcessor",
          "type": "address"
        },
        {
          "internalType": "bool",
          "name": "enabled",
          "type": "bool"
        }
      ],
      "name": "setMetaTransactionProcessor",
      "outputs": [],
      "stateMutability": "nonpayable",
      "type": "function"
    },
    {
      "inputs": [
        {
          "internalType": "address payable",
          "name": "newWallet",
          "type": "address"
        }
      ],
      "name": "setReceivingWallet",
      "outputs": [],
      "stateMutability": "nonpayable",
      "type": "function"
    },
    {
      "inputs": [
        {
          "internalType": "uint256",
          "name": "newMaxCommissionRate",
          "type": "uint256"
        }
      ],
      "name": "updateMaxCommissionRate",
      "outputs": [],
      "stateMutability": "nonpayable",
      "type": "function"
    },
    {
      "inputs": [
        {
          "internalType": "address",
          "name": "newSigningWallet",
          "type": "address"
        }
      ],
      "name": "updateSigningWallet",
      "outputs": [],
      "stateMutability": "nonpayable",
      "type": "function"
    },
    {
      "inputs": [
        {
          "internalType": "address",
          "name": "to",
          "type": "address"
        },
        {
          "internalType": "uint256[]",
          "name": "assetIds",
          "type": "uint256[]"
        },
        {
          "internalType": "uint256[]",
          "name": "values",
          "type": "uint256[]"
        }
      ],
      "name": "withdrawAssets",
      "outputs": [],
      "stateMutability": "nonpayable",
      "type": "function"
    }
  ],
  "transactionHash": "0x69d373190ea81b361b5b5ab392a7c847d37826a8a7f0cdd5346a906ecbe36e97",
  "args": [
    "0xe6E355cc64B67C514e1596719b872ba12A99dA83",
    "0x156eA95C83dF7c5E862b93623c004Ed318C9D69e",
    "0x156eA95C83dF7c5E862b93623c004Ed318C9D69e",
    "0xa4519D601F43D0b8f167842a367465681F652252",
    "0x60927eB036621b801491B6c5e9A60A8d2dEeD75A",
    "0xb76001f4fd6b8f8f9335748361f12f68b87e2f963f1b2ffbc1f7db4241d57412",
    1645102800,
    "0xB7060D3FeCAC3AE1F0A0AA416E3e8E472257950e",
    2000,
    "0x0000000000000000000000000000000000000000",
    "0xCA0e265A6A5bFD6c7952D993AB8Ef62BAa7A4b8a",
    "0x0977f5050c8158b277F93216f851e83a467ED9c9"
  ],
  "linkedData": [
    {
      "x": 404,
      "y": 325,
      "size": 1,
      "price": "1011000000000000000000",
      "reserved": "0x7a9fe22691c811ea339d9b73150e6911a5343dca",
      "salt": "0xaede4f9955daa72d1352fe4f9dfa35a25057d8493abc68a86c50f1b1acbb48f3",
      "assetIds": []
    },
    {
      "x": 402,
      "y": 319,
      "size": 1,
      "price": "1011000000000000000000",
      "reserved": "0x7a9fe22691c811ea339d9b73150e6911a5343dca",
      "salt": "0x053cda7162f3e5af120ee203cd62ead2fb6752aebe8917490b42ac4e052a8ebe",
      "assetIds": []
    },
    {
      "x": 398,
      "y": 320,
      "size": 1,
      "price": "1011000000000000000000",
      "reserved": "0x7a9fe22691c811ea339d9b73150e6911a5343dca",
      "salt": "0x369e490edf0b9edecc844a4a2747a2636ee0a84712375fae079522de202bb125",
      "assetIds": []
    },
    {
      "x": 391,
      "y": 321,
      "size": 1,
      "price": "1011000000000000000000",
      "reserved": "0x7a9fe22691c811ea339d9b73150e6911a5343dca",
      "salt": "0x322fe0fb4c29d5cefe171a1926e1a02d04965587b237d7994f434cb3e2668ec3",
      "assetIds": []
    },
    {
      "x": 387,
      "y": 314,
      "size": 1,
      "price": "1011000000000000000000",
      "reserved": "0x7a9fe22691c811ea339d9b73150e6911a5343dca",
      "salt": "0xf76bb71ada9f9a72161d53f4aff3dc7bc00bcb5c29e0d49352eef109b6127cf3",
      "assetIds": []
    },
    {
      "x": 390,
      "y": 313,
      "size": 1,
      "price": "1011000000000000000000",
      "reserved": "0x7a9fe22691c811ea339d9b73150e6911a5343dca",
      "salt": "0x7efe80e51dcbbfc4fe9d2306d0b38dad9ec73c1c5bd76c5512465dacbae992ef",
      "assetIds": []
    },
    {
      "x": 384,
      "y": 307,
      "size": 1,
      "price": "1011000000000000000000",
      "reserved": "0x7a9fe22691c811ea339d9b73150e6911a5343dca",
      "salt": "0x629b911690a3cca5ade9b83d6c41df0d3a2b63aa004a7f11cbc1a2d9b0a92409",
      "assetIds": []
    },
    {
      "x": 406,
      "y": 314,
      "size": 1,
      "price": "1011000000000000000000",
      "reserved": "0x7a9fe22691c811ea339d9b73150e6911a5343dca",
      "salt": "0xf91368bfe5000bca57a2570a8059b5ff9d24d09e6c67d3ef3a1ff0dde4a2c456",
      "assetIds": []
    },
    {
      "x": 406,
      "y": 318,
      "size": 1,
      "price": "1011000000000000000000",
      "reserved": "0x7a9fe22691c811ea339d9b73150e6911a5343dca",
      "salt": "0xe370214895cc99d7b97b226c18a4a2392db5e65e4ba991d71dd5179524b69dab",
      "assetIds": []
    },
    {
      "x": 405,
      "y": 333,
      "size": 1,
      "price": "1011000000000000000000",
      "reserved": "0x7a9fe22691c811ea339d9b73150e6911a5343dca",
      "salt": "0x1ed78332e942ac877cdb143418392aab180d3da6ab378a8310d058b36929b08c",
      "assetIds": []
    },
    {
      "x": 399,
      "y": 334,
      "size": 1,
      "price": "1011000000000000000000",
      "reserved": "0x7a9fe22691c811ea339d9b73150e6911a5343dca",
      "salt": "0xa5d7b9dc0ca6b5a8b976ed5d366b3e8daf40fb188232b056c39cf05abc0adca5",
      "assetIds": []
    },
    {
      "x": 385,
      "y": 340,
      "size": 1,
      "price": "1011000000000000000000",
      "reserved": "0x7a9fe22691c811ea339d9b73150e6911a5343dca",
      "salt": "0xf185ce9d89f54375c534709d82671567aa63058697fcef92f2362bf9b0ccb169",
      "assetIds": []
    },
    {
      "x": 389,
      "y": 343,
      "size": 1,
      "price": "1011000000000000000000",
      "reserved": "0x7a9fe22691c811ea339d9b73150e6911a5343dca",
      "salt": "0x00e66e34c501630d4e42b59a89738e838d8f52c30a3c1bad3f4d2ba8430a79f1",
      "assetIds": []
    },
    {
      "x": 391,
      "y": 342,
      "size": 1,
      "price": "1011000000000000000000",
      "reserved": "0x7a9fe22691c811ea339d9b73150e6911a5343dca",
      "salt": "0xf08a69dd83ff1a686eb4159e856465f4b93472dd669a572c47be78a21af5bcc5",
      "assetIds": []
    },
    {
      "x": 391,
      "y": 344,
      "size": 1,
      "price": "1011000000000000000000",
      "reserved": "0x7a9fe22691c811ea339d9b73150e6911a5343dca",
      "salt": "0xa39e6ef4e11b1ea5a7d6c3635c1435ee64ccc484cf3210e3b7126b91fdb6c217",
      "assetIds": []
    },
    {
      "x": 391,
      "y": 343,
      "size": 1,
      "price": "1011000000000000000000",
      "reserved": "0x7a9fe22691c811ea339d9b73150e6911a5343dca",
      "salt": "0x6d69379758996b62f9685562b9304f7b9d0a880cd4084989cc7e81b7839deaa7",
      "assetIds": []
    },
    {
      "x": 394,
      "y": 342,
      "size": 1,
      "price": "1011000000000000000000",
      "reserved": "0x7a9fe22691c811ea339d9b73150e6911a5343dca",
      "salt": "0xb04f24f5c5edfbcdee298e0d4a3aa8f68be6c1a7c027b1d7c49b2414230a67b1",
      "assetIds": []
    },
    {
      "x": 386,
      "y": 345,
      "size": 1,
      "price": "1011000000000000000000",
      "reserved": "0x7a9fe22691c811ea339d9b73150e6911a5343dca",
      "salt": "0x604b563a7a929291975705d08d96e3e2938776cba7b954d63cb800a16009e660",
      "assetIds": []
    },
    {
      "x": 385,
      "y": 345,
      "size": 1,
      "price": "1011000000000000000000",
      "reserved": "0x7a9fe22691c811ea339d9b73150e6911a5343dca",
      "salt": "0x2ec5cb104b928f9936c252d0c91f03ad03517d63fa466a721ff7612bc0c928ee",
      "assetIds": []
    },
    {
      "x": 388,
      "y": 346,
      "size": 1,
      "price": "1011000000000000000000",
      "reserved": "0x7a9fe22691c811ea339d9b73150e6911a5343dca",
      "salt": "0x28bf985b228964022e8a29f1f8da6b7ca3387ed871f4d38fa6f62f2bb1e0c255",
      "assetIds": []
    },
    {
      "x": 380,
      "y": 345,
      "size": 1,
      "price": "1011000000000000000000",
      "reserved": "0x7a9fe22691c811ea339d9b73150e6911a5343dca",
      "salt": "0xb15744fd5b82d2d42360fa863d41e980daf7342c2cc4efbfbabba712c56df8b3",
      "assetIds": []
    },
    {
      "x": 380,
      "y": 349,
      "size": 1,
      "price": "1011000000000000000000",
      "reserved": "0x7a9fe22691c811ea339d9b73150e6911a5343dca",
      "salt": "0xd5b8e32f4aebe9f9272baaf40de74e49beccca7262a1e3b180ea02fe90876879",
      "assetIds": []
    },
    {
      "x": 382,
      "y": 352,
      "size": 1,
      "price": "1011000000000000000000",
      "reserved": "0x7a9fe22691c811ea339d9b73150e6911a5343dca",
      "salt": "0x0ce122837d03987f28bcb3ae42020bfd3fa8949eb2ef423e3f8068aeba344d0d",
      "assetIds": []
    },
    {
      "x": 376,
      "y": 340,
      "size": 1,
      "price": "1011000000000000000000",
      "reserved": "0x7a9fe22691c811ea339d9b73150e6911a5343dca",
      "salt": "0x80a44dc0b61161acb47c96b7373aedc45c9630e7c13eed4d9a266dae9ab6da55",
      "assetIds": []
    },
    {
      "x": 372,
      "y": 338,
      "size": 1,
      "price": "1011000000000000000000",
      "reserved": "0x7a9fe22691c811ea339d9b73150e6911a5343dca",
      "salt": "0xf1a23940936236b6b4a6e9bd7ddbd76fb255836effc0f3d9c72e12bf67f2c6d6",
      "assetIds": []
    },
    {
      "x": 395,
      "y": 347,
      "size": 1,
      "price": "1011000000000000000000",
      "reserved": "0x7a9fe22691c811ea339d9b73150e6911a5343dca",
      "salt": "0x192cf483532c8e515dbea804201ec086c4c3808601c8a0a928a61857c43b0d22",
      "assetIds": []
    },
    {
      "x": 397,
      "y": 348,
      "size": 1,
      "price": "1011000000000000000000",
      "reserved": "0x7a9fe22691c811ea339d9b73150e6911a5343dca",
      "salt": "0x994e3a8ad77224fa9f6b84a2c1ca311765c2521d375de2e0f9787f9e66d90f7a",
      "assetIds": []
    },
    {
      "x": 391,
      "y": 349,
      "size": 1,
      "price": "1011000000000000000000",
      "reserved": "0x7a9fe22691c811ea339d9b73150e6911a5343dca",
      "salt": "0x105dd1a1ad9bab18053c670dc3154c104b6bb8259bfdc4fdd8a1a1a8e1cb1c98",
      "assetIds": []
    },
    {
      "x": 393,
      "y": 353,
      "size": 1,
      "price": "1011000000000000000000",
      "reserved": "0x7a9fe22691c811ea339d9b73150e6911a5343dca",
      "salt": "0x707598b73e087ffc7e663ea3cf046d88a9fab1f95f2ec14e8a4a79a576194bb7",
      "assetIds": []
    },
    {
      "x": 397,
      "y": 355,
      "size": 1,
      "price": "1011000000000000000000",
      "reserved": "0x7a9fe22691c811ea339d9b73150e6911a5343dca",
      "salt": "0xfc1b8463c5727db89184fa31489cf7e5260c66514991da7b0aae767e51e33ab6",
      "assetIds": []
    },
    {
      "x": 400,
      "y": 352,
      "size": 1,
      "price": "1011000000000000000000",
      "reserved": "0x7a9fe22691c811ea339d9b73150e6911a5343dca",
      "salt": "0x36298eee31b95e6b734cbe87df0eea3440d942aee12e5435ec7049ae6308e747",
      "assetIds": []
    },
    {
      "x": 402,
      "y": 352,
      "size": 1,
      "price": "1011000000000000000000",
      "reserved": "0x7a9fe22691c811ea339d9b73150e6911a5343dca",
      "salt": "0xb1e01a5d229409028d6d681479fe2e3a0f50790a2db4a7ca9388b252f9f55405",
      "assetIds": []
    },
    {
      "x": 403,
      "y": 352,
      "size": 1,
      "price": "1011000000000000000000",
      "reserved": "0x7a9fe22691c811ea339d9b73150e6911a5343dca",
      "salt": "0x909cfb50bcb655550a321ca1c9a76ba19748bcafdc0008c8d735c609b9b816d7",
      "assetIds": []
    },
    {
      "x": 403,
      "y": 351,
      "size": 1,
      "price": "1011000000000000000000",
      "reserved": "0x7a9fe22691c811ea339d9b73150e6911a5343dca",
      "salt": "0xa58e177fa2b8b402aa39e581aec29b4b1ba1284c3a41bbadb5558f891c8213ea",
      "assetIds": []
    },
    {
      "x": 372,
      "y": 351,
      "size": 1,
      "price": "1011000000000000000000",
      "reserved": "0x7a9fe22691c811ea339d9b73150e6911a5343dca",
      "salt": "0x464edc4da91bb6c630e754419355d1c03750d2b51f5608da84cd7e826842ee7c",
      "assetIds": []
    },
    {
      "x": 363,
      "y": 350,
      "size": 1,
      "price": "1011000000000000000000",
      "reserved": "0x7a9fe22691c811ea339d9b73150e6911a5343dca",
      "salt": "0xe4f8055c333812ee844a3ed2a3870e89df7abe4e64d116fa066a5c5a1b0e9ccd",
      "assetIds": []
    },
    {
      "x": 357,
      "y": 353,
      "size": 1,
      "price": "1011000000000000000000",
      "reserved": "0x7a9fe22691c811ea339d9b73150e6911a5343dca",
      "salt": "0x291113a663c6994dac4390601b1429b0e19d2904b70701152d51c90009947449",
      "assetIds": []
    },
    {
      "x": 354,
      "y": 345,
      "size": 1,
      "price": "1011000000000000000000",
      "reserved": "0x7a9fe22691c811ea339d9b73150e6911a5343dca",
      "salt": "0x1aea21b5c20dc0d332f12651e91007c16c00caa1ef6793f89ba7dc7caec23c10",
      "assetIds": []
    },
    {
      "x": 356,
      "y": 344,
      "size": 1,
      "price": "1011000000000000000000",
      "reserved": "0x7a9fe22691c811ea339d9b73150e6911a5343dca",
      "salt": "0x84825de06c85c75d21d97bf0583dba7443f1f30051bcadf571cd03dd62bfae7c",
      "assetIds": []
    },
    {
      "x": 357,
      "y": 339,
      "size": 1,
      "price": "1011000000000000000000",
      "reserved": "0x7a9fe22691c811ea339d9b73150e6911a5343dca",
      "salt": "0x4a208d5928e04d0628f5eb99e01adae488e4fd91756ffcd9ef63599ca7dd0d48",
      "assetIds": []
    },
    {
      "x": 351,
      "y": 314,
      "size": 1,
      "price": "1011000000000000000000",
      "reserved": "0x7a9fe22691c811ea339d9b73150e6911a5343dca",
      "salt": "0xd927145ad89f7aab20cc9a48c6f253ca55028fc5e09623c6bb6a1c12ce1ade06",
      "assetIds": []
    },
    {
      "x": 352,
      "y": 321,
      "size": 1,
      "price": "1011000000000000000000",
      "reserved": "0x7a9fe22691c811ea339d9b73150e6911a5343dca",
      "salt": "0x7700a6a64ac645d1404e32454a4789f975a6d50490d24af8334f0b62c5d9b57c",
      "assetIds": []
    },
    {
      "x": 349,
      "y": 324,
      "size": 1,
      "price": "1011000000000000000000",
      "reserved": "0x7a9fe22691c811ea339d9b73150e6911a5343dca",
      "salt": "0x8590c614c17e312db8cd06d0f46b58072514f5cf3efa9f651b9521a008373bb8",
      "assetIds": []
    },
    {
      "x": 350,
      "y": 330,
      "size": 1,
      "price": "1011000000000000000000",
      "reserved": "0x7a9fe22691c811ea339d9b73150e6911a5343dca",
      "salt": "0x4d407d66d1364fdece9ebfc62fe7931441db39c48e12b86c1c5622150410c5a4",
      "assetIds": []
    },
    {
      "x": 350,
      "y": 331,
      "size": 1,
      "price": "1011000000000000000000",
      "reserved": "0x7a9fe22691c811ea339d9b73150e6911a5343dca",
      "salt": "0xa941083a6c377699bdfae3246d3a1604211a24b551cd33535fc819379b65aee2",
      "assetIds": []
    },
    {
      "x": 353,
      "y": 333,
      "size": 1,
      "price": "1011000000000000000000",
      "reserved": "0x7a9fe22691c811ea339d9b73150e6911a5343dca",
      "salt": "0xedefcc2c1993556fa959b5a1c424fb611dcbf7827878a03b2343f50d709fd8d0",
      "assetIds": []
    },
    {
      "x": 353,
      "y": 334,
      "size": 1,
      "price": "1011000000000000000000",
      "reserved": "0x7a9fe22691c811ea339d9b73150e6911a5343dca",
      "salt": "0xf542b29441d4ca0116471110948ec88ed3294a854c878e3130a4def38662c50c",
      "assetIds": []
    },
    {
      "x": 353,
      "y": 335,
      "size": 1,
      "price": "1011000000000000000000",
      "reserved": "0x7a9fe22691c811ea339d9b73150e6911a5343dca",
      "salt": "0xe4871b764b338338de8308d2725cd003530da2815a0f7396034d711253199920",
      "assetIds": []
    },
    {
      "x": 351,
      "y": 337,
      "size": 1,
      "price": "1011000000000000000000",
      "reserved": "0x7a9fe22691c811ea339d9b73150e6911a5343dca",
      "salt": "0x76fb11cf6f2810d3e6748f84b9b82a46eb4af0d80ae186fb6a2417af06b627f4",
      "assetIds": []
    },
    {
      "x": 356,
      "y": 327,
      "size": 1,
      "price": "1011000000000000000000",
      "reserved": "0x7a9fe22691c811ea339d9b73150e6911a5343dca",
      "salt": "0xdd5a2d5023f886774fe68efec491e791dc7dc90a9e1ee21c344b8006ab9cee66",
      "assetIds": []
    },
    {
      "x": 378,
      "y": 306,
      "size": 1,
      "price": "4683000000000000000000",
      "reserved": "",
      "salt": "0xd6780c8b3fa66c47bc338e1eeffcaf89f983328c2df9ec02edd6873d1576b9b1",
      "assetIds": [
        "41506478881403507969696680653240014914910929820314476107906210059990431967235",
        "41506478881403507969696680653240014914910929820314476107906210059990431967236"
      ]
    },
    {
      "x": 379,
      "y": 306,
      "size": 1,
      "price": "4683000000000000000000",
      "reserved": "",
      "salt": "0xe6712024616ec41c8d040e47d61f02e567649d0a18d3615c4d73370423fd4cc5",
      "assetIds": [
        "41506478881403507969696680653240014914910929820314476107906210059990431967233",
        "41506478881403507969696680653240014914910929820314476107906210059990431967234"
      ]
    },
    {
      "x": 380,
      "y": 306,
      "size": 1,
      "price": "4683000000000000000000",
      "reserved": "",
      "salt": "0xdb0358db8337ca711582261606348bcd328f12e6321260df5ec740e397cc4964",
      "assetIds": [
        "41506478881403507969696680653240014914910929820314476107906210059990431967232",
        "41506478881403507969696680653240014914910929820314476107906210059990431967233"
      ]
    },
    {
      "x": 381,
      "y": 306,
      "size": 1,
      "price": "4683000000000000000000",
      "reserved": "",
      "salt": "0xbb8049b9ed11983e632b10a41ef3544e067f791aa7c303e43c4de9881666a8a4",
      "assetIds": [
        "41506478881403507969696680653240014914910929820314476107906210059990431967235",
        "41506478881403507969696680653240014914910929820314476107906210059990431967236"
      ]
    },
    {
      "x": 382,
      "y": 306,
      "size": 1,
      "price": "4683000000000000000000",
      "reserved": "",
      "salt": "0xa8a9e3d9b1f49fb1852e8bfc37551512697b9604ae5797a9c21800a91a72d760",
      "assetIds": [
        "41506478881403507969696680653240014914910929820314476107906210059990431967232",
        "41506478881403507969696680653240014914910929820314476107906210059990431967233"
      ]
    },
    {
      "x": 383,
      "y": 306,
      "size": 1,
      "price": "4683000000000000000000",
      "reserved": "",
      "salt": "0x088559a6db56d2fba5bc2f1ce4793508c7269bbc6f6daed8d658ab3d1058f176",
      "assetIds": [
        "41506478881403507969696680653240014914910929820314476107906210059990431967235",
        "41506478881403507969696680653240014914910929820314476107906210059990431967236"
      ]
    },
    {
      "x": 384,
      "y": 306,
      "size": 1,
      "price": "4683000000000000000000",
      "reserved": "",
      "salt": "0xacfe416c917149acd3519b6f32fcaa9a6a8c8f548a428a954079d75c0e801673",
      "assetIds": [
        "41506478881403507969696680653240014914910929820314476107906210059990431967234",
        "41506478881403507969696680653240014914910929820314476107906210059990431967235"
      ]
    },
    {
      "x": 385,
      "y": 306,
      "size": 1,
      "price": "4683000000000000000000",
      "reserved": "",
      "salt": "0x7a711a5543efb7e6ec40b89a231f23979bcb20042fe6670c0e8c867a330a165b",
      "assetIds": [
        "41506478881403507969696680653240014914910929820314476107906210059990431967233",
        "41506478881403507969696680653240014914910929820314476107906210059990431967234"
      ]
    },
    {
      "x": 386,
      "y": 306,
      "size": 1,
      "price": "4683000000000000000000",
      "reserved": "",
      "salt": "0xa731b661eb1d248397bacd0a36a73f8384e9ca4ce42524c2264ad756de51d385",
      "assetIds": [
        "41506478881403507969696680653240014914910929820314476107906210059990431967232",
        "41506478881403507969696680653240014914910929820314476107906210059990431967233"
      ]
    },
    {
      "x": 386,
      "y": 307,
      "size": 1,
      "price": "4683000000000000000000",
      "reserved": "",
      "salt": "0xd05137bf2675e41213a03467e32cad525b28aae064c5af4d4ce87463a9fdf026",
      "assetIds": [
        "41506478881403507969696680653240014914910929820314476107906210059990431967235",
        "41506478881403507969696680653240014914910929820314476107906210059990431967236"
      ]
    },
    {
      "x": 386,
      "y": 308,
      "size": 1,
      "price": "4683000000000000000000",
      "reserved": "",
      "salt": "0x2c082b160acbf9060161c39f9385caf20f4ff8c94190e511112e8e226d920e29",
      "assetIds": [
        "41506478881403507969696680653240014914910929820314476107906210059990431967235",
        "41506478881403507969696680653240014914910929820314476107906210059990431967236"
      ]
    },
    {
      "x": 386,
      "y": 309,
      "size": 1,
      "price": "4683000000000000000000",
      "reserved": "",
      "salt": "0xce226504c9d68edac7c38e8bf247bf3b91efcf6246ef08b51e6a1f60981210ee",
      "assetIds": [
        "41506478881403507969696680653240014914910929820314476107906210059990431967233",
        "41506478881403507969696680653240014914910929820314476107906210059990431967234"
      ]
    },
    {
      "x": 386,
      "y": 310,
      "size": 1,
      "price": "4683000000000000000000",
      "reserved": "",
      "salt": "0x7174f010cfa7971515954a583a2a5b24f2c5dc0ff366e459af7f557f8502eb8c",
      "assetIds": [
        "41506478881403507969696680653240014914910929820314476107906210059990431967235",
        "41506478881403507969696680653240014914910929820314476107906210059990431967236"
      ]
    },
    {
      "x": 386,
      "y": 311,
      "size": 1,
      "price": "4683000000000000000000",
      "reserved": "",
      "salt": "0xec81c9071f95d91f11dbd73cc3c986374b6913faf5faf545faba8ff75d764bef",
      "assetIds": [
        "41506478881403507969696680653240014914910929820314476107906210059990431967232",
        "41506478881403507969696680653240014914910929820314476107906210059990431967233"
      ]
    },
    {
      "x": 386,
      "y": 312,
      "size": 1,
      "price": "4683000000000000000000",
      "reserved": "",
      "salt": "0x0807681db75565d911e21074e7e7e4dd6e5ff7d33e6d6533dff40ff69421315a",
      "assetIds": [
        "41506478881403507969696680653240014914910929820314476107906210059990431967235",
        "41506478881403507969696680653240014914910929820314476107906210059990431967236"
      ]
    },
    {
      "x": 387,
      "y": 312,
      "size": 1,
      "price": "4683000000000000000000",
      "reserved": "",
      "salt": "0x2f8b2a7de9efc08f84560865fa682628e2c1b7b0e8116df1188474af4ca07c33",
      "assetIds": [
        "41506478881403507969696680653240014914910929820314476107906210059990431967234",
        "41506478881403507969696680653240014914910929820314476107906210059990431967235"
      ]
    },
    {
      "x": 388,
      "y": 312,
      "size": 1,
      "price": "4683000000000000000000",
      "reserved": "",
      "salt": "0xaffe262b89276ac63114b7a0e76ae26504a5d573f0a07f5f651189e8f8c670e2",
      "assetIds": [
        "41506478881403507969696680653240014914910929820314476107906210059990431967234",
        "41506478881403507969696680653240014914910929820314476107906210059990431967235"
      ]
    },
    {
      "x": 389,
      "y": 312,
      "size": 1,
      "price": "4683000000000000000000",
      "reserved": "",
      "salt": "0x81f73c8e986053bc60fa012e778981fec1248472ce4aac9986c4c7f7616dbbba",
      "assetIds": [
        "41506478881403507969696680653240014914910929820314476107906210059990431967235",
        "41506478881403507969696680653240014914910929820314476107906210059990431967236"
      ]
    },
    {
      "x": 390,
      "y": 312,
      "size": 1,
      "price": "4683000000000000000000",
      "reserved": "",
      "salt": "0x7fe95ad0d0e3d9edf0ff645309ba2fbe90f30e74dca3abfe6590873e363200c8",
      "assetIds": [
        "41506478881403507969696680653240014914910929820314476107906210059990431967233",
        "41506478881403507969696680653240014914910929820314476107906210059990431967234"
      ]
    },
    {
      "x": 391,
      "y": 312,
      "size": 1,
      "price": "4683000000000000000000",
      "reserved": "",
      "salt": "0x8dd2786cc385d8295cc9f694568308c0cdef542a165e068cc8c0fe1ad87b6827",
      "assetIds": [
        "41506478881403507969696680653240014914910929820314476107906210059990431967234",
        "41506478881403507969696680653240014914910929820314476107906210059990431967235"
      ]
    },
    {
      "x": 392,
      "y": 312,
      "size": 1,
      "price": "4683000000000000000000",
      "reserved": "",
      "salt": "0x202a8835f95a806a798d29a2de62728a6bc89f575f7a5e8b852141899ba15c6d",
      "assetIds": [
        "41506478881403507969696680653240014914910929820314476107906210059990431967232",
        "41506478881403507969696680653240014914910929820314476107906210059990431967233"
      ]
    },
    {
      "x": 392,
      "y": 313,
      "size": 1,
      "price": "4683000000000000000000",
      "reserved": "",
      "salt": "0xcb89e663863fc036862144cd0d67ad3a0ec8bedd4cb9670d2afe48f830ee0030",
      "assetIds": [
        "41506478881403507969696680653240014914910929820314476107906210059990431967235",
        "41506478881403507969696680653240014914910929820314476107906210059990431967236"
      ]
    },
    {
      "x": 393,
      "y": 313,
      "size": 1,
      "price": "4683000000000000000000",
      "reserved": "",
      "salt": "0x2e94ee8adcc98404f07d6774c124460e1e22cb929be245f3689ac141f1e88735",
      "assetIds": [
        "41506478881403507969696680653240014914910929820314476107906210059990431967235",
        "41506478881403507969696680653240014914910929820314476107906210059990431967236"
      ]
    },
    {
      "x": 394,
      "y": 313,
      "size": 1,
      "price": "4683000000000000000000",
      "reserved": "",
      "salt": "0xd307f510301d9ec8bec6f27c6026b6f6f5bca03293cd15c723388b53485b4d41",
      "assetIds": [
        "41506478881403507969696680653240014914910929820314476107906210059990431967232",
        "41506478881403507969696680653240014914910929820314476107906210059990431967233"
      ]
    },
    {
      "x": 395,
      "y": 313,
      "size": 1,
      "price": "4683000000000000000000",
      "reserved": "",
      "salt": "0xd1712ef677a54df8c22789aae8ed6b2a0e127070204f9ac7555a97bb4361080d",
      "assetIds": [
        "41506478881403507969696680653240014914910929820314476107906210059990431967235",
        "41506478881403507969696680653240014914910929820314476107906210059990431967236"
      ]
    },
    {
      "x": 395,
      "y": 312,
      "size": 1,
      "price": "4683000000000000000000",
      "reserved": "",
      "salt": "0x79b40248999e5c4a47c15b641df7245504e4b8d88ac367c0241cfb28605543ce",
      "assetIds": [
        "41506478881403507969696680653240014914910929820314476107906210059990431967235",
        "41506478881403507969696680653240014914910929820314476107906210059990431967236"
      ]
    },
    {
      "x": 394,
      "y": 312,
      "size": 1,
      "price": "4683000000000000000000",
      "reserved": "",
      "salt": "0x0c4ccb7918888870a3d1cfc48ef4607a920d65ed44685713444886d4a3ba9a14",
      "assetIds": [
        "41506478881403507969696680653240014914910929820314476107906210059990431967233",
        "41506478881403507969696680653240014914910929820314476107906210059990431967234"
      ]
    },
    {
      "x": 393,
      "y": 312,
      "size": 1,
      "price": "4683000000000000000000",
      "reserved": "",
      "salt": "0x209981e99437eb07c72c623d2f019a31e8f14ab86647aaa26b6a3ecc47c89e90",
      "assetIds": [
        "41506478881403507969696680653240014914910929820314476107906210059990431967235",
        "41506478881403507969696680653240014914910929820314476107906210059990431967236"
      ]
    },
    {
      "x": 371,
      "y": 306,
      "size": 1,
      "price": "4683000000000000000000",
      "reserved": "",
      "salt": "0x2b33f4b40a11ee89e63df4f961bf223ab2d77975ad0b0f7f0f0f2dbd8d96b024",
      "assetIds": [
        "41506478881403507969696680653240014914910929820314476107906210059990431967234",
        "41506478881403507969696680653240014914910929820314476107906210059990431967235"
      ]
    },
    {
      "x": 370,
      "y": 306,
      "size": 1,
      "price": "4683000000000000000000",
      "reserved": "",
      "salt": "0x219f820fa023e120fcb5065ed3d3e87fd59c047e7544788f3b2b2804f3bbc0e1",
      "assetIds": [
        "41506478881403507969696680653240014914910929820314476107906210059990431967234",
        "41506478881403507969696680653240014914910929820314476107906210059990431967235"
      ]
    },
    {
      "x": 369,
      "y": 306,
      "size": 1,
      "price": "4683000000000000000000",
      "reserved": "",
      "salt": "0x4c4d64db374a58152a15f2fa4864baa5d6c9612f2773d722f69797fadb223802",
      "assetIds": [
        "41506478881403507969696680653240014914910929820314476107906210059990431967233",
        "41506478881403507969696680653240014914910929820314476107906210059990431967234"
      ]
    },
    {
      "x": 369,
      "y": 307,
      "size": 1,
      "price": "4683000000000000000000",
      "reserved": "",
      "salt": "0x2c4a9d0800c8e070ff54b0fdeb1e8a2ed90805f74fb22524693cb29136ebb1a5",
      "assetIds": [
        "41506478881403507969696680653240014914910929820314476107906210059990431967232",
        "41506478881403507969696680653240014914910929820314476107906210059990431967233"
      ]
    },
    {
      "x": 368,
      "y": 307,
      "size": 1,
      "price": "4683000000000000000000",
      "reserved": "",
      "salt": "0xbb2675e53584a2553c22523339ff07cf282fcb8b091eefb5e21aee5fad810571",
      "assetIds": [
        "41506478881403507969696680653240014914910929820314476107906210059990431967235",
        "41506478881403507969696680653240014914910929820314476107906210059990431967236"
      ]
    },
    {
      "x": 367,
      "y": 307,
      "size": 1,
      "price": "4683000000000000000000",
      "reserved": "",
      "salt": "0x19aacb1325a7f8b0402505cb4bbbf1b5972f0f56256032c321978845a52c8eae",
      "assetIds": [
        "41506478881403507969696680653240014914910929820314476107906210059990431967233",
        "41506478881403507969696680653240014914910929820314476107906210059990431967234"
      ]
    },
    {
      "x": 366,
      "y": 307,
      "size": 1,
      "price": "4683000000000000000000",
      "reserved": "",
      "salt": "0x9a4edeebab4188b0caf53b77506dfac92dca3c18581388f51783cbbaa9a828e5",
      "assetIds": [
        "41506478881403507969696680653240014914910929820314476107906210059990431967232",
        "41506478881403507969696680653240014914910929820314476107906210059990431967233"
      ]
    },
    {
      "x": 366,
      "y": 308,
      "size": 1,
      "price": "4683000000000000000000",
      "reserved": "",
      "salt": "0x244770068b9bac6911c279712012b9b162700e4cec6eb8ebeb047a48f3e7900a",
      "assetIds": [
        "41506478881403507969696680653240014914910929820314476107906210059990431967235",
        "41506478881403507969696680653240014914910929820314476107906210059990431967236"
      ]
    },
    {
      "x": 366,
      "y": 309,
      "size": 1,
      "price": "4683000000000000000000",
      "reserved": "",
      "salt": "0xdeef885128ad28ef13191ecfd477fc5159367be59fdb827d82fd406b85f2ba8a",
      "assetIds": [
        "41506478881403507969696680653240014914910929820314476107906210059990431967233",
        "41506478881403507969696680653240014914910929820314476107906210059990431967234"
      ]
    },
    {
      "x": 365,
      "y": 309,
      "size": 1,
      "price": "4683000000000000000000",
      "reserved": "",
      "salt": "0x9fba83ea0832988003a88bbe3da140c4e0a7cfbb85c7d23f21afaa0219539ebb",
      "assetIds": [
        "41506478881403507969696680653240014914910929820314476107906210059990431967235",
        "41506478881403507969696680653240014914910929820314476107906210059990431967236"
      ]
    },
    {
      "x": 364,
      "y": 309,
      "size": 1,
      "price": "4683000000000000000000",
      "reserved": "",
      "salt": "0x3d4c5a793484b98cd2f31c25898e1d7fdb991a8f4ba0cd1386c933fc9464a342",
      "assetIds": [
        "41506478881403507969696680653240014914910929820314476107906210059990431967235",
        "41506478881403507969696680653240014914910929820314476107906210059990431967236"
      ]
    },
    {
      "x": 364,
      "y": 310,
      "size": 1,
      "price": "4683000000000000000000",
      "reserved": "",
      "salt": "0x042914756148d0ec21d430e2f3e3c3a5b0fea24453e5ab24d897a04e75442c89",
      "assetIds": [
        "41506478881403507969696680653240014914910929820314476107906210059990431967234",
        "41506478881403507969696680653240014914910929820314476107906210059990431967235"
      ]
    },
    {
      "x": 363,
      "y": 310,
      "size": 1,
      "price": "4683000000000000000000",
      "reserved": "",
      "salt": "0x292d3f8319b30ec35520dad2539eac9a30ff74aa067981563ab65de9caa63a6a",
      "assetIds": [
        "41506478881403507969696680653240014914910929820314476107906210059990431967233",
        "41506478881403507969696680653240014914910929820314476107906210059990431967234"
      ]
    },
    {
      "x": 362,
      "y": 310,
      "size": 1,
      "price": "4683000000000000000000",
      "reserved": "",
      "salt": "0xf99d21049d19d4312388708df60d5e4ec1e6d3e1f714d0d9f472486bc66d8a66",
      "assetIds": [
        "41506478881403507969696680653240014914910929820314476107906210059990431967234",
        "41506478881403507969696680653240014914910929820314476107906210059990431967235"
      ]
    },
    {
      "x": 362,
      "y": 309,
      "size": 1,
      "price": "4683000000000000000000",
      "reserved": "",
      "salt": "0x0d71d1246d5c30038f69b5e8b13a11c1ad9d7807f5c2c11c61aaddc259c6ac5f",
      "assetIds": [
        "41506478881403507969696680653240014914910929820314476107906210059990431967232",
        "41506478881403507969696680653240014914910929820314476107906210059990431967233"
      ]
    },
    {
      "x": 361,
      "y": 309,
      "size": 1,
      "price": "4683000000000000000000",
      "reserved": "",
      "salt": "0xa2982d899ef7761ecd2a2e1e9efedbc282ffb8d2ed3a51e2d8adda8806f0bb4b",
      "assetIds": [
        "41506478881403507969696680653240014914910929820314476107906210059990431967233",
        "41506478881403507969696680653240014914910929820314476107906210059990431967234"
      ]
    },
    {
      "x": 360,
      "y": 309,
      "size": 1,
      "price": "4683000000000000000000",
      "reserved": "",
      "salt": "0x8fd6b2b6c3e5f087144d1190079533a34f35ce34fb724961ba6e50b2bfd95fa6",
      "assetIds": [
        "41506478881403507969696680653240014914910929820314476107906210059990431967235",
        "41506478881403507969696680653240014914910929820314476107906210059990431967236"
      ]
    },
    {
      "x": 359,
      "y": 309,
      "size": 1,
      "price": "4683000000000000000000",
      "reserved": "",
      "salt": "0x6560211752d8c90bf75b3ed154bea3ecd3dbc9d5c17045bed7c11f7f8cf32f28",
      "assetIds": [
        "41506478881403507969696680653240014914910929820314476107906210059990431967233",
        "41506478881403507969696680653240014914910929820314476107906210059990431967234"
      ]
    },
    {
      "x": 358,
      "y": 309,
      "size": 1,
      "price": "4683000000000000000000",
      "reserved": "",
      "salt": "0x559725e02a6015c70466fc8ab0f6b70a79e907681fff9a8468dda9b60fb926c2",
      "assetIds": [
        "41506478881403507969696680653240014914910929820314476107906210059990431967234",
        "41506478881403507969696680653240014914910929820314476107906210059990431967235"
      ]
    },
    {
      "x": 358,
      "y": 310,
      "size": 1,
      "price": "4683000000000000000000",
      "reserved": "",
      "salt": "0x676895d5c4aa6ea8d5ce5e9fafd224e1ada665aab615f3324a8a290fabb7d1fe",
      "assetIds": [
        "41506478881403507969696680653240014914910929820314476107906210059990431967234",
        "41506478881403507969696680653240014914910929820314476107906210059990431967235"
      ]
    },
    {
      "x": 357,
      "y": 310,
      "size": 1,
      "price": "4683000000000000000000",
      "reserved": "",
      "salt": "0x39e60accee87220751768724d814cf61205d29b23bc00ef92ff07642844d1eac",
      "assetIds": [
        "41506478881403507969696680653240014914910929820314476107906210059990431967234",
        "41506478881403507969696680653240014914910929820314476107906210059990431967235"
      ]
    },
    {
      "x": 357,
      "y": 311,
      "size": 1,
      "price": "4683000000000000000000",
      "reserved": "",
      "salt": "0xa66fb199e0bb42b8d85b215119a7df8e700a3a487957ca7cb1295626a679aaee",
      "assetIds": [
        "41506478881403507969696680653240014914910929820314476107906210059990431967232",
        "41506478881403507969696680653240014914910929820314476107906210059990431967233"
      ]
    },
    {
      "x": 357,
      "y": 309,
      "size": 1,
      "price": "4683000000000000000000",
      "reserved": "",
      "salt": "0x6a402b993cd2d28ba45607b4c0385d4a3e7f0660f2772e2666b9502428968f04",
      "assetIds": [
        "41506478881403507969696680653240014914910929820314476107906210059990431967233",
        "41506478881403507969696680653240014914910929820314476107906210059990431967234"
      ]
    },
    {
      "x": 363,
      "y": 309,
      "size": 1,
      "price": "4683000000000000000000",
      "reserved": "",
      "salt": "0x1cb8ecc0c8250ea92dec10c50092bbf4fd3b77c92b2a346880bff312641a4557",
      "assetIds": [
        "41506478881403507969696680653240014914910929820314476107906210059990431967233",
        "41506478881403507969696680653240014914910929820314476107906210059990431967234"
      ]
    },
    {
      "x": 359,
      "y": 310,
      "size": 1,
      "price": "4683000000000000000000",
      "reserved": "",
      "salt": "0x15c4c6b396bdd6f93c45697c26ee3412e97cb1dbf51e56327f452e714164ec2b",
      "assetIds": [
        "41506478881403507969696680653240014914910929820314476107906210059990431967235",
        "41506478881403507969696680653240014914910929820314476107906210059990431967236"
      ]
    },
    {
      "x": 360,
      "y": 310,
      "size": 1,
      "price": "4683000000000000000000",
      "reserved": "",
      "salt": "0x1ee52eb14ea3848424c73e77c89e33a029ca69caee8b623e501cc9d8fd30c18a",
      "assetIds": [
        "41506478881403507969696680653240014914910929820314476107906210059990431967233",
        "41506478881403507969696680653240014914910929820314476107906210059990431967234"
      ]
    },
    {
      "x": 361,
      "y": 310,
      "size": 1,
      "price": "4683000000000000000000",
      "reserved": "",
      "salt": "0xeeea5eec5c86bfa27446ea951e1a2093700d963a4580b89bd1757d2ee11cdf36",
      "assetIds": [
        "41506478881403507969696680653240014914910929820314476107906210059990431967232",
        "41506478881403507969696680653240014914910929820314476107906210059990431967233"
      ]
    },
    {
      "x": 358,
      "y": 311,
      "size": 1,
      "price": "4683000000000000000000",
      "reserved": "",
      "salt": "0xf1315639a6a35a61c8d799509a65580d112dc35e394ad7d7b57676cf70a3a352",
      "assetIds": [
        "41506478881403507969696680653240014914910929820314476107906210059990431967232",
        "41506478881403507969696680653240014914910929820314476107906210059990431967233"
      ]
    },
    {
      "x": 359,
      "y": 311,
      "size": 1,
      "price": "4683000000000000000000",
      "reserved": "",
      "salt": "0xf0c73bee413d3169d4116ea42f1fc06d6e4b3dd3d0c6d7ca49834081c5b39fb2",
      "assetIds": [
        "41506478881403507969696680653240014914910929820314476107906210059990431967233",
        "41506478881403507969696680653240014914910929820314476107906210059990431967234"
      ]
    },
    {
      "x": 360,
      "y": 311,
      "size": 1,
      "price": "4683000000000000000000",
      "reserved": "",
      "salt": "0x6dfc977f23774127df8efc54fc9296486aefd7a475892eb9e7409b6360f237d5",
      "assetIds": [
        "41506478881403507969696680653240014914910929820314476107906210059990431967233",
        "41506478881403507969696680653240014914910929820314476107906210059990431967234"
      ]
    },
    {
      "x": 361,
      "y": 311,
      "size": 1,
      "price": "4683000000000000000000",
      "reserved": "",
      "salt": "0x4bea51fda2680c9a149552979c94fd2d2d1ed28e3f690b694ad38cfd54b6400a",
      "assetIds": [
        "41506478881403507969696680653240014914910929820314476107906210059990431967232",
        "41506478881403507969696680653240014914910929820314476107906210059990431967233"
      ]
    },
    {
      "x": 362,
      "y": 311,
      "size": 1,
      "price": "4683000000000000000000",
      "reserved": "",
      "salt": "0xe7f6c5e1065b99850ec90df2ef686e1fc0d6b21ef35c998b6e3446706f87f0d3",
      "assetIds": [
        "41506478881403507969696680653240014914910929820314476107906210059990431967234",
        "41506478881403507969696680653240014914910929820314476107906210059990431967235"
      ]
    },
    {
      "x": 363,
      "y": 311,
      "size": 1,
      "price": "4683000000000000000000",
      "reserved": "",
      "salt": "0x5dcfb4c7739f514cb75ee36b0c1ef38b3bf732609175f06c09fc00d2c72e69d7",
      "assetIds": [
        "41506478881403507969696680653240014914910929820314476107906210059990431967234",
        "41506478881403507969696680653240014914910929820314476107906210059990431967235"
      ]
    },
    {
      "x": 364,
      "y": 311,
      "size": 1,
      "price": "4683000000000000000000",
      "reserved": "",
      "salt": "0x0147164e48294df17968423bf2dc72966f1e62daf83dbaf7c3697d267275014a",
      "assetIds": [
        "41506478881403507969696680653240014914910929820314476107906210059990431967235",
        "41506478881403507969696680653240014914910929820314476107906210059990431967236"
      ]
    },
    {
      "x": 365,
      "y": 311,
      "size": 1,
      "price": "4683000000000000000000",
      "reserved": "",
      "salt": "0x3747cea5108b7ce4e7c7af8584948dfa6482525cf946e45615e9f829ddc3b8a4",
      "assetIds": [
        "41506478881403507969696680653240014914910929820314476107906210059990431967232",
        "41506478881403507969696680653240014914910929820314476107906210059990431967233"
      ]
    },
    {
      "x": 366,
      "y": 311,
      "size": 1,
      "price": "4683000000000000000000",
      "reserved": "",
      "salt": "0x67f5118200ef27272f7fa61a2fbd21a0a9b88588b01dce32c85ab0b9282f5ad5",
      "assetIds": [
        "41506478881403507969696680653240014914910929820314476107906210059990431967233",
        "41506478881403507969696680653240014914910929820314476107906210059990431967234"
      ]
    },
    {
      "x": 367,
      "y": 311,
      "size": 1,
      "price": "4683000000000000000000",
      "reserved": "",
      "salt": "0xc0e9f06d650d79a626f57bcdb99a9aa2961de9a2a916a300e34ab9dcc3bf4fc4",
      "assetIds": [
        "41506478881403507969696680653240014914910929820314476107906210059990431967233",
        "41506478881403507969696680653240014914910929820314476107906210059990431967234"
      ]
    },
    {
      "x": 368,
      "y": 311,
      "size": 1,
      "price": "4683000000000000000000",
      "reserved": "",
      "salt": "0x06549be553afafa19d83ec3386ed10350a5b5185f438a3d5bbc5331bd969104d",
      "assetIds": [
        "41506478881403507969696680653240014914910929820314476107906210059990431967235",
        "41506478881403507969696680653240014914910929820314476107906210059990431967236"
      ]
    },
    {
      "x": 369,
      "y": 311,
      "size": 1,
      "price": "4683000000000000000000",
      "reserved": "",
      "salt": "0x7d8d2f49054ff72b5ace013d69c203bcd3eb2c21f4697fec0d1652ea0cfb6abe",
      "assetIds": [
        "41506478881403507969696680653240014914910929820314476107906210059990431967235",
        "41506478881403507969696680653240014914910929820314476107906210059990431967236"
      ]
    },
    {
      "x": 370,
      "y": 311,
      "size": 1,
      "price": "4683000000000000000000",
      "reserved": "",
      "salt": "0x0b81745d9c5054e6b138aeba7f240dfa529e8c6cc7d9c1ca63228876f219e20a",
      "assetIds": [
        "41506478881403507969696680653240014914910929820314476107906210059990431967235",
        "41506478881403507969696680653240014914910929820314476107906210059990431967236"
      ]
    },
    {
      "x": 371,
      "y": 311,
      "size": 1,
      "price": "4683000000000000000000",
      "reserved": "",
      "salt": "0xc514a48893adcd3a87db06cf6b7247ecd371b0828bd75280df0a0c49b23a1bc7",
      "assetIds": [
        "41506478881403507969696680653240014914910929820314476107906210059990431967234",
        "41506478881403507969696680653240014914910929820314476107906210059990431967235"
      ]
    },
    {
      "x": 371,
      "y": 310,
      "size": 1,
      "price": "4683000000000000000000",
      "reserved": "",
      "salt": "0xd633427d267c0f8a4af115149a1329a8c967669b33affe75e994f662a6c9362e",
      "assetIds": [
        "41506478881403507969696680653240014914910929820314476107906210059990431967234",
        "41506478881403507969696680653240014914910929820314476107906210059990431967235"
      ]
    },
    {
      "x": 371,
      "y": 309,
      "size": 1,
      "price": "4683000000000000000000",
      "reserved": "",
      "salt": "0x30ea8af5116ce2cf66dd90188668ad44d88dc6aaca728d575b56277d4d3c96d7",
      "assetIds": [
        "41506478881403507969696680653240014914910929820314476107906210059990431967232",
        "41506478881403507969696680653240014914910929820314476107906210059990431967233"
      ]
    },
    {
      "x": 371,
      "y": 308,
      "size": 1,
      "price": "4683000000000000000000",
      "reserved": "",
      "salt": "0x1dd88caa61328a004e845a6ff3fd21baa11c2a89de5da3d44896963178f4c4d9",
      "assetIds": [
        "41506478881403507969696680653240014914910929820314476107906210059990431967233",
        "41506478881403507969696680653240014914910929820314476107906210059990431967234"
      ]
    },
    {
      "x": 371,
      "y": 307,
      "size": 1,
      "price": "4683000000000000000000",
      "reserved": "",
      "salt": "0x3d52fbbffa29bfae99358146414e46d0d458abad0e76a927d536b23b2d010916",
      "assetIds": [
        "41506478881403507969696680653240014914910929820314476107906210059990431967232",
        "41506478881403507969696680653240014914910929820314476107906210059990431967233"
      ]
    },
    {
      "x": 370,
      "y": 307,
      "size": 1,
      "price": "4683000000000000000000",
      "reserved": "",
      "salt": "0xbf43862aecd9f24ff80d25d3b771057c3e8f3aa5068193a5522d7e6c28a6d31e",
      "assetIds": [
        "41506478881403507969696680653240014914910929820314476107906210059990431967233",
        "41506478881403507969696680653240014914910929820314476107906210059990431967234"
      ]
    },
    {
      "x": 369,
      "y": 308,
      "size": 1,
      "price": "4683000000000000000000",
      "reserved": "",
      "salt": "0x2a33a3cfcd06acc4388babbe7ec63c44aa6d104c294e61a4b227c3e2c6461321",
      "assetIds": [
        "41506478881403507969696680653240014914910929820314476107906210059990431967232",
        "41506478881403507969696680653240014914910929820314476107906210059990431967233"
      ]
    },
    {
      "x": 369,
      "y": 309,
      "size": 1,
      "price": "4683000000000000000000",
      "reserved": "",
      "salt": "0x9adf5adbb6e2c82e81d6955dea99ed46dcf61e20534a88190d51ceff9b4869c7",
      "assetIds": [
        "41506478881403507969696680653240014914910929820314476107906210059990431967232",
        "41506478881403507969696680653240014914910929820314476107906210059990431967233"
      ]
    },
    {
      "x": 369,
      "y": 310,
      "size": 1,
      "price": "4683000000000000000000",
      "reserved": "",
      "salt": "0xb9e3e6b59a9e007caf8b9d9a6fa28c9d2a03ae441a45e9cb1a3793baeee64ba7",
      "assetIds": [
        "41506478881403507969696680653240014914910929820314476107906210059990431967234",
        "41506478881403507969696680653240014914910929820314476107906210059990431967235"
      ]
    },
    {
      "x": 368,
      "y": 310,
      "size": 1,
      "price": "4683000000000000000000",
      "reserved": "",
      "salt": "0x04d79c9dab983d985917e022889b39619265fe1ba5fb16662cb1fcc599a720ea",
      "assetIds": [
        "41506478881403507969696680653240014914910929820314476107906210059990431967233",
        "41506478881403507969696680653240014914910929820314476107906210059990431967234"
      ]
    },
    {
      "x": 367,
      "y": 310,
      "size": 1,
      "price": "4683000000000000000000",
      "reserved": "",
      "salt": "0x80d36c4d16c66c797f3af8ac698d63fbc8ac14ca1232d6bf5ac917ddc4f8eaff",
      "assetIds": [
        "41506478881403507969696680653240014914910929820314476107906210059990431967234",
        "41506478881403507969696680653240014914910929820314476107906210059990431967235"
      ]
    },
    {
      "x": 367,
      "y": 309,
      "size": 1,
      "price": "4683000000000000000000",
      "reserved": "",
      "salt": "0x36746a8bad61a37e2a8c59de7c880afada86adcb19eb9fad69c4dc7d8cf5f9b2",
      "assetIds": [
        "41506478881403507969696680653240014914910929820314476107906210059990431967232",
        "41506478881403507969696680653240014914910929820314476107906210059990431967233"
      ]
    },
    {
      "x": 366,
      "y": 310,
      "size": 1,
      "price": "4683000000000000000000",
      "reserved": "",
      "salt": "0x2c3e3647135ea16c881c55a9b2a80728970a54519d3d83de8d914f9552201745",
      "assetIds": [
        "41506478881403507969696680653240014914910929820314476107906210059990431967235",
        "41506478881403507969696680653240014914910929820314476107906210059990431967236"
      ]
    },
    {
      "x": 365,
      "y": 310,
      "size": 1,
      "price": "4683000000000000000000",
      "reserved": "",
      "salt": "0xf6e1bac86078d2d9436907dd2b01e241206421ef17a428eafd49f113fe108faf",
      "assetIds": [
        "41506478881403507969696680653240014914910929820314476107906210059990431967234",
        "41506478881403507969696680653240014914910929820314476107906210059990431967235"
      ]
    },
    {
      "x": 368,
      "y": 309,
      "size": 1,
      "price": "4683000000000000000000",
      "reserved": "",
      "salt": "0x3b832733050302f44bd9ec5be12d5a771211791eafbbd485f9cacd3cf1de201c",
      "assetIds": [
        "41506478881403507969696680653240014914910929820314476107906210059990431967233",
        "41506478881403507969696680653240014914910929820314476107906210059990431967234"
      ]
    },
    {
      "x": 368,
      "y": 308,
      "size": 1,
      "price": "4683000000000000000000",
      "reserved": "",
      "salt": "0x34b05cd586b23199bacbcb2cff0e522e8014089d230857c84e848c2de9833e39",
      "assetIds": [
        "41506478881403507969696680653240014914910929820314476107906210059990431967232",
        "41506478881403507969696680653240014914910929820314476107906210059990431967233"
      ]
    },
    {
      "x": 367,
      "y": 308,
      "size": 1,
      "price": "4683000000000000000000",
      "reserved": "",
      "salt": "0x6ee52738ca62f13d0e9a51ad88be1b634c1f868f9d5a3e4d93907f84deab26ba",
      "assetIds": [
        "41506478881403507969696680653240014914910929820314476107906210059990431967233",
        "41506478881403507969696680653240014914910929820314476107906210059990431967234"
      ]
    },
    {
      "x": 370,
      "y": 308,
      "size": 1,
      "price": "4683000000000000000000",
      "reserved": "",
      "salt": "0x34390aaf475d260c1d4a1b7790f1bddc756aae3c0c2843c4eed01be89f85e0be",
      "assetIds": [
        "41506478881403507969696680653240014914910929820314476107906210059990431967232",
        "41506478881403507969696680653240014914910929820314476107906210059990431967233"
      ]
    },
    {
      "x": 370,
      "y": 309,
      "size": 1,
      "price": "4683000000000000000000",
      "reserved": "",
      "salt": "0x9b3b21cad27bca258c33de00fd8bea3306971bfddfab21d3e6e59795d67ec388",
      "assetIds": [
        "41506478881403507969696680653240014914910929820314476107906210059990431967233",
        "41506478881403507969696680653240014914910929820314476107906210059990431967234"
      ]
    },
    {
      "x": 370,
      "y": 310,
      "size": 1,
      "price": "4683000000000000000000",
      "reserved": "",
      "salt": "0x5eca90af695d9a911c85ca0bc32d16df58d4660617eedf3fefa81219465b1eb7",
      "assetIds": [
        "41506478881403507969696680653240014914910929820314476107906210059990431967234",
        "41506478881403507969696680653240014914910929820314476107906210059990431967235"
      ]
    },
    {
      "x": 378,
      "y": 311,
      "size": 1,
      "price": "4683000000000000000000",
      "reserved": "",
      "salt": "0x602647868b84a8595523e9e79759effe443a7d7205458ca5b935d5a7e1079193",
      "assetIds": [
        "41506478881403507969696680653240014914910929820314476107906210059990431967235",
        "41506478881403507969696680653240014914910929820314476107906210059990431967236"
      ]
    },
    {
      "x": 379,
      "y": 311,
      "size": 1,
      "price": "4683000000000000000000",
      "reserved": "",
      "salt": "0x4d795f363573cee8c344c70da25ae4273b9cae83b8518a0ddc78f90a35436f18",
      "assetIds": [
        "41506478881403507969696680653240014914910929820314476107906210059990431967232",
        "41506478881403507969696680653240014914910929820314476107906210059990431967233"
      ]
    },
    {
      "x": 379,
      "y": 310,
      "size": 1,
      "price": "4683000000000000000000",
      "reserved": "",
      "salt": "0x59816ba3430b5dfbbd871bc805e900e6a5b1fb6f304d717ef9848a9b3c598d91",
      "assetIds": [
        "41506478881403507969696680653240014914910929820314476107906210059990431967235",
        "41506478881403507969696680653240014914910929820314476107906210059990431967236"
      ]
    },
    {
      "x": 380,
      "y": 310,
      "size": 1,
      "price": "4683000000000000000000",
      "reserved": "",
      "salt": "0x92484e88cbf738f53d12afcc2ce8848b592f598744cc98fbc6fe75616c2f165c",
      "assetIds": [
        "41506478881403507969696680653240014914910929820314476107906210059990431967233",
        "41506478881403507969696680653240014914910929820314476107906210059990431967234"
      ]
    },
    {
      "x": 381,
      "y": 310,
      "size": 1,
      "price": "4683000000000000000000",
      "reserved": "",
      "salt": "0x93ee7e8f06607551c30b3c0febd1f9777e09dbcbf74002ec7d19511c304392ef",
      "assetIds": [
        "41506478881403507969696680653240014914910929820314476107906210059990431967233",
        "41506478881403507969696680653240014914910929820314476107906210059990431967234"
      ]
    },
    {
      "x": 382,
      "y": 310,
      "size": 1,
      "price": "4683000000000000000000",
      "reserved": "",
      "salt": "0x160740eee366a3d98efd1eaeaa0ba5165f8d22c3438ff1fc497eba5f187a546c",
      "assetIds": [
        "41506478881403507969696680653240014914910929820314476107906210059990431967232",
        "41506478881403507969696680653240014914910929820314476107906210059990431967233"
      ]
    },
    {
      "x": 383,
      "y": 310,
      "size": 1,
      "price": "4683000000000000000000",
      "reserved": "",
      "salt": "0x37989134dec72b2642a26756854aa654237779e8e03f28d7742208d772f74631",
      "assetIds": [
        "41506478881403507969696680653240014914910929820314476107906210059990431967234",
        "41506478881403507969696680653240014914910929820314476107906210059990431967235"
      ]
    },
    {
      "x": 384,
      "y": 310,
      "size": 1,
      "price": "4683000000000000000000",
      "reserved": "",
      "salt": "0x983976381f78d0cee4ca6ec15b869195b2b39653669ffc49f83ded1bfd527f2f",
      "assetIds": [
        "41506478881403507969696680653240014914910929820314476107906210059990431967232",
        "41506478881403507969696680653240014914910929820314476107906210059990431967233"
      ]
    },
    {
      "x": 385,
      "y": 310,
      "size": 1,
      "price": "4683000000000000000000",
      "reserved": "",
      "salt": "0xace54f5e8befaa08cedefa68ba00edb2f05d8a425da4dbd119c67fd233fc9767",
      "assetIds": [
        "41506478881403507969696680653240014914910929820314476107906210059990431967234",
        "41506478881403507969696680653240014914910929820314476107906210059990431967235"
      ]
    },
    {
      "x": 385,
      "y": 309,
      "size": 1,
      "price": "4683000000000000000000",
      "reserved": "",
      "salt": "0xe0297d8599187a88bf4a0a70f680a7ecb8f17e6857a80d2e8a8695932a94e162",
      "assetIds": [
        "41506478881403507969696680653240014914910929820314476107906210059990431967234",
        "41506478881403507969696680653240014914910929820314476107906210059990431967235"
      ]
    },
    {
      "x": 385,
      "y": 308,
      "size": 1,
      "price": "4683000000000000000000",
      "reserved": "",
      "salt": "0xd2d816da216245fd2a6664b655055b01bd04feaa793f4aa5ca6a9f3e8859000e",
      "assetIds": [
        "41506478881403507969696680653240014914910929820314476107906210059990431967233",
        "41506478881403507969696680653240014914910929820314476107906210059990431967234"
      ]
    },
    {
      "x": 385,
      "y": 307,
      "size": 1,
      "price": "4683000000000000000000",
      "reserved": "",
      "salt": "0x88c22b1e3dec0b948a47373ae71e8f4721020db796627844e3616994260e4efa",
      "assetIds": [
        "41506478881403507969696680653240014914910929820314476107906210059990431967232",
        "41506478881403507969696680653240014914910929820314476107906210059990431967233"
      ]
    },
    {
      "x": 383,
      "y": 307,
      "size": 1,
      "price": "4683000000000000000000",
      "reserved": "",
      "salt": "0xb75b48518757689546d8d0c92cb425a9b7a55401b77f794193fd4470c7798a4c",
      "assetIds": [
        "41506478881403507969696680653240014914910929820314476107906210059990431967233",
        "41506478881403507969696680653240014914910929820314476107906210059990431967234"
      ]
    },
    {
      "x": 382,
      "y": 307,
      "size": 1,
      "price": "4683000000000000000000",
      "reserved": "",
      "salt": "0x68a550642da6106191e79a953905e6db52ed43b4f7d4e963c7c831d4c3d0aa9b",
      "assetIds": [
        "41506478881403507969696680653240014914910929820314476107906210059990431967235",
        "41506478881403507969696680653240014914910929820314476107906210059990431967236"
      ]
    },
    {
      "x": 381,
      "y": 307,
      "size": 1,
      "price": "4683000000000000000000",
      "reserved": "",
      "salt": "0x7af43063aa82fbc6a4f02b036456694bd617a58e48a0e197aabb1f733fc967a6",
      "assetIds": [
        "41506478881403507969696680653240014914910929820314476107906210059990431967232",
        "41506478881403507969696680653240014914910929820314476107906210059990431967233"
      ]
    },
    {
      "x": 380,
      "y": 307,
      "size": 1,
      "price": "4683000000000000000000",
      "reserved": "",
      "salt": "0x5120dcaa1876179fd4141b01f93766fa619e754417fb7ec5f84f9efd2fd1e8a1",
      "assetIds": [
        "41506478881403507969696680653240014914910929820314476107906210059990431967235",
        "41506478881403507969696680653240014914910929820314476107906210059990431967236"
      ]
    },
    {
      "x": 379,
      "y": 307,
      "size": 1,
      "price": "4683000000000000000000",
      "reserved": "",
      "salt": "0xc421232115ab51e366ba4afd73a61eee43c79c0eb30a8f97d056ce42715422d6",
      "assetIds": [
        "41506478881403507969696680653240014914910929820314476107906210059990431967232",
        "41506478881403507969696680653240014914910929820314476107906210059990431967233"
      ]
    },
    {
      "x": 378,
      "y": 307,
      "size": 1,
      "price": "4683000000000000000000",
      "reserved": "",
      "salt": "0x899e21c1d7366f3bc21c984a0683d4a4f6b2871c5b0371415b6ba0ff428a9e13",
      "assetIds": [
        "41506478881403507969696680653240014914910929820314476107906210059990431967233",
        "41506478881403507969696680653240014914910929820314476107906210059990431967234"
      ]
    },
    {
      "x": 378,
      "y": 308,
      "size": 1,
      "price": "4683000000000000000000",
      "reserved": "",
      "salt": "0xfd370adca5807e0ff202085dc75af6032531b39e340402d5c270a51319fc9bd5",
      "assetIds": [
        "41506478881403507969696680653240014914910929820314476107906210059990431967233",
        "41506478881403507969696680653240014914910929820314476107906210059990431967234"
      ]
    },
    {
      "x": 378,
      "y": 309,
      "size": 1,
      "price": "4683000000000000000000",
      "reserved": "",
      "salt": "0x5f3a31c338830a7f9dd1d2389c529238979881410dd4c119806982594f6aad25",
      "assetIds": [
        "41506478881403507969696680653240014914910929820314476107906210059990431967232",
        "41506478881403507969696680653240014914910929820314476107906210059990431967233"
      ]
    },
    {
      "x": 378,
      "y": 310,
      "size": 1,
      "price": "4683000000000000000000",
      "reserved": "",
      "salt": "0x62a25c15dfead5caeb0e25633e4d44515f2c19e78b8024cee4272767b8320446",
      "assetIds": [
        "41506478881403507969696680653240014914910929820314476107906210059990431967235",
        "41506478881403507969696680653240014914910929820314476107906210059990431967236"
      ]
    },
    {
      "x": 379,
      "y": 308,
      "size": 1,
      "price": "4683000000000000000000",
      "reserved": "",
      "salt": "0x2e1677f7bc6faa148100dcb6c2bb64386e1ce3acc6a5a9931eff3db5d724dc52",
      "assetIds": [
        "41506478881403507969696680653240014914910929820314476107906210059990431967232",
        "41506478881403507969696680653240014914910929820314476107906210059990431967233"
      ]
    },
    {
      "x": 380,
      "y": 308,
      "size": 1,
      "price": "4683000000000000000000",
      "reserved": "",
      "salt": "0x52573fc9ecd46bc8a349b9519262b1edcd4956bf3c1d835f33178cff9a3b0ccd",
      "assetIds": [
        "41506478881403507969696680653240014914910929820314476107906210059990431967235",
        "41506478881403507969696680653240014914910929820314476107906210059990431967236"
      ]
    },
    {
      "x": 381,
      "y": 308,
      "size": 1,
      "price": "4683000000000000000000",
      "reserved": "",
      "salt": "0xd0d265ebecbbcaf43c75deb26c675d13976ffca36472601e0e146720c1dbbd14",
      "assetIds": [
        "41506478881403507969696680653240014914910929820314476107906210059990431967235",
        "41506478881403507969696680653240014914910929820314476107906210059990431967236"
      ]
    },
    {
      "x": 381,
      "y": 309,
      "size": 1,
      "price": "4683000000000000000000",
      "reserved": "",
      "salt": "0x80af8d149eb785717c06ad057ded6e49b0396e9dc30b36841e21eb3240c6ef6c",
      "assetIds": [
        "41506478881403507969696680653240014914910929820314476107906210059990431967233",
        "41506478881403507969696680653240014914910929820314476107906210059990431967234"
      ]
    },
    {
      "x": 382,
      "y": 309,
      "size": 1,
      "price": "4683000000000000000000",
      "reserved": "",
      "salt": "0xb1301686795fcd762391f7b914a139f3fc9cf28fd73d4e3d86e68c9195bbc0a7",
      "assetIds": [
        "41506478881403507969696680653240014914910929820314476107906210059990431967234",
        "41506478881403507969696680653240014914910929820314476107906210059990431967235"
      ]
    },
    {
      "x": 383,
      "y": 309,
      "size": 1,
      "price": "4683000000000000000000",
      "reserved": "",
      "salt": "0xf26f3fee0a16979e98cce94bb00009990fc52b843d4e431a5595a05ed363a051",
      "assetIds": [
        "41506478881403507969696680653240014914910929820314476107906210059990431967235",
        "41506478881403507969696680653240014914910929820314476107906210059990431967236"
      ]
    },
    {
      "x": 384,
      "y": 309,
      "size": 1,
      "price": "4683000000000000000000",
      "reserved": "",
      "salt": "0x7da6e529b1139ec350560b7c1303bba88da4755f8ad9c0ddcd6d96c4eca91aba",
      "assetIds": [
        "41506478881403507969696680653240014914910929820314476107906210059990431967232",
        "41506478881403507969696680653240014914910929820314476107906210059990431967233"
      ]
    },
    {
      "x": 384,
      "y": 308,
      "size": 1,
      "price": "4683000000000000000000",
      "reserved": "",
      "salt": "0x47c6d363fc48fdf595709548dd4112ad40d5d98b31ae35e51c2637cfe5bef61b",
      "assetIds": [
        "41506478881403507969696680653240014914910929820314476107906210059990431967232",
        "41506478881403507969696680653240014914910929820314476107906210059990431967233"
      ]
    },
    {
      "x": 383,
      "y": 308,
      "size": 1,
      "price": "4683000000000000000000",
      "reserved": "",
      "salt": "0x2bb6eb3434b48e4843685eb55320d4995408aa784b458494f7c774c3fb349696",
      "assetIds": [
        "41506478881403507969696680653240014914910929820314476107906210059990431967233",
        "41506478881403507969696680653240014914910929820314476107906210059990431967234"
      ]
    },
    {
      "x": 382,
      "y": 308,
      "size": 1,
      "price": "4683000000000000000000",
      "reserved": "",
      "salt": "0xbb92d42ad54d361d429cb4072989e479bbef6e2d70605e9def6d072bdfc4996e",
      "assetIds": [
        "41506478881403507969696680653240014914910929820314476107906210059990431967232",
        "41506478881403507969696680653240014914910929820314476107906210059990431967233"
      ]
    },
    {
      "x": 380,
      "y": 309,
      "size": 1,
      "price": "4683000000000000000000",
      "reserved": "",
      "salt": "0x52639a02bb19bf3425626b65dde11e3224801e034e6c62b00f799f93c23e4144",
      "assetIds": [
        "41506478881403507969696680653240014914910929820314476107906210059990431967235",
        "41506478881403507969696680653240014914910929820314476107906210059990431967236"
      ]
    },
    {
      "x": 379,
      "y": 309,
      "size": 1,
      "price": "4683000000000000000000",
      "reserved": "",
      "salt": "0x0a9ea5c34a5b4a2a1524c8c1784fd3d9a405e4f79b01f3f087702b1094a288dd",
      "assetIds": [
        "41506478881403507969696680653240014914910929820314476107906210059990431967235",
        "41506478881403507969696680653240014914910929820314476107906210059990431967236"
      ]
    },
    {
      "x": 380,
      "y": 311,
      "size": 1,
      "price": "4683000000000000000000",
      "reserved": "",
      "salt": "0xbad44b1cadfaf07bc9b7e5c1123979d9c33a1ec36ec504321995bccaf2ef2e71",
      "assetIds": [
        "41506478881403507969696680653240014914910929820314476107906210059990431967233",
        "41506478881403507969696680653240014914910929820314476107906210059990431967234"
      ]
    },
    {
      "x": 381,
      "y": 311,
      "size": 1,
      "price": "4683000000000000000000",
      "reserved": "",
      "salt": "0x2a2e761884e4ed24a9d202b5301d120356f0dd14f33478efec8a58611ba1587f",
      "assetIds": [
        "41506478881403507969696680653240014914910929820314476107906210059990431967235",
        "41506478881403507969696680653240014914910929820314476107906210059990431967236"
      ]
    },
    {
      "x": 382,
      "y": 311,
      "size": 1,
      "price": "4683000000000000000000",
      "reserved": "",
      "salt": "0x025a2c734f92990e389a6962ffc169515ee1d51b49f4b6a5cdb9b3bb562d86fb",
      "assetIds": [
        "41506478881403507969696680653240014914910929820314476107906210059990431967232",
        "41506478881403507969696680653240014914910929820314476107906210059990431967233"
      ]
    },
    {
      "x": 383,
      "y": 311,
      "size": 1,
      "price": "4683000000000000000000",
      "reserved": "",
      "salt": "0xe29a01a61bc77a22078fc5323016b5397ac567ddd8e902cdb2995bdb16be4c9b",
      "assetIds": [
        "41506478881403507969696680653240014914910929820314476107906210059990431967232",
        "41506478881403507969696680653240014914910929820314476107906210059990431967233"
      ]
    },
    {
      "x": 384,
      "y": 311,
      "size": 1,
      "price": "4683000000000000000000",
      "reserved": "",
      "salt": "0xb244e9735d03e0fa700600d5a5338c8903427a5452d87e93c0ed13320a30272c",
      "assetIds": [
        "41506478881403507969696680653240014914910929820314476107906210059990431967234",
        "41506478881403507969696680653240014914910929820314476107906210059990431967235"
      ]
    },
    {
      "x": 385,
      "y": 311,
      "size": 1,
      "price": "4683000000000000000000",
      "reserved": "",
      "salt": "0x2583ff40d04e5e10d8934eb7e8f26dfbe7385d3ba34a4c8de01b63896357fcf2",
      "assetIds": [
        "41506478881403507969696680653240014914910929820314476107906210059990431967232",
        "41506478881403507969696680653240014914910929820314476107906210059990431967233"
      ]
    },
    {
      "x": 385,
      "y": 312,
      "size": 1,
      "price": "4683000000000000000000",
      "reserved": "",
      "salt": "0xfaf42bda759909bf0d77feee1bbf183e945a3b02cd8ebc8f921da0f6a6cea170",
      "assetIds": [
        "41506478881403507969696680653240014914910929820314476107906210059990431967232",
        "41506478881403507969696680653240014914910929820314476107906210059990431967233"
      ]
    },
    {
      "x": 385,
      "y": 313,
      "size": 1,
      "price": "4683000000000000000000",
      "reserved": "",
      "salt": "0x0b914c3f8cab595f40cdd460ed78456b6a2b5f7b9abd4e9034e1df30697b3840",
      "assetIds": [
        "41506478881403507969696680653240014914910929820314476107906210059990431967234",
        "41506478881403507969696680653240014914910929820314476107906210059990431967235"
      ]
    },
    {
      "x": 385,
      "y": 314,
      "size": 1,
      "price": "4683000000000000000000",
      "reserved": "",
      "salt": "0x2f0f90ee02500264b701c9e5fe326d9444aa8adf2cef43710036e2cc8bafd48c",
      "assetIds": [
        "41506478881403507969696680653240014914910929820314476107906210059990431967235",
        "41506478881403507969696680653240014914910929820314476107906210059990431967236"
      ]
    },
    {
      "x": 385,
      "y": 315,
      "size": 1,
      "price": "4683000000000000000000",
      "reserved": "",
      "salt": "0xaa9ac70d381a9bec74d61cbe7aadb5283223c6b29c468fa78d4f56b70fc06c3f",
      "assetIds": [
        "41506478881403507969696680653240014914910929820314476107906210059990431967235",
        "41506478881403507969696680653240014914910929820314476107906210059990431967236"
      ]
    },
    {
      "x": 384,
      "y": 315,
      "size": 1,
      "price": "4683000000000000000000",
      "reserved": "",
      "salt": "0x7b74768dbc86f0ff7d08e567c71ca45404e53117bc26a3d2d603a9facbf42688",
      "assetIds": [
        "41506478881403507969696680653240014914910929820314476107906210059990431967234",
        "41506478881403507969696680653240014914910929820314476107906210059990431967235"
      ]
    },
    {
      "x": 384,
      "y": 316,
      "size": 1,
      "price": "4683000000000000000000",
      "reserved": "",
      "salt": "0xef110088730c2daf2bb4f7d2881df85b2defcf5b8ec2e6a3851ed81749dc48f1",
      "assetIds": [
        "41506478881403507969696680653240014914910929820314476107906210059990431967233",
        "41506478881403507969696680653240014914910929820314476107906210059990431967234"
      ]
    },
    {
      "x": 384,
      "y": 317,
      "size": 1,
      "price": "4683000000000000000000",
      "reserved": "",
      "salt": "0x697a5a7d0f13f4f156eade2d424a4e630875362935740ca1506089c2fdd52180",
      "assetIds": [
        "41506478881403507969696680653240014914910929820314476107906210059990431967234",
        "41506478881403507969696680653240014914910929820314476107906210059990431967235"
      ]
    },
    {
      "x": 384,
      "y": 314,
      "size": 1,
      "price": "4683000000000000000000",
      "reserved": "",
      "salt": "0xf276a73db3383c4b1b960fa5f26fbb82340b86a5628be532e4f9ece25ff48cb7",
      "assetIds": [
        "41506478881403507969696680653240014914910929820314476107906210059990431967234",
        "41506478881403507969696680653240014914910929820314476107906210059990431967235"
      ]
    },
    {
      "x": 384,
      "y": 313,
      "size": 1,
      "price": "4683000000000000000000",
      "reserved": "",
      "salt": "0x682374569cb69247d1c6f21fd7ce7cfa9fd886b53d49824d63f9792371a6f1ea",
      "assetIds": [
        "41506478881403507969696680653240014914910929820314476107906210059990431967232",
        "41506478881403507969696680653240014914910929820314476107906210059990431967233"
      ]
    },
    {
      "x": 384,
      "y": 312,
      "size": 1,
      "price": "4683000000000000000000",
      "reserved": "",
      "salt": "0x611f512c58f385f541d93e0981313446c6c845b69aba7efcc0dcc16f48271d9d",
      "assetIds": [
        "41506478881403507969696680653240014914910929820314476107906210059990431967232",
        "41506478881403507969696680653240014914910929820314476107906210059990431967233"
      ]
    },
    {
      "x": 386,
      "y": 313,
      "size": 1,
      "price": "4683000000000000000000",
      "reserved": "",
      "salt": "0x22fa27eb5bf1378c51349f3f1b68b8822bf63e2352c56e6501f5ec07f1d06f0f",
      "assetIds": [
        "41506478881403507969696680653240014914910929820314476107906210059990431967233",
        "41506478881403507969696680653240014914910929820314476107906210059990431967234"
      ]
    },
    {
      "x": 387,
      "y": 313,
      "size": 1,
      "price": "4683000000000000000000",
      "reserved": "",
      "salt": "0x8725cbda93cf5a8fe2e8016eaaa1a93b71a673bc16ed9259ca060476a7d61f77",
      "assetIds": [
        "41506478881403507969696680653240014914910929820314476107906210059990431967234",
        "41506478881403507969696680653240014914910929820314476107906210059990431967235"
      ]
    },
    {
      "x": 388,
      "y": 313,
      "size": 1,
      "price": "4683000000000000000000",
      "reserved": "",
      "salt": "0x14dae969bb4bbd0ab775b6fa52daf80d62bcdaf90ab6f7027e44c04c10d0f18a",
      "assetIds": [
        "41506478881403507969696680653240014914910929820314476107906210059990431967232",
        "41506478881403507969696680653240014914910929820314476107906210059990431967233"
      ]
    },
    {
      "x": 389,
      "y": 313,
      "size": 1,
      "price": "4683000000000000000000",
      "reserved": "",
      "salt": "0xa5e995950b14274bce8312ef5109044f584c4f4efb3e5457ac465832ae3ee386",
      "assetIds": [
        "41506478881403507969696680653240014914910929820314476107906210059990431967234",
        "41506478881403507969696680653240014914910929820314476107906210059990431967235"
      ]
    },
    {
      "x": 391,
      "y": 313,
      "size": 1,
      "price": "4683000000000000000000",
      "reserved": "",
      "salt": "0x60c9c0a60902de4ba71496ce3d3fb4a09f8c1c0dad2ec13628d7cb3580593277",
      "assetIds": [
        "41506478881403507969696680653240014914910929820314476107906210059990431967235",
        "41506478881403507969696680653240014914910929820314476107906210059990431967236"
      ]
    },
    {
      "x": 395,
      "y": 314,
      "size": 1,
      "price": "4683000000000000000000",
      "reserved": "",
      "salt": "0xcd0e569c97c589ba6a39535989a5f7bf60a7cab25db814584b203201474b8523",
      "assetIds": [
        "41506478881403507969696680653240014914910929820314476107906210059990431967234",
        "41506478881403507969696680653240014914910929820314476107906210059990431967235"
      ]
    },
    {
      "x": 394,
      "y": 314,
      "size": 1,
      "price": "4683000000000000000000",
      "reserved": "",
      "salt": "0xd3820e63170526d2abafbe513d31d87c5ec64698351c15136d9d333a86f8a96a",
      "assetIds": [
        "41506478881403507969696680653240014914910929820314476107906210059990431967233",
        "41506478881403507969696680653240014914910929820314476107906210059990431967234"
      ]
    },
    {
      "x": 394,
      "y": 315,
      "size": 1,
      "price": "4683000000000000000000",
      "reserved": "",
      "salt": "0x644b23a6a15e1cea2c030f18ca770453ba73a0d81a0138751f1a9dbb07b620bc",
      "assetIds": [
        "41506478881403507969696680653240014914910929820314476107906210059990431967232",
        "41506478881403507969696680653240014914910929820314476107906210059990431967233"
      ]
    },
    {
      "x": 395,
      "y": 315,
      "size": 1,
      "price": "4683000000000000000000",
      "reserved": "",
      "salt": "0xa2175b080becf5f30e97aeaf3369ebd721c32422427586825ebf6716324d2242",
      "assetIds": [
        "41506478881403507969696680653240014914910929820314476107906210059990431967235",
        "41506478881403507969696680653240014914910929820314476107906210059990431967236"
      ]
    },
    {
      "x": 395,
      "y": 316,
      "size": 1,
      "price": "4683000000000000000000",
      "reserved": "",
      "salt": "0x57a0b1075cec05423097ea810cb2216a93584888926d5bf635a3c7b92ca84c2d",
      "assetIds": [
        "41506478881403507969696680653240014914910929820314476107906210059990431967234",
        "41506478881403507969696680653240014914910929820314476107906210059990431967235"
      ]
    },
    {
      "x": 395,
      "y": 317,
      "size": 1,
      "price": "4683000000000000000000",
      "reserved": "",
      "salt": "0xf76bb5cd541ca8b0e3e8b5d00742cd6d9de271885f030ea6f0acaf02ff0459eb",
      "assetIds": [
        "41506478881403507969696680653240014914910929820314476107906210059990431967235",
        "41506478881403507969696680653240014914910929820314476107906210059990431967236"
      ]
    },
    {
      "x": 394,
      "y": 317,
      "size": 1,
      "price": "4683000000000000000000",
      "reserved": "",
      "salt": "0x3452822b1a0e2cee3b949aa34c47115284d22530550e8e94faf44163e7f546df",
      "assetIds": [
        "41506478881403507969696680653240014914910929820314476107906210059990431967233",
        "41506478881403507969696680653240014914910929820314476107906210059990431967234"
      ]
    },
    {
      "x": 393,
      "y": 317,
      "size": 1,
      "price": "4683000000000000000000",
      "reserved": "",
      "salt": "0x03c40553985f25a350ed585a74a9984ea0ca0462f7f899ffca92a98725ad8048",
      "assetIds": [
        "41506478881403507969696680653240014914910929820314476107906210059990431967233",
        "41506478881403507969696680653240014914910929820314476107906210059990431967234"
      ]
    },
    {
      "x": 392,
      "y": 317,
      "size": 1,
      "price": "4683000000000000000000",
      "reserved": "",
      "salt": "0xaf67f78764009f82412b2ebf6df06f24148491c1cbcd4baecb171c6f14e7d2ae",
      "assetIds": [
        "41506478881403507969696680653240014914910929820314476107906210059990431967232",
        "41506478881403507969696680653240014914910929820314476107906210059990431967233"
      ]
    },
    {
      "x": 391,
      "y": 317,
      "size": 1,
      "price": "4683000000000000000000",
      "reserved": "",
      "salt": "0xd1c6628665f08ed3e848fee7cbb5e7e6397a31ec62ab1b365b9fe5c27c07e0b9",
      "assetIds": [
        "41506478881403507969696680653240014914910929820314476107906210059990431967235",
        "41506478881403507969696680653240014914910929820314476107906210059990431967236"
      ]
    },
    {
      "x": 390,
      "y": 317,
      "size": 1,
      "price": "4683000000000000000000",
      "reserved": "",
      "salt": "0x3912bd70d1afe6e65cf9914e8790733aa3278cfa858e05cbdef94a79e15c048f",
      "assetIds": [
        "41506478881403507969696680653240014914910929820314476107906210059990431967232",
        "41506478881403507969696680653240014914910929820314476107906210059990431967233"
      ]
    },
    {
      "x": 389,
      "y": 317,
      "size": 1,
      "price": "4683000000000000000000",
      "reserved": "",
      "salt": "0xab7fd1365ed7c089cd15450e50adf2b9fc4c60573eac1b13d0010f123e7a9fa6",
      "assetIds": [
        "41506478881403507969696680653240014914910929820314476107906210059990431967233",
        "41506478881403507969696680653240014914910929820314476107906210059990431967234"
      ]
    },
    {
      "x": 388,
      "y": 317,
      "size": 1,
      "price": "4683000000000000000000",
      "reserved": "",
      "salt": "0xd04867110a5a6563063fb2ae08a44bb86febf644233c96125ec045e6a16fef34",
      "assetIds": [
        "41506478881403507969696680653240014914910929820314476107906210059990431967235",
        "41506478881403507969696680653240014914910929820314476107906210059990431967236"
      ]
    },
    {
      "x": 388,
      "y": 316,
      "size": 1,
      "price": "4683000000000000000000",
      "reserved": "",
      "salt": "0x598cc0bfd6856ce901f764fe2db28e0449808e38835fa208ae2644e29aaf89e3",
      "assetIds": [
        "41506478881403507969696680653240014914910929820314476107906210059990431967234",
        "41506478881403507969696680653240014914910929820314476107906210059990431967235"
      ]
    },
    {
      "x": 387,
      "y": 316,
      "size": 1,
      "price": "4683000000000000000000",
      "reserved": "",
      "salt": "0x52b6acd5a926a66bfb80378e80892da751ff55da35df592ebfcd8fe9ca2e48b9",
      "assetIds": [
        "41506478881403507969696680653240014914910929820314476107906210059990431967233",
        "41506478881403507969696680653240014914910929820314476107906210059990431967234"
      ]
    },
    {
      "x": 386,
      "y": 316,
      "size": 1,
      "price": "4683000000000000000000",
      "reserved": "",
      "salt": "0x5c4e155b689ddf5cfdc3e8f7d29a1c72d4020fe7f28d4c09044a89a5a4eefd06",
      "assetIds": [
        "41506478881403507969696680653240014914910929820314476107906210059990431967235",
        "41506478881403507969696680653240014914910929820314476107906210059990431967236"
      ]
    },
    {
      "x": 385,
      "y": 316,
      "size": 1,
      "price": "4683000000000000000000",
      "reserved": "",
      "salt": "0x4e55395fb6a1842e8a130d285361fa1fc920ed3e04fbc09b54b81cd49d155892",
      "assetIds": [
        "41506478881403507969696680653240014914910929820314476107906210059990431967233",
        "41506478881403507969696680653240014914910929820314476107906210059990431967234"
      ]
    },
    {
      "x": 386,
      "y": 317,
      "size": 1,
      "price": "4683000000000000000000",
      "reserved": "",
      "salt": "0x02596805ff2c2c28df94cf918dbc6441636f5182aaf349dc6b90823ef6498100",
      "assetIds": [
        "41506478881403507969696680653240014914910929820314476107906210059990431967232",
        "41506478881403507969696680653240014914910929820314476107906210059990431967233"
      ]
    },
    {
      "x": 387,
      "y": 317,
      "size": 1,
      "price": "4683000000000000000000",
      "reserved": "",
      "salt": "0xf851af016a03af0aef310f6f69a82f88965e1b783af283db96f19a741623ca84",
      "assetIds": [
        "41506478881403507969696680653240014914910929820314476107906210059990431967235",
        "41506478881403507969696680653240014914910929820314476107906210059990431967236"
      ]
    },
    {
      "x": 385,
      "y": 317,
      "size": 1,
      "price": "4683000000000000000000",
      "reserved": "",
      "salt": "0x6fa8a4b3af071d56957ef0667cfcf0daf94f112523819a222d0cf83b13e3cef8",
      "assetIds": [
        "41506478881403507969696680653240014914910929820314476107906210059990431967235",
        "41506478881403507969696680653240014914910929820314476107906210059990431967236"
      ]
    },
    {
      "x": 386,
      "y": 315,
      "size": 1,
      "price": "4683000000000000000000",
      "reserved": "",
      "salt": "0x85dc8bb282ff528973f478189766fe38bd32c2e665c884eb8e6e5e2d1dbdb02b",
      "assetIds": [
        "41506478881403507969696680653240014914910929820314476107906210059990431967235",
        "41506478881403507969696680653240014914910929820314476107906210059990431967236"
      ]
    },
    {
      "x": 386,
      "y": 314,
      "size": 1,
      "price": "4683000000000000000000",
      "reserved": "",
      "salt": "0x24d67bd80ca410aac17834dc473020d633e357f4581c3f48114fb1af8d3b7b1c",
      "assetIds": [
        "41506478881403507969696680653240014914910929820314476107906210059990431967232",
        "41506478881403507969696680653240014914910929820314476107906210059990431967233"
      ]
    },
    {
      "x": 388,
      "y": 314,
      "size": 1,
      "price": "4683000000000000000000",
      "reserved": "",
      "salt": "0xdb0f77f617893fba00294b7251503ed2fc8e9fffa83df624d2659f2bd148cce1",
      "assetIds": [
        "41506478881403507969696680653240014914910929820314476107906210059990431967232",
        "41506478881403507969696680653240014914910929820314476107906210059990431967233"
      ]
    },
    {
      "x": 389,
      "y": 314,
      "size": 1,
      "price": "4683000000000000000000",
      "reserved": "",
      "salt": "0xedd407680c697fec020a34565f5cc7f6805862382b787b8c8380d4fce81af9c9",
      "assetIds": [
        "41506478881403507969696680653240014914910929820314476107906210059990431967233",
        "41506478881403507969696680653240014914910929820314476107906210059990431967234"
      ]
    },
    {
      "x": 390,
      "y": 314,
      "size": 1,
      "price": "4683000000000000000000",
      "reserved": "",
      "salt": "0x3a974f346620c99df73f5c80a41a8406d1e190aa001ca2189ad3388ae663a30f",
      "assetIds": [
        "41506478881403507969696680653240014914910929820314476107906210059990431967234",
        "41506478881403507969696680653240014914910929820314476107906210059990431967235"
      ]
    },
    {
      "x": 389,
      "y": 315,
      "size": 1,
      "price": "4683000000000000000000",
      "reserved": "",
      "salt": "0xd66405b9995aafe8dbb34ba20a42137218757038ae9a74d10de6846bf77f947a",
      "assetIds": [
        "41506478881403507969696680653240014914910929820314476107906210059990431967234",
        "41506478881403507969696680653240014914910929820314476107906210059990431967235"
      ]
    },
    {
      "x": 388,
      "y": 315,
      "size": 1,
      "price": "4683000000000000000000",
      "reserved": "",
      "salt": "0x2e8e7dbef183b1bb5796565feb6db752b1d9e3243037ae98b414a30cc001768c",
      "assetIds": [
        "41506478881403507969696680653240014914910929820314476107906210059990431967234",
        "41506478881403507969696680653240014914910929820314476107906210059990431967235"
      ]
    },
    {
      "x": 387,
      "y": 315,
      "size": 1,
      "price": "4683000000000000000000",
      "reserved": "",
      "salt": "0x4b0e13d0c9546fc608a47cffa28bc27058badf87c262039943432b50303a7d83",
      "assetIds": [
        "41506478881403507969696680653240014914910929820314476107906210059990431967232",
        "41506478881403507969696680653240014914910929820314476107906210059990431967233"
      ]
    },
    {
      "x": 391,
      "y": 314,
      "size": 1,
      "price": "4683000000000000000000",
      "reserved": "",
      "salt": "0xdc40ca0a59f8fc3950d5ecad82b71a1c6ae3e4c08ca4844ccfc55720968a3eea",
      "assetIds": [
        "41506478881403507969696680653240014914910929820314476107906210059990431967232",
        "41506478881403507969696680653240014914910929820314476107906210059990431967233"
      ]
    },
    {
      "x": 392,
      "y": 314,
      "size": 1,
      "price": "4683000000000000000000",
      "reserved": "",
      "salt": "0xdbe64183965ddcab9db87e180fc669d9fc2d34a21db94d912bf3a60f6aea91de",
      "assetIds": [
        "41506478881403507969696680653240014914910929820314476107906210059990431967235",
        "41506478881403507969696680653240014914910929820314476107906210059990431967236"
      ]
    },
    {
      "x": 393,
      "y": 314,
      "size": 1,
      "price": "4683000000000000000000",
      "reserved": "",
      "salt": "0xc6f79312354aa0d158bbb027c49dfd5e4acae3679c3ec28a658122181927d36c",
      "assetIds": [
        "41506478881403507969696680653240014914910929820314476107906210059990431967234",
        "41506478881403507969696680653240014914910929820314476107906210059990431967235"
      ]
    },
    {
      "x": 394,
      "y": 316,
      "size": 1,
      "price": "4683000000000000000000",
      "reserved": "",
      "salt": "0x10784b5ce3aad02892f05e22a2f65c4595eee318fac8a0c470089f40024a3916",
      "assetIds": [
        "41506478881403507969696680653240014914910929820314476107906210059990431967234",
        "41506478881403507969696680653240014914910929820314476107906210059990431967235"
      ]
    },
    {
      "x": 393,
      "y": 316,
      "size": 1,
      "price": "4683000000000000000000",
      "reserved": "",
      "salt": "0x8e59acb427df570c57659ed15ebf96fe680cf52ef86be82c73d6705b386fb26d",
      "assetIds": [
        "41506478881403507969696680653240014914910929820314476107906210059990431967232",
        "41506478881403507969696680653240014914910929820314476107906210059990431967233"
      ]
    },
    {
      "x": 392,
      "y": 316,
      "size": 1,
      "price": "4683000000000000000000",
      "reserved": "",
      "salt": "0xa1a1545ecd8de0b05a851187b8918c45a771acd59801dd0a8b006c39d3929c83",
      "assetIds": [
        "41506478881403507969696680653240014914910929820314476107906210059990431967235",
        "41506478881403507969696680653240014914910929820314476107906210059990431967236"
      ]
    },
    {
      "x": 391,
      "y": 316,
      "size": 1,
      "price": "4683000000000000000000",
      "reserved": "",
      "salt": "0x744e3ca840112bca9430d9db6257e00c1dd6a21d0a6be0c6a746ab1c1f789b74",
      "assetIds": [
        "41506478881403507969696680653240014914910929820314476107906210059990431967234",
        "41506478881403507969696680653240014914910929820314476107906210059990431967235"
      ]
    },
    {
      "x": 390,
      "y": 316,
      "size": 1,
      "price": "4683000000000000000000",
      "reserved": "",
      "salt": "0x840fa70c1feabbb70c1f1776feb8b7f284132db9ebb1c19b8e7ac2456b9c2e95",
      "assetIds": [
        "41506478881403507969696680653240014914910929820314476107906210059990431967233",
        "41506478881403507969696680653240014914910929820314476107906210059990431967234"
      ]
    },
    {
      "x": 389,
      "y": 316,
      "size": 1,
      "price": "4683000000000000000000",
      "reserved": "",
      "salt": "0x528bd3224f8e9da49d327bfce3eea7b62cbcfd34bdf1831c8aead71e1dfe7ff9",
      "assetIds": [
        "41506478881403507969696680653240014914910929820314476107906210059990431967233",
        "41506478881403507969696680653240014914910929820314476107906210059990431967234"
      ]
    },
    {
      "x": 390,
      "y": 315,
      "size": 1,
      "price": "4683000000000000000000",
      "reserved": "",
      "salt": "0x4113fd61e9c2696fc63b02e6d255f2ef9b2dcde902a6742f140bec8535d0a661",
      "assetIds": [
        "41506478881403507969696680653240014914910929820314476107906210059990431967232",
        "41506478881403507969696680653240014914910929820314476107906210059990431967233"
      ]
    },
    {
      "x": 391,
      "y": 315,
      "size": 1,
      "price": "4683000000000000000000",
      "reserved": "",
      "salt": "0x433fb47c7eb3927894298f66115c9e50a3846e31199aefd52d4a8a2148e708cb",
      "assetIds": [
        "41506478881403507969696680653240014914910929820314476107906210059990431967232",
        "41506478881403507969696680653240014914910929820314476107906210059990431967233"
      ]
    },
    {
      "x": 392,
      "y": 315,
      "size": 1,
      "price": "4683000000000000000000",
      "reserved": "",
      "salt": "0x24ac8111ac08fd4b96aa5f42bc52c24f8ac87d0b4b1cfabe2cc0fc7d5d60753b",
      "assetIds": [
        "41506478881403507969696680653240014914910929820314476107906210059990431967233",
        "41506478881403507969696680653240014914910929820314476107906210059990431967234"
      ]
    },
    {
      "x": 393,
      "y": 315,
      "size": 1,
      "price": "4683000000000000000000",
      "reserved": "",
      "salt": "0xe87247e349dad498c75d0b32d5465cd07afe59b06d57bd4129c6d12d9329958a",
      "assetIds": [
        "41506478881403507969696680653240014914910929820314476107906210059990431967234",
        "41506478881403507969696680653240014914910929820314476107906210059990431967235"
      ]
    },
    {
      "x": 402,
      "y": 312,
      "size": 1,
      "price": "4683000000000000000000",
      "reserved": "",
      "salt": "0x2a01ef3818e6a7a8c36340d38694340b080bbbc6ca127eadc2c9361265c7448a",
      "assetIds": [
        "41506478881403507969696680653240014914910929820314476107906210059990431967234",
        "41506478881403507969696680653240014914910929820314476107906210059990431967235"
      ]
    },
    {
      "x": 403,
      "y": 312,
      "size": 1,
      "price": "4683000000000000000000",
      "reserved": "",
      "salt": "0xeb5d1875cbe0ab1256acbb5e5c368739d327dce5e0a474b0f53d304fe26086c4",
      "assetIds": [
        "41506478881403507969696680653240014914910929820314476107906210059990431967233",
        "41506478881403507969696680653240014914910929820314476107906210059990431967234"
      ]
    },
    {
      "x": 404,
      "y": 312,
      "size": 1,
      "price": "4683000000000000000000",
      "reserved": "",
      "salt": "0xc90fec4832f6f214bd0429fdbd734a2e2105757768f062ae38f558f51a587595",
      "assetIds": [
        "41506478881403507969696680653240014914910929820314476107906210059990431967232",
        "41506478881403507969696680653240014914910929820314476107906210059990431967233"
      ]
    },
    {
      "x": 405,
      "y": 312,
      "size": 1,
      "price": "4683000000000000000000",
      "reserved": "",
      "salt": "0x2ae9ef6bcd8bb7613aa21775b1df7deab5ccf9d43fd61bc18444739f683d07db",
      "assetIds": [
        "41506478881403507969696680653240014914910929820314476107906210059990431967232",
        "41506478881403507969696680653240014914910929820314476107906210059990431967233"
      ]
    },
    {
      "x": 406,
      "y": 312,
      "size": 1,
      "price": "4683000000000000000000",
      "reserved": "",
      "salt": "0xaa04d8689bea1dbde773748ec95d2dae8313c4527be5ff901aa811ce0704103d",
      "assetIds": [
        "41506478881403507969696680653240014914910929820314476107906210059990431967233",
        "41506478881403507969696680653240014914910929820314476107906210059990431967234"
      ]
    },
    {
      "x": 407,
      "y": 312,
      "size": 1,
      "price": "4683000000000000000000",
      "reserved": "",
      "salt": "0x0965239e48dd5f360746a37cd320c0a4780a471c91fcf2a18dbf9a350f645048",
      "assetIds": [
        "41506478881403507969696680653240014914910929820314476107906210059990431967234",
        "41506478881403507969696680653240014914910929820314476107906210059990431967235"
      ]
    },
    {
      "x": 407,
      "y": 313,
      "size": 1,
      "price": "4683000000000000000000",
      "reserved": "",
      "salt": "0xb7187352f42f6f2713690df8d100da452f283625ced23435dd89e77340e96b4b",
      "assetIds": [
        "41506478881403507969696680653240014914910929820314476107906210059990431967232",
        "41506478881403507969696680653240014914910929820314476107906210059990431967233"
      ]
    },
    {
      "x": 407,
      "y": 314,
      "size": 1,
      "price": "4683000000000000000000",
      "reserved": "",
      "salt": "0x08bda86f310c07afec0e28dcdeed038a1fd385597fff26ed139f68320bd9231c",
      "assetIds": [
        "41506478881403507969696680653240014914910929820314476107906210059990431967235",
        "41506478881403507969696680653240014914910929820314476107906210059990431967236"
      ]
    },
    {
      "x": 407,
      "y": 315,
      "size": 1,
      "price": "4683000000000000000000",
      "reserved": "",
      "salt": "0x37d619cc2d632e0ec5a227c2808475371d6c240b0396ed4f7a4b23a1801a045b",
      "assetIds": [
        "41506478881403507969696680653240014914910929820314476107906210059990431967232",
        "41506478881403507969696680653240014914910929820314476107906210059990431967233"
      ]
    },
    {
      "x": 407,
      "y": 316,
      "size": 1,
      "price": "4683000000000000000000",
      "reserved": "",
      "salt": "0x2fb0fe6233de32467a196f136787da5cc5e8efd50f1290d8e8c240d5527d93d2",
      "assetIds": [
        "41506478881403507969696680653240014914910929820314476107906210059990431967232",
        "41506478881403507969696680653240014914910929820314476107906210059990431967233"
      ]
    },
    {
      "x": 407,
      "y": 317,
      "size": 1,
      "price": "4683000000000000000000",
      "reserved": "",
      "salt": "0x2215f7b62a1b6b9ed237616becee141d0101dc727a3a4ad8a727fc03c1a00413",
      "assetIds": [
        "41506478881403507969696680653240014914910929820314476107906210059990431967234",
        "41506478881403507969696680653240014914910929820314476107906210059990431967235"
      ]
    },
    {
      "x": 407,
      "y": 318,
      "size": 1,
      "price": "4683000000000000000000",
      "reserved": "",
      "salt": "0x7d0473e8b4c83bdd420e41e790273267766dfe40659cf67b04527dd7b1407245",
      "assetIds": [
        "41506478881403507969696680653240014914910929820314476107906210059990431967233",
        "41506478881403507969696680653240014914910929820314476107906210059990431967234"
      ]
    },
    {
      "x": 407,
      "y": 319,
      "size": 1,
      "price": "4683000000000000000000",
      "reserved": "",
      "salt": "0x86c2e718bdbcf86f3b62fc5fa6ed53a06cd54f8c1110f1782d699e8bed5df369",
      "assetIds": [
        "41506478881403507969696680653240014914910929820314476107906210059990431967235",
        "41506478881403507969696680653240014914910929820314476107906210059990431967236"
      ]
    },
    {
      "x": 407,
      "y": 320,
      "size": 1,
      "price": "4683000000000000000000",
      "reserved": "",
      "salt": "0xfe4659b699f04cf51ee384cd357f2d85cf1118acf6d98122275f43fe273fe546",
      "assetIds": [
        "41506478881403507969696680653240014914910929820314476107906210059990431967234",
        "41506478881403507969696680653240014914910929820314476107906210059990431967235"
      ]
    },
    {
      "x": 406,
      "y": 320,
      "size": 1,
      "price": "4683000000000000000000",
      "reserved": "",
      "salt": "0x33ebaf6bc7ceda0987da2d438f3a4862750069bf052c253ecbba88ec135bbe46",
      "assetIds": [
        "41506478881403507969696680653240014914910929820314476107906210059990431967232",
        "41506478881403507969696680653240014914910929820314476107906210059990431967233"
      ]
    },
    {
      "x": 405,
      "y": 320,
      "size": 1,
      "price": "4683000000000000000000",
      "reserved": "",
      "salt": "0xdaaec0fb0a8e28c6b631f63d6d772aa5508cfe3a34e80bedeb8a5d64a3afb5ac",
      "assetIds": [
        "41506478881403507969696680653240014914910929820314476107906210059990431967232",
        "41506478881403507969696680653240014914910929820314476107906210059990431967233"
      ]
    },
    {
      "x": 404,
      "y": 320,
      "size": 1,
      "price": "4683000000000000000000",
      "reserved": "",
      "salt": "0x46c6f46feceb23ba17a166775130a62c12b043c3caf18f3772ca06309b673833",
      "assetIds": [
        "41506478881403507969696680653240014914910929820314476107906210059990431967233",
        "41506478881403507969696680653240014914910929820314476107906210059990431967234"
      ]
    },
    {
      "x": 403,
      "y": 320,
      "size": 1,
      "price": "4683000000000000000000",
      "reserved": "",
      "salt": "0x41f44959fcdcd7a05e73cf7e996a63469fdcec9d8b09c4bfb5cb33275a7495b8",
      "assetIds": [
        "41506478881403507969696680653240014914910929820314476107906210059990431967235",
        "41506478881403507969696680653240014914910929820314476107906210059990431967236"
      ]
    },
    {
      "x": 403,
      "y": 319,
      "size": 1,
      "price": "4683000000000000000000",
      "reserved": "",
      "salt": "0x15aa7d32cb195f2ae9f90f6b5e48c252157783ed04cc9f54ef0579214dc76095",
      "assetIds": [
        "41506478881403507969696680653240014914910929820314476107906210059990431967233",
        "41506478881403507969696680653240014914910929820314476107906210059990431967234"
      ]
    },
    {
      "x": 403,
      "y": 318,
      "size": 1,
      "price": "4683000000000000000000",
      "reserved": "",
      "salt": "0xd8efd3696556d6ff2fc291a665b4ae597129c13b8a01b05cd10f465e08de5f59",
      "assetIds": [
        "41506478881403507969696680653240014914910929820314476107906210059990431967232",
        "41506478881403507969696680653240014914910929820314476107906210059990431967233"
      ]
    },
    {
      "x": 403,
      "y": 317,
      "size": 1,
      "price": "4683000000000000000000",
      "reserved": "",
      "salt": "0x6cad1dd0a77b8412329e68ad43d41e60ddf57e59ccf643b76aad98759c8fc594",
      "assetIds": [
        "41506478881403507969696680653240014914910929820314476107906210059990431967234",
        "41506478881403507969696680653240014914910929820314476107906210059990431967235"
      ]
    },
    {
      "x": 403,
      "y": 316,
      "size": 1,
      "price": "4683000000000000000000",
      "reserved": "",
      "salt": "0xad45194d530da8ea78e7d22909540568428f441ef2226ed1ca414c323dfdfa56",
      "assetIds": [
        "41506478881403507969696680653240014914910929820314476107906210059990431967234",
        "41506478881403507969696680653240014914910929820314476107906210059990431967235"
      ]
    },
    {
      "x": 403,
      "y": 315,
      "size": 1,
      "price": "4683000000000000000000",
      "reserved": "",
      "salt": "0x0c83f5fdec8dba36b6f9d9112524dff7e701053d70362eae6a611fe461be8f64",
      "assetIds": [
        "41506478881403507969696680653240014914910929820314476107906210059990431967233",
        "41506478881403507969696680653240014914910929820314476107906210059990431967234"
      ]
    },
    {
      "x": 403,
      "y": 314,
      "size": 1,
      "price": "4683000000000000000000",
      "reserved": "",
      "salt": "0xc99b328d7f9734b2512a593701593a249ae89e5ba478ce09c80ff84217cff3ae",
      "assetIds": [
        "41506478881403507969696680653240014914910929820314476107906210059990431967232",
        "41506478881403507969696680653240014914910929820314476107906210059990431967233"
      ]
    },
    {
      "x": 403,
      "y": 313,
      "size": 1,
      "price": "4683000000000000000000",
      "reserved": "",
      "salt": "0x795e599c611f881d2df2be69597490525fc2820cabd46cb2ce32fcb25119aa7f",
      "assetIds": [
        "41506478881403507969696680653240014914910929820314476107906210059990431967235",
        "41506478881403507969696680653240014914910929820314476107906210059990431967236"
      ]
    },
    {
      "x": 402,
      "y": 313,
      "size": 1,
      "price": "4683000000000000000000",
      "reserved": "",
      "salt": "0x13ec86f1ffbd60e8664a2b5808a44939844c4ecc00472e279199456986e6bb15",
      "assetIds": [
        "41506478881403507969696680653240014914910929820314476107906210059990431967235",
        "41506478881403507969696680653240014914910929820314476107906210059990431967236"
      ]
    },
    {
      "x": 402,
      "y": 314,
      "size": 1,
      "price": "4683000000000000000000",
      "reserved": "",
      "salt": "0xd00a58b244b608683216c8f5ac9a8e2297ae83614266b1728303622c14a282ff",
      "assetIds": [
        "41506478881403507969696680653240014914910929820314476107906210059990431967233",
        "41506478881403507969696680653240014914910929820314476107906210059990431967234"
      ]
    },
    {
      "x": 402,
      "y": 315,
      "size": 1,
      "price": "4683000000000000000000",
      "reserved": "",
      "salt": "0x738608ef08020bb4f1e2a1a82e37e73b5d02bd604754dad4d7680da83f48fb81",
      "assetIds": [
        "41506478881403507969696680653240014914910929820314476107906210059990431967235",
        "41506478881403507969696680653240014914910929820314476107906210059990431967236"
      ]
    },
    {
      "x": 402,
      "y": 316,
      "size": 1,
      "price": "4683000000000000000000",
      "reserved": "",
      "salt": "0xe1f3cf1ab374ab199f4b8235d924b966beb23f95ca086428aaba390845ebe1c0",
      "assetIds": [
        "41506478881403507969696680653240014914910929820314476107906210059990431967232",
        "41506478881403507969696680653240014914910929820314476107906210059990431967233"
      ]
    },
    {
      "x": 402,
      "y": 317,
      "size": 1,
      "price": "4683000000000000000000",
      "reserved": "",
      "salt": "0x8a9177cd17300c2f3b9cc1ee58718e953a86ffc9ec07c59135bfed8da004c0b5",
      "assetIds": [
        "41506478881403507969696680653240014914910929820314476107906210059990431967233",
        "41506478881403507969696680653240014914910929820314476107906210059990431967234"
      ]
    },
    {
      "x": 402,
      "y": 318,
      "size": 1,
      "price": "4683000000000000000000",
      "reserved": "",
      "salt": "0x4acd1732bfef90d34f687b01abd3de84401708665fcded9a1770f9ccb568434c",
      "assetIds": [
        "41506478881403507969696680653240014914910929820314476107906210059990431967235",
        "41506478881403507969696680653240014914910929820314476107906210059990431967236"
      ]
    },
    {
      "x": 404,
      "y": 318,
      "size": 1,
      "price": "4683000000000000000000",
      "reserved": "",
      "salt": "0x21e63ec21becae5e4b0249023b3271050f9047b000624e72966fc030273d7c99",
      "assetIds": [
        "41506478881403507969696680653240014914910929820314476107906210059990431967233",
        "41506478881403507969696680653240014914910929820314476107906210059990431967234"
      ]
    },
    {
      "x": 405,
      "y": 319,
      "size": 1,
      "price": "4683000000000000000000",
      "reserved": "",
      "salt": "0xaac92dbcc52c61c1cc35a1cf9dc1fd61a69d874894917f356a5994aad37c7e15",
      "assetIds": [
        "41506478881403507969696680653240014914910929820314476107906210059990431967234",
        "41506478881403507969696680653240014914910929820314476107906210059990431967235"
      ]
    },
    {
      "x": 406,
      "y": 319,
      "size": 1,
      "price": "4683000000000000000000",
      "reserved": "",
      "salt": "0x214d2f771cfd2a60448cd08d0f74668de31f2db6585a37795d3c4a776c973488",
      "assetIds": [
        "41506478881403507969696680653240014914910929820314476107906210059990431967234",
        "41506478881403507969696680653240014914910929820314476107906210059990431967235"
      ]
    },
    {
      "x": 404,
      "y": 319,
      "size": 1,
      "price": "4683000000000000000000",
      "reserved": "",
      "salt": "0x62a1f92e9911a6a49d25afb1f860350943923b226baa792ce59a4a61d1a1ca0a",
      "assetIds": [
        "41506478881403507969696680653240014914910929820314476107906210059990431967233",
        "41506478881403507969696680653240014914910929820314476107906210059990431967234"
      ]
    },
    {
      "x": 404,
      "y": 317,
      "size": 1,
      "price": "4683000000000000000000",
      "reserved": "",
      "salt": "0x6035e577412fc558a11ff0311bbde9485b7277e98e0b36fc4c84dcc264eb3532",
      "assetIds": [
        "41506478881403507969696680653240014914910929820314476107906210059990431967232",
        "41506478881403507969696680653240014914910929820314476107906210059990431967233"
      ]
    },
    {
      "x": 404,
      "y": 316,
      "size": 1,
      "price": "4683000000000000000000",
      "reserved": "",
      "salt": "0xaf2dd3ef121fb8193d6cf9c88de0bfba147a6c8193b0b781780aeb62a8db9697",
      "assetIds": [
        "41506478881403507969696680653240014914910929820314476107906210059990431967235",
        "41506478881403507969696680653240014914910929820314476107906210059990431967236"
      ]
    },
    {
      "x": 404,
      "y": 315,
      "size": 1,
      "price": "4683000000000000000000",
      "reserved": "",
      "salt": "0x078abe31afb465899dea5ddafb3e268b7c474e406dce3713812e7bf2798fba7b",
      "assetIds": [
        "41506478881403507969696680653240014914910929820314476107906210059990431967235",
        "41506478881403507969696680653240014914910929820314476107906210059990431967236"
      ]
    },
    {
      "x": 404,
      "y": 314,
      "size": 1,
      "price": "4683000000000000000000",
      "reserved": "",
      "salt": "0xaffc3823bf073cde8c85cca5bc6213e9b51009ca492c4dd847205ef89d0d3b06",
      "assetIds": [
        "41506478881403507969696680653240014914910929820314476107906210059990431967234",
        "41506478881403507969696680653240014914910929820314476107906210059990431967235"
      ]
    },
    {
      "x": 405,
      "y": 314,
      "size": 1,
      "price": "4683000000000000000000",
      "reserved": "",
      "salt": "0xf32aaaba6f364fc67740b26eae0ee1f645a9c8d63b91da2ed747828c41520f57",
      "assetIds": [
        "41506478881403507969696680653240014914910929820314476107906210059990431967234",
        "41506478881403507969696680653240014914910929820314476107906210059990431967235"
      ]
    },
    {
      "x": 406,
      "y": 313,
      "size": 1,
      "price": "4683000000000000000000",
      "reserved": "",
      "salt": "0xe44b239c33e85d8dec0551dbfedc8d6ae5b82aebb2e2fd8e6420952c7879e659",
      "assetIds": [
        "41506478881403507969696680653240014914910929820314476107906210059990431967234",
        "41506478881403507969696680653240014914910929820314476107906210059990431967235"
      ]
    },
    {
      "x": 405,
      "y": 313,
      "size": 1,
      "price": "4683000000000000000000",
      "reserved": "",
      "salt": "0xa81015042e9595f73172120bfeb18753454216e173915e7923e872eb8ea59ce6",
      "assetIds": [
        "41506478881403507969696680653240014914910929820314476107906210059990431967232",
        "41506478881403507969696680653240014914910929820314476107906210059990431967233"
      ]
    },
    {
      "x": 404,
      "y": 313,
      "size": 1,
      "price": "4683000000000000000000",
      "reserved": "",
      "salt": "0x9fdca70399664f8cc3f3a86523da3ab600bc7c20bbbf4f28da4c3da596d19ba1",
      "assetIds": [
        "41506478881403507969696680653240014914910929820314476107906210059990431967232",
        "41506478881403507969696680653240014914910929820314476107906210059990431967233"
      ]
    },
    {
      "x": 405,
      "y": 315,
      "size": 1,
      "price": "4683000000000000000000",
      "reserved": "",
      "salt": "0x1f1a7505eb18adff56f6a410e2a4d334530692c7618729b27f18ce2336126ae2",
      "assetIds": [
        "41506478881403507969696680653240014914910929820314476107906210059990431967234",
        "41506478881403507969696680653240014914910929820314476107906210059990431967235"
      ]
    },
    {
      "x": 405,
      "y": 316,
      "size": 1,
      "price": "4683000000000000000000",
      "reserved": "",
      "salt": "0xa917146eef2522f5b1063732f5cf71c63d97773fae7370589ddb3892fe3994b9",
      "assetIds": [
        "41506478881403507969696680653240014914910929820314476107906210059990431967235",
        "41506478881403507969696680653240014914910929820314476107906210059990431967236"
      ]
    },
    {
      "x": 405,
      "y": 317,
      "size": 1,
      "price": "4683000000000000000000",
      "reserved": "",
      "salt": "0x3bedc5e3257155003ddca47f30d098d4726e3343ef74a75f8350959758791810",
      "assetIds": [
        "41506478881403507969696680653240014914910929820314476107906210059990431967233",
        "41506478881403507969696680653240014914910929820314476107906210059990431967234"
      ]
    },
    {
      "x": 405,
      "y": 318,
      "size": 1,
      "price": "4683000000000000000000",
      "reserved": "",
      "salt": "0x6b38d62467e65829c2eba43203291d54ca560d680053b15e07141f31668e84ec",
      "assetIds": [
        "41506478881403507969696680653240014914910929820314476107906210059990431967235",
        "41506478881403507969696680653240014914910929820314476107906210059990431967236"
      ]
    },
    {
      "x": 406,
      "y": 317,
      "size": 1,
      "price": "4683000000000000000000",
      "reserved": "",
      "salt": "0xbb859a0b9404f47dc1d73fb0af6628488e5cf475b8d28e80cf4eec2c13db2741",
      "assetIds": [
        "41506478881403507969696680653240014914910929820314476107906210059990431967232",
        "41506478881403507969696680653240014914910929820314476107906210059990431967233"
      ]
    },
    {
      "x": 406,
      "y": 316,
      "size": 1,
      "price": "4683000000000000000000",
      "reserved": "",
      "salt": "0x513229ba5e367942636d25d4367e998f3ce82573704f9aad368e97f76d6f0c3f",
      "assetIds": [
        "41506478881403507969696680653240014914910929820314476107906210059990431967235",
        "41506478881403507969696680653240014914910929820314476107906210059990431967236"
      ]
    },
    {
      "x": 406,
      "y": 315,
      "size": 1,
      "price": "4683000000000000000000",
      "reserved": "",
      "salt": "0x418e5969e993ccb7094344d16ab1a306fc402fd158ea2322249fae7ce69c6aaf",
      "assetIds": [
        "41506478881403507969696680653240014914910929820314476107906210059990431967234",
        "41506478881403507969696680653240014914910929820314476107906210059990431967235"
      ]
    },
    {
      "x": 405,
      "y": 324,
      "size": 1,
      "price": "4683000000000000000000",
      "reserved": "",
      "salt": "0x32ede320974da25a7ac71c4010f90dafec9afa0aedff7566f7c664c07819e28d",
      "assetIds": [
        "41506478881403507969696680653240014914910929820314476107906210059990431967233",
        "41506478881403507969696680653240014914910929820314476107906210059990431967234"
      ]
    },
    {
      "x": 405,
      "y": 325,
      "size": 1,
      "price": "4683000000000000000000",
      "reserved": "",
      "salt": "0x5732d3c69897665d48b3a5ece959b4fc560a66a8ade345ac77c29f0945b9076c",
      "assetIds": [
        "41506478881403507969696680653240014914910929820314476107906210059990431967233",
        "41506478881403507969696680653240014914910929820314476107906210059990431967234"
      ]
    },
    {
      "x": 405,
      "y": 326,
      "size": 1,
      "price": "4683000000000000000000",
      "reserved": "",
      "salt": "0x1773ae42ed8ec646be8d1ee301aec28b8a6a077998295833e90299e3621cddba",
      "assetIds": [
        "41506478881403507969696680653240014914910929820314476107906210059990431967232",
        "41506478881403507969696680653240014914910929820314476107906210059990431967233"
      ]
    },
    {
      "x": 405,
      "y": 327,
      "size": 1,
      "price": "4683000000000000000000",
      "reserved": "",
      "salt": "0x8b866c4602fc7ccb47da37913b399424b1e79c826ed2d6511a9852481f38da22",
      "assetIds": [
        "41506478881403507969696680653240014914910929820314476107906210059990431967232",
        "41506478881403507969696680653240014914910929820314476107906210059990431967233"
      ]
    },
    {
      "x": 405,
      "y": 328,
      "size": 1,
      "price": "4683000000000000000000",
      "reserved": "",
      "salt": "0x7902d039bd51cad747d248b785990e4e17c5f9208f73ad4bf977fa6258745ae3",
      "assetIds": [
        "41506478881403507969696680653240014914910929820314476107906210059990431967233",
        "41506478881403507969696680653240014914910929820314476107906210059990431967234"
      ]
    },
    {
      "x": 405,
      "y": 329,
      "size": 1,
      "price": "4683000000000000000000",
      "reserved": "",
      "salt": "0xe6007e24cf29c9dc165fd0e964835ac1662e262ef39bf8e3b1a17f0fca037410",
      "assetIds": [
        "41506478881403507969696680653240014914910929820314476107906210059990431967232",
        "41506478881403507969696680653240014914910929820314476107906210059990431967233"
      ]
    },
    {
      "x": 405,
      "y": 330,
      "size": 1,
      "price": "4683000000000000000000",
      "reserved": "",
      "salt": "0x77ea56c6dcb873062d6db377832fddeb712c20859a813266e34d8548d765c228",
      "assetIds": [
        "41506478881403507969696680653240014914910929820314476107906210059990431967235",
        "41506478881403507969696680653240014914910929820314476107906210059990431967236"
      ]
    },
    {
      "x": 405,
      "y": 331,
      "size": 1,
      "price": "4683000000000000000000",
      "reserved": "",
      "salt": "0x1c9b181dc8173b00dcd1cb839eb0158198ef8f38aec05b8eae619e6df84a0861",
      "assetIds": [
        "41506478881403507969696680653240014914910929820314476107906210059990431967234",
        "41506478881403507969696680653240014914910929820314476107906210059990431967235"
      ]
    },
    {
      "x": 405,
      "y": 332,
      "size": 1,
      "price": "4683000000000000000000",
      "reserved": "",
      "salt": "0x0831dbd3c79b6eb56e5d229f857c5615412df12e53cfc96ce10cc8821e9ec626",
      "assetIds": [
        "41506478881403507969696680653240014914910929820314476107906210059990431967235",
        "41506478881403507969696680653240014914910929820314476107906210059990431967236"
      ]
    },
    {
      "x": 404,
      "y": 332,
      "size": 1,
      "price": "4683000000000000000000",
      "reserved": "",
      "salt": "0x3d097340648290061767b817128533569aae28fd0c6bcb030c2643d3cd269735",
      "assetIds": [
        "41506478881403507969696680653240014914910929820314476107906210059990431967233",
        "41506478881403507969696680653240014914910929820314476107906210059990431967234"
      ]
    },
    {
      "x": 404,
      "y": 333,
      "size": 1,
      "price": "4683000000000000000000",
      "reserved": "",
      "salt": "0x24d645367f8366ec69abdf877e76ced37507fa641abcfad637eeeb34f79f97b4",
      "assetIds": [
        "41506478881403507969696680653240014914910929820314476107906210059990431967233",
        "41506478881403507969696680653240014914910929820314476107906210059990431967234"
      ]
    },
    {
      "x": 403,
      "y": 333,
      "size": 1,
      "price": "4683000000000000000000",
      "reserved": "",
      "salt": "0xc0c76f7217461b72dc720db8193e1a16a114aa37be22b3413eb0f6fea947afe7",
      "assetIds": [
        "41506478881403507969696680653240014914910929820314476107906210059990431967232",
        "41506478881403507969696680653240014914910929820314476107906210059990431967233"
      ]
    },
    {
      "x": 403,
      "y": 334,
      "size": 1,
      "price": "4683000000000000000000",
      "reserved": "",
      "salt": "0x9733f3d8b42d2f9d3e88c881c69e322bb5fcadf8e4f904c8b8011ac23c1ea9e4",
      "assetIds": [
        "41506478881403507969696680653240014914910929820314476107906210059990431967232",
        "41506478881403507969696680653240014914910929820314476107906210059990431967233"
      ]
    },
    {
      "x": 403,
      "y": 335,
      "size": 1,
      "price": "4683000000000000000000",
      "reserved": "",
      "salt": "0x923631937b6fd08a57449cea06343a1f34540a78d910c97e30a0b8213cfc914d",
      "assetIds": [
        "41506478881403507969696680653240014914910929820314476107906210059990431967232",
        "41506478881403507969696680653240014914910929820314476107906210059990431967233"
      ]
    },
    {
      "x": 402,
      "y": 335,
      "size": 1,
      "price": "4683000000000000000000",
      "reserved": "",
      "salt": "0xe5e67db76ab3cd6852104209baee4f2d3a7a928963c63f1ee1ec0ff41509a794",
      "assetIds": [
        "41506478881403507969696680653240014914910929820314476107906210059990431967234",
        "41506478881403507969696680653240014914910929820314476107906210059990431967235"
      ]
    },
    {
      "x": 401,
      "y": 335,
      "size": 1,
      "price": "4683000000000000000000",
      "reserved": "",
      "salt": "0x25ac2a37fa40733928157dfd54031cf847003ae614dbab6e59960340071442f6",
      "assetIds": [
        "41506478881403507969696680653240014914910929820314476107906210059990431967232",
        "41506478881403507969696680653240014914910929820314476107906210059990431967233"
      ]
    },
    {
      "x": 400,
      "y": 335,
      "size": 1,
      "price": "4683000000000000000000",
      "reserved": "",
      "salt": "0xb9232007f40b8c540cf3b08862b0d8f4290d78d20d024debd3f395522ae4a1f8",
      "assetIds": [
        "41506478881403507969696680653240014914910929820314476107906210059990431967232",
        "41506478881403507969696680653240014914910929820314476107906210059990431967233"
      ]
    },
    {
      "x": 399,
      "y": 335,
      "size": 1,
      "price": "4683000000000000000000",
      "reserved": "",
      "salt": "0x0fa1b669c494026eb00134425c3cb3168d0294a46e9ed076126d1490b246cd9f",
      "assetIds": [
        "41506478881403507969696680653240014914910929820314476107906210059990431967234",
        "41506478881403507969696680653240014914910929820314476107906210059990431967235"
      ]
    },
    {
      "x": 398,
      "y": 335,
      "size": 1,
      "price": "4683000000000000000000",
      "reserved": "",
      "salt": "0xc97b961186ad2d9786203b52b14ccf8a56f5ad2b65e235b1c4caffcbb6ddfce3",
      "assetIds": [
        "41506478881403507969696680653240014914910929820314476107906210059990431967235",
        "41506478881403507969696680653240014914910929820314476107906210059990431967236"
      ]
    },
    {
      "x": 397,
      "y": 335,
      "size": 1,
      "price": "4683000000000000000000",
      "reserved": "",
      "salt": "0x7d75ef6a1e664e65e6309695f6a78f999ea6a1b6a15aeccb17142f6822d093e4",
      "assetIds": [
        "41506478881403507969696680653240014914910929820314476107906210059990431967232",
        "41506478881403507969696680653240014914910929820314476107906210059990431967233"
      ]
    },
    {
      "x": 396,
      "y": 335,
      "size": 1,
      "price": "4683000000000000000000",
      "reserved": "",
      "salt": "0x9450f32b1cc62efbe99909bf882092fc811b54138027f2fd1b7eaabbfebb5cbe",
      "assetIds": [
        "41506478881403507969696680653240014914910929820314476107906210059990431967233",
        "41506478881403507969696680653240014914910929820314476107906210059990431967234"
      ]
    },
    {
      "x": 396,
      "y": 334,
      "size": 1,
      "price": "4683000000000000000000",
      "reserved": "",
      "salt": "0x90c3e19a94b70551c4e45d970c71f38777823addc2ba39fd14ea8be14c61fe64",
      "assetIds": [
        "41506478881403507969696680653240014914910929820314476107906210059990431967235",
        "41506478881403507969696680653240014914910929820314476107906210059990431967236"
      ]
    },
    {
      "x": 396,
      "y": 333,
      "size": 1,
      "price": "4683000000000000000000",
      "reserved": "",
      "salt": "0x2ec60a6865c5f662daf887935d105d265d124713bc9d8be3bd694b13bffb7d1e",
      "assetIds": [
        "41506478881403507969696680653240014914910929820314476107906210059990431967233",
        "41506478881403507969696680653240014914910929820314476107906210059990431967234"
      ]
    },
    {
      "x": 396,
      "y": 332,
      "size": 1,
      "price": "4683000000000000000000",
      "reserved": "",
      "salt": "0x1784aea3d7a243f8ef00af144f7cefaeb648685f842193ff729158a94ae36fc0",
      "assetIds": [
        "41506478881403507969696680653240014914910929820314476107906210059990431967233",
        "41506478881403507969696680653240014914910929820314476107906210059990431967234"
      ]
    },
    {
      "x": 396,
      "y": 331,
      "size": 1,
      "price": "4683000000000000000000",
      "reserved": "",
      "salt": "0xed8170dc03133917753f261d4f2b0239977fc223bba4448cc8b1efa12b796d65",
      "assetIds": [
        "41506478881403507969696680653240014914910929820314476107906210059990431967233",
        "41506478881403507969696680653240014914910929820314476107906210059990431967234"
      ]
    },
    {
      "x": 396,
      "y": 330,
      "size": 1,
      "price": "4683000000000000000000",
      "reserved": "",
      "salt": "0x82f4888024ff0c96c8ab7788cdc2296fc4b49932b8431a702dce2e596fc465ec",
      "assetIds": [
        "41506478881403507969696680653240014914910929820314476107906210059990431967234",
        "41506478881403507969696680653240014914910929820314476107906210059990431967235"
      ]
    },
    {
      "x": 396,
      "y": 329,
      "size": 1,
      "price": "4683000000000000000000",
      "reserved": "",
      "salt": "0x43ee360505ccd586b5b8f012daede24cb8f316da8631741ac3a453d4f6be87c6",
      "assetIds": [
        "41506478881403507969696680653240014914910929820314476107906210059990431967235",
        "41506478881403507969696680653240014914910929820314476107906210059990431967236"
      ]
    },
    {
      "x": 396,
      "y": 328,
      "size": 1,
      "price": "4683000000000000000000",
      "reserved": "",
      "salt": "0xbe8aa235d0ddf15293ccf19ddf0496aeabb613d1985cbbae2ab537330f091eac",
      "assetIds": [
        "41506478881403507969696680653240014914910929820314476107906210059990431967232",
        "41506478881403507969696680653240014914910929820314476107906210059990431967233"
      ]
    },
    {
      "x": 396,
      "y": 327,
      "size": 1,
      "price": "4683000000000000000000",
      "reserved": "",
      "salt": "0xe1c486f2cd8777e3c93651ed7ee050b4cfec3448663248048580c890a73efc85",
      "assetIds": [
        "41506478881403507969696680653240014914910929820314476107906210059990431967234",
        "41506478881403507969696680653240014914910929820314476107906210059990431967235"
      ]
    },
    {
      "x": 396,
      "y": 326,
      "size": 1,
      "price": "4683000000000000000000",
      "reserved": "",
      "salt": "0x8acd9cf5db6ada97eac94c59f37afec0ee67472dd59f5ad19c6d089ee8191c3e",
      "assetIds": [
        "41506478881403507969696680653240014914910929820314476107906210059990431967234",
        "41506478881403507969696680653240014914910929820314476107906210059990431967235"
      ]
    },
    {
      "x": 396,
      "y": 325,
      "size": 1,
      "price": "4683000000000000000000",
      "reserved": "",
      "salt": "0x84b48685498d3b6a27275647fd108936f58cd0d371328b127df60e90cfda4026",
      "assetIds": [
        "41506478881403507969696680653240014914910929820314476107906210059990431967234",
        "41506478881403507969696680653240014914910929820314476107906210059990431967235"
      ]
    },
    {
      "x": 396,
      "y": 324,
      "size": 1,
      "price": "4683000000000000000000",
      "reserved": "",
      "salt": "0xa93d5d22fd9f7c3089e52cdadb95cfe1d9585fbe132a4ac2132d3fdd8783ba53",
      "assetIds": [
        "41506478881403507969696680653240014914910929820314476107906210059990431967233",
        "41506478881403507969696680653240014914910929820314476107906210059990431967234"
      ]
    },
    {
      "x": 396,
      "y": 323,
      "size": 1,
      "price": "4683000000000000000000",
      "reserved": "",
      "salt": "0xe72ee415060a210bbd1e3c420471606b28670524bd742f5d382515bde74edf10",
      "assetIds": [
        "41506478881403507969696680653240014914910929820314476107906210059990431967234",
        "41506478881403507969696680653240014914910929820314476107906210059990431967235"
      ]
    },
    {
      "x": 396,
      "y": 322,
      "size": 1,
      "price": "4683000000000000000000",
      "reserved": "",
      "salt": "0xd5152be798df43b53598ed10208672386728da0a2e27361b4058001a651663a3",
      "assetIds": [
        "41506478881403507969696680653240014914910929820314476107906210059990431967234",
        "41506478881403507969696680653240014914910929820314476107906210059990431967235"
      ]
    },
    {
      "x": 396,
      "y": 321,
      "size": 1,
      "price": "4683000000000000000000",
      "reserved": "",
      "salt": "0x81b81b2cab33ea90f592186ea4998139c1a2c4708adfd2f17da693cee52542e5",
      "assetIds": [
        "41506478881403507969696680653240014914910929820314476107906210059990431967234",
        "41506478881403507969696680653240014914910929820314476107906210059990431967235"
      ]
    },
    {
      "x": 396,
      "y": 320,
      "size": 1,
      "price": "4683000000000000000000",
      "reserved": "",
      "salt": "0x8e6309d5e98da6962fc09208ba1a3400932e3b6be18a4bf3eaf1fa94ccca2754",
      "assetIds": [
        "41506478881403507969696680653240014914910929820314476107906210059990431967233",
        "41506478881403507969696680653240014914910929820314476107906210059990431967234"
      ]
    },
    {
      "x": 396,
      "y": 319,
      "size": 1,
      "price": "4683000000000000000000",
      "reserved": "",
      "salt": "0x3724c5c1be42a75bf8916a66a9b19cc728875da16476fa35e1c1e4db212d526c",
      "assetIds": [
        "41506478881403507969696680653240014914910929820314476107906210059990431967234",
        "41506478881403507969696680653240014914910929820314476107906210059990431967235"
      ]
    },
    {
      "x": 396,
      "y": 318,
      "size": 1,
      "price": "4683000000000000000000",
      "reserved": "",
      "salt": "0xd5fb1c097843d3f8a91c520760ac529cf6fc4ed7aca81eb7e67ee8519f81dec2",
      "assetIds": [
        "41506478881403507969696680653240014914910929820314476107906210059990431967235",
        "41506478881403507969696680653240014914910929820314476107906210059990431967236"
      ]
    },
    {
      "x": 395,
      "y": 318,
      "size": 1,
      "price": "4683000000000000000000",
      "reserved": "",
      "salt": "0x185b864cdd415c34b6eb0e2ac85bf1fe95edd3e7c7a41f456806a2728072808d",
      "assetIds": [
        "41506478881403507969696680653240014914910929820314476107906210059990431967234",
        "41506478881403507969696680653240014914910929820314476107906210059990431967235"
      ]
    },
    {
      "x": 394,
      "y": 318,
      "size": 1,
      "price": "4683000000000000000000",
      "reserved": "",
      "salt": "0xb5447c02a41acebacc034a953e86b53e747a0d6ec1245c2076fabf6d8d4a0997",
      "assetIds": [
        "41506478881403507969696680653240014914910929820314476107906210059990431967233",
        "41506478881403507969696680653240014914910929820314476107906210059990431967234"
      ]
    },
    {
      "x": 393,
      "y": 318,
      "size": 1,
      "price": "4683000000000000000000",
      "reserved": "",
      "salt": "0xd044ec551ca3f9a361bd15bcb8dab75e4fdb4af4bfdaeb5928fde45bf0113c6a",
      "assetIds": [
        "41506478881403507969696680653240014914910929820314476107906210059990431967233",
        "41506478881403507969696680653240014914910929820314476107906210059990431967234"
      ]
    },
    {
      "x": 392,
      "y": 318,
      "size": 1,
      "price": "4683000000000000000000",
      "reserved": "",
      "salt": "0xe3f49f82b79333750f6118760a74f80202c18ecb999b38f9923fdc7d7498be91",
      "assetIds": [
        "41506478881403507969696680653240014914910929820314476107906210059990431967235",
        "41506478881403507969696680653240014914910929820314476107906210059990431967236"
      ]
    },
    {
      "x": 391,
      "y": 318,
      "size": 1,
      "price": "4683000000000000000000",
      "reserved": "",
      "salt": "0xdfea871452159497156897ad8a379d43e70bdeead3c67564a7929e760e22c168",
      "assetIds": [
        "41506478881403507969696680653240014914910929820314476107906210059990431967235",
        "41506478881403507969696680653240014914910929820314476107906210059990431967236"
      ]
    },
    {
      "x": 390,
      "y": 318,
      "size": 1,
      "price": "4683000000000000000000",
      "reserved": "",
      "salt": "0x7bdfbd80695df2201ffcc9be06c350de13d1754871ca50a4d41cedd8ef481067",
      "assetIds": [
        "41506478881403507969696680653240014914910929820314476107906210059990431967232",
        "41506478881403507969696680653240014914910929820314476107906210059990431967233"
      ]
    },
    {
      "x": 390,
      "y": 319,
      "size": 1,
      "price": "4683000000000000000000",
      "reserved": "",
      "salt": "0x5ec52ce00a0c4f5e76d786e059c02c6db38b8e7686290bb862a42426767f77f0",
      "assetIds": [
        "41506478881403507969696680653240014914910929820314476107906210059990431967232",
        "41506478881403507969696680653240014914910929820314476107906210059990431967233"
      ]
    },
    {
      "x": 390,
      "y": 320,
      "size": 1,
      "price": "4683000000000000000000",
      "reserved": "",
      "salt": "0xb0cb111ab929bce575f5234584d74f4880e247bd58308e8ee85ec846d747f6aa",
      "assetIds": [
        "41506478881403507969696680653240014914910929820314476107906210059990431967234",
        "41506478881403507969696680653240014914910929820314476107906210059990431967235"
      ]
    },
    {
      "x": 390,
      "y": 321,
      "size": 1,
      "price": "4683000000000000000000",
      "reserved": "",
      "salt": "0x71f431f0db5049f3b3fe0c0549b3378b79916e5206351a9d71f2ba73f16f3e51",
      "assetIds": [
        "41506478881403507969696680653240014914910929820314476107906210059990431967233",
        "41506478881403507969696680653240014914910929820314476107906210059990431967234"
      ]
    },
    {
      "x": 391,
      "y": 322,
      "size": 1,
      "price": "4683000000000000000000",
      "reserved": "",
      "salt": "0x82394d193f85dce4739118c8b9a7d07f0c6b7c1dfd7d5f4b5715f5e25fca37f3",
      "assetIds": [
        "41506478881403507969696680653240014914910929820314476107906210059990431967232",
        "41506478881403507969696680653240014914910929820314476107906210059990431967233"
      ]
    },
    {
      "x": 391,
      "y": 323,
      "size": 1,
      "price": "4683000000000000000000",
      "reserved": "",
      "salt": "0x829b673d9a0ab2850a6f2c9dd1868cc0dbdaf6622e3af6251c4248084d390cc1",
      "assetIds": [
        "41506478881403507969696680653240014914910929820314476107906210059990431967232",
        "41506478881403507969696680653240014914910929820314476107906210059990431967233"
      ]
    },
    {
      "x": 393,
      "y": 323,
      "size": 1,
      "price": "4683000000000000000000",
      "reserved": "",
      "salt": "0x068b57bb54598f780b184f54bc39dbfa110ab6b63f3591aeb6213b2dc92ae221",
      "assetIds": [
        "41506478881403507969696680653240014914910929820314476107906210059990431967232",
        "41506478881403507969696680653240014914910929820314476107906210059990431967233"
      ]
    },
    {
      "x": 394,
      "y": 323,
      "size": 1,
      "price": "4683000000000000000000",
      "reserved": "",
      "salt": "0x0113828c302d206cda8e8586ff6c701a8b3a92a6212c546b6b17d17ef71a628d",
      "assetIds": [
        "41506478881403507969696680653240014914910929820314476107906210059990431967233",
        "41506478881403507969696680653240014914910929820314476107906210059990431967234"
      ]
    },
    {
      "x": 395,
      "y": 323,
      "size": 1,
      "price": "4683000000000000000000",
      "reserved": "",
      "salt": "0x2929763a5624b620f20c22b73f404592c1cdd559bdcdba0ccc454aed3ed828de",
      "assetIds": [
        "41506478881403507969696680653240014914910929820314476107906210059990431967234",
        "41506478881403507969696680653240014914910929820314476107906210059990431967235"
      ]
    },
    {
      "x": 395,
      "y": 320,
      "size": 1,
      "price": "4683000000000000000000",
      "reserved": "",
      "salt": "0x6ea6bc557d2fe4f623c4fe8b752a0067d96eaf64d1c2970949dc3d5763d6ef9e",
      "assetIds": [
        "41506478881403507969696680653240014914910929820314476107906210059990431967234",
        "41506478881403507969696680653240014914910929820314476107906210059990431967235"
      ]
    },
    {
      "x": 395,
      "y": 319,
      "size": 1,
      "price": "4683000000000000000000",
      "reserved": "",
      "salt": "0x92ae321481284af2388b64626b02f19c2bdec8c9e595f82ddd5e56463471237a",
      "assetIds": [
        "41506478881403507969696680653240014914910929820314476107906210059990431967233",
        "41506478881403507969696680653240014914910929820314476107906210059990431967234"
      ]
    },
    {
      "x": 394,
      "y": 319,
      "size": 1,
      "price": "4683000000000000000000",
      "reserved": "",
      "salt": "0x2885b6cb93c4bdbdfbb41145919e4938df97e10102a85473164f997ce5dfc29b",
      "assetIds": [
        "41506478881403507969696680653240014914910929820314476107906210059990431967232",
        "41506478881403507969696680653240014914910929820314476107906210059990431967233"
      ]
    },
    {
      "x": 394,
      "y": 320,
      "size": 1,
      "price": "4683000000000000000000",
      "reserved": "",
      "salt": "0x0d114c7892571fd1b6fab84c83cbe42b41b19cc042eddd9cf06a822af27a0a65",
      "assetIds": [
        "41506478881403507969696680653240014914910929820314476107906210059990431967232",
        "41506478881403507969696680653240014914910929820314476107906210059990431967233"
      ]
    },
    {
      "x": 394,
      "y": 321,
      "size": 1,
      "price": "4683000000000000000000",
      "reserved": "",
      "salt": "0x8a6d92794e9d1268b425c04b5bc2061d57b238d2579e09cedc317e5f485423d3",
      "assetIds": [
        "41506478881403507969696680653240014914910929820314476107906210059990431967233",
        "41506478881403507969696680653240014914910929820314476107906210059990431967234"
      ]
    },
    {
      "x": 395,
      "y": 321,
      "size": 1,
      "price": "4683000000000000000000",
      "reserved": "",
      "salt": "0x10d9ad6aadb371f50d7e544c9bd0e696e828f5520212b86cc69d19bc373a51a9",
      "assetIds": [
        "41506478881403507969696680653240014914910929820314476107906210059990431967235",
        "41506478881403507969696680653240014914910929820314476107906210059990431967236"
      ]
    },
    {
      "x": 395,
      "y": 322,
      "size": 1,
      "price": "4683000000000000000000",
      "reserved": "",
      "salt": "0xf8a232a8d6eba1b211f6aeb51e9d4e37a382379e13f8215902e9cdd408e571ae",
      "assetIds": [
        "41506478881403507969696680653240014914910929820314476107906210059990431967235",
        "41506478881403507969696680653240014914910929820314476107906210059990431967236"
      ]
    },
    {
      "x": 397,
      "y": 323,
      "size": 1,
      "price": "4683000000000000000000",
      "reserved": "",
      "salt": "0xdfabe09cf7550b76527672ff59a8e785f5da4dfdd02faa7058089caafe9fcf6c",
      "assetIds": [
        "41506478881403507969696680653240014914910929820314476107906210059990431967234",
        "41506478881403507969696680653240014914910929820314476107906210059990431967235"
      ]
    },
    {
      "x": 397,
      "y": 324,
      "size": 1,
      "price": "4683000000000000000000",
      "reserved": "",
      "salt": "0x5fb5992bcbb3e37cb9f2de8336b03b7f1aeeb11c9e0b75c402710b4125ca1982",
      "assetIds": [
        "41506478881403507969696680653240014914910929820314476107906210059990431967235",
        "41506478881403507969696680653240014914910929820314476107906210059990431967236"
      ]
    },
    {
      "x": 394,
      "y": 322,
      "size": 1,
      "price": "4683000000000000000000",
      "reserved": "",
      "salt": "0x31afbad5f61c3c282369b35f31f39b28036aac75c773b27879f2e2bab09981a6",
      "assetIds": [
        "41506478881403507969696680653240014914910929820314476107906210059990431967234",
        "41506478881403507969696680653240014914910929820314476107906210059990431967235"
      ]
    },
    {
      "x": 393,
      "y": 322,
      "size": 1,
      "price": "4683000000000000000000",
      "reserved": "",
      "salt": "0xa5a0dc9afda7dd3e1d784d781122b1e44f8cc25c964add7aed075ca5c29732bc",
      "assetIds": [
        "41506478881403507969696680653240014914910929820314476107906210059990431967233",
        "41506478881403507969696680653240014914910929820314476107906210059990431967234"
      ]
    },
    {
      "x": 393,
      "y": 321,
      "size": 1,
      "price": "4683000000000000000000",
      "reserved": "",
      "salt": "0xf9af1b6fddd3327fe38d2d6c78cedccc802fd4a5ba8f5d6ab6ac73c95b44d8fc",
      "assetIds": [
        "41506478881403507969696680653240014914910929820314476107906210059990431967233",
        "41506478881403507969696680653240014914910929820314476107906210059990431967234"
      ]
    },
    {
      "x": 393,
      "y": 320,
      "size": 1,
      "price": "4683000000000000000000",
      "reserved": "",
      "salt": "0x3820351764838544fa79af34ab6632d79c70b208412b2b93d2a3a6dc714c3618",
      "assetIds": [
        "41506478881403507969696680653240014914910929820314476107906210059990431967233",
        "41506478881403507969696680653240014914910929820314476107906210059990431967234"
      ]
    },
    {
      "x": 392,
      "y": 319,
      "size": 1,
      "price": "4683000000000000000000",
      "reserved": "",
      "salt": "0x1cd9fe00f2245f198b44873029a4e05539778d32661ffde9876891db7818828a",
      "assetIds": [
        "41506478881403507969696680653240014914910929820314476107906210059990431967233",
        "41506478881403507969696680653240014914910929820314476107906210059990431967234"
      ]
    },
    {
      "x": 393,
      "y": 319,
      "size": 1,
      "price": "4683000000000000000000",
      "reserved": "",
      "salt": "0xa7da2d29150371d044fdf700323c2f5532fab9207d9fec6b53b8cef7c8eca5f8",
      "assetIds": [
        "41506478881403507969696680653240014914910929820314476107906210059990431967233",
        "41506478881403507969696680653240014914910929820314476107906210059990431967234"
      ]
    },
    {
      "x": 391,
      "y": 319,
      "size": 1,
      "price": "4683000000000000000000",
      "reserved": "",
      "salt": "0x66e174ba12e3fd2805426aca56c84597d2e237dbb1233c244e7ac16432063279",
      "assetIds": [
        "41506478881403507969696680653240014914910929820314476107906210059990431967233",
        "41506478881403507969696680653240014914910929820314476107906210059990431967234"
      ]
    },
    {
      "x": 391,
      "y": 320,
      "size": 1,
      "price": "4683000000000000000000",
      "reserved": "",
      "salt": "0xfcaa506e23e015b087cf01e63a69bae09133e8d21b0f2151780a5d6787386551",
      "assetIds": [
        "41506478881403507969696680653240014914910929820314476107906210059990431967232",
        "41506478881403507969696680653240014914910929820314476107906210059990431967233"
      ]
    },
    {
      "x": 392,
      "y": 320,
      "size": 1,
      "price": "4683000000000000000000",
      "reserved": "",
      "salt": "0x6eabb688fe26810606407386795effb9ba70c5adeb9a3bee7498045e23087642",
      "assetIds": [
        "41506478881403507969696680653240014914910929820314476107906210059990431967234",
        "41506478881403507969696680653240014914910929820314476107906210059990431967235"
      ]
    },
    {
      "x": 392,
      "y": 321,
      "size": 1,
      "price": "4683000000000000000000",
      "reserved": "",
      "salt": "0x5f1fb1c1fa39e9d2d0e06168518fbbdb78ac9b0152fe89fa338eaddee70955c3",
      "assetIds": [
        "41506478881403507969696680653240014914910929820314476107906210059990431967235",
        "41506478881403507969696680653240014914910929820314476107906210059990431967236"
      ]
    },
    {
      "x": 392,
      "y": 323,
      "size": 1,
      "price": "4683000000000000000000",
      "reserved": "",
      "salt": "0xed5e27e433d440c586a6f68373927a3f9585726d65436ba784459613b6dbb803",
      "assetIds": [
        "41506478881403507969696680653240014914910929820314476107906210059990431967232",
        "41506478881403507969696680653240014914910929820314476107906210059990431967233"
      ]
    },
    {
      "x": 392,
      "y": 322,
      "size": 1,
      "price": "4683000000000000000000",
      "reserved": "",
      "salt": "0x74dbc92b1d8216cf1ed47aa686ac2ba4b217e4c6c14499994872cc96dc0d9558",
      "assetIds": [
        "41506478881403507969696680653240014914910929820314476107906210059990431967233",
        "41506478881403507969696680653240014914910929820314476107906210059990431967234"
      ]
    },
    {
      "x": 390,
      "y": 322,
      "size": 1,
      "price": "4683000000000000000000",
      "reserved": "",
      "salt": "0x026309c8ce90d932ca7724334446a92fa07f8e312b37312be2ef2aab2c08ddbe",
      "assetIds": [
        "41506478881403507969696680653240014914910929820314476107906210059990431967232",
        "41506478881403507969696680653240014914910929820314476107906210059990431967233"
      ]
    },
    {
      "x": 390,
      "y": 323,
      "size": 1,
      "price": "4683000000000000000000",
      "reserved": "",
      "salt": "0x6131243aa8a64da8c50b8117225328263c43bf2ebc59c64e3770b84942cbf608",
      "assetIds": [
        "41506478881403507969696680653240014914910929820314476107906210059990431967234",
        "41506478881403507969696680653240014914910929820314476107906210059990431967235"
      ]
    },
    {
      "x": 397,
      "y": 322,
      "size": 1,
      "price": "4683000000000000000000",
      "reserved": "",
      "salt": "0xe9a5681ca61b37f4cefd3c704b3370e432e0b43f872b584a3d563a1d5ad70231",
      "assetIds": [
        "41506478881403507969696680653240014914910929820314476107906210059990431967235",
        "41506478881403507969696680653240014914910929820314476107906210059990431967236"
      ]
    },
    {
      "x": 397,
      "y": 321,
      "size": 1,
      "price": "4683000000000000000000",
      "reserved": "",
      "salt": "0x6887bdaf238c428f01a6b99708ac313d03ad79e7ba0d2f2d2e02742972887529",
      "assetIds": [
        "41506478881403507969696680653240014914910929820314476107906210059990431967232",
        "41506478881403507969696680653240014914910929820314476107906210059990431967233"
      ]
    },
    {
      "x": 398,
      "y": 321,
      "size": 1,
      "price": "4683000000000000000000",
      "reserved": "",
      "salt": "0x5932b00ce71e46be0b8b69f1a736b587984b691fe317e382fdd5812057384065",
      "assetIds": [
        "41506478881403507969696680653240014914910929820314476107906210059990431967234",
        "41506478881403507969696680653240014914910929820314476107906210059990431967235"
      ]
    },
    {
      "x": 399,
      "y": 320,
      "size": 1,
      "price": "4683000000000000000000",
      "reserved": "",
      "salt": "0x23a5cc516fc3c87e016bdbac88fba7c509928494d0732fdf0c5c5f6e2fd47875",
      "assetIds": [
        "41506478881403507969696680653240014914910929820314476107906210059990431967232",
        "41506478881403507969696680653240014914910929820314476107906210059990431967233"
      ]
    },
    {
      "x": 399,
      "y": 319,
      "size": 1,
      "price": "4683000000000000000000",
      "reserved": "",
      "salt": "0x5c0ee3f8b831bc992c4bd8d8e8564197317f5b442cb87c1223780441017a1006",
      "assetIds": [
        "41506478881403507969696680653240014914910929820314476107906210059990431967232",
        "41506478881403507969696680653240014914910929820314476107906210059990431967233"
      ]
    },
    {
      "x": 400,
      "y": 319,
      "size": 1,
      "price": "4683000000000000000000",
      "reserved": "",
      "salt": "0x31ec1c52ce00c6546aefc84282ac493878cef15caeed42a9c71b0c3b68200cf3",
      "assetIds": [
        "41506478881403507969696680653240014914910929820314476107906210059990431967234",
        "41506478881403507969696680653240014914910929820314476107906210059990431967235"
      ]
    },
    {
      "x": 401,
      "y": 319,
      "size": 1,
      "price": "4683000000000000000000",
      "reserved": "",
      "salt": "0x8f82380512ca611616d22c2d3ff95d061f30ce9bcfc129520af0b00c62eaefb8",
      "assetIds": [
        "41506478881403507969696680653240014914910929820314476107906210059990431967235",
        "41506478881403507969696680653240014914910929820314476107906210059990431967236"
      ]
    },
    {
      "x": 400,
      "y": 318,
      "size": 1,
      "price": "4683000000000000000000",
      "reserved": "",
      "salt": "0x0a407582ca69847470c472215ce52080907f61b937de4e4968ca54c1b877c1ca",
      "assetIds": [
        "41506478881403507969696680653240014914910929820314476107906210059990431967235",
        "41506478881403507969696680653240014914910929820314476107906210059990431967236"
      ]
    },
    {
      "x": 399,
      "y": 318,
      "size": 1,
      "price": "4683000000000000000000",
      "reserved": "",
      "salt": "0xed6cbdb067aedaaa104bbc63d4d5cab9bb045d7305891b6eecba11ceb355ddbb",
      "assetIds": [
        "41506478881403507969696680653240014914910929820314476107906210059990431967232",
        "41506478881403507969696680653240014914910929820314476107906210059990431967233"
      ]
    },
    {
      "x": 398,
      "y": 318,
      "size": 1,
      "price": "4683000000000000000000",
      "reserved": "",
      "salt": "0x8460440041d5b460d6700396a2822f206666050e297d7a9830bbf8abde6698bf",
      "assetIds": [
        "41506478881403507969696680653240014914910929820314476107906210059990431967235",
        "41506478881403507969696680653240014914910929820314476107906210059990431967236"
      ]
    },
    {
      "x": 397,
      "y": 318,
      "size": 1,
      "price": "4683000000000000000000",
      "reserved": "",
      "salt": "0x5acd12bddddee32136d822665b5344fbeaa7c1410420a7c2e4dbe683f13a1e2d",
      "assetIds": [
        "41506478881403507969696680653240014914910929820314476107906210059990431967233",
        "41506478881403507969696680653240014914910929820314476107906210059990431967234"
      ]
    },
    {
      "x": 401,
      "y": 318,
      "size": 1,
      "price": "4683000000000000000000",
      "reserved": "",
      "salt": "0xc11852ea4d6f19ef252a80ff5098a8dcc0fe2bc0dc82e8ff8f9b7bdb4daa96e6",
      "assetIds": [
        "41506478881403507969696680653240014914910929820314476107906210059990431967235",
        "41506478881403507969696680653240014914910929820314476107906210059990431967236"
      ]
    },
    {
      "x": 398,
      "y": 319,
      "size": 1,
      "price": "4683000000000000000000",
      "reserved": "",
      "salt": "0xcc99aaeee5d1d75e9dcb52c2c3424e19a680f4634cc9c5e958176730c0fee7fc",
      "assetIds": [
        "41506478881403507969696680653240014914910929820314476107906210059990431967234",
        "41506478881403507969696680653240014914910929820314476107906210059990431967235"
      ]
    },
    {
      "x": 397,
      "y": 319,
      "size": 1,
      "price": "4683000000000000000000",
      "reserved": "",
      "salt": "0xe691d656d69aa1418006546f707d0d0c66d6635b60862c62359d92fede92cd52",
      "assetIds": [
        "41506478881403507969696680653240014914910929820314476107906210059990431967234",
        "41506478881403507969696680653240014914910929820314476107906210059990431967235"
      ]
    },
    {
      "x": 397,
      "y": 320,
      "size": 1,
      "price": "4683000000000000000000",
      "reserved": "",
      "salt": "0xd02dcc8abeb5dfe6f50b637006f8b067be8c446dece9ef54c03a2db29cff9d81",
      "assetIds": [
        "41506478881403507969696680653240014914910929820314476107906210059990431967233",
        "41506478881403507969696680653240014914910929820314476107906210059990431967234"
      ]
    },
    {
      "x": 398,
      "y": 322,
      "size": 1,
      "price": "4683000000000000000000",
      "reserved": "",
      "salt": "0x2b4416615495beafce89ba2c1a8b19f66edb2271064d6f1f073ba6ba2da0f7a1",
      "assetIds": [
        "41506478881403507969696680653240014914910929820314476107906210059990431967232",
        "41506478881403507969696680653240014914910929820314476107906210059990431967233"
      ]
    },
    {
      "x": 399,
      "y": 322,
      "size": 1,
      "price": "4683000000000000000000",
      "reserved": "",
      "salt": "0x59a1b46f0a1f460f5f6131b9494c90408a3312785eb3d19c7824cc84351a59a6",
      "assetIds": [
        "41506478881403507969696680653240014914910929820314476107906210059990431967235",
        "41506478881403507969696680653240014914910929820314476107906210059990431967236"
      ]
    },
    {
      "x": 400,
      "y": 322,
      "size": 1,
      "price": "4683000000000000000000",
      "reserved": "",
      "salt": "0x36931e09d8297588dce30325b9a84b9930963abc1cb979b26333d5bb4f097f28",
      "assetIds": [
        "41506478881403507969696680653240014914910929820314476107906210059990431967233",
        "41506478881403507969696680653240014914910929820314476107906210059990431967234"
      ]
    },
    {
      "x": 401,
      "y": 322,
      "size": 1,
      "price": "4683000000000000000000",
      "reserved": "",
      "salt": "0xc901250e9ab3640f00ededcd75a0c2a04f69802943ad8898c6b067ea71c9ba43",
      "assetIds": [
        "41506478881403507969696680653240014914910929820314476107906210059990431967234",
        "41506478881403507969696680653240014914910929820314476107906210059990431967235"
      ]
    },
    {
      "x": 402,
      "y": 322,
      "size": 1,
      "price": "4683000000000000000000",
      "reserved": "",
      "salt": "0x6b361c02c35a7c1768bae420df9704a9292175f32571046c6d1f57a08646fc93",
      "assetIds": [
        "41506478881403507969696680653240014914910929820314476107906210059990431967234",
        "41506478881403507969696680653240014914910929820314476107906210059990431967235"
      ]
    },
    {
      "x": 402,
      "y": 321,
      "size": 1,
      "price": "4683000000000000000000",
      "reserved": "",
      "salt": "0x34880868f21de34fb7d8132da89d17e7ee2d598fddbd135bf4d9a12044d0e1e9",
      "assetIds": [
        "41506478881403507969696680653240014914910929820314476107906210059990431967232",
        "41506478881403507969696680653240014914910929820314476107906210059990431967233"
      ]
    },
    {
      "x": 403,
      "y": 321,
      "size": 1,
      "price": "4683000000000000000000",
      "reserved": "",
      "salt": "0x33532ea3385c356eb3d5e807071aa90a8726b3679a4c7152a77a57d4cfd74f51",
      "assetIds": [
        "41506478881403507969696680653240014914910929820314476107906210059990431967234",
        "41506478881403507969696680653240014914910929820314476107906210059990431967235"
      ]
    },
    {
      "x": 401,
      "y": 321,
      "size": 1,
      "price": "4683000000000000000000",
      "reserved": "",
      "salt": "0x749091737c5234257c9d29ede38bfcbaccc4a39463b605c9dc72d59ff601ada6",
      "assetIds": [
        "41506478881403507969696680653240014914910929820314476107906210059990431967234",
        "41506478881403507969696680653240014914910929820314476107906210059990431967235"
      ]
    },
    {
      "x": 401,
      "y": 320,
      "size": 1,
      "price": "4683000000000000000000",
      "reserved": "",
      "salt": "0xc5eb336a933ad29c7e6bf85ff6d1c3882a313385d554d80503db916349f7486c",
      "assetIds": [
        "41506478881403507969696680653240014914910929820314476107906210059990431967232",
        "41506478881403507969696680653240014914910929820314476107906210059990431967233"
      ]
    },
    {
      "x": 400,
      "y": 320,
      "size": 1,
      "price": "4683000000000000000000",
      "reserved": "",
      "salt": "0x0682b5d97a274668a7b43d2f86dbffed723381d88c874c09bfe0bdc87d8a78b0",
      "assetIds": [
        "41506478881403507969696680653240014914910929820314476107906210059990431967232",
        "41506478881403507969696680653240014914910929820314476107906210059990431967233"
      ]
    },
    {
      "x": 402,
      "y": 320,
      "size": 1,
      "price": "4683000000000000000000",
      "reserved": "",
      "salt": "0x40fb37bf482035e62cff5ddf81d65f2ad64981a2fd93910efb45f5ade5548392",
      "assetIds": [
        "41506478881403507969696680653240014914910929820314476107906210059990431967234",
        "41506478881403507969696680653240014914910929820314476107906210059990431967235"
      ]
    },
    {
      "x": 400,
      "y": 321,
      "size": 1,
      "price": "4683000000000000000000",
      "reserved": "",
      "salt": "0x30e65fa703254083ee61a61a66e41dadeb70b811e5555f53f5b4398ad08c4927",
      "assetIds": [
        "41506478881403507969696680653240014914910929820314476107906210059990431967232",
        "41506478881403507969696680653240014914910929820314476107906210059990431967233"
      ]
    },
    {
      "x": 399,
      "y": 321,
      "size": 1,
      "price": "4683000000000000000000",
      "reserved": "",
      "salt": "0x1825788b4d7a7bfb1a1fc9f921614275bd4cfbcbbda03f30d59c1e638b35ee4e",
      "assetIds": [
        "41506478881403507969696680653240014914910929820314476107906210059990431967233",
        "41506478881403507969696680653240014914910929820314476107906210059990431967234"
      ]
    },
    {
      "x": 404,
      "y": 321,
      "size": 1,
      "price": "4683000000000000000000",
      "reserved": "",
      "salt": "0xeb8c97be785ae01f90a60640ef291ff750434aebb5d59f305e3ffdd27044a9fa",
      "assetIds": [
        "41506478881403507969696680653240014914910929820314476107906210059990431967234",
        "41506478881403507969696680653240014914910929820314476107906210059990431967235"
      ]
    },
    {
      "x": 404,
      "y": 322,
      "size": 1,
      "price": "4683000000000000000000",
      "reserved": "",
      "salt": "0x9d497b1ad49615f262af4b1172c8a5d1e256962cf28c47afef882448a0e4a8ab",
      "assetIds": [
        "41506478881403507969696680653240014914910929820314476107906210059990431967232",
        "41506478881403507969696680653240014914910929820314476107906210059990431967233"
      ]
    },
    {
      "x": 404,
      "y": 323,
      "size": 1,
      "price": "4683000000000000000000",
      "reserved": "",
      "salt": "0x9c561dc5bdda4ca8dfaa35e351362ddd6c2db63d751e20132d3805f5986bc3cc",
      "assetIds": [
        "41506478881403507969696680653240014914910929820314476107906210059990431967232",
        "41506478881403507969696680653240014914910929820314476107906210059990431967233"
      ]
    },
    {
      "x": 404,
      "y": 324,
      "size": 1,
      "price": "4683000000000000000000",
      "reserved": "",
      "salt": "0xdf3515c52313ae40ce51e3b50a7a5701be64f85a533d2d35a5b462bb135ec1a0",
      "assetIds": [
        "41506478881403507969696680653240014914910929820314476107906210059990431967234",
        "41506478881403507969696680653240014914910929820314476107906210059990431967235"
      ]
    },
    {
      "x": 404,
      "y": 326,
      "size": 1,
      "price": "4683000000000000000000",
      "reserved": "",
      "salt": "0xa52bc765c5dc6516a635807891e60d884522865893072d0d199230cf2f9a0834",
      "assetIds": [
        "41506478881403507969696680653240014914910929820314476107906210059990431967234",
        "41506478881403507969696680653240014914910929820314476107906210059990431967235"
      ]
    },
    {
      "x": 403,
      "y": 324,
      "size": 1,
      "price": "4683000000000000000000",
      "reserved": "",
      "salt": "0x714e9b67db6b311e377ca4434d01cb5b3162698d4f831a357684cade73cc50af",
      "assetIds": [
        "41506478881403507969696680653240014914910929820314476107906210059990431967235",
        "41506478881403507969696680653240014914910929820314476107906210059990431967236"
      ]
    },
    {
      "x": 402,
      "y": 324,
      "size": 1,
      "price": "4683000000000000000000",
      "reserved": "",
      "salt": "0x1954b67fdd9ebb9d9c0be3a272cc5982c330aa8e8363363a7728d6779d753240",
      "assetIds": [
        "41506478881403507969696680653240014914910929820314476107906210059990431967232",
        "41506478881403507969696680653240014914910929820314476107906210059990431967233"
      ]
    },
    {
      "x": 401,
      "y": 324,
      "size": 1,
      "price": "4683000000000000000000",
      "reserved": "",
      "salt": "0xc9131e603ec6655d1842cf822b9f1e93372ddae473bb70b1749d8f718d8c721d",
      "assetIds": [
        "41506478881403507969696680653240014914910929820314476107906210059990431967233",
        "41506478881403507969696680653240014914910929820314476107906210059990431967234"
      ]
    },
    {
      "x": 401,
      "y": 323,
      "size": 1,
      "price": "4683000000000000000000",
      "reserved": "",
      "salt": "0xafd65b9c0b019cadf9cb7184f7cdd93e79398563ec30fcdab508dd291c5706aa",
      "assetIds": [
        "41506478881403507969696680653240014914910929820314476107906210059990431967233",
        "41506478881403507969696680653240014914910929820314476107906210059990431967234"
      ]
    },
    {
      "x": 403,
      "y": 323,
      "size": 1,
      "price": "4683000000000000000000",
      "reserved": "",
      "salt": "0xf977ddd9b4bf464cae47eaf8c4fd6302ee81a01b069c1480c556e2392868d6b4",
      "assetIds": [
        "41506478881403507969696680653240014914910929820314476107906210059990431967232",
        "41506478881403507969696680653240014914910929820314476107906210059990431967233"
      ]
    },
    {
      "x": 402,
      "y": 323,
      "size": 1,
      "price": "4683000000000000000000",
      "reserved": "",
      "salt": "0xd4409833f907550fa60c20a209c0bd312cf1985a510f7fe76ad0510d13c76def",
      "assetIds": [
        "41506478881403507969696680653240014914910929820314476107906210059990431967233",
        "41506478881403507969696680653240014914910929820314476107906210059990431967234"
      ]
    },
    {
      "x": 400,
      "y": 323,
      "size": 1,
      "price": "4683000000000000000000",
      "reserved": "",
      "salt": "0xaf8bda0d9254840599334a2823da496a81e8d6b38b35e88300493bd92915170c",
      "assetIds": [
        "41506478881403507969696680653240014914910929820314476107906210059990431967233",
        "41506478881403507969696680653240014914910929820314476107906210059990431967234"
      ]
    },
    {
      "x": 403,
      "y": 322,
      "size": 1,
      "price": "4683000000000000000000",
      "reserved": "",
      "salt": "0x333cbf6c85ee392ce238a5eb074c6dda5863a260facd5630cfe4b1b901729965",
      "assetIds": [
        "41506478881403507969696680653240014914910929820314476107906210059990431967234",
        "41506478881403507969696680653240014914910929820314476107906210059990431967235"
      ]
    },
    {
      "x": 400,
      "y": 324,
      "size": 1,
      "price": "4683000000000000000000",
      "reserved": "",
      "salt": "0x979dab4a432231af663ea7886365c87e6fb91801a0b7f8421902a4032fb6c7d6",
      "assetIds": [
        "41506478881403507969696680653240014914910929820314476107906210059990431967235",
        "41506478881403507969696680653240014914910929820314476107906210059990431967236"
      ]
    },
    {
      "x": 399,
      "y": 324,
      "size": 1,
      "price": "4683000000000000000000",
      "reserved": "",
      "salt": "0x2aed3e6ea44ddc34a78b689bc30047d578eb9009157bb90b7406dbbc9f5071ec",
      "assetIds": [
        "41506478881403507969696680653240014914910929820314476107906210059990431967233",
        "41506478881403507969696680653240014914910929820314476107906210059990431967234"
      ]
    },
    {
      "x": 398,
      "y": 324,
      "size": 1,
      "price": "4683000000000000000000",
      "reserved": "",
      "salt": "0xd73423c81dab494543b61dc554fbe52242cfd91f0e99a9c7658208bec75e3d5c",
      "assetIds": [
        "41506478881403507969696680653240014914910929820314476107906210059990431967233",
        "41506478881403507969696680653240014914910929820314476107906210059990431967234"
      ]
    },
    {
      "x": 399,
      "y": 323,
      "size": 1,
      "price": "4683000000000000000000",
      "reserved": "",
      "salt": "0x87a414d9bb5a3eda13bdb900d87ff6e400fd667bab094952f7b82906b3d40771",
      "assetIds": [
        "41506478881403507969696680653240014914910929820314476107906210059990431967232",
        "41506478881403507969696680653240014914910929820314476107906210059990431967233"
      ]
    },
    {
      "x": 398,
      "y": 323,
      "size": 1,
      "price": "4683000000000000000000",
      "reserved": "",
      "salt": "0x409cd8d33484c6dc6138934f2a6a758b01dd78c5fb18548b1fdff21586459c01",
      "assetIds": [
        "41506478881403507969696680653240014914910929820314476107906210059990431967235",
        "41506478881403507969696680653240014914910929820314476107906210059990431967236"
      ]
    },
    {
      "x": 399,
      "y": 325,
      "size": 1,
      "price": "4683000000000000000000",
      "reserved": "",
      "salt": "0x837417b3580e5844fadd030f5a354439b8f031e3c1f67402dc51a92851009c20",
      "assetIds": [
        "41506478881403507969696680653240014914910929820314476107906210059990431967235",
        "41506478881403507969696680653240014914910929820314476107906210059990431967236"
      ]
    },
    {
      "x": 399,
      "y": 326,
      "size": 1,
      "price": "4683000000000000000000",
      "reserved": "",
      "salt": "0x7c7be50d7f6ad16192cc9e7db34809a7e64d5975c5026d71b7018c0c2c2d0f09",
      "assetIds": [
        "41506478881403507969696680653240014914910929820314476107906210059990431967233",
        "41506478881403507969696680653240014914910929820314476107906210059990431967234"
      ]
    },
    {
      "x": 399,
      "y": 330,
      "size": 1,
      "price": "4683000000000000000000",
      "reserved": "",
      "salt": "0x6172966d39ccce0973e69196632b20c7fbd1147bb4fce8427ded9c7aaa6214d7",
      "assetIds": [
        "41506478881403507969696680653240014914910929820314476107906210059990431967234",
        "41506478881403507969696680653240014914910929820314476107906210059990431967235"
      ]
    },
    {
      "x": 399,
      "y": 331,
      "size": 1,
      "price": "4683000000000000000000",
      "reserved": "",
      "salt": "0x87634a3f7033286b2e2a0e247720dcf1f7278e275f7bbf7209533b6a47d5529d",
      "assetIds": [
        "41506478881403507969696680653240014914910929820314476107906210059990431967233",
        "41506478881403507969696680653240014914910929820314476107906210059990431967234"
      ]
    },
    {
      "x": 399,
      "y": 332,
      "size": 1,
      "price": "4683000000000000000000",
      "reserved": "",
      "salt": "0x726ec5956d7ca7238f330d156661832f784804334612710c2d646d021603591a",
      "assetIds": [
        "41506478881403507969696680653240014914910929820314476107906210059990431967235",
        "41506478881403507969696680653240014914910929820314476107906210059990431967236"
      ]
    },
    {
      "x": 398,
      "y": 333,
      "size": 1,
      "price": "4683000000000000000000",
      "reserved": "",
      "salt": "0xb3c96ba985df69302d03543964967c9d326a64ad88ae0dab7425b7636b104db3",
      "assetIds": [
        "41506478881403507969696680653240014914910929820314476107906210059990431967235",
        "41506478881403507969696680653240014914910929820314476107906210059990431967236"
      ]
    },
    {
      "x": 398,
      "y": 334,
      "size": 1,
      "price": "4683000000000000000000",
      "reserved": "",
      "salt": "0x2f1eacb5146be9cb5242bb94a0da6a466b6d87a969c0444100f01f6c743d7388",
      "assetIds": [
        "41506478881403507969696680653240014914910929820314476107906210059990431967232",
        "41506478881403507969696680653240014914910929820314476107906210059990431967233"
      ]
    },
    {
      "x": 398,
      "y": 332,
      "size": 1,
      "price": "4683000000000000000000",
      "reserved": "",
      "salt": "0xc372a3ae54a445739cbdc946985125602d27ac0c01e5ef90a77a31ffb5505613",
      "assetIds": [
        "41506478881403507969696680653240014914910929820314476107906210059990431967234",
        "41506478881403507969696680653240014914910929820314476107906210059990431967235"
      ]
    },
    {
      "x": 398,
      "y": 331,
      "size": 1,
      "price": "4683000000000000000000",
      "reserved": "",
      "salt": "0x6e50ee247f4aabe8a639ebc1313c079bee4fc3c792c06419e5d45bc28ee50ea6",
      "assetIds": [
        "41506478881403507969696680653240014914910929820314476107906210059990431967233",
        "41506478881403507969696680653240014914910929820314476107906210059990431967234"
      ]
    },
    {
      "x": 398,
      "y": 330,
      "size": 1,
      "price": "4683000000000000000000",
      "reserved": "",
      "salt": "0xa7bb331cd1a72b60c5075d9a5713c0c8ae073801eb9c732c9bae79f120a7346a",
      "assetIds": [
        "41506478881403507969696680653240014914910929820314476107906210059990431967235",
        "41506478881403507969696680653240014914910929820314476107906210059990431967236"
      ]
    },
    {
      "x": 398,
      "y": 329,
      "size": 1,
      "price": "4683000000000000000000",
      "reserved": "",
      "salt": "0xe8b25c54bfdeaa23082c0af22e6d3eac7d8655db709fca56e27158e0b6a936e5",
      "assetIds": [
        "41506478881403507969696680653240014914910929820314476107906210059990431967234",
        "41506478881403507969696680653240014914910929820314476107906210059990431967235"
      ]
    },
    {
      "x": 398,
      "y": 328,
      "size": 1,
      "price": "4683000000000000000000",
      "reserved": "",
      "salt": "0xc1446583164aa12a8134666bd7e6ca16feb752e64282362298e1b75c48dcf36c",
      "assetIds": [
        "41506478881403507969696680653240014914910929820314476107906210059990431967233",
        "41506478881403507969696680653240014914910929820314476107906210059990431967234"
      ]
    },
    {
      "x": 398,
      "y": 327,
      "size": 1,
      "price": "4683000000000000000000",
      "reserved": "",
      "salt": "0xbae48ebfd32ec9f8aa9b47f75c2fbe7d2687a5dd9b018a154cfa22654d7d8f2f",
      "assetIds": [
        "41506478881403507969696680653240014914910929820314476107906210059990431967233",
        "41506478881403507969696680653240014914910929820314476107906210059990431967234"
      ]
    },
    {
      "x": 397,
      "y": 326,
      "size": 1,
      "price": "4683000000000000000000",
      "reserved": "",
      "salt": "0x89f9b858ec1645bb9c720abd0c07d1ff569fd3ba8b18d3528504c4587b9356e2",
      "assetIds": [
        "41506478881403507969696680653240014914910929820314476107906210059990431967233",
        "41506478881403507969696680653240014914910929820314476107906210059990431967234"
      ]
    },
    {
      "x": 397,
      "y": 325,
      "size": 1,
      "price": "4683000000000000000000",
      "reserved": "",
      "salt": "0xb356bf6e096f1e81d951cfaaf1db9f3c1557833b9ca35415d16ddfc795597991",
      "assetIds": [
        "41506478881403507969696680653240014914910929820314476107906210059990431967233",
        "41506478881403507969696680653240014914910929820314476107906210059990431967234"
      ]
    },
    {
      "x": 397,
      "y": 327,
      "size": 1,
      "price": "4683000000000000000000",
      "reserved": "",
      "salt": "0x60a6a79a018b9730383de15e06becb0436e64f72b31d99d8a033cddc8b8b564f",
      "assetIds": [
        "41506478881403507969696680653240014914910929820314476107906210059990431967233",
        "41506478881403507969696680653240014914910929820314476107906210059990431967234"
      ]
    },
    {
      "x": 397,
      "y": 328,
      "size": 1,
      "price": "4683000000000000000000",
      "reserved": "",
      "salt": "0x057e0977899c23ff2834e2bb3cfb8e44b7f070a468cbcb6fa6b3e8796a96d6a0",
      "assetIds": [
        "41506478881403507969696680653240014914910929820314476107906210059990431967234",
        "41506478881403507969696680653240014914910929820314476107906210059990431967235"
      ]
    },
    {
      "x": 397,
      "y": 329,
      "size": 1,
      "price": "4683000000000000000000",
      "reserved": "",
      "salt": "0x3fb25aa09029ce580bb5c2146b36215f9554585d2c90a4ea55fc4b9a3fa830c3",
      "assetIds": [
        "41506478881403507969696680653240014914910929820314476107906210059990431967232",
        "41506478881403507969696680653240014914910929820314476107906210059990431967233"
      ]
    },
    {
      "x": 397,
      "y": 330,
      "size": 1,
      "price": "4683000000000000000000",
      "reserved": "",
      "salt": "0xbb0b1ff32798429e2db48b8c40d4297aadcc26c103a6129b4f496171c61d38c1",
      "assetIds": [
        "41506478881403507969696680653240014914910929820314476107906210059990431967233",
        "41506478881403507969696680653240014914910929820314476107906210059990431967234"
      ]
    },
    {
      "x": 397,
      "y": 331,
      "size": 1,
      "price": "4683000000000000000000",
      "reserved": "",
      "salt": "0x040f9b4fb0a96c7d2fcc0926248bec8e2239eb9d3dd52e436ae80980fd6a19eb",
      "assetIds": [
        "41506478881403507969696680653240014914910929820314476107906210059990431967234",
        "41506478881403507969696680653240014914910929820314476107906210059990431967235"
      ]
    },
    {
      "x": 397,
      "y": 332,
      "size": 1,
      "price": "4683000000000000000000",
      "reserved": "",
      "salt": "0xe29064b492c46a5d243762318b34705ebd8d17308fa422b77d7bf52db8da3a6c",
      "assetIds": [
        "41506478881403507969696680653240014914910929820314476107906210059990431967232",
        "41506478881403507969696680653240014914910929820314476107906210059990431967233"
      ]
    },
    {
      "x": 397,
      "y": 333,
      "size": 1,
      "price": "4683000000000000000000",
      "reserved": "",
      "salt": "0xcea10e9703bf47635f625809cc69f93f773add4551af38ae52cc29e09a25b482",
      "assetIds": [
        "41506478881403507969696680653240014914910929820314476107906210059990431967233",
        "41506478881403507969696680653240014914910929820314476107906210059990431967234"
      ]
    },
    {
      "x": 397,
      "y": 334,
      "size": 1,
      "price": "4683000000000000000000",
      "reserved": "",
      "salt": "0xbb9ad7a6a7de134416c4ef612b7a270ca1652a31efc30d1341a9005fecac062d",
      "assetIds": [
        "41506478881403507969696680653240014914910929820314476107906210059990431967233",
        "41506478881403507969696680653240014914910929820314476107906210059990431967234"
      ]
    },
    {
      "x": 400,
      "y": 334,
      "size": 1,
      "price": "4683000000000000000000",
      "reserved": "",
      "salt": "0x2f33be1880d3b3a73f4ee5ce122770389681c1de38e878d2f4dcf0b78aca0794",
      "assetIds": [
        "41506478881403507969696680653240014914910929820314476107906210059990431967235",
        "41506478881403507969696680653240014914910929820314476107906210059990431967236"
      ]
    },
    {
      "x": 400,
      "y": 333,
      "size": 1,
      "price": "4683000000000000000000",
      "reserved": "",
      "salt": "0x1fc939c0e9220b38b660cd498428f87872aeed8165123afbecb6f9bac84797d5",
      "assetIds": [
        "41506478881403507969696680653240014914910929820314476107906210059990431967234",
        "41506478881403507969696680653240014914910929820314476107906210059990431967235"
      ]
    },
    {
      "x": 399,
      "y": 333,
      "size": 1,
      "price": "4683000000000000000000",
      "reserved": "",
      "salt": "0xcff78d2ada5cbdaa40d0ce0422d8b840d247025401d1cc4b5873b7f66f6279bb",
      "assetIds": [
        "41506478881403507969696680653240014914910929820314476107906210059990431967232",
        "41506478881403507969696680653240014914910929820314476107906210059990431967233"
      ]
    },
    {
      "x": 398,
      "y": 326,
      "size": 1,
      "price": "4683000000000000000000",
      "reserved": "",
      "salt": "0x133bc85300b7d2d1a8b006fd2b10bbbf417d1d7a2b47e6440206c20521fe2a6c",
      "assetIds": [
        "41506478881403507969696680653240014914910929820314476107906210059990431967234",
        "41506478881403507969696680653240014914910929820314476107906210059990431967235"
      ]
    },
    {
      "x": 398,
      "y": 325,
      "size": 1,
      "price": "4683000000000000000000",
      "reserved": "",
      "salt": "0x9de665d90a30e3e2741e5177389ef4f349b85952aae6e0e63f19bb0115505538",
      "assetIds": [
        "41506478881403507969696680653240014914910929820314476107906210059990431967233",
        "41506478881403507969696680653240014914910929820314476107906210059990431967234"
      ]
    },
    {
      "x": 401,
      "y": 325,
      "size": 1,
      "price": "4683000000000000000000",
      "reserved": "",
      "salt": "0x54df7a9e0c6fe10c75f74a0d648a5846ade7e65a161b494646586d5292b5e094",
      "assetIds": [
        "41506478881403507969696680653240014914910929820314476107906210059990431967234",
        "41506478881403507969696680653240014914910929820314476107906210059990431967235"
      ]
    },
    {
      "x": 402,
      "y": 325,
      "size": 1,
      "price": "4683000000000000000000",
      "reserved": "",
      "salt": "0x189f50c3bc4aa13d35aca004dc1b0741764b8bde3b6148f9cc7fa359c3943c04",
      "assetIds": [
        "41506478881403507969696680653240014914910929820314476107906210059990431967234",
        "41506478881403507969696680653240014914910929820314476107906210059990431967235"
      ]
    },
    {
      "x": 403,
      "y": 325,
      "size": 1,
      "price": "4683000000000000000000",
      "reserved": "",
      "salt": "0x64242e1365a911ebe6ff90d3ef6adbea298b505e5530680ce8e44e1591ecf741",
      "assetIds": [
        "41506478881403507969696680653240014914910929820314476107906210059990431967235",
        "41506478881403507969696680653240014914910929820314476107906210059990431967236"
      ]
    },
    {
      "x": 403,
      "y": 326,
      "size": 1,
      "price": "4683000000000000000000",
      "reserved": "",
      "salt": "0x11c7628bfab74654292ce8c5e2d323a2ecf09ba4a9e09ba75691d34ac32f98bc",
      "assetIds": [
        "41506478881403507969696680653240014914910929820314476107906210059990431967235",
        "41506478881403507969696680653240014914910929820314476107906210059990431967236"
      ]
    },
    {
      "x": 403,
      "y": 327,
      "size": 1,
      "price": "4683000000000000000000",
      "reserved": "",
      "salt": "0x9dae17478c493a30800b17532d95a85d0c9fa2daf17bb98baf622509a9269301",
      "assetIds": [
        "41506478881403507969696680653240014914910929820314476107906210059990431967235",
        "41506478881403507969696680653240014914910929820314476107906210059990431967236"
      ]
    },
    {
      "x": 404,
      "y": 327,
      "size": 1,
      "price": "4683000000000000000000",
      "reserved": "",
      "salt": "0x562cf94eb491672ec1c8d177d690ece6b3ec2fd88aae2b404b241b2f6463f9cb",
      "assetIds": [
        "41506478881403507969696680653240014914910929820314476107906210059990431967234",
        "41506478881403507969696680653240014914910929820314476107906210059990431967235"
      ]
    },
    {
      "x": 402,
      "y": 327,
      "size": 1,
      "price": "4683000000000000000000",
      "reserved": "",
      "salt": "0xc188a2015c0d5b08d64a9b0be8f1df15e20b842c3029dccd7426c2f5750ba7c1",
      "assetIds": [
        "41506478881403507969696680653240014914910929820314476107906210059990431967235",
        "41506478881403507969696680653240014914910929820314476107906210059990431967236"
      ]
    },
    {
      "x": 400,
      "y": 326,
      "size": 1,
      "price": "4683000000000000000000",
      "reserved": "",
      "salt": "0x5785bc44d345a8852eb88c5604f9cb00475b5d350a20d3b0f1a0df47cde23e10",
      "assetIds": [
        "41506478881403507969696680653240014914910929820314476107906210059990431967232",
        "41506478881403507969696680653240014914910929820314476107906210059990431967233"
      ]
    },
    {
      "x": 400,
      "y": 325,
      "size": 1,
      "price": "4683000000000000000000",
      "reserved": "",
      "salt": "0x05347644777f17933914b1f28410fc49e08498662f6eef7199ea884e43271ede",
      "assetIds": [
        "41506478881403507969696680653240014914910929820314476107906210059990431967235",
        "41506478881403507969696680653240014914910929820314476107906210059990431967236"
      ]
    },
    {
      "x": 402,
      "y": 326,
      "size": 1,
      "price": "4683000000000000000000",
      "reserved": "",
      "salt": "0xcf94639cd14569cd4a5ad0a770d6ac514b5d66e04798f2510fc824b8d6f00bd7",
      "assetIds": [
        "41506478881403507969696680653240014914910929820314476107906210059990431967235",
        "41506478881403507969696680653240014914910929820314476107906210059990431967236"
      ]
    },
    {
      "x": 401,
      "y": 326,
      "size": 1,
      "price": "4683000000000000000000",
      "reserved": "",
      "salt": "0x56de815ce53a0cb35160158a3401ea08fc662358f937202c673493fa6e9988ec",
      "assetIds": [
        "41506478881403507969696680653240014914910929820314476107906210059990431967233",
        "41506478881403507969696680653240014914910929820314476107906210059990431967234"
      ]
    },
    {
      "x": 404,
      "y": 330,
      "size": 1,
      "price": "4683000000000000000000",
      "reserved": "",
      "salt": "0xec9839813ed745186c0b6e3b4004a544d76170239ac3b95319482a68aecc344d",
      "assetIds": [
        "41506478881403507969696680653240014914910929820314476107906210059990431967232",
        "41506478881403507969696680653240014914910929820314476107906210059990431967233"
      ]
    },
    {
      "x": 404,
      "y": 331,
      "size": 1,
      "price": "4683000000000000000000",
      "reserved": "",
      "salt": "0x6138481a7923c14ef0cf886f1bd0c46bb04df36cde309968e552bf3819e9d285",
      "assetIds": [
        "41506478881403507969696680653240014914910929820314476107906210059990431967235",
        "41506478881403507969696680653240014914910929820314476107906210059990431967236"
      ]
    },
    {
      "x": 403,
      "y": 331,
      "size": 1,
      "price": "4683000000000000000000",
      "reserved": "",
      "salt": "0x9e63b1b9678167c05919a6020f654b110667f3c3d80eebefcf5af890286d4b94",
      "assetIds": [
        "41506478881403507969696680653240014914910929820314476107906210059990431967232",
        "41506478881403507969696680653240014914910929820314476107906210059990431967233"
      ]
    },
    {
      "x": 403,
      "y": 330,
      "size": 1,
      "price": "4683000000000000000000",
      "reserved": "",
      "salt": "0xb23f97c722b9bf9f5592dc747719b468e82fb90847ea6dadb253e7dffa293dd6",
      "assetIds": [
        "41506478881403507969696680653240014914910929820314476107906210059990431967232",
        "41506478881403507969696680653240014914910929820314476107906210059990431967233"
      ]
    },
    {
      "x": 402,
      "y": 329,
      "size": 1,
      "price": "4683000000000000000000",
      "reserved": "",
      "salt": "0x8f92eef5a5296eb299c0e97d4fced2abd4218b47797cebf8337036678308dbb3",
      "assetIds": [
        "41506478881403507969696680653240014914910929820314476107906210059990431967234",
        "41506478881403507969696680653240014914910929820314476107906210059990431967235"
      ]
    },
    {
      "x": 402,
      "y": 328,
      "size": 1,
      "price": "4683000000000000000000",
      "reserved": "",
      "salt": "0x22b4ae5ffc336bd994f8276f5eba8744f13a029e2fbee3f56325aca187fbc0bc",
      "assetIds": [
        "41506478881403507969696680653240014914910929820314476107906210059990431967234",
        "41506478881403507969696680653240014914910929820314476107906210059990431967235"
      ]
    },
    {
      "x": 403,
      "y": 328,
      "size": 1,
      "price": "4683000000000000000000",
      "reserved": "",
      "salt": "0xb7104aadb98d4af9d0750a1625f8a607c4f48451752c92ace3ef01b2f21eca82",
      "assetIds": [
        "41506478881403507969696680653240014914910929820314476107906210059990431967235",
        "41506478881403507969696680653240014914910929820314476107906210059990431967236"
      ]
    },
    {
      "x": 403,
      "y": 329,
      "size": 1,
      "price": "4683000000000000000000",
      "reserved": "",
      "salt": "0xa690114d3a0d7f8aee504d94528962b15b78d5e06c661a89d0215f48143aea7b",
      "assetIds": [
        "41506478881403507969696680653240014914910929820314476107906210059990431967234",
        "41506478881403507969696680653240014914910929820314476107906210059990431967235"
      ]
    },
    {
      "x": 404,
      "y": 328,
      "size": 1,
      "price": "4683000000000000000000",
      "reserved": "",
      "salt": "0x0f398c0b48bbb43eb123061d862716fb8bc8cb1c2d9ddfd7e99d985b5e0a5581",
      "assetIds": [
        "41506478881403507969696680653240014914910929820314476107906210059990431967234",
        "41506478881403507969696680653240014914910929820314476107906210059990431967235"
      ]
    },
    {
      "x": 404,
      "y": 329,
      "size": 1,
      "price": "4683000000000000000000",
      "reserved": "",
      "salt": "0x62ebd231c3f58d6b894499c62accecf3a29a02269e4688d2303ef3cf65ba22bc",
      "assetIds": [
        "41506478881403507969696680653240014914910929820314476107906210059990431967235",
        "41506478881403507969696680653240014914910929820314476107906210059990431967236"
      ]
    },
    {
      "x": 402,
      "y": 330,
      "size": 1,
      "price": "4683000000000000000000",
      "reserved": "",
      "salt": "0x7a0b21c3f9f389f2fa8d0c624f6563b39786cc6ed6b0eec8e7f792536e55931b",
      "assetIds": [
        "41506478881403507969696680653240014914910929820314476107906210059990431967234",
        "41506478881403507969696680653240014914910929820314476107906210059990431967235"
      ]
    },
    {
      "x": 402,
      "y": 331,
      "size": 1,
      "price": "4683000000000000000000",
      "reserved": "",
      "salt": "0x434aeadedbdade51277d6c0d08c85742db1c295e93243c75f10336182c8fb746",
      "assetIds": [
        "41506478881403507969696680653240014914910929820314476107906210059990431967234",
        "41506478881403507969696680653240014914910929820314476107906210059990431967235"
      ]
    },
    {
      "x": 402,
      "y": 332,
      "size": 1,
      "price": "4683000000000000000000",
      "reserved": "",
      "salt": "0x16768d590f57390fecfe929b6b0dbe752ff1e6051fb9fdbfeedaead68ebd8e34",
      "assetIds": [
        "41506478881403507969696680653240014914910929820314476107906210059990431967235",
        "41506478881403507969696680653240014914910929820314476107906210059990431967236"
      ]
    },
    {
      "x": 402,
      "y": 333,
      "size": 1,
      "price": "4683000000000000000000",
      "reserved": "",
      "salt": "0x6d866e66b5bc1140c39cee1574d752346ea290c4360a9f8cae6022dfdf902475",
      "assetIds": [
        "41506478881403507969696680653240014914910929820314476107906210059990431967234",
        "41506478881403507969696680653240014914910929820314476107906210059990431967235"
      ]
    },
    {
      "x": 401,
      "y": 333,
      "size": 1,
      "price": "4683000000000000000000",
      "reserved": "",
      "salt": "0xeaaec2dbddc3e32db1a71e1eac60868aa3a206c44f3df4fd1e3d7cb0594c7459",
      "assetIds": [
        "41506478881403507969696680653240014914910929820314476107906210059990431967234",
        "41506478881403507969696680653240014914910929820314476107906210059990431967235"
      ]
    },
    {
      "x": 401,
      "y": 334,
      "size": 1,
      "price": "4683000000000000000000",
      "reserved": "",
      "salt": "0x4adf4ab37ec317e0d3cf3b1f562e28e82ca317ab5f1a0bfa082adf8be1948566",
      "assetIds": [
        "41506478881403507969696680653240014914910929820314476107906210059990431967233",
        "41506478881403507969696680653240014914910929820314476107906210059990431967234"
      ]
    },
    {
      "x": 402,
      "y": 334,
      "size": 1,
      "price": "4683000000000000000000",
      "reserved": "",
      "salt": "0x11386a6a40e8f532cde3485085edcd75733af551a859360ddd827cf5b1032e3a",
      "assetIds": [
        "41506478881403507969696680653240014914910929820314476107906210059990431967232",
        "41506478881403507969696680653240014914910929820314476107906210059990431967233"
      ]
    },
    {
      "x": 403,
      "y": 332,
      "size": 1,
      "price": "4683000000000000000000",
      "reserved": "",
      "salt": "0xe1fda169409ff1f456e7299afc82026dbc52594abc779d31d2ca18cb43bf4e30",
      "assetIds": [
        "41506478881403507969696680653240014914910929820314476107906210059990431967235",
        "41506478881403507969696680653240014914910929820314476107906210059990431967236"
      ]
    },
    {
      "x": 401,
      "y": 331,
      "size": 1,
      "price": "4683000000000000000000",
      "reserved": "",
      "salt": "0x8eff93c0adc64a739bb495cd0ee1a46553545d68371f174c44062fcb164b7645",
      "assetIds": [
        "41506478881403507969696680653240014914910929820314476107906210059990431967233",
        "41506478881403507969696680653240014914910929820314476107906210059990431967234"
      ]
    },
    {
      "x": 400,
      "y": 331,
      "size": 1,
      "price": "4683000000000000000000",
      "reserved": "",
      "salt": "0x9ee902a5a53be2ed841f7605aa7c7644260321c383be14cec0ab078c45c8e898",
      "assetIds": [
        "41506478881403507969696680653240014914910929820314476107906210059990431967232",
        "41506478881403507969696680653240014914910929820314476107906210059990431967233"
      ]
    },
    {
      "x": 401,
      "y": 330,
      "size": 1,
      "price": "4683000000000000000000",
      "reserved": "",
      "salt": "0x27459724c2af8b4072d67190868a237459c2d43d927f23bc14934e12fe258b71",
      "assetIds": [
        "41506478881403507969696680653240014914910929820314476107906210059990431967233",
        "41506478881403507969696680653240014914910929820314476107906210059990431967234"
      ]
    },
    {
      "x": 401,
      "y": 332,
      "size": 1,
      "price": "4683000000000000000000",
      "reserved": "",
      "salt": "0xf6567de8e3c88a21f7d2655ec00929745eebea439d34bd23e590ec764f0788db",
      "assetIds": [
        "41506478881403507969696680653240014914910929820314476107906210059990431967232",
        "41506478881403507969696680653240014914910929820314476107906210059990431967233"
      ]
    },
    {
      "x": 400,
      "y": 332,
      "size": 1,
      "price": "4683000000000000000000",
      "reserved": "",
      "salt": "0x0df39b8f0de741f1e36be3423b60f03d819629a5a4064db12f26116064cfa374",
      "assetIds": [
        "41506478881403507969696680653240014914910929820314476107906210059990431967232",
        "41506478881403507969696680653240014914910929820314476107906210059990431967233"
      ]
    },
    {
      "x": 400,
      "y": 330,
      "size": 1,
      "price": "4683000000000000000000",
      "reserved": "",
      "salt": "0x39d8b62153ae74114c885814d539abc48e955bef8c8464e88719e863b3466683",
      "assetIds": [
        "41506478881403507969696680653240014914910929820314476107906210059990431967232",
        "41506478881403507969696680653240014914910929820314476107906210059990431967233"
      ]
    },
    {
      "x": 406,
      "y": 324,
      "size": 1,
      "price": "4683000000000000000000",
      "reserved": "",
      "salt": "0x7d8ce3644ed807ecf197c3ca4eb71d5e89bcbd86d54461ee12a4da0783301282",
      "assetIds": [
        "41506478881403507969696680653240014914910929820314476107906210059990431967232",
        "41506478881403507969696680653240014914910929820314476107906210059990431967233"
      ]
    },
    {
      "x": 407,
      "y": 324,
      "size": 1,
      "price": "4683000000000000000000",
      "reserved": "",
      "salt": "0x325175c5e4b29d67aaf9e60ffe7c781e57d8c972878fd17cc08359542bfcfec3",
      "assetIds": [
        "41506478881403507969696680653240014914910929820314476107906210059990431967233",
        "41506478881403507969696680653240014914910929820314476107906210059990431967234"
      ]
    },
    {
      "x": 407,
      "y": 325,
      "size": 1,
      "price": "4683000000000000000000",
      "reserved": "",
      "salt": "0x194d5472f7bf2a380eb1fe4ff6dce696a0bc05347a3103bdcc587d1624f9448f",
      "assetIds": [
        "41506478881403507969696680653240014914910929820314476107906210059990431967234",
        "41506478881403507969696680653240014914910929820314476107906210059990431967235"
      ]
    },
    {
      "x": 407,
      "y": 326,
      "size": 1,
      "price": "4683000000000000000000",
      "reserved": "",
      "salt": "0x078a5af4fa7c953c9d112a816f18ff1addbdd65974f26a8a0db28839a19e36f5",
      "assetIds": [
        "41506478881403507969696680653240014914910929820314476107906210059990431967234",
        "41506478881403507969696680653240014914910929820314476107906210059990431967235"
      ]
    },
    {
      "x": 407,
      "y": 327,
      "size": 1,
      "price": "4683000000000000000000",
      "reserved": "",
      "salt": "0x6b3583174ffc2fa7fc7788e1fa2dd96a7460bed08c3f53b2c2b7a38cde3c8099",
      "assetIds": [
        "41506478881403507969696680653240014914910929820314476107906210059990431967235",
        "41506478881403507969696680653240014914910929820314476107906210059990431967236"
      ]
    },
    {
      "x": 407,
      "y": 328,
      "size": 1,
      "price": "4683000000000000000000",
      "reserved": "",
      "salt": "0xd06c5788b1cd818fbdae2477ee45a4b94aebc8c6f122839100f30e63dbb172a6",
      "assetIds": [
        "41506478881403507969696680653240014914910929820314476107906210059990431967235",
        "41506478881403507969696680653240014914910929820314476107906210059990431967236"
      ]
    },
    {
      "x": 407,
      "y": 329,
      "size": 1,
      "price": "4683000000000000000000",
      "reserved": "",
      "salt": "0xc5042e3dcdd6303489e6368005e719f1a74d447f56c6ba467ba3505504c91de1",
      "assetIds": [
        "41506478881403507969696680653240014914910929820314476107906210059990431967235",
        "41506478881403507969696680653240014914910929820314476107906210059990431967236"
      ]
    },
    {
      "x": 407,
      "y": 330,
      "size": 1,
      "price": "4683000000000000000000",
      "reserved": "",
      "salt": "0xc5f64771c002b7ee09f7f99b0bbc7c057aaa27876b51cd12407905bba1604611",
      "assetIds": [
        "41506478881403507969696680653240014914910929820314476107906210059990431967232",
        "41506478881403507969696680653240014914910929820314476107906210059990431967233"
      ]
    },
    {
      "x": 406,
      "y": 330,
      "size": 1,
      "price": "4683000000000000000000",
      "reserved": "",
      "salt": "0x763c426f9632cbd1bf5eac569c87d29ac4401f33a3633d01dc1dcbcac009ffe0",
      "assetIds": [
        "41506478881403507969696680653240014914910929820314476107906210059990431967232",
        "41506478881403507969696680653240014914910929820314476107906210059990431967233"
      ]
    },
    {
      "x": 406,
      "y": 331,
      "size": 1,
      "price": "4683000000000000000000",
      "reserved": "",
      "salt": "0x1fef28b00f16e83822d6c31f187e220cf329efa65fb54970a78fd2dac5075dd4",
      "assetIds": [
        "41506478881403507969696680653240014914910929820314476107906210059990431967232",
        "41506478881403507969696680653240014914910929820314476107906210059990431967233"
      ]
    },
    {
      "x": 406,
      "y": 332,
      "size": 1,
      "price": "4683000000000000000000",
      "reserved": "",
      "salt": "0xf77a7faae2af3c69aa2088bb24b045b0dc835dbcd5410b7311e806292a953112",
      "assetIds": [
        "41506478881403507969696680653240014914910929820314476107906210059990431967232",
        "41506478881403507969696680653240014914910929820314476107906210059990431967233"
      ]
    },
    {
      "x": 406,
      "y": 333,
      "size": 1,
      "price": "4683000000000000000000",
      "reserved": "",
      "salt": "0x8955809e0d032cf6e4fbff0af2a31eb4de29839a408fc7b76790d4e43f4d9204",
      "assetIds": [
        "41506478881403507969696680653240014914910929820314476107906210059990431967233",
        "41506478881403507969696680653240014914910929820314476107906210059990431967234"
      ]
    },
    {
      "x": 406,
      "y": 334,
      "size": 1,
      "price": "4683000000000000000000",
      "reserved": "",
      "salt": "0x729b04eef6289ee70f276236a6557a85d6c1919bb2800b2b099a8baf5dfd7466",
      "assetIds": [
        "41506478881403507969696680653240014914910929820314476107906210059990431967233",
        "41506478881403507969696680653240014914910929820314476107906210059990431967234"
      ]
    },
    {
      "x": 407,
      "y": 334,
      "size": 1,
      "price": "4683000000000000000000",
      "reserved": "",
      "salt": "0x7c18bcabd5cbf514e034002b3a3cdf439ac884bb8d599617b859c731818a96e3",
      "assetIds": [
        "41506478881403507969696680653240014914910929820314476107906210059990431967235",
        "41506478881403507969696680653240014914910929820314476107906210059990431967236"
      ]
    },
    {
      "x": 407,
      "y": 335,
      "size": 1,
      "price": "4683000000000000000000",
      "reserved": "",
      "salt": "0x6c98a98d4f58e9d391c10c0b05da79e1aa9f5398d5453c37b53dc64192d35b57",
      "assetIds": [
        "41506478881403507969696680653240014914910929820314476107906210059990431967234",
        "41506478881403507969696680653240014914910929820314476107906210059990431967235"
      ]
    },
    {
      "x": 407,
      "y": 333,
      "size": 1,
      "price": "4683000000000000000000",
      "reserved": "",
      "salt": "0x7f16e539b647fa35a05c05d1f289bd99a1b416519114187571dbc682676caffd",
      "assetIds": [
        "41506478881403507969696680653240014914910929820314476107906210059990431967234",
        "41506478881403507969696680653240014914910929820314476107906210059990431967235"
      ]
    },
    {
      "x": 407,
      "y": 332,
      "size": 1,
      "price": "4683000000000000000000",
      "reserved": "",
      "salt": "0x7774b4739669d2be8b1c5c95d5cf34d293009021803d40b1ab3250debb1ac7d8",
      "assetIds": [
        "41506478881403507969696680653240014914910929820314476107906210059990431967235",
        "41506478881403507969696680653240014914910929820314476107906210059990431967236"
      ]
    },
    {
      "x": 407,
      "y": 331,
      "size": 1,
      "price": "4683000000000000000000",
      "reserved": "",
      "salt": "0xc2e05c99f9c999d17f1b6ae763d57f19ec80a45cfb06d34c6a0db0346baca705",
      "assetIds": [
        "41506478881403507969696680653240014914910929820314476107906210059990431967232",
        "41506478881403507969696680653240014914910929820314476107906210059990431967233"
      ]
    },
    {
      "x": 406,
      "y": 327,
      "size": 1,
      "price": "4683000000000000000000",
      "reserved": "",
      "salt": "0x99b4b40e8ae3fca2a16b6805104d954655f02d43d3a0285f71127c16b6496a2b",
      "assetIds": [
        "41506478881403507969696680653240014914910929820314476107906210059990431967233",
        "41506478881403507969696680653240014914910929820314476107906210059990431967234"
      ]
    },
    {
      "x": 406,
      "y": 326,
      "size": 1,
      "price": "4683000000000000000000",
      "reserved": "",
      "salt": "0x92b77371bef9dc5e9e760996b901f5eeb30014ff5660c6593c70027d919c7b9d",
      "assetIds": [
        "41506478881403507969696680653240014914910929820314476107906210059990431967233",
        "41506478881403507969696680653240014914910929820314476107906210059990431967234"
      ]
    },
    {
      "x": 406,
      "y": 325,
      "size": 1,
      "price": "4683000000000000000000",
      "reserved": "",
      "salt": "0xeb2c28a071ede1b22df6337f73ad55268bfa76892d9ddbbcc579d16b31285eb5",
      "assetIds": [
        "41506478881403507969696680653240014914910929820314476107906210059990431967233",
        "41506478881403507969696680653240014914910929820314476107906210059990431967234"
      ]
    },
    {
      "x": 406,
      "y": 328,
      "size": 1,
      "price": "4683000000000000000000",
      "reserved": "",
      "salt": "0xa546bf8e4c9870900e0655de50c1d5579134e7347d39ddbad548bd9de3cd1071",
      "assetIds": [
        "41506478881403507969696680653240014914910929820314476107906210059990431967235",
        "41506478881403507969696680653240014914910929820314476107906210059990431967236"
      ]
    },
    {
      "x": 406,
      "y": 329,
      "size": 1,
      "price": "4683000000000000000000",
      "reserved": "",
      "salt": "0x15b9ff182484f1beb478e17e11c482fad7e9a113bc74a6b41498fb95bde780e2",
      "assetIds": [
        "41506478881403507969696680653240014914910929820314476107906210059990431967235",
        "41506478881403507969696680653240014914910929820314476107906210059990431967236"
      ]
    },
    {
      "x": 406,
      "y": 335,
      "size": 1,
      "price": "4683000000000000000000",
      "reserved": "",
      "salt": "0x796e6be1a490363c51bb9d053ed4273726c1d5031427215c94ee19ddd1f4c9f9",
      "assetIds": [
        "41506478881403507969696680653240014914910929820314476107906210059990431967235",
        "41506478881403507969696680653240014914910929820314476107906210059990431967236"
      ]
    },
    {
      "x": 405,
      "y": 335,
      "size": 1,
      "price": "4683000000000000000000",
      "reserved": "",
      "salt": "0x9baf083febb0a9c9aacbc39964b31c89aa69f0ce82065030ac257239c1ad5aab",
      "assetIds": [
        "41506478881403507969696680653240014914910929820314476107906210059990431967235",
        "41506478881403507969696680653240014914910929820314476107906210059990431967236"
      ]
    },
    {
      "x": 404,
      "y": 335,
      "size": 1,
      "price": "4683000000000000000000",
      "reserved": "",
      "salt": "0x88beb6b7a6f9c85348d8d5b3740b60208aabf22238de20cb737d21ace365168f",
      "assetIds": [
        "41506478881403507969696680653240014914910929820314476107906210059990431967233",
        "41506478881403507969696680653240014914910929820314476107906210059990431967234"
      ]
    },
    {
      "x": 404,
      "y": 334,
      "size": 1,
      "price": "4683000000000000000000",
      "reserved": "",
      "salt": "0xdee624ad89acf8ce1fc7b841b44413e7eb13820841243f835aafae5246824bee",
      "assetIds": [
        "41506478881403507969696680653240014914910929820314476107906210059990431967234",
        "41506478881403507969696680653240014914910929820314476107906210059990431967235"
      ]
    },
    {
      "x": 405,
      "y": 334,
      "size": 1,
      "price": "4683000000000000000000",
      "reserved": "",
      "salt": "0xf7f7f233aa9d220c671904c2e7a10f23ba656dd7b354b26c1a147d293cb81534",
      "assetIds": [
        "41506478881403507969696680653240014914910929820314476107906210059990431967234",
        "41506478881403507969696680653240014914910929820314476107906210059990431967235"
      ]
    },
    {
      "x": 353,
      "y": 312,
      "size": 1,
      "price": "4683000000000000000000",
      "reserved": "",
      "salt": "0xecd8c82fc8a151f84996a7e64002060eb454ac32b1bb34f109688b634975602d",
      "assetIds": [
        "41506478881403507969696680653240014914910929820314476107906210059990431967234",
        "41506478881403507969696680653240014914910929820314476107906210059990431967235"
      ]
    },
    {
      "x": 352,
      "y": 312,
      "size": 1,
      "price": "4683000000000000000000",
      "reserved": "",
      "salt": "0x342831da2c2f2904637e9609f64b5ee64d4a2a8021abce0563c0819c9178335c",
      "assetIds": [
        "41506478881403507969696680653240014914910929820314476107906210059990431967233",
        "41506478881403507969696680653240014914910929820314476107906210059990431967234"
      ]
    },
    {
      "x": 351,
      "y": 312,
      "size": 1,
      "price": "4683000000000000000000",
      "reserved": "",
      "salt": "0x1d8bd843b1e5e9076461ef16b031b4c86371d0816c412ba8e8d63719f82fab18",
      "assetIds": [
        "41506478881403507969696680653240014914910929820314476107906210059990431967234",
        "41506478881403507969696680653240014914910929820314476107906210059990431967235"
      ]
    },
    {
      "x": 350,
      "y": 312,
      "size": 1,
      "price": "4683000000000000000000",
      "reserved": "",
      "salt": "0x0b6ad19da76bfb73a4d7d0176838ff240647fc810b01c2bdd5e3648ce856fd30",
      "assetIds": [
        "41506478881403507969696680653240014914910929820314476107906210059990431967232",
        "41506478881403507969696680653240014914910929820314476107906210059990431967233"
      ]
    },
    {
      "x": 349,
      "y": 312,
      "size": 1,
      "price": "4683000000000000000000",
      "reserved": "",
      "salt": "0xc28b6f939ade1af5f62c173dc8cc12584bb7b8fed152cbc6c545a2ce7f285aeb",
      "assetIds": [
        "41506478881403507969696680653240014914910929820314476107906210059990431967235",
        "41506478881403507969696680653240014914910929820314476107906210059990431967236"
      ]
    },
    {
      "x": 348,
      "y": 312,
      "size": 1,
      "price": "4683000000000000000000",
      "reserved": "",
      "salt": "0x1ef46907de59c139d11aa00e5e8658b603ad9b0a602b60773afac9beaa6f7cdd",
      "assetIds": [
        "41506478881403507969696680653240014914910929820314476107906210059990431967235",
        "41506478881403507969696680653240014914910929820314476107906210059990431967236"
      ]
    },
    {
      "x": 348,
      "y": 313,
      "size": 1,
      "price": "4683000000000000000000",
      "reserved": "",
      "salt": "0x3f38c3cd6523275505bdd50791cca39e3d63c56902bd61217bff035a72c10efc",
      "assetIds": [
        "41506478881403507969696680653240014914910929820314476107906210059990431967232",
        "41506478881403507969696680653240014914910929820314476107906210059990431967233"
      ]
    },
    {
      "x": 348,
      "y": 314,
      "size": 1,
      "price": "4683000000000000000000",
      "reserved": "",
      "salt": "0x234e5b98648804cc1c0d1c7353d1c0a8791708bbb16720e74bf05c48abb550fd",
      "assetIds": [
        "41506478881403507969696680653240014914910929820314476107906210059990431967235",
        "41506478881403507969696680653240014914910929820314476107906210059990431967236"
      ]
    },
    {
      "x": 348,
      "y": 315,
      "size": 1,
      "price": "4683000000000000000000",
      "reserved": "",
      "salt": "0x8989aea53436456226813366a3afa44125ecd8bc44263ae68c9e5dc6a6a2a8b9",
      "assetIds": [
        "41506478881403507969696680653240014914910929820314476107906210059990431967234",
        "41506478881403507969696680653240014914910929820314476107906210059990431967235"
      ]
    },
    {
      "x": 348,
      "y": 316,
      "size": 1,
      "price": "4683000000000000000000",
      "reserved": "",
      "salt": "0xbdbc8bcbeb41b3a013bbff3809c940b1409818ed51775e6d229a8fe88cace0af",
      "assetIds": [
        "41506478881403507969696680653240014914910929820314476107906210059990431967233",
        "41506478881403507969696680653240014914910929820314476107906210059990431967234"
      ]
    },
    {
      "x": 349,
      "y": 316,
      "size": 1,
      "price": "4683000000000000000000",
      "reserved": "",
      "salt": "0xd46370e985395e34407702e1683ada940d2be4f95c859b3e2cd9ef3fc99cb82e",
      "assetIds": [
        "41506478881403507969696680653240014914910929820314476107906210059990431967235",
        "41506478881403507969696680653240014914910929820314476107906210059990431967236"
      ]
    },
    {
      "x": 349,
      "y": 317,
      "size": 1,
      "price": "4683000000000000000000",
      "reserved": "",
      "salt": "0x36d3477078ab74d2294f5903c13863010a3a256eeb6d88da953b1919d69bb57d",
      "assetIds": [
        "41506478881403507969696680653240014914910929820314476107906210059990431967235",
        "41506478881403507969696680653240014914910929820314476107906210059990431967236"
      ]
    },
    {
      "x": 349,
      "y": 318,
      "size": 1,
      "price": "4683000000000000000000",
      "reserved": "",
      "salt": "0xfd346341b0e63bb20fd4f29f4ba0bacfa0d21385201ab436d623c0699eae9e34",
      "assetIds": [
        "41506478881403507969696680653240014914910929820314476107906210059990431967235",
        "41506478881403507969696680653240014914910929820314476107906210059990431967236"
      ]
    },
    {
      "x": 349,
      "y": 319,
      "size": 1,
      "price": "4683000000000000000000",
      "reserved": "",
      "salt": "0x8785c387e236b75d633b389bc3fbc7d5b5cbacf19e30adf19f4cdb094754453f",
      "assetIds": [
        "41506478881403507969696680653240014914910929820314476107906210059990431967232",
        "41506478881403507969696680653240014914910929820314476107906210059990431967233"
      ]
    },
    {
      "x": 349,
      "y": 320,
      "size": 1,
      "price": "4683000000000000000000",
      "reserved": "",
      "salt": "0xd61987db2c8cd91a24d3c3874bfb45560135e942790fc0f6e152a8d80d1b17ca",
      "assetIds": [
        "41506478881403507969696680653240014914910929820314476107906210059990431967233",
        "41506478881403507969696680653240014914910929820314476107906210059990431967234"
      ]
    },
    {
      "x": 349,
      "y": 321,
      "size": 1,
      "price": "4683000000000000000000",
      "reserved": "",
      "salt": "0xcd187e49083a58459a72be182a15a91fcd0101b8bed26d5e9ba2752324f9a9d9",
      "assetIds": [
        "41506478881403507969696680653240014914910929820314476107906210059990431967234",
        "41506478881403507969696680653240014914910929820314476107906210059990431967235"
      ]
    },
    {
      "x": 349,
      "y": 322,
      "size": 1,
      "price": "4683000000000000000000",
      "reserved": "",
      "salt": "0xc6d48d73854d2ec0d888d0efd1a4a0d9377814e17924352a97e55d57fb4e09c7",
      "assetIds": [
        "41506478881403507969696680653240014914910929820314476107906210059990431967233",
        "41506478881403507969696680653240014914910929820314476107906210059990431967234"
      ]
    },
    {
      "x": 349,
      "y": 323,
      "size": 1,
      "price": "4683000000000000000000",
      "reserved": "",
      "salt": "0x2f78cbebe67ec8ebdafb0c71a8a3823c875c3bed348096413333bc8616ac2b87",
      "assetIds": [
        "41506478881403507969696680653240014914910929820314476107906210059990431967234",
        "41506478881403507969696680653240014914910929820314476107906210059990431967235"
      ]
    },
    {
      "x": 349,
      "y": 325,
      "size": 1,
      "price": "4683000000000000000000",
      "reserved": "",
      "salt": "0xed7779f4bf128e0371ad0c439505dce5bbaf8014210318cc9ca79319ce2ad91c",
      "assetIds": [
        "41506478881403507969696680653240014914910929820314476107906210059990431967235",
        "41506478881403507969696680653240014914910929820314476107906210059990431967236"
      ]
    },
    {
      "x": 349,
      "y": 326,
      "size": 1,
      "price": "4683000000000000000000",
      "reserved": "",
      "salt": "0xbedfe833da22f391bf6451cf119150275776cfbe92f5ad70250e0f4267d762f5",
      "assetIds": [
        "41506478881403507969696680653240014914910929820314476107906210059990431967233",
        "41506478881403507969696680653240014914910929820314476107906210059990431967234"
      ]
    },
    {
      "x": 349,
      "y": 327,
      "size": 1,
      "price": "4683000000000000000000",
      "reserved": "",
      "salt": "0x765cd6453ac0a9850cf04ca1d4b3deee12b80d54205199a6edfa3e73b9c424a4",
      "assetIds": [
        "41506478881403507969696680653240014914910929820314476107906210059990431967235",
        "41506478881403507969696680653240014914910929820314476107906210059990431967236"
      ]
    },
    {
      "x": 348,
      "y": 326,
      "size": 1,
      "price": "4683000000000000000000",
      "reserved": "",
      "salt": "0x95f9daaa486875bd6fa54646bdef9de1f1aaec995248aa915b3aee4d3aec7454",
      "assetIds": [
        "41506478881403507969696680653240014914910929820314476107906210059990431967235",
        "41506478881403507969696680653240014914910929820314476107906210059990431967236"
      ]
    },
    {
      "x": 348,
      "y": 325,
      "size": 1,
      "price": "4683000000000000000000",
      "reserved": "",
      "salt": "0x5f3ac9f1e3668e1799f4e2a7ed58ec40f73ee6c59b27e7cdbf39c9c084aa1913",
      "assetIds": [
        "41506478881403507969696680653240014914910929820314476107906210059990431967233",
        "41506478881403507969696680653240014914910929820314476107906210059990431967234"
      ]
    },
    {
      "x": 348,
      "y": 324,
      "size": 1,
      "price": "4683000000000000000000",
      "reserved": "",
      "salt": "0x04b3bb64a72b3090e3f57afae8979fe40faac6d2a537db2aaedbfb5dc6628d3e",
      "assetIds": [
        "41506478881403507969696680653240014914910929820314476107906210059990431967232",
        "41506478881403507969696680653240014914910929820314476107906210059990431967233"
      ]
    },
    {
      "x": 348,
      "y": 323,
      "size": 1,
      "price": "4683000000000000000000",
      "reserved": "",
      "salt": "0x95a384fa05c603b2edd8b5c76aa35c4a9248851382c8328afcac960d03f9a407",
      "assetIds": [
        "41506478881403507969696680653240014914910929820314476107906210059990431967234",
        "41506478881403507969696680653240014914910929820314476107906210059990431967235"
      ]
    },
    {
      "x": 348,
      "y": 322,
      "size": 1,
      "price": "4683000000000000000000",
      "reserved": "",
      "salt": "0x6d7b3414c0ba814dc5c6e685f2eedf47de5a554f696455f6ec8e28ba4cff78f2",
      "assetIds": [
        "41506478881403507969696680653240014914910929820314476107906210059990431967235",
        "41506478881403507969696680653240014914910929820314476107906210059990431967236"
      ]
    },
    {
      "x": 348,
      "y": 321,
      "size": 1,
      "price": "4683000000000000000000",
      "reserved": "",
      "salt": "0x3cdaa34f1e4d786ae6206a1ef504e101106f6f1c5b692ce69ce9b728aed1dcfc",
      "assetIds": [
        "41506478881403507969696680653240014914910929820314476107906210059990431967232",
        "41506478881403507969696680653240014914910929820314476107906210059990431967233"
      ]
    },
    {
      "x": 348,
      "y": 320,
      "size": 1,
      "price": "4683000000000000000000",
      "reserved": "",
      "salt": "0xf084d22fee9302fa24dd2c86d5b2264f61be3dafec0e8d5aef44df7737887a33",
      "assetIds": [
        "41506478881403507969696680653240014914910929820314476107906210059990431967233",
        "41506478881403507969696680653240014914910929820314476107906210059990431967234"
      ]
    },
    {
      "x": 348,
      "y": 319,
      "size": 1,
      "price": "4683000000000000000000",
      "reserved": "",
      "salt": "0xe4de6a9c6d0eacee154861febafa446b1d5e97945e63d2f73b011f337f225b59",
      "assetIds": [
        "41506478881403507969696680653240014914910929820314476107906210059990431967232",
        "41506478881403507969696680653240014914910929820314476107906210059990431967233"
      ]
    },
    {
      "x": 348,
      "y": 318,
      "size": 1,
      "price": "4683000000000000000000",
      "reserved": "",
      "salt": "0xe59a74d542762465e267d34dee48d44e6a23d8e9889f675d3f7de60bbe7b3c13",
      "assetIds": [
        "41506478881403507969696680653240014914910929820314476107906210059990431967232",
        "41506478881403507969696680653240014914910929820314476107906210059990431967233"
      ]
    },
    {
      "x": 348,
      "y": 317,
      "size": 1,
      "price": "4683000000000000000000",
      "reserved": "",
      "salt": "0xe2075189916911abe75e11e1c4a95e6aa2fa2b515d6bbd606e0b35cc78a769ab",
      "assetIds": [
        "41506478881403507969696680653240014914910929820314476107906210059990431967233",
        "41506478881403507969696680653240014914910929820314476107906210059990431967234"
      ]
    },
    {
      "x": 350,
      "y": 317,
      "size": 1,
      "price": "4683000000000000000000",
      "reserved": "",
      "salt": "0x0cb7442fc6d61ddb67727a5b07b2b87c714dee9a8cc7ff89d0dcbd7c6f2bce7f",
      "assetIds": [
        "41506478881403507969696680653240014914910929820314476107906210059990431967235",
        "41506478881403507969696680653240014914910929820314476107906210059990431967236"
      ]
    },
    {
      "x": 351,
      "y": 317,
      "size": 1,
      "price": "4683000000000000000000",
      "reserved": "",
      "salt": "0x91607b09735e90766304f747abeec1cc9ce701735364b2ed301621784335007b",
      "assetIds": [
        "41506478881403507969696680653240014914910929820314476107906210059990431967233",
        "41506478881403507969696680653240014914910929820314476107906210059990431967234"
      ]
    },
    {
      "x": 352,
      "y": 317,
      "size": 1,
      "price": "4683000000000000000000",
      "reserved": "",
      "salt": "0xda25ddafd8950ee74231d00919cbbcf53fc86ac1769920d7ddf845544807d2aa",
      "assetIds": [
        "41506478881403507969696680653240014914910929820314476107906210059990431967233",
        "41506478881403507969696680653240014914910929820314476107906210059990431967234"
      ]
    },
    {
      "x": 353,
      "y": 317,
      "size": 1,
      "price": "4683000000000000000000",
      "reserved": "",
      "salt": "0x048755d9475558844ad159490824e858de7163aa13418f04f5df0b8003518d0e",
      "assetIds": [
        "41506478881403507969696680653240014914910929820314476107906210059990431967235",
        "41506478881403507969696680653240014914910929820314476107906210059990431967236"
      ]
    },
    {
      "x": 353,
      "y": 315,
      "size": 1,
      "price": "4683000000000000000000",
      "reserved": "",
      "salt": "0xa4dfb535d2a163fff1107640288ca76a9d4cce3734c563375fe8227c91c0059a",
      "assetIds": [
        "41506478881403507969696680653240014914910929820314476107906210059990431967233",
        "41506478881403507969696680653240014914910929820314476107906210059990431967234"
      ]
    },
    {
      "x": 352,
      "y": 315,
      "size": 1,
      "price": "4683000000000000000000",
      "reserved": "",
      "salt": "0x14f027b4ed3c33584181000458627e51aadebbcd91bcb29762596c2a519796bb",
      "assetIds": [
        "41506478881403507969696680653240014914910929820314476107906210059990431967234",
        "41506478881403507969696680653240014914910929820314476107906210059990431967235"
      ]
    },
    {
      "x": 351,
      "y": 315,
      "size": 1,
      "price": "4683000000000000000000",
      "reserved": "",
      "salt": "0x68249634c95d69f387c95cd9e3608e5b9f8b688e6e039738f77cb5d7dfbccefa",
      "assetIds": [
        "41506478881403507969696680653240014914910929820314476107906210059990431967234",
        "41506478881403507969696680653240014914910929820314476107906210059990431967235"
      ]
    },
    {
      "x": 352,
      "y": 314,
      "size": 1,
      "price": "4683000000000000000000",
      "reserved": "",
      "salt": "0x6ab995bb13f6e89c637fb91fff8eabc404632af7db27998c548f99f6a1e9bf4b",
      "assetIds": [
        "41506478881403507969696680653240014914910929820314476107906210059990431967234",
        "41506478881403507969696680653240014914910929820314476107906210059990431967235"
      ]
    },
    {
      "x": 353,
      "y": 314,
      "size": 1,
      "price": "4683000000000000000000",
      "reserved": "",
      "salt": "0x4f59191f3c39080eda79c7706dcbc8e66c90e5e99f2903c373dfd8b3592c4b89",
      "assetIds": [
        "41506478881403507969696680653240014914910929820314476107906210059990431967234",
        "41506478881403507969696680653240014914910929820314476107906210059990431967235"
      ]
    },
    {
      "x": 353,
      "y": 313,
      "size": 1,
      "price": "4683000000000000000000",
      "reserved": "",
      "salt": "0x1a965b28309c3edd97ae7e4be68258adf316663ce4a70c4ac0fc5aacfe28306f",
      "assetIds": [
        "41506478881403507969696680653240014914910929820314476107906210059990431967235",
        "41506478881403507969696680653240014914910929820314476107906210059990431967236"
      ]
    },
    {
      "x": 349,
      "y": 313,
      "size": 1,
      "price": "4683000000000000000000",
      "reserved": "",
      "salt": "0x5c41edd6d81a14f5fe3a7dbf7667bc559204ff500713093c2e48bdaeb1aaa950",
      "assetIds": [
        "41506478881403507969696680653240014914910929820314476107906210059990431967235",
        "41506478881403507969696680653240014914910929820314476107906210059990431967236"
      ]
    },
    {
      "x": 350,
      "y": 313,
      "size": 1,
      "price": "4683000000000000000000",
      "reserved": "",
      "salt": "0x32473325a92077f1dbaa2f94de33cd4d6ead45ca9c8fce0b8d6a42ac16222c08",
      "assetIds": [
        "41506478881403507969696680653240014914910929820314476107906210059990431967235",
        "41506478881403507969696680653240014914910929820314476107906210059990431967236"
      ]
    },
    {
      "x": 351,
      "y": 313,
      "size": 1,
      "price": "4683000000000000000000",
      "reserved": "",
      "salt": "0xe63075a649be32b6138b1f155ac8fb2cc25202a214caa454d2103d9943507f43",
      "assetIds": [
        "41506478881403507969696680653240014914910929820314476107906210059990431967232",
        "41506478881403507969696680653240014914910929820314476107906210059990431967233"
      ]
    },
    {
      "x": 352,
      "y": 313,
      "size": 1,
      "price": "4683000000000000000000",
      "reserved": "",
      "salt": "0xe5196c6f9bd229a56ea93c0bdf38cb37b6dab472091201616057020ea3cac482",
      "assetIds": [
        "41506478881403507969696680653240014914910929820314476107906210059990431967234",
        "41506478881403507969696680653240014914910929820314476107906210059990431967235"
      ]
    },
    {
      "x": 350,
      "y": 314,
      "size": 1,
      "price": "4683000000000000000000",
      "reserved": "",
      "salt": "0x7eb738b4108d96e7dc88668b02b3c0e46ff77e7617c98e0918f7b324a58d0be8",
      "assetIds": [
        "41506478881403507969696680653240014914910929820314476107906210059990431967235",
        "41506478881403507969696680653240014914910929820314476107906210059990431967236"
      ]
    },
    {
      "x": 350,
      "y": 315,
      "size": 1,
      "price": "4683000000000000000000",
      "reserved": "",
      "salt": "0x982a38f33e86c1b86dd04d2005d6a04d4af9032e51d0e8cfb1e023ce01c9aa74",
      "assetIds": [
        "41506478881403507969696680653240014914910929820314476107906210059990431967235",
        "41506478881403507969696680653240014914910929820314476107906210059990431967236"
      ]
    },
    {
      "x": 350,
      "y": 316,
      "size": 1,
      "price": "4683000000000000000000",
      "reserved": "",
      "salt": "0xa4f1057f9ffdb1b59fd59cb11e344fac65c4d6608d477627beaa0be77306eb86",
      "assetIds": [
        "41506478881403507969696680653240014914910929820314476107906210059990431967234",
        "41506478881403507969696680653240014914910929820314476107906210059990431967235"
      ]
    },
    {
      "x": 349,
      "y": 315,
      "size": 1,
      "price": "4683000000000000000000",
      "reserved": "",
      "salt": "0x0b609e5f508d50f22af08b43b76dcd23b0eee58168f19ad837d78ed94459c19c",
      "assetIds": [
        "41506478881403507969696680653240014914910929820314476107906210059990431967235",
        "41506478881403507969696680653240014914910929820314476107906210059990431967236"
      ]
    },
    {
      "x": 349,
      "y": 314,
      "size": 1,
      "price": "4683000000000000000000",
      "reserved": "",
      "salt": "0xb959cca1c3f5e9feac1333b548e51deec7cf0bd03abf03dda8ac5a6f19d1f19a",
      "assetIds": [
        "41506478881403507969696680653240014914910929820314476107906210059990431967233",
        "41506478881403507969696680653240014914910929820314476107906210059990431967234"
      ]
    },
    {
      "x": 351,
      "y": 316,
      "size": 1,
      "price": "4683000000000000000000",
      "reserved": "",
      "salt": "0xd6096785782e9161a138164942a262b6e00725ea921267b88c3d74fbb5a71b48",
      "assetIds": [
        "41506478881403507969696680653240014914910929820314476107906210059990431967235",
        "41506478881403507969696680653240014914910929820314476107906210059990431967236"
      ]
    },
    {
      "x": 352,
      "y": 316,
      "size": 1,
      "price": "4683000000000000000000",
      "reserved": "",
      "salt": "0xc0aab9f6d556d48bc44f712251d04c94076ce8b881dc714f2868bf3154f75d9d",
      "assetIds": [
        "41506478881403507969696680653240014914910929820314476107906210059990431967232",
        "41506478881403507969696680653240014914910929820314476107906210059990431967233"
      ]
    },
    {
      "x": 353,
      "y": 316,
      "size": 1,
      "price": "4683000000000000000000",
      "reserved": "",
      "salt": "0x7e89efdbbdc25798d00b993c9f65cada097881534ab731714cbd2346d4f4f515",
      "assetIds": [
        "41506478881403507969696680653240014914910929820314476107906210059990431967233",
        "41506478881403507969696680653240014914910929820314476107906210059990431967234"
      ]
    },
    {
      "x": 353,
      "y": 320,
      "size": 1,
      "price": "4683000000000000000000",
      "reserved": "",
      "salt": "0x8ae7bdaa77f0c0d324d3fd6150c6860d90fa6b8c8127c4bb739aa5a448f0bc70",
      "assetIds": [
        "41506478881403507969696680653240014914910929820314476107906210059990431967234",
        "41506478881403507969696680653240014914910929820314476107906210059990431967235"
      ]
    },
    {
      "x": 353,
      "y": 319,
      "size": 1,
      "price": "4683000000000000000000",
      "reserved": "",
      "salt": "0xcad24becb6d864894f4ea44aa09f70457cab7f082adada34c4d3d6e3e9177ca4",
      "assetIds": [
        "41506478881403507969696680653240014914910929820314476107906210059990431967234",
        "41506478881403507969696680653240014914910929820314476107906210059990431967235"
      ]
    },
    {
      "x": 353,
      "y": 318,
      "size": 1,
      "price": "4683000000000000000000",
      "reserved": "",
      "salt": "0xd6b0b51dc05063b9293712e27acc79d1273182f76edfc2cfec8b5b516d078e64",
      "assetIds": [
        "41506478881403507969696680653240014914910929820314476107906210059990431967235",
        "41506478881403507969696680653240014914910929820314476107906210059990431967236"
      ]
    },
    {
      "x": 353,
      "y": 321,
      "size": 1,
      "price": "4683000000000000000000",
      "reserved": "",
      "salt": "0xda362040d05d2239c7407a6f6303dcd9cf01cc56abecf79ae2ada1065ee1c374",
      "assetIds": [
        "41506478881403507969696680653240014914910929820314476107906210059990431967235",
        "41506478881403507969696680653240014914910929820314476107906210059990431967236"
      ]
    },
    {
      "x": 353,
      "y": 322,
      "size": 1,
      "price": "4683000000000000000000",
      "reserved": "",
      "salt": "0xf42bb89cbd28a1250c100d39d02750246a5f255664abc012623ab20d7b6d7bff",
      "assetIds": [
        "41506478881403507969696680653240014914910929820314476107906210059990431967233",
        "41506478881403507969696680653240014914910929820314476107906210059990431967234"
      ]
    },
    {
      "x": 353,
      "y": 323,
      "size": 1,
      "price": "4683000000000000000000",
      "reserved": "",
      "salt": "0x08834adecb49bbeaffb43ed7de2c141bdd09804b6c9ac515114b7a98a72a845e",
      "assetIds": [
        "41506478881403507969696680653240014914910929820314476107906210059990431967234",
        "41506478881403507969696680653240014914910929820314476107906210059990431967235"
      ]
    },
    {
      "x": 352,
      "y": 323,
      "size": 1,
      "price": "4683000000000000000000",
      "reserved": "",
      "salt": "0x0b599c141909ebbcf3da8047d87f52e5d318960574347af7d3e3b55d3b12163b",
      "assetIds": [
        "41506478881403507969696680653240014914910929820314476107906210059990431967233",
        "41506478881403507969696680653240014914910929820314476107906210059990431967234"
      ]
    },
    {
      "x": 351,
      "y": 323,
      "size": 1,
      "price": "4683000000000000000000",
      "reserved": "",
      "salt": "0x1ca50363100e3d0baab2ee317936c72ac3a5841b323cc7bad2f0d14b77b262e9",
      "assetIds": [
        "41506478881403507969696680653240014914910929820314476107906210059990431967235",
        "41506478881403507969696680653240014914910929820314476107906210059990431967236"
      ]
    },
    {
      "x": 351,
      "y": 322,
      "size": 1,
      "price": "4683000000000000000000",
      "reserved": "",
      "salt": "0xf1a67b14d9586e287b4dbc4f6593aec8262db27a37cb6cd1e2c8c9ee92556d96",
      "assetIds": [
        "41506478881403507969696680653240014914910929820314476107906210059990431967235",
        "41506478881403507969696680653240014914910929820314476107906210059990431967236"
      ]
    },
    {
      "x": 350,
      "y": 322,
      "size": 1,
      "price": "4683000000000000000000",
      "reserved": "",
      "salt": "0x80323f89222da0ae705f981c668790f7a59c3cc24b070b870c02c52fef210a8f",
      "assetIds": [
        "41506478881403507969696680653240014914910929820314476107906210059990431967234",
        "41506478881403507969696680653240014914910929820314476107906210059990431967235"
      ]
    },
    {
      "x": 350,
      "y": 321,
      "size": 1,
      "price": "4683000000000000000000",
      "reserved": "",
      "salt": "0x4393211425b034f7504a1734da3750f2aadf0ddd568fb866c92bc2a5f58ce2d3",
      "assetIds": [
        "41506478881403507969696680653240014914910929820314476107906210059990431967232",
        "41506478881403507969696680653240014914910929820314476107906210059990431967233"
      ]
    },
    {
      "x": 350,
      "y": 320,
      "size": 1,
      "price": "4683000000000000000000",
      "reserved": "",
      "salt": "0xd02bee42c9cfbd0caec068f208f89aa9f28b66228275a2a60724ab1cb4a7a3e4",
      "assetIds": [
        "41506478881403507969696680653240014914910929820314476107906210059990431967234",
        "41506478881403507969696680653240014914910929820314476107906210059990431967235"
      ]
    },
    {
      "x": 350,
      "y": 319,
      "size": 1,
      "price": "4683000000000000000000",
      "reserved": "",
      "salt": "0x4a5585cdae40a4f9228e12ea883410739e001ee71a1e674db56fd0544169994c",
      "assetIds": [
        "41506478881403507969696680653240014914910929820314476107906210059990431967234",
        "41506478881403507969696680653240014914910929820314476107906210059990431967235"
      ]
    },
    {
      "x": 351,
      "y": 319,
      "size": 1,
      "price": "4683000000000000000000",
      "reserved": "",
      "salt": "0x2a94339b47ff966c2d5241d37eae6510c4791f898d012245d7a15204b4e036fc",
      "assetIds": [
        "41506478881403507969696680653240014914910929820314476107906210059990431967234",
        "41506478881403507969696680653240014914910929820314476107906210059990431967235"
      ]
    },
    {
      "x": 351,
      "y": 318,
      "size": 1,
      "price": "4683000000000000000000",
      "reserved": "",
      "salt": "0x3b9347a2fad8771013a88b5574ee4774da5b1ca0c643301674532550e5671280",
      "assetIds": [
        "41506478881403507969696680653240014914910929820314476107906210059990431967235",
        "41506478881403507969696680653240014914910929820314476107906210059990431967236"
      ]
    },
    {
      "x": 352,
      "y": 318,
      "size": 1,
      "price": "4683000000000000000000",
      "reserved": "",
      "salt": "0xdd6fd4e74b16b111bf9f2c2ae543411cfcd5c5f2539e4d71deacb85e86788b55",
      "assetIds": [
        "41506478881403507969696680653240014914910929820314476107906210059990431967232",
        "41506478881403507969696680653240014914910929820314476107906210059990431967233"
      ]
    },
    {
      "x": 350,
      "y": 318,
      "size": 1,
      "price": "4683000000000000000000",
      "reserved": "",
      "salt": "0x9dd4160d75c9fd6fa8944631b9db66541c53220d81786cda65c692e8bae99a45",
      "assetIds": [
        "41506478881403507969696680653240014914910929820314476107906210059990431967232",
        "41506478881403507969696680653240014914910929820314476107906210059990431967233"
      ]
    },
    {
      "x": 352,
      "y": 319,
      "size": 1,
      "price": "4683000000000000000000",
      "reserved": "",
      "salt": "0x2455c0c2ba8c55e273414c92cf6f1cec97128f23b54a44f34036298d9b81185c",
      "assetIds": [
        "41506478881403507969696680653240014914910929820314476107906210059990431967232",
        "41506478881403507969696680653240014914910929820314476107906210059990431967233"
      ]
    },
    {
      "x": 352,
      "y": 320,
      "size": 1,
      "price": "4683000000000000000000",
      "reserved": "",
      "salt": "0x92fc3b7165d5c6cf5cbc9c1eba596af68fc11e1d63f1306add90071581b4e828",
      "assetIds": [
        "41506478881403507969696680653240014914910929820314476107906210059990431967234",
        "41506478881403507969696680653240014914910929820314476107906210059990431967235"
      ]
    },
    {
      "x": 351,
      "y": 320,
      "size": 1,
      "price": "4683000000000000000000",
      "reserved": "",
      "salt": "0xd7931ac4eaf37c1a0a8a8da0d59814f8bc9d95635ea2bfdfeadf202580e4a36d",
      "assetIds": [
        "41506478881403507969696680653240014914910929820314476107906210059990431967234",
        "41506478881403507969696680653240014914910929820314476107906210059990431967235"
      ]
    },
    {
      "x": 351,
      "y": 321,
      "size": 1,
      "price": "4683000000000000000000",
      "reserved": "",
      "salt": "0x8af5add53977de07c4f61e96dd48f895bb4185b3ea455461519d50597cc17abd",
      "assetIds": [
        "41506478881403507969696680653240014914910929820314476107906210059990431967233",
        "41506478881403507969696680653240014914910929820314476107906210059990431967234"
      ]
    },
    {
      "x": 352,
      "y": 322,
      "size": 1,
      "price": "4683000000000000000000",
      "reserved": "",
      "salt": "0x42f3998e236e038e39bb869a32080cbb1b8ec73689fe21c16fcbd4313710c7b2",
      "assetIds": [
        "41506478881403507969696680653240014914910929820314476107906210059990431967233",
        "41506478881403507969696680653240014914910929820314476107906210059990431967234"
      ]
    },
    {
      "x": 353,
      "y": 324,
      "size": 1,
      "price": "4683000000000000000000",
      "reserved": "",
      "salt": "0x0517c187573e0618244fe6369973c106e10cc2bbd4c4ba03548df06df0930f14",
      "assetIds": [
        "41506478881403507969696680653240014914910929820314476107906210059990431967235",
        "41506478881403507969696680653240014914910929820314476107906210059990431967236"
      ]
    },
    {
      "x": 354,
      "y": 324,
      "size": 1,
      "price": "4683000000000000000000",
      "reserved": "",
      "salt": "0x250d67b65c458853127aa4ca28f3484268a27d2c4d9fd79855a78a3e8d748b35",
      "assetIds": [
        "41506478881403507969696680653240014914910929820314476107906210059990431967232",
        "41506478881403507969696680653240014914910929820314476107906210059990431967233"
      ]
    },
    {
      "x": 354,
      "y": 325,
      "size": 1,
      "price": "4683000000000000000000",
      "reserved": "",
      "salt": "0x818c2b6bd60d16c8cb607921c316ed2bd2fc3ab209b39d0bc2c3b5a03085e357",
      "assetIds": [
        "41506478881403507969696680653240014914910929820314476107906210059990431967234",
        "41506478881403507969696680653240014914910929820314476107906210059990431967235"
      ]
    },
    {
      "x": 354,
      "y": 326,
      "size": 1,
      "price": "4683000000000000000000",
      "reserved": "",
      "salt": "0x7380c9cf20caf857954049f00e3fc925b63ae3d6424f8bc8f0ec02f7d9bd45a8",
      "assetIds": [
        "41506478881403507969696680653240014914910929820314476107906210059990431967233",
        "41506478881403507969696680653240014914910929820314476107906210059990431967234"
      ]
    },
    {
      "x": 354,
      "y": 327,
      "size": 1,
      "price": "4683000000000000000000",
      "reserved": "",
      "salt": "0x92885e471cdbb2b160caa0c1b2bc85ce44d04d0c7e0311fd1c4253e408ac0654",
      "assetIds": [
        "41506478881403507969696680653240014914910929820314476107906210059990431967233",
        "41506478881403507969696680653240014914910929820314476107906210059990431967234"
      ]
    },
    {
      "x": 355,
      "y": 327,
      "size": 1,
      "price": "4683000000000000000000",
      "reserved": "",
      "salt": "0x95a8a86af952c2056b2ddbaf47726d6fbce2edacb198e00ab29dc475cc1ed9a5",
      "assetIds": [
        "41506478881403507969696680653240014914910929820314476107906210059990431967233",
        "41506478881403507969696680653240014914910929820314476107906210059990431967234"
      ]
    },
    {
      "x": 357,
      "y": 327,
      "size": 1,
      "price": "4683000000000000000000",
      "reserved": "",
      "salt": "0xe3a2c717a3ded8b898feb87f6a1eb2aef49d7a44a3560f0724d059b38d3c11df",
      "assetIds": [
        "41506478881403507969696680653240014914910929820314476107906210059990431967235",
        "41506478881403507969696680653240014914910929820314476107906210059990431967236"
      ]
    },
    {
      "x": 358,
      "y": 327,
      "size": 1,
      "price": "4683000000000000000000",
      "reserved": "",
      "salt": "0x8c89fe26ccca2e8ec0322ef59944ef1aaf9e5f2d0b42757ec5b2bd8e3170e92d",
      "assetIds": [
        "41506478881403507969696680653240014914910929820314476107906210059990431967235",
        "41506478881403507969696680653240014914910929820314476107906210059990431967236"
      ]
    },
    {
      "x": 359,
      "y": 327,
      "size": 1,
      "price": "4683000000000000000000",
      "reserved": "",
      "salt": "0xb1cc9781e6a955c9010f2a50887c723d926a0ca544c44e2760421c9b2f5dcbf7",
      "assetIds": [
        "41506478881403507969696680653240014914910929820314476107906210059990431967233",
        "41506478881403507969696680653240014914910929820314476107906210059990431967234"
      ]
    },
    {
      "x": 359,
      "y": 326,
      "size": 1,
      "price": "4683000000000000000000",
      "reserved": "",
      "salt": "0xd7dd14ff22077df7dc3be679012c43ca42b8bce5fc3d91ec52375bfd89331c0e",
      "assetIds": [
        "41506478881403507969696680653240014914910929820314476107906210059990431967235",
        "41506478881403507969696680653240014914910929820314476107906210059990431967236"
      ]
    },
    {
      "x": 359,
      "y": 325,
      "size": 1,
      "price": "4683000000000000000000",
      "reserved": "",
      "salt": "0x5cab905abd8e62af060ae07570e4415d595dfb0c48e2492d7f841a9be80eb8fe",
      "assetIds": [
        "41506478881403507969696680653240014914910929820314476107906210059990431967233",
        "41506478881403507969696680653240014914910929820314476107906210059990431967234"
      ]
    },
    {
      "x": 359,
      "y": 324,
      "size": 1,
      "price": "4683000000000000000000",
      "reserved": "",
      "salt": "0x3e5e871618769d15e9b62cbc97ebbb79b9fdfcb7d93f6dc01c2e1d76ebe1415b",
      "assetIds": [
        "41506478881403507969696680653240014914910929820314476107906210059990431967234",
        "41506478881403507969696680653240014914910929820314476107906210059990431967235"
      ]
    },
    {
      "x": 358,
      "y": 324,
      "size": 1,
      "price": "4683000000000000000000",
      "reserved": "",
      "salt": "0xad14fd0edbbdbb234725d5781593b924211609447b50b7be152c396b1c064554",
      "assetIds": [
        "41506478881403507969696680653240014914910929820314476107906210059990431967234",
        "41506478881403507969696680653240014914910929820314476107906210059990431967235"
      ]
    },
    {
      "x": 357,
      "y": 324,
      "size": 1,
      "price": "4683000000000000000000",
      "reserved": "",
      "salt": "0xdbe3737d6618cfad217cadd18fee25286543ec45e391a093ab74169ef6bab111",
      "assetIds": [
        "41506478881403507969696680653240014914910929820314476107906210059990431967232",
        "41506478881403507969696680653240014914910929820314476107906210059990431967233"
      ]
    },
    {
      "x": 356,
      "y": 324,
      "size": 1,
      "price": "4683000000000000000000",
      "reserved": "",
      "salt": "0x239da8ba49ee445f57e6b3dec854ef61de945ad30ce2685be60bf170430aa8b4",
      "assetIds": [
        "41506478881403507969696680653240014914910929820314476107906210059990431967233",
        "41506478881403507969696680653240014914910929820314476107906210059990431967234"
      ]
    },
    {
      "x": 355,
      "y": 324,
      "size": 1,
      "price": "4683000000000000000000",
      "reserved": "",
      "salt": "0xf63babfac6d352c5425da5a56a28fa11313eb479c043e46e12032e56aa5e4c1d",
      "assetIds": [
        "41506478881403507969696680653240014914910929820314476107906210059990431967233",
        "41506478881403507969696680653240014914910929820314476107906210059990431967234"
      ]
    },
    {
      "x": 352,
      "y": 324,
      "size": 1,
      "price": "4683000000000000000000",
      "reserved": "",
      "salt": "0x5ec402ff96b00d771350f2b69f1369abd6fe54a14b69cccbafd3de6a6ad385c8",
      "assetIds": [
        "41506478881403507969696680653240014914910929820314476107906210059990431967232",
        "41506478881403507969696680653240014914910929820314476107906210059990431967233"
      ]
    },
    {
      "x": 351,
      "y": 324,
      "size": 1,
      "price": "4683000000000000000000",
      "reserved": "",
      "salt": "0xc9b7ffe35b76373bd4de5d3995fcd74c88ae8f3173db73f89633592d08629e15",
      "assetIds": [
        "41506478881403507969696680653240014914910929820314476107906210059990431967232",
        "41506478881403507969696680653240014914910929820314476107906210059990431967233"
      ]
    },
    {
      "x": 350,
      "y": 324,
      "size": 1,
      "price": "4683000000000000000000",
      "reserved": "",
      "salt": "0xba664a4e3d06164d80498df355e509854d8432be22c2569121be3242bf7a62a4",
      "assetIds": [
        "41506478881403507969696680653240014914910929820314476107906210059990431967233",
        "41506478881403507969696680653240014914910929820314476107906210059990431967234"
      ]
    },
    {
      "x": 350,
      "y": 323,
      "size": 1,
      "price": "4683000000000000000000",
      "reserved": "",
      "salt": "0x6fdcfa268a360c8b81dcaf99f958f0041cf24e65a72a754a7f43c534c7801f0b",
      "assetIds": [
        "41506478881403507969696680653240014914910929820314476107906210059990431967233",
        "41506478881403507969696680653240014914910929820314476107906210059990431967234"
      ]
    },
    {
      "x": 350,
      "y": 325,
      "size": 1,
      "price": "4683000000000000000000",
      "reserved": "",
      "salt": "0x47503c0db912cbe01f684277241501dc588781a3ba6d77e72eb5da48cc0a5d84",
      "assetIds": [
        "41506478881403507969696680653240014914910929820314476107906210059990431967235",
        "41506478881403507969696680653240014914910929820314476107906210059990431967236"
      ]
    },
    {
      "x": 350,
      "y": 326,
      "size": 1,
      "price": "4683000000000000000000",
      "reserved": "",
      "salt": "0xadec6818c2c5daf7d288f3d45d50491291d59294efe78c6d1b9ff2a3112a0fbd",
      "assetIds": [
        "41506478881403507969696680653240014914910929820314476107906210059990431967235",
        "41506478881403507969696680653240014914910929820314476107906210059990431967236"
      ]
    },
    {
      "x": 350,
      "y": 327,
      "size": 1,
      "price": "4683000000000000000000",
      "reserved": "",
      "salt": "0xcdbfbc549a99878b13e9fce2a6c667ba690dbaf627449e2fccf9ad456440fac5",
      "assetIds": [
        "41506478881403507969696680653240014914910929820314476107906210059990431967232",
        "41506478881403507969696680653240014914910929820314476107906210059990431967233"
      ]
    },
    {
      "x": 351,
      "y": 327,
      "size": 1,
      "price": "4683000000000000000000",
      "reserved": "",
      "salt": "0x6e93c648b90b5784f9f7c4b5b72f0fd45c7faa25b3fbdbc36959b940fd2d3a19",
      "assetIds": [
        "41506478881403507969696680653240014914910929820314476107906210059990431967232",
        "41506478881403507969696680653240014914910929820314476107906210059990431967233"
      ]
    },
    {
      "x": 352,
      "y": 327,
      "size": 1,
      "price": "4683000000000000000000",
      "reserved": "",
      "salt": "0x512b81ac0d66ce19e12709f33609abbc7829647f6ae791bc895bc3e84ec5fbf7",
      "assetIds": [
        "41506478881403507969696680653240014914910929820314476107906210059990431967232",
        "41506478881403507969696680653240014914910929820314476107906210059990431967233"
      ]
    },
    {
      "x": 353,
      "y": 327,
      "size": 1,
      "price": "4683000000000000000000",
      "reserved": "",
      "salt": "0xbec867ccf15551ce17c0979409d472116fc9842677dbfddabbfaf30a25018959",
      "assetIds": [
        "41506478881403507969696680653240014914910929820314476107906210059990431967232",
        "41506478881403507969696680653240014914910929820314476107906210059990431967233"
      ]
    },
    {
      "x": 358,
      "y": 326,
      "size": 1,
      "price": "4683000000000000000000",
      "reserved": "",
      "salt": "0x598afe0dd6e1379bba308187cb71114d1950ae01c3d227841935595ca80b9318",
      "assetIds": [
        "41506478881403507969696680653240014914910929820314476107906210059990431967232",
        "41506478881403507969696680653240014914910929820314476107906210059990431967233"
      ]
    },
    {
      "x": 357,
      "y": 326,
      "size": 1,
      "price": "4683000000000000000000",
      "reserved": "",
      "salt": "0x4a8ba1b50697801de0146775f34c28987eeef86359ffb5188073787b7dc21cac",
      "assetIds": [
        "41506478881403507969696680653240014914910929820314476107906210059990431967232",
        "41506478881403507969696680653240014914910929820314476107906210059990431967233"
      ]
    },
    {
      "x": 356,
      "y": 325,
      "size": 1,
      "price": "4683000000000000000000",
      "reserved": "",
      "salt": "0xa656dfa98ea06740968735ee9b56798ef97644183f6c10ce89cdf18713e2c515",
      "assetIds": [
        "41506478881403507969696680653240014914910929820314476107906210059990431967232",
        "41506478881403507969696680653240014914910929820314476107906210059990431967233"
      ]
    },
    {
      "x": 355,
      "y": 325,
      "size": 1,
      "price": "4683000000000000000000",
      "reserved": "",
      "salt": "0xd668e72ff3f7ed7a982cb759538d2b2540c96c7fff6a4a96008fd5d714e8c95d",
      "assetIds": [
        "41506478881403507969696680653240014914910929820314476107906210059990431967234",
        "41506478881403507969696680653240014914910929820314476107906210059990431967235"
      ]
    },
    {
      "x": 353,
      "y": 325,
      "size": 1,
      "price": "4683000000000000000000",
      "reserved": "",
      "salt": "0x026c1742d20f9cde702747f31515651eb63afbe2ecd7b66e976d60e1852728c4",
      "assetIds": [
        "41506478881403507969696680653240014914910929820314476107906210059990431967233",
        "41506478881403507969696680653240014914910929820314476107906210059990431967234"
      ]
    },
    {
      "x": 352,
      "y": 325,
      "size": 1,
      "price": "4683000000000000000000",
      "reserved": "",
      "salt": "0x9a67f912d8e5190aec871d082eda0ab5224cedf73dc15244e69ee44b039b7a81",
      "assetIds": [
        "41506478881403507969696680653240014914910929820314476107906210059990431967234",
        "41506478881403507969696680653240014914910929820314476107906210059990431967235"
      ]
    },
    {
      "x": 351,
      "y": 325,
      "size": 1,
      "price": "4683000000000000000000",
      "reserved": "",
      "salt": "0x27845a0caed42d3206bb922f35ad380c66aa62f2d718972c7094b670ce49a885",
      "assetIds": [
        "41506478881403507969696680653240014914910929820314476107906210059990431967235",
        "41506478881403507969696680653240014914910929820314476107906210059990431967236"
      ]
    },
    {
      "x": 351,
      "y": 326,
      "size": 1,
      "price": "4683000000000000000000",
      "reserved": "",
      "salt": "0x7568fb23dfe30fe464d7c7739729ec78af427736e4bb4cc3c387927ae715990f",
      "assetIds": [
        "41506478881403507969696680653240014914910929820314476107906210059990431967235",
        "41506478881403507969696680653240014914910929820314476107906210059990431967236"
      ]
    },
    {
      "x": 352,
      "y": 326,
      "size": 1,
      "price": "4683000000000000000000",
      "reserved": "",
      "salt": "0xc91a5c34aa14bd5c77fb5ab33febe2adc5c1db0bc5cd710e6699e2c85597ab7d",
      "assetIds": [
        "41506478881403507969696680653240014914910929820314476107906210059990431967235",
        "41506478881403507969696680653240014914910929820314476107906210059990431967236"
      ]
    },
    {
      "x": 353,
      "y": 326,
      "size": 1,
      "price": "4683000000000000000000",
      "reserved": "",
      "salt": "0xdcdce5e50598fcc95bf1b778f0dc6226c9a7fed53e1be97f8b7fa290f95ffcc2",
      "assetIds": [
        "41506478881403507969696680653240014914910929820314476107906210059990431967233",
        "41506478881403507969696680653240014914910929820314476107906210059990431967234"
      ]
    },
    {
      "x": 355,
      "y": 326,
      "size": 1,
      "price": "4683000000000000000000",
      "reserved": "",
      "salt": "0x69effce653c8a8c584077652f1eca0faf935271f15af013a39ae9d8b627c7d79",
      "assetIds": [
        "41506478881403507969696680653240014914910929820314476107906210059990431967235",
        "41506478881403507969696680653240014914910929820314476107906210059990431967236"
      ]
    },
    {
      "x": 356,
      "y": 326,
      "size": 1,
      "price": "4683000000000000000000",
      "reserved": "",
      "salt": "0x289ab041ac2c547772b57f96907824052b1e7d6d1b7f745c92079c4e1793c3b7",
      "assetIds": [
        "41506478881403507969696680653240014914910929820314476107906210059990431967235",
        "41506478881403507969696680653240014914910929820314476107906210059990431967236"
      ]
    },
    {
      "x": 357,
      "y": 325,
      "size": 1,
      "price": "4683000000000000000000",
      "reserved": "",
      "salt": "0xb5a4f044a93c2c1aab2f285d5fc1683561feb93d04aca3d0e96fd790eef62afb",
      "assetIds": [
        "41506478881403507969696680653240014914910929820314476107906210059990431967232",
        "41506478881403507969696680653240014914910929820314476107906210059990431967233"
      ]
    },
    {
      "x": 358,
      "y": 325,
      "size": 1,
      "price": "4683000000000000000000",
      "reserved": "",
      "salt": "0x18256805503e37d3e94b15baf8cb9838c33dd0b33f87bf8cabdaa98efe32ccde",
      "assetIds": [
        "41506478881403507969696680653240014914910929820314476107906210059990431967233",
        "41506478881403507969696680653240014914910929820314476107906210059990431967234"
      ]
    },
    {
      "x": 350,
      "y": 337,
      "size": 1,
      "price": "4683000000000000000000",
      "reserved": "",
      "salt": "0xb3f10369e43a2507486c4577487edbed82da1f7e8c054cf2e14feb7e03446dd9",
      "assetIds": [
        "41506478881403507969696680653240014914910929820314476107906210059990431967235",
        "41506478881403507969696680653240014914910929820314476107906210059990431967236"
      ]
    },
    {
      "x": 350,
      "y": 336,
      "size": 1,
      "price": "4683000000000000000000",
      "reserved": "",
      "salt": "0x937c61045c36dfc952c2aa739be4c292cbeb6b20c61a79054a79f66b0da8f3dd",
      "assetIds": [
        "41506478881403507969696680653240014914910929820314476107906210059990431967234",
        "41506478881403507969696680653240014914910929820314476107906210059990431967235"
      ]
    },
    {
      "x": 350,
      "y": 335,
      "size": 1,
      "price": "4683000000000000000000",
      "reserved": "",
      "salt": "0x564c203230676bd2b9c3492f8684f3ee4c48eb019257704fcefaadec093e0e95",
      "assetIds": [
        "41506478881403507969696680653240014914910929820314476107906210059990431967235",
        "41506478881403507969696680653240014914910929820314476107906210059990431967236"
      ]
    },
    {
      "x": 350,
      "y": 334,
      "size": 1,
      "price": "4683000000000000000000",
      "reserved": "",
      "salt": "0xe20f03cc475417de51cdadb7d60fb51c60f087c2a261c441464837d6f4ee2c81",
      "assetIds": [
        "41506478881403507969696680653240014914910929820314476107906210059990431967232",
        "41506478881403507969696680653240014914910929820314476107906210059990431967233"
      ]
    },
    {
      "x": 350,
      "y": 333,
      "size": 1,
      "price": "4683000000000000000000",
      "reserved": "",
      "salt": "0xa289e28fa93343ceae34d91fe703e7dfcdda2f69c638f7d2a739f2aaa2dbb757",
      "assetIds": [
        "41506478881403507969696680653240014914910929820314476107906210059990431967235",
        "41506478881403507969696680653240014914910929820314476107906210059990431967236"
      ]
    },
    {
      "x": 351,
      "y": 333,
      "size": 1,
      "price": "4683000000000000000000",
      "reserved": "",
      "salt": "0xfdca7e0c85ebc68f551570436c138881481bec4cc3199ae5063b85511b1a51bf",
      "assetIds": [
        "41506478881403507969696680653240014914910929820314476107906210059990431967235",
        "41506478881403507969696680653240014914910929820314476107906210059990431967236"
      ]
    },
    {
      "x": 351,
      "y": 332,
      "size": 1,
      "price": "4683000000000000000000",
      "reserved": "",
      "salt": "0x27cc1354df1b0a2fb1592451be7c265beb1af6851ffe84337a2c41c339ad84b7",
      "assetIds": [
        "41506478881403507969696680653240014914910929820314476107906210059990431967235",
        "41506478881403507969696680653240014914910929820314476107906210059990431967236"
      ]
    },
    {
      "x": 350,
      "y": 332,
      "size": 1,
      "price": "4683000000000000000000",
      "reserved": "",
      "salt": "0xb440cd53a9a498ff1420a895a4b870cbdf758086ab3ba12453ad883e13869386",
      "assetIds": [
        "41506478881403507969696680653240014914910929820314476107906210059990431967235",
        "41506478881403507969696680653240014914910929820314476107906210059990431967236"
      ]
    },
    {
      "x": 351,
      "y": 331,
      "size": 1,
      "price": "4683000000000000000000",
      "reserved": "",
      "salt": "0xdae2bd3d4b37a590df68d79fef1c985dc16aa08d6ba8c02efd1ffac38d5ee1e8",
      "assetIds": [
        "41506478881403507969696680653240014914910929820314476107906210059990431967234",
        "41506478881403507969696680653240014914910929820314476107906210059990431967235"
      ]
    },
    {
      "x": 352,
      "y": 331,
      "size": 1,
      "price": "4683000000000000000000",
      "reserved": "",
      "salt": "0xb31907eda495e8a82f8b7e5f73afaf2c1326db0108d9101035377665de2565c5",
      "assetIds": [
        "41506478881403507969696680653240014914910929820314476107906210059990431967232",
        "41506478881403507969696680653240014914910929820314476107906210059990431967233"
      ]
    },
    {
      "x": 353,
      "y": 331,
      "size": 1,
      "price": "4683000000000000000000",
      "reserved": "",
      "salt": "0x7c839d2adf2423d0f5011af92aaee0734260ef2589ba71dbe0c805851a33cc8b",
      "assetIds": [
        "41506478881403507969696680653240014914910929820314476107906210059990431967235",
        "41506478881403507969696680653240014914910929820314476107906210059990431967236"
      ]
    },
    {
      "x": 353,
      "y": 330,
      "size": 1,
      "price": "4683000000000000000000",
      "reserved": "",
      "salt": "0xea2d10dd20540cef5668dac683980220cf3d045aae50d5f424af0d6571e777ac",
      "assetIds": [
        "41506478881403507969696680653240014914910929820314476107906210059990431967233",
        "41506478881403507969696680653240014914910929820314476107906210059990431967234"
      ]
    },
    {
      "x": 353,
      "y": 329,
      "size": 1,
      "price": "4683000000000000000000",
      "reserved": "",
      "salt": "0x6db4616d978dd5c0dbab0e89c0c7a31d8ef979362ccf97aeb1146d4f34254cb4",
      "assetIds": [
        "41506478881403507969696680653240014914910929820314476107906210059990431967232",
        "41506478881403507969696680653240014914910929820314476107906210059990431967233"
      ]
    },
    {
      "x": 353,
      "y": 328,
      "size": 1,
      "price": "4683000000000000000000",
      "reserved": "",
      "salt": "0xef96980700d68a9cf362501e630b22878b3d479ca608e6c8935f543f58aaa855",
      "assetIds": [
        "41506478881403507969696680653240014914910929820314476107906210059990431967235",
        "41506478881403507969696680653240014914910929820314476107906210059990431967236"
      ]
    },
    {
      "x": 352,
      "y": 328,
      "size": 1,
      "price": "4683000000000000000000",
      "reserved": "",
      "salt": "0x01f27a7e65b55e9a1e12bc4695a8a6ef56a17eb945ec5de67d1d433e6c2664eb",
      "assetIds": [
        "41506478881403507969696680653240014914910929820314476107906210059990431967235",
        "41506478881403507969696680653240014914910929820314476107906210059990431967236"
      ]
    },
    {
      "x": 351,
      "y": 328,
      "size": 1,
      "price": "4683000000000000000000",
      "reserved": "",
      "salt": "0x0b227c76b7f418065fda5b2b38ab2108f8d2f5210461b804ed137e01190a84b0",
      "assetIds": [
        "41506478881403507969696680653240014914910929820314476107906210059990431967235",
        "41506478881403507969696680653240014914910929820314476107906210059990431967236"
      ]
    },
    {
      "x": 351,
      "y": 329,
      "size": 1,
      "price": "4683000000000000000000",
      "reserved": "",
      "salt": "0x0917bb7373005c4700804598f934bad1e6c17eebe50e962503a94d95b24c1f75",
      "assetIds": [
        "41506478881403507969696680653240014914910929820314476107906210059990431967233",
        "41506478881403507969696680653240014914910929820314476107906210059990431967234"
      ]
    },
    {
      "x": 351,
      "y": 330,
      "size": 1,
      "price": "4683000000000000000000",
      "reserved": "",
      "salt": "0x6bb64cedf7c27bf2cdb83ec79f1b22e4c02c69be6de8d6f798e99a470bfd0df5",
      "assetIds": [
        "41506478881403507969696680653240014914910929820314476107906210059990431967234",
        "41506478881403507969696680653240014914910929820314476107906210059990431967235"
      ]
    },
    {
      "x": 352,
      "y": 330,
      "size": 1,
      "price": "4683000000000000000000",
      "reserved": "",
      "salt": "0x1cb2ceb3a5b9d28927097245cf3c24fc3f34a2b41f622bb6c19ce686a2f95bdc",
      "assetIds": [
        "41506478881403507969696680653240014914910929820314476107906210059990431967232",
        "41506478881403507969696680653240014914910929820314476107906210059990431967233"
      ]
    },
    {
      "x": 352,
      "y": 329,
      "size": 1,
      "price": "4683000000000000000000",
      "reserved": "",
      "salt": "0x86ca496b7ab77cfe0007ea33c9503cce71c9ec4f78504de0847180b5e93c16ff",
      "assetIds": [
        "41506478881403507969696680653240014914910929820314476107906210059990431967232",
        "41506478881403507969696680653240014914910929820314476107906210059990431967233"
      ]
    },
    {
      "x": 354,
      "y": 329,
      "size": 1,
      "price": "4683000000000000000000",
      "reserved": "",
      "salt": "0xe6ba0d2d94be52c1bac6e94c694df2c46d27fd5bf084a63e4fefa3d2f9163029",
      "assetIds": [
        "41506478881403507969696680653240014914910929820314476107906210059990431967235",
        "41506478881403507969696680653240014914910929820314476107906210059990431967236"
      ]
    },
    {
      "x": 355,
      "y": 329,
      "size": 1,
      "price": "4683000000000000000000",
      "reserved": "",
      "salt": "0xc84c008e7e151199834a4628a351f3f6dc8cecba928472045f3887f96fb8e001",
      "assetIds": [
        "41506478881403507969696680653240014914910929820314476107906210059990431967234",
        "41506478881403507969696680653240014914910929820314476107906210059990431967235"
      ]
    },
    {
      "x": 356,
      "y": 329,
      "size": 1,
      "price": "4683000000000000000000",
      "reserved": "",
      "salt": "0x7ae389de7cd6fb1e5bb71493bb63dbbb45a266687ee72649ac096e04cfb0c3b5",
      "assetIds": [
        "41506478881403507969696680653240014914910929820314476107906210059990431967235",
        "41506478881403507969696680653240014914910929820314476107906210059990431967236"
      ]
    },
    {
      "x": 357,
      "y": 329,
      "size": 1,
      "price": "4683000000000000000000",
      "reserved": "",
      "salt": "0x31d274108b3c682c8e92d80e79b4ca6080ac46a9503df76eeff6e2a26343dbe9",
      "assetIds": [
        "41506478881403507969696680653240014914910929820314476107906210059990431967233",
        "41506478881403507969696680653240014914910929820314476107906210059990431967234"
      ]
    },
    {
      "x": 359,
      "y": 329,
      "size": 1,
      "price": "4683000000000000000000",
      "reserved": "",
      "salt": "0x2ad958b0f24954bd8f683c207696d3dcca6a9c0edf074fa55b64722198377658",
      "assetIds": [
        "41506478881403507969696680653240014914910929820314476107906210059990431967235",
        "41506478881403507969696680653240014914910929820314476107906210059990431967236"
      ]
    },
    {
      "x": 358,
      "y": 329,
      "size": 1,
      "price": "4683000000000000000000",
      "reserved": "",
      "salt": "0xa0bec510d7086046b49fc0c1e11e609be89e9f19ab5b43488526614058045741",
      "assetIds": [
        "41506478881403507969696680653240014914910929820314476107906210059990431967235",
        "41506478881403507969696680653240014914910929820314476107906210059990431967236"
      ]
    },
    {
      "x": 355,
      "y": 328,
      "size": 1,
      "price": "4683000000000000000000",
      "reserved": "",
      "salt": "0x325a50d80c51cc5087534727295f819cd7af58bc9f3a5f84958ee5cccf408b32",
      "assetIds": [
        "41506478881403507969696680653240014914910929820314476107906210059990431967232",
        "41506478881403507969696680653240014914910929820314476107906210059990431967233"
      ]
    },
    {
      "x": 354,
      "y": 328,
      "size": 1,
      "price": "4683000000000000000000",
      "reserved": "",
      "salt": "0x39df75bab222384e044c6541ddf2257f29992d698a75a63d2ebab312ed5bf887",
      "assetIds": [
        "41506478881403507969696680653240014914910929820314476107906210059990431967234",
        "41506478881403507969696680653240014914910929820314476107906210059990431967235"
      ]
    },
    {
      "x": 356,
      "y": 328,
      "size": 1,
      "price": "4683000000000000000000",
      "reserved": "",
      "salt": "0x0d57fefc8cec52908acb1970aec561c1b81116e55dd85a8030d194a7e9111d68",
      "assetIds": [
        "41506478881403507969696680653240014914910929820314476107906210059990431967234",
        "41506478881403507969696680653240014914910929820314476107906210059990431967235"
      ]
    },
    {
      "x": 357,
      "y": 328,
      "size": 1,
      "price": "4683000000000000000000",
      "reserved": "",
      "salt": "0x8f3c87a3fe7f53c4b286abdf7c75f9f997534420cb566adc0ac8712b2c37477c",
      "assetIds": [
        "41506478881403507969696680653240014914910929820314476107906210059990431967233",
        "41506478881403507969696680653240014914910929820314476107906210059990431967234"
      ]
    },
    {
      "x": 358,
      "y": 328,
      "size": 1,
      "price": "4683000000000000000000",
      "reserved": "",
      "salt": "0xe0d840ab6452306cbd541788a187c37668a37af94046fe2cebe0745741d16e2e",
      "assetIds": [
        "41506478881403507969696680653240014914910929820314476107906210059990431967233",
        "41506478881403507969696680653240014914910929820314476107906210059990431967234"
      ]
    },
    {
      "x": 359,
      "y": 328,
      "size": 1,
      "price": "4683000000000000000000",
      "reserved": "",
      "salt": "0xec9637902f246647552478687bcd353aa21610f183bb141cb7a7995dd01f9618",
      "assetIds": [
        "41506478881403507969696680653240014914910929820314476107906210059990431967235",
        "41506478881403507969696680653240014914910929820314476107906210059990431967236"
      ]
    },
    {
      "x": 353,
      "y": 332,
      "size": 1,
      "price": "4683000000000000000000",
      "reserved": "",
      "salt": "0x470fd6ca95f9356cc76dcd776d39c985332e504506ba9ac295fa82552a27d851",
      "assetIds": [
        "41506478881403507969696680653240014914910929820314476107906210059990431967235",
        "41506478881403507969696680653240014914910929820314476107906210059990431967236"
      ]
    },
    {
      "x": 352,
      "y": 333,
      "size": 1,
      "price": "4683000000000000000000",
      "reserved": "",
      "salt": "0x51c96652a4b4e318e9926962fcb6993c48d35083c9a587a94ce9938e86779e8e",
      "assetIds": [
        "41506478881403507969696680653240014914910929820314476107906210059990431967233",
        "41506478881403507969696680653240014914910929820314476107906210059990431967234"
      ]
    },
    {
      "x": 351,
      "y": 334,
      "size": 1,
      "price": "4683000000000000000000",
      "reserved": "",
      "salt": "0x4f214d311f2fa7ef1638f019d880415a1e6b7cd488524873f714fd112d02f76e",
      "assetIds": [
        "41506478881403507969696680653240014914910929820314476107906210059990431967234",
        "41506478881403507969696680653240014914910929820314476107906210059990431967235"
      ]
    },
    {
      "x": 351,
      "y": 335,
      "size": 1,
      "price": "4683000000000000000000",
      "reserved": "",
      "salt": "0x6f34920dcf04778ec16c1a5b9a2bf32d0dcb9602db594358794495472e83da6e",
      "assetIds": [
        "41506478881403507969696680653240014914910929820314476107906210059990431967232",
        "41506478881403507969696680653240014914910929820314476107906210059990431967233"
      ]
    },
    {
      "x": 352,
      "y": 335,
      "size": 1,
      "price": "4683000000000000000000",
      "reserved": "",
      "salt": "0x4c48c8d5fb02b802972d060aa667a6f7f102bdc7c19f564d7e98e1a3c3fb626f",
      "assetIds": [
        "41506478881403507969696680653240014914910929820314476107906210059990431967234",
        "41506478881403507969696680653240014914910929820314476107906210059990431967235"
      ]
    },
    {
      "x": 352,
      "y": 336,
      "size": 1,
      "price": "4683000000000000000000",
      "reserved": "",
      "salt": "0x5c2405fba200c6a737ca46451ec65848dd350e34380ae71580f0d1a548e6f7b8",
      "assetIds": [
        "41506478881403507969696680653240014914910929820314476107906210059990431967235",
        "41506478881403507969696680653240014914910929820314476107906210059990431967236"
      ]
    },
    {
      "x": 352,
      "y": 337,
      "size": 1,
      "price": "4683000000000000000000",
      "reserved": "",
      "salt": "0x101c0bd6178c9b51d0b8af4fd560003604729bfab6bb61002e3abef64acaee44",
      "assetIds": [
        "41506478881403507969696680653240014914910929820314476107906210059990431967234",
        "41506478881403507969696680653240014914910929820314476107906210059990431967235"
      ]
    },
    {
      "x": 352,
      "y": 338,
      "size": 1,
      "price": "4683000000000000000000",
      "reserved": "",
      "salt": "0xd40473ae816250478bc70d4afd414357c3e4e8fd40253811df35e3869df393de",
      "assetIds": [
        "41506478881403507969696680653240014914910929820314476107906210059990431967232",
        "41506478881403507969696680653240014914910929820314476107906210059990431967233"
      ]
    },
    {
      "x": 351,
      "y": 338,
      "size": 1,
      "price": "4683000000000000000000",
      "reserved": "",
      "salt": "0x99a3e81f9e14266ed7ad2d13291a6f6ddf4641e46dd34d0ba6799ae904b993bb",
      "assetIds": [
        "41506478881403507969696680653240014914910929820314476107906210059990431967235",
        "41506478881403507969696680653240014914910929820314476107906210059990431967236"
      ]
    },
    {
      "x": 353,
      "y": 338,
      "size": 1,
      "price": "4683000000000000000000",
      "reserved": "",
      "salt": "0xa73b2650f5745fba252ca63f9c0430a2f0416854c1918da364a1543656cc737d",
      "assetIds": [
        "41506478881403507969696680653240014914910929820314476107906210059990431967233",
        "41506478881403507969696680653240014914910929820314476107906210059990431967234"
      ]
    },
    {
      "x": 354,
      "y": 338,
      "size": 1,
      "price": "4683000000000000000000",
      "reserved": "",
      "salt": "0x087de3daf7f575672194d215badc93cd93113770c593616178ab64041d9face1",
      "assetIds": [
        "41506478881403507969696680653240014914910929820314476107906210059990431967235",
        "41506478881403507969696680653240014914910929820314476107906210059990431967236"
      ]
    },
    {
      "x": 355,
      "y": 338,
      "size": 1,
      "price": "4683000000000000000000",
      "reserved": "",
      "salt": "0x4b1a4413fb8438667421556254b72c7d362896d044c22614ee3317a69231bc86",
      "assetIds": [
        "41506478881403507969696680653240014914910929820314476107906210059990431967233",
        "41506478881403507969696680653240014914910929820314476107906210059990431967234"
      ]
    },
    {
      "x": 356,
      "y": 338,
      "size": 1,
      "price": "4683000000000000000000",
      "reserved": "",
      "salt": "0xa19e9e75b6e3a3a86fb3ced7065a1126934402e8a5d6cab6f82c3d1418425ad6",
      "assetIds": [
        "41506478881403507969696680653240014914910929820314476107906210059990431967235",
        "41506478881403507969696680653240014914910929820314476107906210059990431967236"
      ]
    },
    {
      "x": 357,
      "y": 338,
      "size": 1,
      "price": "4683000000000000000000",
      "reserved": "",
      "salt": "0xbddfbfb82bfedd3de619f516df9b1fe7f80e0ecccb7feb88feba774bbbb46e0e",
      "assetIds": [
        "41506478881403507969696680653240014914910929820314476107906210059990431967234",
        "41506478881403507969696680653240014914910929820314476107906210059990431967235"
      ]
    },
    {
      "x": 358,
      "y": 338,
      "size": 1,
      "price": "4683000000000000000000",
      "reserved": "",
      "salt": "0x09bbe4f9ecbb3dc2cf0188e7c36865bba6546fb031c649760fb035e2ec475608",
      "assetIds": [
        "41506478881403507969696680653240014914910929820314476107906210059990431967232",
        "41506478881403507969696680653240014914910929820314476107906210059990431967233"
      ]
    },
    {
      "x": 359,
      "y": 338,
      "size": 1,
      "price": "4683000000000000000000",
      "reserved": "",
      "salt": "0x39f33121fb169bde3affa95470574ab10a3290f479a182b814f198a92433e7f9",
      "assetIds": [
        "41506478881403507969696680653240014914910929820314476107906210059990431967235",
        "41506478881403507969696680653240014914910929820314476107906210059990431967236"
      ]
    },
    {
      "x": 359,
      "y": 337,
      "size": 1,
      "price": "4683000000000000000000",
      "reserved": "",
      "salt": "0x046f5413c370ac48d76e8c1a0f0e0fd0976238890d91182a4a3d71507708756d",
      "assetIds": [
        "41506478881403507969696680653240014914910929820314476107906210059990431967233",
        "41506478881403507969696680653240014914910929820314476107906210059990431967234"
      ]
    },
    {
      "x": 359,
      "y": 336,
      "size": 1,
      "price": "4683000000000000000000",
      "reserved": "",
      "salt": "0xd04ad497d1662687d59ac5bb83b984ab3f18d5a466ed1ae65911b901c4f405df",
      "assetIds": [
        "41506478881403507969696680653240014914910929820314476107906210059990431967235",
        "41506478881403507969696680653240014914910929820314476107906210059990431967236"
      ]
    },
    {
      "x": 358,
      "y": 336,
      "size": 1,
      "price": "4683000000000000000000",
      "reserved": "",
      "salt": "0x4417126966fdbeb193af4b23139f764e6a026bd141d28dfde96b4836aa431745",
      "assetIds": [
        "41506478881403507969696680653240014914910929820314476107906210059990431967233",
        "41506478881403507969696680653240014914910929820314476107906210059990431967234"
      ]
    },
    {
      "x": 357,
      "y": 336,
      "size": 1,
      "price": "4683000000000000000000",
      "reserved": "",
      "salt": "0x757f59ca48de45cf6d785dd707cd918d334b1d597d25667db72c7f78e7cd07d9",
      "assetIds": [
        "41506478881403507969696680653240014914910929820314476107906210059990431967233",
        "41506478881403507969696680653240014914910929820314476107906210059990431967234"
      ]
    },
    {
      "x": 356,
      "y": 336,
      "size": 1,
      "price": "4683000000000000000000",
      "reserved": "",
      "salt": "0xec311e4a42c243d66e757d48fc2ea89baf62e7b35e8fcae5eac4e1dd785a0da9",
      "assetIds": [
        "41506478881403507969696680653240014914910929820314476107906210059990431967233",
        "41506478881403507969696680653240014914910929820314476107906210059990431967234"
      ]
    },
    {
      "x": 355,
      "y": 336,
      "size": 1,
      "price": "4683000000000000000000",
      "reserved": "",
      "salt": "0x8f2f6b45516de6e898a422f4c9f4005bdacb4856b00e239edda2a2beca35e468",
      "assetIds": [
        "41506478881403507969696680653240014914910929820314476107906210059990431967235",
        "41506478881403507969696680653240014914910929820314476107906210059990431967236"
      ]
    },
    {
      "x": 354,
      "y": 336,
      "size": 1,
      "price": "4683000000000000000000",
      "reserved": "",
      "salt": "0xe23a0906a8b54d7756083ac1c65fd24df8405af857919f1df1f82d5f7bbc9642",
      "assetIds": [
        "41506478881403507969696680653240014914910929820314476107906210059990431967232",
        "41506478881403507969696680653240014914910929820314476107906210059990431967233"
      ]
    },
    {
      "x": 353,
      "y": 336,
      "size": 1,
      "price": "4683000000000000000000",
      "reserved": "",
      "salt": "0x2b2d4cc1f1e95da431a6d730f085143b1ca2b32162f4ce59c395329f059baa8c",
      "assetIds": [
        "41506478881403507969696680653240014914910929820314476107906210059990431967235",
        "41506478881403507969696680653240014914910929820314476107906210059990431967236"
      ]
    },
    {
      "x": 352,
      "y": 334,
      "size": 1,
      "price": "4683000000000000000000",
      "reserved": "",
      "salt": "0xb34af323aa05f240038353c488a167b3ce8293ca004f3df571a5e4408ae52a13",
      "assetIds": [
        "41506478881403507969696680653240014914910929820314476107906210059990431967235",
        "41506478881403507969696680653240014914910929820314476107906210059990431967236"
      ]
    },
    {
      "x": 352,
      "y": 332,
      "size": 1,
      "price": "4683000000000000000000",
      "reserved": "",
      "salt": "0x15e1155151942990f8414da8b3ab19de5b4806a2bff56e37e09b24f99b60e1d2",
      "assetIds": [
        "41506478881403507969696680653240014914910929820314476107906210059990431967232",
        "41506478881403507969696680653240014914910929820314476107906210059990431967233"
      ]
    },
    {
      "x": 351,
      "y": 336,
      "size": 1,
      "price": "4683000000000000000000",
      "reserved": "",
      "salt": "0xfc1d4a1f23021c49a5c6cfc39fdc801c255ee9125accc3513e7276365d7f92e1",
      "assetIds": [
        "41506478881403507969696680653240014914910929820314476107906210059990431967232",
        "41506478881403507969696680653240014914910929820314476107906210059990431967233"
      ]
    },
    {
      "x": 353,
      "y": 337,
      "size": 1,
      "price": "4683000000000000000000",
      "reserved": "",
      "salt": "0xf9ef5f4b224fca1c5b10f2b3959f6915823442c53849b9e6e00d82ef11d8f038",
      "assetIds": [
        "41506478881403507969696680653240014914910929820314476107906210059990431967233",
        "41506478881403507969696680653240014914910929820314476107906210059990431967234"
      ]
    },
    {
      "x": 354,
      "y": 337,
      "size": 1,
      "price": "4683000000000000000000",
      "reserved": "",
      "salt": "0x8d5bd35f3bd480b0d96677673a2d4fda56c3311a3dbd0fd1a9eff137f86d67c2",
      "assetIds": [
        "41506478881403507969696680653240014914910929820314476107906210059990431967232",
        "41506478881403507969696680653240014914910929820314476107906210059990431967233"
      ]
    },
    {
      "x": 355,
      "y": 337,
      "size": 1,
      "price": "4683000000000000000000",
      "reserved": "",
      "salt": "0x94171e91c40a8c2e86ee73d35c2a0fa35f056684dade9a384613217e061cdacf",
      "assetIds": [
        "41506478881403507969696680653240014914910929820314476107906210059990431967235",
        "41506478881403507969696680653240014914910929820314476107906210059990431967236"
      ]
    },
    {
      "x": 356,
      "y": 337,
      "size": 1,
      "price": "4683000000000000000000",
      "reserved": "",
      "salt": "0xfbd5e98f029ea9b4021f670b88926bbfb9210ca48a0bd90a2dcbc3de47e4eec5",
      "assetIds": [
        "41506478881403507969696680653240014914910929820314476107906210059990431967233",
        "41506478881403507969696680653240014914910929820314476107906210059990431967234"
      ]
    },
    {
      "x": 357,
      "y": 337,
      "size": 1,
      "price": "4683000000000000000000",
      "reserved": "",
      "salt": "0xec894b92d92b01ad5717d83ea5bdce230b52c80be2de653cbfb0f31ceca9d640",
      "assetIds": [
        "41506478881403507969696680653240014914910929820314476107906210059990431967232",
        "41506478881403507969696680653240014914910929820314476107906210059990431967233"
      ]
    },
    {
      "x": 358,
      "y": 337,
      "size": 1,
      "price": "4683000000000000000000",
      "reserved": "",
      "salt": "0xd75a977066bafed69a6e2ce8ff72e46aae539b9ffe498269bae52d3d93c902d1",
      "assetIds": [
        "41506478881403507969696680653240014914910929820314476107906210059990431967234",
        "41506478881403507969696680653240014914910929820314476107906210059990431967235"
      ]
    },
    {
      "x": 396,
      "y": 359,
      "size": 1,
      "price": "4683000000000000000000",
      "reserved": "",
      "salt": "0x71314aefc491397404660cf1842feeb1138d3cb4f89e40cfadd30895cf237cb9",
      "assetIds": [
        "41506478881403507969696680653240014914910929820314476107906210059990431967232",
        "41506478881403507969696680653240014914910929820314476107906210059990431967233"
      ]
    },
    {
      "x": 397,
      "y": 359,
      "size": 1,
      "price": "4683000000000000000000",
      "reserved": "",
      "salt": "0xe5e1166ab0ab0989681bb25dcb041754aefd56347cac4e7675367d7cb1471d3a",
      "assetIds": [
        "41506478881403507969696680653240014914910929820314476107906210059990431967232",
        "41506478881403507969696680653240014914910929820314476107906210059990431967233"
      ]
    },
    {
      "x": 397,
      "y": 358,
      "size": 1,
      "price": "4683000000000000000000",
      "reserved": "",
      "salt": "0x19531be605d8ca68d135a568c97d774e5ed7fa2bd81ddfe475684e3bc0bb4f3e",
      "assetIds": [
        "41506478881403507969696680653240014914910929820314476107906210059990431967235",
        "41506478881403507969696680653240014914910929820314476107906210059990431967236"
      ]
    },
    {
      "x": 397,
      "y": 357,
      "size": 1,
      "price": "4683000000000000000000",
      "reserved": "",
      "salt": "0xf19d31947b0979e63bc6f891206d7bbb0359f35cf63848a9d306cbeca6ee774b",
      "assetIds": [
        "41506478881403507969696680653240014914910929820314476107906210059990431967233",
        "41506478881403507969696680653240014914910929820314476107906210059990431967234"
      ]
    },
    {
      "x": 397,
      "y": 356,
      "size": 1,
      "price": "4683000000000000000000",
      "reserved": "",
      "salt": "0xf58ea8fda4d7c8ef598af43d37bdc80a95846ad8315d0c50dc8c0b8a207fe524",
      "assetIds": [
        "41506478881403507969696680653240014914910929820314476107906210059990431967233",
        "41506478881403507969696680653240014914910929820314476107906210059990431967234"
      ]
    },
    {
      "x": 396,
      "y": 358,
      "size": 1,
      "price": "4683000000000000000000",
      "reserved": "",
      "salt": "0xbe820deb5e4eb0317b944725f2139b042be4fb3395cffffff0d88c162bc58cd7",
      "assetIds": [
        "41506478881403507969696680653240014914910929820314476107906210059990431967235",
        "41506478881403507969696680653240014914910929820314476107906210059990431967236"
      ]
    },
    {
      "x": 396,
      "y": 357,
      "size": 1,
      "price": "4683000000000000000000",
      "reserved": "",
      "salt": "0x2322381564aeb91b1c3324520915958414fb7d0330e3543b192935280dee9f71",
      "assetIds": [
        "41506478881403507969696680653240014914910929820314476107906210059990431967232",
        "41506478881403507969696680653240014914910929820314476107906210059990431967233"
      ]
    },
    {
      "x": 396,
      "y": 356,
      "size": 1,
      "price": "4683000000000000000000",
      "reserved": "",
      "salt": "0xbcc11606adb8420f9b8f00422b0cd2f0653563b851b994d16398ee56ef5de6aa",
      "assetIds": [
        "41506478881403507969696680653240014914910929820314476107906210059990431967233",
        "41506478881403507969696680653240014914910929820314476107906210059990431967234"
      ]
    },
    {
      "x": 396,
      "y": 355,
      "size": 1,
      "price": "4683000000000000000000",
      "reserved": "",
      "salt": "0xa505fa7935cba0fca27d8fa15b6db8907f890093e7ae553cb1b6c94a54aa5078",
      "assetIds": [
        "41506478881403507969696680653240014914910929820314476107906210059990431967233",
        "41506478881403507969696680653240014914910929820314476107906210059990431967234"
      ]
    },
    {
      "x": 396,
      "y": 354,
      "size": 1,
      "price": "4683000000000000000000",
      "reserved": "",
      "salt": "0x06634d2694cd04c1e64bfb21ba1f81ea96616da7c1940b97f0150c7f4e0f7cb0",
      "assetIds": [
        "41506478881403507969696680653240014914910929820314476107906210059990431967232",
        "41506478881403507969696680653240014914910929820314476107906210059990431967233"
      ]
    },
    {
      "x": 396,
      "y": 353,
      "size": 1,
      "price": "4683000000000000000000",
      "reserved": "",
      "salt": "0x53e30a4990c78775da755cc76ade4811417a1ea905814ed257f8ef9187bd720e",
      "assetIds": [
        "41506478881403507969696680653240014914910929820314476107906210059990431967234",
        "41506478881403507969696680653240014914910929820314476107906210059990431967235"
      ]
    },
    {
      "x": 396,
      "y": 352,
      "size": 1,
      "price": "4683000000000000000000",
      "reserved": "",
      "salt": "0x098a87616fb9e09baa69b4393a6e2fa611449017d81528ddc907d18604995a73",
      "assetIds": [
        "41506478881403507969696680653240014914910929820314476107906210059990431967235",
        "41506478881403507969696680653240014914910929820314476107906210059990431967236"
      ]
    },
    {
      "x": 396,
      "y": 351,
      "size": 1,
      "price": "4683000000000000000000",
      "reserved": "",
      "salt": "0x2b97cc1400ca9682a5f86a2f14c28e13a2b4f036544ff38e980b5c879970ff5e",
      "assetIds": [
        "41506478881403507969696680653240014914910929820314476107906210059990431967233",
        "41506478881403507969696680653240014914910929820314476107906210059990431967234"
      ]
    },
    {
      "x": 396,
      "y": 350,
      "size": 1,
      "price": "4683000000000000000000",
      "reserved": "",
      "salt": "0x45d4c8d51af1c112eaedb38842d5cb05e59de61bcd91404f250619cd23a54dc6",
      "assetIds": [
        "41506478881403507969696680653240014914910929820314476107906210059990431967234",
        "41506478881403507969696680653240014914910929820314476107906210059990431967235"
      ]
    },
    {
      "x": 396,
      "y": 349,
      "size": 1,
      "price": "4683000000000000000000",
      "reserved": "",
      "salt": "0xb087e538a1ac605a473d888dd0e51810fc12fbe3feff22cd741021ebc29d4433",
      "assetIds": [
        "41506478881403507969696680653240014914910929820314476107906210059990431967233",
        "41506478881403507969696680653240014914910929820314476107906210059990431967234"
      ]
    },
    {
      "x": 396,
      "y": 348,
      "size": 1,
      "price": "4683000000000000000000",
      "reserved": "",
      "salt": "0x314f5814c631576b2c6335fdf67b8ad11425627dbe7b1d8d5ffc0456a7f2b9f5",
      "assetIds": [
        "41506478881403507969696680653240014914910929820314476107906210059990431967232",
        "41506478881403507969696680653240014914910929820314476107906210059990431967233"
      ]
    },
    {
      "x": 398,
      "y": 356,
      "size": 1,
      "price": "4683000000000000000000",
      "reserved": "",
      "salt": "0x8eeb09ebaa9b6eccff93d9237466cfbea64cf09386061c85c7dae4bb1ee2340d",
      "assetIds": [
        "41506478881403507969696680653240014914910929820314476107906210059990431967233",
        "41506478881403507969696680653240014914910929820314476107906210059990431967234"
      ]
    },
    {
      "x": 399,
      "y": 356,
      "size": 1,
      "price": "4683000000000000000000",
      "reserved": "",
      "salt": "0x739c38d8ab6d91ac21561208487789645e53f1cc45b1ddaa16266a4d6418000a",
      "assetIds": [
        "41506478881403507969696680653240014914910929820314476107906210059990431967235",
        "41506478881403507969696680653240014914910929820314476107906210059990431967236"
      ]
    },
    {
      "x": 400,
      "y": 356,
      "size": 1,
      "price": "4683000000000000000000",
      "reserved": "",
      "salt": "0x7e4ba7b06cd8dce218496a8121ee7eb14c5212445566ae86cfaba76aa4e225d9",
      "assetIds": [
        "41506478881403507969696680653240014914910929820314476107906210059990431967234",
        "41506478881403507969696680653240014914910929820314476107906210059990431967235"
      ]
    },
    {
      "x": 401,
      "y": 356,
      "size": 1,
      "price": "4683000000000000000000",
      "reserved": "",
      "salt": "0x3653a95cde9e3b3828739458d060aaa28c076e9cf113a06a213daab7034e32ae",
      "assetIds": [
        "41506478881403507969696680653240014914910929820314476107906210059990431967233",
        "41506478881403507969696680653240014914910929820314476107906210059990431967234"
      ]
    },
    {
      "x": 401,
      "y": 355,
      "size": 1,
      "price": "4683000000000000000000",
      "reserved": "",
      "salt": "0xbcaba743f655973aa4ffa9012b6ef5c1287a1ae548adfd4e9d432bb931c0f81a",
      "assetIds": [
        "41506478881403507969696680653240014914910929820314476107906210059990431967233",
        "41506478881403507969696680653240014914910929820314476107906210059990431967234"
      ]
    },
    {
      "x": 401,
      "y": 354,
      "size": 1,
      "price": "4683000000000000000000",
      "reserved": "",
      "salt": "0x2dfbcaa10d8fccf7ac76ecf2a69c34012e34405059ef5085c971f3e267236218",
      "assetIds": [
        "41506478881403507969696680653240014914910929820314476107906210059990431967233",
        "41506478881403507969696680653240014914910929820314476107906210059990431967234"
      ]
    },
    {
      "x": 401,
      "y": 353,
      "size": 1,
      "price": "4683000000000000000000",
      "reserved": "",
      "salt": "0x3d049e9f58f6cc61c56b9a55e996a43997e4f0bd3040d8277bfc1decbe8c9b85",
      "assetIds": [
        "41506478881403507969696680653240014914910929820314476107906210059990431967233",
        "41506478881403507969696680653240014914910929820314476107906210059990431967234"
      ]
    },
    {
      "x": 401,
      "y": 352,
      "size": 1,
      "price": "4683000000000000000000",
      "reserved": "",
      "salt": "0xa6dc1e79d441807057c65bd2d4f182a49e26bb20afd468e3abc04852f9a60836",
      "assetIds": [
        "41506478881403507969696680653240014914910929820314476107906210059990431967232",
        "41506478881403507969696680653240014914910929820314476107906210059990431967233"
      ]
    },
    {
      "x": 401,
      "y": 351,
      "size": 1,
      "price": "4683000000000000000000",
      "reserved": "",
      "salt": "0x822c3ff26ba02e5495501af02277cf8f9b9a6d7049a354993f203e74594d1162",
      "assetIds": [
        "41506478881403507969696680653240014914910929820314476107906210059990431967234",
        "41506478881403507969696680653240014914910929820314476107906210059990431967235"
      ]
    },
    {
      "x": 401,
      "y": 350,
      "size": 1,
      "price": "4683000000000000000000",
      "reserved": "",
      "salt": "0x035b5aa2e9e31f8d69ff95d6fcf8a99ac0cfbdf7f79233c6108d90983c8a82fd",
      "assetIds": [
        "41506478881403507969696680653240014914910929820314476107906210059990431967232",
        "41506478881403507969696680653240014914910929820314476107906210059990431967233"
      ]
    },
    {
      "x": 402,
      "y": 353,
      "size": 1,
      "price": "4683000000000000000000",
      "reserved": "",
      "salt": "0x5c744339a0eebe303f0ae515a500f738cf2f4ef20b1c3e4d602d0efad23121a1",
      "assetIds": [
        "41506478881403507969696680653240014914910929820314476107906210059990431967234",
        "41506478881403507969696680653240014914910929820314476107906210059990431967235"
      ]
    },
    {
      "x": 403,
      "y": 353,
      "size": 1,
      "price": "4683000000000000000000",
      "reserved": "",
      "salt": "0x3d6a334e8ed210f1273dbff860eb6363f1e1447e07f2d94ba4c40819eb9340b8",
      "assetIds": [
        "41506478881403507969696680653240014914910929820314476107906210059990431967233",
        "41506478881403507969696680653240014914910929820314476107906210059990431967234"
      ]
    },
    {
      "x": 404,
      "y": 353,
      "size": 1,
      "price": "4683000000000000000000",
      "reserved": "",
      "salt": "0x8d83790c849e341cbc9384b0527f88adbf95d6de6e89b30a7b7df0b39a815731",
      "assetIds": [
        "41506478881403507969696680653240014914910929820314476107906210059990431967233",
        "41506478881403507969696680653240014914910929820314476107906210059990431967234"
      ]
    },
    {
      "x": 405,
      "y": 353,
      "size": 1,
      "price": "4683000000000000000000",
      "reserved": "",
      "salt": "0xfd5551049edb06028a9dc1cb2ccb9a79ef16529fcf5be216109cbc194e756979",
      "assetIds": [
        "41506478881403507969696680653240014914910929820314476107906210059990431967232",
        "41506478881403507969696680653240014914910929820314476107906210059990431967233"
      ]
    },
    {
      "x": 406,
      "y": 353,
      "size": 1,
      "price": "4683000000000000000000",
      "reserved": "",
      "salt": "0xe7c1a3e8ae30a6e2dd7181d5aa34373f29e3c693b8399b9147371b0c5b93b847",
      "assetIds": [
        "41506478881403507969696680653240014914910929820314476107906210059990431967235",
        "41506478881403507969696680653240014914910929820314476107906210059990431967236"
      ]
    },
    {
      "x": 407,
      "y": 353,
      "size": 1,
      "price": "4683000000000000000000",
      "reserved": "",
      "salt": "0xfce8a389b0fb8b7517374f3dd5f9c5b2c4a3f1e283ff84a51be25f5ef6d1ee5d",
      "assetIds": [
        "41506478881403507969696680653240014914910929820314476107906210059990431967235",
        "41506478881403507969696680653240014914910929820314476107906210059990431967236"
      ]
    },
    {
      "x": 407,
      "y": 352,
      "size": 1,
      "price": "4683000000000000000000",
      "reserved": "",
      "salt": "0x04242afbe35d5b977f2b29f5fbbfce54bd6e92397e5bb1f3a484f3cd995fb950",
      "assetIds": [
        "41506478881403507969696680653240014914910929820314476107906210059990431967234",
        "41506478881403507969696680653240014914910929820314476107906210059990431967235"
      ]
    },
    {
      "x": 407,
      "y": 351,
      "size": 1,
      "price": "4683000000000000000000",
      "reserved": "",
      "salt": "0x3081bee2f2ad9301b335bd156dfa07badd36dd58736cc94eb37b7ec480017794",
      "assetIds": [
        "41506478881403507969696680653240014914910929820314476107906210059990431967234",
        "41506478881403507969696680653240014914910929820314476107906210059990431967235"
      ]
    },
    {
      "x": 407,
      "y": 350,
      "size": 1,
      "price": "4683000000000000000000",
      "reserved": "",
      "salt": "0xeb713e57478d6dcd102da0bcddbc7f64e4db92c5f99e0f3c343d07f44bf0d5b6",
      "assetIds": [
        "41506478881403507969696680653240014914910929820314476107906210059990431967232",
        "41506478881403507969696680653240014914910929820314476107906210059990431967233"
      ]
    },
    {
      "x": 407,
      "y": 349,
      "size": 1,
      "price": "4683000000000000000000",
      "reserved": "",
      "salt": "0x4b5f7a27c7ff4285dc40818854c9e8865bd460e945b27d3c879901cfaf84a036",
      "assetIds": [
        "41506478881403507969696680653240014914910929820314476107906210059990431967235",
        "41506478881403507969696680653240014914910929820314476107906210059990431967236"
      ]
    },
    {
      "x": 406,
      "y": 349,
      "size": 1,
      "price": "4683000000000000000000",
      "reserved": "",
      "salt": "0x0f802c903d5af87ab46584da23ad34a3f397ef10c794791ee60d75312f29f2a0",
      "assetIds": [
        "41506478881403507969696680653240014914910929820314476107906210059990431967233",
        "41506478881403507969696680653240014914910929820314476107906210059990431967234"
      ]
    },
    {
      "x": 405,
      "y": 349,
      "size": 1,
      "price": "4683000000000000000000",
      "reserved": "",
      "salt": "0xdeea8ed9b4168535ca18bd744d42d1355b33e20f351321b5ad069f70f3f58dc0",
      "assetIds": [
        "41506478881403507969696680653240014914910929820314476107906210059990431967235",
        "41506478881403507969696680653240014914910929820314476107906210059990431967236"
      ]
    },
    {
      "x": 405,
      "y": 348,
      "size": 1,
      "price": "4683000000000000000000",
      "reserved": "",
      "salt": "0x504eaca610cbee6855b9cca0db866394199ba40fbb89d82087710bbbb4715f82",
      "assetIds": [
        "41506478881403507969696680653240014914910929820314476107906210059990431967233",
        "41506478881403507969696680653240014914910929820314476107906210059990431967234"
      ]
    },
    {
      "x": 404,
      "y": 348,
      "size": 1,
      "price": "4683000000000000000000",
      "reserved": "",
      "salt": "0xff608e5d4929be236b424ad6a468f9ede312189b20b1f770e89f0b0f880b53fd",
      "assetIds": [
        "41506478881403507969696680653240014914910929820314476107906210059990431967232",
        "41506478881403507969696680653240014914910929820314476107906210059990431967233"
      ]
    },
    {
      "x": 403,
      "y": 348,
      "size": 1,
      "price": "4683000000000000000000",
      "reserved": "",
      "salt": "0x4b225aaca4fa143a506061cba24581a26e2e363f20420b87499295adafbe8c87",
      "assetIds": [
        "41506478881403507969696680653240014914910929820314476107906210059990431967234",
        "41506478881403507969696680653240014914910929820314476107906210059990431967235"
      ]
    },
    {
      "x": 402,
      "y": 348,
      "size": 1,
      "price": "4683000000000000000000",
      "reserved": "",
      "salt": "0x32b152f6825661ab73f951a3e82f12b9ac3f459c451d6d612cfb2c7724d155de",
      "assetIds": [
        "41506478881403507969696680653240014914910929820314476107906210059990431967235",
        "41506478881403507969696680653240014914910929820314476107906210059990431967236"
      ]
    },
    {
      "x": 401,
      "y": 348,
      "size": 1,
      "price": "4683000000000000000000",
      "reserved": "",
      "salt": "0x8abe7f0a3a33e8f2c5fe88de56cd338c747f9c6f5fd9b1432e8cb01ffbb5f9c3",
      "assetIds": [
        "41506478881403507969696680653240014914910929820314476107906210059990431967232",
        "41506478881403507969696680653240014914910929820314476107906210059990431967233"
      ]
    },
    {
      "x": 400,
      "y": 348,
      "size": 1,
      "price": "4683000000000000000000",
      "reserved": "",
      "salt": "0x621beb7ab6ae578b861faa544e33e7d75d87319f09221c4bf9045fe8821e0300",
      "assetIds": [
        "41506478881403507969696680653240014914910929820314476107906210059990431967235",
        "41506478881403507969696680653240014914910929820314476107906210059990431967236"
      ]
    },
    {
      "x": 399,
      "y": 348,
      "size": 1,
      "price": "4683000000000000000000",
      "reserved": "",
      "salt": "0x697a347f344ac1bb52e2afa5bd6ce427d4bcaf4e89bc4a52405436ae9d8d868d",
      "assetIds": [
        "41506478881403507969696680653240014914910929820314476107906210059990431967235",
        "41506478881403507969696680653240014914910929820314476107906210059990431967236"
      ]
    },
    {
      "x": 398,
      "y": 348,
      "size": 1,
      "price": "4683000000000000000000",
      "reserved": "",
      "salt": "0xe8cf951e5acca55c8b83cf61a62011d58e78c554700f61091423c6fe84d023fb",
      "assetIds": [
        "41506478881403507969696680653240014914910929820314476107906210059990431967235",
        "41506478881403507969696680653240014914910929820314476107906210059990431967236"
      ]
    },
    {
      "x": 406,
      "y": 348,
      "size": 1,
      "price": "4683000000000000000000",
      "reserved": "",
      "salt": "0xeefd89f2fbd521c36427316dbed1a652a397efa26c6f8d173bb4369d7af448f7",
      "assetIds": [
        "41506478881403507969696680653240014914910929820314476107906210059990431967235",
        "41506478881403507969696680653240014914910929820314476107906210059990431967236"
      ]
    },
    {
      "x": 407,
      "y": 348,
      "size": 1,
      "price": "4683000000000000000000",
      "reserved": "",
      "salt": "0x07751ca8ebddc471de500d2ab3d888ca9e1dd191b918fdb3d7d4866b7ad44bbf",
      "assetIds": [
        "41506478881403507969696680653240014914910929820314476107906210059990431967235",
        "41506478881403507969696680653240014914910929820314476107906210059990431967236"
      ]
    },
    {
      "x": 404,
      "y": 349,
      "size": 1,
      "price": "4683000000000000000000",
      "reserved": "",
      "salt": "0x18cdb974cc129fdb5b68e8f980803dafc5234bd73c196d26013cd4dc58cb1d0a",
      "assetIds": [
        "41506478881403507969696680653240014914910929820314476107906210059990431967233",
        "41506478881403507969696680653240014914910929820314476107906210059990431967234"
      ]
    },
    {
      "x": 403,
      "y": 349,
      "size": 1,
      "price": "4683000000000000000000",
      "reserved": "",
      "salt": "0x503cf037be17877749268f8947915c1c7b0e4f0a68a8932e4b5d9d71c9ba9ce8",
      "assetIds": [
        "41506478881403507969696680653240014914910929820314476107906210059990431967234",
        "41506478881403507969696680653240014914910929820314476107906210059990431967235"
      ]
    },
    {
      "x": 402,
      "y": 349,
      "size": 1,
      "price": "4683000000000000000000",
      "reserved": "",
      "salt": "0xd1e009505df68242ef457f442c4cfb8d6bb5151d43b02d15507b9e32eb3da0e5",
      "assetIds": [
        "41506478881403507969696680653240014914910929820314476107906210059990431967232",
        "41506478881403507969696680653240014914910929820314476107906210059990431967233"
      ]
    },
    {
      "x": 402,
      "y": 350,
      "size": 1,
      "price": "4683000000000000000000",
      "reserved": "",
      "salt": "0x03491d2304b809bff79390db793cf65a0295cf5746cf8554935507f93fe98328",
      "assetIds": [
        "41506478881403507969696680653240014914910929820314476107906210059990431967232",
        "41506478881403507969696680653240014914910929820314476107906210059990431967233"
      ]
    },
    {
      "x": 400,
      "y": 350,
      "size": 1,
      "price": "4683000000000000000000",
      "reserved": "",
      "salt": "0x3235d7b1e775db97c514f7311f060b2f6b61752e660a2449de9acd5af7f79c9f",
      "assetIds": [
        "41506478881403507969696680653240014914910929820314476107906210059990431967232",
        "41506478881403507969696680653240014914910929820314476107906210059990431967233"
      ]
    },
    {
      "x": 399,
      "y": 350,
      "size": 1,
      "price": "4683000000000000000000",
      "reserved": "",
      "salt": "0xd168770c8ff6450ea6608e136ca53f2bb22f9c1b7fe5150bcc0ee866cc96378e",
      "assetIds": [
        "41506478881403507969696680653240014914910929820314476107906210059990431967233",
        "41506478881403507969696680653240014914910929820314476107906210059990431967234"
      ]
    },
    {
      "x": 398,
      "y": 350,
      "size": 1,
      "price": "4683000000000000000000",
      "reserved": "",
      "salt": "0xb78a0cc2f665fada32b1f55cc60213e6efcfb1cd5e27313bec881550031b7811",
      "assetIds": [
        "41506478881403507969696680653240014914910929820314476107906210059990431967233",
        "41506478881403507969696680653240014914910929820314476107906210059990431967234"
      ]
    },
    {
      "x": 397,
      "y": 350,
      "size": 1,
      "price": "4683000000000000000000",
      "reserved": "",
      "salt": "0xcced8018e18e0ce403030446b2d0dbe66258ba08e065d74f658c780b954586da",
      "assetIds": [
        "41506478881403507969696680653240014914910929820314476107906210059990431967234",
        "41506478881403507969696680653240014914910929820314476107906210059990431967235"
      ]
    },
    {
      "x": 395,
      "y": 350,
      "size": 1,
      "price": "4683000000000000000000",
      "reserved": "",
      "salt": "0xfb807e8c6cb229ff86b51717f45d7d46ba5d0832b7d5a4585945660b46527275",
      "assetIds": [
        "41506478881403507969696680653240014914910929820314476107906210059990431967233",
        "41506478881403507969696680653240014914910929820314476107906210059990431967234"
      ]
    },
    {
      "x": 401,
      "y": 349,
      "size": 1,
      "price": "4683000000000000000000",
      "reserved": "",
      "salt": "0xa3098b78f2713db2b7ee8b21f243ba1de14aede49c7e81a52d0e808e4a685f9b",
      "assetIds": [
        "41506478881403507969696680653240014914910929820314476107906210059990431967234",
        "41506478881403507969696680653240014914910929820314476107906210059990431967235"
      ]
    },
    {
      "x": 400,
      "y": 349,
      "size": 1,
      "price": "4683000000000000000000",
      "reserved": "",
      "salt": "0x05f278b111fd2f4f7d5a0211d662ab8a753e683654fe32ead4bb1619f9617ce4",
      "assetIds": [
        "41506478881403507969696680653240014914910929820314476107906210059990431967235",
        "41506478881403507969696680653240014914910929820314476107906210059990431967236"
      ]
    },
    {
      "x": 399,
      "y": 349,
      "size": 1,
      "price": "4683000000000000000000",
      "reserved": "",
      "salt": "0x2c5229a46bf54f8e3561541344e9222e94527b78dcea0b99962ecc3a73b47a52",
      "assetIds": [
        "41506478881403507969696680653240014914910929820314476107906210059990431967232",
        "41506478881403507969696680653240014914910929820314476107906210059990431967233"
      ]
    },
    {
      "x": 398,
      "y": 349,
      "size": 1,
      "price": "4683000000000000000000",
      "reserved": "",
      "salt": "0x0fdd025894305d4d4745638f6ddf2dfd6b0292e517d317823294a5627580d5df",
      "assetIds": [
        "41506478881403507969696680653240014914910929820314476107906210059990431967235",
        "41506478881403507969696680653240014914910929820314476107906210059990431967236"
      ]
    },
    {
      "x": 397,
      "y": 349,
      "size": 1,
      "price": "4683000000000000000000",
      "reserved": "",
      "salt": "0x231262eaf65698fb2b09b7a6b70657bfbe025449f843235f1be7238b7d4dd4c2",
      "assetIds": [
        "41506478881403507969696680653240014914910929820314476107906210059990431967233",
        "41506478881403507969696680653240014914910929820314476107906210059990431967234"
      ]
    },
    {
      "x": 398,
      "y": 351,
      "size": 1,
      "price": "4683000000000000000000",
      "reserved": "",
      "salt": "0xe0ed1307fbc94ca22c8eb4c48bd173337db701a05c1c2b50235e643d4fc95efa",
      "assetIds": [
        "41506478881403507969696680653240014914910929820314476107906210059990431967235",
        "41506478881403507969696680653240014914910929820314476107906210059990431967236"
      ]
    },
    {
      "x": 398,
      "y": 352,
      "size": 1,
      "price": "4683000000000000000000",
      "reserved": "",
      "salt": "0xffc8ed39328d3c9c6a7a1d5cffb67bb994db20a508becb6b6cd699fb5f303a5e",
      "assetIds": [
        "41506478881403507969696680653240014914910929820314476107906210059990431967233",
        "41506478881403507969696680653240014914910929820314476107906210059990431967234"
      ]
    },
    {
      "x": 399,
      "y": 352,
      "size": 1,
      "price": "4683000000000000000000",
      "reserved": "",
      "salt": "0xe48b64ea18b2112b231716c9393b01c88d0a3aac8ca8294c9efba7b795159496",
      "assetIds": [
        "41506478881403507969696680653240014914910929820314476107906210059990431967232",
        "41506478881403507969696680653240014914910929820314476107906210059990431967233"
      ]
    },
    {
      "x": 402,
      "y": 351,
      "size": 1,
      "price": "4683000000000000000000",
      "reserved": "",
      "salt": "0x888b5571be89ea39459daf924bf05b9b2fb83d9335ebc35d49c1f3eb92471be2",
      "assetIds": [
        "41506478881403507969696680653240014914910929820314476107906210059990431967233",
        "41506478881403507969696680653240014914910929820314476107906210059990431967234"
      ]
    },
    {
      "x": 400,
      "y": 351,
      "size": 1,
      "price": "4683000000000000000000",
      "reserved": "",
      "salt": "0x8a6b3cd23d0e61d474ad5b0128367b19b05541f08de8d585ba6dcc7d3033a0d4",
      "assetIds": [
        "41506478881403507969696680653240014914910929820314476107906210059990431967234",
        "41506478881403507969696680653240014914910929820314476107906210059990431967235"
      ]
    },
    {
      "x": 399,
      "y": 351,
      "size": 1,
      "price": "4683000000000000000000",
      "reserved": "",
      "salt": "0x27ae050d33ce5bf9c364641dbe7df84de39029c81064dd2dae048a66380ba632",
      "assetIds": [
        "41506478881403507969696680653240014914910929820314476107906210059990431967234",
        "41506478881403507969696680653240014914910929820314476107906210059990431967235"
      ]
    },
    {
      "x": 397,
      "y": 351,
      "size": 1,
      "price": "4683000000000000000000",
      "reserved": "",
      "salt": "0xcc470df7597afbaab14fdb4613fa805a110a78b08cf85b4e1ef2d9756a10f013",
      "assetIds": [
        "41506478881403507969696680653240014914910929820314476107906210059990431967232",
        "41506478881403507969696680653240014914910929820314476107906210059990431967233"
      ]
    },
    {
      "x": 397,
      "y": 352,
      "size": 1,
      "price": "4683000000000000000000",
      "reserved": "",
      "salt": "0x1c0ff006439255200e72188b03e2a3b0f2d5f8f486e24c9bdceca195da4734ca",
      "assetIds": [
        "41506478881403507969696680653240014914910929820314476107906210059990431967235",
        "41506478881403507969696680653240014914910929820314476107906210059990431967236"
      ]
    },
    {
      "x": 398,
      "y": 353,
      "size": 1,
      "price": "4683000000000000000000",
      "reserved": "",
      "salt": "0xc3a33a202a9ed3acc61a023235451d09eba5e0a4128da9d633660a58843052a8",
      "assetIds": [
        "41506478881403507969696680653240014914910929820314476107906210059990431967234",
        "41506478881403507969696680653240014914910929820314476107906210059990431967235"
      ]
    },
    {
      "x": 399,
      "y": 353,
      "size": 1,
      "price": "4683000000000000000000",
      "reserved": "",
      "salt": "0x3edeac32974b2d06738ddba4ddddae7abc7f37fa74a8f1bab1a5c3d2575c80c9",
      "assetIds": [
        "41506478881403507969696680653240014914910929820314476107906210059990431967233",
        "41506478881403507969696680653240014914910929820314476107906210059990431967234"
      ]
    },
    {
      "x": 400,
      "y": 353,
      "size": 1,
      "price": "4683000000000000000000",
      "reserved": "",
      "salt": "0x6afffb91ec013a468ef145057f24e007802935d41636d335742cdc631c1a2a6e",
      "assetIds": [
        "41506478881403507969696680653240014914910929820314476107906210059990431967235",
        "41506478881403507969696680653240014914910929820314476107906210059990431967236"
      ]
    },
    {
      "x": 397,
      "y": 353,
      "size": 1,
      "price": "4683000000000000000000",
      "reserved": "",
      "salt": "0xea7383b4e8b2fcbee543f568683c3c140176112768e0bab5d9df5481ed94cde6",
      "assetIds": [
        "41506478881403507969696680653240014914910929820314476107906210059990431967232",
        "41506478881403507969696680653240014914910929820314476107906210059990431967233"
      ]
    },
    {
      "x": 397,
      "y": 354,
      "size": 1,
      "price": "4683000000000000000000",
      "reserved": "",
      "salt": "0xa88934ec521b845c9766b141485805456487dea3b5d864437f3058d50cfcb58f",
      "assetIds": [
        "41506478881403507969696680653240014914910929820314476107906210059990431967234",
        "41506478881403507969696680653240014914910929820314476107906210059990431967235"
      ]
    },
    {
      "x": 398,
      "y": 354,
      "size": 1,
      "price": "4683000000000000000000",
      "reserved": "",
      "salt": "0x245e6829011e1a34cc703668308c42bd7b776a77b20e5e01513388321f3971cc",
      "assetIds": [
        "41506478881403507969696680653240014914910929820314476107906210059990431967235",
        "41506478881403507969696680653240014914910929820314476107906210059990431967236"
      ]
    },
    {
      "x": 399,
      "y": 354,
      "size": 1,
      "price": "4683000000000000000000",
      "reserved": "",
      "salt": "0x34e1051540f3c073a4caf0776840e0c624e57fc8d6710e04f32ea9928952af16",
      "assetIds": [
        "41506478881403507969696680653240014914910929820314476107906210059990431967235",
        "41506478881403507969696680653240014914910929820314476107906210059990431967236"
      ]
    },
    {
      "x": 400,
      "y": 354,
      "size": 1,
      "price": "4683000000000000000000",
      "reserved": "",
      "salt": "0x92cd875caf33393054c3f3adb08b1c53c14407edd4570a88942a632eef9000e7",
      "assetIds": [
        "41506478881403507969696680653240014914910929820314476107906210059990431967232",
        "41506478881403507969696680653240014914910929820314476107906210059990431967233"
      ]
    },
    {
      "x": 400,
      "y": 355,
      "size": 1,
      "price": "4683000000000000000000",
      "reserved": "",
      "salt": "0xa7a9ffd35d3b373edee908b5bed8fa5d61cc72f7a1926162136a9a1227e8df57",
      "assetIds": [
        "41506478881403507969696680653240014914910929820314476107906210059990431967233",
        "41506478881403507969696680653240014914910929820314476107906210059990431967234"
      ]
    },
    {
      "x": 399,
      "y": 355,
      "size": 1,
      "price": "4683000000000000000000",
      "reserved": "",
      "salt": "0x297d8e6fb3dfbabc8ee74cf2aeaddc930c0a3207d464a5aa420852794409f8a0",
      "assetIds": [
        "41506478881403507969696680653240014914910929820314476107906210059990431967233",
        "41506478881403507969696680653240014914910929820314476107906210059990431967234"
      ]
    },
    {
      "x": 398,
      "y": 355,
      "size": 1,
      "price": "4683000000000000000000",
      "reserved": "",
      "salt": "0x4df6a1ff1f3c26887c71098c9006d49d88ac82e00513af13e84248f296756d2d",
      "assetIds": [
        "41506478881403507969696680653240014914910929820314476107906210059990431967232",
        "41506478881403507969696680653240014914910929820314476107906210059990431967233"
      ]
    },
    {
      "x": 405,
      "y": 351,
      "size": 1,
      "price": "4683000000000000000000",
      "reserved": "",
      "salt": "0x468b64ae3bfd05ef1b09b92b00ee695dcea42ac8027d2a4fdea15991694bd9d1",
      "assetIds": [
        "41506478881403507969696680653240014914910929820314476107906210059990431967234",
        "41506478881403507969696680653240014914910929820314476107906210059990431967235"
      ]
    },
    {
      "x": 405,
      "y": 350,
      "size": 1,
      "price": "4683000000000000000000",
      "reserved": "",
      "salt": "0x50efc08ad377f5af0d59f310d074ee36bf364d64c5f8b7d558de1883228a5515",
      "assetIds": [
        "41506478881403507969696680653240014914910929820314476107906210059990431967235",
        "41506478881403507969696680653240014914910929820314476107906210059990431967236"
      ]
    },
    {
      "x": 404,
      "y": 350,
      "size": 1,
      "price": "4683000000000000000000",
      "reserved": "",
      "salt": "0xc0a3d57f9b444bdfc7daaf367adf3edebf75c00306830041e4683c6961ecd6b0",
      "assetIds": [
        "41506478881403507969696680653240014914910929820314476107906210059990431967232",
        "41506478881403507969696680653240014914910929820314476107906210059990431967233"
      ]
    },
    {
      "x": 403,
      "y": 350,
      "size": 1,
      "price": "4683000000000000000000",
      "reserved": "",
      "salt": "0xadd5666f1aefda865a8e74e634c4903eb8f9832c600e0e5cb914396544507bc3",
      "assetIds": [
        "41506478881403507969696680653240014914910929820314476107906210059990431967233",
        "41506478881403507969696680653240014914910929820314476107906210059990431967234"
      ]
    },
    {
      "x": 406,
      "y": 350,
      "size": 1,
      "price": "4683000000000000000000",
      "reserved": "",
      "salt": "0xe8b232330f3cc89217521ea6f0473bc6db09728bbee9da7c9eeb8cd0bb4a9302",
      "assetIds": [
        "41506478881403507969696680653240014914910929820314476107906210059990431967233",
        "41506478881403507969696680653240014914910929820314476107906210059990431967234"
      ]
    },
    {
      "x": 406,
      "y": 351,
      "size": 1,
      "price": "4683000000000000000000",
      "reserved": "",
      "salt": "0xea165597cd00176e917805fee3e7c1fd8ac1fcfc7b1114d18049e98f09863e09",
      "assetIds": [
        "41506478881403507969696680653240014914910929820314476107906210059990431967233",
        "41506478881403507969696680653240014914910929820314476107906210059990431967234"
      ]
    },
    {
      "x": 406,
      "y": 352,
      "size": 1,
      "price": "4683000000000000000000",
      "reserved": "",
      "salt": "0x4c43261e4da266a612784e051350b0ff61a14e347653261af986f019161290ce",
      "assetIds": [
        "41506478881403507969696680653240014914910929820314476107906210059990431967235",
        "41506478881403507969696680653240014914910929820314476107906210059990431967236"
      ]
    },
    {
      "x": 405,
      "y": 352,
      "size": 1,
      "price": "4683000000000000000000",
      "reserved": "",
      "salt": "0xc34d48189bfbd57d73a9a50343e08901e2a1f53b2d31839a386296358835a79c",
      "assetIds": [
        "41506478881403507969696680653240014914910929820314476107906210059990431967234",
        "41506478881403507969696680653240014914910929820314476107906210059990431967235"
      ]
    },
    {
      "x": 404,
      "y": 352,
      "size": 1,
      "price": "4683000000000000000000",
      "reserved": "",
      "salt": "0xf22c8bd304dcd282d2666e022f7977015b68b5d569609c3869cb2a0475563214",
      "assetIds": [
        "41506478881403507969696680653240014914910929820314476107906210059990431967234",
        "41506478881403507969696680653240014914910929820314476107906210059990431967235"
      ]
    },
    {
      "x": 404,
      "y": 351,
      "size": 1,
      "price": "4683000000000000000000",
      "reserved": "",
      "salt": "0x5527866840a74c62d329ee6282ea389e230ead64d621e26261c99a50ad856e92",
      "assetIds": [
        "41506478881403507969696680653240014914910929820314476107906210059990431967233",
        "41506478881403507969696680653240014914910929820314476107906210059990431967234"
      ]
    },
    {
      "x": 395,
      "y": 353,
      "size": 1,
      "price": "4683000000000000000000",
      "reserved": "",
      "salt": "0x101fd72a0e74ad2603bb92de61a3669c3fac3d7bc15d885fa725ad105b400710",
      "assetIds": [
        "41506478881403507969696680653240014914910929820314476107906210059990431967235",
        "41506478881403507969696680653240014914910929820314476107906210059990431967236"
      ]
    },
    {
      "x": 394,
      "y": 353,
      "size": 1,
      "price": "4683000000000000000000",
      "reserved": "",
      "salt": "0xe8756682de0fa3224e8677be5dd4fa764191687e840c5bf2d4d71c7e20cf61d2",
      "assetIds": [
        "41506478881403507969696680653240014914910929820314476107906210059990431967232",
        "41506478881403507969696680653240014914910929820314476107906210059990431967233"
      ]
    },
    {
      "x": 392,
      "y": 353,
      "size": 1,
      "price": "4683000000000000000000",
      "reserved": "",
      "salt": "0x340140c8c5b9c1adb0027264cf9560028223ab30486751701e936c2ab768921d",
      "assetIds": [
        "41506478881403507969696680653240014914910929820314476107906210059990431967234",
        "41506478881403507969696680653240014914910929820314476107906210059990431967235"
      ]
    },
    {
      "x": 391,
      "y": 353,
      "size": 1,
      "price": "4683000000000000000000",
      "reserved": "",
      "salt": "0xda1199ebd2969b83e837c5052405aaaed2fc5283912313cce4e1556e593c2916",
      "assetIds": [
        "41506478881403507969696680653240014914910929820314476107906210059990431967233",
        "41506478881403507969696680653240014914910929820314476107906210059990431967234"
      ]
    },
    {
      "x": 390,
      "y": 353,
      "size": 1,
      "price": "4683000000000000000000",
      "reserved": "",
      "salt": "0x1591aab4235ca58c71eeacd7805143603568a672edf0f8ba703f2d3ac8ca1c05",
      "assetIds": [
        "41506478881403507969696680653240014914910929820314476107906210059990431967235",
        "41506478881403507969696680653240014914910929820314476107906210059990431967236"
      ]
    },
    {
      "x": 389,
      "y": 353,
      "size": 1,
      "price": "4683000000000000000000",
      "reserved": "",
      "salt": "0x17f98794f9280d44343ad3a12e5190a1afe3f78ed573de67b6af65ac660caeb5",
      "assetIds": [
        "41506478881403507969696680653240014914910929820314476107906210059990431967233",
        "41506478881403507969696680653240014914910929820314476107906210059990431967234"
      ]
    },
    {
      "x": 388,
      "y": 353,
      "size": 1,
      "price": "4683000000000000000000",
      "reserved": "",
      "salt": "0x4f8b4b8d11910794ee451e1308500364f5e1129823c6e3934d50936c8d7117e2",
      "assetIds": [
        "41506478881403507969696680653240014914910929820314476107906210059990431967232",
        "41506478881403507969696680653240014914910929820314476107906210059990431967233"
      ]
    },
    {
      "x": 387,
      "y": 353,
      "size": 1,
      "price": "4683000000000000000000",
      "reserved": "",
      "salt": "0x0f993640ba610409968f0c0c0a9c7f60055edaf407952125cf622aa1a175a760",
      "assetIds": [
        "41506478881403507969696680653240014914910929820314476107906210059990431967233",
        "41506478881403507969696680653240014914910929820314476107906210059990431967234"
      ]
    },
    {
      "x": 386,
      "y": 353,
      "size": 1,
      "price": "4683000000000000000000",
      "reserved": "",
      "salt": "0x32b7ea33ea08ce95d7bbdaff4ff98d83e0eff91d590eaddcb8943f4729bd7d99",
      "assetIds": [
        "41506478881403507969696680653240014914910929820314476107906210059990431967235",
        "41506478881403507969696680653240014914910929820314476107906210059990431967236"
      ]
    },
    {
      "x": 385,
      "y": 353,
      "size": 1,
      "price": "4683000000000000000000",
      "reserved": "",
      "salt": "0x63d40e38667bf3906bfd70fd094b53ae595e9ca1187bd5f462f5a8e6defd3207",
      "assetIds": [
        "41506478881403507969696680653240014914910929820314476107906210059990431967235",
        "41506478881403507969696680653240014914910929820314476107906210059990431967236"
      ]
    },
    {
      "x": 384,
      "y": 353,
      "size": 1,
      "price": "4683000000000000000000",
      "reserved": "",
      "salt": "0x17e4ba3a53c42ba33f98655c4889681b129384549d4dd9e99e9cb4ca42bd5cf9",
      "assetIds": [
        "41506478881403507969696680653240014914910929820314476107906210059990431967233",
        "41506478881403507969696680653240014914910929820314476107906210059990431967234"
      ]
    },
    {
      "x": 383,
      "y": 353,
      "size": 1,
      "price": "4683000000000000000000",
      "reserved": "",
      "salt": "0x126deae414c1a314e4fee196431940b57f1381bb243c1106510da3a2460cf26e",
      "assetIds": [
        "41506478881403507969696680653240014914910929820314476107906210059990431967234",
        "41506478881403507969696680653240014914910929820314476107906210059990431967235"
      ]
    },
    {
      "x": 382,
      "y": 353,
      "size": 1,
      "price": "4683000000000000000000",
      "reserved": "",
      "salt": "0xff17e9b0a0728016ff04c59695e60af7c20cd7617ee8d10267e611028cac9963",
      "assetIds": [
        "41506478881403507969696680653240014914910929820314476107906210059990431967234",
        "41506478881403507969696680653240014914910929820314476107906210059990431967235"
      ]
    },
    {
      "x": 381,
      "y": 353,
      "size": 1,
      "price": "4683000000000000000000",
      "reserved": "",
      "salt": "0xe15e48b920afdcf2286d4e7251e5c77bce7ece2e54ad9958f36672d42c204ae9",
      "assetIds": [
        "41506478881403507969696680653240014914910929820314476107906210059990431967235",
        "41506478881403507969696680653240014914910929820314476107906210059990431967236"
      ]
    },
    {
      "x": 372,
      "y": 353,
      "size": 1,
      "price": "4683000000000000000000",
      "reserved": "",
      "salt": "0x0a86d7f7eb4be4cb6b23e6d7e80aa4ebcd149b2d8284113ad9f7c6ffd1108568",
      "assetIds": [
        "41506478881403507969696680653240014914910929820314476107906210059990431967235",
        "41506478881403507969696680653240014914910929820314476107906210059990431967236"
      ]
    },
    {
      "x": 373,
      "y": 353,
      "size": 1,
      "price": "4683000000000000000000",
      "reserved": "",
      "salt": "0xb3f99cf75fccc4f140b7ad2b96010cebb13c17ff335287f49c72b619128473ed",
      "assetIds": [
        "41506478881403507969696680653240014914910929820314476107906210059990431967235",
        "41506478881403507969696680653240014914910929820314476107906210059990431967236"
      ]
    },
    {
      "x": 374,
      "y": 353,
      "size": 1,
      "price": "4683000000000000000000",
      "reserved": "",
      "salt": "0x99da5020a11cf2d9b7fb4ec59510ea3538c30fb6ca2710f6d677993d1bafc905",
      "assetIds": [
        "41506478881403507969696680653240014914910929820314476107906210059990431967234",
        "41506478881403507969696680653240014914910929820314476107906210059990431967235"
      ]
    },
    {
      "x": 375,
      "y": 353,
      "size": 1,
      "price": "4683000000000000000000",
      "reserved": "",
      "salt": "0x3faa87f7d9395f2385abd647d15d59b74e5f3fd2e5aaa7a7df61fc3e940857a7",
      "assetIds": [
        "41506478881403507969696680653240014914910929820314476107906210059990431967232",
        "41506478881403507969696680653240014914910929820314476107906210059990431967233"
      ]
    },
    {
      "x": 376,
      "y": 353,
      "size": 1,
      "price": "4683000000000000000000",
      "reserved": "",
      "salt": "0xff0f40ab00c72593e9747bcfd714bcdcdb9670311d9c1063529f07d8703a94ae",
      "assetIds": [
        "41506478881403507969696680653240014914910929820314476107906210059990431967234",
        "41506478881403507969696680653240014914910929820314476107906210059990431967235"
      ]
    },
    {
      "x": 377,
      "y": 353,
      "size": 1,
      "price": "4683000000000000000000",
      "reserved": "",
      "salt": "0x86203dcd785874fb9bca9c3a66bec8fd677abad44a16cc09e197ae555a6edb4a",
      "assetIds": [
        "41506478881403507969696680653240014914910929820314476107906210059990431967234",
        "41506478881403507969696680653240014914910929820314476107906210059990431967235"
      ]
    },
    {
      "x": 378,
      "y": 353,
      "size": 1,
      "price": "4683000000000000000000",
      "reserved": "",
      "salt": "0x800aaf0b3451404aa89e7a5b91d868cec6a5831ee78d5e5b802f36c541153927",
      "assetIds": [
        "41506478881403507969696680653240014914910929820314476107906210059990431967234",
        "41506478881403507969696680653240014914910929820314476107906210059990431967235"
      ]
    },
    {
      "x": 379,
      "y": 353,
      "size": 1,
      "price": "4683000000000000000000",
      "reserved": "",
      "salt": "0xd4f6b28e9074aba6adb5eed833b21db57f8072d44427881afc4b49b4b6cdf001",
      "assetIds": [
        "41506478881403507969696680653240014914910929820314476107906210059990431967234",
        "41506478881403507969696680653240014914910929820314476107906210059990431967235"
      ]
    },
    {
      "x": 380,
      "y": 353,
      "size": 1,
      "price": "4683000000000000000000",
      "reserved": "",
      "salt": "0x0c83297ddfb4413d37e0f02108ce9fccf80f5fc0e92cf63d6e046e37c758d8e9",
      "assetIds": [
        "41506478881403507969696680653240014914910929820314476107906210059990431967234",
        "41506478881403507969696680653240014914910929820314476107906210059990431967235"
      ]
    },
    {
      "x": 372,
      "y": 352,
      "size": 1,
      "price": "4683000000000000000000",
      "reserved": "",
      "salt": "0x98832e424597a638db936ea736203c01a9f342c5bf924df01606074640ecc00f",
      "assetIds": [
        "41506478881403507969696680653240014914910929820314476107906210059990431967232",
        "41506478881403507969696680653240014914910929820314476107906210059990431967233"
      ]
    },
    {
      "x": 372,
      "y": 350,
      "size": 1,
      "price": "4683000000000000000000",
      "reserved": "",
      "salt": "0x6c1ad1453ca09707a7eeed5978ccecf134e68bfb813edda72350d6d86db0ca4b",
      "assetIds": [
        "41506478881403507969696680653240014914910929820314476107906210059990431967234",
        "41506478881403507969696680653240014914910929820314476107906210059990431967235"
      ]
    },
    {
      "x": 372,
      "y": 349,
      "size": 1,
      "price": "4683000000000000000000",
      "reserved": "",
      "salt": "0x06a437f238c51bb76e157f6747c6dd0556444007e410ccac83d2e92fba3eafaa",
      "assetIds": [
        "41506478881403507969696680653240014914910929820314476107906210059990431967234",
        "41506478881403507969696680653240014914910929820314476107906210059990431967235"
      ]
    },
    {
      "x": 372,
      "y": 348,
      "size": 1,
      "price": "4683000000000000000000",
      "reserved": "",
      "salt": "0x653a51cc007b8f174c08ab010c8b78de4058b56ca789c7740ebf1d4d256c67b7",
      "assetIds": [
        "41506478881403507969696680653240014914910929820314476107906210059990431967233",
        "41506478881403507969696680653240014914910929820314476107906210059990431967234"
      ]
    },
    {
      "x": 371,
      "y": 351,
      "size": 1,
      "price": "4683000000000000000000",
      "reserved": "",
      "salt": "0x6ae1ed6a4119187f88d28b4baaeeadcf89791f6eab2d5f66bbc4f0b25baa3892",
      "assetIds": [
        "41506478881403507969696680653240014914910929820314476107906210059990431967232",
        "41506478881403507969696680653240014914910929820314476107906210059990431967233"
      ]
    },
    {
      "x": 370,
      "y": 351,
      "size": 1,
      "price": "4683000000000000000000",
      "reserved": "",
      "salt": "0x98b570ce43998979bcf8f6a03302a174f58226f96a952e9031cb1bb0740eca5e",
      "assetIds": [
        "41506478881403507969696680653240014914910929820314476107906210059990431967234",
        "41506478881403507969696680653240014914910929820314476107906210059990431967235"
      ]
    },
    {
      "x": 369,
      "y": 351,
      "size": 1,
      "price": "4683000000000000000000",
      "reserved": "",
      "salt": "0x378a54a60cbc953e5b15846772ba05a2911b20f8f4ba50bd8da651097e3404c1",
      "assetIds": [
        "41506478881403507969696680653240014914910929820314476107906210059990431967234",
        "41506478881403507969696680653240014914910929820314476107906210059990431967235"
      ]
    },
    {
      "x": 368,
      "y": 351,
      "size": 1,
      "price": "4683000000000000000000",
      "reserved": "",
      "salt": "0xa61445307c81d70dbd75b574f3f52042da5bdf0a15088746f7308f07cf5fb555",
      "assetIds": [
        "41506478881403507969696680653240014914910929820314476107906210059990431967232",
        "41506478881403507969696680653240014914910929820314476107906210059990431967233"
      ]
    },
    {
      "x": 367,
      "y": 351,
      "size": 1,
      "price": "4683000000000000000000",
      "reserved": "",
      "salt": "0xf0544bc7041de7337b057cd361918952a167679c136e0523928dd28eef671bb8",
      "assetIds": [
        "41506478881403507969696680653240014914910929820314476107906210059990431967235",
        "41506478881403507969696680653240014914910929820314476107906210059990431967236"
      ]
    },
    {
      "x": 366,
      "y": 351,
      "size": 1,
      "price": "4683000000000000000000",
      "reserved": "",
      "salt": "0xaecdd59ccfaad9c85f1afbcf3fa6463b2f022f0c57a71b8da42f1af41a9cb76b",
      "assetIds": [
        "41506478881403507969696680653240014914910929820314476107906210059990431967233",
        "41506478881403507969696680653240014914910929820314476107906210059990431967234"
      ]
    },
    {
      "x": 366,
      "y": 352,
      "size": 1,
      "price": "4683000000000000000000",
      "reserved": "",
      "salt": "0xf36528d340e6da58de273f459d9283b0726ffb12c2d7a27021809ca56686c0f7",
      "assetIds": [
        "41506478881403507969696680653240014914910929820314476107906210059990431967235",
        "41506478881403507969696680653240014914910929820314476107906210059990431967236"
      ]
    },
    {
      "x": 365,
      "y": 352,
      "size": 1,
      "price": "4683000000000000000000",
      "reserved": "",
      "salt": "0xac15b8b18514bd7f1bdd2af6c56f708b8af793a5eb8f2ec5e73c1d80fe9ef687",
      "assetIds": [
        "41506478881403507969696680653240014914910929820314476107906210059990431967233",
        "41506478881403507969696680653240014914910929820314476107906210059990431967234"
      ]
    },
    {
      "x": 364,
      "y": 352,
      "size": 1,
      "price": "4683000000000000000000",
      "reserved": "",
      "salt": "0xd3997a7221201e9579ef20362bffb0e5de0355fae2194685dca4fed394e0fcd5",
      "assetIds": [
        "41506478881403507969696680653240014914910929820314476107906210059990431967233",
        "41506478881403507969696680653240014914910929820314476107906210059990431967234"
      ]
    },
    {
      "x": 363,
      "y": 352,
      "size": 1,
      "price": "4683000000000000000000",
      "reserved": "",
      "salt": "0x5893a5bf443befc2955d69e6ea41a416f22b9b479341cd5f87fe9d14d26a73a7",
      "assetIds": [
        "41506478881403507969696680653240014914910929820314476107906210059990431967232",
        "41506478881403507969696680653240014914910929820314476107906210059990431967233"
      ]
    },
    {
      "x": 362,
      "y": 352,
      "size": 1,
      "price": "4683000000000000000000",
      "reserved": "",
      "salt": "0x7033adc8409dd53933521ec590aca73e830a25156f1a9360c1757a5382f8cf91",
      "assetIds": [
        "41506478881403507969696680653240014914910929820314476107906210059990431967233",
        "41506478881403507969696680653240014914910929820314476107906210059990431967234"
      ]
    },
    {
      "x": 361,
      "y": 352,
      "size": 1,
      "price": "4683000000000000000000",
      "reserved": "",
      "salt": "0x4cb7c96a39e6d9113e1376c36205cff5f9b9992a45cad68891e13045a8964dbc",
      "assetIds": [
        "41506478881403507969696680653240014914910929820314476107906210059990431967235",
        "41506478881403507969696680653240014914910929820314476107906210059990431967236"
      ]
    },
    {
      "x": 360,
      "y": 352,
      "size": 1,
      "price": "4683000000000000000000",
      "reserved": "",
      "salt": "0x348a15871b61cfde2e05d0c1d6156684befb31d4a1f4d5fb8ec81755279bff69",
      "assetIds": [
        "41506478881403507969696680653240014914910929820314476107906210059990431967234",
        "41506478881403507969696680653240014914910929820314476107906210059990431967235"
      ]
    },
    {
      "x": 359,
      "y": 352,
      "size": 1,
      "price": "4683000000000000000000",
      "reserved": "",
      "salt": "0x3305995fe31b004d713269860d87e7b5140200e169df9987be4b33159854908f",
      "assetIds": [
        "41506478881403507969696680653240014914910929820314476107906210059990431967232",
        "41506478881403507969696680653240014914910929820314476107906210059990431967233"
      ]
    },
    {
      "x": 358,
      "y": 352,
      "size": 1,
      "price": "4683000000000000000000",
      "reserved": "",
      "salt": "0x6a1cdb30b5685f4489dc8136e92359192f52357a5f9a83b58ba1da17a4cb3a34",
      "assetIds": [
        "41506478881403507969696680653240014914910929820314476107906210059990431967232",
        "41506478881403507969696680653240014914910929820314476107906210059990431967233"
      ]
    },
    {
      "x": 357,
      "y": 352,
      "size": 1,
      "price": "4683000000000000000000",
      "reserved": "",
      "salt": "0xc3816867fa10dbfbe03eb97f4e3d1936240b8913914fb933bdf9263525687262",
      "assetIds": [
        "41506478881403507969696680653240014914910929820314476107906210059990431967232",
        "41506478881403507969696680653240014914910929820314476107906210059990431967233"
      ]
    },
    {
      "x": 359,
      "y": 353,
      "size": 1,
      "price": "4683000000000000000000",
      "reserved": "",
      "salt": "0xc471de027a89f07276a76e95e48b456ccf5b40fd8fb33e97b24fa7d5ac8ba75e",
      "assetIds": [
        "41506478881403507969696680653240014914910929820314476107906210059990431967235",
        "41506478881403507969696680653240014914910929820314476107906210059990431967236"
      ]
    },
    {
      "x": 368,
      "y": 352,
      "size": 1,
      "price": "4683000000000000000000",
      "reserved": "",
      "salt": "0xcab8429465e08e284cd84535b27baa4399d337c36ec4bc8e24ae2a28cdb8b90e",
      "assetIds": [
        "41506478881403507969696680653240014914910929820314476107906210059990431967232",
        "41506478881403507969696680653240014914910929820314476107906210059990431967233"
      ]
    },
    {
      "x": 367,
      "y": 352,
      "size": 1,
      "price": "4683000000000000000000",
      "reserved": "",
      "salt": "0xb9c51c06d3ac1454eec32ff9d58b9af78a5d3cc898df971fc853b0467df1f27e",
      "assetIds": [
        "41506478881403507969696680653240014914910929820314476107906210059990431967232",
        "41506478881403507969696680653240014914910929820314476107906210059990431967233"
      ]
    },
    {
      "x": 368,
      "y": 353,
      "size": 1,
      "price": "4683000000000000000000",
      "reserved": "",
      "salt": "0xbac05adc8c8e7a26584ae3bea97c5d1a0593d89a47fbab2f32922a7f961011bb",
      "assetIds": [
        "41506478881403507969696680653240014914910929820314476107906210059990431967232",
        "41506478881403507969696680653240014914910929820314476107906210059990431967233"
      ]
    },
    {
      "x": 367,
      "y": 353,
      "size": 1,
      "price": "4683000000000000000000",
      "reserved": "",
      "salt": "0x7d0d12453405b8875cbc8ff5e07934a4ed2aa51220a1b73ed23770e57fc13225",
      "assetIds": [
        "41506478881403507969696680653240014914910929820314476107906210059990431967233",
        "41506478881403507969696680653240014914910929820314476107906210059990431967234"
      ]
    },
    {
      "x": 366,
      "y": 353,
      "size": 1,
      "price": "4683000000000000000000",
      "reserved": "",
      "salt": "0xdee156810fec3d905036278ba1535d2da42405a3424014247e9ffc3881afaac9",
      "assetIds": [
        "41506478881403507969696680653240014914910929820314476107906210059990431967234",
        "41506478881403507969696680653240014914910929820314476107906210059990431967235"
      ]
    },
    {
      "x": 365,
      "y": 353,
      "size": 1,
      "price": "4683000000000000000000",
      "reserved": "",
      "salt": "0xa6fb314b1217795b756fb498bac88915aefb78be0e1551207699b0e6338141aa",
      "assetIds": [
        "41506478881403507969696680653240014914910929820314476107906210059990431967233",
        "41506478881403507969696680653240014914910929820314476107906210059990431967234"
      ]
    },
    {
      "x": 364,
      "y": 353,
      "size": 1,
      "price": "4683000000000000000000",
      "reserved": "",
      "salt": "0x63fade6d9cc171b23d477b6bd5097dff360a07bcfab0545c9a9fc1fd01ee7b01",
      "assetIds": [
        "41506478881403507969696680653240014914910929820314476107906210059990431967234",
        "41506478881403507969696680653240014914910929820314476107906210059990431967235"
      ]
    },
    {
      "x": 363,
      "y": 353,
      "size": 1,
      "price": "4683000000000000000000",
      "reserved": "",
      "salt": "0x784ce4d0ead010b5b15b1288361c95a0ccfe53d1faf89c9227997c4531761e46",
      "assetIds": [
        "41506478881403507969696680653240014914910929820314476107906210059990431967232",
        "41506478881403507969696680653240014914910929820314476107906210059990431967233"
      ]
    },
    {
      "x": 362,
      "y": 353,
      "size": 1,
      "price": "4683000000000000000000",
      "reserved": "",
      "salt": "0x1cfa57d8d52947841b86d672b33926c85d3db49e18424400c2c5521be157f16d",
      "assetIds": [
        "41506478881403507969696680653240014914910929820314476107906210059990431967234",
        "41506478881403507969696680653240014914910929820314476107906210059990431967235"
      ]
    },
    {
      "x": 361,
      "y": 353,
      "size": 1,
      "price": "4683000000000000000000",
      "reserved": "",
      "salt": "0x11665b56458e6d20eef75288b8303881946f0ead374aa7dafdf3ac08506c63d0",
      "assetIds": [
        "41506478881403507969696680653240014914910929820314476107906210059990431967232",
        "41506478881403507969696680653240014914910929820314476107906210059990431967233"
      ]
    },
    {
      "x": 360,
      "y": 353,
      "size": 1,
      "price": "4683000000000000000000",
      "reserved": "",
      "salt": "0x9c4d2a1f639f1a967ea2883c302e2ae9bc4509dd649e2933ee14e149a99076fb",
      "assetIds": [
        "41506478881403507969696680653240014914910929820314476107906210059990431967232",
        "41506478881403507969696680653240014914910929820314476107906210059990431967233"
      ]
    },
    {
      "x": 358,
      "y": 353,
      "size": 1,
      "price": "4683000000000000000000",
      "reserved": "",
      "salt": "0x877241afe922b3dde972c5418d87665445c7d817a07ff011b4628a8d9a1c6c9f",
      "assetIds": [
        "41506478881403507969696680653240014914910929820314476107906210059990431967232",
        "41506478881403507969696680653240014914910929820314476107906210059990431967233"
      ]
    },
    {
      "x": 354,
      "y": 350,
      "size": 1,
      "price": "4683000000000000000000",
      "reserved": "",
      "salt": "0x1194dc2ad396ccf7b5283a30ac112c0adb47c8e391ac3cd931eba866e9b6ef9d",
      "assetIds": [
        "41506478881403507969696680653240014914910929820314476107906210059990431967232",
        "41506478881403507969696680653240014914910929820314476107906210059990431967233"
      ]
    },
    {
      "x": 354,
      "y": 349,
      "size": 1,
      "price": "4683000000000000000000",
      "reserved": "",
      "salt": "0x10828285052e3828ff61e6acd02f57e4b27f6c452194858938116f8e24bd4982",
      "assetIds": [
        "41506478881403507969696680653240014914910929820314476107906210059990431967234",
        "41506478881403507969696680653240014914910929820314476107906210059990431967235"
      ]
    },
    {
      "x": 354,
      "y": 348,
      "size": 1,
      "price": "4683000000000000000000",
      "reserved": "",
      "salt": "0x7ab7b2321ba161131930618e76572b628cfe4b3bd07d8a4f22008a5e091b80d7",
      "assetIds": [
        "41506478881403507969696680653240014914910929820314476107906210059990431967235",
        "41506478881403507969696680653240014914910929820314476107906210059990431967236"
      ]
    },
    {
      "x": 354,
      "y": 347,
      "size": 1,
      "price": "4683000000000000000000",
      "reserved": "",
      "salt": "0x6b55fd31cec5f566e795958b7fb995525b5a1eb928660f5af71282e029475183",
      "assetIds": [
        "41506478881403507969696680653240014914910929820314476107906210059990431967232",
        "41506478881403507969696680653240014914910929820314476107906210059990431967233"
      ]
    },
    {
      "x": 354,
      "y": 346,
      "size": 1,
      "price": "4683000000000000000000",
      "reserved": "",
      "salt": "0xda821fe33e36549e59f7409010454f5f2e1c41b157287659918ab1b7d73f0c7b",
      "assetIds": [
        "41506478881403507969696680653240014914910929820314476107906210059990431967232",
        "41506478881403507969696680653240014914910929820314476107906210059990431967233"
      ]
    },
    {
      "x": 355,
      "y": 350,
      "size": 1,
      "price": "4683000000000000000000",
      "reserved": "",
      "salt": "0x85c379729257e4c7a8188a93f1de4dfc60fc41154f2fa13cc3e5d8a64ce45322",
      "assetIds": [
        "41506478881403507969696680653240014914910929820314476107906210059990431967233",
        "41506478881403507969696680653240014914910929820314476107906210059990431967234"
      ]
    },
    {
      "x": 356,
      "y": 350,
      "size": 1,
      "price": "4683000000000000000000",
      "reserved": "",
      "salt": "0xb345cdc3e3ab0f2ad4984a202409d90e1e4d1641375dd4084e08c6c81938454c",
      "assetIds": [
        "41506478881403507969696680653240014914910929820314476107906210059990431967232",
        "41506478881403507969696680653240014914910929820314476107906210059990431967233"
      ]
    },
    {
      "x": 357,
      "y": 350,
      "size": 1,
      "price": "4683000000000000000000",
      "reserved": "",
      "salt": "0x5385d2ed3ee0e6b4731ec391c6bef9ba3b1d55444574d64ab832cfe3365a1d4a",
      "assetIds": [
        "41506478881403507969696680653240014914910929820314476107906210059990431967235",
        "41506478881403507969696680653240014914910929820314476107906210059990431967236"
      ]
    },
    {
      "x": 358,
      "y": 350,
      "size": 1,
      "price": "4683000000000000000000",
      "reserved": "",
      "salt": "0x28fcd6d6396dcdc310155fc779db04cc2524c47f20ff7011158c481c99aa818a",
      "assetIds": [
        "41506478881403507969696680653240014914910929820314476107906210059990431967234",
        "41506478881403507969696680653240014914910929820314476107906210059990431967235"
      ]
    },
    {
      "x": 359,
      "y": 350,
      "size": 1,
      "price": "4683000000000000000000",
      "reserved": "",
      "salt": "0x85702c7c12e25dbfe925152698157af8c44935c1f13dd9552280f76966df7d72",
      "assetIds": [
        "41506478881403507969696680653240014914910929820314476107906210059990431967235",
        "41506478881403507969696680653240014914910929820314476107906210059990431967236"
      ]
    },
    {
      "x": 357,
      "y": 351,
      "size": 1,
      "price": "4683000000000000000000",
      "reserved": "",
      "salt": "0x1b3af74817f9c8a8ea19d0cf666cb9c0538edd14b306c37ae8c17f6f52b40abb",
      "assetIds": [
        "41506478881403507969696680653240014914910929820314476107906210059990431967235",
        "41506478881403507969696680653240014914910929820314476107906210059990431967236"
      ]
    },
    {
      "x": 358,
      "y": 349,
      "size": 1,
      "price": "4683000000000000000000",
      "reserved": "",
      "salt": "0xfc97ab84bf8a8f7baf58e4f5f6744a9daaff3318a5f7c75b6646b13645834c8c",
      "assetIds": [
        "41506478881403507969696680653240014914910929820314476107906210059990431967235",
        "41506478881403507969696680653240014914910929820314476107906210059990431967236"
      ]
    },
    {
      "x": 354,
      "y": 344,
      "size": 1,
      "price": "4683000000000000000000",
      "reserved": "",
      "salt": "0x99994dbe609749a29e0f8ab7f0cf061a3e32096c00ca010319c282d00b4ccbda",
      "assetIds": [
        "41506478881403507969696680653240014914910929820314476107906210059990431967235",
        "41506478881403507969696680653240014914910929820314476107906210059990431967236"
      ]
    },
    {
      "x": 354,
      "y": 343,
      "size": 1,
      "price": "4683000000000000000000",
      "reserved": "",
      "salt": "0x26d8b5b08c2805d7f39357818e68683c50c59f7d5e1cc5c60151e21a0c6d0adf",
      "assetIds": [
        "41506478881403507969696680653240014914910929820314476107906210059990431967233",
        "41506478881403507969696680653240014914910929820314476107906210059990431967234"
      ]
    },
    {
      "x": 354,
      "y": 342,
      "size": 1,
      "price": "4683000000000000000000",
      "reserved": "",
      "salt": "0x2f14ed24edeaadafee91d4c46ba97d3ee08a437374b2e910cf1c67ba58d43ba8",
      "assetIds": [
        "41506478881403507969696680653240014914910929820314476107906210059990431967232",
        "41506478881403507969696680653240014914910929820314476107906210059990431967233"
      ]
    },
    {
      "x": 355,
      "y": 341,
      "size": 1,
      "price": "4683000000000000000000",
      "reserved": "",
      "salt": "0x9a370bb685f84ac61492968c5ddc4dfcace7b2b603963e058b91437bec1c0d8a",
      "assetIds": [
        "41506478881403507969696680653240014914910929820314476107906210059990431967232",
        "41506478881403507969696680653240014914910929820314476107906210059990431967233"
      ]
    },
    {
      "x": 355,
      "y": 340,
      "size": 1,
      "price": "4683000000000000000000",
      "reserved": "",
      "salt": "0xc0fbe93438a4e502cad30d408f8518c44e09bc8e7197fa48bc4e1183faaca415",
      "assetIds": [
        "41506478881403507969696680653240014914910929820314476107906210059990431967233",
        "41506478881403507969696680653240014914910929820314476107906210059990431967234"
      ]
    },
    {
      "x": 355,
      "y": 339,
      "size": 1,
      "price": "4683000000000000000000",
      "reserved": "",
      "salt": "0x4f2d02364b43d6f16744b17f1921660492d13c4188a63caad9f9d8f687ec2fb1",
      "assetIds": [
        "41506478881403507969696680653240014914910929820314476107906210059990431967232",
        "41506478881403507969696680653240014914910929820314476107906210059990431967233"
      ]
    },
    {
      "x": 354,
      "y": 339,
      "size": 1,
      "price": "4683000000000000000000",
      "reserved": "",
      "salt": "0x4c8a67e2da15670c667f10a70e9a4cf115bc23cac6b5765674a020d6f8ce4670",
      "assetIds": [
        "41506478881403507969696680653240014914910929820314476107906210059990431967233",
        "41506478881403507969696680653240014914910929820314476107906210059990431967234"
      ]
    },
    {
      "x": 354,
      "y": 340,
      "size": 1,
      "price": "4683000000000000000000",
      "reserved": "",
      "salt": "0x3119c790deb05d156ec92b9493076cbc13351f92e4fa8d6a66b7d9aca83ce468",
      "assetIds": [
        "41506478881403507969696680653240014914910929820314476107906210059990431967232",
        "41506478881403507969696680653240014914910929820314476107906210059990431967233"
      ]
    },
    {
      "x": 354,
      "y": 341,
      "size": 1,
      "price": "4683000000000000000000",
      "reserved": "",
      "salt": "0x523da5e2e57f00757a7531afd135f82c923ca861d1ffb5efd0fa3434018809c3",
      "assetIds": [
        "41506478881403507969696680653240014914910929820314476107906210059990431967234",
        "41506478881403507969696680653240014914910929820314476107906210059990431967235"
      ]
    },
    {
      "x": 355,
      "y": 342,
      "size": 1,
      "price": "4683000000000000000000",
      "reserved": "",
      "salt": "0xaec17b811557ba4e49a3fd0302751a84fea291c9ebabc8c9d9440b42b7d5d143",
      "assetIds": [
        "41506478881403507969696680653240014914910929820314476107906210059990431967234",
        "41506478881403507969696680653240014914910929820314476107906210059990431967235"
      ]
    },
    {
      "x": 356,
      "y": 342,
      "size": 1,
      "price": "4683000000000000000000",
      "reserved": "",
      "salt": "0xb646d0d6f85b48a86e4c041954e745c4842b601e1833de1260f37862ebcfe39f",
      "assetIds": [
        "41506478881403507969696680653240014914910929820314476107906210059990431967235",
        "41506478881403507969696680653240014914910929820314476107906210059990431967236"
      ]
    },
    {
      "x": 356,
      "y": 341,
      "size": 1,
      "price": "4683000000000000000000",
      "reserved": "",
      "salt": "0x59e3ea9a9ec7e369c8bc0b381a95920de95b0c5d96d0ab06baefd0bc5229284e",
      "assetIds": [
        "41506478881403507969696680653240014914910929820314476107906210059990431967233",
        "41506478881403507969696680653240014914910929820314476107906210059990431967234"
      ]
    },
    {
      "x": 357,
      "y": 341,
      "size": 1,
      "price": "4683000000000000000000",
      "reserved": "",
      "salt": "0x221d052c99a5f081480a50143cb84eee0fbc2f0e59e02fcf2cc2a8f2ccda9815",
      "assetIds": [
        "41506478881403507969696680653240014914910929820314476107906210059990431967235",
        "41506478881403507969696680653240014914910929820314476107906210059990431967236"
      ]
    },
    {
      "x": 358,
      "y": 341,
      "size": 1,
      "price": "4683000000000000000000",
      "reserved": "",
      "salt": "0xdcbe8fe8a3f3c69b2fdd7be064358d3e54b05bfa33acb97e38f63d50d879690f",
      "assetIds": [
        "41506478881403507969696680653240014914910929820314476107906210059990431967234",
        "41506478881403507969696680653240014914910929820314476107906210059990431967235"
      ]
    },
    {
      "x": 358,
      "y": 340,
      "size": 1,
      "price": "4683000000000000000000",
      "reserved": "",
      "salt": "0x349690181241dbaf47697ab46aaec782c0b7306fbc3f416b6484f706e983639e",
      "assetIds": [
        "41506478881403507969696680653240014914910929820314476107906210059990431967235",
        "41506478881403507969696680653240014914910929820314476107906210059990431967236"
      ]
    },
    {
      "x": 359,
      "y": 340,
      "size": 1,
      "price": "4683000000000000000000",
      "reserved": "",
      "salt": "0x7dfd5ee5d2577b548bc4b46f3a158c5781f3ddac19bb796e3e2acb78d1baa692",
      "assetIds": [
        "41506478881403507969696680653240014914910929820314476107906210059990431967233",
        "41506478881403507969696680653240014914910929820314476107906210059990431967234"
      ]
    },
    {
      "x": 359,
      "y": 339,
      "size": 1,
      "price": "4683000000000000000000",
      "reserved": "",
      "salt": "0x81a0b017e40bbe2d47bdaaedeafbd4fd71da81c22c3a262e6fca5167f5a18972",
      "assetIds": [
        "41506478881403507969696680653240014914910929820314476107906210059990431967233",
        "41506478881403507969696680653240014914910929820314476107906210059990431967234"
      ]
    },
    {
      "x": 358,
      "y": 339,
      "size": 1,
      "price": "4683000000000000000000",
      "reserved": "",
      "salt": "0x22ccf98863d40d86e4e8a89bc661f82cdbb9c84f8987dc3427c0ee8a0c5c6a48",
      "assetIds": [
        "41506478881403507969696680653240014914910929820314476107906210059990431967232",
        "41506478881403507969696680653240014914910929820314476107906210059990431967233"
      ]
    },
    {
      "x": 357,
      "y": 340,
      "size": 1,
      "price": "4683000000000000000000",
      "reserved": "",
      "salt": "0x38c1df7919e79943a9e9ec862fc94c1b3ef24c538fdfac1d8143c976837160d8",
      "assetIds": [
        "41506478881403507969696680653240014914910929820314476107906210059990431967233",
        "41506478881403507969696680653240014914910929820314476107906210059990431967234"
      ]
    },
    {
      "x": 356,
      "y": 340,
      "size": 1,
      "price": "4683000000000000000000",
      "reserved": "",
      "salt": "0x72ed99148c44292b8d0eaf25ae51b99e6a656eb19237744386bc46982da8f8c5",
      "assetIds": [
        "41506478881403507969696680653240014914910929820314476107906210059990431967232",
        "41506478881403507969696680653240014914910929820314476107906210059990431967233"
      ]
    },
    {
      "x": 356,
      "y": 339,
      "size": 1,
      "price": "4683000000000000000000",
      "reserved": "",
      "salt": "0x40075ab96c80614260622086ffb5d688d8ba08ab421d2730615ece9c73d66df7",
      "assetIds": [
        "41506478881403507969696680653240014914910929820314476107906210059990431967234",
        "41506478881403507969696680653240014914910929820314476107906210059990431967235"
      ]
    },
    {
      "x": 359,
      "y": 341,
      "size": 1,
      "price": "4683000000000000000000",
      "reserved": "",
      "salt": "0xbe6b0b35acce704bc231aae5fcec41ec2decfc59f8ba1f3df8c312cfcd68daee",
      "assetIds": [
        "41506478881403507969696680653240014914910929820314476107906210059990431967235",
        "41506478881403507969696680653240014914910929820314476107906210059990431967236"
      ]
    },
    {
      "x": 359,
      "y": 342,
      "size": 1,
      "price": "4683000000000000000000",
      "reserved": "",
      "salt": "0x5f41462901ad7858492073c9a7b1b0465cff76928a98cd108e63b6c604579dfc",
      "assetIds": [
        "41506478881403507969696680653240014914910929820314476107906210059990431967235",
        "41506478881403507969696680653240014914910929820314476107906210059990431967236"
      ]
    },
    {
      "x": 359,
      "y": 343,
      "size": 1,
      "price": "4683000000000000000000",
      "reserved": "",
      "salt": "0x0b053b08a4cc41fee5ef21a7087b27c2a903c3ee05c7157de4823c371d894ffd",
      "assetIds": [
        "41506478881403507969696680653240014914910929820314476107906210059990431967234",
        "41506478881403507969696680653240014914910929820314476107906210059990431967235"
      ]
    },
    {
      "x": 359,
      "y": 344,
      "size": 1,
      "price": "4683000000000000000000",
      "reserved": "",
      "salt": "0xef0705e8bc4e25bde7a1e88b711971ba02b90b2e277eab16b78f61aab86ae5fd",
      "assetIds": [
        "41506478881403507969696680653240014914910929820314476107906210059990431967235",
        "41506478881403507969696680653240014914910929820314476107906210059990431967236"
      ]
    },
    {
      "x": 359,
      "y": 345,
      "size": 1,
      "price": "4683000000000000000000",
      "reserved": "",
      "salt": "0x9436eef96217bdaf882d67d2e3592f72437d7507428bc76c4a7c8c2b39d824e4",
      "assetIds": [
        "41506478881403507969696680653240014914910929820314476107906210059990431967234",
        "41506478881403507969696680653240014914910929820314476107906210059990431967235"
      ]
    },
    {
      "x": 359,
      "y": 346,
      "size": 1,
      "price": "4683000000000000000000",
      "reserved": "",
      "salt": "0xdcf295965b885f421c744783609c949800a7cd234191f29cf751ebb3ab8d7f60",
      "assetIds": [
        "41506478881403507969696680653240014914910929820314476107906210059990431967235",
        "41506478881403507969696680653240014914910929820314476107906210059990431967236"
      ]
    },
    {
      "x": 359,
      "y": 347,
      "size": 1,
      "price": "4683000000000000000000",
      "reserved": "",
      "salt": "0xe4aed0582534ca877f2b0da0500fa8e2ae12bb682002bc3e79a4a91e6142fe7a",
      "assetIds": [
        "41506478881403507969696680653240014914910929820314476107906210059990431967233",
        "41506478881403507969696680653240014914910929820314476107906210059990431967234"
      ]
    },
    {
      "x": 359,
      "y": 348,
      "size": 1,
      "price": "4683000000000000000000",
      "reserved": "",
      "salt": "0x86baf43ebb87c1af129b678f3074a60d614d16f1c69c8d8af9f20c7f4f72394f",
      "assetIds": [
        "41506478881403507969696680653240014914910929820314476107906210059990431967234",
        "41506478881403507969696680653240014914910929820314476107906210059990431967235"
      ]
    },
    {
      "x": 359,
      "y": 349,
      "size": 1,
      "price": "4683000000000000000000",
      "reserved": "",
      "salt": "0xbe8306ca455c23837ab0519e97680d820655b9465490264f2d03a6038b5b768f",
      "assetIds": [
        "41506478881403507969696680653240014914910929820314476107906210059990431967232",
        "41506478881403507969696680653240014914910929820314476107906210059990431967233"
      ]
    },
    {
      "x": 357,
      "y": 349,
      "size": 1,
      "price": "4683000000000000000000",
      "reserved": "",
      "salt": "0x8257b4f4c6d7f3d1086622bd6351c5d1803add2d0fbe7ca3d3e1baf5e9dbf9f6",
      "assetIds": [
        "41506478881403507969696680653240014914910929820314476107906210059990431967232",
        "41506478881403507969696680653240014914910929820314476107906210059990431967233"
      ]
    },
    {
      "x": 357,
      "y": 348,
      "size": 1,
      "price": "4683000000000000000000",
      "reserved": "",
      "salt": "0xf2c3def70058eb22fcc7a29bac0e8e4a19381061d168d08eb9007ded5ddde514",
      "assetIds": [
        "41506478881403507969696680653240014914910929820314476107906210059990431967233",
        "41506478881403507969696680653240014914910929820314476107906210059990431967234"
      ]
    },
    {
      "x": 357,
      "y": 347,
      "size": 1,
      "price": "4683000000000000000000",
      "reserved": "",
      "salt": "0x9f54200ff1bdc29f6cc48c101c97381fb00ec2852aeded7d7ab327679585411e",
      "assetIds": [
        "41506478881403507969696680653240014914910929820314476107906210059990431967235",
        "41506478881403507969696680653240014914910929820314476107906210059990431967236"
      ]
    },
    {
      "x": 357,
      "y": 346,
      "size": 1,
      "price": "4683000000000000000000",
      "reserved": "",
      "salt": "0xf169dbdc7591d97a31908a76629a27880a47aaa0f6b9256883bd019d3117f68c",
      "assetIds": [
        "41506478881403507969696680653240014914910929820314476107906210059990431967234",
        "41506478881403507969696680653240014914910929820314476107906210059990431967235"
      ]
    },
    {
      "x": 357,
      "y": 345,
      "size": 1,
      "price": "4683000000000000000000",
      "reserved": "",
      "salt": "0x90c48b323276d4eb3781376c32b9a0faf46033203ae03b1970cd0e1a692c4a89",
      "assetIds": [
        "41506478881403507969696680653240014914910929820314476107906210059990431967235",
        "41506478881403507969696680653240014914910929820314476107906210059990431967236"
      ]
    },
    {
      "x": 357,
      "y": 344,
      "size": 1,
      "price": "4683000000000000000000",
      "reserved": "",
      "salt": "0xbec3e5c85a4c16029c3a225ab90e0d76b4660405ff373b758455735c3e852f7e",
      "assetIds": [
        "41506478881403507969696680653240014914910929820314476107906210059990431967235",
        "41506478881403507969696680653240014914910929820314476107906210059990431967236"
      ]
    },
    {
      "x": 357,
      "y": 343,
      "size": 1,
      "price": "4683000000000000000000",
      "reserved": "",
      "salt": "0x72b03991225f253c8d2c8b3c0602f4066b2758b4bae85ca8d81b035a514db591",
      "assetIds": [
        "41506478881403507969696680653240014914910929820314476107906210059990431967232",
        "41506478881403507969696680653240014914910929820314476107906210059990431967233"
      ]
    },
    {
      "x": 357,
      "y": 342,
      "size": 1,
      "price": "4683000000000000000000",
      "reserved": "",
      "salt": "0x0a977d9247e4940bcb167e05d03f147541af896ab6fa09fc4f7cde3578af3472",
      "assetIds": [
        "41506478881403507969696680653240014914910929820314476107906210059990431967233",
        "41506478881403507969696680653240014914910929820314476107906210059990431967234"
      ]
    },
    {
      "x": 358,
      "y": 342,
      "size": 1,
      "price": "4683000000000000000000",
      "reserved": "",
      "salt": "0x669ebfab7526502b2924b62c4607a19e8f7f0bce4f4f14850b7785d5f910c0d6",
      "assetIds": [
        "41506478881403507969696680653240014914910929820314476107906210059990431967234",
        "41506478881403507969696680653240014914910929820314476107906210059990431967235"
      ]
    },
    {
      "x": 358,
      "y": 343,
      "size": 1,
      "price": "4683000000000000000000",
      "reserved": "",
      "salt": "0x90f5751f4ee59de54c38b4acd60a579d43fbb654bee56d351cea643196a3d13e",
      "assetIds": [
        "41506478881403507969696680653240014914910929820314476107906210059990431967232",
        "41506478881403507969696680653240014914910929820314476107906210059990431967233"
      ]
    },
    {
      "x": 358,
      "y": 344,
      "size": 1,
      "price": "4683000000000000000000",
      "reserved": "",
      "salt": "0x326bcf4e677385763f8f3cf4023bf20e8a4fbb5a6f7c304c4b3648c12a18e879",
      "assetIds": [
        "41506478881403507969696680653240014914910929820314476107906210059990431967235",
        "41506478881403507969696680653240014914910929820314476107906210059990431967236"
      ]
    },
    {
      "x": 358,
      "y": 345,
      "size": 1,
      "price": "4683000000000000000000",
      "reserved": "",
      "salt": "0x9f6b57efa4ea5715cfe84c02761d159cc6fcd6df4e08e76b5f19ffa016e42ea5",
      "assetIds": [
        "41506478881403507969696680653240014914910929820314476107906210059990431967235",
        "41506478881403507969696680653240014914910929820314476107906210059990431967236"
      ]
    },
    {
      "x": 358,
      "y": 347,
      "size": 1,
      "price": "4683000000000000000000",
      "reserved": "",
      "salt": "0x749377a56141d1bb709779fc125a96fcb04348cb76c5ee7b660e185605a81e9a",
      "assetIds": [
        "41506478881403507969696680653240014914910929820314476107906210059990431967232",
        "41506478881403507969696680653240014914910929820314476107906210059990431967233"
      ]
    },
    {
      "x": 358,
      "y": 348,
      "size": 1,
      "price": "4683000000000000000000",
      "reserved": "",
      "salt": "0xe9d38c906ee8bb382cbb02e5c1045642a01b197f9fb8e59c4f5ab5631990f9a2",
      "assetIds": [
        "41506478881403507969696680653240014914910929820314476107906210059990431967233",
        "41506478881403507969696680653240014914910929820314476107906210059990431967234"
      ]
    },
    {
      "x": 358,
      "y": 346,
      "size": 1,
      "price": "4683000000000000000000",
      "reserved": "",
      "salt": "0xa5702a4d683ad0b59df8e729a4be236a0a4156a964f508e6807d184056e2f205",
      "assetIds": [
        "41506478881403507969696680653240014914910929820314476107906210059990431967233",
        "41506478881403507969696680653240014914910929820314476107906210059990431967234"
      ]
    },
    {
      "x": 355,
      "y": 343,
      "size": 1,
      "price": "4683000000000000000000",
      "reserved": "",
      "salt": "0x0e21420fe83e5d968109e9f4d7653c1dcd20b9f887971eb18cc3f60324b078e2",
      "assetIds": [
        "41506478881403507969696680653240014914910929820314476107906210059990431967233",
        "41506478881403507969696680653240014914910929820314476107906210059990431967234"
      ]
    },
    {
      "x": 356,
      "y": 343,
      "size": 1,
      "price": "4683000000000000000000",
      "reserved": "",
      "salt": "0xe074ac774687a19808f02f031896ade7df39c5f0f49b301455b12d851c951b3c",
      "assetIds": [
        "41506478881403507969696680653240014914910929820314476107906210059990431967235",
        "41506478881403507969696680653240014914910929820314476107906210059990431967236"
      ]
    },
    {
      "x": 356,
      "y": 345,
      "size": 1,
      "price": "4683000000000000000000",
      "reserved": "",
      "salt": "0x4cab0dd27625e0f20c0f9cec2752f77605ab2434f31c274a433000f90f5e25a8",
      "assetIds": [
        "41506478881403507969696680653240014914910929820314476107906210059990431967232",
        "41506478881403507969696680653240014914910929820314476107906210059990431967233"
      ]
    },
    {
      "x": 356,
      "y": 346,
      "size": 1,
      "price": "4683000000000000000000",
      "reserved": "",
      "salt": "0xb00a6e58a455820625a96638e9b00293a351cf81ade4f5596170e4a818dc5df7",
      "assetIds": [
        "41506478881403507969696680653240014914910929820314476107906210059990431967232",
        "41506478881403507969696680653240014914910929820314476107906210059990431967233"
      ]
    },
    {
      "x": 356,
      "y": 347,
      "size": 1,
      "price": "4683000000000000000000",
      "reserved": "",
      "salt": "0x93838c3477c173ae8f979105bb66f5cdd3cb5bdea059ca3091b8bced4f490b6a",
      "assetIds": [
        "41506478881403507969696680653240014914910929820314476107906210059990431967232",
        "41506478881403507969696680653240014914910929820314476107906210059990431967233"
      ]
    },
    {
      "x": 356,
      "y": 348,
      "size": 1,
      "price": "4683000000000000000000",
      "reserved": "",
      "salt": "0x524d60d452a2f992a4cabec9dd778d0e93c695a77341a239622fbc3f1717f7da",
      "assetIds": [
        "41506478881403507969696680653240014914910929820314476107906210059990431967234",
        "41506478881403507969696680653240014914910929820314476107906210059990431967235"
      ]
    },
    {
      "x": 356,
      "y": 349,
      "size": 1,
      "price": "4683000000000000000000",
      "reserved": "",
      "salt": "0x60ff1540b61e267406730743e8cf68b6e2f0d02b4c8f0cbdc36ce76532b1f2a5",
      "assetIds": [
        "41506478881403507969696680653240014914910929820314476107906210059990431967233",
        "41506478881403507969696680653240014914910929820314476107906210059990431967234"
      ]
    },
    {
      "x": 355,
      "y": 349,
      "size": 1,
      "price": "4683000000000000000000",
      "reserved": "",
      "salt": "0x09bd3aa9b63b938d447d4f8b33fe139029f9a7a903b628acfb0f84624c211644",
      "assetIds": [
        "41506478881403507969696680653240014914910929820314476107906210059990431967232",
        "41506478881403507969696680653240014914910929820314476107906210059990431967233"
      ]
    },
    {
      "x": 355,
      "y": 348,
      "size": 1,
      "price": "4683000000000000000000",
      "reserved": "",
      "salt": "0x49b16e83425bd9446171e39db8ed87674f90340c61d54192e2c4fbfe637b2494",
      "assetIds": [
        "41506478881403507969696680653240014914910929820314476107906210059990431967233",
        "41506478881403507969696680653240014914910929820314476107906210059990431967234"
      ]
    },
    {
      "x": 355,
      "y": 347,
      "size": 1,
      "price": "4683000000000000000000",
      "reserved": "",
      "salt": "0x720ca06e7015c59c6b963da03817d942619076ca2077b8836d568d8934c05f47",
      "assetIds": [
        "41506478881403507969696680653240014914910929820314476107906210059990431967232",
        "41506478881403507969696680653240014914910929820314476107906210059990431967233"
      ]
    },
    {
      "x": 355,
      "y": 346,
      "size": 1,
      "price": "4683000000000000000000",
      "reserved": "",
      "salt": "0x40242082cfc4e47e9b0b19e1e81f4117428eab55b787687a7ba689210ee15f50",
      "assetIds": [
        "41506478881403507969696680653240014914910929820314476107906210059990431967233",
        "41506478881403507969696680653240014914910929820314476107906210059990431967234"
      ]
    },
    {
      "x": 355,
      "y": 345,
      "size": 1,
      "price": "4683000000000000000000",
      "reserved": "",
      "salt": "0xe61da766e12aa85b6eecdb2e460d0d2260040265e3606d4bf72d90bf24456f1c",
      "assetIds": [
        "41506478881403507969696680653240014914910929820314476107906210059990431967233",
        "41506478881403507969696680653240014914910929820314476107906210059990431967234"
      ]
    },
    {
      "x": 355,
      "y": 344,
      "size": 1,
      "price": "4683000000000000000000",
      "reserved": "",
      "salt": "0x9f21760480cd6b352015759e15057cb2845b3a441bfc7fe975556a1d85b45e4e",
      "assetIds": [
        "41506478881403507969696680653240014914910929820314476107906210059990431967232",
        "41506478881403507969696680653240014914910929820314476107906210059990431967233"
      ]
    },
    {
      "x": 358,
      "y": 351,
      "size": 1,
      "price": "4683000000000000000000",
      "reserved": "",
      "salt": "0xc38396e78f55ecdf87787d12d108e54c680a6ca76ba7e016e743bffc9f7404f5",
      "assetIds": [
        "41506478881403507969696680653240014914910929820314476107906210059990431967232",
        "41506478881403507969696680653240014914910929820314476107906210059990431967233"
      ]
    },
    {
      "x": 359,
      "y": 351,
      "size": 1,
      "price": "4683000000000000000000",
      "reserved": "",
      "salt": "0xdaeef1edaad59aa7630e33be5087efa728f3fd1f3909b2bc3e24be48cdccf932",
      "assetIds": [
        "41506478881403507969696680653240014914910929820314476107906210059990431967234",
        "41506478881403507969696680653240014914910929820314476107906210059990431967235"
      ]
    },
    {
      "x": 360,
      "y": 351,
      "size": 1,
      "price": "4683000000000000000000",
      "reserved": "",
      "salt": "0xe11989c4277c4e35400b4ffbbb69ebbc854480b0c3c24b7ea6331fc44b856de7",
      "assetIds": [
        "41506478881403507969696680653240014914910929820314476107906210059990431967234",
        "41506478881403507969696680653240014914910929820314476107906210059990431967235"
      ]
    },
    {
      "x": 360,
      "y": 350,
      "size": 1,
      "price": "4683000000000000000000",
      "reserved": "",
      "salt": "0x18f0257fd5f206d55f817982ceb1e155b3829b4042af4ec4180d104744649773",
      "assetIds": [
        "41506478881403507969696680653240014914910929820314476107906210059990431967232",
        "41506478881403507969696680653240014914910929820314476107906210059990431967233"
      ]
    },
    {
      "x": 361,
      "y": 350,
      "size": 1,
      "price": "4683000000000000000000",
      "reserved": "",
      "salt": "0xf9d334fbb8bd563a82d9d4ecce5dcd4f131199a37fa9979a2aa44effd2bc362e",
      "assetIds": [
        "41506478881403507969696680653240014914910929820314476107906210059990431967234",
        "41506478881403507969696680653240014914910929820314476107906210059990431967235"
      ]
    },
    {
      "x": 362,
      "y": 350,
      "size": 1,
      "price": "4683000000000000000000",
      "reserved": "",
      "salt": "0x2bffcd63bda5f65de824cc76bfe1aa43d56b5ca74c3e776f35971a8fc3d088e6",
      "assetIds": [
        "41506478881403507969696680653240014914910929820314476107906210059990431967233",
        "41506478881403507969696680653240014914910929820314476107906210059990431967234"
      ]
    },
    {
      "x": 364,
      "y": 350,
      "size": 1,
      "price": "4683000000000000000000",
      "reserved": "",
      "salt": "0x72661dd3eb13456153458ec0bd163739c74ec37be623e7ee80a4a981c511639a",
      "assetIds": [
        "41506478881403507969696680653240014914910929820314476107906210059990431967234",
        "41506478881403507969696680653240014914910929820314476107906210059990431967235"
      ]
    },
    {
      "x": 365,
      "y": 350,
      "size": 1,
      "price": "4683000000000000000000",
      "reserved": "",
      "salt": "0xf16c8ab7de281aec952c5ff1f860285bdfa0a7f292d871af8b69a80de407c12d",
      "assetIds": [
        "41506478881403507969696680653240014914910929820314476107906210059990431967233",
        "41506478881403507969696680653240014914910929820314476107906210059990431967234"
      ]
    },
    {
      "x": 366,
      "y": 350,
      "size": 1,
      "price": "4683000000000000000000",
      "reserved": "",
      "salt": "0x8b537c168ae82138848dc9d65f4ba7b61f6c685165fddc0c8e97f8bb3d9ee258",
      "assetIds": [
        "41506478881403507969696680653240014914910929820314476107906210059990431967234",
        "41506478881403507969696680653240014914910929820314476107906210059990431967235"
      ]
    },
    {
      "x": 367,
      "y": 350,
      "size": 1,
      "price": "4683000000000000000000",
      "reserved": "",
      "salt": "0x0333d037ea1e9477d821c88816b66f625588203163619318c2a2a81962775236",
      "assetIds": [
        "41506478881403507969696680653240014914910929820314476107906210059990431967235",
        "41506478881403507969696680653240014914910929820314476107906210059990431967236"
      ]
    },
    {
      "x": 368,
      "y": 350,
      "size": 1,
      "price": "4683000000000000000000",
      "reserved": "",
      "salt": "0xd877dce3958c16068269adc2b21974262a4af1a7e17f599188f4a7dd7e0c4b6d",
      "assetIds": [
        "41506478881403507969696680653240014914910929820314476107906210059990431967235",
        "41506478881403507969696680653240014914910929820314476107906210059990431967236"
      ]
    },
    {
      "x": 368,
      "y": 349,
      "size": 1,
      "price": "4683000000000000000000",
      "reserved": "",
      "salt": "0xe1164b41a49eaf8619cf768ada00142f46cdd74fd6ed3cfa05fda88509e53581",
      "assetIds": [
        "41506478881403507969696680653240014914910929820314476107906210059990431967232",
        "41506478881403507969696680653240014914910929820314476107906210059990431967233"
      ]
    },
    {
      "x": 369,
      "y": 349,
      "size": 1,
      "price": "4683000000000000000000",
      "reserved": "",
      "salt": "0xbf34790d3f5016293bfdacff221d489f8667bf7359bd6b70c0d285708c203e4a",
      "assetIds": [
        "41506478881403507969696680653240014914910929820314476107906210059990431967235",
        "41506478881403507969696680653240014914910929820314476107906210059990431967236"
      ]
    },
    {
      "x": 370,
      "y": 349,
      "size": 1,
      "price": "4683000000000000000000",
      "reserved": "",
      "salt": "0xc45e0c3d8acd794ac1b3e75506fb1e476d2953021ee73a865eb73c21c92d71e4",
      "assetIds": [
        "41506478881403507969696680653240014914910929820314476107906210059990431967234",
        "41506478881403507969696680653240014914910929820314476107906210059990431967235"
      ]
    },
    {
      "x": 371,
      "y": 348,
      "size": 1,
      "price": "4683000000000000000000",
      "reserved": "",
      "salt": "0x369886eeaf567cb135f38294281e4466ae7eef37f1c42f63b1c309b3593be667",
      "assetIds": [
        "41506478881403507969696680653240014914910929820314476107906210059990431967234",
        "41506478881403507969696680653240014914910929820314476107906210059990431967235"
      ]
    },
    {
      "x": 370,
      "y": 348,
      "size": 1,
      "price": "4683000000000000000000",
      "reserved": "",
      "salt": "0xe14cc39ff4c96a9aafeb8a9cc0eef5677ca423175dfb8c029bc579a6c6e3090d",
      "assetIds": [
        "41506478881403507969696680653240014914910929820314476107906210059990431967235",
        "41506478881403507969696680653240014914910929820314476107906210059990431967236"
      ]
    },
    {
      "x": 369,
      "y": 348,
      "size": 1,
      "price": "4683000000000000000000",
      "reserved": "",
      "salt": "0x24dd55d25f48c613d57f99bee5d7259083272439c871cf5a6772c91947d807ac",
      "assetIds": [
        "41506478881403507969696680653240014914910929820314476107906210059990431967235",
        "41506478881403507969696680653240014914910929820314476107906210059990431967236"
      ]
    },
    {
      "x": 368,
      "y": 348,
      "size": 1,
      "price": "4683000000000000000000",
      "reserved": "",
      "salt": "0xf9064c6fd9f37f8da27e7431ec0285c853092cc6ce76f5b6cafd658c12c95ad5",
      "assetIds": [
        "41506478881403507969696680653240014914910929820314476107906210059990431967232",
        "41506478881403507969696680653240014914910929820314476107906210059990431967233"
      ]
    },
    {
      "x": 367,
      "y": 348,
      "size": 1,
      "price": "4683000000000000000000",
      "reserved": "",
      "salt": "0xf935b9c826dd5793ff44121304b241a84fbcfef81a1b61030938a446464701ef",
      "assetIds": [
        "41506478881403507969696680653240014914910929820314476107906210059990431967233",
        "41506478881403507969696680653240014914910929820314476107906210059990431967234"
      ]
    },
    {
      "x": 366,
      "y": 348,
      "size": 1,
      "price": "4683000000000000000000",
      "reserved": "",
      "salt": "0x78fe6cbc904c4d271d415f6520502425840a63dbd9bd3a164ea1abcbe0d60ef0",
      "assetIds": [
        "41506478881403507969696680653240014914910929820314476107906210059990431967234",
        "41506478881403507969696680653240014914910929820314476107906210059990431967235"
      ]
    },
    {
      "x": 365,
      "y": 348,
      "size": 1,
      "price": "4683000000000000000000",
      "reserved": "",
      "salt": "0x109752eae8d2c393d63cd18760b83ada585c549cb9e74c20e0675ba5cd189b56",
      "assetIds": [
        "41506478881403507969696680653240014914910929820314476107906210059990431967235",
        "41506478881403507969696680653240014914910929820314476107906210059990431967236"
      ]
    },
    {
      "x": 364,
      "y": 348,
      "size": 1,
      "price": "4683000000000000000000",
      "reserved": "",
      "salt": "0x9c3e6a2156718d77046702c4922f2c218b6d2e55c78788857c03f2aed88b05ac",
      "assetIds": [
        "41506478881403507969696680653240014914910929820314476107906210059990431967234",
        "41506478881403507969696680653240014914910929820314476107906210059990431967235"
      ]
    },
    {
      "x": 363,
      "y": 348,
      "size": 1,
      "price": "4683000000000000000000",
      "reserved": "",
      "salt": "0x5dfd8c1f312edca68cc65e2171ea494763edb8c24e5d2bfc6ae896445a4c01c9",
      "assetIds": [
        "41506478881403507969696680653240014914910929820314476107906210059990431967233",
        "41506478881403507969696680653240014914910929820314476107906210059990431967234"
      ]
    },
    {
      "x": 362,
      "y": 348,
      "size": 1,
      "price": "4683000000000000000000",
      "reserved": "",
      "salt": "0x5c7383b2fcc8a686712452872d3850245c7ad2206515b687cec0fcf426faa593",
      "assetIds": [
        "41506478881403507969696680653240014914910929820314476107906210059990431967235",
        "41506478881403507969696680653240014914910929820314476107906210059990431967236"
      ]
    },
    {
      "x": 361,
      "y": 348,
      "size": 1,
      "price": "4683000000000000000000",
      "reserved": "",
      "salt": "0xebb718c26b7ba463ce23b282ac15d566741683a6c2fcb900cbe0326d57f1d822",
      "assetIds": [
        "41506478881403507969696680653240014914910929820314476107906210059990431967234",
        "41506478881403507969696680653240014914910929820314476107906210059990431967235"
      ]
    },
    {
      "x": 360,
      "y": 348,
      "size": 1,
      "price": "4683000000000000000000",
      "reserved": "",
      "salt": "0x06e5037beadd01fc2020f5b832d62443912bc8119e96c601457110ed82e4c5e4",
      "assetIds": [
        "41506478881403507969696680653240014914910929820314476107906210059990431967235",
        "41506478881403507969696680653240014914910929820314476107906210059990431967236"
      ]
    },
    {
      "x": 360,
      "y": 349,
      "size": 1,
      "price": "4683000000000000000000",
      "reserved": "",
      "salt": "0x8eeff7971c74d3b77b15fd001efc8aa5d5b731c0c0b01ff9cd482681492d31de",
      "assetIds": [
        "41506478881403507969696680653240014914910929820314476107906210059990431967234",
        "41506478881403507969696680653240014914910929820314476107906210059990431967235"
      ]
    },
    {
      "x": 361,
      "y": 349,
      "size": 1,
      "price": "4683000000000000000000",
      "reserved": "",
      "salt": "0x53e37b26ac90b2693a7b6e2b40e68390ce6a3b0d3fb6993532745488dab851bf",
      "assetIds": [
        "41506478881403507969696680653240014914910929820314476107906210059990431967232",
        "41506478881403507969696680653240014914910929820314476107906210059990431967233"
      ]
    },
    {
      "x": 362,
      "y": 349,
      "size": 1,
      "price": "4683000000000000000000",
      "reserved": "",
      "salt": "0x30c3e7f490d464867cd5fa84ce1e90617917822738d5f813ab3bdb2409144f08",
      "assetIds": [
        "41506478881403507969696680653240014914910929820314476107906210059990431967235",
        "41506478881403507969696680653240014914910929820314476107906210059990431967236"
      ]
    },
    {
      "x": 363,
      "y": 349,
      "size": 1,
      "price": "4683000000000000000000",
      "reserved": "",
      "salt": "0x4b53c433bc9549f2ca44747eb64574b388765a685f39b88dbae5ae2afb9ea8eb",
      "assetIds": [
        "41506478881403507969696680653240014914910929820314476107906210059990431967234",
        "41506478881403507969696680653240014914910929820314476107906210059990431967235"
      ]
    },
    {
      "x": 365,
      "y": 349,
      "size": 1,
      "price": "4683000000000000000000",
      "reserved": "",
      "salt": "0xb25ee2dc2b8fa02bf7cd81d00b45551e65fcce194903004523b6194e569d1c6f",
      "assetIds": [
        "41506478881403507969696680653240014914910929820314476107906210059990431967232",
        "41506478881403507969696680653240014914910929820314476107906210059990431967233"
      ]
    },
    {
      "x": 364,
      "y": 349,
      "size": 1,
      "price": "4683000000000000000000",
      "reserved": "",
      "salt": "0xd66177c9b7dd1645b96e56fdb8e688771f6ecc2039296acb782ee459a1570c35",
      "assetIds": [
        "41506478881403507969696680653240014914910929820314476107906210059990431967235",
        "41506478881403507969696680653240014914910929820314476107906210059990431967236"
      ]
    },
    {
      "x": 367,
      "y": 349,
      "size": 1,
      "price": "4683000000000000000000",
      "reserved": "",
      "salt": "0x3440d94adf4d61f225f97f3425ec4fcac81867db0d5457eca54fb8842574903a",
      "assetIds": [
        "41506478881403507969696680653240014914910929820314476107906210059990431967233",
        "41506478881403507969696680653240014914910929820314476107906210059990431967234"
      ]
    },
    {
      "x": 366,
      "y": 349,
      "size": 1,
      "price": "4683000000000000000000",
      "reserved": "",
      "salt": "0x161bdd561a0ced666b7e5f0f2e9199e76126ae25d6d1f05892cc3f2db27e53eb",
      "assetIds": [
        "41506478881403507969696680653240014914910929820314476107906210059990431967233",
        "41506478881403507969696680653240014914910929820314476107906210059990431967234"
      ]
    },
    {
      "x": 371,
      "y": 349,
      "size": 1,
      "price": "4683000000000000000000",
      "reserved": "",
      "salt": "0x567cf384ebb7ddb9caf5f6502742387972f83c78967392a1c674e05d7e1bb529",
      "assetIds": [
        "41506478881403507969696680653240014914910929820314476107906210059990431967233",
        "41506478881403507969696680653240014914910929820314476107906210059990431967234"
      ]
    },
    {
      "x": 371,
      "y": 350,
      "size": 1,
      "price": "4683000000000000000000",
      "reserved": "",
      "salt": "0x997a181e326d3d4a634835138b5dadb278404ed9e9a013d73ab431ea1d455122",
      "assetIds": [
        "41506478881403507969696680653240014914910929820314476107906210059990431967234",
        "41506478881403507969696680653240014914910929820314476107906210059990431967235"
      ]
    },
    {
      "x": 369,
      "y": 350,
      "size": 1,
      "price": "4683000000000000000000",
      "reserved": "",
      "salt": "0x19d23274bda5c30f7335ede8f335f842eee3e2cc944328910d4694171ef79a54",
      "assetIds": [
        "41506478881403507969696680653240014914910929820314476107906210059990431967232",
        "41506478881403507969696680653240014914910929820314476107906210059990431967233"
      ]
    },
    {
      "x": 370,
      "y": 350,
      "size": 1,
      "price": "4683000000000000000000",
      "reserved": "",
      "salt": "0x475fe42f8c1f817fa099f6d10b8f477a006fa21f04856253d4b89286d951f88f",
      "assetIds": [
        "41506478881403507969696680653240014914910929820314476107906210059990431967234",
        "41506478881403507969696680653240014914910929820314476107906210059990431967235"
      ]
    },
    {
      "x": 365,
      "y": 351,
      "size": 1,
      "price": "4683000000000000000000",
      "reserved": "",
      "salt": "0x132fd0883088c5ae7c39e3fcb93e6d3a8a5dda7bb63289f88f0d48e99dfd9826",
      "assetIds": [
        "41506478881403507969696680653240014914910929820314476107906210059990431967234",
        "41506478881403507969696680653240014914910929820314476107906210059990431967235"
      ]
    },
    {
      "x": 364,
      "y": 351,
      "size": 1,
      "price": "4683000000000000000000",
      "reserved": "",
      "salt": "0x61d8bf6bf87be489a35eafe0ae129fcd895990eea1e620251e4c05e982c13ecb",
      "assetIds": [
        "41506478881403507969696680653240014914910929820314476107906210059990431967234",
        "41506478881403507969696680653240014914910929820314476107906210059990431967235"
      ]
    },
    {
      "x": 363,
      "y": 351,
      "size": 1,
      "price": "4683000000000000000000",
      "reserved": "",
      "salt": "0x8c9ea4e09dc4879d424f6f2adf4a28b3414abab78687e5ebe39c72fdaa73d5d6",
      "assetIds": [
        "41506478881403507969696680653240014914910929820314476107906210059990431967232",
        "41506478881403507969696680653240014914910929820314476107906210059990431967233"
      ]
    },
    {
      "x": 362,
      "y": 351,
      "size": 1,
      "price": "4683000000000000000000",
      "reserved": "",
      "salt": "0x015ee35851bba2cd02d0235c96a0ae11f6a803b61e658511a2480a3f95430900",
      "assetIds": [
        "41506478881403507969696680653240014914910929820314476107906210059990431967235",
        "41506478881403507969696680653240014914910929820314476107906210059990431967236"
      ]
    },
    {
      "x": 361,
      "y": 351,
      "size": 1,
      "price": "4683000000000000000000",
      "reserved": "",
      "salt": "0xbf708abdeacc0508df0c555bdc14390d299c8ac5e8b84ab3b6e6220bf865cb96",
      "assetIds": [
        "41506478881403507969696680653240014914910929820314476107906210059990431967233",
        "41506478881403507969696680653240014914910929820314476107906210059990431967234"
      ]
    },
    {
      "x": 376,
      "y": 350,
      "size": 1,
      "price": "4683000000000000000000",
      "reserved": "",
      "salt": "0x469df73d95c9a879c991264b275d448092c8a5d6b44069740cc65aea72886255",
      "assetIds": [
        "41506478881403507969696680653240014914910929820314476107906210059990431967233",
        "41506478881403507969696680653240014914910929820314476107906210059990431967234"
      ]
    },
    {
      "x": 377,
      "y": 350,
      "size": 1,
      "price": "4683000000000000000000",
      "reserved": "",
      "salt": "0x9934599d7d2f2bdab2e9959f2f059d5791ac8e419af95c8f44abfd48278e61ac",
      "assetIds": [
        "41506478881403507969696680653240014914910929820314476107906210059990431967235",
        "41506478881403507969696680653240014914910929820314476107906210059990431967236"
      ]
    },
    {
      "x": 378,
      "y": 350,
      "size": 1,
      "price": "4683000000000000000000",
      "reserved": "",
      "salt": "0xfdc3a881f01bd34d15ab8d67e9734a18889f4d43b6d14047db7e85f457f116ef",
      "assetIds": [
        "41506478881403507969696680653240014914910929820314476107906210059990431967233",
        "41506478881403507969696680653240014914910929820314476107906210059990431967234"
      ]
    },
    {
      "x": 379,
      "y": 350,
      "size": 1,
      "price": "4683000000000000000000",
      "reserved": "",
      "salt": "0xb45df4a921fafeecc566d25eda9dd322e1a953f0774a84de8b33b9c6a09145cf",
      "assetIds": [
        "41506478881403507969696680653240014914910929820314476107906210059990431967233",
        "41506478881403507969696680653240014914910929820314476107906210059990431967234"
      ]
    },
    {
      "x": 379,
      "y": 349,
      "size": 1,
      "price": "4683000000000000000000",
      "reserved": "",
      "salt": "0x484796541d638356865bf5ac117ecddee99db1944e4ac9ebfb9eec15212acd30",
      "assetIds": [
        "41506478881403507969696680653240014914910929820314476107906210059990431967234",
        "41506478881403507969696680653240014914910929820314476107906210059990431967235"
      ]
    },
    {
      "x": 381,
      "y": 349,
      "size": 1,
      "price": "4683000000000000000000",
      "reserved": "",
      "salt": "0x2775053920d2b68901ae577b796cb22a489b724cb9099cf46d882b73b0dd0669",
      "assetIds": [
        "41506478881403507969696680653240014914910929820314476107906210059990431967235",
        "41506478881403507969696680653240014914910929820314476107906210059990431967236"
      ]
    },
    {
      "x": 382,
      "y": 349,
      "size": 1,
      "price": "4683000000000000000000",
      "reserved": "",
      "salt": "0x5c58a91037a9af5760d1cf8994bae33637cbbff7a48f527034df25568c0c0d07",
      "assetIds": [
        "41506478881403507969696680653240014914910929820314476107906210059990431967233",
        "41506478881403507969696680653240014914910929820314476107906210059990431967234"
      ]
    },
    {
      "x": 383,
      "y": 349,
      "size": 1,
      "price": "4683000000000000000000",
      "reserved": "",
      "salt": "0xa4ac00ecbaff86558e9f1b2dd3c7104bf1965d83fd69e21a0a62e26fc8e4d9fd",
      "assetIds": [
        "41506478881403507969696680653240014914910929820314476107906210059990431967233",
        "41506478881403507969696680653240014914910929820314476107906210059990431967234"
      ]
    },
    {
      "x": 383,
      "y": 348,
      "size": 1,
      "price": "4683000000000000000000",
      "reserved": "",
      "salt": "0x67cbf0c614e5fc4b33265485579c3ff69263b3b7ac2bff067255145bf6fbe751",
      "assetIds": [
        "41506478881403507969696680653240014914910929820314476107906210059990431967235",
        "41506478881403507969696680653240014914910929820314476107906210059990431967236"
      ]
    },
    {
      "x": 383,
      "y": 347,
      "size": 1,
      "price": "4683000000000000000000",
      "reserved": "",
      "salt": "0xcfc72d6f5d644257c698cf78a8f64ee5f493f65ea6df04bf42849fb02b4c814f",
      "assetIds": [
        "41506478881403507969696680653240014914910929820314476107906210059990431967233",
        "41506478881403507969696680653240014914910929820314476107906210059990431967234"
      ]
    },
    {
      "x": 382,
      "y": 346,
      "size": 1,
      "price": "4683000000000000000000",
      "reserved": "",
      "salt": "0xeb8a811b8d3a20feb411d8ee6ef932758970a3b3a9ce32056e44a28535b4e1dc",
      "assetIds": [
        "41506478881403507969696680653240014914910929820314476107906210059990431967232",
        "41506478881403507969696680653240014914910929820314476107906210059990431967233"
      ]
    },
    {
      "x": 382,
      "y": 345,
      "size": 1,
      "price": "4683000000000000000000",
      "reserved": "",
      "salt": "0x1504d0c01700a29279d918ddaf26ca3edcfd34d4657d89c26678f6ad08c00d04",
      "assetIds": [
        "41506478881403507969696680653240014914910929820314476107906210059990431967234",
        "41506478881403507969696680653240014914910929820314476107906210059990431967235"
      ]
    },
    {
      "x": 382,
      "y": 344,
      "size": 1,
      "price": "4683000000000000000000",
      "reserved": "",
      "salt": "0xc693a11387d59d38c44d24dc92a517d6a79b4e25ad3bec79415f31c2d2aaeeb2",
      "assetIds": [
        "41506478881403507969696680653240014914910929820314476107906210059990431967234",
        "41506478881403507969696680653240014914910929820314476107906210059990431967235"
      ]
    },
    {
      "x": 381,
      "y": 344,
      "size": 1,
      "price": "4683000000000000000000",
      "reserved": "",
      "salt": "0x323062b3eff81b0cbf92768cc823b55a6f44444950c05396b078c25a186202f9",
      "assetIds": [
        "41506478881403507969696680653240014914910929820314476107906210059990431967233",
        "41506478881403507969696680653240014914910929820314476107906210059990431967234"
      ]
    },
    {
      "x": 381,
      "y": 343,
      "size": 1,
      "price": "4683000000000000000000",
      "reserved": "",
      "salt": "0xf14b6f3de50fc2efbbe78611b5efe85374f5c8d8f240ca7df780dd7a356aa49e",
      "assetIds": [
        "41506478881403507969696680653240014914910929820314476107906210059990431967235",
        "41506478881403507969696680653240014914910929820314476107906210059990431967236"
      ]
    },
    {
      "x": 380,
      "y": 342,
      "size": 1,
      "price": "4683000000000000000000",
      "reserved": "",
      "salt": "0x9692ad04de460ad9e44642f0cb6901357611b94b4a07eef9ed2c832964489819",
      "assetIds": [
        "41506478881403507969696680653240014914910929820314476107906210059990431967232",
        "41506478881403507969696680653240014914910929820314476107906210059990431967233"
      ]
    },
    {
      "x": 379,
      "y": 342,
      "size": 1,
      "price": "4683000000000000000000",
      "reserved": "",
      "salt": "0xf83c9440e77810159ae3e1688b47e5f0e525e2a1ef7604ab9eff803cf9a9ecd3",
      "assetIds": [
        "41506478881403507969696680653240014914910929820314476107906210059990431967233",
        "41506478881403507969696680653240014914910929820314476107906210059990431967234"
      ]
    },
    {
      "x": 379,
      "y": 343,
      "size": 1,
      "price": "4683000000000000000000",
      "reserved": "",
      "salt": "0xc6cdae248fab4af6135a49d71edee50f4e51766daf08f738912118023b81d0d8",
      "assetIds": [
        "41506478881403507969696680653240014914910929820314476107906210059990431967235",
        "41506478881403507969696680653240014914910929820314476107906210059990431967236"
      ]
    },
    {
      "x": 378,
      "y": 343,
      "size": 1,
      "price": "4683000000000000000000",
      "reserved": "",
      "salt": "0x54c9c460b0785ae7deb5222b740418d36a6fea42910f9b61bd7b9b10948007c9",
      "assetIds": [
        "41506478881403507969696680653240014914910929820314476107906210059990431967232",
        "41506478881403507969696680653240014914910929820314476107906210059990431967233"
      ]
    },
    {
      "x": 378,
      "y": 342,
      "size": 1,
      "price": "4683000000000000000000",
      "reserved": "",
      "salt": "0x8a4784804f071a3853d8f09fca5e5df794208524d53ae13723ce0b1832fe365b",
      "assetIds": [
        "41506478881403507969696680653240014914910929820314476107906210059990431967234",
        "41506478881403507969696680653240014914910929820314476107906210059990431967235"
      ]
    },
    {
      "x": 376,
      "y": 341,
      "size": 1,
      "price": "4683000000000000000000",
      "reserved": "",
      "salt": "0x95a7e77a31341243b2430970eb8f75e0855bbed8304a2ebb83b65e6c054f6119",
      "assetIds": [
        "41506478881403507969696680653240014914910929820314476107906210059990431967232",
        "41506478881403507969696680653240014914910929820314476107906210059990431967233"
      ]
    },
    {
      "x": 376,
      "y": 339,
      "size": 1,
      "price": "4683000000000000000000",
      "reserved": "",
      "salt": "0xf2fed016ee92620892c34834d349e3808b79f54ed6671248c9b248ce9ea02293",
      "assetIds": [
        "41506478881403507969696680653240014914910929820314476107906210059990431967235",
        "41506478881403507969696680653240014914910929820314476107906210059990431967236"
      ]
    },
    {
      "x": 376,
      "y": 338,
      "size": 1,
      "price": "4683000000000000000000",
      "reserved": "",
      "salt": "0xc6bbcec0074b4ef9f0653c9b06aae582675a492a6ea75409ab5868e6e8aa194c",
      "assetIds": [
        "41506478881403507969696680653240014914910929820314476107906210059990431967232",
        "41506478881403507969696680653240014914910929820314476107906210059990431967233"
      ]
    },
    {
      "x": 377,
      "y": 338,
      "size": 1,
      "price": "4683000000000000000000",
      "reserved": "",
      "salt": "0xd34404c0e0e0091e7b9c64135dbcced5341919ae67dd8482578cc221644ea1ea",
      "assetIds": [
        "41506478881403507969696680653240014914910929820314476107906210059990431967233",
        "41506478881403507969696680653240014914910929820314476107906210059990431967234"
      ]
    },
    {
      "x": 376,
      "y": 337,
      "size": 1,
      "price": "4683000000000000000000",
      "reserved": "",
      "salt": "0xbfc9049c11867fa59321832627f9d64ec600ef39ee9d7b34ff93c62f98202822",
      "assetIds": [
        "41506478881403507969696680653240014914910929820314476107906210059990431967234",
        "41506478881403507969696680653240014914910929820314476107906210059990431967235"
      ]
    },
    {
      "x": 375,
      "y": 337,
      "size": 1,
      "price": "4683000000000000000000",
      "reserved": "",
      "salt": "0xed5bc410bf88cd7f96c623bd2a24e3c5e2f2ad895894e826e15175d4d35d0bd5",
      "assetIds": [
        "41506478881403507969696680653240014914910929820314476107906210059990431967232",
        "41506478881403507969696680653240014914910929820314476107906210059990431967233"
      ]
    },
    {
      "x": 374,
      "y": 337,
      "size": 1,
      "price": "4683000000000000000000",
      "reserved": "",
      "salt": "0xccc92c120c3baaa90bf904e019131a8fa9a8907386aca04e8857bc4bad04869e",
      "assetIds": [
        "41506478881403507969696680653240014914910929820314476107906210059990431967232",
        "41506478881403507969696680653240014914910929820314476107906210059990431967233"
      ]
    },
    {
      "x": 373,
      "y": 337,
      "size": 1,
      "price": "4683000000000000000000",
      "reserved": "",
      "salt": "0xc09ee60d2f55e9df56f0c5f418ceeaa485a18ac8db89b83d4d2fb2abf0b309fd",
      "assetIds": [
        "41506478881403507969696680653240014914910929820314476107906210059990431967234",
        "41506478881403507969696680653240014914910929820314476107906210059990431967235"
      ]
    },
    {
      "x": 374,
      "y": 336,
      "size": 1,
      "price": "4683000000000000000000",
      "reserved": "",
      "salt": "0xf6243ac711b0e8d9fac7a8830204f82ca71bd1bd6746325c0e3e83c52bf70d04",
      "assetIds": [
        "41506478881403507969696680653240014914910929820314476107906210059990431967234",
        "41506478881403507969696680653240014914910929820314476107906210059990431967235"
      ]
    },
    {
      "x": 375,
      "y": 336,
      "size": 1,
      "price": "4683000000000000000000",
      "reserved": "",
      "salt": "0x1f21a42220c4ddcbc3f239861eed0fcb10d97adf484a7e1291c1902e3c05920c",
      "assetIds": [
        "41506478881403507969696680653240014914910929820314476107906210059990431967232",
        "41506478881403507969696680653240014914910929820314476107906210059990431967233"
      ]
    },
    {
      "x": 376,
      "y": 336,
      "size": 1,
      "price": "4683000000000000000000",
      "reserved": "",
      "salt": "0x3e645158a2f9d42a9f917b160705ca1efb71b97651068995e96222ea2d098bd9",
      "assetIds": [
        "41506478881403507969696680653240014914910929820314476107906210059990431967235",
        "41506478881403507969696680653240014914910929820314476107906210059990431967236"
      ]
    },
    {
      "x": 377,
      "y": 336,
      "size": 1,
      "price": "4683000000000000000000",
      "reserved": "",
      "salt": "0x0ec6b84286b0496dc3e991ae52a10e93090b0721fef34e921335a3fedc106ce3",
      "assetIds": [
        "41506478881403507969696680653240014914910929820314476107906210059990431967235",
        "41506478881403507969696680653240014914910929820314476107906210059990431967236"
      ]
    },
    {
      "x": 377,
      "y": 337,
      "size": 1,
      "price": "4683000000000000000000",
      "reserved": "",
      "salt": "0xd4c9b4659a654884a24c95b1ba8b57021344db348ee6b8a9e813c0895cfd316a",
      "assetIds": [
        "41506478881403507969696680653240014914910929820314476107906210059990431967233",
        "41506478881403507969696680653240014914910929820314476107906210059990431967234"
      ]
    },
    {
      "x": 372,
      "y": 337,
      "size": 1,
      "price": "4683000000000000000000",
      "reserved": "",
      "salt": "0x645da20cc79114b361b4d4ae07f8727b80a2a3736c77650cc3146f30c064148a",
      "assetIds": [
        "41506478881403507969696680653240014914910929820314476107906210059990431967234",
        "41506478881403507969696680653240014914910929820314476107906210059990431967235"
      ]
    },
    {
      "x": 372,
      "y": 336,
      "size": 1,
      "price": "4683000000000000000000",
      "reserved": "",
      "salt": "0xb65f070147170d03eefb19d8669d38c8d7a61903fa494e680955ff906f7caad8",
      "assetIds": [
        "41506478881403507969696680653240014914910929820314476107906210059990431967234",
        "41506478881403507969696680653240014914910929820314476107906210059990431967235"
      ]
    },
    {
      "x": 373,
      "y": 336,
      "size": 1,
      "price": "4683000000000000000000",
      "reserved": "",
      "salt": "0x81d4a0daa517e2f7c1532ae8a1b5e12d6cc887f40382caf8c56b91dd139d7518",
      "assetIds": [
        "41506478881403507969696680653240014914910929820314476107906210059990431967235",
        "41506478881403507969696680653240014914910929820314476107906210059990431967236"
      ]
    },
    {
      "x": 374,
      "y": 338,
      "size": 1,
      "price": "4683000000000000000000",
      "reserved": "",
      "salt": "0xb1a944fcb901394d2202152c3b050235bbfe5fa166769d4fb1221520c1810d00",
      "assetIds": [
        "41506478881403507969696680653240014914910929820314476107906210059990431967233",
        "41506478881403507969696680653240014914910929820314476107906210059990431967234"
      ]
    },
    {
      "x": 374,
      "y": 339,
      "size": 1,
      "price": "4683000000000000000000",
      "reserved": "",
      "salt": "0xce8136a6a9b13c9b3f35365a5ec699299085ae9831b1402458db8d27a5595471",
      "assetIds": [
        "41506478881403507969696680653240014914910929820314476107906210059990431967235",
        "41506478881403507969696680653240014914910929820314476107906210059990431967236"
      ]
    },
    {
      "x": 373,
      "y": 339,
      "size": 1,
      "price": "4683000000000000000000",
      "reserved": "",
      "salt": "0x616e097d8a71b17f0cac237c3feb0ef9c4f92b20a84828f887eb03e4b9f3eb1b",
      "assetIds": [
        "41506478881403507969696680653240014914910929820314476107906210059990431967233",
        "41506478881403507969696680653240014914910929820314476107906210059990431967234"
      ]
    },
    {
      "x": 373,
      "y": 340,
      "size": 1,
      "price": "4683000000000000000000",
      "reserved": "",
      "salt": "0xeefbde8bcfffb10938633adccd53459c58537ee11b83aa0b9dbc285d0d8a5fc4",
      "assetIds": [
        "41506478881403507969696680653240014914910929820314476107906210059990431967234",
        "41506478881403507969696680653240014914910929820314476107906210059990431967235"
      ]
    },
    {
      "x": 373,
      "y": 341,
      "size": 1,
      "price": "4683000000000000000000",
      "reserved": "",
      "salt": "0xf4630c8f8e8ff7e6806e94cb19e7c0902f1b5da4e1f8cd723f100927b5ef26e5",
      "assetIds": [
        "41506478881403507969696680653240014914910929820314476107906210059990431967233",
        "41506478881403507969696680653240014914910929820314476107906210059990431967234"
      ]
    },
    {
      "x": 372,
      "y": 340,
      "size": 1,
      "price": "4683000000000000000000",
      "reserved": "",
      "salt": "0x3d5f3287e76377f562eb1174df2b0a4cae156379818532d1f54ead1ce439f896",
      "assetIds": [
        "41506478881403507969696680653240014914910929820314476107906210059990431967232",
        "41506478881403507969696680653240014914910929820314476107906210059990431967233"
      ]
    },
    {
      "x": 372,
      "y": 339,
      "size": 1,
      "price": "4683000000000000000000",
      "reserved": "",
      "salt": "0x644f92915e5a2fb540854dfcf240ba5bc41d773bfc1c9b9909e70cfdd94d1740",
      "assetIds": [
        "41506478881403507969696680653240014914910929820314476107906210059990431967233",
        "41506478881403507969696680653240014914910929820314476107906210059990431967234"
      ]
    },
    {
      "x": 373,
      "y": 338,
      "size": 1,
      "price": "4683000000000000000000",
      "reserved": "",
      "salt": "0x4216c4a0dc95c0925be9ffa5d6841ead75da76d7385d939aa1736f153598e4e0",
      "assetIds": [
        "41506478881403507969696680653240014914910929820314476107906210059990431967234",
        "41506478881403507969696680653240014914910929820314476107906210059990431967235"
      ]
    },
    {
      "x": 372,
      "y": 341,
      "size": 1,
      "price": "4683000000000000000000",
      "reserved": "",
      "salt": "0xe357965cec956ee9348d5147e0668d78a58766efb503032b65b0ff2384ae50d9",
      "assetIds": [
        "41506478881403507969696680653240014914910929820314476107906210059990431967234",
        "41506478881403507969696680653240014914910929820314476107906210059990431967235"
      ]
    },
    {
      "x": 374,
      "y": 340,
      "size": 1,
      "price": "4683000000000000000000",
      "reserved": "",
      "salt": "0x785c8d4f6c2cc7a05384466d58f1f29b64f05c3ab1388402a15c604866250c89",
      "assetIds": [
        "41506478881403507969696680653240014914910929820314476107906210059990431967235",
        "41506478881403507969696680653240014914910929820314476107906210059990431967236"
      ]
    },
    {
      "x": 375,
      "y": 340,
      "size": 1,
      "price": "4683000000000000000000",
      "reserved": "",
      "salt": "0x2ec7da1f8d2fa753506e523c0b8b8390f08064c8982fee465d2153a8a4932720",
      "assetIds": [
        "41506478881403507969696680653240014914910929820314476107906210059990431967233",
        "41506478881403507969696680653240014914910929820314476107906210059990431967234"
      ]
    },
    {
      "x": 375,
      "y": 339,
      "size": 1,
      "price": "4683000000000000000000",
      "reserved": "",
      "salt": "0x0ea498c1d338f72798fb90ce098cd6deed18f2959d9185ee92f54b0e3d2d51d3",
      "assetIds": [
        "41506478881403507969696680653240014914910929820314476107906210059990431967235",
        "41506478881403507969696680653240014914910929820314476107906210059990431967236"
      ]
    },
    {
      "x": 375,
      "y": 338,
      "size": 1,
      "price": "4683000000000000000000",
      "reserved": "",
      "salt": "0x7b8d580261031683b2b4d0f422d4e6f8cef358a0c674916df10ad468e1718e4f",
      "assetIds": [
        "41506478881403507969696680653240014914910929820314476107906210059990431967235",
        "41506478881403507969696680653240014914910929820314476107906210059990431967236"
      ]
    },
    {
      "x": 375,
      "y": 341,
      "size": 1,
      "price": "4683000000000000000000",
      "reserved": "",
      "salt": "0xd0665cc3155a6a45c36b2c2a084d1288793c8b1e6682a8161cf9a601cb26f604",
      "assetIds": [
        "41506478881403507969696680653240014914910929820314476107906210059990431967233",
        "41506478881403507969696680653240014914910929820314476107906210059990431967234"
      ]
    },
    {
      "x": 374,
      "y": 341,
      "size": 1,
      "price": "4683000000000000000000",
      "reserved": "",
      "salt": "0x2545f29b4ed55d7b0b89cfde97c7d89c5b622d41163e1c5f7794c1a8e2bb066c",
      "assetIds": [
        "41506478881403507969696680653240014914910929820314476107906210059990431967234",
        "41506478881403507969696680653240014914910929820314476107906210059990431967235"
      ]
    },
    {
      "x": 377,
      "y": 340,
      "size": 1,
      "price": "4683000000000000000000",
      "reserved": "",
      "salt": "0x9dc7c4379064520d44d1f1376eea428b15777e59c4b412e469f1ffdde5cc86de",
      "assetIds": [
        "41506478881403507969696680653240014914910929820314476107906210059990431967233",
        "41506478881403507969696680653240014914910929820314476107906210059990431967234"
      ]
    },
    {
      "x": 377,
      "y": 339,
      "size": 1,
      "price": "4683000000000000000000",
      "reserved": "",
      "salt": "0x978840ad5c96bcea29b0a3e7982f4cc9d3dc0564cabb3b3935e86acec6a89cfb",
      "assetIds": [
        "41506478881403507969696680653240014914910929820314476107906210059990431967234",
        "41506478881403507969696680653240014914910929820314476107906210059990431967235"
      ]
    },
    {
      "x": 377,
      "y": 341,
      "size": 1,
      "price": "4683000000000000000000",
      "reserved": "",
      "salt": "0xcaa96992f963e954b92eb7434372f920e54fbc19ca459d96ebca4396ff7b478b",
      "assetIds": [
        "41506478881403507969696680653240014914910929820314476107906210059990431967233",
        "41506478881403507969696680653240014914910929820314476107906210059990431967234"
      ]
    },
    {
      "x": 381,
      "y": 342,
      "size": 1,
      "price": "4683000000000000000000",
      "reserved": "",
      "salt": "0x2d2dc96d4915d4b3ed5a335d86df7d020910b869420395481a656e72f5bc3e44",
      "assetIds": [
        "41506478881403507969696680653240014914910929820314476107906210059990431967233",
        "41506478881403507969696680653240014914910929820314476107906210059990431967234"
      ]
    },
    {
      "x": 382,
      "y": 342,
      "size": 1,
      "price": "4683000000000000000000",
      "reserved": "",
      "salt": "0xbe244414091e3b2c195adeb1c1f2d52c18e3d6958e130916b91ebfdb6a728046",
      "assetIds": [
        "41506478881403507969696680653240014914910929820314476107906210059990431967235",
        "41506478881403507969696680653240014914910929820314476107906210059990431967236"
      ]
    },
    {
      "x": 380,
      "y": 343,
      "size": 1,
      "price": "4683000000000000000000",
      "reserved": "",
      "salt": "0xa0a8fd21dfc65a0b30c29dabb125a00ccf636ade785db96d33d4c20b7d01ef8c",
      "assetIds": [
        "41506478881403507969696680653240014914910929820314476107906210059990431967232",
        "41506478881403507969696680653240014914910929820314476107906210059990431967233"
      ]
    },
    {
      "x": 380,
      "y": 344,
      "size": 1,
      "price": "4683000000000000000000",
      "reserved": "",
      "salt": "0x1569a968d00db983d3df3445ee5d507d579256dc48e1c4f13fdc06304fd55d48",
      "assetIds": [
        "41506478881403507969696680653240014914910929820314476107906210059990431967234",
        "41506478881403507969696680653240014914910929820314476107906210059990431967235"
      ]
    },
    {
      "x": 379,
      "y": 345,
      "size": 1,
      "price": "4683000000000000000000",
      "reserved": "",
      "salt": "0xcb302955c3fa08aac2fa03897d3ad663351026ef569519fae980155f18a3c7a8",
      "assetIds": [
        "41506478881403507969696680653240014914910929820314476107906210059990431967234",
        "41506478881403507969696680653240014914910929820314476107906210059990431967235"
      ]
    },
    {
      "x": 379,
      "y": 344,
      "size": 1,
      "price": "4683000000000000000000",
      "reserved": "",
      "salt": "0xca7cbd2eac173a94a042bdea8fe779dd18833563859bd42a90103245ee77431e",
      "assetIds": [
        "41506478881403507969696680653240014914910929820314476107906210059990431967234",
        "41506478881403507969696680653240014914910929820314476107906210059990431967235"
      ]
    },
    {
      "x": 378,
      "y": 345,
      "size": 1,
      "price": "4683000000000000000000",
      "reserved": "",
      "salt": "0x9c2ee25dbfa4bf9da45c115e752a95f39eefb53721570ab06d6641ac2d40d63b",
      "assetIds": [
        "41506478881403507969696680653240014914910929820314476107906210059990431967232",
        "41506478881403507969696680653240014914910929820314476107906210059990431967233"
      ]
    },
    {
      "x": 378,
      "y": 346,
      "size": 1,
      "price": "4683000000000000000000",
      "reserved": "",
      "salt": "0xb577516340530bbe1efbddd8e2bafff636551d0861ad36ffce07e845ad6c084e",
      "assetIds": [
        "41506478881403507969696680653240014914910929820314476107906210059990431967232",
        "41506478881403507969696680653240014914910929820314476107906210059990431967233"
      ]
    },
    {
      "x": 378,
      "y": 347,
      "size": 1,
      "price": "4683000000000000000000",
      "reserved": "",
      "salt": "0x47457f0fcf1041fee31c49cdb00a8b14868ebeb23f88add8d5e97df42f120f72",
      "assetIds": [
        "41506478881403507969696680653240014914910929820314476107906210059990431967234",
        "41506478881403507969696680653240014914910929820314476107906210059990431967235"
      ]
    },
    {
      "x": 378,
      "y": 344,
      "size": 1,
      "price": "4683000000000000000000",
      "reserved": "",
      "salt": "0x4c8cd45ef6b0d858358285ec777204a000ac166cf3282aa7d1a9e4e9a6695f0b",
      "assetIds": [
        "41506478881403507969696680653240014914910929820314476107906210059990431967233",
        "41506478881403507969696680653240014914910929820314476107906210059990431967234"
      ]
    },
    {
      "x": 379,
      "y": 346,
      "size": 1,
      "price": "4683000000000000000000",
      "reserved": "",
      "salt": "0xe040ed4681c3dc0e66faed5a843cbce6b8f8b864e0cefa3652a96eed1fbe829a",
      "assetIds": [
        "41506478881403507969696680653240014914910929820314476107906210059990431967233",
        "41506478881403507969696680653240014914910929820314476107906210059990431967234"
      ]
    },
    {
      "x": 379,
      "y": 347,
      "size": 1,
      "price": "4683000000000000000000",
      "reserved": "",
      "salt": "0xf12f998eefc9cf1d5b7892efe2cf9e9cd4b984fbd722aa5e10f9b37e509caeaf",
      "assetIds": [
        "41506478881403507969696680653240014914910929820314476107906210059990431967234",
        "41506478881403507969696680653240014914910929820314476107906210059990431967235"
      ]
    },
    {
      "x": 380,
      "y": 347,
      "size": 1,
      "price": "4683000000000000000000",
      "reserved": "",
      "salt": "0xe0b2d50aecc583a9d4d3522190f0161cc5432acb8102edab0721494b72a3f4a4",
      "assetIds": [
        "41506478881403507969696680653240014914910929820314476107906210059990431967234",
        "41506478881403507969696680653240014914910929820314476107906210059990431967235"
      ]
    },
    {
      "x": 380,
      "y": 346,
      "size": 1,
      "price": "4683000000000000000000",
      "reserved": "",
      "salt": "0x78a7e2c2e77cb91246fdc23ce5dd9c5eef8edf54f3fcd11eb591dda8d32acda8",
      "assetIds": [
        "41506478881403507969696680653240014914910929820314476107906210059990431967234",
        "41506478881403507969696680653240014914910929820314476107906210059990431967235"
      ]
    },
    {
      "x": 381,
      "y": 346,
      "size": 1,
      "price": "4683000000000000000000",
      "reserved": "",
      "salt": "0x64197ff36df196cb34ba709179482c442cd6643d8e80fed901784d436a608378",
      "assetIds": [
        "41506478881403507969696680653240014914910929820314476107906210059990431967233",
        "41506478881403507969696680653240014914910929820314476107906210059990431967234"
      ]
    },
    {
      "x": 381,
      "y": 345,
      "size": 1,
      "price": "4683000000000000000000",
      "reserved": "",
      "salt": "0x23e0cd67f01701b0b3b3b07845687f81122a1280073f965fe5e2df470f084731",
      "assetIds": [
        "41506478881403507969696680653240014914910929820314476107906210059990431967234",
        "41506478881403507969696680653240014914910929820314476107906210059990431967235"
      ]
    },
    {
      "x": 381,
      "y": 347,
      "size": 1,
      "price": "4683000000000000000000",
      "reserved": "",
      "salt": "0xa1a053623b0affc5ba14abc11fc5f8f754c5bf9481f7b0007745d8a8973eea26",
      "assetIds": [
        "41506478881403507969696680653240014914910929820314476107906210059990431967232",
        "41506478881403507969696680653240014914910929820314476107906210059990431967233"
      ]
    },
    {
      "x": 382,
      "y": 347,
      "size": 1,
      "price": "4683000000000000000000",
      "reserved": "",
      "salt": "0xb3c3fc4f1245e1c773b146553b1afcb4c130d7a57a94e4f9b22a20fa32e64a0c",
      "assetIds": [
        "41506478881403507969696680653240014914910929820314476107906210059990431967234",
        "41506478881403507969696680653240014914910929820314476107906210059990431967235"
      ]
    },
    {
      "x": 382,
      "y": 348,
      "size": 1,
      "price": "4683000000000000000000",
      "reserved": "",
      "salt": "0x966fd2ef9b352863fffef3bd9c1cec0ab71128a59001d8f4d79cf83223446a4b",
      "assetIds": [
        "41506478881403507969696680653240014914910929820314476107906210059990431967234",
        "41506478881403507969696680653240014914910929820314476107906210059990431967235"
      ]
    },
    {
      "x": 374,
      "y": 348,
      "size": 1,
      "price": "4683000000000000000000",
      "reserved": "",
      "salt": "0x333cfaf6e31427089b58db4a813c521b4908ead47019d6080f2de4237c149c13",
      "assetIds": [
        "41506478881403507969696680653240014914910929820314476107906210059990431967233",
        "41506478881403507969696680653240014914910929820314476107906210059990431967234"
      ]
    },
    {
      "x": 373,
      "y": 348,
      "size": 1,
      "price": "4683000000000000000000",
      "reserved": "",
      "salt": "0x0bb4ce0dbe6f5e9a7fd18946eef9d3718ec3b946ffd4789a142b24300c7d8eda",
      "assetIds": [
        "41506478881403507969696680653240014914910929820314476107906210059990431967235",
        "41506478881403507969696680653240014914910929820314476107906210059990431967236"
      ]
    },
    {
      "x": 375,
      "y": 348,
      "size": 1,
      "price": "4683000000000000000000",
      "reserved": "",
      "salt": "0xff290bb1aeda91ce1fb06ca4ebd5914248202fe0a9670a3a99ccfc59f2104119",
      "assetIds": [
        "41506478881403507969696680653240014914910929820314476107906210059990431967234",
        "41506478881403507969696680653240014914910929820314476107906210059990431967235"
      ]
    },
    {
      "x": 376,
      "y": 348,
      "size": 1,
      "price": "4683000000000000000000",
      "reserved": "",
      "salt": "0x81d6d7c6d70666bac8396a83be3903b799a74f961fbebfceefefb13a7940c915",
      "assetIds": [
        "41506478881403507969696680653240014914910929820314476107906210059990431967235",
        "41506478881403507969696680653240014914910929820314476107906210059990431967236"
      ]
    },
    {
      "x": 377,
      "y": 348,
      "size": 1,
      "price": "4683000000000000000000",
      "reserved": "",
      "salt": "0xd8a14fde24da1ec0fbdf04f7e3d00ede174fda46d6fc46d35a8b42ad39e977f7",
      "assetIds": [
        "41506478881403507969696680653240014914910929820314476107906210059990431967234",
        "41506478881403507969696680653240014914910929820314476107906210059990431967235"
      ]
    },
    {
      "x": 381,
      "y": 348,
      "size": 1,
      "price": "4683000000000000000000",
      "reserved": "",
      "salt": "0x7ef95297c7c79f8d0d9dac6c8fa1d403bf114af79a4aaea9f8d4ebf557a230a3",
      "assetIds": [
        "41506478881403507969696680653240014914910929820314476107906210059990431967234",
        "41506478881403507969696680653240014914910929820314476107906210059990431967235"
      ]
    },
    {
      "x": 380,
      "y": 348,
      "size": 1,
      "price": "4683000000000000000000",
      "reserved": "",
      "salt": "0xf7528032820a7fb010cedb583da67db5bec347d1443f03c673ea8bbb9e563f36",
      "assetIds": [
        "41506478881403507969696680653240014914910929820314476107906210059990431967234",
        "41506478881403507969696680653240014914910929820314476107906210059990431967235"
      ]
    },
    {
      "x": 379,
      "y": 348,
      "size": 1,
      "price": "4683000000000000000000",
      "reserved": "",
      "salt": "0xb3e7d69df57377d186d8f217dc4d74530b312f3191bc9ba216c2042c3343c72b",
      "assetIds": [
        "41506478881403507969696680653240014914910929820314476107906210059990431967233",
        "41506478881403507969696680653240014914910929820314476107906210059990431967234"
      ]
    },
    {
      "x": 378,
      "y": 348,
      "size": 1,
      "price": "4683000000000000000000",
      "reserved": "",
      "salt": "0x92277f0fa5a326cd0098d697686c2ca9a58f1011c96cbd6ff2ab5148ccc6f5b3",
      "assetIds": [
        "41506478881403507969696680653240014914910929820314476107906210059990431967235",
        "41506478881403507969696680653240014914910929820314476107906210059990431967236"
      ]
    },
    {
      "x": 375,
      "y": 349,
      "size": 1,
      "price": "4683000000000000000000",
      "reserved": "",
      "salt": "0x794a236b285155e4e7ad8ff8a1684cc1d07b7ef0198fc10a23d9d59f72baa476",
      "assetIds": [
        "41506478881403507969696680653240014914910929820314476107906210059990431967232",
        "41506478881403507969696680653240014914910929820314476107906210059990431967233"
      ]
    },
    {
      "x": 374,
      "y": 349,
      "size": 1,
      "price": "4683000000000000000000",
      "reserved": "",
      "salt": "0x24b3ee91e9e627c8bd3ea819b5c58ec9ecccd53d1ecacaf48c284b1e58f8f417",
      "assetIds": [
        "41506478881403507969696680653240014914910929820314476107906210059990431967234",
        "41506478881403507969696680653240014914910929820314476107906210059990431967235"
      ]
    },
    {
      "x": 374,
      "y": 350,
      "size": 1,
      "price": "4683000000000000000000",
      "reserved": "",
      "salt": "0x2547319d07bfcfe44411f4047dfad29c6a8fdb9aa5f14534564cdda6e21f50ca",
      "assetIds": [
        "41506478881403507969696680653240014914910929820314476107906210059990431967235",
        "41506478881403507969696680653240014914910929820314476107906210059990431967236"
      ]
    },
    {
      "x": 373,
      "y": 350,
      "size": 1,
      "price": "4683000000000000000000",
      "reserved": "",
      "salt": "0x080b04fb9cf8063b1ac8c58c0be88a51c3276ff465726a6470587398ada50ad7",
      "assetIds": [
        "41506478881403507969696680653240014914910929820314476107906210059990431967233",
        "41506478881403507969696680653240014914910929820314476107906210059990431967234"
      ]
    },
    {
      "x": 376,
      "y": 349,
      "size": 1,
      "price": "4683000000000000000000",
      "reserved": "",
      "salt": "0x64862d2e1df4aef1745088fcbfb20cb8bb46f09255bb2c473b87251224e03f34",
      "assetIds": [
        "41506478881403507969696680653240014914910929820314476107906210059990431967235",
        "41506478881403507969696680653240014914910929820314476107906210059990431967236"
      ]
    },
    {
      "x": 373,
      "y": 349,
      "size": 1,
      "price": "4683000000000000000000",
      "reserved": "",
      "salt": "0x26fdff8917cd99bdd1b869612e3c3fcc25ab909dc28861b1d43ba6a815f84270",
      "assetIds": [
        "41506478881403507969696680653240014914910929820314476107906210059990431967232",
        "41506478881403507969696680653240014914910929820314476107906210059990431967233"
      ]
    },
    {
      "x": 378,
      "y": 349,
      "size": 1,
      "price": "4683000000000000000000",
      "reserved": "",
      "salt": "0x0c631c534684824df444290fa7d50a6466eea65f4e9638e6616a37b6c09498da",
      "assetIds": [
        "41506478881403507969696680653240014914910929820314476107906210059990431967232",
        "41506478881403507969696680653240014914910929820314476107906210059990431967233"
      ]
    },
    {
      "x": 377,
      "y": 349,
      "size": 1,
      "price": "4683000000000000000000",
      "reserved": "",
      "salt": "0xefea5b7ef35c633ea6fe4fcd603c0960e3178960a647b52ec68d57802889f057",
      "assetIds": [
        "41506478881403507969696680653240014914910929820314476107906210059990431967234",
        "41506478881403507969696680653240014914910929820314476107906210059990431967235"
      ]
    },
    {
      "x": 374,
      "y": 351,
      "size": 1,
      "price": "4683000000000000000000",
      "reserved": "",
      "salt": "0x302d22d34681435dddf3875e6fa8a12d16572281611f6ed6b5f227338dedf954",
      "assetIds": [
        "41506478881403507969696680653240014914910929820314476107906210059990431967232",
        "41506478881403507969696680653240014914910929820314476107906210059990431967233"
      ]
    },
    {
      "x": 375,
      "y": 351,
      "size": 1,
      "price": "4683000000000000000000",
      "reserved": "",
      "salt": "0x53255e764dc76767c261602c8d9b4663446fc8d21b410c9a1cf2cdfb5af54d91",
      "assetIds": [
        "41506478881403507969696680653240014914910929820314476107906210059990431967232",
        "41506478881403507969696680653240014914910929820314476107906210059990431967233"
      ]
    },
    {
      "x": 375,
      "y": 352,
      "size": 1,
      "price": "4683000000000000000000",
      "reserved": "",
      "salt": "0xf530a39291e61f1c4bed52f7eb9ae73058f985e323be8394bc137796a85179a0",
      "assetIds": [
        "41506478881403507969696680653240014914910929820314476107906210059990431967233",
        "41506478881403507969696680653240014914910929820314476107906210059990431967234"
      ]
    },
    {
      "x": 375,
      "y": 350,
      "size": 1,
      "price": "4683000000000000000000",
      "reserved": "",
      "salt": "0xefdaf72e95ff7577d6ae75b5ecceb1cb58587f3347fe40e351d0df339e7c86e4",
      "assetIds": [
        "41506478881403507969696680653240014914910929820314476107906210059990431967232",
        "41506478881403507969696680653240014914910929820314476107906210059990431967233"
      ]
    },
    {
      "x": 374,
      "y": 352,
      "size": 1,
      "price": "4683000000000000000000",
      "reserved": "",
      "salt": "0xebffbb5140716b154864b5ef96f42d8cb20b8a5c9b80f905b40ea07274fce80c",
      "assetIds": [
        "41506478881403507969696680653240014914910929820314476107906210059990431967233",
        "41506478881403507969696680653240014914910929820314476107906210059990431967234"
      ]
    },
    {
      "x": 373,
      "y": 352,
      "size": 1,
      "price": "4683000000000000000000",
      "reserved": "",
      "salt": "0xfaf6ce7a768f4320476afa8e83983412332d54f298f15f7017a1efc6be0fe6c5",
      "assetIds": [
        "41506478881403507969696680653240014914910929820314476107906210059990431967235",
        "41506478881403507969696680653240014914910929820314476107906210059990431967236"
      ]
    },
    {
      "x": 373,
      "y": 351,
      "size": 1,
      "price": "4683000000000000000000",
      "reserved": "",
      "salt": "0x6ae9eb49a5cc3547009f572ee5e781d35d3426e6266603a4efa77cfbf3f7dca1",
      "assetIds": [
        "41506478881403507969696680653240014914910929820314476107906210059990431967232",
        "41506478881403507969696680653240014914910929820314476107906210059990431967233"
      ]
    },
    {
      "x": 376,
      "y": 351,
      "size": 1,
      "price": "4683000000000000000000",
      "reserved": "",
      "salt": "0xbb60d2c7c01b4b30a8cb75e904378b77d9721606feba9763875f3a1477a4f388",
      "assetIds": [
        "41506478881403507969696680653240014914910929820314476107906210059990431967232",
        "41506478881403507969696680653240014914910929820314476107906210059990431967233"
      ]
    },
    {
      "x": 377,
      "y": 351,
      "size": 1,
      "price": "4683000000000000000000",
      "reserved": "",
      "salt": "0xcea8896305a3f75100f2faf3c05fdb5299a5f6675d04a388e5f0a9cfce3763cf",
      "assetIds": [
        "41506478881403507969696680653240014914910929820314476107906210059990431967234",
        "41506478881403507969696680653240014914910929820314476107906210059990431967235"
      ]
    },
    {
      "x": 378,
      "y": 351,
      "size": 1,
      "price": "4683000000000000000000",
      "reserved": "",
      "salt": "0x9b0198ae93c7e4e7a618220ec59da3cd8ee4818cb4e82dcdabaeb0695fc89639",
      "assetIds": [
        "41506478881403507969696680653240014914910929820314476107906210059990431967235",
        "41506478881403507969696680653240014914910929820314476107906210059990431967236"
      ]
    },
    {
      "x": 380,
      "y": 350,
      "size": 1,
      "price": "4683000000000000000000",
      "reserved": "",
      "salt": "0x3632b814b4f4cc8a97dd4d3bb2825d4f2fd31ef61d30a24c32c555b8d6dc4962",
      "assetIds": [
        "41506478881403507969696680653240014914910929820314476107906210059990431967235",
        "41506478881403507969696680653240014914910929820314476107906210059990431967236"
      ]
    },
    {
      "x": 381,
      "y": 350,
      "size": 1,
      "price": "4683000000000000000000",
      "reserved": "",
      "salt": "0x5db75a5daedeba90273db6daa902d2bd2137dcbe0cb74161cff84189a5210794",
      "assetIds": [
        "41506478881403507969696680653240014914910929820314476107906210059990431967232",
        "41506478881403507969696680653240014914910929820314476107906210059990431967233"
      ]
    },
    {
      "x": 381,
      "y": 351,
      "size": 1,
      "price": "4683000000000000000000",
      "reserved": "",
      "salt": "0xfc581dfab17d667b6718d8acaabb246556f8781d7c4b9c3fdb6e78ffc156bdd4",
      "assetIds": [
        "41506478881403507969696680653240014914910929820314476107906210059990431967233",
        "41506478881403507969696680653240014914910929820314476107906210059990431967234"
      ]
    },
    {
      "x": 376,
      "y": 352,
      "size": 1,
      "price": "4683000000000000000000",
      "reserved": "",
      "salt": "0x06093c6135115c1940981bc4dd3d52ff0a94af0837070324a4ffd7ce74ca1745",
      "assetIds": [
        "41506478881403507969696680653240014914910929820314476107906210059990431967233",
        "41506478881403507969696680653240014914910929820314476107906210059990431967234"
      ]
    },
    {
      "x": 377,
      "y": 352,
      "size": 1,
      "price": "4683000000000000000000",
      "reserved": "",
      "salt": "0x7687a99f92a7bd77ad7cc6863dfb6fe28eb77f86d665e8b3050bbafdfd96a6f8",
      "assetIds": [
        "41506478881403507969696680653240014914910929820314476107906210059990431967235",
        "41506478881403507969696680653240014914910929820314476107906210059990431967236"
      ]
    },
    {
      "x": 378,
      "y": 352,
      "size": 1,
      "price": "4683000000000000000000",
      "reserved": "",
      "salt": "0x440c8d98d84dccf401699e1add6979efcba603814b9e6d4c230c3178cceca302",
      "assetIds": [
        "41506478881403507969696680653240014914910929820314476107906210059990431967233",
        "41506478881403507969696680653240014914910929820314476107906210059990431967234"
      ]
    },
    {
      "x": 379,
      "y": 352,
      "size": 1,
      "price": "4683000000000000000000",
      "reserved": "",
      "salt": "0xb03cdd9362b9a701f25b6c112220f6d2e96c5198685e267633e4c75a2890a126",
      "assetIds": [
        "41506478881403507969696680653240014914910929820314476107906210059990431967234",
        "41506478881403507969696680653240014914910929820314476107906210059990431967235"
      ]
    },
    {
      "x": 380,
      "y": 352,
      "size": 1,
      "price": "4683000000000000000000",
      "reserved": "",
      "salt": "0x96344fdc75c43b925a8d6f26969c6dc25b2bb4edc3b66b3960d42e88ebc42e3e",
      "assetIds": [
        "41506478881403507969696680653240014914910929820314476107906210059990431967234",
        "41506478881403507969696680653240014914910929820314476107906210059990431967235"
      ]
    },
    {
      "x": 381,
      "y": 352,
      "size": 1,
      "price": "4683000000000000000000",
      "reserved": "",
      "salt": "0x5aa78e3301a88208b2c33f05ca1193f3de83baafc5782d473adef786db59d804",
      "assetIds": [
        "41506478881403507969696680653240014914910929820314476107906210059990431967233",
        "41506478881403507969696680653240014914910929820314476107906210059990431967234"
      ]
    },
    {
      "x": 379,
      "y": 351,
      "size": 1,
      "price": "4683000000000000000000",
      "reserved": "",
      "salt": "0x5e1fb570c1e27492656c69c2e1e40b69d3d74c99227ae2d9951f6d31bfa6af88",
      "assetIds": [
        "41506478881403507969696680653240014914910929820314476107906210059990431967233",
        "41506478881403507969696680653240014914910929820314476107906210059990431967234"
      ]
    },
    {
      "x": 380,
      "y": 351,
      "size": 1,
      "price": "4683000000000000000000",
      "reserved": "",
      "salt": "0xabdbe1298f6a82ae07d2e4fa4f971a383c37b5c71ce6aa1f7143a47eb83777d9",
      "assetIds": [
        "41506478881403507969696680653240014914910929820314476107906210059990431967234",
        "41506478881403507969696680653240014914910929820314476107906210059990431967235"
      ]
    },
    {
      "x": 382,
      "y": 350,
      "size": 1,
      "price": "4683000000000000000000",
      "reserved": "",
      "salt": "0x05251f38a1e565c7e82ebfd1feb6b9ca50ab945b9e43a1606a73620b4e4e7136",
      "assetIds": [
        "41506478881403507969696680653240014914910929820314476107906210059990431967232",
        "41506478881403507969696680653240014914910929820314476107906210059990431967233"
      ]
    },
    {
      "x": 383,
      "y": 350,
      "size": 1,
      "price": "4683000000000000000000",
      "reserved": "",
      "salt": "0x88a259c8007e63c65d839974c8e02aea2b3cac4e5591dd4dcefffbfdc8032d25",
      "assetIds": [
        "41506478881403507969696680653240014914910929820314476107906210059990431967232",
        "41506478881403507969696680653240014914910929820314476107906210059990431967233"
      ]
    },
    {
      "x": 384,
      "y": 350,
      "size": 1,
      "price": "4683000000000000000000",
      "reserved": "",
      "salt": "0x739793770743f11e8adacd2c105e5dffd31ce83f9ef81d5935ee920ffaa75fc5",
      "assetIds": [
        "41506478881403507969696680653240014914910929820314476107906210059990431967234",
        "41506478881403507969696680653240014914910929820314476107906210059990431967235"
      ]
    },
    {
      "x": 385,
      "y": 350,
      "size": 1,
      "price": "4683000000000000000000",
      "reserved": "",
      "salt": "0x2abbf0301eb3ebf47b54222f3509c2bdfd0aed6fba7fe7aba6fe2b02c57752e4",
      "assetIds": [
        "41506478881403507969696680653240014914910929820314476107906210059990431967233",
        "41506478881403507969696680653240014914910929820314476107906210059990431967234"
      ]
    },
    {
      "x": 386,
      "y": 350,
      "size": 1,
      "price": "4683000000000000000000",
      "reserved": "",
      "salt": "0x1716b018aff8bb8b56f32a3775d607c67092b4884acbfd96c227ba7a9864fa68",
      "assetIds": [
        "41506478881403507969696680653240014914910929820314476107906210059990431967233",
        "41506478881403507969696680653240014914910929820314476107906210059990431967234"
      ]
    },
    {
      "x": 387,
      "y": 349,
      "size": 1,
      "price": "4683000000000000000000",
      "reserved": "",
      "salt": "0xb8da64f162a334ae6cb950e28609c3d7174afc19c1847b09e1af35df5678afee",
      "assetIds": [
        "41506478881403507969696680653240014914910929820314476107906210059990431967234",
        "41506478881403507969696680653240014914910929820314476107906210059990431967235"
      ]
    },
    {
      "x": 387,
      "y": 348,
      "size": 1,
      "price": "4683000000000000000000",
      "reserved": "",
      "salt": "0x5e5b5739648942de48010078de284cdd69d3a046724d77dca032508101720ac0",
      "assetIds": [
        "41506478881403507969696680653240014914910929820314476107906210059990431967232",
        "41506478881403507969696680653240014914910929820314476107906210059990431967233"
      ]
    },
    {
      "x": 387,
      "y": 347,
      "size": 1,
      "price": "4683000000000000000000",
      "reserved": "",
      "salt": "0x4f5086fa05029d01cc7becd081a38c26208d2064c36b6196293d8c92c162e4cc",
      "assetIds": [
        "41506478881403507969696680653240014914910929820314476107906210059990431967233",
        "41506478881403507969696680653240014914910929820314476107906210059990431967234"
      ]
    },
    {
      "x": 387,
      "y": 346,
      "size": 1,
      "price": "4683000000000000000000",
      "reserved": "",
      "salt": "0x959d0a654c46a1ea87aa985403dc57a9615bd670478dbc70e53dac34976f7406",
      "assetIds": [
        "41506478881403507969696680653240014914910929820314476107906210059990431967235",
        "41506478881403507969696680653240014914910929820314476107906210059990431967236"
      ]
    },
    {
      "x": 387,
      "y": 345,
      "size": 1,
      "price": "4683000000000000000000",
      "reserved": "",
      "salt": "0x44b1cf5b30003f4a75847efe958a0f43326c9a9c196ccbe0cb635c58968994ab",
      "assetIds": [
        "41506478881403507969696680653240014914910929820314476107906210059990431967233",
        "41506478881403507969696680653240014914910929820314476107906210059990431967234"
      ]
    },
    {
      "x": 386,
      "y": 344,
      "size": 1,
      "price": "4683000000000000000000",
      "reserved": "",
      "salt": "0xadf961f8aa786460eeb8927e06d808c40f3ed0550623bed336d16278bdd7784e",
      "assetIds": [
        "41506478881403507969696680653240014914910929820314476107906210059990431967232",
        "41506478881403507969696680653240014914910929820314476107906210059990431967233"
      ]
    },
    {
      "x": 386,
      "y": 343,
      "size": 1,
      "price": "4683000000000000000000",
      "reserved": "",
      "salt": "0x4179502d0ef27c754a5942e59026deb8b56902b352b573f372942776529bcaf0",
      "assetIds": [
        "41506478881403507969696680653240014914910929820314476107906210059990431967234",
        "41506478881403507969696680653240014914910929820314476107906210059990431967235"
      ]
    },
    {
      "x": 386,
      "y": 342,
      "size": 1,
      "price": "4683000000000000000000",
      "reserved": "",
      "salt": "0xf6b5503b13c5ca175695fbc12c528913a4f8c1390adb01561d9f88f9e163721b",
      "assetIds": [
        "41506478881403507969696680653240014914910929820314476107906210059990431967233",
        "41506478881403507969696680653240014914910929820314476107906210059990431967234"
      ]
    },
    {
      "x": 386,
      "y": 341,
      "size": 1,
      "price": "4683000000000000000000",
      "reserved": "",
      "salt": "0xd18eac354cb59fced059a20e244af983520abb780c2bbf5173a79db064a9cc0d",
      "assetIds": [
        "41506478881403507969696680653240014914910929820314476107906210059990431967232",
        "41506478881403507969696680653240014914910929820314476107906210059990431967233"
      ]
    },
    {
      "x": 386,
      "y": 340,
      "size": 1,
      "price": "4683000000000000000000",
      "reserved": "",
      "salt": "0xb1c08251ef268eff911a9ed8d3cf7b204965d8fbf4c0a9a6bcd90330175d2fff",
      "assetIds": [
        "41506478881403507969696680653240014914910929820314476107906210059990431967232",
        "41506478881403507969696680653240014914910929820314476107906210059990431967233"
      ]
    },
    {
      "x": 386,
      "y": 339,
      "size": 1,
      "price": "4683000000000000000000",
      "reserved": "",
      "salt": "0xa95be1104fbe5c9f99e9f6fb1fa63cff8127ab21c7089a3cb7e3a645c8e5e2cf",
      "assetIds": [
        "41506478881403507969696680653240014914910929820314476107906210059990431967232",
        "41506478881403507969696680653240014914910929820314476107906210059990431967233"
      ]
    },
    {
      "x": 386,
      "y": 338,
      "size": 1,
      "price": "4683000000000000000000",
      "reserved": "",
      "salt": "0x3c904bfc4ed0af6efa5bb3920fdf1d50f5767568faa4167963eeb471c3955d1b",
      "assetIds": [
        "41506478881403507969696680653240014914910929820314476107906210059990431967235",
        "41506478881403507969696680653240014914910929820314476107906210059990431967236"
      ]
    },
    {
      "x": 385,
      "y": 337,
      "size": 1,
      "price": "4683000000000000000000",
      "reserved": "",
      "salt": "0x30fa22d52c55d99ea7a65371df6d34ef9dbdf66d6f67b16199ae41b852fc5b6c",
      "assetIds": [
        "41506478881403507969696680653240014914910929820314476107906210059990431967235",
        "41506478881403507969696680653240014914910929820314476107906210059990431967236"
      ]
    },
    {
      "x": 384,
      "y": 337,
      "size": 1,
      "price": "4683000000000000000000",
      "reserved": "",
      "salt": "0x4b132beac34f268f4e2282df8af4db5c249d35c454995e994df05d78b99fd654",
      "assetIds": [
        "41506478881403507969696680653240014914910929820314476107906210059990431967234",
        "41506478881403507969696680653240014914910929820314476107906210059990431967235"
      ]
    },
    {
      "x": 384,
      "y": 336,
      "size": 1,
      "price": "4683000000000000000000",
      "reserved": "",
      "salt": "0x2390da338e06c3d4ba81af55a2336b2e050c33cc75801bef341426177ec9a472",
      "assetIds": [
        "41506478881403507969696680653240014914910929820314476107906210059990431967232",
        "41506478881403507969696680653240014914910929820314476107906210059990431967233"
      ]
    },
    {
      "x": 385,
      "y": 336,
      "size": 1,
      "price": "4683000000000000000000",
      "reserved": "",
      "salt": "0x71d7287b9f85b4414e9e09ab7a9c8e7fbef6c6a50e637d8394ae00517e9d5a92",
      "assetIds": [
        "41506478881403507969696680653240014914910929820314476107906210059990431967233",
        "41506478881403507969696680653240014914910929820314476107906210059990431967234"
      ]
    },
    {
      "x": 386,
      "y": 336,
      "size": 1,
      "price": "4683000000000000000000",
      "reserved": "",
      "salt": "0x14ae157e1abc71d1a6055ac091bf1282ec6595e9c384bb09c071b2a03a5074e3",
      "assetIds": [
        "41506478881403507969696680653240014914910929820314476107906210059990431967235",
        "41506478881403507969696680653240014914910929820314476107906210059990431967236"
      ]
    },
    {
      "x": 387,
      "y": 336,
      "size": 1,
      "price": "4683000000000000000000",
      "reserved": "",
      "salt": "0x2c7cb4c330f751b349dc428c74a2a8c689242bfb02161f2eabdc825b5b6e0179",
      "assetIds": [
        "41506478881403507969696680653240014914910929820314476107906210059990431967232",
        "41506478881403507969696680653240014914910929820314476107906210059990431967233"
      ]
    },
    {
      "x": 388,
      "y": 336,
      "size": 1,
      "price": "4683000000000000000000",
      "reserved": "",
      "salt": "0x50fed3295bb8968d739afb11728b72e006343300b9d68c2a5145fa1afd719714",
      "assetIds": [
        "41506478881403507969696680653240014914910929820314476107906210059990431967232",
        "41506478881403507969696680653240014914910929820314476107906210059990431967233"
      ]
    },
    {
      "x": 388,
      "y": 337,
      "size": 1,
      "price": "4683000000000000000000",
      "reserved": "",
      "salt": "0x5c3101c55b5d25f8bf5ecb4c44d34e2a6b14a051639435a09495e32e93a6f073",
      "assetIds": [
        "41506478881403507969696680653240014914910929820314476107906210059990431967233",
        "41506478881403507969696680653240014914910929820314476107906210059990431967234"
      ]
    },
    {
      "x": 389,
      "y": 337,
      "size": 1,
      "price": "4683000000000000000000",
      "reserved": "",
      "salt": "0x6f940811d173768a2e1a6b9f29dcdccdf3b66ecf56c6cdc63f646d24dcbfe1a0",
      "assetIds": [
        "41506478881403507969696680653240014914910929820314476107906210059990431967233",
        "41506478881403507969696680653240014914910929820314476107906210059990431967234"
      ]
    },
    {
      "x": 390,
      "y": 337,
      "size": 1,
      "price": "4683000000000000000000",
      "reserved": "",
      "salt": "0x1537aed2f806267f328c20d18a458c0b3c596aafcd95204fd1964550b2b46d26",
      "assetIds": [
        "41506478881403507969696680653240014914910929820314476107906210059990431967232",
        "41506478881403507969696680653240014914910929820314476107906210059990431967233"
      ]
    },
    {
      "x": 391,
      "y": 337,
      "size": 1,
      "price": "4683000000000000000000",
      "reserved": "",
      "salt": "0xc49493436d19ea8f93af2ea7b140e64ad7de574fa01e44b637f5d9ab169e8410",
      "assetIds": [
        "41506478881403507969696680653240014914910929820314476107906210059990431967235",
        "41506478881403507969696680653240014914910929820314476107906210059990431967236"
      ]
    },
    {
      "x": 392,
      "y": 337,
      "size": 1,
      "price": "4683000000000000000000",
      "reserved": "",
      "salt": "0x2b3e6a72a2b902556c215096629bc5c9debcf6daf51751aacf2579d3e6c7a458",
      "assetIds": [
        "41506478881403507969696680653240014914910929820314476107906210059990431967234",
        "41506478881403507969696680653240014914910929820314476107906210059990431967235"
      ]
    },
    {
      "x": 393,
      "y": 337,
      "size": 1,
      "price": "4683000000000000000000",
      "reserved": "",
      "salt": "0xb4d9fa562282448a656f4622cd176e0877470270020de4c6b4b2cb44530836be",
      "assetIds": [
        "41506478881403507969696680653240014914910929820314476107906210059990431967233",
        "41506478881403507969696680653240014914910929820314476107906210059990431967234"
      ]
    },
    {
      "x": 394,
      "y": 337,
      "size": 1,
      "price": "4683000000000000000000",
      "reserved": "",
      "salt": "0xe11c4724af9054ad440d7f37ca2eb7a8074f790777152d47ad5828d0dc128836",
      "assetIds": [
        "41506478881403507969696680653240014914910929820314476107906210059990431967234",
        "41506478881403507969696680653240014914910929820314476107906210059990431967235"
      ]
    },
    {
      "x": 395,
      "y": 337,
      "size": 1,
      "price": "4683000000000000000000",
      "reserved": "",
      "salt": "0x46f5b7c48eb35c05bb18806c1586ba2aad783abd73584ffa5343e6bcfd37b3b1",
      "assetIds": [
        "41506478881403507969696680653240014914910929820314476107906210059990431967232",
        "41506478881403507969696680653240014914910929820314476107906210059990431967233"
      ]
    },
    {
      "x": 392,
      "y": 336,
      "size": 1,
      "price": "4683000000000000000000",
      "reserved": "",
      "salt": "0x57e7d9387c8b69092725bcadc1204bbedd51034c06e24bbe2e6401b512f05061",
      "assetIds": [
        "41506478881403507969696680653240014914910929820314476107906210059990431967233",
        "41506478881403507969696680653240014914910929820314476107906210059990431967234"
      ]
    },
    {
      "x": 391,
      "y": 336,
      "size": 1,
      "price": "4683000000000000000000",
      "reserved": "",
      "salt": "0x7d9f68af07182cc055af8216de8bcb1109d2cfb1fff8fb2acea9bcf78df96d56",
      "assetIds": [
        "41506478881403507969696680653240014914910929820314476107906210059990431967234",
        "41506478881403507969696680653240014914910929820314476107906210059990431967235"
      ]
    },
    {
      "x": 390,
      "y": 336,
      "size": 1,
      "price": "4683000000000000000000",
      "reserved": "",
      "salt": "0xf240cd376a5417b44b5cdd78da19d4cc2caa9e63dfeb4ac91e7805f3b7bfe55c",
      "assetIds": [
        "41506478881403507969696680653240014914910929820314476107906210059990431967232",
        "41506478881403507969696680653240014914910929820314476107906210059990431967233"
      ]
    },
    {
      "x": 389,
      "y": 336,
      "size": 1,
      "price": "4683000000000000000000",
      "reserved": "",
      "salt": "0x333049aeb8ca449299e5628c3b3eafd5f694e31f47e88cffb4afe25e8d461b58",
      "assetIds": [
        "41506478881403507969696680653240014914910929820314476107906210059990431967234",
        "41506478881403507969696680653240014914910929820314476107906210059990431967235"
      ]
    },
    {
      "x": 393,
      "y": 336,
      "size": 1,
      "price": "4683000000000000000000",
      "reserved": "",
      "salt": "0x3a9ed46c479c07dd74a91fb66952e0e8776a6c33b148cd0f4d5bcde235aeadc3",
      "assetIds": [
        "41506478881403507969696680653240014914910929820314476107906210059990431967232",
        "41506478881403507969696680653240014914910929820314476107906210059990431967233"
      ]
    },
    {
      "x": 394,
      "y": 336,
      "size": 1,
      "price": "4683000000000000000000",
      "reserved": "",
      "salt": "0x7f0a8559f9f8c06660329864240372ee3ebcd3fd7ca1c8e73426d9663a5cdff2",
      "assetIds": [
        "41506478881403507969696680653240014914910929820314476107906210059990431967234",
        "41506478881403507969696680653240014914910929820314476107906210059990431967235"
      ]
    },
    {
      "x": 395,
      "y": 336,
      "size": 1,
      "price": "4683000000000000000000",
      "reserved": "",
      "salt": "0x8777d5b0291ecee1a8526edeb87ef0734531147370aada27020bddd52f034e10",
      "assetIds": [
        "41506478881403507969696680653240014914910929820314476107906210059990431967232",
        "41506478881403507969696680653240014914910929820314476107906210059990431967233"
      ]
    },
    {
      "x": 395,
      "y": 338,
      "size": 1,
      "price": "4683000000000000000000",
      "reserved": "",
      "salt": "0x3b8820dc694924a8dddcf789eb870f37c59b0f6f8e88213a6dc5f8a7408c7a2a",
      "assetIds": [
        "41506478881403507969696680653240014914910929820314476107906210059990431967233",
        "41506478881403507969696680653240014914910929820314476107906210059990431967234"
      ]
    },
    {
      "x": 395,
      "y": 339,
      "size": 1,
      "price": "4683000000000000000000",
      "reserved": "",
      "salt": "0x2e84373040d987de425fe313249bc30fd5b6d1eba2a62aa591d57e5df335baee",
      "assetIds": [
        "41506478881403507969696680653240014914910929820314476107906210059990431967234",
        "41506478881403507969696680653240014914910929820314476107906210059990431967235"
      ]
    },
    {
      "x": 395,
      "y": 340,
      "size": 1,
      "price": "4683000000000000000000",
      "reserved": "",
      "salt": "0x8f180ac202dac031ce8a1167a5b257932c45eae9803bac6953d6685a63d2e837",
      "assetIds": [
        "41506478881403507969696680653240014914910929820314476107906210059990431967235",
        "41506478881403507969696680653240014914910929820314476107906210059990431967236"
      ]
    },
    {
      "x": 395,
      "y": 341,
      "size": 1,
      "price": "4683000000000000000000",
      "reserved": "",
      "salt": "0x18669b150cd5731aa29ee653ac301cb7d82801303ed83c3ac4b8289ba07d4702",
      "assetIds": [
        "41506478881403507969696680653240014914910929820314476107906210059990431967232",
        "41506478881403507969696680653240014914910929820314476107906210059990431967233"
      ]
    },
    {
      "x": 395,
      "y": 342,
      "size": 1,
      "price": "4683000000000000000000",
      "reserved": "",
      "salt": "0x046fc95a7b4781685ee8cdfda3cdb53f659a049f49bf90769b4f5c891aa46947",
      "assetIds": [
        "41506478881403507969696680653240014914910929820314476107906210059990431967232",
        "41506478881403507969696680653240014914910929820314476107906210059990431967233"
      ]
    },
    {
      "x": 395,
      "y": 343,
      "size": 1,
      "price": "4683000000000000000000",
      "reserved": "",
      "salt": "0x805664b7084e315fab0da9a2371e0bd6a0e6174e6368056094361d1c77e195f2",
      "assetIds": [
        "41506478881403507969696680653240014914910929820314476107906210059990431967234",
        "41506478881403507969696680653240014914910929820314476107906210059990431967235"
      ]
    },
    {
      "x": 395,
      "y": 344,
      "size": 1,
      "price": "4683000000000000000000",
      "reserved": "",
      "salt": "0x789e352636d1b708b2e27b0cdae6d31f559c10ba859b7f7e31f8d0f9465c7ec3",
      "assetIds": [
        "41506478881403507969696680653240014914910929820314476107906210059990431967234",
        "41506478881403507969696680653240014914910929820314476107906210059990431967235"
      ]
    },
    {
      "x": 394,
      "y": 341,
      "size": 1,
      "price": "4683000000000000000000",
      "reserved": "",
      "salt": "0xbaf0e0b5de66e1f4695c9e5e0a6696c218ba907d71d63359930ddfe760f36ef9",
      "assetIds": [
        "41506478881403507969696680653240014914910929820314476107906210059990431967234",
        "41506478881403507969696680653240014914910929820314476107906210059990431967235"
      ]
    },
    {
      "x": 394,
      "y": 340,
      "size": 1,
      "price": "4683000000000000000000",
      "reserved": "",
      "salt": "0xc04447d289e2e383f7c40ba999a6e8d3e48e46687616da5c993d795423ef8bd5",
      "assetIds": [
        "41506478881403507969696680653240014914910929820314476107906210059990431967234",
        "41506478881403507969696680653240014914910929820314476107906210059990431967235"
      ]
    },
    {
      "x": 394,
      "y": 339,
      "size": 1,
      "price": "4683000000000000000000",
      "reserved": "",
      "salt": "0x9ce0e6fc2fff55273ef5722cddd2c66d5ec52a731498583e9813ceeb0de67e3f",
      "assetIds": [
        "41506478881403507969696680653240014914910929820314476107906210059990431967234",
        "41506478881403507969696680653240014914910929820314476107906210059990431967235"
      ]
    },
    {
      "x": 393,
      "y": 339,
      "size": 1,
      "price": "4683000000000000000000",
      "reserved": "",
      "salt": "0xb87e3fdd9558e24508888fe80dfd7c45a512f5e5c4b3ff361919660fa7d4ccc6",
      "assetIds": [
        "41506478881403507969696680653240014914910929820314476107906210059990431967232",
        "41506478881403507969696680653240014914910929820314476107906210059990431967233"
      ]
    },
    {
      "x": 393,
      "y": 338,
      "size": 1,
      "price": "4683000000000000000000",
      "reserved": "",
      "salt": "0x10d88cd3f7695ee882402949a1b0d3f66d371822e931d1ad90a3aa6e50f937a3",
      "assetIds": [
        "41506478881403507969696680653240014914910929820314476107906210059990431967232",
        "41506478881403507969696680653240014914910929820314476107906210059990431967233"
      ]
    },
    {
      "x": 392,
      "y": 338,
      "size": 1,
      "price": "4683000000000000000000",
      "reserved": "",
      "salt": "0x6b85a99f910f58462f422f44199b18fdb0cee59b35f60ba5bde21c738031182c",
      "assetIds": [
        "41506478881403507969696680653240014914910929820314476107906210059990431967232",
        "41506478881403507969696680653240014914910929820314476107906210059990431967233"
      ]
    },
    {
      "x": 392,
      "y": 339,
      "size": 1,
      "price": "4683000000000000000000",
      "reserved": "",
      "salt": "0x3d94e2dbaa774565c70025f082c4ce7f64bd18e56f20552d67bbde18dc64c527",
      "assetIds": [
        "41506478881403507969696680653240014914910929820314476107906210059990431967234",
        "41506478881403507969696680653240014914910929820314476107906210059990431967235"
      ]
    },
    {
      "x": 392,
      "y": 340,
      "size": 1,
      "price": "4683000000000000000000",
      "reserved": "",
      "salt": "0xc6ef5941a3d34b0f69fd5da17dccdf5b52a4483d25d82caedb471ce7b3363fa7",
      "assetIds": [
        "41506478881403507969696680653240014914910929820314476107906210059990431967233",
        "41506478881403507969696680653240014914910929820314476107906210059990431967234"
      ]
    },
    {
      "x": 392,
      "y": 341,
      "size": 1,
      "price": "4683000000000000000000",
      "reserved": "",
      "salt": "0x4f16ece44214a5e13dd0d3abe46c78ef3829ccada74177206331773eb5a9be69",
      "assetIds": [
        "41506478881403507969696680653240014914910929820314476107906210059990431967235",
        "41506478881403507969696680653240014914910929820314476107906210059990431967236"
      ]
    },
    {
      "x": 392,
      "y": 342,
      "size": 1,
      "price": "4683000000000000000000",
      "reserved": "",
      "salt": "0xf95f7277a6b95f2b9b61aaf4c82539a8f9ab88f9898fe59397a362dfc2ada64b",
      "assetIds": [
        "41506478881403507969696680653240014914910929820314476107906210059990431967234",
        "41506478881403507969696680653240014914910929820314476107906210059990431967235"
      ]
    },
    {
      "x": 392,
      "y": 343,
      "size": 1,
      "price": "4683000000000000000000",
      "reserved": "",
      "salt": "0x353375c007d212cf4fd9d8a70c75e2514aadb84b1bbc86d45e3b1f92ad3d6209",
      "assetIds": [
        "41506478881403507969696680653240014914910929820314476107906210059990431967235",
        "41506478881403507969696680653240014914910929820314476107906210059990431967236"
      ]
    },
    {
      "x": 393,
      "y": 340,
      "size": 1,
      "price": "4683000000000000000000",
      "reserved": "",
      "salt": "0xa2ee62347fbf8bf653d42fd78a16bb96f3ee5b5ae614470e2ed374d0e7bb1cd3",
      "assetIds": [
        "41506478881403507969696680653240014914910929820314476107906210059990431967233",
        "41506478881403507969696680653240014914910929820314476107906210059990431967234"
      ]
    },
    {
      "x": 393,
      "y": 341,
      "size": 1,
      "price": "4683000000000000000000",
      "reserved": "",
      "salt": "0x29646bbe1e85e49fd82b07306a430bec760656e2d92882ecac8734e325fe692b",
      "assetIds": [
        "41506478881403507969696680653240014914910929820314476107906210059990431967235",
        "41506478881403507969696680653240014914910929820314476107906210059990431967236"
      ]
    },
    {
      "x": 391,
      "y": 340,
      "size": 1,
      "price": "4683000000000000000000",
      "reserved": "",
      "salt": "0xb443814de0c3aad1b8cb6bd2ce39ba252fe8e0bae7eee3252151c8412f435987",
      "assetIds": [
        "41506478881403507969696680653240014914910929820314476107906210059990431967233",
        "41506478881403507969696680653240014914910929820314476107906210059990431967234"
      ]
    },
    {
      "x": 390,
      "y": 340,
      "size": 1,
      "price": "4683000000000000000000",
      "reserved": "",
      "salt": "0x76cdea6ddfb25edbd8426cc955100668d4202fdbf5a40314335119ccd68f42e5",
      "assetIds": [
        "41506478881403507969696680653240014914910929820314476107906210059990431967233",
        "41506478881403507969696680653240014914910929820314476107906210059990431967234"
      ]
    },
    {
      "x": 390,
      "y": 339,
      "size": 1,
      "price": "4683000000000000000000",
      "reserved": "",
      "salt": "0x9e1a3c8ff5fe2d23e46a8e56341e5ac3eaa6783063c36b8845a0c8f37d7b012a",
      "assetIds": [
        "41506478881403507969696680653240014914910929820314476107906210059990431967235",
        "41506478881403507969696680653240014914910929820314476107906210059990431967236"
      ]
    },
    {
      "x": 390,
      "y": 338,
      "size": 1,
      "price": "4683000000000000000000",
      "reserved": "",
      "salt": "0xbe1648440e8deb80efb66d82bce800334927b4f7b52f27015f292141177c76c8",
      "assetIds": [
        "41506478881403507969696680653240014914910929820314476107906210059990431967234",
        "41506478881403507969696680653240014914910929820314476107906210059990431967235"
      ]
    },
    {
      "x": 389,
      "y": 338,
      "size": 1,
      "price": "4683000000000000000000",
      "reserved": "",
      "salt": "0x380c0219869ce668cc47ec09390f6ab5282761a786e32ccc9a6dea32a4edcadd",
      "assetIds": [
        "41506478881403507969696680653240014914910929820314476107906210059990431967235",
        "41506478881403507969696680653240014914910929820314476107906210059990431967236"
      ]
    },
    {
      "x": 389,
      "y": 339,
      "size": 1,
      "price": "4683000000000000000000",
      "reserved": "",
      "salt": "0x159bb3e0e6f2489a1a55c6b13953be02e309e029ec8ae9e19ee725b5c5b2f2be",
      "assetIds": [
        "41506478881403507969696680653240014914910929820314476107906210059990431967232",
        "41506478881403507969696680653240014914910929820314476107906210059990431967233"
      ]
    },
    {
      "x": 389,
      "y": 340,
      "size": 1,
      "price": "4683000000000000000000",
      "reserved": "",
      "salt": "0x63bb3a63dd2313be0d3e094d5da327c36429e1aff1f7400b1554f26a791e3d8b",
      "assetIds": [
        "41506478881403507969696680653240014914910929820314476107906210059990431967233",
        "41506478881403507969696680653240014914910929820314476107906210059990431967234"
      ]
    },
    {
      "x": 391,
      "y": 338,
      "size": 1,
      "price": "4683000000000000000000",
      "reserved": "",
      "salt": "0x9c4e5d87245af03561a22ec2cb646e58c88486f8ae22b44d15a0d4298d81c219",
      "assetIds": [
        "41506478881403507969696680653240014914910929820314476107906210059990431967234",
        "41506478881403507969696680653240014914910929820314476107906210059990431967235"
      ]
    },
    {
      "x": 394,
      "y": 338,
      "size": 1,
      "price": "4683000000000000000000",
      "reserved": "",
      "salt": "0xba77b02aef652e46662c43735ea6e5ffec3ef62624a82b1e7d774cb646cc3cf4",
      "assetIds": [
        "41506478881403507969696680653240014914910929820314476107906210059990431967234",
        "41506478881403507969696680653240014914910929820314476107906210059990431967235"
      ]
    },
    {
      "x": 387,
      "y": 337,
      "size": 1,
      "price": "4683000000000000000000",
      "reserved": "",
      "salt": "0x3ca818b75d9585d2d06debc95ed954e519c6ac08f5072f877d654379f9269bb5",
      "assetIds": [
        "41506478881403507969696680653240014914910929820314476107906210059990431967232",
        "41506478881403507969696680653240014914910929820314476107906210059990431967233"
      ]
    },
    {
      "x": 386,
      "y": 337,
      "size": 1,
      "price": "4683000000000000000000",
      "reserved": "",
      "salt": "0xce5e0b9e81243d1df1347052f807b8658839fc3222112b43ce58f8eb2f35284b",
      "assetIds": [
        "41506478881403507969696680653240014914910929820314476107906210059990431967232",
        "41506478881403507969696680653240014914910929820314476107906210059990431967233"
      ]
    },
    {
      "x": 387,
      "y": 338,
      "size": 1,
      "price": "4683000000000000000000",
      "reserved": "",
      "salt": "0xd12e35f9f553a2a8bd776aa5df4ce7228da2809b0882c791cf6e9a3bd5d4968b",
      "assetIds": [
        "41506478881403507969696680653240014914910929820314476107906210059990431967234",
        "41506478881403507969696680653240014914910929820314476107906210059990431967235"
      ]
    },
    {
      "x": 388,
      "y": 338,
      "size": 1,
      "price": "4683000000000000000000",
      "reserved": "",
      "salt": "0xd70725ecfdd904cac37a0db93fb0d12d45eb011e0f68ed5de980f702859d8c03",
      "assetIds": [
        "41506478881403507969696680653240014914910929820314476107906210059990431967235",
        "41506478881403507969696680653240014914910929820314476107906210059990431967236"
      ]
    },
    {
      "x": 385,
      "y": 338,
      "size": 1,
      "price": "4683000000000000000000",
      "reserved": "",
      "salt": "0xe944dffae82d6fb14f14af3cd1bda3b336d5a8631f6bd75f875badc185824299",
      "assetIds": [
        "41506478881403507969696680653240014914910929820314476107906210059990431967233",
        "41506478881403507969696680653240014914910929820314476107906210059990431967234"
      ]
    },
    {
      "x": 384,
      "y": 338,
      "size": 1,
      "price": "4683000000000000000000",
      "reserved": "",
      "salt": "0x0bb58c5f701f7f613b9828f65412350d534f140224227c20dd17be42b6f84c7f",
      "assetIds": [
        "41506478881403507969696680653240014914910929820314476107906210059990431967233",
        "41506478881403507969696680653240014914910929820314476107906210059990431967234"
      ]
    },
    {
      "x": 385,
      "y": 339,
      "size": 1,
      "price": "4683000000000000000000",
      "reserved": "",
      "salt": "0x8cd9fb835ff908cb5a0f66dcbcd40b520234a8ca1a609798bdd126c497d2c345",
      "assetIds": [
        "41506478881403507969696680653240014914910929820314476107906210059990431967232",
        "41506478881403507969696680653240014914910929820314476107906210059990431967233"
      ]
    },
    {
      "x": 387,
      "y": 340,
      "size": 1,
      "price": "4683000000000000000000",
      "reserved": "",
      "salt": "0xda219625d667b41f417edc423e939ae5ad2deb4fb3df5caf4c32c2497911f039",
      "assetIds": [
        "41506478881403507969696680653240014914910929820314476107906210059990431967232",
        "41506478881403507969696680653240014914910929820314476107906210059990431967233"
      ]
    },
    {
      "x": 388,
      "y": 340,
      "size": 1,
      "price": "4683000000000000000000",
      "reserved": "",
      "salt": "0x09edf00b6f050779aae69509f502163a90e58d02d6d8644f43a25f41eae61636",
      "assetIds": [
        "41506478881403507969696680653240014914910929820314476107906210059990431967232",
        "41506478881403507969696680653240014914910929820314476107906210059990431967233"
      ]
    },
    {
      "x": 384,
      "y": 339,
      "size": 1,
      "price": "4683000000000000000000",
      "reserved": "",
      "salt": "0xcabf0e4f99f1314348d1bdc4050d65df8b1dacbf65308c8817f01ffd1e441983",
      "assetIds": [
        "41506478881403507969696680653240014914910929820314476107906210059990431967235",
        "41506478881403507969696680653240014914910929820314476107906210059990431967236"
      ]
    },
    {
      "x": 387,
      "y": 339,
      "size": 1,
      "price": "4683000000000000000000",
      "reserved": "",
      "salt": "0xb1cf19bbbe173b41e85e2b79e632d0942973a5e90802cef62157106545749f6a",
      "assetIds": [
        "41506478881403507969696680653240014914910929820314476107906210059990431967234",
        "41506478881403507969696680653240014914910929820314476107906210059990431967235"
      ]
    },
    {
      "x": 388,
      "y": 339,
      "size": 1,
      "price": "4683000000000000000000",
      "reserved": "",
      "salt": "0xa51e2ce705a9aa10029dc1a9fac912f61157ce3021a7475e403a4f1a96e659c5",
      "assetIds": [
        "41506478881403507969696680653240014914910929820314476107906210059990431967232",
        "41506478881403507969696680653240014914910929820314476107906210059990431967233"
      ]
    },
    {
      "x": 391,
      "y": 339,
      "size": 1,
      "price": "4683000000000000000000",
      "reserved": "",
      "salt": "0x7162d5c0e8e25a16ddfd86816a4ed3621d22100c42f8b938da56fd0bae24e3c9",
      "assetIds": [
        "41506478881403507969696680653240014914910929820314476107906210059990431967232",
        "41506478881403507969696680653240014914910929820314476107906210059990431967233"
      ]
    },
    {
      "x": 392,
      "y": 344,
      "size": 1,
      "price": "4683000000000000000000",
      "reserved": "",
      "salt": "0x8861145c1628920850db85525acf2388b10d6b098045e16cd62b6460fc6e9d40",
      "assetIds": [
        "41506478881403507969696680653240014914910929820314476107906210059990431967232",
        "41506478881403507969696680653240014914910929820314476107906210059990431967233"
      ]
    },
    {
      "x": 391,
      "y": 341,
      "size": 1,
      "price": "4683000000000000000000",
      "reserved": "",
      "salt": "0x800e6dcfe837cc27af664e8f87a8a385b4a9f7039a980e4bf10e86504fd98c34",
      "assetIds": [
        "41506478881403507969696680653240014914910929820314476107906210059990431967235",
        "41506478881403507969696680653240014914910929820314476107906210059990431967236"
      ]
    },
    {
      "x": 389,
      "y": 341,
      "size": 1,
      "price": "4683000000000000000000",
      "reserved": "",
      "salt": "0xbf65fd9a78e9e2285da48cddc0f7b00d1b72ed051b6269818b8d3bc89132fe22",
      "assetIds": [
        "41506478881403507969696680653240014914910929820314476107906210059990431967234",
        "41506478881403507969696680653240014914910929820314476107906210059990431967235"
      ]
    },
    {
      "x": 388,
      "y": 341,
      "size": 1,
      "price": "4683000000000000000000",
      "reserved": "",
      "salt": "0xf2c60ab9f1b9088cd96847f6b4c5181c5219a54a92a4ab1eaf8ba63ba44cb689",
      "assetIds": [
        "41506478881403507969696680653240014914910929820314476107906210059990431967233",
        "41506478881403507969696680653240014914910929820314476107906210059990431967234"
      ]
    },
    {
      "x": 387,
      "y": 341,
      "size": 1,
      "price": "4683000000000000000000",
      "reserved": "",
      "salt": "0xf4b7528d973950cca27fee47579e4ad9d99601741d3be7782d2fd24d62e7159a",
      "assetIds": [
        "41506478881403507969696680653240014914910929820314476107906210059990431967233",
        "41506478881403507969696680653240014914910929820314476107906210059990431967234"
      ]
    },
    {
      "x": 385,
      "y": 341,
      "size": 1,
      "price": "4683000000000000000000",
      "reserved": "",
      "salt": "0xef0b02927611ac9de4896b0d9cce2a133b275febf3a8b3f493d6a059a0588188",
      "assetIds": [
        "41506478881403507969696680653240014914910929820314476107906210059990431967233",
        "41506478881403507969696680653240014914910929820314476107906210059990431967234"
      ]
    },
    {
      "x": 384,
      "y": 341,
      "size": 1,
      "price": "4683000000000000000000",
      "reserved": "",
      "salt": "0x5df8324d573ad910550b2358d1e35bc17c65d27a49d1226859c62bec892f36f3",
      "assetIds": [
        "41506478881403507969696680653240014914910929820314476107906210059990431967235",
        "41506478881403507969696680653240014914910929820314476107906210059990431967236"
      ]
    },
    {
      "x": 384,
      "y": 340,
      "size": 1,
      "price": "4683000000000000000000",
      "reserved": "",
      "salt": "0x8b18bab1c98fd8175d4aa75ac86f853bea4766b67ef9139ba6c621047447b308",
      "assetIds": [
        "41506478881403507969696680653240014914910929820314476107906210059990431967232",
        "41506478881403507969696680653240014914910929820314476107906210059990431967233"
      ]
    },
    {
      "x": 385,
      "y": 342,
      "size": 1,
      "price": "4683000000000000000000",
      "reserved": "",
      "salt": "0x6f0b6a3f39462dcc287edd548c69c127e95dd2e4ef0a7493e8c6c3f0752c2624",
      "assetIds": [
        "41506478881403507969696680653240014914910929820314476107906210059990431967232",
        "41506478881403507969696680653240014914910929820314476107906210059990431967233"
      ]
    },
    {
      "x": 387,
      "y": 342,
      "size": 1,
      "price": "4683000000000000000000",
      "reserved": "",
      "salt": "0xc22acb76d8d95574e3534d99fe269591c9237d640b1ae3d854f4b85403cb6679",
      "assetIds": [
        "41506478881403507969696680653240014914910929820314476107906210059990431967233",
        "41506478881403507969696680653240014914910929820314476107906210059990431967234"
      ]
    },
    {
      "x": 388,
      "y": 342,
      "size": 1,
      "price": "4683000000000000000000",
      "reserved": "",
      "salt": "0x6e0e4f9c75b4ba3ad2ecb0e3a321a006f1d997cec84c693fac765010afa17e0e",
      "assetIds": [
        "41506478881403507969696680653240014914910929820314476107906210059990431967232",
        "41506478881403507969696680653240014914910929820314476107906210059990431967233"
      ]
    },
    {
      "x": 389,
      "y": 342,
      "size": 1,
      "price": "4683000000000000000000",
      "reserved": "",
      "salt": "0xf4b5a686804c88816d8922c46432a7e80629e22e8e85aa0e4b9e1aee22a6829a",
      "assetIds": [
        "41506478881403507969696680653240014914910929820314476107906210059990431967232",
        "41506478881403507969696680653240014914910929820314476107906210059990431967233"
      ]
    },
    {
      "x": 390,
      "y": 342,
      "size": 1,
      "price": "4683000000000000000000",
      "reserved": "",
      "salt": "0x5b909da16277dc7f23544ef6725c41f397e1432201b3e9209eec10f4eec54633",
      "assetIds": [
        "41506478881403507969696680653240014914910929820314476107906210059990431967232",
        "41506478881403507969696680653240014914910929820314476107906210059990431967233"
      ]
    },
    {
      "x": 393,
      "y": 342,
      "size": 1,
      "price": "4683000000000000000000",
      "reserved": "",
      "salt": "0x45ed232fe93eb56f3b2749f7c7c520f3674d97bdfb2d090cc02cfce78ac7168e",
      "assetIds": [
        "41506478881403507969696680653240014914910929820314476107906210059990431967234",
        "41506478881403507969696680653240014914910929820314476107906210059990431967235"
      ]
    },
    {
      "x": 390,
      "y": 341,
      "size": 1,
      "price": "4683000000000000000000",
      "reserved": "",
      "salt": "0x3d12cd8e5d81b6ccf09d6d499383fa74a2e9740336e17f204527b602b50cfef4",
      "assetIds": [
        "41506478881403507969696680653240014914910929820314476107906210059990431967234",
        "41506478881403507969696680653240014914910929820314476107906210059990431967235"
      ]
    },
    {
      "x": 384,
      "y": 342,
      "size": 1,
      "price": "4683000000000000000000",
      "reserved": "",
      "salt": "0x896185fea3a72eeaf9a5a591e6e6e8d724255919333364b98f4f70cb76974567",
      "assetIds": [
        "41506478881403507969696680653240014914910929820314476107906210059990431967234",
        "41506478881403507969696680653240014914910929820314476107906210059990431967235"
      ]
    },
    {
      "x": 383,
      "y": 342,
      "size": 1,
      "price": "4683000000000000000000",
      "reserved": "",
      "salt": "0xabc66da805935ecb304b0a24ef4db420a848f500997bf106f9ebf1a3c10dbd8f",
      "assetIds": [
        "41506478881403507969696680653240014914910929820314476107906210059990431967235",
        "41506478881403507969696680653240014914910929820314476107906210059990431967236"
      ]
    },
    {
      "x": 382,
      "y": 343,
      "size": 1,
      "price": "4683000000000000000000",
      "reserved": "",
      "salt": "0x2f6035c25fd145edc4da93f6cedb7d000f2118b97c0d4ccd64956a2cad35d601",
      "assetIds": [
        "41506478881403507969696680653240014914910929820314476107906210059990431967233",
        "41506478881403507969696680653240014914910929820314476107906210059990431967234"
      ]
    },
    {
      "x": 383,
      "y": 343,
      "size": 1,
      "price": "4683000000000000000000",
      "reserved": "",
      "salt": "0xff59c45d0ab18b457e1a23f1940e09e070b934e711248b6da82484bb33402832",
      "assetIds": [
        "41506478881403507969696680653240014914910929820314476107906210059990431967233",
        "41506478881403507969696680653240014914910929820314476107906210059990431967234"
      ]
    },
    {
      "x": 384,
      "y": 343,
      "size": 1,
      "price": "4683000000000000000000",
      "reserved": "",
      "salt": "0x072dc4eb22d09f922ced2e2d6e177bc7fe0f62c5b665791859e607d7afa54d84",
      "assetIds": [
        "41506478881403507969696680653240014914910929820314476107906210059990431967235",
        "41506478881403507969696680653240014914910929820314476107906210059990431967236"
      ]
    },
    {
      "x": 385,
      "y": 343,
      "size": 1,
      "price": "4683000000000000000000",
      "reserved": "",
      "salt": "0x9d3507f131b8dabf146fd27a7d3df18ebf87ea2a8a8cd7a0e2081c4adf133911",
      "assetIds": [
        "41506478881403507969696680653240014914910929820314476107906210059990431967233",
        "41506478881403507969696680653240014914910929820314476107906210059990431967234"
      ]
    },
    {
      "x": 387,
      "y": 343,
      "size": 1,
      "price": "4683000000000000000000",
      "reserved": "",
      "salt": "0x7588706226ada756f27145cbd73679092e1bc96ee58e5cff8fccb9a4aeccfa74",
      "assetIds": [
        "41506478881403507969696680653240014914910929820314476107906210059990431967232",
        "41506478881403507969696680653240014914910929820314476107906210059990431967233"
      ]
    },
    {
      "x": 388,
      "y": 343,
      "size": 1,
      "price": "4683000000000000000000",
      "reserved": "",
      "salt": "0xf0470b7bfa13a799e0501aaf2817652fc2bfc5ee91c2caf20f1e5c50e1981bd8",
      "assetIds": [
        "41506478881403507969696680653240014914910929820314476107906210059990431967235",
        "41506478881403507969696680653240014914910929820314476107906210059990431967236"
      ]
    },
    {
      "x": 390,
      "y": 343,
      "size": 1,
      "price": "4683000000000000000000",
      "reserved": "",
      "salt": "0x810ca333869eb40d0096c73c4145b2112041723309389632701fc54bbf56f7c5",
      "assetIds": [
        "41506478881403507969696680653240014914910929820314476107906210059990431967234",
        "41506478881403507969696680653240014914910929820314476107906210059990431967235"
      ]
    },
    {
      "x": 393,
      "y": 343,
      "size": 1,
      "price": "4683000000000000000000",
      "reserved": "",
      "salt": "0x30c94af6af704d95ebe8b1e766cb3630d6bad6bc77f86cbd06ce9a16afb17e81",
      "assetIds": [
        "41506478881403507969696680653240014914910929820314476107906210059990431967233",
        "41506478881403507969696680653240014914910929820314476107906210059990431967234"
      ]
    },
    {
      "x": 394,
      "y": 343,
      "size": 1,
      "price": "4683000000000000000000",
      "reserved": "",
      "salt": "0xfdb96ab86f1b8e82c2c6a54ab399b2df03a2b93be673561507a354827700481c",
      "assetIds": [
        "41506478881403507969696680653240014914910929820314476107906210059990431967235",
        "41506478881403507969696680653240014914910929820314476107906210059990431967236"
      ]
    },
    {
      "x": 395,
      "y": 345,
      "size": 1,
      "price": "4683000000000000000000",
      "reserved": "",
      "salt": "0xb56873e4dabf626e938738d1521c31a6c07a6de0ece22d8648396d4956c4c43f",
      "assetIds": [
        "41506478881403507969696680653240014914910929820314476107906210059990431967232",
        "41506478881403507969696680653240014914910929820314476107906210059990431967233"
      ]
    },
    {
      "x": 394,
      "y": 345,
      "size": 1,
      "price": "4683000000000000000000",
      "reserved": "",
      "salt": "0x2a262e0f1f4c3cb5fc4886d08fefcef4ad0359880565b24dfca0c680783fa6c0",
      "assetIds": [
        "41506478881403507969696680653240014914910929820314476107906210059990431967235",
        "41506478881403507969696680653240014914910929820314476107906210059990431967236"
      ]
    },
    {
      "x": 393,
      "y": 345,
      "size": 1,
      "price": "4683000000000000000000",
      "reserved": "",
      "salt": "0x7cdfa0fe73056a520e850f22bed5f166cccbbda2a218ced413df66f27155e49a",
      "assetIds": [
        "41506478881403507969696680653240014914910929820314476107906210059990431967235",
        "41506478881403507969696680653240014914910929820314476107906210059990431967236"
      ]
    },
    {
      "x": 392,
      "y": 345,
      "size": 1,
      "price": "4683000000000000000000",
      "reserved": "",
      "salt": "0xf485abea89d685227a258dc8d77666cc5d58e3670b8995af1f83c23a5e2c9569",
      "assetIds": [
        "41506478881403507969696680653240014914910929820314476107906210059990431967232",
        "41506478881403507969696680653240014914910929820314476107906210059990431967233"
      ]
    },
    {
      "x": 391,
      "y": 345,
      "size": 1,
      "price": "4683000000000000000000",
      "reserved": "",
      "salt": "0x04f5a8552c98c6a0e92ab9e1375e2bc88c44ba83375e853cb402a132a61dfa8c",
      "assetIds": [
        "41506478881403507969696680653240014914910929820314476107906210059990431967232",
        "41506478881403507969696680653240014914910929820314476107906210059990431967233"
      ]
    },
    {
      "x": 390,
      "y": 345,
      "size": 1,
      "price": "4683000000000000000000",
      "reserved": "",
      "salt": "0x10d86cbe07027f75f8cc22a88f8604206ea9a87e4da937061476f47b98c8f77a",
      "assetIds": [
        "41506478881403507969696680653240014914910929820314476107906210059990431967233",
        "41506478881403507969696680653240014914910929820314476107906210059990431967234"
      ]
    },
    {
      "x": 389,
      "y": 345,
      "size": 1,
      "price": "4683000000000000000000",
      "reserved": "",
      "salt": "0xec5edf90b880b0b9a32716f541589b480a547a5c1fc8fbedb9b4b09366ee315c",
      "assetIds": [
        "41506478881403507969696680653240014914910929820314476107906210059990431967234",
        "41506478881403507969696680653240014914910929820314476107906210059990431967235"
      ]
    },
    {
      "x": 388,
      "y": 345,
      "size": 1,
      "price": "4683000000000000000000",
      "reserved": "",
      "salt": "0xa5e2a28ec859040da0af6d9db07b03d3e586e4439c0ba072de60d8856349d175",
      "assetIds": [
        "41506478881403507969696680653240014914910929820314476107906210059990431967234",
        "41506478881403507969696680653240014914910929820314476107906210059990431967235"
      ]
    },
    {
      "x": 384,
      "y": 345,
      "size": 1,
      "price": "4683000000000000000000",
      "reserved": "",
      "salt": "0xb834af91a1f06db1737f0ddeb51df945424924d373db45f413372560a18eb461",
      "assetIds": [
        "41506478881403507969696680653240014914910929820314476107906210059990431967233",
        "41506478881403507969696680653240014914910929820314476107906210059990431967234"
      ]
    },
    {
      "x": 384,
      "y": 344,
      "size": 1,
      "price": "4683000000000000000000",
      "reserved": "",
      "salt": "0x8c5d237b1c957ade685f974e88866e59149a0614599f6d8efbbc3c0c1c822112",
      "assetIds": [
        "41506478881403507969696680653240014914910929820314476107906210059990431967235",
        "41506478881403507969696680653240014914910929820314476107906210059990431967236"
      ]
    },
    {
      "x": 383,
      "y": 344,
      "size": 1,
      "price": "4683000000000000000000",
      "reserved": "",
      "salt": "0x3b1caa53fde2e8b619421df22929c15bde5fa24a1fb421aa6bc315fae38c48ae",
      "assetIds": [
        "41506478881403507969696680653240014914910929820314476107906210059990431967234",
        "41506478881403507969696680653240014914910929820314476107906210059990431967235"
      ]
    },
    {
      "x": 393,
      "y": 344,
      "size": 1,
      "price": "4683000000000000000000",
      "reserved": "",
      "salt": "0xc49be276697e0e3275237ebdec1643d35a86b690cc836b8b7e3f8986d260795a",
      "assetIds": [
        "41506478881403507969696680653240014914910929820314476107906210059990431967232",
        "41506478881403507969696680653240014914910929820314476107906210059990431967233"
      ]
    },
    {
      "x": 394,
      "y": 344,
      "size": 1,
      "price": "4683000000000000000000",
      "reserved": "",
      "salt": "0x6b65433cb053e473a63ab00a99d3fb4d278a3effa757aa87d6817195f6b8de9b",
      "assetIds": [
        "41506478881403507969696680653240014914910929820314476107906210059990431967233",
        "41506478881403507969696680653240014914910929820314476107906210059990431967234"
      ]
    },
    {
      "x": 390,
      "y": 344,
      "size": 1,
      "price": "4683000000000000000000",
      "reserved": "",
      "salt": "0x955b59e6f87c24f5907dea0baccbd5eb5e0008bd8a278aa082ea944eb27132d8",
      "assetIds": [
        "41506478881403507969696680653240014914910929820314476107906210059990431967233",
        "41506478881403507969696680653240014914910929820314476107906210059990431967234"
      ]
    },
    {
      "x": 389,
      "y": 344,
      "size": 1,
      "price": "4683000000000000000000",
      "reserved": "",
      "salt": "0xb6776422885c02a8630209e574fcbe40e50e602c9648931730d3888a228fbd0e",
      "assetIds": [
        "41506478881403507969696680653240014914910929820314476107906210059990431967234",
        "41506478881403507969696680653240014914910929820314476107906210059990431967235"
      ]
    },
    {
      "x": 388,
      "y": 344,
      "size": 1,
      "price": "4683000000000000000000",
      "reserved": "",
      "salt": "0x52613a2cf6712d174a8056fa2fce2afd2d6a2e9d86e45e52869a19bf9eb38499",
      "assetIds": [
        "41506478881403507969696680653240014914910929820314476107906210059990431967232",
        "41506478881403507969696680653240014914910929820314476107906210059990431967233"
      ]
    },
    {
      "x": 387,
      "y": 344,
      "size": 1,
      "price": "4683000000000000000000",
      "reserved": "",
      "salt": "0xd08aec868bae706321203916e171265ddcd11d5218fc8260f374c3130fac4b1c",
      "assetIds": [
        "41506478881403507969696680653240014914910929820314476107906210059990431967233",
        "41506478881403507969696680653240014914910929820314476107906210059990431967234"
      ]
    },
    {
      "x": 385,
      "y": 344,
      "size": 1,
      "price": "4683000000000000000000",
      "reserved": "",
      "salt": "0xfaddb6715dacf3f2ff01649dde73940d380b58b8329c40e49fabed066132c532",
      "assetIds": [
        "41506478881403507969696680653240014914910929820314476107906210059990431967234",
        "41506478881403507969696680653240014914910929820314476107906210059990431967235"
      ]
    },
    {
      "x": 383,
      "y": 346,
      "size": 1,
      "price": "4683000000000000000000",
      "reserved": "",
      "salt": "0xb47484e609a55c2bf9554bc9664e3cf028d0e3270ecf74fc82e0864ceaf6ab2c",
      "assetIds": [
        "41506478881403507969696680653240014914910929820314476107906210059990431967233",
        "41506478881403507969696680653240014914910929820314476107906210059990431967234"
      ]
    },
    {
      "x": 383,
      "y": 345,
      "size": 1,
      "price": "4683000000000000000000",
      "reserved": "",
      "salt": "0x406b3a794b4a92bb234811372ae3319645cae99b4e604ee8b21b82094af30324",
      "assetIds": [
        "41506478881403507969696680653240014914910929820314476107906210059990431967235",
        "41506478881403507969696680653240014914910929820314476107906210059990431967236"
      ]
    },
    {
      "x": 384,
      "y": 346,
      "size": 1,
      "price": "4683000000000000000000",
      "reserved": "",
      "salt": "0x9dc8dd3d58a6c76523f68a50b40494902aa628a23e4086a421ce48c7bae638d7",
      "assetIds": [
        "41506478881403507969696680653240014914910929820314476107906210059990431967233",
        "41506478881403507969696680653240014914910929820314476107906210059990431967234"
      ]
    },
    {
      "x": 384,
      "y": 347,
      "size": 1,
      "price": "4683000000000000000000",
      "reserved": "",
      "salt": "0x7a0629101d71721fbbcb2cd770666ec6f4cafc752f96a8359c7595836695edd0",
      "assetIds": [
        "41506478881403507969696680653240014914910929820314476107906210059990431967232",
        "41506478881403507969696680653240014914910929820314476107906210059990431967233"
      ]
    },
    {
      "x": 385,
      "y": 347,
      "size": 1,
      "price": "4683000000000000000000",
      "reserved": "",
      "salt": "0x866f9678d3a484eba2c264db5a069350c462129a64785edec48f17272c47b72f",
      "assetIds": [
        "41506478881403507969696680653240014914910929820314476107906210059990431967232",
        "41506478881403507969696680653240014914910929820314476107906210059990431967233"
      ]
    },
    {
      "x": 386,
      "y": 347,
      "size": 1,
      "price": "4683000000000000000000",
      "reserved": "",
      "salt": "0x15c1d3b20b14e997d55e57e2953f16f08e18a52a0c038d9ffb75675557bfbf18",
      "assetIds": [
        "41506478881403507969696680653240014914910929820314476107906210059990431967233",
        "41506478881403507969696680653240014914910929820314476107906210059990431967234"
      ]
    },
    {
      "x": 388,
      "y": 347,
      "size": 1,
      "price": "4683000000000000000000",
      "reserved": "",
      "salt": "0x18ae83ad89137ade4a74597451269a4ff0c0910a27ce827b6d04361f2d4a643e",
      "assetIds": [
        "41506478881403507969696680653240014914910929820314476107906210059990431967235",
        "41506478881403507969696680653240014914910929820314476107906210059990431967236"
      ]
    },
    {
      "x": 389,
      "y": 347,
      "size": 1,
      "price": "4683000000000000000000",
      "reserved": "",
      "salt": "0xbe888c68c57010941e19224cfd850a5d7ded432389c35668010c8dd8a970f437",
      "assetIds": [
        "41506478881403507969696680653240014914910929820314476107906210059990431967235",
        "41506478881403507969696680653240014914910929820314476107906210059990431967236"
      ]
    },
    {
      "x": 390,
      "y": 346,
      "size": 1,
      "price": "4683000000000000000000",
      "reserved": "",
      "salt": "0x411e21c619b3d1c1535852df29ebe8cc734a35d58a8ba9b9cf1a55794c22ec8d",
      "assetIds": [
        "41506478881403507969696680653240014914910929820314476107906210059990431967234",
        "41506478881403507969696680653240014914910929820314476107906210059990431967235"
      ]
    },
    {
      "x": 391,
      "y": 346,
      "size": 1,
      "price": "4683000000000000000000",
      "reserved": "",
      "salt": "0xaa2ccda170f4848b85c8d6dbfbaa121e04ed00ecd3f6c461685acc59fb44a736",
      "assetIds": [
        "41506478881403507969696680653240014914910929820314476107906210059990431967233",
        "41506478881403507969696680653240014914910929820314476107906210059990431967234"
      ]
    },
    {
      "x": 392,
      "y": 346,
      "size": 1,
      "price": "4683000000000000000000",
      "reserved": "",
      "salt": "0xe3d48d04e2adfe43895ea0f64b6ef6047dba7eaedda59d8130a371acef0030ff",
      "assetIds": [
        "41506478881403507969696680653240014914910929820314476107906210059990431967235",
        "41506478881403507969696680653240014914910929820314476107906210059990431967236"
      ]
    },
    {
      "x": 393,
      "y": 346,
      "size": 1,
      "price": "4683000000000000000000",
      "reserved": "",
      "salt": "0x4fa8253339713e37d9e655e500ecd72b7bfc1ba99fd1209f6f06aa836864f654",
      "assetIds": [
        "41506478881403507969696680653240014914910929820314476107906210059990431967232",
        "41506478881403507969696680653240014914910929820314476107906210059990431967233"
      ]
    },
    {
      "x": 394,
      "y": 346,
      "size": 1,
      "price": "4683000000000000000000",
      "reserved": "",
      "salt": "0xf5a66cc562cf8fe13a47e6f45e07440f7f31922906f2be265890b75b4b5aeef1",
      "assetIds": [
        "41506478881403507969696680653240014914910929820314476107906210059990431967234",
        "41506478881403507969696680653240014914910929820314476107906210059990431967235"
      ]
    },
    {
      "x": 395,
      "y": 346,
      "size": 1,
      "price": "4683000000000000000000",
      "reserved": "",
      "salt": "0x93c0eabee024f3bf836035c9f6108a4fb1f21fe3ea482c14dd3471e517e8e1da",
      "assetIds": [
        "41506478881403507969696680653240014914910929820314476107906210059990431967234",
        "41506478881403507969696680653240014914910929820314476107906210059990431967235"
      ]
    },
    {
      "x": 389,
      "y": 346,
      "size": 1,
      "price": "4683000000000000000000",
      "reserved": "",
      "salt": "0xfa8ff250fc2b1f39272646d3fed8a62e3796522cca30dfb5f75e60390eea7abb",
      "assetIds": [
        "41506478881403507969696680653240014914910929820314476107906210059990431967232",
        "41506478881403507969696680653240014914910929820314476107906210059990431967233"
      ]
    },
    {
      "x": 386,
      "y": 346,
      "size": 1,
      "price": "4683000000000000000000",
      "reserved": "",
      "salt": "0xe931b0a432bf6db7276a5b0b9a1004b57aed5ccf7f6c667c36049ca72c81dd5c",
      "assetIds": [
        "41506478881403507969696680653240014914910929820314476107906210059990431967233",
        "41506478881403507969696680653240014914910929820314476107906210059990431967234"
      ]
    },
    {
      "x": 385,
      "y": 346,
      "size": 1,
      "price": "4683000000000000000000",
      "reserved": "",
      "salt": "0xd13b1cac27ab7f7c502e62082efdde7c31ec649973f4db2707ad29a0c98d1110",
      "assetIds": [
        "41506478881403507969696680653240014914910929820314476107906210059990431967235",
        "41506478881403507969696680653240014914910929820314476107906210059990431967236"
      ]
    },
    {
      "x": 384,
      "y": 348,
      "size": 1,
      "price": "4683000000000000000000",
      "reserved": "",
      "salt": "0xd3b12e4c20de38502d1804d99da33b1ca91c3f31998c4ba2a723f3b6b21dfe25",
      "assetIds": [
        "41506478881403507969696680653240014914910929820314476107906210059990431967235",
        "41506478881403507969696680653240014914910929820314476107906210059990431967236"
      ]
    },
    {
      "x": 385,
      "y": 348,
      "size": 1,
      "price": "4683000000000000000000",
      "reserved": "",
      "salt": "0xc47a47ac790f684aacaf410b48e2bd676fcc815fb4e85370caa76496e86b63c4",
      "assetIds": [
        "41506478881403507969696680653240014914910929820314476107906210059990431967234",
        "41506478881403507969696680653240014914910929820314476107906210059990431967235"
      ]
    },
    {
      "x": 386,
      "y": 348,
      "size": 1,
      "price": "4683000000000000000000",
      "reserved": "",
      "salt": "0x552c4b75e66d0c83f84ea2af842c8f0f40eae2836778dd5f03a48be9dda1469b",
      "assetIds": [
        "41506478881403507969696680653240014914910929820314476107906210059990431967235",
        "41506478881403507969696680653240014914910929820314476107906210059990431967236"
      ]
    },
    {
      "x": 390,
      "y": 347,
      "size": 1,
      "price": "4683000000000000000000",
      "reserved": "",
      "salt": "0x9726a188f57dc000f171ba35db158a9ad11af1feb64460f8b9ea9e2348d23abd",
      "assetIds": [
        "41506478881403507969696680653240014914910929820314476107906210059990431967235",
        "41506478881403507969696680653240014914910929820314476107906210059990431967236"
      ]
    },
    {
      "x": 391,
      "y": 347,
      "size": 1,
      "price": "4683000000000000000000",
      "reserved": "",
      "salt": "0x0717258df2def9cc1a787e5ce8eefc5d24d337120de7c2b0f219826a4258b654",
      "assetIds": [
        "41506478881403507969696680653240014914910929820314476107906210059990431967232",
        "41506478881403507969696680653240014914910929820314476107906210059990431967233"
      ]
    },
    {
      "x": 392,
      "y": 347,
      "size": 1,
      "price": "4683000000000000000000",
      "reserved": "",
      "salt": "0x99645e0606ea39574aa8a7fb7e3ab0ba1464a3327bbdc42a221c1f5c9ff01ab2",
      "assetIds": [
        "41506478881403507969696680653240014914910929820314476107906210059990431967234",
        "41506478881403507969696680653240014914910929820314476107906210059990431967235"
      ]
    },
    {
      "x": 393,
      "y": 347,
      "size": 1,
      "price": "4683000000000000000000",
      "reserved": "",
      "salt": "0x4c67149e67ef5afec3619da582c548001ac2fa1f317cbe946668b58063a0b3f0",
      "assetIds": [
        "41506478881403507969696680653240014914910929820314476107906210059990431967233",
        "41506478881403507969696680653240014914910929820314476107906210059990431967234"
      ]
    },
    {
      "x": 394,
      "y": 347,
      "size": 1,
      "price": "4683000000000000000000",
      "reserved": "",
      "salt": "0xc5a281673ac6bab2d285d29163dc002e222a1556834e324858028309212dce66",
      "assetIds": [
        "41506478881403507969696680653240014914910929820314476107906210059990431967234",
        "41506478881403507969696680653240014914910929820314476107906210059990431967235"
      ]
    },
    {
      "x": 394,
      "y": 348,
      "size": 1,
      "price": "4683000000000000000000",
      "reserved": "",
      "salt": "0x4b98ccd3af9cf594073594ccbd4be1d0dfa3f79a06c730831611fad90a1453d3",
      "assetIds": [
        "41506478881403507969696680653240014914910929820314476107906210059990431967232",
        "41506478881403507969696680653240014914910929820314476107906210059990431967233"
      ]
    },
    {
      "x": 395,
      "y": 348,
      "size": 1,
      "price": "4683000000000000000000",
      "reserved": "",
      "salt": "0xeb46b5b491a531297b8eba3f4bd024e2a07788bb90f7f38828a47fd6bdc8c150",
      "assetIds": [
        "41506478881403507969696680653240014914910929820314476107906210059990431967232",
        "41506478881403507969696680653240014914910929820314476107906210059990431967233"
      ]
    },
    {
      "x": 395,
      "y": 349,
      "size": 1,
      "price": "4683000000000000000000",
      "reserved": "",
      "salt": "0xecba31d9441fa1bfe150a63727115ab3567f724bd13f9c48e4e42ccbdc6ef52d",
      "assetIds": [
        "41506478881403507969696680653240014914910929820314476107906210059990431967234",
        "41506478881403507969696680653240014914910929820314476107906210059990431967235"
      ]
    },
    {
      "x": 394,
      "y": 349,
      "size": 1,
      "price": "4683000000000000000000",
      "reserved": "",
      "salt": "0xd6371d106b5712008fa9217775dcf99e848c35acef9b20b2a97d84cb96d62611",
      "assetIds": [
        "41506478881403507969696680653240014914910929820314476107906210059990431967233",
        "41506478881403507969696680653240014914910929820314476107906210059990431967234"
      ]
    },
    {
      "x": 393,
      "y": 349,
      "size": 1,
      "price": "4683000000000000000000",
      "reserved": "",
      "salt": "0x1b8bce2b515cd3713c2e692ee6212bdab53c7240d95fc81048bc24fd2400d9bd",
      "assetIds": [
        "41506478881403507969696680653240014914910929820314476107906210059990431967234",
        "41506478881403507969696680653240014914910929820314476107906210059990431967235"
      ]
    },
    {
      "x": 392,
      "y": 349,
      "size": 1,
      "price": "4683000000000000000000",
      "reserved": "",
      "salt": "0x542b0a1fa1740e06e5da91ed94b090fdb2b6d7b7b8636c2f6725d489e11d6900",
      "assetIds": [
        "41506478881403507969696680653240014914910929820314476107906210059990431967233",
        "41506478881403507969696680653240014914910929820314476107906210059990431967234"
      ]
    },
    {
      "x": 390,
      "y": 349,
      "size": 1,
      "price": "4683000000000000000000",
      "reserved": "",
      "salt": "0x5aa5d98c7065bba703f3c44bebd48f7fc8ba11bd5b8439f39ea80c8139a97574",
      "assetIds": [
        "41506478881403507969696680653240014914910929820314476107906210059990431967233",
        "41506478881403507969696680653240014914910929820314476107906210059990431967234"
      ]
    },
    {
      "x": 389,
      "y": 349,
      "size": 1,
      "price": "4683000000000000000000",
      "reserved": "",
      "salt": "0xb2ef2ff584d6631c490b728184807385d7cd8b700891614517efc7c06b44cc8d",
      "assetIds": [
        "41506478881403507969696680653240014914910929820314476107906210059990431967234",
        "41506478881403507969696680653240014914910929820314476107906210059990431967235"
      ]
    },
    {
      "x": 388,
      "y": 349,
      "size": 1,
      "price": "4683000000000000000000",
      "reserved": "",
      "salt": "0xfba87c2b48427af2cf32d31c2f6c3adcf261fbfe92108435b4ab0b2ee3a3bacc",
      "assetIds": [
        "41506478881403507969696680653240014914910929820314476107906210059990431967235",
        "41506478881403507969696680653240014914910929820314476107906210059990431967236"
      ]
    },
    {
      "x": 386,
      "y": 349,
      "size": 1,
      "price": "4683000000000000000000",
      "reserved": "",
      "salt": "0x2a2e881998d33d16d9c06171748a1577eb42e93b6bbf73f2dd8b84e00d23c501",
      "assetIds": [
        "41506478881403507969696680653240014914910929820314476107906210059990431967233",
        "41506478881403507969696680653240014914910929820314476107906210059990431967234"
      ]
    },
    {
      "x": 385,
      "y": 349,
      "size": 1,
      "price": "4683000000000000000000",
      "reserved": "",
      "salt": "0x51307093c771b39f0646ee484a6f04311b5a6124e5e821cd90780d7675af2f92",
      "assetIds": [
        "41506478881403507969696680653240014914910929820314476107906210059990431967234",
        "41506478881403507969696680653240014914910929820314476107906210059990431967235"
      ]
    },
    {
      "x": 384,
      "y": 349,
      "size": 1,
      "price": "4683000000000000000000",
      "reserved": "",
      "salt": "0x9db573c39b7882c7118e04c2c8abd137bfa780ce38ac04d1a2f83bd3ddb2c0bf",
      "assetIds": [
        "41506478881403507969696680653240014914910929820314476107906210059990431967234",
        "41506478881403507969696680653240014914910929820314476107906210059990431967235"
      ]
    },
    {
      "x": 392,
      "y": 348,
      "size": 1,
      "price": "4683000000000000000000",
      "reserved": "",
      "salt": "0xc4468da61aaa55d5bbb8e590fb4fe34cfccee65251158cd7000fd9c52c4566af",
      "assetIds": [
        "41506478881403507969696680653240014914910929820314476107906210059990431967234",
        "41506478881403507969696680653240014914910929820314476107906210059990431967235"
      ]
    },
    {
      "x": 393,
      "y": 348,
      "size": 1,
      "price": "4683000000000000000000",
      "reserved": "",
      "salt": "0xf5bb85bbb77267dc0b21046991f84e2bd792eddad4e6a8e27bcda067f228bd5d",
      "assetIds": [
        "41506478881403507969696680653240014914910929820314476107906210059990431967233",
        "41506478881403507969696680653240014914910929820314476107906210059990431967234"
      ]
    },
    {
      "x": 391,
      "y": 348,
      "size": 1,
      "price": "4683000000000000000000",
      "reserved": "",
      "salt": "0x55f53828bf06e77396fc41be6ceb0b961e4ac83c9c0822b99950c0631b9baab7",
      "assetIds": [
        "41506478881403507969696680653240014914910929820314476107906210059990431967235",
        "41506478881403507969696680653240014914910929820314476107906210059990431967236"
      ]
    },
    {
      "x": 390,
      "y": 348,
      "size": 1,
      "price": "4683000000000000000000",
      "reserved": "",
      "salt": "0x6da0c2ffc04ae100f8401dae6b8094eaf7e2a00e91f471cfc77f3d74adb214d2",
      "assetIds": [
        "41506478881403507969696680653240014914910929820314476107906210059990431967234",
        "41506478881403507969696680653240014914910929820314476107906210059990431967235"
      ]
    },
    {
      "x": 389,
      "y": 348,
      "size": 1,
      "price": "4683000000000000000000",
      "reserved": "",
      "salt": "0x9c8461f62e7d1d7aed1e8d78b4bcb489430d3efbf8c089cad45ffa78135a159b",
      "assetIds": [
        "41506478881403507969696680653240014914910929820314476107906210059990431967232",
        "41506478881403507969696680653240014914910929820314476107906210059990431967233"
      ]
    },
    {
      "x": 388,
      "y": 348,
      "size": 1,
      "price": "4683000000000000000000",
      "reserved": "",
      "salt": "0x06221c7b8f18ec3cd8b0f1478f8417ad806d89f6e1d89c3398a4b3deff3363c3",
      "assetIds": [
        "41506478881403507969696680653240014914910929820314476107906210059990431967233",
        "41506478881403507969696680653240014914910929820314476107906210059990431967234"
      ]
    },
    {
      "x": 382,
      "y": 351,
      "size": 1,
      "price": "4683000000000000000000",
      "reserved": "",
      "salt": "0x954939a401181afde83778208219b14abe7cd3b2f9598be116d9163186ad1217",
      "assetIds": [
        "41506478881403507969696680653240014914910929820314476107906210059990431967235",
        "41506478881403507969696680653240014914910929820314476107906210059990431967236"
      ]
    },
    {
      "x": 383,
      "y": 351,
      "size": 1,
      "price": "4683000000000000000000",
      "reserved": "",
      "salt": "0x814f956ddf1a622b009f65bd13a9c308a85b3ea54b7ef5eac0387cfd574b856e",
      "assetIds": [
        "41506478881403507969696680653240014914910929820314476107906210059990431967235",
        "41506478881403507969696680653240014914910929820314476107906210059990431967236"
      ]
    },
    {
      "x": 384,
      "y": 351,
      "size": 1,
      "price": "4683000000000000000000",
      "reserved": "",
      "salt": "0x8233ddeb986aed79fb28d868749166c2a8136481a8ebbcd86928068b141d5365",
      "assetIds": [
        "41506478881403507969696680653240014914910929820314476107906210059990431967235",
        "41506478881403507969696680653240014914910929820314476107906210059990431967236"
      ]
    },
    {
      "x": 385,
      "y": 351,
      "size": 1,
      "price": "4683000000000000000000",
      "reserved": "",
      "salt": "0x7479c0c247a43c06f8ea64ea654d6359a385e7b093df45590ced1b56d4294da9",
      "assetIds": [
        "41506478881403507969696680653240014914910929820314476107906210059990431967234",
        "41506478881403507969696680653240014914910929820314476107906210059990431967235"
      ]
    },
    {
      "x": 386,
      "y": 351,
      "size": 1,
      "price": "4683000000000000000000",
      "reserved": "",
      "salt": "0x1e51df95fce4171a633cb77832c210e5e3063d689a3aacc30f131b59f2d65966",
      "assetIds": [
        "41506478881403507969696680653240014914910929820314476107906210059990431967235",
        "41506478881403507969696680653240014914910929820314476107906210059990431967236"
      ]
    },
    {
      "x": 387,
      "y": 351,
      "size": 1,
      "price": "4683000000000000000000",
      "reserved": "",
      "salt": "0x863cd7c98450d07623ef51f97a26c784a28c702f39e45504e9a5be1aa411bd8b",
      "assetIds": [
        "41506478881403507969696680653240014914910929820314476107906210059990431967234",
        "41506478881403507969696680653240014914910929820314476107906210059990431967235"
      ]
    },
    {
      "x": 388,
      "y": 351,
      "size": 1,
      "price": "4683000000000000000000",
      "reserved": "",
      "salt": "0xacd0fcb77ed4ad2db94c91940ef171baa2c37c1eeaa266c236a412dee0091d5f",
      "assetIds": [
        "41506478881403507969696680653240014914910929820314476107906210059990431967235",
        "41506478881403507969696680653240014914910929820314476107906210059990431967236"
      ]
    },
    {
      "x": 389,
      "y": 351,
      "size": 1,
      "price": "4683000000000000000000",
      "reserved": "",
      "salt": "0xcb21f05a575a7aff01db9e9099bc62e67c6cc82666dbe2f3b77fb5afd9bedd55",
      "assetIds": [
        "41506478881403507969696680653240014914910929820314476107906210059990431967232",
        "41506478881403507969696680653240014914910929820314476107906210059990431967233"
      ]
    },
    {
      "x": 390,
      "y": 351,
      "size": 1,
      "price": "4683000000000000000000",
      "reserved": "",
      "salt": "0x6e2b654b99b828e182bf3cbe7d1f243189eadf21b3a1957a49bfd9b245261419",
      "assetIds": [
        "41506478881403507969696680653240014914910929820314476107906210059990431967235",
        "41506478881403507969696680653240014914910929820314476107906210059990431967236"
      ]
    },
    {
      "x": 391,
      "y": 350,
      "size": 1,
      "price": "4683000000000000000000",
      "reserved": "",
      "salt": "0xc76cdab07a3bcc326efffee1c7ec69213a6dd2304a5759c33380d3cc06cc8cbc",
      "assetIds": [
        "41506478881403507969696680653240014914910929820314476107906210059990431967232",
        "41506478881403507969696680653240014914910929820314476107906210059990431967233"
      ]
    },
    {
      "x": 392,
      "y": 350,
      "size": 1,
      "price": "4683000000000000000000",
      "reserved": "",
      "salt": "0x5d69e6de1f44558749d28c0b53b0fb650234711e5166bc7c37378caf2e2ba535",
      "assetIds": [
        "41506478881403507969696680653240014914910929820314476107906210059990431967234",
        "41506478881403507969696680653240014914910929820314476107906210059990431967235"
      ]
    },
    {
      "x": 393,
      "y": 350,
      "size": 1,
      "price": "4683000000000000000000",
      "reserved": "",
      "salt": "0x05a647a34b9e6e7b5f00c2e202a670899147e86f727a4854a762466dcd17407f",
      "assetIds": [
        "41506478881403507969696680653240014914910929820314476107906210059990431967234",
        "41506478881403507969696680653240014914910929820314476107906210059990431967235"
      ]
    },
    {
      "x": 394,
      "y": 350,
      "size": 1,
      "price": "4683000000000000000000",
      "reserved": "",
      "salt": "0x9d68313e107fc53707e60c79ee4788e9c2216998a636a3c6fbe44d81d213fa56",
      "assetIds": [
        "41506478881403507969696680653240014914910929820314476107906210059990431967234",
        "41506478881403507969696680653240014914910929820314476107906210059990431967235"
      ]
    },
    {
      "x": 390,
      "y": 350,
      "size": 1,
      "price": "4683000000000000000000",
      "reserved": "",
      "salt": "0x1b14ca638949e9548f00cfd071e75e1097d590cc30fdf7821e7b5d183b14d312",
      "assetIds": [
        "41506478881403507969696680653240014914910929820314476107906210059990431967232",
        "41506478881403507969696680653240014914910929820314476107906210059990431967233"
      ]
    },
    {
      "x": 389,
      "y": 350,
      "size": 1,
      "price": "4683000000000000000000",
      "reserved": "",
      "salt": "0x124aa3c2b6788477b752af764ed770ca5b81e55449c072c08e53a55bd49a6a10",
      "assetIds": [
        "41506478881403507969696680653240014914910929820314476107906210059990431967233",
        "41506478881403507969696680653240014914910929820314476107906210059990431967234"
      ]
    },
    {
      "x": 388,
      "y": 350,
      "size": 1,
      "price": "4683000000000000000000",
      "reserved": "",
      "salt": "0x3d687269b30ff736b2bb6e223d9bb0bc9ecdb7c4d5b4692217e56bd464413da2",
      "assetIds": [
        "41506478881403507969696680653240014914910929820314476107906210059990431967235",
        "41506478881403507969696680653240014914910929820314476107906210059990431967236"
      ]
    },
    {
      "x": 384,
      "y": 352,
      "size": 1,
      "price": "4683000000000000000000",
      "reserved": "",
      "salt": "0xf3870ef4dcee9042611171a5c3e138e4c3497c1f034d8e211b74443af70ca564",
      "assetIds": [
        "41506478881403507969696680653240014914910929820314476107906210059990431967234",
        "41506478881403507969696680653240014914910929820314476107906210059990431967235"
      ]
    },
    {
      "x": 383,
      "y": 352,
      "size": 1,
      "price": "4683000000000000000000",
      "reserved": "",
      "salt": "0xd3cf70c3b0af9d744a564e037264cc42cb1599d4abc94eb395a22bd5d48dde0b",
      "assetIds": [
        "41506478881403507969696680653240014914910929820314476107906210059990431967232",
        "41506478881403507969696680653240014914910929820314476107906210059990431967233"
      ]
    },
    {
      "x": 385,
      "y": 352,
      "size": 1,
      "price": "4683000000000000000000",
      "reserved": "",
      "salt": "0xa362db0e6d1985468e8f980dbdbf59ea0e8c3f73baaaa6acdea8b5a014da7950",
      "assetIds": [
        "41506478881403507969696680653240014914910929820314476107906210059990431967234",
        "41506478881403507969696680653240014914910929820314476107906210059990431967235"
      ]
    },
    {
      "x": 386,
      "y": 352,
      "size": 1,
      "price": "4683000000000000000000",
      "reserved": "",
      "salt": "0x0542f30a1e1078633ffc338d14eba619dd380a0f9577bde0832a582c2348b348",
      "assetIds": [
        "41506478881403507969696680653240014914910929820314476107906210059990431967235",
        "41506478881403507969696680653240014914910929820314476107906210059990431967236"
      ]
    },
    {
      "x": 387,
      "y": 352,
      "size": 1,
      "price": "4683000000000000000000",
      "reserved": "",
      "salt": "0xb8d3d23372dbc288816594fe990ad0188b4d4e98ebf907906f2d956b1d9623c8",
      "assetIds": [
        "41506478881403507969696680653240014914910929820314476107906210059990431967235",
        "41506478881403507969696680653240014914910929820314476107906210059990431967236"
      ]
    },
    {
      "x": 388,
      "y": 352,
      "size": 1,
      "price": "4683000000000000000000",
      "reserved": "",
      "salt": "0x3174bc60dc5e429814f1d0dc215baa7a493a98e1e35f6cf5e745c50a75b8944e",
      "assetIds": [
        "41506478881403507969696680653240014914910929820314476107906210059990431967235",
        "41506478881403507969696680653240014914910929820314476107906210059990431967236"
      ]
    },
    {
      "x": 389,
      "y": 352,
      "size": 1,
      "price": "4683000000000000000000",
      "reserved": "",
      "salt": "0x1d53522fd99aa5995f0fe68c6b2dd6b59d1343d249d9bd7d42e40d5460f7332b",
      "assetIds": [
        "41506478881403507969696680653240014914910929820314476107906210059990431967232",
        "41506478881403507969696680653240014914910929820314476107906210059990431967233"
      ]
    },
    {
      "x": 390,
      "y": 352,
      "size": 1,
      "price": "4683000000000000000000",
      "reserved": "",
      "salt": "0x4f9af775f03c82b80325f03bf12633363202bf07cbd9999ca87b8569a18b8f98",
      "assetIds": [
        "41506478881403507969696680653240014914910929820314476107906210059990431967234",
        "41506478881403507969696680653240014914910929820314476107906210059990431967235"
      ]
    },
    {
      "x": 391,
      "y": 352,
      "size": 1,
      "price": "4683000000000000000000",
      "reserved": "",
      "salt": "0xc33ea7afd4f2ff507ab369b94a372ac6c01d78931c6e35a411e856e0d48a490e",
      "assetIds": [
        "41506478881403507969696680653240014914910929820314476107906210059990431967234",
        "41506478881403507969696680653240014914910929820314476107906210059990431967235"
      ]
    },
    {
      "x": 392,
      "y": 352,
      "size": 1,
      "price": "4683000000000000000000",
      "reserved": "",
      "salt": "0x3fa809a21d247f9c4cfcdceac09ea767fdc75ba4f60c0f3f0cf2aee7c218fa8c",
      "assetIds": [
        "41506478881403507969696680653240014914910929820314476107906210059990431967235",
        "41506478881403507969696680653240014914910929820314476107906210059990431967236"
      ]
    },
    {
      "x": 393,
      "y": 352,
      "size": 1,
      "price": "4683000000000000000000",
      "reserved": "",
      "salt": "0xb99efaf82009d770e218048861307b578befee1fb1138b28124bbe0dc35349d9",
      "assetIds": [
        "41506478881403507969696680653240014914910929820314476107906210059990431967235",
        "41506478881403507969696680653240014914910929820314476107906210059990431967236"
      ]
    },
    {
      "x": 394,
      "y": 352,
      "size": 1,
      "price": "4683000000000000000000",
      "reserved": "",
      "salt": "0xac3cf2df106890cb4c32971108da98bf77a9007bd0b39d616952a3d4ba034973",
      "assetIds": [
        "41506478881403507969696680653240014914910929820314476107906210059990431967233",
        "41506478881403507969696680653240014914910929820314476107906210059990431967234"
      ]
    },
    {
      "x": 395,
      "y": 352,
      "size": 1,
      "price": "4683000000000000000000",
      "reserved": "",
      "salt": "0x59c7ef891a84660ed840c581f9e7ea1bf318af29bb10d12dc0b258fbd9041dfd",
      "assetIds": [
        "41506478881403507969696680653240014914910929820314476107906210059990431967234",
        "41506478881403507969696680653240014914910929820314476107906210059990431967235"
      ]
    },
    {
      "x": 394,
      "y": 351,
      "size": 1,
      "price": "4683000000000000000000",
      "reserved": "",
      "salt": "0xd7950ecc2abed59596bfcbf4176bd0c879887c1ca5c0ac71e52dc38bba56fb8a",
      "assetIds": [
        "41506478881403507969696680653240014914910929820314476107906210059990431967234",
        "41506478881403507969696680653240014914910929820314476107906210059990431967235"
      ]
    },
    {
      "x": 393,
      "y": 351,
      "size": 1,
      "price": "4683000000000000000000",
      "reserved": "",
      "salt": "0x04b93b25cb7a87f38849d87976c777ac8901874869995ac56fe35bb88b25c964",
      "assetIds": [
        "41506478881403507969696680653240014914910929820314476107906210059990431967234",
        "41506478881403507969696680653240014914910929820314476107906210059990431967235"
      ]
    },
    {
      "x": 392,
      "y": 351,
      "size": 1,
      "price": "4683000000000000000000",
      "reserved": "",
      "salt": "0x1897d8fe6a9f393ce9d2888e46316742ce05218dcfd4072352a89b1acbbd2224",
      "assetIds": [
        "41506478881403507969696680653240014914910929820314476107906210059990431967232",
        "41506478881403507969696680653240014914910929820314476107906210059990431967233"
      ]
    },
    {
      "x": 391,
      "y": 351,
      "size": 1,
      "price": "4683000000000000000000",
      "reserved": "",
      "salt": "0xcc83644e958e599af600df37962b6ade8561578bae253474a8917feee2c16abb",
      "assetIds": [
        "41506478881403507969696680653240014914910929820314476107906210059990431967232",
        "41506478881403507969696680653240014914910929820314476107906210059990431967233"
      ]
    },
    {
      "x": 395,
      "y": 351,
      "size": 1,
      "price": "4683000000000000000000",
      "reserved": "",
      "salt": "0x3c34725f138b8ec30de87195a64aa707862ebd2d2ee94d94c037de017cfab271",
      "assetIds": [
        "41506478881403507969696680653240014914910929820314476107906210059990431967233",
        "41506478881403507969696680653240014914910929820314476107906210059990431967234"
      ]
    },
    {
      "x": 387,
      "y": 350,
      "size": 1,
      "price": "4683000000000000000000",
      "reserved": "",
      "salt": "0x89d7a14d0387669848f1270f27769efdf1990602aa8b0d3901f72ffe1be25282",
      "assetIds": [
        "41506478881403507969696680653240014914910929820314476107906210059990431967235",
        "41506478881403507969696680653240014914910929820314476107906210059990431967236"
      ]
    },
    {
      "x": 368,
      "y": 306,
      "size": 1,
      "price": "4683000000000000000000",
      "reserved": "",
      "salt": "0xa6f145abbce5c479bce4becf9636acab5eede3aba302e17d973b9833558846d9",
      "assetIds": [
        "41506478881403507969696680653240014914910929820314476107906210059990431967235",
        "41506478881403507969696680653240014914910929820314476107906210059990431967236"
      ]
    },
    {
      "x": 384,
      "y": 324,
      "size": 12,
      "price": "123806000000000000000000",
      "reserved": "",
      "salt": "0xf6c036cd3ae9ab8925da7c247706dad87f3d507fd3744f059df5ebb513b4d6a2",
      "assetIds": []
    },
    {
      "x": 360,
      "y": 336,
      "size": 12,
      "price": "123806000000000000000000",
      "reserved": "",
      "salt": "0xf579625e003e693af3acd5fe80fbdafc891f8021df76fa65a8bf893a25c3cc4e",
      "assetIds": []
    },
    {
      "x": 360,
      "y": 312,
      "size": 24,
      "price": "466102000000000000000000",
      "reserved": "0xdeaddeaddeaddeaddeaddeaddeaddeaddeaddead",
      "salt": "0xa96e7b6a2a3beb9a9c48ff28d576b38951d559746c83847173a1a41315310b66",
      "assetIds": []
    },
    {
      "x": 396,
      "y": 336,
      "size": 12,
      "price": "123806000000000000000000",
      "reserved": "0x7a9fe22691c811ea339d9b73150e6911a5343dca",
      "salt": "0x97de63101194634fd2e492b3ce5745c71d4354dc0458e9d0f7f4b72c1916c3ca",
      "assetIds": []
    },
    {
      "x": 354,
      "y": 318,
      "size": 6,
      "price": "32772000000000000000000",
      "reserved": "0x7a9fe22691c811ea339d9b73150e6911a5343dca",
      "salt": "0x644e7f1338c529e22afdcf82ea1c05c4db4636369e08a6c1111bb906ee6e49a4",
      "assetIds": []
    },
    {
      "x": 390,
      "y": 354,
      "size": 6,
      "price": "32772000000000000000000",
      "reserved": "0x7a9fe22691c811ea339d9b73150e6911a5343dca",
      "salt": "0x3c31212e8db4954d210a31e373ab0a2e4eea3bbac2ee754a3ac21f665654c765",
      "assetIds": []
    },
    {
      "x": 396,
      "y": 312,
      "size": 6,
      "price": "32772000000000000000000",
      "reserved": "",
      "salt": "0xc9eec65ce5c773d31d6c2dcae734f8b4d48bd3f2beab8c3307b7736b5d632955",
      "assetIds": []
    },
    {
      "x": 384,
      "y": 318,
      "size": 6,
      "price": "32772000000000000000000",
      "reserved": "",
      "salt": "0x2f52c21b95d3ee7b9b4f5272ffdd82817ccbde9f832cc57858f3f1e96be2fa25",
      "assetIds": []
    },
    {
      "x": 372,
      "y": 306,
      "size": 6,
      "price": "32772000000000000000000",
      "reserved": "",
      "salt": "0x1c319a8fc76aec00001d4c8008470c0c8e07e5accfc8b6f8f829314a235439c3",
      "assetIds": []
    },
    {
      "x": 354,
      "y": 312,
      "size": 6,
      "price": "32772000000000000000000",
      "reserved": "",
      "salt": "0x017f213d4ee0ef5fb686188c723119f384f3da7e6f9c4903a3b995e0dbb16f8b",
      "assetIds": []
    },
    {
      "x": 354,
      "y": 330,
      "size": 6,
      "price": "32772000000000000000000",
      "reserved": "",
      "salt": "0xcc95b8f37c7991c04e3638f56e486da69147d81fd87d36bf3a6d9c410c80faaf",
      "assetIds": []
    },
    {
      "x": 378,
      "y": 336,
      "size": 6,
      "price": "32772000000000000000000",
      "reserved": "",
      "salt": "0x9146b241e15df469d9e21b731979c3a64bf5f7e93352777e9747eb62ad248678",
      "assetIds": []
    },
    {
      "x": 399,
      "y": 327,
      "size": 3,
      "price": "8648000000000000000000",
      "reserved": "0x7a9fe22691c811ea339d9b73150e6911a5343dca",
      "salt": "0x173aa56fd7e9dd6db187ea1a40f1ec3c6a5d3194a298089da76be9c9db5f58c6",
      "assetIds": []
    },
    {
      "x": 405,
      "y": 321,
      "size": 3,
      "price": "8648000000000000000000",
      "reserved": "0x7a9fe22691c811ea339d9b73150e6911a5343dca",
      "salt": "0xd24662da886f191b0a14b77c654618828546bed964d1ebe12cd5bf9c9b9f3105",
      "assetIds": []
    },
    {
      "x": 372,
      "y": 342,
      "size": 6,
      "price": "32772000000000000000000",
      "reserved": "",
      "salt": "0x0e5fec70f89539330ec2431fbd41c7f096da6d81c207a77b1a0c143b150e847f",
      "assetIds": []
    }
  ],
  "solcInputHash": "313f455adab9ae93096e43acc50d7d38",
  "bytecode": "0x610160604052620d2f006005556103e860075534801561001e57600080fd5b5060405161242e38038061242e833981810160405261018081101561004257600080fd5b50805160208201516040830151606080850151608086015160a08088015160c0808a015160e08b01516101008c01516101208d01516101408e0151610160909e0151600280546001600160a01b0319166001600160a01b03861617905560038390558d8b1b6001600160601b0319908116909852998c901b909616909352999a9899979895979496929590949391926100dc8a600161014a565b600680546001600160a01b03199081166001600160a01b039a8b1617909155610140979097526101209590955260008054909616979096169690961790935550606093841b6001600160601b031990811660e05292841b831660805290921b1661010052506101ae92505050565b6001600160a01b038216600081815260016020908152604091829020805460ff191685151590811790915582519384529083015280517fb21eb88b4e33b3f1281830a7178d74d8aa73220416215726b68ae23d539515cb9281900390910190a15050565b60805160601c60a05160601c60c05160601c60e05160601c6101005160601c61012051610140516121fb610233600039806109375280611d44525080610913528061139a525080611da45250806115d252806116f4525080610c50528061159c5280611dd852508061166152806116c5525080610dfa528061190852506121fb6000f3fe608060405234801561001057600080fd5b50600436106101515760003560e01c8063984d6252116100cd578063dc5074af11610081578063ecb255b511610066578063ecb255b514610857578063f23a6e6114610874578063f2e7b3811461090957610151565b8063dc5074af14610814578063e56f8a9e1461083a57610151565b8063bc197c81116100b2578063bc197c81146105d3578063c10a420814610735578063caed35001461080c57610151565b8063984d6252146104db578063b522ecff146105ad57610151565b80636e9960c3116101245780638a04af6a116101095780638a04af6a1461032a5780638a12b82f146103585780638f283970146104b557610151565b80636e9960c3146102fe57806377f1c3ac1461032257610151565b806325cb5bc014610156578063495906571461017057806358bc29441461017857806365194ce7146101a0575b600080fd5b61015e610911565b60408051918252519081900360200190f35b61015e610935565b61019e6004803603602081101561018e57600080fd5b50356001600160a01b0316610959565b005b610246600480360360208110156101b657600080fd5b8101906020810181356401000000008111156101d157600080fd5b8201836020820111156101e357600080fd5b8035906020019184600183028401116401000000008311171561020557600080fd5b91908080601f016020809104026020016040519081016040528093929190818152602001838380828437600092019190915250929550610a04945050505050565b6040518080602001866001600160a01b03166001600160a01b03168152602001856001600160a01b03166001600160a01b03168152602001848152602001838152602001828103825287818151815260200191508051906020019080838360005b838110156102bf5781810151838201526020016102a7565b50505050905090810190601f1680156102ec5780820380516001836020036101000a031916815260200191505b50965050505050505060405180910390f35b610306610b09565b604080516001600160a01b039092168252519081900360200190f35b61015e610b18565b61019e6004803603604081101561034057600080fd5b506001600160a01b0381351690602001351515610b1e565b61019e600480360361018081101561036f57600080fd5b6001600160a01b038235811692602081013582169260408201359092169160608201359160808101359160a08201359160c08101359160e0820135916101008101359181019061014081016101208201356401000000008111156103d257600080fd5b8201836020820111156103e457600080fd5b8035906020019184602083028401116401000000008311171561040657600080fd5b91939092909160208101903564010000000081111561042457600080fd5b82018360208201111561043657600080fd5b8035906020019184602083028401116401000000008311171561045857600080fd5b91939092909160208101903564010000000081111561047657600080fd5b82018360208201111561048857600080fd5b803590602001918460018302840111640100000000831117156104aa57600080fd5b509092509050610b75565b61019e600480360360208110156104cb57600080fd5b50356001600160a01b0316610cc3565b61019e600480360360608110156104f157600080fd5b6001600160a01b03823516919081019060408101602082013564010000000081111561051c57600080fd5b82018360208201111561052e57600080fd5b8035906020019184602083028401116401000000008311171561055057600080fd5b91939092909160208101903564010000000081111561056e57600080fd5b82018360208201111561058057600080fd5b803590602001918460208302840111640100000000831117156105a257600080fd5b509092509050610d99565b61019e600480360360208110156105c357600080fd5b50356001600160a01b0316610f24565b610700600480360360a08110156105e957600080fd5b6001600160a01b03823581169260208101359091169181019060608101604082013564010000000081111561061d57600080fd5b82018360208201111561062f57600080fd5b8035906020019184602083028401116401000000008311171561065157600080fd5b91939092909160208101903564010000000081111561066f57600080fd5b82018360208201111561068157600080fd5b803590602001918460208302840111640100000000831117156106a357600080fd5b9193909290916020810190356401000000008111156106c157600080fd5b8201836020820111156106d357600080fd5b803590602001918460018302840111640100000000831117156106f557600080fd5b50909250905061100d565b604080517fffffffff000000000000000000000000000000000000000000000000000000009092168252519081900360200190f35b6107f8600480360360a081101561074b57600080fd5b81019060208101813564010000000081111561076657600080fd5b82018360208201111561077857600080fd5b8035906020019184600183028401116401000000008311171561079a57600080fd5b91908080601f016020809104026020016040519081016040528093929190818152602001838380828437600092019190915250929550506001600160a01b03833581169450602084013516926040810135925060600135905061103a565b604080519115158252519081900360200190f35b610306611176565b6107f86004803603602081101561082a57600080fd5b50356001600160a01b0316611185565b61019e6004803603602081101561085057600080fd5b50356111a3565b61019e6004803603602081101561086d57600080fd5b5035611207565b610700600480360360a081101561088a57600080fd5b6001600160a01b03823581169260208101359091169160408201359160608101359181019060a0810160808201356401000000008111156108ca57600080fd5b8201836020820111156108dc57600080fd5b803590602001918460018302840111640100000000831117156108fe57600080fd5b50909250905061126b565b61015e611296565b7f000000000000000000000000000000000000000000000000000000000000000090565b7f000000000000000000000000000000000000000000000000000000000000000090565b6000546001600160a01b031633146109b8576040805162461bcd60e51b815260206004820152601060248201527f53656e646572206e6f742061646d696e00000000000000000000000000000000604482015290519081900360640190fd5b600554600280546001600160a01b03908116600090815260046020526040902042909301909255805473ffffffffffffffffffffffffffffffffffffffff191692909116919091179055565b606060008060008060606000806000808a80602001905160a0811015610a2957600080fd5b8101908080516040519392919084640100000000821115610a4957600080fd5b908301906020820185811115610a5e57600080fd5b8251640100000000811182820188101715610a7857600080fd5b82525081516020918201929091019080838360005b83811015610aa5578181015183820152602001610a8d565b50505050905090810190601f168015610ad25780820380516001836020036101000a031916815260200191505b5060409081526020820151908201516060830151608090930151959f50909d509b5099509197505050505050505091939590929450565b6000546001600160a01b031690565b60035490565b6000546001600160a01b03163314610b675760405162461bcd60e51b815260040180806020018281038252602e815260200180612198602e913960400191505060405180910390fd5b610b71828261129c565b5050565b610b7f898961131e565b610c048f8e8e8e8e8e8d8d8d80806020026020016040519081016040528093929190818152602001838360200280828437600081840152601f19601f820116905080830192505050505050508c8c8080602002602001604051908101604052809392919081815260200183836020028082843760009201919091525061139892505050565b610c458f8984848080601f01602080910402602001604051908101604052809392919081815260200183838082843760009201919091525061157592505050565b610c758f8f8e8e8e8d7f00000000000000000000000000000000000000000000000000000000000000008f6115c6565b610cb28e87878080602002602001604051908101604052809392919081815260200183836020028082843760009201919091525061189192505050565b505050505050505050505050505050565b6000546001600160a01b03163314610d22576040805162461bcd60e51b815260206004820152601b60248201527f6f6e6c792061646d696e2063616e206368616e67652061646d696e0000000000604482015290519081900360640190fd5b600054604080516001600160a01b039283168152918316602083015280517f7e644d79422f17c01e4894b5f4f588d331ebfa28653d42ae832dc59e38c9798f9281900390910190a16000805473ffffffffffffffffffffffffffffffffffffffff19166001600160a01b0392909216919091179055565b6000546001600160a01b03163314610df8576040805162461bcd60e51b815260206004820152600e60248201527f4e4f545f415554484f52495a4544000000000000000000000000000000000000604482015290519081900360640190fd5b7f00000000000000000000000000000000000000000000000000000000000000006001600160a01b0316632eb2c2d63087878787876040518763ffffffff1660e01b815260040180876001600160a01b03166001600160a01b03168152602001866001600160a01b03166001600160a01b031681526020018060200180602001806020018481038452888882818152602001925060200280828437600083820152601f01601f19169091018581038452868152602090810191508790870280828437600081840152601f19601f8201169050808301925050508481038252600081526020016020019950505050505050505050600060405180830381600087803b158015610f0557600080fd5b505af1158015610f19573d6000803e3d6000fd5b505050505050505050565b6001600160a01b038116610f7f576040805162461bcd60e51b815260206004820152600c60248201527f5a45524f5f414444524553530000000000000000000000000000000000000000604482015290519081900360640190fd5b6000546001600160a01b03163314610fde576040805162461bcd60e51b815260206004820152600e60248201527f4e4f545f415554484f52495a4544000000000000000000000000000000000000604482015290519081900360640190fd5b6006805473ffffffffffffffffffffffffffffffffffffffff19166001600160a01b0392909216919091179055565b7fbc197c810000000000000000000000000000000000000000000000000000000098975050505050505050565b600060035482118061105d5750836001600160a01b0316856001600160a01b0316145b8061106757508242115b156110745750600061116d565b60408051606087811b7fffffffffffffffffffffffffffffffffffffffff0000000000000000000000009081166020808501919091529188901b166034830152604882018690526068808301869052835180840390910181526088830184528051908201207f19457468657265756d205369676e6564204d6573736167653a0a33320000000060a884015260c48084018290528451808503909101815260e4909301909352815191012060009061112b9089611a55565b6001600160a01b03811660009081526004602052604090205490915042116111585760019250505061116d565b6002546001600160a01b039081169116149150505b95945050505050565b6002546001600160a01b031690565b6001600160a01b031660009081526001602052604090205460ff1690565b6000546001600160a01b03163314611202576040805162461bcd60e51b815260206004820152601060248201527f53656e646572206e6f742061646d696e00000000000000000000000000000000604482015290519081900360640190fd5b600355565b6000546001600160a01b03163314611266576040805162461bcd60e51b815260206004820152600e60248201527f4e4f545f415554484f52495a4544000000000000000000000000000000000000604482015290519081900360640190fd5b600755565b7ff23a6e61000000000000000000000000000000000000000000000000000000009695505050505050565b60075490565b6001600160a01b03821660008181526001602090815260409182902080547fffffffffffffffffffffffffffffffffffffffffffffffffffffffffffffff001685151590811790915582519384529083015280517fb21eb88b4e33b3f1281830a7178d74d8aa73220416215726b68ae23d539515cb9281900390910190a15050565b6113456103e861133960075485611b2290919063ffffffff16565b9063ffffffff611b9816565b8114610b71576040805162461bcd60e51b815260206004820152600d60248201527f494e56414c49445f505249434500000000000000000000000000000000000000604482015290519081900360640190fd5b7f0000000000000000000000000000000000000000000000000000000000000000421061140c576040805162461bcd60e51b815260206004820152600c60248201527f53414c455f49535f4f5645520000000000000000000000000000000000000000604482015290519081900360640190fd5b6001600160a01b03891633148061143257503360009081526001602052604090205460ff165b611483576040805162461bcd60e51b815260206004820152600e60248201527f4e4f545f415554484f52495a4544000000000000000000000000000000000000604482015290519081900360640190fd5b6001600160a01b03881615806114aa5750886001600160a01b0316886001600160a01b0316145b6114fb576040805162461bcd60e51b815260206004820152600d60248201527f52455345525645445f4c414e4400000000000000000000000000000000000000604482015290519081900360640190fd5b600061150c888888888d8989611bfd565b90506115188282611ca2565b611569576040805162461bcd60e51b815260206004820152600c60248201527f494e56414c49445f4c414e440000000000000000000000000000000000000000604482015290519081900360640190fd5b50505050505050505050565b60006115818484611d6b565b6006549091506115c0908590839085906001600160a01b03167f0000000000000000000000000000000000000000000000000000000000000000611eb8565b50505050565b83600114806115fc57507f00000000000000000000000000000000000000000000000000000000000000006001600160a01b0316155b156116c357604080517f6e1e3bbf0000000000000000000000000000000000000000000000000000000081526001600160a01b03898116600483015260248201879052604482018990526064820188905260a06084830152600060a4830181905292517f000000000000000000000000000000000000000000000000000000000000000090911692636e1e3bbf9260e4808201939182900301818387803b1580156116a657600080fd5b505af11580156116ba573d6000803e3d6000fd5b50505050611827565b7f00000000000000000000000000000000000000000000000000000000000000006001600160a01b0316636e1e3bbf7f00000000000000000000000000000000000000000000000000000000000000008689898c60405160200180826001600160a01b03166001600160a01b031681526020019150506040516020818303038152906040526040518663ffffffff1660e01b815260040180866001600160a01b03166001600160a01b0316815260200185815260200184815260200183815260200180602001828103825283818151815260200191508051906020019080838360005b838110156117be5781810151838201526020016117a6565b50505050905090810190601f1680156117eb5780820380516001836020036101000a031916815260200191505b509650505050505050600060405180830381600087803b15801561180e57600080fd5b505af1158015611822573d6000803e3d6000fd5b505050505b60408051858152602081018590526001600160a01b03848116828401526060820184905291516101988802890192808b1692908c16917fe4dfa6ac11314892f3029b34a25b1a887da3b1cab2bbf8506d87128ba6e3ac029181900360800190a45050505050505050565b6060815167ffffffffffffffff811180156118ab57600080fd5b506040519080825280602002602001820160405280156118d5578160200160208202803683370190505b50905060005b82518110156119055760018282815181106118f257fe5b60209081029190910101526001016118db565b507f00000000000000000000000000000000000000000000000000000000000000006001600160a01b0316632eb2c2d6308585856040518563ffffffff1660e01b815260040180856001600160a01b03166001600160a01b03168152602001846001600160a01b03166001600160a01b03168152602001806020018060200180602001848103845286818151815260200191508051906020019060200280838360005b838110156119c05781810151838201526020016119a8565b50505050905001848103835285818151815260200191508051906020019060200280838360005b838110156119ff5781810151838201526020016119e7565b50505050905001848103825260008152602001602001975050505050505050600060405180830381600087803b158015611a3857600080fd5b505af1158015611a4c573d6000803e3d6000fd5b50505050505050565b60008151604114611a6557600080fd5b60208201516040830151606084015160001a601b811015611a8457601b015b8060ff16601b1480611a9957508060ff16601c145b611aa257600080fd5b6040805160008152602080820180845289905260ff8416828401526060820186905260808201859052915160019260a0808401939192601f1981019281900390910190855afa158015611af9573d6000803e3d6000fd5b5050604051601f1901519450506001600160a01b038416611b1957600080fd5b50505092915050565b600082611b3157506000611b92565b5081810281838281611b3f57fe5b0414611b92576040805162461bcd60e51b815260206004820152600860248201527f6f766572666c6f77000000000000000000000000000000000000000000000000604482015290519081900360640190fd5b92915050565b600081611bec576040805162461bcd60e51b815260206004820152600960248201527f64697662797a65726f0000000000000000000000000000000000000000000000604482015290519081900360640190fd5b818381611bf557fe5b049392505050565b60008787878787878760405160200180888152602001878152602001868152602001858152602001846001600160a01b03166001600160a01b031660601b8152601401838152602001828051906020019060200280838360005b83811015611c6f578181015183820152602001611c57565b50505050905001975050505050505050604051602081830303815290604052805190602001209050979650505050505050565b600081815b8451811015611d41576000858281518110611cbe57fe5b6020026020010151905080831015611d065782816040516020018083815260200182815260200192505050604051602081830303815290604052805190602001209250611d38565b808360405160200180838152602001828152602001925050506040516020818303038152906040528051906020012092505b50600101611ca7565b507f0000000000000000000000000000000000000000000000000000000000000000149392505050565b600080611d84606461133985600563ffffffff611b2216565b604080516323b872dd60e01b81526001600160a01b0387811660048301527f0000000000000000000000000000000000000000000000000000000000000000811660248301526044820184905291519293507f0000000000000000000000000000000000000000000000000000000000000000909116916323b872dd916064808201926020929091908290030181600087803b158015611e2357600080fd5b505af1158015611e37573d6000803e3d6000fd5b505050506040513d6020811015611e4d57600080fd5b5051611ea0576040805162461bcd60e51b815260206004820152601360248201527f4645455f5452414e534645525f4641494c454400000000000000000000000000604482015290519081900360640190fd5b611eb0838263ffffffff61213a16565b949350505050565b82518190859015612062576060600080600080611ed48a610a04565b9398509196509450925090506000611eef868686868661103a565b15611f7d57611f09611f018d84611b22565b612710611b98565b9050886001600160a01b0316846001600160a01b0316866001600160a01b03167fac7a699eb95c3c6d390ec4626de17ef9a67b35891efdb197beba7c7fdd45fac48f858760405180848152602001838152602001828152602001935050505060405180910390a4611f7a878261213a565b96505b801561205b57604080516323b872dd60e01b81526001600160a01b038f811660048301528781166024830152604482018490529151918a16916323b872dd916064808201926020929091908290030181600087803b158015611fde57600080fd5b505af1158015611ff2573d6000803e3d6000fd5b505050506040513d602081101561200857600080fd5b505161205b576040805162461bcd60e51b815260206004820152601960248201527f636f6d6d6973696f6e207472616e73666572206661696c656400000000000000604482015290519081900360640190fd5b5050505050505b604080516323b872dd60e01b81526001600160a01b0389811660048301528681166024830152604482018490529151918416916323b872dd916064808201926020929091908290030181600087803b1580156120bd57600080fd5b505af11580156120d1573d6000803e3d6000fd5b505050506040513d60208110156120e757600080fd5b5051611a4c576040805162461bcd60e51b815260206004820152601760248201527f7061796d656e74207472616e73666572206661696c6564000000000000000000604482015290519081900360640190fd5b600082821115612191576040805162461bcd60e51b815260206004820152600860248201527f756e6465666c6f77000000000000000000000000000000000000000000000000604482015290519081900360640190fd5b5090039056fe6f6e6c792061646d696e2063616e207365747570206d6574615472616e73616374696f6e50726f636573736f7273a26469706673582212200ff38c5741c66b2a22a9a9ee2abe0f55626323082b6b4443921fd3b25484584a64736f6c63430006050033",
  "devdoc": {
    "methods": {
      "buyLandWithSand(address,address,address,uint256,uint256,uint256,uint256,uint256,bytes32,uint256[],bytes32[],bytes)": {
        "params": {
          "buyer": "address that perform the payment",
          "priceInSand": "price in SAND to purchase that Land",
          "proof": "merkleProof for that particular Land",
          "reserved": "the reserved address (if any)",
          "size": "size of the pack of Land to purchase",
          "to": "address that will own the purchased Land",
          "x": "x coordinate of the Land",
          "y": "y coordinate of the Land"
        }
      },
      "changeAdmin(address)": {
        "details": "change the administrator to be `newAdmin`.",
        "params": {
          "newAdmin": "address of the new administrator."
        }
      },
      "getAdmin()": {
        "details": "gives the current administrator of this contract.",
        "returns": {
          "_0": "the current administrator of this contract."
        }
      },
      "getSigningWallet()": {
        "details": "signing wallet authorized for referral",
        "returns": {
          "_0": "the address of the signing wallet"
        }
      },
      "isMetaTransactionProcessor(address)": {
        "details": "check whether address `who` is given meta-transaction execution rights.",
        "params": {
          "who": "The address to query."
        },
        "returns": {
          "_0": "whether the address has meta-transaction execution rights."
        }
      },
      "isReferralValid(bytes,address,address,uint256,uint256)": {
        "params": {
          "commissionRate": "The commissionRate of the referral",
          "expiryTime": "The expiry time of the referral",
          "referee": "The address of the referee",
          "referrer": "The address of the referrer",
          "signature": "The signature to check (signed referral)"
        },
        "returns": {
          "_0": "True if the referral is valid"
        }
      },
      "setMetaTransactionProcessor(address,bool)": {
        "details": "Enable or disable the ability of `metaTransactionProcessor` to perform meta-tx (metaTransactionProcessor rights).",
        "params": {
          "enabled": "set whether the metaTransactionProcessor is enabled or disabled.",
          "metaTransactionProcessor": "address that will be given/removed metaTransactionProcessor rights."
        }
      },
      "setReceivingWallet(address)": {
        "params": {
          "newWallet": "address of the new receiving wallet"
        }
      },
      "updateMaxCommissionRate(uint256)": {
        "details": "Update the maximum commission rate",
        "params": {
          "newMaxCommissionRate": "The new maximum commission rate"
        }
      },
      "updateSigningWallet(address)": {
        "details": "Update the signing wallet",
        "params": {
          "newSigningWallet": "The new address of the signing wallet"
        }
      },
      "withdrawAssets(address,uint256[],uint256[])": {
        "params": {
          "assetIds": "the assetIds to be transferred",
          "to": "intended recipient of the asset tokens",
          "values": "the quantities of the assetIds to be transferred"
        }
      }
    },
    "title": "Estate Sale contract with referral"
  },
  "userdoc": {
    "methods": {
      "buyLandWithSand(address,address,address,uint256,uint256,uint256,uint256,uint256,bytes32,uint256[],bytes32[],bytes)": {
        "notice": "buy Land with SAND using the merkle proof associated with it"
      },
      "getExpiryTime()": {
        "notice": "Gets the expiry time for the current sale"
      },
      "getMaxCommisionRate()": {
        "notice": "the max commision rate"
      },
      "getMerkleRoot()": {
        "notice": "Gets the Merkle root associated with the current sale"
      },
      "isReferralValid(bytes,address,address,uint256,uint256)": {
        "notice": "Check if a referral is valid"
      },
      "setReceivingWallet(address)": {
        "notice": "set the wallet receiving the proceeds"
      },
      "withdrawAssets(address,uint256[],uint256[])": {
        "notice": "enable Admin to withdraw remaining assets from EstateSaleWithFee contract"
      }
    },
    "notice": "This contract manages the sale of our lands as Estates"
  },
  "storageLayout": {
    "storage": [
      {
        "astId": 12779,
        "contract": "src/solc_0.6/EstateSale/EstateSaleWithFee.sol:EstateSaleWithFee",
        "label": "_admin",
        "offset": 0,
        "slot": "0",
        "type": "t_address"
      },
      {
        "astId": 12841,
        "contract": "src/solc_0.6/EstateSale/EstateSaleWithFee.sol:EstateSaleWithFee",
        "label": "_metaTransactionContracts",
        "offset": 0,
        "slot": "1",
        "type": "t_mapping(t_address,t_bool)"
      },
      {
        "astId": 10957,
        "contract": "src/solc_0.6/EstateSale/EstateSaleWithFee.sol:EstateSaleWithFee",
        "label": "_signingWallet",
        "offset": 0,
        "slot": "2",
        "type": "t_address"
      },
      {
        "astId": 10959,
        "contract": "src/solc_0.6/EstateSale/EstateSaleWithFee.sol:EstateSaleWithFee",
        "label": "_maxCommissionRate",
        "offset": 0,
        "slot": "3",
        "type": "t_uint256"
      },
      {
        "astId": 10963,
        "contract": "src/solc_0.6/EstateSale/EstateSaleWithFee.sol:EstateSaleWithFee",
        "label": "_previousSigningWallets",
        "offset": 0,
        "slot": "4",
        "type": "t_mapping(t_address,t_uint256)"
      },
      {
        "astId": 10972,
        "contract": "src/solc_0.6/EstateSale/EstateSaleWithFee.sol:EstateSaleWithFee",
        "label": "_previousSigningDelay",
        "offset": 0,
        "slot": "5",
        "type": "t_uint256"
      },
      {
        "astId": 7344,
        "contract": "src/solc_0.6/EstateSale/EstateSaleWithFee.sol:EstateSaleWithFee",
        "label": "_wallet",
        "offset": 0,
        "slot": "6",
        "type": "t_address_payable"
      },
      {
        "astId": 7354,
        "contract": "src/solc_0.6/EstateSale/EstateSaleWithFee.sol:EstateSaleWithFee",
        "label": "_multiplier",
        "offset": 0,
        "slot": "7",
        "type": "t_uint256"
      }
    ],
    "types": {
      "t_address": {
        "encoding": "inplace",
        "label": "address",
        "numberOfBytes": "20"
      },
      "t_address_payable": {
        "encoding": "inplace",
        "label": "address payable",
        "numberOfBytes": "20"
      },
      "t_bool": {
        "encoding": "inplace",
        "label": "bool",
        "numberOfBytes": "1"
      },
      "t_mapping(t_address,t_bool)": {
        "encoding": "mapping",
        "key": "t_address",
        "label": "mapping(address => bool)",
        "numberOfBytes": "32",
        "value": "t_bool"
      },
      "t_mapping(t_address,t_uint256)": {
        "encoding": "mapping",
        "key": "t_address",
        "label": "mapping(address => uint256)",
        "numberOfBytes": "32",
        "value": "t_uint256"
      },
      "t_uint256": {
        "encoding": "inplace",
        "label": "uint256",
        "numberOfBytes": "32"
      }
    }
  }
}