{
  "address": "0xAa24caE605aca7f87406385185B17d4eCCe4b15f",
  "abi": [
    {
      "inputs": [
        {
          "internalType": "address",
          "name": "_checkpointManager",
          "type": "address"
        },
        {
          "internalType": "address",
          "name": "_fxRoot",
          "type": "address"
        },
        {
          "internalType": "address",
          "name": "_rootToken",
          "type": "address"
        }
      ],
      "stateMutability": "nonpayable",
      "type": "constructor"
    },
    {
      "anonymous": false,
      "inputs": [
        {
          "indexed": false,
          "internalType": "address",
          "name": "user",
          "type": "address"
        },
        {
          "indexed": false,
          "internalType": "uint256",
          "name": "size",
          "type": "uint256"
        },
        {
          "indexed": false,
          "internalType": "uint256",
          "name": "x",
          "type": "uint256"
        },
        {
          "indexed": false,
          "internalType": "uint256",
          "name": "y",
          "type": "uint256"
        },
        {
          "indexed": false,
          "internalType": "bytes",
          "name": "data",
          "type": "bytes"
        }
      ],
      "name": "Deposit",
      "type": "event"
    },
    {
      "anonymous": false,
      "inputs": [
        {
          "indexed": false,
          "internalType": "address",
          "name": "user",
          "type": "address"
        },
        {
          "indexed": false,
          "internalType": "uint256",
          "name": "size",
          "type": "uint256"
        },
        {
          "indexed": false,
          "internalType": "uint256",
          "name": "x",
          "type": "uint256"
        },
        {
          "indexed": false,
          "internalType": "uint256",
          "name": "y",
          "type": "uint256"
        },
        {
          "indexed": false,
          "internalType": "bytes",
          "name": "data",
          "type": "bytes"
        }
      ],
      "name": "Withdraw",
      "type": "event"
    },
    {
      "inputs": [],
      "name": "SEND_MESSAGE_EVENT_SIG",
      "outputs": [
        {
          "internalType": "bytes32",
          "name": "",
          "type": "bytes32"
        }
      ],
      "stateMutability": "view",
      "type": "function"
    },
    {
      "inputs": [],
      "name": "checkpointManager",
      "outputs": [
        {
          "internalType": "contract ICheckpointManager",
          "name": "",
          "type": "address"
        }
      ],
      "stateMutability": "view",
      "type": "function"
    },
    {
      "inputs": [],
      "name": "fxChildTunnel",
      "outputs": [
        {
          "internalType": "address",
          "name": "",
          "type": "address"
        }
      ],
      "stateMutability": "view",
      "type": "function"
    },
    {
      "inputs": [],
      "name": "fxRoot",
      "outputs": [
        {
          "internalType": "contract IFxStateSender",
          "name": "",
          "type": "address"
        }
      ],
      "stateMutability": "view",
      "type": "function"
    },
    {
      "inputs": [
        {
          "internalType": "address",
          "name": "",
          "type": "address"
        },
        {
          "internalType": "address",
          "name": "",
          "type": "address"
        },
        {
          "internalType": "uint256",
          "name": "",
          "type": "uint256"
        },
        {
          "internalType": "bytes",
          "name": "",
          "type": "bytes"
        }
      ],
      "name": "onERC721Received",
      "outputs": [
        {
          "internalType": "bytes4",
          "name": "",
          "type": "bytes4"
        }
      ],
      "stateMutability": "pure",
      "type": "function"
    },
    {
      "inputs": [
        {
          "internalType": "bytes32",
          "name": "",
          "type": "bytes32"
        }
      ],
      "name": "processedExits",
      "outputs": [
        {
          "internalType": "bool",
          "name": "",
          "type": "bool"
        }
      ],
      "stateMutability": "view",
      "type": "function"
    },
    {
      "inputs": [
        {
          "internalType": "bytes",
          "name": "inputData",
          "type": "bytes"
        }
      ],
      "name": "receiveMessage",
      "outputs": [],
      "stateMutability": "nonpayable",
      "type": "function"
    },
    {
      "inputs": [],
      "name": "rootToken",
      "outputs": [
        {
          "internalType": "address",
          "name": "",
          "type": "address"
        }
      ],
      "stateMutability": "view",
      "type": "function"
    },
    {
      "inputs": [
        {
          "internalType": "address",
          "name": "_fxChildTunnel",
          "type": "address"
        }
      ],
      "name": "setFxChildTunnel",
      "outputs": [],
      "stateMutability": "nonpayable",
      "type": "function"
    },
    {
      "inputs": [
        {
          "internalType": "address",
          "name": "to",
          "type": "address"
        },
        {
          "internalType": "uint256",
          "name": "size",
          "type": "uint256"
        },
        {
          "internalType": "uint256",
          "name": "x",
          "type": "uint256"
        },
        {
          "internalType": "uint256",
          "name": "y",
          "type": "uint256"
        },
        {
          "internalType": "bytes",
          "name": "data",
          "type": "bytes"
        }
      ],
      "name": "transferQuadToL2",
      "outputs": [],
      "stateMutability": "nonpayable",
      "type": "function"
    }
  ],
  "transactionHash": "0x8340a43362d6151fd789167e5c5f3b9569e25883089c037a32dafd2cdc68922a",
  "args": [
    "0x2890bA17EfE978480615e330ecB65333b880928e",
    "0x3d1d3E34f7fB6D26245E6640E1c50710eFFf15bA",
    "0x85F817921665fF27b5F3265b3B0b1B19402ed270"
  ],
  "solcInputHash": "e72eda044dc41ed93cee6a087b5e1eaf",
  "bytecode": "0x60806040523480156200001157600080fd5b50604051620025c7380380620025c7833981016040819052620000349162000094565b600180546001600160a01b039485166001600160a01b031991821617909155600080549385169382169390931790925560048054919093169116179055620000dd565b80516001600160a01b03811681146200008f57600080fd5b919050565b600080600060608486031215620000a9578283fd5b620000b48462000077565b9250620000c46020850162000077565b9150620000d46040850162000077565b90509250925092565b6124da80620000ed6000396000f3fe608060405234801561001057600080fd5b50600436106100be5760003560e01c8063972c492811610076578063c0857ba01161005b578063c0857ba0146101ff578063de9b771f14610212578063f953cec714610225576100be565b8063972c4928146101d9578063aea4e49e146101ec576100be565b80631f2d0065116100a75780631f2d006514610166578063607f2d421461019157806385b6f1bf146101c4576100be565b80630e387de6146100c3578063150b7a02146100fd575b600080fd5b6100ea7f8c5261668696ce22758910d05bab8f186d6eb247ceac2af2e82c7dc17669b03681565b6040519081526020015b60405180910390f35b61013561010b366004611eef565b7f150b7a020000000000000000000000000000000000000000000000000000000095945050505050565b6040517fffffffff0000000000000000000000000000000000000000000000000000000090911681526020016100f4565b600454610179906001600160a01b031681565b6040516001600160a01b0390911681526020016100f4565b6101b461019f366004611fe7565b60036020526000908152604090205460ff1681565b60405190151581526020016100f4565b6101d76101d2366004611f89565b610238565b005b600254610179906001600160a01b031681565b6101d76101fa366004611e66565b610338565b600154610179906001600160a01b031681565b600054610179906001600160a01b031681565b6101d761023336600461204b565b6103f6565b600480546040517f38bb305a0000000000000000000000000000000000000000000000000000000081526001600160a01b03909116916338bb305a9161028a91339130918a918a918a918a910161210a565b600060405180830381600087803b1580156102a457600080fd5b505af11580156102b8573d6000803e3d6000fd5b50505050600085858585856040516020016102d7959493929190612176565b60405160208183030381529060405290506102f181610410565b7f86beac9ed9e1aa4efb77b948567a4c352c177bb58b134f4c9d0d92c2c8ffbfb18686868686604051610328959493929190612176565b60405180910390a1505050505050565b6002546001600160a01b0316156103bc5760405162461bcd60e51b815260206004820152602a60248201527f467842617365526f6f7454756e6e656c3a204348494c445f54554e4e454c5f4160448201527f4c52454144595f5345540000000000000000000000000000000000000000000060648201526084015b60405180910390fd5b600280547fffffffffffffffffffffffff0000000000000000000000000000000000000000166001600160a01b0392909216919091179055565b600061040182610494565b905061040c816107e5565b5050565b6000546002546040517fb47204770000000000000000000000000000000000000000000000000000000081526001600160a01b039283169263b47204779261045f929116908590600401612154565b600060405180830381600087803b15801561047957600080fd5b505af115801561048d573d6000803e3d6000fd5b5050505050565b606060006104a1836108ca565b905060006104ae82610929565b905060006104bb83610966565b90506000816104c98461099d565b6104d286610bc3565b6040516020016104e4939291906120dd565b60408051601f1981840301815291815281516020928301206000818152600390935291205490915060ff16156105815760405162461bcd60e51b8152602060048201526024808201527f4678526f6f7454756e6e656c3a20455849545f414c52454144595f50524f434560448201527f535345440000000000000000000000000000000000000000000000000000000060648201526084016103b3565b600081815260036020526040812080547fffffffffffffffffffffffffffffffffffffffffffffffffffffffffffffff001660011790556105c185610bed565b905060006105ce82610d53565b90506105d981610dff565b6002546001600160a01b0390811691161461065c5760405162461bcd60e51b815260206004820152602560248201527f4678526f6f7454756e6e656c3a20494e56414c49445f46585f4348494c445f5460448201527f554e4e454c00000000000000000000000000000000000000000000000000000060648201526084016103b3565b600061066787610e36565b9050610687610677846020015190565b876106818a610e60565b84610e8a565b6106f95760405162461bcd60e51b815260206004820152602360248201527f4678526f6f7454756e6e656c3a20494e56414c49445f524543454950545f505260448201527f4f4f46000000000000000000000000000000000000000000000000000000000060648201526084016103b3565b61072785610706896111b1565b61070f8a6111db565b846107198c611205565b6107228d61122f565b611259565b506000610733836113a7565b90507f8c5261668696ce22758910d05bab8f186d6eb247ceac2af2e82c7dc17669b0366107696107648360006113f1565b611437565b146107b65760405162461bcd60e51b815260206004820152601f60248201527f4678526f6f7454756e6e656c3a20494e56414c49445f5349474e41545552450060448201526064016103b3565b60006107c1846114b2565b8060200190518101906107d4919061207e565b99505050505050505050505b919050565b6000806000806000858060200190518101906108019190611e82565b600480546040517f38bb305a000000000000000000000000000000000000000000000000000000008152969b5094995092975090955093506001600160a01b03909116916338bb305a916108619130918a918a918a918a918a910161210a565b600060405180830381600087803b15801561087b57600080fd5b505af115801561088f573d6000803e3d6000fd5b505050507f91ee42a3ae048785d7370790775b6bf02c58c5d7bfb5de80f6d7cb27e46a207e8585858585604051610328959493929190612176565b604080516020810190915260608152600061091461090f8460408051808201825260008082526020918201528151808301909252825182529182019181019190915290565b6114dc565b60408051602081019091529081529392505050565b6060610960826000015160088151811061095357634e487b7160e01b600052603260045260246000fd5b602002602001015161160e565b92915050565b6000610960826000015160028151811061099057634e487b7160e01b600052603260045260246000fd5b6020026020010151611437565b60408051602081019091526000815281516060919015610960576000806109c56000866116b9565b60f81c905060018114806109dc57508060ff166003145b15610ab8576001855160026109f19190612370565b6109fb919061238f565b67ffffffffffffffff811115610a2157634e487b7160e01b600052604160045260246000fd5b6040519080825280601f01601f191660200182016040528015610a4b576020820181803683370190505b5092506000610a5b6001876116b9565b90508084600081518110610a7f57634e487b7160e01b600052603260045260246000fd5b60200101907effffffffffffffffffffffffffffffffffffffffffffffffffffffffffffff1916908160001a9053506001925050610b2a565b600285516002610ac89190612370565b610ad2919061238f565b67ffffffffffffffff811115610af857634e487b7160e01b600052604160045260246000fd5b6040519080825280601f01601f191660200182016040528015610b22576020820181803683370190505b509250600091505b60ff82165b8351811015610bba57610b59610b4860ff85168361238f565b610b5390600261220e565b876116b9565b848281518110610b7957634e487b7160e01b600052603260045260246000fd5b60200101907effffffffffffffffffffffffffffffffffffffffffffffffffffffffffffff1916908160001a90535080610bb2816123f9565b915050610b2f565b50505092915050565b6000610960826000015160098151811061099057634e487b7160e01b600052603260045260246000fd5b610c1160405180606001604052806060815260200160608152602001600081525090565b610c39826000015160068151811061095357634e487b7160e01b600052603260045260246000fd5b602082810182905260408051808201825260008082529083015280518082019091528251815291810190820152610c6f81611756565b15610c8457610c7d816114dc565b8252610d3f565b60208201518051600090610c9a9060019061238f565b67ffffffffffffffff811115610cc057634e487b7160e01b600052604160045260246000fd5b6040519080825280601f01601f191660200182016040528015610cea576020820181803683370190505b509050600080836021019150826020019050610d0882828551611790565b604080518082018252600080825260209182015281518083019092528451825280850190820152610d389061090f565b8652505050505b610d4883610bc3565b604083015250919050565b604080516080810182526000918101828152606080830193909352815260208101919091526000610daf8360000151600381518110610da257634e487b7160e01b600052603260045260246000fd5b60200260200101516114dc565b836040015181518110610dd257634e487b7160e01b600052603260045260246000fd5b602002602001015190506040518060400160405280828152602001610df6836114dc565b90529392505050565b60006109608260200151600081518110610e2957634e487b7160e01b600052603260045260246000fd5b602002602001015161180a565b6000610960826000015160058151811061099057634e487b7160e01b600052603260045260246000fd5b6060610960826000015160078151811061095357634e487b7160e01b600052603260045260246000fd5b600080610ebe8460408051808201825260008082526020918201528151808301909252825182529182019181019190915290565b90506000610ecb826114dc565b905060608085600080610edd8b61099d565b9050805160001415610ef95760009750505050505050506111a9565b60005b86518110156111a0578151831115610f1f576000985050505050505050506111a9565b610f4f878281518110610f4257634e487b7160e01b600052603260045260246000fd5b6020026020010151611824565b955085805190602001208414610f70576000985050505050505050506111a9565b610f93878281518110610da257634e487b7160e01b600052603260045260246000fd5b9450845160111415611092578151831415611003578c80519060200120610fd48660108151811061095357634e487b7160e01b600052603260045260246000fd5b805190602001201415610ff2576001985050505050505050506111a9565b6000985050505050505050506111a9565b600082848151811061102557634e487b7160e01b600052603260045260246000fd5b016020015160f81c9050601081111561104a57600099505050505050505050506111a9565b61107d868260ff168151811061107057634e487b7160e01b600052603260045260246000fd5b60200260200101516118b3565b945061108a60018561220e565b93505061118e565b845160021415610ff25760006110cc6110c58760008151811061095357634e487b7160e01b600052603260045260246000fd5b84866118e1565b83519091506110db828661220e565b141561113e578d8051906020012061110d8760018151811061095357634e487b7160e01b600052603260045260246000fd5b80519060200120141561112c57600199505050505050505050506111a9565b600099505050505050505050506111a9565b8061115557600099505050505050505050506111a9565b61115f818561220e565b93506111858660018151811061107057634e487b7160e01b600052603260045260246000fd5b945061118e9050565b80611198816123f9565b915050610efc565b50505050505050505b949350505050565b6000610960826000015160038151811061099057634e487b7160e01b600052603260045260246000fd5b6000610960826000015160048151811061099057634e487b7160e01b600052603260045260246000fd5b6000610960826000015160008151811061099057634e487b7160e01b600052603260045260246000fd5b6060610960826000015160018151811061095357634e487b7160e01b600052603260045260246000fd5b6001546040517f41539d4a000000000000000000000000000000000000000000000000000000008152600481018490526000918291829182916001600160a01b03909116906341539d4a9060240160a06040518083038186803b1580156112bf57600080fd5b505afa1580156112d3573d6000803e3d6000fd5b505050506040513d601f19601f820116820180604052508101906112f79190611fff565b509350509250925061134e828b61130e919061238f565b6040805160208082018f90528183018e9052606082018d905260808083018d90528351808403909101815260a09092019092528051910120908588611a46565b61139a5760405162461bcd60e51b815260206004820152601c60248201527f4678526f6f7454756e6e656c3a20494e56414c49445f4845414445520000000060448201526064016103b3565b9998505050505050505050565b60408051602081019091526060815260405180602001604052806113e98460200151600181518110610da257634e487b7160e01b600052603260045260246000fd5b905292915050565b6040805180820190915260008082526020820152825180518390811061142757634e487b7160e01b600052603260045260246000fd5b6020026020010151905092915050565b80516000901580159061144c57508151602110155b61145557600080fd5b60006114648360200151611bbc565b90506000818460000151611478919061238f565b905060008083866020015161148d919061220e565b90508051915060208310156114a957826020036101000a820491505b50949350505050565b6060610960826020015160028151811061095357634e487b7160e01b600052603260045260246000fd5b60606114e782611756565b6114f057600080fd5b60006114fb83611c41565b905060008167ffffffffffffffff81111561152657634e487b7160e01b600052604160045260246000fd5b60405190808252806020026020018201604052801561156b57816020015b60408051808201909152600080825260208201528152602001906001900390816115445790505b509050600061157d8560200151611bbc565b856020015161158c919061220e565b90506000805b84811015611603576115a383611cc4565b91506040518060400160405280838152602001848152508482815181106115da57634e487b7160e01b600052603260045260246000fd5b60209081029190910101526115ef828461220e565b9250806115fb816123f9565b915050611592565b509195945050505050565b805160609061161c57600080fd5b600061162b8360200151611bbc565b9050600081846000015161163f919061238f565b905060008167ffffffffffffffff81111561166a57634e487b7160e01b600052604160045260246000fd5b6040519080825280601f01601f191660200182016040528015611694576020820181803683370190505b50905060008160200190506114a98487602001516116b2919061220e565b8285611d86565b60006116c6600284612414565b1561170e576010826116d9600286612226565b815181106116f757634e487b7160e01b600052603260045260246000fd5b0160200151611709919060f81c612428565b61174c565b60108261171c600286612226565b8151811061173a57634e487b7160e01b600052603260045260246000fd5b016020015161174c919060f81c61223a565b60f81b9392505050565b8051600090611767575060006107e0565b6020820151805160001a9060c0821015611786576000925050506107e0565b5060019392505050565b8061179a57611805565b602081106117d257825182526117b160208461220e565b92506117be60208361220e565b91506117cb60208261238f565b905061179a565b600060016117e183602061238f565b6117ed906101006122a2565b6117f7919061238f565b845184518216911916178352505b505050565b805160009060151461181b57600080fd5b61096082611437565b60606000826000015167ffffffffffffffff81111561185357634e487b7160e01b600052604160045260246000fd5b6040519080825280601f01601f19166020018201604052801561187d576020820181803683370190505b5090508051600014156118915790506107e0565b60008160200190506118ac8460200151828660000151611d86565b5092915050565b80516000906021146118c457600080fd5b600080836020015160016118d8919061220e565b51949350505050565b600080806118ee8661099d565b90506000815167ffffffffffffffff81111561191a57634e487b7160e01b600052604160045260246000fd5b6040519080825280601f01601f191660200182016040528015611944576020820181803683370190505b509050845b8251611955908761220e565b811015611a1457600087828151811061197e57634e487b7160e01b600052603260045260246000fd5b01602001517fff0000000000000000000000000000000000000000000000000000000000000016905080836119b3898561238f565b815181106119d157634e487b7160e01b600052603260045260246000fd5b60200101907effffffffffffffffffffffffffffffffffffffffffffffffffffffffffffff1916908160001a905350508080611a0c906123f9565b915050611949565b50808051906020012082805190602001201415611a345781519250611a39565b600092505b50909150505b9392505050565b600060208251611a569190612414565b15611aa35760405162461bcd60e51b815260206004820152601460248201527f496e76616c69642070726f6f66206c656e67746800000000000000000000000060448201526064016103b3565b600060208351611ab39190612226565b9050611ac08160026122a2565b8510611b0e5760405162461bcd60e51b815260206004820152601560248201527f4c65616620696e64657820697320746f6f20626967000000000000000000000060448201526064016103b3565b60008660205b85518111611bae57858101519250611b2d600289612414565b611b62576040805160208101849052908101849052606001604051602081830303815290604052805190602001209150611b8f565b60408051602081018590529081018390526060016040516020818303038152906040528051906020012091505b611b9a600289612226565b9750611ba760208261220e565b9050611b14565b509094149695505050505050565b8051600090811a6080811015611bd65760009150506107e0565b60b8811080611bf1575060c08110801590611bf1575060f881105b15611c005760019150506107e0565b60c0811015611c3557611c15600160b86123a6565b611c229060ff168261238f565b611c2d90600161220e565b9150506107e0565b611c15600160f86123a6565b8051600090611c52575060006107e0565b600080611c628460200151611bbc565b8460200151611c71919061220e565b9050600084600001518560200151611c89919061220e565b90505b80821015611cbb57611c9d82611cc4565b611ca7908361220e565b915082611cb3816123f9565b935050611c8c565b50909392505050565b80516000908190811a6080811015611cdf57600191506118ac565b60b8811015611d0557611cf360808261238f565b611cfe90600161220e565b91506118ac565b60c0811015611d325760b78103600185019450806020036101000a855104600182018101935050506118ac565b60f8811015611d4657611cf360c08261238f565b60019390930151602084900360f7016101000a90049092017fffffffffffffffffffffffffffffffffffffffffffffffffffffffffffffff0a0192915050565b80611d9057611805565b60208110611dc85782518252611da760208461220e565b9250611db460208361220e565b9150611dc160208261238f565b9050611d90565b806117d257611805565b600082601f830112611de2578081fd5b8135611df5611df0826121e6565b6121b5565b818152846020838601011115611e09578283fd5b816020850160208301379081016020019190915292915050565b600082601f830112611e33578081fd5b8151611e41611df0826121e6565b818152846020838601011115611e55578283fd5b6111a98260208301602087016123c9565b600060208284031215611e77578081fd5b8135611a3f8161248c565b600080600080600060a08688031215611e99578081fd5b8551611ea48161248c565b80955050602086015193506040860151925060608601519150608086015167ffffffffffffffff811115611ed6578182fd5b611ee288828901611e23565b9150509295509295909350565b600080600080600060808688031215611f06578081fd5b8535611f118161248c565b94506020860135611f218161248c565b935060408601359250606086013567ffffffffffffffff80821115611f44578283fd5b818801915088601f830112611f57578283fd5b813581811115611f65578384fd5b896020828501011115611f76578384fd5b9699959850939650602001949392505050565b600080600080600060a08688031215611fa0578081fd5b8535611fab8161248c565b9450602086013593506040860135925060608601359150608086013567ffffffffffffffff811115611fdb578182fd5b611ee288828901611dd2565b600060208284031215611ff8578081fd5b5035919050565b600080600080600060a08688031215612016578081fd5b85519450602086015193506040860151925060608601519150608086015161203d8161248c565b809150509295509295909350565b60006020828403121561205c578081fd5b813567ffffffffffffffff811115612072578182fd5b6111a984828501611dd2565b60006020828403121561208f578081fd5b815167ffffffffffffffff8111156120a5578182fd5b6111a984828501611e23565b600081518084526120c98160208601602086016123c9565b601f01601f19169290920160200192915050565b600084825283516120f58160208501602088016123c9565b60209201918201929092526040019392505050565b60006001600160a01b03808916835280881660208401525085604083015284606083015283608083015260c060a083015261214860c08301846120b1565b98975050505050505050565b60006001600160a01b0384168252604060208301526111a960408301846120b1565b60006001600160a01b038716825285602083015284604083015283606083015260a060808301526121aa60a08301846120b1565b979650505050505050565b604051601f8201601f1916810167ffffffffffffffff811182821017156121de576121de612476565b604052919050565b600067ffffffffffffffff82111561220057612200612476565b50601f01601f191660200190565b600082198211156122215761222161244a565b500190565b60008261223557612235612460565b500490565b600060ff83168061224d5761224d612460565b8060ff84160491505092915050565b80825b600180861161226e5750612299565b8187048211156122805761228061244a565b8086161561228d57918102915b9490941c93800261225f565b94509492505050565b6000611a3f60001984846000826122bb57506001611a3f565b816122c857506000611a3f565b81600181146122de57600281146122e857612315565b6001915050611a3f565b60ff8411156122f9576122f961244a565b6001841b91508482111561230f5761230f61244a565b50611a3f565b5060208310610133831016604e8410600b8410161715612348575081810a838111156123435761234361244a565b611a3f565b612355848484600161225c565b8086048211156123675761236761244a565b02949350505050565b600081600019048311821515161561238a5761238a61244a565b500290565b6000828210156123a1576123a161244a565b500390565b600060ff821660ff8416808210156123c0576123c061244a565b90039392505050565b60005b838110156123e45781810151838201526020016123cc565b838111156123f3576000848401525b50505050565b600060001982141561240d5761240d61244a565b5060010190565b60008261242357612423612460565b500690565b600060ff83168061243b5761243b612460565b8060ff84160691505092915050565b634e487b7160e01b600052601160045260246000fd5b634e487b7160e01b600052601260045260246000fd5b634e487b7160e01b600052604160045260246000fd5b6001600160a01b03811681146124a157600080fd5b5056fea2646970667358221220d90f1c287b3c4c9964b02c9055ec72aac20d46e62120d8e46343a2774d1816d564736f6c63430008020033",
  "devdoc": {
    "kind": "dev",
    "methods": {
      "receiveMessage(bytes)": {
        "details": "This function verifies if the transaction actually happened on child chain",
        "params": {
          "inputData": "RLP encoded data of the reference tx containing following list of fields  0 - headerNumber - Checkpoint header block number containing the reference tx  1 - blockProof - Proof that the block header (in the child chain) is a leaf in the submitted merkle root  2 - blockNumber - Block number containing the reference tx on child chain  3 - blockTime - Reference tx block time  4 - txRoot - Transactions root of block  5 - receiptRoot - Receipts root of block  6 - receipt - Receipt of the reference transaction  7 - receiptProof - Merkle proof of the reference receipt  8 - branchMask - 32 bits denoting the path of receipt in merkle tree  9 - receiptLogIndex - Log Index to read from the receipt"
        }
      }
    },
    "version": 1
  },
  "userdoc": {
    "kind": "user",
    "methods": {
      "receiveMessage(bytes)": {
        "notice": "receive message from  L2 to L1, validated by proof"
      }
    },
    "version": 1
  },
  "storageLayout": {
    "storage": [
      {
        "astId": 3901,
        "contract": "src/solc_0.8/polygon/root/land/LandTunnel.sol:LandTunnel",
        "label": "fxRoot",
        "offset": 0,
        "slot": "0",
        "type": "t_contract(IFxStateSender)3851"
      },
      {
        "astId": 3904,
        "contract": "src/solc_0.8/polygon/root/land/LandTunnel.sol:LandTunnel",
        "label": "checkpointManager",
        "offset": 0,
        "slot": "1",
        "type": "t_contract(ICheckpointManager)3869"
      },
      {
        "astId": 3906,
        "contract": "src/solc_0.8/polygon/root/land/LandTunnel.sol:LandTunnel",
        "label": "fxChildTunnel",
        "offset": 0,
        "slot": "2",
        "type": "t_address"
      },
      {
        "astId": 3910,
        "contract": "src/solc_0.8/polygon/root/land/LandTunnel.sol:LandTunnel",
        "label": "processedExits",
        "offset": 0,
        "slot": "3",
        "type": "t_mapping(t_bytes32,t_bool)"
      },
      {
        "astId": 34910,
        "contract": "src/solc_0.8/polygon/root/land/LandTunnel.sol:LandTunnel",
        "label": "rootToken",
        "offset": 0,
        "slot": "4",
        "type": "t_address"
      }
    ],
    "types": {
      "t_address": {
        "encoding": "inplace",
        "label": "address",
        "numberOfBytes": "20"
      },
      "t_bool": {
        "encoding": "inplace",
        "label": "bool",
        "numberOfBytes": "1"
      },
      "t_bytes32": {
        "encoding": "inplace",
        "label": "bytes32",
        "numberOfBytes": "32"
      },
      "t_contract(ICheckpointManager)3869": {
        "encoding": "inplace",
        "label": "contract ICheckpointManager",
        "numberOfBytes": "20"
      },
      "t_contract(IFxStateSender)3851": {
        "encoding": "inplace",
        "label": "contract IFxStateSender",
        "numberOfBytes": "20"
      },
      "t_mapping(t_bytes32,t_bool)": {
        "encoding": "mapping",
        "key": "t_bytes32",
        "label": "mapping(bytes32 => bool)",
        "numberOfBytes": "32",
        "value": "t_bool"
      }
    }
  }
}