{
  "address": "0x22a65e0f49d6482B030E1c4456e79Aae212f938C",
  "abi": [
    {
      "inputs": [
        {
          "internalType": "address",
          "name": "landAddress",
          "type": "address"
        },
        {
          "internalType": "address",
          "name": "sandContractAddress",
          "type": "address"
        },
        {
          "internalType": "address",
          "name": "initialMetaTx",
          "type": "address"
        },
        {
          "internalType": "address",
          "name": "admin",
          "type": "address"
        },
        {
          "internalType": "address payable",
          "name": "initialWalletAddress",
          "type": "address"
        },
        {
          "internalType": "bytes32",
          "name": "merkleRoot",
          "type": "bytes32"
        },
        {
          "internalType": "uint256",
          "name": "expiryTime",
          "type": "uint256"
        },
        {
          "internalType": "address",
          "name": "initialSigningWallet",
          "type": "address"
        },
        {
          "internalType": "uint256",
          "name": "initialMaxCommissionRate",
          "type": "uint256"
        },
        {
          "internalType": "address",
          "name": "estate",
          "type": "address"
        },
        {
          "internalType": "address",
          "name": "asset",
          "type": "address"
        },
        {
          "internalType": "address",
          "name": "feeDistributor",
          "type": "address"
        },
        {
          "internalType": "address",
          "name": "authValidator",
          "type": "address"
        }
      ],
      "stateMutability": "nonpayable",
      "type": "constructor"
    },
    {
      "anonymous": false,
      "inputs": [
        {
          "indexed": false,
          "internalType": "address",
          "name": "oldAdmin",
          "type": "address"
        },
        {
          "indexed": false,
          "internalType": "address",
          "name": "newAdmin",
          "type": "address"
        }
      ],
      "name": "AdminChanged",
      "type": "event"
    },
    {
      "anonymous": false,
      "inputs": [
        {
          "indexed": true,
          "internalType": "address",
          "name": "buyer",
          "type": "address"
        },
        {
          "indexed": true,
          "internalType": "address",
          "name": "to",
          "type": "address"
        },
        {
          "indexed": true,
          "internalType": "uint256",
          "name": "topCornerId",
          "type": "uint256"
        },
        {
          "indexed": false,
          "internalType": "uint256",
          "name": "size",
          "type": "uint256"
        },
        {
          "indexed": false,
          "internalType": "uint256",
          "name": "price",
          "type": "uint256"
        },
        {
          "indexed": false,
          "internalType": "address",
          "name": "token",
          "type": "address"
        },
        {
          "indexed": false,
          "internalType": "uint256",
          "name": "amountPaid",
          "type": "uint256"
        }
      ],
      "name": "LandQuadPurchased",
      "type": "event"
    },
    {
      "anonymous": false,
      "inputs": [
        {
          "indexed": false,
          "internalType": "address",
          "name": "metaTransactionProcessor",
          "type": "address"
        },
        {
          "indexed": false,
          "internalType": "bool",
          "name": "enabled",
          "type": "bool"
        }
      ],
      "name": "MetaTransactionProcessor",
      "type": "event"
    },
    {
      "anonymous": false,
      "inputs": [
        {
          "indexed": true,
          "internalType": "address",
          "name": "referrer",
          "type": "address"
        },
        {
          "indexed": true,
          "internalType": "address",
          "name": "referee",
          "type": "address"
        },
        {
          "indexed": true,
          "internalType": "address",
          "name": "token",
          "type": "address"
        },
        {
          "indexed": false,
          "internalType": "uint256",
          "name": "amount",
          "type": "uint256"
        },
        {
          "indexed": false,
          "internalType": "uint256",
          "name": "commission",
          "type": "uint256"
        },
        {
          "indexed": false,
          "internalType": "uint256",
          "name": "commissionRate",
          "type": "uint256"
        }
      ],
      "name": "ReferralUsed",
      "type": "event"
    },
    {
      "inputs": [
        {
          "internalType": "address",
          "name": "buyer",
          "type": "address"
        },
        {
          "internalType": "address",
          "name": "to",
          "type": "address"
        },
        {
          "internalType": "address",
          "name": "reserved",
          "type": "address"
        },
        {
          "internalType": "uint256[]",
          "name": "info",
          "type": "uint256[]"
        },
        {
          "internalType": "bytes32",
          "name": "salt",
          "type": "bytes32"
        },
        {
          "internalType": "uint256[]",
          "name": "assetIds",
          "type": "uint256[]"
        },
        {
          "internalType": "bytes32[]",
          "name": "proof",
          "type": "bytes32[]"
        },
        {
          "internalType": "bytes",
          "name": "referral",
          "type": "bytes"
        },
        {
          "internalType": "bytes",
          "name": "signature",
          "type": "bytes"
        }
      ],
      "name": "buyLandWithSand",
      "outputs": [],
      "stateMutability": "nonpayable",
      "type": "function"
    },
    {
      "inputs": [
        {
          "internalType": "address",
          "name": "newAdmin",
          "type": "address"
        }
      ],
      "name": "changeAdmin",
      "outputs": [],
      "stateMutability": "nonpayable",
      "type": "function"
    },
    {
      "inputs": [
        {
          "internalType": "bytes",
          "name": "referral",
          "type": "bytes"
        }
      ],
      "name": "decodeReferral",
      "outputs": [
        {
          "internalType": "bytes",
          "name": "",
          "type": "bytes"
        },
        {
          "internalType": "address",
          "name": "",
          "type": "address"
        },
        {
          "internalType": "address",
          "name": "",
          "type": "address"
        },
        {
          "internalType": "uint256",
          "name": "",
          "type": "uint256"
        },
        {
          "internalType": "uint256",
          "name": "",
          "type": "uint256"
        }
      ],
      "stateMutability": "pure",
      "type": "function"
    },
    {
      "inputs": [],
      "name": "getAdmin",
      "outputs": [
        {
          "internalType": "address",
          "name": "",
          "type": "address"
        }
      ],
      "stateMutability": "view",
      "type": "function"
    },
    {
      "inputs": [],
      "name": "getExpiryTime",
      "outputs": [
        {
          "internalType": "uint256",
          "name": "",
          "type": "uint256"
        }
      ],
      "stateMutability": "view",
      "type": "function"
    },
    {
      "inputs": [],
      "name": "getMaxCommisionRate",
      "outputs": [
        {
          "internalType": "uint256",
          "name": "",
          "type": "uint256"
        }
      ],
      "stateMutability": "view",
      "type": "function"
    },
    {
      "inputs": [],
      "name": "getMerkleRoot",
      "outputs": [
        {
          "internalType": "bytes32",
          "name": "",
          "type": "bytes32"
        }
      ],
      "stateMutability": "view",
      "type": "function"
    },
    {
      "inputs": [],
      "name": "getSigningWallet",
      "outputs": [
        {
          "internalType": "address",
          "name": "",
          "type": "address"
        }
      ],
      "stateMutability": "view",
      "type": "function"
    },
    {
      "inputs": [
        {
          "internalType": "address",
          "name": "who",
          "type": "address"
        }
      ],
      "name": "isMetaTransactionProcessor",
      "outputs": [
        {
          "internalType": "bool",
          "name": "",
          "type": "bool"
        }
      ],
      "stateMutability": "view",
      "type": "function"
    },
    {
      "inputs": [
        {
          "internalType": "bytes",
          "name": "signature",
          "type": "bytes"
        },
        {
          "internalType": "address",
          "name": "referrer",
          "type": "address"
        },
        {
          "internalType": "address",
          "name": "referee",
          "type": "address"
        },
        {
          "internalType": "uint256",
          "name": "expiryTime",
          "type": "uint256"
        },
        {
          "internalType": "uint256",
          "name": "commissionRate",
          "type": "uint256"
        }
      ],
      "name": "isReferralValid",
      "outputs": [
        {
          "internalType": "bool",
          "name": "",
          "type": "bool"
        }
      ],
      "stateMutability": "view",
      "type": "function"
    },
    {
      "inputs": [
        {
          "internalType": "address",
          "name": "",
          "type": "address"
        },
        {
          "internalType": "address",
          "name": "",
          "type": "address"
        },
        {
          "internalType": "uint256[]",
          "name": "",
          "type": "uint256[]"
        },
        {
          "internalType": "uint256[]",
          "name": "",
          "type": "uint256[]"
        },
        {
          "internalType": "bytes",
          "name": "",
          "type": "bytes"
        }
      ],
      "name": "onERC1155BatchReceived",
      "outputs": [
        {
          "internalType": "bytes4",
          "name": "",
          "type": "bytes4"
        }
      ],
      "stateMutability": "pure",
      "type": "function"
    },
    {
      "inputs": [
        {
          "internalType": "address",
          "name": "",
          "type": "address"
        },
        {
          "internalType": "address",
          "name": "",
          "type": "address"
        },
        {
          "internalType": "uint256",
          "name": "",
          "type": "uint256"
        },
        {
          "internalType": "uint256",
          "name": "",
          "type": "uint256"
        },
        {
          "internalType": "bytes",
          "name": "",
          "type": "bytes"
        }
      ],
      "name": "onERC1155Received",
      "outputs": [
        {
          "internalType": "bytes4",
          "name": "",
          "type": "bytes4"
        }
      ],
      "stateMutability": "pure",
      "type": "function"
    },
    {
      "inputs": [
        {
          "internalType": "address",
          "name": "metaTransactionProcessor",
          "type": "address"
        },
        {
          "internalType": "bool",
          "name": "enabled",
          "type": "bool"
        }
      ],
      "name": "setMetaTransactionProcessor",
      "outputs": [],
      "stateMutability": "nonpayable",
      "type": "function"
    },
    {
      "inputs": [
        {
          "internalType": "address payable",
          "name": "newWallet",
          "type": "address"
        }
      ],
      "name": "setReceivingWallet",
      "outputs": [],
      "stateMutability": "nonpayable",
      "type": "function"
    },
    {
      "inputs": [
        {
          "internalType": "uint256",
          "name": "newMaxCommissionRate",
          "type": "uint256"
        }
      ],
      "name": "updateMaxCommissionRate",
      "outputs": [],
      "stateMutability": "nonpayable",
      "type": "function"
    },
    {
      "inputs": [
        {
          "internalType": "address",
          "name": "newSigningWallet",
          "type": "address"
        }
      ],
      "name": "updateSigningWallet",
      "outputs": [],
      "stateMutability": "nonpayable",
      "type": "function"
    },
    {
      "inputs": [
        {
          "internalType": "address",
          "name": "to",
          "type": "address"
        },
        {
          "internalType": "uint256[]",
          "name": "assetIds",
          "type": "uint256[]"
        },
        {
          "internalType": "uint256[]",
          "name": "values",
          "type": "uint256[]"
        }
      ],
      "name": "withdrawAssets",
      "outputs": [],
      "stateMutability": "nonpayable",
      "type": "function"
    }
  ],
  "transactionHash": "0x7c5a224dd4ec0ce322ac94f0d205403bad7a7778286ce12c0b62c05318672264",
  "args": [
    "0xa4C4A09cA320AfBaE81659982dE88CC63466bB51",
    "0x32F3e11d8d9B9dc50e19D41c0ED868283824767B",
    "0x32F3e11d8d9B9dc50e19D41c0ED868283824767B",
    "0x39D01ecc951C2c1f20ba0549e62212659c4d1e06",
    "0xF22455c7F2a81E197AecD951F588a9B650f5b282",
    "0x76493c6a50c0d54c93176ace958064ea3afe42045734bf8bd61207faa657ce0e",
    1681477200,
    "0xB7060D3FeCAC3AE1F0A0AA416E3e8E472257950e",
    2000,
    "0x0000000000000000000000000000000000000000",
    "0xf050cDB34C8f39d24eD12678Dc5Ab32BE8672AfE",
    "0x0977f5050c8158b277F93216f851e83a467ED9c9",
    "0xD3999edf36481d8f6636BB41fbdC936eA4BF5658"
  ],
  "numDeployments": 1,
  "linkedData": [
    {
      "x": 270,
      "y": 201,
      "size": 1,
      "price": "1011000000000000000000",
      "reserved": "",
      "salt": "0xb18259754319d0774c476f1003138b9ffcf412e0e1b29a606c6b1dd15093472c",
      "assetIds": []
    },
    {
      "x": 270,
      "y": 202,
      "size": 1,
      "price": "1011000000000000000000",
      "reserved": "",
      "salt": "0x130b7aa78c7a59fc1922965e148c616dad9cdf027b98105b4d897fccf3928f2e",
      "assetIds": []
    },
    {
      "x": 270,
      "y": 203,
      "size": 1,
      "price": "1011000000000000000000",
      "reserved": "",
      "salt": "0xcdc69ee2a96882c320a763f6069e96a89f420839df2c7e06805cabc0342cc987",
      "assetIds": []
    },
    {
      "x": 271,
      "y": 201,
      "size": 1,
      "price": "1011000000000000000000",
      "reserved": "",
      "salt": "0xab140c82269d53ead345fab249fce5bd29e14181fb4050deadc22c82eaf3d458",
      "assetIds": []
    },
    {
      "x": 271,
      "y": 202,
      "size": 1,
      "price": "1011000000000000000000",
      "reserved": "",
      "salt": "0x6d08d50213640e5c7b1af201e3a26db5d1bc0ca5407ce14a11d059923816ffec",
      "assetIds": []
    },
    {
      "x": 271,
      "y": 203,
      "size": 1,
      "price": "1011000000000000000000",
      "reserved": "",
      "salt": "0xc65f82e2d221f691cfd4f4ff5cd27ee55ba8e17417c7a69ab533eb1c070d28e1",
      "assetIds": []
    },
    {
      "x": 272,
      "y": 201,
      "size": 1,
      "price": "1011000000000000000000",
      "reserved": "",
      "salt": "0xbee37ec659071e6fc6547d556807927dbe63890c56cfb3c0962220ae8af3d33f",
      "assetIds": []
    },
    {
      "x": 272,
      "y": 202,
      "size": 1,
      "price": "1011000000000000000000",
      "reserved": "",
      "salt": "0xde9ddee188c81df13822afd5d1318a8147a2321f0da712f408d70c2ce989f91a",
      "assetIds": []
    },
    {
      "x": 272,
      "y": 203,
      "size": 1,
      "price": "1011000000000000000000",
      "reserved": "",
      "salt": "0x8111305196739adf366f07a9575748e200979d88c31b3858988bc2c3d55893a5",
      "assetIds": []
    },
    {
      "x": 273,
      "y": 192,
      "size": 1,
      "price": "1011000000000000000000",
      "reserved": "",
      "salt": "0xb6424fae18c85a7282081877b3986c2b3844b0831e3215792ff9f55adf0e4a4b",
      "assetIds": []
    },
    {
      "x": 273,
      "y": 193,
      "size": 1,
      "price": "1011000000000000000000",
      "reserved": "",
      "salt": "0x40d5fae057fb1eca293dde5fcce2ae72112ac4d8cd61901227794b639db15b19",
      "assetIds": []
    },
    {
      "x": 273,
      "y": 194,
      "size": 1,
      "price": "1011000000000000000000",
      "reserved": "",
      "salt": "0xc8acb0df882a3be049b47a61a25995a5013301fcf737be0e3ff686f48f4faea0",
      "assetIds": []
    },
    {
      "x": 273,
      "y": 195,
      "size": 1,
      "price": "4683000000000000000000",
      "reserved": "",
      "salt": "0xfd17e3eb0e20c9ed3d34550173e4f83d766e7fa109b8d56f6e12d046a6e50fb3",
      "assetIds": [
        "41506478881403507969696680653240014914910929820314476107906210059990541021185"
      ]
    },
    {
      "x": 273,
      "y": 196,
      "size": 1,
      "price": "4683000000000000000000",
      "reserved": "",
      "salt": "0xc358f9badd5921df86f10b5e9634705ea44041b69ac21340080e2add8c57328b",
      "assetIds": [
        "41506478881403507969696680653240014914910929820314476107906210059990541021185"
      ]
    },
    {
      "x": 273,
      "y": 197,
      "size": 1,
      "price": "4683000000000000000000",
      "reserved": "",
      "salt": "0x6c0972363e6a04e19bca4b9f2e1b0979f121ff171a25b8736b4c3e19336b54b8",
      "assetIds": [
        "41506478881403507969696680653240014914910929820314476107906210059990541021185"
      ]
    },
    {
      "x": 273,
      "y": 198,
      "size": 1,
      "price": "4683000000000000000000",
      "reserved": "",
      "salt": "0x24ca31aa08c74cc6af32d31417572cad158de93d15aeafb5239ff53c16c4a553",
      "assetIds": [
        "41506478881403507969696680653240014914910929820314476107906210059990541021185"
      ]
    },
    {
      "x": 273,
      "y": 199,
      "size": 1,
      "price": "4683000000000000000000",
      "reserved": "",
      "salt": "0x0eff0b42a321186d35fe82c7239b6e867f96eeef09d403b1779e839c86fd116c",
      "assetIds": [
        "41506478881403507969696680653240014914910929820314476107906210059990541021185"
      ]
    },
    {
      "x": 273,
      "y": 200,
      "size": 1,
      "price": "4683000000000000000000",
      "reserved": "",
      "salt": "0x917b40969d3b35670b135c2b5acd52ae0a2ca758f1ecf9b4118477ac35f63d9e",
      "assetIds": [
        "41506478881403507969696680653240014914910929820314476107906210059990541021185"
      ]
    },
    {
      "x": 273,
      "y": 201,
      "size": 1,
      "price": "4683000000000000000000",
      "reserved": "",
      "salt": "0x4dff418602278880404bdf6fc3f483c47dd6405b32dfa6033b2409e68149f148",
      "assetIds": [
        "41506478881403507969696680653240014914910929820314476107906210059990541021185"
      ]
    },
    {
      "x": 273,
      "y": 202,
      "size": 1,
      "price": "4683000000000000000000",
      "reserved": "",
      "salt": "0xee72e7254b8a408a90d9a2e3d522f1124d22238af513c649000f0e79f36ffe6b",
      "assetIds": [
        "41506478881403507969696680653240014914910929820314476107906210059990541021185"
      ]
    },
    {
      "x": 273,
      "y": 203,
      "size": 1,
      "price": "1011000000000000000000",
      "reserved": "",
      "salt": "0xd5ac3ef8cac87ca69e1fa6de70f999bb48992c97c12c4d28504166031c4f552d",
      "assetIds": []
    },
    {
      "x": 273,
      "y": 204,
      "size": 1,
      "price": "1011000000000000000000",
      "reserved": "",
      "salt": "0xdda3412dbd1bb6c6a6e15150577258ef1da3f35d6bfbe1154380fb0685c1777a",
      "assetIds": []
    },
    {
      "x": 273,
      "y": 205,
      "size": 1,
      "price": "1011000000000000000000",
      "reserved": "",
      "salt": "0xbb2b587be6897262447c45fb8d952a2460faefe07a8a2b25aa751d915a1b15fc",
      "assetIds": []
    },
    {
      "x": 273,
      "y": 206,
      "size": 1,
      "price": "1011000000000000000000",
      "reserved": "",
      "salt": "0xb1ac7c42c74acd566bfbfd2cd5ddccde024c93c46237ad4e0c24821b9c398c1e",
      "assetIds": []
    },
    {
      "x": 274,
      "y": 192,
      "size": 1,
      "price": "1011000000000000000000",
      "reserved": "",
      "salt": "0xea4f25c01e578228496e485eb58d76bbab7812ad8979980b7ceed32a023199eb",
      "assetIds": []
    },
    {
      "x": 274,
      "y": 193,
      "size": 1,
      "price": "1011000000000000000000",
      "reserved": "",
      "salt": "0x6de8dda510ed038eaac6cb4064d68532cf313c3b2126dc6345b8ec392d9a3f94",
      "assetIds": []
    },
    {
      "x": 274,
      "y": 194,
      "size": 1,
      "price": "1011000000000000000000",
      "reserved": "",
      "salt": "0x92d87b54786cf8fc1a671d82770c82600777c4ca5814b6699d46fb4237100cf5",
      "assetIds": []
    },
    {
      "x": 274,
      "y": 195,
      "size": 1,
      "price": "4683000000000000000000",
      "reserved": "",
      "salt": "0xd08ce4a8e37eb59547f929db4d12ae227cfe7cea6c0a42090bc327deae23b21e",
      "assetIds": [
        "41506478881403507969696680653240014914910929820314476107906210059990541021185"
      ]
    },
    {
      "x": 274,
      "y": 196,
      "size": 1,
      "price": "4683000000000000000000",
      "reserved": "",
      "salt": "0x6b64915757bd22cf14dfe8674f1ad2fbdaf777927e2195aab2b9f9a523546807",
      "assetIds": [
        "41506478881403507969696680653240014914910929820314476107906210059990541021185"
      ]
    },
    {
      "x": 274,
      "y": 197,
      "size": 1,
      "price": "4683000000000000000000",
      "reserved": "",
      "salt": "0x4bc50771c2ad958f342c6a083f030632a635a1112a75afc9a75864ea3f7bcff0",
      "assetIds": [
        "41506478881403507969696680653240014914910929820314476107906210059990541021185"
      ]
    },
    {
      "x": 274,
      "y": 198,
      "size": 1,
      "price": "4683000000000000000000",
      "reserved": "",
      "salt": "0x418a73b7a3ffe4cc29ed84613783e787391b9c80aebc1ef4ebce8db49f4a35db",
      "assetIds": [
        "41506478881403507969696680653240014914910929820314476107906210059990541021185"
      ]
    },
    {
      "x": 274,
      "y": 199,
      "size": 1,
      "price": "4683000000000000000000",
      "reserved": "",
      "salt": "0x644868975d86ed06e2d014658e68305f360149ef7ebe13b65fe78699aa553322",
      "assetIds": [
        "41506478881403507969696680653240014914910929820314476107906210059990541021185"
      ]
    },
    {
      "x": 274,
      "y": 200,
      "size": 1,
      "price": "4683000000000000000000",
      "reserved": "",
      "salt": "0xf0112d231957a24f34d6d365855960edd4bb074e51c8915f008e961422c2c76c",
      "assetIds": [
        "41506478881403507969696680653240014914910929820314476107906210059990541021185"
      ]
    },
    {
      "x": 274,
      "y": 201,
      "size": 1,
      "price": "4683000000000000000000",
      "reserved": "",
      "salt": "0x9374ca9ac92fe658c2e5b4d822dea10a47fcfade9c634d1f57d8a44237124cb3",
      "assetIds": [
        "41506478881403507969696680653240014914910929820314476107906210059990541021185"
      ]
    },
    {
      "x": 274,
      "y": 202,
      "size": 1,
      "price": "4683000000000000000000",
      "reserved": "",
      "salt": "0x9fd89af3d4228dbf33cd3315dddf7b22345bde0f7206595c1313e505a6899542",
      "assetIds": [
        "41506478881403507969696680653240014914910929820314476107906210059990541021185"
      ]
    },
    {
      "x": 274,
      "y": 203,
      "size": 1,
      "price": "4683000000000000000000",
      "reserved": "",
      "salt": "0x0bfad63c518154a88c3d74143841046e639743dd9d4a89af8cca9ec4a4aa1bb6",
      "assetIds": [
        "41506478881403507969696680653240014914910929820314476107906210059990541021185"
      ]
    },
    {
      "x": 274,
      "y": 204,
      "size": 1,
      "price": "1011000000000000000000",
      "reserved": "",
      "salt": "0x04aac3c327f6506d4009fd7efc74f941160e4edf9e11e66c5dc5449974a47b75",
      "assetIds": []
    },
    {
      "x": 274,
      "y": 205,
      "size": 1,
      "price": "1011000000000000000000",
      "reserved": "",
      "salt": "0x79dd62619a93783182491a76d5b0988b1e1e31a7c3abfa4434ca2b912d835aa2",
      "assetIds": []
    },
    {
      "x": 274,
      "y": 206,
      "size": 1,
      "price": "1011000000000000000000",
      "reserved": "",
      "salt": "0x7ae52a4ea074dcdbaac9853cb3062d49927c39eae65b7a250300f658f36e9f97",
      "assetIds": []
    },
    {
      "x": 275,
      "y": 192,
      "size": 1,
      "price": "1011000000000000000000",
      "reserved": "",
      "salt": "0x1a407df1ccf3d30d8257f793dfae7b0b46be38131da88406344dfc5a4773bc63",
      "assetIds": []
    },
    {
      "x": 275,
      "y": 193,
      "size": 1,
      "price": "1011000000000000000000",
      "reserved": "",
      "salt": "0x53c87893b29a7f503786163f464184bc00a2941e8b858790634e5b6a1ba95315",
      "assetIds": []
    },
    {
      "x": 275,
      "y": 194,
      "size": 1,
      "price": "4683000000000000000000",
      "reserved": "",
      "salt": "0x3c8df60fd52234c7f28c7d42c1786d9b51e5281a6807330f4580aac19f97b188",
      "assetIds": [
        "41506478881403507969696680653240014914910929820314476107906210059990541021185"
      ]
    },
    {
      "x": 275,
      "y": 195,
      "size": 1,
      "price": "4683000000000000000000",
      "reserved": "",
      "salt": "0x47ab2da3d1c764652e6ac3f128599fe57abd2a4e2de05e08ac64e77656cfe2f4",
      "assetIds": [
        "41506478881403507969696680653240014914910929820314476107906210059990541021185"
      ]
    },
    {
      "x": 275,
      "y": 196,
      "size": 1,
      "price": "4683000000000000000000",
      "reserved": "",
      "salt": "0x439706942a880559171e19c618a45a58b8358201ffbc1936647de8548b11b334",
      "assetIds": [
        "41506478881403507969696680653240014914910929820314476107906210059990541021185"
      ]
    },
    {
      "x": 275,
      "y": 197,
      "size": 1,
      "price": "4683000000000000000000",
      "reserved": "",
      "salt": "0x70678cea4298b36d7b594f67ae2aca5f0379b9ca7e76c11b711e5a638cef01a8",
      "assetIds": [
        "41506478881403507969696680653240014914910929820314476107906210059990541021185"
      ]
    },
    {
      "x": 275,
      "y": 198,
      "size": 1,
      "price": "4683000000000000000000",
      "reserved": "",
      "salt": "0xb055d6a08ba2b5d60aebe77495cd7837cd7441fb69904635be1baed836a42853",
      "assetIds": [
        "41506478881403507969696680653240014914910929820314476107906210059990541021185"
      ]
    },
    {
      "x": 275,
      "y": 199,
      "size": 1,
      "price": "4683000000000000000000",
      "reserved": "",
      "salt": "0x87f14b2f576d83eb60144544db4c3d60ca48f03dfeeab45778dae0d99bdb27d0",
      "assetIds": [
        "41506478881403507969696680653240014914910929820314476107906210059990541021185"
      ]
    },
    {
      "x": 275,
      "y": 200,
      "size": 1,
      "price": "4683000000000000000000",
      "reserved": "",
      "salt": "0x88a416d944f0b9d5a453355f190f35b66f73c4cca3d241b381dfecc4436fb2df",
      "assetIds": [
        "41506478881403507969696680653240014914910929820314476107906210059990541021185"
      ]
    },
    {
      "x": 275,
      "y": 201,
      "size": 1,
      "price": "4683000000000000000000",
      "reserved": "",
      "salt": "0xaaddd14eae0bf1540c2d1332de803a1120c3a16e6a4e64454a4396ba56869f57",
      "assetIds": [
        "41506478881403507969696680653240014914910929820314476107906210059990541021185"
      ]
    },
    {
      "x": 275,
      "y": 202,
      "size": 1,
      "price": "4683000000000000000000",
      "reserved": "",
      "salt": "0x5697439a7c8b073b25a740d1ebd2884e1a89526b6569cfc8820cdc0ba5f7bea4",
      "assetIds": [
        "41506478881403507969696680653240014914910929820314476107906210059990541021185"
      ]
    },
    {
      "x": 275,
      "y": 203,
      "size": 1,
      "price": "4683000000000000000000",
      "reserved": "",
      "salt": "0x50c4f5077ae52a9ec44dd61691156dc8bdfa662089f99db07189e1d8873674ee",
      "assetIds": [
        "41506478881403507969696680653240014914910929820314476107906210059990541021185"
      ]
    },
    {
      "x": 275,
      "y": 204,
      "size": 1,
      "price": "4683000000000000000000",
      "reserved": "",
      "salt": "0x3aa9071f9b23f4fcd79ca8ff78ba79c704f6064a46e5fee3c50001342f51f7fa",
      "assetIds": [
        "41506478881403507969696680653240014914910929820314476107906210059990541021185"
      ]
    },
    {
      "x": 275,
      "y": 205,
      "size": 1,
      "price": "1011000000000000000000",
      "reserved": "",
      "salt": "0xd359b34ea8b26b7ae3b0cb7373470ecda0ad90a2f902a8f7dc1f10b97b126f8d",
      "assetIds": []
    },
    {
      "x": 275,
      "y": 206,
      "size": 1,
      "price": "1011000000000000000000",
      "reserved": "",
      "salt": "0x14952341421d84fe4e1b089778e3a4bc02f06134cb21e86c39b4f64ff999e02f",
      "assetIds": []
    },
    {
      "x": 276,
      "y": 195,
      "size": 1,
      "price": "4683000000000000000000",
      "reserved": "",
      "salt": "0xf30f4cec16d22302bdf5586653394aa533244ce01e8dca1638abe1faf08d0245",
      "assetIds": [
        "41506478881403507969696680653240014914910929820314476107906210059990541021185"
      ]
    },
    {
      "x": 276,
      "y": 196,
      "size": 1,
      "price": "4683000000000000000000",
      "reserved": "",
      "salt": "0x5bb6ef84497b17a469b7abea02ff0f0a9a73ae7b2b2e518b46db8962b95b1a4a",
      "assetIds": [
        "41506478881403507969696680653240014914910929820314476107906210059990541021185"
      ]
    },
    {
      "x": 276,
      "y": 197,
      "size": 1,
      "price": "4683000000000000000000",
      "reserved": "",
      "salt": "0xac943f41da71d66022d3b0e07d8a1b3bd67f2f8820ac80d7d4da49a226e71169",
      "assetIds": [
        "41506478881403507969696680653240014914910929820314476107906210059990541021185"
      ]
    },
    {
      "x": 276,
      "y": 201,
      "size": 1,
      "price": "4683000000000000000000",
      "reserved": "",
      "salt": "0x05f1866baca89dbcaf0e729b59a17565502b08d26a3f0adcc96774ecf827139d",
      "assetIds": [
        "41506478881403507969696680653240014914910929820314476107906210059990541021185"
      ]
    },
    {
      "x": 276,
      "y": 202,
      "size": 1,
      "price": "4683000000000000000000",
      "reserved": "",
      "salt": "0x850fc7a35aa77863b1a96ff595c458764cda9396d9792a51862b956c16b4ae85",
      "assetIds": [
        "41506478881403507969696680653240014914910929820314476107906210059990541021185"
      ]
    },
    {
      "x": 276,
      "y": 203,
      "size": 1,
      "price": "4683000000000000000000",
      "reserved": "",
      "salt": "0x467aa9396ed1af630745d5cbfaaa548cd9d358bf83d0c555dcba54f3351587df",
      "assetIds": [
        "41506478881403507969696680653240014914910929820314476107906210059990541021185"
      ]
    },
    {
      "x": 277,
      "y": 195,
      "size": 1,
      "price": "4683000000000000000000",
      "reserved": "",
      "salt": "0x39601f446947a2c903eee751fef6779daa732c13bc6791fb60d8853a4a4c56f2",
      "assetIds": [
        "41506478881403507969696680653240014914910929820314476107906210059990541021185"
      ]
    },
    {
      "x": 277,
      "y": 196,
      "size": 1,
      "price": "4683000000000000000000",
      "reserved": "",
      "salt": "0xed78d30c75a78c7f4fe2d4dc712a38de26351f73c76343c32b468848b8f297c2",
      "assetIds": [
        "41506478881403507969696680653240014914910929820314476107906210059990541021185"
      ]
    },
    {
      "x": 277,
      "y": 197,
      "size": 1,
      "price": "4683000000000000000000",
      "reserved": "",
      "salt": "0x61ce31dcb9f012ce2ef2bb3d9834c24d2b0a524b82826ed866dc3bfa381fa525",
      "assetIds": [
        "41506478881403507969696680653240014914910929820314476107906210059990541021185"
      ]
    },
    {
      "x": 277,
      "y": 201,
      "size": 1,
      "price": "4683000000000000000000",
      "reserved": "",
      "salt": "0x9a1eb55e3aa2fdf396d86e6ce2b95d4787315f8dfe721d2d316a6fa201819141",
      "assetIds": [
        "41506478881403507969696680653240014914910929820314476107906210059990541021185"
      ]
    },
    {
      "x": 277,
      "y": 202,
      "size": 1,
      "price": "4683000000000000000000",
      "reserved": "",
      "salt": "0xee2156e655e02a27fa7d15307f0b9c18c972c4469059c7001280ab68928106de",
      "assetIds": [
        "41506478881403507969696680653240014914910929820314476107906210059990541021185"
      ]
    },
    {
      "x": 277,
      "y": 203,
      "size": 1,
      "price": "4683000000000000000000",
      "reserved": "",
      "salt": "0xe57f347db546ae3e10bd9c83c2d1784979221c85b4aae2a6146127ea85c34e0e",
      "assetIds": [
        "41506478881403507969696680653240014914910929820314476107906210059990541021185"
      ]
    },
    {
      "x": 278,
      "y": 195,
      "size": 1,
      "price": "4683000000000000000000",
      "reserved": "",
      "salt": "0x0e3c4de6d36430de4219953490001f056a29a4874e01e88bf6ece6cdb2e1c462",
      "assetIds": [
        "41506478881403507969696680653240014914910929820314476107906210059990541021185"
      ]
    },
    {
      "x": 278,
      "y": 196,
      "size": 1,
      "price": "4683000000000000000000",
      "reserved": "",
      "salt": "0xc709944b8dab6991ce39809bb39f143e7372417065c783fd3599f68bc853528b",
      "assetIds": [
        "41506478881403507969696680653240014914910929820314476107906210059990541021185"
      ]
    },
    {
      "x": 278,
      "y": 197,
      "size": 1,
      "price": "4683000000000000000000",
      "reserved": "",
      "salt": "0x7cdad3dd298b153b7b74dab0ecb6a1b065384c0c2b0e157b3ae3eb84d03a46a4",
      "assetIds": [
        "41506478881403507969696680653240014914910929820314476107906210059990541021185"
      ]
    },
    {
      "x": 278,
      "y": 201,
      "size": 1,
      "price": "4683000000000000000000",
      "reserved": "",
      "salt": "0x30e156c06dacd829392869ef4da1cb7441ecffd5a1eb1a2cca4c122754770549",
      "assetIds": [
        "41506478881403507969696680653240014914910929820314476107906210059990541021185"
      ]
    },
    {
      "x": 278,
      "y": 202,
      "size": 1,
      "price": "4683000000000000000000",
      "reserved": "",
      "salt": "0x07ff4cb6ff9841926cac59ecdacab4e0e13cbc1010c90988676173afb4300c43",
      "assetIds": [
        "41506478881403507969696680653240014914910929820314476107906210059990541021185"
      ]
    },
    {
      "x": 278,
      "y": 203,
      "size": 1,
      "price": "4683000000000000000000",
      "reserved": "",
      "salt": "0xb14d74c96370a6db89c4650ca6095012ec1176d725c9c11b277a068045864d64",
      "assetIds": [
        "41506478881403507969696680653240014914910929820314476107906210059990541021185"
      ]
    },
    {
      "x": 279,
      "y": 192,
      "size": 1,
      "price": "4683000000000000000000",
      "reserved": "",
      "salt": "0x0c9372b751c76439341865cfe801e6e3e796d6fce41cf8dbfec3493e9a0e2f30",
      "assetIds": [
        "41506478881403507969696680653240014914910929820314476107906210059990541021185"
      ]
    },
    {
      "x": 279,
      "y": 193,
      "size": 1,
      "price": "4683000000000000000000",
      "reserved": "",
      "salt": "0xda04abc79d2821599854b087187497ebf3a835de622f0a3f2a6434e356bc70f2",
      "assetIds": [
        "41506478881403507969696680653240014914910929820314476107906210059990541021185"
      ]
    },
    {
      "x": 279,
      "y": 194,
      "size": 1,
      "price": "4683000000000000000000",
      "reserved": "",
      "salt": "0x8fe91f6a83ce2a3b48e8efc12d8be7cd7c7166c3f6591fdbb261b0255789ef91",
      "assetIds": [
        "41506478881403507969696680653240014914910929820314476107906210059990541021185"
      ]
    },
    {
      "x": 279,
      "y": 195,
      "size": 1,
      "price": "4683000000000000000000",
      "reserved": "",
      "salt": "0x86bc99ef2c7c337e209996b5ddcefa3d7bbe2ab3d0648fcb209633fb955e09c6",
      "assetIds": [
        "41506478881403507969696680653240014914910929820314476107906210059990541021185"
      ]
    },
    {
      "x": 279,
      "y": 196,
      "size": 1,
      "price": "4683000000000000000000",
      "reserved": "",
      "salt": "0x7ff30cb169b618cc5f9462dd94cd2a227e95f7d21e4e77e84d7c9782a1b5762a",
      "assetIds": [
        "41506478881403507969696680653240014914910929820314476107906210059990541021185"
      ]
    },
    {
      "x": 279,
      "y": 197,
      "size": 1,
      "price": "4683000000000000000000",
      "reserved": "",
      "salt": "0x301a6cc0ee252471c3f2fcc6b44dc580c2f46746bea5619ff4e2ee80482807b2",
      "assetIds": [
        "41506478881403507969696680653240014914910929820314476107906210059990541021185"
      ]
    },
    {
      "x": 279,
      "y": 198,
      "size": 1,
      "price": "4683000000000000000000",
      "reserved": "",
      "salt": "0x2d1f4e194f2107b74c40526f36015d76a46a5e1b10d154ed77f3f8d98f023b0c",
      "assetIds": [
        "41506478881403507969696680653240014914910929820314476107906210059990541021185"
      ]
    },
    {
      "x": 279,
      "y": 199,
      "size": 1,
      "price": "4683000000000000000000",
      "reserved": "",
      "salt": "0xd045ff62118acb11f39d6ce8820f24b7da540dc5cc1ecad3aca1141316d4c241",
      "assetIds": [
        "41506478881403507969696680653240014914910929820314476107906210059990541021185"
      ]
    },
    {
      "x": 279,
      "y": 200,
      "size": 1,
      "price": "4683000000000000000000",
      "reserved": "",
      "salt": "0x36891984ed6630fec44746d6e824d61941f305c18ec88286f6eabe08aa604965",
      "assetIds": [
        "41506478881403507969696680653240014914910929820314476107906210059990541021185"
      ]
    },
    {
      "x": 280,
      "y": 192,
      "size": 1,
      "price": "4683000000000000000000",
      "reserved": "",
      "salt": "0xa75e39d33c2832de9497226e770f3839afe8d1285266f0d0c27ffa669094ad0a",
      "assetIds": [
        "41506478881403507969696680653240014914910929820314476107906210059990541021185"
      ]
    },
    {
      "x": 280,
      "y": 193,
      "size": 1,
      "price": "4683000000000000000000",
      "reserved": "",
      "salt": "0x03f5cf55b74c37f510690de799e1e3bc0d676566b28f4abf2877ba41385c8a48",
      "assetIds": [
        "41506478881403507969696680653240014914910929820314476107906210059990541021185"
      ]
    },
    {
      "x": 280,
      "y": 194,
      "size": 1,
      "price": "4683000000000000000000",
      "reserved": "",
      "salt": "0xf683a3e8bd3f2e348d0a76212bbfa25729ef91120b72820da07098a6a346d6e8",
      "assetIds": [
        "41506478881403507969696680653240014914910929820314476107906210059990541021185"
      ]
    },
    {
      "x": 280,
      "y": 195,
      "size": 1,
      "price": "4683000000000000000000",
      "reserved": "",
      "salt": "0xd80a32a8ebdaf682d6a1b377ccd0eb16f789c8234c0e64a3e9799e8ab86a4e76",
      "assetIds": [
        "41506478881403507969696680653240014914910929820314476107906210059990541021185"
      ]
    },
    {
      "x": 280,
      "y": 196,
      "size": 1,
      "price": "4683000000000000000000",
      "reserved": "",
      "salt": "0xe61e39456c474bae4a4f9031812be04cdf7bd6382aee8946b9b4f9bb908926f5",
      "assetIds": [
        "41506478881403507969696680653240014914910929820314476107906210059990541021185"
      ]
    },
    {
      "x": 280,
      "y": 197,
      "size": 1,
      "price": "4683000000000000000000",
      "reserved": "",
      "salt": "0xd5c91e5917e59cdca0a87015c07261b1e2769aadff50da8058062603ba4bcfbb",
      "assetIds": [
        "41506478881403507969696680653240014914910929820314476107906210059990541021185"
      ]
    },
    {
      "x": 280,
      "y": 198,
      "size": 1,
      "price": "4683000000000000000000",
      "reserved": "",
      "salt": "0xc334f0f5744b9bdd5eb7c756abd0529431f0987db8f033c660f2bc78d00440ef",
      "assetIds": [
        "41506478881403507969696680653240014914910929820314476107906210059990541021185"
      ]
    },
    {
      "x": 280,
      "y": 199,
      "size": 1,
      "price": "4683000000000000000000",
      "reserved": "",
      "salt": "0x84e34268ff91db86d63e6133a5706675d0d8ac288dc19433073d2b626fbc972b",
      "assetIds": [
        "41506478881403507969696680653240014914910929820314476107906210059990541021185"
      ]
    },
    {
      "x": 280,
      "y": 200,
      "size": 1,
      "price": "4683000000000000000000",
      "reserved": "",
      "salt": "0xcda14ee06cf2f55117ae8e6da6f83c6def534441f14f9fd4afb2512dc65a2aea",
      "assetIds": [
        "41506478881403507969696680653240014914910929820314476107906210059990541021185"
      ]
    },
    {
      "x": 281,
      "y": 192,
      "size": 1,
      "price": "4683000000000000000000",
      "reserved": "",
      "salt": "0x20ec5b6a276242db2edcde711332d792cc954dac3b80ce2545424f15c74273c2",
      "assetIds": [
        "41506478881403507969696680653240014914910929820314476107906210059990541021185"
      ]
    },
    {
      "x": 281,
      "y": 193,
      "size": 1,
      "price": "4683000000000000000000",
      "reserved": "",
      "salt": "0x0950e8f6a2af33faaac38b612d5a9a433b374087c1c298326a71a6f3f3511c6f",
      "assetIds": [
        "41506478881403507969696680653240014914910929820314476107906210059990541021185"
      ]
    },
    {
      "x": 281,
      "y": 194,
      "size": 1,
      "price": "4683000000000000000000",
      "reserved": "",
      "salt": "0xd55a114a85e46b745d92cfc8fe3649865a821a67d003f0f47bbc7c4d1e490c2c",
      "assetIds": [
        "41506478881403507969696680653240014914910929820314476107906210059990541021185"
      ]
    },
    {
      "x": 281,
      "y": 195,
      "size": 1,
      "price": "4683000000000000000000",
      "reserved": "",
      "salt": "0x7e5db763aff54ce41d54f70a2faadf12fc0b351547d095a5ea290ec142d7c66b",
      "assetIds": [
        "41506478881403507969696680653240014914910929820314476107906210059990541021185"
      ]
    },
    {
      "x": 281,
      "y": 196,
      "size": 1,
      "price": "4683000000000000000000",
      "reserved": "",
      "salt": "0xf412ac279c9efcf02038289854a71bdad1743d6449ebb0d93a3703cd117afec5",
      "assetIds": [
        "41506478881403507969696680653240014914910929820314476107906210059990541021185"
      ]
    },
    {
      "x": 281,
      "y": 197,
      "size": 1,
      "price": "4683000000000000000000",
      "reserved": "",
      "salt": "0x597200770c2f43e46d0575b41f0c57556806469cd8b5dc49b4449860100adc0a",
      "assetIds": [
        "41506478881403507969696680653240014914910929820314476107906210059990541021185"
      ]
    },
    {
      "x": 281,
      "y": 198,
      "size": 1,
      "price": "4683000000000000000000",
      "reserved": "",
      "salt": "0x248813a5dd9c2de88966bf507311f3d85acc156d2de3ee0efbba186d64338e31",
      "assetIds": [
        "41506478881403507969696680653240014914910929820314476107906210059990541021185"
      ]
    },
    {
      "x": 281,
      "y": 199,
      "size": 1,
      "price": "4683000000000000000000",
      "reserved": "",
      "salt": "0x75a9ef51a06780514e3a5c3b8e3bc7e91f79f3d1ca8d4715619d191a97f87899",
      "assetIds": [
        "41506478881403507969696680653240014914910929820314476107906210059990541021185"
      ]
    },
    {
      "x": 281,
      "y": 200,
      "size": 1,
      "price": "4683000000000000000000",
      "reserved": "",
      "salt": "0xceda50942e182b25d3177b703a18ac8263d8bc4329a08e7fa146c59855455d4f",
      "assetIds": [
        "41506478881403507969696680653240014914910929820314476107906210059990541021185"
      ]
    },
    {
      "x": 282,
      "y": 186,
      "size": 1,
      "price": "1011000000000000000000",
      "reserved": "",
      "salt": "0x8a954a7628eda5e6dd890274200c89dd875dd97043c9a6e3ea45f14da99c35dc",
      "assetIds": []
    },
    {
      "x": 282,
      "y": 187,
      "size": 1,
      "price": "1011000000000000000000",
      "reserved": "",
      "salt": "0x282e534c494e163f2c5f46964d72350870dd3efa59de9e72997281e6b6d5a38e",
      "assetIds": []
    },
    {
      "x": 282,
      "y": 188,
      "size": 1,
      "price": "1011000000000000000000",
      "reserved": "",
      "salt": "0xca9f2d682d8ff1efd81e09b080dddba70f3b0941097599d9573c65e706fabfcc",
      "assetIds": []
    },
    {
      "x": 282,
      "y": 189,
      "size": 1,
      "price": "1011000000000000000000",
      "reserved": "",
      "salt": "0xb75c214985252c3d28aba71ddd2f60f0da2b1e1fb08b56d2e77173aff5ea8ca5",
      "assetIds": []
    },
    {
      "x": 282,
      "y": 190,
      "size": 1,
      "price": "1011000000000000000000",
      "reserved": "",
      "salt": "0xb0a41a726d863c0e557a9d4ef6f7e8efa09dd044819969728c91731a9e12b80a",
      "assetIds": []
    },
    {
      "x": 282,
      "y": 191,
      "size": 1,
      "price": "4683000000000000000000",
      "reserved": "",
      "salt": "0x5602d34a177575cf25b43a88b0ffc781b8801932005caa1b66d7e6dd65e5ae9a",
      "assetIds": [
        "41506478881403507969696680653240014914910929820314476107906210059990541021185"
      ]
    },
    {
      "x": 282,
      "y": 192,
      "size": 1,
      "price": "4683000000000000000000",
      "reserved": "",
      "salt": "0xfb0232b5665672e32714bdd8c4667dde29203e870cd9494cec3fd0bbbecca33c",
      "assetIds": [
        "41506478881403507969696680653240014914910929820314476107906210059990541021185"
      ]
    },
    {
      "x": 282,
      "y": 193,
      "size": 1,
      "price": "4683000000000000000000",
      "reserved": "",
      "salt": "0xa34e026d588ff5c279236e573e0b27b98f0950eb0935836d636ee55515d677a4",
      "assetIds": [
        "41506478881403507969696680653240014914910929820314476107906210059990541021185"
      ]
    },
    {
      "x": 282,
      "y": 194,
      "size": 1,
      "price": "4683000000000000000000",
      "reserved": "",
      "salt": "0x9ee976285419f4cf7f44a8f546f3a236ff4a10e51a0ed8b6008107dcfe1551c7",
      "assetIds": [
        "41506478881403507969696680653240014914910929820314476107906210059990541021185"
      ]
    },
    {
      "x": 283,
      "y": 186,
      "size": 1,
      "price": "1011000000000000000000",
      "reserved": "",
      "salt": "0x189d942af6d8df5f26a1e8f7af8c8e140dbe96382d225698bbe445a3e89aa7a3",
      "assetIds": []
    },
    {
      "x": 283,
      "y": 187,
      "size": 1,
      "price": "1011000000000000000000",
      "reserved": "",
      "salt": "0x98d5a4369d99097b11ce12d21d043476f4b0af97cc60d4d8a42643ad582e7131",
      "assetIds": []
    },
    {
      "x": 283,
      "y": 188,
      "size": 1,
      "price": "1011000000000000000000",
      "reserved": "",
      "salt": "0x921e82e6fcda622bb1c55a56bcea14e9fd4701329441375cffc21485e384b750",
      "assetIds": []
    },
    {
      "x": 283,
      "y": 189,
      "size": 1,
      "price": "1011000000000000000000",
      "reserved": "",
      "salt": "0x114e2f9724f921a47c8ed45aaa35a9906d05cee84cfb9fd56f693ab4da21a280",
      "assetIds": []
    },
    {
      "x": 283,
      "y": 190,
      "size": 1,
      "price": "1011000000000000000000",
      "reserved": "",
      "salt": "0xd11fa65af9c16fa303d60a2ac83272a29f3f34dda31d718cf6ffcdeb71815941",
      "assetIds": []
    },
    {
      "x": 283,
      "y": 191,
      "size": 1,
      "price": "1011000000000000000000",
      "reserved": "",
      "salt": "0x398ad5ad8aafab368a3e14d838c7147f4128d6252721c503b600c7ea74cf2d32",
      "assetIds": []
    },
    {
      "x": 283,
      "y": 192,
      "size": 1,
      "price": "4683000000000000000000",
      "reserved": "",
      "salt": "0x2f9f7bda3f903388e87efcd999678b21e699bf654edcb2ffaf2147c196b65068",
      "assetIds": [
        "41506478881403507969696680653240014914910929820314476107906210059990541021185"
      ]
    },
    {
      "x": 283,
      "y": 193,
      "size": 1,
      "price": "4683000000000000000000",
      "reserved": "",
      "salt": "0x906529b51f8b1a34f1499ba1bfe5ed405a2d94b0863fccadde2ce47bf7dee94d",
      "assetIds": [
        "41506478881403507969696680653240014914910929820314476107906210059990541021185"
      ]
    },
    {
      "x": 283,
      "y": 194,
      "size": 1,
      "price": "4683000000000000000000",
      "reserved": "",
      "salt": "0x52c151cca51646a49adeb32e07fd68a79a33d3f4234664f4cea4e6ae836d1875",
      "assetIds": [
        "41506478881403507969696680653240014914910929820314476107906210059990541021185"
      ]
    },
    {
      "x": 284,
      "y": 186,
      "size": 1,
      "price": "1011000000000000000000",
      "reserved": "",
      "salt": "0x1c2c4b3370678039727a5adb1e7c7adeb48e62b31b4f998ea8086404925ee197",
      "assetIds": []
    },
    {
      "x": 284,
      "y": 187,
      "size": 1,
      "price": "1011000000000000000000",
      "reserved": "",
      "salt": "0x355e0e4a4583320f1c717502a6ad5c71b9e785b92fcf3aeacd9791678bf82629",
      "assetIds": []
    },
    {
      "x": 284,
      "y": 188,
      "size": 1,
      "price": "1011000000000000000000",
      "reserved": "",
      "salt": "0xc5f0f2a6eeb752f8771899a246e010de294fceafc298948105e42ecbd81cb3f7",
      "assetIds": []
    },
    {
      "x": 284,
      "y": 189,
      "size": 1,
      "price": "1011000000000000000000",
      "reserved": "",
      "salt": "0x50c00b6459cd1514f2a170366e128dd0eefcdbb71743746cb0d1b788efc8524c",
      "assetIds": []
    },
    {
      "x": 284,
      "y": 190,
      "size": 1,
      "price": "1011000000000000000000",
      "reserved": "",
      "salt": "0x614b6aae21f4735104b5f30dae6409b451214f43c44509200a67d67bbad938e1",
      "assetIds": []
    },
    {
      "x": 284,
      "y": 191,
      "size": 1,
      "price": "1011000000000000000000",
      "reserved": "",
      "salt": "0x955ca526013fc17cdbb501b193a7cf57ebd33ee12a916c64138f7eaa6ce7cfc4",
      "assetIds": []
    },
    {
      "x": 284,
      "y": 192,
      "size": 1,
      "price": "4683000000000000000000",
      "reserved": "",
      "salt": "0x6d83b2e85330824d2116cf5af8fa723d3ccec4a7a059c84eeb6ad1b093f164d8",
      "assetIds": [
        "41506478881403507969696680653240014914910929820314476107906210059990541021185"
      ]
    },
    {
      "x": 284,
      "y": 193,
      "size": 1,
      "price": "4683000000000000000000",
      "reserved": "",
      "salt": "0xf5c6120535eaae9781eaecff88b44ca4963d27c8c308179c719798b6c7294910",
      "assetIds": [
        "41506478881403507969696680653240014914910929820314476107906210059990541021185"
      ]
    },
    {
      "x": 284,
      "y": 194,
      "size": 1,
      "price": "4683000000000000000000",
      "reserved": "",
      "salt": "0xe09b84f505d99d54263f9c87b77d096dcf8fc3cbf377d91715df2cfb72144375",
      "assetIds": [
        "41506478881403507969696680653240014914910929820314476107906210059990541021185"
      ]
    },
    {
      "x": 285,
      "y": 186,
      "size": 1,
      "price": "1011000000000000000000",
      "reserved": "",
      "salt": "0x993db966a1bdffee8709ac332cb77dd7e93d8d1b99ffb443f3eb1fedf6d2f2d7",
      "assetIds": []
    },
    {
      "x": 285,
      "y": 187,
      "size": 1,
      "price": "1011000000000000000000",
      "reserved": "",
      "salt": "0x3e9749b17722eab77ecb731140b509a6421a17980ce1ea8e40ff9c3fe55d0170",
      "assetIds": []
    },
    {
      "x": 285,
      "y": 188,
      "size": 1,
      "price": "1011000000000000000000",
      "reserved": "",
      "salt": "0x77b57533ed85e68857f60582ff21f842478c7f98f2f189e32aa8f9b35140a23b",
      "assetIds": []
    },
    {
      "x": 285,
      "y": 189,
      "size": 1,
      "price": "1011000000000000000000",
      "reserved": "",
      "salt": "0x8ca085443301463fcf27aff03970fd0381fc46e87aaf48e3b65912509253f62b",
      "assetIds": []
    },
    {
      "x": 285,
      "y": 190,
      "size": 1,
      "price": "1011000000000000000000",
      "reserved": "",
      "salt": "0x8c856e2c60d4911fa9fa2acea9409955833b730723770bbfbfd22fbaedd38e02",
      "assetIds": []
    },
    {
      "x": 285,
      "y": 191,
      "size": 1,
      "price": "1011000000000000000000",
      "reserved": "",
      "salt": "0xfaa555621926bdee696e593aba573d20d4424401be599b80cb000f6429af5325",
      "assetIds": []
    },
    {
      "x": 285,
      "y": 192,
      "size": 1,
      "price": "4683000000000000000000",
      "reserved": "",
      "salt": "0x31bc00437f6f0df3fd92e8a4e3cbcdb389c33086129b83a9bfec42b891fe1a24",
      "assetIds": [
        "41506478881403507969696680653240014914910929820314476107906210059990541021185"
      ]
    },
    {
      "x": 285,
      "y": 193,
      "size": 1,
      "price": "4683000000000000000000",
      "reserved": "",
      "salt": "0xd36b8ef9e68ed189d2d108cdbbde8ca06d4f482ad25cc2649dc1d0d45473f635",
      "assetIds": [
        "41506478881403507969696680653240014914910929820314476107906210059990541021185"
      ]
    },
    {
      "x": 285,
      "y": 194,
      "size": 1,
      "price": "4683000000000000000000",
      "reserved": "",
      "salt": "0x13140ddf59d9039186d8df617929eeb0e9ab979fffae04a5ff395e03d947a7bf",
      "assetIds": [
        "41506478881403507969696680653240014914910929820314476107906210059990541021185"
      ]
    },
    {
      "x": 285,
      "y": 195,
      "size": 1,
      "price": "4683000000000000000000",
      "reserved": "",
      "salt": "0x33524847f679d62759321b579b84e26b652cbfd02516b3002240129ac375d0a2",
      "assetIds": [
        "41506478881403507969696680653240014914910929820314476107906210059990541021185"
      ]
    },
    {
      "x": 285,
      "y": 196,
      "size": 1,
      "price": "4683000000000000000000",
      "reserved": "",
      "salt": "0x6f4e86ce0ad4329842f6dfb1c18774b765369285d0e2a03dfc60f0856a2df6a3",
      "assetIds": [
        "41506478881403507969696680653240014914910929820314476107906210059990541021185"
      ]
    },
    {
      "x": 285,
      "y": 197,
      "size": 1,
      "price": "4683000000000000000000",
      "reserved": "",
      "salt": "0x71a5a3fa27dcb2cb30cd36b85fcdcd114d0f27741ad379f474529ac8d3ff7009",
      "assetIds": [
        "41506478881403507969696680653240014914910929820314476107906210059990541021185"
      ]
    },
    {
      "x": 286,
      "y": 186,
      "size": 1,
      "price": "1011000000000000000000",
      "reserved": "",
      "salt": "0x34864269ed2f52643ffe355f2164a84a153f39aa2f165c67b2170be844aeab25",
      "assetIds": []
    },
    {
      "x": 286,
      "y": 187,
      "size": 1,
      "price": "1011000000000000000000",
      "reserved": "",
      "salt": "0x8c93a5b0d799e8df78b91dfa8db18e886741831b6b6dddaaecaa6cee3f15b44d",
      "assetIds": []
    },
    {
      "x": 286,
      "y": 188,
      "size": 1,
      "price": "1011000000000000000000",
      "reserved": "",
      "salt": "0xb584ac69946f6d07df7efe27fae9e6036a11637651e359e66e8e4c448e6965dc",
      "assetIds": []
    },
    {
      "x": 286,
      "y": 189,
      "size": 1,
      "price": "1011000000000000000000",
      "reserved": "",
      "salt": "0x8752e3f8d4f1f3cd7e46f3c631ca3ff770a5407bc82ecf4974cb7f8f113cb0ea",
      "assetIds": []
    },
    {
      "x": 286,
      "y": 190,
      "size": 1,
      "price": "1011000000000000000000",
      "reserved": "",
      "salt": "0xdf6c084be9a875023e28e0159762593ff8a24cbcf8b853b4c0de5948ff4ae2ba",
      "assetIds": []
    },
    {
      "x": 286,
      "y": 191,
      "size": 1,
      "price": "1011000000000000000000",
      "reserved": "",
      "salt": "0x529ef988d6cf30828c304b9b44c84c671d31244ae42f87f875891237b7d11703",
      "assetIds": []
    },
    {
      "x": 286,
      "y": 192,
      "size": 1,
      "price": "4683000000000000000000",
      "reserved": "",
      "salt": "0x595af50e569d55913246c14c383ddd671cb62187e13722be8494533dafc94ff7",
      "assetIds": [
        "41506478881403507969696680653240014914910929820314476107906210059990541021185"
      ]
    },
    {
      "x": 286,
      "y": 193,
      "size": 1,
      "price": "4683000000000000000000",
      "reserved": "",
      "salt": "0xd25681940f3d0b9dc26574c703a86668e452430d34f6775ec53e94b5e6bcb242",
      "assetIds": [
        "41506478881403507969696680653240014914910929820314476107906210059990541021185"
      ]
    },
    {
      "x": 286,
      "y": 194,
      "size": 1,
      "price": "4683000000000000000000",
      "reserved": "",
      "salt": "0x6f3be9ab26cc7df8751466679777eed09aa1917dd4325b1d1e17e11329d30be1",
      "assetIds": [
        "41506478881403507969696680653240014914910929820314476107906210059990541021185"
      ]
    },
    {
      "x": 286,
      "y": 195,
      "size": 1,
      "price": "4683000000000000000000",
      "reserved": "",
      "salt": "0xe7b2766fa6758ca2d17e02b4e40abc23771d7929414d1e5d0fe6ec17b7240e6f",
      "assetIds": [
        "41506478881403507969696680653240014914910929820314476107906210059990541021185"
      ]
    },
    {
      "x": 286,
      "y": 196,
      "size": 1,
      "price": "4683000000000000000000",
      "reserved": "",
      "salt": "0x386167afcd77cfcba0e3572d4a3c9b35e5830ca0fa266228fbef60843f5e944f",
      "assetIds": [
        "41506478881403507969696680653240014914910929820314476107906210059990541021185"
      ]
    },
    {
      "x": 286,
      "y": 197,
      "size": 1,
      "price": "4683000000000000000000",
      "reserved": "",
      "salt": "0x358e4310bce27df5f90718686d0625586e1e17b59ce5803c34bead7fb3de44fa",
      "assetIds": [
        "41506478881403507969696680653240014914910929820314476107906210059990541021185"
      ]
    },
    {
      "x": 287,
      "y": 187,
      "size": 1,
      "price": "1011000000000000000000",
      "reserved": "",
      "salt": "0xaf0ad0774e546ee98bd6ff94fc6ab96802cab3b9bf81617d9afca178f59c7205",
      "assetIds": []
    },
    {
      "x": 287,
      "y": 188,
      "size": 1,
      "price": "1011000000000000000000",
      "reserved": "",
      "salt": "0xd2bc5a84a3e284b30c2fa648f8913c2af50090079026b136e520ecaf6e2611ec",
      "assetIds": []
    },
    {
      "x": 287,
      "y": 189,
      "size": 1,
      "price": "1011000000000000000000",
      "reserved": "",
      "salt": "0x223157d2aec86bec44a4661b1aa291afb255aada0c66385e865223096e8dd180",
      "assetIds": []
    },
    {
      "x": 287,
      "y": 190,
      "size": 1,
      "price": "1011000000000000000000",
      "reserved": "",
      "salt": "0x258e55f7962e7aa8a4859237dd88cc298c63759ccb20d0170e091d2f75ce1722",
      "assetIds": []
    },
    {
      "x": 287,
      "y": 191,
      "size": 1,
      "price": "1011000000000000000000",
      "reserved": "",
      "salt": "0x7a9be0a698bf9180e34553316b3ce680071caf11e0b101b105755a3b9e1f2d4a",
      "assetIds": []
    },
    {
      "x": 287,
      "y": 192,
      "size": 1,
      "price": "1011000000000000000000",
      "reserved": "",
      "salt": "0xaa4aba16703c7ed17833341a096357b5ea2d1cd4bbfadfeb00c8a22eabf853be",
      "assetIds": []
    },
    {
      "x": 287,
      "y": 193,
      "size": 1,
      "price": "4683000000000000000000",
      "reserved": "",
      "salt": "0x42a7af6f4d485937e35f0628f44ea03b5e8d83cca65beeda1d64ec6d17d1c3ba",
      "assetIds": [
        "41506478881403507969696680653240014914910929820314476107906210059990541021185"
      ]
    },
    {
      "x": 287,
      "y": 194,
      "size": 1,
      "price": "4683000000000000000000",
      "reserved": "",
      "salt": "0x08b829b910e357469ce659e74c6e0381a3c99dbb4b9e9d90467462d33053d2c2",
      "assetIds": [
        "41506478881403507969696680653240014914910929820314476107906210059990541021185"
      ]
    },
    {
      "x": 287,
      "y": 195,
      "size": 1,
      "price": "4683000000000000000000",
      "reserved": "",
      "salt": "0xcd233dc0eb378fe329547b7f66648885e89e52dce310c9bd5ae0149c2807ea60",
      "assetIds": [
        "41506478881403507969696680653240014914910929820314476107906210059990541021185"
      ]
    },
    {
      "x": 287,
      "y": 196,
      "size": 1,
      "price": "4683000000000000000000",
      "reserved": "",
      "salt": "0xa8ffe08e49fa6f149801fc716d97aeeb5d025ceadfe58ffc7408303f6fe5c084",
      "assetIds": [
        "41506478881403507969696680653240014914910929820314476107906210059990541021185"
      ]
    },
    {
      "x": 287,
      "y": 197,
      "size": 1,
      "price": "4683000000000000000000",
      "reserved": "",
      "salt": "0x8b8eb05616501d31d841da2d83c4906f80a97186f2efe8dfcaeac14539034c38",
      "assetIds": [
        "41506478881403507969696680653240014914910929820314476107906210059990541021185"
      ]
    },
    {
      "x": 270,
      "y": 204,
      "size": 3,
      "price": "8648000000000000000000",
      "reserved": "0x7a9fe22691c811ea339d9b73150e6911a5343dca",
      "salt": "0xd0edcb7bed9ae2f90e7879625369d1dbd58b4c46b843b0aaabc52fe671842233",
      "assetIds": []
    },
    {
      "x": 276,
      "y": 192,
      "size": 3,
      "price": "8648000000000000000000",
      "reserved": "0x7a9fe22691c811ea339d9b73150e6911a5343dca",
      "salt": "0xd7832982d3fd661d02cd737c9a3a77d56d06273433ecfaa6d5c9e29a1d021568",
      "assetIds": []
    },
    {
      "x": 276,
      "y": 198,
      "size": 3,
      "price": "8648000000000000000000",
      "reserved": "0x7a9fe22691c811ea339d9b73150e6911a5343dca",
      "salt": "0xdb0aa7aee246a94758d613eb1a1fc687701a60ccb314d63f2800db5e304f42bc",
      "assetIds": []
    },
    {
      "x": 279,
      "y": 201,
      "size": 3,
      "price": "8648000000000000000000",
      "reserved": "0x7a9fe22691c811ea339d9b73150e6911a5343dca",
      "salt": "0x893abedd234ad9c82896795a9648228bc1583e9b2cbbbe0dc394b6f06549577f",
      "assetIds": []
    },
    {
      "x": 282,
      "y": 195,
      "size": 3,
      "price": "8648000000000000000000",
      "reserved": "0x7a9fe22691c811ea339d9b73150e6911a5343dca",
      "salt": "0xc738ff34e1719751c4e6820d666a9715fa0e574b136b3b75b26ffc8cacfd0e4c",
      "assetIds": []
    },
    {
      "x": 276,
      "y": 186,
      "size": 6,
      "price": "32772000000000000000000",
      "reserved": "0x7a9fe22691c811ea339d9b73150e6911a5343dca",
      "salt": "0xc3732dcc4d162f29bf0fb9af9bdb21595221560c7b38d503ddcc1af7fa5006eb",
      "assetIds": []
    },
    {
      "x": 282,
      "y": 198,
      "size": 6,
      "price": "32772000000000000000000",
      "reserved": "0x7a9fe22691c811ea339d9b73150e6911a5343dca",
      "salt": "0x4376dc581b9b23ccfe22422fe8e02917b9d127c3ffe8316698a9226e1e4da463",
      "assetIds": []
    },
    {
      "x": 282,
      "y": 204,
      "size": 6,
      "price": "32772000000000000000000",
      "reserved": "0x7a9fe22691c811ea339d9b73150e6911a5343dca",
      "salt": "0x6da29e5c987934f7ae9336f0f8c3f9afdf4541da29d6b4f83f4399118840e3ed",
      "assetIds": []
    }
  ],
  "solcInputHash": "e17a5bb930c92aaeeb80a52119ce77b7",
  "bytecode": "0x610160604052620d2f0060055534801561001857600080fd5b506040516200284d3803806200284d83398181016040526101a081101561003e57600080fd5b50805160208201516040830151606080850151608086015160a08088015160c0808a015160e08b01516101008c01516101208d01516101408e01516101608f0151610180909f0151600280546001600160a01b0319166001600160a01b03871617905560038490558e8c1b6001600160601b03199081169099529a8d901b9097169094529a9b999a98999698959793969195909490939091906100e28b600161015d565b600680546001600160a01b039a8b166001600160a01b031991821617909155610140989098526101209690965260008054998916998816999099179098556001600160601b0319606092831b811660e05290821b811660805296901b909516610100525060078054919093169116179055506101c192505050565b6001600160a01b038216600081815260016020908152604091829020805460ff191685151590811790915582519384529083015280517fb21eb88b4e33b3f1281830a7178d74d8aa73220416215726b68ae23d539515cb9281900390910190a15050565b60805160601c60a05160601c60c05160601c60e05160601c6101005160601c61012051610140516126066200024760003980610b3d528061206c525080610b1952806112ec5250806120da525080611841528061199e5250806117f75280611b9d528061210e525080611872528061196f525080610eb25280611c8952506126066000f3fe608060405234801561001057600080fd5b506004361061011b5760003560e01c80638f283970116100b2578063c10a420811610081578063dc5074af11610066578063dc5074af1461085f578063e56f8a9e14610885578063f23a6e61146108a25761011b565b8063c10a420814610780578063caed3500146108575761011b565b80638f28397014610500578063984d625214610526578063b522ecff146105f8578063bc197c811461061e5761011b565b806365194ce7116100ee57806365194ce7146103485780636e9960c3146104a657806377f1c3ac146104ca5780638a04af6a146104d25761011b565b80631187fd3c1461012057806325cb5bc014610300578063495906571461031a57806358bc294414610322575b600080fd5b6102fe600480360361012081101561013757600080fd5b6001600160a01b038235811692602081013582169260408201359092169181019060808101606082013564010000000081111561017357600080fd5b82018360208201111561018557600080fd5b803590602001918460208302840111640100000000831117156101a757600080fd5b919390928235926040810190602001356401000000008111156101c957600080fd5b8201836020820111156101db57600080fd5b803590602001918460208302840111640100000000831117156101fd57600080fd5b91939092909160208101903564010000000081111561021b57600080fd5b82018360208201111561022d57600080fd5b8035906020019184602083028401116401000000008311171561024f57600080fd5b91939092909160208101903564010000000081111561026d57600080fd5b82018360208201111561027f57600080fd5b803590602001918460018302840111640100000000831117156102a157600080fd5b9193909290916020810190356401000000008111156102bf57600080fd5b8201836020820111156102d157600080fd5b803590602001918460018302840111640100000000831117156102f357600080fd5b509092509050610937565b005b610308610b17565b60408051918252519081900360200190f35b610308610b3b565b6102fe6004803603602081101561033857600080fd5b50356001600160a01b0316610b5f565b6103ee6004803603602081101561035e57600080fd5b81019060208101813564010000000081111561037957600080fd5b82018360208201111561038b57600080fd5b803590602001918460018302840111640100000000831117156103ad57600080fd5b91908080601f016020809104026020016040519081016040528093929190818152602001838380828437600092019190915250929550610c0a945050505050565b6040518080602001866001600160a01b03166001600160a01b03168152602001856001600160a01b03166001600160a01b03168152602001848152602001838152602001828103825287818151815260200191508051906020019080838360005b8381101561046757818101518382015260200161044f565b50505050905090810190601f1680156104945780820380516001836020036101000a031916815260200191505b50965050505050505060405180910390f35b6104ae610d0f565b604080516001600160a01b039092168252519081900360200190f35b610308610d1e565b6102fe600480360360408110156104e857600080fd5b506001600160a01b0381351690602001351515610d24565b6102fe6004803603602081101561051657600080fd5b50356001600160a01b0316610d7b565b6102fe6004803603606081101561053c57600080fd5b6001600160a01b03823516919081019060408101602082013564010000000081111561056757600080fd5b82018360208201111561057957600080fd5b8035906020019184602083028401116401000000008311171561059b57600080fd5b9193909290916020810190356401000000008111156105b957600080fd5b8201836020820111156105cb57600080fd5b803590602001918460208302840111640100000000831117156105ed57600080fd5b509092509050610e51565b6102fe6004803603602081101561060e57600080fd5b50356001600160a01b0316610fdc565b61074b600480360360a081101561063457600080fd5b6001600160a01b03823581169260208101359091169181019060608101604082013564010000000081111561066857600080fd5b82018360208201111561067a57600080fd5b8035906020019184602083028401116401000000008311171561069c57600080fd5b9193909290916020810190356401000000008111156106ba57600080fd5b8201836020820111156106cc57600080fd5b803590602001918460208302840111640100000000831117156106ee57600080fd5b91939092909160208101903564010000000081111561070c57600080fd5b82018360208201111561071e57600080fd5b8035906020019184600183028401116401000000008311171561074057600080fd5b5090925090506110c5565b604080517fffffffff000000000000000000000000000000000000000000000000000000009092168252519081900360200190f35b610843600480360360a081101561079657600080fd5b8101906020810181356401000000008111156107b157600080fd5b8201836020820111156107c357600080fd5b803590602001918460018302840111640100000000831117156107e557600080fd5b91908080601f016020809104026020016040519081016040528093929190818152602001838380828437600092019190915250929550506001600160a01b0383358116945060208401351692604081013592506060013590506110f2565b604080519115158252519081900360200190f35b6104ae61122e565b6108436004803603602081101561087557600080fd5b50356001600160a01b031661123d565b6102fe6004803603602081101561089b57600080fd5b503561125b565b61074b600480360360a08110156108b857600080fd5b6001600160a01b03823581169260208101359091169160408201359160608101359181019060a0810160808201356401000000008111156108f857600080fd5b82018360208201111561090a57600080fd5b8035906020019184600183028401116401000000008311171561092c57600080fd5b5090925090506112bf565b6109418e8d6112ea565b610a388d8d8d8d80806020026020016040519081016040528093929190818152602001838360200280828437600081840152601f19601f820116905080830192505050505050508c8c8c80806020026020016040519081016040528093929190818152602001838360200280828437600081840152601f19601f820116905080830192505050505050508b8b8080602002602001604051908101604052809392919081815260200183836020028082843760009201919091525050604080516020601f8d018190048102820181019092528b815292508b91508a908190840183828082843760009201919091525061144d92505050565b610a8c8e8c8c6003818110610a4957fe5b9050602002013586868080601f0160208091040260200160405190810160405280939291908181526020018383808284376000920191909152506117d092505050565b610aca8e8e8d8d8080602002602001604051908101604052809392919081815260200183836020028082843760009201919091525061182192505050565b610b078d898980806020026020016040519081016040528093929190818152602001838360200280828437600092019190915250611c1292505050565b5050505050505050505050505050565b7f000000000000000000000000000000000000000000000000000000000000000090565b7f000000000000000000000000000000000000000000000000000000000000000090565b6000546001600160a01b03163314610bbe576040805162461bcd60e51b815260206004820152601060248201527f53656e646572206e6f742061646d696e00000000000000000000000000000000604482015290519081900360640190fd5b600554600280546001600160a01b03908116600090815260046020526040902042909301909255805473ffffffffffffffffffffffffffffffffffffffff191692909116919091179055565b606060008060008060606000806000808a80602001905160a0811015610c2f57600080fd5b8101908080516040519392919084640100000000821115610c4f57600080fd5b908301906020820185811115610c6457600080fd5b8251640100000000811182820188101715610c7e57600080fd5b82525081516020918201929091019080838360005b83811015610cab578181015183820152602001610c93565b50505050905090810190601f168015610cd85780820380516001836020036101000a031916815260200191505b5060409081526020820151908201516060830151608090930151959f50909d509b5099509197505050505050505091939590929450565b6000546001600160a01b031690565b60035490565b6000546001600160a01b03163314610d6d5760405162461bcd60e51b815260040180806020018281038252602e8152602001806125a3602e913960400191505060405180910390fd5b610d778282611dd6565b5050565b6000546001600160a01b03163314610dda576040805162461bcd60e51b815260206004820152601b60248201527f6f6e6c792061646d696e2063616e206368616e67652061646d696e0000000000604482015290519081900360640190fd5b600054604080516001600160a01b039283168152918316602083015280517f7e644d79422f17c01e4894b5f4f588d331ebfa28653d42ae832dc59e38c9798f9281900390910190a16000805473ffffffffffffffffffffffffffffffffffffffff19166001600160a01b0392909216919091179055565b6000546001600160a01b03163314610eb0576040805162461bcd60e51b815260206004820152600e60248201527f4e4f545f415554484f52495a4544000000000000000000000000000000000000604482015290519081900360640190fd5b7f00000000000000000000000000000000000000000000000000000000000000006001600160a01b0316632eb2c2d63087878787876040518763ffffffff1660e01b815260040180876001600160a01b03166001600160a01b03168152602001866001600160a01b03166001600160a01b031681526020018060200180602001806020018481038452888882818152602001925060200280828437600083820152601f01601f19169091018581038452868152602090810191508790870280828437600081840152601f19601f8201169050808301925050508481038252600081526020016020019950505050505050505050600060405180830381600087803b158015610fbd57600080fd5b505af1158015610fd1573d6000803e3d6000fd5b505050505050505050565b6001600160a01b038116611037576040805162461bcd60e51b815260206004820152600c60248201527f5a45524f5f414444524553530000000000000000000000000000000000000000604482015290519081900360640190fd5b6000546001600160a01b03163314611096576040805162461bcd60e51b815260206004820152600e60248201527f4e4f545f415554484f52495a4544000000000000000000000000000000000000604482015290519081900360640190fd5b6006805473ffffffffffffffffffffffffffffffffffffffff19166001600160a01b0392909216919091179055565b7fbc197c810000000000000000000000000000000000000000000000000000000098975050505050505050565b60006003548211806111155750836001600160a01b0316856001600160a01b0316145b8061111f57508242115b1561112c57506000611225565b60408051606087811b7fffffffffffffffffffffffffffffffffffffffff0000000000000000000000009081166020808501919091529188901b166034830152604882018690526068808301869052835180840390910181526088830184528051908201207f19457468657265756d205369676e6564204d6573736167653a0a33320000000060a884015260c48084018290528451808503909101815260e490930190935281519101206000906111e39089611e58565b6001600160a01b038116600090815260046020526040902054909150421161121057600192505050611225565b6002546001600160a01b039081169116149150505b95945050505050565b6002546001600160a01b031690565b6001600160a01b031660009081526001602052604090205460ff1690565b6000546001600160a01b031633146112ba576040805162461bcd60e51b815260206004820152601060248201527f53656e646572206e6f742061646d696e00000000000000000000000000000000604482015290519081900360640190fd5b600355565b7ff23a6e61000000000000000000000000000000000000000000000000000000009695505050505050565b7f0000000000000000000000000000000000000000000000000000000000000000421061135e576040805162461bcd60e51b815260206004820152600c60248201527f53414c455f49535f4f5645520000000000000000000000000000000000000000604482015290519081900360640190fd5b6001600160a01b03821633148061138457503360009081526001602052604090205460ff165b6113d5576040805162461bcd60e51b815260206004820152600e60248201527f4e4f545f415554484f52495a4544000000000000000000000000000000000000604482015290519081900360640190fd5b6001600160a01b03811615806113fc5750816001600160a01b0316816001600160a01b0316145b610d77576040805162461bcd60e51b815260206004820152600d60248201527f52455345525645445f4c414e4400000000000000000000000000000000000000604482015290519081900360640190fd5b600087878760008151811061145e57fe5b60200260200101518860018151811061147357fe5b60200260200101518960028151811061148857fe5b60200260200101518a60038151811061149d57fe5b60200260200101518a8a60405160200180828051906020019060200280838360005b838110156114d75781810151838201526020016114bf565b50505050905001915050604051602081830303815290604052805190602001208a60405160200180828051906020019060200280838360005b83811015611528578181015183820152602001611510565b5050505090500191505060405160208183030381529060405280519060200120604051602001808a6001600160a01b03166001600160a01b031660601b8152601401896001600160a01b03166001600160a01b031660601b81526014018881526020018781526020018681526020018581526020018481526020018381526020018281526020019950505050505050505050604051602081830303815290604052805190602001209050600760009054906101000a90046001600160a01b03166001600160a01b031663012847ed83836040518363ffffffff1660e01b81526004018080602001838152602001828103825284818151815260200191508051906020019080838360005b8381101561164a578181015183820152602001611632565b50505050905090810190601f1680156116775780820380516001836020036101000a031916815260200191505b50935050505060206040518083038186803b15801561169557600080fd5b505afa1580156116a9573d6000803e3d6000fd5b505050506040513d60208110156116bf57600080fd5b5051611712576040805162461bcd60e51b815260206004820152600c60248201527f494e56414c49445f415554480000000000000000000000000000000000000000604482015290519081900360640190fd5b60006117738760008151811061172457fe5b60200260200101518860018151811061173957fe5b60200260200101518960028151811061174e57fe5b60200260200101518a60038151811061176357fe5b60200260200101518c8b8b611f25565b905061177f8482611fca565b610fd1576040805162461bcd60e51b815260206004820152600c60248201527f494e56414c49445f4c414e440000000000000000000000000000000000000000604482015290519081900360640190fd5b60006117dc8484612095565b60065490915061181b908590839085906001600160a01b03167f00000000000000000000000000000000000000000000000000000000000000006121ee565b50505050565b8060028151811061182e57fe5b60200260200101516001148061186b57507f00000000000000000000000000000000000000000000000000000000000000006001600160a01b0316155b1561196d577f00000000000000000000000000000000000000000000000000000000000000006001600160a01b0316636e1e3bbf83836002815181106118ad57fe5b6020026020010151846000815181106118c257fe5b6020026020010151856001815181106118d757fe5b60200260200101516040518563ffffffff1660e01b815260040180856001600160a01b03166001600160a01b031681526020018481526020018381526020018281526020018060200182810382526000815260200160200195505050505050600060405180830381600087803b15801561195057600080fd5b505af1158015611964573d6000803e3d6000fd5b50505050611b0d565b7f00000000000000000000000000000000000000000000000000000000000000006001600160a01b0316636e1e3bbf7f0000000000000000000000000000000000000000000000000000000000000000836002815181106119ca57fe5b6020026020010151846000815181106119df57fe5b6020026020010151856001815181106119f457fe5b60200260200101518760405160200180826001600160a01b03166001600160a01b031681526020019150506040516020818303038152906040526040518663ffffffff1660e01b815260040180866001600160a01b03166001600160a01b0316815260200185815260200184815260200183815260200180602001828103825283818151815260200191508051906020019080838360005b83811015611aa4578181015183820152602001611a8c565b50505050905090810190601f168015611ad15780820380516001836020036101000a031916815260200191505b509650505050505050600060405180830381600087803b158015611af457600080fd5b505af1158015611b08573d6000803e3d6000fd5b505050505b61019881600181518110611b1d57fe5b60200260200101510281600081518110611b3357fe5b602002602001015101826001600160a01b0316846001600160a01b03167fe4dfa6ac11314892f3029b34a25b1a887da3b1cab2bbf8506d87128ba6e3ac0284600281518110611b7e57fe5b602002602001015185600381518110611b9357fe5b60200260200101517f000000000000000000000000000000000000000000000000000000000000000087600381518110611bc957fe5b602002602001015160405180858152602001848152602001836001600160a01b03166001600160a01b0316815260200182815260200194505050505060405180910390a4505050565b6060815167ffffffffffffffff81118015611c2c57600080fd5b50604051908082528060200260200182016040528015611c56578160200160208202803683370190505b50905060005b8251811015611c86576001828281518110611c7357fe5b6020908102919091010152600101611c5c565b507f00000000000000000000000000000000000000000000000000000000000000006001600160a01b0316632eb2c2d6308585856040518563ffffffff1660e01b815260040180856001600160a01b03166001600160a01b03168152602001846001600160a01b03166001600160a01b03168152602001806020018060200180602001848103845286818151815260200191508051906020019060200280838360005b83811015611d41578181015183820152602001611d29565b50505050905001848103835285818151815260200191508051906020019060200280838360005b83811015611d80578181015183820152602001611d68565b50505050905001848103825260008152602001602001975050505050505050600060405180830381600087803b158015611db957600080fd5b505af1158015611dcd573d6000803e3d6000fd5b50505050505050565b6001600160a01b03821660008181526001602090815260409182902080547fffffffffffffffffffffffffffffffffffffffffffffffffffffffffffffff001685151590811790915582519384529083015280517fb21eb88b4e33b3f1281830a7178d74d8aa73220416215726b68ae23d539515cb9281900390910190a15050565b60008151604114611e6857600080fd5b60208201516040830151606084015160001a601b811015611e8757601b015b8060ff16601b1480611e9c57508060ff16601c145b611ea557600080fd5b6040805160008152602080820180845289905260ff8416828401526060820186905260808201859052915160019260a0808401939192601f1981019281900390910190855afa158015611efc573d6000803e3d6000fd5b5050604051601f1901519450506001600160a01b038416611f1c57600080fd5b50505092915050565b60008787878787878760405160200180888152602001878152602001868152602001858152602001846001600160a01b03166001600160a01b031660601b8152601401838152602001828051906020019060200280838360005b83811015611f97578181015183820152602001611f7f565b50505050905001975050505050505050604051602081830303815290604052805190602001209050979650505050505050565b600081815b8451811015612069576000858281518110611fe657fe5b602002602001015190508083101561202e5782816040516020018083815260200182815260200192505050604051602081830303815290604052805190602001209250612060565b808360405160200180838152602001828152602001925050506040516020818303038152906040528051906020012092505b50600101611fcf565b507f00000000000000000000000000000000000000000000000000000000000000001490505b92915050565b6000806120ba60646120ae85600563ffffffff61247016565b9063ffffffff6124e016565b604080516323b872dd60e01b81526001600160a01b0387811660048301527f0000000000000000000000000000000000000000000000000000000000000000811660248301526044820184905291519293507f0000000000000000000000000000000000000000000000000000000000000000909116916323b872dd916064808201926020929091908290030181600087803b15801561215957600080fd5b505af115801561216d573d6000803e3d6000fd5b505050506040513d602081101561218357600080fd5b50516121d6576040805162461bcd60e51b815260206004820152601360248201527f4645455f5452414e534645525f4641494c454400000000000000000000000000604482015290519081900360640190fd5b6121e6838263ffffffff61254516565b949350505050565b8251819085901561239857606060008060008061220a8a610c0a565b939850919650945092509050600061222586868686866110f2565b156122b35761223f6122378d84612470565b6127106124e0565b9050886001600160a01b0316846001600160a01b0316866001600160a01b03167fac7a699eb95c3c6d390ec4626de17ef9a67b35891efdb197beba7c7fdd45fac48f858760405180848152602001838152602001828152602001935050505060405180910390a46122b08782612545565b96505b801561239157604080516323b872dd60e01b81526001600160a01b038f811660048301528781166024830152604482018490529151918a16916323b872dd916064808201926020929091908290030181600087803b15801561231457600080fd5b505af1158015612328573d6000803e3d6000fd5b505050506040513d602081101561233e57600080fd5b5051612391576040805162461bcd60e51b815260206004820152601960248201527f636f6d6d6973696f6e207472616e73666572206661696c656400000000000000604482015290519081900360640190fd5b5050505050505b604080516323b872dd60e01b81526001600160a01b0389811660048301528681166024830152604482018490529151918416916323b872dd916064808201926020929091908290030181600087803b1580156123f357600080fd5b505af1158015612407573d6000803e3d6000fd5b505050506040513d602081101561241d57600080fd5b5051611dcd576040805162461bcd60e51b815260206004820152601760248201527f7061796d656e74207472616e73666572206661696c6564000000000000000000604482015290519081900360640190fd5b60008261247f5750600061208f565b508181028183828161248d57fe5b041461208f576040805162461bcd60e51b815260206004820152600860248201527f6f766572666c6f77000000000000000000000000000000000000000000000000604482015290519081900360640190fd5b600081612534576040805162461bcd60e51b815260206004820152600960248201527f64697662797a65726f0000000000000000000000000000000000000000000000604482015290519081900360640190fd5b81838161253d57fe5b049392505050565b60008282111561259c576040805162461bcd60e51b815260206004820152600860248201527f756e6465666c6f77000000000000000000000000000000000000000000000000604482015290519081900360640190fd5b5090039056fe6f6e6c792061646d696e2063616e207365747570206d6574615472616e73616374696f6e50726f636573736f7273a2646970667358221220fc9205bafc138c1de206481f144dc3e7818922fbe1a20d2a71392e5e2e413c1a64736f6c63430006050033",
  "devdoc": {
    "methods": {
      "buyLandWithSand(address,address,address,uint256[],bytes32,uint256[],bytes32[],bytes,bytes)": {
        "params": {
          "buyer": "address that perform the payment",
          "info": "[X_INDEX=0] x coordinate of the Land [Y_INDEX=1] y coordinate of the Land [SIZE_INDEX=2] size of the pack of Land to purchase [PRICE_INDEX=3] price in SAND to purchase that Land",
          "proof": "merkleProof for that particular Land",
          "reserved": "the reserved address (if any)",
          "to": "address that will own the purchased Land"
        }
      },
      "changeAdmin(address)": {
        "details": "change the administrator to be `newAdmin`.",
        "params": {
          "newAdmin": "address of the new administrator."
        }
      },
      "getAdmin()": {
        "details": "gives the current administrator of this contract.",
        "returns": {
          "_0": "the current administrator of this contract."
        }
      },
      "getSigningWallet()": {
        "details": "signing wallet authorized for referral",
        "returns": {
          "_0": "the address of the signing wallet"
        }
      },
      "isMetaTransactionProcessor(address)": {
        "details": "check whether address `who` is given meta-transaction execution rights.",
        "params": {
          "who": "The address to query."
        },
        "returns": {
          "_0": "whether the address has meta-transaction execution rights."
        }
      },
      "isReferralValid(bytes,address,address,uint256,uint256)": {
        "params": {
          "commissionRate": "The commissionRate of the referral",
          "expiryTime": "The expiry time of the referral",
          "referee": "The address of the referee",
          "referrer": "The address of the referrer",
          "signature": "The signature to check (signed referral)"
        },
        "returns": {
          "_0": "True if the referral is valid"
        }
      },
      "setMetaTransactionProcessor(address,bool)": {
        "details": "Enable or disable the ability of `metaTransactionProcessor` to perform meta-tx (metaTransactionProcessor rights).",
        "params": {
          "enabled": "set whether the metaTransactionProcessor is enabled or disabled.",
          "metaTransactionProcessor": "address that will be given/removed metaTransactionProcessor rights."
        }
      },
      "setReceivingWallet(address)": {
        "params": {
          "newWallet": "address of the new receiving wallet"
        }
      },
      "updateMaxCommissionRate(uint256)": {
        "details": "Update the maximum commission rate",
        "params": {
          "newMaxCommissionRate": "The new maximum commission rate"
        }
      },
      "updateSigningWallet(address)": {
        "details": "Update the signing wallet",
        "params": {
          "newSigningWallet": "The new address of the signing wallet"
        }
      },
      "withdrawAssets(address,uint256[],uint256[])": {
        "params": {
          "assetIds": "the assetIds to be transferred",
          "to": "intended recipient of the asset tokens",
          "values": "the quantities of the assetIds to be transferred"
        }
      }
    },
    "title": "Estate Sale contract with referral"
  },
  "userdoc": {
    "methods": {
      "buyLandWithSand(address,address,address,uint256[],bytes32,uint256[],bytes32[],bytes,bytes)": {
        "notice": "buy Land with SAND using the merkle proof associated with it"
      },
      "getExpiryTime()": {
        "notice": "Gets the expiry time for the current sale"
      },
      "getMaxCommisionRate()": {
        "notice": "the max commision rate"
      },
      "getMerkleRoot()": {
        "notice": "Gets the Merkle root associated with the current sale"
      },
      "isReferralValid(bytes,address,address,uint256,uint256)": {
        "notice": "Check if a referral is valid"
      },
      "setReceivingWallet(address)": {
        "notice": "set the wallet receiving the proceeds"
      },
      "withdrawAssets(address,uint256[],uint256[])": {
        "notice": "enable Admin to withdraw remaining assets from EstateSaleWithFee contract"
      }
    },
    "notice": "This contract manages the sale of our lands as Estates"
  },
  "storageLayout": {
    "storage": [
      {
        "astId": 13650,
        "contract": "src/solc_0.6/EstateSale/EstateSaleWithAuth.sol:EstateSaleWithAuth",
        "label": "_admin",
        "offset": 0,
        "slot": "0",
        "type": "t_address"
      },
      {
        "astId": 13712,
        "contract": "src/solc_0.6/EstateSale/EstateSaleWithAuth.sol:EstateSaleWithAuth",
        "label": "_metaTransactionContracts",
        "offset": 0,
        "slot": "1",
        "type": "t_mapping(t_address,t_bool)"
      },
      {
        "astId": 11828,
        "contract": "src/solc_0.6/EstateSale/EstateSaleWithAuth.sol:EstateSaleWithAuth",
        "label": "_signingWallet",
        "offset": 0,
        "slot": "2",
        "type": "t_address"
      },
      {
        "astId": 11830,
        "contract": "src/solc_0.6/EstateSale/EstateSaleWithAuth.sol:EstateSaleWithAuth",
        "label": "_maxCommissionRate",
        "offset": 0,
        "slot": "3",
        "type": "t_uint256"
      },
      {
        "astId": 11834,
        "contract": "src/solc_0.6/EstateSale/EstateSaleWithAuth.sol:EstateSaleWithAuth",
        "label": "_previousSigningWallets",
        "offset": 0,
        "slot": "4",
        "type": "t_mapping(t_address,t_uint256)"
      },
      {
        "astId": 11843,
        "contract": "src/solc_0.6/EstateSale/EstateSaleWithAuth.sol:EstateSaleWithAuth",
        "label": "_previousSigningDelay",
        "offset": 0,
        "slot": "5",
        "type": "t_uint256"
      },
      {
        "astId": 7453,
        "contract": "src/solc_0.6/EstateSale/EstateSaleWithAuth.sol:EstateSaleWithAuth",
        "label": "_wallet",
        "offset": 0,
        "slot": "6",
        "type": "t_address_payable"
      },
      {
        "astId": 7455,
        "contract": "src/solc_0.6/EstateSale/EstateSaleWithAuth.sol:EstateSaleWithAuth",
        "label": "_authValidator",
        "offset": 0,
        "slot": "7",
        "type": "t_contract(AuthValidator)6784"
      }
    ],
    "types": {
      "t_address": {
        "encoding": "inplace",
        "label": "address",
        "numberOfBytes": "20"
      },
      "t_address_payable": {
        "encoding": "inplace",
        "label": "address payable",
        "numberOfBytes": "20"
      },
      "t_bool": {
        "encoding": "inplace",
        "label": "bool",
        "numberOfBytes": "1"
      },
      "t_contract(AuthValidator)6784": {
        "encoding": "inplace",
        "label": "contract AuthValidator",
        "numberOfBytes": "20"
      },
      "t_mapping(t_address,t_bool)": {
        "encoding": "mapping",
        "key": "t_address",
        "label": "mapping(address => bool)",
        "numberOfBytes": "32",
        "value": "t_bool"
      },
      "t_mapping(t_address,t_uint256)": {
        "encoding": "mapping",
        "key": "t_address",
        "label": "mapping(address => uint256)",
        "numberOfBytes": "32",
        "value": "t_uint256"
      },
      "t_uint256": {
        "encoding": "inplace",
        "label": "uint256",
        "numberOfBytes": "32"
      }
    }
  }
}