{
  "address": "0x0d71952E2163D866478aF5B0088d4EA298b4cF15",
  "abi": [
    {
      "inputs": [
        {
          "internalType": "address",
          "name": "landAddress",
          "type": "address"
        },
        {
          "internalType": "address",
          "name": "sandContractAddress",
          "type": "address"
        },
        {
          "internalType": "address",
          "name": "initialMetaTx",
          "type": "address"
        },
        {
          "internalType": "address",
          "name": "admin",
          "type": "address"
        },
        {
          "internalType": "address payable",
          "name": "initialWalletAddress",
          "type": "address"
        },
        {
          "internalType": "bytes32",
          "name": "merkleRoot",
          "type": "bytes32"
        },
        {
          "internalType": "uint256",
          "name": "expiryTime",
          "type": "uint256"
        },
        {
          "internalType": "address",
          "name": "initialSigningWallet",
          "type": "address"
        },
        {
          "internalType": "uint256",
          "name": "initialMaxCommissionRate",
          "type": "uint256"
        },
        {
          "internalType": "address",
          "name": "estate",
          "type": "address"
        },
        {
          "internalType": "address",
          "name": "asset",
          "type": "address"
        },
        {
          "internalType": "address",
          "name": "feeDistributor",
          "type": "address"
        },
        {
          "internalType": "address",
          "name": "authValidator",
          "type": "address"
        }
      ],
      "stateMutability": "nonpayable",
      "type": "constructor"
    },
    {
      "anonymous": false,
      "inputs": [
        {
          "indexed": false,
          "internalType": "address",
          "name": "oldAdmin",
          "type": "address"
        },
        {
          "indexed": false,
          "internalType": "address",
          "name": "newAdmin",
          "type": "address"
        }
      ],
      "name": "AdminChanged",
      "type": "event"
    },
    {
      "anonymous": false,
      "inputs": [
        {
          "indexed": true,
          "internalType": "address",
          "name": "buyer",
          "type": "address"
        },
        {
          "indexed": true,
          "internalType": "address",
          "name": "to",
          "type": "address"
        },
        {
          "indexed": true,
          "internalType": "uint256",
          "name": "topCornerId",
          "type": "uint256"
        },
        {
          "indexed": false,
          "internalType": "uint256",
          "name": "size",
          "type": "uint256"
        },
        {
          "indexed": false,
          "internalType": "uint256",
          "name": "price",
          "type": "uint256"
        },
        {
          "indexed": false,
          "internalType": "address",
          "name": "token",
          "type": "address"
        },
        {
          "indexed": false,
          "internalType": "uint256",
          "name": "amountPaid",
          "type": "uint256"
        }
      ],
      "name": "LandQuadPurchased",
      "type": "event"
    },
    {
      "anonymous": false,
      "inputs": [
        {
          "indexed": false,
          "internalType": "address",
          "name": "metaTransactionProcessor",
          "type": "address"
        },
        {
          "indexed": false,
          "internalType": "bool",
          "name": "enabled",
          "type": "bool"
        }
      ],
      "name": "MetaTransactionProcessor",
      "type": "event"
    },
    {
      "anonymous": false,
      "inputs": [
        {
          "indexed": true,
          "internalType": "address",
          "name": "referrer",
          "type": "address"
        },
        {
          "indexed": true,
          "internalType": "address",
          "name": "referee",
          "type": "address"
        },
        {
          "indexed": true,
          "internalType": "address",
          "name": "token",
          "type": "address"
        },
        {
          "indexed": false,
          "internalType": "uint256",
          "name": "amount",
          "type": "uint256"
        },
        {
          "indexed": false,
          "internalType": "uint256",
          "name": "commission",
          "type": "uint256"
        },
        {
          "indexed": false,
          "internalType": "uint256",
          "name": "commissionRate",
          "type": "uint256"
        }
      ],
      "name": "ReferralUsed",
      "type": "event"
    },
    {
      "inputs": [
        {
          "internalType": "address",
          "name": "buyer",
          "type": "address"
        },
        {
          "internalType": "address",
          "name": "to",
          "type": "address"
        },
        {
          "internalType": "address",
          "name": "reserved",
          "type": "address"
        },
        {
          "internalType": "uint256[]",
          "name": "info",
          "type": "uint256[]"
        },
        {
          "internalType": "bytes32",
          "name": "salt",
          "type": "bytes32"
        },
        {
          "internalType": "uint256[]",
          "name": "assetIds",
          "type": "uint256[]"
        },
        {
          "internalType": "bytes32[]",
          "name": "proof",
          "type": "bytes32[]"
        },
        {
          "internalType": "bytes",
          "name": "referral",
          "type": "bytes"
        },
        {
          "internalType": "bytes",
          "name": "signature",
          "type": "bytes"
        }
      ],
      "name": "buyLandWithSand",
      "outputs": [],
      "stateMutability": "nonpayable",
      "type": "function"
    },
    {
      "inputs": [
        {
          "internalType": "address",
          "name": "newAdmin",
          "type": "address"
        }
      ],
      "name": "changeAdmin",
      "outputs": [],
      "stateMutability": "nonpayable",
      "type": "function"
    },
    {
      "inputs": [
        {
          "internalType": "bytes",
          "name": "referral",
          "type": "bytes"
        }
      ],
      "name": "decodeReferral",
      "outputs": [
        {
          "internalType": "bytes",
          "name": "",
          "type": "bytes"
        },
        {
          "internalType": "address",
          "name": "",
          "type": "address"
        },
        {
          "internalType": "address",
          "name": "",
          "type": "address"
        },
        {
          "internalType": "uint256",
          "name": "",
          "type": "uint256"
        },
        {
          "internalType": "uint256",
          "name": "",
          "type": "uint256"
        }
      ],
      "stateMutability": "pure",
      "type": "function"
    },
    {
      "inputs": [],
      "name": "getAdmin",
      "outputs": [
        {
          "internalType": "address",
          "name": "",
          "type": "address"
        }
      ],
      "stateMutability": "view",
      "type": "function"
    },
    {
      "inputs": [],
      "name": "getExpiryTime",
      "outputs": [
        {
          "internalType": "uint256",
          "name": "",
          "type": "uint256"
        }
      ],
      "stateMutability": "view",
      "type": "function"
    },
    {
      "inputs": [],
      "name": "getMaxCommisionRate",
      "outputs": [
        {
          "internalType": "uint256",
          "name": "",
          "type": "uint256"
        }
      ],
      "stateMutability": "view",
      "type": "function"
    },
    {
      "inputs": [],
      "name": "getMerkleRoot",
      "outputs": [
        {
          "internalType": "bytes32",
          "name": "",
          "type": "bytes32"
        }
      ],
      "stateMutability": "view",
      "type": "function"
    },
    {
      "inputs": [],
      "name": "getSigningWallet",
      "outputs": [
        {
          "internalType": "address",
          "name": "",
          "type": "address"
        }
      ],
      "stateMutability": "view",
      "type": "function"
    },
    {
      "inputs": [
        {
          "internalType": "address",
          "name": "who",
          "type": "address"
        }
      ],
      "name": "isMetaTransactionProcessor",
      "outputs": [
        {
          "internalType": "bool",
          "name": "",
          "type": "bool"
        }
      ],
      "stateMutability": "view",
      "type": "function"
    },
    {
      "inputs": [
        {
          "internalType": "bytes",
          "name": "signature",
          "type": "bytes"
        },
        {
          "internalType": "address",
          "name": "referrer",
          "type": "address"
        },
        {
          "internalType": "address",
          "name": "referee",
          "type": "address"
        },
        {
          "internalType": "uint256",
          "name": "expiryTime",
          "type": "uint256"
        },
        {
          "internalType": "uint256",
          "name": "commissionRate",
          "type": "uint256"
        }
      ],
      "name": "isReferralValid",
      "outputs": [
        {
          "internalType": "bool",
          "name": "",
          "type": "bool"
        }
      ],
      "stateMutability": "view",
      "type": "function"
    },
    {
      "inputs": [
        {
          "internalType": "address",
          "name": "",
          "type": "address"
        },
        {
          "internalType": "address",
          "name": "",
          "type": "address"
        },
        {
          "internalType": "uint256[]",
          "name": "",
          "type": "uint256[]"
        },
        {
          "internalType": "uint256[]",
          "name": "",
          "type": "uint256[]"
        },
        {
          "internalType": "bytes",
          "name": "",
          "type": "bytes"
        }
      ],
      "name": "onERC1155BatchReceived",
      "outputs": [
        {
          "internalType": "bytes4",
          "name": "",
          "type": "bytes4"
        }
      ],
      "stateMutability": "pure",
      "type": "function"
    },
    {
      "inputs": [
        {
          "internalType": "address",
          "name": "",
          "type": "address"
        },
        {
          "internalType": "address",
          "name": "",
          "type": "address"
        },
        {
          "internalType": "uint256",
          "name": "",
          "type": "uint256"
        },
        {
          "internalType": "uint256",
          "name": "",
          "type": "uint256"
        },
        {
          "internalType": "bytes",
          "name": "",
          "type": "bytes"
        }
      ],
      "name": "onERC1155Received",
      "outputs": [
        {
          "internalType": "bytes4",
          "name": "",
          "type": "bytes4"
        }
      ],
      "stateMutability": "pure",
      "type": "function"
    },
    {
      "inputs": [
        {
          "internalType": "address",
          "name": "metaTransactionProcessor",
          "type": "address"
        },
        {
          "internalType": "bool",
          "name": "enabled",
          "type": "bool"
        }
      ],
      "name": "setMetaTransactionProcessor",
      "outputs": [],
      "stateMutability": "nonpayable",
      "type": "function"
    },
    {
      "inputs": [
        {
          "internalType": "address payable",
          "name": "newWallet",
          "type": "address"
        }
      ],
      "name": "setReceivingWallet",
      "outputs": [],
      "stateMutability": "nonpayable",
      "type": "function"
    },
    {
      "inputs": [
        {
          "internalType": "uint256",
          "name": "newMaxCommissionRate",
          "type": "uint256"
        }
      ],
      "name": "updateMaxCommissionRate",
      "outputs": [],
      "stateMutability": "nonpayable",
      "type": "function"
    },
    {
      "inputs": [
        {
          "internalType": "address",
          "name": "newSigningWallet",
          "type": "address"
        }
      ],
      "name": "updateSigningWallet",
      "outputs": [],
      "stateMutability": "nonpayable",
      "type": "function"
    },
    {
      "inputs": [
        {
          "internalType": "address",
          "name": "to",
          "type": "address"
        },
        {
          "internalType": "uint256[]",
          "name": "assetIds",
          "type": "uint256[]"
        },
        {
          "internalType": "uint256[]",
          "name": "values",
          "type": "uint256[]"
        }
      ],
      "name": "withdrawAssets",
      "outputs": [],
      "stateMutability": "nonpayable",
      "type": "function"
    }
  ],
  "transactionHash": "0xe354267f9f2179f1e5a8bbce1346a91c2e6ad0c91a4cee26a6b00c59cc4601da",
  "args": [
    "0xa4C4A09cA320AfBaE81659982dE88CC63466bB51",
    "0x32F3e11d8d9B9dc50e19D41c0ED868283824767B",
    "0x32F3e11d8d9B9dc50e19D41c0ED868283824767B",
    "0x39D01ecc951C2c1f20ba0549e62212659c4d1e06",
    "0xF22455c7F2a81E197AecD951F588a9B650f5b282",
    "0x50150b5323992632d8db3d0f83e8f13b7970925186a57f7bb30ba1d0d9a3fb3a",
    1678453200,
    "0xB7060D3FeCAC3AE1F0A0AA416E3e8E472257950e",
    2000,
    "0x0000000000000000000000000000000000000000",
    "0xf050cDB34C8f39d24eD12678Dc5Ab32BE8672AfE",
    "0x0977f5050c8158b277F93216f851e83a467ED9c9",
    "0xD3999edf36481d8f6636BB41fbdC936eA4BF5658"
  ],
  "numDeployments": 1,
  "linkedData": [
    {
      "x": 192,
      "y": 81,
      "size": 1,
      "price": "1011000000000000000000",
      "reserved": "",
      "salt": "0x78dc7e7b1dbde762a39f692a1442a55c0300936c7b6ac7dbaeeadf546cc07a73",
      "assetIds": []
    },
    {
      "x": 192,
      "y": 82,
      "size": 1,
      "price": "1011000000000000000000",
      "reserved": "",
      "salt": "0xfa635f9b1cb1262161724ff4dce6d98264b67b691d28ab13a5e24b9d0077f547",
      "assetIds": []
    },
    {
      "x": 192,
      "y": 83,
      "size": 1,
      "price": "1011000000000000000000",
      "reserved": "",
      "salt": "0xf087ede853126c3bfd7884592a469e936ba0b2f33f43eda7cb78b8c283b2504a",
      "assetIds": []
    },
    {
      "x": 192,
      "y": 84,
      "size": 1,
      "price": "1011000000000000000000",
      "reserved": "",
      "salt": "0xbe1f737bc52ed60bd81a3a55cc038ef73c58eaf325cb5c2eec5f595dfbf86c98",
      "assetIds": []
    },
    {
      "x": 192,
      "y": 85,
      "size": 1,
      "price": "1011000000000000000000",
      "reserved": "",
      "salt": "0x8bd3993181ba4954dfbceb21c3b8192bea13e5cf25cf0579f6948ea689ca757d",
      "assetIds": []
    },
    {
      "x": 192,
      "y": 86,
      "size": 1,
      "price": "1011000000000000000000",
      "reserved": "",
      "salt": "0xe9ee2dbf201e5651894d9f0b78c8e9cfeadc5593f2cdb40206afd4263d16ae33",
      "assetIds": []
    },
    {
      "x": 193,
      "y": 81,
      "size": 1,
      "price": "1011000000000000000000",
      "reserved": "",
      "salt": "0xed76c3895cac9b8b0afa976b934e8e2f9f06d565dc80f6288bdb35ed150aee14",
      "assetIds": []
    },
    {
      "x": 193,
      "y": 82,
      "size": 1,
      "price": "1011000000000000000000",
      "reserved": "",
      "salt": "0x2211ee96c6eeb993c9130f10920307a2e46e146b35fc86f59c2ba97b93d2afbb",
      "assetIds": []
    },
    {
      "x": 193,
      "y": 83,
      "size": 1,
      "price": "1011000000000000000000",
      "reserved": "",
      "salt": "0x63809d20074a910928a19f3f7befdb1178e5f188ecffa08c06f628623f8e09ca",
      "assetIds": []
    },
    {
      "x": 193,
      "y": 84,
      "size": 1,
      "price": "1011000000000000000000",
      "reserved": "",
      "salt": "0xb96d5964cb14b36867b4ebaa3da981e756a86a1684a8eec0ec6dcbe31f6454df",
      "assetIds": []
    },
    {
      "x": 193,
      "y": 85,
      "size": 1,
      "price": "1011000000000000000000",
      "reserved": "",
      "salt": "0x417b01ec0c1f3c60b478695163b488bd30c04c11fd6e744bbf11c0f0841b8f66",
      "assetIds": []
    },
    {
      "x": 193,
      "y": 86,
      "size": 1,
      "price": "1011000000000000000000",
      "reserved": "",
      "salt": "0xf4aca5f63e31bbe7f75ba677bdc90a98a02c8153f4af4c9de4a31eaca41c9b6a",
      "assetIds": []
    },
    {
      "x": 194,
      "y": 81,
      "size": 1,
      "price": "1011000000000000000000",
      "reserved": "",
      "salt": "0x7acd600314b1f82d3bbf20a91e006cd8cf1d5b6e65bf47a39ca128c1a01f9b0e",
      "assetIds": []
    },
    {
      "x": 194,
      "y": 82,
      "size": 1,
      "price": "1011000000000000000000",
      "reserved": "",
      "salt": "0x187106b6ae758d4e7f45c4bc66ee8816460d7a41449cef95037f6e7d0c65ef75",
      "assetIds": []
    },
    {
      "x": 194,
      "y": 83,
      "size": 1,
      "price": "1011000000000000000000",
      "reserved": "",
      "salt": "0x292d2b3b952ae284a224bd3367ef0a8e9d0636fd640ba01ad8b14dddfe4c17a2",
      "assetIds": []
    },
    {
      "x": 194,
      "y": 84,
      "size": 1,
      "price": "1011000000000000000000",
      "reserved": "",
      "salt": "0xb2b39124b41449a3d89e3484276e8c8384c1f9b8252de183ec7416442f6d0d44",
      "assetIds": []
    },
    {
      "x": 194,
      "y": 85,
      "size": 1,
      "price": "1011000000000000000000",
      "reserved": "",
      "salt": "0x0f1074d6a2ae50afbaa78eea144de5039f486dd1ce3f129b75c1bde8e44f39a7",
      "assetIds": []
    },
    {
      "x": 194,
      "y": 86,
      "size": 1,
      "price": "1011000000000000000000",
      "reserved": "",
      "salt": "0xc8e5df077fa6e74dc41844d655112478ff3fd960089ccb9de80a6f3bf6d661e8",
      "assetIds": []
    },
    {
      "x": 195,
      "y": 78,
      "size": 1,
      "price": "1011000000000000000000",
      "reserved": "",
      "salt": "0x78953217d22a3e8536bbf523310ebe72b99f725d35c120af4e2ff75667a55f26",
      "assetIds": []
    },
    {
      "x": 195,
      "y": 79,
      "size": 1,
      "price": "1011000000000000000000",
      "reserved": "",
      "salt": "0x1257f73384ce5d366a4facd723e0111a2e6f6f0fa329e0f3b010768cabe6125c",
      "assetIds": []
    },
    {
      "x": 195,
      "y": 80,
      "size": 1,
      "price": "1011000000000000000000",
      "reserved": "",
      "salt": "0x4bb7818a5cf66cf4cd42013bfbb8ca60ae82c0884e14abec465a9c98df26ae83",
      "assetIds": []
    },
    {
      "x": 195,
      "y": 81,
      "size": 1,
      "price": "1011000000000000000000",
      "reserved": "",
      "salt": "0xe16a59094353b182c062380449211dc40f76b3737c78bc7f6f897e77c1148b12",
      "assetIds": []
    },
    {
      "x": 195,
      "y": 82,
      "size": 1,
      "price": "1011000000000000000000",
      "reserved": "",
      "salt": "0x90446a4a5377c7b31b27357967c1704c3d3394b0c0b9ca9fb3be57770506ff57",
      "assetIds": []
    },
    {
      "x": 195,
      "y": 83,
      "size": 1,
      "price": "1011000000000000000000",
      "reserved": "",
      "salt": "0xb2e916723b1ee1970d0a3878faeb3472b24b21afda1a0fb686eb3757efeef9fb",
      "assetIds": []
    },
    {
      "x": 195,
      "y": 87,
      "size": 1,
      "price": "1011000000000000000000",
      "reserved": "",
      "salt": "0x62ce8cd003588f3d3064d87526bfbd3009575ad4ee3468fa5fd369cdb371230e",
      "assetIds": []
    },
    {
      "x": 195,
      "y": 88,
      "size": 1,
      "price": "1011000000000000000000",
      "reserved": "",
      "salt": "0xf6aefb09bf414f9ca4754d1c3a9703ad816ff96263058df6033cd5a6aa00df8d",
      "assetIds": []
    },
    {
      "x": 195,
      "y": 89,
      "size": 1,
      "price": "1011000000000000000000",
      "reserved": "",
      "salt": "0x83c8fce2011113e729c907434240d402a850c9573bbdedcffdc957b1880ece3f",
      "assetIds": []
    },
    {
      "x": 195,
      "y": 90,
      "size": 1,
      "price": "1011000000000000000000",
      "reserved": "",
      "salt": "0xfa8f828b815804c880965cac382409542c63dba3f8f531a783cfffb677fa3f1a",
      "assetIds": []
    },
    {
      "x": 195,
      "y": 91,
      "size": 1,
      "price": "1011000000000000000000",
      "reserved": "",
      "salt": "0x447822ab450f089ff2f7c798498bdc8f40a5b55a363fe23c335eae9c4162ffbc",
      "assetIds": []
    },
    {
      "x": 195,
      "y": 92,
      "size": 1,
      "price": "1011000000000000000000",
      "reserved": "",
      "salt": "0x35bdad105ecedca2ca4a0eb9ebffa80b956897597cb5713fc3b46034031dd156",
      "assetIds": []
    },
    {
      "x": 195,
      "y": 93,
      "size": 1,
      "price": "1011000000000000000000",
      "reserved": "",
      "salt": "0xfdfbffd37887f97875c2ced60a8a25155237d584d0d4ea1dddd3f4988863e33c",
      "assetIds": []
    },
    {
      "x": 195,
      "y": 94,
      "size": 1,
      "price": "1011000000000000000000",
      "reserved": "",
      "salt": "0xd404c4e0594f928b5fdcd9f86350896e2134d2485b8f60df716cfcf480f68721",
      "assetIds": []
    },
    {
      "x": 195,
      "y": 95,
      "size": 1,
      "price": "1011000000000000000000",
      "reserved": "",
      "salt": "0x0cfaac4cf60b1f79dad77862ee69b334ed5cef329a4865392c50a7120b35a69a",
      "assetIds": []
    },
    {
      "x": 195,
      "y": 96,
      "size": 1,
      "price": "1011000000000000000000",
      "reserved": "",
      "salt": "0x89523260cb0625acfa655be85ef9d3f6cb1165735b979453a484b5b36798e720",
      "assetIds": []
    },
    {
      "x": 195,
      "y": 97,
      "size": 1,
      "price": "1011000000000000000000",
      "reserved": "",
      "salt": "0xe56a8a3982470624f2070353315ed27b0d7359cd1e976a6b44f5b7bcbfab8df8",
      "assetIds": []
    },
    {
      "x": 195,
      "y": 98,
      "size": 1,
      "price": "1011000000000000000000",
      "reserved": "",
      "salt": "0xa7f27514aac9c2c8c14865209f978fdcb83739201d5ad2b7c1a036836f0715f1",
      "assetIds": []
    },
    {
      "x": 195,
      "y": 99,
      "size": 1,
      "price": "1011000000000000000000",
      "reserved": "",
      "salt": "0xdd4d976b9da94dcda9d3cfa93f02b452cbfe2af846d26de0685b7d5e7dc746d7",
      "assetIds": []
    },
    {
      "x": 195,
      "y": 100,
      "size": 1,
      "price": "1011000000000000000000",
      "reserved": "",
      "salt": "0xfe9c83343aa6bb8f57963c4af35e0b2f08e05fbac50065a9534bdc6992b87905",
      "assetIds": []
    },
    {
      "x": 195,
      "y": 101,
      "size": 1,
      "price": "1011000000000000000000",
      "reserved": "",
      "salt": "0x5aed79087519b8ae8ae986cdc008d8af215dac81590b65fe24addf59ec995dd1",
      "assetIds": []
    },
    {
      "x": 196,
      "y": 78,
      "size": 1,
      "price": "1011000000000000000000",
      "reserved": "",
      "salt": "0xc305b2e7b0c2ba10c2589516928de573d14991ae2993c331b53d16adb3ba2ef2",
      "assetIds": []
    },
    {
      "x": 196,
      "y": 79,
      "size": 1,
      "price": "4683000000000000000000",
      "reserved": "",
      "salt": "0xa97ade71470b17cc11b8f8dd2fef3567874e5a165b3ff447187a51532b8d0787",
      "assetIds": [
        "41506478881403507969696680653240014914910929820314476107906210059990541021185"
      ]
    },
    {
      "x": 196,
      "y": 80,
      "size": 1,
      "price": "4683000000000000000000",
      "reserved": "",
      "salt": "0xc0f36e0cd4814a6d2ff7ce6cd165dcedd19ef13321d0279875016c0973b2c00c",
      "assetIds": [
        "41506478881403507969696680653240014914910929820314476107906210059990541021185"
      ]
    },
    {
      "x": 196,
      "y": 81,
      "size": 1,
      "price": "4683000000000000000000",
      "reserved": "",
      "salt": "0x326e82037741a5fa38cdf0c225225767e4073ecc173971f8178cbd78fd0cf7de",
      "assetIds": [
        "41506478881403507969696680653240014914910929820314476107906210059990541021185"
      ]
    },
    {
      "x": 196,
      "y": 82,
      "size": 1,
      "price": "4683000000000000000000",
      "reserved": "",
      "salt": "0x088f1b3587ed804d148cb4f66593a226da6c1020693c2efb1dac856a6ea2f9c6",
      "assetIds": [
        "41506478881403507969696680653240014914910929820314476107906210059990541021185"
      ]
    },
    {
      "x": 196,
      "y": 83,
      "size": 1,
      "price": "1011000000000000000000",
      "reserved": "",
      "salt": "0x1f060b64e73c49ee1242df4d5dd4fd5fe5602ca166027794fb9eb774ded88cda",
      "assetIds": []
    },
    {
      "x": 196,
      "y": 87,
      "size": 1,
      "price": "1011000000000000000000",
      "reserved": "",
      "salt": "0xf121de4e456b310515161800b3ebd8d3ebf3187ce43e1f3954b4583de87913b9",
      "assetIds": []
    },
    {
      "x": 196,
      "y": 88,
      "size": 1,
      "price": "1011000000000000000000",
      "reserved": "",
      "salt": "0x6675e530d367cc860b6e187117c99159dfc0c2e8e5984948f75e871bcf52f402",
      "assetIds": []
    },
    {
      "x": 196,
      "y": 89,
      "size": 1,
      "price": "1011000000000000000000",
      "reserved": "",
      "salt": "0x6c568cfd90e6cbc54ca1c73df821a6cfbb6d19a360ba0850c49e9035da014b2d",
      "assetIds": []
    },
    {
      "x": 196,
      "y": 90,
      "size": 1,
      "price": "1011000000000000000000",
      "reserved": "",
      "salt": "0x02709bb45778d583be85e1e6b66c8ce887a15974b46560180b61930940fde773",
      "assetIds": []
    },
    {
      "x": 196,
      "y": 91,
      "size": 1,
      "price": "4683000000000000000000",
      "reserved": "",
      "salt": "0x098044cbd39d333a7c2825f5f9295fd1f8068ade46b58676a10aeea9db9174bf",
      "assetIds": [
        "41506478881403507969696680653240014914910929820314476107906210059990541021185"
      ]
    },
    {
      "x": 196,
      "y": 92,
      "size": 1,
      "price": "4683000000000000000000",
      "reserved": "",
      "salt": "0x00b412fe0c80cb608035dba32fd0e8035716344ffd888da753bcf4665157fa94",
      "assetIds": [
        "41506478881403507969696680653240014914910929820314476107906210059990541021185"
      ]
    },
    {
      "x": 196,
      "y": 93,
      "size": 1,
      "price": "4683000000000000000000",
      "reserved": "",
      "salt": "0x7df6ce71ba5886c4b4386631c84c0c5bbc308f14140059c9d5bc0871363265df",
      "assetIds": [
        "41506478881403507969696680653240014914910929820314476107906210059990541021185"
      ]
    },
    {
      "x": 196,
      "y": 94,
      "size": 1,
      "price": "4683000000000000000000",
      "reserved": "",
      "salt": "0x6df6071a82225aebc036a78fa03cfba5420fc09e811d4612aa63448dea9082a7",
      "assetIds": [
        "41506478881403507969696680653240014914910929820314476107906210059990541021185"
      ]
    },
    {
      "x": 196,
      "y": 95,
      "size": 1,
      "price": "1011000000000000000000",
      "reserved": "",
      "salt": "0xd9cc6ecf086b9ede998a3cb3b9df2bcca41f42f6f4fbd533a9702082e03a22fd",
      "assetIds": []
    },
    {
      "x": 196,
      "y": 96,
      "size": 1,
      "price": "1011000000000000000000",
      "reserved": "",
      "salt": "0xf0dea7847fcf4a51f3197a66c53b36ef1f49970cf14ba1b993e6d51a12fa257d",
      "assetIds": []
    },
    {
      "x": 196,
      "y": 97,
      "size": 1,
      "price": "1011000000000000000000",
      "reserved": "",
      "salt": "0x1132c55304b2d810675851b562cbc5c8d5f0902e63101b3d5568d31db51f9d4e",
      "assetIds": []
    },
    {
      "x": 196,
      "y": 98,
      "size": 1,
      "price": "1011000000000000000000",
      "reserved": "",
      "salt": "0x8a59c17f6cd8dcb699be4fa4f1d9fa16bc1f5067fbf83ebae190c5672aa2f6e2",
      "assetIds": []
    },
    {
      "x": 196,
      "y": 99,
      "size": 1,
      "price": "1011000000000000000000",
      "reserved": "",
      "salt": "0x871e18ba34df5a99d6386f0609de0ef5af05065fe71b600cac15a3fad3aa97bc",
      "assetIds": []
    },
    {
      "x": 196,
      "y": 100,
      "size": 1,
      "price": "1011000000000000000000",
      "reserved": "",
      "salt": "0xcdbfdc84a66afa3988d591ddf100af5e8aa6cc990f40cd18076b982a36f9fae8",
      "assetIds": []
    },
    {
      "x": 196,
      "y": 101,
      "size": 1,
      "price": "1011000000000000000000",
      "reserved": "",
      "salt": "0xc865a431e28f03ccefb407a4bbacd5b9bfb6e49239390335af3691c0aeceaeac",
      "assetIds": []
    },
    {
      "x": 197,
      "y": 78,
      "size": 1,
      "price": "4683000000000000000000",
      "reserved": "",
      "salt": "0xa134d7b6bfc541353ffaeaaae6d4f7f21a8c7fd12bc2b47c6cd2d07bd5dffc7c",
      "assetIds": [
        "41506478881403507969696680653240014914910929820314476107906210059990541021185"
      ]
    },
    {
      "x": 197,
      "y": 79,
      "size": 1,
      "price": "4683000000000000000000",
      "reserved": "",
      "salt": "0xdc0a494c9dbc419ba12f1bef3e2f383b0f12816345b1a09146609f3272caea72",
      "assetIds": [
        "41506478881403507969696680653240014914910929820314476107906210059990541021185"
      ]
    },
    {
      "x": 197,
      "y": 80,
      "size": 1,
      "price": "4683000000000000000000",
      "reserved": "",
      "salt": "0x6c7e111e9bb8f2c53c7f563d3d1c94ee1ec4d83b4b06407ac5398c50d5aced87",
      "assetIds": [
        "41506478881403507969696680653240014914910929820314476107906210059990541021185"
      ]
    },
    {
      "x": 197,
      "y": 81,
      "size": 1,
      "price": "4683000000000000000000",
      "reserved": "",
      "salt": "0x17825dd53cdc3405ee0b41558ee9aab4d38967cb560c6f5353592481245c82b1",
      "assetIds": [
        "41506478881403507969696680653240014914910929820314476107906210059990541021185"
      ]
    },
    {
      "x": 197,
      "y": 82,
      "size": 1,
      "price": "4683000000000000000000",
      "reserved": "",
      "salt": "0x2a26fe3917b6c0d37efff82b0a8c381f3b6a8798c88625b633665e333cbc7413",
      "assetIds": [
        "41506478881403507969696680653240014914910929820314476107906210059990541021185"
      ]
    },
    {
      "x": 197,
      "y": 83,
      "size": 1,
      "price": "4683000000000000000000",
      "reserved": "",
      "salt": "0x35dc8958678d55a32be17d0c3a67a03b339005f9c5af5bff0c5397ab22fbedfb",
      "assetIds": [
        "41506478881403507969696680653240014914910929820314476107906210059990541021185"
      ]
    },
    {
      "x": 197,
      "y": 87,
      "size": 1,
      "price": "1011000000000000000000",
      "reserved": "",
      "salt": "0x06c38e456ec9e99e17ee5a2bf6dc79d973c8f779de8321dfb8e6ca212e951d43",
      "assetIds": []
    },
    {
      "x": 197,
      "y": 88,
      "size": 1,
      "price": "1011000000000000000000",
      "reserved": "",
      "salt": "0x383bc3768ed30f7ee2e99d45a86224b3518b7fc15d8bef64651a6ffba9b7e61e",
      "assetIds": []
    },
    {
      "x": 197,
      "y": 89,
      "size": 1,
      "price": "1011000000000000000000",
      "reserved": "",
      "salt": "0x7f67ba57966c711cd94ad938ed672f8f38593837a43b9c1527eedc6a0e7336ec",
      "assetIds": []
    },
    {
      "x": 197,
      "y": 90,
      "size": 1,
      "price": "4683000000000000000000",
      "reserved": "",
      "salt": "0xb3f78195be8e92044bfef75282b56eac32d6e2905b14f7e012f7dcc1230c1723",
      "assetIds": [
        "41506478881403507969696680653240014914910929820314476107906210059990541021185"
      ]
    },
    {
      "x": 197,
      "y": 91,
      "size": 1,
      "price": "4683000000000000000000",
      "reserved": "",
      "salt": "0xf376cc664c09757f0d81b0458aeb7b9edb9eea4b65b10e4136b4cc4c560b5835",
      "assetIds": [
        "41506478881403507969696680653240014914910929820314476107906210059990541021185"
      ]
    },
    {
      "x": 197,
      "y": 92,
      "size": 1,
      "price": "4683000000000000000000",
      "reserved": "",
      "salt": "0x9408c2c0537e63903d301d38b907f3200ab53d6d279dfac549c89151ac457dac",
      "assetIds": [
        "41506478881403507969696680653240014914910929820314476107906210059990541021185"
      ]
    },
    {
      "x": 197,
      "y": 93,
      "size": 1,
      "price": "4683000000000000000000",
      "reserved": "",
      "salt": "0x8b212d76b77401d10a2fa012cf4617e62a9596626808876224af1d048a7a8889",
      "assetIds": [
        "41506478881403507969696680653240014914910929820314476107906210059990541021185"
      ]
    },
    {
      "x": 197,
      "y": 94,
      "size": 1,
      "price": "4683000000000000000000",
      "reserved": "",
      "salt": "0xa1f88bb8e2bd37970c61df771fd5cdd769e8abf0d47827b5dcdd3820a302da1a",
      "assetIds": [
        "41506478881403507969696680653240014914910929820314476107906210059990541021185"
      ]
    },
    {
      "x": 197,
      "y": 95,
      "size": 1,
      "price": "4683000000000000000000",
      "reserved": "",
      "salt": "0x7718325b1588a5cea9a16f5090fd87451aba01d3bb24a150ba725e3959fbde4b",
      "assetIds": [
        "41506478881403507969696680653240014914910929820314476107906210059990541021185"
      ]
    },
    {
      "x": 197,
      "y": 96,
      "size": 1,
      "price": "1011000000000000000000",
      "reserved": "",
      "salt": "0x63aa4d7e8c73bb5b6b48dc6d2048995699968fcd5428742c4d9cdc2598612e36",
      "assetIds": []
    },
    {
      "x": 197,
      "y": 97,
      "size": 1,
      "price": "1011000000000000000000",
      "reserved": "",
      "salt": "0x55f1eb3a5387b5799c247fdf8caa309cae533bec68e00e2d24e86c46519baef7",
      "assetIds": []
    },
    {
      "x": 197,
      "y": 98,
      "size": 1,
      "price": "1011000000000000000000",
      "reserved": "",
      "salt": "0x7028c648dd826a010c561c740d3c540182928303d73d91b79d1e1e93a2f39be2",
      "assetIds": []
    },
    {
      "x": 197,
      "y": 99,
      "size": 1,
      "price": "1011000000000000000000",
      "reserved": "",
      "salt": "0x80c9e66e7f2323f7e3419c2d8571ae5e94d2eb5b5ccbbf46aee2f3ff29bb42c1",
      "assetIds": []
    },
    {
      "x": 197,
      "y": 100,
      "size": 1,
      "price": "1011000000000000000000",
      "reserved": "",
      "salt": "0xe61f00f8d800320ea57aa5c3142b0095ba12577c7c87a694a45a9181ad3c2e9a",
      "assetIds": []
    },
    {
      "x": 197,
      "y": 101,
      "size": 1,
      "price": "1011000000000000000000",
      "reserved": "",
      "salt": "0xf6f8de370c48607acec9f6a7765ac6b6fcf9d4d21b77c2bd2c616967f95a54f4",
      "assetIds": []
    },
    {
      "x": 198,
      "y": 77,
      "size": 1,
      "price": "4683000000000000000000",
      "reserved": "",
      "salt": "0x3775009dd15fe72d44b307288a8771715d4e77c6d81d2186486a48edd3f166f7",
      "assetIds": [
        "41506478881403507969696680653240014914910929820314476107906210059990541021185"
      ]
    },
    {
      "x": 198,
      "y": 84,
      "size": 1,
      "price": "4683000000000000000000",
      "reserved": "",
      "salt": "0xea90dd5efdc8b8e0aae9520ac53a11602ba814d2be8420f3da93bfb6ea9d4f82",
      "assetIds": [
        "41506478881403507969696680653240014914910929820314476107906210059990541021185"
      ]
    },
    {
      "x": 198,
      "y": 85,
      "size": 1,
      "price": "1011000000000000000000",
      "reserved": "",
      "salt": "0x9b188e72a3f91b66fe724ba000f327e0f57b46bc5adfa7ca08492d25cc4047df",
      "assetIds": []
    },
    {
      "x": 198,
      "y": 86,
      "size": 1,
      "price": "1011000000000000000000",
      "reserved": "",
      "salt": "0xf796f0cc80288e48e4af74ce2e899721bf9cf413b3db5a9a2ed438fbf92daadf",
      "assetIds": []
    },
    {
      "x": 198,
      "y": 87,
      "size": 1,
      "price": "1011000000000000000000",
      "reserved": "",
      "salt": "0x039fd3fde51ef914402667e34d0dcacb40f98d9ae7536b69fd04fb2f76e3e506",
      "assetIds": []
    },
    {
      "x": 198,
      "y": 88,
      "size": 1,
      "price": "1011000000000000000000",
      "reserved": "",
      "salt": "0x2b69e42517cd76a62fedb74f1bc6f9a7f8561c526ff7c4705ec131886d59cbf6",
      "assetIds": []
    },
    {
      "x": 198,
      "y": 89,
      "size": 1,
      "price": "4683000000000000000000",
      "reserved": "",
      "salt": "0x14ee0f59dd8e420e8850423f826341f6efa9bd3a90cddd0aee6c398763ec2104",
      "assetIds": [
        "41506478881403507969696680653240014914910929820314476107906210059990541021185"
      ]
    },
    {
      "x": 198,
      "y": 96,
      "size": 1,
      "price": "4683000000000000000000",
      "reserved": "",
      "salt": "0x34d0015eeb518ab515f3af5eea2fc4b123756abb0d8162d1942e117777283932",
      "assetIds": [
        "41506478881403507969696680653240014914910929820314476107906210059990541021185"
      ]
    },
    {
      "x": 198,
      "y": 97,
      "size": 1,
      "price": "1011000000000000000000",
      "reserved": "",
      "salt": "0xee85f7d2481a2c14f89556ae181fe0b35525d91661c303fa0a3b227195b52ce0",
      "assetIds": []
    },
    {
      "x": 198,
      "y": 98,
      "size": 1,
      "price": "1011000000000000000000",
      "reserved": "",
      "salt": "0x1d80e3ade0218c3bd91239726424bf2ee98eb1fac74b3fb85bfeaf6e4d240e8f",
      "assetIds": []
    },
    {
      "x": 198,
      "y": 99,
      "size": 1,
      "price": "1011000000000000000000",
      "reserved": "",
      "salt": "0x9f0d305f19fed4b394a234971c6a80339f2cf99ade38d6c19783fb2369fc92de",
      "assetIds": []
    },
    {
      "x": 198,
      "y": 100,
      "size": 1,
      "price": "1011000000000000000000",
      "reserved": "",
      "salt": "0x17b3160cf0aeab744937c2e4515d11c46181e81b04cc9ed9fb91ffeddb414f0d",
      "assetIds": []
    },
    {
      "x": 198,
      "y": 101,
      "size": 1,
      "price": "1011000000000000000000",
      "reserved": "",
      "salt": "0xde45035079e5b00347b4d4fa18bd9eb85aa45756c0088a7692db68f6042fa3c4",
      "assetIds": []
    },
    {
      "x": 199,
      "y": 77,
      "size": 1,
      "price": "4683000000000000000000",
      "reserved": "",
      "salt": "0x698de81f9937d3ca49674646b85f7e9a7e75c5c4f381dfcc3d8e2d17eb2982be",
      "assetIds": [
        "41506478881403507969696680653240014914910929820314476107906210059990541021185"
      ]
    },
    {
      "x": 199,
      "y": 84,
      "size": 1,
      "price": "4683000000000000000000",
      "reserved": "",
      "salt": "0xa0fa7b6a642abf2d974308e9334cd58cf093baf542d460df4ae014634cb272d5",
      "assetIds": [
        "41506478881403507969696680653240014914910929820314476107906210059990541021185"
      ]
    },
    {
      "x": 199,
      "y": 85,
      "size": 1,
      "price": "4683000000000000000000",
      "reserved": "",
      "salt": "0x1ee66bb4457ab09f5c0b5f7d86b2c42e43c839f4c767060e4f0c2894c6fa4e51",
      "assetIds": [
        "41506478881403507969696680653240014914910929820314476107906210059990541021185"
      ]
    },
    {
      "x": 199,
      "y": 86,
      "size": 1,
      "price": "1011000000000000000000",
      "reserved": "",
      "salt": "0x689167d413cb6e4feb66d13b7161ddacb9613d6d47c4f8d1b1213a2a124d09ca",
      "assetIds": []
    },
    {
      "x": 199,
      "y": 87,
      "size": 1,
      "price": "1011000000000000000000",
      "reserved": "",
      "salt": "0xfc081190f81ac4d3872f8e57004850415c3773ab54fc17d4b0b75f8e26cb1179",
      "assetIds": []
    },
    {
      "x": 199,
      "y": 88,
      "size": 1,
      "price": "4683000000000000000000",
      "reserved": "",
      "salt": "0x492c76e038c407d0f30960a259f6a8923f76a571a4c95a99b995df9cdc6583c0",
      "assetIds": [
        "41506478881403507969696680653240014914910929820314476107906210059990541021185"
      ]
    },
    {
      "x": 199,
      "y": 89,
      "size": 1,
      "price": "4683000000000000000000",
      "reserved": "",
      "salt": "0xf1d530cf6fc8cf06242bf634fed979aeb3e1541c70fa1de84663a5c02112a5eb",
      "assetIds": [
        "41506478881403507969696680653240014914910929820314476107906210059990541021185"
      ]
    },
    {
      "x": 199,
      "y": 96,
      "size": 1,
      "price": "4683000000000000000000",
      "reserved": "",
      "salt": "0x134c16d3237a006751a99a8994315d51e524c4fbc20c3d1f663ba109bf4b4cea",
      "assetIds": [
        "41506478881403507969696680653240014914910929820314476107906210059990541021185"
      ]
    },
    {
      "x": 199,
      "y": 97,
      "size": 1,
      "price": "4683000000000000000000",
      "reserved": "",
      "salt": "0x75ebab17509b375ac74e855510306944b642468ca032aa9cb94ada5e71108bd7",
      "assetIds": [
        "41506478881403507969696680653240014914910929820314476107906210059990541021185"
      ]
    },
    {
      "x": 199,
      "y": 98,
      "size": 1,
      "price": "1011000000000000000000",
      "reserved": "",
      "salt": "0xedb3e40e693d97a5ca91cca6c898480740d66c18ba2729e95c1c55fe5ab3976e",
      "assetIds": []
    },
    {
      "x": 199,
      "y": 99,
      "size": 1,
      "price": "1011000000000000000000",
      "reserved": "",
      "salt": "0x76d81d5dc8bb82d895d5a5173b85de34af7bceb0136c291b3c30ad23664cc4e7",
      "assetIds": []
    },
    {
      "x": 199,
      "y": 100,
      "size": 1,
      "price": "1011000000000000000000",
      "reserved": "",
      "salt": "0xad2562c4aacbe856ac6893f295293d04be69cf2042c3ed16937ffb4c25bd66f8",
      "assetIds": []
    },
    {
      "x": 199,
      "y": 101,
      "size": 1,
      "price": "1011000000000000000000",
      "reserved": "",
      "salt": "0xbc6190ef41b91b398abb77f21519623866cd2000379e2e6a27dcbacbac33ab63",
      "assetIds": []
    },
    {
      "x": 200,
      "y": 77,
      "size": 1,
      "price": "4683000000000000000000",
      "reserved": "",
      "salt": "0x5a0f4a3ddb85ebb36dedd41ea2de40b2bfe4f7db4fc337956b439fd94d5b74f5",
      "assetIds": [
        "41506478881403507969696680653240014914910929820314476107906210059990541021185"
      ]
    },
    {
      "x": 200,
      "y": 84,
      "size": 1,
      "price": "4683000000000000000000",
      "reserved": "",
      "salt": "0x0fa812b00d952c30d8b0d013b54ac77e9e3eb4f3623c6a92f724018a389bad31",
      "assetIds": [
        "41506478881403507969696680653240014914910929820314476107906210059990541021185"
      ]
    },
    {
      "x": 200,
      "y": 85,
      "size": 1,
      "price": "4683000000000000000000",
      "reserved": "",
      "salt": "0x95134f1867fbacb4433ce330216aea8163be10136bd14183a869445655035de5",
      "assetIds": [
        "41506478881403507969696680653240014914910929820314476107906210059990541021185"
      ]
    },
    {
      "x": 200,
      "y": 86,
      "size": 1,
      "price": "1011000000000000000000",
      "reserved": "",
      "salt": "0xf602c946eb836c89fda48f0cda56aed1d0e75e3ff56bc763d596bfdc1e2d6282",
      "assetIds": []
    },
    {
      "x": 200,
      "y": 87,
      "size": 1,
      "price": "1011000000000000000000",
      "reserved": "",
      "salt": "0x32e4c8d41c98f82efbcc57a1a2ca03416b0a20bc554226bf508817f5138a8f1c",
      "assetIds": []
    },
    {
      "x": 200,
      "y": 88,
      "size": 1,
      "price": "4683000000000000000000",
      "reserved": "",
      "salt": "0x6822886385ef4c13cd3c4b3926353de43cfa3a3097d38d60aaea434752573920",
      "assetIds": [
        "41506478881403507969696680653240014914910929820314476107906210059990541021185"
      ]
    },
    {
      "x": 200,
      "y": 89,
      "size": 1,
      "price": "4683000000000000000000",
      "reserved": "",
      "salt": "0xfd33caa2eacd16358a06a646707e0283f03cead166c2dad42e98ba85d12d472a",
      "assetIds": [
        "41506478881403507969696680653240014914910929820314476107906210059990541021185"
      ]
    },
    {
      "x": 200,
      "y": 96,
      "size": 1,
      "price": "4683000000000000000000",
      "reserved": "",
      "salt": "0x687455bd5e71cebace4222388ed8b343066fd8c6178203db5d58c9c8ca27d6ba",
      "assetIds": [
        "41506478881403507969696680653240014914910929820314476107906210059990541021185"
      ]
    },
    {
      "x": 200,
      "y": 97,
      "size": 1,
      "price": "4683000000000000000000",
      "reserved": "",
      "salt": "0xbf42a696dfee60799f604cbc55180561d77c7c43a0b3d5b469734db257ea1bbc",
      "assetIds": [
        "41506478881403507969696680653240014914910929820314476107906210059990541021185"
      ]
    },
    {
      "x": 200,
      "y": 98,
      "size": 1,
      "price": "1011000000000000000000",
      "reserved": "",
      "salt": "0x67fe52e0d7736e70c891d103da7042701cdd88fcb304fa98ef2b3bb91da5e989",
      "assetIds": []
    },
    {
      "x": 200,
      "y": 99,
      "size": 1,
      "price": "1011000000000000000000",
      "reserved": "",
      "salt": "0x5a964521a241c91f343dfd93a6d367a06a94908479d491873556371aa069159c",
      "assetIds": []
    },
    {
      "x": 200,
      "y": 100,
      "size": 1,
      "price": "1011000000000000000000",
      "reserved": "",
      "salt": "0xb161ecc5a1fa5bb65dbd269367dde22f04d8528634e07964e4550e5985ea6358",
      "assetIds": []
    },
    {
      "x": 200,
      "y": 101,
      "size": 1,
      "price": "1011000000000000000000",
      "reserved": "",
      "salt": "0xec9c56f99fe66332be806478a9fbc9a9da9bfe5cc4b3e8bee4644ccf3cd5c5e4",
      "assetIds": []
    },
    {
      "x": 201,
      "y": 77,
      "size": 1,
      "price": "4683000000000000000000",
      "reserved": "",
      "salt": "0x7199634d61aedd34c679268830313054a59faf9f93d795aae4ea9e154040afb9",
      "assetIds": [
        "41506478881403507969696680653240014914910929820314476107906210059990541021185"
      ]
    },
    {
      "x": 201,
      "y": 84,
      "size": 1,
      "price": "4683000000000000000000",
      "reserved": "",
      "salt": "0x525e93a302800ca16628602dd875b8315f6911f9c333a87209933db5dd2a7b47",
      "assetIds": [
        "41506478881403507969696680653240014914910929820314476107906210059990541021185"
      ]
    },
    {
      "x": 201,
      "y": 85,
      "size": 1,
      "price": "4683000000000000000000",
      "reserved": "",
      "salt": "0x73c248ea196c01b55a4d7df1727de85085908ea799c2148f1f1e412e832cf792",
      "assetIds": [
        "41506478881403507969696680653240014914910929820314476107906210059990541021185"
      ]
    },
    {
      "x": 201,
      "y": 86,
      "size": 1,
      "price": "1011000000000000000000",
      "reserved": "",
      "salt": "0xfdf6402130f206d8a25cce1cfc533e7e28fadd9029750d2a6b07fcdc4db4c75f",
      "assetIds": []
    },
    {
      "x": 201,
      "y": 87,
      "size": 1,
      "price": "1011000000000000000000",
      "reserved": "",
      "salt": "0x2fdb8cd32809f5e2f3cc68b7c2429dd654a9e46916153946f84b14fdb73f81f0",
      "assetIds": []
    },
    {
      "x": 201,
      "y": 88,
      "size": 1,
      "price": "4683000000000000000000",
      "reserved": "",
      "salt": "0x361de1ace7d645a0f89d34f7104c618b7ebe9f70a306a37ff37dcbe43703c2af",
      "assetIds": [
        "41506478881403507969696680653240014914910929820314476107906210059990541021185"
      ]
    },
    {
      "x": 201,
      "y": 89,
      "size": 1,
      "price": "4683000000000000000000",
      "reserved": "",
      "salt": "0x29352224ffa13ef324e0c01e80ab879c26c2f903f2e4e412524d91f4a11b9af6",
      "assetIds": [
        "41506478881403507969696680653240014914910929820314476107906210059990541021185"
      ]
    },
    {
      "x": 201,
      "y": 96,
      "size": 1,
      "price": "4683000000000000000000",
      "reserved": "",
      "salt": "0xba38c3d00f341b2144f2575d1b8b73e7cdd2115be70431b5278a9e38539d26a9",
      "assetIds": [
        "41506478881403507969696680653240014914910929820314476107906210059990541021185"
      ]
    },
    {
      "x": 201,
      "y": 97,
      "size": 1,
      "price": "4683000000000000000000",
      "reserved": "",
      "salt": "0x6982189396bc82fd1815a5f5d7c37b0ef5ad295e65046ae3e54b8e9465c1e0f5",
      "assetIds": [
        "41506478881403507969696680653240014914910929820314476107906210059990541021185"
      ]
    },
    {
      "x": 201,
      "y": 98,
      "size": 1,
      "price": "1011000000000000000000",
      "reserved": "",
      "salt": "0xcdad52dc955286c6e1c6ed5e7572ae92d94d7a169ee5b2c3ee107e527129d5b4",
      "assetIds": []
    },
    {
      "x": 201,
      "y": 99,
      "size": 1,
      "price": "1011000000000000000000",
      "reserved": "",
      "salt": "0x5d1c14bbc3ce12b043d386185f03f5fc8ad0d7dfa57719ad6cb5e66e997496c8",
      "assetIds": []
    },
    {
      "x": 201,
      "y": 100,
      "size": 1,
      "price": "1011000000000000000000",
      "reserved": "",
      "salt": "0xcf22c898a4f50b37cf7e16587fbbeba20d73a6e97797c5a59936b6bda2e5313f",
      "assetIds": []
    },
    {
      "x": 201,
      "y": 101,
      "size": 1,
      "price": "1011000000000000000000",
      "reserved": "",
      "salt": "0x6af1ac2320f3bb6453bc99a6f5c42bb65b0781fa4728d4d851c522bb97d3c5e9",
      "assetIds": []
    },
    {
      "x": 202,
      "y": 77,
      "size": 1,
      "price": "4683000000000000000000",
      "reserved": "",
      "salt": "0x2801a57f9e11cf2fcaba7fca8995cb1d7b90441f249a6728702948784252a31e",
      "assetIds": [
        "41506478881403507969696680653240014914910929820314476107906210059990541021185"
      ]
    },
    {
      "x": 202,
      "y": 84,
      "size": 1,
      "price": "4683000000000000000000",
      "reserved": "",
      "salt": "0x482046a52c5a4837d6c0f7ce60f9911c2c9037ae15fb262fb538831b3c51df9f",
      "assetIds": [
        "41506478881403507969696680653240014914910929820314476107906210059990541021185"
      ]
    },
    {
      "x": 202,
      "y": 85,
      "size": 1,
      "price": "1011000000000000000000",
      "reserved": "",
      "salt": "0x08b5984c35149a561d901ce88a7966bb524d78f4703b71e06e97a80d0cb21fa0",
      "assetIds": []
    },
    {
      "x": 202,
      "y": 86,
      "size": 1,
      "price": "1011000000000000000000",
      "reserved": "",
      "salt": "0xbf7087458fdcc8689446e05e51ed2b46b1367bafe2f1cd3e821b4375346fe614",
      "assetIds": []
    },
    {
      "x": 202,
      "y": 87,
      "size": 1,
      "price": "1011000000000000000000",
      "reserved": "",
      "salt": "0x081606d7cb388e46ce8444e964e84bb09fb66bf8a7d2a4575b3db62573a94afd",
      "assetIds": []
    },
    {
      "x": 202,
      "y": 88,
      "size": 1,
      "price": "4683000000000000000000",
      "reserved": "",
      "salt": "0xeeac109002a639da70b74826526080eb1342edce987c21e0fc9d90877fb4fb00",
      "assetIds": [
        "41506478881403507969696680653240014914910929820314476107906210059990541021185"
      ]
    },
    {
      "x": 202,
      "y": 89,
      "size": 1,
      "price": "4683000000000000000000",
      "reserved": "",
      "salt": "0x6eae0972a6abc943a70915335f2d25f86a12ee6f686e6fa55e736e6c49eb4392",
      "assetIds": [
        "41506478881403507969696680653240014914910929820314476107906210059990541021185"
      ]
    },
    {
      "x": 202,
      "y": 96,
      "size": 1,
      "price": "4683000000000000000000",
      "reserved": "",
      "salt": "0x8b49193df22f2223c30e956fcef658d20b6b093b83b0de02c5f9df300b63c4a3",
      "assetIds": [
        "41506478881403507969696680653240014914910929820314476107906210059990541021185"
      ]
    },
    {
      "x": 202,
      "y": 97,
      "size": 1,
      "price": "4683000000000000000000",
      "reserved": "",
      "salt": "0xf8963a897a185c58990cb59b47842d1355405c672064488c2a3b0365ecc8a2d5",
      "assetIds": [
        "41506478881403507969696680653240014914910929820314476107906210059990541021185"
      ]
    },
    {
      "x": 202,
      "y": 98,
      "size": 1,
      "price": "1011000000000000000000",
      "reserved": "",
      "salt": "0x2ae27643a3be79b0f27fa8200a4347799d5c0c959ce38f9170c44bf77b4fad33",
      "assetIds": []
    },
    {
      "x": 202,
      "y": 99,
      "size": 1,
      "price": "1011000000000000000000",
      "reserved": "",
      "salt": "0x7f428fb417fcf67dbcc2a32883a8c4470844d0c6644d030252c1c97ba381f09c",
      "assetIds": []
    },
    {
      "x": 202,
      "y": 100,
      "size": 1,
      "price": "1011000000000000000000",
      "reserved": "",
      "salt": "0x007846b9eb48aa9494e0710110e1704a6e6f5fe59fc0462fcd22ccc6b80caeed",
      "assetIds": []
    },
    {
      "x": 202,
      "y": 101,
      "size": 1,
      "price": "1011000000000000000000",
      "reserved": "",
      "salt": "0x70ef59a99655238bad4c4811f8ff569f9d108df8dd7ca4ea988b4f8d927d65d6",
      "assetIds": []
    },
    {
      "x": 203,
      "y": 77,
      "size": 1,
      "price": "4683000000000000000000",
      "reserved": "",
      "salt": "0x95c9e454380c5cad11c9c51fc25de0d5ee6cc103272b4b0fca9be0d614d0a5a5",
      "assetIds": [
        "41506478881403507969696680653240014914910929820314476107906210059990541021185"
      ]
    },
    {
      "x": 203,
      "y": 84,
      "size": 1,
      "price": "4683000000000000000000",
      "reserved": "",
      "salt": "0xc4ed0fee1117893b7e1878be5331163bc5480f3655c01ebd4ebf4443a27bbd12",
      "assetIds": [
        "41506478881403507969696680653240014914910929820314476107906210059990541021185"
      ]
    },
    {
      "x": 203,
      "y": 85,
      "size": 1,
      "price": "1011000000000000000000",
      "reserved": "",
      "salt": "0x2ffb587e706aded375918685e4897e15baecfc3eccac15c70c95b52891b1a721",
      "assetIds": []
    },
    {
      "x": 203,
      "y": 86,
      "size": 1,
      "price": "1011000000000000000000",
      "reserved": "",
      "salt": "0x3ab4cfb4283e19808dc0d81971c37eda684439ae86a84196f31a15d7a0bfa043",
      "assetIds": []
    },
    {
      "x": 203,
      "y": 87,
      "size": 1,
      "price": "1011000000000000000000",
      "reserved": "",
      "salt": "0xe280e48c4f005fc3d0eeec4d776f663a98394f8ef5fd1b5e73718a233f7d1a6e",
      "assetIds": []
    },
    {
      "x": 203,
      "y": 88,
      "size": 1,
      "price": "1011000000000000000000",
      "reserved": "",
      "salt": "0x414eedac99f3a02a41f4c950f810c3cb5986d918ca3829c17e9735c308663323",
      "assetIds": []
    },
    {
      "x": 203,
      "y": 89,
      "size": 1,
      "price": "4683000000000000000000",
      "reserved": "",
      "salt": "0xfeb4079611fb5c6d9da123ece37aab59ce8e5edd5bd2c64e7f979c0ce5f1a153",
      "assetIds": [
        "41506478881403507969696680653240014914910929820314476107906210059990541021185"
      ]
    },
    {
      "x": 203,
      "y": 96,
      "size": 1,
      "price": "4683000000000000000000",
      "reserved": "",
      "salt": "0xefc7c551d5b049304a877419050458dd382067dd4fce27412f4dd015e277d3cc",
      "assetIds": [
        "41506478881403507969696680653240014914910929820314476107906210059990541021185"
      ]
    },
    {
      "x": 203,
      "y": 97,
      "size": 1,
      "price": "1011000000000000000000",
      "reserved": "",
      "salt": "0xc87cd11a1885ff40ca4223b712f2c5965b128783610b7366f8d835add8616ece",
      "assetIds": []
    },
    {
      "x": 203,
      "y": 98,
      "size": 1,
      "price": "1011000000000000000000",
      "reserved": "",
      "salt": "0xec41de18b3291a22320d51007530b0b5358d4b826ed0050d310a563ed374b83e",
      "assetIds": []
    },
    {
      "x": 203,
      "y": 99,
      "size": 1,
      "price": "1011000000000000000000",
      "reserved": "",
      "salt": "0xa7c196a3723b9177d76d3520e18d22e2ce0a9bbd8c46dd043899c0c2572ae0ea",
      "assetIds": []
    },
    {
      "x": 203,
      "y": 100,
      "size": 1,
      "price": "1011000000000000000000",
      "reserved": "",
      "salt": "0x347ab44bfb5dd75bbaf6cea2f41cfb0f87361f839e9ffe9825e7738a6a47339f",
      "assetIds": []
    },
    {
      "x": 203,
      "y": 101,
      "size": 1,
      "price": "1011000000000000000000",
      "reserved": "",
      "salt": "0x985dbb82198ebffcda060e5442cbae8e8931f24e0564ad07e82839158f2109aa",
      "assetIds": []
    },
    {
      "x": 204,
      "y": 76,
      "size": 1,
      "price": "1011000000000000000000",
      "reserved": "",
      "salt": "0xc5dcfca6f55f1b12ec99e3239b42f0fcc2f7aa45cc8b6b93bf1edd9e147db107",
      "assetIds": []
    },
    {
      "x": 204,
      "y": 77,
      "size": 1,
      "price": "1011000000000000000000",
      "reserved": "",
      "salt": "0x024fdaff0659451c9e31818d9e3b8ced9ab32a0f85cae0a48ff715fd3327ccc2",
      "assetIds": []
    },
    {
      "x": 204,
      "y": 78,
      "size": 1,
      "price": "4683000000000000000000",
      "reserved": "",
      "salt": "0x55f1662d7e8f992ad52a0cc7e284c8e67e17038e6081984237086899cecc3c8c",
      "assetIds": [
        "41506478881403507969696680653240014914910929820314476107906210059990541021185"
      ]
    },
    {
      "x": 204,
      "y": 79,
      "size": 1,
      "price": "4683000000000000000000",
      "reserved": "",
      "salt": "0x3f8e608cef4fbecdad0dbeb6b121d244bba6fbd3b0b00ed8d4cac7e3fd47f939",
      "assetIds": [
        "41506478881403507969696680653240014914910929820314476107906210059990541021185"
      ]
    },
    {
      "x": 204,
      "y": 80,
      "size": 1,
      "price": "4683000000000000000000",
      "reserved": "",
      "salt": "0x409b5daa28be34b9f91d50028281ee445ae1d96ef6cc7e861316794c68cae479",
      "assetIds": [
        "41506478881403507969696680653240014914910929820314476107906210059990541021185"
      ]
    },
    {
      "x": 204,
      "y": 81,
      "size": 1,
      "price": "4683000000000000000000",
      "reserved": "",
      "salt": "0x87ba9a662cce613ddd76bb7c6ea0245a57d0829977268fe57e159935c85ef6d1",
      "assetIds": [
        "41506478881403507969696680653240014914910929820314476107906210059990541021185"
      ]
    },
    {
      "x": 204,
      "y": 82,
      "size": 1,
      "price": "4683000000000000000000",
      "reserved": "",
      "salt": "0x35a19330685df208d13e60d75846644d64cfd42d1c9257df2741d23df4e4448a",
      "assetIds": [
        "41506478881403507969696680653240014914910929820314476107906210059990541021185"
      ]
    },
    {
      "x": 204,
      "y": 83,
      "size": 1,
      "price": "4683000000000000000000",
      "reserved": "",
      "salt": "0x5cc7af64c0104c33cf54fc83659918876ef3fa1303f8c237cd8bcd90ef93786b",
      "assetIds": [
        "41506478881403507969696680653240014914910929820314476107906210059990541021185"
      ]
    },
    {
      "x": 204,
      "y": 84,
      "size": 1,
      "price": "1011000000000000000000",
      "reserved": "",
      "salt": "0x72d0606535ca8e1c69df81c21c9b3e6c0d44375118042e0d258fd8dab4df6d70",
      "assetIds": []
    },
    {
      "x": 204,
      "y": 85,
      "size": 1,
      "price": "1011000000000000000000",
      "reserved": "",
      "salt": "0x8d8196f15dabfab6fe614546afd905e8fac40738d2926d8b5869027233bbea48",
      "assetIds": []
    },
    {
      "x": 204,
      "y": 86,
      "size": 1,
      "price": "1011000000000000000000",
      "reserved": "",
      "salt": "0xb09d6e3b1f6a1e27ce785581259416866ec65600a15d8e54e154382d5d3ee8a5",
      "assetIds": []
    },
    {
      "x": 204,
      "y": 87,
      "size": 1,
      "price": "1011000000000000000000",
      "reserved": "",
      "salt": "0x6f250bb0a2cefe6a320fdb183f507af59b1db71c3c11e03f89a7b29c169957e4",
      "assetIds": []
    },
    {
      "x": 204,
      "y": 88,
      "size": 1,
      "price": "1011000000000000000000",
      "reserved": "",
      "salt": "0xf1388afe1d60d14afae670d2424badeca74429395ebd5aab59ed7a85cfe5c260",
      "assetIds": []
    },
    {
      "x": 204,
      "y": 89,
      "size": 1,
      "price": "1011000000000000000000",
      "reserved": "",
      "salt": "0x4d7e5674031291ba0b2d8e1127205556a57e73b6d85371341df2e9637a750d60",
      "assetIds": []
    },
    {
      "x": 204,
      "y": 90,
      "size": 1,
      "price": "4683000000000000000000",
      "reserved": "",
      "salt": "0x6540a3ee84539dda7cf2bb2a668d1d9ca259557654f70090c2550bd5a59cbdff",
      "assetIds": [
        "41506478881403507969696680653240014914910929820314476107906210059990541021185"
      ]
    },
    {
      "x": 204,
      "y": 91,
      "size": 1,
      "price": "4683000000000000000000",
      "reserved": "",
      "salt": "0x53fd9ad08d279ff5ad21c02ca68fd2b00b4a149a0f20afe2f5bc730e43c157ec",
      "assetIds": [
        "41506478881403507969696680653240014914910929820314476107906210059990541021185"
      ]
    },
    {
      "x": 204,
      "y": 92,
      "size": 1,
      "price": "4683000000000000000000",
      "reserved": "",
      "salt": "0xe6ab04c3cbdd2f3cad1832f2eb184601884ddacda19e7c59e9c87fe21bf6f351",
      "assetIds": [
        "41506478881403507969696680653240014914910929820314476107906210059990541021185"
      ]
    },
    {
      "x": 204,
      "y": 93,
      "size": 1,
      "price": "4683000000000000000000",
      "reserved": "",
      "salt": "0xf8934468ccdf4c61c5033af5e4178b2dffffb32071de7eb3bac159d2bb034470",
      "assetIds": [
        "41506478881403507969696680653240014914910929820314476107906210059990541021185"
      ]
    },
    {
      "x": 204,
      "y": 94,
      "size": 1,
      "price": "4683000000000000000000",
      "reserved": "",
      "salt": "0xb1158de2135f3b5aef59bbe0300cc1d23b9ed20f95d68a6b48229433f2e176ee",
      "assetIds": [
        "41506478881403507969696680653240014914910929820314476107906210059990541021185"
      ]
    },
    {
      "x": 204,
      "y": 95,
      "size": 1,
      "price": "4683000000000000000000",
      "reserved": "",
      "salt": "0x7c71a4a3eb3e12a9da38edbeef7f4b3fd77c25aa01d843de84a78a1ecc0bb01e",
      "assetIds": [
        "41506478881403507969696680653240014914910929820314476107906210059990541021185"
      ]
    },
    {
      "x": 205,
      "y": 76,
      "size": 1,
      "price": "1011000000000000000000",
      "reserved": "",
      "salt": "0x402572e322ac3039ef8023e6486a7069e4ed5c02f16a576a28b9dc3cfdbebf28",
      "assetIds": []
    },
    {
      "x": 205,
      "y": 77,
      "size": 1,
      "price": "1011000000000000000000",
      "reserved": "",
      "salt": "0x28d5cbb60b3efb527841132f318e437693ab0ad9ce3049073807c4b481a360cf",
      "assetIds": []
    },
    {
      "x": 205,
      "y": 78,
      "size": 1,
      "price": "1011000000000000000000",
      "reserved": "",
      "salt": "0x513254b8fcc736592170933fecb056e2fc819af0ba4b5bc7ff311baee1f2b77d",
      "assetIds": []
    },
    {
      "x": 205,
      "y": 79,
      "size": 1,
      "price": "4683000000000000000000",
      "reserved": "",
      "salt": "0xd7e69efff680270a1a01903f66e840fb062f643366911068a1a80b0d3f3ac6f8",
      "assetIds": [
        "41506478881403507969696680653240014914910929820314476107906210059990541021185"
      ]
    },
    {
      "x": 205,
      "y": 80,
      "size": 1,
      "price": "4683000000000000000000",
      "reserved": "",
      "salt": "0x67f75ee43c514b2c77fa1e2e3ce8f6e8c05da2a6327b9707b0a4b0df0dc0a250",
      "assetIds": [
        "41506478881403507969696680653240014914910929820314476107906210059990541021185"
      ]
    },
    {
      "x": 205,
      "y": 81,
      "size": 1,
      "price": "4683000000000000000000",
      "reserved": "",
      "salt": "0x28e90fc80358dfd15dca1789b134f45833010538b2af71d69a58d68a488c514f",
      "assetIds": [
        "41506478881403507969696680653240014914910929820314476107906210059990541021185"
      ]
    },
    {
      "x": 205,
      "y": 82,
      "size": 1,
      "price": "4683000000000000000000",
      "reserved": "",
      "salt": "0xc1c4d1f627fd2e66e621ec57a8785e0a944a2daf5e4504ab5aab6e585a58857f",
      "assetIds": [
        "41506478881403507969696680653240014914910929820314476107906210059990541021185"
      ]
    },
    {
      "x": 205,
      "y": 83,
      "size": 1,
      "price": "1011000000000000000000",
      "reserved": "",
      "salt": "0x91e730a690e256d5edf69860c86273bece9d60c0ff1e16785c89104bbc0b99d1",
      "assetIds": []
    },
    {
      "x": 205,
      "y": 84,
      "size": 1,
      "price": "1011000000000000000000",
      "reserved": "",
      "salt": "0xc00e94e9fefb293ac224dfffa69e256021d73652cb2bd3230d1b3c734f79d792",
      "assetIds": []
    },
    {
      "x": 205,
      "y": 85,
      "size": 1,
      "price": "1011000000000000000000",
      "reserved": "",
      "salt": "0x9e88170f13d35968f6381e0d17123e9b7377fee7016261b6cfdb6cc3b7ffc6ca",
      "assetIds": []
    },
    {
      "x": 205,
      "y": 86,
      "size": 1,
      "price": "1011000000000000000000",
      "reserved": "",
      "salt": "0x4105a6cf671d36978b1df779fb5df67ce1206be7e3269718db73740da446af9b",
      "assetIds": []
    },
    {
      "x": 205,
      "y": 87,
      "size": 1,
      "price": "1011000000000000000000",
      "reserved": "",
      "salt": "0x2f40006ca947ee16aebfc2bb4c5b23b85d55e5bed03b5a627b6ba72cfb4315f3",
      "assetIds": []
    },
    {
      "x": 205,
      "y": 88,
      "size": 1,
      "price": "1011000000000000000000",
      "reserved": "",
      "salt": "0xc5552f66c27d210492eaadf585c4fccd890a4d6c36f844831176cf82f7871a26",
      "assetIds": []
    },
    {
      "x": 205,
      "y": 89,
      "size": 1,
      "price": "1011000000000000000000",
      "reserved": "",
      "salt": "0x58f1a81ae6e3a14816f309ab5f88a674d911f2641a79f7655f4364e27091bd25",
      "assetIds": []
    },
    {
      "x": 205,
      "y": 90,
      "size": 1,
      "price": "4683000000000000000000",
      "reserved": "",
      "salt": "0x20dd1999b94a6d99253a1bd7de51dce34bcbbc2fd26702e4b9231bc996d88b2c",
      "assetIds": [
        "41506478881403507969696680653240014914910929820314476107906210059990541021185"
      ]
    },
    {
      "x": 205,
      "y": 91,
      "size": 1,
      "price": "4683000000000000000000",
      "reserved": "",
      "salt": "0xe8220ca990bb9cdbab03555e973dbfb17ab9677fe6505ec793f9262080676907",
      "assetIds": [
        "41506478881403507969696680653240014914910929820314476107906210059990541021185"
      ]
    },
    {
      "x": 205,
      "y": 92,
      "size": 1,
      "price": "4683000000000000000000",
      "reserved": "",
      "salt": "0x4f1b9cbf799c38287d13cfc329fe5339aef20976da3739a392910252715e6a4d",
      "assetIds": [
        "41506478881403507969696680653240014914910929820314476107906210059990541021185"
      ]
    },
    {
      "x": 205,
      "y": 93,
      "size": 1,
      "price": "4683000000000000000000",
      "reserved": "",
      "salt": "0x58a1f51e01bd6394363442abb07a428c17a8b7fafd5c73ca60b997bd8f699ab2",
      "assetIds": [
        "41506478881403507969696680653240014914910929820314476107906210059990541021185"
      ]
    },
    {
      "x": 205,
      "y": 94,
      "size": 1,
      "price": "4683000000000000000000",
      "reserved": "",
      "salt": "0x0d19c521d19ad91a99d502271a85023a54ee48e2d1dbb4f324d1286cf830eb18",
      "assetIds": [
        "41506478881403507969696680653240014914910929820314476107906210059990541021185"
      ]
    },
    {
      "x": 205,
      "y": 95,
      "size": 1,
      "price": "1011000000000000000000",
      "reserved": "",
      "salt": "0x5abc71e1936b0044e987dbbcc3adf4287d3075d99278a5f86f0e93888cd1b1be",
      "assetIds": []
    },
    {
      "x": 206,
      "y": 76,
      "size": 1,
      "price": "1011000000000000000000",
      "reserved": "",
      "salt": "0x67d289af6261d813acd6ca12a0852adbb42a810b9033a448d37b0d4460cf9f09",
      "assetIds": []
    },
    {
      "x": 206,
      "y": 77,
      "size": 1,
      "price": "1011000000000000000000",
      "reserved": "",
      "salt": "0xb5e6f98f3ee268311fd3620e6bd5cedae39e88c732cb6dabd0cbc8494dd9fc26",
      "assetIds": []
    },
    {
      "x": 206,
      "y": 78,
      "size": 1,
      "price": "1011000000000000000000",
      "reserved": "",
      "salt": "0xcae15e9b7e3a7e9ec4b151b50294559136bdfc3eafeec5d4a64cef6b6eac1974",
      "assetIds": []
    },
    {
      "x": 206,
      "y": 79,
      "size": 1,
      "price": "1011000000000000000000",
      "reserved": "",
      "salt": "0xec23464688b1f9c3ec0594223136353db3153bb7427a039194be9ef4f3dcfffb",
      "assetIds": []
    },
    {
      "x": 206,
      "y": 80,
      "size": 1,
      "price": "1011000000000000000000",
      "reserved": "",
      "salt": "0x5dde7025ce04f51b6d3e2724ef95e934a03b8caa09be212f20325270f0b815bb",
      "assetIds": []
    },
    {
      "x": 206,
      "y": 81,
      "size": 1,
      "price": "1011000000000000000000",
      "reserved": "",
      "salt": "0x0d8f220c1379c7ec4da2e84f723d3c26b3d59c41d132156d63a334ca236ba50a",
      "assetIds": []
    },
    {
      "x": 206,
      "y": 82,
      "size": 1,
      "price": "1011000000000000000000",
      "reserved": "",
      "salt": "0x7f6caff6c42ff34a33f5e5b51dacb8cff55555246ff65ed94d7c6047431a4f72",
      "assetIds": []
    },
    {
      "x": 206,
      "y": 83,
      "size": 1,
      "price": "1011000000000000000000",
      "reserved": "",
      "salt": "0xc6612f8460eb36de31e3b2c090b6feb17ab43bdf45f5ac3c728e1b63c35883c5",
      "assetIds": []
    },
    {
      "x": 206,
      "y": 84,
      "size": 1,
      "price": "1011000000000000000000",
      "reserved": "",
      "salt": "0x21e5aab4230ef7bdaabbb1dba1632c40e23047917b10b3beda61c6411f923757",
      "assetIds": []
    },
    {
      "x": 206,
      "y": 85,
      "size": 1,
      "price": "1011000000000000000000",
      "reserved": "",
      "salt": "0x080a0be549acf08c01b37c3b8d8405f3137111c98ce752702037f5778308b056",
      "assetIds": []
    },
    {
      "x": 206,
      "y": 86,
      "size": 1,
      "price": "1011000000000000000000",
      "reserved": "",
      "salt": "0x1810bccd95be4ea8bc628bb4e2649323b5cf0fdc40995e5af974d6cd7c530962",
      "assetIds": []
    },
    {
      "x": 206,
      "y": 87,
      "size": 1,
      "price": "1011000000000000000000",
      "reserved": "",
      "salt": "0x8887d2e195fbeea5fce7686dbd9a7dc15a7b59c48e6fca002f490fe6cc66636b",
      "assetIds": []
    },
    {
      "x": 206,
      "y": 88,
      "size": 1,
      "price": "1011000000000000000000",
      "reserved": "",
      "salt": "0xf1a7e757554a28d0b46e781383fac5f259c3c69b45c32be433b39920935cc1d9",
      "assetIds": []
    },
    {
      "x": 206,
      "y": 89,
      "size": 1,
      "price": "1011000000000000000000",
      "reserved": "",
      "salt": "0xc3c8e8942dab4bce9c9ee9aeea4b9ca02842d14faba3cd5e0aa1270b0d11fbca",
      "assetIds": []
    },
    {
      "x": 206,
      "y": 90,
      "size": 1,
      "price": "1011000000000000000000",
      "reserved": "",
      "salt": "0xc51109b486a040cf4819381f1e31a941a5505f5835740022bd16d8a7702d8b7a",
      "assetIds": []
    },
    {
      "x": 206,
      "y": 91,
      "size": 1,
      "price": "1011000000000000000000",
      "reserved": "",
      "salt": "0x3e8fc67d713e53a0cb7de424589a41d78f4da9420075d2cb33d19cd6fcd817ff",
      "assetIds": []
    },
    {
      "x": 206,
      "y": 92,
      "size": 1,
      "price": "1011000000000000000000",
      "reserved": "",
      "salt": "0x915547e91d56cf3e9bce7ac47963d137f09c8d4a7c83e9d268c72519279e87f4",
      "assetIds": []
    },
    {
      "x": 206,
      "y": 93,
      "size": 1,
      "price": "1011000000000000000000",
      "reserved": "",
      "salt": "0x668dd52f4842d50e2f234509a3759edf169dcfb849987ac3a4fc324f7ecbb169",
      "assetIds": []
    },
    {
      "x": 206,
      "y": 94,
      "size": 1,
      "price": "1011000000000000000000",
      "reserved": "",
      "salt": "0x9c9b4738cac8b2bb00570412bd7c38314a99a2d4faa9e7ea31a3c118e50fc913",
      "assetIds": []
    },
    {
      "x": 206,
      "y": 95,
      "size": 1,
      "price": "1011000000000000000000",
      "reserved": "",
      "salt": "0xf86f56300dfbcc71f4a612a913f32d24f7d7c05a44696540bfd90c3717914772",
      "assetIds": []
    },
    {
      "x": 207,
      "y": 76,
      "size": 1,
      "price": "1011000000000000000000",
      "reserved": "",
      "salt": "0xc49c07f30426337ad94db4816aad768c3fd0bf09fe667fa3a9ba3cc3e5c8fcaa",
      "assetIds": []
    },
    {
      "x": 207,
      "y": 77,
      "size": 1,
      "price": "1011000000000000000000",
      "reserved": "",
      "salt": "0xce8203988df89d23ef6bfaca9f6d24ca488a39aeac769c3a38323621aae17f7b",
      "assetIds": []
    },
    {
      "x": 207,
      "y": 78,
      "size": 1,
      "price": "1011000000000000000000",
      "reserved": "",
      "salt": "0xf4d0343902470fb00206e0e8f6a6729b31a5bdb99da63bbd277a48a34db65e1e",
      "assetIds": []
    },
    {
      "x": 207,
      "y": 79,
      "size": 1,
      "price": "1011000000000000000000",
      "reserved": "",
      "salt": "0x35e95902623d2992e66d4bfd64b6e5d5b99137e87a6b9b979b1318f91b66d2b1",
      "assetIds": []
    },
    {
      "x": 207,
      "y": 80,
      "size": 1,
      "price": "1011000000000000000000",
      "reserved": "",
      "salt": "0x3f21478eb2d79692303245620ca2bf29bacad995a5b90163b8b9e99a78b37e26",
      "assetIds": []
    },
    {
      "x": 207,
      "y": 81,
      "size": 1,
      "price": "1011000000000000000000",
      "reserved": "",
      "salt": "0x4e36e9b7ac7ca46099e6c35760f3859758c010a86197ce6b0c28f344fa3def0d",
      "assetIds": []
    },
    {
      "x": 207,
      "y": 82,
      "size": 1,
      "price": "1011000000000000000000",
      "reserved": "",
      "salt": "0xbe61e4f09fca86183423d4bd749f8a09a167011808ab805e3c21bbf42be6568e",
      "assetIds": []
    },
    {
      "x": 207,
      "y": 83,
      "size": 1,
      "price": "1011000000000000000000",
      "reserved": "",
      "salt": "0xc9f389fc8645085cbea22e8cda4fb64ac916a259184e1f77a72fde917b5c5165",
      "assetIds": []
    },
    {
      "x": 207,
      "y": 84,
      "size": 1,
      "price": "1011000000000000000000",
      "reserved": "",
      "salt": "0x114554c112a3033a72054a1434208ff3f5699d8a9c741ea67f22b6595b0c3f0a",
      "assetIds": []
    },
    {
      "x": 207,
      "y": 85,
      "size": 1,
      "price": "1011000000000000000000",
      "reserved": "",
      "salt": "0x890157b903a84d021892892b99f4631ad567ac7e7a4255520f36116f3c796299",
      "assetIds": []
    },
    {
      "x": 207,
      "y": 86,
      "size": 1,
      "price": "1011000000000000000000",
      "reserved": "",
      "salt": "0x7f70865f3692d658fc7ba01c4d60815dd0f605b5237ecdfe19230dea381ad676",
      "assetIds": []
    },
    {
      "x": 207,
      "y": 87,
      "size": 1,
      "price": "1011000000000000000000",
      "reserved": "",
      "salt": "0xafd8b55f982e90dd3cb22651f18f4b324dfc16cc1e09a48f8f643d8f68e1b767",
      "assetIds": []
    },
    {
      "x": 207,
      "y": 88,
      "size": 1,
      "price": "1011000000000000000000",
      "reserved": "",
      "salt": "0x1bf52a4a7a644ac43bf7c330ee61076946211cfa1768c5b1b386aeb7269937f7",
      "assetIds": []
    },
    {
      "x": 207,
      "y": 89,
      "size": 1,
      "price": "1011000000000000000000",
      "reserved": "",
      "salt": "0xbedcfe4eb52dc3b130492e718a4ca3acef306f32242910708280ac3f6398650b",
      "assetIds": []
    },
    {
      "x": 208,
      "y": 76,
      "size": 1,
      "price": "1011000000000000000000",
      "reserved": "",
      "salt": "0xbd886c625fa3fe0b9db83fef67f8f4983200e1a71fa327de69f5716d32743bd1",
      "assetIds": []
    },
    {
      "x": 208,
      "y": 77,
      "size": 1,
      "price": "1011000000000000000000",
      "reserved": "",
      "salt": "0x57b2825217800f9f6685653e3520fdfe83637e026f217f216524a3e297781f05",
      "assetIds": []
    },
    {
      "x": 208,
      "y": 78,
      "size": 1,
      "price": "1011000000000000000000",
      "reserved": "",
      "salt": "0x4781789a385c86035eb20d6e3cc3bc003c26d46f361b601fd859e33d1118d064",
      "assetIds": []
    },
    {
      "x": 208,
      "y": 79,
      "size": 1,
      "price": "4683000000000000000000",
      "reserved": "",
      "salt": "0xaf4530ae263fb478f88dfac5f4dd2896bbef0f4f07f69a03cc72bbe7215fed7a",
      "assetIds": [
        "41506478881403507969696680653240014914910929820314476107906210059990541021185"
      ]
    },
    {
      "x": 208,
      "y": 80,
      "size": 1,
      "price": "4683000000000000000000",
      "reserved": "",
      "salt": "0x74dc4cf215e876a12daaf6f263e5093c9044fdb8ab5704600601a9767c9aa610",
      "assetIds": [
        "41506478881403507969696680653240014914910929820314476107906210059990541021185"
      ]
    },
    {
      "x": 208,
      "y": 81,
      "size": 1,
      "price": "4683000000000000000000",
      "reserved": "",
      "salt": "0x795eb639ecb6142f0949a976eff6b99b875f295263d78f658f17e3bcf6096f4a",
      "assetIds": [
        "41506478881403507969696680653240014914910929820314476107906210059990541021185"
      ]
    },
    {
      "x": 208,
      "y": 82,
      "size": 1,
      "price": "1011000000000000000000",
      "reserved": "",
      "salt": "0x658933f5e0115db949ade76814b727412d493a3b914a290f274d86e0b95c8946",
      "assetIds": []
    },
    {
      "x": 208,
      "y": 83,
      "size": 1,
      "price": "1011000000000000000000",
      "reserved": "",
      "salt": "0xb72b18ba28bac5180ab783da3f01265bfe810b0090d38c4eba85731f7dd5b484",
      "assetIds": []
    },
    {
      "x": 208,
      "y": 84,
      "size": 1,
      "price": "1011000000000000000000",
      "reserved": "",
      "salt": "0xddd663db8581515c4aeb34b93ca38be91d45ad57c43691ec9ebea5a6e8b9c892",
      "assetIds": []
    },
    {
      "x": 208,
      "y": 85,
      "size": 1,
      "price": "1011000000000000000000",
      "reserved": "",
      "salt": "0x9ff5dda508be731e47c8b3c52d4a8285c1d13b0d4d6964bcc2eef0c287337cf2",
      "assetIds": []
    },
    {
      "x": 208,
      "y": 86,
      "size": 1,
      "price": "1011000000000000000000",
      "reserved": "",
      "salt": "0x86aac91236bca40ea748841b4cfc29c68e7e841158ed570d3beec8a5a4c58bdb",
      "assetIds": []
    },
    {
      "x": 208,
      "y": 87,
      "size": 1,
      "price": "1011000000000000000000",
      "reserved": "",
      "salt": "0x019bb90ffb8a0d6bdda3268b9966a0b78160cf1e2dd4ae88ff49fef687e70b21",
      "assetIds": []
    },
    {
      "x": 208,
      "y": 88,
      "size": 1,
      "price": "1011000000000000000000",
      "reserved": "",
      "salt": "0x62c75970d415c2198c29cb183b85d265bb034252ede2a02f5863af25ae010be1",
      "assetIds": []
    },
    {
      "x": 208,
      "y": 89,
      "size": 1,
      "price": "1011000000000000000000",
      "reserved": "",
      "salt": "0x52e94e237e6b787907912a1fd99b923cd7b52e75378fe5a7cea59a575d91f022",
      "assetIds": []
    },
    {
      "x": 209,
      "y": 76,
      "size": 1,
      "price": "1011000000000000000000",
      "reserved": "",
      "salt": "0x1ef1134c8aaea56186c542dc350bdbfa0aba0380c4d8e577ae6a691cb62e2097",
      "assetIds": []
    },
    {
      "x": 209,
      "y": 77,
      "size": 1,
      "price": "1011000000000000000000",
      "reserved": "",
      "salt": "0x632b54054701bcd92f8d29cc27eea29cbc679c4f4351c7b2cf0e52cc3a2a17d3",
      "assetIds": []
    },
    {
      "x": 209,
      "y": 78,
      "size": 1,
      "price": "4683000000000000000000",
      "reserved": "",
      "salt": "0x6442597728bc61a2e6cde3ad0d4626db46db454dc30738ed7bf36af01e8a55b9",
      "assetIds": [
        "41506478881403507969696680653240014914910929820314476107906210059990541021185"
      ]
    },
    {
      "x": 209,
      "y": 79,
      "size": 1,
      "price": "4683000000000000000000",
      "reserved": "",
      "salt": "0x2e262f231396801a51f66b3e397c98a38ca23674106ef5ad79865e8d69ddb394",
      "assetIds": [
        "41506478881403507969696680653240014914910929820314476107906210059990541021185"
      ]
    },
    {
      "x": 209,
      "y": 80,
      "size": 1,
      "price": "4683000000000000000000",
      "reserved": "",
      "salt": "0x771931c98ded20830a4cf199ea46db3f0454e2dbabd9f6c2a8066b8f8a438516",
      "assetIds": [
        "41506478881403507969696680653240014914910929820314476107906210059990541021185"
      ]
    },
    {
      "x": 209,
      "y": 81,
      "size": 1,
      "price": "4683000000000000000000",
      "reserved": "",
      "salt": "0xa438a7ee375945b943b62564b814809ebd8db9b030f728c8bd9713809ceee8a6",
      "assetIds": [
        "41506478881403507969696680653240014914910929820314476107906210059990541021185"
      ]
    },
    {
      "x": 209,
      "y": 82,
      "size": 1,
      "price": "4683000000000000000000",
      "reserved": "",
      "salt": "0x575ae2385193ebeaa8ccf265053fdfcb441b77d76a9f295d07c1b2970cbd4cad",
      "assetIds": [
        "41506478881403507969696680653240014914910929820314476107906210059990541021185"
      ]
    },
    {
      "x": 209,
      "y": 83,
      "size": 1,
      "price": "4683000000000000000000",
      "reserved": "",
      "salt": "0xd90520838cab1d1dcb0e4e45ec67338e73ad4dcc7301ae6fccfbecf1c3d83af5",
      "assetIds": [
        "41506478881403507969696680653240014914910929820314476107906210059990541021185"
      ]
    },
    {
      "x": 209,
      "y": 84,
      "size": 1,
      "price": "1011000000000000000000",
      "reserved": "",
      "salt": "0xb79f20f9da3a88abb115cd0e4360bad8d9fee37fa4d4f3131fe85115212197d7",
      "assetIds": []
    },
    {
      "x": 209,
      "y": 85,
      "size": 1,
      "price": "1011000000000000000000",
      "reserved": "",
      "salt": "0x5979bc47976f9521d052c873f7feceeb4fb9f896d82adc5ebacf837a19ae0d56",
      "assetIds": []
    },
    {
      "x": 209,
      "y": 86,
      "size": 1,
      "price": "1011000000000000000000",
      "reserved": "",
      "salt": "0xc39ddb2e14474fabf7332135f711a738de6ffaa322e631139ea3fcc12b25072e",
      "assetIds": []
    },
    {
      "x": 209,
      "y": 87,
      "size": 1,
      "price": "1011000000000000000000",
      "reserved": "",
      "salt": "0x1490fa8cd3a586437c4d84ccc6cec775b9c3e7f534938c09e9f0fd24abeb480e",
      "assetIds": []
    },
    {
      "x": 209,
      "y": 88,
      "size": 1,
      "price": "1011000000000000000000",
      "reserved": "",
      "salt": "0xfcbffc7a33a1bc96624726eb8d9863fa91106825a66ad8980ec7c564d96f73fb",
      "assetIds": []
    },
    {
      "x": 209,
      "y": 89,
      "size": 1,
      "price": "1011000000000000000000",
      "reserved": "",
      "salt": "0x9fa10dffca76aa6e91cf947de2587087b7bd9101d5eebb6c09a19c8cdf8fa8da",
      "assetIds": []
    },
    {
      "x": 210,
      "y": 76,
      "size": 1,
      "price": "1011000000000000000000",
      "reserved": "",
      "salt": "0x6a37806a4f8396381dd5f833761f1427c3eebae878d5bf40d99fdaded324aae1",
      "assetIds": []
    },
    {
      "x": 210,
      "y": 77,
      "size": 1,
      "price": "4683000000000000000000",
      "reserved": "",
      "salt": "0xb00d48bf3eb46f8b124d595f3f4a63017671730de17bfc462b344c47af4f048c",
      "assetIds": [
        "41506478881403507969696680653240014914910929820314476107906210059990541021185"
      ]
    },
    {
      "x": 210,
      "y": 84,
      "size": 1,
      "price": "4683000000000000000000",
      "reserved": "",
      "salt": "0x3a879bcfc3cff4641e3f4b943550bf09f3f3f3d1bb42be39d1708a09a546ee9f",
      "assetIds": [
        "41506478881403507969696680653240014914910929820314476107906210059990541021185"
      ]
    },
    {
      "x": 210,
      "y": 85,
      "size": 1,
      "price": "1011000000000000000000",
      "reserved": "",
      "salt": "0x2d960d3a66fd985b573d4b1ebd954761568cbf91eea0f01b115be61095674c12",
      "assetIds": []
    },
    {
      "x": 210,
      "y": 86,
      "size": 1,
      "price": "1011000000000000000000",
      "reserved": "",
      "salt": "0xf5cc491dd6e7ec8583043bb7b53996f86e8d60476421c7b9a73978751e5348b4",
      "assetIds": []
    },
    {
      "x": 211,
      "y": 76,
      "size": 1,
      "price": "1011000000000000000000",
      "reserved": "",
      "salt": "0xff56d06d589a7c5493c6659af09d5c410ff7d54ec8b068561c9a6124973bec0d",
      "assetIds": []
    },
    {
      "x": 211,
      "y": 77,
      "size": 1,
      "price": "4683000000000000000000",
      "reserved": "",
      "salt": "0xc34f1cebb1a5eb579a31463ff4d30dfd6edf6b09b96424329ee26cd4e52f8191",
      "assetIds": [
        "41506478881403507969696680653240014914910929820314476107906210059990541021185"
      ]
    },
    {
      "x": 211,
      "y": 84,
      "size": 1,
      "price": "4683000000000000000000",
      "reserved": "",
      "salt": "0x2d7e44bcde902dd72825e488852985e2b3be7b8316bcdd976e5890e6f82d9910",
      "assetIds": [
        "41506478881403507969696680653240014914910929820314476107906210059990541021185"
      ]
    },
    {
      "x": 211,
      "y": 85,
      "size": 1,
      "price": "4683000000000000000000",
      "reserved": "",
      "salt": "0x0c010a0931fecc6df8ea34986a1e0df5dd5821f43c392f71174284622114ae9a",
      "assetIds": [
        "41506478881403507969696680653240014914910929820314476107906210059990541021185"
      ]
    },
    {
      "x": 211,
      "y": 86,
      "size": 1,
      "price": "1011000000000000000000",
      "reserved": "",
      "salt": "0x9d6b1dbc246644c6fe1f608b4bef147fd9f6999121864f7a189704fb85df4947",
      "assetIds": []
    },
    {
      "x": 212,
      "y": 76,
      "size": 1,
      "price": "1011000000000000000000",
      "reserved": "",
      "salt": "0x661d30cfd4121b61af6584167a13617a94ea0cd607fbbb3462e4f710869c812b",
      "assetIds": []
    },
    {
      "x": 212,
      "y": 77,
      "size": 1,
      "price": "4683000000000000000000",
      "reserved": "",
      "salt": "0xf6c382f1c2897ccf2b5098539c4a68594180fd4da81eb74484d5b6a1ec272662",
      "assetIds": [
        "41506478881403507969696680653240014914910929820314476107906210059990541021185"
      ]
    },
    {
      "x": 212,
      "y": 84,
      "size": 1,
      "price": "4683000000000000000000",
      "reserved": "",
      "salt": "0x2e64b80ddd6d7b5abc312b42a93467444968f924d495a59432b17dcade7ab64d",
      "assetIds": [
        "41506478881403507969696680653240014914910929820314476107906210059990541021185"
      ]
    },
    {
      "x": 212,
      "y": 85,
      "size": 1,
      "price": "4683000000000000000000",
      "reserved": "",
      "salt": "0xcde4120f6e0ed13abdc01f9423091b1b84fd4a7ae67a21bc480685b91b280b38",
      "assetIds": [
        "41506478881403507969696680653240014914910929820314476107906210059990541021185"
      ]
    },
    {
      "x": 212,
      "y": 86,
      "size": 1,
      "price": "1011000000000000000000",
      "reserved": "",
      "salt": "0x163d3b85be888acc299dbae5e4e0e87f94799e531dbbd0c13f455202ef897261",
      "assetIds": []
    },
    {
      "x": 213,
      "y": 76,
      "size": 1,
      "price": "1011000000000000000000",
      "reserved": "",
      "salt": "0x4970bb0a35a17d2b8e421ac88439d85a29b87bcae0db4f43e47d97b6a81f3a06",
      "assetIds": []
    },
    {
      "x": 213,
      "y": 77,
      "size": 1,
      "price": "4683000000000000000000",
      "reserved": "",
      "salt": "0x74f692d3e2e4378528116c6e07c438fa36aecf27dec46a13577e54722c037ccc",
      "assetIds": [
        "41506478881403507969696680653240014914910929820314476107906210059990541021185"
      ]
    },
    {
      "x": 213,
      "y": 84,
      "size": 1,
      "price": "4683000000000000000000",
      "reserved": "",
      "salt": "0x0a62a5c95c50cafa876efd578efc7243ce76cd085d404ccbd0fcb695ce6b0fac",
      "assetIds": [
        "41506478881403507969696680653240014914910929820314476107906210059990541021185"
      ]
    },
    {
      "x": 213,
      "y": 85,
      "size": 1,
      "price": "4683000000000000000000",
      "reserved": "",
      "salt": "0xfddf59453b5ecc5a4337bc328fe222fd7bff7b766ef543ad429d1b7aeca48100",
      "assetIds": [
        "41506478881403507969696680653240014914910929820314476107906210059990541021185"
      ]
    },
    {
      "x": 213,
      "y": 86,
      "size": 1,
      "price": "1011000000000000000000",
      "reserved": "",
      "salt": "0x335f5dcc91ff83e3c98b0643d6cb93fac38bd5be4a3ecb00ce7155bf09bc825f",
      "assetIds": []
    },
    {
      "x": 214,
      "y": 75,
      "size": 1,
      "price": "1011000000000000000000",
      "reserved": "",
      "salt": "0xa1b0d7bbb1c11b588926fb977a63ba370c1327cca6a201e7be57095ebc18eb1c",
      "assetIds": []
    },
    {
      "x": 214,
      "y": 76,
      "size": 1,
      "price": "1011000000000000000000",
      "reserved": "",
      "salt": "0x5ccf7a583e9f6aecc5e71533e9133091e8b642b2276fdb0c5953b0d8f33ac959",
      "assetIds": []
    },
    {
      "x": 214,
      "y": 77,
      "size": 1,
      "price": "4683000000000000000000",
      "reserved": "",
      "salt": "0xd3a0b85f36d9290519839071d3cdfe2115300f0c40ce485de7e3b83571d9651d",
      "assetIds": [
        "41506478881403507969696680653240014914910929820314476107906210059990541021185"
      ]
    },
    {
      "x": 214,
      "y": 84,
      "size": 1,
      "price": "4683000000000000000000",
      "reserved": "",
      "salt": "0x039470de606468bb0b4c918b9270cb5aabe8f993c0adccb89a154c16c8814499",
      "assetIds": [
        "41506478881403507969696680653240014914910929820314476107906210059990541021185"
      ]
    },
    {
      "x": 214,
      "y": 85,
      "size": 1,
      "price": "4683000000000000000000",
      "reserved": "",
      "salt": "0x047607512516364490be4daf87e150fc5bf16d5cb2765f590348582e94d97000",
      "assetIds": [
        "41506478881403507969696680653240014914910929820314476107906210059990541021185"
      ]
    },
    {
      "x": 214,
      "y": 86,
      "size": 1,
      "price": "1011000000000000000000",
      "reserved": "",
      "salt": "0x5313615530f6abfd3fdce1cf243ea5c7ed82d499c46c47c2301fc4a1c20afa72",
      "assetIds": []
    },
    {
      "x": 215,
      "y": 75,
      "size": 1,
      "price": "1011000000000000000000",
      "reserved": "",
      "salt": "0xeebd61c41be5c96a7effa6b95ba096787ed427e5376ffc9566d6b18c22f1f094",
      "assetIds": []
    },
    {
      "x": 215,
      "y": 76,
      "size": 1,
      "price": "1011000000000000000000",
      "reserved": "",
      "salt": "0xd622d35631273e49053fe7a66108a5b5264403151fd02fbd579a8eea39a8c0a3",
      "assetIds": []
    },
    {
      "x": 215,
      "y": 77,
      "size": 1,
      "price": "4683000000000000000000",
      "reserved": "",
      "salt": "0xb9906d9d160aa2c057457ee369ab02ac90e037ea55a80e6f63369ee31fbad12f",
      "assetIds": [
        "41506478881403507969696680653240014914910929820314476107906210059990541021185"
      ]
    },
    {
      "x": 215,
      "y": 84,
      "size": 1,
      "price": "4683000000000000000000",
      "reserved": "",
      "salt": "0xd918175f7a8d6be57d363c60adb69499248edd7168b2b4ce1dc0103fca108851",
      "assetIds": [
        "41506478881403507969696680653240014914910929820314476107906210059990541021185"
      ]
    },
    {
      "x": 215,
      "y": 85,
      "size": 1,
      "price": "1011000000000000000000",
      "reserved": "",
      "salt": "0x50193c0369c5016e041ea839cd1e1ab6187ee8e1c3a1f72705f7b8c6016c6a3c",
      "assetIds": []
    },
    {
      "x": 215,
      "y": 86,
      "size": 1,
      "price": "1011000000000000000000",
      "reserved": "",
      "salt": "0xa94213ca7c7bc7c5747f6d441b442672a68151b6b54e0532ed906cee7f8e9dbc",
      "assetIds": []
    },
    {
      "x": 216,
      "y": 78,
      "size": 1,
      "price": "4683000000000000000000",
      "reserved": "",
      "salt": "0x2f73d8a33e90e913448136432a94cb954d3de2bf01a9d81aa15e4d24219b423a",
      "assetIds": [
        "41506478881403507969696680653240014914910929820314476107906210059990541021185"
      ]
    },
    {
      "x": 216,
      "y": 79,
      "size": 1,
      "price": "4683000000000000000000",
      "reserved": "",
      "salt": "0x137170cfdc1e44ddd72bf0b164e5fecdf0b78cafede1fe4e1aaa3c4d8a187577",
      "assetIds": [
        "41506478881403507969696680653240014914910929820314476107906210059990541021185"
      ]
    },
    {
      "x": 216,
      "y": 80,
      "size": 1,
      "price": "4683000000000000000000",
      "reserved": "",
      "salt": "0xf632392b4800a06dd657645569fc2046db903343554910360a06a560b0ec3d80",
      "assetIds": [
        "41506478881403507969696680653240014914910929820314476107906210059990541021185"
      ]
    },
    {
      "x": 216,
      "y": 81,
      "size": 1,
      "price": "4683000000000000000000",
      "reserved": "",
      "salt": "0xd4fa18f03dc2cf50f46edb843ef09f9f7c94db2f7143d9efbb2c466e0a3a4bb5",
      "assetIds": [
        "41506478881403507969696680653240014914910929820314476107906210059990541021185"
      ]
    },
    {
      "x": 216,
      "y": 82,
      "size": 1,
      "price": "4683000000000000000000",
      "reserved": "",
      "salt": "0x25fc2ff604aa2a879f41716a3c77d4d5bd423169a8ecf838bc04b8b6560d7617",
      "assetIds": [
        "41506478881403507969696680653240014914910929820314476107906210059990541021185"
      ]
    },
    {
      "x": 216,
      "y": 83,
      "size": 1,
      "price": "4683000000000000000000",
      "reserved": "",
      "salt": "0xbfd42a2b0824d393f6f5d0c764c8d5e8834d9dd58533ac6f31a19b9702501e80",
      "assetIds": [
        "41506478881403507969696680653240014914910929820314476107906210059990541021185"
      ]
    },
    {
      "x": 217,
      "y": 78,
      "size": 1,
      "price": "1011000000000000000000",
      "reserved": "",
      "salt": "0xed691c3a787c3b4b06613b50572c8c8cc9290ee04bfd111ba2f0ed49129849a9",
      "assetIds": []
    },
    {
      "x": 217,
      "y": 79,
      "size": 1,
      "price": "1011000000000000000000",
      "reserved": "",
      "salt": "0xab8fe6ae9a30eefbb23339e0d244f98c9bfd028c442a2a60ce3e210f5e679924",
      "assetIds": []
    },
    {
      "x": 217,
      "y": 80,
      "size": 1,
      "price": "4683000000000000000000",
      "reserved": "",
      "salt": "0x084801fa1dace47a22ed4bc5df3687f403e04658a0b6d633199cf2e0577eea6f",
      "assetIds": [
        "41506478881403507969696680653240014914910929820314476107906210059990541021185"
      ]
    },
    {
      "x": 217,
      "y": 81,
      "size": 1,
      "price": "4683000000000000000000",
      "reserved": "",
      "salt": "0x66c5f4841d157308fd0c49031fcb50a9199cf1c014fd38b82ba242712d4530e4",
      "assetIds": [
        "41506478881403507969696680653240014914910929820314476107906210059990541021185"
      ]
    },
    {
      "x": 217,
      "y": 82,
      "size": 1,
      "price": "4683000000000000000000",
      "reserved": "",
      "salt": "0xdfc106144b4d4dda9b5d4e20af7464fe7c566f3bc0ea0ee96cfb47f7a4059c59",
      "assetIds": [
        "41506478881403507969696680653240014914910929820314476107906210059990541021185"
      ]
    },
    {
      "x": 217,
      "y": 83,
      "size": 1,
      "price": "1011000000000000000000",
      "reserved": "",
      "salt": "0x36e164225fc12639553de505a00cb0ab74db4c323c8746f147a08c1b5e97e89a",
      "assetIds": []
    },
    {
      "x": 218,
      "y": 78,
      "size": 1,
      "price": "1011000000000000000000",
      "reserved": "",
      "salt": "0x109e3b95a952ea70dab8ecbe5067eed2cf65340689f8611a31e2bb09e3a29c1f",
      "assetIds": []
    },
    {
      "x": 218,
      "y": 79,
      "size": 1,
      "price": "1011000000000000000000",
      "reserved": "",
      "salt": "0x6d9701017cf48317e7fb1c754ab91f2bd41c5d5e6f62bdc278f3aab8ecd9e3f1",
      "assetIds": []
    },
    {
      "x": 218,
      "y": 80,
      "size": 1,
      "price": "1011000000000000000000",
      "reserved": "",
      "salt": "0x6f09cc31be7cdac175a2ddb089580c02e456860cd4d83d4e190fe53899732428",
      "assetIds": []
    },
    {
      "x": 218,
      "y": 81,
      "size": 1,
      "price": "1011000000000000000000",
      "reserved": "",
      "salt": "0x5b95fc1dc16d001809bcd78dfddbb3f10aac791014f7e7a95ea15cbf633d5e9f",
      "assetIds": []
    },
    {
      "x": 218,
      "y": 82,
      "size": 1,
      "price": "1011000000000000000000",
      "reserved": "",
      "salt": "0x915291b6470c55ecf550ac8bd542006c8600f1bca818f9a8efa3a617bff84091",
      "assetIds": []
    },
    {
      "x": 218,
      "y": 83,
      "size": 1,
      "price": "1011000000000000000000",
      "reserved": "",
      "salt": "0x8fbe5cfa51c58a7cb8a81d3f1c2763443e416c55dc6cddbb8a3af16993239f2d",
      "assetIds": []
    },
    {
      "x": 219,
      "y": 75,
      "size": 1,
      "price": "1011000000000000000000",
      "reserved": "",
      "salt": "0x202b90cc061c7895ac545f42f5d2e416679fed989aa22017687ba48a4cf6d95c",
      "assetIds": []
    },
    {
      "x": 219,
      "y": 76,
      "size": 1,
      "price": "1011000000000000000000",
      "reserved": "",
      "salt": "0x786067324abd4855aab89d0fec87e007932d1e7568111ea35b1e0dbe8f517dc9",
      "assetIds": []
    },
    {
      "x": 219,
      "y": 77,
      "size": 1,
      "price": "1011000000000000000000",
      "reserved": "",
      "salt": "0x1661069c8b1ad2f9a100f9051fc351a26b3f245e091e918a8036628cdaf5f5d4",
      "assetIds": []
    },
    {
      "x": 220,
      "y": 75,
      "size": 1,
      "price": "1011000000000000000000",
      "reserved": "",
      "salt": "0xc5f5a56f729f618bec8d3154aeda2919a450fe39b0ebcc4232e6825a8bb55b31",
      "assetIds": []
    },
    {
      "x": 220,
      "y": 76,
      "size": 1,
      "price": "1011000000000000000000",
      "reserved": "",
      "salt": "0x26581a8f73ddb55bd05fd60f85c6621513a5b6b8ec2e46cb1d7f1b8de554e80e",
      "assetIds": []
    },
    {
      "x": 220,
      "y": 77,
      "size": 1,
      "price": "1011000000000000000000",
      "reserved": "",
      "salt": "0x584d2aa25f77ae975ab52f8614890115f3187f2a8b2d383dda5f837997621aa3",
      "assetIds": []
    },
    {
      "x": 221,
      "y": 75,
      "size": 1,
      "price": "1011000000000000000000",
      "reserved": "",
      "salt": "0x0fdbecc81c3631d5b6f495bca4c91a25478b9bcfa677620471e75afa94f49832",
      "assetIds": []
    },
    {
      "x": 221,
      "y": 76,
      "size": 1,
      "price": "1011000000000000000000",
      "reserved": "",
      "salt": "0xa42bab9205fc5910fb84303ac734aab03c49c6d39a7c4bb5e94887997dcfc4fe",
      "assetIds": []
    },
    {
      "x": 221,
      "y": 77,
      "size": 1,
      "price": "1011000000000000000000",
      "reserved": "",
      "salt": "0x7f4ed70b497579c987154862e04242ac338f25e9cb53acf804ee19a84904940a",
      "assetIds": []
    },
    {
      "x": 192,
      "y": 78,
      "size": 3,
      "price": "8648000000000000000000",
      "reserved": "0x7a9fe22691c811ea339d9b73150e6911a5343dca",
      "salt": "0x0a940a05444f20e6d7887fe69d7a3af199d8fd39c1d68918c83b6bb7a605b7d9",
      "assetIds": []
    },
    {
      "x": 195,
      "y": 84,
      "size": 3,
      "price": "8648000000000000000000",
      "reserved": "0x7a9fe22691c811ea339d9b73150e6911a5343dca",
      "salt": "0xf25d3be63b94c6c700b215163cd0c27c246f14f67f3e170cbb2597925632c769",
      "assetIds": []
    },
    {
      "x": 210,
      "y": 99,
      "size": 3,
      "price": "8648000000000000000000",
      "reserved": "0x7a9fe22691c811ea339d9b73150e6911a5343dca",
      "salt": "0xb7210bdfb550fb3496078545731dafc0572b1fd13a5b5ed9a7db58b54dde909d",
      "assetIds": []
    },
    {
      "x": 216,
      "y": 75,
      "size": 3,
      "price": "8648000000000000000000",
      "reserved": "0x7a9fe22691c811ea339d9b73150e6911a5343dca",
      "salt": "0x1f7c5f6a95aadaaeccf978ab347b83fc5f43ed8eb7f59a5dc94873924dce68d2",
      "assetIds": []
    },
    {
      "x": 198,
      "y": 78,
      "size": 6,
      "price": "32772000000000000000000",
      "reserved": "0x7a9fe22691c811ea339d9b73150e6911a5343dca",
      "salt": "0x5cdc3ac425336b1ca599f1775fa276a9416aca058e2ae01aa75beefaa8af5e6e",
      "assetIds": []
    },
    {
      "x": 198,
      "y": 90,
      "size": 6,
      "price": "32772000000000000000000",
      "reserved": "0x7a9fe22691c811ea339d9b73150e6911a5343dca",
      "salt": "0x13fd898e43248c649e61150b8d10a7e4fd90c3a48eaee6c9d941e57b0bfaf7ca",
      "assetIds": []
    },
    {
      "x": 204,
      "y": 96,
      "size": 6,
      "price": "32772000000000000000000",
      "reserved": "0x7a9fe22691c811ea339d9b73150e6911a5343dca",
      "salt": "0x25ac57919b6de5d24539a070a649164d3f6f7313b8cb6969620e38758f0c6f25",
      "assetIds": []
    },
    {
      "x": 210,
      "y": 78,
      "size": 6,
      "price": "32772000000000000000000",
      "reserved": "0x7a9fe22691c811ea339d9b73150e6911a5343dca",
      "salt": "0xc58109681ebc3701bb5d0f9390ff26ec31d6e3566cf4da259f623ad27b8fc396",
      "assetIds": []
    }
  ],
  "solcInputHash": "e17a5bb930c92aaeeb80a52119ce77b7",
  "bytecode": "0x610160604052620d2f0060055534801561001857600080fd5b506040516200284d3803806200284d83398181016040526101a081101561003e57600080fd5b50805160208201516040830151606080850151608086015160a08088015160c0808a015160e08b01516101008c01516101208d01516101408e01516101608f0151610180909f0151600280546001600160a01b0319166001600160a01b03871617905560038490558e8c1b6001600160601b03199081169099529a8d901b9097169094529a9b999a98999698959793969195909490939091906100e28b600161015d565b600680546001600160a01b039a8b166001600160a01b031991821617909155610140989098526101209690965260008054998916998816999099179098556001600160601b0319606092831b811660e05290821b811660805296901b909516610100525060078054919093169116179055506101c192505050565b6001600160a01b038216600081815260016020908152604091829020805460ff191685151590811790915582519384529083015280517fb21eb88b4e33b3f1281830a7178d74d8aa73220416215726b68ae23d539515cb9281900390910190a15050565b60805160601c60a05160601c60c05160601c60e05160601c6101005160601c61012051610140516126066200024760003980610b3d528061206c525080610b1952806112ec5250806120da525080611841528061199e5250806117f75280611b9d528061210e525080611872528061196f525080610eb25280611c8952506126066000f3fe608060405234801561001057600080fd5b506004361061011b5760003560e01c80638f283970116100b2578063c10a420811610081578063dc5074af11610066578063dc5074af1461085f578063e56f8a9e14610885578063f23a6e61146108a25761011b565b8063c10a420814610780578063caed3500146108575761011b565b80638f28397014610500578063984d625214610526578063b522ecff146105f8578063bc197c811461061e5761011b565b806365194ce7116100ee57806365194ce7146103485780636e9960c3146104a657806377f1c3ac146104ca5780638a04af6a146104d25761011b565b80631187fd3c1461012057806325cb5bc014610300578063495906571461031a57806358bc294414610322575b600080fd5b6102fe600480360361012081101561013757600080fd5b6001600160a01b038235811692602081013582169260408201359092169181019060808101606082013564010000000081111561017357600080fd5b82018360208201111561018557600080fd5b803590602001918460208302840111640100000000831117156101a757600080fd5b919390928235926040810190602001356401000000008111156101c957600080fd5b8201836020820111156101db57600080fd5b803590602001918460208302840111640100000000831117156101fd57600080fd5b91939092909160208101903564010000000081111561021b57600080fd5b82018360208201111561022d57600080fd5b8035906020019184602083028401116401000000008311171561024f57600080fd5b91939092909160208101903564010000000081111561026d57600080fd5b82018360208201111561027f57600080fd5b803590602001918460018302840111640100000000831117156102a157600080fd5b9193909290916020810190356401000000008111156102bf57600080fd5b8201836020820111156102d157600080fd5b803590602001918460018302840111640100000000831117156102f357600080fd5b509092509050610937565b005b610308610b17565b60408051918252519081900360200190f35b610308610b3b565b6102fe6004803603602081101561033857600080fd5b50356001600160a01b0316610b5f565b6103ee6004803603602081101561035e57600080fd5b81019060208101813564010000000081111561037957600080fd5b82018360208201111561038b57600080fd5b803590602001918460018302840111640100000000831117156103ad57600080fd5b91908080601f016020809104026020016040519081016040528093929190818152602001838380828437600092019190915250929550610c0a945050505050565b6040518080602001866001600160a01b03166001600160a01b03168152602001856001600160a01b03166001600160a01b03168152602001848152602001838152602001828103825287818151815260200191508051906020019080838360005b8381101561046757818101518382015260200161044f565b50505050905090810190601f1680156104945780820380516001836020036101000a031916815260200191505b50965050505050505060405180910390f35b6104ae610d0f565b604080516001600160a01b039092168252519081900360200190f35b610308610d1e565b6102fe600480360360408110156104e857600080fd5b506001600160a01b0381351690602001351515610d24565b6102fe6004803603602081101561051657600080fd5b50356001600160a01b0316610d7b565b6102fe6004803603606081101561053c57600080fd5b6001600160a01b03823516919081019060408101602082013564010000000081111561056757600080fd5b82018360208201111561057957600080fd5b8035906020019184602083028401116401000000008311171561059b57600080fd5b9193909290916020810190356401000000008111156105b957600080fd5b8201836020820111156105cb57600080fd5b803590602001918460208302840111640100000000831117156105ed57600080fd5b509092509050610e51565b6102fe6004803603602081101561060e57600080fd5b50356001600160a01b0316610fdc565b61074b600480360360a081101561063457600080fd5b6001600160a01b03823581169260208101359091169181019060608101604082013564010000000081111561066857600080fd5b82018360208201111561067a57600080fd5b8035906020019184602083028401116401000000008311171561069c57600080fd5b9193909290916020810190356401000000008111156106ba57600080fd5b8201836020820111156106cc57600080fd5b803590602001918460208302840111640100000000831117156106ee57600080fd5b91939092909160208101903564010000000081111561070c57600080fd5b82018360208201111561071e57600080fd5b8035906020019184600183028401116401000000008311171561074057600080fd5b5090925090506110c5565b604080517fffffffff000000000000000000000000000000000000000000000000000000009092168252519081900360200190f35b610843600480360360a081101561079657600080fd5b8101906020810181356401000000008111156107b157600080fd5b8201836020820111156107c357600080fd5b803590602001918460018302840111640100000000831117156107e557600080fd5b91908080601f016020809104026020016040519081016040528093929190818152602001838380828437600092019190915250929550506001600160a01b0383358116945060208401351692604081013592506060013590506110f2565b604080519115158252519081900360200190f35b6104ae61122e565b6108436004803603602081101561087557600080fd5b50356001600160a01b031661123d565b6102fe6004803603602081101561089b57600080fd5b503561125b565b61074b600480360360a08110156108b857600080fd5b6001600160a01b03823581169260208101359091169160408201359160608101359181019060a0810160808201356401000000008111156108f857600080fd5b82018360208201111561090a57600080fd5b8035906020019184600183028401116401000000008311171561092c57600080fd5b5090925090506112bf565b6109418e8d6112ea565b610a388d8d8d8d80806020026020016040519081016040528093929190818152602001838360200280828437600081840152601f19601f820116905080830192505050505050508c8c8c80806020026020016040519081016040528093929190818152602001838360200280828437600081840152601f19601f820116905080830192505050505050508b8b8080602002602001604051908101604052809392919081815260200183836020028082843760009201919091525050604080516020601f8d018190048102820181019092528b815292508b91508a908190840183828082843760009201919091525061144d92505050565b610a8c8e8c8c6003818110610a4957fe5b9050602002013586868080601f0160208091040260200160405190810160405280939291908181526020018383808284376000920191909152506117d092505050565b610aca8e8e8d8d8080602002602001604051908101604052809392919081815260200183836020028082843760009201919091525061182192505050565b610b078d898980806020026020016040519081016040528093929190818152602001838360200280828437600092019190915250611c1292505050565b5050505050505050505050505050565b7f000000000000000000000000000000000000000000000000000000000000000090565b7f000000000000000000000000000000000000000000000000000000000000000090565b6000546001600160a01b03163314610bbe576040805162461bcd60e51b815260206004820152601060248201527f53656e646572206e6f742061646d696e00000000000000000000000000000000604482015290519081900360640190fd5b600554600280546001600160a01b03908116600090815260046020526040902042909301909255805473ffffffffffffffffffffffffffffffffffffffff191692909116919091179055565b606060008060008060606000806000808a80602001905160a0811015610c2f57600080fd5b8101908080516040519392919084640100000000821115610c4f57600080fd5b908301906020820185811115610c6457600080fd5b8251640100000000811182820188101715610c7e57600080fd5b82525081516020918201929091019080838360005b83811015610cab578181015183820152602001610c93565b50505050905090810190601f168015610cd85780820380516001836020036101000a031916815260200191505b5060409081526020820151908201516060830151608090930151959f50909d509b5099509197505050505050505091939590929450565b6000546001600160a01b031690565b60035490565b6000546001600160a01b03163314610d6d5760405162461bcd60e51b815260040180806020018281038252602e8152602001806125a3602e913960400191505060405180910390fd5b610d778282611dd6565b5050565b6000546001600160a01b03163314610dda576040805162461bcd60e51b815260206004820152601b60248201527f6f6e6c792061646d696e2063616e206368616e67652061646d696e0000000000604482015290519081900360640190fd5b600054604080516001600160a01b039283168152918316602083015280517f7e644d79422f17c01e4894b5f4f588d331ebfa28653d42ae832dc59e38c9798f9281900390910190a16000805473ffffffffffffffffffffffffffffffffffffffff19166001600160a01b0392909216919091179055565b6000546001600160a01b03163314610eb0576040805162461bcd60e51b815260206004820152600e60248201527f4e4f545f415554484f52495a4544000000000000000000000000000000000000604482015290519081900360640190fd5b7f00000000000000000000000000000000000000000000000000000000000000006001600160a01b0316632eb2c2d63087878787876040518763ffffffff1660e01b815260040180876001600160a01b03166001600160a01b03168152602001866001600160a01b03166001600160a01b031681526020018060200180602001806020018481038452888882818152602001925060200280828437600083820152601f01601f19169091018581038452868152602090810191508790870280828437600081840152601f19601f8201169050808301925050508481038252600081526020016020019950505050505050505050600060405180830381600087803b158015610fbd57600080fd5b505af1158015610fd1573d6000803e3d6000fd5b505050505050505050565b6001600160a01b038116611037576040805162461bcd60e51b815260206004820152600c60248201527f5a45524f5f414444524553530000000000000000000000000000000000000000604482015290519081900360640190fd5b6000546001600160a01b03163314611096576040805162461bcd60e51b815260206004820152600e60248201527f4e4f545f415554484f52495a4544000000000000000000000000000000000000604482015290519081900360640190fd5b6006805473ffffffffffffffffffffffffffffffffffffffff19166001600160a01b0392909216919091179055565b7fbc197c810000000000000000000000000000000000000000000000000000000098975050505050505050565b60006003548211806111155750836001600160a01b0316856001600160a01b0316145b8061111f57508242115b1561112c57506000611225565b60408051606087811b7fffffffffffffffffffffffffffffffffffffffff0000000000000000000000009081166020808501919091529188901b166034830152604882018690526068808301869052835180840390910181526088830184528051908201207f19457468657265756d205369676e6564204d6573736167653a0a33320000000060a884015260c48084018290528451808503909101815260e490930190935281519101206000906111e39089611e58565b6001600160a01b038116600090815260046020526040902054909150421161121057600192505050611225565b6002546001600160a01b039081169116149150505b95945050505050565b6002546001600160a01b031690565b6001600160a01b031660009081526001602052604090205460ff1690565b6000546001600160a01b031633146112ba576040805162461bcd60e51b815260206004820152601060248201527f53656e646572206e6f742061646d696e00000000000000000000000000000000604482015290519081900360640190fd5b600355565b7ff23a6e61000000000000000000000000000000000000000000000000000000009695505050505050565b7f0000000000000000000000000000000000000000000000000000000000000000421061135e576040805162461bcd60e51b815260206004820152600c60248201527f53414c455f49535f4f5645520000000000000000000000000000000000000000604482015290519081900360640190fd5b6001600160a01b03821633148061138457503360009081526001602052604090205460ff165b6113d5576040805162461bcd60e51b815260206004820152600e60248201527f4e4f545f415554484f52495a4544000000000000000000000000000000000000604482015290519081900360640190fd5b6001600160a01b03811615806113fc5750816001600160a01b0316816001600160a01b0316145b610d77576040805162461bcd60e51b815260206004820152600d60248201527f52455345525645445f4c414e4400000000000000000000000000000000000000604482015290519081900360640190fd5b600087878760008151811061145e57fe5b60200260200101518860018151811061147357fe5b60200260200101518960028151811061148857fe5b60200260200101518a60038151811061149d57fe5b60200260200101518a8a60405160200180828051906020019060200280838360005b838110156114d75781810151838201526020016114bf565b50505050905001915050604051602081830303815290604052805190602001208a60405160200180828051906020019060200280838360005b83811015611528578181015183820152602001611510565b5050505090500191505060405160208183030381529060405280519060200120604051602001808a6001600160a01b03166001600160a01b031660601b8152601401896001600160a01b03166001600160a01b031660601b81526014018881526020018781526020018681526020018581526020018481526020018381526020018281526020019950505050505050505050604051602081830303815290604052805190602001209050600760009054906101000a90046001600160a01b03166001600160a01b031663012847ed83836040518363ffffffff1660e01b81526004018080602001838152602001828103825284818151815260200191508051906020019080838360005b8381101561164a578181015183820152602001611632565b50505050905090810190601f1680156116775780820380516001836020036101000a031916815260200191505b50935050505060206040518083038186803b15801561169557600080fd5b505afa1580156116a9573d6000803e3d6000fd5b505050506040513d60208110156116bf57600080fd5b5051611712576040805162461bcd60e51b815260206004820152600c60248201527f494e56414c49445f415554480000000000000000000000000000000000000000604482015290519081900360640190fd5b60006117738760008151811061172457fe5b60200260200101518860018151811061173957fe5b60200260200101518960028151811061174e57fe5b60200260200101518a60038151811061176357fe5b60200260200101518c8b8b611f25565b905061177f8482611fca565b610fd1576040805162461bcd60e51b815260206004820152600c60248201527f494e56414c49445f4c414e440000000000000000000000000000000000000000604482015290519081900360640190fd5b60006117dc8484612095565b60065490915061181b908590839085906001600160a01b03167f00000000000000000000000000000000000000000000000000000000000000006121ee565b50505050565b8060028151811061182e57fe5b60200260200101516001148061186b57507f00000000000000000000000000000000000000000000000000000000000000006001600160a01b0316155b1561196d577f00000000000000000000000000000000000000000000000000000000000000006001600160a01b0316636e1e3bbf83836002815181106118ad57fe5b6020026020010151846000815181106118c257fe5b6020026020010151856001815181106118d757fe5b60200260200101516040518563ffffffff1660e01b815260040180856001600160a01b03166001600160a01b031681526020018481526020018381526020018281526020018060200182810382526000815260200160200195505050505050600060405180830381600087803b15801561195057600080fd5b505af1158015611964573d6000803e3d6000fd5b50505050611b0d565b7f00000000000000000000000000000000000000000000000000000000000000006001600160a01b0316636e1e3bbf7f0000000000000000000000000000000000000000000000000000000000000000836002815181106119ca57fe5b6020026020010151846000815181106119df57fe5b6020026020010151856001815181106119f457fe5b60200260200101518760405160200180826001600160a01b03166001600160a01b031681526020019150506040516020818303038152906040526040518663ffffffff1660e01b815260040180866001600160a01b03166001600160a01b0316815260200185815260200184815260200183815260200180602001828103825283818151815260200191508051906020019080838360005b83811015611aa4578181015183820152602001611a8c565b50505050905090810190601f168015611ad15780820380516001836020036101000a031916815260200191505b509650505050505050600060405180830381600087803b158015611af457600080fd5b505af1158015611b08573d6000803e3d6000fd5b505050505b61019881600181518110611b1d57fe5b60200260200101510281600081518110611b3357fe5b602002602001015101826001600160a01b0316846001600160a01b03167fe4dfa6ac11314892f3029b34a25b1a887da3b1cab2bbf8506d87128ba6e3ac0284600281518110611b7e57fe5b602002602001015185600381518110611b9357fe5b60200260200101517f000000000000000000000000000000000000000000000000000000000000000087600381518110611bc957fe5b602002602001015160405180858152602001848152602001836001600160a01b03166001600160a01b0316815260200182815260200194505050505060405180910390a4505050565b6060815167ffffffffffffffff81118015611c2c57600080fd5b50604051908082528060200260200182016040528015611c56578160200160208202803683370190505b50905060005b8251811015611c86576001828281518110611c7357fe5b6020908102919091010152600101611c5c565b507f00000000000000000000000000000000000000000000000000000000000000006001600160a01b0316632eb2c2d6308585856040518563ffffffff1660e01b815260040180856001600160a01b03166001600160a01b03168152602001846001600160a01b03166001600160a01b03168152602001806020018060200180602001848103845286818151815260200191508051906020019060200280838360005b83811015611d41578181015183820152602001611d29565b50505050905001848103835285818151815260200191508051906020019060200280838360005b83811015611d80578181015183820152602001611d68565b50505050905001848103825260008152602001602001975050505050505050600060405180830381600087803b158015611db957600080fd5b505af1158015611dcd573d6000803e3d6000fd5b50505050505050565b6001600160a01b03821660008181526001602090815260409182902080547fffffffffffffffffffffffffffffffffffffffffffffffffffffffffffffff001685151590811790915582519384529083015280517fb21eb88b4e33b3f1281830a7178d74d8aa73220416215726b68ae23d539515cb9281900390910190a15050565b60008151604114611e6857600080fd5b60208201516040830151606084015160001a601b811015611e8757601b015b8060ff16601b1480611e9c57508060ff16601c145b611ea557600080fd5b6040805160008152602080820180845289905260ff8416828401526060820186905260808201859052915160019260a0808401939192601f1981019281900390910190855afa158015611efc573d6000803e3d6000fd5b5050604051601f1901519450506001600160a01b038416611f1c57600080fd5b50505092915050565b60008787878787878760405160200180888152602001878152602001868152602001858152602001846001600160a01b03166001600160a01b031660601b8152601401838152602001828051906020019060200280838360005b83811015611f97578181015183820152602001611f7f565b50505050905001975050505050505050604051602081830303815290604052805190602001209050979650505050505050565b600081815b8451811015612069576000858281518110611fe657fe5b602002602001015190508083101561202e5782816040516020018083815260200182815260200192505050604051602081830303815290604052805190602001209250612060565b808360405160200180838152602001828152602001925050506040516020818303038152906040528051906020012092505b50600101611fcf565b507f00000000000000000000000000000000000000000000000000000000000000001490505b92915050565b6000806120ba60646120ae85600563ffffffff61247016565b9063ffffffff6124e016565b604080516323b872dd60e01b81526001600160a01b0387811660048301527f0000000000000000000000000000000000000000000000000000000000000000811660248301526044820184905291519293507f0000000000000000000000000000000000000000000000000000000000000000909116916323b872dd916064808201926020929091908290030181600087803b15801561215957600080fd5b505af115801561216d573d6000803e3d6000fd5b505050506040513d602081101561218357600080fd5b50516121d6576040805162461bcd60e51b815260206004820152601360248201527f4645455f5452414e534645525f4641494c454400000000000000000000000000604482015290519081900360640190fd5b6121e6838263ffffffff61254516565b949350505050565b8251819085901561239857606060008060008061220a8a610c0a565b939850919650945092509050600061222586868686866110f2565b156122b35761223f6122378d84612470565b6127106124e0565b9050886001600160a01b0316846001600160a01b0316866001600160a01b03167fac7a699eb95c3c6d390ec4626de17ef9a67b35891efdb197beba7c7fdd45fac48f858760405180848152602001838152602001828152602001935050505060405180910390a46122b08782612545565b96505b801561239157604080516323b872dd60e01b81526001600160a01b038f811660048301528781166024830152604482018490529151918a16916323b872dd916064808201926020929091908290030181600087803b15801561231457600080fd5b505af1158015612328573d6000803e3d6000fd5b505050506040513d602081101561233e57600080fd5b5051612391576040805162461bcd60e51b815260206004820152601960248201527f636f6d6d6973696f6e207472616e73666572206661696c656400000000000000604482015290519081900360640190fd5b5050505050505b604080516323b872dd60e01b81526001600160a01b0389811660048301528681166024830152604482018490529151918416916323b872dd916064808201926020929091908290030181600087803b1580156123f357600080fd5b505af1158015612407573d6000803e3d6000fd5b505050506040513d602081101561241d57600080fd5b5051611dcd576040805162461bcd60e51b815260206004820152601760248201527f7061796d656e74207472616e73666572206661696c6564000000000000000000604482015290519081900360640190fd5b60008261247f5750600061208f565b508181028183828161248d57fe5b041461208f576040805162461bcd60e51b815260206004820152600860248201527f6f766572666c6f77000000000000000000000000000000000000000000000000604482015290519081900360640190fd5b600081612534576040805162461bcd60e51b815260206004820152600960248201527f64697662797a65726f0000000000000000000000000000000000000000000000604482015290519081900360640190fd5b81838161253d57fe5b049392505050565b60008282111561259c576040805162461bcd60e51b815260206004820152600860248201527f756e6465666c6f77000000000000000000000000000000000000000000000000604482015290519081900360640190fd5b5090039056fe6f6e6c792061646d696e2063616e207365747570206d6574615472616e73616374696f6e50726f636573736f7273a2646970667358221220fc9205bafc138c1de206481f144dc3e7818922fbe1a20d2a71392e5e2e413c1a64736f6c63430006050033",
  "devdoc": {
    "methods": {
      "buyLandWithSand(address,address,address,uint256[],bytes32,uint256[],bytes32[],bytes,bytes)": {
        "params": {
          "buyer": "address that perform the payment",
          "info": "[X_INDEX=0] x coordinate of the Land [Y_INDEX=1] y coordinate of the Land [SIZE_INDEX=2] size of the pack of Land to purchase [PRICE_INDEX=3] price in SAND to purchase that Land",
          "proof": "merkleProof for that particular Land",
          "reserved": "the reserved address (if any)",
          "to": "address that will own the purchased Land"
        }
      },
      "changeAdmin(address)": {
        "details": "change the administrator to be `newAdmin`.",
        "params": {
          "newAdmin": "address of the new administrator."
        }
      },
      "getAdmin()": {
        "details": "gives the current administrator of this contract.",
        "returns": {
          "_0": "the current administrator of this contract."
        }
      },
      "getSigningWallet()": {
        "details": "signing wallet authorized for referral",
        "returns": {
          "_0": "the address of the signing wallet"
        }
      },
      "isMetaTransactionProcessor(address)": {
        "details": "check whether address `who` is given meta-transaction execution rights.",
        "params": {
          "who": "The address to query."
        },
        "returns": {
          "_0": "whether the address has meta-transaction execution rights."
        }
      },
      "isReferralValid(bytes,address,address,uint256,uint256)": {
        "params": {
          "commissionRate": "The commissionRate of the referral",
          "expiryTime": "The expiry time of the referral",
          "referee": "The address of the referee",
          "referrer": "The address of the referrer",
          "signature": "The signature to check (signed referral)"
        },
        "returns": {
          "_0": "True if the referral is valid"
        }
      },
      "setMetaTransactionProcessor(address,bool)": {
        "details": "Enable or disable the ability of `metaTransactionProcessor` to perform meta-tx (metaTransactionProcessor rights).",
        "params": {
          "enabled": "set whether the metaTransactionProcessor is enabled or disabled.",
          "metaTransactionProcessor": "address that will be given/removed metaTransactionProcessor rights."
        }
      },
      "setReceivingWallet(address)": {
        "params": {
          "newWallet": "address of the new receiving wallet"
        }
      },
      "updateMaxCommissionRate(uint256)": {
        "details": "Update the maximum commission rate",
        "params": {
          "newMaxCommissionRate": "The new maximum commission rate"
        }
      },
      "updateSigningWallet(address)": {
        "details": "Update the signing wallet",
        "params": {
          "newSigningWallet": "The new address of the signing wallet"
        }
      },
      "withdrawAssets(address,uint256[],uint256[])": {
        "params": {
          "assetIds": "the assetIds to be transferred",
          "to": "intended recipient of the asset tokens",
          "values": "the quantities of the assetIds to be transferred"
        }
      }
    },
    "title": "Estate Sale contract with referral"
  },
  "userdoc": {
    "methods": {
      "buyLandWithSand(address,address,address,uint256[],bytes32,uint256[],bytes32[],bytes,bytes)": {
        "notice": "buy Land with SAND using the merkle proof associated with it"
      },
      "getExpiryTime()": {
        "notice": "Gets the expiry time for the current sale"
      },
      "getMaxCommisionRate()": {
        "notice": "the max commision rate"
      },
      "getMerkleRoot()": {
        "notice": "Gets the Merkle root associated with the current sale"
      },
      "isReferralValid(bytes,address,address,uint256,uint256)": {
        "notice": "Check if a referral is valid"
      },
      "setReceivingWallet(address)": {
        "notice": "set the wallet receiving the proceeds"
      },
      "withdrawAssets(address,uint256[],uint256[])": {
        "notice": "enable Admin to withdraw remaining assets from EstateSaleWithFee contract"
      }
    },
    "notice": "This contract manages the sale of our lands as Estates"
  },
  "storageLayout": {
    "storage": [
      {
        "astId": 13650,
        "contract": "src/solc_0.6/EstateSale/EstateSaleWithAuth.sol:EstateSaleWithAuth",
        "label": "_admin",
        "offset": 0,
        "slot": "0",
        "type": "t_address"
      },
      {
        "astId": 13712,
        "contract": "src/solc_0.6/EstateSale/EstateSaleWithAuth.sol:EstateSaleWithAuth",
        "label": "_metaTransactionContracts",
        "offset": 0,
        "slot": "1",
        "type": "t_mapping(t_address,t_bool)"
      },
      {
        "astId": 11828,
        "contract": "src/solc_0.6/EstateSale/EstateSaleWithAuth.sol:EstateSaleWithAuth",
        "label": "_signingWallet",
        "offset": 0,
        "slot": "2",
        "type": "t_address"
      },
      {
        "astId": 11830,
        "contract": "src/solc_0.6/EstateSale/EstateSaleWithAuth.sol:EstateSaleWithAuth",
        "label": "_maxCommissionRate",
        "offset": 0,
        "slot": "3",
        "type": "t_uint256"
      },
      {
        "astId": 11834,
        "contract": "src/solc_0.6/EstateSale/EstateSaleWithAuth.sol:EstateSaleWithAuth",
        "label": "_previousSigningWallets",
        "offset": 0,
        "slot": "4",
        "type": "t_mapping(t_address,t_uint256)"
      },
      {
        "astId": 11843,
        "contract": "src/solc_0.6/EstateSale/EstateSaleWithAuth.sol:EstateSaleWithAuth",
        "label": "_previousSigningDelay",
        "offset": 0,
        "slot": "5",
        "type": "t_uint256"
      },
      {
        "astId": 7453,
        "contract": "src/solc_0.6/EstateSale/EstateSaleWithAuth.sol:EstateSaleWithAuth",
        "label": "_wallet",
        "offset": 0,
        "slot": "6",
        "type": "t_address_payable"
      },
      {
        "astId": 7455,
        "contract": "src/solc_0.6/EstateSale/EstateSaleWithAuth.sol:EstateSaleWithAuth",
        "label": "_authValidator",
        "offset": 0,
        "slot": "7",
        "type": "t_contract(AuthValidator)6784"
      }
    ],
    "types": {
      "t_address": {
        "encoding": "inplace",
        "label": "address",
        "numberOfBytes": "20"
      },
      "t_address_payable": {
        "encoding": "inplace",
        "label": "address payable",
        "numberOfBytes": "20"
      },
      "t_bool": {
        "encoding": "inplace",
        "label": "bool",
        "numberOfBytes": "1"
      },
      "t_contract(AuthValidator)6784": {
        "encoding": "inplace",
        "label": "contract AuthValidator",
        "numberOfBytes": "20"
      },
      "t_mapping(t_address,t_bool)": {
        "encoding": "mapping",
        "key": "t_address",
        "label": "mapping(address => bool)",
        "numberOfBytes": "32",
        "value": "t_bool"
      },
      "t_mapping(t_address,t_uint256)": {
        "encoding": "mapping",
        "key": "t_address",
        "label": "mapping(address => uint256)",
        "numberOfBytes": "32",
        "value": "t_uint256"
      },
      "t_uint256": {
        "encoding": "inplace",
        "label": "uint256",
        "numberOfBytes": "32"
      }
    }
  }
}