{
  "address": "0x81B80eb14e0870bCa8137B626F4Df97E02763b11",
  "abi": [
    {
      "inputs": [
        {
          "internalType": "address",
          "name": "landAddress",
          "type": "address"
        },
        {
          "internalType": "address",
          "name": "sandContractAddress",
          "type": "address"
        },
        {
          "internalType": "address",
          "name": "initialMetaTx",
          "type": "address"
        },
        {
          "internalType": "address",
          "name": "admin",
          "type": "address"
        },
        {
          "internalType": "address payable",
          "name": "initialWalletAddress",
          "type": "address"
        },
        {
          "internalType": "bytes32",
          "name": "merkleRoot",
          "type": "bytes32"
        },
        {
          "internalType": "uint256",
          "name": "expiryTime",
          "type": "uint256"
        },
        {
          "internalType": "address",
          "name": "initialSigningWallet",
          "type": "address"
        },
        {
          "internalType": "uint256",
          "name": "initialMaxCommissionRate",
          "type": "uint256"
        },
        {
          "internalType": "address",
          "name": "estate",
          "type": "address"
        },
        {
          "internalType": "address",
          "name": "asset",
          "type": "address"
        },
        {
          "internalType": "address",
          "name": "feeDistributor",
          "type": "address"
        },
        {
          "internalType": "address",
          "name": "authValidator",
          "type": "address"
        }
      ],
      "stateMutability": "nonpayable",
      "type": "constructor"
    },
    {
      "anonymous": false,
      "inputs": [
        {
          "indexed": false,
          "internalType": "address",
          "name": "oldAdmin",
          "type": "address"
        },
        {
          "indexed": false,
          "internalType": "address",
          "name": "newAdmin",
          "type": "address"
        }
      ],
      "name": "AdminChanged",
      "type": "event"
    },
    {
      "anonymous": false,
      "inputs": [
        {
          "indexed": true,
          "internalType": "address",
          "name": "buyer",
          "type": "address"
        },
        {
          "indexed": true,
          "internalType": "address",
          "name": "to",
          "type": "address"
        },
        {
          "indexed": true,
          "internalType": "uint256",
          "name": "topCornerId",
          "type": "uint256"
        },
        {
          "indexed": false,
          "internalType": "uint256",
          "name": "size",
          "type": "uint256"
        },
        {
          "indexed": false,
          "internalType": "uint256",
          "name": "price",
          "type": "uint256"
        },
        {
          "indexed": false,
          "internalType": "address",
          "name": "token",
          "type": "address"
        },
        {
          "indexed": false,
          "internalType": "uint256",
          "name": "amountPaid",
          "type": "uint256"
        }
      ],
      "name": "LandQuadPurchased",
      "type": "event"
    },
    {
      "anonymous": false,
      "inputs": [
        {
          "indexed": false,
          "internalType": "address",
          "name": "metaTransactionProcessor",
          "type": "address"
        },
        {
          "indexed": false,
          "internalType": "bool",
          "name": "enabled",
          "type": "bool"
        }
      ],
      "name": "MetaTransactionProcessor",
      "type": "event"
    },
    {
      "anonymous": false,
      "inputs": [
        {
          "indexed": true,
          "internalType": "address",
          "name": "referrer",
          "type": "address"
        },
        {
          "indexed": true,
          "internalType": "address",
          "name": "referee",
          "type": "address"
        },
        {
          "indexed": true,
          "internalType": "address",
          "name": "token",
          "type": "address"
        },
        {
          "indexed": false,
          "internalType": "uint256",
          "name": "amount",
          "type": "uint256"
        },
        {
          "indexed": false,
          "internalType": "uint256",
          "name": "commission",
          "type": "uint256"
        },
        {
          "indexed": false,
          "internalType": "uint256",
          "name": "commissionRate",
          "type": "uint256"
        }
      ],
      "name": "ReferralUsed",
      "type": "event"
    },
    {
      "inputs": [
        {
          "internalType": "address",
          "name": "buyer",
          "type": "address"
        },
        {
          "internalType": "address",
          "name": "to",
          "type": "address"
        },
        {
          "internalType": "address",
          "name": "reserved",
          "type": "address"
        },
        {
          "internalType": "uint256[]",
          "name": "info",
          "type": "uint256[]"
        },
        {
          "internalType": "bytes32",
          "name": "salt",
          "type": "bytes32"
        },
        {
          "internalType": "uint256[]",
          "name": "assetIds",
          "type": "uint256[]"
        },
        {
          "internalType": "bytes32[]",
          "name": "proof",
          "type": "bytes32[]"
        },
        {
          "internalType": "bytes",
          "name": "referral",
          "type": "bytes"
        },
        {
          "internalType": "bytes",
          "name": "signature",
          "type": "bytes"
        }
      ],
      "name": "buyLandWithSand",
      "outputs": [],
      "stateMutability": "nonpayable",
      "type": "function"
    },
    {
      "inputs": [
        {
          "internalType": "address",
          "name": "newAdmin",
          "type": "address"
        }
      ],
      "name": "changeAdmin",
      "outputs": [],
      "stateMutability": "nonpayable",
      "type": "function"
    },
    {
      "inputs": [
        {
          "internalType": "bytes",
          "name": "referral",
          "type": "bytes"
        }
      ],
      "name": "decodeReferral",
      "outputs": [
        {
          "internalType": "bytes",
          "name": "",
          "type": "bytes"
        },
        {
          "internalType": "address",
          "name": "",
          "type": "address"
        },
        {
          "internalType": "address",
          "name": "",
          "type": "address"
        },
        {
          "internalType": "uint256",
          "name": "",
          "type": "uint256"
        },
        {
          "internalType": "uint256",
          "name": "",
          "type": "uint256"
        }
      ],
      "stateMutability": "pure",
      "type": "function"
    },
    {
      "inputs": [],
      "name": "getAdmin",
      "outputs": [
        {
          "internalType": "address",
          "name": "",
          "type": "address"
        }
      ],
      "stateMutability": "view",
      "type": "function"
    },
    {
      "inputs": [],
      "name": "getExpiryTime",
      "outputs": [
        {
          "internalType": "uint256",
          "name": "",
          "type": "uint256"
        }
      ],
      "stateMutability": "view",
      "type": "function"
    },
    {
      "inputs": [],
      "name": "getMaxCommisionRate",
      "outputs": [
        {
          "internalType": "uint256",
          "name": "",
          "type": "uint256"
        }
      ],
      "stateMutability": "view",
      "type": "function"
    },
    {
      "inputs": [],
      "name": "getMerkleRoot",
      "outputs": [
        {
          "internalType": "bytes32",
          "name": "",
          "type": "bytes32"
        }
      ],
      "stateMutability": "view",
      "type": "function"
    },
    {
      "inputs": [],
      "name": "getSigningWallet",
      "outputs": [
        {
          "internalType": "address",
          "name": "",
          "type": "address"
        }
      ],
      "stateMutability": "view",
      "type": "function"
    },
    {
      "inputs": [
        {
          "internalType": "address",
          "name": "who",
          "type": "address"
        }
      ],
      "name": "isMetaTransactionProcessor",
      "outputs": [
        {
          "internalType": "bool",
          "name": "",
          "type": "bool"
        }
      ],
      "stateMutability": "view",
      "type": "function"
    },
    {
      "inputs": [
        {
          "internalType": "bytes",
          "name": "signature",
          "type": "bytes"
        },
        {
          "internalType": "address",
          "name": "referrer",
          "type": "address"
        },
        {
          "internalType": "address",
          "name": "referee",
          "type": "address"
        },
        {
          "internalType": "uint256",
          "name": "expiryTime",
          "type": "uint256"
        },
        {
          "internalType": "uint256",
          "name": "commissionRate",
          "type": "uint256"
        }
      ],
      "name": "isReferralValid",
      "outputs": [
        {
          "internalType": "bool",
          "name": "",
          "type": "bool"
        }
      ],
      "stateMutability": "view",
      "type": "function"
    },
    {
      "inputs": [
        {
          "internalType": "address",
          "name": "",
          "type": "address"
        },
        {
          "internalType": "address",
          "name": "",
          "type": "address"
        },
        {
          "internalType": "uint256[]",
          "name": "",
          "type": "uint256[]"
        },
        {
          "internalType": "uint256[]",
          "name": "",
          "type": "uint256[]"
        },
        {
          "internalType": "bytes",
          "name": "",
          "type": "bytes"
        }
      ],
      "name": "onERC1155BatchReceived",
      "outputs": [
        {
          "internalType": "bytes4",
          "name": "",
          "type": "bytes4"
        }
      ],
      "stateMutability": "pure",
      "type": "function"
    },
    {
      "inputs": [
        {
          "internalType": "address",
          "name": "",
          "type": "address"
        },
        {
          "internalType": "address",
          "name": "",
          "type": "address"
        },
        {
          "internalType": "uint256",
          "name": "",
          "type": "uint256"
        },
        {
          "internalType": "uint256",
          "name": "",
          "type": "uint256"
        },
        {
          "internalType": "bytes",
          "name": "",
          "type": "bytes"
        }
      ],
      "name": "onERC1155Received",
      "outputs": [
        {
          "internalType": "bytes4",
          "name": "",
          "type": "bytes4"
        }
      ],
      "stateMutability": "pure",
      "type": "function"
    },
    {
      "inputs": [
        {
          "internalType": "address",
          "name": "metaTransactionProcessor",
          "type": "address"
        },
        {
          "internalType": "bool",
          "name": "enabled",
          "type": "bool"
        }
      ],
      "name": "setMetaTransactionProcessor",
      "outputs": [],
      "stateMutability": "nonpayable",
      "type": "function"
    },
    {
      "inputs": [
        {
          "internalType": "address payable",
          "name": "newWallet",
          "type": "address"
        }
      ],
      "name": "setReceivingWallet",
      "outputs": [],
      "stateMutability": "nonpayable",
      "type": "function"
    },
    {
      "inputs": [
        {
          "internalType": "uint256",
          "name": "newMaxCommissionRate",
          "type": "uint256"
        }
      ],
      "name": "updateMaxCommissionRate",
      "outputs": [],
      "stateMutability": "nonpayable",
      "type": "function"
    },
    {
      "inputs": [
        {
          "internalType": "address",
          "name": "newSigningWallet",
          "type": "address"
        }
      ],
      "name": "updateSigningWallet",
      "outputs": [],
      "stateMutability": "nonpayable",
      "type": "function"
    },
    {
      "inputs": [
        {
          "internalType": "address",
          "name": "to",
          "type": "address"
        },
        {
          "internalType": "uint256[]",
          "name": "assetIds",
          "type": "uint256[]"
        },
        {
          "internalType": "uint256[]",
          "name": "values",
          "type": "uint256[]"
        }
      ],
      "name": "withdrawAssets",
      "outputs": [],
      "stateMutability": "nonpayable",
      "type": "function"
    }
  ],
  "transactionHash": "0x2dd85b9f9b09e9117de5aa823efe8a88b33d4b46ec7367e9aec4669b276071b9",
  "args": [
    "0xa4C4A09cA320AfBaE81659982dE88CC63466bB51",
    "0x32F3e11d8d9B9dc50e19D41c0ED868283824767B",
    "0x32F3e11d8d9B9dc50e19D41c0ED868283824767B",
    "0x39D01ecc951C2c1f20ba0549e62212659c4d1e06",
    "0xF22455c7F2a81E197AecD951F588a9B650f5b282",
    "0xec26f085d2ed933157c9e04bf79a76be7d4e74634477e37466c61d055ac5283d",
    1671800400,
    "0xB7060D3FeCAC3AE1F0A0AA416E3e8E472257950e",
    2000,
    "0x0000000000000000000000000000000000000000",
    "0xf050cDB34C8f39d24eD12678Dc5Ab32BE8672AfE",
    "0x0977f5050c8158b277F93216f851e83a467ED9c9",
    "0xD3999edf36481d8f6636BB41fbdC936eA4BF5658"
  ],
  "numDeployments": 1,
  "linkedData": [
    {
      "x": 192,
      "y": 114,
      "size": 1,
      "price": "1011000000000000000000",
      "reserved": "",
      "salt": "0xfdf057d26ab51b9961a2e9c531fec37ca8fdcaab58d1ce7dc148cd2903ea1a52",
      "assetIds": []
    },
    {
      "x": 192,
      "y": 115,
      "size": 1,
      "price": "1011000000000000000000",
      "reserved": "",
      "salt": "0x10b0fe89cc7f651a9bbe9734c3a989bbd17e7d5e6e242c239b066c041413efc8",
      "assetIds": []
    },
    {
      "x": 192,
      "y": 116,
      "size": 1,
      "price": "1011000000000000000000",
      "reserved": "",
      "salt": "0x9800f02a2d0612621ccd62a609cf72de172453ebfd9f8d2ce1607cc6d4cf397d",
      "assetIds": []
    },
    {
      "x": 192,
      "y": 120,
      "size": 1,
      "price": "1011000000000000000000",
      "reserved": "",
      "salt": "0xa9209f31f44ecc806643729db09f694d3a33582e2ddeb527a87a7c37ec9b06e5",
      "assetIds": []
    },
    {
      "x": 192,
      "y": 121,
      "size": 1,
      "price": "1011000000000000000000",
      "reserved": "",
      "salt": "0x042f85d959fc7d50d3bae0bd8ccca0c1b202d6be24b82d5ee25cbc934c694c53",
      "assetIds": []
    },
    {
      "x": 192,
      "y": 122,
      "size": 1,
      "price": "1011000000000000000000",
      "reserved": "",
      "salt": "0xbce115d20abcdb095e92f04e41d0b1c4df24b8d7d7c917e8ade588a0dbdd239d",
      "assetIds": []
    },
    {
      "x": 192,
      "y": 123,
      "size": 1,
      "price": "1011000000000000000000",
      "reserved": "",
      "salt": "0x91ba151a158410e55689f463a130bbeeaac13a1e8bb151427fba91bd0c49da53",
      "assetIds": []
    },
    {
      "x": 192,
      "y": 124,
      "size": 1,
      "price": "1011000000000000000000",
      "reserved": "",
      "salt": "0x9da70b1c180449e3cf1adca07f1ce990e0ccfbf6a161143dadcf436a762fe52e",
      "assetIds": []
    },
    {
      "x": 192,
      "y": 125,
      "size": 1,
      "price": "1011000000000000000000",
      "reserved": "",
      "salt": "0x5194d909ea4c7f74f50874751f08e90abfd70075f17095d4daf63cd8f7d344af",
      "assetIds": []
    },
    {
      "x": 192,
      "y": 129,
      "size": 1,
      "price": "1011000000000000000000",
      "reserved": "",
      "salt": "0x52ebf0312e1c413b9733f8a37a2476b96dd34e6be98cb1e1faef03633a294a65",
      "assetIds": []
    },
    {
      "x": 192,
      "y": 130,
      "size": 1,
      "price": "1011000000000000000000",
      "reserved": "",
      "salt": "0x092a1a6e31fd7504753f60a6bb5347a871c202d0c4e5a45efd8001479a9f71f5",
      "assetIds": []
    },
    {
      "x": 192,
      "y": 131,
      "size": 1,
      "price": "1011000000000000000000",
      "reserved": "",
      "salt": "0x7845980bc440612896a54912fbe4425d812be77fbb4c7bd852c759e5d6088f90",
      "assetIds": []
    },
    {
      "x": 193,
      "y": 114,
      "size": 1,
      "price": "1011000000000000000000",
      "reserved": "",
      "salt": "0xe8880bb3f39b31a0b32e6717cb88809747ece0b81c3a4efee2ffb58a81273056",
      "assetIds": []
    },
    {
      "x": 193,
      "y": 115,
      "size": 1,
      "price": "1011000000000000000000",
      "reserved": "",
      "salt": "0x4bde0343a070fc5010a9cc74baf7d430567ca58e2d949fd1dfb49a7fe7eb71a5",
      "assetIds": []
    },
    {
      "x": 193,
      "y": 116,
      "size": 1,
      "price": "1011000000000000000000",
      "reserved": "",
      "salt": "0x792503720327e01760f7bb137d86b428104f15abab296f13fabc25aaa202aa9b",
      "assetIds": []
    },
    {
      "x": 193,
      "y": 120,
      "size": 1,
      "price": "1011000000000000000000",
      "reserved": "",
      "salt": "0x4e6aa5cf6848ddb2a1a8315fd5ae5d9e2fbb3311818564e660be58a98d0c42a2",
      "assetIds": []
    },
    {
      "x": 193,
      "y": 121,
      "size": 1,
      "price": "1011000000000000000000",
      "reserved": "",
      "salt": "0x08701c26801db89bc1c86b57435dc7caa76fb9c78eb6c1879b2108e77fe8d491",
      "assetIds": []
    },
    {
      "x": 193,
      "y": 122,
      "size": 1,
      "price": "1011000000000000000000",
      "reserved": "",
      "salt": "0x635370eca026b45fc401c1a3af5e1c24b40b18990695188371d5280a8b5c91ec",
      "assetIds": []
    },
    {
      "x": 193,
      "y": 123,
      "size": 1,
      "price": "1011000000000000000000",
      "reserved": "",
      "salt": "0xb5ebad394f79344251f635d83ed65fc3ba55add5653396b55cb9ab364b0908d6",
      "assetIds": []
    },
    {
      "x": 193,
      "y": 124,
      "size": 1,
      "price": "1011000000000000000000",
      "reserved": "",
      "salt": "0x0a36095d9d11cccb5055edfe752825e416126fe43b93441c585e455594243a2e",
      "assetIds": []
    },
    {
      "x": 193,
      "y": 125,
      "size": 1,
      "price": "1011000000000000000000",
      "reserved": "",
      "salt": "0x32e7b8416dcb562c34f648dd972e8c894ac1690f84cd95fd4ce99b74b0943653",
      "assetIds": []
    },
    {
      "x": 193,
      "y": 129,
      "size": 1,
      "price": "1011000000000000000000",
      "reserved": "",
      "salt": "0xc5b94683488653d9e64505db494b323467d9f5fa501c35eaa5ade0c9fcc14d5e",
      "assetIds": []
    },
    {
      "x": 193,
      "y": 130,
      "size": 1,
      "price": "1011000000000000000000",
      "reserved": "",
      "salt": "0xec21fe0a9670d34712f83115fea6d3233fe8fb09a6847222e0858dd5bab7d09f",
      "assetIds": []
    },
    {
      "x": 193,
      "y": 131,
      "size": 1,
      "price": "1011000000000000000000",
      "reserved": "",
      "salt": "0x5e9858a462040f1436bf93a259cd490217d23ed95cbac607cfcabe29b1adeed4",
      "assetIds": []
    },
    {
      "x": 194,
      "y": 114,
      "size": 1,
      "price": "1011000000000000000000",
      "reserved": "",
      "salt": "0xd5cde4cadffb65e4ca1df23e3f79a2de34f5a1890521b15e64ee282e1406557a",
      "assetIds": []
    },
    {
      "x": 194,
      "y": 115,
      "size": 1,
      "price": "1011000000000000000000",
      "reserved": "",
      "salt": "0x62baeee89398f1324774d9cb1ba1ba3b7b3f944c571addf94735587e7bae5c48",
      "assetIds": []
    },
    {
      "x": 194,
      "y": 116,
      "size": 1,
      "price": "1011000000000000000000",
      "reserved": "",
      "salt": "0xa066eea48afabd49369824b1d50068d9a798d270a91bcbd70c98d3478a91f6af",
      "assetIds": []
    },
    {
      "x": 194,
      "y": 120,
      "size": 1,
      "price": "1011000000000000000000",
      "reserved": "",
      "salt": "0xdeeb0df61eaf161138757c63378c70e19d5cd9e8b67914180034036effc68ec5",
      "assetIds": []
    },
    {
      "x": 194,
      "y": 121,
      "size": 1,
      "price": "1011000000000000000000",
      "reserved": "",
      "salt": "0x321b0bf227ed4c681c0e1e247d98e5447b05510c02f1652100425ae1315c545c",
      "assetIds": []
    },
    {
      "x": 194,
      "y": 122,
      "size": 1,
      "price": "1011000000000000000000",
      "reserved": "",
      "salt": "0x7836fcdfa404d14d4181aee79d7c27a76b6b4d2ffc017ae1f1765814a9adce59",
      "assetIds": []
    },
    {
      "x": 194,
      "y": 123,
      "size": 1,
      "price": "1011000000000000000000",
      "reserved": "",
      "salt": "0x33563d6395ad75b9a43175a3831edb95522bb49f184f5f2d35b5c53c51c7b483",
      "assetIds": []
    },
    {
      "x": 194,
      "y": 124,
      "size": 1,
      "price": "1011000000000000000000",
      "reserved": "",
      "salt": "0x81d240dc26a43964584275e2bab352b6d5f672c551537cd86c753d331755a802",
      "assetIds": []
    },
    {
      "x": 194,
      "y": 125,
      "size": 1,
      "price": "1011000000000000000000",
      "reserved": "",
      "salt": "0x1c30469f127243cdd66e5766ab4740b3c04f4f8e0df58722933f840662ebad05",
      "assetIds": []
    },
    {
      "x": 194,
      "y": 129,
      "size": 1,
      "price": "4683000000000000000000",
      "reserved": "",
      "salt": "0xe353cff6c000ad74e904191741e7697f5a4dff03c9b6b198a78911ef012ca767",
      "assetIds": [
        "41506478881403507969696680653240014914910929820314476107906210059990541021186"
      ]
    },
    {
      "x": 194,
      "y": 130,
      "size": 1,
      "price": "4683000000000000000000",
      "reserved": "",
      "salt": "0xba607b4f0c0e06537dd11fa2a8167ab8b959046cf82feeed5544d3d85b2cfcf8",
      "assetIds": [
        "41506478881403507969696680653240014914910929820314476107906210059990541021186"
      ]
    },
    {
      "x": 194,
      "y": 131,
      "size": 1,
      "price": "4683000000000000000000",
      "reserved": "",
      "salt": "0xdd5fd59aa5eb266329fe036c314747ac35ee31abdb9d3313006061c2f6d3bca1",
      "assetIds": [
        "41506478881403507969696680653240014914910929820314476107906210059990541021186"
      ]
    },
    {
      "x": 195,
      "y": 102,
      "size": 1,
      "price": "1011000000000000000000",
      "reserved": "",
      "salt": "0xd621eedd625b9af4cda2becc9f0ddbe15da5093128fecad5c6b2af49e0c5d87f",
      "assetIds": []
    },
    {
      "x": 195,
      "y": 103,
      "size": 1,
      "price": "1011000000000000000000",
      "reserved": "",
      "salt": "0x75f08adf54cb43fc02c61b409dd4a266287f94e5c6f6de0e8058eb3510d7d351",
      "assetIds": []
    },
    {
      "x": 195,
      "y": 104,
      "size": 1,
      "price": "1011000000000000000000",
      "reserved": "",
      "salt": "0x815405e834dbd8917162f47d90282ed71027f92b2628a7e8b68e6956defcd46c",
      "assetIds": []
    },
    {
      "x": 195,
      "y": 105,
      "size": 1,
      "price": "1011000000000000000000",
      "reserved": "",
      "salt": "0x39388a526758d164856e9e6908c78ce0f14865cc0f2205478b246f17f85515ff",
      "assetIds": []
    },
    {
      "x": 195,
      "y": 106,
      "size": 1,
      "price": "1011000000000000000000",
      "reserved": "",
      "salt": "0xbb4464e43d0c45ed8b1cfad354c372a80475fd8cce4526bc9fd998b140cd2ada",
      "assetIds": []
    },
    {
      "x": 195,
      "y": 107,
      "size": 1,
      "price": "1011000000000000000000",
      "reserved": "",
      "salt": "0xc3e8cad95aa936a45c982f8e4e4a16ea29f4eb52e8c552b7f56ce306a5a337aa",
      "assetIds": []
    },
    {
      "x": 195,
      "y": 114,
      "size": 1,
      "price": "1011000000000000000000",
      "reserved": "",
      "salt": "0x0f81809a976ce0c4bcd0754632482441149885e2be35421d3eb60436befc686c",
      "assetIds": []
    },
    {
      "x": 195,
      "y": 115,
      "size": 1,
      "price": "1011000000000000000000",
      "reserved": "",
      "salt": "0xb1e840b1bd28d4bcdbb39eae36dd0b077c32ca4c81d82a2b51ebde688cff797b",
      "assetIds": []
    },
    {
      "x": 195,
      "y": 116,
      "size": 1,
      "price": "1011000000000000000000",
      "reserved": "",
      "salt": "0x4f461317af7ad74782526430ee2c756b2e0b7d8c043e87e4ebc4ecf519ecf64d",
      "assetIds": []
    },
    {
      "x": 195,
      "y": 117,
      "size": 1,
      "price": "1011000000000000000000",
      "reserved": "",
      "salt": "0xa99b9cba42bed4936e3cb70f1bbc91463e5ecf24b74caf57f74d24cec4ee8c39",
      "assetIds": []
    },
    {
      "x": 195,
      "y": 118,
      "size": 1,
      "price": "1011000000000000000000",
      "reserved": "",
      "salt": "0xf864d16e2afb658af18b13d1d3939d5b47e812b4f4c4a84996f65a6066db618e",
      "assetIds": []
    },
    {
      "x": 195,
      "y": 119,
      "size": 1,
      "price": "1011000000000000000000",
      "reserved": "",
      "salt": "0xee9c5d4b188c962bb7d8f34485b5e4d5c60252a94c9dea8505b1faab2fa2671e",
      "assetIds": []
    },
    {
      "x": 195,
      "y": 120,
      "size": 1,
      "price": "1011000000000000000000",
      "reserved": "",
      "salt": "0xfcaa0fb8e0136f009c85c104df2282714e4e30c76ef8c1af37cf352f7c7f37cb",
      "assetIds": []
    },
    {
      "x": 195,
      "y": 121,
      "size": 1,
      "price": "1011000000000000000000",
      "reserved": "",
      "salt": "0xe3f78861d39c25091f5eae391d6974376e441b70def12717d8f520ff23aabc7e",
      "assetIds": []
    },
    {
      "x": 195,
      "y": 122,
      "size": 1,
      "price": "1011000000000000000000",
      "reserved": "",
      "salt": "0x32164c74a636d277a515c50597b6e489287aceb20e489039d430d61d2309b8a2",
      "assetIds": []
    },
    {
      "x": 195,
      "y": 123,
      "size": 1,
      "price": "1011000000000000000000",
      "reserved": "",
      "salt": "0x0cf260c88aaf74b364f6485e3ebd823f044a5d61415ad0e39dd68673aaf99670",
      "assetIds": []
    },
    {
      "x": 195,
      "y": 124,
      "size": 1,
      "price": "1011000000000000000000",
      "reserved": "",
      "salt": "0x2f78c17c18ea9f6eb6719a3d2fd86206be740bfe64a85b6ca939787d43cb09c5",
      "assetIds": []
    },
    {
      "x": 195,
      "y": 125,
      "size": 1,
      "price": "1011000000000000000000",
      "reserved": "",
      "salt": "0x9fa61779954fd78af6c03d2b8ba64370b33e30cfeb0531fddf5890d0c4090998",
      "assetIds": []
    },
    {
      "x": 195,
      "y": 126,
      "size": 1,
      "price": "1011000000000000000000",
      "reserved": "",
      "salt": "0x7953607fc889321d8a3be5bd8e1b6f9119f240cfdfb0f48435638761e2faaf11",
      "assetIds": []
    },
    {
      "x": 195,
      "y": 127,
      "size": 1,
      "price": "1011000000000000000000",
      "reserved": "",
      "salt": "0x8b10c8409281550b1c65fa8454fbe2b50551dd69cdd94b558a9d3c242c323f9a",
      "assetIds": []
    },
    {
      "x": 195,
      "y": 128,
      "size": 1,
      "price": "4683000000000000000000",
      "reserved": "",
      "salt": "0xbb2b043f2e6001c2c4098a64ce06b8a640384d78b68b28acdbbd826a2014b4eb",
      "assetIds": [
        "41506478881403507969696680653240014914910929820314476107906210059990541021186"
      ]
    },
    {
      "x": 196,
      "y": 102,
      "size": 1,
      "price": "1011000000000000000000",
      "reserved": "",
      "salt": "0x51138034f82cfce5b506221d4461ef1ecf6b9388bb572c016aa4917a17a7544b",
      "assetIds": []
    },
    {
      "x": 196,
      "y": 103,
      "size": 1,
      "price": "1011000000000000000000",
      "reserved": "",
      "salt": "0xfa14fec1c6e5fc4d425aff044ea56345239d64840e87034a6c9a89fdf2980229",
      "assetIds": []
    },
    {
      "x": 196,
      "y": 104,
      "size": 1,
      "price": "1011000000000000000000",
      "reserved": "",
      "salt": "0xeb461651a2bb1a6ea5c70e58b56fc5e32546864c8abc02a8529ff848001030e9",
      "assetIds": []
    },
    {
      "x": 196,
      "y": 105,
      "size": 1,
      "price": "1011000000000000000000",
      "reserved": "",
      "salt": "0xc9c14b689ca3159dc6df9ed95eaebda25927c3533ddc1ce8a94c7d840b847d72",
      "assetIds": []
    },
    {
      "x": 196,
      "y": 106,
      "size": 1,
      "price": "1011000000000000000000",
      "reserved": "",
      "salt": "0xf67468bf11c00fab7bc33a77de7c3b2ee13bf90ce21f1809ab2848eb203daa83",
      "assetIds": []
    },
    {
      "x": 196,
      "y": 107,
      "size": 1,
      "price": "1011000000000000000000",
      "reserved": "",
      "salt": "0xc225a2ba84113c9f6dc7ef613a0b6a6be6cbc819eb44ec10f233d4016bb462bb",
      "assetIds": []
    },
    {
      "x": 196,
      "y": 114,
      "size": 1,
      "price": "4683000000000000000000",
      "reserved": "",
      "salt": "0x55b6c085f5425850aaf47661fcc677c78e61dadaf434af3a39f492c859a2ed1c",
      "assetIds": [
        "41506478881403507969696680653240014914910929820314476107906210059990541021186"
      ]
    },
    {
      "x": 196,
      "y": 115,
      "size": 1,
      "price": "4683000000000000000000",
      "reserved": "",
      "salt": "0xb6443133a351a64896097313b2b6862e1e9aadb90e9ef8401c87e899244628c8",
      "assetIds": [
        "41506478881403507969696680653240014914910929820314476107906210059990541021186"
      ]
    },
    {
      "x": 196,
      "y": 116,
      "size": 1,
      "price": "4683000000000000000000",
      "reserved": "",
      "salt": "0x6fbbd601d44db9f2a4459d688c7c1eba7a169126cf36187aa510139a8276ff25",
      "assetIds": [
        "41506478881403507969696680653240014914910929820314476107906210059990541021186"
      ]
    },
    {
      "x": 196,
      "y": 117,
      "size": 1,
      "price": "4683000000000000000000",
      "reserved": "",
      "salt": "0x869170cd55d51687e6d82b452c7530b0be4a090085d75b65589de99320b3c679",
      "assetIds": [
        "41506478881403507969696680653240014914910929820314476107906210059990541021186"
      ]
    },
    {
      "x": 196,
      "y": 118,
      "size": 1,
      "price": "4683000000000000000000",
      "reserved": "",
      "salt": "0xaff5a9e513e580e0106b7633294aa1eeebfcaba043aace3fc8b21b80cae7fd0c",
      "assetIds": [
        "41506478881403507969696680653240014914910929820314476107906210059990541021186"
      ]
    },
    {
      "x": 196,
      "y": 119,
      "size": 1,
      "price": "4683000000000000000000",
      "reserved": "",
      "salt": "0x5df80405c98b98ce9d4c85d447d67b6a49bd930ca116afd24938c4b7e94e99d7",
      "assetIds": [
        "41506478881403507969696680653240014914910929820314476107906210059990541021186"
      ]
    },
    {
      "x": 196,
      "y": 120,
      "size": 1,
      "price": "1011000000000000000000",
      "reserved": "",
      "salt": "0xa7b7c89f8b78bc1d9cef11008041ef1e65bbd1e2dc4bf86ba6689caec10005e4",
      "assetIds": []
    },
    {
      "x": 196,
      "y": 121,
      "size": 1,
      "price": "1011000000000000000000",
      "reserved": "",
      "salt": "0xa5f72add1372642ae7d463c76fe385a42e28ab6a31a429c928f23189304f50c3",
      "assetIds": []
    },
    {
      "x": 196,
      "y": 122,
      "size": 1,
      "price": "1011000000000000000000",
      "reserved": "",
      "salt": "0xaba4f5fa1a32569064e7562ef054d67128de8851d63f5d67999dacdf3ea5b4c6",
      "assetIds": []
    },
    {
      "x": 196,
      "y": 123,
      "size": 1,
      "price": "1011000000000000000000",
      "reserved": "",
      "salt": "0xc953bebffe0cacbff3eca903a76459218bee4e11671985915d48534cc6185497",
      "assetIds": []
    },
    {
      "x": 196,
      "y": 124,
      "size": 1,
      "price": "1011000000000000000000",
      "reserved": "",
      "salt": "0x40c65e548fbdd4e5cb637c4f3e6d982263c56439f3cbfedafff458d83a2ceace",
      "assetIds": []
    },
    {
      "x": 196,
      "y": 125,
      "size": 1,
      "price": "1011000000000000000000",
      "reserved": "",
      "salt": "0xceca4b6a67bb4811c6d51875eff4130d8ed64cc5e1e7fae54dbdda3503479b5b",
      "assetIds": []
    },
    {
      "x": 196,
      "y": 126,
      "size": 1,
      "price": "1011000000000000000000",
      "reserved": "",
      "salt": "0x87fbcea9ca92f513ffb57db4c9f6d8949e3c3873e25792933818aec8c1ee5f8f",
      "assetIds": []
    },
    {
      "x": 196,
      "y": 127,
      "size": 1,
      "price": "1011000000000000000000",
      "reserved": "",
      "salt": "0xb16649000b1d7ada961ef769f5258121517c2464c3236a94eeff3c66f03973c0",
      "assetIds": []
    },
    {
      "x": 196,
      "y": 128,
      "size": 1,
      "price": "4683000000000000000000",
      "reserved": "",
      "salt": "0xb2836e0a4d4b58c82b54d3d6160b5ad6fe15396433d7acbc4f1835e104fe7aff",
      "assetIds": [
        "41506478881403507969696680653240014914910929820314476107906210059990541021186"
      ]
    },
    {
      "x": 197,
      "y": 102,
      "size": 1,
      "price": "1011000000000000000000",
      "reserved": "",
      "salt": "0xc431122df7094363a23ba2b646b32d698920981dd05658d53cd0b982336759a4",
      "assetIds": []
    },
    {
      "x": 197,
      "y": 103,
      "size": 1,
      "price": "1011000000000000000000",
      "reserved": "",
      "salt": "0xf973b179094a6de60e7b57f683365aa23e50cdcab74bf29f6fa62441940f20d6",
      "assetIds": []
    },
    {
      "x": 197,
      "y": 104,
      "size": 1,
      "price": "1011000000000000000000",
      "reserved": "",
      "salt": "0x1330bd4bba8baf0790ee3a0293713d4f86be84eb76caaaa024d3f9906d94f869",
      "assetIds": []
    },
    {
      "x": 197,
      "y": 105,
      "size": 1,
      "price": "1011000000000000000000",
      "reserved": "",
      "salt": "0xa6646a76acee7121a1fc5f9ba8bb992e16b1eb57bb48672dc7cdf4c6faedfeda",
      "assetIds": []
    },
    {
      "x": 197,
      "y": 106,
      "size": 1,
      "price": "1011000000000000000000",
      "reserved": "",
      "salt": "0xc50ae874245b03f686f145608b42181b4314b57ef2cf85c415b97d3e2ef9e4fa",
      "assetIds": []
    },
    {
      "x": 197,
      "y": 107,
      "size": 1,
      "price": "1011000000000000000000",
      "reserved": "",
      "salt": "0x90d4c3d59d77a840984e502590225ef301100cccf68c422de022b25f9770b642",
      "assetIds": []
    },
    {
      "x": 197,
      "y": 114,
      "size": 1,
      "price": "4683000000000000000000",
      "reserved": "",
      "salt": "0x72688ec3b52d2facf88332e2d1d0fb9661c0cd580625f97ca9a5afa4b45647c6",
      "assetIds": [
        "41506478881403507969696680653240014914910929820314476107906210059990541021186"
      ]
    },
    {
      "x": 197,
      "y": 115,
      "size": 1,
      "price": "4683000000000000000000",
      "reserved": "",
      "salt": "0x70a6395a470d711e8630d9f6c821e4d11f17c062bfeba4297718cda1fed6b6e4",
      "assetIds": [
        "41506478881403507969696680653240014914910929820314476107906210059990541021186"
      ]
    },
    {
      "x": 197,
      "y": 116,
      "size": 1,
      "price": "4683000000000000000000",
      "reserved": "",
      "salt": "0x5958eec9f6cf48fd4d2518f756f7752fb168f1f368d839b23ed6e80d9c6d165c",
      "assetIds": [
        "41506478881403507969696680653240014914910929820314476107906210059990541021186"
      ]
    },
    {
      "x": 197,
      "y": 117,
      "size": 1,
      "price": "4683000000000000000000",
      "reserved": "",
      "salt": "0xce1ab1f37b4e8fd717894b3e6cb0f5b633da843e8b6fbc7d1bb6bde7263ef76e",
      "assetIds": [
        "41506478881403507969696680653240014914910929820314476107906210059990541021186"
      ]
    },
    {
      "x": 197,
      "y": 118,
      "size": 1,
      "price": "4683000000000000000000",
      "reserved": "",
      "salt": "0x3e0e0c270c3760efb39679c685d1a050b8922af30fe616a1c235ca0eea4ccbbc",
      "assetIds": [
        "41506478881403507969696680653240014914910929820314476107906210059990541021186"
      ]
    },
    {
      "x": 197,
      "y": 119,
      "size": 1,
      "price": "4683000000000000000000",
      "reserved": "",
      "salt": "0x443715a3871c0c63042e08ec2f35bcba588c79f3922980ce55e7e8bae1ee1bd0",
      "assetIds": [
        "41506478881403507969696680653240014914910929820314476107906210059990541021186"
      ]
    },
    {
      "x": 197,
      "y": 120,
      "size": 1,
      "price": "4683000000000000000000",
      "reserved": "",
      "salt": "0x09f45c8846ea2edfbf8389138cee1072f3a024d61f059581a34792271174d950",
      "assetIds": [
        "41506478881403507969696680653240014914910929820314476107906210059990541021186"
      ]
    },
    {
      "x": 197,
      "y": 121,
      "size": 1,
      "price": "1011000000000000000000",
      "reserved": "",
      "salt": "0x04be777f39b85c56f829a6307655e3f18930fdf3a6ed58f0d91ec621464d6a87",
      "assetIds": []
    },
    {
      "x": 197,
      "y": 122,
      "size": 1,
      "price": "1011000000000000000000",
      "reserved": "",
      "salt": "0x1536a24ace0831940930acccdb42d4131e51ff95b8243b2921a5633e254dadeb",
      "assetIds": []
    },
    {
      "x": 197,
      "y": 123,
      "size": 1,
      "price": "1011000000000000000000",
      "reserved": "",
      "salt": "0xcd55841cb274e8ef370bddfd95552568da880aa02bd0938789eeff7be6570895",
      "assetIds": []
    },
    {
      "x": 197,
      "y": 124,
      "size": 1,
      "price": "1011000000000000000000",
      "reserved": "",
      "salt": "0x6940220540f3f98c5d93977be3c0005dcf5b9529164a028869e5f7e966205e1f",
      "assetIds": []
    },
    {
      "x": 197,
      "y": 125,
      "size": 1,
      "price": "1011000000000000000000",
      "reserved": "",
      "salt": "0x6ac3505e6d159426cdee6cddfa4e8e6b951fdc8bfdfdf269ea8916e8379e670e",
      "assetIds": []
    },
    {
      "x": 197,
      "y": 126,
      "size": 1,
      "price": "1011000000000000000000",
      "reserved": "",
      "salt": "0x9e54586abe00e73bfca507b332078f4de90d5c495fd34852c9ea6c40de6a382b",
      "assetIds": []
    },
    {
      "x": 197,
      "y": 127,
      "size": 1,
      "price": "1011000000000000000000",
      "reserved": "",
      "salt": "0x392dc35c93502b26640933bc4a86565ce8de72c757c29edd56ef3ada64ee6454",
      "assetIds": []
    },
    {
      "x": 197,
      "y": 128,
      "size": 1,
      "price": "4683000000000000000000",
      "reserved": "",
      "salt": "0x1ba5e6a59160190cdacd6f3854b48a939744e4ffe986eb47b17a4ebb369246e9",
      "assetIds": [
        "41506478881403507969696680653240014914910929820314476107906210059990541021186"
      ]
    },
    {
      "x": 198,
      "y": 102,
      "size": 1,
      "price": "1011000000000000000000",
      "reserved": "",
      "salt": "0x392d3cb91972317281ca325c55dfe14eb8f44020d85bd62f4c17e47bc9738415",
      "assetIds": []
    },
    {
      "x": 198,
      "y": 103,
      "size": 1,
      "price": "1011000000000000000000",
      "reserved": "",
      "salt": "0x62858283a5318ed81d2874596dfc87c7731f76fe01e3cca4fb18d495b4e7b9d2",
      "assetIds": []
    },
    {
      "x": 198,
      "y": 104,
      "size": 1,
      "price": "1011000000000000000000",
      "reserved": "",
      "salt": "0x4e6acfffab142859c2ca4ec7d3ed0dbbd1380547774bae720eba8c0f9a257290",
      "assetIds": []
    },
    {
      "x": 198,
      "y": 105,
      "size": 1,
      "price": "1011000000000000000000",
      "reserved": "",
      "salt": "0x6d56b1dbe8a43469a681288181a3f79e84e1ef9160afe183163be4eb1fbc9a57",
      "assetIds": []
    },
    {
      "x": 198,
      "y": 106,
      "size": 1,
      "price": "1011000000000000000000",
      "reserved": "",
      "salt": "0x8674483f758e46ab09337948850d03576963fc140620358d34f7d7c35aaf3d13",
      "assetIds": []
    },
    {
      "x": 198,
      "y": 107,
      "size": 1,
      "price": "1011000000000000000000",
      "reserved": "",
      "salt": "0xc4402ff03272d3c5d6c613e6637169b4f2ae4e5097cad77c906e96a3942e76b4",
      "assetIds": []
    },
    {
      "x": 198,
      "y": 108,
      "size": 1,
      "price": "1011000000000000000000",
      "reserved": "",
      "salt": "0xb79105e90c7e8049f5c80c48038bc9a67571116926bea792c2d5b1fd015ac034",
      "assetIds": []
    },
    {
      "x": 198,
      "y": 109,
      "size": 1,
      "price": "1011000000000000000000",
      "reserved": "",
      "salt": "0x098ec601fc9cbe2b0b7e92b628cad2bdbe5f96147f68f4e1fa3a2ae6d2198451",
      "assetIds": []
    },
    {
      "x": 198,
      "y": 110,
      "size": 1,
      "price": "1011000000000000000000",
      "reserved": "",
      "salt": "0xd91cd5c826491c97f561125a271ba7ee93a871fe25d897356bc24a5629931079",
      "assetIds": []
    },
    {
      "x": 198,
      "y": 111,
      "size": 1,
      "price": "1011000000000000000000",
      "reserved": "",
      "salt": "0x526baa2e09f220b1096fbde41a67b76ec8860a0558907029cd4eaf5eddae496b",
      "assetIds": []
    },
    {
      "x": 198,
      "y": 112,
      "size": 1,
      "price": "4683000000000000000000",
      "reserved": "",
      "salt": "0x072169e0dd12cc1d18add551e7d7e1f419058d73a3d998945980ae1fd9edaa52",
      "assetIds": [
        "41506478881403507969696680653240014914910929820314476107906210059990541021186"
      ]
    },
    {
      "x": 198,
      "y": 113,
      "size": 1,
      "price": "4683000000000000000000",
      "reserved": "",
      "salt": "0x02891b759761eaf769d1d9bd8a62ded57aebd0b24faecef14f6a13467f3bcbf0",
      "assetIds": [
        "41506478881403507969696680653240014914910929820314476107906210059990541021186"
      ]
    },
    {
      "x": 198,
      "y": 123,
      "size": 1,
      "price": "1011000000000000000000",
      "reserved": "",
      "salt": "0x25063d76124c0e7cc3201c8e2c38bac27c061955cfc4921d049f53d9a8603b5c",
      "assetIds": []
    },
    {
      "x": 198,
      "y": 124,
      "size": 1,
      "price": "1011000000000000000000",
      "reserved": "",
      "salt": "0xbf43e6fff6a36c358eaa82c8af201f1eed9b2b8c9fbfda55e3d8f8a9d42468d8",
      "assetIds": []
    },
    {
      "x": 198,
      "y": 125,
      "size": 1,
      "price": "1011000000000000000000",
      "reserved": "",
      "salt": "0x60a7bc5cba58b3573b6d34afe5314ac1f26ef1f0479d11a4672332680a783653",
      "assetIds": []
    },
    {
      "x": 198,
      "y": 129,
      "size": 1,
      "price": "4683000000000000000000",
      "reserved": "",
      "salt": "0x82095e6899596b07678c16d3e7897903158237be0dfe82fb4899728c22ec695a",
      "assetIds": [
        "41506478881403507969696680653240014914910929820314476107906210059990541021186"
      ]
    },
    {
      "x": 198,
      "y": 130,
      "size": 1,
      "price": "4683000000000000000000",
      "reserved": "",
      "salt": "0x6660d5354868d42532b8c38929722d591bf857b0f7affbc22cea6410c9be2153",
      "assetIds": [
        "41506478881403507969696680653240014914910929820314476107906210059990541021186"
      ]
    },
    {
      "x": 198,
      "y": 131,
      "size": 1,
      "price": "4683000000000000000000",
      "reserved": "",
      "salt": "0x568bd2638029b0d66df24b34d8c8b4e2579bf8556dcffe2c458ec96406c38889",
      "assetIds": [
        "41506478881403507969696680653240014914910929820314476107906210059990541021186"
      ]
    },
    {
      "x": 199,
      "y": 102,
      "size": 1,
      "price": "1011000000000000000000",
      "reserved": "",
      "salt": "0x5e92ca60f185877dab534ff5d7836d86663600827d42b0d4b7e821fe92a80c1f",
      "assetIds": []
    },
    {
      "x": 199,
      "y": 103,
      "size": 1,
      "price": "1011000000000000000000",
      "reserved": "",
      "salt": "0xb39853023043f7805800765c3b0af179d3d422d8d0296443138be46f74eafe27",
      "assetIds": []
    },
    {
      "x": 199,
      "y": 104,
      "size": 1,
      "price": "1011000000000000000000",
      "reserved": "",
      "salt": "0xfff8fe3b54b582eab6401e0cd1525539e1fd096023027dcf7f0348f899471782",
      "assetIds": []
    },
    {
      "x": 199,
      "y": 105,
      "size": 1,
      "price": "1011000000000000000000",
      "reserved": "",
      "salt": "0x0bf49d0be2d3b252b4848538f063d75ff67f8a65cf4862dd6a688e5ee8f7f81f",
      "assetIds": []
    },
    {
      "x": 199,
      "y": 106,
      "size": 1,
      "price": "1011000000000000000000",
      "reserved": "",
      "salt": "0x64730981186e3998f6460255b3a9e6c5785c68d48e47fd218c88d82801b7d84e",
      "assetIds": []
    },
    {
      "x": 199,
      "y": 107,
      "size": 1,
      "price": "1011000000000000000000",
      "reserved": "",
      "salt": "0x6089ed544cf1ad9add562aa012cf36f27ce0ad78a56e5598f0b45d5dd89b121f",
      "assetIds": []
    },
    {
      "x": 199,
      "y": 108,
      "size": 1,
      "price": "1011000000000000000000",
      "reserved": "",
      "salt": "0x1a3f3a3d6e95b89edaef330023d18860e855848f6617914bf00c4f73c3107d49",
      "assetIds": []
    },
    {
      "x": 199,
      "y": 109,
      "size": 1,
      "price": "1011000000000000000000",
      "reserved": "",
      "salt": "0xc083101bf390244ca6d74460488aeb52b7c16491c4f32879ac55edd0933934ee",
      "assetIds": []
    },
    {
      "x": 199,
      "y": 110,
      "size": 1,
      "price": "1011000000000000000000",
      "reserved": "",
      "salt": "0x2143007fe0701cd4107cc35b2c4f729a446dc30610374eed37e92eaf32698981",
      "assetIds": []
    },
    {
      "x": 199,
      "y": 111,
      "size": 1,
      "price": "1011000000000000000000",
      "reserved": "",
      "salt": "0x57bc84305a0312f88aa19106a820c0b0bbe268337b141e7ca87a9ff39f56d73e",
      "assetIds": []
    },
    {
      "x": 199,
      "y": 112,
      "size": 1,
      "price": "4683000000000000000000",
      "reserved": "",
      "salt": "0x7dbd5589a0edfbbd0a6a52203a8478b2edff244c8dd1445c594a948c23f6af3e",
      "assetIds": [
        "41506478881403507969696680653240014914910929820314476107906210059990541021186"
      ]
    },
    {
      "x": 199,
      "y": 113,
      "size": 1,
      "price": "4683000000000000000000",
      "reserved": "",
      "salt": "0x5110cacd1643e2b6da2df0b66a776fe2f78b375f521ace2d60ecfb0791cf37c6",
      "assetIds": [
        "41506478881403507969696680653240014914910929820314476107906210059990541021186"
      ]
    },
    {
      "x": 199,
      "y": 123,
      "size": 1,
      "price": "1011000000000000000000",
      "reserved": "",
      "salt": "0x51dbcc7599b68a2ba4c45ab95225aa16e9dd8b66ddac419c9ee197149772bc26",
      "assetIds": []
    },
    {
      "x": 199,
      "y": 124,
      "size": 1,
      "price": "1011000000000000000000",
      "reserved": "",
      "salt": "0x10aabf3e8226f576e1b730b9b64b611a68dddc08a54253e6e05945aaabb1eeab",
      "assetIds": []
    },
    {
      "x": 199,
      "y": 125,
      "size": 1,
      "price": "1011000000000000000000",
      "reserved": "",
      "salt": "0x1cabe8ad94e4fbfe0c10067cd63fe6b23160eb80951d408286f367bde960cf2a",
      "assetIds": []
    },
    {
      "x": 199,
      "y": 129,
      "size": 1,
      "price": "1011000000000000000000",
      "reserved": "",
      "salt": "0xa9f30f8b45a7e9a1a525d1bd0fe3348507588c262fbb4b9235513e5b9a61a4bd",
      "assetIds": []
    },
    {
      "x": 199,
      "y": 130,
      "size": 1,
      "price": "1011000000000000000000",
      "reserved": "",
      "salt": "0x4693473b316c98487d8fba197dc209922f45e029ad8dcc5f1232f29bad237381",
      "assetIds": []
    },
    {
      "x": 199,
      "y": 131,
      "size": 1,
      "price": "1011000000000000000000",
      "reserved": "",
      "salt": "0x8e7770bc1e71918c2e161a92dbdb09382aa6962a10a3c7f27c57778a479d8629",
      "assetIds": []
    },
    {
      "x": 200,
      "y": 102,
      "size": 1,
      "price": "1011000000000000000000",
      "reserved": "",
      "salt": "0x0f120454a1870d99b9160c37c23f5055e050c4b3f3b9ef6fd51566c0a25148d6",
      "assetIds": []
    },
    {
      "x": 200,
      "y": 103,
      "size": 1,
      "price": "1011000000000000000000",
      "reserved": "",
      "salt": "0xdc725f620f53dcd89c7b29139351556109574a4340840b32f23197e98f3cb32e",
      "assetIds": []
    },
    {
      "x": 200,
      "y": 104,
      "size": 1,
      "price": "1011000000000000000000",
      "reserved": "",
      "salt": "0xfff498b41bf660527f5855dee0b64c58d9ace5a540ef17e55c2527deeed0a7c4",
      "assetIds": []
    },
    {
      "x": 200,
      "y": 105,
      "size": 1,
      "price": "1011000000000000000000",
      "reserved": "",
      "salt": "0xdd96981d0c1e7aaf2962e50155ef44028f4c7f21aa61c6dfc73cae108bd81a43",
      "assetIds": []
    },
    {
      "x": 200,
      "y": 106,
      "size": 1,
      "price": "1011000000000000000000",
      "reserved": "",
      "salt": "0xddab6eddf7d484b9d90d940d2fcbf0d47e4c7cb3a082eca9d72d33be009722cb",
      "assetIds": []
    },
    {
      "x": 200,
      "y": 107,
      "size": 1,
      "price": "1011000000000000000000",
      "reserved": "",
      "salt": "0x5e267472eb833a44aaeaa710a13fe92d73f15b2ade569775693f87de306ff2f6",
      "assetIds": []
    },
    {
      "x": 200,
      "y": 108,
      "size": 1,
      "price": "1011000000000000000000",
      "reserved": "",
      "salt": "0xe353ef58f66f206a44c974401e797a84e91bae15b900692485712ee42b3bdcfb",
      "assetIds": []
    },
    {
      "x": 200,
      "y": 109,
      "size": 1,
      "price": "1011000000000000000000",
      "reserved": "",
      "salt": "0x9c614d366176c1fdc4c50215198a13cbdf64be563834fd46b3196fed04e07cae",
      "assetIds": []
    },
    {
      "x": 200,
      "y": 110,
      "size": 1,
      "price": "1011000000000000000000",
      "reserved": "",
      "salt": "0xb3366fcf4866dcec6d8be66271ac543dd41b67747b8909bcc31cfc9eeccd408d",
      "assetIds": []
    },
    {
      "x": 200,
      "y": 111,
      "size": 1,
      "price": "1011000000000000000000",
      "reserved": "",
      "salt": "0x7b8c0c969151877308b5b967a0a728943223cc44a4318252955f5789dbb360f4",
      "assetIds": []
    },
    {
      "x": 200,
      "y": 112,
      "size": 1,
      "price": "4683000000000000000000",
      "reserved": "",
      "salt": "0xb8190d0f6a65b3287739d0ff8fdaf1159b06ced54248be706c544692257e5568",
      "assetIds": [
        "41506478881403507969696680653240014914910929820314476107906210059990541021186"
      ]
    },
    {
      "x": 200,
      "y": 113,
      "size": 1,
      "price": "4683000000000000000000",
      "reserved": "",
      "salt": "0xa5e2395b6314294f8333c193672b7c2f643f387ae7c4fd9554044f992b3fb74a",
      "assetIds": [
        "41506478881403507969696680653240014914910929820314476107906210059990541021186"
      ]
    },
    {
      "x": 200,
      "y": 123,
      "size": 1,
      "price": "1011000000000000000000",
      "reserved": "",
      "salt": "0x6bd28107ec8715468de436dbe599c7be783a709c0aab4d872061c5ad26cc2229",
      "assetIds": []
    },
    {
      "x": 200,
      "y": 124,
      "size": 1,
      "price": "1011000000000000000000",
      "reserved": "",
      "salt": "0xd863e002fcecf074c1409ba852d7140cea071ea5e5c9ecfd77e8f2b5337a9c8b",
      "assetIds": []
    },
    {
      "x": 200,
      "y": 125,
      "size": 1,
      "price": "1011000000000000000000",
      "reserved": "",
      "salt": "0x030a1ce4ddabda71154520a7e833c539b549372826ccca6864d16065ef50db3c",
      "assetIds": []
    },
    {
      "x": 200,
      "y": 129,
      "size": 1,
      "price": "1011000000000000000000",
      "reserved": "",
      "salt": "0xa4e445599138c4e186571727ecb26d970c06e0f5cdaf3f619df173d698181e89",
      "assetIds": []
    },
    {
      "x": 200,
      "y": 130,
      "size": 1,
      "price": "1011000000000000000000",
      "reserved": "",
      "salt": "0xf06b90da307e9ead6ca8a110d5dca4654a8e16082a52b5d580ecd93f8716ec69",
      "assetIds": []
    },
    {
      "x": 200,
      "y": 131,
      "size": 1,
      "price": "1011000000000000000000",
      "reserved": "",
      "salt": "0x67e244576dcae5ceb76d8851d74da95537fb111703ab63f857708de96ca05a2f",
      "assetIds": []
    },
    {
      "x": 201,
      "y": 102,
      "size": 1,
      "price": "1011000000000000000000",
      "reserved": "",
      "salt": "0x5b4cfb485bb929a1d0ce32d74ce256077ebfbbe1c6cf5cff1b0dc698db78fb32",
      "assetIds": []
    },
    {
      "x": 201,
      "y": 103,
      "size": 1,
      "price": "1011000000000000000000",
      "reserved": "",
      "salt": "0x589665bc9c90d8e3e7e30b0c7c326cd1ff6c8dde8d94a4e7d488e6ba4e618df2",
      "assetIds": []
    },
    {
      "x": 201,
      "y": 104,
      "size": 1,
      "price": "1011000000000000000000",
      "reserved": "",
      "salt": "0x1b21f55bb9ef6de9f9f37b578764e978a4a1da82c2a8dec067abe09d250f4a5e",
      "assetIds": []
    },
    {
      "x": 201,
      "y": 111,
      "size": 1,
      "price": "1011000000000000000000",
      "reserved": "",
      "salt": "0xff02e6a39faea7b6340354cb04d461987fe91d96fd5dc350786ec0ffcf4296c9",
      "assetIds": []
    },
    {
      "x": 201,
      "y": 112,
      "size": 1,
      "price": "4683000000000000000000",
      "reserved": "",
      "salt": "0x2b599fc4822ed8a7316d05a0ad24130ac46cf777e3ec3d68f70fd76ffbf9a591",
      "assetIds": [
        "41506478881403507969696680653240014914910929820314476107906210059990541021186"
      ]
    },
    {
      "x": 201,
      "y": 113,
      "size": 1,
      "price": "4683000000000000000000",
      "reserved": "",
      "salt": "0x5cccb8b040cd53d972296005744151ffce6860d1b7423b300e731416c58c68ab",
      "assetIds": [
        "41506478881403507969696680653240014914910929820314476107906210059990541021186"
      ]
    },
    {
      "x": 201,
      "y": 120,
      "size": 1,
      "price": "4683000000000000000000",
      "reserved": "",
      "salt": "0x334e4fa940caf2e709c8d3b4acfe0b9cbfccc1f19f254d05eab0b3011f596c3d",
      "assetIds": [
        "41506478881403507969696680653240014914910929820314476107906210059990541021186"
      ]
    },
    {
      "x": 201,
      "y": 121,
      "size": 1,
      "price": "4683000000000000000000",
      "reserved": "",
      "salt": "0xfd0e592289470f373774a3ea18c888964fd38eb50f328b9ea904b6b350b15827",
      "assetIds": [
        "41506478881403507969696680653240014914910929820314476107906210059990541021186"
      ]
    },
    {
      "x": 201,
      "y": 122,
      "size": 1,
      "price": "1011000000000000000000",
      "reserved": "",
      "salt": "0x0dc8b5087f6a2962f49051f3e3013e23f257ea0c058bf2dcfb81d83dcab6e6f1",
      "assetIds": []
    },
    {
      "x": 201,
      "y": 126,
      "size": 1,
      "price": "4683000000000000000000",
      "reserved": "",
      "salt": "0x96def9eb5d4a183084ad3629f252efc29cede2c6c584f83eaf5bece90f55f833",
      "assetIds": [
        "41506478881403507969696680653240014914910929820314476107906210059990541021186"
      ]
    },
    {
      "x": 201,
      "y": 127,
      "size": 1,
      "price": "4683000000000000000000",
      "reserved": "",
      "salt": "0xb437ac90a720ed9520dc9238ca4d90fdba8247479ec2b2d01fd2f8865af00a9f",
      "assetIds": [
        "41506478881403507969696680653240014914910929820314476107906210059990541021186"
      ]
    },
    {
      "x": 201,
      "y": 128,
      "size": 1,
      "price": "1011000000000000000000",
      "reserved": "",
      "salt": "0xd9eed286990947193cee17e7ef3a80de7c0b36b30781685b4eca48174db835b5",
      "assetIds": []
    },
    {
      "x": 201,
      "y": 129,
      "size": 1,
      "price": "1011000000000000000000",
      "reserved": "",
      "salt": "0x7ccd326229cdbd04a35eedfa7222a5313d328366414474dc2d2ee92984a7011d",
      "assetIds": []
    },
    {
      "x": 201,
      "y": 130,
      "size": 1,
      "price": "1011000000000000000000",
      "reserved": "",
      "salt": "0xbec4ef02ed6cfb686a0da5d1c07eca8b819113274fb70bfad874951c1f393640",
      "assetIds": []
    },
    {
      "x": 201,
      "y": 131,
      "size": 1,
      "price": "1011000000000000000000",
      "reserved": "",
      "salt": "0x570985503ab986fd047885d32b4ba70feba9ca1f3923e9c20fe850bfa9ff3a81",
      "assetIds": []
    },
    {
      "x": 202,
      "y": 102,
      "size": 1,
      "price": "4683000000000000000000",
      "reserved": "",
      "salt": "0x782bd93fd8feee04cd9ae7644a6ab5e6ea292768330ec3b49f06c989a46a2b27",
      "assetIds": [
        "41506478881403507969696680653240014914910929820314476107906210059990541021186"
      ]
    },
    {
      "x": 202,
      "y": 103,
      "size": 1,
      "price": "4683000000000000000000",
      "reserved": "",
      "salt": "0x133c33004beabd528a3ce70cdd92aec03fa27c9776285e5d1e4f798aed354d78",
      "assetIds": [
        "41506478881403507969696680653240014914910929820314476107906210059990541021186"
      ]
    },
    {
      "x": 202,
      "y": 104,
      "size": 1,
      "price": "4683000000000000000000",
      "reserved": "",
      "salt": "0x36b46dea6d3c50e71cab73df51b2c950fa1cca97ba5851434a849749ceb23e28",
      "assetIds": [
        "41506478881403507969696680653240014914910929820314476107906210059990541021186"
      ]
    },
    {
      "x": 202,
      "y": 111,
      "size": 1,
      "price": "4683000000000000000000",
      "reserved": "",
      "salt": "0xbef27df1b132e91b95754021a7f81fdb15156a873b3fb722dfcce896981fdcdf",
      "assetIds": [
        "41506478881403507969696680653240014914910929820314476107906210059990541021186"
      ]
    },
    {
      "x": 202,
      "y": 112,
      "size": 1,
      "price": "4683000000000000000000",
      "reserved": "",
      "salt": "0xdcca42679337483261b1de9f5ed8640e6c79602d7bf1c3d2ff9adc017c82dc1d",
      "assetIds": [
        "41506478881403507969696680653240014914910929820314476107906210059990541021186"
      ]
    },
    {
      "x": 202,
      "y": 113,
      "size": 1,
      "price": "4683000000000000000000",
      "reserved": "",
      "salt": "0x2788e006b36c3b510a86d701b0840934bb96c160317235d48f3426c334c9f276",
      "assetIds": [
        "41506478881403507969696680653240014914910929820314476107906210059990541021186"
      ]
    },
    {
      "x": 202,
      "y": 120,
      "size": 1,
      "price": "4683000000000000000000",
      "reserved": "",
      "salt": "0x3d976d40917629a6da18becd10825df4597bfa794fd5a21e81eace2ddef4d8f0",
      "assetIds": [
        "41506478881403507969696680653240014914910929820314476107906210059990541021186"
      ]
    },
    {
      "x": 202,
      "y": 121,
      "size": 1,
      "price": "4683000000000000000000",
      "reserved": "",
      "salt": "0x2e0b30ab6496a2e986eb40b1401ccedb12e91214969cb8ef6ed3a65131fd9e81",
      "assetIds": [
        "41506478881403507969696680653240014914910929820314476107906210059990541021186"
      ]
    },
    {
      "x": 202,
      "y": 122,
      "size": 1,
      "price": "4683000000000000000000",
      "reserved": "",
      "salt": "0x673d9fcc78c60eb22421332cd3202558b4eccbbb75e3d859feceaaca0d677425",
      "assetIds": [
        "41506478881403507969696680653240014914910929820314476107906210059990541021186"
      ]
    },
    {
      "x": 202,
      "y": 126,
      "size": 1,
      "price": "4683000000000000000000",
      "reserved": "",
      "salt": "0xc13a30188d1a58ef9943ca34767f47d9e7b16aa6496717d4acb9712e0332be33",
      "assetIds": [
        "41506478881403507969696680653240014914910929820314476107906210059990541021186"
      ]
    },
    {
      "x": 202,
      "y": 127,
      "size": 1,
      "price": "4683000000000000000000",
      "reserved": "",
      "salt": "0x1caffca23b2ed941d7893c83c92278f9dc933ce27697482d7859c8f33c4a1464",
      "assetIds": [
        "41506478881403507969696680653240014914910929820314476107906210059990541021186"
      ]
    },
    {
      "x": 202,
      "y": 128,
      "size": 1,
      "price": "4683000000000000000000",
      "reserved": "",
      "salt": "0xedecf76620f8e52ba5c5e6dc75e57a183efbbc7d27f502d8329c9ac6dba55327",
      "assetIds": [
        "41506478881403507969696680653240014914910929820314476107906210059990541021186"
      ]
    },
    {
      "x": 202,
      "y": 129,
      "size": 1,
      "price": "4683000000000000000000",
      "reserved": "",
      "salt": "0x6d9e8edd86c141e6adc1dfe738f1c9af97ab6c7a2605fdc75dab64edbaa96c1b",
      "assetIds": [
        "41506478881403507969696680653240014914910929820314476107906210059990541021186"
      ]
    },
    {
      "x": 202,
      "y": 130,
      "size": 1,
      "price": "4683000000000000000000",
      "reserved": "",
      "salt": "0x62086b0828fe0ef2825addd970cd2332e4896757d68371644b0265a0559c73cb",
      "assetIds": [
        "41506478881403507969696680653240014914910929820314476107906210059990541021186"
      ]
    },
    {
      "x": 202,
      "y": 131,
      "size": 1,
      "price": "4683000000000000000000",
      "reserved": "",
      "salt": "0xf727db38ca93da1dcc18c660c9c65b90af384532de3566602726f31cb0a09b36",
      "assetIds": [
        "41506478881403507969696680653240014914910929820314476107906210059990541021186"
      ]
    },
    {
      "x": 203,
      "y": 102,
      "size": 1,
      "price": "4683000000000000000000",
      "reserved": "",
      "salt": "0xffbd62a1b237754b91e90dabbecf14cf745c29c1ed7197f7343be498aefd1f43",
      "assetIds": [
        "41506478881403507969696680653240014914910929820314476107906210059990541021186"
      ]
    },
    {
      "x": 203,
      "y": 103,
      "size": 1,
      "price": "4683000000000000000000",
      "reserved": "",
      "salt": "0x2aa1a379a561c2e6bba1b14025442ef695c780ce632b56dfa519e639556d4c90",
      "assetIds": [
        "41506478881403507969696680653240014914910929820314476107906210059990541021186"
      ]
    },
    {
      "x": 203,
      "y": 104,
      "size": 1,
      "price": "4683000000000000000000",
      "reserved": "",
      "salt": "0xe078171f3a00ecf275d5e362a0d093cce5eafb40abc4b0f63af45700b2692dfc",
      "assetIds": [
        "41506478881403507969696680653240014914910929820314476107906210059990541021186"
      ]
    },
    {
      "x": 203,
      "y": 111,
      "size": 1,
      "price": "4683000000000000000000",
      "reserved": "",
      "salt": "0x21afe4ecad38b422208dfd41ecc26f5e56d9a19988e8c40c7c01ca526268bd1d",
      "assetIds": [
        "41506478881403507969696680653240014914910929820314476107906210059990541021186"
      ]
    },
    {
      "x": 203,
      "y": 112,
      "size": 1,
      "price": "4683000000000000000000",
      "reserved": "",
      "salt": "0x328204a400ac5ee36176061c77177450f70b74af197c7cde15e07eb9247fbc7d",
      "assetIds": [
        "41506478881403507969696680653240014914910929820314476107906210059990541021186"
      ]
    },
    {
      "x": 203,
      "y": 113,
      "size": 1,
      "price": "4683000000000000000000",
      "reserved": "",
      "salt": "0x1f15b422c8a27da1d7ad5f92bf32d5f2dbc009a5f4db85e29f7d6ce9a2a666f4",
      "assetIds": [
        "41506478881403507969696680653240014914910929820314476107906210059990541021186"
      ]
    },
    {
      "x": 203,
      "y": 120,
      "size": 1,
      "price": "4683000000000000000000",
      "reserved": "",
      "salt": "0x8dbd9625bc3d4498431fe18dfa00885e71ddd7b24cc5758a6aa795c9890f5825",
      "assetIds": [
        "41506478881403507969696680653240014914910929820314476107906210059990541021186"
      ]
    },
    {
      "x": 203,
      "y": 121,
      "size": 1,
      "price": "4683000000000000000000",
      "reserved": "",
      "salt": "0x319ec011cb29d97f2bc6cbcf5db9da3fd5dd2b8c99b3e2df9be4d6caeea9f069",
      "assetIds": [
        "41506478881403507969696680653240014914910929820314476107906210059990541021186"
      ]
    },
    {
      "x": 203,
      "y": 122,
      "size": 1,
      "price": "4683000000000000000000",
      "reserved": "",
      "salt": "0xea15b9f7be85b2c8fc40a9dc89391e83f8c4fccacb63f2a9a5b81e269a1ea9c7",
      "assetIds": [
        "41506478881403507969696680653240014914910929820314476107906210059990541021186"
      ]
    },
    {
      "x": 203,
      "y": 126,
      "size": 1,
      "price": "4683000000000000000000",
      "reserved": "",
      "salt": "0x487bc6b37be96965a589473ce527fbda2612a4be274f05db9414b6619f394505",
      "assetIds": [
        "41506478881403507969696680653240014914910929820314476107906210059990541021186"
      ]
    },
    {
      "x": 203,
      "y": 127,
      "size": 1,
      "price": "4683000000000000000000",
      "reserved": "",
      "salt": "0x363bdbd0184c0fc835ed890af1fe3cd47923ffc979a0e76ca4b06b730d6c6163",
      "assetIds": [
        "41506478881403507969696680653240014914910929820314476107906210059990541021186"
      ]
    },
    {
      "x": 203,
      "y": 128,
      "size": 1,
      "price": "4683000000000000000000",
      "reserved": "",
      "salt": "0xbc7c0661f4fca8342611512994404cc0e575bd402ad3c8fb5372a1352594012a",
      "assetIds": [
        "41506478881403507969696680653240014914910929820314476107906210059990541021186"
      ]
    },
    {
      "x": 203,
      "y": 129,
      "size": 1,
      "price": "4683000000000000000000",
      "reserved": "",
      "salt": "0x99cea3b9c6eb62b82492c70044e2a26723f7112420bbd90ddb29495e276250e7",
      "assetIds": [
        "41506478881403507969696680653240014914910929820314476107906210059990541021186"
      ]
    },
    {
      "x": 203,
      "y": 130,
      "size": 1,
      "price": "4683000000000000000000",
      "reserved": "",
      "salt": "0x018054f01edfbfb4d6873e7894c86ffdd2b248b0f13c326ec4fe35b29da30fe8",
      "assetIds": [
        "41506478881403507969696680653240014914910929820314476107906210059990541021186"
      ]
    },
    {
      "x": 203,
      "y": 131,
      "size": 1,
      "price": "4683000000000000000000",
      "reserved": "",
      "salt": "0xf9ac4834a2a4ea6514897ec88540a27ee7fa9625bf07af84e6331cc5481d1570",
      "assetIds": [
        "41506478881403507969696680653240014914910929820314476107906210059990541021186"
      ]
    },
    {
      "x": 192,
      "y": 117,
      "size": 3,
      "price": "8648000000000000000000",
      "reserved": "0x7a9fe22691c811ea339d9b73150e6911a5343dca",
      "salt": "0x3c7e94141c85e777db9a36a0468c0c4eca9e2106c9df27f7880637dc87494646",
      "assetIds": []
    },
    {
      "x": 192,
      "y": 126,
      "size": 3,
      "price": "8648000000000000000000",
      "reserved": "0x7a9fe22691c811ea339d9b73150e6911a5343dca",
      "salt": "0x7f3443509a6a5a938d26d50587c392a7d674df9b0e2f899156261c64d9fcf348",
      "assetIds": []
    },
    {
      "x": 195,
      "y": 129,
      "size": 3,
      "price": "8648000000000000000000",
      "reserved": "0x7a9fe22691c811ea339d9b73150e6911a5343dca",
      "salt": "0x0e02fb839b6fed78253b74dc476704b5964d2b3bc61328e1d78e822812d80454",
      "assetIds": []
    },
    {
      "x": 198,
      "y": 120,
      "size": 3,
      "price": "8648000000000000000000",
      "reserved": "0x7a9fe22691c811ea339d9b73150e6911a5343dca",
      "salt": "0x61d9000c49d2564f4bca11fe0829c01758dec0c930b1abcc74f76a145f2c9ec2",
      "assetIds": []
    },
    {
      "x": 198,
      "y": 126,
      "size": 3,
      "price": "8648000000000000000000",
      "reserved": "0x7a9fe22691c811ea339d9b73150e6911a5343dca",
      "salt": "0xe7ad869e0a3d814727133786096bbe4d00fe31f73353093153854bd3464afb56",
      "assetIds": []
    },
    {
      "x": 201,
      "y": 105,
      "size": 3,
      "price": "8648000000000000000000",
      "reserved": "0x7a9fe22691c811ea339d9b73150e6911a5343dca",
      "salt": "0x0520e114e87939d782c3ea46f129718419e90ec22392a04d4eda027bc15e8fd8",
      "assetIds": []
    },
    {
      "x": 201,
      "y": 108,
      "size": 3,
      "price": "8648000000000000000000",
      "reserved": "0x7a9fe22691c811ea339d9b73150e6911a5343dca",
      "salt": "0xc6ca5a9ae68e519a9d89950c727ce4fc3cfc73de8940e13a1a08c1c5a5e28de9",
      "assetIds": []
    },
    {
      "x": 201,
      "y": 123,
      "size": 3,
      "price": "8648000000000000000000",
      "reserved": "0x7a9fe22691c811ea339d9b73150e6911a5343dca",
      "salt": "0xc9382730743f42b17b8535d668f56f1d87c60b21e63bcc29e63c274df7fd9d19",
      "assetIds": []
    },
    {
      "x": 186,
      "y": 114,
      "size": 6,
      "price": "32772000000000000000000",
      "reserved": "0x7a9fe22691c811ea339d9b73150e6911a5343dca",
      "salt": "0x11c00ea6b7ead323e6999d062a112376f7f5f93ac669504ba31d9c3a109fb132",
      "assetIds": []
    },
    {
      "x": 198,
      "y": 114,
      "size": 6,
      "price": "32772000000000000000000",
      "reserved": "0x7a9fe22691c811ea339d9b73150e6911a5343dca",
      "salt": "0xa403cf41c2c588a31b502b2d5e0ae5da53ef25507932e29067f0328ae4f3c887",
      "assetIds": []
    }
  ],
  "solcInputHash": "e17a5bb930c92aaeeb80a52119ce77b7",
  "bytecode": "0x610160604052620d2f0060055534801561001857600080fd5b506040516200284d3803806200284d83398181016040526101a081101561003e57600080fd5b50805160208201516040830151606080850151608086015160a08088015160c0808a015160e08b01516101008c01516101208d01516101408e01516101608f0151610180909f0151600280546001600160a01b0319166001600160a01b03871617905560038490558e8c1b6001600160601b03199081169099529a8d901b9097169094529a9b999a98999698959793969195909490939091906100e28b600161015d565b600680546001600160a01b039a8b166001600160a01b031991821617909155610140989098526101209690965260008054998916998816999099179098556001600160601b0319606092831b811660e05290821b811660805296901b909516610100525060078054919093169116179055506101c192505050565b6001600160a01b038216600081815260016020908152604091829020805460ff191685151590811790915582519384529083015280517fb21eb88b4e33b3f1281830a7178d74d8aa73220416215726b68ae23d539515cb9281900390910190a15050565b60805160601c60a05160601c60c05160601c60e05160601c6101005160601c61012051610140516126066200024760003980610b3d528061206c525080610b1952806112ec5250806120da525080611841528061199e5250806117f75280611b9d528061210e525080611872528061196f525080610eb25280611c8952506126066000f3fe608060405234801561001057600080fd5b506004361061011b5760003560e01c80638f283970116100b2578063c10a420811610081578063dc5074af11610066578063dc5074af1461085f578063e56f8a9e14610885578063f23a6e61146108a25761011b565b8063c10a420814610780578063caed3500146108575761011b565b80638f28397014610500578063984d625214610526578063b522ecff146105f8578063bc197c811461061e5761011b565b806365194ce7116100ee57806365194ce7146103485780636e9960c3146104a657806377f1c3ac146104ca5780638a04af6a146104d25761011b565b80631187fd3c1461012057806325cb5bc014610300578063495906571461031a57806358bc294414610322575b600080fd5b6102fe600480360361012081101561013757600080fd5b6001600160a01b038235811692602081013582169260408201359092169181019060808101606082013564010000000081111561017357600080fd5b82018360208201111561018557600080fd5b803590602001918460208302840111640100000000831117156101a757600080fd5b919390928235926040810190602001356401000000008111156101c957600080fd5b8201836020820111156101db57600080fd5b803590602001918460208302840111640100000000831117156101fd57600080fd5b91939092909160208101903564010000000081111561021b57600080fd5b82018360208201111561022d57600080fd5b8035906020019184602083028401116401000000008311171561024f57600080fd5b91939092909160208101903564010000000081111561026d57600080fd5b82018360208201111561027f57600080fd5b803590602001918460018302840111640100000000831117156102a157600080fd5b9193909290916020810190356401000000008111156102bf57600080fd5b8201836020820111156102d157600080fd5b803590602001918460018302840111640100000000831117156102f357600080fd5b509092509050610937565b005b610308610b17565b60408051918252519081900360200190f35b610308610b3b565b6102fe6004803603602081101561033857600080fd5b50356001600160a01b0316610b5f565b6103ee6004803603602081101561035e57600080fd5b81019060208101813564010000000081111561037957600080fd5b82018360208201111561038b57600080fd5b803590602001918460018302840111640100000000831117156103ad57600080fd5b91908080601f016020809104026020016040519081016040528093929190818152602001838380828437600092019190915250929550610c0a945050505050565b6040518080602001866001600160a01b03166001600160a01b03168152602001856001600160a01b03166001600160a01b03168152602001848152602001838152602001828103825287818151815260200191508051906020019080838360005b8381101561046757818101518382015260200161044f565b50505050905090810190601f1680156104945780820380516001836020036101000a031916815260200191505b50965050505050505060405180910390f35b6104ae610d0f565b604080516001600160a01b039092168252519081900360200190f35b610308610d1e565b6102fe600480360360408110156104e857600080fd5b506001600160a01b0381351690602001351515610d24565b6102fe6004803603602081101561051657600080fd5b50356001600160a01b0316610d7b565b6102fe6004803603606081101561053c57600080fd5b6001600160a01b03823516919081019060408101602082013564010000000081111561056757600080fd5b82018360208201111561057957600080fd5b8035906020019184602083028401116401000000008311171561059b57600080fd5b9193909290916020810190356401000000008111156105b957600080fd5b8201836020820111156105cb57600080fd5b803590602001918460208302840111640100000000831117156105ed57600080fd5b509092509050610e51565b6102fe6004803603602081101561060e57600080fd5b50356001600160a01b0316610fdc565b61074b600480360360a081101561063457600080fd5b6001600160a01b03823581169260208101359091169181019060608101604082013564010000000081111561066857600080fd5b82018360208201111561067a57600080fd5b8035906020019184602083028401116401000000008311171561069c57600080fd5b9193909290916020810190356401000000008111156106ba57600080fd5b8201836020820111156106cc57600080fd5b803590602001918460208302840111640100000000831117156106ee57600080fd5b91939092909160208101903564010000000081111561070c57600080fd5b82018360208201111561071e57600080fd5b8035906020019184600183028401116401000000008311171561074057600080fd5b5090925090506110c5565b604080517fffffffff000000000000000000000000000000000000000000000000000000009092168252519081900360200190f35b610843600480360360a081101561079657600080fd5b8101906020810181356401000000008111156107b157600080fd5b8201836020820111156107c357600080fd5b803590602001918460018302840111640100000000831117156107e557600080fd5b91908080601f016020809104026020016040519081016040528093929190818152602001838380828437600092019190915250929550506001600160a01b0383358116945060208401351692604081013592506060013590506110f2565b604080519115158252519081900360200190f35b6104ae61122e565b6108436004803603602081101561087557600080fd5b50356001600160a01b031661123d565b6102fe6004803603602081101561089b57600080fd5b503561125b565b61074b600480360360a08110156108b857600080fd5b6001600160a01b03823581169260208101359091169160408201359160608101359181019060a0810160808201356401000000008111156108f857600080fd5b82018360208201111561090a57600080fd5b8035906020019184600183028401116401000000008311171561092c57600080fd5b5090925090506112bf565b6109418e8d6112ea565b610a388d8d8d8d80806020026020016040519081016040528093929190818152602001838360200280828437600081840152601f19601f820116905080830192505050505050508c8c8c80806020026020016040519081016040528093929190818152602001838360200280828437600081840152601f19601f820116905080830192505050505050508b8b8080602002602001604051908101604052809392919081815260200183836020028082843760009201919091525050604080516020601f8d018190048102820181019092528b815292508b91508a908190840183828082843760009201919091525061144d92505050565b610a8c8e8c8c6003818110610a4957fe5b9050602002013586868080601f0160208091040260200160405190810160405280939291908181526020018383808284376000920191909152506117d092505050565b610aca8e8e8d8d8080602002602001604051908101604052809392919081815260200183836020028082843760009201919091525061182192505050565b610b078d898980806020026020016040519081016040528093929190818152602001838360200280828437600092019190915250611c1292505050565b5050505050505050505050505050565b7f000000000000000000000000000000000000000000000000000000000000000090565b7f000000000000000000000000000000000000000000000000000000000000000090565b6000546001600160a01b03163314610bbe576040805162461bcd60e51b815260206004820152601060248201527f53656e646572206e6f742061646d696e00000000000000000000000000000000604482015290519081900360640190fd5b600554600280546001600160a01b03908116600090815260046020526040902042909301909255805473ffffffffffffffffffffffffffffffffffffffff191692909116919091179055565b606060008060008060606000806000808a80602001905160a0811015610c2f57600080fd5b8101908080516040519392919084640100000000821115610c4f57600080fd5b908301906020820185811115610c6457600080fd5b8251640100000000811182820188101715610c7e57600080fd5b82525081516020918201929091019080838360005b83811015610cab578181015183820152602001610c93565b50505050905090810190601f168015610cd85780820380516001836020036101000a031916815260200191505b5060409081526020820151908201516060830151608090930151959f50909d509b5099509197505050505050505091939590929450565b6000546001600160a01b031690565b60035490565b6000546001600160a01b03163314610d6d5760405162461bcd60e51b815260040180806020018281038252602e8152602001806125a3602e913960400191505060405180910390fd5b610d778282611dd6565b5050565b6000546001600160a01b03163314610dda576040805162461bcd60e51b815260206004820152601b60248201527f6f6e6c792061646d696e2063616e206368616e67652061646d696e0000000000604482015290519081900360640190fd5b600054604080516001600160a01b039283168152918316602083015280517f7e644d79422f17c01e4894b5f4f588d331ebfa28653d42ae832dc59e38c9798f9281900390910190a16000805473ffffffffffffffffffffffffffffffffffffffff19166001600160a01b0392909216919091179055565b6000546001600160a01b03163314610eb0576040805162461bcd60e51b815260206004820152600e60248201527f4e4f545f415554484f52495a4544000000000000000000000000000000000000604482015290519081900360640190fd5b7f00000000000000000000000000000000000000000000000000000000000000006001600160a01b0316632eb2c2d63087878787876040518763ffffffff1660e01b815260040180876001600160a01b03166001600160a01b03168152602001866001600160a01b03166001600160a01b031681526020018060200180602001806020018481038452888882818152602001925060200280828437600083820152601f01601f19169091018581038452868152602090810191508790870280828437600081840152601f19601f8201169050808301925050508481038252600081526020016020019950505050505050505050600060405180830381600087803b158015610fbd57600080fd5b505af1158015610fd1573d6000803e3d6000fd5b505050505050505050565b6001600160a01b038116611037576040805162461bcd60e51b815260206004820152600c60248201527f5a45524f5f414444524553530000000000000000000000000000000000000000604482015290519081900360640190fd5b6000546001600160a01b03163314611096576040805162461bcd60e51b815260206004820152600e60248201527f4e4f545f415554484f52495a4544000000000000000000000000000000000000604482015290519081900360640190fd5b6006805473ffffffffffffffffffffffffffffffffffffffff19166001600160a01b0392909216919091179055565b7fbc197c810000000000000000000000000000000000000000000000000000000098975050505050505050565b60006003548211806111155750836001600160a01b0316856001600160a01b0316145b8061111f57508242115b1561112c57506000611225565b60408051606087811b7fffffffffffffffffffffffffffffffffffffffff0000000000000000000000009081166020808501919091529188901b166034830152604882018690526068808301869052835180840390910181526088830184528051908201207f19457468657265756d205369676e6564204d6573736167653a0a33320000000060a884015260c48084018290528451808503909101815260e490930190935281519101206000906111e39089611e58565b6001600160a01b038116600090815260046020526040902054909150421161121057600192505050611225565b6002546001600160a01b039081169116149150505b95945050505050565b6002546001600160a01b031690565b6001600160a01b031660009081526001602052604090205460ff1690565b6000546001600160a01b031633146112ba576040805162461bcd60e51b815260206004820152601060248201527f53656e646572206e6f742061646d696e00000000000000000000000000000000604482015290519081900360640190fd5b600355565b7ff23a6e61000000000000000000000000000000000000000000000000000000009695505050505050565b7f0000000000000000000000000000000000000000000000000000000000000000421061135e576040805162461bcd60e51b815260206004820152600c60248201527f53414c455f49535f4f5645520000000000000000000000000000000000000000604482015290519081900360640190fd5b6001600160a01b03821633148061138457503360009081526001602052604090205460ff165b6113d5576040805162461bcd60e51b815260206004820152600e60248201527f4e4f545f415554484f52495a4544000000000000000000000000000000000000604482015290519081900360640190fd5b6001600160a01b03811615806113fc5750816001600160a01b0316816001600160a01b0316145b610d77576040805162461bcd60e51b815260206004820152600d60248201527f52455345525645445f4c414e4400000000000000000000000000000000000000604482015290519081900360640190fd5b600087878760008151811061145e57fe5b60200260200101518860018151811061147357fe5b60200260200101518960028151811061148857fe5b60200260200101518a60038151811061149d57fe5b60200260200101518a8a60405160200180828051906020019060200280838360005b838110156114d75781810151838201526020016114bf565b50505050905001915050604051602081830303815290604052805190602001208a60405160200180828051906020019060200280838360005b83811015611528578181015183820152602001611510565b5050505090500191505060405160208183030381529060405280519060200120604051602001808a6001600160a01b03166001600160a01b031660601b8152601401896001600160a01b03166001600160a01b031660601b81526014018881526020018781526020018681526020018581526020018481526020018381526020018281526020019950505050505050505050604051602081830303815290604052805190602001209050600760009054906101000a90046001600160a01b03166001600160a01b031663012847ed83836040518363ffffffff1660e01b81526004018080602001838152602001828103825284818151815260200191508051906020019080838360005b8381101561164a578181015183820152602001611632565b50505050905090810190601f1680156116775780820380516001836020036101000a031916815260200191505b50935050505060206040518083038186803b15801561169557600080fd5b505afa1580156116a9573d6000803e3d6000fd5b505050506040513d60208110156116bf57600080fd5b5051611712576040805162461bcd60e51b815260206004820152600c60248201527f494e56414c49445f415554480000000000000000000000000000000000000000604482015290519081900360640190fd5b60006117738760008151811061172457fe5b60200260200101518860018151811061173957fe5b60200260200101518960028151811061174e57fe5b60200260200101518a60038151811061176357fe5b60200260200101518c8b8b611f25565b905061177f8482611fca565b610fd1576040805162461bcd60e51b815260206004820152600c60248201527f494e56414c49445f4c414e440000000000000000000000000000000000000000604482015290519081900360640190fd5b60006117dc8484612095565b60065490915061181b908590839085906001600160a01b03167f00000000000000000000000000000000000000000000000000000000000000006121ee565b50505050565b8060028151811061182e57fe5b60200260200101516001148061186b57507f00000000000000000000000000000000000000000000000000000000000000006001600160a01b0316155b1561196d577f00000000000000000000000000000000000000000000000000000000000000006001600160a01b0316636e1e3bbf83836002815181106118ad57fe5b6020026020010151846000815181106118c257fe5b6020026020010151856001815181106118d757fe5b60200260200101516040518563ffffffff1660e01b815260040180856001600160a01b03166001600160a01b031681526020018481526020018381526020018281526020018060200182810382526000815260200160200195505050505050600060405180830381600087803b15801561195057600080fd5b505af1158015611964573d6000803e3d6000fd5b50505050611b0d565b7f00000000000000000000000000000000000000000000000000000000000000006001600160a01b0316636e1e3bbf7f0000000000000000000000000000000000000000000000000000000000000000836002815181106119ca57fe5b6020026020010151846000815181106119df57fe5b6020026020010151856001815181106119f457fe5b60200260200101518760405160200180826001600160a01b03166001600160a01b031681526020019150506040516020818303038152906040526040518663ffffffff1660e01b815260040180866001600160a01b03166001600160a01b0316815260200185815260200184815260200183815260200180602001828103825283818151815260200191508051906020019080838360005b83811015611aa4578181015183820152602001611a8c565b50505050905090810190601f168015611ad15780820380516001836020036101000a031916815260200191505b509650505050505050600060405180830381600087803b158015611af457600080fd5b505af1158015611b08573d6000803e3d6000fd5b505050505b61019881600181518110611b1d57fe5b60200260200101510281600081518110611b3357fe5b602002602001015101826001600160a01b0316846001600160a01b03167fe4dfa6ac11314892f3029b34a25b1a887da3b1cab2bbf8506d87128ba6e3ac0284600281518110611b7e57fe5b602002602001015185600381518110611b9357fe5b60200260200101517f000000000000000000000000000000000000000000000000000000000000000087600381518110611bc957fe5b602002602001015160405180858152602001848152602001836001600160a01b03166001600160a01b0316815260200182815260200194505050505060405180910390a4505050565b6060815167ffffffffffffffff81118015611c2c57600080fd5b50604051908082528060200260200182016040528015611c56578160200160208202803683370190505b50905060005b8251811015611c86576001828281518110611c7357fe5b6020908102919091010152600101611c5c565b507f00000000000000000000000000000000000000000000000000000000000000006001600160a01b0316632eb2c2d6308585856040518563ffffffff1660e01b815260040180856001600160a01b03166001600160a01b03168152602001846001600160a01b03166001600160a01b03168152602001806020018060200180602001848103845286818151815260200191508051906020019060200280838360005b83811015611d41578181015183820152602001611d29565b50505050905001848103835285818151815260200191508051906020019060200280838360005b83811015611d80578181015183820152602001611d68565b50505050905001848103825260008152602001602001975050505050505050600060405180830381600087803b158015611db957600080fd5b505af1158015611dcd573d6000803e3d6000fd5b50505050505050565b6001600160a01b03821660008181526001602090815260409182902080547fffffffffffffffffffffffffffffffffffffffffffffffffffffffffffffff001685151590811790915582519384529083015280517fb21eb88b4e33b3f1281830a7178d74d8aa73220416215726b68ae23d539515cb9281900390910190a15050565b60008151604114611e6857600080fd5b60208201516040830151606084015160001a601b811015611e8757601b015b8060ff16601b1480611e9c57508060ff16601c145b611ea557600080fd5b6040805160008152602080820180845289905260ff8416828401526060820186905260808201859052915160019260a0808401939192601f1981019281900390910190855afa158015611efc573d6000803e3d6000fd5b5050604051601f1901519450506001600160a01b038416611f1c57600080fd5b50505092915050565b60008787878787878760405160200180888152602001878152602001868152602001858152602001846001600160a01b03166001600160a01b031660601b8152601401838152602001828051906020019060200280838360005b83811015611f97578181015183820152602001611f7f565b50505050905001975050505050505050604051602081830303815290604052805190602001209050979650505050505050565b600081815b8451811015612069576000858281518110611fe657fe5b602002602001015190508083101561202e5782816040516020018083815260200182815260200192505050604051602081830303815290604052805190602001209250612060565b808360405160200180838152602001828152602001925050506040516020818303038152906040528051906020012092505b50600101611fcf565b507f00000000000000000000000000000000000000000000000000000000000000001490505b92915050565b6000806120ba60646120ae85600563ffffffff61247016565b9063ffffffff6124e016565b604080516323b872dd60e01b81526001600160a01b0387811660048301527f0000000000000000000000000000000000000000000000000000000000000000811660248301526044820184905291519293507f0000000000000000000000000000000000000000000000000000000000000000909116916323b872dd916064808201926020929091908290030181600087803b15801561215957600080fd5b505af115801561216d573d6000803e3d6000fd5b505050506040513d602081101561218357600080fd5b50516121d6576040805162461bcd60e51b815260206004820152601360248201527f4645455f5452414e534645525f4641494c454400000000000000000000000000604482015290519081900360640190fd5b6121e6838263ffffffff61254516565b949350505050565b8251819085901561239857606060008060008061220a8a610c0a565b939850919650945092509050600061222586868686866110f2565b156122b35761223f6122378d84612470565b6127106124e0565b9050886001600160a01b0316846001600160a01b0316866001600160a01b03167fac7a699eb95c3c6d390ec4626de17ef9a67b35891efdb197beba7c7fdd45fac48f858760405180848152602001838152602001828152602001935050505060405180910390a46122b08782612545565b96505b801561239157604080516323b872dd60e01b81526001600160a01b038f811660048301528781166024830152604482018490529151918a16916323b872dd916064808201926020929091908290030181600087803b15801561231457600080fd5b505af1158015612328573d6000803e3d6000fd5b505050506040513d602081101561233e57600080fd5b5051612391576040805162461bcd60e51b815260206004820152601960248201527f636f6d6d6973696f6e207472616e73666572206661696c656400000000000000604482015290519081900360640190fd5b5050505050505b604080516323b872dd60e01b81526001600160a01b0389811660048301528681166024830152604482018490529151918416916323b872dd916064808201926020929091908290030181600087803b1580156123f357600080fd5b505af1158015612407573d6000803e3d6000fd5b505050506040513d602081101561241d57600080fd5b5051611dcd576040805162461bcd60e51b815260206004820152601760248201527f7061796d656e74207472616e73666572206661696c6564000000000000000000604482015290519081900360640190fd5b60008261247f5750600061208f565b508181028183828161248d57fe5b041461208f576040805162461bcd60e51b815260206004820152600860248201527f6f766572666c6f77000000000000000000000000000000000000000000000000604482015290519081900360640190fd5b600081612534576040805162461bcd60e51b815260206004820152600960248201527f64697662797a65726f0000000000000000000000000000000000000000000000604482015290519081900360640190fd5b81838161253d57fe5b049392505050565b60008282111561259c576040805162461bcd60e51b815260206004820152600860248201527f756e6465666c6f77000000000000000000000000000000000000000000000000604482015290519081900360640190fd5b5090039056fe6f6e6c792061646d696e2063616e207365747570206d6574615472616e73616374696f6e50726f636573736f7273a2646970667358221220fc9205bafc138c1de206481f144dc3e7818922fbe1a20d2a71392e5e2e413c1a64736f6c63430006050033",
  "devdoc": {
    "methods": {
      "buyLandWithSand(address,address,address,uint256[],bytes32,uint256[],bytes32[],bytes,bytes)": {
        "params": {
          "buyer": "address that perform the payment",
          "info": "[X_INDEX=0] x coordinate of the Land [Y_INDEX=1] y coordinate of the Land [SIZE_INDEX=2] size of the pack of Land to purchase [PRICE_INDEX=3] price in SAND to purchase that Land",
          "proof": "merkleProof for that particular Land",
          "reserved": "the reserved address (if any)",
          "to": "address that will own the purchased Land"
        }
      },
      "changeAdmin(address)": {
        "details": "change the administrator to be `newAdmin`.",
        "params": {
          "newAdmin": "address of the new administrator."
        }
      },
      "getAdmin()": {
        "details": "gives the current administrator of this contract.",
        "returns": {
          "_0": "the current administrator of this contract."
        }
      },
      "getSigningWallet()": {
        "details": "signing wallet authorized for referral",
        "returns": {
          "_0": "the address of the signing wallet"
        }
      },
      "isMetaTransactionProcessor(address)": {
        "details": "check whether address `who` is given meta-transaction execution rights.",
        "params": {
          "who": "The address to query."
        },
        "returns": {
          "_0": "whether the address has meta-transaction execution rights."
        }
      },
      "isReferralValid(bytes,address,address,uint256,uint256)": {
        "params": {
          "commissionRate": "The commissionRate of the referral",
          "expiryTime": "The expiry time of the referral",
          "referee": "The address of the referee",
          "referrer": "The address of the referrer",
          "signature": "The signature to check (signed referral)"
        },
        "returns": {
          "_0": "True if the referral is valid"
        }
      },
      "setMetaTransactionProcessor(address,bool)": {
        "details": "Enable or disable the ability of `metaTransactionProcessor` to perform meta-tx (metaTransactionProcessor rights).",
        "params": {
          "enabled": "set whether the metaTransactionProcessor is enabled or disabled.",
          "metaTransactionProcessor": "address that will be given/removed metaTransactionProcessor rights."
        }
      },
      "setReceivingWallet(address)": {
        "params": {
          "newWallet": "address of the new receiving wallet"
        }
      },
      "updateMaxCommissionRate(uint256)": {
        "details": "Update the maximum commission rate",
        "params": {
          "newMaxCommissionRate": "The new maximum commission rate"
        }
      },
      "updateSigningWallet(address)": {
        "details": "Update the signing wallet",
        "params": {
          "newSigningWallet": "The new address of the signing wallet"
        }
      },
      "withdrawAssets(address,uint256[],uint256[])": {
        "params": {
          "assetIds": "the assetIds to be transferred",
          "to": "intended recipient of the asset tokens",
          "values": "the quantities of the assetIds to be transferred"
        }
      }
    },
    "title": "Estate Sale contract with referral"
  },
  "userdoc": {
    "methods": {
      "buyLandWithSand(address,address,address,uint256[],bytes32,uint256[],bytes32[],bytes,bytes)": {
        "notice": "buy Land with SAND using the merkle proof associated with it"
      },
      "getExpiryTime()": {
        "notice": "Gets the expiry time for the current sale"
      },
      "getMaxCommisionRate()": {
        "notice": "the max commision rate"
      },
      "getMerkleRoot()": {
        "notice": "Gets the Merkle root associated with the current sale"
      },
      "isReferralValid(bytes,address,address,uint256,uint256)": {
        "notice": "Check if a referral is valid"
      },
      "setReceivingWallet(address)": {
        "notice": "set the wallet receiving the proceeds"
      },
      "withdrawAssets(address,uint256[],uint256[])": {
        "notice": "enable Admin to withdraw remaining assets from EstateSaleWithFee contract"
      }
    },
    "notice": "This contract manages the sale of our lands as Estates"
  },
  "storageLayout": {
    "storage": [
      {
        "astId": 13650,
        "contract": "src/solc_0.6/EstateSale/EstateSaleWithAuth.sol:EstateSaleWithAuth",
        "label": "_admin",
        "offset": 0,
        "slot": "0",
        "type": "t_address"
      },
      {
        "astId": 13712,
        "contract": "src/solc_0.6/EstateSale/EstateSaleWithAuth.sol:EstateSaleWithAuth",
        "label": "_metaTransactionContracts",
        "offset": 0,
        "slot": "1",
        "type": "t_mapping(t_address,t_bool)"
      },
      {
        "astId": 11828,
        "contract": "src/solc_0.6/EstateSale/EstateSaleWithAuth.sol:EstateSaleWithAuth",
        "label": "_signingWallet",
        "offset": 0,
        "slot": "2",
        "type": "t_address"
      },
      {
        "astId": 11830,
        "contract": "src/solc_0.6/EstateSale/EstateSaleWithAuth.sol:EstateSaleWithAuth",
        "label": "_maxCommissionRate",
        "offset": 0,
        "slot": "3",
        "type": "t_uint256"
      },
      {
        "astId": 11834,
        "contract": "src/solc_0.6/EstateSale/EstateSaleWithAuth.sol:EstateSaleWithAuth",
        "label": "_previousSigningWallets",
        "offset": 0,
        "slot": "4",
        "type": "t_mapping(t_address,t_uint256)"
      },
      {
        "astId": 11843,
        "contract": "src/solc_0.6/EstateSale/EstateSaleWithAuth.sol:EstateSaleWithAuth",
        "label": "_previousSigningDelay",
        "offset": 0,
        "slot": "5",
        "type": "t_uint256"
      },
      {
        "astId": 7453,
        "contract": "src/solc_0.6/EstateSale/EstateSaleWithAuth.sol:EstateSaleWithAuth",
        "label": "_wallet",
        "offset": 0,
        "slot": "6",
        "type": "t_address_payable"
      },
      {
        "astId": 7455,
        "contract": "src/solc_0.6/EstateSale/EstateSaleWithAuth.sol:EstateSaleWithAuth",
        "label": "_authValidator",
        "offset": 0,
        "slot": "7",
        "type": "t_contract(AuthValidator)6784"
      }
    ],
    "types": {
      "t_address": {
        "encoding": "inplace",
        "label": "address",
        "numberOfBytes": "20"
      },
      "t_address_payable": {
        "encoding": "inplace",
        "label": "address payable",
        "numberOfBytes": "20"
      },
      "t_bool": {
        "encoding": "inplace",
        "label": "bool",
        "numberOfBytes": "1"
      },
      "t_contract(AuthValidator)6784": {
        "encoding": "inplace",
        "label": "contract AuthValidator",
        "numberOfBytes": "20"
      },
      "t_mapping(t_address,t_bool)": {
        "encoding": "mapping",
        "key": "t_address",
        "label": "mapping(address => bool)",
        "numberOfBytes": "32",
        "value": "t_bool"
      },
      "t_mapping(t_address,t_uint256)": {
        "encoding": "mapping",
        "key": "t_address",
        "label": "mapping(address => uint256)",
        "numberOfBytes": "32",
        "value": "t_uint256"
      },
      "t_uint256": {
        "encoding": "inplace",
        "label": "uint256",
        "numberOfBytes": "32"
      }
    }
  }
}