{
  "address": "0x3870096f2b0BcD849161e18aeF187D714513E828",
  "abi": [
    {
      "inputs": [
        {
          "internalType": "address",
          "name": "landAddress",
          "type": "address"
        },
        {
          "internalType": "address",
          "name": "sandContractAddress",
          "type": "address"
        },
        {
          "internalType": "address",
          "name": "initialMetaTx",
          "type": "address"
        },
        {
          "internalType": "address",
          "name": "admin",
          "type": "address"
        },
        {
          "internalType": "address payable",
          "name": "initialWalletAddress",
          "type": "address"
        },
        {
          "internalType": "bytes32",
          "name": "merkleRoot",
          "type": "bytes32"
        },
        {
          "internalType": "uint256",
          "name": "expiryTime",
          "type": "uint256"
        },
        {
          "internalType": "address",
          "name": "initialSigningWallet",
          "type": "address"
        },
        {
          "internalType": "uint256",
          "name": "initialMaxCommissionRate",
          "type": "uint256"
        },
        {
          "internalType": "address",
          "name": "estate",
          "type": "address"
        },
        {
          "internalType": "address",
          "name": "asset",
          "type": "address"
        },
        {
          "internalType": "address",
          "name": "feeDistributor",
          "type": "address"
        },
        {
          "internalType": "address",
          "name": "authValidator",
          "type": "address"
        }
      ],
      "stateMutability": "nonpayable",
      "type": "constructor"
    },
    {
      "anonymous": false,
      "inputs": [
        {
          "indexed": false,
          "internalType": "address",
          "name": "oldAdmin",
          "type": "address"
        },
        {
          "indexed": false,
          "internalType": "address",
          "name": "newAdmin",
          "type": "address"
        }
      ],
      "name": "AdminChanged",
      "type": "event"
    },
    {
      "anonymous": false,
      "inputs": [
        {
          "indexed": true,
          "internalType": "address",
          "name": "buyer",
          "type": "address"
        },
        {
          "indexed": true,
          "internalType": "address",
          "name": "to",
          "type": "address"
        },
        {
          "indexed": true,
          "internalType": "uint256",
          "name": "topCornerId",
          "type": "uint256"
        },
        {
          "indexed": false,
          "internalType": "uint256",
          "name": "size",
          "type": "uint256"
        },
        {
          "indexed": false,
          "internalType": "uint256",
          "name": "price",
          "type": "uint256"
        },
        {
          "indexed": false,
          "internalType": "address",
          "name": "token",
          "type": "address"
        },
        {
          "indexed": false,
          "internalType": "uint256",
          "name": "amountPaid",
          "type": "uint256"
        }
      ],
      "name": "LandQuadPurchased",
      "type": "event"
    },
    {
      "anonymous": false,
      "inputs": [
        {
          "indexed": false,
          "internalType": "address",
          "name": "metaTransactionProcessor",
          "type": "address"
        },
        {
          "indexed": false,
          "internalType": "bool",
          "name": "enabled",
          "type": "bool"
        }
      ],
      "name": "MetaTransactionProcessor",
      "type": "event"
    },
    {
      "anonymous": false,
      "inputs": [
        {
          "indexed": true,
          "internalType": "address",
          "name": "referrer",
          "type": "address"
        },
        {
          "indexed": true,
          "internalType": "address",
          "name": "referee",
          "type": "address"
        },
        {
          "indexed": true,
          "internalType": "address",
          "name": "token",
          "type": "address"
        },
        {
          "indexed": false,
          "internalType": "uint256",
          "name": "amount",
          "type": "uint256"
        },
        {
          "indexed": false,
          "internalType": "uint256",
          "name": "commission",
          "type": "uint256"
        },
        {
          "indexed": false,
          "internalType": "uint256",
          "name": "commissionRate",
          "type": "uint256"
        }
      ],
      "name": "ReferralUsed",
      "type": "event"
    },
    {
      "inputs": [
        {
          "internalType": "address",
          "name": "buyer",
          "type": "address"
        },
        {
          "internalType": "address",
          "name": "to",
          "type": "address"
        },
        {
          "internalType": "address",
          "name": "reserved",
          "type": "address"
        },
        {
          "internalType": "uint256[]",
          "name": "info",
          "type": "uint256[]"
        },
        {
          "internalType": "bytes32",
          "name": "salt",
          "type": "bytes32"
        },
        {
          "internalType": "uint256[]",
          "name": "assetIds",
          "type": "uint256[]"
        },
        {
          "internalType": "bytes32[]",
          "name": "proof",
          "type": "bytes32[]"
        },
        {
          "internalType": "bytes",
          "name": "referral",
          "type": "bytes"
        },
        {
          "internalType": "bytes",
          "name": "signature",
          "type": "bytes"
        }
      ],
      "name": "buyLandWithSand",
      "outputs": [],
      "stateMutability": "nonpayable",
      "type": "function"
    },
    {
      "inputs": [
        {
          "internalType": "address",
          "name": "newAdmin",
          "type": "address"
        }
      ],
      "name": "changeAdmin",
      "outputs": [],
      "stateMutability": "nonpayable",
      "type": "function"
    },
    {
      "inputs": [
        {
          "internalType": "bytes",
          "name": "referral",
          "type": "bytes"
        }
      ],
      "name": "decodeReferral",
      "outputs": [
        {
          "internalType": "bytes",
          "name": "",
          "type": "bytes"
        },
        {
          "internalType": "address",
          "name": "",
          "type": "address"
        },
        {
          "internalType": "address",
          "name": "",
          "type": "address"
        },
        {
          "internalType": "uint256",
          "name": "",
          "type": "uint256"
        },
        {
          "internalType": "uint256",
          "name": "",
          "type": "uint256"
        }
      ],
      "stateMutability": "pure",
      "type": "function"
    },
    {
      "inputs": [],
      "name": "getAdmin",
      "outputs": [
        {
          "internalType": "address",
          "name": "",
          "type": "address"
        }
      ],
      "stateMutability": "view",
      "type": "function"
    },
    {
      "inputs": [],
      "name": "getExpiryTime",
      "outputs": [
        {
          "internalType": "uint256",
          "name": "",
          "type": "uint256"
        }
      ],
      "stateMutability": "view",
      "type": "function"
    },
    {
      "inputs": [],
      "name": "getMaxCommisionRate",
      "outputs": [
        {
          "internalType": "uint256",
          "name": "",
          "type": "uint256"
        }
      ],
      "stateMutability": "view",
      "type": "function"
    },
    {
      "inputs": [],
      "name": "getMerkleRoot",
      "outputs": [
        {
          "internalType": "bytes32",
          "name": "",
          "type": "bytes32"
        }
      ],
      "stateMutability": "view",
      "type": "function"
    },
    {
      "inputs": [],
      "name": "getSigningWallet",
      "outputs": [
        {
          "internalType": "address",
          "name": "",
          "type": "address"
        }
      ],
      "stateMutability": "view",
      "type": "function"
    },
    {
      "inputs": [
        {
          "internalType": "address",
          "name": "who",
          "type": "address"
        }
      ],
      "name": "isMetaTransactionProcessor",
      "outputs": [
        {
          "internalType": "bool",
          "name": "",
          "type": "bool"
        }
      ],
      "stateMutability": "view",
      "type": "function"
    },
    {
      "inputs": [
        {
          "internalType": "bytes",
          "name": "signature",
          "type": "bytes"
        },
        {
          "internalType": "address",
          "name": "referrer",
          "type": "address"
        },
        {
          "internalType": "address",
          "name": "referee",
          "type": "address"
        },
        {
          "internalType": "uint256",
          "name": "expiryTime",
          "type": "uint256"
        },
        {
          "internalType": "uint256",
          "name": "commissionRate",
          "type": "uint256"
        }
      ],
      "name": "isReferralValid",
      "outputs": [
        {
          "internalType": "bool",
          "name": "",
          "type": "bool"
        }
      ],
      "stateMutability": "view",
      "type": "function"
    },
    {
      "inputs": [
        {
          "internalType": "address",
          "name": "",
          "type": "address"
        },
        {
          "internalType": "address",
          "name": "",
          "type": "address"
        },
        {
          "internalType": "uint256[]",
          "name": "",
          "type": "uint256[]"
        },
        {
          "internalType": "uint256[]",
          "name": "",
          "type": "uint256[]"
        },
        {
          "internalType": "bytes",
          "name": "",
          "type": "bytes"
        }
      ],
      "name": "onERC1155BatchReceived",
      "outputs": [
        {
          "internalType": "bytes4",
          "name": "",
          "type": "bytes4"
        }
      ],
      "stateMutability": "pure",
      "type": "function"
    },
    {
      "inputs": [
        {
          "internalType": "address",
          "name": "",
          "type": "address"
        },
        {
          "internalType": "address",
          "name": "",
          "type": "address"
        },
        {
          "internalType": "uint256",
          "name": "",
          "type": "uint256"
        },
        {
          "internalType": "uint256",
          "name": "",
          "type": "uint256"
        },
        {
          "internalType": "bytes",
          "name": "",
          "type": "bytes"
        }
      ],
      "name": "onERC1155Received",
      "outputs": [
        {
          "internalType": "bytes4",
          "name": "",
          "type": "bytes4"
        }
      ],
      "stateMutability": "pure",
      "type": "function"
    },
    {
      "inputs": [
        {
          "internalType": "address",
          "name": "metaTransactionProcessor",
          "type": "address"
        },
        {
          "internalType": "bool",
          "name": "enabled",
          "type": "bool"
        }
      ],
      "name": "setMetaTransactionProcessor",
      "outputs": [],
      "stateMutability": "nonpayable",
      "type": "function"
    },
    {
      "inputs": [
        {
          "internalType": "address payable",
          "name": "newWallet",
          "type": "address"
        }
      ],
      "name": "setReceivingWallet",
      "outputs": [],
      "stateMutability": "nonpayable",
      "type": "function"
    },
    {
      "inputs": [
        {
          "internalType": "uint256",
          "name": "newMaxCommissionRate",
          "type": "uint256"
        }
      ],
      "name": "updateMaxCommissionRate",
      "outputs": [],
      "stateMutability": "nonpayable",
      "type": "function"
    },
    {
      "inputs": [
        {
          "internalType": "address",
          "name": "newSigningWallet",
          "type": "address"
        }
      ],
      "name": "updateSigningWallet",
      "outputs": [],
      "stateMutability": "nonpayable",
      "type": "function"
    },
    {
      "inputs": [
        {
          "internalType": "address",
          "name": "to",
          "type": "address"
        },
        {
          "internalType": "uint256[]",
          "name": "assetIds",
          "type": "uint256[]"
        },
        {
          "internalType": "uint256[]",
          "name": "values",
          "type": "uint256[]"
        }
      ],
      "name": "withdrawAssets",
      "outputs": [],
      "stateMutability": "nonpayable",
      "type": "function"
    }
  ],
  "transactionHash": "0x489115e7d0d575b80eed9d7c60794b64fd5304869ae7bbb8f78fefa7baebf809",
  "args": [
    "0xa4C4A09cA320AfBaE81659982dE88CC63466bB51",
    "0x32F3e11d8d9B9dc50e19D41c0ED868283824767B",
    "0x32F3e11d8d9B9dc50e19D41c0ED868283824767B",
    "0x39D01ecc951C2c1f20ba0549e62212659c4d1e06",
    "0xF22455c7F2a81E197AecD951F588a9B650f5b282",
    "0x0e247c08941cac516e7174ff35b020f896ef12cfbdee017043d8d5d82eac33ee",
    1683291600,
    "0xB7060D3FeCAC3AE1F0A0AA416E3e8E472257950e",
    2000,
    "0x0000000000000000000000000000000000000000",
    "0xf050cDB34C8f39d24eD12678Dc5Ab32BE8672AfE",
    "0x0977f5050c8158b277F93216f851e83a467ED9c9",
    "0xD3999edf36481d8f6636BB41fbdC936eA4BF5658"
  ],
  "numDeployments": 1,
  "linkedData": [
    {
      "x": 312,
      "y": 393,
      "size": 1,
      "price": "4683000000000000000000",
      "reserved": "",
      "salt": "0x8b2afbe237575099c7e598d781a32ff2b9bde0b547b1d87fa97c94723554d348",
      "assetIds": [
        "41506478881403507969696680653240014914910929820314476107906210059990541021185"
      ]
    },
    {
      "x": 312,
      "y": 394,
      "size": 1,
      "price": "4683000000000000000000",
      "reserved": "",
      "salt": "0xbf68d58e9dd9e8631fae6e4452cc49bc85a29038fbb9759ce62e9952cf1db086",
      "assetIds": [
        "41506478881403507969696680653240014914910929820314476107906210059990541021185"
      ]
    },
    {
      "x": 312,
      "y": 395,
      "size": 1,
      "price": "4683000000000000000000",
      "reserved": "",
      "salt": "0xa93a5a6b69509805c18cef2bfd777eed1537db2fb640151c394514ed8301fc75",
      "assetIds": [
        "41506478881403507969696680653240014914910929820314476107906210059990541021185"
      ]
    },
    {
      "x": 312,
      "y": 396,
      "size": 1,
      "price": "4683000000000000000000",
      "reserved": "",
      "salt": "0x03b8839506917b89fbafdc389f3e65e920b2926f63668a66bbbdd423648a0e70",
      "assetIds": [
        "41506478881403507969696680653240014914910929820314476107906210059990541021185"
      ]
    },
    {
      "x": 312,
      "y": 397,
      "size": 1,
      "price": "4683000000000000000000",
      "reserved": "",
      "salt": "0xeea0897f808d03cd3772d743fb1fdb34894aca68b9663611c6fd2c37a92f4aae",
      "assetIds": [
        "41506478881403507969696680653240014914910929820314476107906210059990541021185"
      ]
    },
    {
      "x": 312,
      "y": 398,
      "size": 1,
      "price": "4683000000000000000000",
      "reserved": "",
      "salt": "0xc4969eec96e8e08d4cf553b92f73a004e7fd34dad8ed2d50e2c303d7d860db79",
      "assetIds": [
        "41506478881403507969696680653240014914910929820314476107906210059990541021185"
      ]
    },
    {
      "x": 312,
      "y": 399,
      "size": 1,
      "price": "4683000000000000000000",
      "reserved": "",
      "salt": "0xda912781e8f341a2dff1fe0979dd52dd52ce58899c4843a46791a0bb4047e2a8",
      "assetIds": [
        "41506478881403507969696680653240014914910929820314476107906210059990541021185"
      ]
    },
    {
      "x": 312,
      "y": 400,
      "size": 1,
      "price": "4683000000000000000000",
      "reserved": "",
      "salt": "0x510da2b33275377f0b55ef61d36308b0230f076a978716d73a699a7621b81d18",
      "assetIds": [
        "41506478881403507969696680653240014914910929820314476107906210059990541021185"
      ]
    },
    {
      "x": 312,
      "y": 401,
      "size": 1,
      "price": "4683000000000000000000",
      "reserved": "",
      "salt": "0x3d7ea3e0bae5fffc0972aa9b5129654207db958113acf0735bfabecb71105c5b",
      "assetIds": [
        "41506478881403507969696680653240014914910929820314476107906210059990541021185"
      ]
    },
    {
      "x": 312,
      "y": 405,
      "size": 1,
      "price": "4683000000000000000000",
      "reserved": "",
      "salt": "0x9cea743f06c528f5a536569564f39c0f6bfba5505c50612f097eea7fde045fee",
      "assetIds": [
        "41506478881403507969696680653240014914910929820314476107906210059990541021185"
      ]
    },
    {
      "x": 312,
      "y": 406,
      "size": 1,
      "price": "4683000000000000000000",
      "reserved": "",
      "salt": "0x86eff2f2c4c066b03eca51805422c120046acb6e6257468643fc923f2ac81467",
      "assetIds": [
        "41506478881403507969696680653240014914910929820314476107906210059990541021185"
      ]
    },
    {
      "x": 312,
      "y": 407,
      "size": 1,
      "price": "4683000000000000000000",
      "reserved": "",
      "salt": "0xfdb116b22c9c3b38d9f04d002e4f53a4d7257bf4794064cd94ba6d6e12bf1f87",
      "assetIds": [
        "41506478881403507969696680653240014914910929820314476107906210059990541021185"
      ]
    },
    {
      "x": 313,
      "y": 393,
      "size": 1,
      "price": "4683000000000000000000",
      "reserved": "",
      "salt": "0x879cc50471c755a9660f3be177d43a814e9c8bf9fd48e9efeb356bf9866269b7",
      "assetIds": [
        "41506478881403507969696680653240014914910929820314476107906210059990541021185"
      ]
    },
    {
      "x": 313,
      "y": 394,
      "size": 1,
      "price": "4683000000000000000000",
      "reserved": "",
      "salt": "0x346b59236df76ef01a32d6dc3e5443472fb6f572fcda8d69ea920093892a0dce",
      "assetIds": [
        "41506478881403507969696680653240014914910929820314476107906210059990541021185"
      ]
    },
    {
      "x": 313,
      "y": 395,
      "size": 1,
      "price": "4683000000000000000000",
      "reserved": "",
      "salt": "0x4ddc6b60e48cdfa02809e5a5dfcdee3d32e362f22091022484275aa472e0ea35",
      "assetIds": [
        "41506478881403507969696680653240014914910929820314476107906210059990541021185"
      ]
    },
    {
      "x": 313,
      "y": 396,
      "size": 1,
      "price": "4683000000000000000000",
      "reserved": "",
      "salt": "0x190b050852de1d75fa40fdfa9e8ca22eab9e99bc9508d44516dd6a0cd9d41915",
      "assetIds": [
        "41506478881403507969696680653240014914910929820314476107906210059990541021185"
      ]
    },
    {
      "x": 313,
      "y": 397,
      "size": 1,
      "price": "4683000000000000000000",
      "reserved": "",
      "salt": "0x9c12c15fe2f1c1a8a41bd10c4e9340a7c1d42808a438a969c9ba893c95270fa5",
      "assetIds": [
        "41506478881403507969696680653240014914910929820314476107906210059990541021185"
      ]
    },
    {
      "x": 313,
      "y": 398,
      "size": 1,
      "price": "4683000000000000000000",
      "reserved": "",
      "salt": "0xc39e1b0f272395910a6e78cc1f1a59835c91b84b6b21aaa58cf148b3b4e98255",
      "assetIds": [
        "41506478881403507969696680653240014914910929820314476107906210059990541021185"
      ]
    },
    {
      "x": 313,
      "y": 399,
      "size": 1,
      "price": "4683000000000000000000",
      "reserved": "",
      "salt": "0x15f94232e25c4f18d79a79ded312f01166c4898d9c5f8c84114a997fd5eab198",
      "assetIds": [
        "41506478881403507969696680653240014914910929820314476107906210059990541021185"
      ]
    },
    {
      "x": 313,
      "y": 400,
      "size": 1,
      "price": "4683000000000000000000",
      "reserved": "",
      "salt": "0x393565aa45be7bb53461eb082077cdfe92e847b3ffd7106065234f43b700ae2f",
      "assetIds": [
        "41506478881403507969696680653240014914910929820314476107906210059990541021185"
      ]
    },
    {
      "x": 313,
      "y": 401,
      "size": 1,
      "price": "4683000000000000000000",
      "reserved": "",
      "salt": "0xf4534c69c2d9bc00a6d9f53f893ee86d475b235683c9ddd7a477a5d625ce18bc",
      "assetIds": [
        "41506478881403507969696680653240014914910929820314476107906210059990541021185"
      ]
    },
    {
      "x": 313,
      "y": 405,
      "size": 1,
      "price": "4683000000000000000000",
      "reserved": "",
      "salt": "0x12e641060a16c206ab07d09aa3e79426a091cb353613b96af078d06269fa543a",
      "assetIds": [
        "41506478881403507969696680653240014914910929820314476107906210059990541021185"
      ]
    },
    {
      "x": 313,
      "y": 406,
      "size": 1,
      "price": "4683000000000000000000",
      "reserved": "",
      "salt": "0xc782718b4437fe87480242e053cc2d381315d429735265609122715b15724e70",
      "assetIds": [
        "41506478881403507969696680653240014914910929820314476107906210059990541021185"
      ]
    },
    {
      "x": 313,
      "y": 407,
      "size": 1,
      "price": "4683000000000000000000",
      "reserved": "",
      "salt": "0x064fe495f8181d8e793afd73d8f46a61a9b4ddf9986e3f821e180f4fc7294564",
      "assetIds": [
        "41506478881403507969696680653240014914910929820314476107906210059990541021185"
      ]
    },
    {
      "x": 314,
      "y": 393,
      "size": 1,
      "price": "1011000000000000000000",
      "reserved": "",
      "salt": "0x7e2e004c48bf6ac9bf2aacbd010670378f233ea57079c022f4baa092392dd4fc",
      "assetIds": []
    },
    {
      "x": 314,
      "y": 394,
      "size": 1,
      "price": "1011000000000000000000",
      "reserved": "",
      "salt": "0x5de73b81ecf03457fd20d5d72680b2680b7f10a8a0b65ac70b3eb7b67442bb50",
      "assetIds": []
    },
    {
      "x": 314,
      "y": 395,
      "size": 1,
      "price": "1011000000000000000000",
      "reserved": "",
      "salt": "0xa77006028ba8bf93d55e56c001c7621b0e3120a1ecbd8cc93f1725f673117d92",
      "assetIds": []
    },
    {
      "x": 314,
      "y": 396,
      "size": 1,
      "price": "1011000000000000000000",
      "reserved": "",
      "salt": "0xca9c40a07fa125367f6789195eabb13d73b33286bff155621e15b54819c6bf70",
      "assetIds": []
    },
    {
      "x": 314,
      "y": 397,
      "size": 1,
      "price": "4683000000000000000000",
      "reserved": "",
      "salt": "0x4747546e4359c0bbc4908e3537dfde59b7a4bb9cf896d029b63c7e8292986755",
      "assetIds": [
        "41506478881403507969696680653240014914910929820314476107906210059990541021185"
      ]
    },
    {
      "x": 314,
      "y": 398,
      "size": 1,
      "price": "4683000000000000000000",
      "reserved": "",
      "salt": "0x663fae7d8d4bdeea1c5f3dc04b8a795fc03740377b747b021d8e0c7116b1cf05",
      "assetIds": [
        "41506478881403507969696680653240014914910929820314476107906210059990541021185"
      ]
    },
    {
      "x": 314,
      "y": 399,
      "size": 1,
      "price": "1011000000000000000000",
      "reserved": "0x7a9fe22691c811ea339d9b73150e6911a5343dca",
      "salt": "0x314ae518df8a4bcbf56d6620a07e30095cd0abb78143375c0350cdf576851e0c",
      "assetIds": []
    },
    {
      "x": 314,
      "y": 400,
      "size": 1,
      "price": "4683000000000000000000",
      "reserved": "",
      "salt": "0x8bfa86d7b7c8e200687d6f27cba384548211202d923b6345640778e856cba7f4",
      "assetIds": [
        "41506478881403507969696680653240014914910929820314476107906210059990541021185"
      ]
    },
    {
      "x": 314,
      "y": 401,
      "size": 1,
      "price": "1011000000000000000000",
      "reserved": "0x7a9fe22691c811ea339d9b73150e6911a5343dca",
      "salt": "0xb6b82dbd44d5cbe59e4af4e0932c8b1c3b4a0e6e5f2ad26700474378a280d0ac",
      "assetIds": []
    },
    {
      "x": 314,
      "y": 405,
      "size": 1,
      "price": "1011000000000000000000",
      "reserved": "0x7a9fe22691c811ea339d9b73150e6911a5343dca",
      "salt": "0xbad745ea1d472ff70f9b0228eb4389c2b4c6b54f45cfce7d48f17ca5196cf63b",
      "assetIds": []
    },
    {
      "x": 314,
      "y": 406,
      "size": 1,
      "price": "4683000000000000000000",
      "reserved": "",
      "salt": "0xa53b186243ef51bc1d986b7e0551814ce2fc83e7d9185b3de2187912dc1d4f58",
      "assetIds": [
        "41506478881403507969696680653240014914910929820314476107906210059990541021185"
      ]
    },
    {
      "x": 314,
      "y": 407,
      "size": 1,
      "price": "1011000000000000000000",
      "reserved": "0x7a9fe22691c811ea339d9b73150e6911a5343dca",
      "salt": "0x8faae4ae820ecb0f0afd2370c2ad06a3a848866b26c5f29eb23f83ba6cb30efb",
      "assetIds": []
    },
    {
      "x": 315,
      "y": 390,
      "size": 1,
      "price": "1011000000000000000000",
      "reserved": "",
      "salt": "0x08c6e50369bed6167738d51809fca0c4ec93491bfcca22a20516d89c58b9de91",
      "assetIds": []
    },
    {
      "x": 315,
      "y": 391,
      "size": 1,
      "price": "1011000000000000000000",
      "reserved": "",
      "salt": "0x440d7423f94712409eb9a0f0709dbfc963f7a909f82b2673e7a054ed3e9ce370",
      "assetIds": []
    },
    {
      "x": 315,
      "y": 392,
      "size": 1,
      "price": "1011000000000000000000",
      "reserved": "",
      "salt": "0xf1128114ba47689ee259d053210437d97be39accf584428db80f1e31b8569270",
      "assetIds": []
    },
    {
      "x": 315,
      "y": 396,
      "size": 1,
      "price": "1011000000000000000000",
      "reserved": "",
      "salt": "0xc8c9a3f34607ef7df6cda3ea0d9b7255d12a624e918b0f300a7c26c4b845e9dc",
      "assetIds": []
    },
    {
      "x": 315,
      "y": 397,
      "size": 1,
      "price": "4683000000000000000000",
      "reserved": "",
      "salt": "0x22c5e377072b432ce7d3edf7318a124abffc390b708a963fe75798f068d1cfdc",
      "assetIds": [
        "41506478881403507969696680653240014914910929820314476107906210059990541021185"
      ]
    },
    {
      "x": 315,
      "y": 398,
      "size": 1,
      "price": "1011000000000000000000",
      "reserved": "0x7a9fe22691c811ea339d9b73150e6911a5343dca",
      "salt": "0xcf06e2e49a64a8a95a63965daad2539322f87986d95ccfa965f3830a244fdc1d",
      "assetIds": []
    },
    {
      "x": 316,
      "y": 390,
      "size": 1,
      "price": "1011000000000000000000",
      "reserved": "",
      "salt": "0xba86b2f94fbc491e26e8f46336b79bd2ba31fd4300786b42aba4c286ab4f62c1",
      "assetIds": []
    },
    {
      "x": 316,
      "y": 391,
      "size": 1,
      "price": "1011000000000000000000",
      "reserved": "",
      "salt": "0x317862cc6a1164c00c2ca529cd053b5334eee19700c2806d5ceb389e3bb7c06a",
      "assetIds": []
    },
    {
      "x": 316,
      "y": 392,
      "size": 1,
      "price": "4683000000000000000000",
      "reserved": "",
      "salt": "0xa0e03eaf73b17fe1e3dc5e237549fb1f85afb0e5b50f1fb348aad0307e475d88",
      "assetIds": [
        "41506478881403507969696680653240014914910929820314476107906210059990541021185"
      ]
    },
    {
      "x": 316,
      "y": 396,
      "size": 1,
      "price": "4683000000000000000000",
      "reserved": "",
      "salt": "0x1586ba2015389d08fa45002f9b3dcbab1843b0f409e378848d8b49b10b78cc26",
      "assetIds": [
        "41506478881403507969696680653240014914910929820314476107906210059990541021185"
      ]
    },
    {
      "x": 316,
      "y": 397,
      "size": 1,
      "price": "4683000000000000000000",
      "reserved": "",
      "salt": "0x967463f7a90883c5d72727f6b4cc52557587b8e2d42153b979fcf08c9bec7b38",
      "assetIds": [
        "41506478881403507969696680653240014914910929820314476107906210059990541021185"
      ]
    },
    {
      "x": 316,
      "y": 398,
      "size": 1,
      "price": "4683000000000000000000",
      "reserved": "",
      "salt": "0xe138ae1330e175f2fb863b7aa77c2e3c1b8113f8e1f9bc596b45fb0c0bba79fc",
      "assetIds": [
        "41506478881403507969696680653240014914910929820314476107906210059990541021185"
      ]
    },
    {
      "x": 317,
      "y": 390,
      "size": 1,
      "price": "1011000000000000000000",
      "reserved": "0x7a9fe22691c811ea339d9b73150e6911a5343dca",
      "salt": "0x25069609ec2be393bc120ca2bc44ee36f33d4b76cf817afe5f2b2c7a76f5f5f7",
      "assetIds": []
    },
    {
      "x": 317,
      "y": 391,
      "size": 1,
      "price": "4683000000000000000000",
      "reserved": "",
      "salt": "0x98ec08373a48385c4d35de2d8c492999ce43b6e0297f60cce19d5c5130a2af1c",
      "assetIds": [
        "41506478881403507969696680653240014914910929820314476107906210059990541021185"
      ]
    },
    {
      "x": 317,
      "y": 392,
      "size": 1,
      "price": "1011000000000000000000",
      "reserved": "0x7a9fe22691c811ea339d9b73150e6911a5343dca",
      "salt": "0x5cc0e36719773e8c24f861bbad35a8ebfa3c2eb4da5b565d63dc509474b16a04",
      "assetIds": []
    },
    {
      "x": 317,
      "y": 396,
      "size": 1,
      "price": "1011000000000000000000",
      "reserved": "0x7a9fe22691c811ea339d9b73150e6911a5343dca",
      "salt": "0xcfdd6b3c1ebd6fd1542cd9ed191ad3826fb5801a819c5936d02b0342a9d88dda",
      "assetIds": []
    },
    {
      "x": 317,
      "y": 397,
      "size": 1,
      "price": "4683000000000000000000",
      "reserved": "",
      "salt": "0xa9b350e8ac628265bf1e34020d91fb64d500f8f58e797f395bf94635d25677af",
      "assetIds": [
        "41506478881403507969696680653240014914910929820314476107906210059990541021185"
      ]
    },
    {
      "x": 317,
      "y": 398,
      "size": 1,
      "price": "1011000000000000000000",
      "reserved": "0x7a9fe22691c811ea339d9b73150e6911a5343dca",
      "salt": "0x5b03169425a0c620cea9360a4246115cae43ac3cf214eb70cf2897783a34e7cb",
      "assetIds": []
    },
    {
      "x": 318,
      "y": 384,
      "size": 1,
      "price": "1011000000000000000000",
      "reserved": "",
      "salt": "0xc04dd785c67e1a42da172f87b6d9cda57c62776bb0c118311cc85a76dcc62a8b",
      "assetIds": []
    },
    {
      "x": 318,
      "y": 385,
      "size": 1,
      "price": "1011000000000000000000",
      "reserved": "",
      "salt": "0xfd16f6b3d6088f12aa289909b701f93a9be63b7d88a137b073d3b7a299ca56dd",
      "assetIds": []
    },
    {
      "x": 318,
      "y": 386,
      "size": 1,
      "price": "1011000000000000000000",
      "reserved": "",
      "salt": "0xad8f3474915a19064758f78a2e8f7e7b1098e2565b932269ec6bf3d5d72d6657",
      "assetIds": []
    },
    {
      "x": 318,
      "y": 387,
      "size": 1,
      "price": "1011000000000000000000",
      "reserved": "",
      "salt": "0x0be01c1e700fae6d344154d459bf0e1ce2d1f08e10f7f4219e52d8b60afa9926",
      "assetIds": []
    },
    {
      "x": 318,
      "y": 388,
      "size": 1,
      "price": "1011000000000000000000",
      "reserved": "",
      "salt": "0xf20cb929138b407e98022ce6aa4c13f70602f134d787c409502a91e3a9d22e98",
      "assetIds": []
    },
    {
      "x": 318,
      "y": 389,
      "size": 1,
      "price": "4683000000000000000000",
      "reserved": "",
      "salt": "0x520724f1fed40347f138cf67d9f1066434595e69c08def128ca181e6194ae4a4",
      "assetIds": [
        "41506478881403507969696680653240014914910929820314476107906210059990541021185"
      ]
    },
    {
      "x": 318,
      "y": 399,
      "size": 1,
      "price": "1011000000000000000000",
      "reserved": "0x7a9fe22691c811ea339d9b73150e6911a5343dca",
      "salt": "0x24420ad15949eb6eaa13d678b1cd067d6710e73fc94017267b03ec826c3be7c6",
      "assetIds": []
    },
    {
      "x": 318,
      "y": 400,
      "size": 1,
      "price": "4683000000000000000000",
      "reserved": "",
      "salt": "0x24fe2eef96f95ea9f19d94a4848546276f749b5d4887ed6c1de5d8ecd0e58d22",
      "assetIds": [
        "41506478881403507969696680653240014914910929820314476107906210059990541021185"
      ]
    },
    {
      "x": 318,
      "y": 401,
      "size": 1,
      "price": "1011000000000000000000",
      "reserved": "0x7a9fe22691c811ea339d9b73150e6911a5343dca",
      "salt": "0xce408e18532cd4f1ee41c189ade58954aaa334c53966d82fb431be3f66ec05b6",
      "assetIds": []
    },
    {
      "x": 318,
      "y": 402,
      "size": 1,
      "price": "1011000000000000000000",
      "reserved": "",
      "salt": "0x27721a83f20354422dba2eb06fa5fa413688fb425ea4522a1d5f3d7c027414a1",
      "assetIds": []
    },
    {
      "x": 318,
      "y": 403,
      "size": 1,
      "price": "1011000000000000000000",
      "reserved": "",
      "salt": "0xd08d0263c0e949bf5565c86ee63a27e4c9fe3d4e113a99489ad42c33bcda3ac7",
      "assetIds": []
    },
    {
      "x": 318,
      "y": 404,
      "size": 1,
      "price": "1011000000000000000000",
      "reserved": "",
      "salt": "0xaad87cb8e26c99fa91112d2e96069bf67ac81c4a74bc4e25c2be44841bb4f9f2",
      "assetIds": []
    },
    {
      "x": 318,
      "y": 405,
      "size": 1,
      "price": "1011000000000000000000",
      "reserved": "0x7a9fe22691c811ea339d9b73150e6911a5343dca",
      "salt": "0x0d7f03ac285a01fe6e07ebce739e00de86eba788c45412e372728068b2892af5",
      "assetIds": []
    },
    {
      "x": 318,
      "y": 406,
      "size": 1,
      "price": "4683000000000000000000",
      "reserved": "",
      "salt": "0xf2c210b12b1d1dde9f71873595f1fd4a95d3a0e78ce0c79b615743346c45700e",
      "assetIds": [
        "41506478881403507969696680653240014914910929820314476107906210059990541021185"
      ]
    },
    {
      "x": 318,
      "y": 407,
      "size": 1,
      "price": "1011000000000000000000",
      "reserved": "0x7a9fe22691c811ea339d9b73150e6911a5343dca",
      "salt": "0x946cf679cec0b21b678e61cac1cb2e68e9d9ca5fdb4fa79c92c0405b85aff706",
      "assetIds": []
    },
    {
      "x": 319,
      "y": 384,
      "size": 1,
      "price": "4683000000000000000000",
      "reserved": "",
      "salt": "0xd5efe24f03d167df1f207e8bd39842971a8c89d0df15d31904cd457fbd5532e7",
      "assetIds": [
        "41506478881403507969696680653240014914910929820314476107906210059990541021185"
      ]
    },
    {
      "x": 319,
      "y": 385,
      "size": 1,
      "price": "4683000000000000000000",
      "reserved": "",
      "salt": "0x1ee6fe527f6534aecf5c198e4ee0f498541916e4d5abee47487d71391d5b1053",
      "assetIds": [
        "41506478881403507969696680653240014914910929820314476107906210059990541021185"
      ]
    },
    {
      "x": 319,
      "y": 386,
      "size": 1,
      "price": "4683000000000000000000",
      "reserved": "",
      "salt": "0x0d5c8bfaa025e9faf24d1c6847aa56eface92b59e53c13e7137c5fccce3418a5",
      "assetIds": [
        "41506478881403507969696680653240014914910929820314476107906210059990541021185"
      ]
    },
    {
      "x": 319,
      "y": 387,
      "size": 1,
      "price": "1011000000000000000000",
      "reserved": "",
      "salt": "0x717b0d563c443f80e64ab8ae6fe40337574bc53e83ffab21ef17c9e9a6962936",
      "assetIds": []
    },
    {
      "x": 319,
      "y": 388,
      "size": 1,
      "price": "1011000000000000000000",
      "reserved": "",
      "salt": "0x5ec9f35280b5eaf6af80fcbd2dcb8ee53fd2ecc2f9e4c18220b3b4ab60a41a68",
      "assetIds": []
    },
    {
      "x": 319,
      "y": 389,
      "size": 1,
      "price": "1011000000000000000000",
      "reserved": "0x7a9fe22691c811ea339d9b73150e6911a5343dca",
      "salt": "0xb1a75d99e27341139ea0d3609a5d9350d05a6e85cdcbe870d33ad58cb7cb0db3",
      "assetIds": []
    },
    {
      "x": 319,
      "y": 399,
      "size": 1,
      "price": "4683000000000000000000",
      "reserved": "",
      "salt": "0x940b4511b3beed469b0c72e8a92bf421fca96f4261c7b91b8d9b9ccf2a5af97e",
      "assetIds": [
        "41506478881403507969696680653240014914910929820314476107906210059990541021185"
      ]
    },
    {
      "x": 319,
      "y": 400,
      "size": 1,
      "price": "4683000000000000000000",
      "reserved": "",
      "salt": "0xf491cb3b2e7ef3df6ea1ea12b514399719b215c3a4254242c7ea6999155edb0d",
      "assetIds": [
        "41506478881403507969696680653240014914910929820314476107906210059990541021185"
      ]
    },
    {
      "x": 319,
      "y": 401,
      "size": 1,
      "price": "4683000000000000000000",
      "reserved": "",
      "salt": "0x859b06a607ffa793531ab95da169ba744ebad8f6e4500f4ab360f9f76d650d9a",
      "assetIds": [
        "41506478881403507969696680653240014914910929820314476107906210059990541021185"
      ]
    },
    {
      "x": 319,
      "y": 402,
      "size": 1,
      "price": "1011000000000000000000",
      "reserved": "",
      "salt": "0x3cd92d0dd4855264734dbd939d9f8dab9088d95de72296bf12c2f1bce615db78",
      "assetIds": []
    },
    {
      "x": 319,
      "y": 403,
      "size": 1,
      "price": "1011000000000000000000",
      "reserved": "",
      "salt": "0x69bba6a47520ad441ed1c71e3af0397d0943641a54750b4501edaa3de9bd8b02",
      "assetIds": []
    },
    {
      "x": 319,
      "y": 404,
      "size": 1,
      "price": "1011000000000000000000",
      "reserved": "",
      "salt": "0xbcc7fe14f369b93d18d9c75c98d93560befee47c799b58b9395c63b045ead8b5",
      "assetIds": []
    },
    {
      "x": 319,
      "y": 405,
      "size": 1,
      "price": "4683000000000000000000",
      "reserved": "",
      "salt": "0xb0a9a210e84c4bdd3924e734045ffe7f3e5ab80c207cc58c8823acdd6af95e40",
      "assetIds": [
        "41506478881403507969696680653240014914910929820314476107906210059990541021185"
      ]
    },
    {
      "x": 319,
      "y": 406,
      "size": 1,
      "price": "4683000000000000000000",
      "reserved": "",
      "salt": "0x8f4efbf97d802d6a35a69967cffd262089fbac1ca9c19407ee4ee21e54f0f6de",
      "assetIds": [
        "41506478881403507969696680653240014914910929820314476107906210059990541021185"
      ]
    },
    {
      "x": 319,
      "y": 407,
      "size": 1,
      "price": "4683000000000000000000",
      "reserved": "",
      "salt": "0x2ce8130300cb2ed7d01edd4aff666a868da92df4c1ca1048a8ce2b822e9625b8",
      "assetIds": [
        "41506478881403507969696680653240014914910929820314476107906210059990541021185"
      ]
    },
    {
      "x": 320,
      "y": 384,
      "size": 1,
      "price": "1011000000000000000000",
      "reserved": "0x7a9fe22691c811ea339d9b73150e6911a5343dca",
      "salt": "0xe22344ef7323f7a98db546583c0e7d99adcf0a54d683f8d07ce66efc8cd42995",
      "assetIds": []
    },
    {
      "x": 320,
      "y": 385,
      "size": 1,
      "price": "4683000000000000000000",
      "reserved": "",
      "salt": "0x5827f793f147f18e5c2125688664e64f3235bcf1974aea11a80af9e59bac0c1d",
      "assetIds": [
        "41506478881403507969696680653240014914910929820314476107906210059990541021185"
      ]
    },
    {
      "x": 320,
      "y": 386,
      "size": 1,
      "price": "1011000000000000000000",
      "reserved": "0x7a9fe22691c811ea339d9b73150e6911a5343dca",
      "salt": "0x14d2bff2ede14d49fc98471870c1a667c9df7ab508e93fcd86457ea04cb96b18",
      "assetIds": []
    },
    {
      "x": 320,
      "y": 387,
      "size": 1,
      "price": "1011000000000000000000",
      "reserved": "",
      "salt": "0xabd4e3de57f10a1a79c052002e635970d63ab5069d3d2efbd641c367ac4805b5",
      "assetIds": []
    },
    {
      "x": 320,
      "y": 388,
      "size": 1,
      "price": "1011000000000000000000",
      "reserved": "",
      "salt": "0x4cd14c2c9cc8d808f9e138d4deff82e3e7e23a9c05c900ae6764483a309e5e24",
      "assetIds": []
    },
    {
      "x": 320,
      "y": 389,
      "size": 1,
      "price": "4683000000000000000000",
      "reserved": "",
      "salt": "0xcb61e7c910ed546650aee3391a798c60eb330c49c1dddd7364a7bea451276364",
      "assetIds": [
        "41506478881403507969696680653240014914910929820314476107906210059990541021185"
      ]
    },
    {
      "x": 320,
      "y": 399,
      "size": 1,
      "price": "1011000000000000000000",
      "reserved": "0x7a9fe22691c811ea339d9b73150e6911a5343dca",
      "salt": "0x4d372a387ce64006dc6de22e755aa41c48eefa91963f0b38cc044191ebf2d008",
      "assetIds": []
    },
    {
      "x": 320,
      "y": 400,
      "size": 1,
      "price": "1011000000000000000000",
      "reserved": "",
      "salt": "0x102f39b233456a298d5a5fe7ac6a95108a62616759924ebfaf9e864a5ca654a2",
      "assetIds": []
    },
    {
      "x": 320,
      "y": 401,
      "size": 1,
      "price": "1011000000000000000000",
      "reserved": "",
      "salt": "0x7424de9a678d2cbdd6a6216429ef65cdd655e7160c682ea1209908f3cbf5ae13",
      "assetIds": []
    },
    {
      "x": 320,
      "y": 402,
      "size": 1,
      "price": "1011000000000000000000",
      "reserved": "",
      "salt": "0x287a0ce3b8717c77e9796b21f181c24186c648204c3dd6867f8299de7c043d60",
      "assetIds": []
    },
    {
      "x": 320,
      "y": 403,
      "size": 1,
      "price": "1011000000000000000000",
      "reserved": "",
      "salt": "0x3f11649359eb0f004418a9bb5a94944cb9e014c00922603850e33df54549dfd1",
      "assetIds": []
    },
    {
      "x": 320,
      "y": 404,
      "size": 1,
      "price": "1011000000000000000000",
      "reserved": "",
      "salt": "0x4455d1b8e74d926b383ab4edcd2bcc1fd9b7f48e20e338f314ffd0a3e42d13e1",
      "assetIds": []
    },
    {
      "x": 320,
      "y": 405,
      "size": 1,
      "price": "1011000000000000000000",
      "reserved": "0x7a9fe22691c811ea339d9b73150e6911a5343dca",
      "salt": "0x71c5ae7aa9bf2215e5a9630ee131479aa1f1add3871923fefc9dd4e26954d6fe",
      "assetIds": []
    },
    {
      "x": 320,
      "y": 406,
      "size": 1,
      "price": "4683000000000000000000",
      "reserved": "",
      "salt": "0xf6a1634da0a8be1a9e02957468e209ba7e0191ebdff8d01293eaefb7e25359c8",
      "assetIds": [
        "41506478881403507969696680653240014914910929820314476107906210059990541021185"
      ]
    },
    {
      "x": 320,
      "y": 407,
      "size": 1,
      "price": "1011000000000000000000",
      "reserved": "0x7a9fe22691c811ea339d9b73150e6911a5343dca",
      "salt": "0x28e95613f92c3650acb649de7936edb85e4eaa49560ea509ed2af682b9e7d8ed",
      "assetIds": []
    },
    {
      "x": 321,
      "y": 387,
      "size": 1,
      "price": "1011000000000000000000",
      "reserved": "0x7a9fe22691c811ea339d9b73150e6911a5343dca",
      "salt": "0xa3f7c73d23056f09a9bee4649231abbd013a5fb6896f6560aa58000a38d5aabe",
      "assetIds": []
    },
    {
      "x": 321,
      "y": 388,
      "size": 1,
      "price": "4683000000000000000000",
      "reserved": "",
      "salt": "0x471e917df3b206db283d6f456537101f1e1c6afcbb32622a7aa473d23632f53f",
      "assetIds": [
        "41506478881403507969696680653240014914910929820314476107906210059990541021185"
      ]
    },
    {
      "x": 321,
      "y": 389,
      "size": 1,
      "price": "1011000000000000000000",
      "reserved": "0x7a9fe22691c811ea339d9b73150e6911a5343dca",
      "salt": "0x69b3803f9d92f449bdf5fd55211bddfeafa0ac3c15b5a075dc65130174f84706",
      "assetIds": []
    },
    {
      "x": 321,
      "y": 396,
      "size": 1,
      "price": "1011000000000000000000",
      "reserved": "0x7a9fe22691c811ea339d9b73150e6911a5343dca",
      "salt": "0xc304182da1e3b66a119b47c0cf750592709f356018817da995a8164ed99b2a2c",
      "assetIds": []
    },
    {
      "x": 321,
      "y": 397,
      "size": 1,
      "price": "4683000000000000000000",
      "reserved": "",
      "salt": "0x1777d9ec7090ab56b1a2711af4e633a9dea20b90dd619301856957e54f5ddf76",
      "assetIds": [
        "41506478881403507969696680653240014914910929820314476107906210059990541021185"
      ]
    },
    {
      "x": 321,
      "y": 398,
      "size": 1,
      "price": "1011000000000000000000",
      "reserved": "0x7a9fe22691c811ea339d9b73150e6911a5343dca",
      "salt": "0x3d3fcaf79d0cd902cd040906695eec5c65fe931aba80055e286b7dc5177f4a1f",
      "assetIds": []
    },
    {
      "x": 321,
      "y": 399,
      "size": 1,
      "price": "4683000000000000000000",
      "reserved": "",
      "salt": "0xe65aa6db73d19723375b7e49655c0760ded8fada80400b3d63ee9928d5e55786",
      "assetIds": [
        "41506478881403507969696680653240014914910929820314476107906210059990541021185"
      ]
    },
    {
      "x": 321,
      "y": 400,
      "size": 1,
      "price": "1011000000000000000000",
      "reserved": "",
      "salt": "0x6551a562b183ed20905e318d0a983d21a3411272ea3de7649521441dccdb1cc4",
      "assetIds": []
    },
    {
      "x": 321,
      "y": 401,
      "size": 1,
      "price": "1011000000000000000000",
      "reserved": "",
      "salt": "0xeadf96fc985e3abd55debdd878e29b5e05e8c205d8b7b2fab769fd407fab1403",
      "assetIds": []
    },
    {
      "x": 322,
      "y": 387,
      "size": 1,
      "price": "4683000000000000000000",
      "reserved": "",
      "salt": "0x3bbea546e776b44c3158f2c674821025a0e8af51d7d368f82d4106c79fede2c2",
      "assetIds": [
        "41506478881403507969696680653240014914910929820314476107906210059990541021185"
      ]
    },
    {
      "x": 322,
      "y": 388,
      "size": 1,
      "price": "4683000000000000000000",
      "reserved": "",
      "salt": "0xb3e1219e1af67c6d48326b5984efd4d882b046524a858a6ac9adcab1c29448ce",
      "assetIds": [
        "41506478881403507969696680653240014914910929820314476107906210059990541021185"
      ]
    },
    {
      "x": 322,
      "y": 389,
      "size": 1,
      "price": "4683000000000000000000",
      "reserved": "",
      "salt": "0xc21c182777ee10820044ad8a9f1e064ce59537ddd035862f0b3251fd0b3b0331",
      "assetIds": [
        "41506478881403507969696680653240014914910929820314476107906210059990541021185"
      ]
    },
    {
      "x": 322,
      "y": 396,
      "size": 1,
      "price": "4683000000000000000000",
      "reserved": "",
      "salt": "0x17d04b2c4414026ef2fe9771b39dfea501e196362720b74a4bc64395defce14b",
      "assetIds": [
        "41506478881403507969696680653240014914910929820314476107906210059990541021185"
      ]
    },
    {
      "x": 322,
      "y": 397,
      "size": 1,
      "price": "1011000000000000000000",
      "reserved": "",
      "salt": "0xc3c8de58003838f5dea2f74dfe709057ac552326f1000a90aaa08004340381ec",
      "assetIds": []
    },
    {
      "x": 322,
      "y": 398,
      "size": 1,
      "price": "1011000000000000000000",
      "reserved": "",
      "salt": "0x722c213b4289845d09957c5b4b1598737aea95b96f9be842a286f487f331770c",
      "assetIds": []
    },
    {
      "x": 322,
      "y": 399,
      "size": 1,
      "price": "1011000000000000000000",
      "reserved": "",
      "salt": "0x186189d815d92a4bf3ea581e82ecde90e884f894c698783f7eb4bb20f6790de6",
      "assetIds": []
    },
    {
      "x": 322,
      "y": 400,
      "size": 1,
      "price": "1011000000000000000000",
      "reserved": "",
      "salt": "0x7765c2ef81b0a72d98d67f3456a708224ec65528de5b2a35cf26d2aac1fd246c",
      "assetIds": []
    },
    {
      "x": 322,
      "y": 401,
      "size": 1,
      "price": "1011000000000000000000",
      "reserved": "",
      "salt": "0xe8074df0d67c247ac6b91067d1642a553e4241f184168a5f21639f7c4d8261b0",
      "assetIds": []
    },
    {
      "x": 323,
      "y": 387,
      "size": 1,
      "price": "1011000000000000000000",
      "reserved": "0x7a9fe22691c811ea339d9b73150e6911a5343dca",
      "salt": "0x7fa672dac91849a025b154371756b532c51297ab191f04104f0918e819130ccc",
      "assetIds": []
    },
    {
      "x": 323,
      "y": 388,
      "size": 1,
      "price": "4683000000000000000000",
      "reserved": "",
      "salt": "0xa2b357474931935cbec1102586c40a76dfce5745031be4a60f462311326f5aaa",
      "assetIds": [
        "41506478881403507969696680653240014914910929820314476107906210059990541021185"
      ]
    },
    {
      "x": 323,
      "y": 389,
      "size": 1,
      "price": "1011000000000000000000",
      "reserved": "0x7a9fe22691c811ea339d9b73150e6911a5343dca",
      "salt": "0x2da1db0ab5a7bfd3a7a71c9aa03afb708a95c282733923e4dedc772cdf1a7f82",
      "assetIds": []
    },
    {
      "x": 323,
      "y": 396,
      "size": 1,
      "price": "1011000000000000000000",
      "reserved": "0x7a9fe22691c811ea339d9b73150e6911a5343dca",
      "salt": "0x89c7c5c50bb87ebfe24c86a76db35eb6740e8d15de32ba77996dc6da44591d72",
      "assetIds": []
    },
    {
      "x": 323,
      "y": 397,
      "size": 1,
      "price": "1011000000000000000000",
      "reserved": "",
      "salt": "0xbf9f958ad18c4ffeaba8eea5dad46b64f48834d1f7513383fe007782c92572ac",
      "assetIds": []
    },
    {
      "x": 323,
      "y": 398,
      "size": 1,
      "price": "1011000000000000000000",
      "reserved": "",
      "salt": "0xd8a48ac17144451c044768899ef08529b5708af76c960309b534fb8787f70b63",
      "assetIds": []
    },
    {
      "x": 323,
      "y": 399,
      "size": 1,
      "price": "1011000000000000000000",
      "reserved": "",
      "salt": "0xd0237aa2d7ba7650e7f9da4d96beba6de83ed03a095dd40a0355e88ee87c8b20",
      "assetIds": []
    },
    {
      "x": 323,
      "y": 400,
      "size": 1,
      "price": "1011000000000000000000",
      "reserved": "",
      "salt": "0x26ba7b9635377e9a13dc53fef3dc21cd22dc567841b0a967fc480280c1bcabae",
      "assetIds": []
    },
    {
      "x": 323,
      "y": 401,
      "size": 1,
      "price": "1011000000000000000000",
      "reserved": "",
      "salt": "0x44a751335431f6e23790b71cf17dbeccfee0bedf1439e2e0fb79b000b748aa75",
      "assetIds": []
    },
    {
      "x": 324,
      "y": 390,
      "size": 1,
      "price": "1011000000000000000000",
      "reserved": "0x7a9fe22691c811ea339d9b73150e6911a5343dca",
      "salt": "0x15c4f61ea3c48ee5ab375cb2133c567b9a2ad37175426fe5f0300ce59aee1d34",
      "assetIds": []
    },
    {
      "x": 324,
      "y": 391,
      "size": 1,
      "price": "4683000000000000000000",
      "reserved": "",
      "salt": "0x5e2b25485fdcc7647b6cccb6b93ea2924b13afcd05a9125f0838ae12b6390df0",
      "assetIds": [
        "41506478881403507969696680653240014914910929820314476107906210059990541021185"
      ]
    },
    {
      "x": 324,
      "y": 392,
      "size": 1,
      "price": "1011000000000000000000",
      "reserved": "0x7a9fe22691c811ea339d9b73150e6911a5343dca",
      "salt": "0x30a0a040de93ed5779e712293b604d70971a7bf7733c7191b213574c002e4190",
      "assetIds": []
    },
    {
      "x": 325,
      "y": 390,
      "size": 1,
      "price": "4683000000000000000000",
      "reserved": "",
      "salt": "0xfeefeb7f87f6c1f422ed0dc4f957004b5f2f338893aafd83410dc07c161d907f",
      "assetIds": [
        "41506478881403507969696680653240014914910929820314476107906210059990541021185"
      ]
    },
    {
      "x": 325,
      "y": 391,
      "size": 1,
      "price": "4683000000000000000000",
      "reserved": "",
      "salt": "0xf4e99d4d5c359edd3599deb814d2700039eb87de699c41c34377ff98c9c32866",
      "assetIds": [
        "41506478881403507969696680653240014914910929820314476107906210059990541021185"
      ]
    },
    {
      "x": 325,
      "y": 392,
      "size": 1,
      "price": "4683000000000000000000",
      "reserved": "",
      "salt": "0x7fb1843439444b45388acb22b786544fb862f2cd425d089a560ddd4df0da6f9a",
      "assetIds": [
        "41506478881403507969696680653240014914910929820314476107906210059990541021185"
      ]
    },
    {
      "x": 326,
      "y": 390,
      "size": 1,
      "price": "1011000000000000000000",
      "reserved": "0x7a9fe22691c811ea339d9b73150e6911a5343dca",
      "salt": "0xe1cc160f90234d041b5b7aa9b7a3472df98e388af0a4f5d4e1204897ac83eca3",
      "assetIds": []
    },
    {
      "x": 326,
      "y": 391,
      "size": 1,
      "price": "4683000000000000000000",
      "reserved": "",
      "salt": "0x4dc6253a246f0f1af0f275e422b9925651fd31f3b4f9920ab5cb30a6c3e9e449",
      "assetIds": [
        "41506478881403507969696680653240014914910929820314476107906210059990541021185"
      ]
    },
    {
      "x": 326,
      "y": 392,
      "size": 1,
      "price": "1011000000000000000000",
      "reserved": "0x7a9fe22691c811ea339d9b73150e6911a5343dca",
      "salt": "0x5b90a64233e1e8b27c221d9eb26e51ae5514b9235b0159dc8d0b37303b39e460",
      "assetIds": []
    },
    {
      "x": 327,
      "y": 384,
      "size": 1,
      "price": "1011000000000000000000",
      "reserved": "",
      "salt": "0x0088396611a4892e4d89b27d1c5996c9e4fb7d7de290aff2c6e5f57bb87003a2",
      "assetIds": []
    },
    {
      "x": 327,
      "y": 385,
      "size": 1,
      "price": "1011000000000000000000",
      "reserved": "",
      "salt": "0xac89d96eae58604a711f59dcc6f445d90811be34122dce04b1c56d8dff3fe8be",
      "assetIds": []
    },
    {
      "x": 327,
      "y": 386,
      "size": 1,
      "price": "1011000000000000000000",
      "reserved": "",
      "salt": "0xd369e08830fbf6cba651333a6475d7b661274fd605b5fba00417e7638eb7a503",
      "assetIds": []
    },
    {
      "x": 327,
      "y": 387,
      "size": 1,
      "price": "1011000000000000000000",
      "reserved": "0x7a9fe22691c811ea339d9b73150e6911a5343dca",
      "salt": "0x3b11a6d70a3329cdcc0d8083cbefe43e856661fdc66bb0aceb01929fde54a7a0",
      "assetIds": []
    },
    {
      "x": 327,
      "y": 388,
      "size": 1,
      "price": "4683000000000000000000",
      "reserved": "",
      "salt": "0xc9579565d1d5518fb8574759cf7f5d8c6c2bd0b3c191cc9cd4f29651f6f441da",
      "assetIds": [
        "41506478881403507969696680653240014914910929820314476107906210059990541021185"
      ]
    },
    {
      "x": 327,
      "y": 389,
      "size": 1,
      "price": "1011000000000000000000",
      "reserved": "0x7a9fe22691c811ea339d9b73150e6911a5343dca",
      "salt": "0x057fab802b1aee27822d2b89f53a5fdf2489b551d587ec0c6665276b3d980ea5",
      "assetIds": []
    },
    {
      "x": 327,
      "y": 393,
      "size": 1,
      "price": "1011000000000000000000",
      "reserved": "0x7a9fe22691c811ea339d9b73150e6911a5343dca",
      "salt": "0xd561610bda27ed261f8b83c3df960c51a8383034c6d1bb6a5cdf40c556616e75",
      "assetIds": []
    },
    {
      "x": 327,
      "y": 394,
      "size": 1,
      "price": "4683000000000000000000",
      "reserved": "",
      "salt": "0xdc1dde5ea2e89f97a0b942a4003876df93389640be88a6f9d9e46481f0bfc353",
      "assetIds": [
        "41506478881403507969696680653240014914910929820314476107906210059990541021185"
      ]
    },
    {
      "x": 327,
      "y": 395,
      "size": 1,
      "price": "4683000000000000000000",
      "reserved": "",
      "salt": "0x026b8ffa376d4ee3596db6208265d4330d5698eaa27e3638120201d1d7833584",
      "assetIds": [
        "41506478881403507969696680653240014914910929820314476107906210059990541021185"
      ]
    },
    {
      "x": 328,
      "y": 384,
      "size": 1,
      "price": "1011000000000000000000",
      "reserved": "",
      "salt": "0x00b71134406023d4dc05d375e77c8a1240d2c9b4f34803f557e8de5189d5b3c4",
      "assetIds": []
    },
    {
      "x": 328,
      "y": 385,
      "size": 1,
      "price": "1011000000000000000000",
      "reserved": "",
      "salt": "0xe3b4eccd1a9028f220cf348d5f8a777a06391fd17cf2800cb0ad0611dc5ab921",
      "assetIds": []
    },
    {
      "x": 328,
      "y": 386,
      "size": 1,
      "price": "1011000000000000000000",
      "reserved": "",
      "salt": "0x9f98be5ffe82dc1ee920edb2d1deb595bc328646dd5a2b75f1c4f77a278da34a",
      "assetIds": []
    },
    {
      "x": 328,
      "y": 387,
      "size": 1,
      "price": "4683000000000000000000",
      "reserved": "",
      "salt": "0x9db47dfd8dcc060f32983016705256d819bdc38dcbde1f4c45b9c0befe1490f2",
      "assetIds": [
        "41506478881403507969696680653240014914910929820314476107906210059990541021185"
      ]
    },
    {
      "x": 328,
      "y": 388,
      "size": 1,
      "price": "4683000000000000000000",
      "reserved": "",
      "salt": "0x23e1a2411aadef44db61ceef8a32f1f5cbb2a376da26c4555f8056b77625fbd4",
      "assetIds": [
        "41506478881403507969696680653240014914910929820314476107906210059990541021185"
      ]
    },
    {
      "x": 328,
      "y": 389,
      "size": 1,
      "price": "4683000000000000000000",
      "reserved": "",
      "salt": "0xfd89b35781f211f64afc3278d65e498e52199af89fd2b6fa7be1d31229c33432",
      "assetIds": [
        "41506478881403507969696680653240014914910929820314476107906210059990541021185"
      ]
    },
    {
      "x": 328,
      "y": 393,
      "size": 1,
      "price": "4683000000000000000000",
      "reserved": "",
      "salt": "0x64ef5f88159b13cb6091eaec534ca0590dc7e98ea8cd9926d5823d32e5ec399a",
      "assetIds": [
        "41506478881403507969696680653240014914910929820314476107906210059990541021185"
      ]
    },
    {
      "x": 328,
      "y": 394,
      "size": 1,
      "price": "4683000000000000000000",
      "reserved": "",
      "salt": "0x8482d54243baf403d3922eae0e2d4bddeb59b2f7bd52772681ddfe9a0774d4fd",
      "assetIds": [
        "41506478881403507969696680653240014914910929820314476107906210059990541021185"
      ]
    },
    {
      "x": 328,
      "y": 395,
      "size": 1,
      "price": "4683000000000000000000",
      "reserved": "",
      "salt": "0x4478244a4ffce8e4b816e97c36818fd7a54fb614393ec7ed916e615320159b8e",
      "assetIds": [
        "41506478881403507969696680653240014914910929820314476107906210059990541021185"
      ]
    },
    {
      "x": 329,
      "y": 384,
      "size": 1,
      "price": "4683000000000000000000",
      "reserved": "",
      "salt": "0x0da81d9066974d875f37a006ed4426db686316a63597e24f4e2aff07171828b7",
      "assetIds": [
        "41506478881403507969696680653240014914910929820314476107906210059990541021185"
      ]
    },
    {
      "x": 329,
      "y": 385,
      "size": 1,
      "price": "4683000000000000000000",
      "reserved": "",
      "salt": "0x514ce59febd3ed49cef7c278ad2fecdbd072bde25055b136f39bb6632c49975d",
      "assetIds": [
        "41506478881403507969696680653240014914910929820314476107906210059990541021185"
      ]
    },
    {
      "x": 329,
      "y": 386,
      "size": 1,
      "price": "4683000000000000000000",
      "reserved": "",
      "salt": "0xac0745a426bc66e4e88f18aa2a3604ee2de62b42d3cdd654220c4698e6c71d5e",
      "assetIds": [
        "41506478881403507969696680653240014914910929820314476107906210059990541021185"
      ]
    },
    {
      "x": 329,
      "y": 387,
      "size": 1,
      "price": "1011000000000000000000",
      "reserved": "0x7a9fe22691c811ea339d9b73150e6911a5343dca",
      "salt": "0xc7ad6c4e68180330c733ffb303c3b86f51832637f54255316acccc030e775ffa",
      "assetIds": []
    },
    {
      "x": 329,
      "y": 388,
      "size": 1,
      "price": "4683000000000000000000",
      "reserved": "",
      "salt": "0x78fbade25ee0feae7216d37ea2b1d79197bbe12a1ab259ab633bf29a3bec901f",
      "assetIds": [
        "41506478881403507969696680653240014914910929820314476107906210059990541021185"
      ]
    },
    {
      "x": 329,
      "y": 389,
      "size": 1,
      "price": "1011000000000000000000",
      "reserved": "0x7a9fe22691c811ea339d9b73150e6911a5343dca",
      "salt": "0x82f81366b3a1bc8eb46a821602118f5e36adbef913491524d80e9a375c2f478c",
      "assetIds": []
    },
    {
      "x": 329,
      "y": 393,
      "size": 1,
      "price": "1011000000000000000000",
      "reserved": "0x7a9fe22691c811ea339d9b73150e6911a5343dca",
      "salt": "0x9b4d3321f17bc7026d2cb1b31aa4489e1eb6ed49ffb6966f6a6ab9c8e4891e4c",
      "assetIds": []
    },
    {
      "x": 329,
      "y": 394,
      "size": 1,
      "price": "4683000000000000000000",
      "reserved": "",
      "salt": "0x188bb3fe1901419e423b94cbdc4cb1624711d34f7b02290af8de3bfc00ed5bfc",
      "assetIds": [
        "41506478881403507969696680653240014914910929820314476107906210059990541021185"
      ]
    },
    {
      "x": 329,
      "y": 395,
      "size": 1,
      "price": "4683000000000000000000",
      "reserved": "",
      "salt": "0xc0120d9b40824f618dc00f5c572f80eb93eb6138f80f2a7d9f1b3e8d44b9001e",
      "assetIds": [
        "41506478881403507969696680653240014914910929820314476107906210059990541021185"
      ]
    },
    {
      "x": 330,
      "y": 384,
      "size": 1,
      "price": "1011000000000000000000",
      "reserved": "0x7a9fe22691c811ea339d9b73150e6911a5343dca",
      "salt": "0xdc621278851a9d74aa8e909d48107c9e5b9bb9d3fdbaaa15d7d95eb86ebb6449",
      "assetIds": []
    },
    {
      "x": 330,
      "y": 385,
      "size": 1,
      "price": "1011000000000000000000",
      "reserved": "0x7a9fe22691c811ea339d9b73150e6911a5343dca",
      "salt": "0x8b33cf69de16c2d2f8845c62d40422468ced9caf8c86d0b9567122f4eef4ed1b",
      "assetIds": []
    },
    {
      "x": 330,
      "y": 386,
      "size": 1,
      "price": "1011000000000000000000",
      "reserved": "0x7a9fe22691c811ea339d9b73150e6911a5343dca",
      "salt": "0x49cff5a984968f5580248006f1bf1108814ab6efef21bad9372e09d173be5a9a",
      "assetIds": []
    },
    {
      "x": 331,
      "y": 384,
      "size": 1,
      "price": "4683000000000000000000",
      "reserved": "",
      "salt": "0xd70c3bbc1259272dd71bbe5696552fadc275df530bff676ee66804601da5f5fc",
      "assetIds": [
        "41506478881403507969696680653240014914910929820314476107906210059990541021185"
      ]
    },
    {
      "x": 331,
      "y": 385,
      "size": 1,
      "price": "4683000000000000000000",
      "reserved": "",
      "salt": "0x964f92a7ef509674e16f903c4179de92ab485079083f7f835c112d6be8b74edd",
      "assetIds": [
        "41506478881403507969696680653240014914910929820314476107906210059990541021185"
      ]
    },
    {
      "x": 331,
      "y": 386,
      "size": 1,
      "price": "4683000000000000000000",
      "reserved": "",
      "salt": "0xd3221036bee502b6a648c00752d32b47be7d19f6d6380df4ec6a3aeda20eba30",
      "assetIds": [
        "41506478881403507969696680653240014914910929820314476107906210059990541021185"
      ]
    },
    {
      "x": 332,
      "y": 384,
      "size": 1,
      "price": "1011000000000000000000",
      "reserved": "0x7a9fe22691c811ea339d9b73150e6911a5343dca",
      "salt": "0x05cd5b841030e3dbd08a4dc34418c097cf77f096662bec204c70a0b93bea9024",
      "assetIds": []
    },
    {
      "x": 332,
      "y": 385,
      "size": 1,
      "price": "4683000000000000000000",
      "reserved": "",
      "salt": "0x4ef5a6130cc9557c4020806a1ac26492f14b123d70e94e5368344567e83797c5",
      "assetIds": [
        "41506478881403507969696680653240014914910929820314476107906210059990541021185"
      ]
    },
    {
      "x": 332,
      "y": 386,
      "size": 1,
      "price": "1011000000000000000000",
      "reserved": "0x7a9fe22691c811ea339d9b73150e6911a5343dca",
      "salt": "0x13ced1a82caa7ac9cc989ace14405f11de65c6cd8fae0c37669333f6af8c948f",
      "assetIds": []
    },
    {
      "x": 312,
      "y": 390,
      "size": 3,
      "price": "8648000000000000000000",
      "reserved": "0x7a9fe22691c811ea339d9b73150e6911a5343dca",
      "salt": "0x24313ad0b84fbb4abcf328c4c776612935c4e186c88c71743cf6992b49b17d0d",
      "assetIds": []
    },
    {
      "x": 312,
      "y": 402,
      "size": 3,
      "price": "8648000000000000000000",
      "reserved": "0x7a9fe22691c811ea339d9b73150e6911a5343dca",
      "salt": "0x6239620f36481bda9fee4a5b262fec713be7da95c60d49cc175917010ec64a8f",
      "assetIds": []
    },
    {
      "x": 315,
      "y": 393,
      "size": 3,
      "price": "8648000000000000000000",
      "reserved": "0x7a9fe22691c811ea339d9b73150e6911a5343dca",
      "salt": "0x6275c7cabf8672e29b2edd589480e7a57b926541433cbc65814a468a94dee46f",
      "assetIds": []
    },
    {
      "x": 315,
      "y": 399,
      "size": 3,
      "price": "8648000000000000000000",
      "reserved": "0x7a9fe22691c811ea339d9b73150e6911a5343dca",
      "salt": "0x0b2b4c2bdfcf3d3f29adbd2eb9fd2b9f4c707fc2b594a4f7207fdc24d819f364",
      "assetIds": []
    },
    {
      "x": 315,
      "y": 402,
      "size": 3,
      "price": "8648000000000000000000",
      "reserved": "0x7a9fe22691c811ea339d9b73150e6911a5343dca",
      "salt": "0x327310a8efc13f170dc8c1e7687204f5403a01d53a6349d2cc5fd0d947821df6",
      "assetIds": []
    },
    {
      "x": 315,
      "y": 405,
      "size": 3,
      "price": "8648000000000000000000",
      "reserved": "0x7a9fe22691c811ea339d9b73150e6911a5343dca",
      "salt": "0x64cdf49ccb8ff4f4ce9f15268ab62f25337f854a78ae946d0c12abd22f7a130f",
      "assetIds": []
    },
    {
      "x": 318,
      "y": 396,
      "size": 3,
      "price": "8648000000000000000000",
      "reserved": "0x7a9fe22691c811ea339d9b73150e6911a5343dca",
      "salt": "0x158e69348315600df472df4e37705f7de331e8a041d009a727430f36defc9140",
      "assetIds": []
    },
    {
      "x": 321,
      "y": 384,
      "size": 3,
      "price": "8648000000000000000000",
      "reserved": "0x7a9fe22691c811ea339d9b73150e6911a5343dca",
      "salt": "0xe1ab67b5695923c945c808ffbcf0ba2c4423552944e5a27ddbd49b27b4295254",
      "assetIds": []
    },
    {
      "x": 321,
      "y": 402,
      "size": 3,
      "price": "8648000000000000000000",
      "reserved": "0x7a9fe22691c811ea339d9b73150e6911a5343dca",
      "salt": "0x493890f1f981280085be7fa9e25af4dd064ec0e0c34cca00a1cbcd9485ce4248",
      "assetIds": []
    },
    {
      "x": 321,
      "y": 405,
      "size": 3,
      "price": "8648000000000000000000",
      "reserved": "0x7a9fe22691c811ea339d9b73150e6911a5343dca",
      "salt": "0xc37240df8bdc35e6b1b1b8caf29091da5f2ab624992e76fc49ddcc962df5ca75",
      "assetIds": []
    },
    {
      "x": 324,
      "y": 384,
      "size": 3,
      "price": "8648000000000000000000",
      "reserved": "0x7a9fe22691c811ea339d9b73150e6911a5343dca",
      "salt": "0x63f87b5bc82498e2a6389cef51dbae24150b6421070ff310e93acba3bf94022a",
      "assetIds": []
    },
    {
      "x": 324,
      "y": 387,
      "size": 3,
      "price": "8648000000000000000000",
      "reserved": "0x7a9fe22691c811ea339d9b73150e6911a5343dca",
      "salt": "0xd713679bbd2826ce6489fe7613dee67614346749c7806ce1bf9b16dd30926b6d",
      "assetIds": []
    },
    {
      "x": 324,
      "y": 393,
      "size": 3,
      "price": "8648000000000000000000",
      "reserved": "0x7a9fe22691c811ea339d9b73150e6911a5343dca",
      "salt": "0x2bd2c0f6bf451557eb68169241da90b9a57673c67b490acf54aad8023467ebcf",
      "assetIds": []
    },
    {
      "x": 327,
      "y": 390,
      "size": 3,
      "price": "8648000000000000000000",
      "reserved": "0x7a9fe22691c811ea339d9b73150e6911a5343dca",
      "salt": "0xb834b438e47a8124d2e7ab0de70b0b0fc80ef59a7b8ea43701ca6ed5f779e822",
      "assetIds": []
    },
    {
      "x": 330,
      "y": 387,
      "size": 3,
      "price": "8648000000000000000000",
      "reserved": "0x7a9fe22691c811ea339d9b73150e6911a5343dca",
      "salt": "0xc596737fba7c2d6fcac951f9334c7570a8df3b96d102fe0a4d1ed7ea2a4c7ea4",
      "assetIds": []
    },
    {
      "x": 333,
      "y": 384,
      "size": 3,
      "price": "8648000000000000000000",
      "reserved": "0x7a9fe22691c811ea339d9b73150e6911a5343dca",
      "salt": "0xa384417b7eb06d19fc678aeab50b5f8019f13b23ffbd15cef9366f3197f1c3c3",
      "assetIds": []
    },
    {
      "x": 333,
      "y": 387,
      "size": 3,
      "price": "8648000000000000000000",
      "reserved": "0x7a9fe22691c811ea339d9b73150e6911a5343dca",
      "salt": "0xb74f29a1df452107c0b0ff965b46e82fb1664b0f23d1eb77d949006646829da8",
      "assetIds": []
    },
    {
      "x": 312,
      "y": 384,
      "size": 6,
      "price": "32772000000000000000000",
      "reserved": "0x7a9fe22691c811ea339d9b73150e6911a5343dca",
      "salt": "0x084521dbe721bb49b1e202589e0ffb5cfa2614857fb4c9d7f6ab3e172037d2d7",
      "assetIds": []
    },
    {
      "x": 318,
      "y": 390,
      "size": 6,
      "price": "32772000000000000000000",
      "reserved": "0x7a9fe22691c811ea339d9b73150e6911a5343dca",
      "salt": "0x4906375d0c37b38a90505b6733d7bc36e6aa95cbacb82c9444b4e3474138e5c5",
      "assetIds": []
    },
    {
      "x": 330,
      "y": 390,
      "size": 6,
      "price": "32772000000000000000000",
      "reserved": "0x7a9fe22691c811ea339d9b73150e6911a5343dca",
      "salt": "0x6d64133c0f6e6e0657598189cfe9e966c28ad484cf652f7de6ce025114980263",
      "assetIds": []
    },
    {
      "x": 324,
      "y": 396,
      "size": 12,
      "price": "123806000000000000000000",
      "reserved": "0x7a9fe22691c811ea339d9b73150e6911a5343dca",
      "salt": "0x8b5ffea358ebf6a844a4b123e811a1819d3a7a352786a59d188569c520b655af",
      "assetIds": []
    }
  ],
  "solcInputHash": "e17a5bb930c92aaeeb80a52119ce77b7",
  "bytecode": "0x610160604052620d2f0060055534801561001857600080fd5b506040516200284d3803806200284d83398181016040526101a081101561003e57600080fd5b50805160208201516040830151606080850151608086015160a08088015160c0808a015160e08b01516101008c01516101208d01516101408e01516101608f0151610180909f0151600280546001600160a01b0319166001600160a01b03871617905560038490558e8c1b6001600160601b03199081169099529a8d901b9097169094529a9b999a98999698959793969195909490939091906100e28b600161015d565b600680546001600160a01b039a8b166001600160a01b031991821617909155610140989098526101209690965260008054998916998816999099179098556001600160601b0319606092831b811660e05290821b811660805296901b909516610100525060078054919093169116179055506101c192505050565b6001600160a01b038216600081815260016020908152604091829020805460ff191685151590811790915582519384529083015280517fb21eb88b4e33b3f1281830a7178d74d8aa73220416215726b68ae23d539515cb9281900390910190a15050565b60805160601c60a05160601c60c05160601c60e05160601c6101005160601c61012051610140516126066200024760003980610b3d528061206c525080610b1952806112ec5250806120da525080611841528061199e5250806117f75280611b9d528061210e525080611872528061196f525080610eb25280611c8952506126066000f3fe608060405234801561001057600080fd5b506004361061011b5760003560e01c80638f283970116100b2578063c10a420811610081578063dc5074af11610066578063dc5074af1461085f578063e56f8a9e14610885578063f23a6e61146108a25761011b565b8063c10a420814610780578063caed3500146108575761011b565b80638f28397014610500578063984d625214610526578063b522ecff146105f8578063bc197c811461061e5761011b565b806365194ce7116100ee57806365194ce7146103485780636e9960c3146104a657806377f1c3ac146104ca5780638a04af6a146104d25761011b565b80631187fd3c1461012057806325cb5bc014610300578063495906571461031a57806358bc294414610322575b600080fd5b6102fe600480360361012081101561013757600080fd5b6001600160a01b038235811692602081013582169260408201359092169181019060808101606082013564010000000081111561017357600080fd5b82018360208201111561018557600080fd5b803590602001918460208302840111640100000000831117156101a757600080fd5b919390928235926040810190602001356401000000008111156101c957600080fd5b8201836020820111156101db57600080fd5b803590602001918460208302840111640100000000831117156101fd57600080fd5b91939092909160208101903564010000000081111561021b57600080fd5b82018360208201111561022d57600080fd5b8035906020019184602083028401116401000000008311171561024f57600080fd5b91939092909160208101903564010000000081111561026d57600080fd5b82018360208201111561027f57600080fd5b803590602001918460018302840111640100000000831117156102a157600080fd5b9193909290916020810190356401000000008111156102bf57600080fd5b8201836020820111156102d157600080fd5b803590602001918460018302840111640100000000831117156102f357600080fd5b509092509050610937565b005b610308610b17565b60408051918252519081900360200190f35b610308610b3b565b6102fe6004803603602081101561033857600080fd5b50356001600160a01b0316610b5f565b6103ee6004803603602081101561035e57600080fd5b81019060208101813564010000000081111561037957600080fd5b82018360208201111561038b57600080fd5b803590602001918460018302840111640100000000831117156103ad57600080fd5b91908080601f016020809104026020016040519081016040528093929190818152602001838380828437600092019190915250929550610c0a945050505050565b6040518080602001866001600160a01b03166001600160a01b03168152602001856001600160a01b03166001600160a01b03168152602001848152602001838152602001828103825287818151815260200191508051906020019080838360005b8381101561046757818101518382015260200161044f565b50505050905090810190601f1680156104945780820380516001836020036101000a031916815260200191505b50965050505050505060405180910390f35b6104ae610d0f565b604080516001600160a01b039092168252519081900360200190f35b610308610d1e565b6102fe600480360360408110156104e857600080fd5b506001600160a01b0381351690602001351515610d24565b6102fe6004803603602081101561051657600080fd5b50356001600160a01b0316610d7b565b6102fe6004803603606081101561053c57600080fd5b6001600160a01b03823516919081019060408101602082013564010000000081111561056757600080fd5b82018360208201111561057957600080fd5b8035906020019184602083028401116401000000008311171561059b57600080fd5b9193909290916020810190356401000000008111156105b957600080fd5b8201836020820111156105cb57600080fd5b803590602001918460208302840111640100000000831117156105ed57600080fd5b509092509050610e51565b6102fe6004803603602081101561060e57600080fd5b50356001600160a01b0316610fdc565b61074b600480360360a081101561063457600080fd5b6001600160a01b03823581169260208101359091169181019060608101604082013564010000000081111561066857600080fd5b82018360208201111561067a57600080fd5b8035906020019184602083028401116401000000008311171561069c57600080fd5b9193909290916020810190356401000000008111156106ba57600080fd5b8201836020820111156106cc57600080fd5b803590602001918460208302840111640100000000831117156106ee57600080fd5b91939092909160208101903564010000000081111561070c57600080fd5b82018360208201111561071e57600080fd5b8035906020019184600183028401116401000000008311171561074057600080fd5b5090925090506110c5565b604080517fffffffff000000000000000000000000000000000000000000000000000000009092168252519081900360200190f35b610843600480360360a081101561079657600080fd5b8101906020810181356401000000008111156107b157600080fd5b8201836020820111156107c357600080fd5b803590602001918460018302840111640100000000831117156107e557600080fd5b91908080601f016020809104026020016040519081016040528093929190818152602001838380828437600092019190915250929550506001600160a01b0383358116945060208401351692604081013592506060013590506110f2565b604080519115158252519081900360200190f35b6104ae61122e565b6108436004803603602081101561087557600080fd5b50356001600160a01b031661123d565b6102fe6004803603602081101561089b57600080fd5b503561125b565b61074b600480360360a08110156108b857600080fd5b6001600160a01b03823581169260208101359091169160408201359160608101359181019060a0810160808201356401000000008111156108f857600080fd5b82018360208201111561090a57600080fd5b8035906020019184600183028401116401000000008311171561092c57600080fd5b5090925090506112bf565b6109418e8d6112ea565b610a388d8d8d8d80806020026020016040519081016040528093929190818152602001838360200280828437600081840152601f19601f820116905080830192505050505050508c8c8c80806020026020016040519081016040528093929190818152602001838360200280828437600081840152601f19601f820116905080830192505050505050508b8b8080602002602001604051908101604052809392919081815260200183836020028082843760009201919091525050604080516020601f8d018190048102820181019092528b815292508b91508a908190840183828082843760009201919091525061144d92505050565b610a8c8e8c8c6003818110610a4957fe5b9050602002013586868080601f0160208091040260200160405190810160405280939291908181526020018383808284376000920191909152506117d092505050565b610aca8e8e8d8d8080602002602001604051908101604052809392919081815260200183836020028082843760009201919091525061182192505050565b610b078d898980806020026020016040519081016040528093929190818152602001838360200280828437600092019190915250611c1292505050565b5050505050505050505050505050565b7f000000000000000000000000000000000000000000000000000000000000000090565b7f000000000000000000000000000000000000000000000000000000000000000090565b6000546001600160a01b03163314610bbe576040805162461bcd60e51b815260206004820152601060248201527f53656e646572206e6f742061646d696e00000000000000000000000000000000604482015290519081900360640190fd5b600554600280546001600160a01b03908116600090815260046020526040902042909301909255805473ffffffffffffffffffffffffffffffffffffffff191692909116919091179055565b606060008060008060606000806000808a80602001905160a0811015610c2f57600080fd5b8101908080516040519392919084640100000000821115610c4f57600080fd5b908301906020820185811115610c6457600080fd5b8251640100000000811182820188101715610c7e57600080fd5b82525081516020918201929091019080838360005b83811015610cab578181015183820152602001610c93565b50505050905090810190601f168015610cd85780820380516001836020036101000a031916815260200191505b5060409081526020820151908201516060830151608090930151959f50909d509b5099509197505050505050505091939590929450565b6000546001600160a01b031690565b60035490565b6000546001600160a01b03163314610d6d5760405162461bcd60e51b815260040180806020018281038252602e8152602001806125a3602e913960400191505060405180910390fd5b610d778282611dd6565b5050565b6000546001600160a01b03163314610dda576040805162461bcd60e51b815260206004820152601b60248201527f6f6e6c792061646d696e2063616e206368616e67652061646d696e0000000000604482015290519081900360640190fd5b600054604080516001600160a01b039283168152918316602083015280517f7e644d79422f17c01e4894b5f4f588d331ebfa28653d42ae832dc59e38c9798f9281900390910190a16000805473ffffffffffffffffffffffffffffffffffffffff19166001600160a01b0392909216919091179055565b6000546001600160a01b03163314610eb0576040805162461bcd60e51b815260206004820152600e60248201527f4e4f545f415554484f52495a4544000000000000000000000000000000000000604482015290519081900360640190fd5b7f00000000000000000000000000000000000000000000000000000000000000006001600160a01b0316632eb2c2d63087878787876040518763ffffffff1660e01b815260040180876001600160a01b03166001600160a01b03168152602001866001600160a01b03166001600160a01b031681526020018060200180602001806020018481038452888882818152602001925060200280828437600083820152601f01601f19169091018581038452868152602090810191508790870280828437600081840152601f19601f8201169050808301925050508481038252600081526020016020019950505050505050505050600060405180830381600087803b158015610fbd57600080fd5b505af1158015610fd1573d6000803e3d6000fd5b505050505050505050565b6001600160a01b038116611037576040805162461bcd60e51b815260206004820152600c60248201527f5a45524f5f414444524553530000000000000000000000000000000000000000604482015290519081900360640190fd5b6000546001600160a01b03163314611096576040805162461bcd60e51b815260206004820152600e60248201527f4e4f545f415554484f52495a4544000000000000000000000000000000000000604482015290519081900360640190fd5b6006805473ffffffffffffffffffffffffffffffffffffffff19166001600160a01b0392909216919091179055565b7fbc197c810000000000000000000000000000000000000000000000000000000098975050505050505050565b60006003548211806111155750836001600160a01b0316856001600160a01b0316145b8061111f57508242115b1561112c57506000611225565b60408051606087811b7fffffffffffffffffffffffffffffffffffffffff0000000000000000000000009081166020808501919091529188901b166034830152604882018690526068808301869052835180840390910181526088830184528051908201207f19457468657265756d205369676e6564204d6573736167653a0a33320000000060a884015260c48084018290528451808503909101815260e490930190935281519101206000906111e39089611e58565b6001600160a01b038116600090815260046020526040902054909150421161121057600192505050611225565b6002546001600160a01b039081169116149150505b95945050505050565b6002546001600160a01b031690565b6001600160a01b031660009081526001602052604090205460ff1690565b6000546001600160a01b031633146112ba576040805162461bcd60e51b815260206004820152601060248201527f53656e646572206e6f742061646d696e00000000000000000000000000000000604482015290519081900360640190fd5b600355565b7ff23a6e61000000000000000000000000000000000000000000000000000000009695505050505050565b7f0000000000000000000000000000000000000000000000000000000000000000421061135e576040805162461bcd60e51b815260206004820152600c60248201527f53414c455f49535f4f5645520000000000000000000000000000000000000000604482015290519081900360640190fd5b6001600160a01b03821633148061138457503360009081526001602052604090205460ff165b6113d5576040805162461bcd60e51b815260206004820152600e60248201527f4e4f545f415554484f52495a4544000000000000000000000000000000000000604482015290519081900360640190fd5b6001600160a01b03811615806113fc5750816001600160a01b0316816001600160a01b0316145b610d77576040805162461bcd60e51b815260206004820152600d60248201527f52455345525645445f4c414e4400000000000000000000000000000000000000604482015290519081900360640190fd5b600087878760008151811061145e57fe5b60200260200101518860018151811061147357fe5b60200260200101518960028151811061148857fe5b60200260200101518a60038151811061149d57fe5b60200260200101518a8a60405160200180828051906020019060200280838360005b838110156114d75781810151838201526020016114bf565b50505050905001915050604051602081830303815290604052805190602001208a60405160200180828051906020019060200280838360005b83811015611528578181015183820152602001611510565b5050505090500191505060405160208183030381529060405280519060200120604051602001808a6001600160a01b03166001600160a01b031660601b8152601401896001600160a01b03166001600160a01b031660601b81526014018881526020018781526020018681526020018581526020018481526020018381526020018281526020019950505050505050505050604051602081830303815290604052805190602001209050600760009054906101000a90046001600160a01b03166001600160a01b031663012847ed83836040518363ffffffff1660e01b81526004018080602001838152602001828103825284818151815260200191508051906020019080838360005b8381101561164a578181015183820152602001611632565b50505050905090810190601f1680156116775780820380516001836020036101000a031916815260200191505b50935050505060206040518083038186803b15801561169557600080fd5b505afa1580156116a9573d6000803e3d6000fd5b505050506040513d60208110156116bf57600080fd5b5051611712576040805162461bcd60e51b815260206004820152600c60248201527f494e56414c49445f415554480000000000000000000000000000000000000000604482015290519081900360640190fd5b60006117738760008151811061172457fe5b60200260200101518860018151811061173957fe5b60200260200101518960028151811061174e57fe5b60200260200101518a60038151811061176357fe5b60200260200101518c8b8b611f25565b905061177f8482611fca565b610fd1576040805162461bcd60e51b815260206004820152600c60248201527f494e56414c49445f4c414e440000000000000000000000000000000000000000604482015290519081900360640190fd5b60006117dc8484612095565b60065490915061181b908590839085906001600160a01b03167f00000000000000000000000000000000000000000000000000000000000000006121ee565b50505050565b8060028151811061182e57fe5b60200260200101516001148061186b57507f00000000000000000000000000000000000000000000000000000000000000006001600160a01b0316155b1561196d577f00000000000000000000000000000000000000000000000000000000000000006001600160a01b0316636e1e3bbf83836002815181106118ad57fe5b6020026020010151846000815181106118c257fe5b6020026020010151856001815181106118d757fe5b60200260200101516040518563ffffffff1660e01b815260040180856001600160a01b03166001600160a01b031681526020018481526020018381526020018281526020018060200182810382526000815260200160200195505050505050600060405180830381600087803b15801561195057600080fd5b505af1158015611964573d6000803e3d6000fd5b50505050611b0d565b7f00000000000000000000000000000000000000000000000000000000000000006001600160a01b0316636e1e3bbf7f0000000000000000000000000000000000000000000000000000000000000000836002815181106119ca57fe5b6020026020010151846000815181106119df57fe5b6020026020010151856001815181106119f457fe5b60200260200101518760405160200180826001600160a01b03166001600160a01b031681526020019150506040516020818303038152906040526040518663ffffffff1660e01b815260040180866001600160a01b03166001600160a01b0316815260200185815260200184815260200183815260200180602001828103825283818151815260200191508051906020019080838360005b83811015611aa4578181015183820152602001611a8c565b50505050905090810190601f168015611ad15780820380516001836020036101000a031916815260200191505b509650505050505050600060405180830381600087803b158015611af457600080fd5b505af1158015611b08573d6000803e3d6000fd5b505050505b61019881600181518110611b1d57fe5b60200260200101510281600081518110611b3357fe5b602002602001015101826001600160a01b0316846001600160a01b03167fe4dfa6ac11314892f3029b34a25b1a887da3b1cab2bbf8506d87128ba6e3ac0284600281518110611b7e57fe5b602002602001015185600381518110611b9357fe5b60200260200101517f000000000000000000000000000000000000000000000000000000000000000087600381518110611bc957fe5b602002602001015160405180858152602001848152602001836001600160a01b03166001600160a01b0316815260200182815260200194505050505060405180910390a4505050565b6060815167ffffffffffffffff81118015611c2c57600080fd5b50604051908082528060200260200182016040528015611c56578160200160208202803683370190505b50905060005b8251811015611c86576001828281518110611c7357fe5b6020908102919091010152600101611c5c565b507f00000000000000000000000000000000000000000000000000000000000000006001600160a01b0316632eb2c2d6308585856040518563ffffffff1660e01b815260040180856001600160a01b03166001600160a01b03168152602001846001600160a01b03166001600160a01b03168152602001806020018060200180602001848103845286818151815260200191508051906020019060200280838360005b83811015611d41578181015183820152602001611d29565b50505050905001848103835285818151815260200191508051906020019060200280838360005b83811015611d80578181015183820152602001611d68565b50505050905001848103825260008152602001602001975050505050505050600060405180830381600087803b158015611db957600080fd5b505af1158015611dcd573d6000803e3d6000fd5b50505050505050565b6001600160a01b03821660008181526001602090815260409182902080547fffffffffffffffffffffffffffffffffffffffffffffffffffffffffffffff001685151590811790915582519384529083015280517fb21eb88b4e33b3f1281830a7178d74d8aa73220416215726b68ae23d539515cb9281900390910190a15050565b60008151604114611e6857600080fd5b60208201516040830151606084015160001a601b811015611e8757601b015b8060ff16601b1480611e9c57508060ff16601c145b611ea557600080fd5b6040805160008152602080820180845289905260ff8416828401526060820186905260808201859052915160019260a0808401939192601f1981019281900390910190855afa158015611efc573d6000803e3d6000fd5b5050604051601f1901519450506001600160a01b038416611f1c57600080fd5b50505092915050565b60008787878787878760405160200180888152602001878152602001868152602001858152602001846001600160a01b03166001600160a01b031660601b8152601401838152602001828051906020019060200280838360005b83811015611f97578181015183820152602001611f7f565b50505050905001975050505050505050604051602081830303815290604052805190602001209050979650505050505050565b600081815b8451811015612069576000858281518110611fe657fe5b602002602001015190508083101561202e5782816040516020018083815260200182815260200192505050604051602081830303815290604052805190602001209250612060565b808360405160200180838152602001828152602001925050506040516020818303038152906040528051906020012092505b50600101611fcf565b507f00000000000000000000000000000000000000000000000000000000000000001490505b92915050565b6000806120ba60646120ae85600563ffffffff61247016565b9063ffffffff6124e016565b604080516323b872dd60e01b81526001600160a01b0387811660048301527f0000000000000000000000000000000000000000000000000000000000000000811660248301526044820184905291519293507f0000000000000000000000000000000000000000000000000000000000000000909116916323b872dd916064808201926020929091908290030181600087803b15801561215957600080fd5b505af115801561216d573d6000803e3d6000fd5b505050506040513d602081101561218357600080fd5b50516121d6576040805162461bcd60e51b815260206004820152601360248201527f4645455f5452414e534645525f4641494c454400000000000000000000000000604482015290519081900360640190fd5b6121e6838263ffffffff61254516565b949350505050565b8251819085901561239857606060008060008061220a8a610c0a565b939850919650945092509050600061222586868686866110f2565b156122b35761223f6122378d84612470565b6127106124e0565b9050886001600160a01b0316846001600160a01b0316866001600160a01b03167fac7a699eb95c3c6d390ec4626de17ef9a67b35891efdb197beba7c7fdd45fac48f858760405180848152602001838152602001828152602001935050505060405180910390a46122b08782612545565b96505b801561239157604080516323b872dd60e01b81526001600160a01b038f811660048301528781166024830152604482018490529151918a16916323b872dd916064808201926020929091908290030181600087803b15801561231457600080fd5b505af1158015612328573d6000803e3d6000fd5b505050506040513d602081101561233e57600080fd5b5051612391576040805162461bcd60e51b815260206004820152601960248201527f636f6d6d6973696f6e207472616e73666572206661696c656400000000000000604482015290519081900360640190fd5b5050505050505b604080516323b872dd60e01b81526001600160a01b0389811660048301528681166024830152604482018490529151918416916323b872dd916064808201926020929091908290030181600087803b1580156123f357600080fd5b505af1158015612407573d6000803e3d6000fd5b505050506040513d602081101561241d57600080fd5b5051611dcd576040805162461bcd60e51b815260206004820152601760248201527f7061796d656e74207472616e73666572206661696c6564000000000000000000604482015290519081900360640190fd5b60008261247f5750600061208f565b508181028183828161248d57fe5b041461208f576040805162461bcd60e51b815260206004820152600860248201527f6f766572666c6f77000000000000000000000000000000000000000000000000604482015290519081900360640190fd5b600081612534576040805162461bcd60e51b815260206004820152600960248201527f64697662797a65726f0000000000000000000000000000000000000000000000604482015290519081900360640190fd5b81838161253d57fe5b049392505050565b60008282111561259c576040805162461bcd60e51b815260206004820152600860248201527f756e6465666c6f77000000000000000000000000000000000000000000000000604482015290519081900360640190fd5b5090039056fe6f6e6c792061646d696e2063616e207365747570206d6574615472616e73616374696f6e50726f636573736f7273a2646970667358221220fc9205bafc138c1de206481f144dc3e7818922fbe1a20d2a71392e5e2e413c1a64736f6c63430006050033",
  "devdoc": {
    "methods": {
      "buyLandWithSand(address,address,address,uint256[],bytes32,uint256[],bytes32[],bytes,bytes)": {
        "params": {
          "buyer": "address that perform the payment",
          "info": "[X_INDEX=0] x coordinate of the Land [Y_INDEX=1] y coordinate of the Land [SIZE_INDEX=2] size of the pack of Land to purchase [PRICE_INDEX=3] price in SAND to purchase that Land",
          "proof": "merkleProof for that particular Land",
          "reserved": "the reserved address (if any)",
          "to": "address that will own the purchased Land"
        }
      },
      "changeAdmin(address)": {
        "details": "change the administrator to be `newAdmin`.",
        "params": {
          "newAdmin": "address of the new administrator."
        }
      },
      "getAdmin()": {
        "details": "gives the current administrator of this contract.",
        "returns": {
          "_0": "the current administrator of this contract."
        }
      },
      "getSigningWallet()": {
        "details": "signing wallet authorized for referral",
        "returns": {
          "_0": "the address of the signing wallet"
        }
      },
      "isMetaTransactionProcessor(address)": {
        "details": "check whether address `who` is given meta-transaction execution rights.",
        "params": {
          "who": "The address to query."
        },
        "returns": {
          "_0": "whether the address has meta-transaction execution rights."
        }
      },
      "isReferralValid(bytes,address,address,uint256,uint256)": {
        "params": {
          "commissionRate": "The commissionRate of the referral",
          "expiryTime": "The expiry time of the referral",
          "referee": "The address of the referee",
          "referrer": "The address of the referrer",
          "signature": "The signature to check (signed referral)"
        },
        "returns": {
          "_0": "True if the referral is valid"
        }
      },
      "setMetaTransactionProcessor(address,bool)": {
        "details": "Enable or disable the ability of `metaTransactionProcessor` to perform meta-tx (metaTransactionProcessor rights).",
        "params": {
          "enabled": "set whether the metaTransactionProcessor is enabled or disabled.",
          "metaTransactionProcessor": "address that will be given/removed metaTransactionProcessor rights."
        }
      },
      "setReceivingWallet(address)": {
        "params": {
          "newWallet": "address of the new receiving wallet"
        }
      },
      "updateMaxCommissionRate(uint256)": {
        "details": "Update the maximum commission rate",
        "params": {
          "newMaxCommissionRate": "The new maximum commission rate"
        }
      },
      "updateSigningWallet(address)": {
        "details": "Update the signing wallet",
        "params": {
          "newSigningWallet": "The new address of the signing wallet"
        }
      },
      "withdrawAssets(address,uint256[],uint256[])": {
        "params": {
          "assetIds": "the assetIds to be transferred",
          "to": "intended recipient of the asset tokens",
          "values": "the quantities of the assetIds to be transferred"
        }
      }
    },
    "title": "Estate Sale contract with referral"
  },
  "userdoc": {
    "methods": {
      "buyLandWithSand(address,address,address,uint256[],bytes32,uint256[],bytes32[],bytes,bytes)": {
        "notice": "buy Land with SAND using the merkle proof associated with it"
      },
      "getExpiryTime()": {
        "notice": "Gets the expiry time for the current sale"
      },
      "getMaxCommisionRate()": {
        "notice": "the max commision rate"
      },
      "getMerkleRoot()": {
        "notice": "Gets the Merkle root associated with the current sale"
      },
      "isReferralValid(bytes,address,address,uint256,uint256)": {
        "notice": "Check if a referral is valid"
      },
      "setReceivingWallet(address)": {
        "notice": "set the wallet receiving the proceeds"
      },
      "withdrawAssets(address,uint256[],uint256[])": {
        "notice": "enable Admin to withdraw remaining assets from EstateSaleWithFee contract"
      }
    },
    "notice": "This contract manages the sale of our lands as Estates"
  },
  "storageLayout": {
    "storage": [
      {
        "astId": 13650,
        "contract": "src/solc_0.6/EstateSale/EstateSaleWithAuth.sol:EstateSaleWithAuth",
        "label": "_admin",
        "offset": 0,
        "slot": "0",
        "type": "t_address"
      },
      {
        "astId": 13712,
        "contract": "src/solc_0.6/EstateSale/EstateSaleWithAuth.sol:EstateSaleWithAuth",
        "label": "_metaTransactionContracts",
        "offset": 0,
        "slot": "1",
        "type": "t_mapping(t_address,t_bool)"
      },
      {
        "astId": 11828,
        "contract": "src/solc_0.6/EstateSale/EstateSaleWithAuth.sol:EstateSaleWithAuth",
        "label": "_signingWallet",
        "offset": 0,
        "slot": "2",
        "type": "t_address"
      },
      {
        "astId": 11830,
        "contract": "src/solc_0.6/EstateSale/EstateSaleWithAuth.sol:EstateSaleWithAuth",
        "label": "_maxCommissionRate",
        "offset": 0,
        "slot": "3",
        "type": "t_uint256"
      },
      {
        "astId": 11834,
        "contract": "src/solc_0.6/EstateSale/EstateSaleWithAuth.sol:EstateSaleWithAuth",
        "label": "_previousSigningWallets",
        "offset": 0,
        "slot": "4",
        "type": "t_mapping(t_address,t_uint256)"
      },
      {
        "astId": 11843,
        "contract": "src/solc_0.6/EstateSale/EstateSaleWithAuth.sol:EstateSaleWithAuth",
        "label": "_previousSigningDelay",
        "offset": 0,
        "slot": "5",
        "type": "t_uint256"
      },
      {
        "astId": 7453,
        "contract": "src/solc_0.6/EstateSale/EstateSaleWithAuth.sol:EstateSaleWithAuth",
        "label": "_wallet",
        "offset": 0,
        "slot": "6",
        "type": "t_address_payable"
      },
      {
        "astId": 7455,
        "contract": "src/solc_0.6/EstateSale/EstateSaleWithAuth.sol:EstateSaleWithAuth",
        "label": "_authValidator",
        "offset": 0,
        "slot": "7",
        "type": "t_contract(AuthValidator)6784"
      }
    ],
    "types": {
      "t_address": {
        "encoding": "inplace",
        "label": "address",
        "numberOfBytes": "20"
      },
      "t_address_payable": {
        "encoding": "inplace",
        "label": "address payable",
        "numberOfBytes": "20"
      },
      "t_bool": {
        "encoding": "inplace",
        "label": "bool",
        "numberOfBytes": "1"
      },
      "t_contract(AuthValidator)6784": {
        "encoding": "inplace",
        "label": "contract AuthValidator",
        "numberOfBytes": "20"
      },
      "t_mapping(t_address,t_bool)": {
        "encoding": "mapping",
        "key": "t_address",
        "label": "mapping(address => bool)",
        "numberOfBytes": "32",
        "value": "t_bool"
      },
      "t_mapping(t_address,t_uint256)": {
        "encoding": "mapping",
        "key": "t_address",
        "label": "mapping(address => uint256)",
        "numberOfBytes": "32",
        "value": "t_uint256"
      },
      "t_uint256": {
        "encoding": "inplace",
        "label": "uint256",
        "numberOfBytes": "32"
      }
    }
  }
}