{
  "address": "0x908B17074CC641A94aCCd40b7B127A9375b7Bc44",
  "abi": [
    {
      "inputs": [
        {
          "internalType": "address",
          "name": "landAddress",
          "type": "address"
        },
        {
          "internalType": "address",
          "name": "sandContractAddress",
          "type": "address"
        },
        {
          "internalType": "address",
          "name": "initialMetaTx",
          "type": "address"
        },
        {
          "internalType": "address",
          "name": "admin",
          "type": "address"
        },
        {
          "internalType": "address payable",
          "name": "initialWalletAddress",
          "type": "address"
        },
        {
          "internalType": "bytes32",
          "name": "merkleRoot",
          "type": "bytes32"
        },
        {
          "internalType": "uint256",
          "name": "expiryTime",
          "type": "uint256"
        },
        {
          "internalType": "address",
          "name": "initialSigningWallet",
          "type": "address"
        },
        {
          "internalType": "uint256",
          "name": "initialMaxCommissionRate",
          "type": "uint256"
        },
        {
          "internalType": "address",
          "name": "estate",
          "type": "address"
        },
        {
          "internalType": "address",
          "name": "asset",
          "type": "address"
        },
        {
          "internalType": "address",
          "name": "feeDistributor",
          "type": "address"
        },
        {
          "internalType": "address",
          "name": "authValidator",
          "type": "address"
        }
      ],
      "stateMutability": "nonpayable",
      "type": "constructor"
    },
    {
      "anonymous": false,
      "inputs": [
        {
          "indexed": false,
          "internalType": "address",
          "name": "oldAdmin",
          "type": "address"
        },
        {
          "indexed": false,
          "internalType": "address",
          "name": "newAdmin",
          "type": "address"
        }
      ],
      "name": "AdminChanged",
      "type": "event"
    },
    {
      "anonymous": false,
      "inputs": [
        {
          "indexed": true,
          "internalType": "address",
          "name": "buyer",
          "type": "address"
        },
        {
          "indexed": true,
          "internalType": "address",
          "name": "to",
          "type": "address"
        },
        {
          "indexed": true,
          "internalType": "uint256",
          "name": "topCornerId",
          "type": "uint256"
        },
        {
          "indexed": false,
          "internalType": "uint256",
          "name": "size",
          "type": "uint256"
        },
        {
          "indexed": false,
          "internalType": "uint256",
          "name": "price",
          "type": "uint256"
        },
        {
          "indexed": false,
          "internalType": "address",
          "name": "token",
          "type": "address"
        },
        {
          "indexed": false,
          "internalType": "uint256",
          "name": "amountPaid",
          "type": "uint256"
        }
      ],
      "name": "LandQuadPurchased",
      "type": "event"
    },
    {
      "anonymous": false,
      "inputs": [
        {
          "indexed": false,
          "internalType": "address",
          "name": "metaTransactionProcessor",
          "type": "address"
        },
        {
          "indexed": false,
          "internalType": "bool",
          "name": "enabled",
          "type": "bool"
        }
      ],
      "name": "MetaTransactionProcessor",
      "type": "event"
    },
    {
      "anonymous": false,
      "inputs": [
        {
          "indexed": true,
          "internalType": "address",
          "name": "referrer",
          "type": "address"
        },
        {
          "indexed": true,
          "internalType": "address",
          "name": "referee",
          "type": "address"
        },
        {
          "indexed": true,
          "internalType": "address",
          "name": "token",
          "type": "address"
        },
        {
          "indexed": false,
          "internalType": "uint256",
          "name": "amount",
          "type": "uint256"
        },
        {
          "indexed": false,
          "internalType": "uint256",
          "name": "commission",
          "type": "uint256"
        },
        {
          "indexed": false,
          "internalType": "uint256",
          "name": "commissionRate",
          "type": "uint256"
        }
      ],
      "name": "ReferralUsed",
      "type": "event"
    },
    {
      "inputs": [
        {
          "internalType": "address",
          "name": "buyer",
          "type": "address"
        },
        {
          "internalType": "address",
          "name": "to",
          "type": "address"
        },
        {
          "internalType": "address",
          "name": "reserved",
          "type": "address"
        },
        {
          "internalType": "uint256[]",
          "name": "info",
          "type": "uint256[]"
        },
        {
          "internalType": "bytes32",
          "name": "salt",
          "type": "bytes32"
        },
        {
          "internalType": "uint256[]",
          "name": "assetIds",
          "type": "uint256[]"
        },
        {
          "internalType": "bytes32[]",
          "name": "proof",
          "type": "bytes32[]"
        },
        {
          "internalType": "bytes",
          "name": "referral",
          "type": "bytes"
        },
        {
          "internalType": "bytes",
          "name": "signature",
          "type": "bytes"
        }
      ],
      "name": "buyLandWithSand",
      "outputs": [],
      "stateMutability": "nonpayable",
      "type": "function"
    },
    {
      "inputs": [
        {
          "internalType": "address",
          "name": "newAdmin",
          "type": "address"
        }
      ],
      "name": "changeAdmin",
      "outputs": [],
      "stateMutability": "nonpayable",
      "type": "function"
    },
    {
      "inputs": [
        {
          "internalType": "bytes",
          "name": "referral",
          "type": "bytes"
        }
      ],
      "name": "decodeReferral",
      "outputs": [
        {
          "internalType": "bytes",
          "name": "",
          "type": "bytes"
        },
        {
          "internalType": "address",
          "name": "",
          "type": "address"
        },
        {
          "internalType": "address",
          "name": "",
          "type": "address"
        },
        {
          "internalType": "uint256",
          "name": "",
          "type": "uint256"
        },
        {
          "internalType": "uint256",
          "name": "",
          "type": "uint256"
        }
      ],
      "stateMutability": "pure",
      "type": "function"
    },
    {
      "inputs": [],
      "name": "getAdmin",
      "outputs": [
        {
          "internalType": "address",
          "name": "",
          "type": "address"
        }
      ],
      "stateMutability": "view",
      "type": "function"
    },
    {
      "inputs": [],
      "name": "getExpiryTime",
      "outputs": [
        {
          "internalType": "uint256",
          "name": "",
          "type": "uint256"
        }
      ],
      "stateMutability": "view",
      "type": "function"
    },
    {
      "inputs": [],
      "name": "getMaxCommisionRate",
      "outputs": [
        {
          "internalType": "uint256",
          "name": "",
          "type": "uint256"
        }
      ],
      "stateMutability": "view",
      "type": "function"
    },
    {
      "inputs": [],
      "name": "getMerkleRoot",
      "outputs": [
        {
          "internalType": "bytes32",
          "name": "",
          "type": "bytes32"
        }
      ],
      "stateMutability": "view",
      "type": "function"
    },
    {
      "inputs": [],
      "name": "getSigningWallet",
      "outputs": [
        {
          "internalType": "address",
          "name": "",
          "type": "address"
        }
      ],
      "stateMutability": "view",
      "type": "function"
    },
    {
      "inputs": [
        {
          "internalType": "address",
          "name": "who",
          "type": "address"
        }
      ],
      "name": "isMetaTransactionProcessor",
      "outputs": [
        {
          "internalType": "bool",
          "name": "",
          "type": "bool"
        }
      ],
      "stateMutability": "view",
      "type": "function"
    },
    {
      "inputs": [
        {
          "internalType": "bytes",
          "name": "signature",
          "type": "bytes"
        },
        {
          "internalType": "address",
          "name": "referrer",
          "type": "address"
        },
        {
          "internalType": "address",
          "name": "referee",
          "type": "address"
        },
        {
          "internalType": "uint256",
          "name": "expiryTime",
          "type": "uint256"
        },
        {
          "internalType": "uint256",
          "name": "commissionRate",
          "type": "uint256"
        }
      ],
      "name": "isReferralValid",
      "outputs": [
        {
          "internalType": "bool",
          "name": "",
          "type": "bool"
        }
      ],
      "stateMutability": "view",
      "type": "function"
    },
    {
      "inputs": [
        {
          "internalType": "address",
          "name": "",
          "type": "address"
        },
        {
          "internalType": "address",
          "name": "",
          "type": "address"
        },
        {
          "internalType": "uint256[]",
          "name": "",
          "type": "uint256[]"
        },
        {
          "internalType": "uint256[]",
          "name": "",
          "type": "uint256[]"
        },
        {
          "internalType": "bytes",
          "name": "",
          "type": "bytes"
        }
      ],
      "name": "onERC1155BatchReceived",
      "outputs": [
        {
          "internalType": "bytes4",
          "name": "",
          "type": "bytes4"
        }
      ],
      "stateMutability": "pure",
      "type": "function"
    },
    {
      "inputs": [
        {
          "internalType": "address",
          "name": "",
          "type": "address"
        },
        {
          "internalType": "address",
          "name": "",
          "type": "address"
        },
        {
          "internalType": "uint256",
          "name": "",
          "type": "uint256"
        },
        {
          "internalType": "uint256",
          "name": "",
          "type": "uint256"
        },
        {
          "internalType": "bytes",
          "name": "",
          "type": "bytes"
        }
      ],
      "name": "onERC1155Received",
      "outputs": [
        {
          "internalType": "bytes4",
          "name": "",
          "type": "bytes4"
        }
      ],
      "stateMutability": "pure",
      "type": "function"
    },
    {
      "inputs": [
        {
          "internalType": "address",
          "name": "metaTransactionProcessor",
          "type": "address"
        },
        {
          "internalType": "bool",
          "name": "enabled",
          "type": "bool"
        }
      ],
      "name": "setMetaTransactionProcessor",
      "outputs": [],
      "stateMutability": "nonpayable",
      "type": "function"
    },
    {
      "inputs": [
        {
          "internalType": "address payable",
          "name": "newWallet",
          "type": "address"
        }
      ],
      "name": "setReceivingWallet",
      "outputs": [],
      "stateMutability": "nonpayable",
      "type": "function"
    },
    {
      "inputs": [
        {
          "internalType": "uint256",
          "name": "newMaxCommissionRate",
          "type": "uint256"
        }
      ],
      "name": "updateMaxCommissionRate",
      "outputs": [],
      "stateMutability": "nonpayable",
      "type": "function"
    },
    {
      "inputs": [
        {
          "internalType": "address",
          "name": "newSigningWallet",
          "type": "address"
        }
      ],
      "name": "updateSigningWallet",
      "outputs": [],
      "stateMutability": "nonpayable",
      "type": "function"
    },
    {
      "inputs": [
        {
          "internalType": "address",
          "name": "to",
          "type": "address"
        },
        {
          "internalType": "uint256[]",
          "name": "assetIds",
          "type": "uint256[]"
        },
        {
          "internalType": "uint256[]",
          "name": "values",
          "type": "uint256[]"
        }
      ],
      "name": "withdrawAssets",
      "outputs": [],
      "stateMutability": "nonpayable",
      "type": "function"
    }
  ],
  "transactionHash": "0xfa025f9f631d24338cde3390466fb7ee0f507331c44007f03efad12122433fec",
  "args": [
    "0xa4C4A09cA320AfBaE81659982dE88CC63466bB51",
    "0x32F3e11d8d9B9dc50e19D41c0ED868283824767B",
    "0x32F3e11d8d9B9dc50e19D41c0ED868283824767B",
    "0x39D01ecc951C2c1f20ba0549e62212659c4d1e06",
    "0xF22455c7F2a81E197AecD951F588a9B650f5b282",
    "0x7d4d5d1b5df944cf17884aa495fdd37a1dddc3a724805ee65606562d4122a2c3",
    1670590800,
    "0xB7060D3FeCAC3AE1F0A0AA416E3e8E472257950e",
    2000,
    "0x0000000000000000000000000000000000000000",
    "0xf050cDB34C8f39d24eD12678Dc5Ab32BE8672AfE",
    "0x0977f5050c8158b277F93216f851e83a467ED9c9",
    "0xD3999edf36481d8f6636BB41fbdC936eA4BF5658"
  ],
  "numDeployments": 1,
  "linkedData": [
    {
      "x": 204,
      "y": 108,
      "size": 1,
      "price": "4683000000000000000000",
      "reserved": "",
      "salt": "0x4d9d2da5da7fb51ec3cb9fdde7f3d8a6092ba6d02d67f6c169242e82f62c25dd",
      "assetIds": [
        "41506478881403507969696680653240014914910929820314476107906210059990541021186"
      ]
    },
    {
      "x": 204,
      "y": 109,
      "size": 1,
      "price": "4683000000000000000000",
      "reserved": "",
      "salt": "0x47546ddadc841b3f8e7bd540903f81e7b5eef1536ad2004e77b9b2ea613b7fbe",
      "assetIds": [
        "41506478881403507969696680653240014914910929820314476107906210059990541021186"
      ]
    },
    {
      "x": 204,
      "y": 110,
      "size": 1,
      "price": "1011000000000000000000",
      "reserved": "",
      "salt": "0x685afbc99e2c469208b294ee537306caf6867ec09e67f99f89b45cdde10f24b3",
      "assetIds": []
    },
    {
      "x": 204,
      "y": 111,
      "size": 1,
      "price": "1011000000000000000000",
      "reserved": "",
      "salt": "0x0955120a61a28d96361c83ae82dc31bd634b14b052b872681883346bcac05f0e",
      "assetIds": []
    },
    {
      "x": 204,
      "y": 112,
      "size": 1,
      "price": "4683000000000000000000",
      "reserved": "",
      "salt": "0x13e2b2e5a50e1931de5690a94947c8848aab020ae03b4e591205faa8d0f49492",
      "assetIds": [
        "41506478881403507969696680653240014914910929820314476107906210059990541021186"
      ]
    },
    {
      "x": 204,
      "y": 113,
      "size": 1,
      "price": "4683000000000000000000",
      "reserved": "",
      "salt": "0x69d734c9917368bbbd9c647e0ed54cfdd8fe0c3563e5a57ea9cb98c2e7995c20",
      "assetIds": [
        "41506478881403507969696680653240014914910929820314476107906210059990541021186"
      ]
    },
    {
      "x": 204,
      "y": 114,
      "size": 1,
      "price": "4683000000000000000000",
      "reserved": "",
      "salt": "0x4806cfad450abf9197efcff9cbf689468f66ce43279704491cb391b213bec263",
      "assetIds": [
        "41506478881403507969696680653240014914910929820314476107906210059990541021186"
      ]
    },
    {
      "x": 204,
      "y": 115,
      "size": 1,
      "price": "4683000000000000000000",
      "reserved": "",
      "salt": "0xb5909aba04d6f930e460c825487fe5e3ac58dab15a2c53b6adb312bb5444f98d",
      "assetIds": [
        "41506478881403507969696680653240014914910929820314476107906210059990541021186"
      ]
    },
    {
      "x": 204,
      "y": 116,
      "size": 1,
      "price": "4683000000000000000000",
      "reserved": "",
      "salt": "0x5bd7ca000cd70ab6d3c420b58c9de1611993d537eab94e0e8374c81943dfc14d",
      "assetIds": [
        "41506478881403507969696680653240014914910929820314476107906210059990541021186"
      ]
    },
    {
      "x": 204,
      "y": 117,
      "size": 1,
      "price": "4683000000000000000000",
      "reserved": "",
      "salt": "0xc95139d42e36bbe91a9a5f516c8bff67fb8b3e0e68bb5aaae2e4df770849dd7d",
      "assetIds": [
        "41506478881403507969696680653240014914910929820314476107906210059990541021186"
      ]
    },
    {
      "x": 204,
      "y": 118,
      "size": 1,
      "price": "4683000000000000000000",
      "reserved": "",
      "salt": "0x1bf26843cafde3a6d1d93536a5ec3a5bc619c1adef4fc470a3fe4943b3b58cbb",
      "assetIds": [
        "41506478881403507969696680653240014914910929820314476107906210059990541021186"
      ]
    },
    {
      "x": 204,
      "y": 119,
      "size": 1,
      "price": "4683000000000000000000",
      "reserved": "",
      "salt": "0xae66f4629abfeb8cf44f5f9cf7f2e93db7897ec38967d09e1ed0b92d00537ffb",
      "assetIds": [
        "41506478881403507969696680653240014914910929820314476107906210059990541021186"
      ]
    },
    {
      "x": 205,
      "y": 108,
      "size": 1,
      "price": "4683000000000000000000",
      "reserved": "",
      "salt": "0xd261ebb9b601565ade06bcc4aa7cd7b31f7304d5ce132ad4830d07c4a272b387",
      "assetIds": [
        "41506478881403507969696680653240014914910929820314476107906210059990541021186"
      ]
    },
    {
      "x": 205,
      "y": 109,
      "size": 1,
      "price": "4683000000000000000000",
      "reserved": "",
      "salt": "0x5a9057066af63a5cc3ce413e9b7a64d00147ab60279096bb1a8e54e73006f1ec",
      "assetIds": [
        "41506478881403507969696680653240014914910929820314476107906210059990541021186"
      ]
    },
    {
      "x": 205,
      "y": 110,
      "size": 1,
      "price": "1011000000000000000000",
      "reserved": "",
      "salt": "0x6ff1d4414b1858b252ecee34b74eaf9ba9443b6c8fe2e1d2bd1dc0a2554a0cdc",
      "assetIds": []
    },
    {
      "x": 205,
      "y": 111,
      "size": 1,
      "price": "1011000000000000000000",
      "reserved": "",
      "salt": "0xd6185d491bf92108239165b35789f8a2dfa9b2a27634aa9cd61971990458ec04",
      "assetIds": []
    },
    {
      "x": 205,
      "y": 112,
      "size": 1,
      "price": "1011000000000000000000",
      "reserved": "",
      "salt": "0xae70674d680abd8b27206bd0d33e9ad935041b7ad867b80c81b6e1cf11b51ec0",
      "assetIds": []
    },
    {
      "x": 205,
      "y": 113,
      "size": 1,
      "price": "4683000000000000000000",
      "reserved": "",
      "salt": "0x2e27a85cea8c8e05474a2aa978722208d19c0982d62e6e2c1f7090d89951f1ec",
      "assetIds": [
        "41506478881403507969696680653240014914910929820314476107906210059990541021186"
      ]
    },
    {
      "x": 205,
      "y": 114,
      "size": 1,
      "price": "4683000000000000000000",
      "reserved": "",
      "salt": "0xfadd10013da0fe16e0da43f21f7aa8036bd0d9fce1295c6ac8b5502c19f58aa2",
      "assetIds": [
        "41506478881403507969696680653240014914910929820314476107906210059990541021186"
      ]
    },
    {
      "x": 205,
      "y": 115,
      "size": 1,
      "price": "4683000000000000000000",
      "reserved": "",
      "salt": "0x975b0343d67a33e73f1f4cac2ba6694c9ba603a0dbdac99011185c234a0093cf",
      "assetIds": [
        "41506478881403507969696680653240014914910929820314476107906210059990541021186"
      ]
    },
    {
      "x": 205,
      "y": 116,
      "size": 1,
      "price": "4683000000000000000000",
      "reserved": "",
      "salt": "0xa83c12d9648c57d61229a2c99189ca6ae55c65ae11a79355501054cca8ae5c1c",
      "assetIds": [
        "41506478881403507969696680653240014914910929820314476107906210059990541021186"
      ]
    },
    {
      "x": 205,
      "y": 117,
      "size": 1,
      "price": "4683000000000000000000",
      "reserved": "",
      "salt": "0xac745460cf93f403780ef5c185cbe1d6f4101fb701336420950d8b3da2338b15",
      "assetIds": [
        "41506478881403507969696680653240014914910929820314476107906210059990541021186"
      ]
    },
    {
      "x": 205,
      "y": 118,
      "size": 1,
      "price": "4683000000000000000000",
      "reserved": "",
      "salt": "0x1868bf474a3ae3bde5dc8c107d5bf95fffd3333d1291ca2c6c8f9068800fcb31",
      "assetIds": [
        "41506478881403507969696680653240014914910929820314476107906210059990541021186"
      ]
    },
    {
      "x": 205,
      "y": 119,
      "size": 1,
      "price": "4683000000000000000000",
      "reserved": "",
      "salt": "0x9efcbfb1481dea4a66383e2277e474729ea9537c66d83ff76e46e435d937c98d",
      "assetIds": [
        "41506478881403507969696680653240014914910929820314476107906210059990541021186"
      ]
    },
    {
      "x": 206,
      "y": 108,
      "size": 1,
      "price": "4683000000000000000000",
      "reserved": "",
      "salt": "0x6dc7730650456b8ade57c8c1d5548508849d3ef8b59f4341796de7f24b9a43ea",
      "assetIds": [
        "41506478881403507969696680653240014914910929820314476107906210059990541021186"
      ]
    },
    {
      "x": 206,
      "y": 109,
      "size": 1,
      "price": "4683000000000000000000",
      "reserved": "",
      "salt": "0x4b737b1e20c571abba972f4db5bdd1050259d27ba3275bc955ff739a975b1acf",
      "assetIds": [
        "41506478881403507969696680653240014914910929820314476107906210059990541021186"
      ]
    },
    {
      "x": 206,
      "y": 110,
      "size": 1,
      "price": "1011000000000000000000",
      "reserved": "",
      "salt": "0xcb35c9654d1894246353249d61a69a85591561c12150a5151432471c1e2fcf03",
      "assetIds": []
    },
    {
      "x": 206,
      "y": 111,
      "size": 1,
      "price": "1011000000000000000000",
      "reserved": "",
      "salt": "0xf374adfe3bc7cfb30e80fa85e42c6ac655b60a866bffbc0b2c14def280b9ee04",
      "assetIds": []
    },
    {
      "x": 206,
      "y": 112,
      "size": 1,
      "price": "1011000000000000000000",
      "reserved": "",
      "salt": "0xf7485c7bd7c6133b77bd5b06edbe4e6b16f5aae8e26d2fa90488f17c4c829859",
      "assetIds": []
    },
    {
      "x": 206,
      "y": 113,
      "size": 1,
      "price": "1011000000000000000000",
      "reserved": "",
      "salt": "0xb81229f9263b00a05053e09d57826326d89d4bbfeed5866fcf78a201e086605c",
      "assetIds": []
    },
    {
      "x": 206,
      "y": 114,
      "size": 1,
      "price": "1011000000000000000000",
      "reserved": "",
      "salt": "0x26c0f4b416341603dc0c96c9e44c2d5ad144be96c2d82b884fd7bb6085291fb7",
      "assetIds": []
    },
    {
      "x": 206,
      "y": 115,
      "size": 1,
      "price": "1011000000000000000000",
      "reserved": "",
      "salt": "0xead607de8475adc07fcf88930d795d4c2840988a63b723545a4def2f5091e334",
      "assetIds": []
    },
    {
      "x": 206,
      "y": 116,
      "size": 1,
      "price": "1011000000000000000000",
      "reserved": "",
      "salt": "0x3fe34bb2a561a588a3457e0c92a6482b1b491bacf52bbeae23a4d27b68f043a8",
      "assetIds": []
    },
    {
      "x": 206,
      "y": 117,
      "size": 1,
      "price": "1011000000000000000000",
      "reserved": "",
      "salt": "0xf5a98c8740abf3554ba8c9d65ab1c29d92f35619283163d9fc33c9deeb2c5555",
      "assetIds": []
    },
    {
      "x": 206,
      "y": 118,
      "size": 1,
      "price": "4683000000000000000000",
      "reserved": "",
      "salt": "0x56891c958b54c60605e37815a802cff557b4b4c8c5fdfba410fda581dbc0451a",
      "assetIds": [
        "41506478881403507969696680653240014914910929820314476107906210059990541021186"
      ]
    },
    {
      "x": 206,
      "y": 119,
      "size": 1,
      "price": "4683000000000000000000",
      "reserved": "",
      "salt": "0xeba3f9041125a122f3fe67315e38d411983d7356893722d3211f02f7065b5df7",
      "assetIds": [
        "41506478881403507969696680653240014914910929820314476107906210059990541021186"
      ]
    },
    {
      "x": 207,
      "y": 108,
      "size": 1,
      "price": "4683000000000000000000",
      "reserved": "",
      "salt": "0xd699e8084747c2091bb5aed3502ebcbf0a9f29c5c02ba9b10904327ab756528d",
      "assetIds": [
        "41506478881403507969696680653240014914910929820314476107906210059990541021186"
      ]
    },
    {
      "x": 207,
      "y": 109,
      "size": 1,
      "price": "4683000000000000000000",
      "reserved": "",
      "salt": "0xa08ef8ed69cbc78ae72ed489920a31577d307c78fc30ed02ad742869a1df7b1e",
      "assetIds": [
        "41506478881403507969696680653240014914910929820314476107906210059990541021186"
      ]
    },
    {
      "x": 207,
      "y": 110,
      "size": 1,
      "price": "1011000000000000000000",
      "reserved": "",
      "salt": "0x89f30e36ea2076fc5ae7995484117b7aed8a205a793c51a81c259900881a4362",
      "assetIds": []
    },
    {
      "x": 207,
      "y": 111,
      "size": 1,
      "price": "1011000000000000000000",
      "reserved": "",
      "salt": "0x5460e254beca992852edf9d33ee9e625f9ff493ce9608d029f91a9c7d2ece500",
      "assetIds": []
    },
    {
      "x": 207,
      "y": 112,
      "size": 1,
      "price": "1011000000000000000000",
      "reserved": "",
      "salt": "0x322a3b0e8d44afc1ac0a55f6e01bace3ea64841a17dc534e670cfdd4ee53b308",
      "assetIds": []
    },
    {
      "x": 207,
      "y": 113,
      "size": 1,
      "price": "1011000000000000000000",
      "reserved": "",
      "salt": "0x3d0256dfe18469f2055c31a0736b29d04ffb18138ed9704a051327a766e2cc4f",
      "assetIds": []
    },
    {
      "x": 207,
      "y": 114,
      "size": 1,
      "price": "1011000000000000000000",
      "reserved": "",
      "salt": "0x7654103aab5df79f3109eea04115711db8a9da35a49ea24efb0fdb5a0c6e4492",
      "assetIds": []
    },
    {
      "x": 207,
      "y": 115,
      "size": 1,
      "price": "1011000000000000000000",
      "reserved": "",
      "salt": "0xfdd5d1d6202f96251798cc25d72fe6bdc6954263cc4dbccb95ca6d2b86bba65d",
      "assetIds": []
    },
    {
      "x": 207,
      "y": 116,
      "size": 1,
      "price": "1011000000000000000000",
      "reserved": "",
      "salt": "0x287ea34e2a78d6f86259b369c66159b6df9a0364f485f45afff13a92a0074363",
      "assetIds": []
    },
    {
      "x": 208,
      "y": 108,
      "size": 1,
      "price": "4683000000000000000000",
      "reserved": "",
      "salt": "0xba3cde8ddf1a59a415b942329a77870cf96ca489fad186f046b0d13ef7b6bc05",
      "assetIds": [
        "41506478881403507969696680653240014914910929820314476107906210059990541021186"
      ]
    },
    {
      "x": 208,
      "y": 109,
      "size": 1,
      "price": "4683000000000000000000",
      "reserved": "",
      "salt": "0x8ce5456d0ba01d9d689739a211485e5a81a82c7e6d3301232cf6611e58812b50",
      "assetIds": [
        "41506478881403507969696680653240014914910929820314476107906210059990541021186"
      ]
    },
    {
      "x": 208,
      "y": 110,
      "size": 1,
      "price": "1011000000000000000000",
      "reserved": "",
      "salt": "0x8e218855b998e64d43fdd0a1203a0f597930aa51c30f82d614aaa1f6410e4bdd",
      "assetIds": []
    },
    {
      "x": 208,
      "y": 111,
      "size": 1,
      "price": "1011000000000000000000",
      "reserved": "",
      "salt": "0x1832c4f636c60b58e50d8fb9387f02bda5324c0f596199e19d1af3e51a567bc5",
      "assetIds": []
    },
    {
      "x": 208,
      "y": 112,
      "size": 1,
      "price": "1011000000000000000000",
      "reserved": "",
      "salt": "0x3ab90e46d08bd7e48b04c626431508a313ec572e4d6b739535f4e4dd9350c7d7",
      "assetIds": []
    },
    {
      "x": 208,
      "y": 113,
      "size": 1,
      "price": "1011000000000000000000",
      "reserved": "",
      "salt": "0x91eb08573a9e991cefa08e67a564fe3fc1847fd9341c4245f776e9974797ba30",
      "assetIds": []
    },
    {
      "x": 208,
      "y": 114,
      "size": 1,
      "price": "1011000000000000000000",
      "reserved": "",
      "salt": "0xa6e1f0dcca8061e13832ead3a9b449606a5032ec874c3f9d8fef70bb704c611d",
      "assetIds": []
    },
    {
      "x": 208,
      "y": 115,
      "size": 1,
      "price": "1011000000000000000000",
      "reserved": "",
      "salt": "0xbb45b5ea48a83aca409deef261ef57cc2b42b97bbb17a4400b6787ef80177156",
      "assetIds": []
    },
    {
      "x": 208,
      "y": 116,
      "size": 1,
      "price": "1011000000000000000000",
      "reserved": "",
      "salt": "0x5af4a15396bcc3298916938ccac15b191e00a6c9559587b782bd600149bd616e",
      "assetIds": []
    },
    {
      "x": 209,
      "y": 108,
      "size": 1,
      "price": "4683000000000000000000",
      "reserved": "",
      "salt": "0xe0ac47eaafdb4e02ab9f39ded17ad0ee4718cfacaaaa0e043757cac1f348b0d9",
      "assetIds": [
        "41506478881403507969696680653240014914910929820314476107906210059990541021186"
      ]
    },
    {
      "x": 209,
      "y": 109,
      "size": 1,
      "price": "4683000000000000000000",
      "reserved": "",
      "salt": "0xebb24775de7d33f588a84a887caec5eb2990c043f3172e5174ffe484114fa6e8",
      "assetIds": [
        "41506478881403507969696680653240014914910929820314476107906210059990541021186"
      ]
    },
    {
      "x": 209,
      "y": 110,
      "size": 1,
      "price": "1011000000000000000000",
      "reserved": "",
      "salt": "0x2815d8a1e7fcb629bcd4efcdc566d19878437408a5ce5db11ff2f1d7d662282a",
      "assetIds": []
    },
    {
      "x": 209,
      "y": 111,
      "size": 1,
      "price": "1011000000000000000000",
      "reserved": "",
      "salt": "0xe8a251f467dc52629ec7b8023869942ff4d8d667b768475c8fc1d745a8dee127",
      "assetIds": []
    },
    {
      "x": 209,
      "y": 112,
      "size": 1,
      "price": "1011000000000000000000",
      "reserved": "",
      "salt": "0xe4d7f53fa531c93f1698d8cd7598098a39014d0923ab7cdff832d92692cb9439",
      "assetIds": []
    },
    {
      "x": 209,
      "y": 113,
      "size": 1,
      "price": "1011000000000000000000",
      "reserved": "",
      "salt": "0xb454d53d07b3e7026ec964f1a2ef54d2e90693ee792d2d77ab4c01fd490a53dc",
      "assetIds": []
    },
    {
      "x": 209,
      "y": 114,
      "size": 1,
      "price": "1011000000000000000000",
      "reserved": "",
      "salt": "0xb32830972935a751fa5d21cd7edd6853974bed8e8acd8eafad3b7263e2bd6837",
      "assetIds": []
    },
    {
      "x": 209,
      "y": 115,
      "size": 1,
      "price": "1011000000000000000000",
      "reserved": "",
      "salt": "0xf75677fa13849590e07f12a20d2d73cdbb7e46ec703bdef7c840fa5d34930e88",
      "assetIds": []
    },
    {
      "x": 209,
      "y": 116,
      "size": 1,
      "price": "1011000000000000000000",
      "reserved": "",
      "salt": "0x9d84a04f297b9610760ff7d0c4dc0a1205b378a4ed918e5d5155afbcc945849e",
      "assetIds": []
    },
    {
      "x": 210,
      "y": 102,
      "size": 1,
      "price": "4683000000000000000000",
      "reserved": "",
      "salt": "0xa8821f9b30924945052875a48dc580871038539d860be374f2364295145a550f",
      "assetIds": [
        "41506478881403507969696680653240014914910929820314476107906210059990541021186"
      ]
    },
    {
      "x": 210,
      "y": 103,
      "size": 1,
      "price": "4683000000000000000000",
      "reserved": "",
      "salt": "0x74acf64275e90e5faac2afdac84d0cbf144a4638983c7b23dd2412eba476476a",
      "assetIds": [
        "41506478881403507969696680653240014914910929820314476107906210059990541021186"
      ]
    },
    {
      "x": 210,
      "y": 104,
      "size": 1,
      "price": "4683000000000000000000",
      "reserved": "",
      "salt": "0xac78e49600d2de34e17c59abd80a21764c55cf3d812f7588f8a9314911200435",
      "assetIds": [
        "41506478881403507969696680653240014914910929820314476107906210059990541021186"
      ]
    },
    {
      "x": 210,
      "y": 105,
      "size": 1,
      "price": "4683000000000000000000",
      "reserved": "",
      "salt": "0x68cc07b6ee25082c475970d41a9525d9e307afb8075755170231feff4f374f59",
      "assetIds": [
        "41506478881403507969696680653240014914910929820314476107906210059990541021186"
      ]
    },
    {
      "x": 210,
      "y": 106,
      "size": 1,
      "price": "4683000000000000000000",
      "reserved": "",
      "salt": "0xf0b17d00adb4f1d85f76d03dfb9bca928c3cb73d6085563d2204a147f7fe95ce",
      "assetIds": [
        "41506478881403507969696680653240014914910929820314476107906210059990541021186"
      ]
    },
    {
      "x": 210,
      "y": 107,
      "size": 1,
      "price": "4683000000000000000000",
      "reserved": "",
      "salt": "0x6bd4e14d81174bf1b8d2ceb641bbfd1956df7881a13a6f4d9d90b923939fb5b2",
      "assetIds": [
        "41506478881403507969696680653240014914910929820314476107906210059990541021186"
      ]
    },
    {
      "x": 210,
      "y": 108,
      "size": 1,
      "price": "4683000000000000000000",
      "reserved": "",
      "salt": "0x5c7597e2737308dc5e1091664db26dbd5d7bb4d4ed32fb000e16468cd91b7c43",
      "assetIds": [
        "41506478881403507969696680653240014914910929820314476107906210059990541021186"
      ]
    },
    {
      "x": 210,
      "y": 109,
      "size": 1,
      "price": "4683000000000000000000",
      "reserved": "",
      "salt": "0xad88102c595688970c377ae34587a2bf0291ec108a0720a20055dd47afd03632",
      "assetIds": [
        "41506478881403507969696680653240014914910929820314476107906210059990541021186"
      ]
    },
    {
      "x": 210,
      "y": 110,
      "size": 1,
      "price": "1011000000000000000000",
      "reserved": "",
      "salt": "0x0fe999b6fe5cde95243c8a6324f221a042a548d54c2f389ef828a5a5e99eca9f",
      "assetIds": []
    },
    {
      "x": 210,
      "y": 111,
      "size": 1,
      "price": "1011000000000000000000",
      "reserved": "",
      "salt": "0x06c9466d0bffed767f8e2348a0a2f3942a7cd1e9eb74d2abfd60613c50ad3d95",
      "assetIds": []
    },
    {
      "x": 210,
      "y": 112,
      "size": 1,
      "price": "1011000000000000000000",
      "reserved": "",
      "salt": "0x3c12809f19ceaf3f8710077f9c69b0dd7a8c5392e8b6c26b651ef81245d2e466",
      "assetIds": []
    },
    {
      "x": 210,
      "y": 113,
      "size": 1,
      "price": "1011000000000000000000",
      "reserved": "",
      "salt": "0xe9a5de6841e90a9e8efc11261c2c1686db147b49d3e58c6287b65ce3499d07f0",
      "assetIds": []
    },
    {
      "x": 210,
      "y": 114,
      "size": 1,
      "price": "1011000000000000000000",
      "reserved": "",
      "salt": "0xc132029b77dec177fab212948b59a4989cb943a1ace1c20743ab3c8ac435416e",
      "assetIds": []
    },
    {
      "x": 210,
      "y": 115,
      "size": 1,
      "price": "1011000000000000000000",
      "reserved": "",
      "salt": "0x0a24a8c35362bb19825223f81fe0c956cfccdf5554442e00547f26dbe9beedd0",
      "assetIds": []
    },
    {
      "x": 210,
      "y": 116,
      "size": 1,
      "price": "4683000000000000000000",
      "reserved": "",
      "salt": "0x8e4a204ff354b8e762b19cb900c0536c958dc9260a9e09462c43d1dc32a14011",
      "assetIds": [
        "41506478881403507969696680653240014914910929820314476107906210059990541021186"
      ]
    },
    {
      "x": 211,
      "y": 102,
      "size": 1,
      "price": "4683000000000000000000",
      "reserved": "",
      "salt": "0xd2fd010d0e07ca317b14585acd371a7a793a441e4fb70982cdb2e99e570c8530",
      "assetIds": [
        "41506478881403507969696680653240014914910929820314476107906210059990541021186"
      ]
    },
    {
      "x": 211,
      "y": 103,
      "size": 1,
      "price": "4683000000000000000000",
      "reserved": "",
      "salt": "0x5545f821f348430790cbc7d46376044a060e496cc43aae77b75c4dd3aad23857",
      "assetIds": [
        "41506478881403507969696680653240014914910929820314476107906210059990541021186"
      ]
    },
    {
      "x": 211,
      "y": 104,
      "size": 1,
      "price": "4683000000000000000000",
      "reserved": "",
      "salt": "0xfc4ee54ec72c1ec8f0ae5a3898986eec1c72b9c0d24376269c7cac2f1d2a4914",
      "assetIds": [
        "41506478881403507969696680653240014914910929820314476107906210059990541021186"
      ]
    },
    {
      "x": 211,
      "y": 105,
      "size": 1,
      "price": "4683000000000000000000",
      "reserved": "",
      "salt": "0x4331f2393bc5183d05755705bf2ad03e1cf13fc4b0ef2dcab470c601928d9123",
      "assetIds": [
        "41506478881403507969696680653240014914910929820314476107906210059990541021186"
      ]
    },
    {
      "x": 211,
      "y": 106,
      "size": 1,
      "price": "4683000000000000000000",
      "reserved": "",
      "salt": "0x064950bff9f3b20b9d2dab64d4d2e57ce9e1d32487e077597722d872eb4b8dd5",
      "assetIds": [
        "41506478881403507969696680653240014914910929820314476107906210059990541021186"
      ]
    },
    {
      "x": 211,
      "y": 107,
      "size": 1,
      "price": "4683000000000000000000",
      "reserved": "",
      "salt": "0x800dc49a2a843aa63eaa3343f90e40544e4854ea7263259747451240f980809b",
      "assetIds": [
        "41506478881403507969696680653240014914910929820314476107906210059990541021186"
      ]
    },
    {
      "x": 211,
      "y": 108,
      "size": 1,
      "price": "4683000000000000000000",
      "reserved": "",
      "salt": "0x2e3eac1a507292791c2afaa1d9127f059e57bac6cd59d61de6791d1c575faaee",
      "assetIds": [
        "41506478881403507969696680653240014914910929820314476107906210059990541021186"
      ]
    },
    {
      "x": 211,
      "y": 109,
      "size": 1,
      "price": "1011000000000000000000",
      "reserved": "",
      "salt": "0xfa578dea681e1a3ddb382c34c1e6409fa1f3e1de61516b1b23aa4506e1f337bd",
      "assetIds": []
    },
    {
      "x": 211,
      "y": 110,
      "size": 1,
      "price": "1011000000000000000000",
      "reserved": "",
      "salt": "0x0301397048734ba4e50fdfe2873a3b422fac3deb2e615003697303a602fdd1ee",
      "assetIds": []
    },
    {
      "x": 211,
      "y": 111,
      "size": 1,
      "price": "1011000000000000000000",
      "reserved": "",
      "salt": "0xb6f07ae81f8fdc7f81294172fd57f4a263d4aceb7c38021fe4de8f5872689cfc",
      "assetIds": []
    },
    {
      "x": 211,
      "y": 112,
      "size": 1,
      "price": "1011000000000000000000",
      "reserved": "",
      "salt": "0x14eeed01d3c1bb644a0cf5951bf98b5302a0754d113c4d2393b6380347092c50",
      "assetIds": []
    },
    {
      "x": 211,
      "y": 113,
      "size": 1,
      "price": "1011000000000000000000",
      "reserved": "",
      "salt": "0x677f635b57be72460d2fc97d31b9c9bb2bbb5195736ddec7687cc566d4ed07b6",
      "assetIds": []
    },
    {
      "x": 211,
      "y": 114,
      "size": 1,
      "price": "1011000000000000000000",
      "reserved": "",
      "salt": "0x8c162edb4295e7985ce3825169e4c182d1e8b8c99e4653c532ce482b60b73e6f",
      "assetIds": []
    },
    {
      "x": 211,
      "y": 115,
      "size": 1,
      "price": "1011000000000000000000",
      "reserved": "",
      "salt": "0xac80b7cbb585f110091b7d92c6d48e16cce35e6e0787d67ed48bb549eca04707",
      "assetIds": []
    },
    {
      "x": 211,
      "y": 116,
      "size": 1,
      "price": "4683000000000000000000",
      "reserved": "",
      "salt": "0xd0e7ae7efa83571645fab98c3dd1e5d9b555f7b3ae15286c76e0470992c12465",
      "assetIds": [
        "41506478881403507969696680653240014914910929820314476107906210059990541021186"
      ]
    },
    {
      "x": 212,
      "y": 102,
      "size": 1,
      "price": "1011000000000000000000",
      "reserved": "",
      "salt": "0xd733a23fdd1ad452ef1955b3a5324463f877370b2e16a4bba2d56090fba4c703",
      "assetIds": []
    },
    {
      "x": 212,
      "y": 103,
      "size": 1,
      "price": "1011000000000000000000",
      "reserved": "",
      "salt": "0x8fb986e3812b569d698bd4dfb0b58a3468745c6cab97cd9bd46d9a989471fef5",
      "assetIds": []
    },
    {
      "x": 212,
      "y": 104,
      "size": 1,
      "price": "1011000000000000000000",
      "reserved": "",
      "salt": "0xd60c025356f08043311a53700ae7bcad93d1045f0b3cb7e2304b65ddbcf2b4e2",
      "assetIds": []
    },
    {
      "x": 212,
      "y": 105,
      "size": 1,
      "price": "1011000000000000000000",
      "reserved": "",
      "salt": "0x12fce5241e669b85a9644ae29cc662d30cf0f71eeaf021699da64b3548a48a2f",
      "assetIds": []
    },
    {
      "x": 212,
      "y": 106,
      "size": 1,
      "price": "1011000000000000000000",
      "reserved": "",
      "salt": "0x68eef3d2e96723f3c2b6fa6bed2ea22e78ac54abe775adfd1d6a0c1f9ac3d8e4",
      "assetIds": []
    },
    {
      "x": 212,
      "y": 107,
      "size": 1,
      "price": "1011000000000000000000",
      "reserved": "",
      "salt": "0xa9aae89fd622405635b4e0c67037d5d594231fc3d2d7fba1dcfdfd01c6bba12d",
      "assetIds": []
    },
    {
      "x": 212,
      "y": 108,
      "size": 1,
      "price": "1011000000000000000000",
      "reserved": "",
      "salt": "0xe87c8f42551d6c91c7ce0530aea31149e9eb330488ec32a13be6d0b49f1ebe10",
      "assetIds": []
    },
    {
      "x": 212,
      "y": 109,
      "size": 1,
      "price": "1011000000000000000000",
      "reserved": "",
      "salt": "0x97b0e5e0b7ab90cb9c2231256b29d08ea31d7b7fce34ab1fae29bceaae0a2fe8",
      "assetIds": []
    },
    {
      "x": 212,
      "y": 110,
      "size": 1,
      "price": "1011000000000000000000",
      "reserved": "",
      "salt": "0xe94e6340920a64af203b076e952e82d9b261fd3d4a915bda0c1959797ab3fd34",
      "assetIds": []
    },
    {
      "x": 212,
      "y": 111,
      "size": 1,
      "price": "1011000000000000000000",
      "reserved": "",
      "salt": "0x422f339340cac6a5acb901911837caa784bb7874cd674d26163c0e3a7c0f44e0",
      "assetIds": []
    },
    {
      "x": 212,
      "y": 112,
      "size": 1,
      "price": "1011000000000000000000",
      "reserved": "",
      "salt": "0xc6b53a18dbe25c99df1d0b6aee038835a7f0846927aaabf213af49d5bb3ace16",
      "assetIds": []
    },
    {
      "x": 212,
      "y": 113,
      "size": 1,
      "price": "1011000000000000000000",
      "reserved": "",
      "salt": "0x85529ff1b2a08e5441278b92b9674b7771817d96df2d2b94c45355be8f9e3248",
      "assetIds": []
    },
    {
      "x": 212,
      "y": 114,
      "size": 1,
      "price": "1011000000000000000000",
      "reserved": "",
      "salt": "0x0bf95648341eec5e040ed6945f8f4beaa764ef27667c88b0b26f6d7439eec6fe",
      "assetIds": []
    },
    {
      "x": 212,
      "y": 115,
      "size": 1,
      "price": "1011000000000000000000",
      "reserved": "",
      "salt": "0x28fb12c3cfa99e6fcd8b1622829db952a3f0869d7c3a843d6e16be2bb9f8a628",
      "assetIds": []
    },
    {
      "x": 212,
      "y": 116,
      "size": 1,
      "price": "4683000000000000000000",
      "reserved": "",
      "salt": "0x1b09452b7c49d41d719e779b675ed88f2c37150c341fe64aeb6f10238bbaa1f3",
      "assetIds": [
        "41506478881403507969696680653240014914910929820314476107906210059990541021186"
      ]
    },
    {
      "x": 213,
      "y": 102,
      "size": 1,
      "price": "1011000000000000000000",
      "reserved": "",
      "salt": "0xbc0341dd7cfc5b21ff9a0a8940461588fe6589033808801d2bc1dc63b58076f0",
      "assetIds": []
    },
    {
      "x": 213,
      "y": 103,
      "size": 1,
      "price": "1011000000000000000000",
      "reserved": "",
      "salt": "0x41898338ac5766927cb808a0d2c10795774d993a094c9ed5799c942b7e8085fd",
      "assetIds": []
    },
    {
      "x": 213,
      "y": 104,
      "size": 1,
      "price": "1011000000000000000000",
      "reserved": "",
      "salt": "0x5f0382b6d66f6f7983bf3b992398bcaa4c6c7adb568851cfb82acca71381556c",
      "assetIds": []
    },
    {
      "x": 213,
      "y": 105,
      "size": 1,
      "price": "1011000000000000000000",
      "reserved": "",
      "salt": "0x5f171d2f978370bf1c624b4c8dffea614b6a1cf42e2c54474cf750373dfbe1b5",
      "assetIds": []
    },
    {
      "x": 213,
      "y": 106,
      "size": 1,
      "price": "1011000000000000000000",
      "reserved": "",
      "salt": "0x9c35e8eaa2a593732009251937714d024dabb212e9b6b8acf26fba2f71dca25c",
      "assetIds": []
    },
    {
      "x": 213,
      "y": 107,
      "size": 1,
      "price": "1011000000000000000000",
      "reserved": "",
      "salt": "0x8ec060ba49a78bb0d37f1a555ec09be643165c2984675d8d531015259af139d3",
      "assetIds": []
    },
    {
      "x": 213,
      "y": 114,
      "size": 1,
      "price": "1011000000000000000000",
      "reserved": "",
      "salt": "0x9b7f25f2590015c353d004b642150b0884e731abfbe5b3158d92e50330604e17",
      "assetIds": []
    },
    {
      "x": 213,
      "y": 115,
      "size": 1,
      "price": "1011000000000000000000",
      "reserved": "",
      "salt": "0x8032dc882bb90115bc78d42a71c923e4b5bf664bfe58a1acffa0155afd3d220b",
      "assetIds": []
    },
    {
      "x": 213,
      "y": 116,
      "size": 1,
      "price": "1011000000000000000000",
      "reserved": "",
      "salt": "0xcefe84a1557fca2fa07ec2b888db8afa930f674dd8997b5586b52ba3a00b07de",
      "assetIds": []
    },
    {
      "x": 213,
      "y": 117,
      "size": 1,
      "price": "4683000000000000000000",
      "reserved": "",
      "salt": "0xc1f0be9d6dea2f013063f0b87141b72f8d52734b2de188b5f0def19b6fd9bb33",
      "assetIds": [
        "41506478881403507969696680653240014914910929820314476107906210059990541021186"
      ]
    },
    {
      "x": 213,
      "y": 118,
      "size": 1,
      "price": "4683000000000000000000",
      "reserved": "",
      "salt": "0x4511f78ed217a5ed1990e8389210c12e46b99677f5c254037da01d026216f8df",
      "assetIds": [
        "41506478881403507969696680653240014914910929820314476107906210059990541021186"
      ]
    },
    {
      "x": 213,
      "y": 119,
      "size": 1,
      "price": "4683000000000000000000",
      "reserved": "",
      "salt": "0x7e09ac82ded0bc18bdf48e0582f2ae0a7917672396c0e58c18eaa1ad21a9eb6a",
      "assetIds": [
        "41506478881403507969696680653240014914910929820314476107906210059990541021186"
      ]
    },
    {
      "x": 214,
      "y": 102,
      "size": 1,
      "price": "1011000000000000000000",
      "reserved": "",
      "salt": "0xf8b2dffac445673d1d2c68d9f740e7b3e87726d05bc79c0d14888ef33ef317d2",
      "assetIds": []
    },
    {
      "x": 214,
      "y": 103,
      "size": 1,
      "price": "1011000000000000000000",
      "reserved": "",
      "salt": "0x4971c46f1cf1c549fbdbaccaff6889043ce626cb04f80b89dba899c27b67969c",
      "assetIds": []
    },
    {
      "x": 214,
      "y": 104,
      "size": 1,
      "price": "1011000000000000000000",
      "reserved": "",
      "salt": "0x8f5aedb1163997eb4d473fdcf3d1e7bb45afa9660ae81c1b945ffe120d601341",
      "assetIds": []
    },
    {
      "x": 214,
      "y": 105,
      "size": 1,
      "price": "1011000000000000000000",
      "reserved": "",
      "salt": "0xcded07f0e4d51ddc143f01d6552313e40c8fdbac6a85b488eb114213eb68ac8c",
      "assetIds": []
    },
    {
      "x": 214,
      "y": 106,
      "size": 1,
      "price": "1011000000000000000000",
      "reserved": "",
      "salt": "0xdb0d2052e6ca53c076f9bb80b79a75edf0f8c34b85ec938c4f51e236b7f0a997",
      "assetIds": []
    },
    {
      "x": 214,
      "y": 107,
      "size": 1,
      "price": "1011000000000000000000",
      "reserved": "",
      "salt": "0x92b59b5c5671b6b95ae7586dec654b6607d1402bf165aa773a759109aa5e90f6",
      "assetIds": []
    },
    {
      "x": 214,
      "y": 114,
      "size": 1,
      "price": "1011000000000000000000",
      "reserved": "",
      "salt": "0xf860665085e6af710819ef994ada21cb6dda9922d6c00e70ab7b6fe41356b775",
      "assetIds": []
    },
    {
      "x": 214,
      "y": 115,
      "size": 1,
      "price": "1011000000000000000000",
      "reserved": "",
      "salt": "0x4b4d1bf8fb0bcadeb5b80559ec04660532676dce459c99bf6c8373c03c0bf8f5",
      "assetIds": []
    },
    {
      "x": 214,
      "y": 116,
      "size": 1,
      "price": "1011000000000000000000",
      "reserved": "",
      "salt": "0x736bba13d264e68b05a23fb93ad30916241579e1ea3a57480d68dc2447dd336c",
      "assetIds": []
    },
    {
      "x": 214,
      "y": 117,
      "size": 1,
      "price": "1011000000000000000000",
      "reserved": "",
      "salt": "0x0b6e40bc460c4087d53b21269046485bbfe0df1dd2df7620aefac8cdb15deb42",
      "assetIds": []
    },
    {
      "x": 214,
      "y": 118,
      "size": 1,
      "price": "4683000000000000000000",
      "reserved": "",
      "salt": "0x0f2d99329347aeb8dc127046fcb643c46d89d54c7cf8b31744c56591ec5b1672",
      "assetIds": [
        "41506478881403507969696680653240014914910929820314476107906210059990541021186"
      ]
    },
    {
      "x": 214,
      "y": 119,
      "size": 1,
      "price": "4683000000000000000000",
      "reserved": "",
      "salt": "0xa07332f4acb1fba4e30f44291299a92976b689b6dd6431ae451b7ac266ca9a4c",
      "assetIds": [
        "41506478881403507969696680653240014914910929820314476107906210059990541021186"
      ]
    },
    {
      "x": 215,
      "y": 102,
      "size": 1,
      "price": "1011000000000000000000",
      "reserved": "",
      "salt": "0x6b43dba97d1b6253425b8486687e9d8f3ccc21cd7bd20c0d04df98b3c8808be1",
      "assetIds": []
    },
    {
      "x": 215,
      "y": 103,
      "size": 1,
      "price": "1011000000000000000000",
      "reserved": "",
      "salt": "0xbae3912b021d938310b2e847200d966b181f45567189d97571d9abf67a2a3858",
      "assetIds": []
    },
    {
      "x": 215,
      "y": 104,
      "size": 1,
      "price": "1011000000000000000000",
      "reserved": "",
      "salt": "0x9f4b0052c3cf26cdfa1bc60da016cf39d17132304e63f556837e7afc8a15d61b",
      "assetIds": []
    },
    {
      "x": 215,
      "y": 105,
      "size": 1,
      "price": "1011000000000000000000",
      "reserved": "",
      "salt": "0x56e8e00ad7b1f111dcbe6813da650d373259de1a8878b9f65046feb626ef3ba9",
      "assetIds": []
    },
    {
      "x": 215,
      "y": 106,
      "size": 1,
      "price": "1011000000000000000000",
      "reserved": "",
      "salt": "0x654588e7ab7e42b13774bdcbb47bae8611dfd9e6467b78155e1562e067c350c0",
      "assetIds": []
    },
    {
      "x": 215,
      "y": 107,
      "size": 1,
      "price": "1011000000000000000000",
      "reserved": "",
      "salt": "0x65daf29951c5429c3663d9309ff80271bff0ecdf08d7cb733dbd6c8fa51ccbbd",
      "assetIds": []
    },
    {
      "x": 215,
      "y": 114,
      "size": 1,
      "price": "1011000000000000000000",
      "reserved": "",
      "salt": "0xcc364ccf68c8d4f1fd1da976b372da13d2271cbca69d4d1fd4750ff9a554633b",
      "assetIds": []
    },
    {
      "x": 215,
      "y": 115,
      "size": 1,
      "price": "1011000000000000000000",
      "reserved": "",
      "salt": "0xe3d45f4f21e21d8efe3204ce047a2980f4320864675b51fc822af8576befb4db",
      "assetIds": []
    },
    {
      "x": 215,
      "y": 116,
      "size": 1,
      "price": "1011000000000000000000",
      "reserved": "",
      "salt": "0xec9de2fe99a9b7ed535cf86384f4b98810515eac837dc0d9d9914e271792dbec",
      "assetIds": []
    },
    {
      "x": 215,
      "y": 117,
      "size": 1,
      "price": "1011000000000000000000",
      "reserved": "",
      "salt": "0x5e786344727ac8262da860de0dae6732275dfed50df95c9d3df5b5aa23abd216",
      "assetIds": []
    },
    {
      "x": 215,
      "y": 118,
      "size": 1,
      "price": "4683000000000000000000",
      "reserved": "",
      "salt": "0x9c064fe61935132a7b3273a4a82f09de8321625d36d8cdea9b8ccbb319924b08",
      "assetIds": [
        "41506478881403507969696680653240014914910929820314476107906210059990541021186"
      ]
    },
    {
      "x": 215,
      "y": 119,
      "size": 1,
      "price": "4683000000000000000000",
      "reserved": "",
      "salt": "0x81f6c35d37bf0b69e4d5052f357c5e19c9b92f191d373b9d26647c7b86083a0e",
      "assetIds": [
        "41506478881403507969696680653240014914910929820314476107906210059990541021186"
      ]
    },
    {
      "x": 216,
      "y": 117,
      "size": 1,
      "price": "1011000000000000000000",
      "reserved": "",
      "salt": "0xaebf483284072ecf564ab34f29541627095e31deaa59452bb18931c6dcda73f0",
      "assetIds": []
    },
    {
      "x": 216,
      "y": 118,
      "size": 1,
      "price": "4683000000000000000000",
      "reserved": "",
      "salt": "0xfb01045f38363c89e052feb25cb214f0397d43f55f0a19fb2bfb1409a63c1bb8",
      "assetIds": [
        "41506478881403507969696680653240014914910929820314476107906210059990541021186"
      ]
    },
    {
      "x": 216,
      "y": 119,
      "size": 1,
      "price": "4683000000000000000000",
      "reserved": "",
      "salt": "0x4e5920a28aaad1984146e45a8a494f017b34bc45acf1f7465c0c4f118099a458",
      "assetIds": [
        "41506478881403507969696680653240014914910929820314476107906210059990541021186"
      ]
    },
    {
      "x": 216,
      "y": 126,
      "size": 1,
      "price": "4683000000000000000000",
      "reserved": "",
      "salt": "0xad89e85540aa3b067355b06c938e83a87ce09966fca7e3dad57b5761398bfb09",
      "assetIds": [
        "41506478881403507969696680653240014914910929820314476107906210059990541021186"
      ]
    },
    {
      "x": 216,
      "y": 127,
      "size": 1,
      "price": "4683000000000000000000",
      "reserved": "",
      "salt": "0x952b7f957ecfcc35fe3670456e971792862504b417f06883cfe66d7f85858de4",
      "assetIds": [
        "41506478881403507969696680653240014914910929820314476107906210059990541021186"
      ]
    },
    {
      "x": 216,
      "y": 128,
      "size": 1,
      "price": "4683000000000000000000",
      "reserved": "",
      "salt": "0xce29828449d2b880b08e0a8d8a17fb0ead81539e6967b91d1c61d04d64284e7e",
      "assetIds": [
        "41506478881403507969696680653240014914910929820314476107906210059990541021186"
      ]
    },
    {
      "x": 217,
      "y": 117,
      "size": 1,
      "price": "1011000000000000000000",
      "reserved": "",
      "salt": "0x4079d2e2aeb6e2c1e3f38d7f65ae4ca3dcdbffdf1b5a72dddf6865626ee33b34",
      "assetIds": []
    },
    {
      "x": 217,
      "y": 118,
      "size": 1,
      "price": "1011000000000000000000",
      "reserved": "",
      "salt": "0x0ad2f495d58901bdbf39410384e1437c4e2c667f9a7324e05bdab45a99ceca7b",
      "assetIds": []
    },
    {
      "x": 217,
      "y": 119,
      "size": 1,
      "price": "4683000000000000000000",
      "reserved": "",
      "salt": "0x959202debc5b5c3204f4f8d94cf6155ae8a61040828614998765b10999938457",
      "assetIds": [
        "41506478881403507969696680653240014914910929820314476107906210059990541021186"
      ]
    },
    {
      "x": 217,
      "y": 126,
      "size": 1,
      "price": "4683000000000000000000",
      "reserved": "",
      "salt": "0x5fd48eacba997f8c65fcf8c86db47153d2f2a64f2afdcea5d7b682292832c80d",
      "assetIds": [
        "41506478881403507969696680653240014914910929820314476107906210059990541021186"
      ]
    },
    {
      "x": 217,
      "y": 127,
      "size": 1,
      "price": "4683000000000000000000",
      "reserved": "",
      "salt": "0x4880fb25407ac8ea2d60d5c2118351fff925ad2a841b871c37238de6c57f6aa9",
      "assetIds": [
        "41506478881403507969696680653240014914910929820314476107906210059990541021186"
      ]
    },
    {
      "x": 217,
      "y": 128,
      "size": 1,
      "price": "4683000000000000000000",
      "reserved": "",
      "salt": "0xe2bcd6605f7edad6c0ec235d5ccba5c5b4187caa24e7d57438bb55a1fe4cdc23",
      "assetIds": [
        "41506478881403507969696680653240014914910929820314476107906210059990541021186"
      ]
    },
    {
      "x": 218,
      "y": 117,
      "size": 1,
      "price": "1011000000000000000000",
      "reserved": "",
      "salt": "0x324073a7d6252be4acd62316e7fd451e49ba9c6da36323a4dda4a31748303b49",
      "assetIds": []
    },
    {
      "x": 218,
      "y": 118,
      "size": 1,
      "price": "1011000000000000000000",
      "reserved": "",
      "salt": "0xf6225904205dfafc17d8abd6e94def3d0d13457b8950eb5614586e1de5b0e5e5",
      "assetIds": []
    },
    {
      "x": 218,
      "y": 119,
      "size": 1,
      "price": "4683000000000000000000",
      "reserved": "",
      "salt": "0x01e2c91e77501156dd2b363c77f17b55298d1ff0667cd98c759b893a8812dd2a",
      "assetIds": [
        "41506478881403507969696680653240014914910929820314476107906210059990541021186"
      ]
    },
    {
      "x": 218,
      "y": 126,
      "size": 1,
      "price": "1011000000000000000000",
      "reserved": "",
      "salt": "0xb9cfef3d32fa0ce74b5baad2efd26818b789e13da5e4b6e922dc58e3b200ec95",
      "assetIds": []
    },
    {
      "x": 218,
      "y": 127,
      "size": 1,
      "price": "1011000000000000000000",
      "reserved": "",
      "salt": "0x98496f6d2e9bd6ff4d29968723a436e6a222f590ceae947bda45eef64c0dc934",
      "assetIds": []
    },
    {
      "x": 218,
      "y": 128,
      "size": 1,
      "price": "1011000000000000000000",
      "reserved": "",
      "salt": "0x8846a226dfb9163c0391009bfc12cb80ccb2a802736d68cc45915338e842a5de",
      "assetIds": []
    },
    {
      "x": 219,
      "y": 120,
      "size": 1,
      "price": "4683000000000000000000",
      "reserved": "",
      "salt": "0x26f1b053d284e63b7d77ab7b37606d2a6dce60beb587029c691b3cac2f0dbb94",
      "assetIds": [
        "41506478881403507969696680653240014914910929820314476107906210059990541021186"
      ]
    },
    {
      "x": 219,
      "y": 121,
      "size": 1,
      "price": "4683000000000000000000",
      "reserved": "",
      "salt": "0x9d06a60d53fb25ecb8155bc55265b13dd6cbb725bd35376cd70c6970e8f1e8aa",
      "assetIds": [
        "41506478881403507969696680653240014914910929820314476107906210059990541021186"
      ]
    },
    {
      "x": 219,
      "y": 122,
      "size": 1,
      "price": "4683000000000000000000",
      "reserved": "",
      "salt": "0x8faab9d63cf5a94bf5a0fd33eaad9846dc43607078f61b479f7def5e6f58ee3c",
      "assetIds": [
        "41506478881403507969696680653240014914910929820314476107906210059990541021186"
      ]
    },
    {
      "x": 219,
      "y": 123,
      "size": 1,
      "price": "1011000000000000000000",
      "reserved": "",
      "salt": "0xa02c9c9e0e514d8304690fe569310e347074c63235e1836ea4d058588483d753",
      "assetIds": []
    },
    {
      "x": 219,
      "y": 124,
      "size": 1,
      "price": "1011000000000000000000",
      "reserved": "",
      "salt": "0xb5142cc9b137fce17c5d2d2ff6e3716ad0bd4f51a04485d0957eafb5e548229e",
      "assetIds": []
    },
    {
      "x": 219,
      "y": 125,
      "size": 1,
      "price": "1011000000000000000000",
      "reserved": "",
      "salt": "0x0218d91a6d8f3f4a72d5be46756eb2504eb1c02bee04e62e33ef8f3246b68338",
      "assetIds": []
    },
    {
      "x": 220,
      "y": 120,
      "size": 1,
      "price": "1011000000000000000000",
      "reserved": "",
      "salt": "0x26cba7a5f859787d025c648b9ce6491c164fe0c98874157eb7e28cc9f0e430b9",
      "assetIds": []
    },
    {
      "x": 220,
      "y": 121,
      "size": 1,
      "price": "1011000000000000000000",
      "reserved": "",
      "salt": "0xe969bfd33e6270fb7f95a787c1c2488e66d5ac7994deff97e8ea94d419084f68",
      "assetIds": []
    },
    {
      "x": 220,
      "y": 122,
      "size": 1,
      "price": "1011000000000000000000",
      "reserved": "",
      "salt": "0x97a0d621a66c8210a16157ac67fc9fc0d3c4582864a918c930792c4b7ba9923c",
      "assetIds": []
    },
    {
      "x": 220,
      "y": 123,
      "size": 1,
      "price": "1011000000000000000000",
      "reserved": "",
      "salt": "0x41ae9b30f8181e6f0b9f8be76ec5f30190b1a0f96d05a507489bf8b25c558143",
      "assetIds": []
    },
    {
      "x": 220,
      "y": 124,
      "size": 1,
      "price": "1011000000000000000000",
      "reserved": "",
      "salt": "0xa811f67aa5dc202b673b811869f49b6166c9b38c7bb481bcf27b80c902e1cd37",
      "assetIds": []
    },
    {
      "x": 220,
      "y": 125,
      "size": 1,
      "price": "1011000000000000000000",
      "reserved": "",
      "salt": "0x979fa383803268e4056c3ff97bc3c4c511a9089822691d17818d59a2c7dbf675",
      "assetIds": []
    },
    {
      "x": 221,
      "y": 120,
      "size": 1,
      "price": "1011000000000000000000",
      "reserved": "",
      "salt": "0x8e03a5c2f3414ef59608e9f1cf3a172afd87773501e3a822fb455cca14058a55",
      "assetIds": []
    },
    {
      "x": 221,
      "y": 121,
      "size": 1,
      "price": "1011000000000000000000",
      "reserved": "",
      "salt": "0x61f9af09382f4a59e5c92b0cf0ca9675ba71c4f0d30284becfe43f972fbcc5e8",
      "assetIds": []
    },
    {
      "x": 221,
      "y": 122,
      "size": 1,
      "price": "1011000000000000000000",
      "reserved": "",
      "salt": "0x40e5cb2b43e2cba1190227d5e2842c450a994e8c68afe1faed480873634ec6dd",
      "assetIds": []
    },
    {
      "x": 221,
      "y": 123,
      "size": 1,
      "price": "1011000000000000000000",
      "reserved": "",
      "salt": "0x0428732d2cb6265fe725d0bc1ff34a31ff5cd7fa8b2db36c6ec41af80a44f591",
      "assetIds": []
    },
    {
      "x": 221,
      "y": 124,
      "size": 1,
      "price": "1011000000000000000000",
      "reserved": "",
      "salt": "0x1bb35aa1aedc79e2bd7be8f6b5e62f67691756108dad5d1ce22c5e5131d2742e",
      "assetIds": []
    },
    {
      "x": 221,
      "y": 125,
      "size": 1,
      "price": "1011000000000000000000",
      "reserved": "",
      "salt": "0xf34c615c9a6eab0ef6570ae1d9908f5e8d249445361d34f38e968428cbdb6910",
      "assetIds": []
    },
    {
      "x": 222,
      "y": 123,
      "size": 1,
      "price": "1011000000000000000000",
      "reserved": "",
      "salt": "0xd88e5bcdc061e9bcf9222adf37621ca565d5ccb202d5a1d1653566adeffa2743",
      "assetIds": []
    },
    {
      "x": 222,
      "y": 124,
      "size": 1,
      "price": "1011000000000000000000",
      "reserved": "",
      "salt": "0xacda6bb09fa7bee3f42c8c5d08bbe1a2fd2b8f1aa2b3094104ec02d628cf7c39",
      "assetIds": []
    },
    {
      "x": 222,
      "y": 125,
      "size": 1,
      "price": "1011000000000000000000",
      "reserved": "",
      "salt": "0xff0fd0f2403a96b10cd56f89a8edef260100df03670473bbcefa0c7e0619d155",
      "assetIds": []
    },
    {
      "x": 223,
      "y": 123,
      "size": 1,
      "price": "1011000000000000000000",
      "reserved": "",
      "salt": "0x7d44b26fb2909aa8a35958159f5ec6b3aeb1668182ec9f2c24c252501c9622ef",
      "assetIds": []
    },
    {
      "x": 223,
      "y": 124,
      "size": 1,
      "price": "1011000000000000000000",
      "reserved": "",
      "salt": "0x955c80fee6c875c7423af8e67685cd1417720efbd8109aab99ba90faf7ba96c9",
      "assetIds": []
    },
    {
      "x": 223,
      "y": 125,
      "size": 1,
      "price": "1011000000000000000000",
      "reserved": "",
      "salt": "0x6430b8ec997d5dbe663374251697044d3034d1180c7d0ffc51f13925b9ab2f8e",
      "assetIds": []
    },
    {
      "x": 224,
      "y": 123,
      "size": 1,
      "price": "1011000000000000000000",
      "reserved": "",
      "salt": "0xac688447437d02f0a535d14658db779b7c848e0764332e0bfd1d44f360e97637",
      "assetIds": []
    },
    {
      "x": 224,
      "y": 124,
      "size": 1,
      "price": "1011000000000000000000",
      "reserved": "",
      "salt": "0x2ea7932bacd6022fd6f299601216e8a0804cb12113bc5bc238f16ca11c9147dd",
      "assetIds": []
    },
    {
      "x": 224,
      "y": 125,
      "size": 1,
      "price": "1011000000000000000000",
      "reserved": "",
      "salt": "0x0306c2253063011f628466eec5bef0abbb6c761510a3a1f50ba95e3b8c71dfc8",
      "assetIds": []
    },
    {
      "x": 207,
      "y": 117,
      "size": 3,
      "price": "8648000000000000000000",
      "reserved": "0x7a9fe22691c811ea339d9b73150e6911a5343dca",
      "salt": "0x4cf9ce1fb441ffba03cce6421bdbea873cb6009e89fcfaad05a43e039f88a00e",
      "assetIds": []
    },
    {
      "x": 210,
      "y": 117,
      "size": 3,
      "price": "8648000000000000000000",
      "reserved": "0x7a9fe22691c811ea339d9b73150e6911a5343dca",
      "salt": "0xe74b2a7f29a589cbbe556bf7151f566a70f0dc0cb4952c9a705619d2346b5a24",
      "assetIds": []
    },
    {
      "x": 216,
      "y": 120,
      "size": 3,
      "price": "8648000000000000000000",
      "reserved": "0x7a9fe22691c811ea339d9b73150e6911a5343dca",
      "salt": "0xad8f389f1fccfa822013965f915b88aab437565d7b8c91a3bb33b05f30d2588e",
      "assetIds": []
    },
    {
      "x": 216,
      "y": 123,
      "size": 3,
      "price": "8648000000000000000000",
      "reserved": "0x7a9fe22691c811ea339d9b73150e6911a5343dca",
      "salt": "0x24969728013576be9bddbad6f57a3f6410a9970f46b4912078e31b0430c2a9c0",
      "assetIds": []
    },
    {
      "x": 216,
      "y": 129,
      "size": 3,
      "price": "8648000000000000000000",
      "reserved": "0x7a9fe22691c811ea339d9b73150e6911a5343dca",
      "salt": "0xcfe55f2b40a368a6c87327d3ba20220a1f0452979606a0262aafdddefaee4bb2",
      "assetIds": []
    },
    {
      "x": 204,
      "y": 102,
      "size": 6,
      "price": "32772000000000000000000",
      "reserved": "0x7a9fe22691c811ea339d9b73150e6911a5343dca",
      "salt": "0x26afb17261d90afe72ce4e59110ce12386d8f245532e1b3973411b2e38a16f6a",
      "assetIds": []
    },
    {
      "x": 204,
      "y": 120,
      "size": 12,
      "price": "123806000000000000000000",
      "reserved": "0x7a9fe22691c811ea339d9b73150e6911a5343dca",
      "salt": "0x9eb43530712b72f340215b6139af82ca1f0a102948b3153e456d9f5e497772c4",
      "assetIds": []
    }
  ],
  "solcInputHash": "e17a5bb930c92aaeeb80a52119ce77b7",
  "bytecode": "0x610160604052620d2f0060055534801561001857600080fd5b506040516200284d3803806200284d83398181016040526101a081101561003e57600080fd5b50805160208201516040830151606080850151608086015160a08088015160c0808a015160e08b01516101008c01516101208d01516101408e01516101608f0151610180909f0151600280546001600160a01b0319166001600160a01b03871617905560038490558e8c1b6001600160601b03199081169099529a8d901b9097169094529a9b999a98999698959793969195909490939091906100e28b600161015d565b600680546001600160a01b039a8b166001600160a01b031991821617909155610140989098526101209690965260008054998916998816999099179098556001600160601b0319606092831b811660e05290821b811660805296901b909516610100525060078054919093169116179055506101c192505050565b6001600160a01b038216600081815260016020908152604091829020805460ff191685151590811790915582519384529083015280517fb21eb88b4e33b3f1281830a7178d74d8aa73220416215726b68ae23d539515cb9281900390910190a15050565b60805160601c60a05160601c60c05160601c60e05160601c6101005160601c61012051610140516126066200024760003980610b3d528061206c525080610b1952806112ec5250806120da525080611841528061199e5250806117f75280611b9d528061210e525080611872528061196f525080610eb25280611c8952506126066000f3fe608060405234801561001057600080fd5b506004361061011b5760003560e01c80638f283970116100b2578063c10a420811610081578063dc5074af11610066578063dc5074af1461085f578063e56f8a9e14610885578063f23a6e61146108a25761011b565b8063c10a420814610780578063caed3500146108575761011b565b80638f28397014610500578063984d625214610526578063b522ecff146105f8578063bc197c811461061e5761011b565b806365194ce7116100ee57806365194ce7146103485780636e9960c3146104a657806377f1c3ac146104ca5780638a04af6a146104d25761011b565b80631187fd3c1461012057806325cb5bc014610300578063495906571461031a57806358bc294414610322575b600080fd5b6102fe600480360361012081101561013757600080fd5b6001600160a01b038235811692602081013582169260408201359092169181019060808101606082013564010000000081111561017357600080fd5b82018360208201111561018557600080fd5b803590602001918460208302840111640100000000831117156101a757600080fd5b919390928235926040810190602001356401000000008111156101c957600080fd5b8201836020820111156101db57600080fd5b803590602001918460208302840111640100000000831117156101fd57600080fd5b91939092909160208101903564010000000081111561021b57600080fd5b82018360208201111561022d57600080fd5b8035906020019184602083028401116401000000008311171561024f57600080fd5b91939092909160208101903564010000000081111561026d57600080fd5b82018360208201111561027f57600080fd5b803590602001918460018302840111640100000000831117156102a157600080fd5b9193909290916020810190356401000000008111156102bf57600080fd5b8201836020820111156102d157600080fd5b803590602001918460018302840111640100000000831117156102f357600080fd5b509092509050610937565b005b610308610b17565b60408051918252519081900360200190f35b610308610b3b565b6102fe6004803603602081101561033857600080fd5b50356001600160a01b0316610b5f565b6103ee6004803603602081101561035e57600080fd5b81019060208101813564010000000081111561037957600080fd5b82018360208201111561038b57600080fd5b803590602001918460018302840111640100000000831117156103ad57600080fd5b91908080601f016020809104026020016040519081016040528093929190818152602001838380828437600092019190915250929550610c0a945050505050565b6040518080602001866001600160a01b03166001600160a01b03168152602001856001600160a01b03166001600160a01b03168152602001848152602001838152602001828103825287818151815260200191508051906020019080838360005b8381101561046757818101518382015260200161044f565b50505050905090810190601f1680156104945780820380516001836020036101000a031916815260200191505b50965050505050505060405180910390f35b6104ae610d0f565b604080516001600160a01b039092168252519081900360200190f35b610308610d1e565b6102fe600480360360408110156104e857600080fd5b506001600160a01b0381351690602001351515610d24565b6102fe6004803603602081101561051657600080fd5b50356001600160a01b0316610d7b565b6102fe6004803603606081101561053c57600080fd5b6001600160a01b03823516919081019060408101602082013564010000000081111561056757600080fd5b82018360208201111561057957600080fd5b8035906020019184602083028401116401000000008311171561059b57600080fd5b9193909290916020810190356401000000008111156105b957600080fd5b8201836020820111156105cb57600080fd5b803590602001918460208302840111640100000000831117156105ed57600080fd5b509092509050610e51565b6102fe6004803603602081101561060e57600080fd5b50356001600160a01b0316610fdc565b61074b600480360360a081101561063457600080fd5b6001600160a01b03823581169260208101359091169181019060608101604082013564010000000081111561066857600080fd5b82018360208201111561067a57600080fd5b8035906020019184602083028401116401000000008311171561069c57600080fd5b9193909290916020810190356401000000008111156106ba57600080fd5b8201836020820111156106cc57600080fd5b803590602001918460208302840111640100000000831117156106ee57600080fd5b91939092909160208101903564010000000081111561070c57600080fd5b82018360208201111561071e57600080fd5b8035906020019184600183028401116401000000008311171561074057600080fd5b5090925090506110c5565b604080517fffffffff000000000000000000000000000000000000000000000000000000009092168252519081900360200190f35b610843600480360360a081101561079657600080fd5b8101906020810181356401000000008111156107b157600080fd5b8201836020820111156107c357600080fd5b803590602001918460018302840111640100000000831117156107e557600080fd5b91908080601f016020809104026020016040519081016040528093929190818152602001838380828437600092019190915250929550506001600160a01b0383358116945060208401351692604081013592506060013590506110f2565b604080519115158252519081900360200190f35b6104ae61122e565b6108436004803603602081101561087557600080fd5b50356001600160a01b031661123d565b6102fe6004803603602081101561089b57600080fd5b503561125b565b61074b600480360360a08110156108b857600080fd5b6001600160a01b03823581169260208101359091169160408201359160608101359181019060a0810160808201356401000000008111156108f857600080fd5b82018360208201111561090a57600080fd5b8035906020019184600183028401116401000000008311171561092c57600080fd5b5090925090506112bf565b6109418e8d6112ea565b610a388d8d8d8d80806020026020016040519081016040528093929190818152602001838360200280828437600081840152601f19601f820116905080830192505050505050508c8c8c80806020026020016040519081016040528093929190818152602001838360200280828437600081840152601f19601f820116905080830192505050505050508b8b8080602002602001604051908101604052809392919081815260200183836020028082843760009201919091525050604080516020601f8d018190048102820181019092528b815292508b91508a908190840183828082843760009201919091525061144d92505050565b610a8c8e8c8c6003818110610a4957fe5b9050602002013586868080601f0160208091040260200160405190810160405280939291908181526020018383808284376000920191909152506117d092505050565b610aca8e8e8d8d8080602002602001604051908101604052809392919081815260200183836020028082843760009201919091525061182192505050565b610b078d898980806020026020016040519081016040528093929190818152602001838360200280828437600092019190915250611c1292505050565b5050505050505050505050505050565b7f000000000000000000000000000000000000000000000000000000000000000090565b7f000000000000000000000000000000000000000000000000000000000000000090565b6000546001600160a01b03163314610bbe576040805162461bcd60e51b815260206004820152601060248201527f53656e646572206e6f742061646d696e00000000000000000000000000000000604482015290519081900360640190fd5b600554600280546001600160a01b03908116600090815260046020526040902042909301909255805473ffffffffffffffffffffffffffffffffffffffff191692909116919091179055565b606060008060008060606000806000808a80602001905160a0811015610c2f57600080fd5b8101908080516040519392919084640100000000821115610c4f57600080fd5b908301906020820185811115610c6457600080fd5b8251640100000000811182820188101715610c7e57600080fd5b82525081516020918201929091019080838360005b83811015610cab578181015183820152602001610c93565b50505050905090810190601f168015610cd85780820380516001836020036101000a031916815260200191505b5060409081526020820151908201516060830151608090930151959f50909d509b5099509197505050505050505091939590929450565b6000546001600160a01b031690565b60035490565b6000546001600160a01b03163314610d6d5760405162461bcd60e51b815260040180806020018281038252602e8152602001806125a3602e913960400191505060405180910390fd5b610d778282611dd6565b5050565b6000546001600160a01b03163314610dda576040805162461bcd60e51b815260206004820152601b60248201527f6f6e6c792061646d696e2063616e206368616e67652061646d696e0000000000604482015290519081900360640190fd5b600054604080516001600160a01b039283168152918316602083015280517f7e644d79422f17c01e4894b5f4f588d331ebfa28653d42ae832dc59e38c9798f9281900390910190a16000805473ffffffffffffffffffffffffffffffffffffffff19166001600160a01b0392909216919091179055565b6000546001600160a01b03163314610eb0576040805162461bcd60e51b815260206004820152600e60248201527f4e4f545f415554484f52495a4544000000000000000000000000000000000000604482015290519081900360640190fd5b7f00000000000000000000000000000000000000000000000000000000000000006001600160a01b0316632eb2c2d63087878787876040518763ffffffff1660e01b815260040180876001600160a01b03166001600160a01b03168152602001866001600160a01b03166001600160a01b031681526020018060200180602001806020018481038452888882818152602001925060200280828437600083820152601f01601f19169091018581038452868152602090810191508790870280828437600081840152601f19601f8201169050808301925050508481038252600081526020016020019950505050505050505050600060405180830381600087803b158015610fbd57600080fd5b505af1158015610fd1573d6000803e3d6000fd5b505050505050505050565b6001600160a01b038116611037576040805162461bcd60e51b815260206004820152600c60248201527f5a45524f5f414444524553530000000000000000000000000000000000000000604482015290519081900360640190fd5b6000546001600160a01b03163314611096576040805162461bcd60e51b815260206004820152600e60248201527f4e4f545f415554484f52495a4544000000000000000000000000000000000000604482015290519081900360640190fd5b6006805473ffffffffffffffffffffffffffffffffffffffff19166001600160a01b0392909216919091179055565b7fbc197c810000000000000000000000000000000000000000000000000000000098975050505050505050565b60006003548211806111155750836001600160a01b0316856001600160a01b0316145b8061111f57508242115b1561112c57506000611225565b60408051606087811b7fffffffffffffffffffffffffffffffffffffffff0000000000000000000000009081166020808501919091529188901b166034830152604882018690526068808301869052835180840390910181526088830184528051908201207f19457468657265756d205369676e6564204d6573736167653a0a33320000000060a884015260c48084018290528451808503909101815260e490930190935281519101206000906111e39089611e58565b6001600160a01b038116600090815260046020526040902054909150421161121057600192505050611225565b6002546001600160a01b039081169116149150505b95945050505050565b6002546001600160a01b031690565b6001600160a01b031660009081526001602052604090205460ff1690565b6000546001600160a01b031633146112ba576040805162461bcd60e51b815260206004820152601060248201527f53656e646572206e6f742061646d696e00000000000000000000000000000000604482015290519081900360640190fd5b600355565b7ff23a6e61000000000000000000000000000000000000000000000000000000009695505050505050565b7f0000000000000000000000000000000000000000000000000000000000000000421061135e576040805162461bcd60e51b815260206004820152600c60248201527f53414c455f49535f4f5645520000000000000000000000000000000000000000604482015290519081900360640190fd5b6001600160a01b03821633148061138457503360009081526001602052604090205460ff165b6113d5576040805162461bcd60e51b815260206004820152600e60248201527f4e4f545f415554484f52495a4544000000000000000000000000000000000000604482015290519081900360640190fd5b6001600160a01b03811615806113fc5750816001600160a01b0316816001600160a01b0316145b610d77576040805162461bcd60e51b815260206004820152600d60248201527f52455345525645445f4c414e4400000000000000000000000000000000000000604482015290519081900360640190fd5b600087878760008151811061145e57fe5b60200260200101518860018151811061147357fe5b60200260200101518960028151811061148857fe5b60200260200101518a60038151811061149d57fe5b60200260200101518a8a60405160200180828051906020019060200280838360005b838110156114d75781810151838201526020016114bf565b50505050905001915050604051602081830303815290604052805190602001208a60405160200180828051906020019060200280838360005b83811015611528578181015183820152602001611510565b5050505090500191505060405160208183030381529060405280519060200120604051602001808a6001600160a01b03166001600160a01b031660601b8152601401896001600160a01b03166001600160a01b031660601b81526014018881526020018781526020018681526020018581526020018481526020018381526020018281526020019950505050505050505050604051602081830303815290604052805190602001209050600760009054906101000a90046001600160a01b03166001600160a01b031663012847ed83836040518363ffffffff1660e01b81526004018080602001838152602001828103825284818151815260200191508051906020019080838360005b8381101561164a578181015183820152602001611632565b50505050905090810190601f1680156116775780820380516001836020036101000a031916815260200191505b50935050505060206040518083038186803b15801561169557600080fd5b505afa1580156116a9573d6000803e3d6000fd5b505050506040513d60208110156116bf57600080fd5b5051611712576040805162461bcd60e51b815260206004820152600c60248201527f494e56414c49445f415554480000000000000000000000000000000000000000604482015290519081900360640190fd5b60006117738760008151811061172457fe5b60200260200101518860018151811061173957fe5b60200260200101518960028151811061174e57fe5b60200260200101518a60038151811061176357fe5b60200260200101518c8b8b611f25565b905061177f8482611fca565b610fd1576040805162461bcd60e51b815260206004820152600c60248201527f494e56414c49445f4c414e440000000000000000000000000000000000000000604482015290519081900360640190fd5b60006117dc8484612095565b60065490915061181b908590839085906001600160a01b03167f00000000000000000000000000000000000000000000000000000000000000006121ee565b50505050565b8060028151811061182e57fe5b60200260200101516001148061186b57507f00000000000000000000000000000000000000000000000000000000000000006001600160a01b0316155b1561196d577f00000000000000000000000000000000000000000000000000000000000000006001600160a01b0316636e1e3bbf83836002815181106118ad57fe5b6020026020010151846000815181106118c257fe5b6020026020010151856001815181106118d757fe5b60200260200101516040518563ffffffff1660e01b815260040180856001600160a01b03166001600160a01b031681526020018481526020018381526020018281526020018060200182810382526000815260200160200195505050505050600060405180830381600087803b15801561195057600080fd5b505af1158015611964573d6000803e3d6000fd5b50505050611b0d565b7f00000000000000000000000000000000000000000000000000000000000000006001600160a01b0316636e1e3bbf7f0000000000000000000000000000000000000000000000000000000000000000836002815181106119ca57fe5b6020026020010151846000815181106119df57fe5b6020026020010151856001815181106119f457fe5b60200260200101518760405160200180826001600160a01b03166001600160a01b031681526020019150506040516020818303038152906040526040518663ffffffff1660e01b815260040180866001600160a01b03166001600160a01b0316815260200185815260200184815260200183815260200180602001828103825283818151815260200191508051906020019080838360005b83811015611aa4578181015183820152602001611a8c565b50505050905090810190601f168015611ad15780820380516001836020036101000a031916815260200191505b509650505050505050600060405180830381600087803b158015611af457600080fd5b505af1158015611b08573d6000803e3d6000fd5b505050505b61019881600181518110611b1d57fe5b60200260200101510281600081518110611b3357fe5b602002602001015101826001600160a01b0316846001600160a01b03167fe4dfa6ac11314892f3029b34a25b1a887da3b1cab2bbf8506d87128ba6e3ac0284600281518110611b7e57fe5b602002602001015185600381518110611b9357fe5b60200260200101517f000000000000000000000000000000000000000000000000000000000000000087600381518110611bc957fe5b602002602001015160405180858152602001848152602001836001600160a01b03166001600160a01b0316815260200182815260200194505050505060405180910390a4505050565b6060815167ffffffffffffffff81118015611c2c57600080fd5b50604051908082528060200260200182016040528015611c56578160200160208202803683370190505b50905060005b8251811015611c86576001828281518110611c7357fe5b6020908102919091010152600101611c5c565b507f00000000000000000000000000000000000000000000000000000000000000006001600160a01b0316632eb2c2d6308585856040518563ffffffff1660e01b815260040180856001600160a01b03166001600160a01b03168152602001846001600160a01b03166001600160a01b03168152602001806020018060200180602001848103845286818151815260200191508051906020019060200280838360005b83811015611d41578181015183820152602001611d29565b50505050905001848103835285818151815260200191508051906020019060200280838360005b83811015611d80578181015183820152602001611d68565b50505050905001848103825260008152602001602001975050505050505050600060405180830381600087803b158015611db957600080fd5b505af1158015611dcd573d6000803e3d6000fd5b50505050505050565b6001600160a01b03821660008181526001602090815260409182902080547fffffffffffffffffffffffffffffffffffffffffffffffffffffffffffffff001685151590811790915582519384529083015280517fb21eb88b4e33b3f1281830a7178d74d8aa73220416215726b68ae23d539515cb9281900390910190a15050565b60008151604114611e6857600080fd5b60208201516040830151606084015160001a601b811015611e8757601b015b8060ff16601b1480611e9c57508060ff16601c145b611ea557600080fd5b6040805160008152602080820180845289905260ff8416828401526060820186905260808201859052915160019260a0808401939192601f1981019281900390910190855afa158015611efc573d6000803e3d6000fd5b5050604051601f1901519450506001600160a01b038416611f1c57600080fd5b50505092915050565b60008787878787878760405160200180888152602001878152602001868152602001858152602001846001600160a01b03166001600160a01b031660601b8152601401838152602001828051906020019060200280838360005b83811015611f97578181015183820152602001611f7f565b50505050905001975050505050505050604051602081830303815290604052805190602001209050979650505050505050565b600081815b8451811015612069576000858281518110611fe657fe5b602002602001015190508083101561202e5782816040516020018083815260200182815260200192505050604051602081830303815290604052805190602001209250612060565b808360405160200180838152602001828152602001925050506040516020818303038152906040528051906020012092505b50600101611fcf565b507f00000000000000000000000000000000000000000000000000000000000000001490505b92915050565b6000806120ba60646120ae85600563ffffffff61247016565b9063ffffffff6124e016565b604080516323b872dd60e01b81526001600160a01b0387811660048301527f0000000000000000000000000000000000000000000000000000000000000000811660248301526044820184905291519293507f0000000000000000000000000000000000000000000000000000000000000000909116916323b872dd916064808201926020929091908290030181600087803b15801561215957600080fd5b505af115801561216d573d6000803e3d6000fd5b505050506040513d602081101561218357600080fd5b50516121d6576040805162461bcd60e51b815260206004820152601360248201527f4645455f5452414e534645525f4641494c454400000000000000000000000000604482015290519081900360640190fd5b6121e6838263ffffffff61254516565b949350505050565b8251819085901561239857606060008060008061220a8a610c0a565b939850919650945092509050600061222586868686866110f2565b156122b35761223f6122378d84612470565b6127106124e0565b9050886001600160a01b0316846001600160a01b0316866001600160a01b03167fac7a699eb95c3c6d390ec4626de17ef9a67b35891efdb197beba7c7fdd45fac48f858760405180848152602001838152602001828152602001935050505060405180910390a46122b08782612545565b96505b801561239157604080516323b872dd60e01b81526001600160a01b038f811660048301528781166024830152604482018490529151918a16916323b872dd916064808201926020929091908290030181600087803b15801561231457600080fd5b505af1158015612328573d6000803e3d6000fd5b505050506040513d602081101561233e57600080fd5b5051612391576040805162461bcd60e51b815260206004820152601960248201527f636f6d6d6973696f6e207472616e73666572206661696c656400000000000000604482015290519081900360640190fd5b5050505050505b604080516323b872dd60e01b81526001600160a01b0389811660048301528681166024830152604482018490529151918416916323b872dd916064808201926020929091908290030181600087803b1580156123f357600080fd5b505af1158015612407573d6000803e3d6000fd5b505050506040513d602081101561241d57600080fd5b5051611dcd576040805162461bcd60e51b815260206004820152601760248201527f7061796d656e74207472616e73666572206661696c6564000000000000000000604482015290519081900360640190fd5b60008261247f5750600061208f565b508181028183828161248d57fe5b041461208f576040805162461bcd60e51b815260206004820152600860248201527f6f766572666c6f77000000000000000000000000000000000000000000000000604482015290519081900360640190fd5b600081612534576040805162461bcd60e51b815260206004820152600960248201527f64697662797a65726f0000000000000000000000000000000000000000000000604482015290519081900360640190fd5b81838161253d57fe5b049392505050565b60008282111561259c576040805162461bcd60e51b815260206004820152600860248201527f756e6465666c6f77000000000000000000000000000000000000000000000000604482015290519081900360640190fd5b5090039056fe6f6e6c792061646d696e2063616e207365747570206d6574615472616e73616374696f6e50726f636573736f7273a2646970667358221220fc9205bafc138c1de206481f144dc3e7818922fbe1a20d2a71392e5e2e413c1a64736f6c63430006050033",
  "devdoc": {
    "methods": {
      "buyLandWithSand(address,address,address,uint256[],bytes32,uint256[],bytes32[],bytes,bytes)": {
        "params": {
          "buyer": "address that perform the payment",
          "info": "[X_INDEX=0] x coordinate of the Land [Y_INDEX=1] y coordinate of the Land [SIZE_INDEX=2] size of the pack of Land to purchase [PRICE_INDEX=3] price in SAND to purchase that Land",
          "proof": "merkleProof for that particular Land",
          "reserved": "the reserved address (if any)",
          "to": "address that will own the purchased Land"
        }
      },
      "changeAdmin(address)": {
        "details": "change the administrator to be `newAdmin`.",
        "params": {
          "newAdmin": "address of the new administrator."
        }
      },
      "getAdmin()": {
        "details": "gives the current administrator of this contract.",
        "returns": {
          "_0": "the current administrator of this contract."
        }
      },
      "getSigningWallet()": {
        "details": "signing wallet authorized for referral",
        "returns": {
          "_0": "the address of the signing wallet"
        }
      },
      "isMetaTransactionProcessor(address)": {
        "details": "check whether address `who` is given meta-transaction execution rights.",
        "params": {
          "who": "The address to query."
        },
        "returns": {
          "_0": "whether the address has meta-transaction execution rights."
        }
      },
      "isReferralValid(bytes,address,address,uint256,uint256)": {
        "params": {
          "commissionRate": "The commissionRate of the referral",
          "expiryTime": "The expiry time of the referral",
          "referee": "The address of the referee",
          "referrer": "The address of the referrer",
          "signature": "The signature to check (signed referral)"
        },
        "returns": {
          "_0": "True if the referral is valid"
        }
      },
      "setMetaTransactionProcessor(address,bool)": {
        "details": "Enable or disable the ability of `metaTransactionProcessor` to perform meta-tx (metaTransactionProcessor rights).",
        "params": {
          "enabled": "set whether the metaTransactionProcessor is enabled or disabled.",
          "metaTransactionProcessor": "address that will be given/removed metaTransactionProcessor rights."
        }
      },
      "setReceivingWallet(address)": {
        "params": {
          "newWallet": "address of the new receiving wallet"
        }
      },
      "updateMaxCommissionRate(uint256)": {
        "details": "Update the maximum commission rate",
        "params": {
          "newMaxCommissionRate": "The new maximum commission rate"
        }
      },
      "updateSigningWallet(address)": {
        "details": "Update the signing wallet",
        "params": {
          "newSigningWallet": "The new address of the signing wallet"
        }
      },
      "withdrawAssets(address,uint256[],uint256[])": {
        "params": {
          "assetIds": "the assetIds to be transferred",
          "to": "intended recipient of the asset tokens",
          "values": "the quantities of the assetIds to be transferred"
        }
      }
    },
    "title": "Estate Sale contract with referral"
  },
  "userdoc": {
    "methods": {
      "buyLandWithSand(address,address,address,uint256[],bytes32,uint256[],bytes32[],bytes,bytes)": {
        "notice": "buy Land with SAND using the merkle proof associated with it"
      },
      "getExpiryTime()": {
        "notice": "Gets the expiry time for the current sale"
      },
      "getMaxCommisionRate()": {
        "notice": "the max commision rate"
      },
      "getMerkleRoot()": {
        "notice": "Gets the Merkle root associated with the current sale"
      },
      "isReferralValid(bytes,address,address,uint256,uint256)": {
        "notice": "Check if a referral is valid"
      },
      "setReceivingWallet(address)": {
        "notice": "set the wallet receiving the proceeds"
      },
      "withdrawAssets(address,uint256[],uint256[])": {
        "notice": "enable Admin to withdraw remaining assets from EstateSaleWithFee contract"
      }
    },
    "notice": "This contract manages the sale of our lands as Estates"
  },
  "storageLayout": {
    "storage": [
      {
        "astId": 13650,
        "contract": "src/solc_0.6/EstateSale/EstateSaleWithAuth.sol:EstateSaleWithAuth",
        "label": "_admin",
        "offset": 0,
        "slot": "0",
        "type": "t_address"
      },
      {
        "astId": 13712,
        "contract": "src/solc_0.6/EstateSale/EstateSaleWithAuth.sol:EstateSaleWithAuth",
        "label": "_metaTransactionContracts",
        "offset": 0,
        "slot": "1",
        "type": "t_mapping(t_address,t_bool)"
      },
      {
        "astId": 11828,
        "contract": "src/solc_0.6/EstateSale/EstateSaleWithAuth.sol:EstateSaleWithAuth",
        "label": "_signingWallet",
        "offset": 0,
        "slot": "2",
        "type": "t_address"
      },
      {
        "astId": 11830,
        "contract": "src/solc_0.6/EstateSale/EstateSaleWithAuth.sol:EstateSaleWithAuth",
        "label": "_maxCommissionRate",
        "offset": 0,
        "slot": "3",
        "type": "t_uint256"
      },
      {
        "astId": 11834,
        "contract": "src/solc_0.6/EstateSale/EstateSaleWithAuth.sol:EstateSaleWithAuth",
        "label": "_previousSigningWallets",
        "offset": 0,
        "slot": "4",
        "type": "t_mapping(t_address,t_uint256)"
      },
      {
        "astId": 11843,
        "contract": "src/solc_0.6/EstateSale/EstateSaleWithAuth.sol:EstateSaleWithAuth",
        "label": "_previousSigningDelay",
        "offset": 0,
        "slot": "5",
        "type": "t_uint256"
      },
      {
        "astId": 7453,
        "contract": "src/solc_0.6/EstateSale/EstateSaleWithAuth.sol:EstateSaleWithAuth",
        "label": "_wallet",
        "offset": 0,
        "slot": "6",
        "type": "t_address_payable"
      },
      {
        "astId": 7455,
        "contract": "src/solc_0.6/EstateSale/EstateSaleWithAuth.sol:EstateSaleWithAuth",
        "label": "_authValidator",
        "offset": 0,
        "slot": "7",
        "type": "t_contract(AuthValidator)6784"
      }
    ],
    "types": {
      "t_address": {
        "encoding": "inplace",
        "label": "address",
        "numberOfBytes": "20"
      },
      "t_address_payable": {
        "encoding": "inplace",
        "label": "address payable",
        "numberOfBytes": "20"
      },
      "t_bool": {
        "encoding": "inplace",
        "label": "bool",
        "numberOfBytes": "1"
      },
      "t_contract(AuthValidator)6784": {
        "encoding": "inplace",
        "label": "contract AuthValidator",
        "numberOfBytes": "20"
      },
      "t_mapping(t_address,t_bool)": {
        "encoding": "mapping",
        "key": "t_address",
        "label": "mapping(address => bool)",
        "numberOfBytes": "32",
        "value": "t_bool"
      },
      "t_mapping(t_address,t_uint256)": {
        "encoding": "mapping",
        "key": "t_address",
        "label": "mapping(address => uint256)",
        "numberOfBytes": "32",
        "value": "t_uint256"
      },
      "t_uint256": {
        "encoding": "inplace",
        "label": "uint256",
        "numberOfBytes": "32"
      }
    }
  }
}