{
  "address": "0x6E73dDf25C613079caAA1F2F82BebA5A86A2aA1f",
  "abi": [
    {
      "inputs": [
        {
          "internalType": "string",
          "name": "baseURI",
          "type": "string"
        },
        {
          "internalType": "string",
          "name": "_name",
          "type": "string"
        },
        {
          "internalType": "string",
          "name": "_symbol",
          "type": "string"
        },
        {
          "internalType": "address payable",
          "name": "_sandOwner",
          "type": "address"
        },
        {
          "internalType": "address",
          "name": "_signAddress",
          "type": "address"
        }
      ],
      "stateMutability": "nonpayable",
      "type": "constructor"
    },
    {
      "anonymous": false,
      "inputs": [
        {
          "indexed": true,
          "internalType": "address",
          "name": "owner",
          "type": "address"
        },
        {
          "indexed": true,
          "internalType": "address",
          "name": "approved",
          "type": "address"
        },
        {
          "indexed": true,
          "internalType": "uint256",
          "name": "tokenId",
          "type": "uint256"
        }
      ],
      "name": "Approval",
      "type": "event"
    },
    {
      "anonymous": false,
      "inputs": [
        {
          "indexed": true,
          "internalType": "address",
          "name": "owner",
          "type": "address"
        },
        {
          "indexed": true,
          "internalType": "address",
          "name": "operator",
          "type": "address"
        },
        {
          "indexed": false,
          "internalType": "bool",
          "name": "approved",
          "type": "bool"
        }
      ],
      "name": "ApprovalForAll",
      "type": "event"
    },
    {
      "anonymous": false,
      "inputs": [
        {
          "indexed": true,
          "internalType": "address",
          "name": "previousOwner",
          "type": "address"
        },
        {
          "indexed": true,
          "internalType": "address",
          "name": "newOwner",
          "type": "address"
        }
      ],
      "name": "OwnershipTransferred",
      "type": "event"
    },
    {
      "anonymous": false,
      "inputs": [
        {
          "indexed": false,
          "internalType": "uint256",
          "name": "_tokenId",
          "type": "uint256"
        },
        {
          "indexed": false,
          "internalType": "uint256",
          "name": "_personalizationMask",
          "type": "uint256"
        }
      ],
      "name": "Personalized",
      "type": "event"
    },
    {
      "anonymous": false,
      "inputs": [
        {
          "indexed": false,
          "internalType": "bool",
          "name": "_pause",
          "type": "bool"
        }
      ],
      "name": "TogglePaused",
      "type": "event"
    },
    {
      "anonymous": false,
      "inputs": [
        {
          "indexed": true,
          "internalType": "address",
          "name": "from",
          "type": "address"
        },
        {
          "indexed": true,
          "internalType": "address",
          "name": "to",
          "type": "address"
        },
        {
          "indexed": true,
          "internalType": "uint256",
          "name": "tokenId",
          "type": "uint256"
        }
      ],
      "name": "Transfer",
      "type": "event"
    },
    {
      "inputs": [],
      "name": "MAX_SUPPLY",
      "outputs": [
        {
          "internalType": "uint256",
          "name": "",
          "type": "uint256"
        }
      ],
      "stateMutability": "view",
      "type": "function"
    },
    {
      "inputs": [],
      "name": "allowedToExecuteMint",
      "outputs": [
        {
          "internalType": "address",
          "name": "",
          "type": "address"
        }
      ],
      "stateMutability": "view",
      "type": "function"
    },
    {
      "inputs": [],
      "name": "allowedToExecutePersonalization",
      "outputs": [
        {
          "internalType": "address",
          "name": "",
          "type": "address"
        }
      ],
      "stateMutability": "view",
      "type": "function"
    },
    {
      "inputs": [
        {
          "internalType": "address",
          "name": "to",
          "type": "address"
        },
        {
          "internalType": "uint256",
          "name": "tokenId",
          "type": "uint256"
        }
      ],
      "name": "approve",
      "outputs": [],
      "stateMutability": "nonpayable",
      "type": "function"
    },
    {
      "inputs": [
        {
          "internalType": "address",
          "name": "owner",
          "type": "address"
        }
      ],
      "name": "balanceOf",
      "outputs": [
        {
          "internalType": "uint256",
          "name": "",
          "type": "uint256"
        }
      ],
      "stateMutability": "view",
      "type": "function"
    },
    {
      "inputs": [],
      "name": "baseTokenURI",
      "outputs": [
        {
          "internalType": "string",
          "name": "",
          "type": "string"
        }
      ],
      "stateMutability": "view",
      "type": "function"
    },
    {
      "inputs": [],
      "name": "chain",
      "outputs": [
        {
          "internalType": "uint256",
          "name": "",
          "type": "uint256"
        }
      ],
      "stateMutability": "view",
      "type": "function"
    },
    {
      "inputs": [
        {
          "internalType": "address",
          "name": "_wallet",
          "type": "address"
        },
        {
          "internalType": "uint256",
          "name": "_amount",
          "type": "uint256"
        }
      ],
      "name": "checkMintAllowed",
      "outputs": [
        {
          "internalType": "bool",
          "name": "",
          "type": "bool"
        }
      ],
      "stateMutability": "view",
      "type": "function"
    },
    {
      "inputs": [
        {
          "internalType": "address",
          "name": "_wallet",
          "type": "address"
        },
        {
          "internalType": "uint256",
          "name": "_signatureId",
          "type": "uint256"
        },
        {
          "internalType": "address",
          "name": "_contractAddress",
          "type": "address"
        },
        {
          "internalType": "uint256",
          "name": "_chainId",
          "type": "uint256"
        },
        {
          "internalType": "bytes",
          "name": "_signature",
          "type": "bytes"
        },
        {
          "internalType": "uint256",
          "name": "_tokenId",
          "type": "uint256"
        },
        {
          "internalType": "uint256",
          "name": "_personalizationMask",
          "type": "uint256"
        }
      ],
      "name": "checkPersonalizationSignature",
      "outputs": [
        {
          "internalType": "address",
          "name": "",
          "type": "address"
        }
      ],
      "stateMutability": "pure",
      "type": "function"
    },
    {
      "inputs": [
        {
          "internalType": "address",
          "name": "_wallet",
          "type": "address"
        },
        {
          "internalType": "uint256",
          "name": "_signatureId",
          "type": "uint256"
        },
        {
          "internalType": "address",
          "name": "_contractAddress",
          "type": "address"
        },
        {
          "internalType": "uint256",
          "name": "_chainId",
          "type": "uint256"
        },
        {
          "internalType": "bytes",
          "name": "_signature",
          "type": "bytes"
        }
      ],
      "name": "checkSignature",
      "outputs": [
        {
          "internalType": "address",
          "name": "",
          "type": "address"
        }
      ],
      "stateMutability": "pure",
      "type": "function"
    },
    {
      "inputs": [],
      "name": "contractAddress",
      "outputs": [
        {
          "internalType": "address",
          "name": "",
          "type": "address"
        }
      ],
      "stateMutability": "view",
      "type": "function"
    },
    {
      "inputs": [],
      "name": "erc1155Id",
      "outputs": [
        {
          "internalType": "uint256",
          "name": "",
          "type": "uint256"
        }
      ],
      "stateMutability": "view",
      "type": "function"
    },
    {
      "inputs": [
        {
          "internalType": "uint256",
          "name": "tokenId",
          "type": "uint256"
        }
      ],
      "name": "getApproved",
      "outputs": [
        {
          "internalType": "address",
          "name": "",
          "type": "address"
        }
      ],
      "stateMutability": "view",
      "type": "function"
    },
    {
      "inputs": [],
      "name": "indexWave",
      "outputs": [
        {
          "internalType": "uint256",
          "name": "",
          "type": "uint256"
        }
      ],
      "stateMutability": "view",
      "type": "function"
    },
    {
      "inputs": [
        {
          "internalType": "address",
          "name": "owner",
          "type": "address"
        },
        {
          "internalType": "address",
          "name": "operator",
          "type": "address"
        }
      ],
      "name": "isApprovedForAll",
      "outputs": [
        {
          "internalType": "bool",
          "name": "",
          "type": "bool"
        }
      ],
      "stateMutability": "view",
      "type": "function"
    },
    {
      "inputs": [
        {
          "internalType": "address",
          "name": "_wallet",
          "type": "address"
        },
        {
          "internalType": "uint256",
          "name": "_amount",
          "type": "uint256"
        },
        {
          "internalType": "uint256",
          "name": "_signatureId",
          "type": "uint256"
        },
        {
          "internalType": "bytes",
          "name": "_signature",
          "type": "bytes"
        }
      ],
      "name": "mint",
      "outputs": [],
      "stateMutability": "nonpayable",
      "type": "function"
    },
    {
      "inputs": [],
      "name": "name",
      "outputs": [
        {
          "internalType": "string",
          "name": "",
          "type": "string"
        }
      ],
      "stateMutability": "view",
      "type": "function"
    },
    {
      "inputs": [],
      "name": "owner",
      "outputs": [
        {
          "internalType": "address",
          "name": "",
          "type": "address"
        }
      ],
      "stateMutability": "view",
      "type": "function"
    },
    {
      "inputs": [
        {
          "internalType": "uint256",
          "name": "tokenId",
          "type": "uint256"
        }
      ],
      "name": "ownerOf",
      "outputs": [
        {
          "internalType": "address",
          "name": "",
          "type": "address"
        }
      ],
      "stateMutability": "view",
      "type": "function"
    },
    {
      "inputs": [],
      "name": "paused",
      "outputs": [
        {
          "internalType": "uint256",
          "name": "",
          "type": "uint256"
        }
      ],
      "stateMutability": "view",
      "type": "function"
    },
    {
      "inputs": [
        {
          "internalType": "uint256",
          "name": "",
          "type": "uint256"
        }
      ],
      "name": "personalizationTraits",
      "outputs": [
        {
          "internalType": "uint256",
          "name": "",
          "type": "uint256"
        }
      ],
      "stateMutability": "view",
      "type": "function"
    },
    {
      "inputs": [
        {
          "internalType": "address",
          "name": "_wallet",
          "type": "address"
        },
        {
          "internalType": "uint256",
          "name": "_signatureId",
          "type": "uint256"
        },
        {
          "internalType": "address",
          "name": "_contractAddress",
          "type": "address"
        },
        {
          "internalType": "uint256",
          "name": "_chainId",
          "type": "uint256"
        },
        {
          "internalType": "bytes",
          "name": "_signature",
          "type": "bytes"
        },
        {
          "internalType": "uint256",
          "name": "_tokenId",
          "type": "uint256"
        },
        {
          "internalType": "uint256",
          "name": "_personalizationMask",
          "type": "uint256"
        }
      ],
      "name": "personalize",
      "outputs": [],
      "stateMutability": "nonpayable",
      "type": "function"
    },
    {
      "inputs": [
        {
          "internalType": "uint256",
          "name": "_count",
          "type": "uint256"
        }
      ],
      "name": "price",
      "outputs": [
        {
          "internalType": "uint256",
          "name": "",
          "type": "uint256"
        }
      ],
      "stateMutability": "view",
      "type": "function"
    },
    {
      "inputs": [],
      "name": "renounceOwnership",
      "outputs": [],
      "stateMutability": "nonpayable",
      "type": "function"
    },
    {
      "inputs": [
        {
          "internalType": "address",
          "name": "from",
          "type": "address"
        },
        {
          "internalType": "address",
          "name": "to",
          "type": "address"
        },
        {
          "internalType": "uint256",
          "name": "tokenId",
          "type": "uint256"
        }
      ],
      "name": "safeTransferFrom",
      "outputs": [],
      "stateMutability": "nonpayable",
      "type": "function"
    },
    {
      "inputs": [
        {
          "internalType": "address",
          "name": "from",
          "type": "address"
        },
        {
          "internalType": "address",
          "name": "to",
          "type": "address"
        },
        {
          "internalType": "uint256",
          "name": "tokenId",
          "type": "uint256"
        },
        {
          "internalType": "bytes",
          "name": "_data",
          "type": "bytes"
        }
      ],
      "name": "safeTransferFrom",
      "outputs": [],
      "stateMutability": "nonpayable",
      "type": "function"
    },
    {
      "inputs": [],
      "name": "sandOwner",
      "outputs": [
        {
          "internalType": "address",
          "name": "",
          "type": "address"
        }
      ],
      "stateMutability": "view",
      "type": "function"
    },
    {
      "inputs": [
        {
          "internalType": "address",
          "name": "_address",
          "type": "address"
        }
      ],
      "name": "setAllowedExecuteMint",
      "outputs": [],
      "stateMutability": "nonpayable",
      "type": "function"
    },
    {
      "inputs": [
        {
          "internalType": "address",
          "name": "_address",
          "type": "address"
        }
      ],
      "name": "setAllowedExecutePersonalization",
      "outputs": [],
      "stateMutability": "nonpayable",
      "type": "function"
    },
    {
      "inputs": [
        {
          "internalType": "address",
          "name": "operator",
          "type": "address"
        },
        {
          "internalType": "bool",
          "name": "approved",
          "type": "bool"
        }
      ],
      "name": "setApprovalForAll",
      "outputs": [],
      "stateMutability": "nonpayable",
      "type": "function"
    },
    {
      "inputs": [
        {
          "internalType": "string",
          "name": "baseURI",
          "type": "string"
        }
      ],
      "name": "setBaseURI",
      "outputs": [],
      "stateMutability": "nonpayable",
      "type": "function"
    },
    {
      "inputs": [
        {
          "internalType": "address",
          "name": "_owner",
          "type": "address"
        }
      ],
      "name": "setSandOwnerAddress",
      "outputs": [],
      "stateMutability": "nonpayable",
      "type": "function"
    },
    {
      "inputs": [
        {
          "internalType": "address",
          "name": "_signAddress",
          "type": "address"
        }
      ],
      "name": "setSignAddress",
      "outputs": [],
      "stateMutability": "nonpayable",
      "type": "function"
    },
    {
      "inputs": [
        {
          "internalType": "uint256",
          "name": "_waveType",
          "type": "uint256"
        },
        {
          "internalType": "uint256",
          "name": "_waveMaxTokens",
          "type": "uint256"
        },
        {
          "internalType": "uint256",
          "name": "_waveMaxTokensToBuy",
          "type": "uint256"
        },
        {
          "internalType": "uint256",
          "name": "_waveSingleTokenPrice",
          "type": "uint256"
        },
        {
          "internalType": "address",
          "name": "_contractAddress",
          "type": "address"
        },
        {
          "internalType": "uint256",
          "name": "_erc1155Id",
          "type": "uint256"
        }
      ],
      "name": "setupWave",
      "outputs": [],
      "stateMutability": "nonpayable",
      "type": "function"
    },
    {
      "inputs": [],
      "name": "signAddress",
      "outputs": [
        {
          "internalType": "address",
          "name": "",
          "type": "address"
        }
      ],
      "stateMutability": "view",
      "type": "function"
    },
    {
      "inputs": [
        {
          "internalType": "bytes4",
          "name": "interfaceId",
          "type": "bytes4"
        }
      ],
      "name": "supportsInterface",
      "outputs": [
        {
          "internalType": "bool",
          "name": "",
          "type": "bool"
        }
      ],
      "stateMutability": "view",
      "type": "function"
    },
    {
      "inputs": [],
      "name": "symbol",
      "outputs": [
        {
          "internalType": "string",
          "name": "",
          "type": "string"
        }
      ],
      "stateMutability": "view",
      "type": "function"
    },
    {
      "inputs": [],
      "name": "toggleSale",
      "outputs": [],
      "stateMutability": "nonpayable",
      "type": "function"
    },
    {
      "inputs": [
        {
          "internalType": "uint256",
          "name": "index",
          "type": "uint256"
        }
      ],
      "name": "tokenByIndex",
      "outputs": [
        {
          "internalType": "uint256",
          "name": "",
          "type": "uint256"
        }
      ],
      "stateMutability": "view",
      "type": "function"
    },
    {
      "inputs": [
        {
          "internalType": "address",
          "name": "owner",
          "type": "address"
        },
        {
          "internalType": "uint256",
          "name": "index",
          "type": "uint256"
        }
      ],
      "name": "tokenOfOwnerByIndex",
      "outputs": [
        {
          "internalType": "uint256",
          "name": "",
          "type": "uint256"
        }
      ],
      "stateMutability": "view",
      "type": "function"
    },
    {
      "inputs": [
        {
          "internalType": "uint256",
          "name": "tokenId",
          "type": "uint256"
        }
      ],
      "name": "tokenURI",
      "outputs": [
        {
          "internalType": "string",
          "name": "",
          "type": "string"
        }
      ],
      "stateMutability": "view",
      "type": "function"
    },
    {
      "inputs": [],
      "name": "totalSupply",
      "outputs": [
        {
          "internalType": "uint256",
          "name": "",
          "type": "uint256"
        }
      ],
      "stateMutability": "view",
      "type": "function"
    },
    {
      "inputs": [
        {
          "internalType": "address",
          "name": "from",
          "type": "address"
        },
        {
          "internalType": "address",
          "name": "to",
          "type": "address"
        },
        {
          "internalType": "uint256",
          "name": "tokenId",
          "type": "uint256"
        }
      ],
      "name": "transferFrom",
      "outputs": [],
      "stateMutability": "nonpayable",
      "type": "function"
    },
    {
      "inputs": [
        {
          "internalType": "address",
          "name": "newOwner",
          "type": "address"
        }
      ],
      "name": "transferOwnership",
      "outputs": [],
      "stateMutability": "nonpayable",
      "type": "function"
    },
    {
      "inputs": [],
      "name": "waveMaxTokens",
      "outputs": [
        {
          "internalType": "uint256",
          "name": "",
          "type": "uint256"
        }
      ],
      "stateMutability": "view",
      "type": "function"
    },
    {
      "inputs": [],
      "name": "waveMaxTokensToBuy",
      "outputs": [
        {
          "internalType": "uint256",
          "name": "",
          "type": "uint256"
        }
      ],
      "stateMutability": "view",
      "type": "function"
    },
    {
      "inputs": [
        {
          "internalType": "address",
          "name": "",
          "type": "address"
        },
        {
          "internalType": "uint256",
          "name": "",
          "type": "uint256"
        }
      ],
      "name": "waveOwnerToClaimedCounts",
      "outputs": [
        {
          "internalType": "uint256",
          "name": "",
          "type": "uint256"
        }
      ],
      "stateMutability": "view",
      "type": "function"
    },
    {
      "inputs": [],
      "name": "waveSingleTokenPrice",
      "outputs": [
        {
          "internalType": "uint256",
          "name": "",
          "type": "uint256"
        }
      ],
      "stateMutability": "view",
      "type": "function"
    },
    {
      "inputs": [],
      "name": "waveTotalMinted",
      "outputs": [
        {
          "internalType": "uint256",
          "name": "",
          "type": "uint256"
        }
      ],
      "stateMutability": "view",
      "type": "function"
    },
    {
      "inputs": [],
      "name": "waveType",
      "outputs": [
        {
          "internalType": "uint256",
          "name": "",
          "type": "uint256"
        }
      ],
      "stateMutability": "view",
      "type": "function"
    }
  ],
  "transactionHash": "0xa765974abd1783faf15d1bee43b2ff09fdb391f1f419de81e55a680f8e5ed521",
  "args": [
    "https://api-demo.sandbox.game/collections/26/metadata/",
    "People Of Crypto",
    "TD",
    "0xF22455c7F2a81E197AecD951F588a9B650f5b282",
    "0x17c5185167401eD00cF5F5b2fc97D9BBfDb7D025"
  ],
  "numDeployments": 1,
  "solcInputHash": "1ae09547ea8f23d589b73097416d6bc9",
  "bytecode": "0x60806040526000600c553480156200001657600080fd5b50604051620040a4380380620040a48339810160408190526200003991620002f2565b8351849084906200005290600090602085019062000199565b5080516200006890600190602084019062000199565b505050620000856200007f620000cb60201b60201c565b620000cf565b6001600b55620000958562000121565b601c80546001600160a01b039384166001600160a01b031991821617909155601d80549290931691161790555062000418915050565b3390565b600a80546001600160a01b038381166001600160a01b0319831681179093556040519116919082907f8be0079c531659141344cd1fd0a4f28419497f9722a3daafe3b4186f6b6457e090600090a35050565b600a546001600160a01b03163314620001805760405162461bcd60e51b815260206004820181905260248201527f4f776e61626c653a2063616c6c6572206973206e6f7420746865206f776e6572604482015260640160405180910390fd5b80516200019590601e90602084019062000199565b5050565b828054620001a790620003ac565b90600052602060002090601f016020900481019282620001cb576000855562000216565b82601f10620001e657805160ff191683800117855562000216565b8280016001018555821562000216579182015b8281111562000216578251825591602001919060010190620001f9565b506200022492915062000228565b5090565b5b8082111562000224576000815560010162000229565b600082601f83011262000250578081fd5b81516001600160401b03808211156200026d576200026d620003e9565b604051601f8301601f19908116603f01168101908282118183101715620002985762000298620003e9565b81604052838152602092508683858801011115620002b4578485fd5b8491505b83821015620002d75785820183015181830184015290820190620002b8565b83821115620002e857848385830101525b9695505050505050565b600080600080600060a086880312156200030a578081fd5b85516001600160401b038082111562000321578283fd5b6200032f89838a016200023f565b9650602088015191508082111562000345578283fd5b6200035389838a016200023f565b9550604088015191508082111562000369578283fd5b5062000378888289016200023f565b93505060608601516200038b81620003ff565b60808701519092506200039e81620003ff565b809150509295509295909350565b600281046001821680620003c157607f821691505b60208210811415620003e357634e487b7160e01b600052602260045260246000fd5b50919050565b634e487b7160e01b600052604160045260246000fd5b6001600160a01b03811681146200041557600080fd5b50565b613c7c80620004286000396000f3fe608060405234801561001057600080fd5b50600436106103365760003560e01c806370a08231116101b2578063b88d4fde116100f9578063df9740da116100a2578063e9d5a6a91161007c578063e9d5a6a914610692578063f2fde38b146106a5578063f6b4dfb4146106b8578063fdc17e3d146106cb57610336565b8063df9740da1461063a578063e89bcd0914610643578063e985e9c51461065657610336565b8063ca460138116100d3578063ca46013814610616578063d547cfb714610629578063d5878eaa1461063157610336565b8063b88d4fde146105ea578063c763e5a1146105fd578063c87b56dd1461060357610336565b80638da5cb5b1161015b578063a22cb46511610135578063a22cb465146105b1578063a8b75a6e146105c4578063ac3149e3146105d757610336565b80638da5cb5b14610585578063905d42b91461059657806395d89b41146105a957610336565b80637d8966e41161018c5780637d8966e41461055757806382bc78771461055f578063850a9aec1461057257610336565b806370a0823114610529578063715018a61461053c578063731133e91461054457610336565b8063283ca77c11610281578063433ad1061161022a5780635c975abb116102045780635c975abb146104c25780636352211e146104cb578063677ec90f146104de57806368d4a778146104fe57610336565b8063433ad106146104935780634f6ccce71461049c57806355f804b3146104af57610336565b806334b35ac01161025b57806334b35ac01461046e5780633e84aa5e1461047757806342842e0e1461048057610336565b8063283ca77c1461043f5780632f745c591461045257806332cb6b0c1461046557610336565b8063095ea7b3116102e357806323b872dd116102bd57806323b872dd1461040657806324a6f0851461041957806326a49e371461042c57610336565b8063095ea7b3146103d657806315137045146103eb57806318160ddd146103fe57610336565b80630682bdbc116103145780630682bdbc1461038357806306fdde03146103ae578063081812fc146103c357610336565b806301dbf7e01461033b57806301ffc9a714610357578063057831261461037a575b600080fd5b610344600c5481565b6040519081526020015b60405180910390f35b61036a610365366004613916565b6106de565b604051901515815260200161034e565b61034460115481565b601d54610396906001600160a01b031681565b6040516001600160a01b03909116815260200161034e565b6103b661073c565b60405161034e9190613abd565b6103966103d1366004613994565b6107ce565b6103e96103e4366004613797565b610879565b005b6103e96103f9366004613674565b6109ab565b600854610344565b6103e96104143660046136c0565b610a34565b6103e9610427366004613674565b610abb565b61034461043a366004613994565b610b44565b61036a61044d366004613797565b610b54565b610344610460366004613797565b610b77565b6103446161a881565b61034460155481565b61034460105481565b6103e961048e3660046136c0565b610c1f565b610344600f5481565b6103446104aa366004613994565b610c3a565b6103e96104bd36600461394e565b610cec565b61034460165481565b6103966104d9366004613994565b610d5d565b6103446104ec366004613994565b60146020526000908152604090205481565b61034461050c366004613797565b601360209081526000928352604080842090915290825290205481565b610344610537366004613674565b610de8565b6103e9610e82565b6103e96105523660046138b3565b610ee8565b6103e96114a1565b6103e961056d366004613674565b61154e565b601b54610396906001600160a01b031681565b600a546001600160a01b0316610396565b6103e96105a4366004613830565b6115d7565b6103b66117fe565b6103e96105bf366004613761565b61180d565b6103966105d23660046137c0565b611818565b601a54610396906001600160a01b031681565b6103e96105f83660046136fb565b6118ba565b46610344565b6103b6610611366004613994565b611948565b6103e96106243660046139c4565b611a30565b6103b6611c24565b610344600d5481565b610344600e5481565b601c54610396906001600160a01b031681565b61036a61066436600461368e565b6001600160a01b03918216600090815260056020908152604080832093909416825291909152205460ff1690565b6103966106a0366004613830565b611cb2565b6103e96106b3366004613674565b611d64565b601254610396906001600160a01b031681565b6103e96106d9366004613674565b611e46565b60007fffffffff0000000000000000000000000000000000000000000000000000000082167f780e9d63000000000000000000000000000000000000000000000000000000001480610734575061073482611ecf565b90505b919050565b60606000805461074b90613b5e565b80601f016020809104026020016040519081016040528092919081815260200182805461077790613b5e565b80156107c45780601f10610799576101008083540402835291602001916107c4565b820191906000526020600020905b8154815290600101906020018083116107a757829003601f168201915b5050505050905090565b6000818152600260205260408120546001600160a01b031661085d5760405162461bcd60e51b815260206004820152602c60248201527f4552433732313a20617070726f76656420717565727920666f72206e6f6e657860448201527f697374656e7420746f6b656e000000000000000000000000000000000000000060648201526084015b60405180910390fd5b506000908152600460205260409020546001600160a01b031690565b600061088482610d5d565b9050806001600160a01b0316836001600160a01b0316141561090e5760405162461bcd60e51b815260206004820152602160248201527f4552433732313a20617070726f76616c20746f2063757272656e74206f776e6560448201527f72000000000000000000000000000000000000000000000000000000000000006064820152608401610854565b336001600160a01b038216148061092a575061092a8133610664565b61099c5760405162461bcd60e51b815260206004820152603860248201527f4552433732313a20617070726f76652063616c6c6572206973206e6f74206f7760448201527f6e6572206e6f7220617070726f76656420666f7220616c6c00000000000000006064820152608401610854565b6109a68383611fb2565b505050565b600a546001600160a01b03163314610a055760405162461bcd60e51b815260206004820181905260248201527f4f776e61626c653a2063616c6c6572206973206e6f7420746865206f776e65726044820152606401610854565b601d805473ffffffffffffffffffffffffffffffffffffffff19166001600160a01b0392909216919091179055565b610a3e338261202d565b610ab05760405162461bcd60e51b815260206004820152603160248201527f4552433732313a207472616e736665722063616c6c6572206973206e6f74206f60448201527f776e6572206e6f7220617070726f7665640000000000000000000000000000006064820152608401610854565b6109a6838383612135565b600a546001600160a01b03163314610b155760405162461bcd60e51b815260206004820181905260248201527f4f776e61626c653a2063616c6c6572206973206e6f7420746865206f776e65726044820152606401610854565b601c805473ffffffffffffffffffffffffffffffffffffffff19166001600160a01b0392909216919091179055565b600081600f546107349190613afc565b6000610b5f8261231a565b8015610b705750610b70838361233f565b9392505050565b6000610b8283610de8565b8210610bf65760405162461bcd60e51b815260206004820152602b60248201527f455243373231456e756d657261626c653a206f776e657220696e646578206f7560448201527f74206f6620626f756e64730000000000000000000000000000000000000000006064820152608401610854565b506001600160a01b03919091166000908152600660209081526040808320938352929052205490565b6109a6838383604051806020016040528060008152506118ba565b6000610c4560085490565b8210610cb95760405162461bcd60e51b815260206004820152602c60248201527f455243373231456e756d657261626c653a20676c6f62616c20696e646578206f60448201527f7574206f6620626f756e647300000000000000000000000000000000000000006064820152608401610854565b60088281548110610cda57634e487b7160e01b600052603260045260246000fd5b90600052602060002001549050919050565b600a546001600160a01b03163314610d465760405162461bcd60e51b815260206004820181905260248201527f4f776e61626c653a2063616c6c6572206973206e6f7420746865206f776e65726044820152606401610854565b8051610d5990601e90602084019061352f565b5050565b6000818152600260205260408120546001600160a01b0316806107345760405162461bcd60e51b815260206004820152602960248201527f4552433732313a206f776e657220717565727920666f72206e6f6e657869737460448201527f656e7420746f6b656e00000000000000000000000000000000000000000000006064820152608401610854565b60006001600160a01b038216610e665760405162461bcd60e51b815260206004820152602a60248201527f4552433732313a2062616c616e636520717565727920666f7220746865207a6560448201527f726f2061646472657373000000000000000000000000000000000000000000006064820152608401610854565b506001600160a01b031660009081526003602052604090205490565b600a546001600160a01b03163314610edc5760405162461bcd60e51b815260206004820181905260248201527f4f776e61626c653a2063616c6c6572206973206e6f7420746865206f776e65726044820152606401610854565b610ee660006123bd565b565b6002600b541415610f3b5760405162461bcd60e51b815260206004820152601f60248201527f5265656e7472616e637947756172643a207265656e7472616e742063616c6c006044820152606401610854565b6002600b55601554610f8f5760405162461bcd60e51b815260206004820152601a60248201527f436f6e7472616374206973206e6f7420636f6e666967757265640000000000006044820152606401610854565b601a546001600160a01b0316336001600160a01b031614610ff25760405162461bcd60e51b815260206004820152600b60248201527f4e6f7420616c6c6f7765640000000000000000000000000000000000000000006044820152606401610854565b601654156110425760405162461bcd60e51b815260206004820152601260248201527f436f6e74726163742069732070617573656400000000000000000000000000006044820152606401610854565b6000828152601760205260409020541561109e5760405162461bcd60e51b815260206004820152601860248201527f7369676e6174757265496420616c7265616479207573656400000000000000006044820152606401610854565b601d546001600160a01b03166110b78584304686611818565b6001600160a01b03161461110d5760405162461bcd60e51b815260206004820152601060248201527f5369676e6174757265206661696c6564000000000000000000000000000000006044820152606401610854565b6000828152601760205260409020600190556111288361231a565b6111745760405162461bcd60e51b815260206004820152600e60248201527f5761766520636f6d706c657465640000000000000000000000000000000000006044820152606401610854565b61117e848461233f565b6111ca5760405162461bcd60e51b815260206004820152600b60248201527f4d617820616c6c6f7765640000000000000000000000000000000000000000006044820152606401610854565b600c54600114156112be576012546040517f70a082310000000000000000000000000000000000000000000000000000000081526001600160a01b03868116600483015260009216906370a082319060240160206040518083038186803b15801561123457600080fd5b505afa158015611248573d6000803e3d6000fd5b505050506040513d601f19601f8201168201806040525081019061126c91906139ac565b116112b95760405162461bcd60e51b815260206004820152600660248201527f4e6f204e465400000000000000000000000000000000000000000000000000006044820152606401610854565b6113c5565b600c54600214156113c5576012546011546040517efdd58e0000000000000000000000000000000000000000000000000000000081526000926001600160a01b03169162fdd58e916113289189916004016001600160a01b03929092168252602082015260400190565b60206040518083038186803b15801561134057600080fd5b505afa158015611354573d6000803e3d6000fd5b505050506040513d601f19601f8201168201806040525081019061137891906139ac565b116113c55760405162461bcd60e51b815260206004820152600660248201527f4e6f204e465400000000000000000000000000000000000000000000000000006044820152606401610854565b60006113d084610b44565b905080156113f0576113f033601c5487906001600160a01b03168461241c565b6001600160a01b038516600090815260136020526040812060155486929061141a90600190613b1b565b815260200190815260200160002060008282546114379190613ad0565b9250508190555083601060008282546114509190613ad0565b90915550600090505b848110156114945760006114758761147060085490565b6124a4565b905061148187826125cb565b508061148c81613b99565b915050611459565b50506001600b5550505050565b600a546001600160a01b031633146114fb5760405162461bcd60e51b815260206004820181905260248201527f4f776e61626c653a2063616c6c6572206973206e6f7420746865206f776e65726044820152606401610854565b6016541561150a57600061150d565b60015b60ff166016819055604051600190911481527f723520dd5c4a47afb7ed5524b7b777a2300bdcf95cade0bf2afa9d582e66ee999060200160405180910390a1565b600a546001600160a01b031633146115a85760405162461bcd60e51b815260206004820181905260248201527f4f776e61626c653a2063616c6c6572206973206e6f7420746865206f776e65726044820152606401610854565b601a805473ffffffffffffffffffffffffffffffffffffffff19166001600160a01b0392909216919091179055565b601b546001600160a01b0316336001600160a01b03161461163a5760405162461bcd60e51b815260206004820152600b60248201527f4e6f7420616c6c6f7765640000000000000000000000000000000000000000006044820152606401610854565b600086815260186020526040902054156116965760405162461bcd60e51b815260206004820152601860248201527f7369676e6174757265496420616c7265616479207573656400000000000000006044820152606401610854565b601d546001600160a01b03166116b188883046888888611cb2565b6001600160a01b0316146117075760405162461bcd60e51b815260206004820152601060248201527f5369676e6174757265206661696c6564000000000000000000000000000000006044820152606401610854565b600086815260186020526040902060019055601c546001600160a01b031661172e83610d5d565b6001600160a01b0316146117aa5760405162461bcd60e51b815260206004820152603d60248201527f596f75206d75737420626520746865206f776e6572206f662074686520746f6b60448201527f656e20696e206f7264657220746f20706572736f6e616c697a652069740000006064820152608401610854565b60008281526014602090815260409182902083905581518481529081018390527f37c5b85bb9cbe019726db5bf44dfd0053ed3e09554d9f97a9778b5b8dd65f620910160405180910390a150505050505050565b60606001805461074b90613b5e565b610d593383836125e5565b604080516001600160a01b0380881660208301529181018690529084166060820152608081018390526000906118b09060a00160408051601f198184030181529082905280516020918201207f19457468657265756d205369676e6564204d6573736167653a0a33320000000091830191909152603c820152605c0160405160208183030381529060405280519060200120836126d2565b9695505050505050565b6118c4338361202d565b6119365760405162461bcd60e51b815260206004820152603160248201527f4552433732313a207472616e736665722063616c6c6572206973206e6f74206f60448201527f776e6572206e6f7220617070726f7665640000000000000000000000000000006064820152608401610854565b611942848484846126f6565b50505050565b6000818152600260205260409020546060906001600160a01b03166119d55760405162461bcd60e51b815260206004820152602f60248201527f4552433732314d657461646174613a2055524920717565727920666f72206e6f60448201527f6e6578697374656e7420746f6b656e00000000000000000000000000000000006064820152608401610854565b60006119df61277f565b905060008151116119ff5760405180602001604052806000815250610b70565b80611a098461278e565b604051602001611a1a929190613a5c565b6040516020818303038152906040529392505050565b600a546001600160a01b03163314611a8a5760405162461bcd60e51b815260206004820181905260248201527f4f776e61626c653a2063616c6c6572206973206e6f7420746865206f776e65726044820152606401610854565b600386108015611a9a5750600085115b8015611aa65750600084115b611af25760405162461bcd60e51b815260206004820152601560248201527f496e76616c696420636f6e66696775726174696f6e00000000000000000000006044820152606401610854565b8515611b4e576001600160a01b038216611b4e5760405162461bcd60e51b815260206004820152601860248201527f496e76616c696420636f6e7472616374206164647265737300000000000000006044820152606401610854565b84841115611b9e5760405162461bcd60e51b815260206004820152601c60248201527f496e76616c696420737570706c7920636f6e66696775726174696f6e000000006044820152606401610854565b600c869055600d859055600e849055600f83905560006010558515611bc35781611bc6565b60005b6012805473ffffffffffffffffffffffffffffffffffffffff19166001600160a01b039290921691909117905560028614611c02576000611c04565b805b60115560158054906000611c1783613b99565b9190505550505050505050565b601e8054611c3190613b5e565b80601f0160208091040260200160405190810160405280929190818152602001828054611c5d90613b5e565b8015611caa5780601f10611c7f57610100808354040283529160200191611caa565b820191906000526020600020905b815481529060010190602001808311611c8d57829003601f168201915b505050505081565b604080516001600160a01b03808a16602083015291810188905290861660608201526080810185905260a0810183905260c08101829052600090611d589060e00160408051601f198184030181529082905280516020918201207f19457468657265756d205369676e6564204d6573736167653a0a33320000000091830191909152603c820152605c0160405160208183030381529060405280519060200120856126d2565b98975050505050505050565b600a546001600160a01b03163314611dbe5760405162461bcd60e51b815260206004820181905260248201527f4f776e61626c653a2063616c6c6572206973206e6f7420746865206f776e65726044820152606401610854565b6001600160a01b038116611e3a5760405162461bcd60e51b815260206004820152602660248201527f4f776e61626c653a206e6577206f776e657220697320746865207a65726f206160448201527f64647265737300000000000000000000000000000000000000000000000000006064820152608401610854565b611e43816123bd565b50565b600a546001600160a01b03163314611ea05760405162461bcd60e51b815260206004820181905260248201527f4f776e61626c653a2063616c6c6572206973206e6f7420746865206f776e65726044820152606401610854565b601b805473ffffffffffffffffffffffffffffffffffffffff19166001600160a01b0392909216919091179055565b60007fffffffff0000000000000000000000000000000000000000000000000000000082167f80ac58cd000000000000000000000000000000000000000000000000000000001480611f6257507fffffffff0000000000000000000000000000000000000000000000000000000082167f5b5e139f00000000000000000000000000000000000000000000000000000000145b8061073457507f01ffc9a7000000000000000000000000000000000000000000000000000000007fffffffff00000000000000000000000000000000000000000000000000000000831614610734565b6000818152600460205260409020805473ffffffffffffffffffffffffffffffffffffffff19166001600160a01b0384169081179091558190611ff482610d5d565b6001600160a01b03167f8c5be1e5ebec7d5bd14f71427d1e84f3dd0314c0f7b2291e5b200ac8c7c3b92560405160405180910390a45050565b6000818152600260205260408120546001600160a01b03166120b75760405162461bcd60e51b815260206004820152602c60248201527f4552433732313a206f70657261746f7220717565727920666f72206e6f6e657860448201527f697374656e7420746f6b656e00000000000000000000000000000000000000006064820152608401610854565b60006120c283610d5d565b9050806001600160a01b0316846001600160a01b031614806120fd5750836001600160a01b03166120f2846107ce565b6001600160a01b0316145b8061212d57506001600160a01b0380821660009081526005602090815260408083209388168352929052205460ff165b949350505050565b826001600160a01b031661214882610d5d565b6001600160a01b0316146121c45760405162461bcd60e51b815260206004820152602960248201527f4552433732313a207472616e73666572206f6620746f6b656e2074686174206960448201527f73206e6f74206f776e00000000000000000000000000000000000000000000006064820152608401610854565b6001600160a01b03821661223f5760405162461bcd60e51b8152602060048201526024808201527f4552433732313a207472616e7366657220746f20746865207a65726f2061646460448201527f72657373000000000000000000000000000000000000000000000000000000006064820152608401610854565b61224a8383836128dd565b612255600082611fb2565b6001600160a01b038316600090815260036020526040812080546001929061227e908490613b1b565b90915550506001600160a01b03821660009081526003602052604081208054600192906122ac908490613ad0565b9091555050600081815260026020526040808220805473ffffffffffffffffffffffffffffffffffffffff19166001600160a01b0386811691821790925591518493918716917fddf252ad1be2c89b69c2b068fc378daa952ba7f163c4a11628f55a4df523b3ef91a4505050565b600080821180156107345750600d54826010546123379190613ad0565b111592915050565b6000600e548260136000866001600160a01b03166001600160a01b031681526020019081526020016000206000600160155461237b9190613b1b565b8152602001908152602001600020546123949190613ad0565b11158015610b7057506161a8826123aa60085490565b6123b49190613ad0565b11159392505050565b600a80546001600160a01b0383811673ffffffffffffffffffffffffffffffffffffffff19831681179093556040519116919082907f8be0079c531659141344cd1fd0a4f28419497f9722a3daafe3b4186f6b6457e090600090a35050565b604080516001600160a01b0385811660248301528416604482015260648082018490528251808303909101815260849091019091526020810180517bffffffffffffffffffffffffffffffffffffffffffffffffffffffff167f23b872dd0000000000000000000000000000000000000000000000000000000017905261194290859061299a565b6000806124b3836161a8613b1b565b6040517fffffffffffffffffffffffffffffffffffffffff000000000000000000000000606087901b1660208201524460348201524260548201526074810182905290915060009082906094016040516020818303038152906040528051906020012060001c6125239190613bb4565b60008181526019602052604090205490915081901561254d57506000818152601960205260409020545b6019600061255c600186613b1b565b815260200190815260200160002054600014156125925761257e600184613b1b565b6000838152601960205260409020556125c2565b601960006125a1600186613b1b565b81526020808201929092526040908101600090812054858252601990935220555b95945050505050565b610d59828260405180602001604052806000815250612a7f565b816001600160a01b0316836001600160a01b031614156126475760405162461bcd60e51b815260206004820152601960248201527f4552433732313a20617070726f766520746f2063616c6c6572000000000000006044820152606401610854565b6001600160a01b0383811660008181526005602090815260408083209487168084529482529182902080547fffffffffffffffffffffffffffffffffffffffffffffffffffffffffffffff001686151590811790915591519182527f17307eab39ab6107e8899845ad3d59bd9653f200f220920489ca2b5937696c31910160405180910390a3505050565b60008060006126e18585612b08565b915091506126ee81612b78565b509392505050565b612701848484612135565b61270d84848484612db1565b6119425760405162461bcd60e51b815260206004820152603260248201527f4552433732313a207472616e7366657220746f206e6f6e20455243373231526560448201527f63656976657220696d706c656d656e74657200000000000000000000000000006064820152608401610854565b6060601e805461074b90613b5e565b6060816127cf575060408051808201909152600181527f30000000000000000000000000000000000000000000000000000000000000006020820152610737565b8160005b81156127f957806127e381613b99565b91506127f29050600a83613ae8565b91506127d3565b60008167ffffffffffffffff81111561282257634e487b7160e01b600052604160045260246000fd5b6040519080825280601f01601f19166020018201604052801561284c576020820181803683370190505b5090505b841561212d57612861600183613b1b565b915061286e600a86613bb4565b612879906030613ad0565b60f81b81838151811061289c57634e487b7160e01b600052603260045260246000fd5b60200101907effffffffffffffffffffffffffffffffffffffffffffffffffffffffffffff1916908160001a9053506128d6600a86613ae8565b9450612850565b6001600160a01b0383166129385761293381600880546000838152600960205260408120829055600182018355919091527ff3f7a9fe364faab93b216da50a3214154f22a0a2b415b23a84c8169e8b636ee30155565b61295b565b816001600160a01b0316836001600160a01b03161461295b5761295b8382612f5e565b6001600160a01b0382166129775761297281612ffb565b6109a6565b826001600160a01b0316826001600160a01b0316146109a6576109a682826130d4565b60006129ef826040518060400160405280602081526020017f5361666545524332303a206c6f772d6c6576656c2063616c6c206661696c6564815250856001600160a01b03166131189092919063ffffffff16565b8051909150156109a65780806020019051810190612a0d91906138fa565b6109a65760405162461bcd60e51b815260206004820152602a60248201527f5361666545524332303a204552433230206f7065726174696f6e20646964206e60448201527f6f742073756363656564000000000000000000000000000000000000000000006064820152608401610854565b612a898383613127565b612a966000848484612db1565b6109a65760405162461bcd60e51b815260206004820152603260248201527f4552433732313a207472616e7366657220746f206e6f6e20455243373231526560448201527f63656976657220696d706c656d656e74657200000000000000000000000000006064820152608401610854565b600080825160411415612b3f5760208301516040840151606085015160001a612b3387828585613282565b94509450505050612b71565b825160401415612b695760208301516040840151612b5e86838361336f565b935093505050612b71565b506000905060025b9250929050565b6000816004811115612b9a57634e487b7160e01b600052602160045260246000fd5b1415612ba557611e43565b6001816004811115612bc757634e487b7160e01b600052602160045260246000fd5b1415612c155760405162461bcd60e51b815260206004820152601860248201527f45434453413a20696e76616c6964207369676e617475726500000000000000006044820152606401610854565b6002816004811115612c3757634e487b7160e01b600052602160045260246000fd5b1415612c855760405162461bcd60e51b815260206004820152601f60248201527f45434453413a20696e76616c6964207369676e6174757265206c656e677468006044820152606401610854565b6003816004811115612ca757634e487b7160e01b600052602160045260246000fd5b1415612d1b5760405162461bcd60e51b815260206004820152602260248201527f45434453413a20696e76616c6964207369676e6174757265202773272076616c60448201527f75650000000000000000000000000000000000000000000000000000000000006064820152608401610854565b6004816004811115612d3d57634e487b7160e01b600052602160045260246000fd5b1415611e435760405162461bcd60e51b815260206004820152602260248201527f45434453413a20696e76616c6964207369676e6174757265202776272076616c60448201527f75650000000000000000000000000000000000000000000000000000000000006064820152608401610854565b60006001600160a01b0384163b15612f53576040517f150b7a020000000000000000000000000000000000000000000000000000000081526001600160a01b0385169063150b7a0290612e0e903390899088908890600401613a8b565b602060405180830381600087803b158015612e2857600080fd5b505af1925050508015612e58575060408051601f3d908101601f19168201909252612e5591810190613932565b60015b612f08573d808015612e86576040519150601f19603f3d011682016040523d82523d6000602084013e612e8b565b606091505b508051612f005760405162461bcd60e51b815260206004820152603260248201527f4552433732313a207472616e7366657220746f206e6f6e20455243373231526560448201527f63656976657220696d706c656d656e74657200000000000000000000000000006064820152608401610854565b805181602001fd5b7fffffffff00000000000000000000000000000000000000000000000000000000167f150b7a020000000000000000000000000000000000000000000000000000000014905061212d565b506001949350505050565b60006001612f6b84610de8565b612f759190613b1b565b600083815260076020526040902054909150808214612fc8576001600160a01b03841660009081526006602090815260408083208584528252808320548484528184208190558352600790915290208190555b5060009182526007602090815260408084208490556001600160a01b039094168352600681528383209183525290812055565b60085460009061300d90600190613b1b565b6000838152600960205260408120546008805493945090928490811061304357634e487b7160e01b600052603260045260246000fd5b90600052602060002001549050806008838154811061307257634e487b7160e01b600052603260045260246000fd5b60009182526020808320909101929092558281526009909152604080822084905585825281205560088054806130b857634e487b7160e01b600052603160045260246000fd5b6001900381819060005260206000200160009055905550505050565b60006130df83610de8565b6001600160a01b039093166000908152600660209081526040808320868452825280832085905593825260079052919091209190915550565b606061212d84846000856133b7565b6001600160a01b03821661317d5760405162461bcd60e51b815260206004820181905260248201527f4552433732313a206d696e7420746f20746865207a65726f20616464726573736044820152606401610854565b6000818152600260205260409020546001600160a01b0316156131e25760405162461bcd60e51b815260206004820152601c60248201527f4552433732313a20746f6b656e20616c7265616479206d696e746564000000006044820152606401610854565b6131ee600083836128dd565b6001600160a01b0382166000908152600360205260408120805460019290613217908490613ad0565b9091555050600081815260026020526040808220805473ffffffffffffffffffffffffffffffffffffffff19166001600160a01b03861690811790915590518392907fddf252ad1be2c89b69c2b068fc378daa952ba7f163c4a11628f55a4df523b3ef908290a45050565b6000807f7fffffffffffffffffffffffffffffff5d576e7357a4501ddfe92f46681b20a08311156132b95750600090506003613366565b8460ff16601b141580156132d157508460ff16601c14155b156132e25750600090506004613366565b6040805160008082526020820180845289905260ff881692820192909252606081018690526080810185905260019060a0016020604051602081039080840390855afa158015613336573d6000803e3d6000fd5b5050604051601f1901519150506001600160a01b03811661335f57600060019250925050613366565b9150600090505b94509492505050565b6000807f7fffffffffffffffffffffffffffffffffffffffffffffffffffffffffffffff831660ff84901c601b016133a987828885613282565b935093505050935093915050565b60608247101561342f5760405162461bcd60e51b815260206004820152602660248201527f416464726573733a20696e73756666696369656e742062616c616e636520666f60448201527f722063616c6c00000000000000000000000000000000000000000000000000006064820152608401610854565b843b61347d5760405162461bcd60e51b815260206004820152601d60248201527f416464726573733a2063616c6c20746f206e6f6e2d636f6e74726163740000006044820152606401610854565b600080866001600160a01b031685876040516134999190613a40565b60006040518083038185875af1925050503d80600081146134d6576040519150601f19603f3d011682016040523d82523d6000602084013e6134db565b606091505b50915091506134eb8282866134f6565b979650505050505050565b60608315613505575081610b70565b8251156135155782518084602001fd5b8160405162461bcd60e51b81526004016108549190613abd565b82805461353b90613b5e565b90600052602060002090601f01602090048101928261355d57600085556135a3565b82601f1061357657805160ff19168380011785556135a3565b828001600101855582156135a3579182015b828111156135a3578251825591602001919060010190613588565b506135af9291506135b3565b5090565b5b808211156135af57600081556001016135b4565b600067ffffffffffffffff808411156135e3576135e3613bf4565b604051601f8501601f19908116603f0116810190828211818310171561360b5761360b613bf4565b8160405280935085815286868601111561362457600080fd5b858560208301376000602087830101525050509392505050565b80356001600160a01b038116811461073757600080fd5b600082601f830112613665578081fd5b610b70838335602085016135c8565b600060208284031215613685578081fd5b610b708261363e565b600080604083850312156136a0578081fd5b6136a98361363e565b91506136b76020840161363e565b90509250929050565b6000806000606084860312156136d4578081fd5b6136dd8461363e565b92506136eb6020850161363e565b9150604084013590509250925092565b60008060008060808587031215613710578081fd5b6137198561363e565b93506137276020860161363e565b925060408501359150606085013567ffffffffffffffff811115613749578182fd5b61375587828801613655565b91505092959194509250565b60008060408385031215613773578182fd5b61377c8361363e565b9150602083013561378c81613c0a565b809150509250929050565b600080604083850312156137a9578182fd5b6137b28361363e565b946020939093013593505050565b600080600080600060a086880312156137d7578081fd5b6137e08661363e565b9450602086013593506137f56040870161363e565b925060608601359150608086013567ffffffffffffffff811115613817578182fd5b61382388828901613655565b9150509295509295909350565b600080600080600080600060e0888a03121561384a578182fd5b6138538861363e565b9650602088013595506138686040890161363e565b945060608801359350608088013567ffffffffffffffff81111561388a578283fd5b6138968a828b01613655565b93505060a0880135915060c0880135905092959891949750929550565b600080600080608085870312156138c8578384fd5b6138d18561363e565b93506020850135925060408501359150606085013567ffffffffffffffff811115613749578182fd5b60006020828403121561390b578081fd5b8151610b7081613c0a565b600060208284031215613927578081fd5b8135610b7081613c18565b600060208284031215613943578081fd5b8151610b7081613c18565b60006020828403121561395f578081fd5b813567ffffffffffffffff811115613975578182fd5b8201601f81018413613985578182fd5b61212d848235602084016135c8565b6000602082840312156139a5578081fd5b5035919050565b6000602082840312156139bd578081fd5b5051919050565b60008060008060008060c087890312156139dc578384fd5b86359550602087013594506040870135935060608701359250613a016080880161363e565b915060a087013590509295509295509295565b60008151808452613a2c816020860160208601613b32565b601f01601f19169290920160200192915050565b60008251613a52818460208701613b32565b9190910192915050565b60008351613a6e818460208801613b32565b835190830190613a82818360208801613b32565b01949350505050565b60006001600160a01b038087168352808616602084015250836040830152608060608301526118b06080830184613a14565b600060208252610b706020830184613a14565b60008219821115613ae357613ae3613bc8565b500190565b600082613af757613af7613bde565b500490565b6000816000190483118215151615613b1657613b16613bc8565b500290565b600082821015613b2d57613b2d613bc8565b500390565b60005b83811015613b4d578181015183820152602001613b35565b838111156119425750506000910152565b600281046001821680613b7257607f821691505b60208210811415613b9357634e487b7160e01b600052602260045260246000fd5b50919050565b6000600019821415613bad57613bad613bc8565b5060010190565b600082613bc357613bc3613bde565b500690565b634e487b7160e01b600052601160045260246000fd5b634e487b7160e01b600052601260045260246000fd5b634e487b7160e01b600052604160045260246000fd5b8015158114611e4357600080fd5b7fffffffff0000000000000000000000000000000000000000000000000000000081168114611e4357600080fdfea2646970667358221220ee7e4ec20ce44a9671cf96e59efc69d4b65e9937835044711069b3e9e2ff16ab64736f6c63430008020033",
  "devdoc": {
    "kind": "dev",
    "methods": {
      "approve(address,uint256)": {
        "details": "See {IERC721-approve}."
      },
      "balanceOf(address)": {
        "details": "See {IERC721-balanceOf}."
      },
      "getApproved(uint256)": {
        "details": "See {IERC721-getApproved}."
      },
      "isApprovedForAll(address,address)": {
        "details": "See {IERC721-isApprovedForAll}."
      },
      "name()": {
        "details": "See {IERC721Metadata-name}."
      },
      "owner()": {
        "details": "Returns the address of the current owner."
      },
      "ownerOf(uint256)": {
        "details": "See {IERC721-ownerOf}."
      },
      "renounceOwnership()": {
        "details": "Leaves the contract without owner. It will not be possible to call `onlyOwner` functions anymore. Can only be called by the current owner. NOTE: Renouncing ownership will leave the contract without an owner, thereby removing any functionality that is only available to the owner."
      },
      "safeTransferFrom(address,address,uint256)": {
        "details": "See {IERC721-safeTransferFrom}."
      },
      "safeTransferFrom(address,address,uint256,bytes)": {
        "details": "See {IERC721-safeTransferFrom}."
      },
      "setApprovalForAll(address,bool)": {
        "details": "See {IERC721-setApprovalForAll}."
      },
      "supportsInterface(bytes4)": {
        "details": "See {IERC165-supportsInterface}."
      },
      "symbol()": {
        "details": "See {IERC721Metadata-symbol}."
      },
      "tokenByIndex(uint256)": {
        "details": "See {IERC721Enumerable-tokenByIndex}."
      },
      "tokenOfOwnerByIndex(address,uint256)": {
        "details": "See {IERC721Enumerable-tokenOfOwnerByIndex}."
      },
      "tokenURI(uint256)": {
        "details": "See {IERC721Metadata-tokenURI}."
      },
      "totalSupply()": {
        "details": "See {IERC721Enumerable-totalSupply}."
      },
      "transferFrom(address,address,uint256)": {
        "details": "See {IERC721-transferFrom}."
      },
      "transferOwnership(address)": {
        "details": "Transfers ownership of the contract to a new account (`newOwner`). Can only be called by the current owner."
      }
    },
    "version": 1
  },
  "userdoc": {
    "kind": "user",
    "methods": {},
    "version": 1
  },
  "storageLayout": {
    "storage": [
      {
        "astId": 1750,
        "contract": "src/solc_0.8/raffle/PeopleOfCrypto.sol:PeopleOfCrypto",
        "label": "_name",
        "offset": 0,
        "slot": "0",
        "type": "t_string_storage"
      },
      {
        "astId": 1752,
        "contract": "src/solc_0.8/raffle/PeopleOfCrypto.sol:PeopleOfCrypto",
        "label": "_symbol",
        "offset": 0,
        "slot": "1",
        "type": "t_string_storage"
      },
      {
        "astId": 1756,
        "contract": "src/solc_0.8/raffle/PeopleOfCrypto.sol:PeopleOfCrypto",
        "label": "_owners",
        "offset": 0,
        "slot": "2",
        "type": "t_mapping(t_uint256,t_address)"
      },
      {
        "astId": 1760,
        "contract": "src/solc_0.8/raffle/PeopleOfCrypto.sol:PeopleOfCrypto",
        "label": "_balances",
        "offset": 0,
        "slot": "3",
        "type": "t_mapping(t_address,t_uint256)"
      },
      {
        "astId": 1764,
        "contract": "src/solc_0.8/raffle/PeopleOfCrypto.sol:PeopleOfCrypto",
        "label": "_tokenApprovals",
        "offset": 0,
        "slot": "4",
        "type": "t_mapping(t_uint256,t_address)"
      },
      {
        "astId": 1770,
        "contract": "src/solc_0.8/raffle/PeopleOfCrypto.sol:PeopleOfCrypto",
        "label": "_operatorApprovals",
        "offset": 0,
        "slot": "5",
        "type": "t_mapping(t_address,t_mapping(t_address,t_bool))"
      },
      {
        "astId": 2704,
        "contract": "src/solc_0.8/raffle/PeopleOfCrypto.sol:PeopleOfCrypto",
        "label": "_ownedTokens",
        "offset": 0,
        "slot": "6",
        "type": "t_mapping(t_address,t_mapping(t_uint256,t_uint256))"
      },
      {
        "astId": 2708,
        "contract": "src/solc_0.8/raffle/PeopleOfCrypto.sol:PeopleOfCrypto",
        "label": "_ownedTokensIndex",
        "offset": 0,
        "slot": "7",
        "type": "t_mapping(t_uint256,t_uint256)"
      },
      {
        "astId": 2711,
        "contract": "src/solc_0.8/raffle/PeopleOfCrypto.sol:PeopleOfCrypto",
        "label": "_allTokens",
        "offset": 0,
        "slot": "8",
        "type": "t_array(t_uint256)dyn_storage"
      },
      {
        "astId": 2715,
        "contract": "src/solc_0.8/raffle/PeopleOfCrypto.sol:PeopleOfCrypto",
        "label": "_allTokensIndex",
        "offset": 0,
        "slot": "9",
        "type": "t_mapping(t_uint256,t_uint256)"
      },
      {
        "astId": 389,
        "contract": "src/solc_0.8/raffle/PeopleOfCrypto.sol:PeopleOfCrypto",
        "label": "_owner",
        "offset": 0,
        "slot": "10",
        "type": "t_address"
      },
      {
        "astId": 589,
        "contract": "src/solc_0.8/raffle/PeopleOfCrypto.sol:PeopleOfCrypto",
        "label": "_status",
        "offset": 0,
        "slot": "11",
        "type": "t_uint256"
      },
      {
        "astId": 37037,
        "contract": "src/solc_0.8/raffle/PeopleOfCrypto.sol:PeopleOfCrypto",
        "label": "waveType",
        "offset": 0,
        "slot": "12",
        "type": "t_uint256"
      },
      {
        "astId": 37039,
        "contract": "src/solc_0.8/raffle/PeopleOfCrypto.sol:PeopleOfCrypto",
        "label": "waveMaxTokens",
        "offset": 0,
        "slot": "13",
        "type": "t_uint256"
      },
      {
        "astId": 37041,
        "contract": "src/solc_0.8/raffle/PeopleOfCrypto.sol:PeopleOfCrypto",
        "label": "waveMaxTokensToBuy",
        "offset": 0,
        "slot": "14",
        "type": "t_uint256"
      },
      {
        "astId": 37043,
        "contract": "src/solc_0.8/raffle/PeopleOfCrypto.sol:PeopleOfCrypto",
        "label": "waveSingleTokenPrice",
        "offset": 0,
        "slot": "15",
        "type": "t_uint256"
      },
      {
        "astId": 37045,
        "contract": "src/solc_0.8/raffle/PeopleOfCrypto.sol:PeopleOfCrypto",
        "label": "waveTotalMinted",
        "offset": 0,
        "slot": "16",
        "type": "t_uint256"
      },
      {
        "astId": 37047,
        "contract": "src/solc_0.8/raffle/PeopleOfCrypto.sol:PeopleOfCrypto",
        "label": "erc1155Id",
        "offset": 0,
        "slot": "17",
        "type": "t_uint256"
      },
      {
        "astId": 37049,
        "contract": "src/solc_0.8/raffle/PeopleOfCrypto.sol:PeopleOfCrypto",
        "label": "contractAddress",
        "offset": 0,
        "slot": "18",
        "type": "t_address"
      },
      {
        "astId": 37055,
        "contract": "src/solc_0.8/raffle/PeopleOfCrypto.sol:PeopleOfCrypto",
        "label": "waveOwnerToClaimedCounts",
        "offset": 0,
        "slot": "19",
        "type": "t_mapping(t_address,t_mapping(t_uint256,t_uint256))"
      },
      {
        "astId": 37059,
        "contract": "src/solc_0.8/raffle/PeopleOfCrypto.sol:PeopleOfCrypto",
        "label": "personalizationTraits",
        "offset": 0,
        "slot": "20",
        "type": "t_mapping(t_uint256,t_uint256)"
      },
      {
        "astId": 37061,
        "contract": "src/solc_0.8/raffle/PeopleOfCrypto.sol:PeopleOfCrypto",
        "label": "indexWave",
        "offset": 0,
        "slot": "21",
        "type": "t_uint256"
      },
      {
        "astId": 37063,
        "contract": "src/solc_0.8/raffle/PeopleOfCrypto.sol:PeopleOfCrypto",
        "label": "paused",
        "offset": 0,
        "slot": "22",
        "type": "t_uint256"
      },
      {
        "astId": 37067,
        "contract": "src/solc_0.8/raffle/PeopleOfCrypto.sol:PeopleOfCrypto",
        "label": "signatureIds",
        "offset": 0,
        "slot": "23",
        "type": "t_mapping(t_uint256,t_uint256)"
      },
      {
        "astId": 37071,
        "contract": "src/solc_0.8/raffle/PeopleOfCrypto.sol:PeopleOfCrypto",
        "label": "personalizationSignatureIds",
        "offset": 0,
        "slot": "24",
        "type": "t_mapping(t_uint256,t_uint256)"
      },
      {
        "astId": 37075,
        "contract": "src/solc_0.8/raffle/PeopleOfCrypto.sol:PeopleOfCrypto",
        "label": "availableIds",
        "offset": 0,
        "slot": "25",
        "type": "t_mapping(t_uint256,t_uint256)"
      },
      {
        "astId": 37077,
        "contract": "src/solc_0.8/raffle/PeopleOfCrypto.sol:PeopleOfCrypto",
        "label": "allowedToExecuteMint",
        "offset": 0,
        "slot": "26",
        "type": "t_address"
      },
      {
        "astId": 37079,
        "contract": "src/solc_0.8/raffle/PeopleOfCrypto.sol:PeopleOfCrypto",
        "label": "allowedToExecutePersonalization",
        "offset": 0,
        "slot": "27",
        "type": "t_address"
      },
      {
        "astId": 37081,
        "contract": "src/solc_0.8/raffle/PeopleOfCrypto.sol:PeopleOfCrypto",
        "label": "sandOwner",
        "offset": 0,
        "slot": "28",
        "type": "t_address"
      },
      {
        "astId": 37083,
        "contract": "src/solc_0.8/raffle/PeopleOfCrypto.sol:PeopleOfCrypto",
        "label": "signAddress",
        "offset": 0,
        "slot": "29",
        "type": "t_address"
      },
      {
        "astId": 37085,
        "contract": "src/solc_0.8/raffle/PeopleOfCrypto.sol:PeopleOfCrypto",
        "label": "baseTokenURI",
        "offset": 0,
        "slot": "30",
        "type": "t_string_storage"
      }
    ],
    "types": {
      "t_address": {
        "encoding": "inplace",
        "label": "address",
        "numberOfBytes": "20"
      },
      "t_array(t_uint256)dyn_storage": {
        "base": "t_uint256",
        "encoding": "dynamic_array",
        "label": "uint256[]",
        "numberOfBytes": "32"
      },
      "t_bool": {
        "encoding": "inplace",
        "label": "bool",
        "numberOfBytes": "1"
      },
      "t_mapping(t_address,t_bool)": {
        "encoding": "mapping",
        "key": "t_address",
        "label": "mapping(address => bool)",
        "numberOfBytes": "32",
        "value": "t_bool"
      },
      "t_mapping(t_address,t_mapping(t_address,t_bool))": {
        "encoding": "mapping",
        "key": "t_address",
        "label": "mapping(address => mapping(address => bool))",
        "numberOfBytes": "32",
        "value": "t_mapping(t_address,t_bool)"
      },
      "t_mapping(t_address,t_mapping(t_uint256,t_uint256))": {
        "encoding": "mapping",
        "key": "t_address",
        "label": "mapping(address => mapping(uint256 => uint256))",
        "numberOfBytes": "32",
        "value": "t_mapping(t_uint256,t_uint256)"
      },
      "t_mapping(t_address,t_uint256)": {
        "encoding": "mapping",
        "key": "t_address",
        "label": "mapping(address => uint256)",
        "numberOfBytes": "32",
        "value": "t_uint256"
      },
      "t_mapping(t_uint256,t_address)": {
        "encoding": "mapping",
        "key": "t_uint256",
        "label": "mapping(uint256 => address)",
        "numberOfBytes": "32",
        "value": "t_address"
      },
      "t_mapping(t_uint256,t_uint256)": {
        "encoding": "mapping",
        "key": "t_uint256",
        "label": "mapping(uint256 => uint256)",
        "numberOfBytes": "32",
        "value": "t_uint256"
      },
      "t_string_storage": {
        "encoding": "bytes",
        "label": "string",
        "numberOfBytes": "32"
      },
      "t_uint256": {
        "encoding": "inplace",
        "label": "uint256",
        "numberOfBytes": "32"
      }
    }
  }
}