{
  "abi": [
    {
      "inputs": [
        {
          "internalType": "address",
          "name": "landAddress",
          "type": "address"
        },
        {
          "internalType": "address",
          "name": "sandContractAddress",
          "type": "address"
        },
        {
          "internalType": "address",
          "name": "initialMetaTx",
          "type": "address"
        },
        {
          "internalType": "address",
          "name": "admin",
          "type": "address"
        },
        {
          "internalType": "address payable",
          "name": "initialWalletAddress",
          "type": "address"
        },
        {
          "internalType": "bytes32",
          "name": "merkleRoot",
          "type": "bytes32"
        },
        {
          "internalType": "uint256",
          "name": "expiryTime",
          "type": "uint256"
        },
        {
          "internalType": "address",
          "name": "medianizerContractAddress",
          "type": "address"
        },
        {
          "internalType": "address",
          "name": "daiTokenContractAddress",
          "type": "address"
        },
        {
          "internalType": "address",
          "name": "initialSigningWallet",
          "type": "address"
        },
        {
          "internalType": "uint256",
          "name": "initialMaxCommissionRate",
          "type": "uint256"
        },
        {
          "internalType": "address",
          "name": "estate",
          "type": "address"
        }
      ],
      "stateMutability": "nonpayable",
      "type": "constructor"
    },
    {
      "anonymous": false,
      "inputs": [
        {
          "indexed": false,
          "internalType": "address",
          "name": "oldAdmin",
          "type": "address"
        },
        {
          "indexed": false,
          "internalType": "address",
          "name": "newAdmin",
          "type": "address"
        }
      ],
      "name": "AdminChanged",
      "type": "event"
    },
    {
      "anonymous": false,
      "inputs": [
        {
          "indexed": true,
          "internalType": "address",
          "name": "buyer",
          "type": "address"
        },
        {
          "indexed": true,
          "internalType": "address",
          "name": "to",
          "type": "address"
        },
        {
          "indexed": true,
          "internalType": "uint256",
          "name": "topCornerId",
          "type": "uint256"
        },
        {
          "indexed": false,
          "internalType": "uint256",
          "name": "size",
          "type": "uint256"
        },
        {
          "indexed": false,
          "internalType": "uint256",
          "name": "price",
          "type": "uint256"
        },
        {
          "indexed": false,
          "internalType": "address",
          "name": "token",
          "type": "address"
        },
        {
          "indexed": false,
          "internalType": "uint256",
          "name": "amountPaid",
          "type": "uint256"
        }
      ],
      "name": "LandQuadPurchased",
      "type": "event"
    },
    {
      "anonymous": false,
      "inputs": [
        {
          "indexed": false,
          "internalType": "address",
          "name": "metaTransactionProcessor",
          "type": "address"
        },
        {
          "indexed": false,
          "internalType": "bool",
          "name": "enabled",
          "type": "bool"
        }
      ],
      "name": "MetaTransactionProcessor",
      "type": "event"
    },
    {
      "anonymous": false,
      "inputs": [
        {
          "indexed": true,
          "internalType": "address",
          "name": "referrer",
          "type": "address"
        },
        {
          "indexed": true,
          "internalType": "address",
          "name": "referee",
          "type": "address"
        },
        {
          "indexed": true,
          "internalType": "address",
          "name": "token",
          "type": "address"
        },
        {
          "indexed": false,
          "internalType": "uint256",
          "name": "amount",
          "type": "uint256"
        },
        {
          "indexed": false,
          "internalType": "uint256",
          "name": "commission",
          "type": "uint256"
        },
        {
          "indexed": false,
          "internalType": "uint256",
          "name": "commissionRate",
          "type": "uint256"
        }
      ],
      "name": "ReferralUsed",
      "type": "event"
    },
    {
      "inputs": [
        {
          "internalType": "address",
          "name": "buyer",
          "type": "address"
        },
        {
          "internalType": "address",
          "name": "to",
          "type": "address"
        },
        {
          "internalType": "address",
          "name": "reserved",
          "type": "address"
        },
        {
          "internalType": "uint256",
          "name": "x",
          "type": "uint256"
        },
        {
          "internalType": "uint256",
          "name": "y",
          "type": "uint256"
        },
        {
          "internalType": "uint256",
          "name": "size",
          "type": "uint256"
        },
        {
          "internalType": "uint256",
          "name": "priceInSand",
          "type": "uint256"
        },
        {
          "internalType": "bytes32",
          "name": "salt",
          "type": "bytes32"
        },
        {
          "internalType": "bytes32[]",
          "name": "proof",
          "type": "bytes32[]"
        },
        {
          "internalType": "bytes",
          "name": "referral",
          "type": "bytes"
        }
      ],
      "name": "buyLandWithDAI",
      "outputs": [],
      "stateMutability": "nonpayable",
      "type": "function"
    },
    {
      "inputs": [
        {
          "internalType": "address",
          "name": "buyer",
          "type": "address"
        },
        {
          "internalType": "address",
          "name": "to",
          "type": "address"
        },
        {
          "internalType": "address",
          "name": "reserved",
          "type": "address"
        },
        {
          "internalType": "uint256",
          "name": "x",
          "type": "uint256"
        },
        {
          "internalType": "uint256",
          "name": "y",
          "type": "uint256"
        },
        {
          "internalType": "uint256",
          "name": "size",
          "type": "uint256"
        },
        {
          "internalType": "uint256",
          "name": "priceInSand",
          "type": "uint256"
        },
        {
          "internalType": "bytes32",
          "name": "salt",
          "type": "bytes32"
        },
        {
          "internalType": "bytes32[]",
          "name": "proof",
          "type": "bytes32[]"
        },
        {
          "internalType": "bytes",
          "name": "referral",
          "type": "bytes"
        }
      ],
      "name": "buyLandWithETH",
      "outputs": [],
      "stateMutability": "payable",
      "type": "function"
    },
    {
      "inputs": [
        {
          "internalType": "address",
          "name": "buyer",
          "type": "address"
        },
        {
          "internalType": "address",
          "name": "to",
          "type": "address"
        },
        {
          "internalType": "address",
          "name": "reserved",
          "type": "address"
        },
        {
          "internalType": "uint256",
          "name": "x",
          "type": "uint256"
        },
        {
          "internalType": "uint256",
          "name": "y",
          "type": "uint256"
        },
        {
          "internalType": "uint256",
          "name": "size",
          "type": "uint256"
        },
        {
          "internalType": "uint256",
          "name": "priceInSand",
          "type": "uint256"
        },
        {
          "internalType": "bytes32",
          "name": "salt",
          "type": "bytes32"
        },
        {
          "internalType": "bytes32[]",
          "name": "proof",
          "type": "bytes32[]"
        },
        {
          "internalType": "bytes",
          "name": "referral",
          "type": "bytes"
        }
      ],
      "name": "buyLandWithSand",
      "outputs": [],
      "stateMutability": "nonpayable",
      "type": "function"
    },
    {
      "inputs": [
        {
          "internalType": "address",
          "name": "newAdmin",
          "type": "address"
        }
      ],
      "name": "changeAdmin",
      "outputs": [],
      "stateMutability": "nonpayable",
      "type": "function"
    },
    {
      "inputs": [
        {
          "internalType": "bytes",
          "name": "referral",
          "type": "bytes"
        }
      ],
      "name": "decodeReferral",
      "outputs": [
        {
          "internalType": "bytes",
          "name": "",
          "type": "bytes"
        },
        {
          "internalType": "address",
          "name": "",
          "type": "address"
        },
        {
          "internalType": "address",
          "name": "",
          "type": "address"
        },
        {
          "internalType": "uint256",
          "name": "",
          "type": "uint256"
        },
        {
          "internalType": "uint256",
          "name": "",
          "type": "uint256"
        }
      ],
      "stateMutability": "pure",
      "type": "function"
    },
    {
      "inputs": [],
      "name": "getAdmin",
      "outputs": [
        {
          "internalType": "address",
          "name": "",
          "type": "address"
        }
      ],
      "stateMutability": "view",
      "type": "function"
    },
    {
      "inputs": [
        {
          "internalType": "uint256",
          "name": "sandAmount",
          "type": "uint256"
        }
      ],
      "name": "getEtherAmountWithSAND",
      "outputs": [
        {
          "internalType": "uint256",
          "name": "",
          "type": "uint256"
        }
      ],
      "stateMutability": "view",
      "type": "function"
    },
    {
      "inputs": [],
      "name": "getExpiryTime",
      "outputs": [
        {
          "internalType": "uint256",
          "name": "",
          "type": "uint256"
        }
      ],
      "stateMutability": "view",
      "type": "function"
    },
    {
      "inputs": [],
      "name": "getMaxCommisionRate",
      "outputs": [
        {
          "internalType": "uint256",
          "name": "",
          "type": "uint256"
        }
      ],
      "stateMutability": "view",
      "type": "function"
    },
    {
      "inputs": [],
      "name": "getSigningWallet",
      "outputs": [
        {
          "internalType": "address",
          "name": "",
          "type": "address"
        }
      ],
      "stateMutability": "view",
      "type": "function"
    },
    {
      "inputs": [],
      "name": "isDAIEnabled",
      "outputs": [
        {
          "internalType": "bool",
          "name": "",
          "type": "bool"
        }
      ],
      "stateMutability": "view",
      "type": "function"
    },
    {
      "inputs": [],
      "name": "isETHEnabled",
      "outputs": [
        {
          "internalType": "bool",
          "name": "",
          "type": "bool"
        }
      ],
      "stateMutability": "view",
      "type": "function"
    },
    {
      "inputs": [
        {
          "internalType": "address",
          "name": "who",
          "type": "address"
        }
      ],
      "name": "isMetaTransactionProcessor",
      "outputs": [
        {
          "internalType": "bool",
          "name": "",
          "type": "bool"
        }
      ],
      "stateMutability": "view",
      "type": "function"
    },
    {
      "inputs": [
        {
          "internalType": "bytes",
          "name": "signature",
          "type": "bytes"
        },
        {
          "internalType": "address",
          "name": "referrer",
          "type": "address"
        },
        {
          "internalType": "address",
          "name": "referee",
          "type": "address"
        },
        {
          "internalType": "uint256",
          "name": "expiryTime",
          "type": "uint256"
        },
        {
          "internalType": "uint256",
          "name": "commissionRate",
          "type": "uint256"
        }
      ],
      "name": "isReferralValid",
      "outputs": [
        {
          "internalType": "bool",
          "name": "",
          "type": "bool"
        }
      ],
      "stateMutability": "view",
      "type": "function"
    },
    {
      "inputs": [],
      "name": "isSANDEnabled",
      "outputs": [
        {
          "internalType": "bool",
          "name": "",
          "type": "bool"
        }
      ],
      "stateMutability": "view",
      "type": "function"
    },
    {
      "inputs": [],
      "name": "merkleRoot",
      "outputs": [
        {
          "internalType": "bytes32",
          "name": "",
          "type": "bytes32"
        }
      ],
      "stateMutability": "view",
      "type": "function"
    },
    {
      "inputs": [
        {
          "internalType": "bool",
          "name": "enabled",
          "type": "bool"
        }
      ],
      "name": "setDAIEnabled",
      "outputs": [],
      "stateMutability": "nonpayable",
      "type": "function"
    },
    {
      "inputs": [
        {
          "internalType": "bool",
          "name": "enabled",
          "type": "bool"
        }
      ],
      "name": "setETHEnabled",
      "outputs": [],
      "stateMutability": "nonpayable",
      "type": "function"
    },
    {
      "inputs": [
        {
          "internalType": "address",
          "name": "metaTransactionProcessor",
          "type": "address"
        },
        {
          "internalType": "bool",
          "name": "enabled",
          "type": "bool"
        }
      ],
      "name": "setMetaTransactionProcessor",
      "outputs": [],
      "stateMutability": "nonpayable",
      "type": "function"
    },
    {
      "inputs": [
        {
          "internalType": "address payable",
          "name": "newWallet",
          "type": "address"
        }
      ],
      "name": "setReceivingWallet",
      "outputs": [],
      "stateMutability": "nonpayable",
      "type": "function"
    },
    {
      "inputs": [
        {
          "internalType": "bool",
          "name": "enabled",
          "type": "bool"
        }
      ],
      "name": "setSANDEnabled",
      "outputs": [],
      "stateMutability": "nonpayable",
      "type": "function"
    },
    {
      "inputs": [
        {
          "internalType": "uint256",
          "name": "newMaxCommissionRate",
          "type": "uint256"
        }
      ],
      "name": "updateMaxCommissionRate",
      "outputs": [],
      "stateMutability": "nonpayable",
      "type": "function"
    },
    {
      "inputs": [
        {
          "internalType": "address",
          "name": "newSigningWallet",
          "type": "address"
        }
      ],
      "name": "updateSigningWallet",
      "outputs": [],
      "stateMutability": "nonpayable",
      "type": "function"
    }
  ],
  "address": "0xEbD37a7417cb38f1Ec50076Ba905dC900b1FbF31",
  "args": [
    "0x4b6127A979d0144A7F4D294736bcfce3458Bb2A2",
    "0x3f0202C90E3c205F9E73cfd072F4da9D6266542A",
    "0x3f0202C90E3c205F9E73cfd072F4da9D6266542A",
    "0x61c461EcC993aaDEB7e4b47E96d1B8cC37314B20",
    "0x61c461EcC993aaDEB7e4b47E96d1B8cC37314B20",
    "0x4bf4afee7be0c9eea653063105b981b2d0e1dcbee407a99ea8658fd5f3295d75",
    2591016400,
    "0x3368e40595904944E5791002cFeF39bC411d9F12",
    "0x8f6a9cF3d7CbE1537E1244682247533d7C36e42f",
    "0xB7060D3FeCAC3AE1F0A0AA416E3e8E472257950e",
    2000,
    "0x10dFa147a87E8eF5Acc29C66D3a654A88c699096"
  ],
  "linkedData": [
    {
      "x": 216,
      "y": 275,
      "size": 1,
      "price": "2333000000000000000000"
    },
    {
      "x": 216,
      "y": 274,
      "size": 1,
      "price": "2333000000000000000000"
    },
    {
      "x": 216,
      "y": 273,
      "size": 1,
      "price": "2333000000000000000000"
    },
    {
      "x": 216,
      "y": 272,
      "size": 1,
      "price": "2333000000000000000000"
    },
    {
      "x": 216,
      "y": 271,
      "size": 1,
      "price": "2333000000000000000000"
    },
    {
      "x": 216,
      "y": 270,
      "size": 1,
      "price": "2333000000000000000000"
    },
    {
      "x": 216,
      "y": 269,
      "size": 1,
      "price": "2333000000000000000000"
    },
    {
      "x": 216,
      "y": 268,
      "size": 1,
      "price": "2333000000000000000000"
    },
    {
      "x": 216,
      "y": 267,
      "size": 1,
      "price": "2333000000000000000000"
    },
    {
      "x": 216,
      "y": 266,
      "size": 1,
      "price": "2333000000000000000000"
    },
    {
      "x": 216,
      "y": 265,
      "size": 1,
      "price": "2333000000000000000000"
    },
    {
      "x": 216,
      "y": 264,
      "size": 1,
      "price": "2333000000000000000000"
    },
    {
      "x": 216,
      "y": 248,
      "size": 1,
      "price": "2333000000000000000000"
    },
    {
      "x": 216,
      "y": 247,
      "size": 1,
      "price": "2333000000000000000000"
    },
    {
      "x": 216,
      "y": 246,
      "size": 1,
      "price": "2333000000000000000000"
    },
    {
      "x": 216,
      "y": 245,
      "size": 1,
      "price": "2333000000000000000000"
    },
    {
      "x": 216,
      "y": 244,
      "size": 1,
      "price": "2333000000000000000000"
    },
    {
      "x": 216,
      "y": 243,
      "size": 1,
      "price": "2333000000000000000000"
    },
    {
      "x": 216,
      "y": 239,
      "size": 1,
      "price": "2333000000000000000000"
    },
    {
      "x": 216,
      "y": 238,
      "size": 1,
      "price": "2333000000000000000000"
    },
    {
      "x": 216,
      "y": 237,
      "size": 1,
      "price": "2333000000000000000000"
    },
    {
      "x": 216,
      "y": 236,
      "size": 1,
      "price": "2333000000000000000000"
    },
    {
      "x": 216,
      "y": 235,
      "size": 1,
      "price": "2333000000000000000000"
    },
    {
      "x": 216,
      "y": 234,
      "size": 1,
      "price": "2333000000000000000000"
    },
    {
      "x": 216,
      "y": 230,
      "size": 1,
      "price": "2333000000000000000000"
    },
    {
      "x": 216,
      "y": 229,
      "size": 1,
      "price": "2333000000000000000000"
    },
    {
      "x": 216,
      "y": 228,
      "size": 1,
      "price": "2333000000000000000000"
    },
    {
      "x": 216,
      "y": 224,
      "size": 1,
      "price": "2333000000000000000000"
    },
    {
      "x": 216,
      "y": 223,
      "size": 1,
      "price": "2333000000000000000000"
    },
    {
      "x": 216,
      "y": 222,
      "size": 1,
      "price": "2333000000000000000000"
    },
    {
      "x": 216,
      "y": 221,
      "size": 1,
      "price": "2333000000000000000000"
    },
    {
      "x": 216,
      "y": 220,
      "size": 1,
      "price": "2333000000000000000000"
    },
    {
      "x": 216,
      "y": 219,
      "size": 1,
      "price": "2333000000000000000000"
    },
    {
      "x": 219,
      "y": 216,
      "size": 1,
      "price": "2333000000000000000000"
    },
    {
      "x": 220,
      "y": 216,
      "size": 1,
      "price": "2333000000000000000000"
    },
    {
      "x": 220,
      "y": 217,
      "size": 1,
      "price": "2333000000000000000000"
    },
    {
      "x": 220,
      "y": 218,
      "size": 1,
      "price": "2333000000000000000000"
    },
    {
      "x": 220,
      "y": 219,
      "size": 1,
      "price": "2333000000000000000000"
    },
    {
      "x": 220,
      "y": 220,
      "size": 1,
      "price": "2333000000000000000000",
      "reserved": "0x7a9fe22691c811ea339d9b73150e6911a5343dca"
    },
    {
      "x": 220,
      "y": 221,
      "size": 1,
      "price": "2333000000000000000000"
    },
    {
      "x": 220,
      "y": 225,
      "size": 1,
      "price": "2333000000000000000000"
    },
    {
      "x": 220,
      "y": 226,
      "size": 1,
      "price": "2333000000000000000000"
    },
    {
      "x": 220,
      "y": 227,
      "size": 1,
      "price": "2333000000000000000000"
    },
    {
      "x": 220,
      "y": 228,
      "size": 1,
      "price": "2333000000000000000000"
    },
    {
      "x": 220,
      "y": 229,
      "size": 1,
      "price": "2333000000000000000000"
    },
    {
      "x": 220,
      "y": 230,
      "size": 1,
      "price": "2333000000000000000000"
    },
    {
      "x": 220,
      "y": 231,
      "size": 1,
      "price": "2333000000000000000000"
    },
    {
      "x": 220,
      "y": 232,
      "size": 1,
      "price": "2333000000000000000000"
    },
    {
      "x": 220,
      "y": 233,
      "size": 1,
      "price": "2333000000000000000000"
    },
    {
      "x": 220,
      "y": 237,
      "size": 1,
      "price": "2333000000000000000000"
    },
    {
      "x": 220,
      "y": 238,
      "size": 1,
      "price": "2333000000000000000000"
    },
    {
      "x": 220,
      "y": 239,
      "size": 1,
      "price": "2333000000000000000000"
    },
    {
      "x": 220,
      "y": 240,
      "size": 1,
      "price": "2333000000000000000000"
    },
    {
      "x": 220,
      "y": 241,
      "size": 1,
      "price": "2333000000000000000000",
      "reserved": "0x7a9fe22691c811ea339d9b73150e6911a5343dca"
    },
    {
      "x": 220,
      "y": 242,
      "size": 1,
      "price": "2333000000000000000000"
    },
    {
      "x": 220,
      "y": 243,
      "size": 1,
      "price": "2333000000000000000000"
    },
    {
      "x": 220,
      "y": 244,
      "size": 1,
      "price": "2333000000000000000000"
    },
    {
      "x": 220,
      "y": 245,
      "size": 1,
      "price": "2333000000000000000000"
    },
    {
      "x": 225,
      "y": 275,
      "size": 1,
      "price": "2333000000000000000000"
    },
    {
      "x": 225,
      "y": 274,
      "size": 1,
      "price": "2333000000000000000000"
    },
    {
      "x": 225,
      "y": 273,
      "size": 1,
      "price": "2333000000000000000000",
      "reserved": "0x7a9fe22691c811ea339d9b73150e6911a5343dca"
    },
    {
      "x": 225,
      "y": 272,
      "size": 1,
      "price": "2333000000000000000000"
    },
    {
      "x": 225,
      "y": 271,
      "size": 1,
      "price": "2333000000000000000000"
    },
    {
      "x": 225,
      "y": 270,
      "size": 1,
      "price": "2333000000000000000000"
    },
    {
      "x": 217,
      "y": 274,
      "size": 1,
      "price": "2333000000000000000000"
    },
    {
      "x": 217,
      "y": 275,
      "size": 1,
      "price": "2333000000000000000000"
    },
    {
      "x": 217,
      "y": 273,
      "size": 1,
      "price": "2333000000000000000000"
    },
    {
      "x": 217,
      "y": 272,
      "size": 1,
      "price": "2333000000000000000000"
    },
    {
      "x": 217,
      "y": 271,
      "size": 1,
      "price": "2333000000000000000000"
    },
    {
      "x": 217,
      "y": 270,
      "size": 1,
      "price": "2333000000000000000000"
    },
    {
      "x": 217,
      "y": 269,
      "size": 1,
      "price": "2333000000000000000000"
    },
    {
      "x": 217,
      "y": 268,
      "size": 1,
      "price": "2333000000000000000000"
    },
    {
      "x": 217,
      "y": 267,
      "size": 1,
      "price": "2333000000000000000000"
    },
    {
      "x": 217,
      "y": 266,
      "size": 1,
      "price": "2333000000000000000000"
    },
    {
      "x": 217,
      "y": 265,
      "size": 1,
      "price": "2333000000000000000000"
    },
    {
      "x": 217,
      "y": 264,
      "size": 1,
      "price": "2333000000000000000000"
    },
    {
      "x": 217,
      "y": 248,
      "size": 1,
      "price": "2333000000000000000000"
    },
    {
      "x": 217,
      "y": 247,
      "size": 1,
      "price": "2333000000000000000000"
    },
    {
      "x": 217,
      "y": 246,
      "size": 1,
      "price": "2333000000000000000000"
    },
    {
      "x": 217,
      "y": 245,
      "size": 1,
      "price": "2333000000000000000000"
    },
    {
      "x": 217,
      "y": 244,
      "size": 1,
      "price": "2333000000000000000000"
    },
    {
      "x": 217,
      "y": 243,
      "size": 1,
      "price": "2333000000000000000000"
    },
    {
      "x": 217,
      "y": 239,
      "size": 1,
      "price": "2333000000000000000000"
    },
    {
      "x": 217,
      "y": 238,
      "size": 1,
      "price": "2333000000000000000000"
    },
    {
      "x": 217,
      "y": 237,
      "size": 1,
      "price": "2333000000000000000000"
    },
    {
      "x": 217,
      "y": 236,
      "size": 1,
      "price": "2333000000000000000000"
    },
    {
      "x": 217,
      "y": 235,
      "size": 1,
      "price": "2333000000000000000000"
    },
    {
      "x": 217,
      "y": 234,
      "size": 1,
      "price": "2333000000000000000000"
    },
    {
      "x": 217,
      "y": 230,
      "size": 1,
      "price": "2333000000000000000000"
    },
    {
      "x": 217,
      "y": 229,
      "size": 1,
      "price": "2333000000000000000000"
    },
    {
      "x": 217,
      "y": 228,
      "size": 1,
      "price": "2333000000000000000000"
    },
    {
      "x": 217,
      "y": 224,
      "size": 1,
      "price": "2333000000000000000000"
    },
    {
      "x": 217,
      "y": 223,
      "size": 1,
      "price": "2333000000000000000000"
    },
    {
      "x": 217,
      "y": 222,
      "size": 1,
      "price": "2333000000000000000000"
    },
    {
      "x": 217,
      "y": 221,
      "size": 1,
      "price": "2333000000000000000000"
    },
    {
      "x": 217,
      "y": 220,
      "size": 1,
      "price": "2333000000000000000000"
    },
    {
      "x": 217,
      "y": 219,
      "size": 1,
      "price": "2333000000000000000000"
    },
    {
      "x": 218,
      "y": 219,
      "size": 1,
      "price": "2333000000000000000000"
    },
    {
      "x": 218,
      "y": 220,
      "size": 1,
      "price": "2333000000000000000000"
    },
    {
      "x": 218,
      "y": 221,
      "size": 1,
      "price": "2333000000000000000000"
    },
    {
      "x": 218,
      "y": 222,
      "size": 1,
      "price": "2333000000000000000000"
    },
    {
      "x": 218,
      "y": 223,
      "size": 1,
      "price": "2333000000000000000000"
    },
    {
      "x": 218,
      "y": 224,
      "size": 1,
      "price": "2333000000000000000000"
    },
    {
      "x": 218,
      "y": 228,
      "size": 1,
      "price": "2333000000000000000000"
    },
    {
      "x": 218,
      "y": 229,
      "size": 1,
      "price": "2333000000000000000000"
    },
    {
      "x": 218,
      "y": 230,
      "size": 1,
      "price": "2333000000000000000000"
    },
    {
      "x": 218,
      "y": 234,
      "size": 1,
      "price": "2333000000000000000000"
    },
    {
      "x": 218,
      "y": 235,
      "size": 1,
      "price": "2333000000000000000000"
    },
    {
      "x": 218,
      "y": 236,
      "size": 1,
      "price": "2333000000000000000000"
    },
    {
      "x": 218,
      "y": 237,
      "size": 1,
      "price": "2333000000000000000000"
    },
    {
      "x": 218,
      "y": 238,
      "size": 1,
      "price": "2333000000000000000000"
    },
    {
      "x": 218,
      "y": 239,
      "size": 1,
      "price": "2333000000000000000000"
    },
    {
      "x": 218,
      "y": 243,
      "size": 1,
      "price": "2333000000000000000000"
    },
    {
      "x": 218,
      "y": 244,
      "size": 1,
      "price": "2333000000000000000000"
    },
    {
      "x": 218,
      "y": 245,
      "size": 1,
      "price": "2333000000000000000000"
    },
    {
      "x": 218,
      "y": 246,
      "size": 1,
      "price": "2333000000000000000000"
    },
    {
      "x": 218,
      "y": 247,
      "size": 1,
      "price": "2333000000000000000000"
    },
    {
      "x": 218,
      "y": 248,
      "size": 1,
      "price": "2333000000000000000000"
    },
    {
      "x": 218,
      "y": 264,
      "size": 1,
      "price": "2333000000000000000000"
    },
    {
      "x": 218,
      "y": 265,
      "size": 1,
      "price": "2333000000000000000000"
    },
    {
      "x": 218,
      "y": 266,
      "size": 1,
      "price": "2333000000000000000000"
    },
    {
      "x": 218,
      "y": 267,
      "size": 1,
      "price": "2333000000000000000000"
    },
    {
      "x": 218,
      "y": 268,
      "size": 1,
      "price": "2333000000000000000000"
    },
    {
      "x": 218,
      "y": 269,
      "size": 1,
      "price": "2333000000000000000000"
    },
    {
      "x": 218,
      "y": 270,
      "size": 1,
      "price": "2333000000000000000000"
    },
    {
      "x": 218,
      "y": 271,
      "size": 1,
      "price": "2333000000000000000000"
    },
    {
      "x": 218,
      "y": 272,
      "size": 1,
      "price": "2333000000000000000000"
    },
    {
      "x": 218,
      "y": 273,
      "size": 1,
      "price": "2333000000000000000000"
    },
    {
      "x": 218,
      "y": 274,
      "size": 1,
      "price": "2333000000000000000000"
    },
    {
      "x": 218,
      "y": 275,
      "size": 1,
      "price": "2333000000000000000000"
    },
    {
      "x": 219,
      "y": 275,
      "size": 1,
      "price": "2333000000000000000000"
    },
    {
      "x": 219,
      "y": 274,
      "size": 1,
      "price": "2333000000000000000000"
    },
    {
      "x": 219,
      "y": 273,
      "size": 1,
      "price": "2333000000000000000000"
    },
    {
      "x": 219,
      "y": 272,
      "size": 1,
      "price": "2333000000000000000000"
    },
    {
      "x": 219,
      "y": 271,
      "size": 1,
      "price": "2333000000000000000000"
    },
    {
      "x": 219,
      "y": 270,
      "size": 1,
      "price": "2333000000000000000000"
    },
    {
      "x": 219,
      "y": 269,
      "size": 1,
      "price": "2333000000000000000000"
    },
    {
      "x": 219,
      "y": 268,
      "size": 1,
      "price": "2333000000000000000000"
    },
    {
      "x": 219,
      "y": 267,
      "size": 1,
      "price": "2333000000000000000000"
    },
    {
      "x": 219,
      "y": 251,
      "size": 1,
      "price": "2333000000000000000000"
    },
    {
      "x": 219,
      "y": 250,
      "size": 1,
      "price": "2333000000000000000000"
    },
    {
      "x": 219,
      "y": 249,
      "size": 1,
      "price": "2333000000000000000000"
    },
    {
      "x": 219,
      "y": 245,
      "size": 1,
      "price": "2333000000000000000000"
    },
    {
      "x": 219,
      "y": 244,
      "size": 1,
      "price": "2333000000000000000000"
    },
    {
      "x": 219,
      "y": 243,
      "size": 1,
      "price": "2333000000000000000000"
    },
    {
      "x": 219,
      "y": 242,
      "size": 1,
      "price": "2333000000000000000000"
    },
    {
      "x": 219,
      "y": 241,
      "size": 1,
      "price": "2333000000000000000000"
    },
    {
      "x": 219,
      "y": 240,
      "size": 1,
      "price": "2333000000000000000000"
    },
    {
      "x": 219,
      "y": 239,
      "size": 1,
      "price": "2333000000000000000000"
    },
    {
      "x": 219,
      "y": 238,
      "size": 1,
      "price": "2333000000000000000000"
    },
    {
      "x": 219,
      "y": 237,
      "size": 1,
      "price": "2333000000000000000000"
    },
    {
      "x": 219,
      "y": 233,
      "size": 1,
      "price": "2333000000000000000000"
    },
    {
      "x": 219,
      "y": 232,
      "size": 1,
      "price": "2333000000000000000000"
    },
    {
      "x": 219,
      "y": 231,
      "size": 1,
      "price": "2333000000000000000000"
    },
    {
      "x": 219,
      "y": 230,
      "size": 1,
      "price": "2333000000000000000000"
    },
    {
      "x": 219,
      "y": 229,
      "size": 1,
      "price": "2333000000000000000000"
    },
    {
      "x": 219,
      "y": 228,
      "size": 1,
      "price": "2333000000000000000000"
    },
    {
      "x": 219,
      "y": 227,
      "size": 1,
      "price": "2333000000000000000000"
    },
    {
      "x": 219,
      "y": 226,
      "size": 1,
      "price": "2333000000000000000000"
    },
    {
      "x": 219,
      "y": 225,
      "size": 1,
      "price": "2333000000000000000000"
    },
    {
      "x": 219,
      "y": 221,
      "size": 1,
      "price": "2333000000000000000000"
    },
    {
      "x": 219,
      "y": 220,
      "size": 1,
      "price": "2333000000000000000000"
    },
    {
      "x": 219,
      "y": 219,
      "size": 1,
      "price": "2333000000000000000000"
    },
    {
      "x": 219,
      "y": 218,
      "size": 1,
      "price": "2333000000000000000000"
    },
    {
      "x": 219,
      "y": 217,
      "size": 1,
      "price": "2333000000000000000000"
    },
    {
      "x": 223,
      "y": 211,
      "size": 1,
      "price": "2333000000000000000000"
    },
    {
      "x": 221,
      "y": 275,
      "size": 1,
      "price": "2333000000000000000000"
    },
    {
      "x": 221,
      "y": 274,
      "size": 1,
      "price": "2333000000000000000000"
    },
    {
      "x": 221,
      "y": 273,
      "size": 1,
      "price": "2333000000000000000000"
    },
    {
      "x": 221,
      "y": 272,
      "size": 1,
      "price": "2333000000000000000000"
    },
    {
      "x": 221,
      "y": 271,
      "size": 1,
      "price": "2333000000000000000000"
    },
    {
      "x": 221,
      "y": 270,
      "size": 1,
      "price": "2333000000000000000000"
    },
    {
      "x": 221,
      "y": 269,
      "size": 1,
      "price": "2333000000000000000000"
    },
    {
      "x": 221,
      "y": 268,
      "size": 1,
      "price": "2333000000000000000000"
    },
    {
      "x": 221,
      "y": 267,
      "size": 1,
      "price": "2333000000000000000000"
    },
    {
      "x": 221,
      "y": 251,
      "size": 1,
      "price": "2333000000000000000000"
    },
    {
      "x": 221,
      "y": 250,
      "size": 1,
      "price": "2333000000000000000000"
    },
    {
      "x": 221,
      "y": 249,
      "size": 1,
      "price": "2333000000000000000000"
    },
    {
      "x": 221,
      "y": 245,
      "size": 1,
      "price": "2333000000000000000000"
    },
    {
      "x": 221,
      "y": 244,
      "size": 1,
      "price": "2333000000000000000000"
    },
    {
      "x": 221,
      "y": 243,
      "size": 1,
      "price": "2333000000000000000000"
    },
    {
      "x": 221,
      "y": 242,
      "size": 1,
      "price": "2333000000000000000000"
    },
    {
      "x": 221,
      "y": 241,
      "size": 1,
      "price": "2333000000000000000000"
    },
    {
      "x": 221,
      "y": 240,
      "size": 1,
      "price": "2333000000000000000000"
    },
    {
      "x": 221,
      "y": 239,
      "size": 1,
      "price": "2333000000000000000000"
    },
    {
      "x": 221,
      "y": 238,
      "size": 1,
      "price": "2333000000000000000000"
    },
    {
      "x": 221,
      "y": 237,
      "size": 1,
      "price": "2333000000000000000000"
    },
    {
      "x": 221,
      "y": 233,
      "size": 1,
      "price": "2333000000000000000000"
    },
    {
      "x": 221,
      "y": 232,
      "size": 1,
      "price": "2333000000000000000000"
    },
    {
      "x": 221,
      "y": 231,
      "size": 1,
      "price": "2333000000000000000000"
    },
    {
      "x": 221,
      "y": 230,
      "size": 1,
      "price": "2333000000000000000000",
      "reserved": "0x7a9fe22691c811ea339d9b73150e6911a5343dca"
    },
    {
      "x": 221,
      "y": 229,
      "size": 1,
      "price": "2333000000000000000000"
    },
    {
      "x": 221,
      "y": 228,
      "size": 1,
      "price": "2333000000000000000000"
    },
    {
      "x": 221,
      "y": 227,
      "size": 1,
      "price": "2333000000000000000000"
    },
    {
      "x": 221,
      "y": 226,
      "size": 1,
      "price": "2333000000000000000000"
    },
    {
      "x": 221,
      "y": 225,
      "size": 1,
      "price": "2333000000000000000000"
    },
    {
      "x": 221,
      "y": 221,
      "size": 1,
      "price": "2333000000000000000000"
    },
    {
      "x": 221,
      "y": 220,
      "size": 1,
      "price": "2333000000000000000000"
    },
    {
      "x": 221,
      "y": 219,
      "size": 1,
      "price": "2333000000000000000000"
    },
    {
      "x": 221,
      "y": 218,
      "size": 1,
      "price": "2333000000000000000000"
    },
    {
      "x": 221,
      "y": 217,
      "size": 1,
      "price": "2333000000000000000000"
    },
    {
      "x": 221,
      "y": 216,
      "size": 1,
      "price": "2333000000000000000000"
    },
    {
      "x": 222,
      "y": 211,
      "size": 1,
      "price": "2333000000000000000000"
    },
    {
      "x": 223,
      "y": 212,
      "size": 1,
      "price": "2333000000000000000000"
    },
    {
      "x": 223,
      "y": 213,
      "size": 1,
      "price": "2333000000000000000000"
    },
    {
      "x": 223,
      "y": 214,
      "size": 1,
      "price": "2333000000000000000000"
    },
    {
      "x": 223,
      "y": 215,
      "size": 1,
      "price": "2333000000000000000000"
    },
    {
      "x": 223,
      "y": 216,
      "size": 1,
      "price": "2333000000000000000000"
    },
    {
      "x": 223,
      "y": 217,
      "size": 1,
      "price": "2333000000000000000000"
    },
    {
      "x": 223,
      "y": 218,
      "size": 1,
      "price": "2333000000000000000000"
    },
    {
      "x": 223,
      "y": 228,
      "size": 1,
      "price": "2333000000000000000000"
    },
    {
      "x": 223,
      "y": 229,
      "size": 1,
      "price": "2333000000000000000000"
    },
    {
      "x": 223,
      "y": 230,
      "size": 1,
      "price": "2333000000000000000000"
    },
    {
      "x": 223,
      "y": 234,
      "size": 1,
      "price": "2333000000000000000000"
    },
    {
      "x": 223,
      "y": 235,
      "size": 1,
      "price": "2333000000000000000000"
    },
    {
      "x": 223,
      "y": 236,
      "size": 1,
      "price": "2333000000000000000000"
    },
    {
      "x": 223,
      "y": 237,
      "size": 1,
      "price": "2333000000000000000000"
    },
    {
      "x": 223,
      "y": 238,
      "size": 1,
      "price": "2333000000000000000000"
    },
    {
      "x": 223,
      "y": 239,
      "size": 1,
      "price": "2333000000000000000000"
    },
    {
      "x": 223,
      "y": 246,
      "size": 1,
      "price": "2333000000000000000000"
    },
    {
      "x": 223,
      "y": 247,
      "size": 1,
      "price": "2333000000000000000000"
    },
    {
      "x": 223,
      "y": 248,
      "size": 1,
      "price": "2333000000000000000000"
    },
    {
      "x": 223,
      "y": 270,
      "size": 1,
      "price": "2333000000000000000000"
    },
    {
      "x": 223,
      "y": 271,
      "size": 1,
      "price": "2333000000000000000000"
    },
    {
      "x": 223,
      "y": 272,
      "size": 1,
      "price": "2333000000000000000000"
    },
    {
      "x": 223,
      "y": 273,
      "size": 1,
      "price": "2333000000000000000000"
    },
    {
      "x": 223,
      "y": 274,
      "size": 1,
      "price": "2333000000000000000000"
    },
    {
      "x": 223,
      "y": 275,
      "size": 1,
      "price": "2333000000000000000000"
    },
    {
      "x": 223,
      "y": 288,
      "size": 1,
      "price": "2333000000000000000000"
    },
    {
      "x": 223,
      "y": 289,
      "size": 1,
      "price": "2333000000000000000000"
    },
    {
      "x": 223,
      "y": 290,
      "size": 1,
      "price": "2333000000000000000000"
    },
    {
      "x": 223,
      "y": 291,
      "size": 1,
      "price": "2333000000000000000000",
      "reserved": "0x7a9fe22691c811ea339d9b73150e6911a5343dca"
    },
    {
      "x": 223,
      "y": 292,
      "size": 1,
      "price": "2333000000000000000000"
    },
    {
      "x": 222,
      "y": 292,
      "size": 1,
      "price": "2333000000000000000000"
    },
    {
      "x": 222,
      "y": 291,
      "size": 1,
      "price": "2333000000000000000000"
    },
    {
      "x": 222,
      "y": 290,
      "size": 1,
      "price": "2333000000000000000000"
    },
    {
      "x": 222,
      "y": 289,
      "size": 1,
      "price": "2333000000000000000000"
    },
    {
      "x": 222,
      "y": 288,
      "size": 1,
      "price": "2333000000000000000000"
    },
    {
      "x": 222,
      "y": 275,
      "size": 1,
      "price": "2333000000000000000000"
    },
    {
      "x": 222,
      "y": 274,
      "size": 1,
      "price": "2333000000000000000000"
    },
    {
      "x": 222,
      "y": 273,
      "size": 1,
      "price": "2333000000000000000000"
    },
    {
      "x": 222,
      "y": 272,
      "size": 1,
      "price": "2333000000000000000000"
    },
    {
      "x": 222,
      "y": 271,
      "size": 1,
      "price": "2333000000000000000000"
    },
    {
      "x": 222,
      "y": 270,
      "size": 1,
      "price": "2333000000000000000000"
    },
    {
      "x": 222,
      "y": 248,
      "size": 1,
      "price": "2333000000000000000000"
    },
    {
      "x": 222,
      "y": 247,
      "size": 1,
      "price": "2333000000000000000000"
    },
    {
      "x": 222,
      "y": 246,
      "size": 1,
      "price": "2333000000000000000000"
    },
    {
      "x": 222,
      "y": 239,
      "size": 1,
      "price": "2333000000000000000000"
    },
    {
      "x": 222,
      "y": 238,
      "size": 1,
      "price": "2333000000000000000000"
    },
    {
      "x": 222,
      "y": 237,
      "size": 1,
      "price": "2333000000000000000000"
    },
    {
      "x": 222,
      "y": 236,
      "size": 1,
      "price": "2333000000000000000000"
    },
    {
      "x": 222,
      "y": 235,
      "size": 1,
      "price": "2333000000000000000000"
    },
    {
      "x": 222,
      "y": 234,
      "size": 1,
      "price": "2333000000000000000000"
    },
    {
      "x": 222,
      "y": 230,
      "size": 1,
      "price": "2333000000000000000000"
    },
    {
      "x": 222,
      "y": 229,
      "size": 1,
      "price": "2333000000000000000000"
    },
    {
      "x": 222,
      "y": 228,
      "size": 1,
      "price": "2333000000000000000000"
    },
    {
      "x": 222,
      "y": 218,
      "size": 1,
      "price": "2333000000000000000000"
    },
    {
      "x": 222,
      "y": 217,
      "size": 1,
      "price": "2333000000000000000000"
    },
    {
      "x": 222,
      "y": 216,
      "size": 1,
      "price": "2333000000000000000000"
    },
    {
      "x": 222,
      "y": 215,
      "size": 1,
      "price": "2333000000000000000000"
    },
    {
      "x": 222,
      "y": 214,
      "size": 1,
      "price": "2333000000000000000000"
    },
    {
      "x": 222,
      "y": 213,
      "size": 1,
      "price": "2333000000000000000000"
    },
    {
      "x": 222,
      "y": 212,
      "size": 1,
      "price": "2333000000000000000000"
    },
    {
      "x": 224,
      "y": 211,
      "size": 1,
      "price": "2333000000000000000000"
    },
    {
      "x": 224,
      "y": 212,
      "size": 1,
      "price": "2333000000000000000000"
    },
    {
      "x": 224,
      "y": 213,
      "size": 1,
      "price": "2333000000000000000000"
    },
    {
      "x": 224,
      "y": 214,
      "size": 1,
      "price": "2333000000000000000000"
    },
    {
      "x": 224,
      "y": 215,
      "size": 1,
      "price": "2333000000000000000000"
    },
    {
      "x": 224,
      "y": 216,
      "size": 1,
      "price": "2333000000000000000000"
    },
    {
      "x": 224,
      "y": 217,
      "size": 1,
      "price": "2333000000000000000000"
    },
    {
      "x": 224,
      "y": 218,
      "size": 1,
      "price": "2333000000000000000000"
    },
    {
      "x": 224,
      "y": 228,
      "size": 1,
      "price": "2333000000000000000000"
    },
    {
      "x": 224,
      "y": 229,
      "size": 1,
      "price": "2333000000000000000000"
    },
    {
      "x": 224,
      "y": 230,
      "size": 1,
      "price": "2333000000000000000000"
    },
    {
      "x": 224,
      "y": 234,
      "size": 1,
      "price": "2333000000000000000000"
    },
    {
      "x": 224,
      "y": 235,
      "size": 1,
      "price": "2333000000000000000000"
    },
    {
      "x": 224,
      "y": 236,
      "size": 1,
      "price": "2333000000000000000000"
    },
    {
      "x": 224,
      "y": 237,
      "size": 1,
      "price": "2333000000000000000000"
    },
    {
      "x": 224,
      "y": 238,
      "size": 1,
      "price": "2333000000000000000000"
    },
    {
      "x": 224,
      "y": 239,
      "size": 1,
      "price": "2333000000000000000000"
    },
    {
      "x": 224,
      "y": 246,
      "size": 1,
      "price": "2333000000000000000000"
    },
    {
      "x": 224,
      "y": 247,
      "size": 1,
      "price": "2333000000000000000000"
    },
    {
      "x": 224,
      "y": 248,
      "size": 1,
      "price": "2333000000000000000000"
    },
    {
      "x": 224,
      "y": 270,
      "size": 1,
      "price": "2333000000000000000000"
    },
    {
      "x": 224,
      "y": 271,
      "size": 1,
      "price": "2333000000000000000000"
    },
    {
      "x": 224,
      "y": 272,
      "size": 1,
      "price": "2333000000000000000000"
    },
    {
      "x": 224,
      "y": 273,
      "size": 1,
      "price": "2333000000000000000000"
    },
    {
      "x": 224,
      "y": 274,
      "size": 1,
      "price": "2333000000000000000000"
    },
    {
      "x": 224,
      "y": 275,
      "size": 1,
      "price": "2333000000000000000000"
    },
    {
      "x": 220,
      "y": 251,
      "size": 1,
      "price": "2333000000000000000000"
    },
    {
      "x": 220,
      "y": 250,
      "size": 1,
      "price": "2333000000000000000000"
    },
    {
      "x": 220,
      "y": 275,
      "size": 1,
      "price": "2333000000000000000000"
    },
    {
      "x": 220,
      "y": 273,
      "size": 1,
      "price": "2333000000000000000000"
    },
    {
      "x": 220,
      "y": 272,
      "size": 1,
      "price": "2333000000000000000000"
    },
    {
      "x": 220,
      "y": 271,
      "size": 1,
      "price": "2333000000000000000000"
    },
    {
      "x": 220,
      "y": 270,
      "size": 1,
      "price": "2333000000000000000000"
    },
    {
      "x": 220,
      "y": 269,
      "size": 1,
      "price": "2333000000000000000000"
    },
    {
      "x": 220,
      "y": 268,
      "size": 1,
      "price": "2333000000000000000000"
    },
    {
      "x": 220,
      "y": 267,
      "size": 1,
      "price": "2333000000000000000000"
    },
    {
      "x": 220,
      "y": 249,
      "size": 1,
      "price": "2333000000000000000000"
    },
    {
      "x": 220,
      "y": 274,
      "size": 1,
      "price": "2333000000000000000000"
    },
    {
      "x": 224,
      "y": 288,
      "size": 1,
      "price": "2333000000000000000000"
    },
    {
      "x": 225,
      "y": 288,
      "size": 1,
      "price": "2333000000000000000000"
    },
    {
      "x": 226,
      "y": 288,
      "size": 1,
      "price": "2333000000000000000000"
    },
    {
      "x": 227,
      "y": 288,
      "size": 1,
      "price": "2333000000000000000000"
    },
    {
      "x": 228,
      "y": 288,
      "size": 1,
      "price": "2333000000000000000000"
    },
    {
      "x": 229,
      "y": 288,
      "size": 1,
      "price": "2333000000000000000000"
    },
    {
      "x": 230,
      "y": 288,
      "size": 1,
      "price": "2333000000000000000000"
    },
    {
      "x": 231,
      "y": 288,
      "size": 1,
      "price": "2333000000000000000000"
    },
    {
      "x": 232,
      "y": 288,
      "size": 1,
      "price": "2333000000000000000000"
    },
    {
      "x": 233,
      "y": 288,
      "size": 1,
      "price": "2333000000000000000000"
    },
    {
      "x": 234,
      "y": 288,
      "size": 1,
      "price": "2333000000000000000000"
    },
    {
      "x": 235,
      "y": 288,
      "size": 1,
      "price": "2333000000000000000000"
    },
    {
      "x": 236,
      "y": 288,
      "size": 1,
      "price": "2333000000000000000000"
    },
    {
      "x": 237,
      "y": 288,
      "size": 1,
      "price": "2333000000000000000000"
    },
    {
      "x": 238,
      "y": 288,
      "size": 1,
      "price": "2333000000000000000000"
    },
    {
      "x": 239,
      "y": 288,
      "size": 1,
      "price": "2333000000000000000000"
    },
    {
      "x": 252,
      "y": 288,
      "size": 1,
      "price": "2333000000000000000000"
    },
    {
      "x": 253,
      "y": 288,
      "size": 1,
      "price": "2333000000000000000000"
    },
    {
      "x": 254,
      "y": 288,
      "size": 1,
      "price": "2333000000000000000000"
    },
    {
      "x": 255,
      "y": 288,
      "size": 1,
      "price": "2333000000000000000000"
    },
    {
      "x": 256,
      "y": 288,
      "size": 1,
      "price": "2333000000000000000000"
    },
    {
      "x": 257,
      "y": 288,
      "size": 1,
      "price": "2333000000000000000000"
    },
    {
      "x": 258,
      "y": 288,
      "size": 1,
      "price": "2333000000000000000000"
    },
    {
      "x": 259,
      "y": 288,
      "size": 1,
      "price": "2333000000000000000000"
    },
    {
      "x": 260,
      "y": 288,
      "size": 1,
      "price": "2333000000000000000000"
    },
    {
      "x": 261,
      "y": 288,
      "size": 1,
      "price": "2333000000000000000000"
    },
    {
      "x": 262,
      "y": 288,
      "size": 1,
      "price": "2333000000000000000000"
    },
    {
      "x": 263,
      "y": 288,
      "size": 1,
      "price": "2333000000000000000000"
    },
    {
      "x": 257,
      "y": 284,
      "size": 1,
      "price": "2333000000000000000000"
    },
    {
      "x": 256,
      "y": 284,
      "size": 1,
      "price": "2333000000000000000000"
    },
    {
      "x": 255,
      "y": 284,
      "size": 1,
      "price": "2333000000000000000000"
    },
    {
      "x": 254,
      "y": 284,
      "size": 1,
      "price": "2333000000000000000000"
    },
    {
      "x": 253,
      "y": 284,
      "size": 1,
      "price": "2333000000000000000000"
    },
    {
      "x": 252,
      "y": 284,
      "size": 1,
      "price": "2333000000000000000000"
    },
    {
      "x": 242,
      "y": 284,
      "size": 1,
      "price": "2333000000000000000000"
    },
    {
      "x": 241,
      "y": 284,
      "size": 1,
      "price": "2333000000000000000000"
    },
    {
      "x": 240,
      "y": 284,
      "size": 1,
      "price": "2333000000000000000000"
    },
    {
      "x": 240,
      "y": 279,
      "size": 1,
      "price": "2333000000000000000000"
    },
    {
      "x": 241,
      "y": 279,
      "size": 1,
      "price": "2333000000000000000000"
    },
    {
      "x": 242,
      "y": 279,
      "size": 1,
      "price": "2333000000000000000000"
    },
    {
      "x": 246,
      "y": 279,
      "size": 1,
      "price": "2333000000000000000000"
    },
    {
      "x": 247,
      "y": 279,
      "size": 1,
      "price": "2333000000000000000000"
    },
    {
      "x": 248,
      "y": 279,
      "size": 1,
      "price": "2333000000000000000000"
    },
    {
      "x": 255,
      "y": 279,
      "size": 1,
      "price": "2333000000000000000000"
    },
    {
      "x": 256,
      "y": 279,
      "size": 1,
      "price": "2333000000000000000000"
    },
    {
      "x": 257,
      "y": 279,
      "size": 1,
      "price": "2333000000000000000000"
    },
    {
      "x": 258,
      "y": 279,
      "size": 1,
      "price": "2333000000000000000000"
    },
    {
      "x": 259,
      "y": 279,
      "size": 1,
      "price": "2333000000000000000000"
    },
    {
      "x": 260,
      "y": 279,
      "size": 1,
      "price": "2333000000000000000000"
    },
    {
      "x": 261,
      "y": 279,
      "size": 1,
      "price": "2333000000000000000000"
    },
    {
      "x": 262,
      "y": 279,
      "size": 1,
      "price": "2333000000000000000000"
    },
    {
      "x": 263,
      "y": 279,
      "size": 1,
      "price": "2333000000000000000000"
    },
    {
      "x": 276,
      "y": 279,
      "size": 1,
      "price": "2333000000000000000000"
    },
    {
      "x": 277,
      "y": 279,
      "size": 1,
      "price": "2333000000000000000000"
    },
    {
      "x": 272,
      "y": 273,
      "size": 1,
      "price": "2333000000000000000000"
    },
    {
      "x": 271,
      "y": 273,
      "size": 1,
      "price": "2333000000000000000000"
    },
    {
      "x": 270,
      "y": 273,
      "size": 1,
      "price": "2333000000000000000000"
    },
    {
      "x": 269,
      "y": 273,
      "size": 1,
      "price": "2333000000000000000000"
    },
    {
      "x": 268,
      "y": 273,
      "size": 1,
      "price": "2333000000000000000000"
    },
    {
      "x": 267,
      "y": 273,
      "size": 1,
      "price": "2333000000000000000000"
    },
    {
      "x": 266,
      "y": 273,
      "size": 1,
      "price": "2333000000000000000000"
    },
    {
      "x": 265,
      "y": 273,
      "size": 1,
      "price": "2333000000000000000000"
    },
    {
      "x": 264,
      "y": 273,
      "size": 1,
      "price": "2333000000000000000000"
    },
    {
      "x": 260,
      "y": 273,
      "size": 1,
      "price": "2333000000000000000000"
    },
    {
      "x": 259,
      "y": 273,
      "size": 1,
      "price": "2333000000000000000000"
    },
    {
      "x": 258,
      "y": 273,
      "size": 1,
      "price": "2333000000000000000000"
    },
    {
      "x": 254,
      "y": 273,
      "size": 1,
      "price": "2333000000000000000000"
    },
    {
      "x": 253,
      "y": 273,
      "size": 1,
      "price": "2333000000000000000000"
    },
    {
      "x": 252,
      "y": 273,
      "size": 1,
      "price": "2333000000000000000000"
    },
    {
      "x": 245,
      "y": 273,
      "size": 1,
      "price": "2333000000000000000000"
    },
    {
      "x": 244,
      "y": 273,
      "size": 1,
      "price": "2333000000000000000000"
    },
    {
      "x": 243,
      "y": 273,
      "size": 1,
      "price": "2333000000000000000000"
    },
    {
      "x": 243,
      "y": 266,
      "size": 1,
      "price": "2333000000000000000000"
    },
    {
      "x": 244,
      "y": 266,
      "size": 1,
      "price": "2333000000000000000000"
    },
    {
      "x": 245,
      "y": 266,
      "size": 1,
      "price": "2333000000000000000000"
    },
    {
      "x": 246,
      "y": 266,
      "size": 1,
      "price": "2333000000000000000000"
    },
    {
      "x": 247,
      "y": 266,
      "size": 1,
      "price": "2333000000000000000000"
    },
    {
      "x": 248,
      "y": 266,
      "size": 1,
      "price": "2333000000000000000000"
    },
    {
      "x": 252,
      "y": 266,
      "size": 1,
      "price": "2333000000000000000000"
    },
    {
      "x": 253,
      "y": 266,
      "size": 1,
      "price": "2333000000000000000000"
    },
    {
      "x": 254,
      "y": 266,
      "size": 1,
      "price": "2333000000000000000000"
    },
    {
      "x": 255,
      "y": 266,
      "size": 1,
      "price": "2333000000000000000000"
    },
    {
      "x": 256,
      "y": 266,
      "size": 1,
      "price": "2333000000000000000000"
    },
    {
      "x": 257,
      "y": 266,
      "size": 1,
      "price": "2333000000000000000000"
    },
    {
      "x": 267,
      "y": 266,
      "size": 1,
      "price": "2333000000000000000000"
    },
    {
      "x": 268,
      "y": 266,
      "size": 1,
      "price": "2333000000000000000000"
    },
    {
      "x": 269,
      "y": 266,
      "size": 1,
      "price": "2333000000000000000000"
    },
    {
      "x": 280,
      "y": 263,
      "size": 1,
      "price": "2333000000000000000000"
    },
    {
      "x": 280,
      "y": 262,
      "size": 1,
      "price": "2333000000000000000000"
    },
    {
      "x": 280,
      "y": 261,
      "size": 1,
      "price": "2333000000000000000000"
    },
    {
      "x": 278,
      "y": 255,
      "size": 1,
      "price": "2333000000000000000000"
    },
    {
      "x": 277,
      "y": 255,
      "size": 1,
      "price": "2333000000000000000000"
    },
    {
      "x": 276,
      "y": 255,
      "size": 1,
      "price": "2333000000000000000000"
    },
    {
      "x": 269,
      "y": 255,
      "size": 1,
      "price": "2333000000000000000000"
    },
    {
      "x": 268,
      "y": 255,
      "size": 1,
      "price": "2333000000000000000000"
    },
    {
      "x": 267,
      "y": 255,
      "size": 1,
      "price": "2333000000000000000000"
    },
    {
      "x": 251,
      "y": 255,
      "size": 1,
      "price": "2333000000000000000000"
    },
    {
      "x": 250,
      "y": 255,
      "size": 1,
      "price": "2333000000000000000000"
    },
    {
      "x": 249,
      "y": 255,
      "size": 1,
      "price": "2333000000000000000000"
    },
    {
      "x": 245,
      "y": 255,
      "size": 1,
      "price": "2333000000000000000000"
    },
    {
      "x": 244,
      "y": 255,
      "size": 1,
      "price": "2333000000000000000000"
    },
    {
      "x": 243,
      "y": 255,
      "size": 1,
      "price": "2333000000000000000000"
    },
    {
      "x": 242,
      "y": 255,
      "size": 1,
      "price": "2333000000000000000000"
    },
    {
      "x": 241,
      "y": 255,
      "size": 1,
      "price": "2333000000000000000000"
    },
    {
      "x": 240,
      "y": 255,
      "size": 1,
      "price": "2333000000000000000000"
    },
    {
      "x": 239,
      "y": 255,
      "size": 1,
      "price": "2333000000000000000000"
    },
    {
      "x": 238,
      "y": 255,
      "size": 1,
      "price": "2333000000000000000000"
    },
    {
      "x": 237,
      "y": 255,
      "size": 1,
      "price": "2333000000000000000000"
    },
    {
      "x": 236,
      "y": 255,
      "size": 1,
      "price": "2333000000000000000000"
    },
    {
      "x": 235,
      "y": 255,
      "size": 1,
      "price": "2333000000000000000000"
    },
    {
      "x": 234,
      "y": 255,
      "size": 1,
      "price": "2333000000000000000000"
    },
    {
      "x": 233,
      "y": 255,
      "size": 1,
      "price": "2333000000000000000000"
    },
    {
      "x": 232,
      "y": 255,
      "size": 1,
      "price": "2333000000000000000000"
    },
    {
      "x": 231,
      "y": 255,
      "size": 1,
      "price": "2333000000000000000000"
    },
    {
      "x": 234,
      "y": 238,
      "size": 1,
      "price": "2333000000000000000000"
    },
    {
      "x": 235,
      "y": 238,
      "size": 1,
      "price": "2333000000000000000000"
    },
    {
      "x": 236,
      "y": 238,
      "size": 1,
      "price": "2333000000000000000000"
    },
    {
      "x": 258,
      "y": 238,
      "size": 1,
      "price": "2333000000000000000000"
    },
    {
      "x": 259,
      "y": 238,
      "size": 1,
      "price": "2333000000000000000000"
    },
    {
      "x": 260,
      "y": 238,
      "size": 1,
      "price": "2333000000000000000000"
    },
    {
      "x": 271,
      "y": 240,
      "size": 1,
      "price": "2333000000000000000000"
    },
    {
      "x": 272,
      "y": 241,
      "size": 1,
      "price": "2333000000000000000000"
    },
    {
      "x": 273,
      "y": 242,
      "size": 1,
      "price": "2333000000000000000000"
    },
    {
      "x": 274,
      "y": 243,
      "size": 1,
      "price": "2333000000000000000000"
    },
    {
      "x": 275,
      "y": 244,
      "size": 1,
      "price": "2333000000000000000000"
    },
    {
      "x": 275,
      "y": 245,
      "size": 1,
      "price": "2333000000000000000000"
    },
    {
      "x": 275,
      "y": 246,
      "size": 1,
      "price": "2333000000000000000000"
    },
    {
      "x": 275,
      "y": 247,
      "size": 1,
      "price": "2333000000000000000000"
    },
    {
      "x": 275,
      "y": 248,
      "size": 1,
      "price": "2333000000000000000000"
    },
    {
      "x": 272,
      "y": 258,
      "size": 1,
      "price": "2333000000000000000000"
    },
    {
      "x": 271,
      "y": 259,
      "size": 1,
      "price": "2333000000000000000000"
    },
    {
      "x": 270,
      "y": 260,
      "size": 1,
      "price": "2333000000000000000000"
    },
    {
      "x": 269,
      "y": 261,
      "size": 1,
      "price": "2333000000000000000000"
    },
    {
      "x": 268,
      "y": 262,
      "size": 1,
      "price": "2333000000000000000000"
    },
    {
      "x": 267,
      "y": 263,
      "size": 1,
      "price": "2333000000000000000000"
    },
    {
      "x": 257,
      "y": 265,
      "size": 1,
      "price": "2333000000000000000000"
    },
    {
      "x": 256,
      "y": 265,
      "size": 1,
      "price": "2333000000000000000000"
    },
    {
      "x": 255,
      "y": 265,
      "size": 1,
      "price": "2333000000000000000000"
    },
    {
      "x": 254,
      "y": 265,
      "size": 1,
      "price": "2333000000000000000000"
    },
    {
      "x": 253,
      "y": 265,
      "size": 1,
      "price": "2333000000000000000000"
    },
    {
      "x": 252,
      "y": 265,
      "size": 1,
      "price": "2333000000000000000000"
    },
    {
      "x": 248,
      "y": 265,
      "size": 1,
      "price": "2333000000000000000000"
    },
    {
      "x": 247,
      "y": 265,
      "size": 1,
      "price": "2333000000000000000000"
    },
    {
      "x": 246,
      "y": 265,
      "size": 1,
      "price": "2333000000000000000000"
    },
    {
      "x": 245,
      "y": 265,
      "size": 1,
      "price": "2333000000000000000000"
    },
    {
      "x": 244,
      "y": 265,
      "size": 1,
      "price": "2333000000000000000000"
    },
    {
      "x": 243,
      "y": 265,
      "size": 1,
      "price": "2333000000000000000000"
    },
    {
      "x": 234,
      "y": 263,
      "size": 1,
      "price": "2333000000000000000000"
    },
    {
      "x": 233,
      "y": 262,
      "size": 1,
      "price": "2333000000000000000000"
    },
    {
      "x": 232,
      "y": 261,
      "size": 1,
      "price": "2333000000000000000000"
    },
    {
      "x": 231,
      "y": 260,
      "size": 1,
      "price": "2333000000000000000000"
    },
    {
      "x": 230,
      "y": 259,
      "size": 1,
      "price": "2333000000000000000000"
    },
    {
      "x": 229,
      "y": 258,
      "size": 1,
      "price": "2333000000000000000000"
    },
    {
      "x": 226,
      "y": 251,
      "size": 1,
      "price": "2333000000000000000000"
    },
    {
      "x": 226,
      "y": 250,
      "size": 1,
      "price": "2333000000000000000000",
      "reserved": "0x7a9fe22691c811ea339d9b73150e6911a5343dca"
    },
    {
      "x": 226,
      "y": 249,
      "size": 1,
      "price": "2333000000000000000000"
    },
    {
      "x": 228,
      "y": 243,
      "size": 1,
      "price": "2333000000000000000000"
    },
    {
      "x": 229,
      "y": 242,
      "size": 1,
      "price": "2333000000000000000000"
    },
    {
      "x": 230,
      "y": 241,
      "size": 1,
      "price": "2333000000000000000000"
    },
    {
      "x": 231,
      "y": 240,
      "size": 1,
      "price": "2333000000000000000000"
    },
    {
      "x": 234,
      "y": 237,
      "size": 1,
      "price": "2333000000000000000000"
    },
    {
      "x": 235,
      "y": 237,
      "size": 1,
      "price": "2333000000000000000000"
    },
    {
      "x": 236,
      "y": 237,
      "size": 1,
      "price": "2333000000000000000000"
    },
    {
      "x": 250,
      "y": 240,
      "size": 1,
      "price": "2333000000000000000000"
    },
    {
      "x": 251,
      "y": 241,
      "size": 1,
      "price": "2333000000000000000000"
    },
    {
      "x": 252,
      "y": 242,
      "size": 1,
      "price": "2333000000000000000000"
    },
    {
      "x": 255,
      "y": 245,
      "size": 1,
      "price": "2333000000000000000000"
    },
    {
      "x": 256,
      "y": 246,
      "size": 1,
      "price": "2333000000000000000000"
    },
    {
      "x": 257,
      "y": 247,
      "size": 1,
      "price": "2333000000000000000000"
    },
    {
      "x": 259,
      "y": 249,
      "size": 1,
      "price": "2333000000000000000000"
    },
    {
      "x": 260,
      "y": 249,
      "size": 1,
      "price": "2333000000000000000000"
    },
    {
      "x": 261,
      "y": 249,
      "size": 1,
      "price": "2333000000000000000000"
    },
    {
      "x": 262,
      "y": 249,
      "size": 1,
      "price": "2333000000000000000000"
    },
    {
      "x": 263,
      "y": 249,
      "size": 1,
      "price": "2333000000000000000000"
    },
    {
      "x": 264,
      "y": 249,
      "size": 1,
      "price": "2333000000000000000000"
    },
    {
      "x": 265,
      "y": 249,
      "size": 1,
      "price": "2333000000000000000000"
    },
    {
      "x": 266,
      "y": 249,
      "size": 1,
      "price": "2333000000000000000000"
    },
    {
      "x": 267,
      "y": 249,
      "size": 1,
      "price": "2333000000000000000000"
    },
    {
      "x": 268,
      "y": 249,
      "size": 1,
      "price": "2333000000000000000000"
    },
    {
      "x": 269,
      "y": 249,
      "size": 1,
      "price": "2333000000000000000000"
    },
    {
      "x": 270,
      "y": 249,
      "size": 1,
      "price": "2333000000000000000000"
    },
    {
      "x": 271,
      "y": 249,
      "size": 1,
      "price": "2333000000000000000000"
    },
    {
      "x": 272,
      "y": 249,
      "size": 1,
      "price": "2333000000000000000000"
    },
    {
      "x": 273,
      "y": 248,
      "size": 1,
      "price": "2333000000000000000000"
    },
    {
      "x": 274,
      "y": 247,
      "size": 1,
      "price": "2333000000000000000000"
    },
    {
      "x": 263,
      "y": 225,
      "size": 1,
      "price": "2333000000000000000000"
    },
    {
      "x": 262,
      "y": 225,
      "size": 1,
      "price": "2333000000000000000000"
    },
    {
      "x": 261,
      "y": 225,
      "size": 1,
      "price": "2333000000000000000000"
    },
    {
      "x": 260,
      "y": 225,
      "size": 1,
      "price": "2333000000000000000000"
    },
    {
      "x": 259,
      "y": 225,
      "size": 1,
      "price": "2333000000000000000000"
    },
    {
      "x": 258,
      "y": 225,
      "size": 1,
      "price": "2333000000000000000000"
    },
    {
      "x": 257,
      "y": 225,
      "size": 1,
      "price": "2333000000000000000000"
    },
    {
      "x": 256,
      "y": 225,
      "size": 1,
      "price": "2333000000000000000000"
    },
    {
      "x": 255,
      "y": 225,
      "size": 1,
      "price": "2333000000000000000000"
    },
    {
      "x": 254,
      "y": 225,
      "size": 1,
      "price": "2333000000000000000000"
    },
    {
      "x": 253,
      "y": 225,
      "size": 1,
      "price": "2333000000000000000000"
    },
    {
      "x": 252,
      "y": 225,
      "size": 1,
      "price": "2333000000000000000000"
    },
    {
      "x": 248,
      "y": 225,
      "size": 1,
      "price": "2333000000000000000000"
    },
    {
      "x": 247,
      "y": 225,
      "size": 1,
      "price": "2333000000000000000000"
    },
    {
      "x": 246,
      "y": 225,
      "size": 1,
      "price": "2333000000000000000000"
    },
    {
      "x": 236,
      "y": 225,
      "size": 1,
      "price": "2333000000000000000000"
    },
    {
      "x": 235,
      "y": 225,
      "size": 1,
      "price": "2333000000000000000000"
    },
    {
      "x": 234,
      "y": 225,
      "size": 1,
      "price": "2333000000000000000000"
    },
    {
      "x": 233,
      "y": 225,
      "size": 1,
      "price": "2333000000000000000000"
    },
    {
      "x": 232,
      "y": 225,
      "size": 1,
      "price": "2333000000000000000000"
    },
    {
      "x": 231,
      "y": 225,
      "size": 1,
      "price": "2333000000000000000000"
    },
    {
      "x": 230,
      "y": 225,
      "size": 1,
      "price": "2333000000000000000000"
    },
    {
      "x": 229,
      "y": 225,
      "size": 1,
      "price": "2333000000000000000000"
    },
    {
      "x": 228,
      "y": 225,
      "size": 1,
      "price": "2333000000000000000000"
    },
    {
      "x": 204,
      "y": 262,
      "size": 1,
      "price": "2333000000000000000000"
    },
    {
      "x": 205,
      "y": 262,
      "size": 1,
      "price": "2333000000000000000000"
    },
    {
      "x": 206,
      "y": 262,
      "size": 1,
      "price": "2333000000000000000000"
    },
    {
      "x": 207,
      "y": 262,
      "size": 1,
      "price": "2333000000000000000000"
    },
    {
      "x": 208,
      "y": 262,
      "size": 1,
      "price": "2333000000000000000000"
    },
    {
      "x": 209,
      "y": 262,
      "size": 1,
      "price": "2333000000000000000000"
    },
    {
      "x": 210,
      "y": 262,
      "size": 1,
      "price": "2333000000000000000000"
    },
    {
      "x": 211,
      "y": 262,
      "size": 1,
      "price": "2333000000000000000000"
    },
    {
      "x": 212,
      "y": 262,
      "size": 1,
      "price": "2333000000000000000000"
    },
    {
      "x": 228,
      "y": 262,
      "size": 1,
      "price": "2333000000000000000000"
    },
    {
      "x": 229,
      "y": 262,
      "size": 1,
      "price": "2333000000000000000000"
    },
    {
      "x": 230,
      "y": 262,
      "size": 1,
      "price": "2333000000000000000000"
    },
    {
      "x": 231,
      "y": 262,
      "size": 1,
      "price": "2333000000000000000000"
    },
    {
      "x": 232,
      "y": 262,
      "size": 1,
      "price": "2333000000000000000000"
    },
    {
      "x": 234,
      "y": 262,
      "size": 1,
      "price": "2333000000000000000000"
    },
    {
      "x": 235,
      "y": 262,
      "size": 1,
      "price": "2333000000000000000000"
    },
    {
      "x": 236,
      "y": 262,
      "size": 1,
      "price": "2333000000000000000000"
    },
    {
      "x": 237,
      "y": 262,
      "size": 1,
      "price": "2333000000000000000000"
    },
    {
      "x": 238,
      "y": 262,
      "size": 1,
      "price": "2333000000000000000000"
    },
    {
      "x": 239,
      "y": 262,
      "size": 1,
      "price": "2333000000000000000000"
    },
    {
      "x": 246,
      "y": 262,
      "size": 1,
      "price": "2333000000000000000000"
    },
    {
      "x": 247,
      "y": 262,
      "size": 1,
      "price": "2333000000000000000000"
    },
    {
      "x": 248,
      "y": 262,
      "size": 1,
      "price": "2333000000000000000000"
    },
    {
      "x": 249,
      "y": 262,
      "size": 1,
      "price": "2333000000000000000000"
    },
    {
      "x": 250,
      "y": 262,
      "size": 1,
      "price": "2333000000000000000000"
    },
    {
      "x": 251,
      "y": 262,
      "size": 1,
      "price": "2333000000000000000000"
    },
    {
      "x": 264,
      "y": 262,
      "size": 1,
      "price": "2333000000000000000000"
    },
    {
      "x": 265,
      "y": 262,
      "size": 1,
      "price": "2333000000000000000000"
    },
    {
      "x": 266,
      "y": 262,
      "size": 1,
      "price": "2333000000000000000000"
    },
    {
      "x": 267,
      "y": 262,
      "size": 1,
      "price": "2333000000000000000000"
    },
    {
      "x": 269,
      "y": 262,
      "size": 1,
      "price": "2333000000000000000000"
    },
    {
      "x": 273,
      "y": 262,
      "size": 1,
      "price": "2333000000000000000000"
    },
    {
      "x": 274,
      "y": 262,
      "size": 1,
      "price": "2333000000000000000000"
    },
    {
      "x": 275,
      "y": 262,
      "size": 1,
      "price": "2333000000000000000000"
    },
    {
      "x": 206,
      "y": 261,
      "size": 1,
      "price": "2333000000000000000000"
    },
    {
      "x": 205,
      "y": 261,
      "size": 1,
      "price": "2333000000000000000000"
    },
    {
      "x": 204,
      "y": 261,
      "size": 1,
      "price": "2333000000000000000000"
    },
    {
      "x": 207,
      "y": 261,
      "size": 1,
      "price": "2333000000000000000000"
    },
    {
      "x": 208,
      "y": 261,
      "size": 1,
      "price": "2333000000000000000000"
    },
    {
      "x": 209,
      "y": 261,
      "size": 1,
      "price": "2333000000000000000000"
    },
    {
      "x": 210,
      "y": 261,
      "size": 1,
      "price": "2333000000000000000000"
    },
    {
      "x": 211,
      "y": 261,
      "size": 1,
      "price": "2333000000000000000000"
    },
    {
      "x": 212,
      "y": 261,
      "size": 1,
      "price": "2333000000000000000000"
    },
    {
      "x": 228,
      "y": 261,
      "size": 1,
      "price": "2333000000000000000000"
    },
    {
      "x": 229,
      "y": 261,
      "size": 1,
      "price": "2333000000000000000000"
    },
    {
      "x": 230,
      "y": 261,
      "size": 1,
      "price": "2333000000000000000000"
    },
    {
      "x": 231,
      "y": 261,
      "size": 1,
      "price": "2333000000000000000000"
    },
    {
      "x": 233,
      "y": 261,
      "size": 1,
      "price": "2333000000000000000000"
    },
    {
      "x": 234,
      "y": 261,
      "size": 1,
      "price": "2333000000000000000000"
    },
    {
      "x": 235,
      "y": 261,
      "size": 1,
      "price": "2333000000000000000000"
    },
    {
      "x": 236,
      "y": 261,
      "size": 1,
      "price": "2333000000000000000000"
    },
    {
      "x": 237,
      "y": 261,
      "size": 1,
      "price": "2333000000000000000000",
      "reserved": "0x7a9fe22691c811ea339d9b73150e6911a5343dca"
    },
    {
      "x": 238,
      "y": 261,
      "size": 1,
      "price": "2333000000000000000000"
    },
    {
      "x": 239,
      "y": 261,
      "size": 1,
      "price": "2333000000000000000000"
    },
    {
      "x": 246,
      "y": 261,
      "size": 1,
      "price": "2333000000000000000000"
    },
    {
      "x": 247,
      "y": 261,
      "size": 1,
      "price": "2333000000000000000000"
    },
    {
      "x": 248,
      "y": 261,
      "size": 1,
      "price": "2333000000000000000000"
    },
    {
      "x": 249,
      "y": 261,
      "size": 1,
      "price": "2333000000000000000000"
    },
    {
      "x": 250,
      "y": 261,
      "size": 1,
      "price": "2333000000000000000000"
    },
    {
      "x": 251,
      "y": 261,
      "size": 1,
      "price": "2333000000000000000000"
    },
    {
      "x": 264,
      "y": 261,
      "size": 1,
      "price": "2333000000000000000000"
    },
    {
      "x": 265,
      "y": 261,
      "size": 1,
      "price": "2333000000000000000000"
    },
    {
      "x": 266,
      "y": 261,
      "size": 1,
      "price": "2333000000000000000000"
    },
    {
      "x": 267,
      "y": 261,
      "size": 1,
      "price": "2333000000000000000000"
    },
    {
      "x": 268,
      "y": 261,
      "size": 1,
      "price": "2333000000000000000000"
    },
    {
      "x": 273,
      "y": 261,
      "size": 1,
      "price": "2333000000000000000000"
    },
    {
      "x": 274,
      "y": 261,
      "size": 1,
      "price": "2333000000000000000000"
    },
    {
      "x": 275,
      "y": 261,
      "size": 1,
      "price": "2333000000000000000000"
    },
    {
      "x": 279,
      "y": 261,
      "size": 1,
      "price": "2333000000000000000000"
    },
    {
      "x": 281,
      "y": 261,
      "size": 1,
      "price": "2333000000000000000000"
    },
    {
      "x": 278,
      "y": 257,
      "size": 1,
      "price": "2333000000000000000000"
    },
    {
      "x": 292,
      "y": 269,
      "size": 1,
      "price": "2333000000000000000000"
    },
    {
      "x": 291,
      "y": 269,
      "size": 1,
      "price": "2333000000000000000000"
    },
    {
      "x": 266,
      "y": 269,
      "size": 1,
      "price": "2333000000000000000000"
    },
    {
      "x": 265,
      "y": 269,
      "size": 1,
      "price": "2333000000000000000000"
    },
    {
      "x": 264,
      "y": 269,
      "size": 1,
      "price": "2333000000000000000000"
    },
    {
      "x": 257,
      "y": 269,
      "size": 1,
      "price": "2333000000000000000000"
    },
    {
      "x": 256,
      "y": 269,
      "size": 1,
      "price": "2333000000000000000000"
    },
    {
      "x": 255,
      "y": 269,
      "size": 1,
      "price": "2333000000000000000000"
    },
    {
      "x": 254,
      "y": 269,
      "size": 1,
      "price": "2333000000000000000000"
    },
    {
      "x": 253,
      "y": 269,
      "size": 1,
      "price": "2333000000000000000000"
    },
    {
      "x": 252,
      "y": 269,
      "size": 1,
      "price": "2333000000000000000000"
    },
    {
      "x": 251,
      "y": 269,
      "size": 1,
      "price": "2333000000000000000000"
    },
    {
      "x": 250,
      "y": 269,
      "size": 1,
      "price": "2333000000000000000000"
    },
    {
      "x": 249,
      "y": 269,
      "size": 1,
      "price": "2333000000000000000000"
    },
    {
      "x": 248,
      "y": 269,
      "size": 1,
      "price": "2333000000000000000000"
    },
    {
      "x": 247,
      "y": 269,
      "size": 1,
      "price": "2333000000000000000000"
    },
    {
      "x": 246,
      "y": 269,
      "size": 1,
      "price": "2333000000000000000000"
    },
    {
      "x": 203,
      "y": 268,
      "size": 1,
      "price": "2333000000000000000000"
    },
    {
      "x": 202,
      "y": 269,
      "size": 1,
      "price": "2333000000000000000000"
    },
    {
      "x": 201,
      "y": 269,
      "size": 1,
      "price": "2333000000000000000000"
    },
    {
      "x": 200,
      "y": 269,
      "size": 1,
      "price": "2333000000000000000000"
    },
    {
      "x": 199,
      "y": 269,
      "size": 1,
      "price": "2333000000000000000000"
    },
    {
      "x": 198,
      "y": 269,
      "size": 1,
      "price": "2333000000000000000000"
    },
    {
      "x": 203,
      "y": 269,
      "size": 1,
      "price": "2333000000000000000000"
    },
    {
      "x": 202,
      "y": 268,
      "size": 1,
      "price": "2333000000000000000000"
    },
    {
      "x": 201,
      "y": 268,
      "size": 1,
      "price": "2333000000000000000000"
    },
    {
      "x": 200,
      "y": 268,
      "size": 1,
      "price": "2333000000000000000000"
    },
    {
      "x": 199,
      "y": 268,
      "size": 1,
      "price": "2333000000000000000000"
    },
    {
      "x": 198,
      "y": 268,
      "size": 1,
      "price": "2333000000000000000000"
    },
    {
      "x": 203,
      "y": 266,
      "size": 1,
      "price": "2333000000000000000000"
    },
    {
      "x": 202,
      "y": 266,
      "size": 1,
      "price": "2333000000000000000000"
    },
    {
      "x": 201,
      "y": 266,
      "size": 1,
      "price": "2333000000000000000000"
    },
    {
      "x": 199,
      "y": 267,
      "size": 1,
      "price": "2333000000000000000000"
    },
    {
      "x": 198,
      "y": 267,
      "size": 1,
      "price": "2333000000000000000000"
    },
    {
      "x": 200,
      "y": 267,
      "size": 1,
      "price": "2333000000000000000000"
    },
    {
      "x": 201,
      "y": 267,
      "size": 1,
      "price": "2333000000000000000000"
    },
    {
      "x": 202,
      "y": 267,
      "size": 1,
      "price": "2333000000000000000000"
    },
    {
      "x": 203,
      "y": 267,
      "size": 1,
      "price": "2333000000000000000000"
    },
    {
      "x": 246,
      "y": 267,
      "size": 1,
      "price": "2333000000000000000000"
    },
    {
      "x": 247,
      "y": 267,
      "size": 1,
      "price": "2333000000000000000000"
    },
    {
      "x": 248,
      "y": 267,
      "size": 1,
      "price": "2333000000000000000000"
    },
    {
      "x": 249,
      "y": 267,
      "size": 1,
      "price": "2333000000000000000000"
    },
    {
      "x": 250,
      "y": 267,
      "size": 1,
      "price": "2333000000000000000000"
    },
    {
      "x": 251,
      "y": 267,
      "size": 1,
      "price": "2333000000000000000000"
    },
    {
      "x": 252,
      "y": 267,
      "size": 1,
      "price": "2333000000000000000000"
    },
    {
      "x": 253,
      "y": 267,
      "size": 1,
      "price": "2333000000000000000000"
    },
    {
      "x": 254,
      "y": 267,
      "size": 1,
      "price": "2333000000000000000000"
    },
    {
      "x": 255,
      "y": 267,
      "size": 1,
      "price": "2333000000000000000000"
    },
    {
      "x": 256,
      "y": 267,
      "size": 1,
      "price": "2333000000000000000000"
    },
    {
      "x": 257,
      "y": 267,
      "size": 1,
      "price": "2333000000000000000000"
    },
    {
      "x": 264,
      "y": 267,
      "size": 1,
      "price": "2333000000000000000000"
    },
    {
      "x": 265,
      "y": 267,
      "size": 1,
      "price": "2333000000000000000000"
    },
    {
      "x": 266,
      "y": 267,
      "size": 1,
      "price": "2333000000000000000000"
    },
    {
      "x": 266,
      "y": 268,
      "size": 1,
      "price": "2333000000000000000000"
    },
    {
      "x": 265,
      "y": 268,
      "size": 1,
      "price": "2333000000000000000000"
    },
    {
      "x": 264,
      "y": 268,
      "size": 1,
      "price": "2333000000000000000000"
    },
    {
      "x": 257,
      "y": 268,
      "size": 1,
      "price": "2333000000000000000000"
    },
    {
      "x": 256,
      "y": 268,
      "size": 1,
      "price": "2333000000000000000000"
    },
    {
      "x": 255,
      "y": 268,
      "size": 1,
      "price": "2333000000000000000000"
    },
    {
      "x": 254,
      "y": 268,
      "size": 1,
      "price": "2333000000000000000000",
      "reserved": "0x7a9fe22691c811ea339d9b73150e6911a5343dca"
    },
    {
      "x": 253,
      "y": 268,
      "size": 1,
      "price": "2333000000000000000000"
    },
    {
      "x": 252,
      "y": 268,
      "size": 1,
      "price": "2333000000000000000000"
    },
    {
      "x": 251,
      "y": 268,
      "size": 1,
      "price": "2333000000000000000000"
    },
    {
      "x": 250,
      "y": 268,
      "size": 1,
      "price": "2333000000000000000000"
    },
    {
      "x": 249,
      "y": 268,
      "size": 1,
      "price": "2333000000000000000000"
    },
    {
      "x": 248,
      "y": 268,
      "size": 1,
      "price": "2333000000000000000000"
    },
    {
      "x": 247,
      "y": 268,
      "size": 1,
      "price": "2333000000000000000000"
    },
    {
      "x": 246,
      "y": 268,
      "size": 1,
      "price": "2333000000000000000000"
    },
    {
      "x": 226,
      "y": 275,
      "size": 1,
      "price": "2333000000000000000000"
    },
    {
      "x": 226,
      "y": 274,
      "size": 1,
      "price": "2333000000000000000000"
    },
    {
      "x": 226,
      "y": 273,
      "size": 1,
      "price": "2333000000000000000000"
    },
    {
      "x": 226,
      "y": 272,
      "size": 1,
      "price": "2333000000000000000000"
    },
    {
      "x": 226,
      "y": 271,
      "size": 1,
      "price": "2333000000000000000000"
    },
    {
      "x": 226,
      "y": 270,
      "size": 1,
      "price": "2333000000000000000000"
    },
    {
      "x": 226,
      "y": 236,
      "size": 1,
      "price": "2333000000000000000000"
    },
    {
      "x": 226,
      "y": 235,
      "size": 1,
      "price": "2333000000000000000000"
    },
    {
      "x": 226,
      "y": 234,
      "size": 1,
      "price": "2333000000000000000000"
    },
    {
      "x": 226,
      "y": 233,
      "size": 1,
      "price": "2333000000000000000000"
    },
    {
      "x": 226,
      "y": 232,
      "size": 1,
      "price": "2333000000000000000000"
    },
    {
      "x": 226,
      "y": 231,
      "size": 1,
      "price": "2333000000000000000000"
    },
    {
      "x": 226,
      "y": 230,
      "size": 1,
      "price": "2333000000000000000000"
    },
    {
      "x": 226,
      "y": 229,
      "size": 1,
      "price": "2333000000000000000000"
    },
    {
      "x": 226,
      "y": 228,
      "size": 1,
      "price": "2333000000000000000000"
    },
    {
      "x": 226,
      "y": 221,
      "size": 1,
      "price": "2333000000000000000000"
    },
    {
      "x": 226,
      "y": 220,
      "size": 1,
      "price": "2333000000000000000000"
    },
    {
      "x": 226,
      "y": 219,
      "size": 1,
      "price": "2333000000000000000000"
    },
    {
      "x": 226,
      "y": 218,
      "size": 1,
      "price": "2333000000000000000000"
    },
    {
      "x": 226,
      "y": 217,
      "size": 1,
      "price": "2333000000000000000000"
    },
    {
      "x": 226,
      "y": 216,
      "size": 1,
      "price": "2333000000000000000000"
    },
    {
      "x": 226,
      "y": 212,
      "size": 1,
      "price": "2333000000000000000000"
    },
    {
      "x": 226,
      "y": 211,
      "size": 1,
      "price": "2333000000000000000000"
    },
    {
      "x": 226,
      "y": 210,
      "size": 1,
      "price": "2333000000000000000000"
    },
    {
      "x": 226,
      "y": 209,
      "size": 1,
      "price": "2333000000000000000000"
    },
    {
      "x": 226,
      "y": 208,
      "size": 1,
      "price": "2333000000000000000000"
    },
    {
      "x": 226,
      "y": 207,
      "size": 1,
      "price": "2333000000000000000000"
    },
    {
      "x": 226,
      "y": 206,
      "size": 1,
      "price": "2333000000000000000000"
    },
    {
      "x": 227,
      "y": 206,
      "size": 1,
      "price": "2333000000000000000000"
    },
    {
      "x": 227,
      "y": 207,
      "size": 1,
      "price": "2333000000000000000000"
    },
    {
      "x": 227,
      "y": 208,
      "size": 1,
      "price": "2333000000000000000000"
    },
    {
      "x": 227,
      "y": 209,
      "size": 1,
      "price": "2333000000000000000000"
    },
    {
      "x": 227,
      "y": 210,
      "size": 1,
      "price": "2333000000000000000000"
    },
    {
      "x": 227,
      "y": 211,
      "size": 1,
      "price": "2333000000000000000000"
    },
    {
      "x": 227,
      "y": 212,
      "size": 1,
      "price": "2333000000000000000000"
    },
    {
      "x": 227,
      "y": 216,
      "size": 1,
      "price": "2333000000000000000000"
    },
    {
      "x": 227,
      "y": 217,
      "size": 1,
      "price": "2333000000000000000000"
    },
    {
      "x": 227,
      "y": 218,
      "size": 1,
      "price": "2333000000000000000000"
    },
    {
      "x": 227,
      "y": 219,
      "size": 1,
      "price": "2333000000000000000000"
    },
    {
      "x": 227,
      "y": 220,
      "size": 1,
      "price": "2333000000000000000000"
    },
    {
      "x": 227,
      "y": 221,
      "size": 1,
      "price": "2333000000000000000000"
    },
    {
      "x": 227,
      "y": 228,
      "size": 1,
      "price": "2333000000000000000000"
    },
    {
      "x": 227,
      "y": 229,
      "size": 1,
      "price": "2333000000000000000000"
    },
    {
      "x": 227,
      "y": 230,
      "size": 1,
      "price": "2333000000000000000000"
    },
    {
      "x": 227,
      "y": 231,
      "size": 1,
      "price": "2333000000000000000000"
    },
    {
      "x": 227,
      "y": 232,
      "size": 1,
      "price": "2333000000000000000000"
    },
    {
      "x": 227,
      "y": 233,
      "size": 1,
      "price": "2333000000000000000000"
    },
    {
      "x": 227,
      "y": 234,
      "size": 1,
      "price": "2333000000000000000000"
    },
    {
      "x": 227,
      "y": 235,
      "size": 1,
      "price": "2333000000000000000000"
    },
    {
      "x": 227,
      "y": 236,
      "size": 1,
      "price": "2333000000000000000000"
    },
    {
      "x": 227,
      "y": 249,
      "size": 1,
      "price": "2333000000000000000000"
    },
    {
      "x": 227,
      "y": 250,
      "size": 1,
      "price": "2333000000000000000000"
    },
    {
      "x": 227,
      "y": 251,
      "size": 1,
      "price": "2333000000000000000000"
    },
    {
      "x": 227,
      "y": 270,
      "size": 1,
      "price": "2333000000000000000000"
    },
    {
      "x": 227,
      "y": 271,
      "size": 1,
      "price": "2333000000000000000000"
    },
    {
      "x": 227,
      "y": 272,
      "size": 1,
      "price": "2333000000000000000000"
    },
    {
      "x": 227,
      "y": 273,
      "size": 1,
      "price": "2333000000000000000000"
    },
    {
      "x": 227,
      "y": 274,
      "size": 1,
      "price": "2333000000000000000000"
    },
    {
      "x": 227,
      "y": 275,
      "size": 1,
      "price": "2333000000000000000000"
    },
    {
      "x": 225,
      "y": 251,
      "size": 1,
      "price": "2333000000000000000000"
    },
    {
      "x": 225,
      "y": 250,
      "size": 1,
      "price": "2333000000000000000000"
    },
    {
      "x": 225,
      "y": 249,
      "size": 1,
      "price": "2333000000000000000000"
    },
    {
      "x": 225,
      "y": 236,
      "size": 1,
      "price": "2333000000000000000000"
    },
    {
      "x": 225,
      "y": 235,
      "size": 1,
      "price": "2333000000000000000000"
    },
    {
      "x": 225,
      "y": 234,
      "size": 1,
      "price": "2333000000000000000000"
    },
    {
      "x": 225,
      "y": 233,
      "size": 1,
      "price": "2333000000000000000000"
    },
    {
      "x": 225,
      "y": 232,
      "size": 1,
      "price": "2333000000000000000000"
    },
    {
      "x": 225,
      "y": 231,
      "size": 1,
      "price": "2333000000000000000000"
    },
    {
      "x": 225,
      "y": 230,
      "size": 1,
      "price": "2333000000000000000000"
    },
    {
      "x": 225,
      "y": 229,
      "size": 1,
      "price": "2333000000000000000000"
    },
    {
      "x": 225,
      "y": 228,
      "size": 1,
      "price": "2333000000000000000000"
    },
    {
      "x": 225,
      "y": 221,
      "size": 1,
      "price": "2333000000000000000000"
    },
    {
      "x": 225,
      "y": 220,
      "size": 1,
      "price": "2333000000000000000000"
    },
    {
      "x": 225,
      "y": 219,
      "size": 1,
      "price": "2333000000000000000000"
    },
    {
      "x": 225,
      "y": 218,
      "size": 1,
      "price": "2333000000000000000000"
    },
    {
      "x": 225,
      "y": 217,
      "size": 1,
      "price": "2333000000000000000000"
    },
    {
      "x": 225,
      "y": 216,
      "size": 1,
      "price": "2333000000000000000000"
    },
    {
      "x": 225,
      "y": 212,
      "size": 1,
      "price": "2333000000000000000000"
    },
    {
      "x": 225,
      "y": 211,
      "size": 1,
      "price": "2333000000000000000000"
    },
    {
      "x": 225,
      "y": 210,
      "size": 1,
      "price": "2333000000000000000000",
      "reserved": "0x7a9fe22691c811ea339d9b73150e6911a5343dca"
    },
    {
      "x": 225,
      "y": 209,
      "size": 1,
      "price": "2333000000000000000000"
    },
    {
      "x": 225,
      "y": 208,
      "size": 1,
      "price": "2333000000000000000000"
    },
    {
      "x": 225,
      "y": 207,
      "size": 1,
      "price": "2333000000000000000000"
    },
    {
      "x": 225,
      "y": 206,
      "size": 1,
      "price": "2333000000000000000000"
    },
    {
      "x": 225,
      "y": 205,
      "size": 1,
      "price": "2333000000000000000000"
    },
    {
      "x": 227,
      "y": 204,
      "size": 1,
      "price": "2333000000000000000000"
    },
    {
      "x": 225,
      "y": 204,
      "size": 1,
      "price": "2333000000000000000000"
    },
    {
      "x": 226,
      "y": 204,
      "size": 1,
      "price": "2333000000000000000000"
    },
    {
      "x": 227,
      "y": 205,
      "size": 1,
      "price": "2333000000000000000000"
    },
    {
      "x": 226,
      "y": 205,
      "size": 1,
      "price": "2333000000000000000000"
    },
    {
      "x": 224,
      "y": 206,
      "size": 1,
      "price": "2333000000000000000000"
    },
    {
      "x": 223,
      "y": 206,
      "size": 1,
      "price": "2333000000000000000000"
    },
    {
      "x": 222,
      "y": 206,
      "size": 1,
      "price": "2333000000000000000000"
    },
    {
      "x": 218,
      "y": 206,
      "size": 1,
      "price": "2333000000000000000000"
    },
    {
      "x": 217,
      "y": 206,
      "size": 1,
      "price": "2333000000000000000000"
    },
    {
      "x": 216,
      "y": 206,
      "size": 1,
      "price": "2333000000000000000000"
    },
    {
      "x": 216,
      "y": 209,
      "size": 1,
      "price": "2333000000000000000000"
    },
    {
      "x": 217,
      "y": 209,
      "size": 1,
      "price": "2333000000000000000000"
    },
    {
      "x": 218,
      "y": 209,
      "size": 1,
      "price": "2333000000000000000000"
    },
    {
      "x": 219,
      "y": 209,
      "size": 1,
      "price": "2333000000000000000000"
    },
    {
      "x": 220,
      "y": 209,
      "size": 1,
      "price": "2333000000000000000000"
    },
    {
      "x": 216,
      "y": 208,
      "size": 1,
      "price": "2333000000000000000000"
    },
    {
      "x": 217,
      "y": 208,
      "size": 1,
      "price": "2333000000000000000000"
    },
    {
      "x": 218,
      "y": 208,
      "size": 1,
      "price": "2333000000000000000000"
    },
    {
      "x": 219,
      "y": 208,
      "size": 1,
      "price": "2333000000000000000000"
    },
    {
      "x": 220,
      "y": 208,
      "size": 1,
      "price": "2333000000000000000000"
    },
    {
      "x": 221,
      "y": 208,
      "size": 1,
      "price": "2333000000000000000000"
    },
    {
      "x": 221,
      "y": 209,
      "size": 1,
      "price": "2333000000000000000000"
    },
    {
      "x": 223,
      "y": 210,
      "size": 1,
      "price": "2333000000000000000000"
    },
    {
      "x": 224,
      "y": 210,
      "size": 1,
      "price": "2333000000000000000000"
    },
    {
      "x": 222,
      "y": 210,
      "size": 1,
      "price": "2333000000000000000000"
    },
    {
      "x": 221,
      "y": 207,
      "size": 1,
      "price": "2333000000000000000000"
    },
    {
      "x": 220,
      "y": 207,
      "size": 1,
      "price": "2333000000000000000000"
    },
    {
      "x": 216,
      "y": 207,
      "size": 1,
      "price": "2333000000000000000000"
    },
    {
      "x": 217,
      "y": 207,
      "size": 1,
      "price": "2333000000000000000000"
    },
    {
      "x": 218,
      "y": 207,
      "size": 1,
      "price": "2333000000000000000000"
    },
    {
      "x": 219,
      "y": 207,
      "size": 1,
      "price": "2333000000000000000000"
    },
    {
      "x": 216,
      "y": 205,
      "size": 1,
      "price": "2333000000000000000000"
    },
    {
      "x": 222,
      "y": 205,
      "size": 1,
      "price": "2333000000000000000000"
    },
    {
      "x": 223,
      "y": 205,
      "size": 1,
      "price": "2333000000000000000000"
    },
    {
      "x": 223,
      "y": 204,
      "size": 1,
      "price": "2333000000000000000000"
    },
    {
      "x": 224,
      "y": 204,
      "size": 1,
      "price": "2333000000000000000000"
    },
    {
      "x": 224,
      "y": 205,
      "size": 1,
      "price": "2333000000000000000000"
    },
    {
      "x": 218,
      "y": 205,
      "size": 1,
      "price": "2333000000000000000000"
    },
    {
      "x": 217,
      "y": 205,
      "size": 1,
      "price": "2333000000000000000000"
    },
    {
      "x": 216,
      "y": 204,
      "size": 1,
      "price": "2333000000000000000000"
    },
    {
      "x": 217,
      "y": 204,
      "size": 1,
      "price": "2333000000000000000000"
    },
    {
      "x": 218,
      "y": 204,
      "size": 1,
      "price": "2333000000000000000000"
    },
    {
      "x": 222,
      "y": 204,
      "size": 1,
      "price": "2333000000000000000000"
    },
    {
      "x": 222,
      "y": 203,
      "size": 1,
      "price": "2333000000000000000000"
    },
    {
      "x": 223,
      "y": 203,
      "size": 1,
      "price": "2333000000000000000000"
    },
    {
      "x": 224,
      "y": 203,
      "size": 1,
      "price": "2333000000000000000000"
    },
    {
      "x": 224,
      "y": 202,
      "size": 1,
      "price": "2333000000000000000000"
    },
    {
      "x": 224,
      "y": 201,
      "size": 1,
      "price": "2333000000000000000000"
    },
    {
      "x": 223,
      "y": 201,
      "size": 1,
      "price": "2333000000000000000000"
    },
    {
      "x": 222,
      "y": 201,
      "size": 1,
      "price": "2333000000000000000000"
    },
    {
      "x": 221,
      "y": 201,
      "size": 1,
      "price": "2333000000000000000000"
    },
    {
      "x": 220,
      "y": 201,
      "size": 1,
      "price": "2333000000000000000000"
    },
    {
      "x": 219,
      "y": 201,
      "size": 1,
      "price": "2333000000000000000000"
    },
    {
      "x": 219,
      "y": 202,
      "size": 1,
      "price": "2333000000000000000000"
    },
    {
      "x": 219,
      "y": 203,
      "size": 1,
      "price": "2333000000000000000000"
    },
    {
      "x": 220,
      "y": 203,
      "size": 1,
      "price": "2333000000000000000000"
    },
    {
      "x": 221,
      "y": 203,
      "size": 1,
      "price": "2333000000000000000000"
    },
    {
      "x": 222,
      "y": 202,
      "size": 1,
      "price": "2333000000000000000000"
    },
    {
      "x": 223,
      "y": 202,
      "size": 1,
      "price": "2333000000000000000000"
    },
    {
      "x": 221,
      "y": 202,
      "size": 1,
      "price": "2333000000000000000000"
    },
    {
      "x": 220,
      "y": 202,
      "size": 1,
      "price": "2333000000000000000000"
    },
    {
      "x": 228,
      "y": 203,
      "size": 1,
      "price": "2333000000000000000000"
    },
    {
      "x": 229,
      "y": 203,
      "size": 1,
      "price": "2333000000000000000000"
    },
    {
      "x": 230,
      "y": 203,
      "size": 1,
      "price": "2333000000000000000000"
    },
    {
      "x": 231,
      "y": 203,
      "size": 1,
      "price": "2333000000000000000000"
    },
    {
      "x": 232,
      "y": 203,
      "size": 1,
      "price": "2333000000000000000000"
    },
    {
      "x": 233,
      "y": 203,
      "size": 1,
      "price": "2333000000000000000000"
    },
    {
      "x": 229,
      "y": 202,
      "size": 1,
      "price": "2333000000000000000000"
    },
    {
      "x": 230,
      "y": 202,
      "size": 1,
      "price": "2333000000000000000000"
    },
    {
      "x": 231,
      "y": 202,
      "size": 1,
      "price": "2333000000000000000000"
    },
    {
      "x": 232,
      "y": 202,
      "size": 1,
      "price": "2333000000000000000000"
    },
    {
      "x": 228,
      "y": 202,
      "size": 1,
      "price": "2333000000000000000000"
    },
    {
      "x": 233,
      "y": 202,
      "size": 1,
      "price": "2333000000000000000000"
    },
    {
      "x": 228,
      "y": 201,
      "size": 1,
      "price": "2333000000000000000000"
    },
    {
      "x": 229,
      "y": 201,
      "size": 1,
      "price": "2333000000000000000000"
    },
    {
      "x": 230,
      "y": 201,
      "size": 1,
      "price": "2333000000000000000000"
    },
    {
      "x": 231,
      "y": 201,
      "size": 1,
      "price": "2333000000000000000000"
    },
    {
      "x": 232,
      "y": 201,
      "size": 1,
      "price": "2333000000000000000000"
    },
    {
      "x": 233,
      "y": 201,
      "size": 1,
      "price": "2333000000000000000000"
    },
    {
      "x": 240,
      "y": 201,
      "size": 1,
      "price": "2333000000000000000000"
    },
    {
      "x": 240,
      "y": 202,
      "size": 1,
      "price": "2333000000000000000000"
    },
    {
      "x": 240,
      "y": 203,
      "size": 1,
      "price": "2333000000000000000000"
    },
    {
      "x": 240,
      "y": 204,
      "size": 1,
      "price": "2333000000000000000000"
    },
    {
      "x": 240,
      "y": 205,
      "size": 1,
      "price": "2333000000000000000000"
    },
    {
      "x": 240,
      "y": 206,
      "size": 1,
      "price": "2333000000000000000000"
    },
    {
      "x": 240,
      "y": 207,
      "size": 1,
      "price": "2333000000000000000000"
    },
    {
      "x": 240,
      "y": 208,
      "size": 1,
      "price": "2333000000000000000000"
    },
    {
      "x": 240,
      "y": 209,
      "size": 1,
      "price": "2333000000000000000000"
    },
    {
      "x": 240,
      "y": 213,
      "size": 1,
      "price": "2333000000000000000000"
    },
    {
      "x": 240,
      "y": 214,
      "size": 1,
      "price": "2333000000000000000000"
    },
    {
      "x": 240,
      "y": 215,
      "size": 1,
      "price": "2333000000000000000000"
    },
    {
      "x": 240,
      "y": 216,
      "size": 1,
      "price": "2333000000000000000000",
      "reserved": "0x7a9fe22691c811ea339d9b73150e6911a5343dca"
    },
    {
      "x": 240,
      "y": 217,
      "size": 1,
      "price": "2333000000000000000000"
    },
    {
      "x": 240,
      "y": 218,
      "size": 1,
      "price": "2333000000000000000000"
    },
    {
      "x": 240,
      "y": 219,
      "size": 1,
      "price": "2333000000000000000000"
    },
    {
      "x": 240,
      "y": 220,
      "size": 1,
      "price": "2333000000000000000000"
    },
    {
      "x": 240,
      "y": 221,
      "size": 1,
      "price": "2333000000000000000000"
    },
    {
      "x": 240,
      "y": 240,
      "size": 1,
      "price": "2333000000000000000000"
    },
    {
      "x": 240,
      "y": 241,
      "size": 1,
      "price": "2333000000000000000000"
    },
    {
      "x": 240,
      "y": 242,
      "size": 1,
      "price": "2333000000000000000000"
    },
    {
      "x": 240,
      "y": 243,
      "size": 1,
      "price": "2333000000000000000000"
    },
    {
      "x": 240,
      "y": 244,
      "size": 1,
      "price": "2333000000000000000000"
    },
    {
      "x": 240,
      "y": 245,
      "size": 1,
      "price": "2333000000000000000000"
    },
    {
      "x": 240,
      "y": 249,
      "size": 1,
      "price": "2333000000000000000000"
    },
    {
      "x": 240,
      "y": 250,
      "size": 1,
      "price": "2333000000000000000000"
    },
    {
      "x": 240,
      "y": 251,
      "size": 1,
      "price": "2333000000000000000000"
    },
    {
      "x": 240,
      "y": 252,
      "size": 1,
      "price": "2333000000000000000000"
    },
    {
      "x": 240,
      "y": 253,
      "size": 1,
      "price": "2333000000000000000000"
    },
    {
      "x": 240,
      "y": 254,
      "size": 1,
      "price": "2333000000000000000000"
    },
    {
      "x": 240,
      "y": 256,
      "size": 1,
      "price": "2333000000000000000000"
    },
    {
      "x": 240,
      "y": 257,
      "size": 1,
      "price": "2333000000000000000000"
    },
    {
      "x": 240,
      "y": 270,
      "size": 1,
      "price": "2333000000000000000000"
    },
    {
      "x": 240,
      "y": 271,
      "size": 1,
      "price": "2333000000000000000000"
    },
    {
      "x": 240,
      "y": 272,
      "size": 1,
      "price": "2333000000000000000000"
    },
    {
      "x": 240,
      "y": 276,
      "size": 1,
      "price": "2333000000000000000000"
    },
    {
      "x": 240,
      "y": 277,
      "size": 1,
      "price": "2333000000000000000000"
    },
    {
      "x": 240,
      "y": 278,
      "size": 1,
      "price": "2333000000000000000000"
    },
    {
      "x": 240,
      "y": 280,
      "size": 1,
      "price": "2333000000000000000000"
    },
    {
      "x": 240,
      "y": 281,
      "size": 1,
      "price": "2333000000000000000000"
    },
    {
      "x": 240,
      "y": 282,
      "size": 1,
      "price": "2333000000000000000000"
    },
    {
      "x": 240,
      "y": 283,
      "size": 1,
      "price": "2333000000000000000000"
    },
    {
      "x": 241,
      "y": 283,
      "size": 1,
      "price": "2333000000000000000000"
    },
    {
      "x": 241,
      "y": 282,
      "size": 1,
      "price": "2333000000000000000000"
    },
    {
      "x": 241,
      "y": 281,
      "size": 1,
      "price": "2333000000000000000000"
    },
    {
      "x": 241,
      "y": 280,
      "size": 1,
      "price": "2333000000000000000000"
    },
    {
      "x": 241,
      "y": 278,
      "size": 1,
      "price": "2333000000000000000000"
    },
    {
      "x": 241,
      "y": 277,
      "size": 1,
      "price": "2333000000000000000000"
    },
    {
      "x": 241,
      "y": 276,
      "size": 1,
      "price": "2333000000000000000000"
    },
    {
      "x": 241,
      "y": 272,
      "size": 1,
      "price": "2333000000000000000000"
    },
    {
      "x": 241,
      "y": 271,
      "size": 1,
      "price": "2333000000000000000000"
    },
    {
      "x": 241,
      "y": 270,
      "size": 1,
      "price": "2333000000000000000000"
    },
    {
      "x": 241,
      "y": 257,
      "size": 1,
      "price": "2333000000000000000000"
    },
    {
      "x": 241,
      "y": 256,
      "size": 1,
      "price": "2333000000000000000000"
    },
    {
      "x": 241,
      "y": 254,
      "size": 1,
      "price": "2333000000000000000000"
    },
    {
      "x": 241,
      "y": 253,
      "size": 1,
      "price": "2333000000000000000000"
    },
    {
      "x": 241,
      "y": 252,
      "size": 1,
      "price": "2333000000000000000000"
    },
    {
      "x": 241,
      "y": 251,
      "size": 1,
      "price": "2333000000000000000000"
    },
    {
      "x": 241,
      "y": 250,
      "size": 1,
      "price": "2333000000000000000000"
    },
    {
      "x": 241,
      "y": 249,
      "size": 1,
      "price": "2333000000000000000000"
    },
    {
      "x": 241,
      "y": 245,
      "size": 1,
      "price": "2333000000000000000000"
    },
    {
      "x": 241,
      "y": 244,
      "size": 1,
      "price": "2333000000000000000000"
    },
    {
      "x": 241,
      "y": 243,
      "size": 1,
      "price": "2333000000000000000000"
    },
    {
      "x": 241,
      "y": 242,
      "size": 1,
      "price": "2333000000000000000000"
    },
    {
      "x": 241,
      "y": 241,
      "size": 1,
      "price": "2333000000000000000000"
    },
    {
      "x": 241,
      "y": 240,
      "size": 1,
      "price": "2333000000000000000000"
    },
    {
      "x": 241,
      "y": 221,
      "size": 1,
      "price": "2333000000000000000000"
    },
    {
      "x": 241,
      "y": 220,
      "size": 1,
      "price": "2333000000000000000000"
    },
    {
      "x": 241,
      "y": 219,
      "size": 1,
      "price": "2333000000000000000000"
    },
    {
      "x": 241,
      "y": 218,
      "size": 1,
      "price": "2333000000000000000000"
    },
    {
      "x": 241,
      "y": 217,
      "size": 1,
      "price": "2333000000000000000000"
    },
    {
      "x": 241,
      "y": 216,
      "size": 1,
      "price": "2333000000000000000000"
    },
    {
      "x": 241,
      "y": 215,
      "size": 1,
      "price": "2333000000000000000000"
    },
    {
      "x": 241,
      "y": 214,
      "size": 1,
      "price": "2333000000000000000000"
    },
    {
      "x": 241,
      "y": 213,
      "size": 1,
      "price": "2333000000000000000000"
    },
    {
      "x": 241,
      "y": 209,
      "size": 1,
      "price": "2333000000000000000000"
    },
    {
      "x": 241,
      "y": 208,
      "size": 1,
      "price": "2333000000000000000000"
    },
    {
      "x": 241,
      "y": 207,
      "size": 1,
      "price": "2333000000000000000000"
    },
    {
      "x": 241,
      "y": 206,
      "size": 1,
      "price": "2333000000000000000000"
    },
    {
      "x": 241,
      "y": 205,
      "size": 1,
      "price": "2333000000000000000000"
    },
    {
      "x": 241,
      "y": 204,
      "size": 1,
      "price": "2333000000000000000000"
    },
    {
      "x": 241,
      "y": 203,
      "size": 1,
      "price": "2333000000000000000000"
    },
    {
      "x": 241,
      "y": 202,
      "size": 1,
      "price": "2333000000000000000000"
    },
    {
      "x": 241,
      "y": 201,
      "size": 1,
      "price": "2333000000000000000000"
    },
    {
      "x": 242,
      "y": 201,
      "size": 1,
      "price": "2333000000000000000000"
    },
    {
      "x": 242,
      "y": 202,
      "size": 1,
      "price": "2333000000000000000000"
    },
    {
      "x": 242,
      "y": 203,
      "size": 1,
      "price": "2333000000000000000000"
    },
    {
      "x": 242,
      "y": 204,
      "size": 1,
      "price": "2333000000000000000000"
    },
    {
      "x": 242,
      "y": 205,
      "size": 1,
      "price": "2333000000000000000000"
    },
    {
      "x": 242,
      "y": 206,
      "size": 1,
      "price": "2333000000000000000000"
    },
    {
      "x": 242,
      "y": 207,
      "size": 1,
      "price": "2333000000000000000000"
    },
    {
      "x": 242,
      "y": 208,
      "size": 1,
      "price": "2333000000000000000000"
    },
    {
      "x": 242,
      "y": 209,
      "size": 1,
      "price": "2333000000000000000000"
    },
    {
      "x": 242,
      "y": 213,
      "size": 1,
      "price": "2333000000000000000000"
    },
    {
      "x": 242,
      "y": 214,
      "size": 1,
      "price": "2333000000000000000000"
    },
    {
      "x": 242,
      "y": 215,
      "size": 1,
      "price": "2333000000000000000000"
    },
    {
      "x": 242,
      "y": 216,
      "size": 1,
      "price": "2333000000000000000000"
    },
    {
      "x": 242,
      "y": 217,
      "size": 1,
      "price": "2333000000000000000000"
    },
    {
      "x": 242,
      "y": 218,
      "size": 1,
      "price": "2333000000000000000000"
    },
    {
      "x": 242,
      "y": 219,
      "size": 1,
      "price": "2333000000000000000000"
    },
    {
      "x": 242,
      "y": 220,
      "size": 1,
      "price": "2333000000000000000000"
    },
    {
      "x": 242,
      "y": 221,
      "size": 1,
      "price": "2333000000000000000000"
    },
    {
      "x": 242,
      "y": 240,
      "size": 1,
      "price": "2333000000000000000000"
    },
    {
      "x": 242,
      "y": 241,
      "size": 1,
      "price": "2333000000000000000000"
    },
    {
      "x": 242,
      "y": 242,
      "size": 1,
      "price": "2333000000000000000000"
    },
    {
      "x": 242,
      "y": 243,
      "size": 1,
      "price": "2333000000000000000000"
    },
    {
      "x": 242,
      "y": 244,
      "size": 1,
      "price": "2333000000000000000000"
    },
    {
      "x": 242,
      "y": 245,
      "size": 1,
      "price": "2333000000000000000000"
    },
    {
      "x": 242,
      "y": 249,
      "size": 1,
      "price": "2333000000000000000000"
    },
    {
      "x": 242,
      "y": 250,
      "size": 1,
      "price": "2333000000000000000000"
    },
    {
      "x": 242,
      "y": 251,
      "size": 1,
      "price": "2333000000000000000000"
    },
    {
      "x": 242,
      "y": 252,
      "size": 1,
      "price": "2333000000000000000000"
    },
    {
      "x": 242,
      "y": 253,
      "size": 1,
      "price": "2333000000000000000000"
    },
    {
      "x": 242,
      "y": 254,
      "size": 1,
      "price": "2333000000000000000000"
    },
    {
      "x": 242,
      "y": 256,
      "size": 1,
      "price": "2333000000000000000000"
    },
    {
      "x": 242,
      "y": 257,
      "size": 1,
      "price": "2333000000000000000000"
    },
    {
      "x": 242,
      "y": 270,
      "size": 1,
      "price": "2333000000000000000000"
    },
    {
      "x": 242,
      "y": 271,
      "size": 1,
      "price": "2333000000000000000000"
    },
    {
      "x": 242,
      "y": 272,
      "size": 1,
      "price": "2333000000000000000000"
    },
    {
      "x": 242,
      "y": 276,
      "size": 1,
      "price": "2333000000000000000000"
    },
    {
      "x": 242,
      "y": 277,
      "size": 1,
      "price": "2333000000000000000000"
    },
    {
      "x": 242,
      "y": 278,
      "size": 1,
      "price": "2333000000000000000000"
    },
    {
      "x": 242,
      "y": 280,
      "size": 1,
      "price": "2333000000000000000000"
    },
    {
      "x": 242,
      "y": 281,
      "size": 1,
      "price": "2333000000000000000000"
    },
    {
      "x": 242,
      "y": 282,
      "size": 1,
      "price": "2333000000000000000000"
    },
    {
      "x": 242,
      "y": 283,
      "size": 1,
      "price": "2333000000000000000000"
    },
    {
      "x": 243,
      "y": 287,
      "size": 1,
      "price": "2333000000000000000000"
    },
    {
      "x": 243,
      "y": 286,
      "size": 1,
      "price": "2333000000000000000000"
    },
    {
      "x": 243,
      "y": 285,
      "size": 1,
      "price": "2333000000000000000000"
    },
    {
      "x": 243,
      "y": 278,
      "size": 1,
      "price": "2333000000000000000000"
    },
    {
      "x": 243,
      "y": 277,
      "size": 1,
      "price": "2333000000000000000000"
    },
    {
      "x": 243,
      "y": 276,
      "size": 1,
      "price": "2333000000000000000000"
    },
    {
      "x": 243,
      "y": 275,
      "size": 1,
      "price": "2333000000000000000000"
    },
    {
      "x": 243,
      "y": 274,
      "size": 1,
      "price": "2333000000000000000000"
    },
    {
      "x": 243,
      "y": 272,
      "size": 1,
      "price": "2333000000000000000000"
    },
    {
      "x": 243,
      "y": 271,
      "size": 1,
      "price": "2333000000000000000000"
    },
    {
      "x": 243,
      "y": 270,
      "size": 1,
      "price": "2333000000000000000000"
    },
    {
      "x": 243,
      "y": 264,
      "size": 1,
      "price": "2333000000000000000000"
    },
    {
      "x": 243,
      "y": 257,
      "size": 1,
      "price": "2333000000000000000000"
    },
    {
      "x": 243,
      "y": 256,
      "size": 1,
      "price": "2333000000000000000000"
    },
    {
      "x": 243,
      "y": 251,
      "size": 1,
      "price": "2333000000000000000000"
    },
    {
      "x": 243,
      "y": 250,
      "size": 1,
      "price": "2333000000000000000000"
    },
    {
      "x": 243,
      "y": 249,
      "size": 1,
      "price": "2333000000000000000000"
    },
    {
      "x": 243,
      "y": 248,
      "size": 1,
      "price": "2333000000000000000000"
    },
    {
      "x": 243,
      "y": 247,
      "size": 1,
      "price": "2333000000000000000000"
    },
    {
      "x": 243,
      "y": 246,
      "size": 1,
      "price": "2333000000000000000000"
    },
    {
      "x": 243,
      "y": 242,
      "size": 1,
      "price": "2333000000000000000000"
    },
    {
      "x": 243,
      "y": 241,
      "size": 1,
      "price": "2333000000000000000000"
    },
    {
      "x": 243,
      "y": 240,
      "size": 1,
      "price": "2333000000000000000000"
    },
    {
      "x": 243,
      "y": 221,
      "size": 1,
      "price": "2333000000000000000000"
    },
    {
      "x": 243,
      "y": 220,
      "size": 1,
      "price": "2333000000000000000000"
    },
    {
      "x": 243,
      "y": 219,
      "size": 1,
      "price": "2333000000000000000000"
    },
    {
      "x": 243,
      "y": 212,
      "size": 1,
      "price": "2333000000000000000000"
    },
    {
      "x": 243,
      "y": 211,
      "size": 1,
      "price": "2333000000000000000000"
    },
    {
      "x": 243,
      "y": 210,
      "size": 1,
      "price": "2333000000000000000000"
    },
    {
      "x": 243,
      "y": 203,
      "size": 1,
      "price": "2333000000000000000000"
    },
    {
      "x": 243,
      "y": 202,
      "size": 1,
      "price": "2333000000000000000000"
    },
    {
      "x": 243,
      "y": 201,
      "size": 1,
      "price": "2333000000000000000000"
    },
    {
      "x": 244,
      "y": 201,
      "size": 1,
      "price": "2333000000000000000000"
    },
    {
      "x": 244,
      "y": 202,
      "size": 1,
      "price": "2333000000000000000000"
    },
    {
      "x": 244,
      "y": 203,
      "size": 1,
      "price": "2333000000000000000000"
    },
    {
      "x": 244,
      "y": 210,
      "size": 1,
      "price": "2333000000000000000000"
    },
    {
      "x": 244,
      "y": 211,
      "size": 1,
      "price": "2333000000000000000000"
    },
    {
      "x": 244,
      "y": 212,
      "size": 1,
      "price": "2333000000000000000000"
    },
    {
      "x": 244,
      "y": 219,
      "size": 1,
      "price": "2333000000000000000000"
    },
    {
      "x": 244,
      "y": 220,
      "size": 1,
      "price": "2333000000000000000000"
    },
    {
      "x": 244,
      "y": 221,
      "size": 1,
      "price": "2333000000000000000000"
    },
    {
      "x": 244,
      "y": 240,
      "size": 1,
      "price": "2333000000000000000000"
    },
    {
      "x": 244,
      "y": 241,
      "size": 1,
      "price": "2333000000000000000000"
    },
    {
      "x": 244,
      "y": 242,
      "size": 1,
      "price": "2333000000000000000000"
    },
    {
      "x": 244,
      "y": 246,
      "size": 1,
      "price": "2333000000000000000000"
    },
    {
      "x": 244,
      "y": 247,
      "size": 1,
      "price": "2333000000000000000000"
    },
    {
      "x": 244,
      "y": 248,
      "size": 1,
      "price": "2333000000000000000000"
    },
    {
      "x": 244,
      "y": 249,
      "size": 1,
      "price": "2333000000000000000000"
    },
    {
      "x": 244,
      "y": 250,
      "size": 1,
      "price": "2333000000000000000000"
    },
    {
      "x": 244,
      "y": 251,
      "size": 1,
      "price": "2333000000000000000000"
    },
    {
      "x": 244,
      "y": 256,
      "size": 1,
      "price": "2333000000000000000000"
    },
    {
      "x": 244,
      "y": 257,
      "size": 1,
      "price": "2333000000000000000000"
    },
    {
      "x": 244,
      "y": 264,
      "size": 1,
      "price": "2333000000000000000000"
    },
    {
      "x": 244,
      "y": 270,
      "size": 1,
      "price": "2333000000000000000000"
    },
    {
      "x": 244,
      "y": 271,
      "size": 1,
      "price": "2333000000000000000000"
    },
    {
      "x": 244,
      "y": 272,
      "size": 1,
      "price": "2333000000000000000000"
    },
    {
      "x": 244,
      "y": 274,
      "size": 1,
      "price": "2333000000000000000000"
    },
    {
      "x": 244,
      "y": 275,
      "size": 1,
      "price": "2333000000000000000000"
    },
    {
      "x": 244,
      "y": 276,
      "size": 1,
      "price": "2333000000000000000000"
    },
    {
      "x": 244,
      "y": 277,
      "size": 1,
      "price": "2333000000000000000000"
    },
    {
      "x": 244,
      "y": 278,
      "size": 1,
      "price": "2333000000000000000000"
    },
    {
      "x": 244,
      "y": 285,
      "size": 1,
      "price": "2333000000000000000000"
    },
    {
      "x": 244,
      "y": 286,
      "size": 1,
      "price": "2333000000000000000000"
    },
    {
      "x": 244,
      "y": 287,
      "size": 1,
      "price": "2333000000000000000000"
    },
    {
      "x": 245,
      "y": 287,
      "size": 1,
      "price": "2333000000000000000000"
    },
    {
      "x": 245,
      "y": 286,
      "size": 1,
      "price": "2333000000000000000000"
    },
    {
      "x": 245,
      "y": 285,
      "size": 1,
      "price": "2333000000000000000000"
    },
    {
      "x": 245,
      "y": 278,
      "size": 1,
      "price": "2333000000000000000000"
    },
    {
      "x": 245,
      "y": 277,
      "size": 1,
      "price": "2333000000000000000000"
    },
    {
      "x": 245,
      "y": 276,
      "size": 1,
      "price": "2333000000000000000000"
    },
    {
      "x": 245,
      "y": 275,
      "size": 1,
      "price": "2333000000000000000000",
      "reserved": "0x7a9fe22691c811ea339d9b73150e6911a5343dca"
    },
    {
      "x": 245,
      "y": 274,
      "size": 1,
      "price": "2333000000000000000000"
    },
    {
      "x": 245,
      "y": 272,
      "size": 1,
      "price": "2333000000000000000000"
    },
    {
      "x": 245,
      "y": 271,
      "size": 1,
      "price": "2333000000000000000000"
    },
    {
      "x": 245,
      "y": 270,
      "size": 1,
      "price": "2333000000000000000000"
    },
    {
      "x": 245,
      "y": 264,
      "size": 1,
      "price": "2333000000000000000000"
    },
    {
      "x": 245,
      "y": 257,
      "size": 1,
      "price": "2333000000000000000000"
    },
    {
      "x": 245,
      "y": 256,
      "size": 1,
      "price": "2333000000000000000000"
    },
    {
      "x": 245,
      "y": 251,
      "size": 1,
      "price": "2333000000000000000000"
    },
    {
      "x": 245,
      "y": 250,
      "size": 1,
      "price": "2333000000000000000000"
    },
    {
      "x": 245,
      "y": 249,
      "size": 1,
      "price": "2333000000000000000000"
    },
    {
      "x": 245,
      "y": 248,
      "size": 1,
      "price": "2333000000000000000000"
    },
    {
      "x": 245,
      "y": 247,
      "size": 1,
      "price": "2333000000000000000000"
    },
    {
      "x": 245,
      "y": 246,
      "size": 1,
      "price": "2333000000000000000000"
    },
    {
      "x": 245,
      "y": 242,
      "size": 1,
      "price": "2333000000000000000000"
    },
    {
      "x": 245,
      "y": 241,
      "size": 1,
      "price": "2333000000000000000000"
    },
    {
      "x": 245,
      "y": 240,
      "size": 1,
      "price": "2333000000000000000000"
    },
    {
      "x": 245,
      "y": 221,
      "size": 1,
      "price": "2333000000000000000000"
    },
    {
      "x": 245,
      "y": 220,
      "size": 1,
      "price": "2333000000000000000000"
    },
    {
      "x": 245,
      "y": 219,
      "size": 1,
      "price": "2333000000000000000000"
    },
    {
      "x": 245,
      "y": 212,
      "size": 1,
      "price": "2333000000000000000000"
    },
    {
      "x": 245,
      "y": 211,
      "size": 1,
      "price": "2333000000000000000000"
    },
    {
      "x": 245,
      "y": 210,
      "size": 1,
      "price": "2333000000000000000000"
    },
    {
      "x": 245,
      "y": 203,
      "size": 1,
      "price": "2333000000000000000000"
    },
    {
      "x": 245,
      "y": 202,
      "size": 1,
      "price": "2333000000000000000000"
    },
    {
      "x": 245,
      "y": 201,
      "size": 1,
      "price": "2333000000000000000000"
    },
    {
      "x": 246,
      "y": 204,
      "size": 1,
      "price": "2333000000000000000000"
    },
    {
      "x": 246,
      "y": 205,
      "size": 1,
      "price": "2333000000000000000000"
    },
    {
      "x": 246,
      "y": 206,
      "size": 1,
      "price": "2333000000000000000000"
    },
    {
      "x": 246,
      "y": 207,
      "size": 1,
      "price": "2333000000000000000000"
    },
    {
      "x": 246,
      "y": 208,
      "size": 1,
      "price": "2333000000000000000000"
    },
    {
      "x": 246,
      "y": 209,
      "size": 1,
      "price": "2333000000000000000000"
    },
    {
      "x": 246,
      "y": 213,
      "size": 1,
      "price": "2333000000000000000000"
    },
    {
      "x": 246,
      "y": 214,
      "size": 1,
      "price": "2333000000000000000000"
    },
    {
      "x": 246,
      "y": 215,
      "size": 1,
      "price": "2333000000000000000000"
    },
    {
      "x": 246,
      "y": 216,
      "size": 1,
      "price": "2333000000000000000000"
    },
    {
      "x": 246,
      "y": 217,
      "size": 1,
      "price": "2333000000000000000000"
    },
    {
      "x": 246,
      "y": 218,
      "size": 1,
      "price": "2333000000000000000000"
    },
    {
      "x": 246,
      "y": 222,
      "size": 1,
      "price": "2333000000000000000000"
    },
    {
      "x": 246,
      "y": 223,
      "size": 1,
      "price": "2333000000000000000000"
    },
    {
      "x": 246,
      "y": 224,
      "size": 1,
      "price": "2333000000000000000000"
    },
    {
      "x": 246,
      "y": 226,
      "size": 1,
      "price": "2333000000000000000000"
    },
    {
      "x": 246,
      "y": 227,
      "size": 1,
      "price": "2333000000000000000000"
    },
    {
      "x": 246,
      "y": 243,
      "size": 1,
      "price": "2333000000000000000000"
    },
    {
      "x": 246,
      "y": 244,
      "size": 1,
      "price": "2333000000000000000000"
    },
    {
      "x": 246,
      "y": 245,
      "size": 1,
      "price": "2333000000000000000000"
    },
    {
      "x": 246,
      "y": 252,
      "size": 1,
      "price": "2333000000000000000000"
    },
    {
      "x": 246,
      "y": 253,
      "size": 1,
      "price": "2333000000000000000000"
    },
    {
      "x": 246,
      "y": 254,
      "size": 1,
      "price": "2333000000000000000000"
    },
    {
      "x": 246,
      "y": 258,
      "size": 1,
      "price": "2333000000000000000000"
    },
    {
      "x": 246,
      "y": 259,
      "size": 1,
      "price": "2333000000000000000000"
    },
    {
      "x": 246,
      "y": 260,
      "size": 1,
      "price": "2333000000000000000000"
    },
    {
      "x": 246,
      "y": 263,
      "size": 1,
      "price": "2333000000000000000000"
    },
    {
      "x": 246,
      "y": 264,
      "size": 1,
      "price": "2333000000000000000000"
    },
    {
      "x": 246,
      "y": 276,
      "size": 1,
      "price": "2333000000000000000000"
    },
    {
      "x": 246,
      "y": 277,
      "size": 1,
      "price": "2333000000000000000000"
    },
    {
      "x": 246,
      "y": 278,
      "size": 1,
      "price": "2333000000000000000000"
    },
    {
      "x": 246,
      "y": 280,
      "size": 1,
      "price": "2333000000000000000000"
    },
    {
      "x": 246,
      "y": 281,
      "size": 1,
      "price": "2333000000000000000000"
    },
    {
      "x": 247,
      "y": 281,
      "size": 1,
      "price": "2333000000000000000000"
    },
    {
      "x": 247,
      "y": 280,
      "size": 1,
      "price": "2333000000000000000000"
    },
    {
      "x": 247,
      "y": 278,
      "size": 1,
      "price": "2333000000000000000000"
    },
    {
      "x": 247,
      "y": 277,
      "size": 1,
      "price": "2333000000000000000000"
    },
    {
      "x": 247,
      "y": 276,
      "size": 1,
      "price": "2333000000000000000000"
    },
    {
      "x": 247,
      "y": 264,
      "size": 1,
      "price": "2333000000000000000000"
    },
    {
      "x": 247,
      "y": 263,
      "size": 1,
      "price": "2333000000000000000000"
    },
    {
      "x": 247,
      "y": 260,
      "size": 1,
      "price": "2333000000000000000000"
    },
    {
      "x": 247,
      "y": 259,
      "size": 1,
      "price": "2333000000000000000000"
    },
    {
      "x": 247,
      "y": 258,
      "size": 1,
      "price": "2333000000000000000000"
    },
    {
      "x": 247,
      "y": 254,
      "size": 1,
      "price": "2333000000000000000000"
    },
    {
      "x": 247,
      "y": 253,
      "size": 1,
      "price": "2333000000000000000000"
    },
    {
      "x": 247,
      "y": 252,
      "size": 1,
      "price": "2333000000000000000000"
    },
    {
      "x": 247,
      "y": 245,
      "size": 1,
      "price": "2333000000000000000000"
    },
    {
      "x": 247,
      "y": 244,
      "size": 1,
      "price": "2333000000000000000000"
    },
    {
      "x": 247,
      "y": 243,
      "size": 1,
      "price": "2333000000000000000000"
    },
    {
      "x": 247,
      "y": 227,
      "size": 1,
      "price": "2333000000000000000000"
    },
    {
      "x": 247,
      "y": 226,
      "size": 1,
      "price": "2333000000000000000000"
    },
    {
      "x": 247,
      "y": 224,
      "size": 1,
      "price": "2333000000000000000000"
    },
    {
      "x": 247,
      "y": 223,
      "size": 1,
      "price": "2333000000000000000000"
    },
    {
      "x": 247,
      "y": 222,
      "size": 1,
      "price": "2333000000000000000000"
    },
    {
      "x": 247,
      "y": 218,
      "size": 1,
      "price": "2333000000000000000000"
    },
    {
      "x": 247,
      "y": 217,
      "size": 1,
      "price": "2333000000000000000000"
    },
    {
      "x": 247,
      "y": 216,
      "size": 1,
      "price": "2333000000000000000000"
    },
    {
      "x": 247,
      "y": 215,
      "size": 1,
      "price": "2333000000000000000000"
    },
    {
      "x": 247,
      "y": 214,
      "size": 1,
      "price": "2333000000000000000000"
    },
    {
      "x": 247,
      "y": 213,
      "size": 1,
      "price": "2333000000000000000000"
    },
    {
      "x": 247,
      "y": 209,
      "size": 1,
      "price": "2333000000000000000000"
    },
    {
      "x": 247,
      "y": 208,
      "size": 1,
      "price": "2333000000000000000000"
    },
    {
      "x": 247,
      "y": 207,
      "size": 1,
      "price": "2333000000000000000000"
    },
    {
      "x": 247,
      "y": 206,
      "size": 1,
      "price": "2333000000000000000000"
    },
    {
      "x": 248,
      "y": 206,
      "size": 1,
      "price": "2333000000000000000000",
      "reserved": "0x7a9fe22691c811ea339d9b73150e6911a5343dca"
    },
    {
      "x": 249,
      "y": 206,
      "size": 1,
      "price": "2333000000000000000000"
    },
    {
      "x": 249,
      "y": 205,
      "size": 1,
      "price": "2333000000000000000000"
    },
    {
      "x": 250,
      "y": 205,
      "size": 1,
      "price": "2333000000000000000000"
    },
    {
      "x": 251,
      "y": 205,
      "size": 1,
      "price": "2333000000000000000000"
    },
    {
      "x": 250,
      "y": 206,
      "size": 1,
      "price": "2333000000000000000000"
    },
    {
      "x": 247,
      "y": 205,
      "size": 1,
      "price": "2333000000000000000000"
    },
    {
      "x": 248,
      "y": 205,
      "size": 1,
      "price": "2333000000000000000000"
    },
    {
      "x": 248,
      "y": 204,
      "size": 1,
      "price": "2333000000000000000000"
    },
    {
      "x": 249,
      "y": 204,
      "size": 1,
      "price": "2333000000000000000000"
    },
    {
      "x": 250,
      "y": 204,
      "size": 1,
      "price": "2333000000000000000000"
    },
    {
      "x": 251,
      "y": 206,
      "size": 1,
      "price": "2333000000000000000000"
    },
    {
      "x": 251,
      "y": 204,
      "size": 1,
      "price": "2333000000000000000000"
    },
    {
      "x": 247,
      "y": 204,
      "size": 1,
      "price": "2333000000000000000000"
    },
    {
      "x": 248,
      "y": 207,
      "size": 1,
      "price": "2333000000000000000000"
    },
    {
      "x": 248,
      "y": 208,
      "size": 1,
      "price": "2333000000000000000000"
    },
    {
      "x": 248,
      "y": 209,
      "size": 1,
      "price": "2333000000000000000000"
    },
    {
      "x": 248,
      "y": 213,
      "size": 1,
      "price": "2333000000000000000000"
    },
    {
      "x": 248,
      "y": 214,
      "size": 1,
      "price": "2333000000000000000000"
    },
    {
      "x": 248,
      "y": 215,
      "size": 1,
      "price": "2333000000000000000000"
    },
    {
      "x": 248,
      "y": 216,
      "size": 1,
      "price": "2333000000000000000000"
    },
    {
      "x": 248,
      "y": 217,
      "size": 1,
      "price": "2333000000000000000000"
    },
    {
      "x": 248,
      "y": 218,
      "size": 1,
      "price": "2333000000000000000000"
    },
    {
      "x": 248,
      "y": 222,
      "size": 1,
      "price": "2333000000000000000000"
    },
    {
      "x": 248,
      "y": 223,
      "size": 1,
      "price": "2333000000000000000000"
    },
    {
      "x": 248,
      "y": 224,
      "size": 1,
      "price": "2333000000000000000000"
    },
    {
      "x": 248,
      "y": 226,
      "size": 1,
      "price": "2333000000000000000000"
    },
    {
      "x": 248,
      "y": 227,
      "size": 1,
      "price": "2333000000000000000000"
    },
    {
      "x": 248,
      "y": 243,
      "size": 1,
      "price": "2333000000000000000000"
    },
    {
      "x": 248,
      "y": 244,
      "size": 1,
      "price": "2333000000000000000000"
    },
    {
      "x": 248,
      "y": 245,
      "size": 1,
      "price": "2333000000000000000000"
    },
    {
      "x": 248,
      "y": 252,
      "size": 1,
      "price": "2333000000000000000000"
    },
    {
      "x": 248,
      "y": 253,
      "size": 1,
      "price": "2333000000000000000000"
    },
    {
      "x": 248,
      "y": 254,
      "size": 1,
      "price": "2333000000000000000000"
    },
    {
      "x": 248,
      "y": 258,
      "size": 1,
      "price": "2333000000000000000000"
    },
    {
      "x": 248,
      "y": 259,
      "size": 1,
      "price": "2333000000000000000000"
    },
    {
      "x": 248,
      "y": 260,
      "size": 1,
      "price": "2333000000000000000000"
    },
    {
      "x": 248,
      "y": 263,
      "size": 1,
      "price": "2333000000000000000000"
    },
    {
      "x": 248,
      "y": 264,
      "size": 1,
      "price": "2333000000000000000000"
    },
    {
      "x": 248,
      "y": 276,
      "size": 1,
      "price": "2333000000000000000000"
    },
    {
      "x": 248,
      "y": 277,
      "size": 1,
      "price": "2333000000000000000000"
    },
    {
      "x": 248,
      "y": 278,
      "size": 1,
      "price": "2333000000000000000000"
    },
    {
      "x": 248,
      "y": 280,
      "size": 1,
      "price": "2333000000000000000000"
    },
    {
      "x": 248,
      "y": 281,
      "size": 1,
      "price": "2333000000000000000000"
    },
    {
      "x": 249,
      "y": 263,
      "size": 1,
      "price": "2333000000000000000000"
    },
    {
      "x": 249,
      "y": 257,
      "size": 1,
      "price": "2333000000000000000000"
    },
    {
      "x": 249,
      "y": 256,
      "size": 1,
      "price": "2333000000000000000000"
    },
    {
      "x": 249,
      "y": 254,
      "size": 1,
      "price": "2333000000000000000000"
    },
    {
      "x": 249,
      "y": 253,
      "size": 1,
      "price": "2333000000000000000000"
    },
    {
      "x": 249,
      "y": 252,
      "size": 1,
      "price": "2333000000000000000000"
    },
    {
      "x": 249,
      "y": 245,
      "size": 1,
      "price": "2333000000000000000000"
    },
    {
      "x": 249,
      "y": 244,
      "size": 1,
      "price": "2333000000000000000000"
    },
    {
      "x": 249,
      "y": 243,
      "size": 1,
      "price": "2333000000000000000000"
    },
    {
      "x": 249,
      "y": 242,
      "size": 1,
      "price": "2333000000000000000000"
    },
    {
      "x": 249,
      "y": 241,
      "size": 1,
      "price": "2333000000000000000000"
    },
    {
      "x": 249,
      "y": 240,
      "size": 1,
      "price": "2333000000000000000000"
    },
    {
      "x": 249,
      "y": 224,
      "size": 1,
      "price": "2333000000000000000000"
    },
    {
      "x": 249,
      "y": 223,
      "size": 1,
      "price": "2333000000000000000000"
    },
    {
      "x": 249,
      "y": 222,
      "size": 1,
      "price": "2333000000000000000000"
    },
    {
      "x": 249,
      "y": 221,
      "size": 1,
      "price": "2333000000000000000000"
    },
    {
      "x": 249,
      "y": 220,
      "size": 1,
      "price": "2333000000000000000000"
    },
    {
      "x": 249,
      "y": 219,
      "size": 1,
      "price": "2333000000000000000000"
    },
    {
      "x": 249,
      "y": 218,
      "size": 1,
      "price": "2333000000000000000000"
    },
    {
      "x": 249,
      "y": 217,
      "size": 1,
      "price": "2333000000000000000000"
    },
    {
      "x": 249,
      "y": 216,
      "size": 1,
      "price": "2333000000000000000000"
    },
    {
      "x": 249,
      "y": 215,
      "size": 1,
      "price": "2333000000000000000000"
    },
    {
      "x": 249,
      "y": 214,
      "size": 1,
      "price": "2333000000000000000000"
    },
    {
      "x": 249,
      "y": 213,
      "size": 1,
      "price": "2333000000000000000000"
    },
    {
      "x": 249,
      "y": 212,
      "size": 1,
      "price": "2333000000000000000000"
    },
    {
      "x": 249,
      "y": 211,
      "size": 1,
      "price": "2333000000000000000000"
    },
    {
      "x": 249,
      "y": 210,
      "size": 1,
      "price": "2333000000000000000000"
    },
    {
      "x": 250,
      "y": 211,
      "size": 1,
      "price": "2333000000000000000000"
    },
    {
      "x": 250,
      "y": 212,
      "size": 1,
      "price": "2333000000000000000000"
    },
    {
      "x": 250,
      "y": 213,
      "size": 1,
      "price": "2333000000000000000000"
    },
    {
      "x": 250,
      "y": 214,
      "size": 1,
      "price": "2333000000000000000000"
    },
    {
      "x": 250,
      "y": 215,
      "size": 1,
      "price": "2333000000000000000000"
    },
    {
      "x": 250,
      "y": 216,
      "size": 1,
      "price": "2333000000000000000000"
    },
    {
      "x": 250,
      "y": 217,
      "size": 1,
      "price": "2333000000000000000000"
    },
    {
      "x": 250,
      "y": 218,
      "size": 1,
      "price": "2333000000000000000000"
    },
    {
      "x": 250,
      "y": 219,
      "size": 1,
      "price": "2333000000000000000000"
    },
    {
      "x": 250,
      "y": 220,
      "size": 1,
      "price": "2333000000000000000000"
    },
    {
      "x": 250,
      "y": 221,
      "size": 1,
      "price": "2333000000000000000000"
    },
    {
      "x": 250,
      "y": 222,
      "size": 1,
      "price": "2333000000000000000000"
    },
    {
      "x": 250,
      "y": 223,
      "size": 1,
      "price": "2333000000000000000000"
    },
    {
      "x": 250,
      "y": 224,
      "size": 1,
      "price": "2333000000000000000000"
    },
    {
      "x": 250,
      "y": 241,
      "size": 1,
      "price": "2333000000000000000000"
    },
    {
      "x": 250,
      "y": 242,
      "size": 1,
      "price": "2333000000000000000000"
    },
    {
      "x": 250,
      "y": 243,
      "size": 1,
      "price": "2333000000000000000000"
    },
    {
      "x": 250,
      "y": 244,
      "size": 1,
      "price": "2333000000000000000000"
    },
    {
      "x": 250,
      "y": 245,
      "size": 1,
      "price": "2333000000000000000000"
    },
    {
      "x": 250,
      "y": 252,
      "size": 1,
      "price": "2333000000000000000000"
    },
    {
      "x": 250,
      "y": 253,
      "size": 1,
      "price": "2333000000000000000000",
      "reserved": "0x7a9fe22691c811ea339d9b73150e6911a5343dca"
    },
    {
      "x": 250,
      "y": 254,
      "size": 1,
      "price": "2333000000000000000000"
    },
    {
      "x": 250,
      "y": 256,
      "size": 1,
      "price": "2333000000000000000000"
    },
    {
      "x": 250,
      "y": 257,
      "size": 1,
      "price": "2333000000000000000000"
    },
    {
      "x": 250,
      "y": 263,
      "size": 1,
      "price": "2333000000000000000000"
    },
    {
      "x": 250,
      "y": 210,
      "size": 1,
      "price": "2333000000000000000000"
    },
    {
      "x": 251,
      "y": 224,
      "size": 1,
      "price": "2333000000000000000000"
    },
    {
      "x": 251,
      "y": 223,
      "size": 1,
      "price": "2333000000000000000000"
    },
    {
      "x": 251,
      "y": 222,
      "size": 1,
      "price": "2333000000000000000000"
    },
    {
      "x": 251,
      "y": 221,
      "size": 1,
      "price": "2333000000000000000000"
    },
    {
      "x": 251,
      "y": 220,
      "size": 1,
      "price": "2333000000000000000000"
    },
    {
      "x": 251,
      "y": 219,
      "size": 1,
      "price": "2333000000000000000000"
    },
    {
      "x": 251,
      "y": 218,
      "size": 1,
      "price": "2333000000000000000000"
    },
    {
      "x": 251,
      "y": 217,
      "size": 1,
      "price": "2333000000000000000000"
    },
    {
      "x": 251,
      "y": 216,
      "size": 1,
      "price": "2333000000000000000000"
    },
    {
      "x": 251,
      "y": 215,
      "size": 1,
      "price": "2333000000000000000000"
    },
    {
      "x": 251,
      "y": 214,
      "size": 1,
      "price": "2333000000000000000000"
    },
    {
      "x": 251,
      "y": 213,
      "size": 1,
      "price": "2333000000000000000000"
    },
    {
      "x": 251,
      "y": 212,
      "size": 1,
      "price": "2333000000000000000000"
    },
    {
      "x": 251,
      "y": 211,
      "size": 1,
      "price": "2333000000000000000000"
    },
    {
      "x": 251,
      "y": 210,
      "size": 1,
      "price": "2333000000000000000000"
    },
    {
      "x": 251,
      "y": 240,
      "size": 1,
      "price": "2333000000000000000000"
    },
    {
      "x": 251,
      "y": 242,
      "size": 1,
      "price": "2333000000000000000000"
    },
    {
      "x": 251,
      "y": 243,
      "size": 1,
      "price": "2333000000000000000000"
    },
    {
      "x": 251,
      "y": 244,
      "size": 1,
      "price": "2333000000000000000000"
    },
    {
      "x": 251,
      "y": 245,
      "size": 1,
      "price": "2333000000000000000000"
    },
    {
      "x": 251,
      "y": 252,
      "size": 1,
      "price": "2333000000000000000000"
    },
    {
      "x": 251,
      "y": 253,
      "size": 1,
      "price": "2333000000000000000000"
    },
    {
      "x": 251,
      "y": 254,
      "size": 1,
      "price": "2333000000000000000000"
    },
    {
      "x": 251,
      "y": 256,
      "size": 1,
      "price": "2333000000000000000000"
    },
    {
      "x": 251,
      "y": 257,
      "size": 1,
      "price": "2333000000000000000000"
    },
    {
      "x": 251,
      "y": 263,
      "size": 1,
      "price": "2333000000000000000000"
    },
    {
      "x": 252,
      "y": 286,
      "size": 1,
      "price": "2333000000000000000000"
    },
    {
      "x": 253,
      "y": 286,
      "size": 1,
      "price": "2333000000000000000000"
    },
    {
      "x": 253,
      "y": 285,
      "size": 1,
      "price": "2333000000000000000000"
    },
    {
      "x": 253,
      "y": 283,
      "size": 1,
      "price": "2333000000000000000000"
    },
    {
      "x": 253,
      "y": 282,
      "size": 1,
      "price": "2333000000000000000000"
    },
    {
      "x": 253,
      "y": 275,
      "size": 1,
      "price": "2333000000000000000000"
    },
    {
      "x": 253,
      "y": 274,
      "size": 1,
      "price": "2333000000000000000000"
    },
    {
      "x": 253,
      "y": 264,
      "size": 1,
      "price": "2333000000000000000000"
    },
    {
      "x": 253,
      "y": 251,
      "size": 1,
      "price": "2333000000000000000000"
    },
    {
      "x": 253,
      "y": 250,
      "size": 1,
      "price": "2333000000000000000000"
    },
    {
      "x": 253,
      "y": 249,
      "size": 1,
      "price": "2333000000000000000000"
    },
    {
      "x": 253,
      "y": 248,
      "size": 1,
      "price": "2333000000000000000000"
    },
    {
      "x": 253,
      "y": 247,
      "size": 1,
      "price": "2333000000000000000000"
    },
    {
      "x": 253,
      "y": 246,
      "size": 1,
      "price": "2333000000000000000000"
    },
    {
      "x": 253,
      "y": 242,
      "size": 1,
      "price": "2333000000000000000000"
    },
    {
      "x": 253,
      "y": 241,
      "size": 1,
      "price": "2333000000000000000000"
    },
    {
      "x": 253,
      "y": 240,
      "size": 1,
      "price": "2333000000000000000000"
    },
    {
      "x": 253,
      "y": 230,
      "size": 1,
      "price": "2333000000000000000000"
    },
    {
      "x": 253,
      "y": 229,
      "size": 1,
      "price": "2333000000000000000000"
    },
    {
      "x": 253,
      "y": 228,
      "size": 1,
      "price": "2333000000000000000000"
    },
    {
      "x": 253,
      "y": 227,
      "size": 1,
      "price": "2333000000000000000000"
    },
    {
      "x": 253,
      "y": 226,
      "size": 1,
      "price": "2333000000000000000000"
    },
    {
      "x": 254,
      "y": 228,
      "size": 1,
      "price": "2333000000000000000000"
    },
    {
      "x": 254,
      "y": 229,
      "size": 1,
      "price": "2333000000000000000000"
    },
    {
      "x": 254,
      "y": 230,
      "size": 1,
      "price": "2333000000000000000000"
    },
    {
      "x": 254,
      "y": 240,
      "size": 1,
      "price": "2333000000000000000000"
    },
    {
      "x": 254,
      "y": 241,
      "size": 1,
      "price": "2333000000000000000000"
    },
    {
      "x": 254,
      "y": 242,
      "size": 1,
      "price": "2333000000000000000000"
    },
    {
      "x": 254,
      "y": 246,
      "size": 1,
      "price": "2333000000000000000000"
    },
    {
      "x": 254,
      "y": 247,
      "size": 1,
      "price": "2333000000000000000000"
    },
    {
      "x": 254,
      "y": 248,
      "size": 1,
      "price": "2333000000000000000000"
    },
    {
      "x": 254,
      "y": 249,
      "size": 1,
      "price": "2333000000000000000000"
    },
    {
      "x": 254,
      "y": 250,
      "size": 1,
      "price": "2333000000000000000000"
    },
    {
      "x": 254,
      "y": 251,
      "size": 1,
      "price": "2333000000000000000000"
    },
    {
      "x": 254,
      "y": 264,
      "size": 1,
      "price": "2333000000000000000000"
    },
    {
      "x": 254,
      "y": 274,
      "size": 1,
      "price": "2333000000000000000000"
    },
    {
      "x": 254,
      "y": 275,
      "size": 1,
      "price": "2333000000000000000000"
    },
    {
      "x": 254,
      "y": 282,
      "size": 1,
      "price": "2333000000000000000000"
    },
    {
      "x": 254,
      "y": 283,
      "size": 1,
      "price": "2333000000000000000000"
    },
    {
      "x": 254,
      "y": 285,
      "size": 1,
      "price": "2333000000000000000000"
    },
    {
      "x": 254,
      "y": 286,
      "size": 1,
      "price": "2333000000000000000000"
    },
    {
      "x": 254,
      "y": 287,
      "size": 1,
      "price": "2333000000000000000000"
    },
    {
      "x": 254,
      "y": 289,
      "size": 1,
      "price": "2333000000000000000000"
    },
    {
      "x": 253,
      "y": 289,
      "size": 1,
      "price": "2333000000000000000000"
    },
    {
      "x": 252,
      "y": 227,
      "size": 1,
      "price": "2333000000000000000000"
    },
    {
      "x": 252,
      "y": 226,
      "size": 1,
      "price": "2333000000000000000000"
    },
    {
      "x": 252,
      "y": 228,
      "size": 1,
      "price": "2333000000000000000000"
    },
    {
      "x": 252,
      "y": 229,
      "size": 1,
      "price": "2333000000000000000000"
    },
    {
      "x": 252,
      "y": 230,
      "size": 1,
      "price": "2333000000000000000000"
    },
    {
      "x": 252,
      "y": 240,
      "size": 1,
      "price": "2333000000000000000000"
    },
    {
      "x": 252,
      "y": 241,
      "size": 1,
      "price": "2333000000000000000000"
    },
    {
      "x": 252,
      "y": 246,
      "size": 1,
      "price": "2333000000000000000000"
    },
    {
      "x": 252,
      "y": 247,
      "size": 1,
      "price": "2333000000000000000000"
    },
    {
      "x": 252,
      "y": 248,
      "size": 1,
      "price": "2333000000000000000000"
    },
    {
      "x": 252,
      "y": 249,
      "size": 1,
      "price": "2333000000000000000000"
    },
    {
      "x": 252,
      "y": 250,
      "size": 1,
      "price": "2333000000000000000000"
    },
    {
      "x": 252,
      "y": 251,
      "size": 1,
      "price": "2333000000000000000000"
    },
    {
      "x": 252,
      "y": 264,
      "size": 1,
      "price": "2333000000000000000000"
    },
    {
      "x": 252,
      "y": 274,
      "size": 1,
      "price": "2333000000000000000000"
    },
    {
      "x": 252,
      "y": 275,
      "size": 1,
      "price": "2333000000000000000000"
    },
    {
      "x": 252,
      "y": 282,
      "size": 1,
      "price": "2333000000000000000000"
    },
    {
      "x": 252,
      "y": 283,
      "size": 1,
      "price": "2333000000000000000000"
    },
    {
      "x": 252,
      "y": 285,
      "size": 1,
      "price": "2333000000000000000000"
    },
    {
      "x": 252,
      "y": 287,
      "size": 1,
      "price": "2333000000000000000000"
    },
    {
      "x": 252,
      "y": 289,
      "size": 1,
      "price": "2333000000000000000000"
    },
    {
      "x": 254,
      "y": 290,
      "size": 1,
      "price": "2333000000000000000000"
    },
    {
      "x": 253,
      "y": 290,
      "size": 1,
      "price": "2333000000000000000000"
    },
    {
      "x": 252,
      "y": 290,
      "size": 1,
      "price": "2333000000000000000000"
    },
    {
      "x": 258,
      "y": 289,
      "size": 1,
      "price": "2333000000000000000000"
    },
    {
      "x": 259,
      "y": 289,
      "size": 1,
      "price": "2333000000000000000000"
    },
    {
      "x": 260,
      "y": 289,
      "size": 1,
      "price": "2333000000000000000000"
    },
    {
      "x": 261,
      "y": 289,
      "size": 1,
      "price": "2333000000000000000000"
    },
    {
      "x": 262,
      "y": 289,
      "size": 1,
      "price": "2333000000000000000000"
    },
    {
      "x": 263,
      "y": 289,
      "size": 1,
      "price": "2333000000000000000000"
    },
    {
      "x": 258,
      "y": 290,
      "size": 1,
      "price": "2333000000000000000000"
    },
    {
      "x": 259,
      "y": 290,
      "size": 1,
      "price": "2333000000000000000000"
    },
    {
      "x": 260,
      "y": 290,
      "size": 1,
      "price": "2333000000000000000000"
    },
    {
      "x": 261,
      "y": 290,
      "size": 1,
      "price": "2333000000000000000000"
    },
    {
      "x": 262,
      "y": 290,
      "size": 1,
      "price": "2333000000000000000000"
    },
    {
      "x": 263,
      "y": 290,
      "size": 1,
      "price": "2333000000000000000000"
    },
    {
      "x": 253,
      "y": 287,
      "size": 1,
      "price": "2333000000000000000000"
    },
    {
      "x": 255,
      "y": 287,
      "size": 1,
      "price": "2333000000000000000000"
    },
    {
      "x": 256,
      "y": 287,
      "size": 1,
      "price": "2333000000000000000000"
    },
    {
      "x": 257,
      "y": 287,
      "size": 1,
      "price": "2333000000000000000000"
    },
    {
      "x": 255,
      "y": 286,
      "size": 1,
      "price": "2333000000000000000000"
    },
    {
      "x": 256,
      "y": 286,
      "size": 1,
      "price": "2333000000000000000000"
    },
    {
      "x": 257,
      "y": 286,
      "size": 1,
      "price": "2333000000000000000000"
    },
    {
      "x": 255,
      "y": 285,
      "size": 1,
      "price": "2333000000000000000000"
    },
    {
      "x": 256,
      "y": 285,
      "size": 1,
      "price": "2333000000000000000000"
    },
    {
      "x": 257,
      "y": 285,
      "size": 1,
      "price": "2333000000000000000000",
      "reserved": "0x7a9fe22691c811ea339d9b73150e6911a5343dca"
    },
    {
      "x": 255,
      "y": 283,
      "size": 1,
      "price": "2333000000000000000000"
    },
    {
      "x": 255,
      "y": 282,
      "size": 1,
      "price": "2333000000000000000000"
    },
    {
      "x": 255,
      "y": 281,
      "size": 1,
      "price": "2333000000000000000000"
    },
    {
      "x": 255,
      "y": 280,
      "size": 1,
      "price": "2333000000000000000000"
    },
    {
      "x": 255,
      "y": 278,
      "size": 1,
      "price": "2333000000000000000000"
    },
    {
      "x": 255,
      "y": 277,
      "size": 1,
      "price": "2333000000000000000000"
    },
    {
      "x": 255,
      "y": 276,
      "size": 1,
      "price": "2333000000000000000000"
    },
    {
      "x": 255,
      "y": 264,
      "size": 1,
      "price": "2333000000000000000000"
    },
    {
      "x": 255,
      "y": 248,
      "size": 1,
      "price": "2333000000000000000000"
    },
    {
      "x": 255,
      "y": 247,
      "size": 1,
      "price": "2333000000000000000000"
    },
    {
      "x": 255,
      "y": 246,
      "size": 1,
      "price": "2333000000000000000000"
    },
    {
      "x": 255,
      "y": 244,
      "size": 1,
      "price": "2333000000000000000000"
    },
    {
      "x": 255,
      "y": 243,
      "size": 1,
      "price": "2333000000000000000000"
    },
    {
      "x": 255,
      "y": 242,
      "size": 1,
      "price": "2333000000000000000000"
    },
    {
      "x": 255,
      "y": 241,
      "size": 1,
      "price": "2333000000000000000000"
    },
    {
      "x": 255,
      "y": 240,
      "size": 1,
      "price": "2333000000000000000000"
    },
    {
      "x": 255,
      "y": 233,
      "size": 1,
      "price": "2333000000000000000000"
    },
    {
      "x": 255,
      "y": 232,
      "size": 1,
      "price": "2333000000000000000000"
    },
    {
      "x": 255,
      "y": 231,
      "size": 1,
      "price": "2333000000000000000000"
    },
    {
      "x": 255,
      "y": 227,
      "size": 1,
      "price": "2333000000000000000000"
    },
    {
      "x": 255,
      "y": 226,
      "size": 1,
      "price": "2333000000000000000000"
    },
    {
      "x": 255,
      "y": 224,
      "size": 1,
      "price": "2333000000000000000000"
    },
    {
      "x": 239,
      "y": 216,
      "size": 1,
      "price": "2333000000000000000000"
    },
    {
      "x": 239,
      "y": 217,
      "size": 1,
      "price": "2333000000000000000000"
    },
    {
      "x": 239,
      "y": 218,
      "size": 1,
      "price": "2333000000000000000000"
    },
    {
      "x": 239,
      "y": 219,
      "size": 1,
      "price": "2333000000000000000000"
    },
    {
      "x": 239,
      "y": 220,
      "size": 1,
      "price": "2333000000000000000000"
    },
    {
      "x": 239,
      "y": 221,
      "size": 1,
      "price": "2333000000000000000000"
    },
    {
      "x": 239,
      "y": 222,
      "size": 1,
      "price": "2333000000000000000000"
    },
    {
      "x": 239,
      "y": 223,
      "size": 1,
      "price": "2333000000000000000000"
    },
    {
      "x": 239,
      "y": 224,
      "size": 1,
      "price": "2333000000000000000000"
    },
    {
      "x": 239,
      "y": 228,
      "size": 1,
      "price": "2333000000000000000000"
    },
    {
      "x": 239,
      "y": 229,
      "size": 1,
      "price": "2333000000000000000000"
    },
    {
      "x": 239,
      "y": 230,
      "size": 1,
      "price": "2333000000000000000000"
    },
    {
      "x": 239,
      "y": 234,
      "size": 1,
      "price": "2333000000000000000000"
    },
    {
      "x": 239,
      "y": 235,
      "size": 1,
      "price": "2333000000000000000000"
    },
    {
      "x": 239,
      "y": 236,
      "size": 1,
      "price": "2333000000000000000000"
    },
    {
      "x": 239,
      "y": 246,
      "size": 1,
      "price": "2333000000000000000000"
    },
    {
      "x": 239,
      "y": 247,
      "size": 1,
      "price": "2333000000000000000000"
    },
    {
      "x": 239,
      "y": 248,
      "size": 1,
      "price": "2333000000000000000000"
    },
    {
      "x": 239,
      "y": 249,
      "size": 1,
      "price": "2333000000000000000000"
    },
    {
      "x": 239,
      "y": 250,
      "size": 1,
      "price": "2333000000000000000000"
    },
    {
      "x": 239,
      "y": 251,
      "size": 1,
      "price": "2333000000000000000000"
    },
    {
      "x": 239,
      "y": 256,
      "size": 1,
      "price": "2333000000000000000000"
    },
    {
      "x": 239,
      "y": 257,
      "size": 1,
      "price": "2333000000000000000000"
    },
    {
      "x": 239,
      "y": 258,
      "size": 1,
      "price": "2333000000000000000000"
    },
    {
      "x": 239,
      "y": 259,
      "size": 1,
      "price": "2333000000000000000000"
    },
    {
      "x": 239,
      "y": 260,
      "size": 1,
      "price": "2333000000000000000000"
    },
    {
      "x": 239,
      "y": 263,
      "size": 1,
      "price": "2333000000000000000000"
    },
    {
      "x": 234,
      "y": 260,
      "size": 1,
      "price": "2333000000000000000000"
    },
    {
      "x": 234,
      "y": 259,
      "size": 1,
      "price": "2333000000000000000000"
    },
    {
      "x": 234,
      "y": 258,
      "size": 1,
      "price": "2333000000000000000000"
    },
    {
      "x": 234,
      "y": 257,
      "size": 1,
      "price": "2333000000000000000000"
    },
    {
      "x": 234,
      "y": 256,
      "size": 1,
      "price": "2333000000000000000000"
    },
    {
      "x": 234,
      "y": 254,
      "size": 1,
      "price": "2333000000000000000000"
    },
    {
      "x": 234,
      "y": 253,
      "size": 1,
      "price": "2333000000000000000000"
    },
    {
      "x": 234,
      "y": 252,
      "size": 1,
      "price": "2333000000000000000000"
    },
    {
      "x": 234,
      "y": 239,
      "size": 1,
      "price": "2333000000000000000000"
    },
    {
      "x": 234,
      "y": 233,
      "size": 1,
      "price": "2333000000000000000000"
    },
    {
      "x": 234,
      "y": 232,
      "size": 1,
      "price": "2333000000000000000000"
    },
    {
      "x": 234,
      "y": 231,
      "size": 1,
      "price": "2333000000000000000000"
    },
    {
      "x": 234,
      "y": 230,
      "size": 1,
      "price": "2333000000000000000000"
    },
    {
      "x": 234,
      "y": 229,
      "size": 1,
      "price": "2333000000000000000000"
    },
    {
      "x": 234,
      "y": 228,
      "size": 1,
      "price": "2333000000000000000000"
    },
    {
      "x": 234,
      "y": 227,
      "size": 1,
      "price": "2333000000000000000000"
    },
    {
      "x": 234,
      "y": 226,
      "size": 1,
      "price": "2333000000000000000000"
    },
    {
      "x": 234,
      "y": 224,
      "size": 1,
      "price": "2333000000000000000000"
    },
    {
      "x": 234,
      "y": 223,
      "size": 1,
      "price": "2333000000000000000000"
    },
    {
      "x": 234,
      "y": 222,
      "size": 1,
      "price": "2333000000000000000000"
    },
    {
      "x": 234,
      "y": 218,
      "size": 1,
      "price": "2333000000000000000000"
    },
    {
      "x": 234,
      "y": 217,
      "size": 1,
      "price": "2333000000000000000000"
    },
    {
      "x": 234,
      "y": 216,
      "size": 1,
      "price": "2333000000000000000000"
    },
    {
      "x": 235,
      "y": 216,
      "size": 1,
      "price": "2333000000000000000000"
    },
    {
      "x": 235,
      "y": 217,
      "size": 1,
      "price": "2333000000000000000000"
    },
    {
      "x": 235,
      "y": 218,
      "size": 1,
      "price": "2333000000000000000000"
    },
    {
      "x": 235,
      "y": 222,
      "size": 1,
      "price": "2333000000000000000000"
    },
    {
      "x": 235,
      "y": 223,
      "size": 1,
      "price": "2333000000000000000000"
    },
    {
      "x": 235,
      "y": 224,
      "size": 1,
      "price": "2333000000000000000000"
    },
    {
      "x": 235,
      "y": 226,
      "size": 1,
      "price": "2333000000000000000000"
    },
    {
      "x": 235,
      "y": 227,
      "size": 1,
      "price": "2333000000000000000000"
    },
    {
      "x": 235,
      "y": 228,
      "size": 1,
      "price": "2333000000000000000000"
    },
    {
      "x": 235,
      "y": 229,
      "size": 1,
      "price": "2333000000000000000000"
    },
    {
      "x": 235,
      "y": 230,
      "size": 1,
      "price": "2333000000000000000000"
    },
    {
      "x": 235,
      "y": 231,
      "size": 1,
      "price": "2333000000000000000000"
    },
    {
      "x": 235,
      "y": 232,
      "size": 1,
      "price": "2333000000000000000000"
    },
    {
      "x": 235,
      "y": 233,
      "size": 1,
      "price": "2333000000000000000000"
    },
    {
      "x": 235,
      "y": 239,
      "size": 1,
      "price": "2333000000000000000000"
    },
    {
      "x": 235,
      "y": 252,
      "size": 1,
      "price": "2333000000000000000000"
    },
    {
      "x": 235,
      "y": 253,
      "size": 1,
      "price": "2333000000000000000000"
    },
    {
      "x": 235,
      "y": 254,
      "size": 1,
      "price": "2333000000000000000000"
    },
    {
      "x": 235,
      "y": 256,
      "size": 1,
      "price": "2333000000000000000000"
    },
    {
      "x": 235,
      "y": 257,
      "size": 1,
      "price": "2333000000000000000000"
    },
    {
      "x": 235,
      "y": 258,
      "size": 1,
      "price": "2333000000000000000000"
    },
    {
      "x": 235,
      "y": 259,
      "size": 1,
      "price": "2333000000000000000000"
    },
    {
      "x": 235,
      "y": 260,
      "size": 1,
      "price": "2333000000000000000000"
    },
    {
      "x": 235,
      "y": 263,
      "size": 1,
      "price": "2333000000000000000000"
    },
    {
      "x": 237,
      "y": 263,
      "size": 1,
      "price": "2333000000000000000000"
    },
    {
      "x": 237,
      "y": 260,
      "size": 1,
      "price": "2333000000000000000000"
    },
    {
      "x": 237,
      "y": 259,
      "size": 1,
      "price": "2333000000000000000000"
    },
    {
      "x": 237,
      "y": 258,
      "size": 1,
      "price": "2333000000000000000000"
    },
    {
      "x": 237,
      "y": 257,
      "size": 1,
      "price": "2333000000000000000000"
    },
    {
      "x": 237,
      "y": 256,
      "size": 1,
      "price": "2333000000000000000000"
    },
    {
      "x": 237,
      "y": 251,
      "size": 1,
      "price": "2333000000000000000000"
    },
    {
      "x": 237,
      "y": 250,
      "size": 1,
      "price": "2333000000000000000000"
    },
    {
      "x": 237,
      "y": 249,
      "size": 1,
      "price": "2333000000000000000000"
    },
    {
      "x": 237,
      "y": 248,
      "size": 1,
      "price": "2333000000000000000000"
    },
    {
      "x": 237,
      "y": 247,
      "size": 1,
      "price": "2333000000000000000000"
    },
    {
      "x": 237,
      "y": 246,
      "size": 1,
      "price": "2333000000000000000000"
    },
    {
      "x": 237,
      "y": 236,
      "size": 1,
      "price": "2333000000000000000000",
      "reserved": "0x7a9fe22691c811ea339d9b73150e6911a5343dca"
    },
    {
      "x": 237,
      "y": 235,
      "size": 1,
      "price": "2333000000000000000000"
    },
    {
      "x": 237,
      "y": 234,
      "size": 1,
      "price": "2333000000000000000000"
    },
    {
      "x": 237,
      "y": 230,
      "size": 1,
      "price": "2333000000000000000000"
    },
    {
      "x": 237,
      "y": 229,
      "size": 1,
      "price": "2333000000000000000000"
    },
    {
      "x": 237,
      "y": 228,
      "size": 1,
      "price": "2333000000000000000000"
    },
    {
      "x": 237,
      "y": 224,
      "size": 1,
      "price": "2333000000000000000000"
    },
    {
      "x": 237,
      "y": 223,
      "size": 1,
      "price": "2333000000000000000000"
    },
    {
      "x": 237,
      "y": 222,
      "size": 1,
      "price": "2333000000000000000000"
    },
    {
      "x": 237,
      "y": 221,
      "size": 1,
      "price": "2333000000000000000000"
    },
    {
      "x": 237,
      "y": 220,
      "size": 1,
      "price": "2333000000000000000000"
    },
    {
      "x": 237,
      "y": 219,
      "size": 1,
      "price": "2333000000000000000000"
    },
    {
      "x": 237,
      "y": 218,
      "size": 1,
      "price": "2333000000000000000000"
    },
    {
      "x": 237,
      "y": 217,
      "size": 1,
      "price": "2333000000000000000000"
    },
    {
      "x": 236,
      "y": 217,
      "size": 1,
      "price": "2333000000000000000000"
    },
    {
      "x": 236,
      "y": 216,
      "size": 1,
      "price": "2333000000000000000000"
    },
    {
      "x": 236,
      "y": 218,
      "size": 1,
      "price": "2333000000000000000000"
    },
    {
      "x": 236,
      "y": 222,
      "size": 1,
      "price": "2333000000000000000000"
    },
    {
      "x": 236,
      "y": 223,
      "size": 1,
      "price": "2333000000000000000000"
    },
    {
      "x": 236,
      "y": 224,
      "size": 1,
      "price": "2333000000000000000000"
    },
    {
      "x": 236,
      "y": 226,
      "size": 1,
      "price": "2333000000000000000000"
    },
    {
      "x": 236,
      "y": 227,
      "size": 1,
      "price": "2333000000000000000000"
    },
    {
      "x": 236,
      "y": 228,
      "size": 1,
      "price": "2333000000000000000000"
    },
    {
      "x": 236,
      "y": 229,
      "size": 1,
      "price": "2333000000000000000000"
    },
    {
      "x": 236,
      "y": 230,
      "size": 1,
      "price": "2333000000000000000000"
    },
    {
      "x": 236,
      "y": 231,
      "size": 1,
      "price": "2333000000000000000000"
    },
    {
      "x": 236,
      "y": 232,
      "size": 1,
      "price": "2333000000000000000000"
    },
    {
      "x": 236,
      "y": 233,
      "size": 1,
      "price": "2333000000000000000000"
    },
    {
      "x": 236,
      "y": 239,
      "size": 1,
      "price": "2333000000000000000000"
    },
    {
      "x": 236,
      "y": 252,
      "size": 1,
      "price": "2333000000000000000000"
    },
    {
      "x": 236,
      "y": 253,
      "size": 1,
      "price": "2333000000000000000000"
    },
    {
      "x": 236,
      "y": 254,
      "size": 1,
      "price": "2333000000000000000000"
    },
    {
      "x": 236,
      "y": 256,
      "size": 1,
      "price": "2333000000000000000000"
    },
    {
      "x": 236,
      "y": 257,
      "size": 1,
      "price": "2333000000000000000000"
    },
    {
      "x": 236,
      "y": 258,
      "size": 1,
      "price": "2333000000000000000000"
    },
    {
      "x": 236,
      "y": 259,
      "size": 1,
      "price": "2333000000000000000000"
    },
    {
      "x": 236,
      "y": 260,
      "size": 1,
      "price": "2333000000000000000000"
    },
    {
      "x": 236,
      "y": 263,
      "size": 1,
      "price": "2333000000000000000000"
    },
    {
      "x": 238,
      "y": 263,
      "size": 1,
      "price": "2333000000000000000000"
    },
    {
      "x": 238,
      "y": 260,
      "size": 1,
      "price": "2333000000000000000000"
    },
    {
      "x": 238,
      "y": 259,
      "size": 1,
      "price": "2333000000000000000000"
    },
    {
      "x": 238,
      "y": 258,
      "size": 1,
      "price": "2333000000000000000000"
    },
    {
      "x": 238,
      "y": 257,
      "size": 1,
      "price": "2333000000000000000000"
    },
    {
      "x": 238,
      "y": 256,
      "size": 1,
      "price": "2333000000000000000000"
    },
    {
      "x": 238,
      "y": 251,
      "size": 1,
      "price": "2333000000000000000000"
    },
    {
      "x": 238,
      "y": 250,
      "size": 1,
      "price": "2333000000000000000000"
    },
    {
      "x": 238,
      "y": 249,
      "size": 1,
      "price": "2333000000000000000000"
    },
    {
      "x": 238,
      "y": 248,
      "size": 1,
      "price": "2333000000000000000000"
    },
    {
      "x": 238,
      "y": 247,
      "size": 1,
      "price": "2333000000000000000000"
    },
    {
      "x": 238,
      "y": 246,
      "size": 1,
      "price": "2333000000000000000000"
    },
    {
      "x": 238,
      "y": 236,
      "size": 1,
      "price": "2333000000000000000000"
    },
    {
      "x": 238,
      "y": 235,
      "size": 1,
      "price": "2333000000000000000000"
    },
    {
      "x": 238,
      "y": 234,
      "size": 1,
      "price": "2333000000000000000000"
    },
    {
      "x": 238,
      "y": 230,
      "size": 1,
      "price": "2333000000000000000000"
    },
    {
      "x": 238,
      "y": 229,
      "size": 1,
      "price": "2333000000000000000000"
    },
    {
      "x": 238,
      "y": 228,
      "size": 1,
      "price": "2333000000000000000000",
      "reserved": "0x7a9fe22691c811ea339d9b73150e6911a5343dca"
    },
    {
      "x": 238,
      "y": 223,
      "size": 1,
      "price": "2333000000000000000000"
    },
    {
      "x": 238,
      "y": 222,
      "size": 1,
      "price": "2333000000000000000000"
    },
    {
      "x": 238,
      "y": 221,
      "size": 1,
      "price": "2333000000000000000000"
    },
    {
      "x": 238,
      "y": 220,
      "size": 1,
      "price": "2333000000000000000000"
    },
    {
      "x": 238,
      "y": 219,
      "size": 1,
      "price": "2333000000000000000000"
    },
    {
      "x": 238,
      "y": 218,
      "size": 1,
      "price": "2333000000000000000000"
    },
    {
      "x": 238,
      "y": 217,
      "size": 1,
      "price": "2333000000000000000000"
    },
    {
      "x": 238,
      "y": 216,
      "size": 1,
      "price": "2333000000000000000000"
    },
    {
      "x": 238,
      "y": 224,
      "size": 1,
      "price": "2333000000000000000000"
    },
    {
      "x": 237,
      "y": 216,
      "size": 1,
      "price": "2333000000000000000000"
    },
    {
      "x": 233,
      "y": 216,
      "size": 1,
      "price": "2333000000000000000000"
    },
    {
      "x": 232,
      "y": 216,
      "size": 1,
      "price": "2333000000000000000000"
    },
    {
      "x": 231,
      "y": 216,
      "size": 1,
      "price": "2333000000000000000000"
    },
    {
      "x": 233,
      "y": 217,
      "size": 1,
      "price": "2333000000000000000000"
    },
    {
      "x": 233,
      "y": 218,
      "size": 1,
      "price": "2333000000000000000000"
    },
    {
      "x": 233,
      "y": 219,
      "size": 1,
      "price": "2333000000000000000000"
    },
    {
      "x": 233,
      "y": 220,
      "size": 1,
      "price": "2333000000000000000000"
    },
    {
      "x": 233,
      "y": 221,
      "size": 1,
      "price": "2333000000000000000000"
    },
    {
      "x": 233,
      "y": 226,
      "size": 1,
      "price": "2333000000000000000000"
    },
    {
      "x": 233,
      "y": 227,
      "size": 1,
      "price": "2333000000000000000000"
    },
    {
      "x": 233,
      "y": 231,
      "size": 1,
      "price": "2333000000000000000000"
    },
    {
      "x": 233,
      "y": 232,
      "size": 1,
      "price": "2333000000000000000000"
    },
    {
      "x": 233,
      "y": 233,
      "size": 1,
      "price": "2333000000000000000000"
    },
    {
      "x": 233,
      "y": 240,
      "size": 1,
      "price": "2333000000000000000000"
    },
    {
      "x": 233,
      "y": 241,
      "size": 1,
      "price": "2333000000000000000000"
    },
    {
      "x": 233,
      "y": 242,
      "size": 1,
      "price": "2333000000000000000000"
    },
    {
      "x": 233,
      "y": 256,
      "size": 1,
      "price": "2333000000000000000000"
    },
    {
      "x": 233,
      "y": 257,
      "size": 1,
      "price": "2333000000000000000000"
    },
    {
      "x": 233,
      "y": 258,
      "size": 1,
      "price": "2333000000000000000000"
    },
    {
      "x": 233,
      "y": 259,
      "size": 1,
      "price": "2333000000000000000000"
    },
    {
      "x": 233,
      "y": 260,
      "size": 1,
      "price": "2333000000000000000000"
    },
    {
      "x": 233,
      "y": 263,
      "size": 1,
      "price": "2333000000000000000000"
    },
    {
      "x": 232,
      "y": 263,
      "size": 1,
      "price": "2333000000000000000000"
    },
    {
      "x": 232,
      "y": 260,
      "size": 1,
      "price": "2333000000000000000000"
    },
    {
      "x": 232,
      "y": 259,
      "size": 1,
      "price": "2333000000000000000000"
    },
    {
      "x": 232,
      "y": 258,
      "size": 1,
      "price": "2333000000000000000000"
    },
    {
      "x": 232,
      "y": 257,
      "size": 1,
      "price": "2333000000000000000000"
    },
    {
      "x": 232,
      "y": 256,
      "size": 1,
      "price": "2333000000000000000000"
    },
    {
      "x": 232,
      "y": 242,
      "size": 1,
      "price": "2333000000000000000000"
    },
    {
      "x": 232,
      "y": 241,
      "size": 1,
      "price": "2333000000000000000000"
    },
    {
      "x": 232,
      "y": 240,
      "size": 1,
      "price": "2333000000000000000000"
    },
    {
      "x": 232,
      "y": 233,
      "size": 1,
      "price": "2333000000000000000000"
    },
    {
      "x": 232,
      "y": 232,
      "size": 1,
      "price": "2333000000000000000000"
    },
    {
      "x": 232,
      "y": 231,
      "size": 1,
      "price": "2333000000000000000000"
    },
    {
      "x": 232,
      "y": 227,
      "size": 1,
      "price": "2333000000000000000000"
    },
    {
      "x": 232,
      "y": 226,
      "size": 1,
      "price": "2333000000000000000000"
    },
    {
      "x": 232,
      "y": 221,
      "size": 1,
      "price": "2333000000000000000000"
    },
    {
      "x": 232,
      "y": 220,
      "size": 1,
      "price": "2333000000000000000000"
    },
    {
      "x": 232,
      "y": 219,
      "size": 1,
      "price": "2333000000000000000000"
    },
    {
      "x": 232,
      "y": 218,
      "size": 1,
      "price": "2333000000000000000000"
    },
    {
      "x": 232,
      "y": 217,
      "size": 1,
      "price": "2333000000000000000000"
    },
    {
      "x": 230,
      "y": 219,
      "size": 1,
      "price": "2333000000000000000000"
    },
    {
      "x": 230,
      "y": 220,
      "size": 1,
      "price": "2333000000000000000000"
    },
    {
      "x": 230,
      "y": 221,
      "size": 1,
      "price": "2333000000000000000000"
    },
    {
      "x": 230,
      "y": 222,
      "size": 1,
      "price": "2333000000000000000000"
    },
    {
      "x": 230,
      "y": 223,
      "size": 1,
      "price": "2333000000000000000000"
    },
    {
      "x": 230,
      "y": 224,
      "size": 1,
      "price": "2333000000000000000000"
    },
    {
      "x": 230,
      "y": 226,
      "size": 1,
      "price": "2333000000000000000000"
    },
    {
      "x": 230,
      "y": 227,
      "size": 1,
      "price": "2333000000000000000000"
    },
    {
      "x": 230,
      "y": 240,
      "size": 1,
      "price": "2333000000000000000000"
    },
    {
      "x": 230,
      "y": 242,
      "size": 1,
      "price": "2333000000000000000000"
    },
    {
      "x": 230,
      "y": 243,
      "size": 1,
      "price": "2333000000000000000000"
    },
    {
      "x": 230,
      "y": 244,
      "size": 1,
      "price": "2333000000000000000000"
    },
    {
      "x": 230,
      "y": 245,
      "size": 1,
      "price": "2333000000000000000000"
    },
    {
      "x": 230,
      "y": 258,
      "size": 1,
      "price": "2333000000000000000000"
    },
    {
      "x": 230,
      "y": 260,
      "size": 1,
      "price": "2333000000000000000000"
    },
    {
      "x": 230,
      "y": 263,
      "size": 1,
      "price": "2333000000000000000000"
    },
    {
      "x": 231,
      "y": 263,
      "size": 1,
      "price": "2333000000000000000000"
    },
    {
      "x": 231,
      "y": 258,
      "size": 1,
      "price": "2333000000000000000000"
    },
    {
      "x": 231,
      "y": 257,
      "size": 1,
      "price": "2333000000000000000000"
    },
    {
      "x": 231,
      "y": 256,
      "size": 1,
      "price": "2333000000000000000000"
    },
    {
      "x": 231,
      "y": 242,
      "size": 1,
      "price": "2333000000000000000000"
    },
    {
      "x": 231,
      "y": 241,
      "size": 1,
      "price": "2333000000000000000000"
    },
    {
      "x": 231,
      "y": 233,
      "size": 1,
      "price": "2333000000000000000000"
    },
    {
      "x": 231,
      "y": 232,
      "size": 1,
      "price": "2333000000000000000000"
    },
    {
      "x": 231,
      "y": 231,
      "size": 1,
      "price": "2333000000000000000000"
    },
    {
      "x": 231,
      "y": 227,
      "size": 1,
      "price": "2333000000000000000000"
    },
    {
      "x": 231,
      "y": 226,
      "size": 1,
      "price": "2333000000000000000000"
    },
    {
      "x": 231,
      "y": 221,
      "size": 1,
      "price": "2333000000000000000000"
    },
    {
      "x": 231,
      "y": 220,
      "size": 1,
      "price": "2333000000000000000000"
    },
    {
      "x": 231,
      "y": 219,
      "size": 1,
      "price": "2333000000000000000000"
    },
    {
      "x": 231,
      "y": 218,
      "size": 1,
      "price": "2333000000000000000000"
    },
    {
      "x": 231,
      "y": 217,
      "size": 1,
      "price": "2333000000000000000000"
    },
    {
      "x": 231,
      "y": 259,
      "size": 1,
      "price": "2333000000000000000000"
    },
    {
      "x": 229,
      "y": 263,
      "size": 1,
      "price": "2333000000000000000000"
    },
    {
      "x": 229,
      "y": 260,
      "size": 1,
      "price": "2333000000000000000000"
    },
    {
      "x": 229,
      "y": 259,
      "size": 1,
      "price": "2333000000000000000000"
    },
    {
      "x": 229,
      "y": 245,
      "size": 1,
      "price": "2333000000000000000000"
    },
    {
      "x": 229,
      "y": 244,
      "size": 1,
      "price": "2333000000000000000000"
    },
    {
      "x": 229,
      "y": 243,
      "size": 1,
      "price": "2333000000000000000000"
    },
    {
      "x": 229,
      "y": 241,
      "size": 1,
      "price": "2333000000000000000000"
    },
    {
      "x": 229,
      "y": 240,
      "size": 1,
      "price": "2333000000000000000000"
    },
    {
      "x": 229,
      "y": 227,
      "size": 1,
      "price": "2333000000000000000000"
    },
    {
      "x": 229,
      "y": 226,
      "size": 1,
      "price": "2333000000000000000000"
    },
    {
      "x": 229,
      "y": 224,
      "size": 1,
      "price": "2333000000000000000000"
    },
    {
      "x": 229,
      "y": 223,
      "size": 1,
      "price": "2333000000000000000000"
    },
    {
      "x": 229,
      "y": 222,
      "size": 1,
      "price": "2333000000000000000000"
    },
    {
      "x": 229,
      "y": 221,
      "size": 1,
      "price": "2333000000000000000000"
    },
    {
      "x": 229,
      "y": 220,
      "size": 1,
      "price": "2333000000000000000000"
    },
    {
      "x": 229,
      "y": 219,
      "size": 1,
      "price": "2333000000000000000000"
    },
    {
      "x": 228,
      "y": 219,
      "size": 1,
      "price": "2333000000000000000000"
    },
    {
      "x": 228,
      "y": 220,
      "size": 1,
      "price": "2333000000000000000000"
    },
    {
      "x": 228,
      "y": 221,
      "size": 1,
      "price": "2333000000000000000000"
    },
    {
      "x": 228,
      "y": 222,
      "size": 1,
      "price": "2333000000000000000000"
    },
    {
      "x": 228,
      "y": 223,
      "size": 1,
      "price": "2333000000000000000000"
    },
    {
      "x": 228,
      "y": 224,
      "size": 1,
      "price": "2333000000000000000000"
    },
    {
      "x": 228,
      "y": 226,
      "size": 1,
      "price": "2333000000000000000000"
    },
    {
      "x": 228,
      "y": 227,
      "size": 1,
      "price": "2333000000000000000000"
    },
    {
      "x": 228,
      "y": 240,
      "size": 1,
      "price": "2333000000000000000000"
    },
    {
      "x": 228,
      "y": 241,
      "size": 1,
      "price": "2333000000000000000000"
    },
    {
      "x": 228,
      "y": 242,
      "size": 1,
      "price": "2333000000000000000000"
    },
    {
      "x": 228,
      "y": 244,
      "size": 1,
      "price": "2333000000000000000000"
    },
    {
      "x": 228,
      "y": 245,
      "size": 1,
      "price": "2333000000000000000000"
    },
    {
      "x": 228,
      "y": 258,
      "size": 1,
      "price": "2333000000000000000000"
    },
    {
      "x": 228,
      "y": 259,
      "size": 1,
      "price": "2333000000000000000000"
    },
    {
      "x": 228,
      "y": 260,
      "size": 1,
      "price": "2333000000000000000000"
    },
    {
      "x": 228,
      "y": 263,
      "size": 1,
      "price": "2333000000000000000000"
    },
    {
      "x": 212,
      "y": 277,
      "size": 1,
      "price": "2333000000000000000000"
    },
    {
      "x": 212,
      "y": 278,
      "size": 1,
      "price": "2333000000000000000000"
    },
    {
      "x": 211,
      "y": 278,
      "size": 1,
      "price": "2333000000000000000000"
    },
    {
      "x": 213,
      "y": 282,
      "size": 1,
      "price": "2333000000000000000000"
    },
    {
      "x": 214,
      "y": 283,
      "size": 1,
      "price": "2333000000000000000000"
    },
    {
      "x": 214,
      "y": 284,
      "size": 1,
      "price": "2333000000000000000000"
    },
    {
      "x": 215,
      "y": 285,
      "size": 1,
      "price": "2333000000000000000000"
    },
    {
      "x": 215,
      "y": 286,
      "size": 1,
      "price": "2333000000000000000000"
    },
    {
      "x": 215,
      "y": 287,
      "size": 1,
      "price": "2333000000000000000000"
    },
    {
      "x": 214,
      "y": 287,
      "size": 1,
      "price": "2333000000000000000000"
    },
    {
      "x": 213,
      "y": 287,
      "size": 1,
      "price": "2333000000000000000000"
    },
    {
      "x": 212,
      "y": 287,
      "size": 1,
      "price": "2333000000000000000000"
    },
    {
      "x": 211,
      "y": 287,
      "size": 1,
      "price": "2333000000000000000000"
    },
    {
      "x": 210,
      "y": 287,
      "size": 1,
      "price": "2333000000000000000000"
    },
    {
      "x": 210,
      "y": 286,
      "size": 1,
      "price": "2333000000000000000000"
    },
    {
      "x": 206,
      "y": 286,
      "size": 1,
      "price": "2333000000000000000000"
    },
    {
      "x": 205,
      "y": 286,
      "size": 1,
      "price": "2333000000000000000000"
    },
    {
      "x": 204,
      "y": 287,
      "size": 1,
      "price": "2333000000000000000000"
    },
    {
      "x": 205,
      "y": 287,
      "size": 1,
      "price": "2333000000000000000000"
    },
    {
      "x": 206,
      "y": 287,
      "size": 1,
      "price": "2333000000000000000000"
    },
    {
      "x": 211,
      "y": 286,
      "size": 1,
      "price": "2333000000000000000000"
    },
    {
      "x": 212,
      "y": 286,
      "size": 1,
      "price": "2333000000000000000000"
    },
    {
      "x": 213,
      "y": 286,
      "size": 1,
      "price": "2333000000000000000000"
    },
    {
      "x": 214,
      "y": 286,
      "size": 1,
      "price": "2333000000000000000000"
    },
    {
      "x": 214,
      "y": 285,
      "size": 1,
      "price": "2333000000000000000000"
    },
    {
      "x": 214,
      "y": 282,
      "size": 1,
      "price": "2333000000000000000000"
    },
    {
      "x": 214,
      "y": 260,
      "size": 1,
      "price": "2333000000000000000000"
    },
    {
      "x": 214,
      "y": 259,
      "size": 1,
      "price": "2333000000000000000000"
    },
    {
      "x": 214,
      "y": 258,
      "size": 1,
      "price": "2333000000000000000000"
    },
    {
      "x": 214,
      "y": 257,
      "size": 1,
      "price": "2333000000000000000000"
    },
    {
      "x": 214,
      "y": 256,
      "size": 1,
      "price": "2333000000000000000000"
    },
    {
      "x": 214,
      "y": 255,
      "size": 1,
      "price": "2333000000000000000000"
    },
    {
      "x": 214,
      "y": 245,
      "size": 1,
      "price": "2333000000000000000000"
    },
    {
      "x": 214,
      "y": 244,
      "size": 1,
      "price": "2333000000000000000000"
    },
    {
      "x": 214,
      "y": 243,
      "size": 1,
      "price": "2333000000000000000000"
    },
    {
      "x": 215,
      "y": 243,
      "size": 1,
      "price": "2333000000000000000000"
    },
    {
      "x": 215,
      "y": 244,
      "size": 1,
      "price": "2333000000000000000000"
    },
    {
      "x": 215,
      "y": 245,
      "size": 1,
      "price": "2333000000000000000000"
    },
    {
      "x": 215,
      "y": 255,
      "size": 1,
      "price": "2333000000000000000000"
    },
    {
      "x": 215,
      "y": 256,
      "size": 1,
      "price": "2333000000000000000000"
    },
    {
      "x": 215,
      "y": 257,
      "size": 1,
      "price": "2333000000000000000000"
    },
    {
      "x": 215,
      "y": 258,
      "size": 1,
      "price": "2333000000000000000000"
    },
    {
      "x": 215,
      "y": 259,
      "size": 1,
      "price": "2333000000000000000000"
    },
    {
      "x": 215,
      "y": 260,
      "size": 1,
      "price": "2333000000000000000000"
    },
    {
      "x": 215,
      "y": 282,
      "size": 1,
      "price": "2333000000000000000000"
    },
    {
      "x": 215,
      "y": 283,
      "size": 1,
      "price": "2333000000000000000000"
    },
    {
      "x": 215,
      "y": 284,
      "size": 1,
      "price": "2333000000000000000000"
    },
    {
      "x": 213,
      "y": 285,
      "size": 1,
      "price": "2333000000000000000000"
    },
    {
      "x": 212,
      "y": 285,
      "size": 1,
      "price": "2333000000000000000000"
    },
    {
      "x": 212,
      "y": 284,
      "size": 1,
      "price": "2333000000000000000000"
    },
    {
      "x": 212,
      "y": 283,
      "size": 1,
      "price": "2333000000000000000000"
    },
    {
      "x": 212,
      "y": 282,
      "size": 1,
      "price": "2333000000000000000000"
    },
    {
      "x": 212,
      "y": 276,
      "size": 1,
      "price": "2333000000000000000000"
    },
    {
      "x": 212,
      "y": 263,
      "size": 1,
      "price": "2333000000000000000000"
    },
    {
      "x": 212,
      "y": 260,
      "size": 1,
      "price": "2333000000000000000000"
    },
    {
      "x": 212,
      "y": 259,
      "size": 1,
      "price": "2333000000000000000000"
    },
    {
      "x": 212,
      "y": 258,
      "size": 1,
      "price": "2333000000000000000000"
    },
    {
      "x": 212,
      "y": 254,
      "size": 1,
      "price": "2333000000000000000000"
    },
    {
      "x": 212,
      "y": 253,
      "size": 1,
      "price": "2333000000000000000000"
    },
    {
      "x": 212,
      "y": 252,
      "size": 1,
      "price": "2333000000000000000000"
    },
    {
      "x": 212,
      "y": 245,
      "size": 1,
      "price": "2333000000000000000000"
    },
    {
      "x": 212,
      "y": 244,
      "size": 1,
      "price": "2333000000000000000000"
    },
    {
      "x": 212,
      "y": 243,
      "size": 1,
      "price": "2333000000000000000000"
    },
    {
      "x": 212,
      "y": 242,
      "size": 1,
      "price": "2333000000000000000000"
    },
    {
      "x": 212,
      "y": 240,
      "size": 1,
      "price": "2333000000000000000000"
    },
    {
      "x": 211,
      "y": 221,
      "size": 1,
      "price": "2333000000000000000000"
    },
    {
      "x": 211,
      "y": 220,
      "size": 1,
      "price": "2333000000000000000000"
    },
    {
      "x": 211,
      "y": 219,
      "size": 1,
      "price": "2333000000000000000000"
    },
    {
      "x": 211,
      "y": 218,
      "size": 1,
      "price": "2333000000000000000000"
    },
    {
      "x": 211,
      "y": 217,
      "size": 1,
      "price": "2333000000000000000000"
    },
    {
      "x": 212,
      "y": 216,
      "size": 1,
      "price": "2333000000000000000000"
    },
    {
      "x": 213,
      "y": 216,
      "size": 1,
      "price": "2333000000000000000000"
    },
    {
      "x": 214,
      "y": 216,
      "size": 1,
      "price": "2333000000000000000000"
    },
    {
      "x": 214,
      "y": 217,
      "size": 1,
      "price": "2333000000000000000000"
    },
    {
      "x": 215,
      "y": 217,
      "size": 1,
      "price": "2333000000000000000000"
    },
    {
      "x": 215,
      "y": 216,
      "size": 1,
      "price": "2333000000000000000000"
    },
    {
      "x": 203,
      "y": 217,
      "size": 1,
      "price": "2333000000000000000000"
    },
    {
      "x": 202,
      "y": 217,
      "size": 1,
      "price": "2333000000000000000000"
    },
    {
      "x": 201,
      "y": 217,
      "size": 1,
      "price": "2333000000000000000000"
    },
    {
      "x": 201,
      "y": 216,
      "size": 1,
      "price": "2333000000000000000000"
    },
    {
      "x": 202,
      "y": 216,
      "size": 1,
      "price": "2333000000000000000000"
    },
    {
      "x": 203,
      "y": 216,
      "size": 1,
      "price": "2333000000000000000000"
    },
    {
      "x": 201,
      "y": 218,
      "size": 1,
      "price": "2333000000000000000000"
    },
    {
      "x": 202,
      "y": 218,
      "size": 1,
      "price": "2333000000000000000000"
    },
    {
      "x": 203,
      "y": 218,
      "size": 1,
      "price": "2333000000000000000000"
    },
    {
      "x": 210,
      "y": 218,
      "size": 1,
      "price": "2333000000000000000000"
    },
    {
      "x": 210,
      "y": 216,
      "size": 1,
      "price": "2333000000000000000000"
    },
    {
      "x": 210,
      "y": 217,
      "size": 1,
      "price": "2333000000000000000000"
    },
    {
      "x": 211,
      "y": 216,
      "size": 1,
      "price": "2333000000000000000000"
    },
    {
      "x": 212,
      "y": 217,
      "size": 1,
      "price": "2333000000000000000000"
    },
    {
      "x": 213,
      "y": 217,
      "size": 1,
      "price": "2333000000000000000000"
    },
    {
      "x": 214,
      "y": 218,
      "size": 1,
      "price": "2333000000000000000000"
    },
    {
      "x": 215,
      "y": 218,
      "size": 1,
      "price": "2333000000000000000000"
    },
    {
      "x": 213,
      "y": 218,
      "size": 1,
      "price": "2333000000000000000000"
    },
    {
      "x": 212,
      "y": 218,
      "size": 1,
      "price": "2333000000000000000000"
    },
    {
      "x": 207,
      "y": 219,
      "size": 1,
      "price": "2333000000000000000000"
    },
    {
      "x": 206,
      "y": 219,
      "size": 1,
      "price": "2333000000000000000000"
    },
    {
      "x": 205,
      "y": 219,
      "size": 1,
      "price": "2333000000000000000000"
    },
    {
      "x": 204,
      "y": 219,
      "size": 1,
      "price": "2333000000000000000000"
    },
    {
      "x": 204,
      "y": 220,
      "size": 1,
      "price": "2333000000000000000000"
    },
    {
      "x": 204,
      "y": 221,
      "size": 1,
      "price": "2333000000000000000000"
    },
    {
      "x": 204,
      "y": 225,
      "size": 1,
      "price": "2333000000000000000000"
    },
    {
      "x": 204,
      "y": 226,
      "size": 1,
      "price": "2333000000000000000000"
    },
    {
      "x": 204,
      "y": 227,
      "size": 1,
      "price": "2333000000000000000000"
    },
    {
      "x": 204,
      "y": 240,
      "size": 1,
      "price": "2333000000000000000000"
    },
    {
      "x": 204,
      "y": 241,
      "size": 1,
      "price": "2333000000000000000000"
    },
    {
      "x": 204,
      "y": 242,
      "size": 1,
      "price": "2333000000000000000000"
    },
    {
      "x": 205,
      "y": 241,
      "size": 1,
      "price": "2333000000000000000000"
    },
    {
      "x": 205,
      "y": 240,
      "size": 1,
      "price": "2333000000000000000000"
    },
    {
      "x": 205,
      "y": 227,
      "size": 1,
      "price": "2333000000000000000000"
    },
    {
      "x": 205,
      "y": 226,
      "size": 1,
      "price": "2333000000000000000000"
    },
    {
      "x": 205,
      "y": 225,
      "size": 1,
      "price": "2333000000000000000000"
    },
    {
      "x": 205,
      "y": 221,
      "size": 1,
      "price": "2333000000000000000000"
    },
    {
      "x": 205,
      "y": 220,
      "size": 1,
      "price": "2333000000000000000000"
    },
    {
      "x": 206,
      "y": 220,
      "size": 1,
      "price": "2333000000000000000000"
    },
    {
      "x": 206,
      "y": 225,
      "size": 1,
      "price": "2333000000000000000000"
    },
    {
      "x": 206,
      "y": 226,
      "size": 1,
      "price": "2333000000000000000000"
    },
    {
      "x": 206,
      "y": 227,
      "size": 1,
      "price": "2333000000000000000000"
    },
    {
      "x": 206,
      "y": 221,
      "size": 1,
      "price": "2333000000000000000000"
    },
    {
      "x": 207,
      "y": 220,
      "size": 1,
      "price": "2333000000000000000000"
    },
    {
      "x": 208,
      "y": 220,
      "size": 1,
      "price": "2333000000000000000000"
    },
    {
      "x": 208,
      "y": 219,
      "size": 1,
      "price": "2333000000000000000000"
    },
    {
      "x": 209,
      "y": 220,
      "size": 1,
      "price": "2333000000000000000000"
    },
    {
      "x": 209,
      "y": 221,
      "size": 1,
      "price": "2333000000000000000000"
    },
    {
      "x": 209,
      "y": 222,
      "size": 1,
      "price": "2333000000000000000000"
    },
    {
      "x": 209,
      "y": 223,
      "size": 1,
      "price": "2333000000000000000000"
    },
    {
      "x": 209,
      "y": 224,
      "size": 1,
      "price": "2333000000000000000000"
    },
    {
      "x": 209,
      "y": 225,
      "size": 1,
      "price": "2333000000000000000000"
    },
    {
      "x": 209,
      "y": 226,
      "size": 1,
      "price": "2333000000000000000000"
    },
    {
      "x": 209,
      "y": 227,
      "size": 1,
      "price": "2333000000000000000000"
    },
    {
      "x": 209,
      "y": 240,
      "size": 1,
      "price": "2333000000000000000000"
    },
    {
      "x": 209,
      "y": 241,
      "size": 1,
      "price": "2333000000000000000000"
    },
    {
      "x": 209,
      "y": 242,
      "size": 1,
      "price": "2333000000000000000000"
    },
    {
      "x": 209,
      "y": 246,
      "size": 1,
      "price": "2333000000000000000000"
    },
    {
      "x": 210,
      "y": 221,
      "size": 1,
      "price": "2333000000000000000000"
    },
    {
      "x": 210,
      "y": 220,
      "size": 1,
      "price": "2333000000000000000000"
    },
    {
      "x": 209,
      "y": 219,
      "size": 1,
      "price": "2333000000000000000000"
    },
    {
      "x": 210,
      "y": 219,
      "size": 1,
      "price": "2333000000000000000000"
    },
    {
      "x": 212,
      "y": 219,
      "size": 1,
      "price": "2333000000000000000000",
      "reserved": "0x7a9fe22691c811ea339d9b73150e6911a5343dca"
    },
    {
      "x": 212,
      "y": 221,
      "size": 1,
      "price": "2333000000000000000000"
    },
    {
      "x": 212,
      "y": 220,
      "size": 1,
      "price": "2333000000000000000000"
    },
    {
      "x": 208,
      "y": 221,
      "size": 1,
      "price": "2333000000000000000000"
    },
    {
      "x": 207,
      "y": 221,
      "size": 1,
      "price": "2333000000000000000000"
    },
    {
      "x": 207,
      "y": 222,
      "size": 1,
      "price": "2333000000000000000000"
    },
    {
      "x": 208,
      "y": 222,
      "size": 1,
      "price": "2333000000000000000000"
    },
    {
      "x": 208,
      "y": 223,
      "size": 1,
      "price": "2333000000000000000000"
    },
    {
      "x": 208,
      "y": 224,
      "size": 1,
      "price": "2333000000000000000000"
    },
    {
      "x": 208,
      "y": 225,
      "size": 1,
      "price": "2333000000000000000000"
    },
    {
      "x": 208,
      "y": 226,
      "size": 1,
      "price": "2333000000000000000000"
    },
    {
      "x": 208,
      "y": 227,
      "size": 1,
      "price": "2333000000000000000000"
    },
    {
      "x": 208,
      "y": 240,
      "size": 1,
      "price": "2333000000000000000000"
    },
    {
      "x": 208,
      "y": 241,
      "size": 1,
      "price": "2333000000000000000000"
    },
    {
      "x": 208,
      "y": 242,
      "size": 1,
      "price": "2333000000000000000000"
    },
    {
      "x": 208,
      "y": 246,
      "size": 1,
      "price": "2333000000000000000000"
    },
    {
      "x": 208,
      "y": 247,
      "size": 1,
      "price": "2333000000000000000000"
    },
    {
      "x": 208,
      "y": 248,
      "size": 1,
      "price": "2333000000000000000000"
    },
    {
      "x": 208,
      "y": 263,
      "size": 1,
      "price": "2333000000000000000000"
    },
    {
      "x": 210,
      "y": 277,
      "size": 1,
      "price": "2333000000000000000000"
    },
    {
      "x": 210,
      "y": 278,
      "size": 1,
      "price": "2333000000000000000000"
    },
    {
      "x": 210,
      "y": 282,
      "size": 1,
      "price": "2333000000000000000000"
    },
    {
      "x": 210,
      "y": 283,
      "size": 1,
      "price": "2333000000000000000000"
    },
    {
      "x": 210,
      "y": 284,
      "size": 1,
      "price": "2333000000000000000000"
    },
    {
      "x": 210,
      "y": 285,
      "size": 1,
      "price": "2333000000000000000000"
    },
    {
      "x": 210,
      "y": 276,
      "size": 1,
      "price": "2333000000000000000000"
    },
    {
      "x": 210,
      "y": 263,
      "size": 1,
      "price": "2333000000000000000000"
    },
    {
      "x": 210,
      "y": 260,
      "size": 1,
      "price": "2333000000000000000000"
    },
    {
      "x": 210,
      "y": 259,
      "size": 1,
      "price": "2333000000000000000000"
    },
    {
      "x": 210,
      "y": 258,
      "size": 1,
      "price": "2333000000000000000000"
    },
    {
      "x": 210,
      "y": 254,
      "size": 1,
      "price": "2333000000000000000000"
    },
    {
      "x": 210,
      "y": 253,
      "size": 1,
      "price": "2333000000000000000000"
    },
    {
      "x": 210,
      "y": 252,
      "size": 1,
      "price": "2333000000000000000000",
      "reserved": "0x7a9fe22691c811ea339d9b73150e6911a5343dca"
    },
    {
      "x": 210,
      "y": 245,
      "size": 1,
      "price": "2333000000000000000000"
    },
    {
      "x": 210,
      "y": 244,
      "size": 1,
      "price": "2333000000000000000000"
    },
    {
      "x": 210,
      "y": 243,
      "size": 1,
      "price": "2333000000000000000000"
    },
    {
      "x": 210,
      "y": 242,
      "size": 1,
      "price": "2333000000000000000000"
    },
    {
      "x": 210,
      "y": 241,
      "size": 1,
      "price": "2333000000000000000000"
    },
    {
      "x": 210,
      "y": 240,
      "size": 1,
      "price": "2333000000000000000000"
    },
    {
      "x": 211,
      "y": 258,
      "size": 1,
      "price": "2333000000000000000000"
    },
    {
      "x": 211,
      "y": 259,
      "size": 1,
      "price": "2333000000000000000000"
    },
    {
      "x": 211,
      "y": 260,
      "size": 1,
      "price": "2333000000000000000000"
    },
    {
      "x": 211,
      "y": 263,
      "size": 1,
      "price": "2333000000000000000000"
    },
    {
      "x": 211,
      "y": 276,
      "size": 1,
      "price": "2333000000000000000000"
    },
    {
      "x": 211,
      "y": 277,
      "size": 1,
      "price": "2333000000000000000000"
    },
    {
      "x": 211,
      "y": 282,
      "size": 1,
      "price": "2333000000000000000000"
    },
    {
      "x": 211,
      "y": 283,
      "size": 1,
      "price": "2333000000000000000000"
    },
    {
      "x": 211,
      "y": 284,
      "size": 1,
      "price": "2333000000000000000000"
    },
    {
      "x": 211,
      "y": 285,
      "size": 1,
      "price": "2333000000000000000000"
    },
    {
      "x": 213,
      "y": 283,
      "size": 1,
      "price": "2333000000000000000000"
    },
    {
      "x": 213,
      "y": 284,
      "size": 1,
      "price": "2333000000000000000000"
    },
    {
      "x": 213,
      "y": 260,
      "size": 1,
      "price": "2333000000000000000000"
    },
    {
      "x": 213,
      "y": 259,
      "size": 1,
      "price": "2333000000000000000000"
    },
    {
      "x": 213,
      "y": 258,
      "size": 1,
      "price": "2333000000000000000000"
    },
    {
      "x": 213,
      "y": 257,
      "size": 1,
      "price": "2333000000000000000000"
    },
    {
      "x": 213,
      "y": 243,
      "size": 1,
      "price": "2333000000000000000000"
    },
    {
      "x": 207,
      "y": 223,
      "size": 1,
      "price": "2333000000000000000000"
    },
    {
      "x": 207,
      "y": 224,
      "size": 1,
      "price": "2333000000000000000000",
      "reserved": "0x7a9fe22691c811ea339d9b73150e6911a5343dca"
    },
    {
      "x": 207,
      "y": 225,
      "size": 1,
      "price": "2333000000000000000000"
    },
    {
      "x": 207,
      "y": 226,
      "size": 1,
      "price": "2333000000000000000000"
    },
    {
      "x": 207,
      "y": 227,
      "size": 1,
      "price": "2333000000000000000000"
    },
    {
      "x": 207,
      "y": 240,
      "size": 1,
      "price": "2333000000000000000000"
    },
    {
      "x": 207,
      "y": 241,
      "size": 1,
      "price": "2333000000000000000000"
    },
    {
      "x": 207,
      "y": 242,
      "size": 1,
      "price": "2333000000000000000000"
    },
    {
      "x": 207,
      "y": 246,
      "size": 1,
      "price": "2333000000000000000000"
    },
    {
      "x": 207,
      "y": 247,
      "size": 1,
      "price": "2333000000000000000000"
    },
    {
      "x": 207,
      "y": 248,
      "size": 1,
      "price": "2333000000000000000000"
    },
    {
      "x": 207,
      "y": 263,
      "size": 1,
      "price": "2333000000000000000000"
    },
    {
      "x": 195,
      "y": 288,
      "size": 1,
      "price": "2333000000000000000000"
    },
    {
      "x": 196,
      "y": 288,
      "size": 1,
      "price": "2333000000000000000000"
    },
    {
      "x": 197,
      "y": 288,
      "size": 1,
      "price": "2333000000000000000000"
    },
    {
      "x": 198,
      "y": 288,
      "size": 1,
      "price": "2333000000000000000000"
    },
    {
      "x": 199,
      "y": 288,
      "size": 1,
      "price": "2333000000000000000000"
    },
    {
      "x": 200,
      "y": 288,
      "size": 1,
      "price": "2333000000000000000000"
    },
    {
      "x": 201,
      "y": 288,
      "size": 1,
      "price": "2333000000000000000000"
    },
    {
      "x": 202,
      "y": 288,
      "size": 1,
      "price": "2333000000000000000000"
    },
    {
      "x": 203,
      "y": 288,
      "size": 1,
      "price": "2333000000000000000000"
    },
    {
      "x": 204,
      "y": 288,
      "size": 1,
      "price": "2333000000000000000000"
    },
    {
      "x": 205,
      "y": 288,
      "size": 1,
      "price": "2333000000000000000000"
    },
    {
      "x": 206,
      "y": 288,
      "size": 1,
      "price": "2333000000000000000000"
    },
    {
      "x": 207,
      "y": 288,
      "size": 1,
      "price": "2333000000000000000000"
    },
    {
      "x": 208,
      "y": 288,
      "size": 1,
      "price": "2333000000000000000000"
    },
    {
      "x": 209,
      "y": 288,
      "size": 1,
      "price": "2333000000000000000000"
    },
    {
      "x": 210,
      "y": 288,
      "size": 1,
      "price": "2333000000000000000000"
    },
    {
      "x": 211,
      "y": 288,
      "size": 1,
      "price": "2333000000000000000000"
    },
    {
      "x": 212,
      "y": 288,
      "size": 1,
      "price": "2333000000000000000000"
    },
    {
      "x": 213,
      "y": 288,
      "size": 1,
      "price": "2333000000000000000000"
    },
    {
      "x": 214,
      "y": 288,
      "size": 1,
      "price": "2333000000000000000000"
    },
    {
      "x": 215,
      "y": 288,
      "size": 1,
      "price": "2333000000000000000000"
    },
    {
      "x": 198,
      "y": 290,
      "size": 1,
      "price": "2333000000000000000000"
    },
    {
      "x": 198,
      "y": 289,
      "size": 1,
      "price": "2333000000000000000000"
    },
    {
      "x": 198,
      "y": 278,
      "size": 1,
      "price": "2333000000000000000000"
    },
    {
      "x": 198,
      "y": 277,
      "size": 1,
      "price": "2333000000000000000000"
    },
    {
      "x": 198,
      "y": 276,
      "size": 1,
      "price": "2333000000000000000000"
    },
    {
      "x": 198,
      "y": 275,
      "size": 1,
      "price": "2333000000000000000000"
    },
    {
      "x": 198,
      "y": 274,
      "size": 1,
      "price": "2333000000000000000000"
    },
    {
      "x": 198,
      "y": 273,
      "size": 1,
      "price": "2333000000000000000000"
    },
    {
      "x": 199,
      "y": 252,
      "size": 1,
      "price": "2333000000000000000000"
    },
    {
      "x": 199,
      "y": 253,
      "size": 1,
      "price": "2333000000000000000000"
    },
    {
      "x": 199,
      "y": 254,
      "size": 1,
      "price": "2333000000000000000000"
    },
    {
      "x": 200,
      "y": 254,
      "size": 1,
      "price": "2333000000000000000000"
    },
    {
      "x": 200,
      "y": 253,
      "size": 1,
      "price": "2333000000000000000000"
    },
    {
      "x": 200,
      "y": 252,
      "size": 1,
      "price": "2333000000000000000000"
    },
    {
      "x": 199,
      "y": 240,
      "size": 1,
      "price": "2333000000000000000000"
    },
    {
      "x": 199,
      "y": 241,
      "size": 1,
      "price": "2333000000000000000000"
    },
    {
      "x": 199,
      "y": 242,
      "size": 1,
      "price": "2333000000000000000000"
    },
    {
      "x": 200,
      "y": 242,
      "size": 1,
      "price": "2333000000000000000000"
    },
    {
      "x": 200,
      "y": 240,
      "size": 1,
      "price": "2333000000000000000000"
    },
    {
      "x": 200,
      "y": 241,
      "size": 1,
      "price": "2333000000000000000000"
    },
    {
      "x": 201,
      "y": 227,
      "size": 1,
      "price": "2333000000000000000000"
    },
    {
      "x": 202,
      "y": 227,
      "size": 1,
      "price": "2333000000000000000000"
    },
    {
      "x": 202,
      "y": 226,
      "size": 1,
      "price": "2333000000000000000000"
    },
    {
      "x": 202,
      "y": 225,
      "size": 1,
      "price": "2333000000000000000000"
    },
    {
      "x": 201,
      "y": 225,
      "size": 1,
      "price": "2333000000000000000000"
    },
    {
      "x": 201,
      "y": 226,
      "size": 1,
      "price": "2333000000000000000000"
    },
    {
      "x": 203,
      "y": 226,
      "size": 1,
      "price": "2333000000000000000000"
    },
    {
      "x": 203,
      "y": 225,
      "size": 1,
      "price": "2333000000000000000000"
    },
    {
      "x": 203,
      "y": 227,
      "size": 1,
      "price": "2333000000000000000000"
    },
    {
      "x": 203,
      "y": 243,
      "size": 1,
      "price": "2333000000000000000000"
    },
    {
      "x": 202,
      "y": 244,
      "size": 1,
      "price": "2333000000000000000000"
    },
    {
      "x": 201,
      "y": 245,
      "size": 1,
      "price": "2333000000000000000000"
    },
    {
      "x": 201,
      "y": 244,
      "size": 1,
      "price": "2333000000000000000000"
    },
    {
      "x": 201,
      "y": 243,
      "size": 1,
      "price": "2333000000000000000000"
    },
    {
      "x": 202,
      "y": 245,
      "size": 1,
      "price": "2333000000000000000000"
    },
    {
      "x": 202,
      "y": 243,
      "size": 1,
      "price": "2333000000000000000000"
    },
    {
      "x": 203,
      "y": 245,
      "size": 1,
      "price": "2333000000000000000000"
    },
    {
      "x": 203,
      "y": 244,
      "size": 1,
      "price": "2333000000000000000000"
    },
    {
      "x": 205,
      "y": 242,
      "size": 1,
      "price": "2333000000000000000000"
    },
    {
      "x": 206,
      "y": 241,
      "size": 1,
      "price": "2333000000000000000000"
    },
    {
      "x": 206,
      "y": 242,
      "size": 1,
      "price": "2333000000000000000000"
    },
    {
      "x": 206,
      "y": 240,
      "size": 1,
      "price": "2333000000000000000000"
    },
    {
      "x": 211,
      "y": 240,
      "size": 1,
      "price": "2333000000000000000000"
    },
    {
      "x": 211,
      "y": 241,
      "size": 1,
      "price": "2333000000000000000000"
    },
    {
      "x": 211,
      "y": 242,
      "size": 1,
      "price": "2333000000000000000000"
    },
    {
      "x": 211,
      "y": 243,
      "size": 1,
      "price": "2333000000000000000000"
    },
    {
      "x": 211,
      "y": 244,
      "size": 1,
      "price": "2333000000000000000000"
    },
    {
      "x": 211,
      "y": 245,
      "size": 1,
      "price": "2333000000000000000000"
    },
    {
      "x": 211,
      "y": 252,
      "size": 1,
      "price": "2333000000000000000000"
    },
    {
      "x": 211,
      "y": 253,
      "size": 1,
      "price": "2333000000000000000000"
    },
    {
      "x": 211,
      "y": 254,
      "size": 1,
      "price": "2333000000000000000000"
    },
    {
      "x": 213,
      "y": 245,
      "size": 1,
      "price": "2333000000000000000000"
    },
    {
      "x": 213,
      "y": 244,
      "size": 1,
      "price": "2333000000000000000000"
    },
    {
      "x": 213,
      "y": 255,
      "size": 1,
      "price": "2333000000000000000000"
    },
    {
      "x": 213,
      "y": 256,
      "size": 1,
      "price": "2333000000000000000000"
    },
    {
      "x": 212,
      "y": 241,
      "size": 1,
      "price": "2333000000000000000000"
    },
    {
      "x": 209,
      "y": 248,
      "size": 1,
      "price": "2333000000000000000000"
    },
    {
      "x": 209,
      "y": 247,
      "size": 1,
      "price": "2333000000000000000000"
    },
    {
      "x": 206,
      "y": 247,
      "size": 1,
      "price": "2333000000000000000000"
    },
    {
      "x": 206,
      "y": 246,
      "size": 1,
      "price": "2333000000000000000000"
    },
    {
      "x": 205,
      "y": 246,
      "size": 1,
      "price": "2333000000000000000000"
    },
    {
      "x": 204,
      "y": 246,
      "size": 1,
      "price": "2333000000000000000000"
    },
    {
      "x": 204,
      "y": 247,
      "size": 1,
      "price": "2333000000000000000000"
    },
    {
      "x": 204,
      "y": 248,
      "size": 1,
      "price": "2333000000000000000000"
    },
    {
      "x": 204,
      "y": 249,
      "size": 1,
      "price": "2333000000000000000000"
    },
    {
      "x": 204,
      "y": 250,
      "size": 1,
      "price": "2333000000000000000000"
    },
    {
      "x": 204,
      "y": 251,
      "size": 1,
      "price": "2333000000000000000000"
    },
    {
      "x": 204,
      "y": 258,
      "size": 1,
      "price": "2333000000000000000000"
    },
    {
      "x": 204,
      "y": 259,
      "size": 1,
      "price": "2333000000000000000000"
    },
    {
      "x": 204,
      "y": 260,
      "size": 1,
      "price": "2333000000000000000000"
    },
    {
      "x": 204,
      "y": 263,
      "size": 1,
      "price": "2333000000000000000000"
    },
    {
      "x": 205,
      "y": 263,
      "size": 1,
      "price": "2333000000000000000000"
    },
    {
      "x": 205,
      "y": 260,
      "size": 1,
      "price": "2333000000000000000000"
    },
    {
      "x": 205,
      "y": 259,
      "size": 1,
      "price": "2333000000000000000000"
    },
    {
      "x": 205,
      "y": 258,
      "size": 1,
      "price": "2333000000000000000000"
    },
    {
      "x": 205,
      "y": 251,
      "size": 1,
      "price": "2333000000000000000000"
    },
    {
      "x": 205,
      "y": 250,
      "size": 1,
      "price": "2333000000000000000000"
    },
    {
      "x": 205,
      "y": 249,
      "size": 1,
      "price": "2333000000000000000000"
    },
    {
      "x": 205,
      "y": 248,
      "size": 1,
      "price": "2333000000000000000000"
    },
    {
      "x": 205,
      "y": 247,
      "size": 1,
      "price": "2333000000000000000000"
    },
    {
      "x": 206,
      "y": 248,
      "size": 1,
      "price": "2333000000000000000000"
    },
    {
      "x": 206,
      "y": 249,
      "size": 1,
      "price": "2333000000000000000000"
    },
    {
      "x": 206,
      "y": 250,
      "size": 1,
      "price": "2333000000000000000000"
    },
    {
      "x": 206,
      "y": 251,
      "size": 1,
      "price": "2333000000000000000000"
    },
    {
      "x": 206,
      "y": 258,
      "size": 1,
      "price": "2333000000000000000000"
    },
    {
      "x": 206,
      "y": 259,
      "size": 1,
      "price": "2333000000000000000000"
    },
    {
      "x": 206,
      "y": 260,
      "size": 1,
      "price": "2333000000000000000000"
    },
    {
      "x": 206,
      "y": 263,
      "size": 1,
      "price": "2333000000000000000000"
    },
    {
      "x": 209,
      "y": 263,
      "size": 1,
      "price": "2333000000000000000000"
    },
    {
      "x": 201,
      "y": 255,
      "size": 1,
      "price": "2333000000000000000000"
    },
    {
      "x": 201,
      "y": 256,
      "size": 1,
      "price": "2333000000000000000000"
    },
    {
      "x": 201,
      "y": 257,
      "size": 1,
      "price": "2333000000000000000000"
    },
    {
      "x": 201,
      "y": 264,
      "size": 1,
      "price": "2333000000000000000000",
      "reserved": "0x7a9fe22691c811ea339d9b73150e6911a5343dca"
    },
    {
      "x": 201,
      "y": 265,
      "size": 1,
      "price": "2333000000000000000000"
    },
    {
      "x": 201,
      "y": 273,
      "size": 1,
      "price": "2333000000000000000000"
    },
    {
      "x": 201,
      "y": 274,
      "size": 1,
      "price": "2333000000000000000000"
    },
    {
      "x": 201,
      "y": 275,
      "size": 1,
      "price": "2333000000000000000000"
    },
    {
      "x": 201,
      "y": 279,
      "size": 1,
      "price": "2333000000000000000000"
    },
    {
      "x": 202,
      "y": 280,
      "size": 1,
      "price": "2333000000000000000000",
      "reserved": "0x7a9fe22691c811ea339d9b73150e6911a5343dca"
    },
    {
      "x": 203,
      "y": 280,
      "size": 1,
      "price": "2333000000000000000000"
    },
    {
      "x": 202,
      "y": 281,
      "size": 1,
      "price": "2333000000000000000000"
    },
    {
      "x": 201,
      "y": 281,
      "size": 1,
      "price": "2333000000000000000000"
    },
    {
      "x": 201,
      "y": 280,
      "size": 1,
      "price": "2333000000000000000000"
    },
    {
      "x": 203,
      "y": 281,
      "size": 1,
      "price": "2333000000000000000000"
    },
    {
      "x": 203,
      "y": 279,
      "size": 1,
      "price": "2333000000000000000000"
    },
    {
      "x": 203,
      "y": 275,
      "size": 1,
      "price": "2333000000000000000000"
    },
    {
      "x": 203,
      "y": 274,
      "size": 1,
      "price": "2333000000000000000000"
    },
    {
      "x": 203,
      "y": 273,
      "size": 1,
      "price": "2333000000000000000000"
    },
    {
      "x": 203,
      "y": 265,
      "size": 1,
      "price": "2333000000000000000000"
    },
    {
      "x": 203,
      "y": 264,
      "size": 1,
      "price": "2333000000000000000000"
    },
    {
      "x": 203,
      "y": 257,
      "size": 1,
      "price": "2333000000000000000000"
    },
    {
      "x": 203,
      "y": 256,
      "size": 1,
      "price": "2333000000000000000000"
    },
    {
      "x": 203,
      "y": 255,
      "size": 1,
      "price": "2333000000000000000000"
    },
    {
      "x": 202,
      "y": 255,
      "size": 1,
      "price": "2333000000000000000000"
    },
    {
      "x": 202,
      "y": 256,
      "size": 1,
      "price": "2333000000000000000000"
    },
    {
      "x": 202,
      "y": 257,
      "size": 1,
      "price": "2333000000000000000000"
    },
    {
      "x": 202,
      "y": 264,
      "size": 1,
      "price": "2333000000000000000000"
    },
    {
      "x": 202,
      "y": 265,
      "size": 1,
      "price": "2333000000000000000000"
    },
    {
      "x": 202,
      "y": 273,
      "size": 1,
      "price": "2333000000000000000000"
    },
    {
      "x": 202,
      "y": 274,
      "size": 1,
      "price": "2333000000000000000000"
    },
    {
      "x": 202,
      "y": 275,
      "size": 1,
      "price": "2333000000000000000000"
    },
    {
      "x": 202,
      "y": 279,
      "size": 1,
      "price": "2333000000000000000000"
    },
    {
      "x": 206,
      "y": 285,
      "size": 1,
      "price": "2333000000000000000000"
    },
    {
      "x": 205,
      "y": 285,
      "size": 1,
      "price": "2333000000000000000000"
    },
    {
      "x": 204,
      "y": 286,
      "size": 1,
      "price": "2333000000000000000000"
    },
    {
      "x": 204,
      "y": 285,
      "size": 1,
      "price": "2333000000000000000000"
    },
    {
      "x": 200,
      "y": 278,
      "size": 1,
      "price": "2333000000000000000000"
    },
    {
      "x": 199,
      "y": 278,
      "size": 1,
      "price": "2333000000000000000000"
    },
    {
      "x": 199,
      "y": 277,
      "size": 1,
      "price": "2333000000000000000000"
    },
    {
      "x": 199,
      "y": 276,
      "size": 1,
      "price": "2333000000000000000000"
    },
    {
      "x": 199,
      "y": 275,
      "size": 1,
      "price": "2333000000000000000000"
    },
    {
      "x": 199,
      "y": 274,
      "size": 1,
      "price": "2333000000000000000000"
    },
    {
      "x": 199,
      "y": 273,
      "size": 1,
      "price": "2333000000000000000000"
    },
    {
      "x": 200,
      "y": 270,
      "size": 1,
      "price": "2333000000000000000000"
    },
    {
      "x": 200,
      "y": 271,
      "size": 1,
      "price": "2333000000000000000000"
    },
    {
      "x": 200,
      "y": 272,
      "size": 1,
      "price": "2333000000000000000000"
    },
    {
      "x": 200,
      "y": 273,
      "size": 1,
      "price": "2333000000000000000000"
    },
    {
      "x": 200,
      "y": 277,
      "size": 1,
      "price": "2333000000000000000000"
    },
    {
      "x": 200,
      "y": 276,
      "size": 1,
      "price": "2333000000000000000000"
    },
    {
      "x": 200,
      "y": 275,
      "size": 1,
      "price": "2333000000000000000000"
    },
    {
      "x": 200,
      "y": 274,
      "size": 1,
      "price": "2333000000000000000000"
    },
    {
      "x": 198,
      "y": 272,
      "size": 1,
      "price": "2333000000000000000000"
    },
    {
      "x": 198,
      "y": 271,
      "size": 1,
      "price": "2333000000000000000000"
    },
    {
      "x": 198,
      "y": 270,
      "size": 1,
      "price": "2333000000000000000000"
    },
    {
      "x": 199,
      "y": 270,
      "size": 1,
      "price": "2333000000000000000000",
      "reserved": "0x7a9fe22691c811ea339d9b73150e6911a5343dca"
    },
    {
      "x": 199,
      "y": 271,
      "size": 1,
      "price": "2333000000000000000000"
    },
    {
      "x": 199,
      "y": 272,
      "size": 1,
      "price": "2333000000000000000000"
    },
    {
      "x": 195,
      "y": 276,
      "size": 1,
      "price": "2333000000000000000000"
    },
    {
      "x": 195,
      "y": 277,
      "size": 1,
      "price": "2333000000000000000000"
    },
    {
      "x": 195,
      "y": 278,
      "size": 1,
      "price": "2333000000000000000000"
    },
    {
      "x": 195,
      "y": 279,
      "size": 1,
      "price": "2333000000000000000000"
    },
    {
      "x": 195,
      "y": 280,
      "size": 1,
      "price": "2333000000000000000000"
    },
    {
      "x": 195,
      "y": 281,
      "size": 1,
      "price": "2333000000000000000000"
    },
    {
      "x": 195,
      "y": 282,
      "size": 1,
      "price": "2333000000000000000000"
    },
    {
      "x": 195,
      "y": 283,
      "size": 1,
      "price": "2333000000000000000000"
    },
    {
      "x": 195,
      "y": 284,
      "size": 1,
      "price": "2333000000000000000000"
    },
    {
      "x": 195,
      "y": 285,
      "size": 1,
      "price": "2333000000000000000000"
    },
    {
      "x": 195,
      "y": 286,
      "size": 1,
      "price": "2333000000000000000000"
    },
    {
      "x": 195,
      "y": 287,
      "size": 1,
      "price": "2333000000000000000000"
    },
    {
      "x": 195,
      "y": 289,
      "size": 1,
      "price": "2333000000000000000000"
    },
    {
      "x": 195,
      "y": 290,
      "size": 1,
      "price": "2333000000000000000000"
    },
    {
      "x": 196,
      "y": 290,
      "size": 1,
      "price": "2333000000000000000000"
    },
    {
      "x": 196,
      "y": 289,
      "size": 1,
      "price": "2333000000000000000000"
    },
    {
      "x": 196,
      "y": 287,
      "size": 1,
      "price": "2333000000000000000000"
    },
    {
      "x": 196,
      "y": 286,
      "size": 1,
      "price": "2333000000000000000000"
    },
    {
      "x": 196,
      "y": 285,
      "size": 1,
      "price": "2333000000000000000000"
    },
    {
      "x": 196,
      "y": 284,
      "size": 1,
      "price": "2333000000000000000000"
    },
    {
      "x": 196,
      "y": 283,
      "size": 1,
      "price": "2333000000000000000000"
    },
    {
      "x": 196,
      "y": 282,
      "size": 1,
      "price": "2333000000000000000000"
    },
    {
      "x": 196,
      "y": 281,
      "size": 1,
      "price": "2333000000000000000000"
    },
    {
      "x": 196,
      "y": 280,
      "size": 1,
      "price": "2333000000000000000000"
    },
    {
      "x": 196,
      "y": 279,
      "size": 1,
      "price": "2333000000000000000000"
    },
    {
      "x": 196,
      "y": 278,
      "size": 1,
      "price": "2333000000000000000000"
    },
    {
      "x": 196,
      "y": 277,
      "size": 1,
      "price": "2333000000000000000000"
    },
    {
      "x": 197,
      "y": 277,
      "size": 1,
      "price": "2333000000000000000000"
    },
    {
      "x": 197,
      "y": 276,
      "size": 1,
      "price": "2333000000000000000000"
    },
    {
      "x": 196,
      "y": 276,
      "size": 1,
      "price": "2333000000000000000000"
    },
    {
      "x": 197,
      "y": 278,
      "size": 1,
      "price": "2333000000000000000000"
    },
    {
      "x": 197,
      "y": 279,
      "size": 1,
      "price": "2333000000000000000000"
    },
    {
      "x": 197,
      "y": 280,
      "size": 1,
      "price": "2333000000000000000000"
    },
    {
      "x": 197,
      "y": 281,
      "size": 1,
      "price": "2333000000000000000000"
    },
    {
      "x": 197,
      "y": 282,
      "size": 1,
      "price": "2333000000000000000000"
    },
    {
      "x": 197,
      "y": 283,
      "size": 1,
      "price": "2333000000000000000000"
    },
    {
      "x": 197,
      "y": 284,
      "size": 1,
      "price": "2333000000000000000000"
    },
    {
      "x": 197,
      "y": 285,
      "size": 1,
      "price": "2333000000000000000000"
    },
    {
      "x": 197,
      "y": 286,
      "size": 1,
      "price": "2333000000000000000000"
    },
    {
      "x": 197,
      "y": 287,
      "size": 1,
      "price": "2333000000000000000000"
    },
    {
      "x": 197,
      "y": 289,
      "size": 1,
      "price": "2333000000000000000000"
    },
    {
      "x": 197,
      "y": 290,
      "size": 1,
      "price": "2333000000000000000000"
    },
    {
      "x": 199,
      "y": 290,
      "size": 1,
      "price": "2333000000000000000000"
    },
    {
      "x": 200,
      "y": 290,
      "size": 1,
      "price": "2333000000000000000000"
    },
    {
      "x": 202,
      "y": 290,
      "size": 1,
      "price": "2333000000000000000000"
    },
    {
      "x": 203,
      "y": 290,
      "size": 1,
      "price": "2333000000000000000000"
    },
    {
      "x": 204,
      "y": 290,
      "size": 1,
      "price": "2333000000000000000000"
    },
    {
      "x": 205,
      "y": 290,
      "size": 1,
      "price": "2333000000000000000000"
    },
    {
      "x": 205,
      "y": 289,
      "size": 1,
      "price": "2333000000000000000000"
    },
    {
      "x": 206,
      "y": 289,
      "size": 1,
      "price": "2333000000000000000000"
    },
    {
      "x": 207,
      "y": 289,
      "size": 1,
      "price": "2333000000000000000000"
    },
    {
      "x": 207,
      "y": 290,
      "size": 1,
      "price": "2333000000000000000000"
    },
    {
      "x": 208,
      "y": 290,
      "size": 1,
      "price": "2333000000000000000000"
    },
    {
      "x": 209,
      "y": 290,
      "size": 1,
      "price": "2333000000000000000000"
    },
    {
      "x": 209,
      "y": 289,
      "size": 1,
      "price": "2333000000000000000000"
    },
    {
      "x": 208,
      "y": 289,
      "size": 1,
      "price": "2333000000000000000000"
    },
    {
      "x": 206,
      "y": 290,
      "size": 1,
      "price": "2333000000000000000000"
    },
    {
      "x": 199,
      "y": 289,
      "size": 1,
      "price": "2333000000000000000000"
    },
    {
      "x": 200,
      "y": 289,
      "size": 1,
      "price": "2333000000000000000000"
    },
    {
      "x": 201,
      "y": 289,
      "size": 1,
      "price": "2333000000000000000000"
    },
    {
      "x": 202,
      "y": 289,
      "size": 1,
      "price": "2333000000000000000000"
    },
    {
      "x": 203,
      "y": 289,
      "size": 1,
      "price": "2333000000000000000000"
    },
    {
      "x": 204,
      "y": 289,
      "size": 1,
      "price": "2333000000000000000000"
    },
    {
      "x": 201,
      "y": 290,
      "size": 1,
      "price": "2333000000000000000000"
    },
    {
      "x": 213,
      "y": 293,
      "size": 1,
      "price": "2333000000000000000000"
    },
    {
      "x": 213,
      "y": 292,
      "size": 1,
      "price": "2333000000000000000000"
    },
    {
      "x": 213,
      "y": 291,
      "size": 1,
      "price": "2333000000000000000000"
    },
    {
      "x": 213,
      "y": 290,
      "size": 1,
      "price": "2333000000000000000000"
    },
    {
      "x": 213,
      "y": 289,
      "size": 1,
      "price": "2333000000000000000000"
    },
    {
      "x": 214,
      "y": 293,
      "size": 1,
      "price": "2333000000000000000000"
    },
    {
      "x": 214,
      "y": 292,
      "size": 1,
      "price": "2333000000000000000000"
    },
    {
      "x": 214,
      "y": 291,
      "size": 1,
      "price": "2333000000000000000000"
    },
    {
      "x": 215,
      "y": 293,
      "size": 1,
      "price": "2333000000000000000000"
    },
    {
      "x": 215,
      "y": 292,
      "size": 1,
      "price": "2333000000000000000000"
    },
    {
      "x": 215,
      "y": 291,
      "size": 1,
      "price": "2333000000000000000000"
    },
    {
      "x": 214,
      "y": 290,
      "size": 1,
      "price": "2333000000000000000000"
    },
    {
      "x": 214,
      "y": 289,
      "size": 1,
      "price": "2333000000000000000000"
    },
    {
      "x": 215,
      "y": 290,
      "size": 1,
      "price": "2333000000000000000000"
    },
    {
      "x": 215,
      "y": 289,
      "size": 1,
      "price": "2333000000000000000000"
    },
    {
      "x": 222,
      "y": 293,
      "size": 1,
      "price": "2333000000000000000000"
    },
    {
      "x": 223,
      "y": 293,
      "size": 1,
      "price": "2333000000000000000000"
    },
    {
      "x": 224,
      "y": 293,
      "size": 1,
      "price": "2333000000000000000000"
    },
    {
      "x": 224,
      "y": 292,
      "size": 1,
      "price": "2333000000000000000000"
    },
    {
      "x": 224,
      "y": 291,
      "size": 1,
      "price": "2333000000000000000000"
    },
    {
      "x": 224,
      "y": 290,
      "size": 1,
      "price": "2333000000000000000000"
    },
    {
      "x": 225,
      "y": 290,
      "size": 1,
      "price": "2333000000000000000000"
    },
    {
      "x": 226,
      "y": 290,
      "size": 1,
      "price": "2333000000000000000000"
    },
    {
      "x": 227,
      "y": 290,
      "size": 1,
      "price": "2333000000000000000000"
    },
    {
      "x": 228,
      "y": 290,
      "size": 1,
      "price": "2333000000000000000000"
    },
    {
      "x": 229,
      "y": 290,
      "size": 1,
      "price": "2333000000000000000000"
    },
    {
      "x": 230,
      "y": 290,
      "size": 1,
      "price": "2333000000000000000000"
    },
    {
      "x": 231,
      "y": 290,
      "size": 1,
      "price": "2333000000000000000000"
    },
    {
      "x": 232,
      "y": 290,
      "size": 1,
      "price": "2333000000000000000000"
    },
    {
      "x": 233,
      "y": 290,
      "size": 1,
      "price": "2333000000000000000000"
    },
    {
      "x": 234,
      "y": 290,
      "size": 1,
      "price": "2333000000000000000000"
    },
    {
      "x": 235,
      "y": 290,
      "size": 1,
      "price": "2333000000000000000000"
    },
    {
      "x": 236,
      "y": 290,
      "size": 1,
      "price": "2333000000000000000000"
    },
    {
      "x": 237,
      "y": 290,
      "size": 1,
      "price": "2333000000000000000000"
    },
    {
      "x": 238,
      "y": 290,
      "size": 1,
      "price": "2333000000000000000000"
    },
    {
      "x": 239,
      "y": 290,
      "size": 1,
      "price": "2333000000000000000000"
    },
    {
      "x": 224,
      "y": 289,
      "size": 1,
      "price": "2333000000000000000000"
    },
    {
      "x": 225,
      "y": 289,
      "size": 1,
      "price": "2333000000000000000000"
    },
    {
      "x": 226,
      "y": 289,
      "size": 1,
      "price": "2333000000000000000000"
    },
    {
      "x": 227,
      "y": 289,
      "size": 1,
      "price": "2333000000000000000000"
    },
    {
      "x": 228,
      "y": 289,
      "size": 1,
      "price": "2333000000000000000000"
    },
    {
      "x": 229,
      "y": 289,
      "size": 1,
      "price": "2333000000000000000000"
    },
    {
      "x": 230,
      "y": 289,
      "size": 1,
      "price": "2333000000000000000000"
    },
    {
      "x": 231,
      "y": 289,
      "size": 1,
      "price": "2333000000000000000000"
    },
    {
      "x": 232,
      "y": 289,
      "size": 1,
      "price": "2333000000000000000000"
    },
    {
      "x": 233,
      "y": 289,
      "size": 1,
      "price": "2333000000000000000000"
    },
    {
      "x": 234,
      "y": 289,
      "size": 1,
      "price": "2333000000000000000000"
    },
    {
      "x": 235,
      "y": 289,
      "size": 1,
      "price": "2333000000000000000000"
    },
    {
      "x": 236,
      "y": 289,
      "size": 1,
      "price": "2333000000000000000000"
    },
    {
      "x": 237,
      "y": 289,
      "size": 1,
      "price": "2333000000000000000000"
    },
    {
      "x": 238,
      "y": 289,
      "size": 1,
      "price": "2333000000000000000000"
    },
    {
      "x": 239,
      "y": 289,
      "size": 1,
      "price": "2333000000000000000000"
    },
    {
      "x": 216,
      "y": 296,
      "size": 1,
      "price": "2333000000000000000000"
    },
    {
      "x": 217,
      "y": 296,
      "size": 1,
      "price": "2333000000000000000000"
    },
    {
      "x": 218,
      "y": 296,
      "size": 1,
      "price": "2333000000000000000000"
    },
    {
      "x": 219,
      "y": 296,
      "size": 1,
      "price": "2333000000000000000000"
    },
    {
      "x": 220,
      "y": 296,
      "size": 1,
      "price": "2333000000000000000000"
    },
    {
      "x": 221,
      "y": 296,
      "size": 1,
      "price": "2333000000000000000000"
    },
    {
      "x": 221,
      "y": 295,
      "size": 1,
      "price": "2333000000000000000000"
    },
    {
      "x": 221,
      "y": 294,
      "size": 1,
      "price": "2333000000000000000000"
    },
    {
      "x": 217,
      "y": 294,
      "size": 1,
      "price": "2333000000000000000000"
    },
    {
      "x": 216,
      "y": 294,
      "size": 1,
      "price": "2333000000000000000000"
    },
    {
      "x": 216,
      "y": 295,
      "size": 1,
      "price": "2333000000000000000000"
    },
    {
      "x": 217,
      "y": 295,
      "size": 1,
      "price": "2333000000000000000000"
    },
    {
      "x": 218,
      "y": 295,
      "size": 1,
      "price": "2333000000000000000000"
    },
    {
      "x": 219,
      "y": 295,
      "size": 1,
      "price": "2333000000000000000000"
    },
    {
      "x": 220,
      "y": 295,
      "size": 1,
      "price": "2333000000000000000000"
    },
    {
      "x": 220,
      "y": 294,
      "size": 1,
      "price": "2333000000000000000000"
    },
    {
      "x": 219,
      "y": 294,
      "size": 1,
      "price": "2333000000000000000000"
    },
    {
      "x": 218,
      "y": 294,
      "size": 1,
      "price": "2333000000000000000000"
    },
    {
      "x": 234,
      "y": 293,
      "size": 1,
      "price": "2333000000000000000000"
    },
    {
      "x": 234,
      "y": 292,
      "size": 1,
      "price": "2333000000000000000000"
    },
    {
      "x": 234,
      "y": 291,
      "size": 1,
      "price": "2333000000000000000000"
    },
    {
      "x": 235,
      "y": 293,
      "size": 1,
      "price": "2333000000000000000000"
    },
    {
      "x": 236,
      "y": 293,
      "size": 1,
      "price": "2333000000000000000000"
    },
    {
      "x": 237,
      "y": 293,
      "size": 1,
      "price": "2333000000000000000000"
    },
    {
      "x": 238,
      "y": 293,
      "size": 1,
      "price": "2333000000000000000000"
    },
    {
      "x": 239,
      "y": 293,
      "size": 1,
      "price": "2333000000000000000000"
    },
    {
      "x": 239,
      "y": 292,
      "size": 1,
      "price": "2333000000000000000000"
    },
    {
      "x": 239,
      "y": 291,
      "size": 1,
      "price": "2333000000000000000000"
    },
    {
      "x": 238,
      "y": 291,
      "size": 1,
      "price": "2333000000000000000000"
    },
    {
      "x": 237,
      "y": 291,
      "size": 1,
      "price": "2333000000000000000000"
    },
    {
      "x": 235,
      "y": 291,
      "size": 1,
      "price": "2333000000000000000000"
    },
    {
      "x": 236,
      "y": 292,
      "size": 1,
      "price": "2333000000000000000000",
      "reserved": "0x7a9fe22691c811ea339d9b73150e6911a5343dca"
    },
    {
      "x": 237,
      "y": 292,
      "size": 1,
      "price": "2333000000000000000000"
    },
    {
      "x": 238,
      "y": 292,
      "size": 1,
      "price": "2333000000000000000000"
    },
    {
      "x": 236,
      "y": 291,
      "size": 1,
      "price": "2333000000000000000000"
    },
    {
      "x": 235,
      "y": 292,
      "size": 1,
      "price": "2333000000000000000000"
    },
    {
      "x": 264,
      "y": 204,
      "size": 1,
      "price": "2333000000000000000000"
    },
    {
      "x": 265,
      "y": 204,
      "size": 1,
      "price": "2333000000000000000000"
    },
    {
      "x": 266,
      "y": 204,
      "size": 1,
      "price": "2333000000000000000000"
    },
    {
      "x": 267,
      "y": 204,
      "size": 1,
      "price": "2333000000000000000000"
    },
    {
      "x": 268,
      "y": 204,
      "size": 1,
      "price": "2333000000000000000000"
    },
    {
      "x": 268,
      "y": 205,
      "size": 1,
      "price": "2333000000000000000000"
    },
    {
      "x": 269,
      "y": 205,
      "size": 1,
      "price": "2333000000000000000000"
    },
    {
      "x": 269,
      "y": 206,
      "size": 1,
      "price": "2333000000000000000000"
    },
    {
      "x": 269,
      "y": 207,
      "size": 1,
      "price": "2333000000000000000000"
    },
    {
      "x": 269,
      "y": 208,
      "size": 1,
      "price": "2333000000000000000000"
    },
    {
      "x": 268,
      "y": 208,
      "size": 1,
      "price": "2333000000000000000000"
    },
    {
      "x": 268,
      "y": 209,
      "size": 1,
      "price": "2333000000000000000000"
    },
    {
      "x": 268,
      "y": 207,
      "size": 1,
      "price": "2333000000000000000000"
    },
    {
      "x": 268,
      "y": 206,
      "size": 1,
      "price": "2333000000000000000000"
    },
    {
      "x": 269,
      "y": 204,
      "size": 1,
      "price": "2333000000000000000000"
    },
    {
      "x": 269,
      "y": 209,
      "size": 1,
      "price": "2333000000000000000000"
    },
    {
      "x": 267,
      "y": 208,
      "size": 1,
      "price": "2333000000000000000000"
    },
    {
      "x": 266,
      "y": 206,
      "size": 1,
      "price": "2333000000000000000000"
    },
    {
      "x": 266,
      "y": 205,
      "size": 1,
      "price": "2333000000000000000000"
    },
    {
      "x": 267,
      "y": 205,
      "size": 1,
      "price": "2333000000000000000000"
    },
    {
      "x": 264,
      "y": 205,
      "size": 1,
      "price": "2333000000000000000000"
    },
    {
      "x": 264,
      "y": 206,
      "size": 1,
      "price": "2333000000000000000000"
    },
    {
      "x": 265,
      "y": 206,
      "size": 1,
      "price": "2333000000000000000000"
    },
    {
      "x": 267,
      "y": 206,
      "size": 1,
      "price": "2333000000000000000000"
    },
    {
      "x": 265,
      "y": 205,
      "size": 1,
      "price": "2333000000000000000000"
    },
    {
      "x": 267,
      "y": 207,
      "size": 1,
      "price": "2333000000000000000000"
    },
    {
      "x": 267,
      "y": 209,
      "size": 1,
      "price": "2333000000000000000000"
    },
    {
      "x": 273,
      "y": 207,
      "size": 1,
      "price": "2333000000000000000000"
    },
    {
      "x": 274,
      "y": 207,
      "size": 1,
      "price": "2333000000000000000000"
    },
    {
      "x": 275,
      "y": 207,
      "size": 1,
      "price": "2333000000000000000000"
    },
    {
      "x": 275,
      "y": 208,
      "size": 1,
      "price": "2333000000000000000000"
    },
    {
      "x": 274,
      "y": 208,
      "size": 1,
      "price": "2333000000000000000000"
    },
    {
      "x": 273,
      "y": 208,
      "size": 1,
      "price": "2333000000000000000000"
    },
    {
      "x": 274,
      "y": 209,
      "size": 1,
      "price": "2333000000000000000000"
    },
    {
      "x": 275,
      "y": 209,
      "size": 1,
      "price": "2333000000000000000000"
    },
    {
      "x": 273,
      "y": 209,
      "size": 1,
      "price": "2333000000000000000000"
    },
    {
      "x": 266,
      "y": 210,
      "size": 1,
      "price": "2333000000000000000000"
    },
    {
      "x": 265,
      "y": 210,
      "size": 1,
      "price": "2333000000000000000000"
    },
    {
      "x": 265,
      "y": 211,
      "size": 1,
      "price": "2333000000000000000000"
    },
    {
      "x": 264,
      "y": 211,
      "size": 1,
      "price": "2333000000000000000000"
    },
    {
      "x": 273,
      "y": 211,
      "size": 1,
      "price": "2333000000000000000000"
    },
    {
      "x": 275,
      "y": 211,
      "size": 1,
      "price": "2333000000000000000000"
    },
    {
      "x": 276,
      "y": 211,
      "size": 1,
      "price": "2333000000000000000000"
    },
    {
      "x": 277,
      "y": 211,
      "size": 1,
      "price": "2333000000000000000000"
    },
    {
      "x": 278,
      "y": 211,
      "size": 1,
      "price": "2333000000000000000000",
      "reserved": "0x7a9fe22691c811ea339d9b73150e6911a5343dca"
    },
    {
      "x": 278,
      "y": 210,
      "size": 1,
      "price": "2333000000000000000000"
    },
    {
      "x": 277,
      "y": 210,
      "size": 1,
      "price": "2333000000000000000000"
    },
    {
      "x": 276,
      "y": 210,
      "size": 1,
      "price": "2333000000000000000000"
    },
    {
      "x": 275,
      "y": 210,
      "size": 1,
      "price": "2333000000000000000000"
    },
    {
      "x": 274,
      "y": 210,
      "size": 1,
      "price": "2333000000000000000000"
    },
    {
      "x": 273,
      "y": 210,
      "size": 1,
      "price": "2333000000000000000000"
    },
    {
      "x": 272,
      "y": 210,
      "size": 1,
      "price": "2333000000000000000000"
    },
    {
      "x": 271,
      "y": 210,
      "size": 1,
      "price": "2333000000000000000000"
    },
    {
      "x": 270,
      "y": 210,
      "size": 1,
      "price": "2333000000000000000000"
    },
    {
      "x": 264,
      "y": 210,
      "size": 1,
      "price": "2333000000000000000000"
    },
    {
      "x": 264,
      "y": 212,
      "size": 1,
      "price": "2333000000000000000000"
    },
    {
      "x": 265,
      "y": 212,
      "size": 1,
      "price": "2333000000000000000000"
    },
    {
      "x": 266,
      "y": 212,
      "size": 1,
      "price": "2333000000000000000000"
    },
    {
      "x": 270,
      "y": 212,
      "size": 1,
      "price": "2333000000000000000000"
    },
    {
      "x": 271,
      "y": 212,
      "size": 1,
      "price": "2333000000000000000000"
    },
    {
      "x": 272,
      "y": 212,
      "size": 1,
      "price": "2333000000000000000000"
    },
    {
      "x": 273,
      "y": 212,
      "size": 1,
      "price": "2333000000000000000000"
    },
    {
      "x": 274,
      "y": 212,
      "size": 1,
      "price": "2333000000000000000000"
    },
    {
      "x": 275,
      "y": 212,
      "size": 1,
      "price": "2333000000000000000000"
    },
    {
      "x": 276,
      "y": 212,
      "size": 1,
      "price": "2333000000000000000000"
    },
    {
      "x": 277,
      "y": 212,
      "size": 1,
      "price": "2333000000000000000000"
    },
    {
      "x": 278,
      "y": 212,
      "size": 1,
      "price": "2333000000000000000000"
    },
    {
      "x": 274,
      "y": 211,
      "size": 1,
      "price": "2333000000000000000000"
    },
    {
      "x": 272,
      "y": 211,
      "size": 1,
      "price": "2333000000000000000000"
    },
    {
      "x": 271,
      "y": 211,
      "size": 1,
      "price": "2333000000000000000000"
    },
    {
      "x": 270,
      "y": 211,
      "size": 1,
      "price": "2333000000000000000000"
    },
    {
      "x": 266,
      "y": 211,
      "size": 1,
      "price": "2333000000000000000000"
    },
    {
      "x": 288,
      "y": 204,
      "size": 1,
      "price": "2333000000000000000000"
    },
    {
      "x": 288,
      "y": 205,
      "size": 1,
      "price": "2333000000000000000000"
    },
    {
      "x": 288,
      "y": 206,
      "size": 1,
      "price": "2333000000000000000000"
    },
    {
      "x": 288,
      "y": 210,
      "size": 1,
      "price": "2333000000000000000000"
    },
    {
      "x": 288,
      "y": 211,
      "size": 1,
      "price": "2333000000000000000000"
    },
    {
      "x": 288,
      "y": 212,
      "size": 1,
      "price": "2333000000000000000000"
    },
    {
      "x": 288,
      "y": 213,
      "size": 1,
      "price": "2333000000000000000000"
    },
    {
      "x": 288,
      "y": 214,
      "size": 1,
      "price": "2333000000000000000000"
    },
    {
      "x": 288,
      "y": 215,
      "size": 1,
      "price": "2333000000000000000000"
    },
    {
      "x": 293,
      "y": 207,
      "size": 1,
      "price": "2333000000000000000000"
    },
    {
      "x": 293,
      "y": 208,
      "size": 1,
      "price": "2333000000000000000000"
    },
    {
      "x": 293,
      "y": 209,
      "size": 1,
      "price": "2333000000000000000000"
    },
    {
      "x": 293,
      "y": 225,
      "size": 1,
      "price": "2333000000000000000000"
    },
    {
      "x": 293,
      "y": 226,
      "size": 1,
      "price": "2333000000000000000000",
      "reserved": "0x7a9fe22691c811ea339d9b73150e6911a5343dca"
    },
    {
      "x": 293,
      "y": 227,
      "size": 1,
      "price": "2333000000000000000000"
    },
    {
      "x": 293,
      "y": 234,
      "size": 1,
      "price": "2333000000000000000000"
    },
    {
      "x": 293,
      "y": 235,
      "size": 1,
      "price": "2333000000000000000000"
    },
    {
      "x": 293,
      "y": 236,
      "size": 1,
      "price": "2333000000000000000000"
    },
    {
      "x": 293,
      "y": 237,
      "size": 1,
      "price": "2333000000000000000000"
    },
    {
      "x": 293,
      "y": 238,
      "size": 1,
      "price": "2333000000000000000000"
    },
    {
      "x": 293,
      "y": 239,
      "size": 1,
      "price": "2333000000000000000000"
    },
    {
      "x": 293,
      "y": 213,
      "size": 1,
      "price": "2333000000000000000000"
    },
    {
      "x": 293,
      "y": 214,
      "size": 1,
      "price": "2333000000000000000000"
    },
    {
      "x": 293,
      "y": 215,
      "size": 1,
      "price": "2333000000000000000000"
    },
    {
      "x": 293,
      "y": 216,
      "size": 1,
      "price": "2333000000000000000000"
    },
    {
      "x": 293,
      "y": 217,
      "size": 1,
      "price": "2333000000000000000000"
    },
    {
      "x": 293,
      "y": 218,
      "size": 1,
      "price": "2333000000000000000000"
    },
    {
      "x": 292,
      "y": 218,
      "size": 1,
      "price": "2333000000000000000000"
    },
    {
      "x": 292,
      "y": 217,
      "size": 1,
      "price": "2333000000000000000000"
    },
    {
      "x": 292,
      "y": 216,
      "size": 1,
      "price": "2333000000000000000000"
    },
    {
      "x": 292,
      "y": 215,
      "size": 1,
      "price": "2333000000000000000000"
    },
    {
      "x": 292,
      "y": 214,
      "size": 1,
      "price": "2333000000000000000000"
    },
    {
      "x": 292,
      "y": 213,
      "size": 1,
      "price": "2333000000000000000000"
    },
    {
      "x": 292,
      "y": 209,
      "size": 1,
      "price": "2333000000000000000000"
    },
    {
      "x": 292,
      "y": 208,
      "size": 1,
      "price": "2333000000000000000000"
    },
    {
      "x": 292,
      "y": 207,
      "size": 1,
      "price": "2333000000000000000000"
    },
    {
      "x": 291,
      "y": 214,
      "size": 1,
      "price": "2333000000000000000000"
    },
    {
      "x": 291,
      "y": 215,
      "size": 1,
      "price": "2333000000000000000000"
    },
    {
      "x": 291,
      "y": 216,
      "size": 1,
      "price": "2333000000000000000000"
    },
    {
      "x": 291,
      "y": 217,
      "size": 1,
      "price": "2333000000000000000000"
    },
    {
      "x": 291,
      "y": 218,
      "size": 1,
      "price": "2333000000000000000000"
    },
    {
      "x": 291,
      "y": 225,
      "size": 1,
      "price": "2333000000000000000000"
    },
    {
      "x": 291,
      "y": 226,
      "size": 1,
      "price": "2333000000000000000000"
    },
    {
      "x": 291,
      "y": 227,
      "size": 1,
      "price": "2333000000000000000000"
    },
    {
      "x": 290,
      "y": 227,
      "size": 1,
      "price": "2333000000000000000000"
    },
    {
      "x": 290,
      "y": 226,
      "size": 1,
      "price": "2333000000000000000000"
    },
    {
      "x": 290,
      "y": 225,
      "size": 1,
      "price": "2333000000000000000000"
    },
    {
      "x": 290,
      "y": 224,
      "size": 1,
      "price": "2333000000000000000000"
    },
    {
      "x": 290,
      "y": 223,
      "size": 1,
      "price": "2333000000000000000000"
    },
    {
      "x": 290,
      "y": 222,
      "size": 1,
      "price": "2333000000000000000000"
    },
    {
      "x": 290,
      "y": 215,
      "size": 1,
      "price": "2333000000000000000000"
    },
    {
      "x": 290,
      "y": 214,
      "size": 1,
      "price": "2333000000000000000000"
    },
    {
      "x": 290,
      "y": 213,
      "size": 1,
      "price": "2333000000000000000000"
    },
    {
      "x": 290,
      "y": 212,
      "size": 1,
      "price": "2333000000000000000000"
    },
    {
      "x": 290,
      "y": 211,
      "size": 1,
      "price": "2333000000000000000000"
    },
    {
      "x": 290,
      "y": 210,
      "size": 1,
      "price": "2333000000000000000000"
    },
    {
      "x": 290,
      "y": 206,
      "size": 1,
      "price": "2333000000000000000000",
      "reserved": "0x7a9fe22691c811ea339d9b73150e6911a5343dca"
    },
    {
      "x": 290,
      "y": 205,
      "size": 1,
      "price": "2333000000000000000000"
    },
    {
      "x": 290,
      "y": 204,
      "size": 1,
      "price": "2333000000000000000000"
    },
    {
      "x": 289,
      "y": 204,
      "size": 1,
      "price": "2333000000000000000000"
    },
    {
      "x": 289,
      "y": 205,
      "size": 1,
      "price": "2333000000000000000000"
    },
    {
      "x": 289,
      "y": 206,
      "size": 1,
      "price": "2333000000000000000000"
    },
    {
      "x": 289,
      "y": 210,
      "size": 1,
      "price": "2333000000000000000000"
    },
    {
      "x": 289,
      "y": 211,
      "size": 1,
      "price": "2333000000000000000000"
    },
    {
      "x": 289,
      "y": 212,
      "size": 1,
      "price": "2333000000000000000000"
    },
    {
      "x": 289,
      "y": 213,
      "size": 1,
      "price": "2333000000000000000000"
    },
    {
      "x": 289,
      "y": 214,
      "size": 1,
      "price": "2333000000000000000000"
    },
    {
      "x": 289,
      "y": 215,
      "size": 1,
      "price": "2333000000000000000000"
    },
    {
      "x": 289,
      "y": 222,
      "size": 1,
      "price": "2333000000000000000000"
    },
    {
      "x": 289,
      "y": 223,
      "size": 1,
      "price": "2333000000000000000000"
    },
    {
      "x": 289,
      "y": 224,
      "size": 1,
      "price": "2333000000000000000000"
    },
    {
      "x": 289,
      "y": 225,
      "size": 1,
      "price": "2333000000000000000000"
    },
    {
      "x": 289,
      "y": 226,
      "size": 1,
      "price": "2333000000000000000000"
    },
    {
      "x": 289,
      "y": 227,
      "size": 1,
      "price": "2333000000000000000000"
    },
    {
      "x": 288,
      "y": 227,
      "size": 1,
      "price": "2333000000000000000000"
    },
    {
      "x": 288,
      "y": 226,
      "size": 1,
      "price": "2333000000000000000000"
    },
    {
      "x": 288,
      "y": 225,
      "size": 1,
      "price": "2333000000000000000000"
    },
    {
      "x": 288,
      "y": 223,
      "size": 1,
      "price": "2333000000000000000000"
    },
    {
      "x": 288,
      "y": 224,
      "size": 1,
      "price": "2333000000000000000000"
    },
    {
      "x": 288,
      "y": 222,
      "size": 1,
      "price": "2333000000000000000000"
    },
    {
      "x": 291,
      "y": 207,
      "size": 1,
      "price": "2333000000000000000000"
    },
    {
      "x": 291,
      "y": 208,
      "size": 1,
      "price": "2333000000000000000000"
    },
    {
      "x": 291,
      "y": 209,
      "size": 1,
      "price": "2333000000000000000000"
    },
    {
      "x": 291,
      "y": 213,
      "size": 1,
      "price": "2333000000000000000000"
    },
    {
      "x": 292,
      "y": 227,
      "size": 1,
      "price": "2333000000000000000000"
    },
    {
      "x": 292,
      "y": 226,
      "size": 1,
      "price": "2333000000000000000000"
    },
    {
      "x": 292,
      "y": 225,
      "size": 1,
      "price": "2333000000000000000000"
    },
    {
      "x": 294,
      "y": 225,
      "size": 1,
      "price": "2333000000000000000000"
    },
    {
      "x": 295,
      "y": 225,
      "size": 1,
      "price": "2333000000000000000000"
    },
    {
      "x": 296,
      "y": 225,
      "size": 1,
      "price": "2333000000000000000000"
    },
    {
      "x": 296,
      "y": 226,
      "size": 1,
      "price": "2333000000000000000000"
    },
    {
      "x": 296,
      "y": 227,
      "size": 1,
      "price": "2333000000000000000000"
    },
    {
      "x": 295,
      "y": 227,
      "size": 1,
      "price": "2333000000000000000000"
    },
    {
      "x": 294,
      "y": 227,
      "size": 1,
      "price": "2333000000000000000000"
    },
    {
      "x": 294,
      "y": 226,
      "size": 1,
      "price": "2333000000000000000000"
    },
    {
      "x": 295,
      "y": 226,
      "size": 1,
      "price": "2333000000000000000000"
    },
    {
      "x": 292,
      "y": 239,
      "size": 1,
      "price": "2333000000000000000000"
    },
    {
      "x": 291,
      "y": 239,
      "size": 1,
      "price": "2333000000000000000000"
    },
    {
      "x": 290,
      "y": 239,
      "size": 1,
      "price": "2333000000000000000000"
    },
    {
      "x": 290,
      "y": 240,
      "size": 1,
      "price": "2333000000000000000000"
    },
    {
      "x": 290,
      "y": 241,
      "size": 1,
      "price": "2333000000000000000000"
    },
    {
      "x": 290,
      "y": 242,
      "size": 1,
      "price": "2333000000000000000000"
    },
    {
      "x": 289,
      "y": 242,
      "size": 1,
      "price": "2333000000000000000000"
    },
    {
      "x": 288,
      "y": 242,
      "size": 1,
      "price": "2333000000000000000000"
    },
    {
      "x": 288,
      "y": 237,
      "size": 1,
      "price": "2333000000000000000000"
    },
    {
      "x": 291,
      "y": 234,
      "size": 1,
      "price": "2333000000000000000000"
    },
    {
      "x": 292,
      "y": 234,
      "size": 1,
      "price": "2333000000000000000000"
    },
    {
      "x": 292,
      "y": 237,
      "size": 1,
      "price": "2333000000000000000000"
    },
    {
      "x": 291,
      "y": 237,
      "size": 1,
      "price": "2333000000000000000000"
    },
    {
      "x": 290,
      "y": 237,
      "size": 1,
      "price": "2333000000000000000000"
    },
    {
      "x": 289,
      "y": 237,
      "size": 1,
      "price": "2333000000000000000000"
    },
    {
      "x": 289,
      "y": 238,
      "size": 1,
      "price": "2333000000000000000000"
    },
    {
      "x": 289,
      "y": 239,
      "size": 1,
      "price": "2333000000000000000000"
    },
    {
      "x": 289,
      "y": 240,
      "size": 1,
      "price": "2333000000000000000000"
    },
    {
      "x": 289,
      "y": 241,
      "size": 1,
      "price": "2333000000000000000000"
    },
    {
      "x": 288,
      "y": 241,
      "size": 1,
      "price": "2333000000000000000000"
    },
    {
      "x": 288,
      "y": 240,
      "size": 1,
      "price": "2333000000000000000000"
    },
    {
      "x": 288,
      "y": 239,
      "size": 1,
      "price": "2333000000000000000000"
    },
    {
      "x": 291,
      "y": 236,
      "size": 1,
      "price": "2333000000000000000000"
    },
    {
      "x": 290,
      "y": 238,
      "size": 1,
      "price": "2333000000000000000000"
    },
    {
      "x": 291,
      "y": 238,
      "size": 1,
      "price": "2333000000000000000000"
    },
    {
      "x": 292,
      "y": 238,
      "size": 1,
      "price": "2333000000000000000000"
    },
    {
      "x": 288,
      "y": 238,
      "size": 1,
      "price": "2333000000000000000000"
    },
    {
      "x": 292,
      "y": 236,
      "size": 1,
      "price": "2333000000000000000000"
    },
    {
      "x": 292,
      "y": 235,
      "size": 1,
      "price": "2333000000000000000000"
    },
    {
      "x": 291,
      "y": 235,
      "size": 1,
      "price": "2333000000000000000000"
    },
    {
      "x": 291,
      "y": 243,
      "size": 1,
      "price": "2333000000000000000000"
    },
    {
      "x": 292,
      "y": 243,
      "size": 1,
      "price": "2333000000000000000000"
    },
    {
      "x": 293,
      "y": 243,
      "size": 1,
      "price": "2333000000000000000000"
    },
    {
      "x": 293,
      "y": 244,
      "size": 1,
      "price": "2333000000000000000000"
    },
    {
      "x": 293,
      "y": 245,
      "size": 1,
      "price": "2333000000000000000000"
    },
    {
      "x": 292,
      "y": 245,
      "size": 1,
      "price": "2333000000000000000000"
    },
    {
      "x": 291,
      "y": 245,
      "size": 1,
      "price": "2333000000000000000000"
    },
    {
      "x": 291,
      "y": 244,
      "size": 1,
      "price": "2333000000000000000000"
    },
    {
      "x": 292,
      "y": 244,
      "size": 1,
      "price": "2333000000000000000000",
      "reserved": "0x7a9fe22691c811ea339d9b73150e6911a5343dca"
    },
    {
      "x": 293,
      "y": 269,
      "size": 1,
      "price": "2333000000000000000000"
    },
    {
      "x": 293,
      "y": 268,
      "size": 1,
      "price": "2333000000000000000000"
    },
    {
      "x": 293,
      "y": 267,
      "size": 1,
      "price": "2333000000000000000000"
    },
    {
      "x": 293,
      "y": 266,
      "size": 1,
      "price": "2333000000000000000000"
    },
    {
      "x": 293,
      "y": 265,
      "size": 1,
      "price": "2333000000000000000000"
    },
    {
      "x": 293,
      "y": 264,
      "size": 1,
      "price": "2333000000000000000000"
    },
    {
      "x": 293,
      "y": 263,
      "size": 1,
      "price": "2333000000000000000000"
    },
    {
      "x": 293,
      "y": 262,
      "size": 1,
      "price": "2333000000000000000000"
    },
    {
      "x": 292,
      "y": 262,
      "size": 1,
      "price": "2333000000000000000000"
    },
    {
      "x": 291,
      "y": 262,
      "size": 1,
      "price": "2333000000000000000000"
    },
    {
      "x": 291,
      "y": 261,
      "size": 1,
      "price": "2333000000000000000000"
    },
    {
      "x": 292,
      "y": 261,
      "size": 1,
      "price": "2333000000000000000000"
    },
    {
      "x": 293,
      "y": 261,
      "size": 1,
      "price": "2333000000000000000000"
    },
    {
      "x": 292,
      "y": 264,
      "size": 1,
      "price": "2333000000000000000000"
    },
    {
      "x": 292,
      "y": 265,
      "size": 1,
      "price": "2333000000000000000000"
    },
    {
      "x": 291,
      "y": 265,
      "size": 1,
      "price": "2333000000000000000000"
    },
    {
      "x": 291,
      "y": 264,
      "size": 1,
      "price": "2333000000000000000000",
      "reserved": "0x7a9fe22691c811ea339d9b73150e6911a5343dca"
    },
    {
      "x": 291,
      "y": 263,
      "size": 1,
      "price": "2333000000000000000000"
    },
    {
      "x": 292,
      "y": 263,
      "size": 1,
      "price": "2333000000000000000000"
    },
    {
      "x": 292,
      "y": 266,
      "size": 1,
      "price": "2333000000000000000000"
    },
    {
      "x": 292,
      "y": 267,
      "size": 1,
      "price": "2333000000000000000000"
    },
    {
      "x": 291,
      "y": 267,
      "size": 1,
      "price": "2333000000000000000000"
    },
    {
      "x": 291,
      "y": 266,
      "size": 1,
      "price": "2333000000000000000000"
    },
    {
      "x": 290,
      "y": 266,
      "size": 1,
      "price": "2333000000000000000000"
    },
    {
      "x": 290,
      "y": 265,
      "size": 1,
      "price": "2333000000000000000000"
    },
    {
      "x": 292,
      "y": 268,
      "size": 1,
      "price": "2333000000000000000000"
    },
    {
      "x": 291,
      "y": 268,
      "size": 1,
      "price": "2333000000000000000000"
    },
    {
      "x": 289,
      "y": 266,
      "size": 1,
      "price": "2333000000000000000000"
    },
    {
      "x": 289,
      "y": 265,
      "size": 1,
      "price": "2333000000000000000000"
    },
    {
      "x": 289,
      "y": 264,
      "size": 1,
      "price": "2333000000000000000000"
    },
    {
      "x": 290,
      "y": 264,
      "size": 1,
      "price": "2333000000000000000000"
    },
    {
      "x": 288,
      "y": 265,
      "size": 1,
      "price": "2333000000000000000000"
    },
    {
      "x": 288,
      "y": 266,
      "size": 1,
      "price": "2333000000000000000000"
    },
    {
      "x": 288,
      "y": 264,
      "size": 1,
      "price": "2333000000000000000000"
    },
    {
      "x": 288,
      "y": 260,
      "size": 1,
      "price": "2333000000000000000000"
    },
    {
      "x": 288,
      "y": 259,
      "size": 1,
      "price": "2333000000000000000000"
    },
    {
      "x": 288,
      "y": 258,
      "size": 1,
      "price": "2333000000000000000000"
    },
    {
      "x": 288,
      "y": 254,
      "size": 1,
      "price": "2333000000000000000000"
    },
    {
      "x": 288,
      "y": 253,
      "size": 1,
      "price": "2333000000000000000000"
    },
    {
      "x": 288,
      "y": 252,
      "size": 1,
      "price": "2333000000000000000000"
    },
    {
      "x": 289,
      "y": 252,
      "size": 1,
      "price": "2333000000000000000000"
    },
    {
      "x": 289,
      "y": 253,
      "size": 1,
      "price": "2333000000000000000000"
    },
    {
      "x": 289,
      "y": 254,
      "size": 1,
      "price": "2333000000000000000000"
    },
    {
      "x": 289,
      "y": 258,
      "size": 1,
      "price": "2333000000000000000000"
    },
    {
      "x": 289,
      "y": 259,
      "size": 1,
      "price": "2333000000000000000000"
    },
    {
      "x": 289,
      "y": 260,
      "size": 1,
      "price": "2333000000000000000000"
    },
    {
      "x": 290,
      "y": 260,
      "size": 1,
      "price": "2333000000000000000000"
    },
    {
      "x": 290,
      "y": 259,
      "size": 1,
      "price": "2333000000000000000000"
    },
    {
      "x": 290,
      "y": 258,
      "size": 1,
      "price": "2333000000000000000000"
    },
    {
      "x": 290,
      "y": 254,
      "size": 1,
      "price": "2333000000000000000000"
    },
    {
      "x": 290,
      "y": 253,
      "size": 1,
      "price": "2333000000000000000000"
    },
    {
      "x": 290,
      "y": 252,
      "size": 1,
      "price": "2333000000000000000000"
    },
    {
      "x": 287,
      "y": 255,
      "size": 1,
      "price": "2333000000000000000000"
    },
    {
      "x": 287,
      "y": 257,
      "size": 1,
      "price": "2333000000000000000000"
    },
    {
      "x": 286,
      "y": 257,
      "size": 1,
      "price": "2333000000000000000000"
    },
    {
      "x": 285,
      "y": 257,
      "size": 1,
      "price": "2333000000000000000000"
    },
    {
      "x": 277,
      "y": 257,
      "size": 1,
      "price": "2333000000000000000000"
    },
    {
      "x": 276,
      "y": 257,
      "size": 1,
      "price": "2333000000000000000000"
    },
    {
      "x": 269,
      "y": 257,
      "size": 1,
      "price": "2333000000000000000000"
    },
    {
      "x": 268,
      "y": 257,
      "size": 1,
      "price": "2333000000000000000000"
    },
    {
      "x": 267,
      "y": 257,
      "size": 1,
      "price": "2333000000000000000000"
    },
    {
      "x": 268,
      "y": 256,
      "size": 1,
      "price": "2333000000000000000000"
    },
    {
      "x": 269,
      "y": 256,
      "size": 1,
      "price": "2333000000000000000000"
    },
    {
      "x": 277,
      "y": 256,
      "size": 1,
      "price": "2333000000000000000000"
    },
    {
      "x": 285,
      "y": 256,
      "size": 1,
      "price": "2333000000000000000000"
    },
    {
      "x": 286,
      "y": 256,
      "size": 1,
      "price": "2333000000000000000000"
    },
    {
      "x": 287,
      "y": 256,
      "size": 1,
      "price": "2333000000000000000000"
    },
    {
      "x": 286,
      "y": 255,
      "size": 1,
      "price": "2333000000000000000000"
    },
    {
      "x": 284,
      "y": 254,
      "size": 1,
      "price": "2333000000000000000000"
    },
    {
      "x": 285,
      "y": 255,
      "size": 1,
      "price": "2333000000000000000000"
    },
    {
      "x": 283,
      "y": 253,
      "size": 1,
      "price": "2333000000000000000000"
    },
    {
      "x": 283,
      "y": 252,
      "size": 1,
      "price": "2333000000000000000000"
    },
    {
      "x": 282,
      "y": 252,
      "size": 1,
      "price": "2333000000000000000000"
    },
    {
      "x": 281,
      "y": 252,
      "size": 1,
      "price": "2333000000000000000000"
    },
    {
      "x": 280,
      "y": 252,
      "size": 1,
      "price": "2333000000000000000000"
    },
    {
      "x": 279,
      "y": 252,
      "size": 1,
      "price": "2333000000000000000000"
    },
    {
      "x": 278,
      "y": 252,
      "size": 1,
      "price": "2333000000000000000000"
    },
    {
      "x": 277,
      "y": 252,
      "size": 1,
      "price": "2333000000000000000000"
    },
    {
      "x": 276,
      "y": 252,
      "size": 1,
      "price": "2333000000000000000000"
    },
    {
      "x": 269,
      "y": 252,
      "size": 1,
      "price": "2333000000000000000000"
    },
    {
      "x": 268,
      "y": 252,
      "size": 1,
      "price": "2333000000000000000000",
      "reserved": "0x7a9fe22691c811ea339d9b73150e6911a5343dca"
    },
    {
      "x": 267,
      "y": 252,
      "size": 1,
      "price": "2333000000000000000000"
    },
    {
      "x": 267,
      "y": 253,
      "size": 1,
      "price": "2333000000000000000000"
    },
    {
      "x": 268,
      "y": 253,
      "size": 1,
      "price": "2333000000000000000000"
    },
    {
      "x": 276,
      "y": 253,
      "size": 1,
      "price": "2333000000000000000000"
    },
    {
      "x": 277,
      "y": 253,
      "size": 1,
      "price": "2333000000000000000000"
    },
    {
      "x": 278,
      "y": 253,
      "size": 1,
      "price": "2333000000000000000000"
    },
    {
      "x": 279,
      "y": 253,
      "size": 1,
      "price": "2333000000000000000000"
    },
    {
      "x": 281,
      "y": 253,
      "size": 1,
      "price": "2333000000000000000000"
    },
    {
      "x": 282,
      "y": 253,
      "size": 1,
      "price": "2333000000000000000000"
    },
    {
      "x": 284,
      "y": 253,
      "size": 1,
      "price": "2333000000000000000000"
    },
    {
      "x": 282,
      "y": 254,
      "size": 1,
      "price": "2333000000000000000000"
    },
    {
      "x": 281,
      "y": 254,
      "size": 1,
      "price": "2333000000000000000000",
      "reserved": "0x7a9fe22691c811ea339d9b73150e6911a5343dca"
    },
    {
      "x": 280,
      "y": 254,
      "size": 1,
      "price": "2333000000000000000000"
    },
    {
      "x": 279,
      "y": 254,
      "size": 1,
      "price": "2333000000000000000000"
    },
    {
      "x": 278,
      "y": 254,
      "size": 1,
      "price": "2333000000000000000000"
    },
    {
      "x": 277,
      "y": 254,
      "size": 1,
      "price": "2333000000000000000000"
    },
    {
      "x": 276,
      "y": 254,
      "size": 1,
      "price": "2333000000000000000000"
    },
    {
      "x": 269,
      "y": 254,
      "size": 1,
      "price": "2333000000000000000000"
    },
    {
      "x": 268,
      "y": 254,
      "size": 1,
      "price": "2333000000000000000000"
    },
    {
      "x": 267,
      "y": 254,
      "size": 1,
      "price": "2333000000000000000000"
    },
    {
      "x": 283,
      "y": 254,
      "size": 1,
      "price": "2333000000000000000000"
    },
    {
      "x": 280,
      "y": 253,
      "size": 1,
      "price": "2333000000000000000000"
    },
    {
      "x": 255,
      "y": 222,
      "size": 1,
      "price": "2333000000000000000000"
    },
    {
      "x": 255,
      "y": 223,
      "size": 1,
      "price": "2333000000000000000000"
    },
    {
      "x": 256,
      "y": 281,
      "size": 1,
      "price": "2333000000000000000000"
    },
    {
      "x": 256,
      "y": 282,
      "size": 1,
      "price": "2333000000000000000000"
    },
    {
      "x": 257,
      "y": 282,
      "size": 1,
      "price": "2333000000000000000000"
    },
    {
      "x": 257,
      "y": 283,
      "size": 1,
      "price": "2333000000000000000000"
    },
    {
      "x": 257,
      "y": 281,
      "size": 1,
      "price": "2333000000000000000000"
    },
    {
      "x": 257,
      "y": 280,
      "size": 1,
      "price": "2333000000000000000000"
    },
    {
      "x": 257,
      "y": 278,
      "size": 1,
      "price": "2333000000000000000000"
    },
    {
      "x": 257,
      "y": 277,
      "size": 1,
      "price": "2333000000000000000000"
    },
    {
      "x": 256,
      "y": 276,
      "size": 1,
      "price": "2333000000000000000000"
    },
    {
      "x": 256,
      "y": 277,
      "size": 1,
      "price": "2333000000000000000000"
    },
    {
      "x": 256,
      "y": 278,
      "size": 1,
      "price": "2333000000000000000000"
    },
    {
      "x": 256,
      "y": 280,
      "size": 1,
      "price": "2333000000000000000000"
    },
    {
      "x": 256,
      "y": 283,
      "size": 1,
      "price": "2333000000000000000000"
    },
    {
      "x": 259,
      "y": 281,
      "size": 1,
      "price": "2333000000000000000000"
    },
    {
      "x": 259,
      "y": 280,
      "size": 1,
      "price": "2333000000000000000000"
    },
    {
      "x": 259,
      "y": 275,
      "size": 1,
      "price": "2333000000000000000000"
    },
    {
      "x": 259,
      "y": 274,
      "size": 1,
      "price": "2333000000000000000000"
    },
    {
      "x": 259,
      "y": 272,
      "size": 1,
      "price": "2333000000000000000000"
    },
    {
      "x": 259,
      "y": 271,
      "size": 1,
      "price": "2333000000000000000000"
    },
    {
      "x": 259,
      "y": 270,
      "size": 1,
      "price": "2333000000000000000000"
    },
    {
      "x": 259,
      "y": 251,
      "size": 1,
      "price": "2333000000000000000000"
    },
    {
      "x": 259,
      "y": 250,
      "size": 1,
      "price": "2333000000000000000000"
    },
    {
      "x": 259,
      "y": 245,
      "size": 1,
      "price": "2333000000000000000000"
    },
    {
      "x": 259,
      "y": 244,
      "size": 1,
      "price": "2333000000000000000000"
    },
    {
      "x": 259,
      "y": 243,
      "size": 1,
      "price": "2333000000000000000000"
    },
    {
      "x": 259,
      "y": 239,
      "size": 1,
      "price": "2333000000000000000000"
    },
    {
      "x": 259,
      "y": 237,
      "size": 1,
      "price": "2333000000000000000000"
    },
    {
      "x": 259,
      "y": 233,
      "size": 1,
      "price": "2333000000000000000000"
    },
    {
      "x": 259,
      "y": 232,
      "size": 1,
      "price": "2333000000000000000000"
    },
    {
      "x": 259,
      "y": 231,
      "size": 1,
      "price": "2333000000000000000000"
    },
    {
      "x": 259,
      "y": 230,
      "size": 1,
      "price": "2333000000000000000000"
    },
    {
      "x": 259,
      "y": 229,
      "size": 1,
      "price": "2333000000000000000000"
    },
    {
      "x": 259,
      "y": 228,
      "size": 1,
      "price": "2333000000000000000000"
    },
    {
      "x": 259,
      "y": 227,
      "size": 1,
      "price": "2333000000000000000000"
    },
    {
      "x": 259,
      "y": 226,
      "size": 1,
      "price": "2333000000000000000000"
    },
    {
      "x": 259,
      "y": 221,
      "size": 1,
      "price": "2333000000000000000000"
    },
    {
      "x": 259,
      "y": 220,
      "size": 1,
      "price": "2333000000000000000000"
    },
    {
      "x": 259,
      "y": 219,
      "size": 1,
      "price": "2333000000000000000000"
    },
    {
      "x": 261,
      "y": 217,
      "size": 1,
      "price": "2333000000000000000000"
    },
    {
      "x": 261,
      "y": 218,
      "size": 1,
      "price": "2333000000000000000000"
    },
    {
      "x": 261,
      "y": 219,
      "size": 1,
      "price": "2333000000000000000000"
    },
    {
      "x": 261,
      "y": 220,
      "size": 1,
      "price": "2333000000000000000000"
    },
    {
      "x": 261,
      "y": 221,
      "size": 1,
      "price": "2333000000000000000000"
    },
    {
      "x": 261,
      "y": 222,
      "size": 1,
      "price": "2333000000000000000000"
    },
    {
      "x": 261,
      "y": 223,
      "size": 1,
      "price": "2333000000000000000000"
    },
    {
      "x": 261,
      "y": 224,
      "size": 1,
      "price": "2333000000000000000000"
    },
    {
      "x": 261,
      "y": 226,
      "size": 1,
      "price": "2333000000000000000000"
    },
    {
      "x": 261,
      "y": 227,
      "size": 1,
      "price": "2333000000000000000000"
    },
    {
      "x": 261,
      "y": 231,
      "size": 1,
      "price": "2333000000000000000000",
      "reserved": "0x7a9fe22691c811ea339d9b73150e6911a5343dca"
    },
    {
      "x": 261,
      "y": 232,
      "size": 1,
      "price": "2333000000000000000000"
    },
    {
      "x": 261,
      "y": 233,
      "size": 1,
      "price": "2333000000000000000000"
    },
    {
      "x": 261,
      "y": 234,
      "size": 1,
      "price": "2333000000000000000000"
    },
    {
      "x": 261,
      "y": 235,
      "size": 1,
      "price": "2333000000000000000000"
    },
    {
      "x": 261,
      "y": 236,
      "size": 1,
      "price": "2333000000000000000000"
    },
    {
      "x": 261,
      "y": 240,
      "size": 1,
      "price": "2333000000000000000000"
    },
    {
      "x": 261,
      "y": 241,
      "size": 1,
      "price": "2333000000000000000000"
    },
    {
      "x": 261,
      "y": 242,
      "size": 1,
      "price": "2333000000000000000000"
    },
    {
      "x": 261,
      "y": 243,
      "size": 1,
      "price": "2333000000000000000000"
    },
    {
      "x": 261,
      "y": 244,
      "size": 1,
      "price": "2333000000000000000000"
    },
    {
      "x": 261,
      "y": 245,
      "size": 1,
      "price": "2333000000000000000000"
    },
    {
      "x": 261,
      "y": 246,
      "size": 1,
      "price": "2333000000000000000000"
    },
    {
      "x": 261,
      "y": 247,
      "size": 1,
      "price": "2333000000000000000000"
    },
    {
      "x": 261,
      "y": 248,
      "size": 1,
      "price": "2333000000000000000000"
    },
    {
      "x": 261,
      "y": 250,
      "size": 1,
      "price": "2333000000000000000000"
    },
    {
      "x": 261,
      "y": 251,
      "size": 1,
      "price": "2333000000000000000000"
    },
    {
      "x": 261,
      "y": 270,
      "size": 1,
      "price": "2333000000000000000000"
    },
    {
      "x": 261,
      "y": 271,
      "size": 1,
      "price": "2333000000000000000000"
    },
    {
      "x": 261,
      "y": 272,
      "size": 1,
      "price": "2333000000000000000000"
    },
    {
      "x": 261,
      "y": 276,
      "size": 1,
      "price": "2333000000000000000000"
    },
    {
      "x": 261,
      "y": 277,
      "size": 1,
      "price": "2333000000000000000000"
    },
    {
      "x": 261,
      "y": 278,
      "size": 1,
      "price": "2333000000000000000000",
      "reserved": "0x7a9fe22691c811ea339d9b73150e6911a5343dca"
    },
    {
      "x": 261,
      "y": 280,
      "size": 1,
      "price": "2333000000000000000000"
    },
    {
      "x": 261,
      "y": 281,
      "size": 1,
      "price": "2333000000000000000000"
    },
    {
      "x": 263,
      "y": 281,
      "size": 1,
      "price": "2333000000000000000000"
    },
    {
      "x": 263,
      "y": 280,
      "size": 1,
      "price": "2333000000000000000000"
    },
    {
      "x": 263,
      "y": 278,
      "size": 1,
      "price": "2333000000000000000000"
    },
    {
      "x": 263,
      "y": 277,
      "size": 1,
      "price": "2333000000000000000000"
    },
    {
      "x": 263,
      "y": 276,
      "size": 1,
      "price": "2333000000000000000000"
    },
    {
      "x": 263,
      "y": 272,
      "size": 1,
      "price": "2333000000000000000000"
    },
    {
      "x": 263,
      "y": 271,
      "size": 1,
      "price": "2333000000000000000000"
    },
    {
      "x": 263,
      "y": 270,
      "size": 1,
      "price": "2333000000000000000000"
    },
    {
      "x": 263,
      "y": 251,
      "size": 1,
      "price": "2333000000000000000000"
    },
    {
      "x": 263,
      "y": 250,
      "size": 1,
      "price": "2333000000000000000000"
    },
    {
      "x": 263,
      "y": 248,
      "size": 1,
      "price": "2333000000000000000000"
    },
    {
      "x": 263,
      "y": 247,
      "size": 1,
      "price": "2333000000000000000000"
    },
    {
      "x": 263,
      "y": 246,
      "size": 1,
      "price": "2333000000000000000000"
    },
    {
      "x": 263,
      "y": 245,
      "size": 1,
      "price": "2333000000000000000000"
    },
    {
      "x": 263,
      "y": 244,
      "size": 1,
      "price": "2333000000000000000000"
    },
    {
      "x": 263,
      "y": 243,
      "size": 1,
      "price": "2333000000000000000000"
    },
    {
      "x": 263,
      "y": 242,
      "size": 1,
      "price": "2333000000000000000000"
    },
    {
      "x": 263,
      "y": 241,
      "size": 1,
      "price": "2333000000000000000000"
    },
    {
      "x": 263,
      "y": 240,
      "size": 1,
      "price": "2333000000000000000000"
    },
    {
      "x": 263,
      "y": 236,
      "size": 1,
      "price": "2333000000000000000000"
    },
    {
      "x": 263,
      "y": 235,
      "size": 1,
      "price": "2333000000000000000000"
    },
    {
      "x": 263,
      "y": 234,
      "size": 1,
      "price": "2333000000000000000000"
    },
    {
      "x": 263,
      "y": 233,
      "size": 1,
      "price": "2333000000000000000000"
    },
    {
      "x": 263,
      "y": 232,
      "size": 1,
      "price": "2333000000000000000000"
    },
    {
      "x": 263,
      "y": 231,
      "size": 1,
      "price": "2333000000000000000000"
    },
    {
      "x": 263,
      "y": 227,
      "size": 1,
      "price": "2333000000000000000000"
    },
    {
      "x": 263,
      "y": 226,
      "size": 1,
      "price": "2333000000000000000000"
    },
    {
      "x": 263,
      "y": 224,
      "size": 1,
      "price": "2333000000000000000000"
    },
    {
      "x": 263,
      "y": 223,
      "size": 1,
      "price": "2333000000000000000000"
    },
    {
      "x": 263,
      "y": 222,
      "size": 1,
      "price": "2333000000000000000000"
    },
    {
      "x": 263,
      "y": 221,
      "size": 1,
      "price": "2333000000000000000000"
    },
    {
      "x": 263,
      "y": 220,
      "size": 1,
      "price": "2333000000000000000000"
    },
    {
      "x": 263,
      "y": 219,
      "size": 1,
      "price": "2333000000000000000000"
    },
    {
      "x": 263,
      "y": 218,
      "size": 1,
      "price": "2333000000000000000000"
    },
    {
      "x": 263,
      "y": 217,
      "size": 1,
      "price": "2333000000000000000000"
    },
    {
      "x": 263,
      "y": 216,
      "size": 1,
      "price": "2333000000000000000000"
    },
    {
      "x": 262,
      "y": 216,
      "size": 1,
      "price": "2333000000000000000000"
    },
    {
      "x": 262,
      "y": 217,
      "size": 1,
      "price": "2333000000000000000000"
    },
    {
      "x": 262,
      "y": 218,
      "size": 1,
      "price": "2333000000000000000000"
    },
    {
      "x": 262,
      "y": 219,
      "size": 1,
      "price": "2333000000000000000000"
    },
    {
      "x": 262,
      "y": 220,
      "size": 1,
      "price": "2333000000000000000000"
    },
    {
      "x": 262,
      "y": 221,
      "size": 1,
      "price": "2333000000000000000000"
    },
    {
      "x": 262,
      "y": 222,
      "size": 1,
      "price": "2333000000000000000000"
    },
    {
      "x": 262,
      "y": 223,
      "size": 1,
      "price": "2333000000000000000000"
    },
    {
      "x": 262,
      "y": 224,
      "size": 1,
      "price": "2333000000000000000000"
    },
    {
      "x": 262,
      "y": 226,
      "size": 1,
      "price": "2333000000000000000000"
    },
    {
      "x": 262,
      "y": 227,
      "size": 1,
      "price": "2333000000000000000000"
    },
    {
      "x": 262,
      "y": 231,
      "size": 1,
      "price": "2333000000000000000000"
    },
    {
      "x": 262,
      "y": 232,
      "size": 1,
      "price": "2333000000000000000000"
    },
    {
      "x": 262,
      "y": 233,
      "size": 1,
      "price": "2333000000000000000000"
    },
    {
      "x": 262,
      "y": 234,
      "size": 1,
      "price": "2333000000000000000000"
    },
    {
      "x": 262,
      "y": 235,
      "size": 1,
      "price": "2333000000000000000000"
    },
    {
      "x": 262,
      "y": 236,
      "size": 1,
      "price": "2333000000000000000000"
    },
    {
      "x": 262,
      "y": 240,
      "size": 1,
      "price": "2333000000000000000000"
    },
    {
      "x": 262,
      "y": 241,
      "size": 1,
      "price": "2333000000000000000000"
    },
    {
      "x": 262,
      "y": 242,
      "size": 1,
      "price": "2333000000000000000000"
    },
    {
      "x": 262,
      "y": 243,
      "size": 1,
      "price": "2333000000000000000000"
    },
    {
      "x": 262,
      "y": 244,
      "size": 1,
      "price": "2333000000000000000000"
    },
    {
      "x": 262,
      "y": 245,
      "size": 1,
      "price": "2333000000000000000000"
    },
    {
      "x": 262,
      "y": 246,
      "size": 1,
      "price": "2333000000000000000000"
    },
    {
      "x": 262,
      "y": 247,
      "size": 1,
      "price": "2333000000000000000000"
    },
    {
      "x": 262,
      "y": 248,
      "size": 1,
      "price": "2333000000000000000000"
    },
    {
      "x": 262,
      "y": 250,
      "size": 1,
      "price": "2333000000000000000000"
    },
    {
      "x": 262,
      "y": 251,
      "size": 1,
      "price": "2333000000000000000000"
    },
    {
      "x": 262,
      "y": 270,
      "size": 1,
      "price": "2333000000000000000000"
    },
    {
      "x": 262,
      "y": 271,
      "size": 1,
      "price": "2333000000000000000000"
    },
    {
      "x": 262,
      "y": 272,
      "size": 1,
      "price": "2333000000000000000000"
    },
    {
      "x": 262,
      "y": 276,
      "size": 1,
      "price": "2333000000000000000000"
    },
    {
      "x": 262,
      "y": 277,
      "size": 1,
      "price": "2333000000000000000000"
    },
    {
      "x": 262,
      "y": 278,
      "size": 1,
      "price": "2333000000000000000000"
    },
    {
      "x": 262,
      "y": 280,
      "size": 1,
      "price": "2333000000000000000000"
    },
    {
      "x": 262,
      "y": 281,
      "size": 1,
      "price": "2333000000000000000000"
    },
    {
      "x": 258,
      "y": 281,
      "size": 1,
      "price": "2333000000000000000000"
    },
    {
      "x": 258,
      "y": 280,
      "size": 1,
      "price": "2333000000000000000000"
    },
    {
      "x": 258,
      "y": 275,
      "size": 1,
      "price": "2333000000000000000000"
    },
    {
      "x": 258,
      "y": 274,
      "size": 1,
      "price": "2333000000000000000000"
    },
    {
      "x": 258,
      "y": 272,
      "size": 1,
      "price": "2333000000000000000000"
    },
    {
      "x": 258,
      "y": 271,
      "size": 1,
      "price": "2333000000000000000000"
    },
    {
      "x": 258,
      "y": 270,
      "size": 1,
      "price": "2333000000000000000000"
    },
    {
      "x": 258,
      "y": 251,
      "size": 1,
      "price": "2333000000000000000000"
    },
    {
      "x": 258,
      "y": 250,
      "size": 1,
      "price": "2333000000000000000000"
    },
    {
      "x": 258,
      "y": 249,
      "size": 1,
      "price": "2333000000000000000000"
    },
    {
      "x": 258,
      "y": 245,
      "size": 1,
      "price": "2333000000000000000000"
    },
    {
      "x": 258,
      "y": 244,
      "size": 1,
      "price": "2333000000000000000000"
    },
    {
      "x": 258,
      "y": 243,
      "size": 1,
      "price": "2333000000000000000000"
    },
    {
      "x": 258,
      "y": 239,
      "size": 1,
      "price": "2333000000000000000000"
    },
    {
      "x": 258,
      "y": 237,
      "size": 1,
      "price": "2333000000000000000000"
    },
    {
      "x": 258,
      "y": 233,
      "size": 1,
      "price": "2333000000000000000000"
    },
    {
      "x": 258,
      "y": 232,
      "size": 1,
      "price": "2333000000000000000000"
    },
    {
      "x": 258,
      "y": 231,
      "size": 1,
      "price": "2333000000000000000000"
    },
    {
      "x": 258,
      "y": 230,
      "size": 1,
      "price": "2333000000000000000000"
    },
    {
      "x": 258,
      "y": 229,
      "size": 1,
      "price": "2333000000000000000000"
    },
    {
      "x": 258,
      "y": 228,
      "size": 1,
      "price": "2333000000000000000000"
    },
    {
      "x": 258,
      "y": 227,
      "size": 1,
      "price": "2333000000000000000000"
    },
    {
      "x": 258,
      "y": 226,
      "size": 1,
      "price": "2333000000000000000000"
    },
    {
      "x": 258,
      "y": 221,
      "size": 1,
      "price": "2333000000000000000000"
    },
    {
      "x": 258,
      "y": 220,
      "size": 1,
      "price": "2333000000000000000000"
    },
    {
      "x": 258,
      "y": 219,
      "size": 1,
      "price": "2333000000000000000000"
    },
    {
      "x": 261,
      "y": 216,
      "size": 1,
      "price": "2333000000000000000000"
    },
    {
      "x": 260,
      "y": 226,
      "size": 1,
      "price": "2333000000000000000000"
    },
    {
      "x": 260,
      "y": 227,
      "size": 1,
      "price": "2333000000000000000000"
    },
    {
      "x": 260,
      "y": 228,
      "size": 1,
      "price": "2333000000000000000000"
    },
    {
      "x": 260,
      "y": 229,
      "size": 1,
      "price": "2333000000000000000000"
    },
    {
      "x": 260,
      "y": 230,
      "size": 1,
      "price": "2333000000000000000000"
    },
    {
      "x": 260,
      "y": 231,
      "size": 1,
      "price": "2333000000000000000000"
    },
    {
      "x": 260,
      "y": 232,
      "size": 1,
      "price": "2333000000000000000000"
    },
    {
      "x": 260,
      "y": 233,
      "size": 1,
      "price": "2333000000000000000000"
    },
    {
      "x": 260,
      "y": 237,
      "size": 1,
      "price": "2333000000000000000000"
    },
    {
      "x": 260,
      "y": 239,
      "size": 1,
      "price": "2333000000000000000000"
    },
    {
      "x": 260,
      "y": 243,
      "size": 1,
      "price": "2333000000000000000000"
    },
    {
      "x": 260,
      "y": 244,
      "size": 1,
      "price": "2333000000000000000000"
    },
    {
      "x": 260,
      "y": 245,
      "size": 1,
      "price": "2333000000000000000000"
    },
    {
      "x": 260,
      "y": 250,
      "size": 1,
      "price": "2333000000000000000000"
    },
    {
      "x": 260,
      "y": 251,
      "size": 1,
      "price": "2333000000000000000000"
    },
    {
      "x": 260,
      "y": 270,
      "size": 1,
      "price": "2333000000000000000000"
    },
    {
      "x": 260,
      "y": 271,
      "size": 1,
      "price": "2333000000000000000000"
    },
    {
      "x": 260,
      "y": 272,
      "size": 1,
      "price": "2333000000000000000000"
    },
    {
      "x": 260,
      "y": 274,
      "size": 1,
      "price": "2333000000000000000000"
    },
    {
      "x": 260,
      "y": 275,
      "size": 1,
      "price": "2333000000000000000000"
    },
    {
      "x": 260,
      "y": 280,
      "size": 1,
      "price": "2333000000000000000000"
    },
    {
      "x": 260,
      "y": 281,
      "size": 1,
      "price": "2333000000000000000000"
    },
    {
      "x": 257,
      "y": 276,
      "size": 1,
      "price": "2333000000000000000000"
    },
    {
      "x": 257,
      "y": 264,
      "size": 1,
      "price": "2333000000000000000000"
    },
    {
      "x": 257,
      "y": 248,
      "size": 1,
      "price": "2333000000000000000000"
    },
    {
      "x": 257,
      "y": 246,
      "size": 1,
      "price": "2333000000000000000000"
    },
    {
      "x": 257,
      "y": 245,
      "size": 1,
      "price": "2333000000000000000000"
    },
    {
      "x": 257,
      "y": 244,
      "size": 1,
      "price": "2333000000000000000000",
      "reserved": "0x7a9fe22691c811ea339d9b73150e6911a5343dca"
    },
    {
      "x": 257,
      "y": 243,
      "size": 1,
      "price": "2333000000000000000000"
    },
    {
      "x": 257,
      "y": 242,
      "size": 1,
      "price": "2333000000000000000000"
    },
    {
      "x": 257,
      "y": 241,
      "size": 1,
      "price": "2333000000000000000000"
    },
    {
      "x": 257,
      "y": 240,
      "size": 1,
      "price": "2333000000000000000000"
    },
    {
      "x": 257,
      "y": 233,
      "size": 1,
      "price": "2333000000000000000000"
    },
    {
      "x": 257,
      "y": 232,
      "size": 1,
      "price": "2333000000000000000000"
    },
    {
      "x": 257,
      "y": 231,
      "size": 1,
      "price": "2333000000000000000000"
    },
    {
      "x": 257,
      "y": 227,
      "size": 1,
      "price": "2333000000000000000000"
    },
    {
      "x": 257,
      "y": 226,
      "size": 1,
      "price": "2333000000000000000000"
    },
    {
      "x": 257,
      "y": 224,
      "size": 1,
      "price": "2333000000000000000000"
    },
    {
      "x": 257,
      "y": 223,
      "size": 1,
      "price": "2333000000000000000000"
    },
    {
      "x": 257,
      "y": 222,
      "size": 1,
      "price": "2333000000000000000000"
    },
    {
      "x": 256,
      "y": 222,
      "size": 1,
      "price": "2333000000000000000000",
      "reserved": "0x7a9fe22691c811ea339d9b73150e6911a5343dca"
    },
    {
      "x": 256,
      "y": 223,
      "size": 1,
      "price": "2333000000000000000000"
    },
    {
      "x": 256,
      "y": 224,
      "size": 1,
      "price": "2333000000000000000000"
    },
    {
      "x": 256,
      "y": 226,
      "size": 1,
      "price": "2333000000000000000000"
    },
    {
      "x": 256,
      "y": 227,
      "size": 1,
      "price": "2333000000000000000000"
    },
    {
      "x": 256,
      "y": 231,
      "size": 1,
      "price": "2333000000000000000000"
    },
    {
      "x": 256,
      "y": 232,
      "size": 1,
      "price": "2333000000000000000000"
    },
    {
      "x": 256,
      "y": 233,
      "size": 1,
      "price": "2333000000000000000000"
    },
    {
      "x": 256,
      "y": 240,
      "size": 1,
      "price": "2333000000000000000000"
    },
    {
      "x": 256,
      "y": 241,
      "size": 1,
      "price": "2333000000000000000000"
    },
    {
      "x": 256,
      "y": 242,
      "size": 1,
      "price": "2333000000000000000000"
    },
    {
      "x": 256,
      "y": 243,
      "size": 1,
      "price": "2333000000000000000000"
    },
    {
      "x": 256,
      "y": 244,
      "size": 1,
      "price": "2333000000000000000000"
    },
    {
      "x": 256,
      "y": 245,
      "size": 1,
      "price": "2333000000000000000000"
    },
    {
      "x": 256,
      "y": 247,
      "size": 1,
      "price": "2333000000000000000000"
    },
    {
      "x": 256,
      "y": 248,
      "size": 1,
      "price": "2333000000000000000000"
    },
    {
      "x": 256,
      "y": 264,
      "size": 1,
      "price": "2333000000000000000000"
    },
    {
      "x": 254,
      "y": 226,
      "size": 1,
      "price": "2333000000000000000000"
    },
    {
      "x": 254,
      "y": 227,
      "size": 1,
      "price": "2333000000000000000000"
    },
    {
      "x": 260,
      "y": 221,
      "size": 1,
      "price": "2333000000000000000000"
    },
    {
      "x": 260,
      "y": 220,
      "size": 1,
      "price": "2333000000000000000000"
    },
    {
      "x": 260,
      "y": 219,
      "size": 1,
      "price": "2333000000000000000000"
    },
    {
      "x": 264,
      "y": 215,
      "size": 1,
      "price": "2333000000000000000000"
    },
    {
      "x": 264,
      "y": 214,
      "size": 1,
      "price": "2333000000000000000000"
    },
    {
      "x": 265,
      "y": 214,
      "size": 1,
      "price": "2333000000000000000000"
    },
    {
      "x": 266,
      "y": 214,
      "size": 1,
      "price": "2333000000000000000000",
      "reserved": "0x7a9fe22691c811ea339d9b73150e6911a5343dca"
    },
    {
      "x": 267,
      "y": 214,
      "size": 1,
      "price": "2333000000000000000000"
    },
    {
      "x": 268,
      "y": 214,
      "size": 1,
      "price": "2333000000000000000000"
    },
    {
      "x": 269,
      "y": 214,
      "size": 1,
      "price": "2333000000000000000000"
    },
    {
      "x": 269,
      "y": 213,
      "size": 1,
      "price": "2333000000000000000000"
    },
    {
      "x": 265,
      "y": 215,
      "size": 1,
      "price": "2333000000000000000000"
    },
    {
      "x": 266,
      "y": 215,
      "size": 1,
      "price": "2333000000000000000000"
    },
    {
      "x": 267,
      "y": 215,
      "size": 1,
      "price": "2333000000000000000000"
    },
    {
      "x": 268,
      "y": 215,
      "size": 1,
      "price": "2333000000000000000000"
    },
    {
      "x": 269,
      "y": 215,
      "size": 1,
      "price": "2333000000000000000000"
    },
    {
      "x": 273,
      "y": 215,
      "size": 1,
      "price": "2333000000000000000000"
    },
    {
      "x": 274,
      "y": 215,
      "size": 1,
      "price": "2333000000000000000000"
    },
    {
      "x": 275,
      "y": 215,
      "size": 1,
      "price": "2333000000000000000000"
    },
    {
      "x": 279,
      "y": 215,
      "size": 1,
      "price": "2333000000000000000000"
    },
    {
      "x": 280,
      "y": 215,
      "size": 1,
      "price": "2333000000000000000000"
    },
    {
      "x": 281,
      "y": 215,
      "size": 1,
      "price": "2333000000000000000000"
    },
    {
      "x": 281,
      "y": 214,
      "size": 1,
      "price": "2333000000000000000000"
    },
    {
      "x": 280,
      "y": 214,
      "size": 1,
      "price": "2333000000000000000000"
    },
    {
      "x": 279,
      "y": 214,
      "size": 1,
      "price": "2333000000000000000000"
    },
    {
      "x": 275,
      "y": 214,
      "size": 1,
      "price": "2333000000000000000000"
    },
    {
      "x": 274,
      "y": 214,
      "size": 1,
      "price": "2333000000000000000000"
    },
    {
      "x": 273,
      "y": 214,
      "size": 1,
      "price": "2333000000000000000000"
    },
    {
      "x": 264,
      "y": 213,
      "size": 1,
      "price": "2333000000000000000000"
    },
    {
      "x": 265,
      "y": 213,
      "size": 1,
      "price": "2333000000000000000000"
    },
    {
      "x": 266,
      "y": 213,
      "size": 1,
      "price": "2333000000000000000000"
    },
    {
      "x": 267,
      "y": 213,
      "size": 1,
      "price": "2333000000000000000000"
    },
    {
      "x": 268,
      "y": 213,
      "size": 1,
      "price": "2333000000000000000000"
    },
    {
      "x": 273,
      "y": 213,
      "size": 1,
      "price": "2333000000000000000000"
    },
    {
      "x": 274,
      "y": 213,
      "size": 1,
      "price": "2333000000000000000000"
    },
    {
      "x": 275,
      "y": 213,
      "size": 1,
      "price": "2333000000000000000000"
    },
    {
      "x": 279,
      "y": 213,
      "size": 1,
      "price": "2333000000000000000000"
    },
    {
      "x": 280,
      "y": 213,
      "size": 1,
      "price": "2333000000000000000000"
    },
    {
      "x": 281,
      "y": 213,
      "size": 1,
      "price": "2333000000000000000000"
    },
    {
      "x": 268,
      "y": 250,
      "size": 1,
      "price": "2333000000000000000000"
    },
    {
      "x": 268,
      "y": 251,
      "size": 1,
      "price": "2333000000000000000000"
    },
    {
      "x": 268,
      "y": 263,
      "size": 1,
      "price": "2333000000000000000000"
    },
    {
      "x": 268,
      "y": 264,
      "size": 1,
      "price": "2333000000000000000000"
    },
    {
      "x": 268,
      "y": 265,
      "size": 1,
      "price": "2333000000000000000000"
    },
    {
      "x": 268,
      "y": 270,
      "size": 1,
      "price": "2333000000000000000000"
    },
    {
      "x": 268,
      "y": 271,
      "size": 1,
      "price": "2333000000000000000000"
    },
    {
      "x": 268,
      "y": 272,
      "size": 1,
      "price": "2333000000000000000000"
    },
    {
      "x": 268,
      "y": 274,
      "size": 1,
      "price": "2333000000000000000000"
    },
    {
      "x": 268,
      "y": 275,
      "size": 1,
      "price": "2333000000000000000000"
    },
    {
      "x": 266,
      "y": 275,
      "size": 1,
      "price": "2333000000000000000000"
    },
    {
      "x": 266,
      "y": 274,
      "size": 1,
      "price": "2333000000000000000000"
    },
    {
      "x": 266,
      "y": 272,
      "size": 1,
      "price": "2333000000000000000000"
    },
    {
      "x": 266,
      "y": 271,
      "size": 1,
      "price": "2333000000000000000000"
    },
    {
      "x": 266,
      "y": 270,
      "size": 1,
      "price": "2333000000000000000000"
    },
    {
      "x": 266,
      "y": 263,
      "size": 1,
      "price": "2333000000000000000000"
    },
    {
      "x": 266,
      "y": 260,
      "size": 1,
      "price": "2333000000000000000000"
    },
    {
      "x": 266,
      "y": 259,
      "size": 1,
      "price": "2333000000000000000000"
    },
    {
      "x": 266,
      "y": 258,
      "size": 1,
      "price": "2333000000000000000000"
    },
    {
      "x": 266,
      "y": 251,
      "size": 1,
      "price": "2333000000000000000000"
    },
    {
      "x": 266,
      "y": 250,
      "size": 1,
      "price": "2333000000000000000000"
    },
    {
      "x": 266,
      "y": 248,
      "size": 1,
      "price": "2333000000000000000000"
    },
    {
      "x": 266,
      "y": 247,
      "size": 1,
      "price": "2333000000000000000000"
    },
    {
      "x": 266,
      "y": 246,
      "size": 1,
      "price": "2333000000000000000000"
    },
    {
      "x": 266,
      "y": 242,
      "size": 1,
      "price": "2333000000000000000000"
    },
    {
      "x": 266,
      "y": 241,
      "size": 1,
      "price": "2333000000000000000000"
    },
    {
      "x": 266,
      "y": 240,
      "size": 1,
      "price": "2333000000000000000000"
    },
    {
      "x": 265,
      "y": 240,
      "size": 1,
      "price": "2333000000000000000000"
    },
    {
      "x": 265,
      "y": 241,
      "size": 1,
      "price": "2333000000000000000000"
    },
    {
      "x": 265,
      "y": 242,
      "size": 1,
      "price": "2333000000000000000000"
    },
    {
      "x": 265,
      "y": 246,
      "size": 1,
      "price": "2333000000000000000000"
    },
    {
      "x": 265,
      "y": 247,
      "size": 1,
      "price": "2333000000000000000000"
    },
    {
      "x": 265,
      "y": 248,
      "size": 1,
      "price": "2333000000000000000000"
    },
    {
      "x": 265,
      "y": 250,
      "size": 1,
      "price": "2333000000000000000000"
    },
    {
      "x": 265,
      "y": 251,
      "size": 1,
      "price": "2333000000000000000000"
    },
    {
      "x": 265,
      "y": 258,
      "size": 1,
      "price": "2333000000000000000000"
    },
    {
      "x": 265,
      "y": 259,
      "size": 1,
      "price": "2333000000000000000000"
    },
    {
      "x": 265,
      "y": 260,
      "size": 1,
      "price": "2333000000000000000000"
    },
    {
      "x": 265,
      "y": 263,
      "size": 1,
      "price": "2333000000000000000000"
    },
    {
      "x": 265,
      "y": 270,
      "size": 1,
      "price": "2333000000000000000000"
    },
    {
      "x": 265,
      "y": 271,
      "size": 1,
      "price": "2333000000000000000000"
    },
    {
      "x": 265,
      "y": 272,
      "size": 1,
      "price": "2333000000000000000000"
    },
    {
      "x": 265,
      "y": 274,
      "size": 1,
      "price": "2333000000000000000000"
    },
    {
      "x": 265,
      "y": 275,
      "size": 1,
      "price": "2333000000000000000000"
    },
    {
      "x": 264,
      "y": 275,
      "size": 1,
      "price": "2333000000000000000000"
    },
    {
      "x": 264,
      "y": 274,
      "size": 1,
      "price": "2333000000000000000000"
    },
    {
      "x": 264,
      "y": 272,
      "size": 1,
      "price": "2333000000000000000000"
    },
    {
      "x": 264,
      "y": 271,
      "size": 1,
      "price": "2333000000000000000000"
    },
    {
      "x": 264,
      "y": 270,
      "size": 1,
      "price": "2333000000000000000000"
    },
    {
      "x": 264,
      "y": 263,
      "size": 1,
      "price": "2333000000000000000000"
    },
    {
      "x": 264,
      "y": 260,
      "size": 1,
      "price": "2333000000000000000000"
    },
    {
      "x": 264,
      "y": 259,
      "size": 1,
      "price": "2333000000000000000000"
    },
    {
      "x": 264,
      "y": 258,
      "size": 1,
      "price": "2333000000000000000000"
    },
    {
      "x": 264,
      "y": 251,
      "size": 1,
      "price": "2333000000000000000000"
    },
    {
      "x": 264,
      "y": 250,
      "size": 1,
      "price": "2333000000000000000000"
    },
    {
      "x": 264,
      "y": 248,
      "size": 1,
      "price": "2333000000000000000000"
    },
    {
      "x": 264,
      "y": 247,
      "size": 1,
      "price": "2333000000000000000000"
    },
    {
      "x": 264,
      "y": 246,
      "size": 1,
      "price": "2333000000000000000000"
    },
    {
      "x": 264,
      "y": 242,
      "size": 1,
      "price": "2333000000000000000000"
    },
    {
      "x": 264,
      "y": 241,
      "size": 1,
      "price": "2333000000000000000000"
    },
    {
      "x": 264,
      "y": 240,
      "size": 1,
      "price": "2333000000000000000000"
    },
    {
      "x": 267,
      "y": 250,
      "size": 1,
      "price": "2333000000000000000000"
    },
    {
      "x": 267,
      "y": 251,
      "size": 1,
      "price": "2333000000000000000000"
    },
    {
      "x": 267,
      "y": 256,
      "size": 1,
      "price": "2333000000000000000000"
    },
    {
      "x": 267,
      "y": 264,
      "size": 1,
      "price": "2333000000000000000000"
    },
    {
      "x": 267,
      "y": 265,
      "size": 1,
      "price": "2333000000000000000000"
    },
    {
      "x": 267,
      "y": 270,
      "size": 1,
      "price": "2333000000000000000000"
    },
    {
      "x": 267,
      "y": 271,
      "size": 1,
      "price": "2333000000000000000000"
    },
    {
      "x": 267,
      "y": 272,
      "size": 1,
      "price": "2333000000000000000000"
    },
    {
      "x": 267,
      "y": 274,
      "size": 1,
      "price": "2333000000000000000000"
    },
    {
      "x": 267,
      "y": 275,
      "size": 1,
      "price": "2333000000000000000000"
    },
    {
      "x": 269,
      "y": 275,
      "size": 1,
      "price": "2333000000000000000000"
    },
    {
      "x": 269,
      "y": 274,
      "size": 1,
      "price": "2333000000000000000000"
    },
    {
      "x": 269,
      "y": 272,
      "size": 1,
      "price": "2333000000000000000000"
    },
    {
      "x": 269,
      "y": 271,
      "size": 1,
      "price": "2333000000000000000000"
    },
    {
      "x": 269,
      "y": 270,
      "size": 1,
      "price": "2333000000000000000000"
    },
    {
      "x": 269,
      "y": 265,
      "size": 1,
      "price": "2333000000000000000000"
    },
    {
      "x": 269,
      "y": 264,
      "size": 1,
      "price": "2333000000000000000000"
    },
    {
      "x": 269,
      "y": 263,
      "size": 1,
      "price": "2333000000000000000000"
    },
    {
      "x": 269,
      "y": 253,
      "size": 1,
      "price": "2333000000000000000000"
    },
    {
      "x": 269,
      "y": 251,
      "size": 1,
      "price": "2333000000000000000000"
    },
    {
      "x": 269,
      "y": 250,
      "size": 1,
      "price": "2333000000000000000000"
    },
    {
      "x": 270,
      "y": 240,
      "size": 1,
      "price": "2333000000000000000000"
    },
    {
      "x": 270,
      "y": 241,
      "size": 1,
      "price": "2333000000000000000000"
    },
    {
      "x": 270,
      "y": 242,
      "size": 1,
      "price": "2333000000000000000000"
    },
    {
      "x": 270,
      "y": 246,
      "size": 1,
      "price": "2333000000000000000000"
    },
    {
      "x": 270,
      "y": 247,
      "size": 1,
      "price": "2333000000000000000000"
    },
    {
      "x": 270,
      "y": 248,
      "size": 1,
      "price": "2333000000000000000000"
    },
    {
      "x": 270,
      "y": 250,
      "size": 1,
      "price": "2333000000000000000000"
    },
    {
      "x": 270,
      "y": 251,
      "size": 1,
      "price": "2333000000000000000000"
    },
    {
      "x": 271,
      "y": 258,
      "size": 1,
      "price": "2333000000000000000000"
    },
    {
      "x": 271,
      "y": 260,
      "size": 1,
      "price": "2333000000000000000000"
    },
    {
      "x": 271,
      "y": 274,
      "size": 1,
      "price": "2333000000000000000000"
    },
    {
      "x": 271,
      "y": 275,
      "size": 1,
      "price": "2333000000000000000000"
    },
    {
      "x": 272,
      "y": 275,
      "size": 1,
      "price": "2333000000000000000000"
    },
    {
      "x": 272,
      "y": 274,
      "size": 1,
      "price": "2333000000000000000000"
    },
    {
      "x": 272,
      "y": 260,
      "size": 1,
      "price": "2333000000000000000000"
    },
    {
      "x": 272,
      "y": 259,
      "size": 1,
      "price": "2333000000000000000000"
    },
    {
      "x": 272,
      "y": 251,
      "size": 1,
      "price": "2333000000000000000000"
    },
    {
      "x": 272,
      "y": 250,
      "size": 1,
      "price": "2333000000000000000000"
    },
    {
      "x": 272,
      "y": 248,
      "size": 1,
      "price": "2333000000000000000000"
    },
    {
      "x": 272,
      "y": 247,
      "size": 1,
      "price": "2333000000000000000000"
    },
    {
      "x": 272,
      "y": 246,
      "size": 1,
      "price": "2333000000000000000000"
    },
    {
      "x": 272,
      "y": 242,
      "size": 1,
      "price": "2333000000000000000000"
    },
    {
      "x": 272,
      "y": 240,
      "size": 1,
      "price": "2333000000000000000000"
    },
    {
      "x": 273,
      "y": 240,
      "size": 1,
      "price": "2333000000000000000000"
    },
    {
      "x": 273,
      "y": 241,
      "size": 1,
      "price": "2333000000000000000000"
    },
    {
      "x": 273,
      "y": 243,
      "size": 1,
      "price": "2333000000000000000000"
    },
    {
      "x": 273,
      "y": 244,
      "size": 1,
      "price": "2333000000000000000000"
    },
    {
      "x": 273,
      "y": 245,
      "size": 1,
      "price": "2333000000000000000000"
    },
    {
      "x": 273,
      "y": 246,
      "size": 1,
      "price": "2333000000000000000000"
    },
    {
      "x": 273,
      "y": 247,
      "size": 1,
      "price": "2333000000000000000000"
    },
    {
      "x": 273,
      "y": 258,
      "size": 1,
      "price": "2333000000000000000000"
    },
    {
      "x": 273,
      "y": 259,
      "size": 1,
      "price": "2333000000000000000000"
    },
    {
      "x": 273,
      "y": 260,
      "size": 1,
      "price": "2333000000000000000000"
    },
    {
      "x": 273,
      "y": 263,
      "size": 1,
      "price": "2333000000000000000000"
    },
    {
      "x": 273,
      "y": 270,
      "size": 1,
      "price": "2333000000000000000000"
    },
    {
      "x": 273,
      "y": 271,
      "size": 1,
      "price": "2333000000000000000000",
      "reserved": "0x7a9fe22691c811ea339d9b73150e6911a5343dca"
    },
    {
      "x": 273,
      "y": 272,
      "size": 1,
      "price": "2333000000000000000000"
    },
    {
      "x": 274,
      "y": 272,
      "size": 1,
      "price": "2333000000000000000000"
    },
    {
      "x": 274,
      "y": 271,
      "size": 1,
      "price": "2333000000000000000000"
    },
    {
      "x": 274,
      "y": 270,
      "size": 1,
      "price": "2333000000000000000000"
    },
    {
      "x": 274,
      "y": 263,
      "size": 1,
      "price": "2333000000000000000000"
    },
    {
      "x": 274,
      "y": 260,
      "size": 1,
      "price": "2333000000000000000000"
    },
    {
      "x": 274,
      "y": 259,
      "size": 1,
      "price": "2333000000000000000000"
    },
    {
      "x": 274,
      "y": 258,
      "size": 1,
      "price": "2333000000000000000000"
    },
    {
      "x": 274,
      "y": 248,
      "size": 1,
      "price": "2333000000000000000000"
    },
    {
      "x": 274,
      "y": 246,
      "size": 1,
      "price": "2333000000000000000000"
    },
    {
      "x": 274,
      "y": 245,
      "size": 1,
      "price": "2333000000000000000000"
    },
    {
      "x": 274,
      "y": 244,
      "size": 1,
      "price": "2333000000000000000000"
    },
    {
      "x": 274,
      "y": 242,
      "size": 1,
      "price": "2333000000000000000000"
    },
    {
      "x": 274,
      "y": 241,
      "size": 1,
      "price": "2333000000000000000000"
    },
    {
      "x": 274,
      "y": 240,
      "size": 1,
      "price": "2333000000000000000000"
    },
    {
      "x": 275,
      "y": 241,
      "size": 1,
      "price": "2333000000000000000000"
    },
    {
      "x": 275,
      "y": 242,
      "size": 1,
      "price": "2333000000000000000000"
    },
    {
      "x": 275,
      "y": 243,
      "size": 1,
      "price": "2333000000000000000000"
    },
    {
      "x": 275,
      "y": 258,
      "size": 1,
      "price": "2333000000000000000000"
    },
    {
      "x": 275,
      "y": 259,
      "size": 1,
      "price": "2333000000000000000000"
    },
    {
      "x": 275,
      "y": 260,
      "size": 1,
      "price": "2333000000000000000000"
    },
    {
      "x": 275,
      "y": 263,
      "size": 1,
      "price": "2333000000000000000000"
    },
    {
      "x": 275,
      "y": 270,
      "size": 1,
      "price": "2333000000000000000000"
    },
    {
      "x": 275,
      "y": 271,
      "size": 1,
      "price": "2333000000000000000000"
    },
    {
      "x": 275,
      "y": 272,
      "size": 1,
      "price": "2333000000000000000000"
    },
    {
      "x": 277,
      "y": 281,
      "size": 1,
      "price": "2333000000000000000000"
    },
    {
      "x": 277,
      "y": 280,
      "size": 1,
      "price": "2333000000000000000000"
    },
    {
      "x": 277,
      "y": 260,
      "size": 1,
      "price": "2333000000000000000000"
    },
    {
      "x": 277,
      "y": 259,
      "size": 1,
      "price": "2333000000000000000000"
    },
    {
      "x": 277,
      "y": 258,
      "size": 1,
      "price": "2333000000000000000000"
    },
    {
      "x": 276,
      "y": 256,
      "size": 1,
      "price": "2333000000000000000000"
    },
    {
      "x": 275,
      "y": 240,
      "size": 1,
      "price": "2333000000000000000000"
    },
    {
      "x": 271,
      "y": 242,
      "size": 1,
      "price": "2333000000000000000000"
    },
    {
      "x": 271,
      "y": 246,
      "size": 1,
      "price": "2333000000000000000000"
    },
    {
      "x": 271,
      "y": 247,
      "size": 1,
      "price": "2333000000000000000000"
    },
    {
      "x": 271,
      "y": 248,
      "size": 1,
      "price": "2333000000000000000000"
    },
    {
      "x": 271,
      "y": 250,
      "size": 1,
      "price": "2333000000000000000000"
    },
    {
      "x": 271,
      "y": 251,
      "size": 1,
      "price": "2333000000000000000000"
    },
    {
      "x": 270,
      "y": 275,
      "size": 1,
      "price": "2333000000000000000000"
    },
    {
      "x": 270,
      "y": 274,
      "size": 1,
      "price": "2333000000000000000000"
    },
    {
      "x": 270,
      "y": 259,
      "size": 1,
      "price": "2333000000000000000000"
    },
    {
      "x": 270,
      "y": 258,
      "size": 1,
      "price": "2333000000000000000000"
    },
    {
      "x": 271,
      "y": 241,
      "size": 1,
      "price": "2333000000000000000000"
    },
    {
      "x": 284,
      "y": 252,
      "size": 1,
      "price": "2333000000000000000000"
    },
    {
      "x": 282,
      "y": 276,
      "size": 1,
      "price": "2333000000000000000000"
    },
    {
      "x": 282,
      "y": 277,
      "size": 1,
      "price": "2333000000000000000000"
    },
    {
      "x": 281,
      "y": 278,
      "size": 1,
      "price": "2333000000000000000000"
    },
    {
      "x": 280,
      "y": 278,
      "size": 1,
      "price": "2333000000000000000000"
    },
    {
      "x": 279,
      "y": 278,
      "size": 1,
      "price": "2333000000000000000000"
    },
    {
      "x": 276,
      "y": 260,
      "size": 1,
      "price": "2333000000000000000000"
    },
    {
      "x": 276,
      "y": 259,
      "size": 1,
      "price": "2333000000000000000000"
    },
    {
      "x": 276,
      "y": 258,
      "size": 1,
      "price": "2333000000000000000000"
    },
    {
      "x": 278,
      "y": 256,
      "size": 1,
      "price": "2333000000000000000000"
    },
    {
      "x": 278,
      "y": 258,
      "size": 1,
      "price": "2333000000000000000000"
    },
    {
      "x": 279,
      "y": 262,
      "size": 1,
      "price": "2333000000000000000000"
    },
    {
      "x": 279,
      "y": 263,
      "size": 1,
      "price": "2333000000000000000000"
    },
    {
      "x": 281,
      "y": 262,
      "size": 1,
      "price": "2333000000000000000000"
    },
    {
      "x": 281,
      "y": 263,
      "size": 1,
      "price": "2333000000000000000000"
    },
    {
      "x": 278,
      "y": 260,
      "size": 1,
      "price": "2333000000000000000000"
    },
    {
      "x": 278,
      "y": 259,
      "size": 1,
      "price": "2333000000000000000000"
    },
    {
      "x": 276,
      "y": 280,
      "size": 1,
      "price": "2333000000000000000000"
    },
    {
      "x": 276,
      "y": 281,
      "size": 1,
      "price": "2333000000000000000000"
    },
    {
      "x": 278,
      "y": 281,
      "size": 1,
      "price": "2333000000000000000000"
    },
    {
      "x": 278,
      "y": 280,
      "size": 1,
      "price": "2333000000000000000000"
    },
    {
      "x": 278,
      "y": 279,
      "size": 1,
      "price": "2333000000000000000000"
    },
    {
      "x": 279,
      "y": 277,
      "size": 1,
      "price": "2333000000000000000000"
    },
    {
      "x": 280,
      "y": 277,
      "size": 1,
      "price": "2333000000000000000000"
    },
    {
      "x": 281,
      "y": 276,
      "size": 1,
      "price": "2333000000000000000000"
    },
    {
      "x": 283,
      "y": 276,
      "size": 1,
      "price": "2333000000000000000000"
    },
    {
      "x": 284,
      "y": 276,
      "size": 1,
      "price": "2333000000000000000000"
    },
    {
      "x": 284,
      "y": 278,
      "size": 1,
      "price": "2333000000000000000000"
    },
    {
      "x": 283,
      "y": 278,
      "size": 1,
      "price": "2333000000000000000000"
    },
    {
      "x": 283,
      "y": 277,
      "size": 1,
      "price": "2333000000000000000000"
    },
    {
      "x": 282,
      "y": 278,
      "size": 1,
      "price": "2333000000000000000000"
    },
    {
      "x": 281,
      "y": 277,
      "size": 1,
      "price": "2333000000000000000000"
    },
    {
      "x": 280,
      "y": 276,
      "size": 1,
      "price": "2333000000000000000000"
    },
    {
      "x": 279,
      "y": 276,
      "size": 1,
      "price": "2333000000000000000000"
    },
    {
      "x": 284,
      "y": 277,
      "size": 1,
      "price": "2333000000000000000000"
    },
    {
      "x": 285,
      "y": 280,
      "size": 1,
      "price": "2333000000000000000000"
    },
    {
      "x": 285,
      "y": 281,
      "size": 1,
      "price": "2333000000000000000000"
    },
    {
      "x": 286,
      "y": 281,
      "size": 1,
      "price": "2333000000000000000000"
    },
    {
      "x": 287,
      "y": 281,
      "size": 1,
      "price": "2333000000000000000000"
    },
    {
      "x": 285,
      "y": 279,
      "size": 1,
      "price": "2333000000000000000000"
    },
    {
      "x": 286,
      "y": 280,
      "size": 1,
      "price": "2333000000000000000000"
    },
    {
      "x": 287,
      "y": 280,
      "size": 1,
      "price": "2333000000000000000000"
    },
    {
      "x": 287,
      "y": 279,
      "size": 1,
      "price": "2333000000000000000000"
    },
    {
      "x": 286,
      "y": 279,
      "size": 1,
      "price": "2333000000000000000000"
    },
    {
      "x": 264,
      "y": 288,
      "size": 24,
      "price": "1075200000000000000000000",
      "reserved": "0x7a9fe22691c811ea339d9b73150e6911a5343dca"
    },
    {
      "x": 264,
      "y": 216,
      "size": 24,
      "price": "1075200000000000000000000"
    },
    {
      "x": 204,
      "y": 264,
      "size": 12,
      "price": "285600000000000000000000",
      "reserved": "0x7a9fe22691c811ea339d9b73150e6911a5343dca"
    },
    {
      "x": 228,
      "y": 264,
      "size": 12,
      "price": "285600000000000000000000",
      "reserved": "0x7a9fe22691c811ea339d9b73150e6911a5343dca"
    },
    {
      "x": 240,
      "y": 288,
      "size": 12,
      "price": "285600000000000000000000"
    },
    {
      "x": 216,
      "y": 276,
      "size": 12,
      "price": "285600000000000000000000",
      "reserved": "0x7a9fe22691c811ea339d9b73150e6911a5343dca"
    },
    {
      "x": 228,
      "y": 276,
      "size": 12,
      "price": "285600000000000000000000",
      "reserved": "0x7a9fe22691c811ea339d9b73150e6911a5343dca"
    },
    {
      "x": 276,
      "y": 264,
      "size": 12,
      "price": "285600000000000000000000",
      "reserved": "0x7a9fe22691c811ea339d9b73150e6911a5343dca"
    },
    {
      "x": 252,
      "y": 204,
      "size": 12,
      "price": "285600000000000000000000",
      "reserved": "0x7a9fe22691c811ea339d9b73150e6911a5343dca"
    },
    {
      "x": 204,
      "y": 228,
      "size": 12,
      "price": "285600000000000000000000"
    },
    {
      "x": 228,
      "y": 204,
      "size": 12,
      "price": "285600000000000000000000",
      "reserved": "0x7a9fe22691c811ea339d9b73150e6911a5343dca"
    },
    {
      "x": 240,
      "y": 228,
      "size": 12,
      "price": "285600000000000000000000",
      "reserved": "0x0183d9be08db4024c2dc9aec10b9526fc6adeef7"
    },
    {
      "x": 276,
      "y": 240,
      "size": 12,
      "price": "285600000000000000000000"
    },
    {
      "x": 264,
      "y": 276,
      "size": 12,
      "price": "285600000000000000000000"
    },
    {
      "x": 216,
      "y": 252,
      "size": 12,
      "price": "285600000000000000000000"
    },
    {
      "x": 258,
      "y": 282,
      "size": 6,
      "price": "75600000000000000000000"
    },
    {
      "x": 276,
      "y": 282,
      "size": 6,
      "price": "75600000000000000000000"
    },
    {
      "x": 288,
      "y": 276,
      "size": 6,
      "price": "75600000000000000000000"
    },
    {
      "x": 246,
      "y": 282,
      "size": 6,
      "price": "75600000000000000000000"
    },
    {
      "x": 216,
      "y": 288,
      "size": 6,
      "price": "75600000000000000000000",
      "reserved": "0x9a27defa6dbf90963c44a55689822e2e593fdc24"
    },
    {
      "x": 198,
      "y": 282,
      "size": 6,
      "price": "75600000000000000000000",
      "reserved": "0x49f5ab0cf42c24e83f653625e19f6b897b766c3a"
    },
    {
      "x": 204,
      "y": 276,
      "size": 6,
      "price": "75600000000000000000000"
    },
    {
      "x": 192,
      "y": 264,
      "size": 6,
      "price": "75600000000000000000000"
    },
    {
      "x": 198,
      "y": 258,
      "size": 6,
      "price": "75600000000000000000000"
    },
    {
      "x": 204,
      "y": 252,
      "size": 6,
      "price": "75600000000000000000000"
    },
    {
      "x": 222,
      "y": 240,
      "size": 6,
      "price": "75600000000000000000000"
    },
    {
      "x": 228,
      "y": 246,
      "size": 6,
      "price": "75600000000000000000000"
    },
    {
      "x": 234,
      "y": 240,
      "size": 6,
      "price": "75600000000000000000000",
      "reserved": "0x9ee5e3ff06425cf972e77c195f70ecb18ac23d7f"
    },
    {
      "x": 222,
      "y": 264,
      "size": 6,
      "price": "75600000000000000000000"
    },
    {
      "x": 240,
      "y": 258,
      "size": 6,
      "price": "75600000000000000000000"
    },
    {
      "x": 246,
      "y": 270,
      "size": 6,
      "price": "75600000000000000000000"
    },
    {
      "x": 258,
      "y": 264,
      "size": 6,
      "price": "75600000000000000000000"
    },
    {
      "x": 270,
      "y": 252,
      "size": 6,
      "price": "75600000000000000000000"
    },
    {
      "x": 288,
      "y": 246,
      "size": 6,
      "price": "75600000000000000000000"
    },
    {
      "x": 288,
      "y": 228,
      "size": 6,
      "price": "75600000000000000000000"
    },
    {
      "x": 294,
      "y": 234,
      "size": 6,
      "price": "75600000000000000000000",
      "reserved": "0x7a9fe22691c811ea339d9b73150e6911a5343dca"
    },
    {
      "x": 276,
      "y": 204,
      "size": 6,
      "price": "75600000000000000000000",
      "reserved": "0xf0adf5b562afa6df18994414613fa94c5108ec5a"
    },
    {
      "x": 252,
      "y": 216,
      "size": 6,
      "price": "75600000000000000000000",
      "reserved": "0x7a17d7661ed48322a03ab16cd7cca97aa28c2e99"
    },
    {
      "x": 240,
      "y": 222,
      "size": 6,
      "price": "75600000000000000000000"
    },
    {
      "x": 234,
      "y": 198,
      "size": 6,
      "price": "75600000000000000000000"
    },
    {
      "x": 222,
      "y": 222,
      "size": 6,
      "price": "75600000000000000000000"
    },
    {
      "x": 216,
      "y": 210,
      "size": 6,
      "price": "75600000000000000000000"
    },
    {
      "x": 228,
      "y": 234,
      "size": 6,
      "price": "75600000000000000000000"
    },
    {
      "x": 252,
      "y": 234,
      "size": 6,
      "price": "75600000000000000000000"
    },
    {
      "x": 246,
      "y": 246,
      "size": 6,
      "price": "75600000000000000000000"
    },
    {
      "x": 270,
      "y": 264,
      "size": 6,
      "price": "75600000000000000000000",
      "reserved": "0x5c31a139ba273ebad8d1b1ae22e4617ec0f32d4c"
    },
    {
      "x": 282,
      "y": 258,
      "size": 6,
      "price": "75600000000000000000000",
      "reserved": "0xcf510cc870667a1064085a98d34b49da44d88fc9"
    },
    {
      "x": 210,
      "y": 222,
      "size": 6,
      "price": "75600000000000000000000",
      "reserved": "0xc5f9b7277fd3ea02d84531a74bc9c8480db96fce"
    },
    {
      "x": 282,
      "y": 210,
      "size": 6,
      "price": "75600000000000000000000"
    },
    {
      "x": 285,
      "y": 276,
      "size": 3,
      "price": "19950000000000000000000"
    },
    {
      "x": 282,
      "y": 279,
      "size": 3,
      "price": "19950000000000000000000",
      "reserved": "0x7a9fe22691c811ea339d9b73150e6911a5343dca"
    },
    {
      "x": 279,
      "y": 279,
      "size": 3,
      "price": "19950000000000000000000"
    },
    {
      "x": 276,
      "y": 276,
      "size": 3,
      "price": "19950000000000000000000"
    },
    {
      "x": 273,
      "y": 273,
      "size": 3,
      "price": "19950000000000000000000"
    },
    {
      "x": 270,
      "y": 270,
      "size": 3,
      "price": "19950000000000000000000"
    },
    {
      "x": 261,
      "y": 273,
      "size": 3,
      "price": "19950000000000000000000",
      "reserved": "0x7a9fe22691c811ea339d9b73150e6911a5343dca"
    },
    {
      "x": 258,
      "y": 276,
      "size": 3,
      "price": "19950000000000000000000"
    },
    {
      "x": 252,
      "y": 279,
      "size": 3,
      "price": "19950000000000000000000",
      "reserved": "0x7a9fe22691c811ea339d9b73150e6911a5343dca"
    },
    {
      "x": 252,
      "y": 276,
      "size": 3,
      "price": "19950000000000000000000"
    },
    {
      "x": 249,
      "y": 276,
      "size": 3,
      "price": "19950000000000000000000"
    },
    {
      "x": 249,
      "y": 279,
      "size": 3,
      "price": "19950000000000000000000"
    },
    {
      "x": 243,
      "y": 279,
      "size": 3,
      "price": "19950000000000000000000"
    },
    {
      "x": 243,
      "y": 282,
      "size": 3,
      "price": "19950000000000000000000",
      "reserved": "0x4546be8acb146bc0af81261f833277af6f222dcf"
    },
    {
      "x": 240,
      "y": 285,
      "size": 3,
      "price": "19950000000000000000000"
    },
    {
      "x": 204,
      "y": 282,
      "size": 3,
      "price": "19950000000000000000000"
    },
    {
      "x": 207,
      "y": 285,
      "size": 3,
      "price": "19950000000000000000000",
      "reserved": "0x7a9fe22691c811ea339d9b73150e6911a5343dca"
    },
    {
      "x": 207,
      "y": 282,
      "size": 3,
      "price": "19950000000000000000000"
    },
    {
      "x": 210,
      "y": 279,
      "size": 3,
      "price": "19950000000000000000000"
    },
    {
      "x": 213,
      "y": 279,
      "size": 3,
      "price": "19950000000000000000000"
    },
    {
      "x": 213,
      "y": 276,
      "size": 3,
      "price": "19950000000000000000000"
    },
    {
      "x": 201,
      "y": 276,
      "size": 3,
      "price": "19950000000000000000000"
    },
    {
      "x": 198,
      "y": 279,
      "size": 3,
      "price": "19950000000000000000000"
    },
    {
      "x": 201,
      "y": 270,
      "size": 3,
      "price": "19950000000000000000000"
    },
    {
      "x": 198,
      "y": 264,
      "size": 3,
      "price": "19950000000000000000000"
    },
    {
      "x": 201,
      "y": 252,
      "size": 3,
      "price": "19950000000000000000000"
    },
    {
      "x": 201,
      "y": 240,
      "size": 3,
      "price": "19950000000000000000000"
    },
    {
      "x": 204,
      "y": 243,
      "size": 3,
      "price": "19950000000000000000000"
    },
    {
      "x": 207,
      "y": 243,
      "size": 3,
      "price": "19950000000000000000000"
    },
    {
      "x": 207,
      "y": 249,
      "size": 3,
      "price": "19950000000000000000000"
    },
    {
      "x": 207,
      "y": 258,
      "size": 3,
      "price": "19950000000000000000000",
      "reserved": "0xad38dd1ae27c09e4d394d5a10cfab999da7a30c3"
    },
    {
      "x": 210,
      "y": 255,
      "size": 3,
      "price": "19950000000000000000000"
    },
    {
      "x": 213,
      "y": 261,
      "size": 3,
      "price": "19950000000000000000000"
    },
    {
      "x": 219,
      "y": 264,
      "size": 3,
      "price": "19950000000000000000000",
      "reserved": "0xb312ff1e27202bef6f60d85c0c718dca7e270af6"
    },
    {
      "x": 240,
      "y": 273,
      "size": 3,
      "price": "19950000000000000000000"
    },
    {
      "x": 243,
      "y": 267,
      "size": 3,
      "price": "19950000000000000000000",
      "reserved": "0x7a9fe22691c811ea339d9b73150e6911a5343dca"
    },
    {
      "x": 240,
      "y": 267,
      "size": 3,
      "price": "19950000000000000000000"
    },
    {
      "x": 240,
      "y": 264,
      "size": 3,
      "price": "19950000000000000000000"
    },
    {
      "x": 252,
      "y": 270,
      "size": 3,
      "price": "19950000000000000000000"
    },
    {
      "x": 255,
      "y": 270,
      "size": 3,
      "price": "19950000000000000000000"
    },
    {
      "x": 255,
      "y": 273,
      "size": 3,
      "price": "19950000000000000000000"
    },
    {
      "x": 264,
      "y": 264,
      "size": 3,
      "price": "19950000000000000000000"
    },
    {
      "x": 267,
      "y": 267,
      "size": 3,
      "price": "19950000000000000000000"
    },
    {
      "x": 270,
      "y": 261,
      "size": 3,
      "price": "19950000000000000000000"
    },
    {
      "x": 276,
      "y": 261,
      "size": 3,
      "price": "19950000000000000000000"
    },
    {
      "x": 288,
      "y": 267,
      "size": 3,
      "price": "19950000000000000000000"
    },
    {
      "x": 285,
      "y": 252,
      "size": 3,
      "price": "19950000000000000000000",
      "reserved": "0x7a9fe22691c811ea339d9b73150e6911a5343dca"
    },
    {
      "x": 282,
      "y": 255,
      "size": 3,
      "price": "19950000000000000000000"
    },
    {
      "x": 279,
      "y": 255,
      "size": 3,
      "price": "19950000000000000000000"
    },
    {
      "x": 279,
      "y": 258,
      "size": 3,
      "price": "19950000000000000000000"
    },
    {
      "x": 273,
      "y": 249,
      "size": 3,
      "price": "19950000000000000000000",
      "reserved": "0x264111acf589f31d62db4b92c203e7f168a5f2c1"
    },
    {
      "x": 249,
      "y": 264,
      "size": 3,
      "price": "19950000000000000000000"
    },
    {
      "x": 249,
      "y": 258,
      "size": 3,
      "price": "19950000000000000000000"
    },
    {
      "x": 267,
      "y": 258,
      "size": 3,
      "price": "19950000000000000000000"
    },
    {
      "x": 264,
      "y": 255,
      "size": 3,
      "price": "19950000000000000000000"
    },
    {
      "x": 246,
      "y": 255,
      "size": 3,
      "price": "19950000000000000000000"
    },
    {
      "x": 243,
      "y": 252,
      "size": 3,
      "price": "19950000000000000000000"
    },
    {
      "x": 237,
      "y": 252,
      "size": 3,
      "price": "19950000000000000000000"
    },
    {
      "x": 231,
      "y": 252,
      "size": 3,
      "price": "19950000000000000000000",
      "reserved": "0xd47da26264500ddc4da7c37d1ba77f7917d0bbd1"
    },
    {
      "x": 228,
      "y": 252,
      "size": 3,
      "price": "19950000000000000000000"
    },
    {
      "x": 228,
      "y": 255,
      "size": 3,
      "price": "19950000000000000000000"
    },
    {
      "x": 216,
      "y": 249,
      "size": 3,
      "price": "19950000000000000000000"
    },
    {
      "x": 219,
      "y": 246,
      "size": 3,
      "price": "19950000000000000000000"
    },
    {
      "x": 222,
      "y": 249,
      "size": 3,
      "price": "19950000000000000000000"
    },
    {
      "x": 225,
      "y": 246,
      "size": 3,
      "price": "19950000000000000000000"
    },
    {
      "x": 234,
      "y": 246,
      "size": 3,
      "price": "19950000000000000000000"
    },
    {
      "x": 234,
      "y": 249,
      "size": 3,
      "price": "19950000000000000000000"
    },
    {
      "x": 240,
      "y": 246,
      "size": 3,
      "price": "19950000000000000000000"
    },
    {
      "x": 243,
      "y": 243,
      "size": 3,
      "price": "19950000000000000000000",
      "reserved": "0x7a9fe22691c811ea339d9b73150e6911a5343dca"
    },
    {
      "x": 231,
      "y": 243,
      "size": 3,
      "price": "19950000000000000000000"
    },
    {
      "x": 213,
      "y": 240,
      "size": 3,
      "price": "19950000000000000000000",
      "reserved": "0x7a9fe22691c811ea339d9b73150e6911a5343dca"
    },
    {
      "x": 216,
      "y": 240,
      "size": 3,
      "price": "19950000000000000000000"
    },
    {
      "x": 255,
      "y": 249,
      "size": 3,
      "price": "19950000000000000000000"
    },
    {
      "x": 258,
      "y": 246,
      "size": 3,
      "price": "19950000000000000000000"
    },
    {
      "x": 264,
      "y": 243,
      "size": 3,
      "price": "19950000000000000000000"
    },
    {
      "x": 267,
      "y": 243,
      "size": 3,
      "price": "19950000000000000000000"
    },
    {
      "x": 270,
      "y": 243,
      "size": 3,
      "price": "19950000000000000000000"
    },
    {
      "x": 267,
      "y": 246,
      "size": 3,
      "price": "19950000000000000000000"
    },
    {
      "x": 267,
      "y": 240,
      "size": 3,
      "price": "19950000000000000000000"
    },
    {
      "x": 288,
      "y": 243,
      "size": 3,
      "price": "19950000000000000000000"
    },
    {
      "x": 288,
      "y": 234,
      "size": 3,
      "price": "19950000000000000000000"
    },
    {
      "x": 294,
      "y": 231,
      "size": 3,
      "price": "19950000000000000000000"
    },
    {
      "x": 294,
      "y": 228,
      "size": 3,
      "price": "19950000000000000000000"
    },
    {
      "x": 291,
      "y": 222,
      "size": 3,
      "price": "19950000000000000000000"
    },
    {
      "x": 291,
      "y": 219,
      "size": 3,
      "price": "19950000000000000000000"
    },
    {
      "x": 288,
      "y": 219,
      "size": 3,
      "price": "19950000000000000000000"
    },
    {
      "x": 288,
      "y": 216,
      "size": 3,
      "price": "19950000000000000000000",
      "reserved": "0x7a9fe22691c811ea339d9b73150e6911a5343dca"
    },
    {
      "x": 291,
      "y": 210,
      "size": 3,
      "price": "19950000000000000000000"
    },
    {
      "x": 288,
      "y": 207,
      "size": 3,
      "price": "19950000000000000000000"
    },
    {
      "x": 291,
      "y": 204,
      "size": 3,
      "price": "19950000000000000000000"
    },
    {
      "x": 279,
      "y": 210,
      "size": 3,
      "price": "19950000000000000000000"
    },
    {
      "x": 252,
      "y": 243,
      "size": 3,
      "price": "19950000000000000000000"
    },
    {
      "x": 246,
      "y": 240,
      "size": 3,
      "price": "19950000000000000000000"
    },
    {
      "x": 258,
      "y": 240,
      "size": 3,
      "price": "19950000000000000000000"
    },
    {
      "x": 261,
      "y": 237,
      "size": 3,
      "price": "19950000000000000000000"
    },
    {
      "x": 258,
      "y": 234,
      "size": 3,
      "price": "19950000000000000000000"
    },
    {
      "x": 252,
      "y": 231,
      "size": 3,
      "price": "19950000000000000000000"
    },
    {
      "x": 255,
      "y": 228,
      "size": 3,
      "price": "19950000000000000000000",
      "reserved": "0xfc9fb438c456c771c0b38a57cf0e8a3eab4704fe"
    },
    {
      "x": 261,
      "y": 228,
      "size": 3,
      "price": "19950000000000000000000"
    },
    {
      "x": 258,
      "y": 222,
      "size": 3,
      "price": "19950000000000000000000"
    },
    {
      "x": 276,
      "y": 213,
      "size": 3,
      "price": "19950000000000000000000"
    },
    {
      "x": 267,
      "y": 210,
      "size": 3,
      "price": "19950000000000000000000"
    },
    {
      "x": 258,
      "y": 216,
      "size": 3,
      "price": "19950000000000000000000"
    },
    {
      "x": 264,
      "y": 207,
      "size": 3,
      "price": "19950000000000000000000"
    },
    {
      "x": 270,
      "y": 207,
      "size": 3,
      "price": "19950000000000000000000"
    },
    {
      "x": 252,
      "y": 222,
      "size": 3,
      "price": "19950000000000000000000"
    },
    {
      "x": 249,
      "y": 225,
      "size": 3,
      "price": "19950000000000000000000"
    },
    {
      "x": 237,
      "y": 237,
      "size": 3,
      "price": "19950000000000000000000"
    },
    {
      "x": 234,
      "y": 234,
      "size": 3,
      "price": "19950000000000000000000"
    },
    {
      "x": 237,
      "y": 231,
      "size": 3,
      "price": "19950000000000000000000"
    },
    {
      "x": 225,
      "y": 237,
      "size": 3,
      "price": "19950000000000000000000"
    },
    {
      "x": 219,
      "y": 234,
      "size": 3,
      "price": "19950000000000000000000",
      "reserved": "0x4be5f7c9912afd58bcda39b0a4ec76e7b21ba0f1"
    },
    {
      "x": 216,
      "y": 231,
      "size": 3,
      "price": "19950000000000000000000"
    },
    {
      "x": 222,
      "y": 231,
      "size": 3,
      "price": "19950000000000000000000"
    },
    {
      "x": 228,
      "y": 231,
      "size": 3,
      "price": "19950000000000000000000"
    },
    {
      "x": 228,
      "y": 228,
      "size": 3,
      "price": "19950000000000000000000"
    },
    {
      "x": 231,
      "y": 228,
      "size": 3,
      "price": "19950000000000000000000"
    },
    {
      "x": 237,
      "y": 225,
      "size": 3,
      "price": "19950000000000000000000"
    },
    {
      "x": 216,
      "y": 225,
      "size": 3,
      "price": "19950000000000000000000"
    },
    {
      "x": 204,
      "y": 222,
      "size": 3,
      "price": "19950000000000000000000"
    },
    {
      "x": 204,
      "y": 216,
      "size": 3,
      "price": "19950000000000000000000"
    },
    {
      "x": 207,
      "y": 216,
      "size": 3,
      "price": "19950000000000000000000"
    },
    {
      "x": 216,
      "y": 216,
      "size": 3,
      "price": "19950000000000000000000"
    },
    {
      "x": 213,
      "y": 219,
      "size": 3,
      "price": "19950000000000000000000"
    },
    {
      "x": 219,
      "y": 222,
      "size": 3,
      "price": "19950000000000000000000"
    },
    {
      "x": 231,
      "y": 222,
      "size": 3,
      "price": "19950000000000000000000",
      "reserved": "0xfef2c33e1ca5c81e630c4c766f5860e3222848a6"
    },
    {
      "x": 234,
      "y": 219,
      "size": 3,
      "price": "19950000000000000000000"
    },
    {
      "x": 222,
      "y": 219,
      "size": 3,
      "price": "19950000000000000000000"
    },
    {
      "x": 219,
      "y": 204,
      "size": 3,
      "price": "19950000000000000000000"
    },
    {
      "x": 222,
      "y": 207,
      "size": 3,
      "price": "19950000000000000000000"
    },
    {
      "x": 225,
      "y": 213,
      "size": 3,
      "price": "19950000000000000000000"
    },
    {
      "x": 228,
      "y": 216,
      "size": 3,
      "price": "19950000000000000000000"
    },
    {
      "x": 240,
      "y": 210,
      "size": 3,
      "price": "19950000000000000000000"
    },
    {
      "x": 243,
      "y": 213,
      "size": 3,
      "price": "19950000000000000000000"
    },
    {
      "x": 243,
      "y": 216,
      "size": 3,
      "price": "19950000000000000000000"
    },
    {
      "x": 246,
      "y": 210,
      "size": 3,
      "price": "19950000000000000000000"
    },
    {
      "x": 243,
      "y": 207,
      "size": 3,
      "price": "19950000000000000000000"
    },
    {
      "x": 249,
      "y": 207,
      "size": 3,
      "price": "19950000000000000000000"
    },
    {
      "x": 270,
      "y": 213,
      "size": 3,
      "price": "19950000000000000000000",
      "reserved": "0x7a9fe22691c811ea339d9b73150e6911a5343dca"
    },
    {
      "x": 246,
      "y": 219,
      "size": 3,
      "price": "19950000000000000000000",
      "reserved": "0x7a9fe22691c811ea339d9b73150e6911a5343dca"
    },
    {
      "x": 243,
      "y": 204,
      "size": 3,
      "price": "19950000000000000000000",
      "reserved": "0x7a9fe22691c811ea339d9b73150e6911a5343dca"
    },
    {
      "x": 288,
      "y": 261,
      "size": 3,
      "price": "19950000000000000000000"
    },
    {
      "x": 288,
      "y": 255,
      "size": 3,
      "price": "19950000000000000000000"
    },
    {
      "x": 213,
      "y": 252,
      "size": 3,
      "price": "19950000000000000000000"
    },
    {
      "x": 210,
      "y": 246,
      "size": 6,
      "price": "75600000000000000000000",
      "reserved": "0x08e5dae9104c2795f898a468274e57d9f8a10468"
    },
    {
      "x": 264,
      "y": 252,
      "size": 3,
      "price": "19950000000000000000000"
    },
    {
      "x": 252,
      "y": 252,
      "size": 12,
      "price": "285600000000000000000000",
      "reserved": "0x4546be8acb146bc0af81261f833277af6f222dcf"
    }
  ],
  "bytecode": "0x6080604052620d2f00600555600e805462ff00001961ffff199091166101001716905534801561002e57600080fd5b50604051612379380380612379833981810160405261018081101561005257600080fd5b508051602082015160408301516060840151608085015160a086015160c087015160e08801516101008901516101208a01516101408b0151610160909b0151600280546001600160a01b038085166001600160a01b03199283161790925560038e905560068054838f1690831617905560078054928d1692909116919091179055999a9899979896979596949593949293919290916100fb8a60016001600160e01b0361017116565b600b80546001600160a01b03199081166001600160a01b039a8b1617909155600d97909755600c9590955550506008805485169286169290921790915560098054841691851691909117905560008054831694841694909417909355600a805490911692909116919091179055506101d5915050565b6001600160a01b038216600081815260016020908152604091829020805460ff191685151590811790915582519384529083015280517fb21eb88b4e33b3f1281830a7178d74d8aa73220416215726b68ae23d539515cb9281900390910190a15050565b612195806101e46000396000f3fe6080604052600436106101805760003560e01c80637c53ec4c116100d6578063c2bddf261161007f578063e0a1f1c711610059578063e0a1f1c71461084c578063e56f8a9e1461095e578063e97eb0a21461098857610180565b8063c2bddf26146106ff578063caed350014610804578063dc5074af1461081957610180565b8063a7e30684116100b0578063a7e30684146105e7578063b522ecff146105fc578063c10a42081461062f57610180565b80637c53ec4c1461054d5780638a04af6a146105795780638f283970146105b457610180565b80634a2537781161013857806365194ce71161011257806365194ce71461039c5780636e9960c31461050757806377f1c3ac1461053857610180565b80634a2537781461032a57806358bc29441461033f5780635d8e30211461037257610180565b80633b7c4c15116101695780633b7c4c15146101c15780633be3b0e2146101ef578063427b8d341461030157610180565b806325cb5bc0146101855780632eb4a7ab146101ac575b600080fd5b34801561019157600080fd5b5061019a6109b4565b60408051918252519081900360200190f35b3480156101b857600080fd5b5061019a6109ba565b3480156101cd57600080fd5b506101ed600480360360208110156101e457600080fd5b503515156109c0565b005b3480156101fb57600080fd5b506101ed600480360361014081101561021357600080fd5b6001600160a01b038235811692602081013582169260408201359092169160608201359160808101359160a08201359160c08101359160e08201359190810190610120810161010082013564010000000081111561027057600080fd5b82018360208201111561028257600080fd5b803590602001918460208302840111640100000000831117156102a457600080fd5b9193909290916020810190356401000000008111156102c257600080fd5b8201836020820111156102d457600080fd5b803590602001918460018302840111640100000000831117156102f657600080fd5b509092509050610a41565b34801561030d57600080fd5b50610316610b9c565b604080519115158252519081900360200190f35b34801561033657600080fd5b50610316610bab565b34801561034b57600080fd5b506101ed6004803603602081101561036257600080fd5b50356001600160a01b0316610bb9565b34801561037e57600080fd5b5061019a6004803603602081101561039557600080fd5b5035610c64565b3480156103a857600080fd5b5061044f600480360360208110156103bf57600080fd5b8101906020810181356401000000008111156103da57600080fd5b8201836020820111156103ec57600080fd5b8035906020019184600183028401116401000000008311171561040e57600080fd5b91908080601f016020809104026020016040519081016040528093929190818152602001838380828437600092019190915250929550610c93945050505050565b6040518080602001866001600160a01b03166001600160a01b03168152602001856001600160a01b03166001600160a01b03168152602001848152602001838152602001828103825287818151815260200191508051906020019080838360005b838110156104c85781810151838201526020016104b0565b50505050905090810190601f1680156104f55780820380516001836020036101000a031916815260200191505b50965050505050505060405180910390f35b34801561051357600080fd5b5061051c610d98565b604080516001600160a01b039092168252519081900360200190f35b34801561054457600080fd5b5061019a610da7565b34801561055957600080fd5b506101ed6004803603602081101561057057600080fd5b50351515610dad565b34801561058557600080fd5b506101ed6004803603604081101561059c57600080fd5b506001600160a01b0381351690602001351515610e09565b3480156105c057600080fd5b506101ed600480360360208110156105d757600080fd5b50356001600160a01b0316610e60565b3480156105f357600080fd5b50610316610f36565b34801561060857600080fd5b506101ed6004803603602081101561061f57600080fd5b50356001600160a01b0316610f3f565b34801561063b57600080fd5b50610316600480360360a081101561065257600080fd5b81019060208101813564010000000081111561066d57600080fd5b82018360208201111561067f57600080fd5b803590602001918460018302840111640100000000831117156106a157600080fd5b91908080601f016020809104026020016040519081016040528093929190818152602001838380828437600092019190915250929550506001600160a01b038335811694506020840135169260408101359250606001359050610ffc565b6101ed600480360361014081101561071657600080fd5b6001600160a01b038235811692602081013582169260408201359092169160608201359160808101359160a08201359160c08101359160e08201359190810190610120810161010082013564010000000081111561077357600080fd5b82018360208201111561078557600080fd5b803590602001918460208302840111640100000000831117156107a757600080fd5b9193909290916020810190356401000000008111156107c557600080fd5b8201836020820111156107d757600080fd5b803590602001918460018302840111640100000000831117156107f957600080fd5b509092509050611125565b34801561081057600080fd5b5061051c6112be565b34801561082557600080fd5b506103166004803603602081101561083c57600080fd5b50356001600160a01b03166112cd565b34801561085857600080fd5b506101ed600480360361014081101561087057600080fd5b6001600160a01b038235811692602081013582169260408201359092169160608201359160808101359160a08201359160c08101359160e0820135919081019061012081016101008201356401000000008111156108cd57600080fd5b8201836020820111156108df57600080fd5b8035906020019184602083028401116401000000008311171561090157600080fd5b91939092909160208101903564010000000081111561091f57600080fd5b82018360208201111561093157600080fd5b8035906020019184600183028401116401000000008311171561095357600080fd5b5090925090506112eb565b34801561096a57600080fd5b506101ed6004803603602081101561098157600080fd5b503561140c565b34801561099457600080fd5b506101ed600480360360208110156109ab57600080fd5b50351515611470565b600c5490565b600d5490565b6000546001600160a01b03163314610a095760405162461bcd60e51b815260040180806020018281038252602181526020018061213f6021913960400191505060405180910390fd5b600e805491151562010000027fffffffffffffffffffffffffffffffffffffffffffffffffffffffffff00ffff909216919091179055565b600e5462010000900460ff16610a9e576040805162461bcd60e51b815260206004820152601860248201527f646169207061796d656e7473206e6f7420656e61626c65640000000000000000604482015290519081900360640190fd5b610ae18c8b8b8b8b8b8b8b8b808060200260200160405190810160405280939291908181526020018383602002808284376000920191909152506114f092505050565b6000610b12670de0b6b3a7640000610b0689663328b944c4000063ffffffff6116ad16565b9063ffffffff61172316565b9050610b688d8285858080601f01602080910402602001604051908101604052809392919081815260200183838082843760009201919091525050600b546009546001600160a01b039182169350169050611736565b610b8d8d8d8c8c8c8c600960009054906101000a90046001600160a01b0316886119f3565b50505050505050505050505050565b600e5462010000900460ff1690565b600e54610100900460ff1690565b6000546001600160a01b03163314610c18576040805162461bcd60e51b815260206004820152601060248201527f53656e646572206e6f742061646d696e00000000000000000000000000000000604482015290519081900360640190fd5b600554600280546001600160a01b03908116600090815260046020526040902042909301909255805473ffffffffffffffffffffffffffffffffffffffff191692909116919091179055565b600080610c6f611c36565b9050610c8c81610b0685663328b944c4000063ffffffff6116ad16565b9392505050565b606060008060008060606000806000808a80602001905160a0811015610cb857600080fd5b8101908080516040519392919084640100000000821115610cd857600080fd5b908301906020820185811115610ced57600080fd5b8251640100000000811182820188101715610d0757600080fd5b82525081516020918201929091019080838360005b83811015610d34578181015183820152602001610d1c565b50505050905090810190601f168015610d615780820380516001836020036101000a031916815260200191505b5060409081526020820151908201516060830151608090930151959f50909d509b5099509197505050505050505091939590929450565b6000546001600160a01b031690565b60035490565b6000546001600160a01b03163314610df65760405162461bcd60e51b81526004018080602001828103825260228152602001806120ef6022913960400191505060405180910390fd5b600e805460ff1916911515919091179055565b6000546001600160a01b03163314610e525760405162461bcd60e51b815260040180806020018281038252602e815260200180612111602e913960400191505060405180910390fd5b610e5c8282611cb9565b5050565b6000546001600160a01b03163314610ebf576040805162461bcd60e51b815260206004820152601b60248201527f6f6e6c792061646d696e2063616e206368616e67652061646d696e0000000000604482015290519081900360640190fd5b600054604080516001600160a01b039283168152918316602083015280517f7e644d79422f17c01e4894b5f4f588d331ebfa28653d42ae832dc59e38c9798f9281900390910190a16000805473ffffffffffffffffffffffffffffffffffffffff19166001600160a01b0392909216919091179055565b600e5460ff1690565b6001600160a01b038116610f845760405162461bcd60e51b815260040180806020018281038252602781526020018061209e6027913960400191505060405180910390fd5b6000546001600160a01b03163314610fcd5760405162461bcd60e51b815260040180806020018281038252602a8152602001806120c5602a913960400191505060405180910390fd5b600b805473ffffffffffffffffffffffffffffffffffffffff19166001600160a01b0392909216919091179055565b600060035482118061101f5750836001600160a01b0316856001600160a01b0316145b8061102957508242115b156110365750600061111c565b60408051606087811b6bffffffffffffffffffffffff199081166020808501919091529188901b166034830152604882018690526068808301869052835180840390910181526088830184528051908201207f19457468657265756d205369676e6564204d6573736167653a0a33320000000060a884015260c48084018290528451808503909101815260e490930190935281519101206000906110da9089611d1d565b6001600160a01b03811660009081526004602052604090205490915042116111075760019250505061111c565b6002546001600160a01b039081169116149150505b95945050505050565b600e54610100900460ff16611181576040805162461bcd60e51b815260206004820152601a60248201527f6574686572207061796d656e7473206e6f7420656e61626c6564000000000000604482015290519081900360640190fd5b6111c48c8b8b8b8b8b8b8b8b808060200260200160405190810160405280939291908181526020018383602002808284376000920191909152506114f092505050565b60006111cf87610c64565b905080341015611226576040805162461bcd60e51b815260206004820152601560248201527f6e6f7420656e6f7567682065746865722073656e740000000000000000000000604482015290519081900360640190fd5b34819003156112605760405133903483900380156108fc02916000818181858888f1935050505015801561125e573d6000803e3d6000fd5b505b6112ad8184848080601f01602080910402602001604051908101604052809392919081815260200183838082843760009201919091525050600b546001600160a01b03169150611dea9050565b610b8d8d8d8c8c8c8c6000886119f3565b6002546001600160a01b031690565b6001600160a01b031660009081526001602052604090205460ff1690565b600e5460ff16611342576040805162461bcd60e51b815260206004820152601960248201527f73616e64207061796d656e7473206e6f7420656e61626c656400000000000000604482015290519081900360640190fd5b6113858c8b8b8b8b8b8b8b8b808060200260200160405190810160405280939291908181526020018383602002808284376000920191909152506114f092505050565b6113d98c8784848080601f01602080910402602001604051908101604052809392919081815260200183838082843760009201919091525050600b546007546001600160a01b039182169350169050611736565b6113fe8c8c8b8b8b8b600760009054906101000a90046001600160a01b03168d6119f3565b505050505050505050505050565b6000546001600160a01b0316331461146b576040805162461bcd60e51b815260206004820152601060248201527f53656e646572206e6f742061646d696e00000000000000000000000000000000604482015290519081900360640190fd5b600355565b6000546001600160a01b031633146114b95760405162461bcd60e51b815260040180806020018281038252602181526020018061207d6021913960400191505060405180910390fd5b600e8054911515610100027fffffffffffffffffffffffffffffffffffffffffffffffffffffffffffff00ff909216919091179055565b600c544210611546576040805162461bcd60e51b815260206004820152600c60248201527f73616c65206973206f7665720000000000000000000000000000000000000000604482015290519081900360640190fd5b6001600160a01b03881633148061156c57503360009081526001602052604090205460ff165b6115bd576040805162461bcd60e51b815260206004820152600e60248201527f6e6f7420617574686f72697a6564000000000000000000000000000000000000604482015290519081900360640190fd5b6001600160a01b03871615806115e45750876001600160a01b0316876001600160a01b0316145b611635576040805162461bcd60e51b815260206004820152601860248201527f63616e6e6f7420627579207265736572766564204c616e640000000000000000604482015290519081900360640190fd5b6000611645878787878c88611f16565b90506116518282611f74565b6116a2576040805162461bcd60e51b815260206004820152601560248201527f496e76616c6964206c616e642070726f76696465640000000000000000000000604482015290519081900360640190fd5b505050505050505050565b6000826116bc5750600061171d565b50818102818382816116ca57fe5b041461171d576040805162461bcd60e51b815260206004820152600860248201527f6f766572666c6f77000000000000000000000000000000000000000000000000604482015290519081900360640190fd5b92915050565b600081838161172e57fe5b049392505050565b825181908590156118f95760606000806000806117528a610c93565b939850919650945092509050600061176d8686868686610ffc565b156117fb5761178761177f8d846116ad565b612710611723565b9050886001600160a01b0316846001600160a01b0316866001600160a01b03167fac7a699eb95c3c6d390ec4626de17ef9a67b35891efdb197beba7c7fdd45fac48f858760405180848152602001838152602001828152602001935050505060405180910390a46117f8878261201f565b96505b80156118f257604080517f23b872dd0000000000000000000000000000000000000000000000000000000081526001600160a01b038f811660048301528781166024830152604482018490529151918a16916323b872dd916064808201926020929091908290030181600087803b15801561187557600080fd5b505af1158015611889573d6000803e3d6000fd5b505050506040513d602081101561189f57600080fd5b50516118f2576040805162461bcd60e51b815260206004820152601960248201527f636f6d6d6973696f6e207472616e73666572206661696c656400000000000000604482015290519081900360640190fd5b5050505050505b604080517f23b872dd0000000000000000000000000000000000000000000000000000000081526001600160a01b0389811660048301528681166024830152604482018490529151918416916323b872dd916064808201926020929091908290030181600087803b15801561196d57600080fd5b505af1158015611981573d6000803e3d6000fd5b505050506040513d602081101561199757600080fd5b50516119ea576040805162461bcd60e51b815260206004820152601760248201527f7061796d656e74207472616e73666572206661696c6564000000000000000000604482015290519081900360640190fd5b50505050505050565b8360011415611aa157600654604080517f6e1e3bbf0000000000000000000000000000000000000000000000000000000081526001600160a01b038a8116600483015260248201889052604482018a90526064820189905260a06084830152600060a483018190529251931692636e1e3bbf9260e48084019391929182900301818387803b158015611a8457600080fd5b505af1158015611a98573d6000803e3d6000fd5b50505050611bcc565b600654600a54604080516001600160a01b038b8116602080840191909152835180840382018152838501948590527f6e1e3bbf0000000000000000000000000000000000000000000000000000000090945293811660448301818152606484018b9052608484018d905260a484018c905260a060c48501908152855160e486015285519390971696636e1e3bbf9692958c958f958f95929493926101049092019185019080838360005b83811015611b63578181015183820152602001611b4b565b50505050905090810190601f168015611b905780820380516001836020036101000a031916815260200191505b509650505050505050600060405180830381600087803b158015611bb357600080fd5b505af1158015611bc7573d6000803e3d6000fd5b505050505b60408051858152602081018590526001600160a01b03848116828401526060820184905291516101988802890192808b1692908c16917fe4dfa6ac11314892f3029b34a25b1a887da3b1cab2bbf8506d87128ba6e3ac029181900360800190a45050505050505050565b600080600860009054906101000a90046001600160a01b03166001600160a01b03166357de26a46040518163ffffffff1660e01b815260040160206040518083038186803b158015611c8757600080fd5b505afa158015611c9b573d6000803e3d6000fd5b505050506040513d6020811015611cb157600080fd5b505191505090565b6001600160a01b038216600081815260016020908152604091829020805460ff191685151590811790915582519384529083015280517fb21eb88b4e33b3f1281830a7178d74d8aa73220416215726b68ae23d539515cb9281900390910190a15050565b60008151604114611d2d57600080fd5b60208201516040830151606084015160001a601b811015611d4c57601b015b8060ff16601b1480611d6157508060ff16601c145b611d6a57600080fd5b6040805160008152602080820180845289905260ff8416828401526060820186905260808201859052915160019260a0808401939192601f1981019281900390910190855afa158015611dc1573d6000803e3d6000fd5b5050604051601f1901519450506001600160a01b038416611de157600080fd5b50505092915050565b8151839015611ed9576060600080600080611e0488610c93565b9398509196509450925090506000611e1f8686868686610ffc565b15611e9457611e3161177f8b846116ad565b604080518c81526020810183905280820185905290519192506000916001600160a01b0387811692908916917fac7a699eb95c3c6d390ec4626de17ef9a67b35891efdb197beba7c7fdd45fac49181900360600190a4611e91878261201f565b96505b8015611ed2576040516001600160a01b0386169082156108fc029083906000818181858888f19350505050158015611ed0573d6000803e3d6000fd5b505b5050505050505b6040516001600160a01b0383169082156108fc029083906000818181858888f19350505050158015611f0f573d6000803e3d6000fd5b5050505050565b60408051602080820198909852808201969096526060808701959095526080860193909352921b6bffffffffffffffffffffffff191660a084015260b4808401929092528051808403909201825260d4909201909152805191012090565b600081815b8451811015612013576000858281518110611f9057fe5b6020026020010151905080831015611fd8578281604051602001808381526020018281526020019250505060405160208183030381529060405280519060200120925061200a565b808360405160200180838152602001828152602001925050506040516020818303038152906040528051906020012092505b50600101611f79565b50600d54149392505050565b600082821115612076576040805162461bcd60e51b815260206004820152600860248201527f756e6465666c6f77000000000000000000000000000000000000000000000000604482015290519081900360640190fd5b5090039056fe6f6e6c792061646d696e2063616e20656e61626c652f64697361626c6520455448726563656976696e672077616c6c65742063616e6e6f74206265207a65726f20616464726573736f6e6c792061646d696e2063616e206368616e67652074686520726563656976696e672077616c6c65746f6e6c792061646d696e2063616e20656e61626c652f64697361626c652053414e446f6e6c792061646d696e2063616e207365747570206d6574615472616e73616374696f6e50726f636573736f72736f6e6c792061646d696e2063616e20656e61626c652f64697361626c6520444149a2646970667358221220286e0bd3643e74a284074ccdabe1a19339c88c9a9a45ccb9f57169f98e51f09e64736f6c63430006050033"
}